{
  "_format": "hh-sol-artifact-1",
  "contractName": "WQStakingWQT",
  "sourceName": "contracts/WQStakingWQT.sol",
  "abi": [
    {
      "inputs": [],
      "stateMutability": "nonpayable",
      "type": "constructor"
    },
    {
      "anonymous": false,
      "inputs": [
        {
          "indexed": false,
          "internalType": "address",
          "name": "previousAdmin",
          "type": "address"
        },
        {
          "indexed": false,
          "internalType": "address",
          "name": "newAdmin",
          "type": "address"
        }
      ],
      "name": "AdminChanged",
      "type": "event"
    },
    {
      "anonymous": false,
      "inputs": [
        {
          "indexed": true,
          "internalType": "address",
          "name": "beacon",
          "type": "address"
        }
      ],
      "name": "BeaconUpgraded",
      "type": "event"
    },
    {
      "anonymous": false,
      "inputs": [
        {
          "indexed": true,
          "internalType": "bytes32",
          "name": "role",
          "type": "bytes32"
        },
        {
          "indexed": true,
          "internalType": "bytes32",
          "name": "previousAdminRole",
          "type": "bytes32"
        },
        {
          "indexed": true,
          "internalType": "bytes32",
          "name": "newAdminRole",
          "type": "bytes32"
        }
      ],
      "name": "RoleAdminChanged",
      "type": "event"
    },
    {
      "anonymous": false,
      "inputs": [
        {
          "indexed": true,
          "internalType": "bytes32",
          "name": "role",
          "type": "bytes32"
        },
        {
          "indexed": true,
          "internalType": "address",
          "name": "account",
          "type": "address"
        },
        {
          "indexed": true,
          "internalType": "address",
          "name": "sender",
          "type": "address"
        }
      ],
      "name": "RoleGranted",
      "type": "event"
    },
    {
      "anonymous": false,
      "inputs": [
        {
          "indexed": true,
          "internalType": "bytes32",
          "name": "role",
          "type": "bytes32"
        },
        {
          "indexed": true,
          "internalType": "address",
          "name": "account",
          "type": "address"
        },
        {
          "indexed": true,
          "internalType": "address",
          "name": "sender",
          "type": "address"
        }
      ],
      "name": "RoleRevoked",
      "type": "event"
    },
    {
      "anonymous": false,
      "inputs": [
        {
          "indexed": true,
          "internalType": "address",
          "name": "implementation",
          "type": "address"
        }
      ],
      "name": "Upgraded",
      "type": "event"
    },
    {
      "anonymous": false,
      "inputs": [
        {
          "indexed": false,
          "internalType": "uint256",
          "name": "amount",
          "type": "uint256"
        },
        {
          "indexed": false,
          "internalType": "uint256",
          "name": "time",
          "type": "uint256"
        },
        {
          "indexed": true,
          "internalType": "address",
          "name": "sender",
          "type": "address"
        }
      ],
      "name": "tokensClaimed",
      "type": "event"
    },
    {
      "anonymous": false,
      "inputs": [
        {
          "indexed": false,
          "internalType": "uint256",
          "name": "amount",
          "type": "uint256"
        },
        {
          "indexed": false,
          "internalType": "uint256",
          "name": "time",
          "type": "uint256"
        },
        {
          "indexed": true,
          "internalType": "address",
          "name": "sender",
          "type": "address"
        }
      ],
      "name": "tokensStaked",
      "type": "event"
    },
    {
      "anonymous": false,
      "inputs": [
        {
          "indexed": false,
          "internalType": "uint256",
          "name": "amount",
          "type": "uint256"
        },
        {
          "indexed": false,
          "internalType": "uint256",
          "name": "time",
          "type": "uint256"
        },
        {
          "indexed": true,
          "internalType": "address",
          "name": "sender",
          "type": "address"
        }
      ],
      "name": "tokensUnstaked",
      "type": "event"
    },
    {
      "inputs": [],
      "name": "ADMIN_ROLE",
      "outputs": [
        {
          "internalType": "bytes32",
          "name": "",
          "type": "bytes32"
        }
      ],
      "stateMutability": "view",
      "type": "function"
    },
    {
      "inputs": [],
      "name": "DEFAULT_ADMIN_ROLE",
      "outputs": [
        {
          "internalType": "bytes32",
          "name": "",
          "type": "bytes32"
        }
      ],
      "stateMutability": "view",
      "type": "function"
    },
    {
      "inputs": [],
      "name": "UPGRADER_ROLE",
      "outputs": [
        {
          "internalType": "bytes32",
          "name": "",
          "type": "bytes32"
        }
      ],
      "stateMutability": "view",
      "type": "function"
    },
    {
      "inputs": [],
      "name": "autoRenewal",
      "outputs": [],
      "stateMutability": "nonpayable",
      "type": "function"
    },
    {
      "inputs": [],
      "name": "claim",
      "outputs": [],
      "stateMutability": "nonpayable",
      "type": "function"
    },
    {
      "inputs": [],
      "name": "claimPeriod",
      "outputs": [
        {
          "internalType": "uint256",
          "name": "",
          "type": "uint256"
        }
      ],
      "stateMutability": "view",
      "type": "function"
    },
    {
      "inputs": [],
      "name": "distributionTime",
      "outputs": [
        {
          "internalType": "uint256",
          "name": "",
          "type": "uint256"
        }
      ],
      "stateMutability": "view",
      "type": "function"
    },
    {
      "inputs": [],
      "name": "earlierProduced",
      "outputs": [
        {
          "internalType": "uint256",
          "name": "",
          "type": "uint256"
        }
      ],
      "stateMutability": "view",
      "type": "function"
    },
    {
      "inputs": [
        {
          "internalType": "address",
          "name": "_staker",
          "type": "address"
        }
      ],
      "name": "getClaim",
      "outputs": [
        {
          "internalType": "uint256",
          "name": "reward",
          "type": "uint256"
        }
      ],
      "stateMutability": "view",
      "type": "function"
    },
    {
      "inputs": [
        {
          "internalType": "address",
          "name": "user",
          "type": "address"
        }
      ],
      "name": "getInfoByAddress",
      "outputs": [
        {
          "internalType": "uint256",
          "name": "staked_",
          "type": "uint256"
        },
        {
          "internalType": "uint256",
          "name": "claim_",
          "type": "uint256"
        },
        {
          "internalType": "uint256",
          "name": "_balance",
          "type": "uint256"
        },
        {
          "internalType": "uint256",
          "name": "unstakeTime",
          "type": "uint256"
        }
      ],
      "stateMutability": "view",
      "type": "function"
    },
    {
      "inputs": [
        {
          "internalType": "bytes32",
          "name": "role",
          "type": "bytes32"
        }
      ],
      "name": "getRoleAdmin",
      "outputs": [
        {
          "internalType": "bytes32",
          "name": "",
          "type": "bytes32"
        }
      ],
      "stateMutability": "view",
      "type": "function"
    },
    {
      "inputs": [],
      "name": "getStakingInfo",
      "outputs": [
        {
          "components": [
            {
              "internalType": "uint256",
              "name": "startTime",
              "type": "uint256"
            },
            {
              "internalType": "uint256",
              "name": "rewardTotal",
              "type": "uint256"
            },
            {
              "internalType": "uint256",
              "name": "distributionTime",
              "type": "uint256"
            },
            {
              "internalType": "uint256",
              "name": "stakePeriod",
              "type": "uint256"
            },
            {
              "internalType": "uint256",
              "name": "claimPeriod",
              "type": "uint256"
            },
            {
              "internalType": "uint256",
              "name": "minStake",
              "type": "uint256"
            },
            {
              "internalType": "uint256",
              "name": "maxStake",
              "type": "uint256"
            },
            {
              "internalType": "uint256",
              "name": "totalStaked",
              "type": "uint256"
            },
            {
              "internalType": "uint256",
              "name": "totalDistributed",
              "type": "uint256"
            }
          ],
          "internalType": "struct WQStakingWQT.StakeInfo",
          "name": "info_",
          "type": "tuple"
        }
      ],
      "stateMutability": "view",
      "type": "function"
    },
    {
      "inputs": [
        {
          "internalType": "bytes32",
          "name": "role",
          "type": "bytes32"
        },
        {
          "internalType": "address",
          "name": "account",
          "type": "address"
        }
      ],
      "name": "grantRole",
      "outputs": [],
      "stateMutability": "nonpayable",
      "type": "function"
    },
    {
      "inputs": [
        {
          "internalType": "bytes32",
          "name": "role",
          "type": "bytes32"
        },
        {
          "internalType": "address",
          "name": "account",
          "type": "address"
        }
      ],
      "name": "hasRole",
      "outputs": [
        {
          "internalType": "bool",
          "name": "",
          "type": "bool"
        }
      ],
      "stateMutability": "view",
      "type": "function"
    },
    {
      "inputs": [
        {
          "internalType": "uint256",
          "name": "_startTime",
          "type": "uint256"
        },
        {
          "internalType": "uint256",
          "name": "_rewardTotal",
          "type": "uint256"
        },
        {
          "internalType": "uint256",
          "name": "_distributionTime",
          "type": "uint256"
        },
        {
          "internalType": "uint256",
          "name": "_stakePeriod",
          "type": "uint256"
        },
        {
          "internalType": "uint256",
          "name": "_claimPeriod",
          "type": "uint256"
        },
        {
          "internalType": "uint256",
          "name": "_minStake",
          "type": "uint256"
        },
        {
          "internalType": "uint256",
          "name": "_maxStake",
          "type": "uint256"
        }
      ],
      "name": "initialize",
      "outputs": [],
      "stateMutability": "nonpayable",
      "type": "function"
    },
    {
      "inputs": [],
      "name": "maxStake",
      "outputs": [
        {
          "internalType": "uint256",
          "name": "",
          "type": "uint256"
        }
      ],
      "stateMutability": "view",
      "type": "function"
    },
    {
      "inputs": [],
      "name": "minStake",
      "outputs": [
        {
          "internalType": "uint256",
          "name": "",
          "type": "uint256"
        }
      ],
      "stateMutability": "view",
      "type": "function"
    },
    {
      "inputs": [],
      "name": "producedTime",
      "outputs": [
        {
          "internalType": "uint256",
          "name": "",
          "type": "uint256"
        }
      ],
      "stateMutability": "view",
      "type": "function"
    },
    {
      "inputs": [],
      "name": "proxiableUUID",
      "outputs": [
        {
          "internalType": "bytes32",
          "name": "",
          "type": "bytes32"
        }
      ],
      "stateMutability": "view",
      "type": "function"
    },
    {
      "inputs": [
        {
          "internalType": "bytes32",
          "name": "role",
          "type": "bytes32"
        },
        {
          "internalType": "address",
          "name": "account",
          "type": "address"
        }
      ],
      "name": "renounceRole",
      "outputs": [],
      "stateMutability": "nonpayable",
      "type": "function"
    },
    {
      "inputs": [
        {
          "internalType": "bytes32",
          "name": "role",
          "type": "bytes32"
        },
        {
          "internalType": "address",
          "name": "account",
          "type": "address"
        }
      ],
      "name": "revokeRole",
      "outputs": [],
      "stateMutability": "nonpayable",
      "type": "function"
    },
    {
      "inputs": [],
      "name": "rewardProduced",
      "outputs": [
        {
          "internalType": "uint256",
          "name": "",
          "type": "uint256"
        }
      ],
      "stateMutability": "view",
      "type": "function"
    },
    {
      "inputs": [],
      "name": "rewardTotal",
      "outputs": [
        {
          "internalType": "uint256",
          "name": "",
          "type": "uint256"
        }
      ],
      "stateMutability": "view",
      "type": "function"
    },
    {
      "inputs": [
        {
          "internalType": "uint256",
          "name": "_claimPeriod",
          "type": "uint256"
        }
      ],
      "name": "setClaimPeriod",
      "outputs": [],
      "stateMutability": "nonpayable",
      "type": "function"
    },
    {
      "inputs": [
        {
          "internalType": "uint256",
          "name": "amount",
          "type": "uint256"
        }
      ],
      "name": "setMaxStake",
      "outputs": [],
      "stateMutability": "nonpayable",
      "type": "function"
    },
    {
      "inputs": [
        {
          "internalType": "uint256",
          "name": "amount",
          "type": "uint256"
        }
      ],
      "name": "setMinStake",
      "outputs": [],
      "stateMutability": "nonpayable",
      "type": "function"
    },
    {
      "inputs": [
        {
          "internalType": "uint256",
          "name": "_stakePeriod",
          "type": "uint256"
        }
      ],
      "name": "setStakePeriod",
      "outputs": [],
      "stateMutability": "nonpayable",
      "type": "function"
    },
    {
      "inputs": [
        {
          "internalType": "uint256",
          "name": "duration",
          "type": "uint256"
        }
      ],
      "name": "stake",
      "outputs": [],
      "stateMutability": "payable",
      "type": "function"
    },
    {
      "inputs": [],
      "name": "stakePeriod",
      "outputs": [
        {
          "internalType": "uint256",
          "name": "",
          "type": "uint256"
        }
      ],
      "stateMutability": "view",
      "type": "function"
    },
    {
      "inputs": [
        {
          "internalType": "address",
          "name": "",
          "type": "address"
        }
      ],
      "name": "stakes",
      "outputs": [
        {
          "internalType": "uint256",
          "name": "amount",
          "type": "uint256"
        },
        {
          "internalType": "uint256",
          "name": "rewardAllowed",
          "type": "uint256"
        },
        {
          "internalType": "uint256",
          "name": "rewardDebt",
          "type": "uint256"
        },
        {
          "internalType": "uint256",
          "name": "distributed",
          "type": "uint256"
        },
        {
          "internalType": "uint256",
          "name": "stakedAt",
          "type": "uint256"
        },
        {
          "internalType": "uint256",
          "name": "claimedAt",
          "type": "uint256"
        },
        {
          "internalType": "uint256",
          "name": "unstakeTime",
          "type": "uint256"
        }
      ],
      "stateMutability": "view",
      "type": "function"
    },
    {
      "inputs": [],
      "name": "startTime",
      "outputs": [
        {
          "internalType": "uint256",
          "name": "",
          "type": "uint256"
        }
      ],
      "stateMutability": "view",
      "type": "function"
    },
    {
      "inputs": [
        {
          "internalType": "bytes4",
          "name": "interfaceId",
          "type": "bytes4"
        }
      ],
      "name": "supportsInterface",
      "outputs": [
        {
          "internalType": "bool",
          "name": "",
          "type": "bool"
        }
      ],
      "stateMutability": "view",
      "type": "function"
    },
    {
      "inputs": [],
      "name": "tokensPerStake",
      "outputs": [
        {
          "internalType": "uint256",
          "name": "",
          "type": "uint256"
        }
      ],
      "stateMutability": "view",
      "type": "function"
    },
    {
      "inputs": [],
      "name": "totalDistributed",
      "outputs": [
        {
          "internalType": "uint256",
          "name": "",
          "type": "uint256"
        }
      ],
      "stateMutability": "view",
      "type": "function"
    },
    {
      "inputs": [],
      "name": "totalStaked",
      "outputs": [
        {
          "internalType": "uint256",
          "name": "",
          "type": "uint256"
        }
      ],
      "stateMutability": "view",
      "type": "function"
    },
    {
      "inputs": [
        {
          "internalType": "uint256",
          "name": "amount",
          "type": "uint256"
        }
      ],
      "name": "unstake",
      "outputs": [],
      "stateMutability": "nonpayable",
      "type": "function"
    },
    {
      "inputs": [],
      "name": "update",
      "outputs": [],
      "stateMutability": "nonpayable",
      "type": "function"
    },
    {
      "inputs": [
        {
          "internalType": "uint256",
          "name": "_distributionTime",
          "type": "uint256"
        }
      ],
      "name": "updateDistributionTime",
      "outputs": [],
      "stateMutability": "nonpayable",
      "type": "function"
    },
    {
      "inputs": [
        {
          "internalType": "uint256",
          "name": "_rewardTotal",
          "type": "uint256"
        }
      ],
      "name": "updateRewardTotal",
      "outputs": [],
      "stateMutability": "nonpayable",
      "type": "function"
    },
    {
      "inputs": [
        {
          "internalType": "address",
          "name": "_user",
          "type": "address"
        },
        {
          "internalType": "uint256",
          "name": "amount",
          "type": "uint256"
        },
        {
          "internalType": "uint256",
          "name": "_rewardAllowed",
          "type": "uint256"
        },
        {
          "internalType": "uint256",
          "name": "_rewardDebt",
          "type": "uint256"
        },
        {
          "internalType": "uint256",
          "name": "_distributed",
          "type": "uint256"
        },
        {
          "internalType": "uint256",
          "name": "_unstakeTime",
          "type": "uint256"
        }
      ],
      "name": "updateStakerInfo",
      "outputs": [],
      "stateMutability": "nonpayable",
      "type": "function"
    },
    {
      "inputs": [
        {
          "internalType": "uint256",
          "name": "_tokensPerStake",
          "type": "uint256"
        },
        {
          "internalType": "uint256",
          "name": "_totalStaked",
          "type": "uint256"
        },
        {
          "internalType": "uint256",
          "name": "_totalDistributed",
          "type": "uint256"
        }
      ],
      "name": "updateStakingInfo",
      "outputs": [],
      "stateMutability": "nonpayable",
      "type": "function"
    },
    {
      "inputs": [
        {
          "internalType": "uint256",
          "name": "_startTimeNew",
          "type": "uint256"
        }
      ],
      "name": "updateStartTime",
      "outputs": [],
      "stateMutability": "nonpayable",
      "type": "function"
    },
    {
      "inputs": [
        {
          "internalType": "address",
          "name": "newImplementation",
          "type": "address"
        }
      ],
      "name": "upgradeTo",
      "outputs": [],
      "stateMutability": "nonpayable",
      "type": "function"
    },
    {
      "inputs": [
        {
          "internalType": "address",
          "name": "newImplementation",
          "type": "address"
        },
        {
          "internalType": "bytes",
          "name": "data",
          "type": "bytes"
        }
      ],
      "name": "upgradeToAndCall",
      "outputs": [],
      "stateMutability": "payable",
      "type": "function"
    }
  ],
  "bytecode": "0x60a0604052306080523480156200001557600080fd5b50600054610100900460ff16620000335760005460ff16156200003d565b6200003d620000e2565b620000a55760405162461bcd60e51b815260206004820152602e60248201527f496e697469616c697a61626c653a20636f6e747261637420697320616c72656160448201526d191e481a5b9a5d1a585b1a5e995960921b606482015260840160405180910390fd5b600054610100900460ff16158015620000c8576000805461ffff19166101011790555b8015620000db576000805461ff00191690555b506200010f565b6000620000fa306200010060201b62001a681760201c565b15905090565b6001600160a01b03163b151590565b608051612a866200014760003960008181610eb201528181610ef2015281816111af015281816111ef015261127e0152612a866000f3fe6080604052600436106102675760003560e01c806378e9792511610144578063b40cd21d116100b6578063e07ae0921161007a578063e07ae092146107b1578063e81dccee146107c8578063ea1b28e0146107e8578063efca2eed146107ff578063f72c0d8b14610816578063f959680b1461084a57600080fd5b8063b40cd21d146106b8578063b6610ace1461073a578063c1699a991461075a578063d2c04f4314610771578063d547741f1461079157600080fd5b80639060688c116101085780639060688c146105fb57806391d148541461063b57806394069ab91461065b578063a217fddf1461067b578063a2e6204514610690578063a694fc3a146106a557600080fd5b806378e97925146105765780637b6e6f4c1461058d5780637dc2cd98146105ad578063817b1cd2146105c45780638c80fd90146105db57600080fd5b806334df0796116101dd5780634cd3723a116101a15780634cd3723a146104d75780634e71d92d146104f75780634f1ef2861461050c57806352d1902d1461051f5780636fc148371461053457806375b238fc1461055457600080fd5b806334df07961461045257806336568abe146104695780633659cfe614610489578063375b3c0a146104a957806349c1cf6e146104c057600080fd5b8063248a9ca31161022f578063248a9ca31461039657806324addbbc146103c6578063260c9676146103dd5780632d9c3f1c146103fd5780632e17de78146104125780632f2ff15d1461043257600080fd5b806301ffc9a71461026c57806306bcf02f146102a1578063120658c2146102c357806316934fc4146102e85780631e6b4c6f14610376575b600080fd5b34801561027857600080fd5b5061028c610287366004612396565b610861565b60405190151581526020015b60405180910390f35b3480156102ad57600080fd5b506102c16102bc3660046123c0565b610898565b005b3480156102cf57600080fd5b506102da6101365481565b604051908152602001610298565b3480156102f457600080fd5b506103416103033660046123f5565b61013a602052600090815260409020805460018201546002830154600384015460048501546005860154600690960154949593949293919290919087565b604080519788526020880196909652948601939093526060850191909152608084015260a083015260c082015260e001610298565b34801561038257600080fd5b506102c16103913660046123c0565b6108ca565b3480156103a257600080fd5b506102da6103b13660046123c0565b60009081526065602052604090206001015490565b3480156103d257600080fd5b506102da6101375481565b3480156103e957600080fd5b506102c16103f8366004612410565b6108ea565b34801561040957600080fd5b506102c1610915565b34801561041e57600080fd5b506102c161042d3660046123c0565b610bff565b34801561043e57600080fd5b506102c161044d36600461243c565b610dfe565b34801561045e57600080fd5b506102da6101345481565b34801561047557600080fd5b506102c161048436600461243c565b610e29565b34801561049557600080fd5b506102c16104a43660046123f5565b610ea7565b3480156104b557600080fd5b506102da6101325481565b3480156104cc57600080fd5b506102da61012f5481565b3480156104e357600080fd5b506102da6104f23660046123f5565b610f87565b34801561050357600080fd5b506102c1611005565b6102c161051a36600461247e565b6111a4565b34801561052b57600080fd5b506102da611271565b34801561054057600080fd5b506102c161054f3660046123c0565b611324565b34801561056057600080fd5b506102da600080516020612a3183398151915281565b34801561058257600080fd5b506102da61012d5481565b34801561059957600080fd5b506102c16105a83660046123c0565b611344565b3480156105b957600080fd5b506102da6101315481565b3480156105d057600080fd5b506102da6101385481565b3480156105e757600080fd5b506102c16105f63660046123c0565b611375565b34801561060757600080fd5b5061061b6106163660046123f5565b611395565b604080519485526020850193909352918301526060820152608001610298565b34801561064757600080fd5b5061028c61065636600461243c565b6113dc565b34801561066757600080fd5b506102c1610676366004612540565b611407565b34801561068757600080fd5b506102da600081565b34801561069c57600080fd5b506102c1611456565b6102c16106b33660046123c0565b6114ca565b3480156106c457600080fd5b506106cd6117ed565b6040516102989190600061012082019050825182526020830151602083015260408301516040830152606083015160608301526080830151608083015260a083015160a083015260c083015160c083015260e083015160e083015261010080840151818401525092915050565b34801561074657600080fd5b506102c161075536600461258a565b61189c565b34801561076657600080fd5b506102da6101305481565b34801561077d57600080fd5b506102c161078c3660046123c0565b6119f1565b34801561079d57600080fd5b506102c16107ac36600461243c565b611a11565b3480156107bd57600080fd5b506102da6101355481565b3480156107d457600080fd5b506102c16107e33660046123c0565b611a37565b3480156107f457600080fd5b506102da6101335481565b34801561080b57600080fd5b506102da6101395481565b34801561082257600080fd5b506102da7f189ab7a9244df0848122154315af71fe140f3db0fe014031783b0946b8c9d2e381565b34801561085657600080fd5b506102da61012e5481565b60006001600160e01b03198216637965db0b60e01b148061089257506301ffc9a760e01b6001600160e01b03198316145b92915050565b600080516020612a318339815191526108b18133611a77565b6108b9611adb565b610136555061012d81905561013755565b600080516020612a318339815191526108e38133611a77565b5061013055565b600080516020612a318339815191526109038133611a77565b50610134929092556101385561013955565b600260975414156109415760405162461bcd60e51b8152600401610938906125d6565b60405180910390fd5b60026097556102586109566201518042612623565b10158015610973575062014f286109706201518042612623565b11155b61098f5760405162461bcd60e51b815260040161093890612637565b61012d5442116109b15760405162461bcd60e51b815260040161093890612684565b33600090815261013a602052604090206101315460058201546109d490426126e2565b116109f15760405162461bcd60e51b8152600401610938906126f9565b610130546004820154610a0490426126e2565b11610a215760405162461bcd60e51b81526004016109389061273f565b6101385415610a3257610a32611456565b6000610a413361013454611b1b565b825461013354919250610a53916126e2565b811115610a6d57815461013354610a6a91906126e2565b90505b60008111610ad05760405162461bcd60e51b815260206004820152602a60248201527f57515374616b696e673a20596f752063616e6e6f74207265696e7665737420746044820152696865207265776172647360b01b6064820152608401610938565b80826000016000828254610ae49190612785565b90915550506101345468056bc75e2d6310000090610b02908361279d565b610b0c91906127bc565b826002016000828254610b1f9190612785565b9250508190555080826003016000828254610b3a9190612785565b9091555050426004830181905560058301556101398054829190600090610b62908490612785565b92505081905550806101386000828254610b7c9190612785565b90915550506040805182815242602082015233917f9a5504b59d017387dcd5f2a9ef1a11e83d7a1b8b56d91c580ad8ee01084aaa00910160405180910390a26040805182815242602082015233917f6ef4db1c27745f3a9d449371f22e684aa75791b2972945ce80f56932e588e16291015b60405180910390a250506001609755565b60026097541415610c225760405162461bcd60e51b8152600401610938906125d6565b6002609755610258610c376201518042612623565b10158015610c54575062014f28610c516201518042612623565b11155b610c705760405162461bcd60e51b815260040161093890612637565b33600090815261013a602052604090206006810154421015610ce55760405162461bcd60e51b815260206004820152602860248201527f57515374616b696e673a20596f752063616e6e6f7420756e7374616b6520746f6044820152671ad95b9cc81e595d60c21b6064820152608401610938565b8054821115610d465760405162461bcd60e51b815260206004820152602760248201527f57515374616b696e673a204e6f7420656e6f75676820746f6b656e7320746f20604482015266756e7374616b6560c81b6064820152608401610938565b610d4e611456565b68056bc75e2d631000006101345483610d67919061279d565b610d7191906127bc565b816001016000828254610d849190612785565b9091555050805482908290600090610d9d9084906126e2565b92505081905550816101386000828254610db791906126e2565b90915550610dc790503383611b8b565b6040805183815242602082015233917f20e2259c6381605e5d17428981162480e1e50fa1d6bf3d53a374741af4973aca9101610bee565b600082815260656020526040902060010154610e1a8133611a77565b610e248383611ca4565b505050565b6001600160a01b0381163314610e995760405162461bcd60e51b815260206004820152602f60248201527f416363657373436f6e74726f6c3a2063616e206f6e6c792072656e6f756e636560448201526e103937b632b9903337b91039b2b63360891b6064820152608401610938565b610ea38282611d2a565b5050565b306001600160a01b037f0000000000000000000000000000000000000000000000000000000000000000161415610ef05760405162461bcd60e51b8152600401610938906127d0565b7f00000000000000000000000000000000000000000000000000000000000000006001600160a01b0316610f396000805160206129ea833981519152546001600160a01b031690565b6001600160a01b031614610f5f5760405162461bcd60e51b81526004016109389061281c565b610f6881611d91565b60408051600080825260208201909252610f8491839190611dbc565b50565b61013454610138546000919015610ff4576000610fa2611adb565b905061013554811115610ff25760006101355482610fc091906126e2565b61013854909150610fda8268056bc75e2d6310000061279d565b610fe491906127bc565b610fee9084612785565b9250505b505b610ffe8382611b1b565b9392505050565b600260975414156110285760405162461bcd60e51b8152600401610938906125d6565b600260975561025861103d6201518042612623565b1015801561105a575062014f286110576201518042612623565b11155b6110765760405162461bcd60e51b815260040161093890612637565b33600090815261013a6020526040902061013154600582015461109990426126e2565b116110b65760405162461bcd60e51b8152600401610938906126f9565b61013854156110c7576110c7611456565b60006110d63361013454611b1b565b9050600081116111285760405162461bcd60e51b815260206004820152601b60248201527f57515374616b696e673a204e6f7468696e6720746f20636c61696d00000000006044820152606401610938565b8082600301600082825461113c9190612785565b9091555050426005830155610139805482919060009061115d908490612785565b9091555061116d90503382611b8b565b6040805182815242602082015233917f9a5504b59d017387dcd5f2a9ef1a11e83d7a1b8b56d91c580ad8ee01084aaa009101610bee565b306001600160a01b037f00000000000000000000000000000000000000000000000000000000000000001614156111ed5760405162461bcd60e51b8152600401610938906127d0565b7f00000000000000000000000000000000000000000000000000000000000000006001600160a01b03166112366000805160206129ea833981519152546001600160a01b031690565b6001600160a01b03161461125c5760405162461bcd60e51b81526004016109389061281c565b61126582611d91565b610ea382826001611dbc565b6000306001600160a01b037f000000000000000000000000000000000000000000000000000000000000000016146113115760405162461bcd60e51b815260206004820152603860248201527f555550535570677261646561626c653a206d757374206e6f742062652063616c60448201527f6c6564207468726f7567682064656c656761746563616c6c00000000000000006064820152608401610938565b506000805160206129ea83398151915290565b600080516020612a3183398151915261133d8133611a77565b5061013355565b600080516020612a3183398151915261135d8133611a77565b611365611adb565b6101365550426101375561012e55565b600080516020612a3183398151915261138e8133611a77565b5061013255565b6001600160a01b038116600090815261013a6020526040812080549190819081906113bf86610f87565b60069190910154949690956001600160a01b031631949350915050565b60009182526065602090815260408084206001600160a01b0393909316845291905290205460ff1690565b600080516020612a318339815191526114208133611a77565b506001600160a01b03909516600090815261013a6020526040902093845560018401929092556002830155600382015560060155565b6000611460611adb565b905061013554811115610f84576000610135548261147e91906126e2565b61013854909150156114c357610138546114a18268056bc75e2d6310000061279d565b6114ab91906127bc565b61013460008282546114bd9190612785565b90915550505b5061013555565b600260975414156114ed5760405162461bcd60e51b8152600401610938906125d6565b60026097556102586115026201518042612623565b1015801561151f575062014f2861151c6201518042612623565b11155b61153b5760405162461bcd60e51b815260040161093890612637565b61012d54421161155d5760405162461bcd60e51b815260040161093890612684565b610132543410156115cf5760405162461bcd60e51b815260206004820152603660248201527f57515374616b696e673a20416d6f756e742073686f756c642062652067726561604482015275746572207468616e206d696e696d756d207374616b6560501b6064820152608401610938565b33600090815261013a602052604090206101335481546115ef9034612785565b11156116595760405162461bcd60e51b815260206004820152603360248201527f57515374616b696e673a20416d6f756e742073686f756c64206265206c657373604482015272207468616e206d6178696d756d207374616b6560681b6064820152608401610938565b806006015442106116fd5781601e1480611673575081603c145b8061167e575081605a145b6116e05760405162461bcd60e51b815260206004820152602d60248201527f57515374616b696e673a206475726174696f6e206d7573742062652033302c2060448201526c3630206f72203930206461797360981b6064820152608401610938565b6116ed826201518061279d565b6116f79042612785565b60068201555b61013054600482015461171090426126e2565b1161172d5760405162461bcd60e51b81526004016109389061273f565b610138541561173e5761173e611456565b68056bc75e2d631000006101345434611757919061279d565b61176191906127bc565b8160020160008282546117749190612785565b9250508190555034610138600082825461178e9190612785565b90915550508054349082906000906117a7908490612785565b9091555050426004820181905560405133917f6ef4db1c27745f3a9d449371f22e684aa75791b2972945ce80f56932e588e16291610bee91348252602082015260400190565b61183c6040518061012001604052806000815260200160008152602001600081526020016000815260200160008152602001600081526020016000815260200160008152602001600081525090565b60405180610120016040528061012d54815260200161012e54815260200161012f54815260200161013054815260200161013154815260200161013254815260200161013354815260200161013854815260200161013954815250905090565b600054610100900460ff166118b75760005460ff16156118bb565b303b155b61191e5760405162461bcd60e51b815260206004820152602e60248201527f496e697469616c697a61626c653a20636f6e747261637420697320616c72656160448201526d191e481a5b9a5d1a585b1a5e995960921b6064820152608401610938565b600054610100900460ff16158015611940576000805461ffff19166101011790555b611948611f36565b611950611f5f565b611958611f36565b61012d88905561012e87905561012f869055610130859055610131849055610132839055610133829055610137889055611993600033611f8e565b6119ab600080516020612a3183398151915233611f8e565b6119d57f189ab7a9244df0848122154315af71fe140f3db0fe014031783b0946b8c9d2e333611f8e565b80156119e7576000805461ff00191690555b5050505050505050565b600080516020612a31833981519152611a0a8133611a77565b5061013155565b600082815260656020526040902060010154611a2d8133611a77565b610e248383611d2a565b600080516020612a31833981519152611a508133611a77565b611a58611adb565b6101365550426101375561012f55565b6001600160a01b03163b151590565b611a8182826113dc565b610ea357611a99816001600160a01b03166014611f98565b611aa4836020611f98565b604051602001611ab5929190612894565b60408051601f198184030181529082905262461bcd60e51b825261093891600401612909565b600061012f546101375442611af091906126e2565b61012e54611afe919061279d565b611b0891906127bc565b61013654611b169190612785565b905090565b6001600160a01b038216600090815261013a60205260408120600281015460038201546001830154835468056bc75e2d6310000090611b5b90889061279d565b611b6591906127bc565b611b6f9190612785565b611b7991906126e2565b611b8391906126e2565b949350505050565b80471015611bdb5760405162461bcd60e51b815260206004820152601d60248201527f416464726573733a20696e73756666696369656e742062616c616e63650000006044820152606401610938565b6000826001600160a01b03168260405160006040518083038185875af1925050503d8060008114611c28576040519150601f19603f3d011682016040523d82523d6000602084013e611c2d565b606091505b5050905080610e245760405162461bcd60e51b815260206004820152603a60248201527f416464726573733a20756e61626c6520746f2073656e642076616c75652c207260448201527f6563697069656e74206d617920686176652072657665727465640000000000006064820152608401610938565b611cae82826113dc565b610ea35760008281526065602090815260408083206001600160a01b03851684529091529020805460ff19166001179055611ce63390565b6001600160a01b0316816001600160a01b0316837f2f8788117e7eff1d82e926ec794901d17c78024a50270940304540a733656f0d60405160405180910390a45050565b611d3482826113dc565b15610ea35760008281526065602090815260408083206001600160a01b0385168085529252808320805460ff1916905551339285917ff6391f5c32d9c69d2a47ea670b442974b53935d1edc7fd64eb21e047a839171b9190a45050565b7f189ab7a9244df0848122154315af71fe140f3db0fe014031783b0946b8c9d2e3610ea38133611a77565b7f4910fdfa16fed3260ed0e7147f7cc6da11a60208b5b9406d12a635614ffd91435460ff1615611def57610e2483612134565b826001600160a01b03166352d1902d6040518163ffffffff1660e01b815260040160206040518083038186803b158015611e2857600080fd5b505afa925050508015611e58575060408051601f3d908101601f19168201909252611e559181019061293c565b60015b611ebb5760405162461bcd60e51b815260206004820152602e60248201527f45524331393637557067726164653a206e657720696d706c656d656e7461746960448201526d6f6e206973206e6f74205555505360901b6064820152608401610938565b6000805160206129ea8339815191528114611f2a5760405162461bcd60e51b815260206004820152602960248201527f45524331393637557067726164653a20756e737570706f727465642070726f786044820152681a58589b195555525160ba1b6064820152608401610938565b50610e248383836121d0565b600054610100900460ff16611f5d5760405162461bcd60e51b815260040161093890612955565b565b600054610100900460ff16611f865760405162461bcd60e51b815260040161093890612955565b611f5d6121fb565b610ea38282611ca4565b60606000611fa783600261279d565b611fb2906002612785565b67ffffffffffffffff811115611fca57611fca612468565b6040519080825280601f01601f191660200182016040528015611ff4576020820181803683370190505b509050600360fc1b8160008151811061200f5761200f6129a0565b60200101906001600160f81b031916908160001a905350600f60fb1b8160018151811061203e5761203e6129a0565b60200101906001600160f81b031916908160001a905350600061206284600261279d565b61206d906001612785565b90505b60018111156120e5576f181899199a1a9b1b9c1cb0b131b232b360811b85600f16601081106120a1576120a16129a0565b1a60f81b8282815181106120b7576120b76129a0565b60200101906001600160f81b031916908160001a90535060049490941c936120de816129b6565b9050612070565b508315610ffe5760405162461bcd60e51b815260206004820181905260248201527f537472696e67733a20686578206c656e67746820696e73756666696369656e746044820152606401610938565b6001600160a01b0381163b6121a15760405162461bcd60e51b815260206004820152602d60248201527f455243313936373a206e657720696d706c656d656e746174696f6e206973206e60448201526c1bdd08184818dbdb9d1c9858dd609a1b6064820152608401610938565b6000805160206129ea83398151915280546001600160a01b0319166001600160a01b0392909216919091179055565b6121d983612229565b6000825111806121e65750805b15610e24576121f58383612269565b50505050565b600054610100900460ff166122225760405162461bcd60e51b815260040161093890612955565b6001609755565b61223281612134565b6040516001600160a01b038216907fbc7cd75a20ee27fd9adebab32041f755214dbc6bffa90cc0225b39da2e5c2d3b90600090a250565b60606001600160a01b0383163b6122d15760405162461bcd60e51b815260206004820152602660248201527f416464726573733a2064656c65676174652063616c6c20746f206e6f6e2d636f6044820152651b9d1c9858dd60d21b6064820152608401610938565b600080846001600160a01b0316846040516122ec91906129cd565b600060405180830381855af49150503d8060008114612327576040519150601f19603f3d011682016040523d82523d6000602084013e61232c565b606091505b50915091506123548282604051806060016040528060278152602001612a0a6027913961235d565b95945050505050565b6060831561236c575081610ffe565b82511561237c5782518084602001fd5b8160405162461bcd60e51b81526004016109389190612909565b6000602082840312156123a857600080fd5b81356001600160e01b031981168114610ffe57600080fd5b6000602082840312156123d257600080fd5b5035919050565b80356001600160a01b03811681146123f057600080fd5b919050565b60006020828403121561240757600080fd5b610ffe826123d9565b60008060006060848603121561242557600080fd5b505081359360208301359350604090920135919050565b6000806040838503121561244f57600080fd5b8235915061245f602084016123d9565b90509250929050565b634e487b7160e01b600052604160045260246000fd5b6000806040838503121561249157600080fd5b61249a836123d9565b9150602083013567ffffffffffffffff808211156124b757600080fd5b818501915085601f8301126124cb57600080fd5b8135818111156124dd576124dd612468565b604051601f8201601f19908116603f0116810190838211818310171561250557612505612468565b8160405282815288602084870101111561251e57600080fd5b8260208601602083013760006020848301015280955050505050509250929050565b60008060008060008060c0878903121561255957600080fd5b612562876123d9565b9860208801359850604088013597606081013597506080810135965060a00135945092505050565b600080600080600080600060e0888a0312156125a557600080fd5b505085359760208701359750604087013596606081013596506080810135955060a0810135945060c0013592509050565b6020808252601f908201527f5265656e7472616e637947756172643a207265656e7472616e742063616c6c00604082015260600190565b634e487b7160e01b600052601260045260246000fd5b6000826126325761263261260d565b500690565b6020808252602d908201527f57515374616b696e673a204461696c79206c6f636b2066726f6d2032333a353060408201526c20746f2030303a31302055544360981b606082015260800190565b60208082526028908201527f57515374616b696e673a205374616b696e672074696d6520686173206e6f742060408201526718dbdb59481e595d60c21b606082015260800190565b634e487b7160e01b600052601160045260246000fd5b6000828210156126f4576126f46126cc565b500390565b60208082526026908201527f57515374616b696e673a20596f752063616e6e6f7420636c61696d20746f6b656040820152651b9cc81e595d60d21b606082015260800190565b60208082526026908201527f57515374616b696e673a20596f752063616e6e6f74207374616b6520746f6b656040820152651b9cc81e595d60d21b606082015260800190565b60008219821115612798576127986126cc565b500190565b60008160001904831182151516156127b7576127b76126cc565b500290565b6000826127cb576127cb61260d565b500490565b6020808252602c908201527f46756e6374696f6e206d7573742062652063616c6c6564207468726f7567682060408201526b19195b1959d85d1958d85b1b60a21b606082015260800190565b6020808252602c908201527f46756e6374696f6e206d7573742062652063616c6c6564207468726f7567682060408201526b6163746976652070726f787960a01b606082015260800190565b60005b8381101561288357818101518382015260200161286b565b838111156121f55750506000910152565b7f416363657373436f6e74726f6c3a206163636f756e74200000000000000000008152600083516128cc816017850160208801612868565b7001034b99036b4b9b9b4b733903937b6329607d1b60179184019182015283516128fd816028840160208801612868565b01602801949350505050565b6020815260008251806020840152612928816040850160208701612868565b601f01601f19169190910160400192915050565b60006020828403121561294e57600080fd5b5051919050565b6020808252602b908201527f496e697469616c697a61626c653a20636f6e7472616374206973206e6f74206960408201526a6e697469616c697a696e6760a81b606082015260800190565b634e487b7160e01b600052603260045260246000fd5b6000816129c5576129c56126cc565b506000190190565b600082516129df818460208701612868565b919091019291505056fe360894a13ba1a3210667c828492db98dca3e2076cc3735a920a3ca505d382bbc416464726573733a206c6f772d6c6576656c2064656c65676174652063616c6c206661696c6564a49807205ce4d355092ef5a8a18f56e8913cf4a201fbe287825b095693c21775a2646970667358221220b35418d6192270e26d9178ca42a659d65300f9d70b0da3e90dcbe6e61b8241ee64736f6c63430008090033",
  "linkReferences": {},
  "deployedLinkReferences": {}
}