{
  "_format": "hh-sol-artifact-1",
  "contractName": "WQLending",
  "sourceName": "contracts/WQLending.sol",
  "abi": [
    {
      "inputs": [],
      "stateMutability": "nonpayable",
      "type": "constructor"
    },
    {
      "anonymous": false,
      "inputs": [
        {
          "indexed": false,
          "internalType": "address",
          "name": "previousAdmin",
          "type": "address"
        },
        {
          "indexed": false,
          "internalType": "address",
          "name": "newAdmin",
          "type": "address"
        }
      ],
      "name": "AdminChanged",
      "type": "event"
    },
    {
      "anonymous": false,
      "inputs": [
        {
          "indexed": true,
          "internalType": "address",
          "name": "beacon",
          "type": "address"
        }
      ],
      "name": "BeaconUpgraded",
      "type": "event"
    },
    {
      "anonymous": false,
      "inputs": [
        {
          "indexed": false,
          "internalType": "address",
          "name": "user",
          "type": "address"
        },
        {
          "indexed": false,
          "internalType": "uint256",
          "name": "amount",
          "type": "uint256"
        }
      ],
      "name": "Borrowed",
      "type": "event"
    },
    {
      "anonymous": false,
      "inputs": [
        {
          "indexed": false,
          "internalType": "address",
          "name": "user",
          "type": "address"
        },
        {
          "indexed": false,
          "internalType": "uint256",
          "name": "amount",
          "type": "uint256"
        }
      ],
      "name": "Claimed",
      "type": "event"
    },
    {
      "anonymous": false,
      "inputs": [
        {
          "indexed": false,
          "internalType": "address",
          "name": "user",
          "type": "address"
        },
        {
          "indexed": false,
          "internalType": "uint256",
          "name": "amount",
          "type": "uint256"
        }
      ],
      "name": "Received",
      "type": "event"
    },
    {
      "anonymous": false,
      "inputs": [
        {
          "indexed": false,
          "internalType": "address",
          "name": "user",
          "type": "address"
        },
        {
          "indexed": false,
          "internalType": "uint256",
          "name": "amount",
          "type": "uint256"
        }
      ],
      "name": "Refunded",
      "type": "event"
    },
    {
      "anonymous": false,
      "inputs": [
        {
          "indexed": true,
          "internalType": "bytes32",
          "name": "role",
          "type": "bytes32"
        },
        {
          "indexed": true,
          "internalType": "bytes32",
          "name": "previousAdminRole",
          "type": "bytes32"
        },
        {
          "indexed": true,
          "internalType": "bytes32",
          "name": "newAdminRole",
          "type": "bytes32"
        }
      ],
      "name": "RoleAdminChanged",
      "type": "event"
    },
    {
      "anonymous": false,
      "inputs": [
        {
          "indexed": true,
          "internalType": "bytes32",
          "name": "role",
          "type": "bytes32"
        },
        {
          "indexed": true,
          "internalType": "address",
          "name": "account",
          "type": "address"
        },
        {
          "indexed": true,
          "internalType": "address",
          "name": "sender",
          "type": "address"
        }
      ],
      "name": "RoleGranted",
      "type": "event"
    },
    {
      "anonymous": false,
      "inputs": [
        {
          "indexed": true,
          "internalType": "bytes32",
          "name": "role",
          "type": "bytes32"
        },
        {
          "indexed": true,
          "internalType": "address",
          "name": "account",
          "type": "address"
        },
        {
          "indexed": true,
          "internalType": "address",
          "name": "sender",
          "type": "address"
        }
      ],
      "name": "RoleRevoked",
      "type": "event"
    },
    {
      "anonymous": false,
      "inputs": [
        {
          "indexed": true,
          "internalType": "address",
          "name": "implementation",
          "type": "address"
        }
      ],
      "name": "Upgraded",
      "type": "event"
    },
    {
      "anonymous": false,
      "inputs": [
        {
          "indexed": false,
          "internalType": "address",
          "name": "user",
          "type": "address"
        },
        {
          "indexed": false,
          "internalType": "uint256",
          "name": "amount",
          "type": "uint256"
        }
      ],
      "name": "Withdrew",
      "type": "event"
    },
    {
      "inputs": [],
      "name": "ADMIN_ROLE",
      "outputs": [
        {
          "internalType": "bytes32",
          "name": "",
          "type": "bytes32"
        }
      ],
      "stateMutability": "view",
      "type": "function"
    },
    {
      "inputs": [],
      "name": "BORROWER_ROLE",
      "outputs": [
        {
          "internalType": "bytes32",
          "name": "",
          "type": "bytes32"
        }
      ],
      "stateMutability": "view",
      "type": "function"
    },
    {
      "inputs": [],
      "name": "DEFAULT_ADMIN_ROLE",
      "outputs": [
        {
          "internalType": "bytes32",
          "name": "",
          "type": "bytes32"
        }
      ],
      "stateMutability": "view",
      "type": "function"
    },
    {
      "inputs": [],
      "name": "UPGRADER_ROLE",
      "outputs": [
        {
          "internalType": "bytes32",
          "name": "",
          "type": "bytes32"
        }
      ],
      "stateMutability": "view",
      "type": "function"
    },
    {
      "inputs": [],
      "name": "YEAR",
      "outputs": [
        {
          "internalType": "uint256",
          "name": "",
          "type": "uint256"
        }
      ],
      "stateMutability": "view",
      "type": "function"
    },
    {
      "inputs": [
        {
          "internalType": "uint256",
          "name": "",
          "type": "uint256"
        }
      ],
      "name": "apys",
      "outputs": [
        {
          "internalType": "uint256",
          "name": "",
          "type": "uint256"
        }
      ],
      "stateMutability": "view",
      "type": "function"
    },
    {
      "inputs": [
        {
          "internalType": "address",
          "name": "depositor",
          "type": "address"
        }
      ],
      "name": "balanceOf",
      "outputs": [
        {
          "internalType": "uint256",
          "name": "",
          "type": "uint256"
        }
      ],
      "stateMutability": "view",
      "type": "function"
    },
    {
      "inputs": [
        {
          "internalType": "address",
          "name": "depositor",
          "type": "address"
        },
        {
          "internalType": "uint256",
          "name": "amount",
          "type": "uint256"
        },
        {
          "internalType": "uint256",
          "name": "duration",
          "type": "uint256"
        }
      ],
      "name": "borrow",
      "outputs": [],
      "stateMutability": "nonpayable",
      "type": "function"
    },
    {
      "inputs": [],
      "name": "claim",
      "outputs": [],
      "stateMutability": "nonpayable",
      "type": "function"
    },
    {
      "inputs": [
        {
          "internalType": "uint256",
          "name": "lockTime",
          "type": "uint256"
        },
        {
          "internalType": "uint256",
          "name": "amount",
          "type": "uint256"
        }
      ],
      "name": "deposit",
      "outputs": [],
      "stateMutability": "nonpayable",
      "type": "function"
    },
    {
      "inputs": [],
      "name": "fee",
      "outputs": [
        {
          "internalType": "uint256",
          "name": "",
          "type": "uint256"
        }
      ],
      "stateMutability": "view",
      "type": "function"
    },
    {
      "inputs": [],
      "name": "feeReceiver",
      "outputs": [
        {
          "internalType": "address",
          "name": "",
          "type": "address"
        }
      ],
      "stateMutability": "view",
      "type": "function"
    },
    {
      "inputs": [
        {
          "internalType": "address",
          "name": "depositor",
          "type": "address"
        }
      ],
      "name": "getRewards",
      "outputs": [
        {
          "internalType": "uint256",
          "name": "",
          "type": "uint256"
        }
      ],
      "stateMutability": "view",
      "type": "function"
    },
    {
      "inputs": [
        {
          "internalType": "bytes32",
          "name": "role",
          "type": "bytes32"
        }
      ],
      "name": "getRoleAdmin",
      "outputs": [
        {
          "internalType": "bytes32",
          "name": "",
          "type": "bytes32"
        }
      ],
      "stateMutability": "view",
      "type": "function"
    },
    {
      "inputs": [
        {
          "internalType": "bytes32",
          "name": "role",
          "type": "bytes32"
        },
        {
          "internalType": "address",
          "name": "account",
          "type": "address"
        }
      ],
      "name": "grantRole",
      "outputs": [],
      "stateMutability": "nonpayable",
      "type": "function"
    },
    {
      "inputs": [
        {
          "internalType": "bytes32",
          "name": "role",
          "type": "bytes32"
        },
        {
          "internalType": "address",
          "name": "account",
          "type": "address"
        }
      ],
      "name": "hasRole",
      "outputs": [
        {
          "internalType": "bool",
          "name": "",
          "type": "bool"
        }
      ],
      "stateMutability": "view",
      "type": "function"
    },
    {
      "inputs": [
        {
          "internalType": "address",
          "name": "_wusd",
          "type": "address"
        },
        {
          "internalType": "address",
          "name": "_feeReceiver",
          "type": "address"
        },
        {
          "internalType": "uint256",
          "name": "_fee",
          "type": "uint256"
        }
      ],
      "name": "initialize",
      "outputs": [],
      "stateMutability": "nonpayable",
      "type": "function"
    },
    {
      "inputs": [],
      "name": "proxiableUUID",
      "outputs": [
        {
          "internalType": "bytes32",
          "name": "",
          "type": "bytes32"
        }
      ],
      "stateMutability": "view",
      "type": "function"
    },
    {
      "inputs": [
        {
          "internalType": "address",
          "name": "depositor",
          "type": "address"
        },
        {
          "internalType": "uint256",
          "name": "amount",
          "type": "uint256"
        },
        {
          "internalType": "uint256",
          "name": "elapsedTime",
          "type": "uint256"
        },
        {
          "internalType": "uint256",
          "name": "duration",
          "type": "uint256"
        }
      ],
      "name": "refund",
      "outputs": [],
      "stateMutability": "nonpayable",
      "type": "function"
    },
    {
      "inputs": [
        {
          "internalType": "bytes32",
          "name": "role",
          "type": "bytes32"
        },
        {
          "internalType": "address",
          "name": "account",
          "type": "address"
        }
      ],
      "name": "renounceRole",
      "outputs": [],
      "stateMutability": "nonpayable",
      "type": "function"
    },
    {
      "inputs": [
        {
          "internalType": "bytes32",
          "name": "role",
          "type": "bytes32"
        },
        {
          "internalType": "address",
          "name": "account",
          "type": "address"
        }
      ],
      "name": "revokeRole",
      "outputs": [],
      "stateMutability": "nonpayable",
      "type": "function"
    },
    {
      "inputs": [
        {
          "internalType": "uint256",
          "name": "duration",
          "type": "uint256"
        },
        {
          "internalType": "uint256",
          "name": "_apy",
          "type": "uint256"
        }
      ],
      "name": "setApy",
      "outputs": [],
      "stateMutability": "nonpayable",
      "type": "function"
    },
    {
      "inputs": [
        {
          "internalType": "uint256",
          "name": "_fee",
          "type": "uint256"
        }
      ],
      "name": "setFee",
      "outputs": [],
      "stateMutability": "nonpayable",
      "type": "function"
    },
    {
      "inputs": [
        {
          "internalType": "address",
          "name": "_feeReceiver",
          "type": "address"
        }
      ],
      "name": "setFeeReceiver",
      "outputs": [],
      "stateMutability": "nonpayable",
      "type": "function"
    },
    {
      "inputs": [
        {
          "internalType": "bytes4",
          "name": "interfaceId",
          "type": "bytes4"
        }
      ],
      "name": "supportsInterface",
      "outputs": [
        {
          "internalType": "bool",
          "name": "",
          "type": "bool"
        }
      ],
      "stateMutability": "view",
      "type": "function"
    },
    {
      "inputs": [
        {
          "internalType": "address",
          "name": "newImplementation",
          "type": "address"
        }
      ],
      "name": "upgradeTo",
      "outputs": [],
      "stateMutability": "nonpayable",
      "type": "function"
    },
    {
      "inputs": [
        {
          "internalType": "address",
          "name": "newImplementation",
          "type": "address"
        },
        {
          "internalType": "bytes",
          "name": "data",
          "type": "bytes"
        }
      ],
      "name": "upgradeToAndCall",
      "outputs": [],
      "stateMutability": "payable",
      "type": "function"
    },
    {
      "inputs": [
        {
          "internalType": "address",
          "name": "",
          "type": "address"
        }
      ],
      "name": "wallets",
      "outputs": [
        {
          "internalType": "uint256",
          "name": "amount",
          "type": "uint256"
        },
        {
          "internalType": "uint256",
          "name": "borrowed",
          "type": "uint256"
        },
        {
          "internalType": "uint256",
          "name": "rewardAllowed",
          "type": "uint256"
        },
        {
          "internalType": "uint256",
          "name": "rewardDistributed",
          "type": "uint256"
        },
        {
          "internalType": "uint256",
          "name": "unlockDate",
          "type": "uint256"
        }
      ],
      "stateMutability": "view",
      "type": "function"
    },
    {
      "inputs": [
        {
          "internalType": "uint256",
          "name": "amount",
          "type": "uint256"
        }
      ],
      "name": "withdraw",
      "outputs": [],
      "stateMutability": "nonpayable",
      "type": "function"
    },
    {
      "inputs": [],
      "name": "wusd",
      "outputs": [
        {
          "internalType": "contract IERC20Upgradeable",
          "name": "",
          "type": "address"
        }
      ],
      "stateMutability": "view",
      "type": "function"
    }
  ],
  "bytecode": "0x60a0604052306080523480156200001557600080fd5b50600054610100900460ff16620000335760005460ff16156200003d565b6200003d620000e2565b620000a55760405162461bcd60e51b815260206004820152602e60248201527f496e697469616c697a61626c653a20636f6e747261637420697320616c72656160448201526d191e481a5b9a5d1a585b1a5e995960921b606482015260840160405180910390fd5b600054610100900460ff16158015620000c8576000805461ffff19166101011790555b8015620000db576000805461ff00191690555b506200010f565b6000620000fa306200010060201b620013851760201c565b15905090565b6001600160a01b03163b151590565b6080516123cf6200014760003960008181610ba101528181610be101528181610d9d01528181610ddd0152610e6c01526123cf6000f3fe6080604052600436106101cd5760003560e01c806375b238fc116100f7578063b3f0067411610095578063ddca3f4311610064578063ddca3f43146105a2578063e2bbb158146105b9578063efdcd974146105d9578063f72c0d8b146105f957600080fd5b8063b3f0067414610521578063c1bce0b714610542578063d547741f14610562578063daf8bc101461058257600080fd5b806383914540116100d1578063839145401461046157806389b08f111461047957806391d14854146104ec578063a217fddf1461050c57600080fd5b806375b238fc146103f157806379ee54f71461041357806381ce1c231461043357600080fd5b80632f2ff15d1161016f5780634f1ef2861161013e5780634f1ef2861461038957806352d1902d1461039c57806369fe0e2d146103b157806370a08231146103d157600080fd5b80632f2ff15d1461031457806336568abe146103345780633659cfe6146103545780634e71d92d1461037457600080fd5b80631794bb3c116101ab5780631794bb3c14610282578063248a9ca3146102a4578063268ebd59146102d45780632e1a7d4d146102f457600080fd5b806301ffc9a7146101d25780630e7b949e1461020757806315c40eb014610249575b600080fd5b3480156101de57600080fd5b506101f26101ed366004611dd2565b61061b565b60405190151581526020015b60405180910390f35b34801561021357600080fd5b5061023b7f2344277e405079ec07749d374ba0b5862a4e45a6a05ac889dbb4a991c6f9354d81565b6040519081526020016101fe565b34801561025557600080fd5b5061012e5461026a906001600160a01b031681565b6040516001600160a01b0390911681526020016101fe565b34801561028e57600080fd5b506102a261029d366004611e18565b610652565b005b3480156102b057600080fd5b5061023b6102bf366004611e54565b60009081526065602052604090206001015490565b3480156102e057600080fd5b506102a26102ef366004611e6d565b6107c4565b34801561030057600080fd5b506102a261030f366004611e54565b610932565b34801561032057600080fd5b506102a261032f366004611ea6565b610aed565b34801561034057600080fd5b506102a261034f366004611ea6565b610b18565b34801561036057600080fd5b506102a261036f366004611ed2565b610b96565b34801561038057600080fd5b506102a2610c76565b6102a2610397366004611f03565b610d92565b3480156103a857600080fd5b5061023b610e5f565b3480156103bd57600080fd5b506102a26103cc366004611e54565b610f12565b3480156103dd57600080fd5b5061023b6103ec366004611ed2565b610f32565b3480156103fd57600080fd5b5061023b60008051602061237a83398151915281565b34801561041f57600080fd5b5061023b61042e366004611ed2565b610f5c565b34801561043f57600080fd5b5061023b61044e366004611e54565b61012d6020526000908152604090205481565b34801561046d57600080fd5b5061023b6301e1338081565b34801561048557600080fd5b506104c4610494366004611ed2565b61013160205260009081526040902080546001820154600283015460038401546004909401549293919290919085565b604080519586526020860194909452928401919091526060830152608082015260a0016101fe565b3480156104f857600080fd5b506101f2610507366004611ea6565b610f90565b34801561051857600080fd5b5061023b600081565b34801561052d57600080fd5b5061012f5461026a906001600160a01b031681565b34801561054e57600080fd5b506102a261055d366004611fc5565b610fbb565b34801561056e57600080fd5b506102a261057d366004611ea6565b611174565b34801561058e57600080fd5b506102a261059d366004611ff8565b61119a565b3480156105ae57600080fd5b5061023b6101305481565b3480156105c557600080fd5b506102a26105d4366004611ff8565b6111c7565b3480156105e557600080fd5b506102a26105f4366004611ed2565b611348565b34801561060557600080fd5b5061023b60008051602061231383398151915281565b60006001600160e01b03198216637965db0b60e01b148061064c57506301ffc9a760e01b6001600160e01b03198316145b92915050565b600054610100900460ff1661066d5760005460ff1615610671565b303b155b6106d95760405162461bcd60e51b815260206004820152602e60248201527f496e697469616c697a61626c653a20636f6e747261637420697320616c72656160448201526d191e481a5b9a5d1a585b1a5e995960921b60648201526084015b60405180910390fd5b600054610100900460ff161580156106fb576000805461ffff19166101011790555b610703611394565b61070b6113bd565b610713611394565b61071e6000336113ec565b61073660008051602061237a833981519152336113ec565b61074e600080516020612313833981519152336113ec565b61077460008051602061231383398151915260008051602061237a8339815191526113f6565b61012e80546001600160a01b038087166001600160a01b03199283161790925561012f80549286169290911691909117905561013082905580156107be576000805461ff00191690555b50505050565b600260975414156107e75760405162461bcd60e51b81526004016106d09061201a565b60026097557f2344277e405079ec07749d374ba0b5862a4e45a6a05ac889dbb4a991c6f9354d6108178133611441565b600082815261012d6020526040812054670de0b6b3a7640000906301e1338090610842908790612067565b61084c9088612067565b6108569190612086565b6108609190612086565b6001600160a01b038716600090815261013160205260408120600101805492935087929091906108919084906120a8565b90915550506001600160a01b03861660009081526101316020526040812060020180548392906108c29084906120bf565b909155506108ec905033306108d784896120bf565b61012e546001600160a01b03169291906114a5565b60408051338152602081018790527fd7dee2702d63ad89917b6a4da9981c90c4d24f8c2bdfd64c604ecae57d8d0651910160405180910390a15050600160975550505050565b600260975414156109555760405162461bcd60e51b81526004016106d09061201a565b60026097553360009081526101316020526040902060048101544210156109ca5760405162461bcd60e51b8152602060048201526024808201527f57514c656e64696e673a204c6f636b2074696d65206973206e6f74206f766572604482015263081e595d60e21b60648201526084016106d0565b8054821115610a1b5760405162461bcd60e51b815260206004820152601c60248201527f57514c656e64696e673a20416d6f756e7420697320696e76616c69640000000060448201526064016106d0565b81816000016000828254610a2f91906120a8565b90915550508054610a4257600060048201555b6000670de0b6b3a76400006101305484610a5c9190612067565b610a669190612086565b9050610a8a33610a7683866120a8565b61012e546001600160a01b03169190611510565b61012f5461012e54610aa9916001600160a01b03918216911683611510565b60408051338152602081018590527fb244b9a17ad633c6e83b7983ee04320484956a68ddbe96a0b70dfca1cf19d72391015b60405180910390a15050600160975550565b600082815260656020526040902060010154610b098133611441565b610b138383611540565b505050565b6001600160a01b0381163314610b885760405162461bcd60e51b815260206004820152602f60248201527f416363657373436f6e74726f6c3a2063616e206f6e6c792072656e6f756e636560448201526e103937b632b9903337b91039b2b63360891b60648201526084016106d0565b610b9282826115c6565b5050565b306001600160a01b037f0000000000000000000000000000000000000000000000000000000000000000161415610bdf5760405162461bcd60e51b81526004016106d0906120d7565b7f00000000000000000000000000000000000000000000000000000000000000006001600160a01b0316610c28600080516020612333833981519152546001600160a01b031690565b6001600160a01b031614610c4e5760405162461bcd60e51b81526004016106d090612123565b610c578161162d565b60408051600080825260208201909252610c7391839190611646565b50565b60026097541415610c995760405162461bcd60e51b81526004016106d09061201a565b60026097553360009081526101316020526040902060040154421015610d015760405162461bcd60e51b815260206004820181905260248201527f57514c656e64696e673a20436c61696d206e6f7420616c6c6f7765642079657460448201526064016106d0565b6000610d0c33610f5c565b3360009081526101316020526040812060030180549293508392909190610d349084906120bf565b909155505061012e54610d51906001600160a01b03163383611510565b60408051338152602081018390527fd8138f8a3f377c5259ca548e70e4c2de94f129f5a11036a15b69513cba2b426a910160405180910390a1506001609755565b306001600160a01b037f0000000000000000000000000000000000000000000000000000000000000000161415610ddb5760405162461bcd60e51b81526004016106d0906120d7565b7f00000000000000000000000000000000000000000000000000000000000000006001600160a01b0316610e24600080516020612333833981519152546001600160a01b031690565b6001600160a01b031614610e4a5760405162461bcd60e51b81526004016106d090612123565b610e538261162d565b610b9282826001611646565b6000306001600160a01b037f00000000000000000000000000000000000000000000000000000000000000001614610eff5760405162461bcd60e51b815260206004820152603860248201527f555550535570677261646561626c653a206d757374206e6f742062652063616c60448201527f6c6564207468726f7567682064656c656761746563616c6c000000000000000060648201526084016106d0565b5060008051602061233383398151915290565b60008051602061237a833981519152610f2b8133611441565b5061013055565b6001600160a01b0381166000908152610131602052604081206001810154905461064c91906120a8565b6001600160a01b03811660009081526101316020526040812060038101546002820154610f8991906120a8565b9392505050565b60009182526065602090815260408084206001600160a01b0393909316845291905290205460ff1690565b60026097541415610fde5760405162461bcd60e51b81526004016106d09061201a565b60026097557f2344277e405079ec07749d374ba0b5862a4e45a6a05ac889dbb4a991c6f9354d61100e8133611441565b61101784610f32565b83146110655760405162461bcd60e51b815260206004820152601960248201527f57514c656e64696e673a20496e76616c696420616d6f756e740000000000000060448201526064016106d0565b6001600160a01b0384166000908152610131602052604090206004015461108f8362015180612067565b61109990426120bf565b11156110e75760405162461bcd60e51b815260206004820152601b60248201527f57514c656e64696e673a20496e76616c6964206475726174696f6e000000000060448201526064016106d0565b6001600160a01b03841660009081526101316020526040812060010180548592906111139084906120bf565b909155505061012e54611130906001600160a01b03163385611510565b60408051338152602081018590527fac59582e5396aca512fa873a2047e7f4c80f8f55d4a06cb34a78a0187f62719f910160405180910390a1505060016097555050565b6000828152606560205260409020600101546111908133611441565b610b1383836115c6565b60008051602061237a8339815191526111b38133611441565b50600091825261012d602052604090912055565b600260975414156111ea5760405162461bcd60e51b81526004016106d09061201a565b6002609755600082815261012d602052604090205461124b5760405162461bcd60e51b815260206004820152601e60248201527f57514c656e64696e673a206c6f636b54696d6520697320696e76616c6964000060448201526064016106d0565b3360009081526101316020526040902060048101544210156112ba5760405162461bcd60e51b815260206004820152602260248201527f5751536176696e6750726f647563743a20616c7265616479206465706f736974604482015261195960f21b60648201526084016106d0565b60048101546112e0576112d08362015180612067565b6112da90426120bf565b60048201555b818160000160008282546112f491906120bf565b909155505061012e54611312906001600160a01b03163330856114a5565b60408051338152602081018490527f88a5966d370b9919b20f3e2c13ff65706f196a4e32cc2c12bf57088f885258749101610adb565b60008051602061237a8339815191526113618133611441565b5061012f80546001600160a01b0319166001600160a01b0392909216919091179055565b6001600160a01b03163b151590565b600054610100900460ff166113bb5760405162461bcd60e51b81526004016106d09061216f565b565b600054610100900460ff166113e45760405162461bcd60e51b81526004016106d09061216f565b6113bb6117c0565b610b928282611540565b600082815260656020526040808220600101805490849055905190918391839186917fbd79b86ffe0ab8e8776151514217cd7cacd52c909f66475c3af44e129f0b00ff9190a4505050565b61144b8282610f90565b610b9257611463816001600160a01b031660146117ee565b61146e8360206117ee565b60405160200161147f9291906121e6565b60408051601f198184030181529082905262461bcd60e51b82526106d09160040161225b565b6040516001600160a01b03808516602483015283166044820152606481018290526107be9085906323b872dd60e01b906084015b60408051601f198184030181529190526020810180516001600160e01b03166001600160e01b03199093169290921790915261198a565b6040516001600160a01b038316602482015260448101829052610b1390849063a9059cbb60e01b906064016114d9565b61154a8282610f90565b610b925760008281526065602090815260408083206001600160a01b03851684529091529020805460ff191660011790556115823390565b6001600160a01b0316816001600160a01b0316837f2f8788117e7eff1d82e926ec794901d17c78024a50270940304540a733656f0d60405160405180910390a45050565b6115d08282610f90565b15610b925760008281526065602090815260408083206001600160a01b0385168085529252808320805460ff1916905551339285917ff6391f5c32d9c69d2a47ea670b442974b53935d1edc7fd64eb21e047a839171b9190a45050565b600080516020612313833981519152610b928133611441565b7f4910fdfa16fed3260ed0e7147f7cc6da11a60208b5b9406d12a635614ffd91435460ff161561167957610b1383611a5c565b826001600160a01b03166352d1902d6040518163ffffffff1660e01b815260040160206040518083038186803b1580156116b257600080fd5b505afa9250505080156116e2575060408051601f3d908101601f191682019092526116df9181019061228e565b60015b6117455760405162461bcd60e51b815260206004820152602e60248201527f45524331393637557067726164653a206e657720696d706c656d656e7461746960448201526d6f6e206973206e6f74205555505360901b60648201526084016106d0565b60008051602061233383398151915281146117b45760405162461bcd60e51b815260206004820152602960248201527f45524331393637557067726164653a20756e737570706f727465642070726f786044820152681a58589b195555525160ba1b60648201526084016106d0565b50610b13838383611af8565b600054610100900460ff166117e75760405162461bcd60e51b81526004016106d09061216f565b6001609755565b606060006117fd836002612067565b6118089060026120bf565b67ffffffffffffffff81111561182057611820611eed565b6040519080825280601f01601f19166020018201604052801561184a576020820181803683370190505b509050600360fc1b81600081518110611865576118656122a7565b60200101906001600160f81b031916908160001a905350600f60fb1b81600181518110611894576118946122a7565b60200101906001600160f81b031916908160001a90535060006118b8846002612067565b6118c39060016120bf565b90505b600181111561193b576f181899199a1a9b1b9c1cb0b131b232b360811b85600f16601081106118f7576118f76122a7565b1a60f81b82828151811061190d5761190d6122a7565b60200101906001600160f81b031916908160001a90535060049490941c93611934816122bd565b90506118c6565b508315610f895760405162461bcd60e51b815260206004820181905260248201527f537472696e67733a20686578206c656e67746820696e73756666696369656e7460448201526064016106d0565b60006119df826040518060400160405280602081526020017f5361666545524332303a206c6f772d6c6576656c2063616c6c206661696c6564815250856001600160a01b0316611b1d9092919063ffffffff16565b805190915015610b1357808060200190518101906119fd91906122d4565b610b135760405162461bcd60e51b815260206004820152602a60248201527f5361666545524332303a204552433230206f7065726174696f6e20646964206e6044820152691bdd081cdd58d8d9595960b21b60648201526084016106d0565b6001600160a01b0381163b611ac95760405162461bcd60e51b815260206004820152602d60248201527f455243313936373a206e657720696d706c656d656e746174696f6e206973206e60448201526c1bdd08184818dbdb9d1c9858dd609a1b60648201526084016106d0565b60008051602061233383398151915280546001600160a01b0319166001600160a01b0392909216919091179055565b611b0183611b34565b600082511180611b0e5750805b15610b13576107be8383611b74565b6060611b2c8484600085611c68565b949350505050565b611b3d81611a5c565b6040516001600160a01b038216907fbc7cd75a20ee27fd9adebab32041f755214dbc6bffa90cc0225b39da2e5c2d3b90600090a250565b60606001600160a01b0383163b611bdc5760405162461bcd60e51b815260206004820152602660248201527f416464726573733a2064656c65676174652063616c6c20746f206e6f6e2d636f6044820152651b9d1c9858dd60d21b60648201526084016106d0565b600080846001600160a01b031684604051611bf791906122f6565b600060405180830381855af49150503d8060008114611c32576040519150601f19603f3d011682016040523d82523d6000602084013e611c37565b606091505b5091509150611c5f828260405180606001604052806027815260200161235360279139611d99565b95945050505050565b606082471015611cc95760405162461bcd60e51b815260206004820152602660248201527f416464726573733a20696e73756666696369656e742062616c616e636520666f6044820152651c8818d85b1b60d21b60648201526084016106d0565b6001600160a01b0385163b611d205760405162461bcd60e51b815260206004820152601d60248201527f416464726573733a2063616c6c20746f206e6f6e2d636f6e747261637400000060448201526064016106d0565b600080866001600160a01b03168587604051611d3c91906122f6565b60006040518083038185875af1925050503d8060008114611d79576040519150601f19603f3d011682016040523d82523d6000602084013e611d7e565b606091505b5091509150611d8e828286611d99565b979650505050505050565b60608315611da8575081610f89565b825115611db85782518084602001fd5b8160405162461bcd60e51b81526004016106d0919061225b565b600060208284031215611de457600080fd5b81356001600160e01b031981168114610f8957600080fd5b80356001600160a01b0381168114611e1357600080fd5b919050565b600080600060608486031215611e2d57600080fd5b611e3684611dfc565b9250611e4460208501611dfc565b9150604084013590509250925092565b600060208284031215611e6657600080fd5b5035919050565b60008060008060808587031215611e8357600080fd5b611e8c85611dfc565b966020860135965060408601359560600135945092505050565b60008060408385031215611eb957600080fd5b82359150611ec960208401611dfc565b90509250929050565b600060208284031215611ee457600080fd5b610f8982611dfc565b634e487b7160e01b600052604160045260246000fd5b60008060408385031215611f1657600080fd5b611f1f83611dfc565b9150602083013567ffffffffffffffff80821115611f3c57600080fd5b818501915085601f830112611f5057600080fd5b813581811115611f6257611f62611eed565b604051601f8201601f19908116603f01168101908382118183101715611f8a57611f8a611eed565b81604052828152886020848701011115611fa357600080fd5b8260208601602083013760006020848301015280955050505050509250929050565b600080600060608486031215611fda57600080fd5b611fe384611dfc565b95602085013595506040909401359392505050565b6000806040838503121561200b57600080fd5b50508035926020909101359150565b6020808252601f908201527f5265656e7472616e637947756172643a207265656e7472616e742063616c6c00604082015260600190565b634e487b7160e01b600052601160045260246000fd5b600081600019048311821515161561208157612081612051565b500290565b6000826120a357634e487b7160e01b600052601260045260246000fd5b500490565b6000828210156120ba576120ba612051565b500390565b600082198211156120d2576120d2612051565b500190565b6020808252602c908201527f46756e6374696f6e206d7573742062652063616c6c6564207468726f7567682060408201526b19195b1959d85d1958d85b1b60a21b606082015260800190565b6020808252602c908201527f46756e6374696f6e206d7573742062652063616c6c6564207468726f7567682060408201526b6163746976652070726f787960a01b606082015260800190565b6020808252602b908201527f496e697469616c697a61626c653a20636f6e7472616374206973206e6f74206960408201526a6e697469616c697a696e6760a81b606082015260800190565b60005b838110156121d55781810151838201526020016121bd565b838111156107be5750506000910152565b7f416363657373436f6e74726f6c3a206163636f756e742000000000000000000081526000835161221e8160178501602088016121ba565b7001034b99036b4b9b9b4b733903937b6329607d1b601791840191820152835161224f8160288401602088016121ba565b01602801949350505050565b602081526000825180602084015261227a8160408501602087016121ba565b601f01601f19169190910160400192915050565b6000602082840312156122a057600080fd5b5051919050565b634e487b7160e01b600052603260045260246000fd5b6000816122cc576122cc612051565b506000190190565b6000602082840312156122e657600080fd5b81518015158114610f8957600080fd5b600082516123088184602087016121ba565b919091019291505056fe189ab7a9244df0848122154315af71fe140f3db0fe014031783b0946b8c9d2e3360894a13ba1a3210667c828492db98dca3e2076cc3735a920a3ca505d382bbc416464726573733a206c6f772d6c6576656c2064656c65676174652063616c6c206661696c6564a49807205ce4d355092ef5a8a18f56e8913cf4a201fbe287825b095693c21775a264697066735822122055d24f2b0b21274f21d29f6113e5071be501d19a872a4a3125879dedd19dedc664736f6c63430008090033",
  "linkReferences": {},
  "deployedLinkReferences": {}
}