{
  "_format": "hh-sol-artifact-1",
  "contractName": "WQLending",
  "sourceName": "contracts/WQLending.sol",
  "abi": [
    {
      "inputs": [],
      "stateMutability": "nonpayable",
      "type": "constructor"
    },
    {
      "anonymous": false,
      "inputs": [
        {
          "indexed": false,
          "internalType": "address",
          "name": "previousAdmin",
          "type": "address"
        },
        {
          "indexed": false,
          "internalType": "address",
          "name": "newAdmin",
          "type": "address"
        }
      ],
      "name": "AdminChanged",
      "type": "event"
    },
    {
      "anonymous": false,
      "inputs": [
        {
          "indexed": true,
          "internalType": "address",
          "name": "beacon",
          "type": "address"
        }
      ],
      "name": "BeaconUpgraded",
      "type": "event"
    },
    {
      "anonymous": false,
      "inputs": [
        {
          "indexed": false,
          "internalType": "address",
          "name": "user",
          "type": "address"
        },
        {
          "indexed": false,
          "internalType": "uint256",
          "name": "amount",
          "type": "uint256"
        }
      ],
      "name": "Borrowed",
      "type": "event"
    },
    {
      "anonymous": false,
      "inputs": [
        {
          "indexed": false,
          "internalType": "address",
          "name": "user",
          "type": "address"
        },
        {
          "indexed": false,
          "internalType": "uint256",
          "name": "amount",
          "type": "uint256"
        }
      ],
      "name": "Claimed",
      "type": "event"
    },
    {
      "anonymous": false,
      "inputs": [
        {
          "indexed": false,
          "internalType": "uint8",
          "name": "version",
          "type": "uint8"
        }
      ],
      "name": "Initialized",
      "type": "event"
    },
    {
      "anonymous": false,
      "inputs": [
        {
          "indexed": false,
          "internalType": "address",
          "name": "user",
          "type": "address"
        },
        {
          "indexed": false,
          "internalType": "uint256",
          "name": "amount",
          "type": "uint256"
        }
      ],
      "name": "Received",
      "type": "event"
    },
    {
      "anonymous": false,
      "inputs": [
        {
          "indexed": false,
          "internalType": "address",
          "name": "user",
          "type": "address"
        },
        {
          "indexed": false,
          "internalType": "uint256",
          "name": "amount",
          "type": "uint256"
        }
      ],
      "name": "Refunded",
      "type": "event"
    },
    {
      "anonymous": false,
      "inputs": [
        {
          "indexed": true,
          "internalType": "bytes32",
          "name": "role",
          "type": "bytes32"
        },
        {
          "indexed": true,
          "internalType": "bytes32",
          "name": "previousAdminRole",
          "type": "bytes32"
        },
        {
          "indexed": true,
          "internalType": "bytes32",
          "name": "newAdminRole",
          "type": "bytes32"
        }
      ],
      "name": "RoleAdminChanged",
      "type": "event"
    },
    {
      "anonymous": false,
      "inputs": [
        {
          "indexed": true,
          "internalType": "bytes32",
          "name": "role",
          "type": "bytes32"
        },
        {
          "indexed": true,
          "internalType": "address",
          "name": "account",
          "type": "address"
        },
        {
          "indexed": true,
          "internalType": "address",
          "name": "sender",
          "type": "address"
        }
      ],
      "name": "RoleGranted",
      "type": "event"
    },
    {
      "anonymous": false,
      "inputs": [
        {
          "indexed": true,
          "internalType": "bytes32",
          "name": "role",
          "type": "bytes32"
        },
        {
          "indexed": true,
          "internalType": "address",
          "name": "account",
          "type": "address"
        },
        {
          "indexed": true,
          "internalType": "address",
          "name": "sender",
          "type": "address"
        }
      ],
      "name": "RoleRevoked",
      "type": "event"
    },
    {
      "anonymous": false,
      "inputs": [
        {
          "indexed": true,
          "internalType": "address",
          "name": "implementation",
          "type": "address"
        }
      ],
      "name": "Upgraded",
      "type": "event"
    },
    {
      "anonymous": false,
      "inputs": [
        {
          "indexed": false,
          "internalType": "address",
          "name": "user",
          "type": "address"
        },
        {
          "indexed": false,
          "internalType": "uint256",
          "name": "amount",
          "type": "uint256"
        }
      ],
      "name": "Withdrew",
      "type": "event"
    },
    {
      "inputs": [],
      "name": "ADMIN_ROLE",
      "outputs": [
        {
          "internalType": "bytes32",
          "name": "",
          "type": "bytes32"
        }
      ],
      "stateMutability": "view",
      "type": "function"
    },
    {
      "inputs": [],
      "name": "BORROWER_ROLE",
      "outputs": [
        {
          "internalType": "bytes32",
          "name": "",
          "type": "bytes32"
        }
      ],
      "stateMutability": "view",
      "type": "function"
    },
    {
      "inputs": [],
      "name": "DEFAULT_ADMIN_ROLE",
      "outputs": [
        {
          "internalType": "bytes32",
          "name": "",
          "type": "bytes32"
        }
      ],
      "stateMutability": "view",
      "type": "function"
    },
    {
      "inputs": [],
      "name": "UPGRADER_ROLE",
      "outputs": [
        {
          "internalType": "bytes32",
          "name": "",
          "type": "bytes32"
        }
      ],
      "stateMutability": "view",
      "type": "function"
    },
    {
      "inputs": [],
      "name": "YEAR",
      "outputs": [
        {
          "internalType": "uint256",
          "name": "",
          "type": "uint256"
        }
      ],
      "stateMutability": "view",
      "type": "function"
    },
    {
      "inputs": [
        {
          "internalType": "uint256",
          "name": "",
          "type": "uint256"
        }
      ],
      "name": "apys",
      "outputs": [
        {
          "internalType": "uint256",
          "name": "",
          "type": "uint256"
        }
      ],
      "stateMutability": "view",
      "type": "function"
    },
    {
      "inputs": [
        {
          "internalType": "address",
          "name": "depositor",
          "type": "address"
        }
      ],
      "name": "balanceOf",
      "outputs": [
        {
          "internalType": "uint256",
          "name": "",
          "type": "uint256"
        }
      ],
      "stateMutability": "view",
      "type": "function"
    },
    {
      "inputs": [
        {
          "internalType": "address",
          "name": "depositor",
          "type": "address"
        },
        {
          "internalType": "uint256",
          "name": "amount",
          "type": "uint256"
        },
        {
          "internalType": "uint256",
          "name": "duration",
          "type": "uint256"
        }
      ],
      "name": "borrow",
      "outputs": [
        {
          "internalType": "uint256",
          "name": "",
          "type": "uint256"
        }
      ],
      "stateMutability": "nonpayable",
      "type": "function"
    },
    {
      "inputs": [],
      "name": "claim",
      "outputs": [],
      "stateMutability": "nonpayable",
      "type": "function"
    },
    {
      "inputs": [
        {
          "internalType": "uint256",
          "name": "lockTime",
          "type": "uint256"
        },
        {
          "internalType": "uint256",
          "name": "amount",
          "type": "uint256"
        }
      ],
      "name": "deposit",
      "outputs": [],
      "stateMutability": "nonpayable",
      "type": "function"
    },
    {
      "inputs": [],
      "name": "fee",
      "outputs": [
        {
          "internalType": "uint256",
          "name": "",
          "type": "uint256"
        }
      ],
      "stateMutability": "view",
      "type": "function"
    },
    {
      "inputs": [],
      "name": "feeReceiver",
      "outputs": [
        {
          "internalType": "address",
          "name": "",
          "type": "address"
        }
      ],
      "stateMutability": "view",
      "type": "function"
    },
    {
      "inputs": [
        {
          "internalType": "address",
          "name": "depositor",
          "type": "address"
        }
      ],
      "name": "getRewards",
      "outputs": [
        {
          "internalType": "uint256",
          "name": "",
          "type": "uint256"
        }
      ],
      "stateMutability": "view",
      "type": "function"
    },
    {
      "inputs": [
        {
          "internalType": "bytes32",
          "name": "role",
          "type": "bytes32"
        }
      ],
      "name": "getRoleAdmin",
      "outputs": [
        {
          "internalType": "bytes32",
          "name": "",
          "type": "bytes32"
        }
      ],
      "stateMutability": "view",
      "type": "function"
    },
    {
      "inputs": [
        {
          "internalType": "bytes32",
          "name": "role",
          "type": "bytes32"
        },
        {
          "internalType": "address",
          "name": "account",
          "type": "address"
        }
      ],
      "name": "grantRole",
      "outputs": [],
      "stateMutability": "nonpayable",
      "type": "function"
    },
    {
      "inputs": [
        {
          "internalType": "bytes32",
          "name": "role",
          "type": "bytes32"
        },
        {
          "internalType": "address",
          "name": "account",
          "type": "address"
        }
      ],
      "name": "hasRole",
      "outputs": [
        {
          "internalType": "bool",
          "name": "",
          "type": "bool"
        }
      ],
      "stateMutability": "view",
      "type": "function"
    },
    {
      "inputs": [
        {
          "internalType": "address",
          "name": "_wusd",
          "type": "address"
        },
        {
          "internalType": "address",
          "name": "_feeReceiver",
          "type": "address"
        },
        {
          "internalType": "uint256",
          "name": "_fee",
          "type": "uint256"
        }
      ],
      "name": "initialize",
      "outputs": [],
      "stateMutability": "nonpayable",
      "type": "function"
    },
    {
      "inputs": [],
      "name": "proxiableUUID",
      "outputs": [
        {
          "internalType": "bytes32",
          "name": "",
          "type": "bytes32"
        }
      ],
      "stateMutability": "view",
      "type": "function"
    },
    {
      "inputs": [
        {
          "internalType": "address",
          "name": "depositor",
          "type": "address"
        },
        {
          "internalType": "uint256",
          "name": "amount",
          "type": "uint256"
        },
        {
          "internalType": "uint256",
          "name": "elapsedTime",
          "type": "uint256"
        },
        {
          "internalType": "uint256",
          "name": "duration",
          "type": "uint256"
        }
      ],
      "name": "refund",
      "outputs": [],
      "stateMutability": "nonpayable",
      "type": "function"
    },
    {
      "inputs": [
        {
          "internalType": "bytes32",
          "name": "role",
          "type": "bytes32"
        },
        {
          "internalType": "address",
          "name": "account",
          "type": "address"
        }
      ],
      "name": "renounceRole",
      "outputs": [],
      "stateMutability": "nonpayable",
      "type": "function"
    },
    {
      "inputs": [
        {
          "internalType": "bytes32",
          "name": "role",
          "type": "bytes32"
        },
        {
          "internalType": "address",
          "name": "account",
          "type": "address"
        }
      ],
      "name": "revokeRole",
      "outputs": [],
      "stateMutability": "nonpayable",
      "type": "function"
    },
    {
      "inputs": [
        {
          "internalType": "uint256",
          "name": "duration",
          "type": "uint256"
        },
        {
          "internalType": "uint256",
          "name": "_apy",
          "type": "uint256"
        }
      ],
      "name": "setApy",
      "outputs": [],
      "stateMutability": "nonpayable",
      "type": "function"
    },
    {
      "inputs": [
        {
          "internalType": "uint256",
          "name": "_fee",
          "type": "uint256"
        }
      ],
      "name": "setFee",
      "outputs": [],
      "stateMutability": "nonpayable",
      "type": "function"
    },
    {
      "inputs": [
        {
          "internalType": "address",
          "name": "_feeReceiver",
          "type": "address"
        }
      ],
      "name": "setFeeReceiver",
      "outputs": [],
      "stateMutability": "nonpayable",
      "type": "function"
    },
    {
      "inputs": [
        {
          "internalType": "bytes4",
          "name": "interfaceId",
          "type": "bytes4"
        }
      ],
      "name": "supportsInterface",
      "outputs": [
        {
          "internalType": "bool",
          "name": "",
          "type": "bool"
        }
      ],
      "stateMutability": "view",
      "type": "function"
    },
    {
      "inputs": [
        {
          "internalType": "address",
          "name": "newImplementation",
          "type": "address"
        }
      ],
      "name": "upgradeTo",
      "outputs": [],
      "stateMutability": "nonpayable",
      "type": "function"
    },
    {
      "inputs": [
        {
          "internalType": "address",
          "name": "newImplementation",
          "type": "address"
        },
        {
          "internalType": "bytes",
          "name": "data",
          "type": "bytes"
        }
      ],
      "name": "upgradeToAndCall",
      "outputs": [],
      "stateMutability": "payable",
      "type": "function"
    },
    {
      "inputs": [
        {
          "internalType": "address",
          "name": "",
          "type": "address"
        }
      ],
      "name": "wallets",
      "outputs": [
        {
          "internalType": "uint256",
          "name": "amount",
          "type": "uint256"
        },
        {
          "internalType": "uint256",
          "name": "borrowed",
          "type": "uint256"
        },
        {
          "internalType": "uint256",
          "name": "rewardAllowed",
          "type": "uint256"
        },
        {
          "internalType": "uint256",
          "name": "rewardDistributed",
          "type": "uint256"
        },
        {
          "internalType": "uint256",
          "name": "unlockDate",
          "type": "uint256"
        }
      ],
      "stateMutability": "view",
      "type": "function"
    },
    {
      "inputs": [
        {
          "internalType": "uint256",
          "name": "amount",
          "type": "uint256"
        }
      ],
      "name": "withdraw",
      "outputs": [],
      "stateMutability": "nonpayable",
      "type": "function"
    },
    {
      "inputs": [],
      "name": "wusd",
      "outputs": [
        {
          "internalType": "contract IERC20Upgradeable",
          "name": "",
          "type": "address"
        }
      ],
      "stateMutability": "view",
      "type": "function"
    }
  ],
  "bytecode": "0x60a0604052306080523480156200001557600080fd5b50600054610100900460ff1615808015620000375750600054600160ff909116105b8062000067575062000054306200014160201b620013c81760201c565b15801562000067575060005460ff166001145b620000cf5760405162461bcd60e51b815260206004820152602e60248201527f496e697469616c697a61626c653a20636f6e747261637420697320616c72656160448201526d191e481a5b9a5d1a585b1a5e995960921b606482015260840160405180910390fd5b6000805460ff191660011790558015620000f3576000805461ff0019166101001790555b80156200013a576000805461ff0019169055604051600181527f7f26b83ff96e1f2b6a682f133852f6798a09c465da95921460cefb38474024989060200160405180910390a15b5062000150565b6001600160a01b03163b151590565b60805161241b6200018860003960008181610bee01528181610c2e01528181610dea01528181610e2a0152610eb9015261241b6000f3fe6080604052600436106101cd5760003560e01c806375b238fc116100f7578063b3f0067411610095578063ddca3f4311610064578063ddca3f43146105a2578063e2bbb158146105b9578063efdcd974146105d9578063f72c0d8b146105f957600080fd5b8063b3f0067414610521578063c1bce0b714610542578063d547741f14610562578063daf8bc101461058257600080fd5b806383914540116100d1578063839145401461046157806389b08f111461047957806391d14854146104ec578063a217fddf1461050c57600080fd5b806375b238fc146103f157806379ee54f71461041357806381ce1c231461043357600080fd5b80632f2ff15d1161016f5780634f1ef2861161013e5780634f1ef2861461038957806352d1902d1461039c57806369fe0e2d146103b157806370a08231146103d157600080fd5b80632f2ff15d1461031457806336568abe146103345780633659cfe6146103545780634e71d92d1461037457600080fd5b80631794bb3c116101ab5780631794bb3c14610282578063248a9ca3146102a4578063268ebd59146102d45780632e1a7d4d146102f457600080fd5b806301ffc9a7146101d25780630e7b949e1461020757806315c40eb014610249575b600080fd5b3480156101de57600080fd5b506101f26101ed366004611e1e565b61061b565b60405190151581526020015b60405180910390f35b34801561021357600080fd5b5061023b7f2344277e405079ec07749d374ba0b5862a4e45a6a05ac889dbb4a991c6f9354d81565b6040519081526020016101fe565b34801561025557600080fd5b5061012e5461026a906001600160a01b031681565b6040516001600160a01b0390911681526020016101fe565b34801561028e57600080fd5b506102a261029d366004611e64565b610652565b005b3480156102b057600080fd5b5061023b6102bf366004611ea0565b60009081526065602052604090206001015490565b3480156102e057600080fd5b506102a26102ef366004611eb9565b610814565b34801561030057600080fd5b506102a261030f366004611ea0565b610981565b34801561032057600080fd5b506102a261032f366004611ef2565b610b3b565b34801561034057600080fd5b506102a261034f366004611ef2565b610b65565b34801561036057600080fd5b506102a261036f366004611f1e565b610be3565b34801561038057600080fd5b506102a2610cc3565b6102a2610397366004611f4f565b610ddf565b3480156103a857600080fd5b5061023b610eac565b3480156103bd57600080fd5b506102a26103cc366004611ea0565b610f5f565b3480156103dd57600080fd5b5061023b6103ec366004611f1e565b610f7e565b3480156103fd57600080fd5b5061023b6000805160206123c683398151915281565b34801561041f57600080fd5b5061023b61042e366004611f1e565b610fa8565b34801561043f57600080fd5b5061023b61044e366004611ea0565b61012d6020526000908152604090205481565b34801561046d57600080fd5b5061023b6301e1338081565b34801561048557600080fd5b506104c4610494366004611f1e565b61013160205260009081526040902080546001820154600283015460038401546004909401549293919290919085565b604080519586526020860194909452928401919091526060830152608082015260a0016101fe565b3480156104f857600080fd5b506101f2610507366004611ef2565b610fdc565b34801561051857600080fd5b5061023b600081565b34801561052d57600080fd5b5061012f5461026a906001600160a01b031681565b34801561054e57600080fd5b5061023b61055d366004612011565b611007565b34801561056e57600080fd5b506102a261057d366004611ef2565b6111ba565b34801561058e57600080fd5b506102a261059d366004612044565b6111df565b3480156105ae57600080fd5b5061023b6101305481565b3480156105c557600080fd5b506102a26105d4366004612044565b61120b565b3480156105e557600080fd5b506102a26105f4366004611f1e565b61138c565b34801561060557600080fd5b5061023b60008051602061235f83398151915281565b60006001600160e01b03198216637965db0b60e01b148061064c57506301ffc9a760e01b6001600160e01b03198316145b92915050565b600054610100900460ff16158080156106725750600054600160ff909116105b8061068c5750303b15801561068c575060005460ff166001145b6106f45760405162461bcd60e51b815260206004820152602e60248201527f496e697469616c697a61626c653a20636f6e747261637420697320616c72656160448201526d191e481a5b9a5d1a585b1a5e995960921b60648201526084015b60405180910390fd5b6000805460ff191660011790558015610717576000805461ff0019166101001790555b61071f6113d7565b610727611400565b61072f6113d7565b61073a60003361142f565b6107526000805160206123c68339815191523361142f565b61076a60008051602061235f8339815191523361142f565b61079060008051602061235f8339815191526000805160206123c6833981519152611439565b61012e80546001600160a01b038087166001600160a01b03199283161790925561012f805492861692909116919091179055610130829055801561080e576000805461ff0019169055604051600181527f7f26b83ff96e1f2b6a682f133852f6798a09c465da95921460cefb38474024989060200160405180910390a15b50505050565b600260975414156108375760405162461bcd60e51b81526004016106eb90612066565b60026097557f2344277e405079ec07749d374ba0b5862a4e45a6a05ac889dbb4a991c6f9354d61086681611484565b600082815261012d6020526040812054670de0b6b3a7640000906301e13380906108919087906120b3565b61089b90886120b3565b6108a591906120d2565b6108af91906120d2565b6001600160a01b038716600090815261013160205260408120600101805492935087929091906108e09084906120f4565b90915550506001600160a01b038616600090815261013160205260408120600201805483929061091190849061210b565b9091555061093b90503330610926848961210b565b61012e546001600160a01b031692919061148e565b60408051338152602081018790527fd7dee2702d63ad89917b6a4da9981c90c4d24f8c2bdfd64c604ecae57d8d0651910160405180910390a15050600160975550505050565b600260975414156109a45760405162461bcd60e51b81526004016106eb90612066565b60026097553360009081526101316020526040902060048101544211610a185760405162461bcd60e51b8152602060048201526024808201527f57514c656e64696e673a204c6f636b2074696d65206973206e6f74206f766572604482015263081e595d60e21b60648201526084016106eb565b8054821115610a695760405162461bcd60e51b815260206004820152601c60248201527f57514c656e64696e673a20416d6f756e7420697320696e76616c69640000000060448201526064016106eb565b81816000016000828254610a7d91906120f4565b90915550508054610a9057600060048201555b6000670de0b6b3a76400006101305484610aaa91906120b3565b610ab491906120d2565b9050610ad833610ac483866120f4565b61012e546001600160a01b031691906114f9565b61012f5461012e54610af7916001600160a01b039182169116836114f9565b60408051338152602081018590527fb244b9a17ad633c6e83b7983ee04320484956a68ddbe96a0b70dfca1cf19d72391015b60405180910390a15050600160975550565b600082815260656020526040902060010154610b5681611484565b610b608383611529565b505050565b6001600160a01b0381163314610bd55760405162461bcd60e51b815260206004820152602f60248201527f416363657373436f6e74726f6c3a2063616e206f6e6c792072656e6f756e636560448201526e103937b632b9903337b91039b2b63360891b60648201526084016106eb565b610bdf82826115af565b5050565b306001600160a01b037f0000000000000000000000000000000000000000000000000000000000000000161415610c2c5760405162461bcd60e51b81526004016106eb90612123565b7f00000000000000000000000000000000000000000000000000000000000000006001600160a01b0316610c7560008051602061237f833981519152546001600160a01b031690565b6001600160a01b031614610c9b5760405162461bcd60e51b81526004016106eb9061216f565b610ca481611616565b60408051600080825260208201909252610cc09183919061162e565b50565b60026097541415610ce65760405162461bcd60e51b81526004016106eb90612066565b60026097553360009081526101316020526040902060040154421015610d4e5760405162461bcd60e51b815260206004820181905260248201527f57514c656e64696e673a20436c61696d206e6f7420616c6c6f7765642079657460448201526064016106eb565b6000610d5933610fa8565b3360009081526101316020526040812060030180549293508392909190610d8190849061210b565b909155505061012e54610d9e906001600160a01b031633836114f9565b60408051338152602081018390527fd8138f8a3f377c5259ca548e70e4c2de94f129f5a11036a15b69513cba2b426a910160405180910390a1506001609755565b306001600160a01b037f0000000000000000000000000000000000000000000000000000000000000000161415610e285760405162461bcd60e51b81526004016106eb90612123565b7f00000000000000000000000000000000000000000000000000000000000000006001600160a01b0316610e7160008051602061237f833981519152546001600160a01b031690565b6001600160a01b031614610e975760405162461bcd60e51b81526004016106eb9061216f565b610ea082611616565b610bdf8282600161162e565b6000306001600160a01b037f00000000000000000000000000000000000000000000000000000000000000001614610f4c5760405162461bcd60e51b815260206004820152603860248201527f555550535570677261646561626c653a206d757374206e6f742062652063616c60448201527f6c6564207468726f7567682064656c656761746563616c6c000000000000000060648201526084016106eb565b5060008051602061237f83398151915290565b6000805160206123c6833981519152610f7781611484565b5061013055565b6001600160a01b0381166000908152610131602052604081206001810154905461064c91906120f4565b6001600160a01b03811660009081526101316020526040812060038101546002820154610fd591906120f4565b9392505050565b60009182526065602090815260408084206001600160a01b0393909316845291905290205460ff1690565b60006002609754141561102c5760405162461bcd60e51b81526004016106eb90612066565b60026097557f2344277e405079ec07749d374ba0b5862a4e45a6a05ac889dbb4a991c6f9354d61105b81611484565b6001600160a01b0385166000908152610131602052604090206004015442106110c65760405162461bcd60e51b815260206004820152601d60248201527f57514c656e64696e673a2043726564697420756e617661696c61626c6500000060448201526064016106eb565b6001600160a01b03851660009081526101316020526040812060010180548692906110f290849061210b565b909155505061012e5461110f906001600160a01b031633866114f9565b60408051338152602081018690527fac59582e5396aca512fa873a2047e7f4c80f8f55d4a06cb34a78a0187f62719f910160405180910390a1600061115784620151806120b3565b611161904261210b565b6001600160a01b0387166000908152610131602052604090206004015490915081106111a9576001600160a01b038616600090815261013160205260409020600401546111ab565b805b60016097559695505050505050565b6000828152606560205260409020600101546111d581611484565b610b6083836115af565b6000805160206123c68339815191526111f781611484565b50600091825261012d602052604090912055565b6002609754141561122e5760405162461bcd60e51b81526004016106eb90612066565b6002609755600082815261012d602052604090205461128f5760405162461bcd60e51b815260206004820152601e60248201527f57514c656e64696e673a206c6f636b54696d6520697320696e76616c6964000060448201526064016106eb565b3360009081526101316020526040902060048101544210156112fe5760405162461bcd60e51b815260206004820152602260248201527f5751536176696e6750726f647563743a20616c7265616479206465706f736974604482015261195960f21b60648201526084016106eb565b60048101546113245761131483620151806120b3565b61131e904261210b565b60048201555b81816000016000828254611338919061210b565b909155505061012e54611356906001600160a01b031633308561148e565b60408051338152602081018490527f88a5966d370b9919b20f3e2c13ff65706f196a4e32cc2c12bf57088f885258749101610b29565b6000805160206123c68339815191526113a481611484565b5061012f80546001600160a01b0319166001600160a01b0392909216919091179055565b6001600160a01b03163b151590565b600054610100900460ff166113fe5760405162461bcd60e51b81526004016106eb906121bb565b565b600054610100900460ff166114275760405162461bcd60e51b81526004016106eb906121bb565b6113fe6117a8565b610bdf8282611529565b600082815260656020526040808220600101805490849055905190918391839186917fbd79b86ffe0ab8e8776151514217cd7cacd52c909f66475c3af44e129f0b00ff9190a4505050565b610cc081336117d6565b6040516001600160a01b038085166024830152831660448201526064810182905261080e9085906323b872dd60e01b906084015b60408051601f198184030181529190526020810180516001600160e01b03166001600160e01b03199093169290921790915261183a565b6040516001600160a01b038316602482015260448101829052610b6090849063a9059cbb60e01b906064016114c2565b6115338282610fdc565b610bdf5760008281526065602090815260408083206001600160a01b03851684529091529020805460ff1916600117905561156b3390565b6001600160a01b0316816001600160a01b0316837f2f8788117e7eff1d82e926ec794901d17c78024a50270940304540a733656f0d60405160405180910390a45050565b6115b98282610fdc565b15610bdf5760008281526065602090815260408083206001600160a01b0385168085529252808320805460ff1916905551339285917ff6391f5c32d9c69d2a47ea670b442974b53935d1edc7fd64eb21e047a839171b9190a45050565b60008051602061235f833981519152610bdf81611484565b7f4910fdfa16fed3260ed0e7147f7cc6da11a60208b5b9406d12a635614ffd91435460ff161561166157610b608361190c565b826001600160a01b03166352d1902d6040518163ffffffff1660e01b815260040160206040518083038186803b15801561169a57600080fd5b505afa9250505080156116ca575060408051601f3d908101601f191682019092526116c791810190612206565b60015b61172d5760405162461bcd60e51b815260206004820152602e60248201527f45524331393637557067726164653a206e657720696d706c656d656e7461746960448201526d6f6e206973206e6f74205555505360901b60648201526084016106eb565b60008051602061237f833981519152811461179c5760405162461bcd60e51b815260206004820152602960248201527f45524331393637557067726164653a20756e737570706f727465642070726f786044820152681a58589b195555525160ba1b60648201526084016106eb565b50610b608383836119a8565b600054610100900460ff166117cf5760405162461bcd60e51b81526004016106eb906121bb565b6001609755565b6117e08282610fdc565b610bdf576117f8816001600160a01b031660146119cd565b6118038360206119cd565b60405160200161181492919061224b565b60408051601f198184030181529082905262461bcd60e51b82526106eb916004016122c0565b600061188f826040518060400160405280602081526020017f5361666545524332303a206c6f772d6c6576656c2063616c6c206661696c6564815250856001600160a01b0316611b699092919063ffffffff16565b805190915015610b6057808060200190518101906118ad91906122f3565b610b605760405162461bcd60e51b815260206004820152602a60248201527f5361666545524332303a204552433230206f7065726174696f6e20646964206e6044820152691bdd081cdd58d8d9595960b21b60648201526084016106eb565b6001600160a01b0381163b6119795760405162461bcd60e51b815260206004820152602d60248201527f455243313936373a206e657720696d706c656d656e746174696f6e206973206e60448201526c1bdd08184818dbdb9d1c9858dd609a1b60648201526084016106eb565b60008051602061237f83398151915280546001600160a01b0319166001600160a01b0392909216919091179055565b6119b183611b80565b6000825111806119be5750805b15610b605761080e8383611bc0565b606060006119dc8360026120b3565b6119e790600261210b565b67ffffffffffffffff8111156119ff576119ff611f39565b6040519080825280601f01601f191660200182016040528015611a29576020820181803683370190505b509050600360fc1b81600081518110611a4457611a44612315565b60200101906001600160f81b031916908160001a905350600f60fb1b81600181518110611a7357611a73612315565b60200101906001600160f81b031916908160001a9053506000611a978460026120b3565b611aa290600161210b565b90505b6001811115611b1a576f181899199a1a9b1b9c1cb0b131b232b360811b85600f1660108110611ad657611ad6612315565b1a60f81b828281518110611aec57611aec612315565b60200101906001600160f81b031916908160001a90535060049490941c93611b138161232b565b9050611aa5565b508315610fd55760405162461bcd60e51b815260206004820181905260248201527f537472696e67733a20686578206c656e67746820696e73756666696369656e7460448201526064016106eb565b6060611b788484600085611cb4565b949350505050565b611b898161190c565b6040516001600160a01b038216907fbc7cd75a20ee27fd9adebab32041f755214dbc6bffa90cc0225b39da2e5c2d3b90600090a250565b60606001600160a01b0383163b611c285760405162461bcd60e51b815260206004820152602660248201527f416464726573733a2064656c65676174652063616c6c20746f206e6f6e2d636f6044820152651b9d1c9858dd60d21b60648201526084016106eb565b600080846001600160a01b031684604051611c439190612342565b600060405180830381855af49150503d8060008114611c7e576040519150601f19603f3d011682016040523d82523d6000602084013e611c83565b606091505b5091509150611cab828260405180606001604052806027815260200161239f60279139611de5565b95945050505050565b606082471015611d155760405162461bcd60e51b815260206004820152602660248201527f416464726573733a20696e73756666696369656e742062616c616e636520666f6044820152651c8818d85b1b60d21b60648201526084016106eb565b6001600160a01b0385163b611d6c5760405162461bcd60e51b815260206004820152601d60248201527f416464726573733a2063616c6c20746f206e6f6e2d636f6e747261637400000060448201526064016106eb565b600080866001600160a01b03168587604051611d889190612342565b60006040518083038185875af1925050503d8060008114611dc5576040519150601f19603f3d011682016040523d82523d6000602084013e611dca565b606091505b5091509150611dda828286611de5565b979650505050505050565b60608315611df4575081610fd5565b825115611e045782518084602001fd5b8160405162461bcd60e51b81526004016106eb91906122c0565b600060208284031215611e3057600080fd5b81356001600160e01b031981168114610fd557600080fd5b80356001600160a01b0381168114611e5f57600080fd5b919050565b600080600060608486031215611e7957600080fd5b611e8284611e48565b9250611e9060208501611e48565b9150604084013590509250925092565b600060208284031215611eb257600080fd5b5035919050565b60008060008060808587031215611ecf57600080fd5b611ed885611e48565b966020860135965060408601359560600135945092505050565b60008060408385031215611f0557600080fd5b82359150611f1560208401611e48565b90509250929050565b600060208284031215611f3057600080fd5b610fd582611e48565b634e487b7160e01b600052604160045260246000fd5b60008060408385031215611f6257600080fd5b611f6b83611e48565b9150602083013567ffffffffffffffff80821115611f8857600080fd5b818501915085601f830112611f9c57600080fd5b813581811115611fae57611fae611f39565b604051601f8201601f19908116603f01168101908382118183101715611fd657611fd6611f39565b81604052828152886020848701011115611fef57600080fd5b8260208601602083013760006020848301015280955050505050509250929050565b60008060006060848603121561202657600080fd5b61202f84611e48565b95602085013595506040909401359392505050565b6000806040838503121561205757600080fd5b50508035926020909101359150565b6020808252601f908201527f5265656e7472616e637947756172643a207265656e7472616e742063616c6c00604082015260600190565b634e487b7160e01b600052601160045260246000fd5b60008160001904831182151516156120cd576120cd61209d565b500290565b6000826120ef57634e487b7160e01b600052601260045260246000fd5b500490565b6000828210156121065761210661209d565b500390565b6000821982111561211e5761211e61209d565b500190565b6020808252602c908201527f46756e6374696f6e206d7573742062652063616c6c6564207468726f7567682060408201526b19195b1959d85d1958d85b1b60a21b606082015260800190565b6020808252602c908201527f46756e6374696f6e206d7573742062652063616c6c6564207468726f7567682060408201526b6163746976652070726f787960a01b606082015260800190565b6020808252602b908201527f496e697469616c697a61626c653a20636f6e7472616374206973206e6f74206960408201526a6e697469616c697a696e6760a81b606082015260800190565b60006020828403121561221857600080fd5b5051919050565b60005b8381101561223a578181015183820152602001612222565b8381111561080e5750506000910152565b7f416363657373436f6e74726f6c3a206163636f756e742000000000000000000081526000835161228381601785016020880161221f565b7001034b99036b4b9b9b4b733903937b6329607d1b60179184019182015283516122b481602884016020880161221f565b01602801949350505050565b60208152600082518060208401526122df81604085016020870161221f565b601f01601f19169190910160400192915050565b60006020828403121561230557600080fd5b81518015158114610fd557600080fd5b634e487b7160e01b600052603260045260246000fd5b60008161233a5761233a61209d565b506000190190565b6000825161235481846020870161221f565b919091019291505056fe189ab7a9244df0848122154315af71fe140f3db0fe014031783b0946b8c9d2e3360894a13ba1a3210667c828492db98dca3e2076cc3735a920a3ca505d382bbc416464726573733a206c6f772d6c6576656c2064656c65676174652063616c6c206661696c6564a49807205ce4d355092ef5a8a18f56e8913cf4a201fbe287825b095693c21775a2646970667358221220f7a10a00198625fa5c65bea6f9658190a8a06ef37ac1abe026271490a300dcdc64736f6c63430008090033",
  "linkReferences": {},
  "deployedLinkReferences": {}
}