{
  "_format": "hh-sol-artifact-1",
  "contractName": "WQDAOVoting",
  "sourceName": "contracts/WQDAOVoting.sol",
  "abi": [
    {
      "inputs": [],
      "stateMutability": "nonpayable",
      "type": "constructor"
    },
    {
      "anonymous": false,
      "inputs": [
        {
          "indexed": false,
          "internalType": "address",
          "name": "previousAdmin",
          "type": "address"
        },
        {
          "indexed": false,
          "internalType": "address",
          "name": "newAdmin",
          "type": "address"
        }
      ],
      "name": "AdminChanged",
      "type": "event"
    },
    {
      "anonymous": false,
      "inputs": [
        {
          "indexed": true,
          "internalType": "address",
          "name": "beacon",
          "type": "address"
        }
      ],
      "name": "BeaconUpgraded",
      "type": "event"
    },
    {
      "anonymous": false,
      "inputs": [
        {
          "indexed": true,
          "internalType": "address",
          "name": "delegator",
          "type": "address"
        },
        {
          "indexed": true,
          "internalType": "address",
          "name": "fromDelegate",
          "type": "address"
        },
        {
          "indexed": true,
          "internalType": "address",
          "name": "toDelegate",
          "type": "address"
        }
      ],
      "name": "DelegateChanged",
      "type": "event"
    },
    {
      "anonymous": false,
      "inputs": [
        {
          "indexed": true,
          "internalType": "address",
          "name": "delegator",
          "type": "address"
        },
        {
          "indexed": true,
          "internalType": "address",
          "name": "delegatee",
          "type": "address"
        },
        {
          "indexed": false,
          "internalType": "uint256",
          "name": "previousBalance",
          "type": "uint256"
        },
        {
          "indexed": false,
          "internalType": "uint256",
          "name": "newBalance",
          "type": "uint256"
        }
      ],
      "name": "DelegateVotesChanged",
      "type": "event"
    },
    {
      "anonymous": false,
      "inputs": [
        {
          "indexed": false,
          "internalType": "uint256",
          "name": "id",
          "type": "uint256"
        },
        {
          "indexed": false,
          "internalType": "uint256",
          "name": "nonce",
          "type": "uint256"
        },
        {
          "indexed": false,
          "internalType": "address",
          "name": "proposer",
          "type": "address"
        },
        {
          "indexed": false,
          "internalType": "string",
          "name": "description",
          "type": "string"
        },
        {
          "indexed": false,
          "internalType": "uint256",
          "name": "votingPeriod",
          "type": "uint256"
        },
        {
          "indexed": false,
          "internalType": "uint256",
          "name": "minimumQuorum",
          "type": "uint256"
        },
        {
          "indexed": false,
          "internalType": "uint256",
          "name": "timestamp",
          "type": "uint256"
        }
      ],
      "name": "ProposalCreated",
      "type": "event"
    },
    {
      "anonymous": false,
      "inputs": [
        {
          "indexed": false,
          "internalType": "uint256",
          "name": "id",
          "type": "uint256"
        },
        {
          "indexed": false,
          "internalType": "bool",
          "name": "succeded",
          "type": "bool"
        },
        {
          "indexed": false,
          "internalType": "bool",
          "name": "defeated",
          "type": "bool"
        }
      ],
      "name": "ProposalExecuted",
      "type": "event"
    },
    {
      "anonymous": false,
      "inputs": [
        {
          "indexed": true,
          "internalType": "bytes32",
          "name": "role",
          "type": "bytes32"
        },
        {
          "indexed": true,
          "internalType": "bytes32",
          "name": "previousAdminRole",
          "type": "bytes32"
        },
        {
          "indexed": true,
          "internalType": "bytes32",
          "name": "newAdminRole",
          "type": "bytes32"
        }
      ],
      "name": "RoleAdminChanged",
      "type": "event"
    },
    {
      "anonymous": false,
      "inputs": [
        {
          "indexed": true,
          "internalType": "bytes32",
          "name": "role",
          "type": "bytes32"
        },
        {
          "indexed": true,
          "internalType": "address",
          "name": "account",
          "type": "address"
        },
        {
          "indexed": true,
          "internalType": "address",
          "name": "sender",
          "type": "address"
        }
      ],
      "name": "RoleGranted",
      "type": "event"
    },
    {
      "anonymous": false,
      "inputs": [
        {
          "indexed": true,
          "internalType": "bytes32",
          "name": "role",
          "type": "bytes32"
        },
        {
          "indexed": true,
          "internalType": "address",
          "name": "account",
          "type": "address"
        },
        {
          "indexed": true,
          "internalType": "address",
          "name": "sender",
          "type": "address"
        }
      ],
      "name": "RoleRevoked",
      "type": "event"
    },
    {
      "anonymous": false,
      "inputs": [
        {
          "indexed": true,
          "internalType": "address",
          "name": "implementation",
          "type": "address"
        }
      ],
      "name": "Upgraded",
      "type": "event"
    },
    {
      "anonymous": false,
      "inputs": [
        {
          "indexed": true,
          "internalType": "address",
          "name": "voter",
          "type": "address"
        },
        {
          "indexed": false,
          "internalType": "uint256",
          "name": "proposalId",
          "type": "uint256"
        },
        {
          "indexed": false,
          "internalType": "bool",
          "name": "support",
          "type": "bool"
        },
        {
          "indexed": false,
          "internalType": "uint256",
          "name": "votes",
          "type": "uint256"
        },
        {
          "indexed": false,
          "internalType": "uint256",
          "name": "timestamp",
          "type": "uint256"
        }
      ],
      "name": "VoteCast",
      "type": "event"
    },
    {
      "inputs": [],
      "name": "ADMIN_ROLE",
      "outputs": [
        {
          "internalType": "bytes32",
          "name": "",
          "type": "bytes32"
        }
      ],
      "stateMutability": "view",
      "type": "function"
    },
    {
      "inputs": [],
      "name": "CHAIRPERSON_ROLE",
      "outputs": [
        {
          "internalType": "bytes32",
          "name": "",
          "type": "bytes32"
        }
      ],
      "stateMutability": "view",
      "type": "function"
    },
    {
      "inputs": [],
      "name": "DEFAULT_ADMIN_ROLE",
      "outputs": [
        {
          "internalType": "bytes32",
          "name": "",
          "type": "bytes32"
        }
      ],
      "stateMutability": "view",
      "type": "function"
    },
    {
      "inputs": [],
      "name": "UPGRADER_ROLE",
      "outputs": [
        {
          "internalType": "bytes32",
          "name": "",
          "type": "bytes32"
        }
      ],
      "stateMutability": "view",
      "type": "function"
    },
    {
      "inputs": [
        {
          "internalType": "uint256",
          "name": "nonce",
          "type": "uint256"
        },
        {
          "internalType": "string",
          "name": "_description",
          "type": "string"
        }
      ],
      "name": "addProposal",
      "outputs": [],
      "stateMutability": "nonpayable",
      "type": "function"
    },
    {
      "inputs": [
        {
          "internalType": "uint256",
          "name": "_minimumQuorum",
          "type": "uint256"
        },
        {
          "internalType": "uint256",
          "name": "_votingPeriod",
          "type": "uint256"
        }
      ],
      "name": "changeVotingRules",
      "outputs": [],
      "stateMutability": "nonpayable",
      "type": "function"
    },
    {
      "inputs": [
        {
          "internalType": "address",
          "name": "account",
          "type": "address"
        },
        {
          "internalType": "uint32",
          "name": "pos",
          "type": "uint32"
        }
      ],
      "name": "checkpoints",
      "outputs": [
        {
          "components": [
            {
              "internalType": "uint32",
              "name": "fromBlock",
              "type": "uint32"
            },
            {
              "internalType": "uint224",
              "name": "votes",
              "type": "uint224"
            }
          ],
          "internalType": "struct WQDAOVoting.Checkpoint",
          "name": "",
          "type": "tuple"
        }
      ],
      "stateMutability": "view",
      "type": "function"
    },
    {
      "inputs": [
        {
          "internalType": "address",
          "name": "delegatee",
          "type": "address"
        }
      ],
      "name": "delegate",
      "outputs": [],
      "stateMutability": "payable",
      "type": "function"
    },
    {
      "inputs": [
        {
          "internalType": "address",
          "name": "account",
          "type": "address"
        }
      ],
      "name": "delegates",
      "outputs": [
        {
          "internalType": "address",
          "name": "",
          "type": "address"
        }
      ],
      "stateMutability": "view",
      "type": "function"
    },
    {
      "inputs": [
        {
          "internalType": "uint256",
          "name": "_proposalId",
          "type": "uint256"
        },
        {
          "internalType": "bool",
          "name": "_support",
          "type": "bool"
        }
      ],
      "name": "doVote",
      "outputs": [],
      "stateMutability": "payable",
      "type": "function"
    },
    {
      "inputs": [
        {
          "internalType": "uint256",
          "name": "_proposalId",
          "type": "uint256"
        }
      ],
      "name": "executeVoting",
      "outputs": [],
      "stateMutability": "nonpayable",
      "type": "function"
    },
    {
      "inputs": [],
      "name": "fee",
      "outputs": [
        {
          "internalType": "uint256",
          "name": "",
          "type": "uint256"
        }
      ],
      "stateMutability": "view",
      "type": "function"
    },
    {
      "inputs": [],
      "name": "feeReceiver",
      "outputs": [
        {
          "internalType": "address payable",
          "name": "",
          "type": "address"
        }
      ],
      "stateMutability": "view",
      "type": "function"
    },
    {
      "inputs": [
        {
          "internalType": "address",
          "name": "account",
          "type": "address"
        }
      ],
      "name": "frozed",
      "outputs": [
        {
          "internalType": "uint256",
          "name": "",
          "type": "uint256"
        }
      ],
      "stateMutability": "view",
      "type": "function"
    },
    {
      "inputs": [
        {
          "internalType": "address",
          "name": "account",
          "type": "address"
        },
        {
          "internalType": "uint256",
          "name": "blockNumber",
          "type": "uint256"
        }
      ],
      "name": "getPastVotes",
      "outputs": [
        {
          "internalType": "uint256",
          "name": "",
          "type": "uint256"
        }
      ],
      "stateMutability": "view",
      "type": "function"
    },
    {
      "inputs": [
        {
          "internalType": "uint256",
          "name": "offset",
          "type": "uint256"
        },
        {
          "internalType": "uint256",
          "name": "limit",
          "type": "uint256"
        }
      ],
      "name": "getProposals",
      "outputs": [
        {
          "components": [
            {
              "internalType": "uint256",
              "name": "count",
              "type": "uint256"
            },
            {
              "internalType": "uint256",
              "name": "offset",
              "type": "uint256"
            },
            {
              "internalType": "uint256",
              "name": "limit",
              "type": "uint256"
            },
            {
              "components": [
                {
                  "internalType": "uint256",
                  "name": "id",
                  "type": "uint256"
                },
                {
                  "internalType": "uint256",
                  "name": "nonce",
                  "type": "uint256"
                },
                {
                  "internalType": "uint256",
                  "name": "forVotes",
                  "type": "uint256"
                },
                {
                  "internalType": "uint256",
                  "name": "againstVotes",
                  "type": "uint256"
                },
                {
                  "internalType": "uint256",
                  "name": "numVoters",
                  "type": "uint256"
                },
                {
                  "internalType": "uint256",
                  "name": "startTime",
                  "type": "uint256"
                },
                {
                  "internalType": "uint256",
                  "name": "expireTime",
                  "type": "uint256"
                },
                {
                  "internalType": "uint256",
                  "name": "blockNumber",
                  "type": "uint256"
                },
                {
                  "internalType": "address",
                  "name": "proposer",
                  "type": "address"
                },
                {
                  "internalType": "bool",
                  "name": "active",
                  "type": "bool"
                },
                {
                  "internalType": "string",
                  "name": "description",
                  "type": "string"
                },
                {
                  "internalType": "bool",
                  "name": "succeded",
                  "type": "bool"
                },
                {
                  "internalType": "bool",
                  "name": "defeated",
                  "type": "bool"
                }
              ],
              "internalType": "struct WQDAOVoting.ProposalInfo[]",
              "name": "pages",
              "type": "tuple[]"
            }
          ],
          "internalType": "struct WQDAOVoting.ProposalPages",
          "name": "page",
          "type": "tuple"
        }
      ],
      "stateMutability": "view",
      "type": "function"
    },
    {
      "inputs": [
        {
          "internalType": "uint256",
          "name": "_proposalId",
          "type": "uint256"
        },
        {
          "internalType": "address",
          "name": "_voter",
          "type": "address"
        }
      ],
      "name": "getReceipt",
      "outputs": [
        {
          "components": [
            {
              "internalType": "bool",
              "name": "hasVoted",
              "type": "bool"
            },
            {
              "internalType": "bool",
              "name": "support",
              "type": "bool"
            },
            {
              "internalType": "uint256",
              "name": "votes",
              "type": "uint256"
            }
          ],
          "internalType": "struct WQDAOVoting.Receipt",
          "name": "",
          "type": "tuple"
        }
      ],
      "stateMutability": "view",
      "type": "function"
    },
    {
      "inputs": [
        {
          "internalType": "bytes32",
          "name": "role",
          "type": "bytes32"
        }
      ],
      "name": "getRoleAdmin",
      "outputs": [
        {
          "internalType": "bytes32",
          "name": "",
          "type": "bytes32"
        }
      ],
      "stateMutability": "view",
      "type": "function"
    },
    {
      "inputs": [
        {
          "internalType": "address[]",
          "name": "accounts",
          "type": "address[]"
        }
      ],
      "name": "getVotes",
      "outputs": [
        {
          "internalType": "uint256[]",
          "name": "_delegatee",
          "type": "uint256[]"
        }
      ],
      "stateMutability": "view",
      "type": "function"
    },
    {
      "inputs": [
        {
          "internalType": "bytes32",
          "name": "role",
          "type": "bytes32"
        },
        {
          "internalType": "address",
          "name": "account",
          "type": "address"
        }
      ],
      "name": "grantRole",
      "outputs": [],
      "stateMutability": "nonpayable",
      "type": "function"
    },
    {
      "inputs": [
        {
          "internalType": "bytes32",
          "name": "role",
          "type": "bytes32"
        },
        {
          "internalType": "address",
          "name": "account",
          "type": "address"
        }
      ],
      "name": "hasRole",
      "outputs": [
        {
          "internalType": "bool",
          "name": "",
          "type": "bool"
        }
      ],
      "stateMutability": "view",
      "type": "function"
    },
    {
      "inputs": [
        {
          "internalType": "address",
          "name": "chairPerson",
          "type": "address"
        },
        {
          "internalType": "uint256",
          "name": "_minimumQuorum",
          "type": "uint256"
        },
        {
          "internalType": "uint256",
          "name": "_votingPeriod",
          "type": "uint256"
        },
        {
          "internalType": "uint256",
          "name": "_proposalThreshold",
          "type": "uint256"
        },
        {
          "internalType": "uint256",
          "name": "_voteThreshold",
          "type": "uint256"
        },
        {
          "internalType": "uint256",
          "name": "_fee",
          "type": "uint256"
        }
      ],
      "name": "initialize",
      "outputs": [],
      "stateMutability": "nonpayable",
      "type": "function"
    },
    {
      "inputs": [],
      "name": "minimumQuorum",
      "outputs": [
        {
          "internalType": "uint256",
          "name": "",
          "type": "uint256"
        }
      ],
      "stateMutability": "view",
      "type": "function"
    },
    {
      "inputs": [
        {
          "internalType": "address",
          "name": "account",
          "type": "address"
        }
      ],
      "name": "numCheckpoints",
      "outputs": [
        {
          "internalType": "uint32",
          "name": "",
          "type": "uint32"
        }
      ],
      "stateMutability": "view",
      "type": "function"
    },
    {
      "inputs": [],
      "name": "proposalCount",
      "outputs": [
        {
          "internalType": "uint256",
          "name": "",
          "type": "uint256"
        }
      ],
      "stateMutability": "view",
      "type": "function"
    },
    {
      "inputs": [],
      "name": "proposalThreshold",
      "outputs": [
        {
          "internalType": "uint256",
          "name": "",
          "type": "uint256"
        }
      ],
      "stateMutability": "view",
      "type": "function"
    },
    {
      "inputs": [
        {
          "internalType": "uint256",
          "name": "",
          "type": "uint256"
        }
      ],
      "name": "proposals",
      "outputs": [
        {
          "internalType": "uint256",
          "name": "id",
          "type": "uint256"
        },
        {
          "internalType": "uint256",
          "name": "nonce",
          "type": "uint256"
        },
        {
          "internalType": "address",
          "name": "proposer",
          "type": "address"
        },
        {
          "internalType": "uint256",
          "name": "forVotes",
          "type": "uint256"
        },
        {
          "internalType": "uint256",
          "name": "againstVotes",
          "type": "uint256"
        },
        {
          "internalType": "uint256",
          "name": "numVoters",
          "type": "uint256"
        },
        {
          "internalType": "uint256",
          "name": "startTime",
          "type": "uint256"
        },
        {
          "internalType": "uint256",
          "name": "expireTime",
          "type": "uint256"
        },
        {
          "internalType": "uint256",
          "name": "blockNumber",
          "type": "uint256"
        },
        {
          "internalType": "bool",
          "name": "active",
          "type": "bool"
        },
        {
          "internalType": "string",
          "name": "description",
          "type": "string"
        },
        {
          "internalType": "bool",
          "name": "succeded",
          "type": "bool"
        },
        {
          "internalType": "bool",
          "name": "defeated",
          "type": "bool"
        }
      ],
      "stateMutability": "view",
      "type": "function"
    },
    {
      "inputs": [],
      "name": "proxiableUUID",
      "outputs": [
        {
          "internalType": "bytes32",
          "name": "",
          "type": "bytes32"
        }
      ],
      "stateMutability": "view",
      "type": "function"
    },
    {
      "inputs": [
        {
          "internalType": "uint256",
          "name": "_proposalId",
          "type": "uint256"
        }
      ],
      "name": "rejectVoting",
      "outputs": [],
      "stateMutability": "nonpayable",
      "type": "function"
    },
    {
      "inputs": [
        {
          "internalType": "bytes32",
          "name": "role",
          "type": "bytes32"
        },
        {
          "internalType": "address",
          "name": "account",
          "type": "address"
        }
      ],
      "name": "renounceRole",
      "outputs": [],
      "stateMutability": "nonpayable",
      "type": "function"
    },
    {
      "inputs": [
        {
          "internalType": "bytes32",
          "name": "role",
          "type": "bytes32"
        },
        {
          "internalType": "address",
          "name": "account",
          "type": "address"
        }
      ],
      "name": "revokeRole",
      "outputs": [],
      "stateMutability": "nonpayable",
      "type": "function"
    },
    {
      "inputs": [
        {
          "internalType": "uint256",
          "name": "_fee",
          "type": "uint256"
        }
      ],
      "name": "setFee",
      "outputs": [],
      "stateMutability": "nonpayable",
      "type": "function"
    },
    {
      "inputs": [
        {
          "internalType": "uint256",
          "name": "amount",
          "type": "uint256"
        }
      ],
      "name": "setProposalThreshold",
      "outputs": [],
      "stateMutability": "nonpayable",
      "type": "function"
    },
    {
      "inputs": [
        {
          "internalType": "uint256",
          "name": "amount",
          "type": "uint256"
        }
      ],
      "name": "setVoteThreshold",
      "outputs": [],
      "stateMutability": "nonpayable",
      "type": "function"
    },
    {
      "inputs": [
        {
          "internalType": "uint256",
          "name": "_proposalId",
          "type": "uint256"
        }
      ],
      "name": "state",
      "outputs": [
        {
          "internalType": "uint8",
          "name": "proposalState",
          "type": "uint8"
        }
      ],
      "stateMutability": "view",
      "type": "function"
    },
    {
      "inputs": [
        {
          "internalType": "bytes4",
          "name": "interfaceId",
          "type": "bytes4"
        }
      ],
      "name": "supportsInterface",
      "outputs": [
        {
          "internalType": "bool",
          "name": "",
          "type": "bool"
        }
      ],
      "stateMutability": "view",
      "type": "function"
    },
    {
      "inputs": [],
      "name": "undelegate",
      "outputs": [],
      "stateMutability": "nonpayable",
      "type": "function"
    },
    {
      "inputs": [
        {
          "internalType": "address",
          "name": "newImplementation",
          "type": "address"
        }
      ],
      "name": "upgradeTo",
      "outputs": [],
      "stateMutability": "nonpayable",
      "type": "function"
    },
    {
      "inputs": [
        {
          "internalType": "address",
          "name": "newImplementation",
          "type": "address"
        },
        {
          "internalType": "bytes",
          "name": "data",
          "type": "bytes"
        }
      ],
      "name": "upgradeToAndCall",
      "outputs": [],
      "stateMutability": "payable",
      "type": "function"
    },
    {
      "inputs": [
        {
          "internalType": "address",
          "name": "delegator",
          "type": "address"
        }
      ],
      "name": "vault",
      "outputs": [
        {
          "internalType": "contract WQDAOVault",
          "name": "",
          "type": "address"
        }
      ],
      "stateMutability": "view",
      "type": "function"
    },
    {
      "inputs": [],
      "name": "voteThreshold",
      "outputs": [
        {
          "internalType": "uint256",
          "name": "",
          "type": "uint256"
        }
      ],
      "stateMutability": "view",
      "type": "function"
    },
    {
      "inputs": [],
      "name": "votingPeriod",
      "outputs": [
        {
          "internalType": "uint256",
          "name": "",
          "type": "uint256"
        }
      ],
      "stateMutability": "view",
      "type": "function"
    }
  ],
  "bytecode": "0x60a0604052306080523480156200001557600080fd5b50600054610100900460ff16620000335760005460ff16156200003d565b6200003d620000e2565b620000a55760405162461bcd60e51b815260206004820152602e60248201527f496e697469616c697a61626c653a20636f6e747261637420697320616c72656160448201526d191e481a5b9a5d1a585b1a5e995960921b606482015260840160405180910390fd5b600054610100900460ff16158015620000c8576000805461ffff19166101011790555b8015620000db576000805461ff00191690555b506200010f565b6000620000fa306200010060201b62001c831760201c565b15905090565b6001600160a01b03163b151590565b608051613ffb6200014760003960008181610da801528181610deb0152818161113201528181611175015261120d0152613ffb6000f3fe608060405260043610620002835760003560e01c80636fcfff451162000153578063d547741f11620000c5578063ece40cc11162000084578063ece40cc11462000897578063f1127ed814620008bc578063f38ab22c146200090c578063f3d912431462000931578063f72c0d8b1462000956578063f815c03d146200097b57600080fd5b8063d547741f146200076d578063d7b894361462000792578063da35c66414620007a9578063ddca3f4314620007c1578063e23a9a5214620007da57600080fd5b806392ab89bb116200011257806392ab89bb14620006de578063a217fddf14620006f6578063a22e5871146200070d578063b3f006741462000732578063b58131b0146200075557600080fd5b80636fcfff45146200060d57806375b238fc14620006485780637b6f9338146200066d5780638160f0b514620006a157806391d1485414620006b957600080fd5b80633659cfe611620001f95780634fe437d511620001b85780634fe437d5146200051657806352d1902d146200052e578063587cde1e14620005465780635c19a95c146200059d5780635e3b436514620005b457806369fe0e2d14620005e857600080fd5b80633659cfe614620004585780633a46b1a8146200047d5780633e4f49e614620004a257806345ff4c8014620004da5780634f1ef28614620004ff57600080fd5b8063158059e21162000246578063158059e2146200037a578063248a9ca3146200039f5780632d79fb2014620003d35780632f2ff15d146200040e57806336568abe146200043357600080fd5b8063013cf08b146200028857806301ffc9a714620002d157806302a251a31462000307578063051097ef146200032e578063129094851462000355575b600080fd5b3480156200029557600080fd5b50620002ad620002a736600462003254565b620009b9565b604051620002c89d9c9b9a99989796959493929190620032cb565b60405180910390f35b348015620002de57600080fd5b50620002f6620002f036600462003358565b62000ac5565b6040519015158152602001620002c8565b3480156200031457600080fd5b506200031f60fc5481565b604051908152602001620002c8565b3480156200033b57600080fd5b50620003536200034d36600462003417565b62000afd565b005b3480156200036257600080fd5b50620003536200037436600462003254565b62000ca2565b3480156200038757600080fd5b50620003536200039936600462003477565b62000cc4565b348015620003ac57600080fd5b506200031f620003be36600462003254565b60009081526065602052604090206001015490565b348015620003e057600080fd5b506200031f620003f2366004620034b2565b6001600160a01b03166000908152610105602052604090205490565b3480156200041b57600080fd5b50620003536200042d366004620034d0565b62000cec565b3480156200044057600080fd5b506200035362000452366004620034d0565b62000d1b565b3480156200046557600080fd5b506200035362000477366004620034b2565b62000d9d565b3480156200048a57600080fd5b506200031f6200049c366004620034ff565b62000e89565b348015620004af57600080fd5b50620004c7620004c136600462003254565b62000f08565b60405160ff9091168152602001620002c8565b348015620004e757600080fd5b5062000353620004f93660046200352c565b62000f82565b620003536200051036600462003579565b62001127565b3480156200052357600080fd5b506200031f60fe5481565b3480156200053b57600080fd5b506200031f62001200565b3480156200055357600080fd5b506200058462000565366004620034b2565b6001600160a01b03908116600090815261010360205260409020541690565b6040516001600160a01b039091168152602001620002c8565b62000353620005ae366004620034b2565b620012b6565b348015620005c157600080fd5b50620005d9620005d336600462003477565b620012c3565b604051620002c89190620035b5565b348015620005f557600080fd5b50620003536200060736600462003254565b62001728565b3480156200061a57600080fd5b50620006326200062c366004620034b2565b6200174b565b60405163ffffffff9091168152602001620002c8565b3480156200065557600080fd5b506200031f60008051602062003f8683398151915281565b3480156200067a57600080fd5b50620006926200068c366004620036ec565b62001770565b604051620002c8919062003766565b348015620006ae57600080fd5b506200031f60fb5481565b348015620006c657600080fd5b50620002f6620006d8366004620034d0565b620018ec565b348015620006eb57600080fd5b506200035362001917565b3480156200070357600080fd5b506200031f600081565b3480156200071a57600080fd5b506200031f60008051602062003fa683398151915281565b3480156200073f57600080fd5b506101005462000584906001600160a01b031681565b3480156200076257600080fd5b506200031f60fd5481565b3480156200077a57600080fd5b50620003536200078c366004620034d0565b62001924565b62000353620007a3366004620037ac565b6200194e565b348015620007b657600080fd5b506200031f60ff5481565b348015620007ce57600080fd5b506200031f6101015481565b348015620007e757600080fd5b5062000870620007f9366004620034d0565b6040805160608101825260008082526020820181905291810191909152506000918252610102602090815260408084206001600160a01b03939093168452600b9092018152918190208151606081018352815460ff8082161515835261010090910416151593810193909352600101549082015290565b604080518251151581526020808401511515908201529181015190820152606001620002c8565b348015620008a457600080fd5b5062000353620008b636600462003254565b620019a7565b348015620008c957600080fd5b50620008e1620008db366004620037e3565b620019c9565b60408051825163ffffffff1681526020928301516001600160e01b03169281019290925201620002c8565b3480156200091957600080fd5b50620003536200092b36600462003254565b62001a51565b3480156200093e57600080fd5b50620003536200095036600462003254565b62001b49565b3480156200096357600080fd5b506200031f60008051602062003f1f83398151915281565b3480156200098857600080fd5b50620005846200099a366004620034b2565b6001600160a01b03908116600090815261010660205260409020541690565b61010260205260009081526040902080546001820154600283015460038401546004850154600586015460068701546007880154600889015460098a0154600a8b0180549a9b999a6001600160a01b039099169997989697959694959394929360ff9092169262000a2a906200381c565b80601f016020809104026020016040519081016040528092919081815260200182805462000a58906200381c565b801562000aa95780601f1062000a7d5761010080835404028352916020019162000aa9565b820191906000526020600020905b81548152906001019060200180831162000a8b57829003601f168201915b505050600c909301549192505060ff808216916101009004168d565b60006001600160e01b03198216637965db0b60e01b148062000af757506301ffc9a760e01b6001600160e01b03198316145b92915050565b60fd5462000b12336200049c6001436200386f565b101562000b7d5760405162461bcd60e51b815260206004820152602e60248201527f575144414f3a2050726f706f73657220766f7465732062656c6f772070726f7060448201526d1bdcd85b081d1a1c995cda1bdb1960921b60648201526084015b60405180910390fd5b60ff80546000916101029183918262000b968362003889565b9190505581526020019081526020016000209050600160ff5462000bbb91906200386f565b815560018082018490556002820180546001600160a01b0319163317905560006005830181905560038301819055600483015560098201805460ff19169091179055426006820181905560fc5462000c1391620038a7565b6007820155436008820155815162000c3590600a8301906020850190620031a4565b50600c8101805461ffff1916905560ff547f72dbd7436d0d73b2471f42ff04f375e4d86f8ec7459d7c8d3a49f01266d698b39062000c76906001906200386f565b84338560fc5460fb544260405162000c959796959493929190620038c2565b60405180910390a1505050565b60008051602062003f8683398151915262000cbe813362001c92565b5060fe55565b60008051602062003f8683398151915262000ce0813362001c92565b5060fb9190915560fc55565b60008281526065602052604090206001015462000d0a813362001c92565b62000d16838362001d01565b505050565b6001600160a01b038116331462000d8d5760405162461bcd60e51b815260206004820152602f60248201527f416363657373436f6e74726f6c3a2063616e206f6e6c792072656e6f756e636560448201526e103937b632b9903337b91039b2b63360891b606482015260840162000b74565b62000d99828262001d8b565b5050565b306001600160a01b037f000000000000000000000000000000000000000000000000000000000000000016141562000de95760405162461bcd60e51b815260040162000b749062003910565b7f00000000000000000000000000000000000000000000000000000000000000006001600160a01b031662000e3460008051602062003f3f833981519152546001600160a01b031690565b6001600160a01b03161462000e5d5760405162461bcd60e51b815260040162000b74906200395c565b62000e688162001df5565b6040805160008082526020820190925262000e869183919062001e11565b50565b600043821062000edc5760405162461bcd60e51b815260206004820152601a60248201527f575144414f3a20626c6f636b206e6f7420796574206d696e6564000000000000604482015260640162000b74565b6001600160a01b03831660009081526101046020526040902062000f01908362001f99565b9392505050565b600060ff54821062000f2e5760405162461bcd60e51b815260040162000b7490620039a8565b6000828152610102602052604090206009015460ff161562000f5257506002919050565b600082815261010260205260409020600c015460ff1662000f7557600062000af7565b600192915050565b919050565b600054610100900460ff1662000f9f5760005460ff161562000fa3565b303b155b620010085760405162461bcd60e51b815260206004820152602e60248201527f496e697469616c697a61626c653a20636f6e747261637420697320616c72656160448201526d191e481a5b9a5d1a585b1a5e995960921b606482015260840162000b74565b600054610100900460ff161580156200102b576000805461ffff19166101011790555b6200103562002068565b6200103f62002068565b6200104c600033620020d5565b6200106760008051602062003f8683398151915233620020d5565b6200108260008051602062003f1f83398151915233620020d5565b6200109d60008051602062003fa683398151915288620020d5565b620010c760008051602062003fa683398151915260008051602062003f86833981519152620020e1565b620010f160008051602062003f1f83398151915260008051602062003f86833981519152620020e1565b60fb86905560fc85905560fd84905560fe83905561010182905580156200111e576000805461ff00191690555b50505050505050565b306001600160a01b037f0000000000000000000000000000000000000000000000000000000000000000161415620011735760405162461bcd60e51b815260040162000b749062003910565b7f00000000000000000000000000000000000000000000000000000000000000006001600160a01b0316620011be60008051602062003f3f833981519152546001600160a01b031690565b6001600160a01b031614620011e75760405162461bcd60e51b815260040162000b74906200395c565b620011f28262001df5565b62000d998282600162001e11565b6000306001600160a01b037f00000000000000000000000000000000000000000000000000000000000000001614620012a25760405162461bcd60e51b815260206004820152603860248201527f555550535570677261646561626c653a206d757374206e6f742062652063616c60448201527f6c6564207468726f7567682064656c656761746563616c6c0000000000000000606482015260840162000b74565b5060008051602062003f3f83398151915290565b62000e863382346200212c565b620012ef6040518060800160405280600081526020016000815260200160008152602001606081525090565b60ff5480825260208201849052620013099084906200386f565b82111562001324578260ff546200132191906200386f565b91505b604081018290528167ffffffffffffffff81111562001347576200134762003384565b604051908082528060200260200182016040528015620013f557816020015b620013e1604051806101a00160405280600081526020016000815260200160008152602001600081526020016000815260200160008152602001600081526020016000815260200160006001600160a01b03168152602001600015158152602001606081526020016000151581526020016000151581525090565b815260200190600190039081620013665790505b50606082015260005b828110156200172157604051806101a0016040528061010260008488620014269190620038a7565b815260200190815260200160002060000154815260200161010260008488620014509190620038a7565b8152602001908152602001600020600101548152602001610102600084886200147a9190620038a7565b815260200190815260200160002060030154815260200161010260008488620014a49190620038a7565b815260200190815260200160002060040154815260200161010260008488620014ce9190620038a7565b815260200190815260200160002060050154815260200161010260008488620014f89190620038a7565b815260200190815260200160002060060154815260200161010260008488620015229190620038a7565b8152602001908152602001600020600701548152602001610102600084886200154c9190620038a7565b815260200190815260200160002060080154815260200161010260008488620015769190620038a7565b81526020808201929092526040016000908120600201546001600160a01b0316835291019061010290620015ab8589620038a7565b815260208082019290925260400160009081206009015460ff161515835291019061010290620015dc8589620038a7565b8152602001908152602001600020600a018054620015fa906200381c565b80601f016020809104026020016040519081016040528092919081815260200182805462001628906200381c565b8015620016795780601f106200164d5761010080835404028352916020019162001679565b820191906000526020600020905b8154815290600101906020018083116200165b57829003601f168201915b50505091835250506020016101026000620016958589620038a7565b81526020808201929092526040016000908120600c015460ff161515835291019061010290620016c68589620038a7565b81526020810191909152604001600020600c0154610100900460ff16151590526060830151805183908110620017005762001700620039df565b60200260200101819052508080620017189062003889565b915050620013fe565b5092915050565b60008051602062003f8683398151915262001744813362001c92565b5061010155565b6001600160a01b0381166000908152610104602052604081205462000af7906200242c565b60608167ffffffffffffffff8111156200178e576200178e62003384565b604051908082528060200260200182016040528015620017b8578160200160208202803683370190505b50905060005b82811015620017215760006101046000868685818110620017e357620017e3620039df565b9050602002016020810190620017fa9190620034b2565b6001600160a01b0316815260208101919091526040016000205490508015620018aa576101046000868685818110620018375762001837620039df565b90506020020160208101906200184e9190620034b2565b6001600160a01b031681526020810191909152604001600020620018746001836200386f565b81548110620018875762001887620039df565b60009182526020909120015464010000000090046001600160e01b0316620018ad565b60005b6001600160e01b0316838381518110620018cb57620018cb620039df565b60209081029190910101525080620018e38162003889565b915050620017be565b60009182526065602090815260408084206001600160a01b0393909316845291905290205460ff1690565b620019223362002497565b565b60008281526065602052604090206001015462001942813362001c92565b62000d16838362001d8b565b337fefa3d674e0475fb6175e081d7938ee5c64950b1a41fabffb968a8ed87482f48483836200197f848383620025f4565b6040805193845291151560208401529082015242606082015260800160405180910390a25050565b60008051602062003f86833981519152620019c3813362001c92565b5060fd55565b60408051808201909152600080825260208201526001600160a01b038316600090815261010460205260409020805463ffffffff841690811062001a115762001a11620039df565b60009182526020918290206040805180820190915291015463ffffffff8116825264010000000090046001600160e01b0316918101919091529392505050565b60008051602062003fa683398151915262001a6d813362001c92565b60ff54821062001a915760405162461bcd60e51b815260040162000b7490620039a8565b6000828152610102602052604090206009015460ff16151560011462001acb5760405162461bcd60e51b815260040162000b7490620039f5565b6000828152610102602052604080822060098101805460ff19169055600c01805461ffff1916610100179055517f75bba44f29e4b104d366019dfced0c087f66d06097db8b746faab6ee440702979162001b3d9185919060019092835290151560208301521515604082015260600190565b60405180910390a15050565b60008051602062003fa683398151915262001b65813362001c92565b60ff54821062001b895760405162461bcd60e51b815260040162000b7490620039a8565b600082815261010260205260409020600781015442101562001bee5760405162461bcd60e51b815260206004820181905260248201527f575144414f3a20566f74696e67206973206e6f74206578706972656420796574604482015260640162000b74565b600981015460ff16151560011462001c1a5760405162461bcd60e51b815260040162000b7490620039f5565b60098101805460ff1916905562001c3183620028a8565b600c8101546040805185815260ff808416151560208301526101009093049092161515908201527f75bba44f29e4b104d366019dfced0c087f66d06097db8b746faab6ee440702979060600162000c95565b6001600160a01b03163b151590565b62001c9e8282620018ec565b62000d995762001cb9816001600160a01b0316601462002903565b62001cc683602062002903565b60405160200162001cd992919062003a2c565b60408051601f198184030181529082905262461bcd60e51b825262000b749160040162003aa5565b62001d0d8282620018ec565b62000d995760008281526065602090815260408083206001600160a01b03851684529091529020805460ff1916600117905562001d473390565b6001600160a01b0316816001600160a01b0316837f2f8788117e7eff1d82e926ec794901d17c78024a50270940304540a733656f0d60405160405180910390a45050565b62001d978282620018ec565b1562000d995760008281526065602090815260408083206001600160a01b0385168085529252808320805460ff1916905551339285917ff6391f5c32d9c69d2a47ea670b442974b53935d1edc7fd64eb21e047a839171b9190a45050565b60008051602062003f1f83398151915262000d99813362001c92565b7f4910fdfa16fed3260ed0e7147f7cc6da11a60208b5b9406d12a635614ffd91435460ff161562001e475762000d168362002abd565b826001600160a01b03166352d1902d6040518163ffffffff1660e01b815260040160206040518083038186803b15801562001e8157600080fd5b505afa92505050801562001eb4575060408051601f3d908101601f1916820190925262001eb19181019062003aba565b60015b62001f195760405162461bcd60e51b815260206004820152602e60248201527f45524331393637557067726164653a206e657720696d706c656d656e7461746960448201526d6f6e206973206e6f74205555505360901b606482015260840162000b74565b60008051602062003f3f833981519152811462001f8b5760405162461bcd60e51b815260206004820152602960248201527f45524331393637557067726164653a20756e737570706f727465642070726f786044820152681a58589b195555525160ba1b606482015260840162000b74565b5062000d1683838362002b5c565b8154600090815b818110156200200857600062001fb7828462002b8d565b90508486828154811062001fcf5762001fcf620039df565b60009182526020909120015463ffffffff16111562001ff15780925062002001565b62001ffe816001620038a7565b91505b5062001fa0565b81156200205357846200201d6001846200386f565b81548110620020305762002030620039df565b60009182526020909120015464010000000090046001600160e01b031662002056565b60005b6001600160e01b031695945050505050565b600054610100900460ff16620019225760405162461bcd60e51b815260206004820152602b60248201527f496e697469616c697a61626c653a20636f6e7472616374206973206e6f74206960448201526a6e697469616c697a696e6760a81b606482015260840162000b74565b62000d99828262001d01565b600082815260656020526040808220600101805490849055905190918391839186917fbd79b86ffe0ab8e8776151514217cd7cacd52c909f66475c3af44e129f0b00ff9190a4505050565b6001600160a01b038316620021995760405162461bcd60e51b815260206004820152602c60248201527f575144414f3a2043616e7427742064656c65676174652066726f6d207468652060448201526b7a65726f206164647265737360a01b606482015260840162000b74565b6001600160a01b038216620022045760405162461bcd60e51b815260206004820152602a60248201527f575144414f3a2043616e7427742064656c656761746520746f20746865207a65604482015269726f206164647265737360b01b606482015260840162000b74565b6001600160a01b03838116600090815261010660205260409020541662002293573360405162002234906200322f565b6001600160a01b039091168152602001604051809103906000f08015801562002261573d6000803e3d6000fd5b506001600160a01b0384811660009081526101066020526040902080546001600160a01b031916929091169190911790555b6001600160a01b038316600090815261010560205260409020541562002337576001600160a01b038084166000908152610106602090815260408083205461010590925291829020549151630928a5dd60e11b81529216916312514bba91620023029160040190815260200190565b600060405180830381600087803b1580156200231d57600080fd5b505af115801562002332573d6000803e3d6000fd5b505050505b6001600160a01b03808416600090815261010660205260409020546200235f91168262002bac565b6001600160a01b0383811660008181526101036020526040808220549051848716949190911692917f3134e8a2e6d97e929a7e54011ea5485d7d196dd5f0ba4d4ef95803e8e3fc257f91a46001600160a01b0380841660009081526101036020908152604080832054610105909252822054620023e29391909116919062002ccb565b620023f06000838362002ccb565b6001600160a01b039283166000908152610105602090815260408083209390935561010390522080546001600160a01b03191691909216179055565b600063ffffffff821115620024935760405162461bcd60e51b815260206004820152602660248201527f53616665436173743a2076616c756520646f65736e27742066697420696e203360448201526532206269747360d01b606482015260840162000b74565b5090565b6001600160a01b038181166000818152610103602052604080822054905191931691907f3134e8a2e6d97e929a7e54011ea5485d7d196dd5f0ba4d4ef95803e8e3fc257f908490a46001600160a01b0380821660009081526101036020908152604080832054610105909252822054620025179391909116919062002ccb565b6001600160a01b0381166000908152610105602052604090205415620025bb576001600160a01b038082166000908152610106602090815260408083205461010590925291829020549151630928a5dd60e11b81529216916312514bba91620025869160040190815260200190565b600060405180830381600087803b158015620025a157600080fd5b505af1158015620025b6573d6000803e3d6000fd5b505050505b6001600160a01b0316600090815261010560209081526040808320839055338352610103909152902080546001600160a01b0319169055565b600060ff5483106200261a5760405162461bcd60e51b815260040162000b7490620039a8565b60008381526101026020526040812060088101549091906200263e90879062000e89565b905060fe54811015620026a45760405162461bcd60e51b815260206004820152602760248201527f575144414f3a20566f74657220766f7465732062656c6f7720766f74652074686044820152661c995cda1bdb1960ca1b606482015260840162000b74565b6001600160a01b0386166000908152600b830160205260409020600983015460ff161515600114620026ea5760405162461bcd60e51b815260040162000b7490620039f5565b805460ff16156200273e5760405162461bcd60e51b815260206004820152601e60248201527f575144414f3a20566f7465722068617320616c726561647920766f7465640000604482015260640162000b74565b82600701544210620027935760405162461bcd60e51b815260206004820152601760248201527f575144414f3a2050726f706f73616c2065787069726564000000000000000000604482015260640162000b74565b670de0b6b3a76400006101015483620027ad919062003ad4565b620027b9919062003af6565b3414620028095760405162461bcd60e51b815260206004820181905260248201527f575144414f3a20496e73756666696369656e742076616c7565206f6620666565604482015260640162000b74565b8415620028325781836003016000828254620028269190620038a7565b909155506200284e9050565b81836004016000828254620028489190620038a7565b90915550505b600583018054906000620028628362003889565b90915550508054600161ffff1990911661010087151581029190911782178355908201839055546200289e906001600160a01b03163462002bac565b5095945050505050565b60008181526101026020526040902060048101546003820154118015620028d5575060fb54816005015410155b15620028ee57600c8101805460ff191660011790555050565b600c8101805461ff0019166101001790555050565b606060006200291483600262003ad4565b62002921906002620038a7565b67ffffffffffffffff8111156200293c576200293c62003384565b6040519080825280601f01601f19166020018201604052801562002967576020820181803683370190505b509050600360fc1b81600081518110620029855762002985620039df565b60200101906001600160f81b031916908160001a905350600f60fb1b81600181518110620029b757620029b7620039df565b60200101906001600160f81b031916908160001a9053506000620029dd84600262003ad4565b620029ea906001620038a7565b90505b600181111562002a6c576f181899199a1a9b1b9c1cb0b131b232b360811b85600f166010811062002a225762002a22620039df565b1a60f81b82828151811062002a3b5762002a3b620039df565b60200101906001600160f81b031916908160001a90535060049490941c9362002a648162003b19565b9050620029ed565b50831562000f015760405162461bcd60e51b815260206004820181905260248201527f537472696e67733a20686578206c656e67746820696e73756666696369656e74604482015260640162000b74565b6001600160a01b0381163b62002b2c5760405162461bcd60e51b815260206004820152602d60248201527f455243313936373a206e657720696d706c656d656e746174696f6e206973206e60448201526c1bdd08184818dbdb9d1c9858dd609a1b606482015260840162000b74565b60008051602062003f3f83398151915280546001600160a01b0319166001600160a01b0392909216919091179055565b62002b678362002e0c565b60008251118062002b755750805b1562000d165762002b87838362002e4e565b50505050565b600062002b9e600284841862003af6565b62000f0190848416620038a7565b8047101562002bfe5760405162461bcd60e51b815260206004820152601d60248201527f416464726573733a20696e73756666696369656e742062616c616e6365000000604482015260640162000b74565b6000826001600160a01b03168260405160006040518083038185875af1925050503d806000811462002c4d576040519150601f19603f3d011682016040523d82523d6000602084013e62002c52565b606091505b505090508062000d165760405162461bcd60e51b815260206004820152603a60248201527f416464726573733a20756e61626c6520746f2073656e642076616c75652c207260448201527f6563697069656e74206d61792068617665207265766572746564000000000000606482015260840162000b74565b816001600160a01b0316836001600160a01b03161415801562002cee5750600081115b1562000d16576001600160a01b0383161562002d7e576001600160a01b038316600090815261010460205260408120819062002d2f9062002f4b8562002f59565b60408051838152602081018390529294509092506001600160a01b0387169133917f8553411b8bbb348336351063649aa1f4fa74c4935f5c4386469a017df33a1f66910160405180910390a350505b6001600160a01b0382161562000d16576001600160a01b038216600090815261010460205260408120819062002db990620030ed8562002f59565b60408051838152602081018390529294509092506001600160a01b0386169133917f8553411b8bbb348336351063649aa1f4fa74c4935f5c4386469a017df33a1f66910160405180910390a35050505050565b62002e178162002abd565b6040516001600160a01b038216907fbc7cd75a20ee27fd9adebab32041f755214dbc6bffa90cc0225b39da2e5c2d3b90600090a250565b60606001600160a01b0383163b62002eb85760405162461bcd60e51b815260206004820152602660248201527f416464726573733a2064656c65676174652063616c6c20746f206e6f6e2d636f6044820152651b9d1c9858dd60d21b606482015260840162000b74565b600080846001600160a01b03168460405162002ed5919062003b33565b600060405180830381855af49150503d806000811462002f12576040519150601f19603f3d011682016040523d82523d6000602084013e62002f17565b606091505b509150915062002f42828260405180606001604052806027815260200162003f5f60279139620030fb565b95945050505050565b600062000f0182846200386f565b82546000908190801562002fab578562002f756001836200386f565b8154811062002f885762002f88620039df565b60009182526020909120015464010000000090046001600160e01b031662002fae565b60005b6001600160e01b0316925062002fc883858763ffffffff16565b91506000811180156200300c5750438662002fe56001846200386f565b8154811062002ff85762002ff8620039df565b60009182526020909120015463ffffffff16145b1562003075576200301d8262003139565b866200302b6001846200386f565b815481106200303e576200303e620039df565b9060005260206000200160000160046101000a8154816001600160e01b0302191690836001600160e01b03160217905550620030e4565b8560405180604001604052806200308c436200242c565b63ffffffff168152602001620030a28562003139565b6001600160e01b0390811690915282546001810184556000938452602093849020835194909301519091166401000000000263ffffffff909316929092179101555b50935093915050565b600062000f018284620038a7565b606083156200310c57508162000f01565b8251156200311d5782518084602001fd5b8160405162461bcd60e51b815260040162000b74919062003aa5565b60006001600160e01b03821115620024935760405162461bcd60e51b815260206004820152602760248201527f53616665436173743a2076616c756520646f65736e27742066697420696e20326044820152663234206269747360c81b606482015260840162000b74565b828054620031b2906200381c565b90600052602060002090601f016020900481019282620031d6576000855562003221565b82601f10620031f157805160ff191683800117855562003221565b8280016001018555821562003221579182015b828111156200322157825182559160200191906001019062003204565b50620024939291506200323d565b6103cd8062003b5283390190565b5b808211156200249357600081556001016200323e565b6000602082840312156200326757600080fd5b5035919050565b60005b838110156200328b57818101518382015260200162003271565b8381111562002b875750506000910152565b60008151808452620032b78160208601602086016200326e565b601f01601f19169290920160200192915050565b60006101a08f83528e602084015260018060a01b038e1660408401528c60608401528b60808401528a60a08401528960c08401528860e084015287610100840152861515610120840152806101408401526200332a818401876200329d565b9150508315156101608301526200334661018083018415159052565b9e9d5050505050505050505050505050565b6000602082840312156200336b57600080fd5b81356001600160e01b03198116811462000f0157600080fd5b634e487b7160e01b600052604160045260246000fd5b600067ffffffffffffffff80841115620033b857620033b862003384565b604051601f8501601f19908116603f01168101908282118183101715620033e357620033e362003384565b81604052809350858152868686011115620033fd57600080fd5b858560208301376000602087830101525050509392505050565b600080604083850312156200342b57600080fd5b82359150602083013567ffffffffffffffff8111156200344a57600080fd5b8301601f810185136200345c57600080fd5b6200346d858235602084016200339a565b9150509250929050565b600080604083850312156200348b57600080fd5b50508035926020909101359150565b80356001600160a01b038116811462000f7d57600080fd5b600060208284031215620034c557600080fd5b62000f01826200349a565b60008060408385031215620034e457600080fd5b82359150620034f6602084016200349a565b90509250929050565b600080604083850312156200351357600080fd5b6200351e836200349a565b946020939093013593505050565b60008060008060008060c087890312156200354657600080fd5b62003551876200349a565b9860208801359850604088013597606081013597506080810135965060a00135945092505050565b600080604083850312156200358d57600080fd5b62003598836200349a565b9150602083013567ffffffffffffffff8111156200344a57600080fd5b6000602080835260a0808401855183860152828601516040818188015280880151915060608281890152808901519250608080818a015284845180875260c09650868b019150868160051b8c0101898701965060005b82811015620036db5760bf198d83030184528751805183528b8101518c8401528781015188840152868101518784015285810151868401528a8101518b840152898101518a84015260e08082015190840152610100808201516001600160a01b03169084015261012080820151151590840152610140808201516101a082860181905291906200369e838701826200329d565b9250505061016080830151620036b78287018215159052565b50506101809182015115159390910192909252968a0196928a01926001016200360b565b509c9b505050505050505050505050565b600080602083850312156200370057600080fd5b823567ffffffffffffffff808211156200371957600080fd5b818501915085601f8301126200372e57600080fd5b8135818111156200373e57600080fd5b8660208260051b85010111156200375457600080fd5b60209290920196919550909350505050565b6020808252825182820181905260009190848201906040850190845b81811015620037a05783518352928401929184019160010162003782565b50909695505050505050565b60008060408385031215620037c057600080fd5b8235915060208301358015158114620037d857600080fd5b809150509250929050565b60008060408385031215620037f757600080fd5b62003802836200349a565b9150602083013563ffffffff81168114620037d857600080fd5b600181811c908216806200383157607f821691505b602082108114156200385357634e487b7160e01b600052602260045260246000fd5b50919050565b634e487b7160e01b600052601160045260246000fd5b60008282101562003884576200388462003859565b500390565b6000600019821415620038a057620038a062003859565b5060010190565b60008219821115620038bd57620038bd62003859565b500190565b87815286602082015260018060a01b038616604082015260e060608201526000620038f160e08301876200329d565b60808301959095525060a081019290925260c090910152949350505050565b6020808252602c908201527f46756e6374696f6e206d7573742062652063616c6c6564207468726f7567682060408201526b19195b1959d85d1958d85b1b60a21b606082015260800190565b6020808252602c908201527f46756e6374696f6e206d7573742062652063616c6c6564207468726f7567682060408201526b6163746976652070726f787960a01b606082015260800190565b6020808252601a908201527f575144414f3a20496e76616c69642070726f706f73616c206964000000000000604082015260600190565b634e487b7160e01b600052603260045260246000fd5b60208082526017908201527f575144414f3a20566f74696e6720697320636c6f736564000000000000000000604082015260600190565b7f416363657373436f6e74726f6c3a206163636f756e742000000000000000000081526000835162003a668160178501602088016200326e565b7001034b99036b4b9b9b4b733903937b6329607d1b601791840191820152835162003a998160288401602088016200326e565b01602801949350505050565b60208152600062000f0160208301846200329d565b60006020828403121562003acd57600080fd5b5051919050565b600081600019048311821515161562003af15762003af162003859565b500290565b60008262003b1457634e487b7160e01b600052601260045260246000fd5b500490565b60008162003b2b5762003b2b62003859565b506000190190565b6000825162003b478184602087016200326e565b919091019291505056fe608060405234801561001057600080fd5b506040516103cd3803806103cd83398101604081905261002f91610062565b60008054336001600160a01b031991821617909155600180549091166001600160a01b0392909216919091179055610092565b60006020828403121561007457600080fd5b81516001600160a01b038116811461008b57600080fd5b9392505050565b61032c806100a16000396000f3fe6080604052600436106100385760003560e01c806312514bba146100775780634162169f146100995780638da5cb5b146100d557600080fd5b36610072576040513481527fa8142743f8f70a4c26f3691cf4ed59718381fb2f18070ec52be1f1022d8555579060200160405180910390a1005b600080fd5b34801561008357600080fd5b506100976100923660046102dd565b6100f5565b005b3480156100a557600080fd5b506000546100b9906001600160a01b031681565b6040516001600160a01b03909116815260200160405180910390f35b3480156100e157600080fd5b506001546100b9906001600160a01b031681565b6000546001600160a01b031633146101605760405162461bcd60e51b815260206004820152602360248201527f5751526f757465725661756c743a2053656e646572206973206e6f7420726f756044820152623a32b960e91b60648201526084015b60405180910390fd5b600154610176906001600160a01b0316826101bf565b600154604080516001600160a01b039092168252602082018390527fe6d858f14d755446648a6e0c8ab8b5a0f58ccc7920d4c910b0454e4dcd869af0910160405180910390a150565b8047101561020f5760405162461bcd60e51b815260206004820152601d60248201527f416464726573733a20696e73756666696369656e742062616c616e63650000006044820152606401610157565b6000826001600160a01b03168260405160006040518083038185875af1925050503d806000811461025c576040519150601f19603f3d011682016040523d82523d6000602084013e610261565b606091505b50509050806102d85760405162461bcd60e51b815260206004820152603a60248201527f416464726573733a20756e61626c6520746f2073656e642076616c75652c207260448201527f6563697069656e74206d617920686176652072657665727465640000000000006064820152608401610157565b505050565b6000602082840312156102ef57600080fd5b503591905056fea26469706673582212209188b5c88e7cb549bd60f6d1e06ea67453933bba3e60f952b5ba0915fbca8e5b64736f6c63430008090033189ab7a9244df0848122154315af71fe140f3db0fe014031783b0946b8c9d2e3360894a13ba1a3210667c828492db98dca3e2076cc3735a920a3ca505d382bbc416464726573733a206c6f772d6c6576656c2064656c65676174652063616c6c206661696c6564a49807205ce4d355092ef5a8a18f56e8913cf4a201fbe287825b095693c21775d83c1a50dc0a09945cd355882e9b92d840723815900d90b54a78888e14a1aceea2646970667358221220dd51e903a4753f4fd0826667b7b29678e8f156d1e40b177aeb94b3dfeff3e4a264736f6c63430008090033",
  "linkReferences": {},
  "deployedLinkReferences": {}
}