{
  "_format": "hh-sol-artifact-1",
  "contractName": "WQDAOVoting",
  "sourceName": "contracts/WQDAOVoting.sol",
  "abi": [
    {
      "inputs": [],
      "stateMutability": "nonpayable",
      "type": "constructor"
    },
    {
      "anonymous": false,
      "inputs": [
        {
          "indexed": false,
          "internalType": "address",
          "name": "previousAdmin",
          "type": "address"
        },
        {
          "indexed": false,
          "internalType": "address",
          "name": "newAdmin",
          "type": "address"
        }
      ],
      "name": "AdminChanged",
      "type": "event"
    },
    {
      "anonymous": false,
      "inputs": [
        {
          "indexed": true,
          "internalType": "address",
          "name": "beacon",
          "type": "address"
        }
      ],
      "name": "BeaconUpgraded",
      "type": "event"
    },
    {
      "anonymous": false,
      "inputs": [
        {
          "indexed": true,
          "internalType": "address",
          "name": "delegator",
          "type": "address"
        },
        {
          "indexed": true,
          "internalType": "address",
          "name": "fromDelegate",
          "type": "address"
        },
        {
          "indexed": true,
          "internalType": "address",
          "name": "toDelegate",
          "type": "address"
        }
      ],
      "name": "DelegateChanged",
      "type": "event"
    },
    {
      "anonymous": false,
      "inputs": [
        {
          "indexed": true,
          "internalType": "address",
          "name": "delegator",
          "type": "address"
        },
        {
          "indexed": true,
          "internalType": "address",
          "name": "delegatee",
          "type": "address"
        },
        {
          "indexed": false,
          "internalType": "uint256",
          "name": "previousBalance",
          "type": "uint256"
        },
        {
          "indexed": false,
          "internalType": "uint256",
          "name": "newBalance",
          "type": "uint256"
        }
      ],
      "name": "DelegateVotesChanged",
      "type": "event"
    },
    {
      "anonymous": false,
      "inputs": [
        {
          "indexed": false,
          "internalType": "uint256",
          "name": "id",
          "type": "uint256"
        },
        {
          "indexed": false,
          "internalType": "uint256",
          "name": "nonce",
          "type": "uint256"
        },
        {
          "indexed": false,
          "internalType": "address",
          "name": "proposer",
          "type": "address"
        },
        {
          "indexed": false,
          "internalType": "string",
          "name": "description",
          "type": "string"
        },
        {
          "indexed": false,
          "internalType": "uint256",
          "name": "votingPeriod",
          "type": "uint256"
        },
        {
          "indexed": false,
          "internalType": "uint256",
          "name": "minimumQuorum",
          "type": "uint256"
        },
        {
          "indexed": false,
          "internalType": "uint256",
          "name": "timestamp",
          "type": "uint256"
        }
      ],
      "name": "ProposalCreated",
      "type": "event"
    },
    {
      "anonymous": false,
      "inputs": [
        {
          "indexed": false,
          "internalType": "uint256",
          "name": "id",
          "type": "uint256"
        },
        {
          "indexed": false,
          "internalType": "bool",
          "name": "succeded",
          "type": "bool"
        },
        {
          "indexed": false,
          "internalType": "bool",
          "name": "defeated",
          "type": "bool"
        }
      ],
      "name": "ProposalExecuted",
      "type": "event"
    },
    {
      "anonymous": false,
      "inputs": [
        {
          "indexed": true,
          "internalType": "bytes32",
          "name": "role",
          "type": "bytes32"
        },
        {
          "indexed": true,
          "internalType": "bytes32",
          "name": "previousAdminRole",
          "type": "bytes32"
        },
        {
          "indexed": true,
          "internalType": "bytes32",
          "name": "newAdminRole",
          "type": "bytes32"
        }
      ],
      "name": "RoleAdminChanged",
      "type": "event"
    },
    {
      "anonymous": false,
      "inputs": [
        {
          "indexed": true,
          "internalType": "bytes32",
          "name": "role",
          "type": "bytes32"
        },
        {
          "indexed": true,
          "internalType": "address",
          "name": "account",
          "type": "address"
        },
        {
          "indexed": true,
          "internalType": "address",
          "name": "sender",
          "type": "address"
        }
      ],
      "name": "RoleGranted",
      "type": "event"
    },
    {
      "anonymous": false,
      "inputs": [
        {
          "indexed": true,
          "internalType": "bytes32",
          "name": "role",
          "type": "bytes32"
        },
        {
          "indexed": true,
          "internalType": "address",
          "name": "account",
          "type": "address"
        },
        {
          "indexed": true,
          "internalType": "address",
          "name": "sender",
          "type": "address"
        }
      ],
      "name": "RoleRevoked",
      "type": "event"
    },
    {
      "anonymous": false,
      "inputs": [
        {
          "indexed": true,
          "internalType": "address",
          "name": "implementation",
          "type": "address"
        }
      ],
      "name": "Upgraded",
      "type": "event"
    },
    {
      "anonymous": false,
      "inputs": [
        {
          "indexed": true,
          "internalType": "address",
          "name": "voter",
          "type": "address"
        },
        {
          "indexed": false,
          "internalType": "uint256",
          "name": "proposalId",
          "type": "uint256"
        },
        {
          "indexed": false,
          "internalType": "bool",
          "name": "support",
          "type": "bool"
        },
        {
          "indexed": false,
          "internalType": "uint256",
          "name": "votes",
          "type": "uint256"
        },
        {
          "indexed": false,
          "internalType": "uint256",
          "name": "timestamp",
          "type": "uint256"
        }
      ],
      "name": "VoteCast",
      "type": "event"
    },
    {
      "inputs": [],
      "name": "ADMIN_ROLE",
      "outputs": [
        {
          "internalType": "bytes32",
          "name": "",
          "type": "bytes32"
        }
      ],
      "stateMutability": "view",
      "type": "function"
    },
    {
      "inputs": [],
      "name": "CHAIRPERSON_ROLE",
      "outputs": [
        {
          "internalType": "bytes32",
          "name": "",
          "type": "bytes32"
        }
      ],
      "stateMutability": "view",
      "type": "function"
    },
    {
      "inputs": [],
      "name": "DEFAULT_ADMIN_ROLE",
      "outputs": [
        {
          "internalType": "bytes32",
          "name": "",
          "type": "bytes32"
        }
      ],
      "stateMutability": "view",
      "type": "function"
    },
    {
      "inputs": [],
      "name": "UPGRADER_ROLE",
      "outputs": [
        {
          "internalType": "bytes32",
          "name": "",
          "type": "bytes32"
        }
      ],
      "stateMutability": "view",
      "type": "function"
    },
    {
      "inputs": [
        {
          "internalType": "uint256",
          "name": "nonce",
          "type": "uint256"
        },
        {
          "internalType": "string",
          "name": "_description",
          "type": "string"
        }
      ],
      "name": "addProposal",
      "outputs": [],
      "stateMutability": "nonpayable",
      "type": "function"
    },
    {
      "inputs": [
        {
          "internalType": "uint256",
          "name": "_minimumQuorum",
          "type": "uint256"
        },
        {
          "internalType": "uint256",
          "name": "_votingPeriod",
          "type": "uint256"
        }
      ],
      "name": "changeVotingRules",
      "outputs": [],
      "stateMutability": "nonpayable",
      "type": "function"
    },
    {
      "inputs": [
        {
          "internalType": "address",
          "name": "account",
          "type": "address"
        },
        {
          "internalType": "uint32",
          "name": "pos",
          "type": "uint32"
        }
      ],
      "name": "checkpoints",
      "outputs": [
        {
          "components": [
            {
              "internalType": "uint32",
              "name": "fromBlock",
              "type": "uint32"
            },
            {
              "internalType": "uint224",
              "name": "votes",
              "type": "uint224"
            }
          ],
          "internalType": "struct WQDAOVoting.Checkpoint",
          "name": "",
          "type": "tuple"
        }
      ],
      "stateMutability": "view",
      "type": "function"
    },
    {
      "inputs": [
        {
          "internalType": "address",
          "name": "delegatee",
          "type": "address"
        }
      ],
      "name": "delegate",
      "outputs": [],
      "stateMutability": "payable",
      "type": "function"
    },
    {
      "inputs": [
        {
          "internalType": "address",
          "name": "account",
          "type": "address"
        }
      ],
      "name": "delegates",
      "outputs": [
        {
          "internalType": "address",
          "name": "",
          "type": "address"
        }
      ],
      "stateMutability": "view",
      "type": "function"
    },
    {
      "inputs": [
        {
          "internalType": "uint256",
          "name": "_proposalId",
          "type": "uint256"
        },
        {
          "internalType": "bool",
          "name": "_support",
          "type": "bool"
        }
      ],
      "name": "doVote",
      "outputs": [],
      "stateMutability": "payable",
      "type": "function"
    },
    {
      "inputs": [
        {
          "internalType": "uint256",
          "name": "_proposalId",
          "type": "uint256"
        }
      ],
      "name": "executeVoting",
      "outputs": [],
      "stateMutability": "nonpayable",
      "type": "function"
    },
    {
      "inputs": [],
      "name": "fee",
      "outputs": [
        {
          "internalType": "uint256",
          "name": "",
          "type": "uint256"
        }
      ],
      "stateMutability": "view",
      "type": "function"
    },
    {
      "inputs": [],
      "name": "feeReceiver",
      "outputs": [
        {
          "internalType": "address payable",
          "name": "",
          "type": "address"
        }
      ],
      "stateMutability": "view",
      "type": "function"
    },
    {
      "inputs": [
        {
          "internalType": "address",
          "name": "account",
          "type": "address"
        }
      ],
      "name": "frozed",
      "outputs": [
        {
          "internalType": "uint256",
          "name": "",
          "type": "uint256"
        }
      ],
      "stateMutability": "view",
      "type": "function"
    },
    {
      "inputs": [
        {
          "internalType": "address",
          "name": "account",
          "type": "address"
        },
        {
          "internalType": "uint256",
          "name": "blockNumber",
          "type": "uint256"
        }
      ],
      "name": "getPastVotes",
      "outputs": [
        {
          "internalType": "uint256",
          "name": "",
          "type": "uint256"
        }
      ],
      "stateMutability": "view",
      "type": "function"
    },
    {
      "inputs": [
        {
          "internalType": "uint256",
          "name": "offset",
          "type": "uint256"
        },
        {
          "internalType": "uint256",
          "name": "limit",
          "type": "uint256"
        }
      ],
      "name": "getProposals",
      "outputs": [
        {
          "components": [
            {
              "internalType": "uint256",
              "name": "count",
              "type": "uint256"
            },
            {
              "internalType": "uint256",
              "name": "offset",
              "type": "uint256"
            },
            {
              "internalType": "uint256",
              "name": "limit",
              "type": "uint256"
            },
            {
              "components": [
                {
                  "internalType": "uint256",
                  "name": "id",
                  "type": "uint256"
                },
                {
                  "internalType": "uint256",
                  "name": "nonce",
                  "type": "uint256"
                },
                {
                  "internalType": "uint256",
                  "name": "forVotes",
                  "type": "uint256"
                },
                {
                  "internalType": "uint256",
                  "name": "againstVotes",
                  "type": "uint256"
                },
                {
                  "internalType": "uint256",
                  "name": "numVoters",
                  "type": "uint256"
                },
                {
                  "internalType": "uint256",
                  "name": "startTime",
                  "type": "uint256"
                },
                {
                  "internalType": "uint256",
                  "name": "expireTime",
                  "type": "uint256"
                },
                {
                  "internalType": "uint256",
                  "name": "blockNumber",
                  "type": "uint256"
                },
                {
                  "internalType": "address",
                  "name": "proposer",
                  "type": "address"
                },
                {
                  "internalType": "bool",
                  "name": "active",
                  "type": "bool"
                },
                {
                  "internalType": "string",
                  "name": "description",
                  "type": "string"
                },
                {
                  "internalType": "bool",
                  "name": "succeded",
                  "type": "bool"
                },
                {
                  "internalType": "bool",
                  "name": "defeated",
                  "type": "bool"
                }
              ],
              "internalType": "struct WQDAOVoting.ProposalInfo[]",
              "name": "pages",
              "type": "tuple[]"
            }
          ],
          "internalType": "struct WQDAOVoting.ProposalPages",
          "name": "page",
          "type": "tuple"
        }
      ],
      "stateMutability": "view",
      "type": "function"
    },
    {
      "inputs": [
        {
          "internalType": "uint256",
          "name": "_proposalId",
          "type": "uint256"
        },
        {
          "internalType": "address",
          "name": "_voter",
          "type": "address"
        }
      ],
      "name": "getReceipt",
      "outputs": [
        {
          "components": [
            {
              "internalType": "bool",
              "name": "hasVoted",
              "type": "bool"
            },
            {
              "internalType": "bool",
              "name": "support",
              "type": "bool"
            },
            {
              "internalType": "uint256",
              "name": "votes",
              "type": "uint256"
            }
          ],
          "internalType": "struct WQDAOVoting.Receipt",
          "name": "",
          "type": "tuple"
        }
      ],
      "stateMutability": "view",
      "type": "function"
    },
    {
      "inputs": [
        {
          "internalType": "bytes32",
          "name": "role",
          "type": "bytes32"
        }
      ],
      "name": "getRoleAdmin",
      "outputs": [
        {
          "internalType": "bytes32",
          "name": "",
          "type": "bytes32"
        }
      ],
      "stateMutability": "view",
      "type": "function"
    },
    {
      "inputs": [
        {
          "internalType": "address[]",
          "name": "accounts",
          "type": "address[]"
        }
      ],
      "name": "getVotes",
      "outputs": [
        {
          "internalType": "uint256[]",
          "name": "_delegatee",
          "type": "uint256[]"
        }
      ],
      "stateMutability": "view",
      "type": "function"
    },
    {
      "inputs": [
        {
          "internalType": "bytes32",
          "name": "role",
          "type": "bytes32"
        },
        {
          "internalType": "address",
          "name": "account",
          "type": "address"
        }
      ],
      "name": "grantRole",
      "outputs": [],
      "stateMutability": "nonpayable",
      "type": "function"
    },
    {
      "inputs": [
        {
          "internalType": "bytes32",
          "name": "role",
          "type": "bytes32"
        },
        {
          "internalType": "address",
          "name": "account",
          "type": "address"
        }
      ],
      "name": "hasRole",
      "outputs": [
        {
          "internalType": "bool",
          "name": "",
          "type": "bool"
        }
      ],
      "stateMutability": "view",
      "type": "function"
    },
    {
      "inputs": [
        {
          "internalType": "address",
          "name": "chairPerson",
          "type": "address"
        },
        {
          "internalType": "uint256",
          "name": "_minimumQuorum",
          "type": "uint256"
        },
        {
          "internalType": "uint256",
          "name": "_votingPeriod",
          "type": "uint256"
        },
        {
          "internalType": "uint256",
          "name": "_proposalThreshold",
          "type": "uint256"
        },
        {
          "internalType": "uint256",
          "name": "_voteThreshold",
          "type": "uint256"
        },
        {
          "internalType": "uint256",
          "name": "_fee",
          "type": "uint256"
        },
        {
          "internalType": "address payable",
          "name": "_feeReceiver",
          "type": "address"
        }
      ],
      "name": "initialize",
      "outputs": [],
      "stateMutability": "nonpayable",
      "type": "function"
    },
    {
      "inputs": [],
      "name": "minimumQuorum",
      "outputs": [
        {
          "internalType": "uint256",
          "name": "",
          "type": "uint256"
        }
      ],
      "stateMutability": "view",
      "type": "function"
    },
    {
      "inputs": [
        {
          "internalType": "address",
          "name": "account",
          "type": "address"
        }
      ],
      "name": "numCheckpoints",
      "outputs": [
        {
          "internalType": "uint32",
          "name": "",
          "type": "uint32"
        }
      ],
      "stateMutability": "view",
      "type": "function"
    },
    {
      "inputs": [],
      "name": "proposalCount",
      "outputs": [
        {
          "internalType": "uint256",
          "name": "",
          "type": "uint256"
        }
      ],
      "stateMutability": "view",
      "type": "function"
    },
    {
      "inputs": [],
      "name": "proposalThreshold",
      "outputs": [
        {
          "internalType": "uint256",
          "name": "",
          "type": "uint256"
        }
      ],
      "stateMutability": "view",
      "type": "function"
    },
    {
      "inputs": [
        {
          "internalType": "uint256",
          "name": "",
          "type": "uint256"
        }
      ],
      "name": "proposals",
      "outputs": [
        {
          "internalType": "uint256",
          "name": "id",
          "type": "uint256"
        },
        {
          "internalType": "uint256",
          "name": "nonce",
          "type": "uint256"
        },
        {
          "internalType": "address",
          "name": "proposer",
          "type": "address"
        },
        {
          "internalType": "uint256",
          "name": "forVotes",
          "type": "uint256"
        },
        {
          "internalType": "uint256",
          "name": "againstVotes",
          "type": "uint256"
        },
        {
          "internalType": "uint256",
          "name": "numVoters",
          "type": "uint256"
        },
        {
          "internalType": "uint256",
          "name": "startTime",
          "type": "uint256"
        },
        {
          "internalType": "uint256",
          "name": "expireTime",
          "type": "uint256"
        },
        {
          "internalType": "uint256",
          "name": "blockNumber",
          "type": "uint256"
        },
        {
          "internalType": "bool",
          "name": "active",
          "type": "bool"
        },
        {
          "internalType": "string",
          "name": "description",
          "type": "string"
        },
        {
          "internalType": "bool",
          "name": "succeded",
          "type": "bool"
        },
        {
          "internalType": "bool",
          "name": "defeated",
          "type": "bool"
        }
      ],
      "stateMutability": "view",
      "type": "function"
    },
    {
      "inputs": [],
      "name": "proxiableUUID",
      "outputs": [
        {
          "internalType": "bytes32",
          "name": "",
          "type": "bytes32"
        }
      ],
      "stateMutability": "view",
      "type": "function"
    },
    {
      "inputs": [
        {
          "internalType": "uint256",
          "name": "_proposalId",
          "type": "uint256"
        }
      ],
      "name": "rejectVoting",
      "outputs": [],
      "stateMutability": "nonpayable",
      "type": "function"
    },
    {
      "inputs": [
        {
          "internalType": "bytes32",
          "name": "role",
          "type": "bytes32"
        },
        {
          "internalType": "address",
          "name": "account",
          "type": "address"
        }
      ],
      "name": "renounceRole",
      "outputs": [],
      "stateMutability": "nonpayable",
      "type": "function"
    },
    {
      "inputs": [
        {
          "internalType": "bytes32",
          "name": "role",
          "type": "bytes32"
        },
        {
          "internalType": "address",
          "name": "account",
          "type": "address"
        }
      ],
      "name": "revokeRole",
      "outputs": [],
      "stateMutability": "nonpayable",
      "type": "function"
    },
    {
      "inputs": [
        {
          "internalType": "uint256",
          "name": "_fee",
          "type": "uint256"
        }
      ],
      "name": "setFee",
      "outputs": [],
      "stateMutability": "nonpayable",
      "type": "function"
    },
    {
      "inputs": [
        {
          "internalType": "address payable",
          "name": "_feeReceiver",
          "type": "address"
        }
      ],
      "name": "setFeeReceiver",
      "outputs": [],
      "stateMutability": "nonpayable",
      "type": "function"
    },
    {
      "inputs": [
        {
          "internalType": "uint256",
          "name": "_proposalThreshold",
          "type": "uint256"
        },
        {
          "internalType": "uint256",
          "name": "_voteThreshold",
          "type": "uint256"
        }
      ],
      "name": "setThresholds",
      "outputs": [],
      "stateMutability": "nonpayable",
      "type": "function"
    },
    {
      "inputs": [
        {
          "internalType": "uint256",
          "name": "_proposalId",
          "type": "uint256"
        }
      ],
      "name": "state",
      "outputs": [
        {
          "internalType": "uint8",
          "name": "proposalState",
          "type": "uint8"
        }
      ],
      "stateMutability": "view",
      "type": "function"
    },
    {
      "inputs": [
        {
          "internalType": "bytes4",
          "name": "interfaceId",
          "type": "bytes4"
        }
      ],
      "name": "supportsInterface",
      "outputs": [
        {
          "internalType": "bool",
          "name": "",
          "type": "bool"
        }
      ],
      "stateMutability": "view",
      "type": "function"
    },
    {
      "inputs": [],
      "name": "undelegate",
      "outputs": [],
      "stateMutability": "nonpayable",
      "type": "function"
    },
    {
      "inputs": [
        {
          "internalType": "address",
          "name": "newImplementation",
          "type": "address"
        }
      ],
      "name": "upgradeTo",
      "outputs": [],
      "stateMutability": "nonpayable",
      "type": "function"
    },
    {
      "inputs": [
        {
          "internalType": "address",
          "name": "newImplementation",
          "type": "address"
        },
        {
          "internalType": "bytes",
          "name": "data",
          "type": "bytes"
        }
      ],
      "name": "upgradeToAndCall",
      "outputs": [],
      "stateMutability": "payable",
      "type": "function"
    },
    {
      "inputs": [
        {
          "internalType": "address",
          "name": "delegator",
          "type": "address"
        }
      ],
      "name": "vault",
      "outputs": [
        {
          "internalType": "contract WQDAOVault",
          "name": "",
          "type": "address"
        }
      ],
      "stateMutability": "view",
      "type": "function"
    },
    {
      "inputs": [],
      "name": "voteThreshold",
      "outputs": [
        {
          "internalType": "uint256",
          "name": "",
          "type": "uint256"
        }
      ],
      "stateMutability": "view",
      "type": "function"
    },
    {
      "inputs": [],
      "name": "votingPeriod",
      "outputs": [
        {
          "internalType": "uint256",
          "name": "",
          "type": "uint256"
        }
      ],
      "stateMutability": "view",
      "type": "function"
    }
  ],
  "bytecode": "0x60a0604052306080523480156200001557600080fd5b50600054610100900460ff16620000335760005460ff16156200003d565b6200003d620000e2565b620000a55760405162461bcd60e51b815260206004820152602e60248201527f496e697469616c697a61626c653a20636f6e747261637420697320616c72656160448201526d191e481a5b9a5d1a585b1a5e995960921b606482015260840160405180910390fd5b600054610100900460ff16158015620000c8576000805461ffff19166101011790555b8015620000db576000805461ff00191690555b506200010f565b6000620000fa306200010060201b62001cb51760201c565b15905090565b6001600160a01b03163b151590565b60805161404d6200014760003960008181610d8601528181610dc9015281816111280152818161116b0152611203015261404d6000f3fe608060405260043610620002835760003560e01c806375b238fc1162000153578063d7b8943611620000c5578063efdcd9741162000084578063efdcd9741462000897578063f1127ed814620008bc578063f38ab22c146200090c578063f3d912431462000931578063f72c0d8b1462000956578063f815c03d146200097b57600080fd5b8063d7b89436146200076d578063da35c6641462000784578063ddca3f43146200079c578063e23a9a5214620007b5578063e3064a77146200087257600080fd5b8063a217fddf1162000112578063a217fddf14620006d1578063a22e587114620006e8578063b3f00674146200070d578063b58131b01462000730578063d547741f146200074857600080fd5b806375b238fc14620006235780637b6f933814620006485780638160f0b5146200067c57806391d14854146200069457806392ab89bb14620006b957600080fd5b806339b6e72c11620001f957806352d1902d11620001b857806352d1902d1462000509578063587cde1e14620005215780635c19a95c14620005785780635e3b4365146200058f57806369fe0e2d14620005c35780636fcfff4514620005e857600080fd5b806339b6e72c14620004585780633a46b1a8146200047d5780633e4f49e614620004a25780634f1ef28614620004da5780634fe437d514620004f157600080fd5b8063248a9ca31162000246578063248a9ca3146200037a5780632d79fb2014620003ae5780632f2ff15d14620003e957806336568abe146200040e5780633659cfe6146200043357600080fd5b8063013cf08b146200028857806301ffc9a714620002d157806302a251a31462000307578063051097ef146200032e578063158059e21462000355575b600080fd5b3480156200029557600080fd5b50620002ad620002a736600462003286565b620009b9565b604051620002c89d9c9b9a99989796959493929190620032fd565b60405180910390f35b348015620002de57600080fd5b50620002f6620002f03660046200338a565b62000ac5565b6040519015158152602001620002c8565b3480156200031457600080fd5b506200031f60fc5481565b604051908152602001620002c8565b3480156200033b57600080fd5b50620003536200034d36600462003449565b62000afd565b005b3480156200036257600080fd5b506200035362000374366004620034a9565b62000ca2565b3480156200038757600080fd5b506200031f6200039936600462003286565b60009081526065602052604090206001015490565b348015620003bb57600080fd5b506200031f620003cd366004620034e2565b6001600160a01b03166000908152610105602052604090205490565b348015620003f657600080fd5b50620003536200040836600462003502565b62000cca565b3480156200041b57600080fd5b50620003536200042d36600462003502565b62000cf9565b3480156200044057600080fd5b506200035362000452366004620034e2565b62000d7b565b3480156200046557600080fd5b50620003536200047736600462003535565b62000e67565b3480156200048a57600080fd5b506200031f6200049c366004620035a3565b62001029565b348015620004af57600080fd5b50620004c7620004c136600462003286565b620010a8565b60405160ff9091168152602001620002c8565b62000353620004eb366004620035d2565b6200111d565b348015620004fe57600080fd5b506200031f60fe5481565b3480156200051657600080fd5b506200031f620011f6565b3480156200052e57600080fd5b506200055f62000540366004620034e2565b6001600160a01b03908116600090815261010360205260409020541690565b6040516001600160a01b039091168152602001620002c8565b6200035362000589366004620034e2565b620012ac565b3480156200059c57600080fd5b50620005b4620005ae366004620034a9565b620012b9565b604051620002c8919062003610565b348015620005d057600080fd5b5062000353620005e236600462003286565b6200171e565b348015620005f557600080fd5b506200060d62000607366004620034e2565b62001741565b60405163ffffffff9091168152602001620002c8565b3480156200063057600080fd5b506200031f60008051602062003fd883398151915281565b3480156200065557600080fd5b506200066d6200066736600462003747565b62001766565b604051620002c89190620037c1565b3480156200068957600080fd5b506200031f60fb5481565b348015620006a157600080fd5b50620002f6620006b336600462003502565b620018e2565b348015620006c657600080fd5b50620003536200190d565b348015620006de57600080fd5b506200031f600081565b348015620006f557600080fd5b506200031f60008051602062003ff883398151915281565b3480156200071a57600080fd5b50610100546200055f906001600160a01b031681565b3480156200073d57600080fd5b506200031f60fd5481565b3480156200075557600080fd5b50620003536200076736600462003502565b6200191a565b620003536200077e36600462003807565b62001944565b3480156200079157600080fd5b506200031f60ff5481565b348015620007a957600080fd5b506200031f6101015481565b348015620007c257600080fd5b506200084b620007d436600462003502565b6040805160608101825260008082526020820181905291810191909152506000918252610102602090815260408084206001600160a01b03939093168452600b9092018152918190208151606081018352815460ff8082161515835261010090910416151593810193909352600101549082015290565b604080518251151581526020808401511515908201529181015190820152606001620002c8565b3480156200087f57600080fd5b506200035362000891366004620034a9565b6200199d565b348015620008a457600080fd5b5062000353620008b6366004620034e2565b620019c5565b348015620008c957600080fd5b50620008e1620008db36600462003833565b62001a05565b60408051825163ffffffff1681526020928301516001600160e01b03169281019290925201620002c8565b3480156200091957600080fd5b50620003536200092b36600462003286565b62001a8d565b3480156200093e57600080fd5b50620003536200095036600462003286565b62001b80565b3480156200096357600080fd5b506200031f60008051602062003f7183398151915281565b3480156200098857600080fd5b506200055f6200099a366004620034e2565b6001600160a01b03908116600090815261010660205260409020541690565b61010260205260009081526040902080546001820154600283015460038401546004850154600586015460068701546007880154600889015460098a0154600a8b0180549a9b999a6001600160a01b039099169997989697959694959394929360ff9092169262000a2a906200386e565b80601f016020809104026020016040519081016040528092919081815260200182805462000a58906200386e565b801562000aa95780601f1062000a7d5761010080835404028352916020019162000aa9565b820191906000526020600020905b81548152906001019060200180831162000a8b57829003601f168201915b505050600c909301549192505060ff808216916101009004168d565b60006001600160e01b03198216637965db0b60e01b148062000af757506301ffc9a760e01b6001600160e01b03198316145b92915050565b60fd5462000b12336200049c600143620038c1565b101562000b7d5760405162461bcd60e51b815260206004820152602e60248201527f575144414f3a2050726f706f73657220766f7465732062656c6f772070726f7060448201526d1bdcd85b081d1a1c995cda1bdb1960921b60648201526084015b60405180910390fd5b60ff80546000916101029183918262000b9683620038db565b9190505581526020019081526020016000209050600160ff5462000bbb9190620038c1565b815560018082018490556002820180546001600160a01b0319163317905560006005830181905560038301819055600483015560098201805460ff19169091179055426006820181905560fc5462000c1391620038f9565b6007820155436008820155815162000c3590600a8301906020850190620031d6565b50600c8101805461ffff1916905560ff547f72dbd7436d0d73b2471f42ff04f375e4d86f8ec7459d7c8d3a49f01266d698b39062000c7690600190620038c1565b84338560fc5460fb544260405162000c95979695949392919062003914565b60405180910390a1505050565b60008051602062003fd883398151915262000cbe813362001cc4565b5060fb9190915560fc55565b60008281526065602052604090206001015462000ce8813362001cc4565b62000cf4838362001d33565b505050565b6001600160a01b038116331462000d6b5760405162461bcd60e51b815260206004820152602f60248201527f416363657373436f6e74726f6c3a2063616e206f6e6c792072656e6f756e636560448201526e103937b632b9903337b91039b2b63360891b606482015260840162000b74565b62000d77828262001dbd565b5050565b306001600160a01b037f000000000000000000000000000000000000000000000000000000000000000016141562000dc75760405162461bcd60e51b815260040162000b749062003962565b7f00000000000000000000000000000000000000000000000000000000000000006001600160a01b031662000e1260008051602062003f91833981519152546001600160a01b031690565b6001600160a01b03161462000e3b5760405162461bcd60e51b815260040162000b7490620039ae565b62000e468162001e27565b6040805160008082526020820190925262000e649183919062001e43565b50565b600054610100900460ff1662000e845760005460ff161562000e88565b303b155b62000eed5760405162461bcd60e51b815260206004820152602e60248201527f496e697469616c697a61626c653a20636f6e747261637420697320616c72656160448201526d191e481a5b9a5d1a585b1a5e995960921b606482015260840162000b74565b600054610100900460ff1615801562000f10576000805461ffff19166101011790555b62000f1a62001fcb565b62000f2462001fcb565b62000f3160003362002038565b62000f4c60008051602062003fd88339815191523362002038565b62000f6760008051602062003f718339815191523362002038565b62000f8260008051602062003ff88339815191528962002038565b62000fac60008051602062003ff883398151915260008051602062003fd883398151915262002044565b62000fd660008051602062003f7183398151915260008051602062003fd883398151915262002044565b60fb87905560fc86905560fd85905560fe84905561010183905561010080546001600160a01b0319166001600160a01b03841617905580156200101f576000805461ff00191690555b5050505050505050565b60004382106200107c5760405162461bcd60e51b815260206004820152601a60248201527f575144414f3a20626c6f636b206e6f7420796574206d696e6564000000000000604482015260640162000b74565b6001600160a01b038316600090815261010460205260409020620010a190836200208f565b9392505050565b600060ff548210620010ce5760405162461bcd60e51b815260040162000b7490620039fa565b6000828152610102602052604090206009015460ff1615620010f257506002919050565b600082815261010260205260409020600c015460ff166200111557600062000af7565b600192915050565b306001600160a01b037f0000000000000000000000000000000000000000000000000000000000000000161415620011695760405162461bcd60e51b815260040162000b749062003962565b7f00000000000000000000000000000000000000000000000000000000000000006001600160a01b0316620011b460008051602062003f91833981519152546001600160a01b031690565b6001600160a01b031614620011dd5760405162461bcd60e51b815260040162000b7490620039ae565b620011e88262001e27565b62000d778282600162001e43565b6000306001600160a01b037f00000000000000000000000000000000000000000000000000000000000000001614620012985760405162461bcd60e51b815260206004820152603860248201527f555550535570677261646561626c653a206d757374206e6f742062652063616c60448201527f6c6564207468726f7567682064656c656761746563616c6c0000000000000000606482015260840162000b74565b5060008051602062003f9183398151915290565b62000e643382346200215e565b620012e56040518060800160405280600081526020016000815260200160008152602001606081525090565b60ff5480825260208201849052620012ff908490620038c1565b8211156200131a578260ff54620013179190620038c1565b91505b604081018290528167ffffffffffffffff8111156200133d576200133d620033b6565b604051908082528060200260200182016040528015620013eb57816020015b620013d7604051806101a00160405280600081526020016000815260200160008152602001600081526020016000815260200160008152602001600081526020016000815260200160006001600160a01b03168152602001600015158152602001606081526020016000151581526020016000151581525090565b8152602001906001900390816200135c5790505b50606082015260005b828110156200171757604051806101a00160405280610102600084886200141c9190620038f9565b815260200190815260200160002060000154815260200161010260008488620014469190620038f9565b815260200190815260200160002060010154815260200161010260008488620014709190620038f9565b8152602001908152602001600020600301548152602001610102600084886200149a9190620038f9565b815260200190815260200160002060040154815260200161010260008488620014c49190620038f9565b815260200190815260200160002060050154815260200161010260008488620014ee9190620038f9565b815260200190815260200160002060060154815260200161010260008488620015189190620038f9565b815260200190815260200160002060070154815260200161010260008488620015429190620038f9565b8152602001908152602001600020600801548152602001610102600084886200156c9190620038f9565b81526020808201929092526040016000908120600201546001600160a01b0316835291019061010290620015a18589620038f9565b815260208082019290925260400160009081206009015460ff161515835291019061010290620015d28589620038f9565b8152602001908152602001600020600a018054620015f0906200386e565b80601f01602080910402602001604051908101604052809291908181526020018280546200161e906200386e565b80156200166f5780601f1062001643576101008083540402835291602001916200166f565b820191906000526020600020905b8154815290600101906020018083116200165157829003601f168201915b505050918352505060200161010260006200168b8589620038f9565b81526020808201929092526040016000908120600c015460ff161515835291019061010290620016bc8589620038f9565b81526020810191909152604001600020600c0154610100900460ff16151590526060830151805183908110620016f657620016f662003a31565b602002602001018190525080806200170e90620038db565b915050620013f4565b5092915050565b60008051602062003fd88339815191526200173a813362001cc4565b5061010155565b6001600160a01b0381166000908152610104602052604081205462000af7906200245e565b60608167ffffffffffffffff811115620017845762001784620033b6565b604051908082528060200260200182016040528015620017ae578160200160208202803683370190505b50905060005b82811015620017175760006101046000868685818110620017d957620017d962003a31565b9050602002016020810190620017f09190620034e2565b6001600160a01b0316815260208101919091526040016000205490508015620018a05761010460008686858181106200182d576200182d62003a31565b9050602002016020810190620018449190620034e2565b6001600160a01b0316815260208101919091526040016000206200186a600183620038c1565b815481106200187d576200187d62003a31565b60009182526020909120015464010000000090046001600160e01b0316620018a3565b60005b6001600160e01b0316838381518110620018c157620018c162003a31565b60209081029190910101525080620018d981620038db565b915050620017b4565b60009182526065602090815260408084206001600160a01b0393909316845291905290205460ff1690565b6200191833620024c9565b565b60008281526065602052604090206001015462001938813362001cc4565b62000cf4838362001dbd565b337fefa3d674e0475fb6175e081d7938ee5c64950b1a41fabffb968a8ed87482f48483836200197584838362002626565b6040805193845291151560208401529082015242606082015260800160405180910390a25050565b60008051602062003fd8833981519152620019b9813362001cc4565b5060fd9190915560fe55565b60008051602062003fd8833981519152620019e1813362001cc4565b5061010080546001600160a01b0319166001600160a01b0392909216919091179055565b60408051808201909152600080825260208201526001600160a01b038316600090815261010460205260409020805463ffffffff841690811062001a4d5762001a4d62003a31565b60009182526020918290206040805180820190915291015463ffffffff8116825264010000000090046001600160e01b0316918101919091529392505050565b60008051602062003ff883398151915262001aa9813362001cc4565b60ff54821062001acd5760405162461bcd60e51b815260040162000b7490620039fa565b6000828152610102602052604090206009015460ff1662001b025760405162461bcd60e51b815260040162000b749062003a47565b6000828152610102602052604080822060098101805460ff19169055600c01805461ffff1916610100179055517f75bba44f29e4b104d366019dfced0c087f66d06097db8b746faab6ee440702979162001b749185919060019092835290151560208301521515604082015260600190565b60405180910390a15050565b60008051602062003ff883398151915262001b9c813362001cc4565b60ff54821062001bc05760405162461bcd60e51b815260040162000b7490620039fa565b600082815261010260205260409020600781015442101562001c255760405162461bcd60e51b815260206004820181905260248201527f575144414f3a20566f74696e67206973206e6f74206578706972656420796574604482015260640162000b74565b600981015460ff1662001c4c5760405162461bcd60e51b815260040162000b749062003a47565b60098101805460ff1916905562001c6383620028da565b600c8101546040805185815260ff808416151560208301526101009093049092161515908201527f75bba44f29e4b104d366019dfced0c087f66d06097db8b746faab6ee440702979060600162000c95565b6001600160a01b03163b151590565b62001cd08282620018e2565b62000d775762001ceb816001600160a01b0316601462002935565b62001cf883602062002935565b60405160200162001d0b92919062003a7e565b60408051601f198184030181529082905262461bcd60e51b825262000b749160040162003af7565b62001d3f8282620018e2565b62000d775760008281526065602090815260408083206001600160a01b03851684529091529020805460ff1916600117905562001d793390565b6001600160a01b0316816001600160a01b0316837f2f8788117e7eff1d82e926ec794901d17c78024a50270940304540a733656f0d60405160405180910390a45050565b62001dc98282620018e2565b1562000d775760008281526065602090815260408083206001600160a01b0385168085529252808320805460ff1916905551339285917ff6391f5c32d9c69d2a47ea670b442974b53935d1edc7fd64eb21e047a839171b9190a45050565b60008051602062003f7183398151915262000d77813362001cc4565b7f4910fdfa16fed3260ed0e7147f7cc6da11a60208b5b9406d12a635614ffd91435460ff161562001e795762000cf48362002aef565b826001600160a01b03166352d1902d6040518163ffffffff1660e01b815260040160206040518083038186803b15801562001eb357600080fd5b505afa92505050801562001ee6575060408051601f3d908101601f1916820190925262001ee39181019062003b0c565b60015b62001f4b5760405162461bcd60e51b815260206004820152602e60248201527f45524331393637557067726164653a206e657720696d706c656d656e7461746960448201526d6f6e206973206e6f74205555505360901b606482015260840162000b74565b60008051602062003f91833981519152811462001fbd5760405162461bcd60e51b815260206004820152602960248201527f45524331393637557067726164653a20756e737570706f727465642070726f786044820152681a58589b195555525160ba1b606482015260840162000b74565b5062000cf483838362002b8e565b600054610100900460ff16620019185760405162461bcd60e51b815260206004820152602b60248201527f496e697469616c697a61626c653a20636f6e7472616374206973206e6f74206960448201526a6e697469616c697a696e6760a81b606482015260840162000b74565b62000d77828262001d33565b600082815260656020526040808220600101805490849055905190918391839186917fbd79b86ffe0ab8e8776151514217cd7cacd52c909f66475c3af44e129f0b00ff9190a4505050565b8154600090815b81811015620020fe576000620020ad828462002bbf565b905084868281548110620020c557620020c562003a31565b60009182526020909120015463ffffffff161115620020e757809250620020f7565b620020f4816001620038f9565b91505b5062002096565b811562002149578462002113600184620038c1565b8154811062002126576200212662003a31565b60009182526020909120015464010000000090046001600160e01b03166200214c565b60005b6001600160e01b031695945050505050565b6001600160a01b038316620021cb5760405162461bcd60e51b815260206004820152602c60248201527f575144414f3a2043616e7427742064656c65676174652066726f6d207468652060448201526b7a65726f206164647265737360a01b606482015260840162000b74565b6001600160a01b038216620022365760405162461bcd60e51b815260206004820152602a60248201527f575144414f3a2043616e7427742064656c656761746520746f20746865207a65604482015269726f206164647265737360b01b606482015260840162000b74565b6001600160a01b038381166000908152610106602052604090205416620022c55733604051620022669062003261565b6001600160a01b039091168152602001604051809103906000f08015801562002293573d6000803e3d6000fd5b506001600160a01b0384811660009081526101066020526040902080546001600160a01b031916929091169190911790555b6001600160a01b038316600090815261010560205260409020541562002369576001600160a01b038084166000908152610106602090815260408083205461010590925291829020549151630928a5dd60e11b81529216916312514bba91620023349160040190815260200190565b600060405180830381600087803b1580156200234f57600080fd5b505af115801562002364573d6000803e3d6000fd5b505050505b6001600160a01b03808416600090815261010660205260409020546200239191168262002bde565b6001600160a01b0383811660008181526101036020526040808220549051848716949190911692917f3134e8a2e6d97e929a7e54011ea5485d7d196dd5f0ba4d4ef95803e8e3fc257f91a46001600160a01b0380841660009081526101036020908152604080832054610105909252822054620024149391909116919062002cfd565b620024226000838362002cfd565b6001600160a01b039283166000908152610105602090815260408083209390935561010390522080546001600160a01b03191691909216179055565b600063ffffffff821115620024c55760405162461bcd60e51b815260206004820152602660248201527f53616665436173743a2076616c756520646f65736e27742066697420696e203360448201526532206269747360d01b606482015260840162000b74565b5090565b6001600160a01b038181166000818152610103602052604080822054905191931691907f3134e8a2e6d97e929a7e54011ea5485d7d196dd5f0ba4d4ef95803e8e3fc257f908490a46001600160a01b0380821660009081526101036020908152604080832054610105909252822054620025499391909116919062002cfd565b6001600160a01b0381166000908152610105602052604090205415620025ed576001600160a01b038082166000908152610106602090815260408083205461010590925291829020549151630928a5dd60e11b81529216916312514bba91620025b89160040190815260200190565b600060405180830381600087803b158015620025d357600080fd5b505af1158015620025e8573d6000803e3d6000fd5b505050505b6001600160a01b0316600090815261010560209081526040808320839055338352610103909152902080546001600160a01b0319169055565b600060ff5483106200264c5760405162461bcd60e51b815260040162000b7490620039fa565b60008381526101026020526040812060088101549091906200267090879062001029565b905060fe54811015620026d65760405162461bcd60e51b815260206004820152602760248201527f575144414f3a20566f74657220766f7465732062656c6f7720766f74652074686044820152661c995cda1bdb1960ca1b606482015260840162000b74565b6001600160a01b0386166000908152600b830160205260409020600983015460ff1615156001146200271c5760405162461bcd60e51b815260040162000b749062003a47565b805460ff1615620027705760405162461bcd60e51b815260206004820152601e60248201527f575144414f3a20566f7465722068617320616c726561647920766f7465640000604482015260640162000b74565b82600701544210620027c55760405162461bcd60e51b815260206004820152601760248201527f575144414f3a2050726f706f73616c2065787069726564000000000000000000604482015260640162000b74565b670de0b6b3a76400006101015483620027df919062003b26565b620027eb919062003b48565b34146200283b5760405162461bcd60e51b815260206004820181905260248201527f575144414f3a20496e73756666696369656e742076616c7565206f6620666565604482015260640162000b74565b8415620028645781836003016000828254620028589190620038f9565b90915550620028809050565b818360040160008282546200287a9190620038f9565b90915550505b6005830180549060006200289483620038db565b90915550508054600161ffff199091166101008715158102919091178217835590820183905554620028d0906001600160a01b03163462002bde565b5095945050505050565b6000818152610102602052604090206004810154600382015411801562002907575060fb54816005015410155b156200292057600c8101805460ff191660011790555050565b600c8101805461ff0019166101001790555050565b606060006200294683600262003b26565b62002953906002620038f9565b67ffffffffffffffff8111156200296e576200296e620033b6565b6040519080825280601f01601f19166020018201604052801562002999576020820181803683370190505b509050600360fc1b81600081518110620029b757620029b762003a31565b60200101906001600160f81b031916908160001a905350600f60fb1b81600181518110620029e957620029e962003a31565b60200101906001600160f81b031916908160001a905350600062002a0f84600262003b26565b62002a1c906001620038f9565b90505b600181111562002a9e576f181899199a1a9b1b9c1cb0b131b232b360811b85600f166010811062002a545762002a5462003a31565b1a60f81b82828151811062002a6d5762002a6d62003a31565b60200101906001600160f81b031916908160001a90535060049490941c9362002a968162003b6b565b905062002a1f565b508315620010a15760405162461bcd60e51b815260206004820181905260248201527f537472696e67733a20686578206c656e67746820696e73756666696369656e74604482015260640162000b74565b6001600160a01b0381163b62002b5e5760405162461bcd60e51b815260206004820152602d60248201527f455243313936373a206e657720696d706c656d656e746174696f6e206973206e60448201526c1bdd08184818dbdb9d1c9858dd609a1b606482015260840162000b74565b60008051602062003f9183398151915280546001600160a01b0319166001600160a01b0392909216919091179055565b62002b998362002e3e565b60008251118062002ba75750805b1562000cf45762002bb9838362002e80565b50505050565b600062002bd0600284841862003b48565b620010a190848416620038f9565b8047101562002c305760405162461bcd60e51b815260206004820152601d60248201527f416464726573733a20696e73756666696369656e742062616c616e6365000000604482015260640162000b74565b6000826001600160a01b03168260405160006040518083038185875af1925050503d806000811462002c7f576040519150601f19603f3d011682016040523d82523d6000602084013e62002c84565b606091505b505090508062000cf45760405162461bcd60e51b815260206004820152603a60248201527f416464726573733a20756e61626c6520746f2073656e642076616c75652c207260448201527f6563697069656e74206d61792068617665207265766572746564000000000000606482015260840162000b74565b816001600160a01b0316836001600160a01b03161415801562002d205750600081115b1562000cf4576001600160a01b0383161562002db0576001600160a01b038316600090815261010460205260408120819062002d619062002f7d8562002f8b565b60408051838152602081018390529294509092506001600160a01b0387169133917f8553411b8bbb348336351063649aa1f4fa74c4935f5c4386469a017df33a1f66910160405180910390a350505b6001600160a01b0382161562000cf4576001600160a01b038216600090815261010460205260408120819062002deb906200311f8562002f8b565b60408051838152602081018390529294509092506001600160a01b0386169133917f8553411b8bbb348336351063649aa1f4fa74c4935f5c4386469a017df33a1f66910160405180910390a35050505050565b62002e498162002aef565b6040516001600160a01b038216907fbc7cd75a20ee27fd9adebab32041f755214dbc6bffa90cc0225b39da2e5c2d3b90600090a250565b60606001600160a01b0383163b62002eea5760405162461bcd60e51b815260206004820152602660248201527f416464726573733a2064656c65676174652063616c6c20746f206e6f6e2d636f6044820152651b9d1c9858dd60d21b606482015260840162000b74565b600080846001600160a01b03168460405162002f07919062003b85565b600060405180830381855af49150503d806000811462002f44576040519150601f19603f3d011682016040523d82523d6000602084013e62002f49565b606091505b509150915062002f74828260405180606001604052806027815260200162003fb1602791396200312d565b95945050505050565b6000620010a18284620038c1565b82546000908190801562002fdd578562002fa7600183620038c1565b8154811062002fba5762002fba62003a31565b60009182526020909120015464010000000090046001600160e01b031662002fe0565b60005b6001600160e01b0316925062002ffa83858763ffffffff16565b91506000811180156200303e5750438662003017600184620038c1565b815481106200302a576200302a62003a31565b60009182526020909120015463ffffffff16145b15620030a7576200304f826200316b565b866200305d600184620038c1565b8154811062003070576200307062003a31565b9060005260206000200160000160046101000a8154816001600160e01b0302191690836001600160e01b0316021790555062003116565b856040518060400160405280620030be436200245e565b63ffffffff168152602001620030d4856200316b565b6001600160e01b0390811690915282546001810184556000938452602093849020835194909301519091166401000000000263ffffffff909316929092179101555b50935093915050565b6000620010a18284620038f9565b606083156200313e575081620010a1565b8251156200314f5782518084602001fd5b8160405162461bcd60e51b815260040162000b74919062003af7565b60006001600160e01b03821115620024c55760405162461bcd60e51b815260206004820152602760248201527f53616665436173743a2076616c756520646f65736e27742066697420696e20326044820152663234206269747360c81b606482015260840162000b74565b828054620031e4906200386e565b90600052602060002090601f01602090048101928262003208576000855562003253565b82601f106200322357805160ff191683800117855562003253565b8280016001018555821562003253579182015b828111156200325357825182559160200191906001019062003236565b50620024c59291506200326f565b6103cd8062003ba483390190565b5b80821115620024c5576000815560010162003270565b6000602082840312156200329957600080fd5b5035919050565b60005b83811015620032bd578181015183820152602001620032a3565b8381111562002bb95750506000910152565b60008151808452620032e9816020860160208601620032a0565b601f01601f19169290920160200192915050565b60006101a08f83528e602084015260018060a01b038e1660408401528c60608401528b60808401528a60a08401528960c08401528860e084015287610100840152861515610120840152806101408401526200335c81840187620032cf565b9150508315156101608301526200337861018083018415159052565b9e9d5050505050505050505050505050565b6000602082840312156200339d57600080fd5b81356001600160e01b031981168114620010a157600080fd5b634e487b7160e01b600052604160045260246000fd5b600067ffffffffffffffff80841115620033ea57620033ea620033b6565b604051601f8501601f19908116603f01168101908282118183101715620034155762003415620033b6565b816040528093508581528686860111156200342f57600080fd5b858560208301376000602087830101525050509392505050565b600080604083850312156200345d57600080fd5b82359150602083013567ffffffffffffffff8111156200347c57600080fd5b8301601f810185136200348e57600080fd5b6200349f85823560208401620033cc565b9150509250929050565b60008060408385031215620034bd57600080fd5b50508035926020909101359150565b6001600160a01b038116811462000e6457600080fd5b600060208284031215620034f557600080fd5b8135620010a181620034cc565b600080604083850312156200351657600080fd5b8235915060208301356200352a81620034cc565b809150509250929050565b600080600080600080600060e0888a0312156200355157600080fd5b87356200355e81620034cc565b96506020880135955060408801359450606088013593506080880135925060a0880135915060c08801356200359381620034cc565b8091505092959891949750929550565b60008060408385031215620035b757600080fd5b8235620035c481620034cc565b946020939093013593505050565b60008060408385031215620035e657600080fd5b8235620035f381620034cc565b9150602083013567ffffffffffffffff8111156200347c57600080fd5b6000602080835260a0808401855183860152828601516040818188015280880151915060608281890152808901519250608080818a015284845180875260c09650868b019150868160051b8c0101898701965060005b82811015620037365760bf198d83030184528751805183528b8101518c8401528781015188840152868101518784015285810151868401528a8101518b840152898101518a84015260e08082015190840152610100808201516001600160a01b03169084015261012080820151151590840152610140808201516101a08286018190529190620036f983870182620032cf565b9250505061016080830151620037128287018215159052565b50506101809182015115159390910192909252968a0196928a019260010162003666565b509c9b505050505050505050505050565b600080602083850312156200375b57600080fd5b823567ffffffffffffffff808211156200377457600080fd5b818501915085601f8301126200378957600080fd5b8135818111156200379957600080fd5b8660208260051b8501011115620037af57600080fd5b60209290920196919550909350505050565b6020808252825182820181905260009190848201906040850190845b81811015620037fb57835183529284019291840191600101620037dd565b50909695505050505050565b600080604083850312156200381b57600080fd5b82359150602083013580151581146200352a57600080fd5b600080604083850312156200384757600080fd5b82356200385481620034cc565b9150602083013563ffffffff811681146200352a57600080fd5b600181811c908216806200388357607f821691505b60208210811415620038a557634e487b7160e01b600052602260045260246000fd5b50919050565b634e487b7160e01b600052601160045260246000fd5b600082821015620038d657620038d6620038ab565b500390565b6000600019821415620038f257620038f2620038ab565b5060010190565b600082198211156200390f576200390f620038ab565b500190565b87815286602082015260018060a01b038616604082015260e0606082015260006200394360e0830187620032cf565b60808301959095525060a081019290925260c090910152949350505050565b6020808252602c908201527f46756e6374696f6e206d7573742062652063616c6c6564207468726f7567682060408201526b19195b1959d85d1958d85b1b60a21b606082015260800190565b6020808252602c908201527f46756e6374696f6e206d7573742062652063616c6c6564207468726f7567682060408201526b6163746976652070726f787960a01b606082015260800190565b6020808252601a908201527f575144414f3a20496e76616c69642070726f706f73616c206964000000000000604082015260600190565b634e487b7160e01b600052603260045260246000fd5b60208082526017908201527f575144414f3a20566f74696e6720697320636c6f736564000000000000000000604082015260600190565b7f416363657373436f6e74726f6c3a206163636f756e742000000000000000000081526000835162003ab8816017850160208801620032a0565b7001034b99036b4b9b9b4b733903937b6329607d1b601791840191820152835162003aeb816028840160208801620032a0565b01602801949350505050565b602081526000620010a16020830184620032cf565b60006020828403121562003b1f57600080fd5b5051919050565b600081600019048311821515161562003b435762003b43620038ab565b500290565b60008262003b6657634e487b7160e01b600052601260045260246000fd5b500490565b60008162003b7d5762003b7d620038ab565b506000190190565b6000825162003b99818460208701620032a0565b919091019291505056fe608060405234801561001057600080fd5b506040516103cd3803806103cd83398101604081905261002f91610062565b60008054336001600160a01b031991821617909155600180549091166001600160a01b0392909216919091179055610092565b60006020828403121561007457600080fd5b81516001600160a01b038116811461008b57600080fd5b9392505050565b61032c806100a16000396000f3fe6080604052600436106100385760003560e01c806312514bba146100775780634162169f146100995780638da5cb5b146100d557600080fd5b36610072576040513481527fa8142743f8f70a4c26f3691cf4ed59718381fb2f18070ec52be1f1022d8555579060200160405180910390a1005b600080fd5b34801561008357600080fd5b506100976100923660046102dd565b6100f5565b005b3480156100a557600080fd5b506000546100b9906001600160a01b031681565b6040516001600160a01b03909116815260200160405180910390f35b3480156100e157600080fd5b506001546100b9906001600160a01b031681565b6000546001600160a01b031633146101605760405162461bcd60e51b815260206004820152602360248201527f5751526f757465725661756c743a2053656e646572206973206e6f7420726f756044820152623a32b960e91b60648201526084015b60405180910390fd5b600154610176906001600160a01b0316826101bf565b600154604080516001600160a01b039092168252602082018390527fe6d858f14d755446648a6e0c8ab8b5a0f58ccc7920d4c910b0454e4dcd869af0910160405180910390a150565b8047101561020f5760405162461bcd60e51b815260206004820152601d60248201527f416464726573733a20696e73756666696369656e742062616c616e63650000006044820152606401610157565b6000826001600160a01b03168260405160006040518083038185875af1925050503d806000811461025c576040519150601f19603f3d011682016040523d82523d6000602084013e610261565b606091505b50509050806102d85760405162461bcd60e51b815260206004820152603a60248201527f416464726573733a20756e61626c6520746f2073656e642076616c75652c207260448201527f6563697069656e74206d617920686176652072657665727465640000000000006064820152608401610157565b505050565b6000602082840312156102ef57600080fd5b503591905056fea26469706673582212209188b5c88e7cb549bd60f6d1e06ea67453933bba3e60f952b5ba0915fbca8e5b64736f6c63430008090033189ab7a9244df0848122154315af71fe140f3db0fe014031783b0946b8c9d2e3360894a13ba1a3210667c828492db98dca3e2076cc3735a920a3ca505d382bbc416464726573733a206c6f772d6c6576656c2064656c65676174652063616c6c206661696c6564a49807205ce4d355092ef5a8a18f56e8913cf4a201fbe287825b095693c21775d83c1a50dc0a09945cd355882e9b92d840723815900d90b54a78888e14a1aceea2646970667358221220e9880fc8b3cb150dd60ea15a2f3fa64cfad9514ba2a0cbc285392899bf03486564736f6c63430008090033",
  "linkReferences": {},
  "deployedLinkReferences": {}
}