{
  "_format": "hh-sol-artifact-1",
  "contractName": "WQStakingWUSD",
  "sourceName": "contracts/WQStakingWUSD.sol",
  "abi": [
    {
      "inputs": [],
      "stateMutability": "nonpayable",
      "type": "constructor"
    },
    {
      "anonymous": false,
      "inputs": [
        {
          "indexed": false,
          "internalType": "address",
          "name": "previousAdmin",
          "type": "address"
        },
        {
          "indexed": false,
          "internalType": "address",
          "name": "newAdmin",
          "type": "address"
        }
      ],
      "name": "AdminChanged",
      "type": "event"
    },
    {
      "anonymous": false,
      "inputs": [
        {
          "indexed": true,
          "internalType": "address",
          "name": "beacon",
          "type": "address"
        }
      ],
      "name": "BeaconUpgraded",
      "type": "event"
    },
    {
      "anonymous": false,
      "inputs": [
        {
          "indexed": false,
          "internalType": "uint256",
          "name": "amount",
          "type": "uint256"
        },
        {
          "indexed": false,
          "internalType": "uint256",
          "name": "time",
          "type": "uint256"
        },
        {
          "indexed": true,
          "internalType": "address",
          "name": "sender",
          "type": "address"
        }
      ],
      "name": "Claimed",
      "type": "event"
    },
    {
      "anonymous": false,
      "inputs": [
        {
          "indexed": false,
          "internalType": "uint256",
          "name": "amount",
          "type": "uint256"
        },
        {
          "indexed": false,
          "internalType": "uint256",
          "name": "time",
          "type": "uint256"
        },
        {
          "indexed": true,
          "internalType": "address",
          "name": "sender",
          "type": "address"
        }
      ],
      "name": "Received",
      "type": "event"
    },
    {
      "anonymous": false,
      "inputs": [
        {
          "indexed": true,
          "internalType": "bytes32",
          "name": "role",
          "type": "bytes32"
        },
        {
          "indexed": true,
          "internalType": "bytes32",
          "name": "previousAdminRole",
          "type": "bytes32"
        },
        {
          "indexed": true,
          "internalType": "bytes32",
          "name": "newAdminRole",
          "type": "bytes32"
        }
      ],
      "name": "RoleAdminChanged",
      "type": "event"
    },
    {
      "anonymous": false,
      "inputs": [
        {
          "indexed": true,
          "internalType": "bytes32",
          "name": "role",
          "type": "bytes32"
        },
        {
          "indexed": true,
          "internalType": "address",
          "name": "account",
          "type": "address"
        },
        {
          "indexed": true,
          "internalType": "address",
          "name": "sender",
          "type": "address"
        }
      ],
      "name": "RoleGranted",
      "type": "event"
    },
    {
      "anonymous": false,
      "inputs": [
        {
          "indexed": true,
          "internalType": "bytes32",
          "name": "role",
          "type": "bytes32"
        },
        {
          "indexed": true,
          "internalType": "address",
          "name": "account",
          "type": "address"
        },
        {
          "indexed": true,
          "internalType": "address",
          "name": "sender",
          "type": "address"
        }
      ],
      "name": "RoleRevoked",
      "type": "event"
    },
    {
      "anonymous": false,
      "inputs": [
        {
          "indexed": false,
          "internalType": "uint256",
          "name": "amount",
          "type": "uint256"
        },
        {
          "indexed": false,
          "internalType": "uint256",
          "name": "time",
          "type": "uint256"
        },
        {
          "indexed": true,
          "internalType": "address",
          "name": "sender",
          "type": "address"
        }
      ],
      "name": "Staked",
      "type": "event"
    },
    {
      "anonymous": false,
      "inputs": [
        {
          "indexed": false,
          "internalType": "uint256",
          "name": "amount",
          "type": "uint256"
        },
        {
          "indexed": false,
          "internalType": "uint256",
          "name": "time",
          "type": "uint256"
        },
        {
          "indexed": true,
          "internalType": "address",
          "name": "sender",
          "type": "address"
        }
      ],
      "name": "Unstaked",
      "type": "event"
    },
    {
      "anonymous": false,
      "inputs": [
        {
          "indexed": true,
          "internalType": "address",
          "name": "implementation",
          "type": "address"
        }
      ],
      "name": "Upgraded",
      "type": "event"
    },
    {
      "inputs": [],
      "name": "ADMIN_ROLE",
      "outputs": [
        {
          "internalType": "bytes32",
          "name": "",
          "type": "bytes32"
        }
      ],
      "stateMutability": "view",
      "type": "function"
    },
    {
      "inputs": [],
      "name": "DEFAULT_ADMIN_ROLE",
      "outputs": [
        {
          "internalType": "bytes32",
          "name": "",
          "type": "bytes32"
        }
      ],
      "stateMutability": "view",
      "type": "function"
    },
    {
      "inputs": [],
      "name": "UPGRADER_ROLE",
      "outputs": [
        {
          "internalType": "bytes32",
          "name": "",
          "type": "bytes32"
        }
      ],
      "stateMutability": "view",
      "type": "function"
    },
    {
      "inputs": [],
      "name": "autoRenewal",
      "outputs": [],
      "stateMutability": "nonpayable",
      "type": "function"
    },
    {
      "inputs": [],
      "name": "claim",
      "outputs": [],
      "stateMutability": "nonpayable",
      "type": "function"
    },
    {
      "inputs": [],
      "name": "claimPeriod",
      "outputs": [
        {
          "internalType": "uint256",
          "name": "",
          "type": "uint256"
        }
      ],
      "stateMutability": "view",
      "type": "function"
    },
    {
      "inputs": [],
      "name": "distributionTime",
      "outputs": [
        {
          "internalType": "uint256",
          "name": "",
          "type": "uint256"
        }
      ],
      "stateMutability": "view",
      "type": "function"
    },
    {
      "inputs": [],
      "name": "earlierProduced",
      "outputs": [
        {
          "internalType": "uint256",
          "name": "",
          "type": "uint256"
        }
      ],
      "stateMutability": "view",
      "type": "function"
    },
    {
      "inputs": [
        {
          "internalType": "address",
          "name": "_staker",
          "type": "address"
        }
      ],
      "name": "getClaim",
      "outputs": [
        {
          "internalType": "uint256",
          "name": "reward",
          "type": "uint256"
        }
      ],
      "stateMutability": "view",
      "type": "function"
    },
    {
      "inputs": [
        {
          "internalType": "address payable",
          "name": "user",
          "type": "address"
        }
      ],
      "name": "getInfoByAddress",
      "outputs": [
        {
          "internalType": "uint256",
          "name": "staked_",
          "type": "uint256"
        },
        {
          "internalType": "uint256",
          "name": "claim_",
          "type": "uint256"
        },
        {
          "internalType": "uint256",
          "name": "_balance",
          "type": "uint256"
        }
      ],
      "stateMutability": "view",
      "type": "function"
    },
    {
      "inputs": [
        {
          "internalType": "bytes32",
          "name": "role",
          "type": "bytes32"
        }
      ],
      "name": "getRoleAdmin",
      "outputs": [
        {
          "internalType": "bytes32",
          "name": "",
          "type": "bytes32"
        }
      ],
      "stateMutability": "view",
      "type": "function"
    },
    {
      "inputs": [],
      "name": "getStakingInfo",
      "outputs": [
        {
          "components": [
            {
              "internalType": "uint256",
              "name": "startTime",
              "type": "uint256"
            },
            {
              "internalType": "uint256",
              "name": "rewardTotal",
              "type": "uint256"
            },
            {
              "internalType": "uint256",
              "name": "distributionTime",
              "type": "uint256"
            },
            {
              "internalType": "uint256",
              "name": "stakePeriod",
              "type": "uint256"
            },
            {
              "internalType": "uint256",
              "name": "claimPeriod",
              "type": "uint256"
            },
            {
              "internalType": "uint256",
              "name": "minStake",
              "type": "uint256"
            },
            {
              "internalType": "uint256",
              "name": "maxStake",
              "type": "uint256"
            },
            {
              "internalType": "uint256",
              "name": "totalStaked",
              "type": "uint256"
            },
            {
              "internalType": "uint256",
              "name": "totalDistributed",
              "type": "uint256"
            }
          ],
          "internalType": "struct WQStakingWUSD.StakeInfo",
          "name": "info_",
          "type": "tuple"
        }
      ],
      "stateMutability": "view",
      "type": "function"
    },
    {
      "inputs": [
        {
          "internalType": "bytes32",
          "name": "role",
          "type": "bytes32"
        },
        {
          "internalType": "address",
          "name": "account",
          "type": "address"
        }
      ],
      "name": "grantRole",
      "outputs": [],
      "stateMutability": "nonpayable",
      "type": "function"
    },
    {
      "inputs": [
        {
          "internalType": "bytes32",
          "name": "role",
          "type": "bytes32"
        },
        {
          "internalType": "address",
          "name": "account",
          "type": "address"
        }
      ],
      "name": "hasRole",
      "outputs": [
        {
          "internalType": "bool",
          "name": "",
          "type": "bool"
        }
      ],
      "stateMutability": "view",
      "type": "function"
    },
    {
      "inputs": [
        {
          "internalType": "uint256",
          "name": "_startTime",
          "type": "uint256"
        },
        {
          "internalType": "uint256",
          "name": "_rewardTotal",
          "type": "uint256"
        },
        {
          "internalType": "uint256",
          "name": "_distributionTime",
          "type": "uint256"
        },
        {
          "internalType": "uint256",
          "name": "_stakePeriod",
          "type": "uint256"
        },
        {
          "internalType": "uint256",
          "name": "_claimPeriod",
          "type": "uint256"
        },
        {
          "internalType": "uint256",
          "name": "_minStake",
          "type": "uint256"
        },
        {
          "internalType": "uint256",
          "name": "_maxStake",
          "type": "uint256"
        },
        {
          "internalType": "address",
          "name": "_token",
          "type": "address"
        }
      ],
      "name": "initialize",
      "outputs": [],
      "stateMutability": "nonpayable",
      "type": "function"
    },
    {
      "inputs": [],
      "name": "maxStake",
      "outputs": [
        {
          "internalType": "uint256",
          "name": "",
          "type": "uint256"
        }
      ],
      "stateMutability": "view",
      "type": "function"
    },
    {
      "inputs": [],
      "name": "minStake",
      "outputs": [
        {
          "internalType": "uint256",
          "name": "",
          "type": "uint256"
        }
      ],
      "stateMutability": "view",
      "type": "function"
    },
    {
      "inputs": [],
      "name": "producedTime",
      "outputs": [
        {
          "internalType": "uint256",
          "name": "",
          "type": "uint256"
        }
      ],
      "stateMutability": "view",
      "type": "function"
    },
    {
      "inputs": [],
      "name": "proxiableUUID",
      "outputs": [
        {
          "internalType": "bytes32",
          "name": "",
          "type": "bytes32"
        }
      ],
      "stateMutability": "view",
      "type": "function"
    },
    {
      "inputs": [
        {
          "internalType": "bytes32",
          "name": "role",
          "type": "bytes32"
        },
        {
          "internalType": "address",
          "name": "account",
          "type": "address"
        }
      ],
      "name": "renounceRole",
      "outputs": [],
      "stateMutability": "nonpayable",
      "type": "function"
    },
    {
      "inputs": [
        {
          "internalType": "bytes32",
          "name": "role",
          "type": "bytes32"
        },
        {
          "internalType": "address",
          "name": "account",
          "type": "address"
        }
      ],
      "name": "revokeRole",
      "outputs": [],
      "stateMutability": "nonpayable",
      "type": "function"
    },
    {
      "inputs": [],
      "name": "rewardProduced",
      "outputs": [
        {
          "internalType": "uint256",
          "name": "",
          "type": "uint256"
        }
      ],
      "stateMutability": "view",
      "type": "function"
    },
    {
      "inputs": [],
      "name": "rewardTotal",
      "outputs": [
        {
          "internalType": "uint256",
          "name": "",
          "type": "uint256"
        }
      ],
      "stateMutability": "view",
      "type": "function"
    },
    {
      "inputs": [
        {
          "internalType": "uint256",
          "name": "_claimPeriod",
          "type": "uint256"
        }
      ],
      "name": "setClaimPeriod",
      "outputs": [],
      "stateMutability": "nonpayable",
      "type": "function"
    },
    {
      "inputs": [
        {
          "internalType": "uint256",
          "name": "amount",
          "type": "uint256"
        }
      ],
      "name": "setEarlierProduced",
      "outputs": [],
      "stateMutability": "nonpayable",
      "type": "function"
    },
    {
      "inputs": [
        {
          "internalType": "uint256",
          "name": "amount",
          "type": "uint256"
        }
      ],
      "name": "setMaxStake",
      "outputs": [],
      "stateMutability": "nonpayable",
      "type": "function"
    },
    {
      "inputs": [
        {
          "internalType": "uint256",
          "name": "amount",
          "type": "uint256"
        }
      ],
      "name": "setMinStake",
      "outputs": [],
      "stateMutability": "nonpayable",
      "type": "function"
    },
    {
      "inputs": [
        {
          "internalType": "uint256",
          "name": "_stakePeriod",
          "type": "uint256"
        }
      ],
      "name": "setStakePeriod",
      "outputs": [],
      "stateMutability": "nonpayable",
      "type": "function"
    },
    {
      "inputs": [
        {
          "internalType": "uint256",
          "name": "amount",
          "type": "uint256"
        }
      ],
      "name": "stake",
      "outputs": [],
      "stateMutability": "nonpayable",
      "type": "function"
    },
    {
      "inputs": [],
      "name": "stakePeriod",
      "outputs": [
        {
          "internalType": "uint256",
          "name": "",
          "type": "uint256"
        }
      ],
      "stateMutability": "view",
      "type": "function"
    },
    {
      "inputs": [
        {
          "internalType": "address",
          "name": "",
          "type": "address"
        }
      ],
      "name": "stakes",
      "outputs": [
        {
          "internalType": "uint256",
          "name": "amount",
          "type": "uint256"
        },
        {
          "internalType": "uint256",
          "name": "rewardAllowed",
          "type": "uint256"
        },
        {
          "internalType": "uint256",
          "name": "rewardDebt",
          "type": "uint256"
        },
        {
          "internalType": "uint256",
          "name": "distributed",
          "type": "uint256"
        },
        {
          "internalType": "uint256",
          "name": "stakedAt",
          "type": "uint256"
        },
        {
          "internalType": "uint256",
          "name": "claimedAt",
          "type": "uint256"
        }
      ],
      "stateMutability": "view",
      "type": "function"
    },
    {
      "inputs": [],
      "name": "startTime",
      "outputs": [
        {
          "internalType": "uint256",
          "name": "",
          "type": "uint256"
        }
      ],
      "stateMutability": "view",
      "type": "function"
    },
    {
      "inputs": [
        {
          "internalType": "bytes4",
          "name": "interfaceId",
          "type": "bytes4"
        }
      ],
      "name": "supportsInterface",
      "outputs": [
        {
          "internalType": "bool",
          "name": "",
          "type": "bool"
        }
      ],
      "stateMutability": "view",
      "type": "function"
    },
    {
      "inputs": [],
      "name": "token",
      "outputs": [
        {
          "internalType": "contract IERC20Upgradeable",
          "name": "",
          "type": "address"
        }
      ],
      "stateMutability": "view",
      "type": "function"
    },
    {
      "inputs": [],
      "name": "tokensPerStake",
      "outputs": [
        {
          "internalType": "uint256",
          "name": "",
          "type": "uint256"
        }
      ],
      "stateMutability": "view",
      "type": "function"
    },
    {
      "inputs": [],
      "name": "totalDistributed",
      "outputs": [
        {
          "internalType": "uint256",
          "name": "",
          "type": "uint256"
        }
      ],
      "stateMutability": "view",
      "type": "function"
    },
    {
      "inputs": [],
      "name": "totalStaked",
      "outputs": [
        {
          "internalType": "uint256",
          "name": "",
          "type": "uint256"
        }
      ],
      "stateMutability": "view",
      "type": "function"
    },
    {
      "inputs": [
        {
          "internalType": "uint256",
          "name": "amount",
          "type": "uint256"
        }
      ],
      "name": "unstake",
      "outputs": [],
      "stateMutability": "nonpayable",
      "type": "function"
    },
    {
      "inputs": [],
      "name": "update",
      "outputs": [],
      "stateMutability": "nonpayable",
      "type": "function"
    },
    {
      "inputs": [
        {
          "internalType": "uint256",
          "name": "_distributionTime",
          "type": "uint256"
        }
      ],
      "name": "updateDistributionTime",
      "outputs": [],
      "stateMutability": "nonpayable",
      "type": "function"
    },
    {
      "inputs": [
        {
          "internalType": "uint256",
          "name": "amount",
          "type": "uint256"
        }
      ],
      "name": "updateRewardTotal",
      "outputs": [],
      "stateMutability": "nonpayable",
      "type": "function"
    },
    {
      "inputs": [
        {
          "internalType": "address",
          "name": "_user",
          "type": "address"
        },
        {
          "internalType": "uint256",
          "name": "amount",
          "type": "uint256"
        },
        {
          "internalType": "uint256",
          "name": "_rewardAllowed",
          "type": "uint256"
        },
        {
          "internalType": "uint256",
          "name": "_rewardDebt",
          "type": "uint256"
        },
        {
          "internalType": "uint256",
          "name": "_distributed",
          "type": "uint256"
        }
      ],
      "name": "updateStakerInfo",
      "outputs": [],
      "stateMutability": "nonpayable",
      "type": "function"
    },
    {
      "inputs": [
        {
          "internalType": "uint256",
          "name": "_tokensPerStake",
          "type": "uint256"
        },
        {
          "internalType": "uint256",
          "name": "_totalStaked",
          "type": "uint256"
        },
        {
          "internalType": "uint256",
          "name": "_totalDistributed",
          "type": "uint256"
        }
      ],
      "name": "updateStakingInfo",
      "outputs": [],
      "stateMutability": "nonpayable",
      "type": "function"
    },
    {
      "inputs": [
        {
          "internalType": "uint256",
          "name": "_startTimeNew",
          "type": "uint256"
        }
      ],
      "name": "updateStartTime",
      "outputs": [],
      "stateMutability": "nonpayable",
      "type": "function"
    },
    {
      "inputs": [
        {
          "internalType": "address",
          "name": "newImplementation",
          "type": "address"
        }
      ],
      "name": "upgradeTo",
      "outputs": [],
      "stateMutability": "nonpayable",
      "type": "function"
    },
    {
      "inputs": [
        {
          "internalType": "address",
          "name": "newImplementation",
          "type": "address"
        },
        {
          "internalType": "bytes",
          "name": "data",
          "type": "bytes"
        }
      ],
      "name": "upgradeToAndCall",
      "outputs": [],
      "stateMutability": "payable",
      "type": "function"
    }
  ],
  "bytecode": "0x60a0604052306080523480156200001557600080fd5b50600054610100900460ff16620000335760005460ff16156200003d565b6200003d620000e2565b620000a55760405162461bcd60e51b815260206004820152602e60248201527f496e697469616c697a61626c653a20636f6e747261637420697320616c72656160448201526d191e481a5b9a5d1a585b1a5e995960921b606482015260840160405180910390fd5b600054610100900460ff16158015620000c8576000805461ffff19166101011790555b8015620000db576000805461ff00191690555b506200010f565b6000620000fa306200010060201b62001a5c1760201c565b15905090565b6001600160a01b03163b151590565b608051612c5b6200014760003960008181610ee901528181610f29015281816111f20152818161123201526112c10152612c5b6000f3fe60806040526004361061027d5760003560e01c806378e979251161014f578063c1699a99116100c1578063e81dccee1161007a578063e81dccee146107f6578063ea1b28e014610816578063efca2eed1461082d578063f72c0d8b14610844578063f959680b14610866578063fc0c546a1461087d57600080fd5b8063c1699a9914610748578063c67f7f771461075f578063cfa527401461077f578063d2c04f431461079f578063d547741f146107bf578063e07ae092146107df57600080fd5b80639060688c116101135780639060688c1461062157806391d148541461065c578063a217fddf1461067c578063a2e6204514610691578063a694fc3a146106a6578063b40cd21d146106c657600080fd5b806378e979251461059c5780637b6e6f4c146105b35780637dc2cd98146105d3578063817b1cd2146105ea5780638c80fd901461060157600080fd5b806334df0796116101f35780634e71d92d116101ac5780634e71d92d146104fd5780634f1ef2861461051257806352d1902d146105255780636b6f4f451461053a5780636fc148371461055a57806375b238fc1461057a57600080fd5b806334df07961461045857806336568abe1461046f5780633659cfe61461048f578063375b3c0a146104af57806349c1cf6e146104c65780634cd3723a146104dd57600080fd5b8063248a9ca311610245578063248a9ca31461039c57806324addbbc146103cc578063260c9676146103e35780632d9c3f1c146104035780632e17de78146104185780632f2ff15d1461043857600080fd5b806301ffc9a71461028257806306bcf02f146102b7578063120658c2146102d957806316934fc4146102fe5780631e6b4c6f1461037c575b600080fd5b34801561028e57600080fd5b506102a261029d366004612556565b6108b6565b60405190151581526020015b60405180910390f35b3480156102c357600080fd5b506102d76102d2366004612580565b6108ed565b005b3480156102e557600080fd5b506102f06101375481565b6040519081526020016102ae565b34801561030a57600080fd5b5061034f6103193660046125ae565b61013b60205260009081526040902080546001820154600283015460038401546004850154600590950154939492939192909186565b604080519687526020870195909552938501929092526060840152608083015260a082015260c0016102ae565b34801561038857600080fd5b506102d7610397366004612580565b61091f565b3480156103a857600080fd5b506102f06103b7366004612580565b60009081526065602052604090206001015490565b3480156103d857600080fd5b506102f06101385481565b3480156103ef57600080fd5b506102d76103fe3660046125cb565b61093f565b34801561040f57600080fd5b506102d761096a565b34801561042457600080fd5b506102d7610433366004612580565b610c8f565b34801561044457600080fd5b506102d76104533660046125f7565b610e35565b34801561046457600080fd5b506102f06101355481565b34801561047b57600080fd5b506102d761048a3660046125f7565b610e60565b34801561049b57600080fd5b506102d76104aa3660046125ae565b610ede565b3480156104bb57600080fd5b506102f06101335481565b3480156104d257600080fd5b506102f06101305481565b3480156104e957600080fd5b506102f06104f83660046125ae565b610fbe565b34801561050957600080fd5b506102d761103b565b6102d761052036600461263d565b6111e7565b34801561053157600080fd5b506102f06112b4565b34801561054657600080fd5b506102d7610555366004612701565b611367565b34801561056657600080fd5b506102d7610575366004612580565b6113b1565b34801561058657600080fd5b506102f0600080516020612c0683398151915281565b3480156105a857600080fd5b506102f061012e5481565b3480156105bf57600080fd5b506102d76105ce366004612580565b6113d1565b3480156105df57600080fd5b506102f06101325481565b3480156105f657600080fd5b506102f06101395481565b34801561060d57600080fd5b506102d761061c366004612580565b611402565b34801561062d57600080fd5b5061064161063c3660046125ae565b611422565b604080519384526020840192909252908201526060016102ae565b34801561066857600080fd5b506102a26106773660046125f7565b61145f565b34801561068857600080fd5b506102f0600081565b34801561069d57600080fd5b506102d761148a565b3480156106b257600080fd5b506102d76106c1366004612580565b6114fd565b3480156106d257600080fd5b506106db611790565b6040516102ae9190600061012082019050825182526020830151602083015260408301516040830152606083015160608301526080830151608083015260a083015160a083015260c083015160c083015260e083015160e083015261010080840151818401525092915050565b34801561075457600080fd5b506102f06101315481565b34801561076b57600080fd5b506102d761077a366004612745565b61183f565b34801561078b57600080fd5b506102d761079a366004612580565b6119c5565b3480156107ab57600080fd5b506102d76107ba366004612580565b6119e5565b3480156107cb57600080fd5b506102d76107da3660046125f7565b611a05565b3480156107eb57600080fd5b506102f06101365481565b34801561080257600080fd5b506102d7610811366004612580565b611a2b565b34801561082257600080fd5b506102f06101345481565b34801561083957600080fd5b506102f061013a5481565b34801561085057600080fd5b506102f0600080516020612b9f83398151915281565b34801561087257600080fd5b506102f061012f5481565b34801561088957600080fd5b5061012d5461089e906001600160a01b031681565b6040516001600160a01b0390911681526020016102ae565b60006001600160e01b03198216637965db0b60e01b14806108e757506301ffc9a760e01b6001600160e01b03198316145b92915050565b600080516020612c068339815191526109068133611a6b565b61090e611acf565b610137555061012e81905561013855565b600080516020612c068339815191526109388133611a6b565b5061013155565b600080516020612c068339815191526109588133611a6b565b50610135929092556101395561013a55565b600260975414156109965760405162461bcd60e51b815260040161098d906127af565b60405180910390fd5b60026097556102586109ab62015180426127fc565b101580156109c8575062014f286109c562015180426127fc565b11155b6109e45760405162461bcd60e51b815260040161098d90612810565b61012e544211610a065760405162461bcd60e51b815260040161098d9061285d565b33600090815261013b60205260409020610132546005820154610a2990426128bb565b11610a855760405162461bcd60e51b815260206004820152602660248201527f57515374616b696e673a20596f752063616e6e6f7420636c61696d20746f6b656044820152651b9cc81e595d60d21b606482015260840161098d565b610131546004820154610a9890426128bb565b11610ab55760405162461bcd60e51b815260040161098d906128d2565b6101395415610ac657610ac661148a565b6000610ad53361013554611b0f565b825461013454919250610ae7916128bb565b811115610b0157815461013454610afe91906128bb565b90505b60008111610b605760405162461bcd60e51b815260206004820152602660248201527f57515374616b696e673a20596f752063616e6e6f74207265696e76657374207260448201526565776172647360d01b606482015260840161098d565b80826000016000828254610b749190612918565b90915550506101355468056bc75e2d6310000090610b929083612930565b610b9c919061294f565b826002016000828254610baf9190612918565b9250508190555080826003016000828254610bca9190612918565b90915550504260048301819055600583015561013a8054829190600090610bf2908490612918565b92505081905550806101396000828254610c0c9190612918565b90915550506040805182815242602082015233917fc09f7b3c1c5b70bf6d30e485a4525d625d4723aed5d319376825446ef135c7ca910160405180910390a26040805182815242602082015233917f1b52f0db6b5f755caa8f232eebe353a340637e6c55969d84b3ee0cee945aa43391015b60405180910390a250506001609755565b60026097541415610cb25760405162461bcd60e51b815260040161098d906127af565b6002609755610258610cc762015180426127fc565b10158015610ce4575062014f28610ce162015180426127fc565b11155b610d005760405162461bcd60e51b815260040161098d90612810565b33600090815261013b602052604090208054821115610d715760405162461bcd60e51b815260206004820152602760248201527f57515374616b696e673a204e6f7420656e6f75676820746f6b656e7320746f20604482015266756e7374616b6560c81b606482015260840161098d565b610d7961148a565b670de0b6b3a76400006101355483610d919190612930565b610d9b919061294f565b816001016000828254610dae9190612918565b9091555050805482908290600090610dc79084906128bb565b92505081905550816101396000828254610de191906128bb565b909155505061012d54610dfe906001600160a01b03163384611b7e565b6040805183815242602082015233917f7d3c803765ec6329bfc61627600c66b23d6663e88dfec119fd0457cd4b7e40439101610c7e565b600082815260656020526040902060010154610e518133611a6b565b610e5b8383611be1565b505050565b6001600160a01b0381163314610ed05760405162461bcd60e51b815260206004820152602f60248201527f416363657373436f6e74726f6c3a2063616e206f6e6c792072656e6f756e636560448201526e103937b632b9903337b91039b2b63360891b606482015260840161098d565b610eda8282611c67565b5050565b306001600160a01b037f0000000000000000000000000000000000000000000000000000000000000000161415610f275760405162461bcd60e51b815260040161098d90612963565b7f00000000000000000000000000000000000000000000000000000000000000006001600160a01b0316610f70600080516020612bbf833981519152546001600160a01b031690565b6001600160a01b031614610f965760405162461bcd60e51b815260040161098d906129af565b610f9f81611cce565b60408051600080825260208201909252610fbb91839190611ce7565b50565b6101355461013954600091901561102a576000610fd9611acf565b9050610136548111156110285760006101365482610ff791906128bb565b6101395490915061101082670de0b6b3a7640000612930565b61101a919061294f565b6110249084612918565b9250505b505b6110348382611b0f565b9392505050565b6002609754141561105e5760405162461bcd60e51b815260040161098d906127af565b600260975561025861107362015180426127fc565b10158015611090575062014f2861108d62015180426127fc565b11155b6110ac5760405162461bcd60e51b815260040161098d90612810565b33600090815261013b602052604090206101325460058201546110cf90426128bb565b116110ec5760405162461bcd60e51b815260040161098d906128d2565b61013954156110fd576110fd61148a565b600061110c3361013554611b0f565b90506000811161115e5760405162461bcd60e51b815260206004820152601b60248201527f57515374616b696e673a204e6f7468696e6720746f20636c61696d0000000000604482015260640161098d565b808260030160008282546111729190612918565b909155505042600583015561013a8054829190600090611193908490612918565b909155505061012d546111b0906001600160a01b03163383611b7e565b6040805182815242602082015233917fc09f7b3c1c5b70bf6d30e485a4525d625d4723aed5d319376825446ef135c7ca9101610c7e565b306001600160a01b037f00000000000000000000000000000000000000000000000000000000000000001614156112305760405162461bcd60e51b815260040161098d90612963565b7f00000000000000000000000000000000000000000000000000000000000000006001600160a01b0316611279600080516020612bbf833981519152546001600160a01b031690565b6001600160a01b03161461129f5760405162461bcd60e51b815260040161098d906129af565b6112a882611cce565b610eda82826001611ce7565b6000306001600160a01b037f000000000000000000000000000000000000000000000000000000000000000016146113545760405162461bcd60e51b815260206004820152603860248201527f555550535570677261646561626c653a206d757374206e6f742062652063616c60448201527f6c6564207468726f7567682064656c656761746563616c6c0000000000000000606482015260840161098d565b50600080516020612bbf83398151915290565b600080516020612c068339815191526113808133611a6b565b506001600160a01b03909416600090815261013b602052604090209283556001830191909155600282015560030155565b600080516020612c068339815191526113ca8133611a6b565b5061013455565b600080516020612c068339815191526113ea8133611a6b565b6113f2611acf565b6101375550426101385561012f55565b600080516020612c0683398151915261141b8133611a6b565b5061013355565b6001600160a01b038116600090815261013b6020526040812080549190819061144a85610fbe565b939593946001600160a01b0316319392505050565b60009182526065602090815260408084206001600160a01b0393909316845291905290205460ff1690565b6000611494611acf565b905061013654811115610fbb57600061013654826114b291906128bb565b61013954909150156114f657610139546114d482670de0b6b3a7640000612930565b6114de919061294f565b61013560008282546114f09190612918565b90915550505b5061013655565b600260975414156115205760405162461bcd60e51b815260040161098d906127af565b600260975561025861153562015180426127fc565b10158015611552575062014f2861154f62015180426127fc565b11155b61156e5760405162461bcd60e51b815260040161098d90612810565b61012e5442116115905760405162461bcd60e51b815260040161098d9061285d565b610133548110156116025760405162461bcd60e51b815260206004820152603660248201527f57515374616b696e673a20416d6f756e742073686f756c642062652067726561604482015275746572207468616e206d696e696d756d207374616b6560501b606482015260840161098d565b33600090815261013b602052604090206101345481546116229084612918565b111561168c5760405162461bcd60e51b815260206004820152603360248201527f57515374616b696e673a20416d6f756e742073686f756c64206265206c657373604482015272207468616e206d6178696d756d207374616b6560681b606482015260840161098d565b61013154600482015461169f90426128bb565b116116bc5760405162461bcd60e51b815260040161098d906128d2565b61013954156116cd576116cd61148a565b670de0b6b3a764000061013554836116e59190612930565b6116ef919061294f565b8160020160008282546117029190612918565b9250508190555081610139600082825461171c9190612918565b9091555050805482908290600090611735908490612918565b909155505042600482015561012d54611759906001600160a01b0316333085611e61565b6040805183815242602082015233917f1b52f0db6b5f755caa8f232eebe353a340637e6c55969d84b3ee0cee945aa4339101610c7e565b6117df6040518061012001604052806000815260200160008152602001600081526020016000815260200160008152602001600081526020016000815260200160008152602001600081525090565b60405180610120016040528061012e54815260200161012f54815260200161013054815260200161013154815260200161013254815260200161013354815260200161013454815260200161013954815260200161013a54815250905090565b600054610100900460ff1661185a5760005460ff161561185e565b303b155b6118c15760405162461bcd60e51b815260206004820152602e60248201527f496e697469616c697a61626c653a20636f6e747261637420697320616c72656160448201526d191e481a5b9a5d1a585b1a5e995960921b606482015260840161098d565b600054610100900460ff161580156118e3576000805461ffff19166101011790555b6118eb611e9f565b6118f3611ec8565b6118fb611e9f565b61012e89905561012f88905561013087905561013186905561013285905561013384905561013483905561013889905561012d80546001600160a01b0319166001600160a01b038416179055611952600033611ef7565b61196a600080516020612c0683398151915233611ef7565b611982600080516020612b9f83398151915233611ef7565b6119a8600080516020612b9f833981519152600080516020612c06833981519152611f01565b80156119ba576000805461ff00191690555b505050505050505050565b600080516020612c068339815191526119de8133611a6b565b5061013755565b600080516020612c068339815191526119fe8133611a6b565b5061013255565b600082815260656020526040902060010154611a218133611a6b565b610e5b8383611c67565b600080516020612c06833981519152611a448133611a6b565b611a4c611acf565b6101375550426101385561013055565b6001600160a01b03163b151590565b611a75828261145f565b610eda57611a8d816001600160a01b03166014611f4c565b611a98836020611f4c565b604051602001611aa9929190612a27565b60408051601f198184030181529082905262461bcd60e51b825261098d91600401612a9c565b6000610130546101385442611ae491906128bb565b61012f54611af29190612930565b611afc919061294f565b61013754611b0a9190612918565b905090565b6001600160a01b038216600090815261013b602052604081206002810154600382015460018301548354670de0b6b3a764000090611b4e908890612930565b611b58919061294f565b611b629190612918565b611b6c91906128bb565b611b7691906128bb565b949350505050565b6040516001600160a01b038316602482015260448101829052610e5b90849063a9059cbb60e01b906064015b60408051601f198184030181529190526020810180516001600160e01b03166001600160e01b0319909316929092179091526120e8565b611beb828261145f565b610eda5760008281526065602090815260408083206001600160a01b03851684529091529020805460ff19166001179055611c233390565b6001600160a01b0316816001600160a01b0316837f2f8788117e7eff1d82e926ec794901d17c78024a50270940304540a733656f0d60405160405180910390a45050565b611c71828261145f565b15610eda5760008281526065602090815260408083206001600160a01b0385168085529252808320805460ff1916905551339285917ff6391f5c32d9c69d2a47ea670b442974b53935d1edc7fd64eb21e047a839171b9190a45050565b600080516020612b9f833981519152610eda8133611a6b565b7f4910fdfa16fed3260ed0e7147f7cc6da11a60208b5b9406d12a635614ffd91435460ff1615611d1a57610e5b836121ba565b826001600160a01b03166352d1902d6040518163ffffffff1660e01b815260040160206040518083038186803b158015611d5357600080fd5b505afa925050508015611d83575060408051601f3d908101601f19168201909252611d8091810190612acf565b60015b611de65760405162461bcd60e51b815260206004820152602e60248201527f45524331393637557067726164653a206e657720696d706c656d656e7461746960448201526d6f6e206973206e6f74205555505360901b606482015260840161098d565b600080516020612bbf8339815191528114611e555760405162461bcd60e51b815260206004820152602960248201527f45524331393637557067726164653a20756e737570706f727465642070726f786044820152681a58589b195555525160ba1b606482015260840161098d565b50610e5b838383612256565b6040516001600160a01b0380851660248301528316604482015260648101829052611e999085906323b872dd60e01b90608401611baa565b50505050565b600054610100900460ff16611ec65760405162461bcd60e51b815260040161098d90612ae8565b565b600054610100900460ff16611eef5760405162461bcd60e51b815260040161098d90612ae8565b611ec661227b565b610eda8282611be1565b600082815260656020526040808220600101805490849055905190918391839186917fbd79b86ffe0ab8e8776151514217cd7cacd52c909f66475c3af44e129f0b00ff9190a4505050565b60606000611f5b836002612930565b611f66906002612918565b67ffffffffffffffff811115611f7e57611f7e612627565b6040519080825280601f01601f191660200182016040528015611fa8576020820181803683370190505b509050600360fc1b81600081518110611fc357611fc3612b33565b60200101906001600160f81b031916908160001a905350600f60fb1b81600181518110611ff257611ff2612b33565b60200101906001600160f81b031916908160001a9053506000612016846002612930565b612021906001612918565b90505b6001811115612099576f181899199a1a9b1b9c1cb0b131b232b360811b85600f166010811061205557612055612b33565b1a60f81b82828151811061206b5761206b612b33565b60200101906001600160f81b031916908160001a90535060049490941c9361209281612b49565b9050612024565b5083156110345760405162461bcd60e51b815260206004820181905260248201527f537472696e67733a20686578206c656e67746820696e73756666696369656e74604482015260640161098d565b600061213d826040518060400160405280602081526020017f5361666545524332303a206c6f772d6c6576656c2063616c6c206661696c6564815250856001600160a01b03166122a99092919063ffffffff16565b805190915015610e5b578080602001905181019061215b9190612b60565b610e5b5760405162461bcd60e51b815260206004820152602a60248201527f5361666545524332303a204552433230206f7065726174696f6e20646964206e6044820152691bdd081cdd58d8d9595960b21b606482015260840161098d565b6001600160a01b0381163b6122275760405162461bcd60e51b815260206004820152602d60248201527f455243313936373a206e657720696d706c656d656e746174696f6e206973206e60448201526c1bdd08184818dbdb9d1c9858dd609a1b606482015260840161098d565b600080516020612bbf83398151915280546001600160a01b0319166001600160a01b0392909216919091179055565b61225f836122b8565b60008251118061226c5750805b15610e5b57611e9983836122f8565b600054610100900460ff166122a25760405162461bcd60e51b815260040161098d90612ae8565b6001609755565b6060611b7684846000856123ec565b6122c1816121ba565b6040516001600160a01b038216907fbc7cd75a20ee27fd9adebab32041f755214dbc6bffa90cc0225b39da2e5c2d3b90600090a250565b60606001600160a01b0383163b6123605760405162461bcd60e51b815260206004820152602660248201527f416464726573733a2064656c65676174652063616c6c20746f206e6f6e2d636f6044820152651b9d1c9858dd60d21b606482015260840161098d565b600080846001600160a01b03168460405161237b9190612b82565b600060405180830381855af49150503d80600081146123b6576040519150601f19603f3d011682016040523d82523d6000602084013e6123bb565b606091505b50915091506123e38282604051806060016040528060278152602001612bdf6027913961251d565b95945050505050565b60608247101561244d5760405162461bcd60e51b815260206004820152602660248201527f416464726573733a20696e73756666696369656e742062616c616e636520666f6044820152651c8818d85b1b60d21b606482015260840161098d565b6001600160a01b0385163b6124a45760405162461bcd60e51b815260206004820152601d60248201527f416464726573733a2063616c6c20746f206e6f6e2d636f6e7472616374000000604482015260640161098d565b600080866001600160a01b031685876040516124c09190612b82565b60006040518083038185875af1925050503d80600081146124fd576040519150601f19603f3d011682016040523d82523d6000602084013e612502565b606091505b509150915061251282828661251d565b979650505050505050565b6060831561252c575081611034565b82511561253c5782518084602001fd5b8160405162461bcd60e51b815260040161098d9190612a9c565b60006020828403121561256857600080fd5b81356001600160e01b03198116811461103457600080fd5b60006020828403121561259257600080fd5b5035919050565b6001600160a01b0381168114610fbb57600080fd5b6000602082840312156125c057600080fd5b813561103481612599565b6000806000606084860312156125e057600080fd5b505081359360208301359350604090920135919050565b6000806040838503121561260a57600080fd5b82359150602083013561261c81612599565b809150509250929050565b634e487b7160e01b600052604160045260246000fd5b6000806040838503121561265057600080fd5b823561265b81612599565b9150602083013567ffffffffffffffff8082111561267857600080fd5b818501915085601f83011261268c57600080fd5b81358181111561269e5761269e612627565b604051601f8201601f19908116603f011681019083821181831017156126c6576126c6612627565b816040528281528860208487010111156126df57600080fd5b8260208601602083013760006020848301015280955050505050509250929050565b600080600080600060a0868803121561271957600080fd5b853561272481612599565b97602087013597506040870135966060810135965060800135945092505050565b600080600080600080600080610100898b03121561276257600080fd5b883597506020890135965060408901359550606089013594506080890135935060a0890135925060c0890135915060e089013561279e81612599565b809150509295985092959890939650565b6020808252601f908201527f5265656e7472616e637947756172643a207265656e7472616e742063616c6c00604082015260600190565b634e487b7160e01b600052601260045260246000fd5b60008261280b5761280b6127e6565b500690565b6020808252602d908201527f57515374616b696e673a204461696c79206c6f636b2066726f6d2032333a353060408201526c20746f2030303a31302055544360981b606082015260800190565b60208082526028908201527f57515374616b696e673a205374616b696e672074696d6520686173206e6f742060408201526718dbdb59481e595d60c21b606082015260800190565b634e487b7160e01b600052601160045260246000fd5b6000828210156128cd576128cd6128a5565b500390565b60208082526026908201527f57515374616b696e673a20596f752063616e6e6f74207374616b6520746f6b656040820152651b9cc81e595d60d21b606082015260800190565b6000821982111561292b5761292b6128a5565b500190565b600081600019048311821515161561294a5761294a6128a5565b500290565b60008261295e5761295e6127e6565b500490565b6020808252602c908201527f46756e6374696f6e206d7573742062652063616c6c6564207468726f7567682060408201526b19195b1959d85d1958d85b1b60a21b606082015260800190565b6020808252602c908201527f46756e6374696f6e206d7573742062652063616c6c6564207468726f7567682060408201526b6163746976652070726f787960a01b606082015260800190565b60005b83811015612a165781810151838201526020016129fe565b83811115611e995750506000910152565b7f416363657373436f6e74726f6c3a206163636f756e7420000000000000000000815260008351612a5f8160178501602088016129fb565b7001034b99036b4b9b9b4b733903937b6329607d1b6017918401918201528351612a908160288401602088016129fb565b01602801949350505050565b6020815260008251806020840152612abb8160408501602087016129fb565b601f01601f19169190910160400192915050565b600060208284031215612ae157600080fd5b5051919050565b6020808252602b908201527f496e697469616c697a61626c653a20636f6e7472616374206973206e6f74206960408201526a6e697469616c697a696e6760a81b606082015260800190565b634e487b7160e01b600052603260045260246000fd5b600081612b5857612b586128a5565b506000190190565b600060208284031215612b7257600080fd5b8151801515811461103457600080fd5b60008251612b948184602087016129fb565b919091019291505056fe189ab7a9244df0848122154315af71fe140f3db0fe014031783b0946b8c9d2e3360894a13ba1a3210667c828492db98dca3e2076cc3735a920a3ca505d382bbc416464726573733a206c6f772d6c6576656c2064656c65676174652063616c6c206661696c6564a49807205ce4d355092ef5a8a18f56e8913cf4a201fbe287825b095693c21775a26469706673582212205d496c50eebb8524797fd9ae7d8dae3e5a71b82b965167da89f3b231242b93ac64736f6c63430008090033",
  "linkReferences": {},
  "deployedLinkReferences": {}
}