{
  "_format": "hh-sol-artifact-1",
  "contractName": "WQDebtAuction",
  "sourceName": "contracts/stablecoin/WQDebtAuction.sol",
  "abi": [
    {
      "inputs": [],
      "stateMutability": "nonpayable",
      "type": "constructor"
    },
    {
      "anonymous": false,
      "inputs": [
        {
          "indexed": false,
          "internalType": "address",
          "name": "previousAdmin",
          "type": "address"
        },
        {
          "indexed": false,
          "internalType": "address",
          "name": "newAdmin",
          "type": "address"
        }
      ],
      "name": "AdminChanged",
      "type": "event"
    },
    {
      "anonymous": false,
      "inputs": [
        {
          "indexed": false,
          "internalType": "uint256",
          "name": "index",
          "type": "uint256"
        },
        {
          "indexed": false,
          "internalType": "uint256",
          "name": "amount",
          "type": "uint256"
        }
      ],
      "name": "AuctionStarted",
      "type": "event"
    },
    {
      "anonymous": false,
      "inputs": [
        {
          "indexed": true,
          "internalType": "address",
          "name": "beacon",
          "type": "address"
        }
      ],
      "name": "BeaconUpgraded",
      "type": "event"
    },
    {
      "anonymous": false,
      "inputs": [
        {
          "indexed": false,
          "internalType": "uint256",
          "name": "index",
          "type": "uint256"
        },
        {
          "indexed": false,
          "internalType": "uint256",
          "name": "amount",
          "type": "uint256"
        }
      ],
      "name": "LotBuyed",
      "type": "event"
    },
    {
      "anonymous": false,
      "inputs": [
        {
          "indexed": false,
          "internalType": "uint256",
          "name": "index",
          "type": "uint256"
        },
        {
          "indexed": false,
          "internalType": "uint256",
          "name": "amount",
          "type": "uint256"
        }
      ],
      "name": "LotCanceled",
      "type": "event"
    },
    {
      "anonymous": false,
      "inputs": [
        {
          "indexed": false,
          "internalType": "address",
          "name": "account",
          "type": "address"
        }
      ],
      "name": "Paused",
      "type": "event"
    },
    {
      "anonymous": false,
      "inputs": [
        {
          "indexed": true,
          "internalType": "bytes32",
          "name": "role",
          "type": "bytes32"
        },
        {
          "indexed": true,
          "internalType": "bytes32",
          "name": "previousAdminRole",
          "type": "bytes32"
        },
        {
          "indexed": true,
          "internalType": "bytes32",
          "name": "newAdminRole",
          "type": "bytes32"
        }
      ],
      "name": "RoleAdminChanged",
      "type": "event"
    },
    {
      "anonymous": false,
      "inputs": [
        {
          "indexed": true,
          "internalType": "bytes32",
          "name": "role",
          "type": "bytes32"
        },
        {
          "indexed": true,
          "internalType": "address",
          "name": "account",
          "type": "address"
        },
        {
          "indexed": true,
          "internalType": "address",
          "name": "sender",
          "type": "address"
        }
      ],
      "name": "RoleGranted",
      "type": "event"
    },
    {
      "anonymous": false,
      "inputs": [
        {
          "indexed": true,
          "internalType": "bytes32",
          "name": "role",
          "type": "bytes32"
        },
        {
          "indexed": true,
          "internalType": "address",
          "name": "account",
          "type": "address"
        },
        {
          "indexed": true,
          "internalType": "address",
          "name": "sender",
          "type": "address"
        }
      ],
      "name": "RoleRevoked",
      "type": "event"
    },
    {
      "anonymous": false,
      "inputs": [
        {
          "indexed": false,
          "internalType": "address",
          "name": "account",
          "type": "address"
        }
      ],
      "name": "Unpaused",
      "type": "event"
    },
    {
      "anonymous": false,
      "inputs": [
        {
          "indexed": true,
          "internalType": "address",
          "name": "implementation",
          "type": "address"
        }
      ],
      "name": "Upgraded",
      "type": "event"
    },
    {
      "inputs": [],
      "name": "ADMIN_ROLE",
      "outputs": [
        {
          "internalType": "bytes32",
          "name": "",
          "type": "bytes32"
        }
      ],
      "stateMutability": "view",
      "type": "function"
    },
    {
      "inputs": [],
      "name": "DEFAULT_ADMIN_ROLE",
      "outputs": [
        {
          "internalType": "bytes32",
          "name": "",
          "type": "bytes32"
        }
      ],
      "stateMutability": "view",
      "type": "function"
    },
    {
      "inputs": [],
      "name": "UPGRADER_ROLE",
      "outputs": [
        {
          "internalType": "bytes32",
          "name": "",
          "type": "bytes32"
        }
      ],
      "stateMutability": "view",
      "type": "function"
    },
    {
      "inputs": [
        {
          "internalType": "uint256",
          "name": "",
          "type": "uint256"
        }
      ],
      "name": "amounts",
      "outputs": [
        {
          "internalType": "uint256",
          "name": "",
          "type": "uint256"
        }
      ],
      "stateMutability": "view",
      "type": "function"
    },
    {
      "inputs": [],
      "name": "auctionDuration",
      "outputs": [
        {
          "internalType": "uint256",
          "name": "",
          "type": "uint256"
        }
      ],
      "stateMutability": "view",
      "type": "function"
    },
    {
      "inputs": [
        {
          "internalType": "uint256",
          "name": "index",
          "type": "uint256"
        },
        {
          "internalType": "uint256",
          "name": "minCost",
          "type": "uint256"
        }
      ],
      "name": "buyLot",
      "outputs": [],
      "stateMutability": "nonpayable",
      "type": "function"
    },
    {
      "inputs": [
        {
          "internalType": "uint256",
          "name": "index",
          "type": "uint256"
        }
      ],
      "name": "cancelLot",
      "outputs": [],
      "stateMutability": "nonpayable",
      "type": "function"
    },
    {
      "inputs": [
        {
          "internalType": "uint256",
          "name": "index",
          "type": "uint256"
        }
      ],
      "name": "getCurrentLotCost",
      "outputs": [
        {
          "internalType": "uint256",
          "name": "",
          "type": "uint256"
        }
      ],
      "stateMutability": "view",
      "type": "function"
    },
    {
      "inputs": [
        {
          "internalType": "string",
          "name": "symbol",
          "type": "string"
        }
      ],
      "name": "getDebtAmount",
      "outputs": [
        {
          "internalType": "uint256",
          "name": "",
          "type": "uint256"
        }
      ],
      "stateMutability": "view",
      "type": "function"
    },
    {
      "inputs": [
        {
          "internalType": "bytes32",
          "name": "role",
          "type": "bytes32"
        }
      ],
      "name": "getRoleAdmin",
      "outputs": [
        {
          "internalType": "bytes32",
          "name": "",
          "type": "bytes32"
        }
      ],
      "stateMutability": "view",
      "type": "function"
    },
    {
      "inputs": [
        {
          "internalType": "bytes32",
          "name": "role",
          "type": "bytes32"
        },
        {
          "internalType": "address",
          "name": "account",
          "type": "address"
        }
      ],
      "name": "grantRole",
      "outputs": [],
      "stateMutability": "nonpayable",
      "type": "function"
    },
    {
      "inputs": [
        {
          "internalType": "bytes32",
          "name": "role",
          "type": "bytes32"
        },
        {
          "internalType": "address",
          "name": "account",
          "type": "address"
        }
      ],
      "name": "hasRole",
      "outputs": [
        {
          "internalType": "bool",
          "name": "",
          "type": "bool"
        }
      ],
      "stateMutability": "view",
      "type": "function"
    },
    {
      "inputs": [
        {
          "internalType": "address",
          "name": "_oracle",
          "type": "address"
        },
        {
          "internalType": "address",
          "name": "_router",
          "type": "address"
        },
        {
          "internalType": "uint256",
          "name": "_auctionDuration",
          "type": "uint256"
        },
        {
          "internalType": "uint256",
          "name": "_upperBoundCost",
          "type": "uint256"
        },
        {
          "internalType": "uint256",
          "name": "_lowerBoundCost",
          "type": "uint256"
        },
        {
          "internalType": "uint256",
          "name": "_maxLotAmountFactor",
          "type": "uint256"
        }
      ],
      "name": "initialize",
      "outputs": [],
      "stateMutability": "nonpayable",
      "type": "function"
    },
    {
      "inputs": [
        {
          "internalType": "uint256",
          "name": "",
          "type": "uint256"
        }
      ],
      "name": "lots",
      "outputs": [
        {
          "internalType": "uint256",
          "name": "index",
          "type": "uint256"
        },
        {
          "internalType": "uint256",
          "name": "amount",
          "type": "uint256"
        },
        {
          "internalType": "uint256",
          "name": "endTime",
          "type": "uint256"
        },
        {
          "internalType": "uint256",
          "name": "price",
          "type": "uint256"
        },
        {
          "internalType": "enum WQDebtAuction.LotStatus",
          "name": "status",
          "type": "uint8"
        },
        {
          "internalType": "string",
          "name": "symbol",
          "type": "string"
        }
      ],
      "stateMutability": "view",
      "type": "function"
    },
    {
      "inputs": [],
      "name": "lowerBoundCost",
      "outputs": [
        {
          "internalType": "uint256",
          "name": "",
          "type": "uint256"
        }
      ],
      "stateMutability": "view",
      "type": "function"
    },
    {
      "inputs": [],
      "name": "maxLotAmountFactor",
      "outputs": [
        {
          "internalType": "uint256",
          "name": "",
          "type": "uint256"
        }
      ],
      "stateMutability": "view",
      "type": "function"
    },
    {
      "inputs": [],
      "name": "oracle",
      "outputs": [
        {
          "internalType": "contract WQPriceOracleInterface",
          "name": "",
          "type": "address"
        }
      ],
      "stateMutability": "view",
      "type": "function"
    },
    {
      "inputs": [],
      "name": "pause",
      "outputs": [],
      "stateMutability": "nonpayable",
      "type": "function"
    },
    {
      "inputs": [],
      "name": "paused",
      "outputs": [
        {
          "internalType": "bool",
          "name": "",
          "type": "bool"
        }
      ],
      "stateMutability": "view",
      "type": "function"
    },
    {
      "inputs": [],
      "name": "proxiableUUID",
      "outputs": [
        {
          "internalType": "bytes32",
          "name": "",
          "type": "bytes32"
        }
      ],
      "stateMutability": "view",
      "type": "function"
    },
    {
      "inputs": [
        {
          "internalType": "bytes32",
          "name": "role",
          "type": "bytes32"
        },
        {
          "internalType": "address",
          "name": "account",
          "type": "address"
        }
      ],
      "name": "renounceRole",
      "outputs": [],
      "stateMutability": "nonpayable",
      "type": "function"
    },
    {
      "inputs": [
        {
          "internalType": "bytes32",
          "name": "role",
          "type": "bytes32"
        },
        {
          "internalType": "address",
          "name": "account",
          "type": "address"
        }
      ],
      "name": "revokeRole",
      "outputs": [],
      "stateMutability": "nonpayable",
      "type": "function"
    },
    {
      "inputs": [],
      "name": "router",
      "outputs": [
        {
          "internalType": "contract WQRouterInterface",
          "name": "",
          "type": "address"
        }
      ],
      "stateMutability": "view",
      "type": "function"
    },
    {
      "inputs": [
        {
          "internalType": "uint256",
          "name": "duration",
          "type": "uint256"
        }
      ],
      "name": "setAuctionDuration",
      "outputs": [],
      "stateMutability": "nonpayable",
      "type": "function"
    },
    {
      "inputs": [
        {
          "internalType": "uint256",
          "name": "percent",
          "type": "uint256"
        }
      ],
      "name": "setLowerBoundCost",
      "outputs": [],
      "stateMutability": "nonpayable",
      "type": "function"
    },
    {
      "inputs": [
        {
          "internalType": "uint256",
          "name": "percent",
          "type": "uint256"
        }
      ],
      "name": "setMaxLotAmountFactor",
      "outputs": [],
      "stateMutability": "nonpayable",
      "type": "function"
    },
    {
      "inputs": [
        {
          "internalType": "address",
          "name": "_oracle",
          "type": "address"
        }
      ],
      "name": "setOracle",
      "outputs": [],
      "stateMutability": "nonpayable",
      "type": "function"
    },
    {
      "inputs": [
        {
          "internalType": "address",
          "name": "_router",
          "type": "address"
        }
      ],
      "name": "setRouter",
      "outputs": [],
      "stateMutability": "nonpayable",
      "type": "function"
    },
    {
      "inputs": [
        {
          "internalType": "address",
          "name": "token",
          "type": "address"
        },
        {
          "internalType": "string",
          "name": "symbol",
          "type": "string"
        }
      ],
      "name": "setToken",
      "outputs": [],
      "stateMutability": "nonpayable",
      "type": "function"
    },
    {
      "inputs": [
        {
          "internalType": "uint256",
          "name": "percent",
          "type": "uint256"
        }
      ],
      "name": "setUpperBoundCost",
      "outputs": [],
      "stateMutability": "nonpayable",
      "type": "function"
    },
    {
      "inputs": [
        {
          "internalType": "uint256",
          "name": "amount",
          "type": "uint256"
        },
        {
          "internalType": "string",
          "name": "symbol",
          "type": "string"
        }
      ],
      "name": "startAuction",
      "outputs": [],
      "stateMutability": "nonpayable",
      "type": "function"
    },
    {
      "inputs": [
        {
          "internalType": "bytes4",
          "name": "interfaceId",
          "type": "bytes4"
        }
      ],
      "name": "supportsInterface",
      "outputs": [
        {
          "internalType": "bool",
          "name": "",
          "type": "bool"
        }
      ],
      "stateMutability": "view",
      "type": "function"
    },
    {
      "inputs": [
        {
          "internalType": "string",
          "name": "",
          "type": "string"
        }
      ],
      "name": "tokens",
      "outputs": [
        {
          "internalType": "contract IERC20MetadataUpgradeable",
          "name": "",
          "type": "address"
        }
      ],
      "stateMutability": "view",
      "type": "function"
    },
    {
      "inputs": [],
      "name": "totalAuctioned",
      "outputs": [
        {
          "internalType": "uint256",
          "name": "",
          "type": "uint256"
        }
      ],
      "stateMutability": "view",
      "type": "function"
    },
    {
      "inputs": [],
      "name": "unpause",
      "outputs": [],
      "stateMutability": "nonpayable",
      "type": "function"
    },
    {
      "inputs": [
        {
          "internalType": "address",
          "name": "newImplementation",
          "type": "address"
        }
      ],
      "name": "upgradeTo",
      "outputs": [],
      "stateMutability": "nonpayable",
      "type": "function"
    },
    {
      "inputs": [
        {
          "internalType": "address",
          "name": "newImplementation",
          "type": "address"
        },
        {
          "internalType": "bytes",
          "name": "data",
          "type": "bytes"
        }
      ],
      "name": "upgradeToAndCall",
      "outputs": [],
      "stateMutability": "payable",
      "type": "function"
    },
    {
      "inputs": [],
      "name": "upperBoundCost",
      "outputs": [
        {
          "internalType": "uint256",
          "name": "",
          "type": "uint256"
        }
      ],
      "stateMutability": "view",
      "type": "function"
    }
  ],
  "bytecode": "0x60a0604052306080523480156200001557600080fd5b50600054610100900460ff16620000335760005460ff16156200003d565b6200003d620000e2565b620000a55760405162461bcd60e51b815260206004820152602e60248201527f496e697469616c697a61626c653a20636f6e747261637420697320616c72656160448201526d191e481a5b9a5d1a585b1a5e995960921b606482015260840160405180910390fd5b600054610100900460ff16158015620000c8576000805461ffff19166101011790555b8015620000db576000805461ff00191690555b506200010f565b6000620000fa306200010060201b62001d311760201c565b15905090565b6001600160a01b03163b151590565b6080516131756200014760003960008181610d6101528181610da101528181610e8401528181610ec40152610f5301526131756000f3fe6080604052600436106102255760003560e01c806375f4442e11610123578063b32fdcea116100ab578063f72c0d8b1161006f578063f72c0d8b14610672578063f887ea4014610694578063fdad53db146106b5578063ff2ab229146106d5578063ffb67186146106ec57600080fd5b8063b32fdcea146105c0578063c0d78655146105e0578063d547741f14610600578063e2a07a0714610620578063f1648e841461064057600080fd5b80638456cb59116100f25780638456cb591461053657806386489ba91461054b57806391d148541461056b578063a217fddf1461058b578063a497e674146105a057600080fd5b806375f4442e146104b55780637adbf973146104d55780637bb8e8bc146104f55780637dc0d1d01461051557600080fd5b80633659cfe6116101b157806352d1902d1161017557806352d1902d14610426578063535bb8671461043b5780635c975abb1461045b57806364ad7ad71461047357806375b238fc1461049357600080fd5b80633659cfe6146103a75780633f4ba83a146103c7578063403b74ed146103dc57806345f0a44f146103f35780634f1ef2861461041357600080fd5b8063118941ae116101f8578063118941ae1461030057806323469c4e14610320578063248a9ca3146103375780632f2ff15d1461036757806336568abe1461038757600080fd5b806301ffc9a71461022a57806304c2320b1461025f5780630a180f27146102b95780630cbf54c8146102db575b600080fd5b34801561023657600080fd5b5061024a610245366004612757565b610703565b60405190151581526020015b60405180910390f35b34801561026b57600080fd5b506102a161027a36600461280d565b8051602081830181018051610166825292820191909301209152546001600160a01b031681565b6040516001600160a01b039091168152602001610256565b3480156102c557600080fd5b506102d96102d4366004612856565b61073a565b005b3480156102e757600080fd5b506102f26101615481565b604051908152602001610256565b34801561030c57600080fd5b506102f261031b36600461280d565b610a03565b34801561032c57600080fd5b506102f26101645481565b34801561034357600080fd5b506102f2610352366004612856565b60009081526065602052604090206001015490565b34801561037357600080fd5b506102d961038236600461288b565b610cad565b34801561039357600080fd5b506102d96103a236600461288b565b610cd8565b3480156103b357600080fd5b506102d96103c23660046128b7565b610d56565b3480156103d357600080fd5b506102d9610e36565b3480156103e857600080fd5b506102f26101625481565b3480156103ff57600080fd5b506102f261040e366004612856565b610e57565b6102d96104213660046128d2565b610e79565b34801561043257600080fd5b506102f2610f46565b34801561044757600080fd5b506102f2610456366004612856565b610ff9565b34801561046757600080fd5b5060975460ff1661024a565b34801561047f57600080fd5b506102d961048e366004612856565b61108c565b34801561049f57600080fd5b506102f260008051602061312083398151915281565b3480156104c157600080fd5b506102d96104d0366004612856565b6110ac565b3480156104e157600080fd5b506102d96104f03660046128b7565b6110cc565b34801561050157600080fd5b506102d961051036600461297d565b611109565b34801561052157600080fd5b5061015f546102a1906001600160a01b031681565b34801561054257600080fd5b506102d9611645565b34801561055757600080fd5b506102d96105663660046129c9565b611666565b34801561057757600080fd5b5061024a61058636600461288b565b6117f0565b34801561059757600080fd5b506102f2600081565b3480156105ac57600080fd5b506102d96105bb366004612856565b61181b565b3480156105cc57600080fd5b506102d96105db366004612a1e565b61183b565b3480156105ec57600080fd5b506102d96105fb3660046128b7565b611b86565b34801561060c57600080fd5b506102d961061b36600461288b565b611bc3565b34801561062c57600080fd5b506102d961063b366004612856565b611be9565b34801561064c57600080fd5b5061066061065b366004612856565b611c09565b60405161025696959493929190612aae565b34801561067e57600080fd5b506102f26000805160206130b983398151915281565b3480156106a057600080fd5b50610160546102a1906001600160a01b031681565b3480156106c157600080fd5b506102d96106d0366004612b09565b611ccf565b3480156106e157600080fd5b506102f26101635481565b3480156106f857600080fd5b506102f26101655481565b60006001600160e01b03198216637965db0b60e01b148061073457506301ffc9a760e01b6001600160e01b03198316145b92915050565b600260c95414156107665760405162461bcd60e51b815260040161075d90612b43565b60405180910390fd5b600260c95560975460ff161561078e5760405162461bcd60e51b815260040161075d90612b7a565b6000818152610167602052604090206001600482015460ff1660028111156107b8576107b8612a40565b146108055760405162461bcd60e51b815260206004820152601f60248201527f575141756374696f6e3a204c6f74206973206e6f742061756374696f6e656400604482015260640161075d565b806002015442116108685760405162461bcd60e51b815260206004820152602760248201527f575141756374696f6e3a2041756374696f6e2074696d65206973206e6f74206f6044820152661d995c881e595d60ca1b606482015260840161075d565b806001015461016882600001548154811061088557610885612ba4565b906000526020600020015414156109fa57806001015461016560008282546108ad9190612bd0565b9091555050805460018201546040517f2f5d6db7bddb2094476f65b2865180ce1888601bc9e022cab86d994a487af9a0926108f092908252602082015260400190565b60405180910390a1610168805461090990600190612bd0565b8154811061091957610919612ba4565b906000526020600020015461016882600001548154811061093c5761093c612ba4565b90600052602060002001819055508060000154610167600061016884600001548154811061096c5761096c612ba4565b906000526020600020015481526020019081526020016000206000018190555061016880548061099e5761099e612be7565b60008281526020808220830160001990810183905590920190925583825261016790526040812081815560018101829055600281018290556003810182905560048101805460ff19169055906109f76005830182612684565b50505b5050600160c955565b60008061016683604051610a179190612bfd565b90815260408051602092819003830181205463313ce56760e01b825291516001600160a01b039092169263313ce56792600480840193829003018186803b158015610a6157600080fd5b505afa158015610a75573d6000803e3d6000fd5b505050506040513d601f19601f82011682018060405250810190610a999190612c19565b610aa4906012612c3c565b610aaf90600a612d43565b61015f54604051630292e0fd60e01b81526001600160a01b0390911690630292e0fd90610ae0908790600401612d52565b60206040518083038186803b158015610af857600080fd5b505afa158015610b0c573d6000803e3d6000fd5b505050506040513d601f19601f82011682018060405250810190610b309190612d65565b61016054604051632ed4877d60e21b81526001600160a01b039091169063bb521df490610b61908890600401612d52565b60206040518083038186803b158015610b7957600080fd5b505afa158015610b8d573d6000803e3d6000fd5b505050506040513d601f19601f82011682018060405250810190610bb19190612d65565b610bbb9190612d7e565b610bc59190612d7e565b61016054604051638c1e06f160e01b81529192506000916001600160a01b0390911690638c1e06f190610bfc908790600401612d52565b60206040518083038186803b158015610c1457600080fd5b505afa158015610c28573d6000803e3d6000fd5b505050506040513d601f19601f82011682018060405250810190610c4c9190612d65565b90506729a2241af62c0000610c62836002612d7e565b610c6c9190612d9d565b811115610ca3576729a2241af62c0000610c87836002612d7e565b610c919190612d9d565b610c9b9082612bd0565b949350505050565b5060009392505050565b600082815260656020526040902060010154610cc98133611d40565b610cd38383611da4565b505050565b6001600160a01b0381163314610d485760405162461bcd60e51b815260206004820152602f60248201527f416363657373436f6e74726f6c3a2063616e206f6e6c792072656e6f756e636560448201526e103937b632b9903337b91039b2b63360891b606482015260840161075d565b610d528282611e2a565b5050565b306001600160a01b037f0000000000000000000000000000000000000000000000000000000000000000161415610d9f5760405162461bcd60e51b815260040161075d90612dbf565b7f00000000000000000000000000000000000000000000000000000000000000006001600160a01b0316610de86000805160206130d9833981519152546001600160a01b031690565b6001600160a01b031614610e0e5760405162461bcd60e51b815260040161075d90612e0b565b610e1781611e91565b60408051600080825260208201909252610e3391839190611eaa565b50565b600080516020613120833981519152610e4f8133611d40565b610e33612024565b6101688181548110610e6857600080fd5b600091825260209091200154905081565b306001600160a01b037f0000000000000000000000000000000000000000000000000000000000000000161415610ec25760405162461bcd60e51b815260040161075d90612dbf565b7f00000000000000000000000000000000000000000000000000000000000000006001600160a01b0316610f0b6000805160206130d9833981519152546001600160a01b031690565b6001600160a01b031614610f315760405162461bcd60e51b815260040161075d90612e0b565b610f3a82611e91565b610d5282826001611eaa565b6000306001600160a01b037f00000000000000000000000000000000000000000000000000000000000000001614610fe65760405162461bcd60e51b815260206004820152603860248201527f555550535570677261646561626c653a206d757374206e6f742062652063616c60448201527f6c6564207468726f7567682064656c656761746563616c6c0000000000000000606482015260840161075d565b506000805160206130d983398151915290565b6000818152610167602052604081206001600482015460ff16600281111561102357611023612a40565b1461107c5760405162461bcd60e51b8152602060048201526024808201527f575141756374696f6e3a2054686973206c6f74206973206e6f742061756374696044820152631bdb995960e21b606482015260840161075d565b611085816120b7565b9392505050565b6000805160206131208339815191526110a58133611d40565b5061016255565b6000805160206131208339815191526110c58133611d40565b5061016455565b6000805160206131208339815191526110e58133611d40565b5061015f80546001600160a01b0319166001600160a01b0392909216919091179055565b600260c954141561112c5760405162461bcd60e51b815260040161075d90612b43565b600260c95560975460ff16156111545760405162461bcd60e51b815260040161075d90612b7a565b60006001600160a01b03166101668383604051611172929190612e57565b908152604051908190036020019020546001600160a01b031614156111e35760405162461bcd60e51b815260206004820152602160248201527f575141756374696f6e3a205468697320746f6b656e2069732064697361626c656044820152601960fa1b606482015260840161075d565b6000831161123d5760405162461bcd60e51b815260206004820152602160248201527f575141756374696f6e3a20496e636f727265637420616d6f756e742076616c756044820152606560f81b606482015260840161075d565b60016000848152610167602052604090206004015460ff16600281111561126657611266612a40565b14156112d2576000838152610167602052604090206002015442116112cd5760405162461bcd60e51b815260206004820152601f60248201527f575141756374696f6e3a204c6f742069732061756374696f6e65642079657400604482015260640161075d565b6112eb565b8261016560008282546112e59190612e67565b90915550505b600061132c83838080601f016020809104026020016040519081016040528093929190818152602001838380828437600092019190915250610a0392505050565b90508061016554111561139d5760405162461bcd60e51b815260206004820152603360248201527f575141756374696f6e3a20416d6f756e74206f662062696420697320677265616044820152721d195c881d1a185b881d1bdd185b081919589d606a1b606482015260840161075d565b61016454816113b486670de0b6b3a7640000612d7e565b6113be9190612d9d565b11156113dc5760405162461bcd60e51b815260040161075d90612e7f565b60008481526101676020526040902054610168548110158061142d5750600085815261016760205260409020546101688054879290811061141f5761141f612ba4565b906000526020600020015414155b156114795761016880546001818101835560008390527f8077777ae4769de06cbfd1c0b8b1f653b51ec156d91a9aca16a4102f19e03d9e90910187905590546114769190612bd0565b90505b6040518060c00160405280828152602001868152602001610161544261149f9190612e67565b815261015f54604051630292e0fd60e01b8152602060048201819052600360248301526215d45560ea1b6044830152909201916001600160a01b0390911690630292e0fd9060640160206040518083038186803b1580156114ff57600080fd5b505afa158015611513573d6000803e3d6000fd5b505050506040513d601f19601f820116820180604052508101906115379190612d65565b81526020016001815260200185858080601f016020809104026020016040519081016040528093929190818152602001838380828437600092018290525093909452505087815261016760209081526040918290208451815590840151600180830191909155918401516002808301919091556060850151600383015560808501516004830180549395509093909260ff19169184908111156115dc576115dc612a40565b021790555060a082015180516115fc9160058401916020909101906126be565b505060408051838152602081018890527ff8910119ddbef5440c54532457dfe8250a10ed39e583292818f44724b9e1344c9250015b60405180910390a15050600160c955505050565b60008051602061312083398151915261165e8133611d40565b610e3361211f565b600054610100900460ff166116815760005460ff1615611685565b303b155b6116e85760405162461bcd60e51b815260206004820152602e60248201527f496e697469616c697a61626c653a20636f6e747261637420697320616c72656160448201526d191e481a5b9a5d1a585b1a5e995960921b606482015260840161075d565b600054610100900460ff1615801561170a576000805461ffff19166101011790555b611712612177565b61171a6121a0565b6117226121cf565b61172a612177565b6117356000336121fe565b61174d600080516020613120833981519152336121fe565b6117656000805160206130b9833981519152336121fe565b61178b6000805160206130b9833981519152600080516020613120833981519152612208565b61015f80546001600160a01b03808a166001600160a01b03199283161790925561016080549289169290911691909117905561016185905561016284905561016383905561016482905580156117e7576000805461ff00191690555b50505050505050565b60009182526065602090815260408084206001600160a01b0393909316845291905290205460ff1690565b6000805160206131208339815191526118348133611d40565b5061016155565b600260c954141561185e5760405162461bcd60e51b815260040161075d90612b43565b600260c95560975460ff16156118865760405162461bcd60e51b815260040161075d90612b7a565b6000828152610167602052604090206001600482015460ff1660028111156118b0576118b0612a40565b146118fd5760405162461bcd60e51b815260206004820152601f60248201527f575141756374696f6e3a204c6f74206973206e6f742061756374696f6e656400604482015260640161075d565b80600201544211156119515760405162461bcd60e51b815260206004820152601f60248201527f575141756374696f6e3a2041756374696f6e2074696d65206973206f76657200604482015260640161075d565b60006119e882600501805461196590612edc565b80601f016020809104026020016040519081016040528092919081815260200182805461199190612edc565b80156119de5780601f106119b3576101008083540402835291602001916119de565b820191906000526020600020905b8154815290600101906020018083116119c157829003601f168201915b5050505050610a03565b9050600081118015611a1f575061016454818360010154670de0b6b3a7640000611a129190612d7e565b611a1c9190612d9d565b11155b611a3b5760405162461bcd60e51b815260040161075d90612e7f565b6000611a46836120b7565b90508315611aaf5783811015611aaf5760405162461bcd60e51b815260206004820152602860248201527f575141756374696f6e3a2043757272656e7420636f7374206973206c65617374604482015267206d696e696d756d60c01b606482015260840161075d565b82600101546101656000828254611ac69190612bd0565b90915550506004838101805460ff19166002179055610160546001850154604051637fb95f6760e01b81526001600160a01b0390921692637fb95f6792611b16923392879260058b019101612f17565b600060405180830381600087803b158015611b3057600080fd5b505af1158015611b44573d6000803e3d6000fd5b5050845460018601546040517fd6e7678fa971a6655c284a5ed1b69b1419aecc0c105b8ddecf55a73ef0076c7994506116319350918252602082015260400190565b600080516020613120833981519152611b9f8133611d40565b5061016080546001600160a01b0319166001600160a01b0392909216919091179055565b600082815260656020526040902060010154611bdf8133611d40565b610cd38383611e2a565b600080516020613120833981519152611c028133611d40565b5061016355565b61016760205260009081526040902080546001820154600283015460038401546004850154600586018054959694959394929360ff9092169291611c4c90612edc565b80601f0160208091040260200160405190810160405280929190818152602001828054611c7890612edc565b8015611cc55780601f10611c9a57610100808354040283529160200191611cc5565b820191906000526020600020905b815481529060010190602001808311611ca857829003601f168201915b5050505050905086565b600080516020613120833981519152611ce88133611d40565b836101668484604051611cfc929190612e57565b90815260405190819003602001902080546001600160a01b03929092166001600160a01b031990921691909117905550505050565b6001600160a01b03163b151590565b611d4a82826117f0565b610d5257611d62816001600160a01b03166014612253565b611d6d836020612253565b604051602001611d7e929190612fe1565b60408051601f198184030181529082905262461bcd60e51b825261075d91600401612d52565b611dae82826117f0565b610d525760008281526065602090815260408083206001600160a01b03851684529091529020805460ff19166001179055611de63390565b6001600160a01b0316816001600160a01b0316837f2f8788117e7eff1d82e926ec794901d17c78024a50270940304540a733656f0d60405160405180910390a45050565b611e3482826117f0565b15610d525760008281526065602090815260408083206001600160a01b0385168085529252808320805460ff1916905551339285917ff6391f5c32d9c69d2a47ea670b442974b53935d1edc7fd64eb21e047a839171b9190a45050565b6000805160206130b9833981519152610d528133611d40565b7f4910fdfa16fed3260ed0e7147f7cc6da11a60208b5b9406d12a635614ffd91435460ff1615611edd57610cd3836123ef565b826001600160a01b03166352d1902d6040518163ffffffff1660e01b815260040160206040518083038186803b158015611f1657600080fd5b505afa925050508015611f46575060408051601f3d908101601f19168201909252611f4391810190612d65565b60015b611fa95760405162461bcd60e51b815260206004820152602e60248201527f45524331393637557067726164653a206e657720696d706c656d656e7461746960448201526d6f6e206973206e6f74205555505360901b606482015260840161075d565b6000805160206130d983398151915281146120185760405162461bcd60e51b815260206004820152602960248201527f45524331393637557067726164653a20756e737570706f727465642070726f786044820152681a58589b195555525160ba1b606482015260840161075d565b50610cd383838361248b565b60975460ff1661206d5760405162461bcd60e51b815260206004820152601460248201527314185d5cd8589b194e881b9bdd081c185d5cd95960621b604482015260640161075d565b6097805460ff191690557f5db9ee0a495bf2e6ff9c91a7834c1ba4fdd244a5e8aa4e537bd38aeae4b073aa335b6040516001600160a01b03909116815260200160405180910390a1565b600081600301548260010154610161544285600201546120d79190612bd0565b61016354610162546120e99190612bd0565b6120f39190612d7e565b6120fd9190612d9d565b6101625461210b9190612bd0565b6121159190612d7e565b6107349190612d9d565b60975460ff16156121425760405162461bcd60e51b815260040161075d90612b7a565b6097805460ff191660011790557f62e78cea01bee320cd4e420270b5ea74000d11b0c9f74754ebdbfc544b05a25861209a3390565b600054610100900460ff1661219e5760405162461bcd60e51b815260040161075d90613056565b565b600054610100900460ff166121c75760405162461bcd60e51b815260040161075d90613056565b61219e6124b6565b600054610100900460ff166121f65760405162461bcd60e51b815260040161075d90613056565b61219e6124e4565b610d528282611da4565b600082815260656020526040808220600101805490849055905190918391839186917fbd79b86ffe0ab8e8776151514217cd7cacd52c909f66475c3af44e129f0b00ff9190a4505050565b60606000612262836002612d7e565b61226d906002612e67565b67ffffffffffffffff81111561228557612285612781565b6040519080825280601f01601f1916602001820160405280156122af576020820181803683370190505b509050600360fc1b816000815181106122ca576122ca612ba4565b60200101906001600160f81b031916908160001a905350600f60fb1b816001815181106122f9576122f9612ba4565b60200101906001600160f81b031916908160001a905350600061231d846002612d7e565b612328906001612e67565b90505b60018111156123a0576f181899199a1a9b1b9c1cb0b131b232b360811b85600f166010811061235c5761235c612ba4565b1a60f81b82828151811061237257612372612ba4565b60200101906001600160f81b031916908160001a90535060049490941c93612399816130a1565b905061232b565b5083156110855760405162461bcd60e51b815260206004820181905260248201527f537472696e67733a20686578206c656e67746820696e73756666696369656e74604482015260640161075d565b6001600160a01b0381163b61245c5760405162461bcd60e51b815260206004820152602d60248201527f455243313936373a206e657720696d706c656d656e746174696f6e206973206e60448201526c1bdd08184818dbdb9d1c9858dd609a1b606482015260840161075d565b6000805160206130d983398151915280546001600160a01b0319166001600160a01b0392909216919091179055565b61249483612517565b6000825111806124a15750805b15610cd3576124b08383612557565b50505050565b600054610100900460ff166124dd5760405162461bcd60e51b815260040161075d90613056565b600160c955565b600054610100900460ff1661250b5760405162461bcd60e51b815260040161075d90613056565b6097805460ff19169055565b612520816123ef565b6040516001600160a01b038216907fbc7cd75a20ee27fd9adebab32041f755214dbc6bffa90cc0225b39da2e5c2d3b90600090a250565b60606001600160a01b0383163b6125bf5760405162461bcd60e51b815260206004820152602660248201527f416464726573733a2064656c65676174652063616c6c20746f206e6f6e2d636f6044820152651b9d1c9858dd60d21b606482015260840161075d565b600080846001600160a01b0316846040516125da9190612bfd565b600060405180830381855af49150503d8060008114612615576040519150601f19603f3d011682016040523d82523d6000602084013e61261a565b606091505b509150915061264282826040518060600160405280602781526020016130f96027913961264b565b95945050505050565b6060831561265a575081611085565b82511561266a5782518084602001fd5b8160405162461bcd60e51b815260040161075d9190612d52565b50805461269090612edc565b6000825580601f106126a0575050565b601f016020900490600052602060002090810190610e339190612742565b8280546126ca90612edc565b90600052602060002090601f0160209004810192826126ec5760008555612732565b82601f1061270557805160ff1916838001178555612732565b82800160010185558215612732579182015b82811115612732578251825591602001919060010190612717565b5061273e929150612742565b5090565b5b8082111561273e5760008155600101612743565b60006020828403121561276957600080fd5b81356001600160e01b03198116811461108557600080fd5b634e487b7160e01b600052604160045260246000fd5b600067ffffffffffffffff808411156127b2576127b2612781565b604051601f8501601f19908116603f011681019082821181831017156127da576127da612781565b816040528093508581528686860111156127f357600080fd5b858560208301376000602087830101525050509392505050565b60006020828403121561281f57600080fd5b813567ffffffffffffffff81111561283657600080fd5b8201601f8101841361284757600080fd5b610c9b84823560208401612797565b60006020828403121561286857600080fd5b5035919050565b80356001600160a01b038116811461288657600080fd5b919050565b6000806040838503121561289e57600080fd5b823591506128ae6020840161286f565b90509250929050565b6000602082840312156128c957600080fd5b6110858261286f565b600080604083850312156128e557600080fd5b6128ee8361286f565b9150602083013567ffffffffffffffff81111561290a57600080fd5b8301601f8101851361291b57600080fd5b61292a85823560208401612797565b9150509250929050565b60008083601f84011261294657600080fd5b50813567ffffffffffffffff81111561295e57600080fd5b60208301915083602082850101111561297657600080fd5b9250929050565b60008060006040848603121561299257600080fd5b83359250602084013567ffffffffffffffff8111156129b057600080fd5b6129bc86828701612934565b9497909650939450505050565b60008060008060008060c087890312156129e257600080fd5b6129eb8761286f565b95506129f96020880161286f565b95989597505050506040840135936060810135936080820135935060a0909101359150565b60008060408385031215612a3157600080fd5b50508035926020909101359150565b634e487b7160e01b600052602160045260246000fd5b60005b83811015612a71578181015183820152602001612a59565b838111156124b05750506000910152565b60008151808452612a9a816020860160208601612a56565b601f01601f19169290920160200192915050565b868152856020820152846040820152836060820152600060038410612ae357634e487b7160e01b600052602160045260246000fd5b83608083015260c060a0830152612afd60c0830184612a82565b98975050505050505050565b600080600060408486031215612b1e57600080fd5b612b278461286f565b9250602084013567ffffffffffffffff8111156129b057600080fd5b6020808252601f908201527f5265656e7472616e637947756172643a207265656e7472616e742063616c6c00604082015260600190565b60208082526010908201526f14185d5cd8589b194e881c185d5cd95960821b604082015260600190565b634e487b7160e01b600052603260045260246000fd5b634e487b7160e01b600052601160045260246000fd5b600082821015612be257612be2612bba565b500390565b634e487b7160e01b600052603160045260246000fd5b60008251612c0f818460208701612a56565b9190910192915050565b600060208284031215612c2b57600080fd5b815160ff8116811461108557600080fd5b600060ff821660ff841680821015612c5657612c56612bba565b90039392505050565b600181815b80851115612c9a578160001904821115612c8057612c80612bba565b80851615612c8d57918102915b93841c9390800290612c64565b509250929050565b600082612cb157506001610734565b81612cbe57506000610734565b8160018114612cd45760028114612cde57612cfa565b6001915050610734565b60ff841115612cef57612cef612bba565b50506001821b610734565b5060208310610133831016604e8410600b8410161715612d1d575081810a610734565b612d278383612c5f565b8060001904821115612d3b57612d3b612bba565b029392505050565b600061108560ff841683612ca2565b6020815260006110856020830184612a82565b600060208284031215612d7757600080fd5b5051919050565b6000816000190483118215151615612d9857612d98612bba565b500290565b600082612dba57634e487b7160e01b600052601260045260246000fd5b500490565b6020808252602c908201527f46756e6374696f6e206d7573742062652063616c6c6564207468726f7567682060408201526b19195b1959d85d1958d85b1b60a21b606082015260800190565b6020808252602c908201527f46756e6374696f6e206d7573742062652063616c6c6564207468726f7567682060408201526b6163746976652070726f787960a01b606082015260800190565b8183823760009101908152919050565b60008219821115612e7a57612e7a612bba565b500190565b60208082526037908201527f575141756374696f6e3a2041756374696f6e206f662074686973206c6f74206960408201527f732074656d706f726172696c792073757370656e646564000000000000000000606082015260800190565b600181811c90821680612ef057607f821691505b60208210811415612f1157634e487b7160e01b600052602260045260246000fd5b50919050565b6001600160a01b0385168152602080820185905260408201849052608060608301528254600091908290600181811c9082811680612f5657607f831692505b858310811415612f7457634e487b7160e01b85526022600452602485fd5b6080880183905260a08801818015612f935760018114612fa457612fcf565b60ff19861682528782019650612fcf565b60008b81526020902060005b86811015612fc957815484820152908501908901612fb0565b83019750505b50949c9b505050505050505050505050565b7f416363657373436f6e74726f6c3a206163636f756e7420000000000000000000815260008351613019816017850160208801612a56565b7001034b99036b4b9b9b4b733903937b6329607d1b601791840191820152835161304a816028840160208801612a56565b01602801949350505050565b6020808252602b908201527f496e697469616c697a61626c653a20636f6e7472616374206973206e6f74206960408201526a6e697469616c697a696e6760a81b606082015260800190565b6000816130b0576130b0612bba565b50600019019056fe189ab7a9244df0848122154315af71fe140f3db0fe014031783b0946b8c9d2e3360894a13ba1a3210667c828492db98dca3e2076cc3735a920a3ca505d382bbc416464726573733a206c6f772d6c6576656c2064656c65676174652063616c6c206661696c6564a49807205ce4d355092ef5a8a18f56e8913cf4a201fbe287825b095693c21775a26469706673582212205210938210ecdd7dc748bab5bec4df8a2a322a2cf85980398b74a1d0760603d764736f6c63430008090033",
  "linkReferences": {},
  "deployedLinkReferences": {}
}