{
  "_format": "hh-sol-artifact-1",
  "contractName": "WQDebtAuction",
  "sourceName": "contracts/stablecoin/WQDebtAuction.sol",
  "abi": [
    {
      "inputs": [],
      "stateMutability": "nonpayable",
      "type": "constructor"
    },
    {
      "anonymous": false,
      "inputs": [
        {
          "indexed": false,
          "internalType": "address",
          "name": "previousAdmin",
          "type": "address"
        },
        {
          "indexed": false,
          "internalType": "address",
          "name": "newAdmin",
          "type": "address"
        }
      ],
      "name": "AdminChanged",
      "type": "event"
    },
    {
      "anonymous": false,
      "inputs": [
        {
          "indexed": false,
          "internalType": "uint256",
          "name": "index",
          "type": "uint256"
        },
        {
          "indexed": false,
          "internalType": "uint256",
          "name": "amount",
          "type": "uint256"
        }
      ],
      "name": "AuctionStarted",
      "type": "event"
    },
    {
      "anonymous": false,
      "inputs": [
        {
          "indexed": true,
          "internalType": "address",
          "name": "beacon",
          "type": "address"
        }
      ],
      "name": "BeaconUpgraded",
      "type": "event"
    },
    {
      "anonymous": false,
      "inputs": [
        {
          "indexed": false,
          "internalType": "uint256",
          "name": "index",
          "type": "uint256"
        },
        {
          "indexed": false,
          "internalType": "uint256",
          "name": "amount",
          "type": "uint256"
        }
      ],
      "name": "LotBuyed",
      "type": "event"
    },
    {
      "anonymous": false,
      "inputs": [
        {
          "indexed": false,
          "internalType": "uint256",
          "name": "index",
          "type": "uint256"
        },
        {
          "indexed": false,
          "internalType": "uint256",
          "name": "amount",
          "type": "uint256"
        }
      ],
      "name": "LotCanceled",
      "type": "event"
    },
    {
      "anonymous": false,
      "inputs": [
        {
          "indexed": true,
          "internalType": "bytes32",
          "name": "role",
          "type": "bytes32"
        },
        {
          "indexed": true,
          "internalType": "bytes32",
          "name": "previousAdminRole",
          "type": "bytes32"
        },
        {
          "indexed": true,
          "internalType": "bytes32",
          "name": "newAdminRole",
          "type": "bytes32"
        }
      ],
      "name": "RoleAdminChanged",
      "type": "event"
    },
    {
      "anonymous": false,
      "inputs": [
        {
          "indexed": true,
          "internalType": "bytes32",
          "name": "role",
          "type": "bytes32"
        },
        {
          "indexed": true,
          "internalType": "address",
          "name": "account",
          "type": "address"
        },
        {
          "indexed": true,
          "internalType": "address",
          "name": "sender",
          "type": "address"
        }
      ],
      "name": "RoleGranted",
      "type": "event"
    },
    {
      "anonymous": false,
      "inputs": [
        {
          "indexed": true,
          "internalType": "bytes32",
          "name": "role",
          "type": "bytes32"
        },
        {
          "indexed": true,
          "internalType": "address",
          "name": "account",
          "type": "address"
        },
        {
          "indexed": true,
          "internalType": "address",
          "name": "sender",
          "type": "address"
        }
      ],
      "name": "RoleRevoked",
      "type": "event"
    },
    {
      "anonymous": false,
      "inputs": [
        {
          "indexed": true,
          "internalType": "address",
          "name": "implementation",
          "type": "address"
        }
      ],
      "name": "Upgraded",
      "type": "event"
    },
    {
      "inputs": [],
      "name": "ADMIN_ROLE",
      "outputs": [
        {
          "internalType": "bytes32",
          "name": "",
          "type": "bytes32"
        }
      ],
      "stateMutability": "view",
      "type": "function"
    },
    {
      "inputs": [],
      "name": "DEFAULT_ADMIN_ROLE",
      "outputs": [
        {
          "internalType": "bytes32",
          "name": "",
          "type": "bytes32"
        }
      ],
      "stateMutability": "view",
      "type": "function"
    },
    {
      "inputs": [],
      "name": "UPGRADER_ROLE",
      "outputs": [
        {
          "internalType": "bytes32",
          "name": "",
          "type": "bytes32"
        }
      ],
      "stateMutability": "view",
      "type": "function"
    },
    {
      "inputs": [
        {
          "internalType": "uint256",
          "name": "",
          "type": "uint256"
        }
      ],
      "name": "amounts",
      "outputs": [
        {
          "internalType": "uint256",
          "name": "",
          "type": "uint256"
        }
      ],
      "stateMutability": "view",
      "type": "function"
    },
    {
      "inputs": [],
      "name": "auctionDuration",
      "outputs": [
        {
          "internalType": "uint256",
          "name": "",
          "type": "uint256"
        }
      ],
      "stateMutability": "view",
      "type": "function"
    },
    {
      "inputs": [
        {
          "internalType": "uint256",
          "name": "index",
          "type": "uint256"
        },
        {
          "internalType": "uint256",
          "name": "minCost",
          "type": "uint256"
        }
      ],
      "name": "buyLot",
      "outputs": [],
      "stateMutability": "nonpayable",
      "type": "function"
    },
    {
      "inputs": [
        {
          "internalType": "uint256",
          "name": "index",
          "type": "uint256"
        }
      ],
      "name": "cancelLot",
      "outputs": [],
      "stateMutability": "nonpayable",
      "type": "function"
    },
    {
      "inputs": [
        {
          "internalType": "uint256",
          "name": "index",
          "type": "uint256"
        }
      ],
      "name": "getCurrentLotCost",
      "outputs": [
        {
          "internalType": "uint256",
          "name": "",
          "type": "uint256"
        }
      ],
      "stateMutability": "view",
      "type": "function"
    },
    {
      "inputs": [
        {
          "internalType": "string",
          "name": "symbol",
          "type": "string"
        }
      ],
      "name": "getDebtAmount",
      "outputs": [
        {
          "internalType": "uint256",
          "name": "",
          "type": "uint256"
        }
      ],
      "stateMutability": "view",
      "type": "function"
    },
    {
      "inputs": [
        {
          "internalType": "bytes32",
          "name": "role",
          "type": "bytes32"
        }
      ],
      "name": "getRoleAdmin",
      "outputs": [
        {
          "internalType": "bytes32",
          "name": "",
          "type": "bytes32"
        }
      ],
      "stateMutability": "view",
      "type": "function"
    },
    {
      "inputs": [
        {
          "internalType": "bytes32",
          "name": "role",
          "type": "bytes32"
        },
        {
          "internalType": "address",
          "name": "account",
          "type": "address"
        }
      ],
      "name": "grantRole",
      "outputs": [],
      "stateMutability": "nonpayable",
      "type": "function"
    },
    {
      "inputs": [
        {
          "internalType": "bytes32",
          "name": "role",
          "type": "bytes32"
        },
        {
          "internalType": "address",
          "name": "account",
          "type": "address"
        }
      ],
      "name": "hasRole",
      "outputs": [
        {
          "internalType": "bool",
          "name": "",
          "type": "bool"
        }
      ],
      "stateMutability": "view",
      "type": "function"
    },
    {
      "inputs": [
        {
          "internalType": "address",
          "name": "_oracle",
          "type": "address"
        },
        {
          "internalType": "address",
          "name": "_router",
          "type": "address"
        },
        {
          "internalType": "uint256",
          "name": "_auctionDuration",
          "type": "uint256"
        },
        {
          "internalType": "uint256",
          "name": "_upperBoundCost",
          "type": "uint256"
        },
        {
          "internalType": "uint256",
          "name": "_lowerBoundCost",
          "type": "uint256"
        },
        {
          "internalType": "uint256",
          "name": "_maxLotAmountFactor",
          "type": "uint256"
        }
      ],
      "name": "initialize",
      "outputs": [],
      "stateMutability": "nonpayable",
      "type": "function"
    },
    {
      "inputs": [
        {
          "internalType": "uint256",
          "name": "",
          "type": "uint256"
        }
      ],
      "name": "lots",
      "outputs": [
        {
          "internalType": "uint256",
          "name": "index",
          "type": "uint256"
        },
        {
          "internalType": "uint256",
          "name": "amount",
          "type": "uint256"
        },
        {
          "internalType": "uint256",
          "name": "endTime",
          "type": "uint256"
        },
        {
          "internalType": "address",
          "name": "buyer",
          "type": "address"
        },
        {
          "internalType": "enum WQDebtAuction.LotStatus",
          "name": "status",
          "type": "uint8"
        },
        {
          "internalType": "string",
          "name": "symbol",
          "type": "string"
        }
      ],
      "stateMutability": "view",
      "type": "function"
    },
    {
      "inputs": [],
      "name": "lowerBoundCost",
      "outputs": [
        {
          "internalType": "uint256",
          "name": "",
          "type": "uint256"
        }
      ],
      "stateMutability": "view",
      "type": "function"
    },
    {
      "inputs": [],
      "name": "maxLotAmountFactor",
      "outputs": [
        {
          "internalType": "uint256",
          "name": "",
          "type": "uint256"
        }
      ],
      "stateMutability": "view",
      "type": "function"
    },
    {
      "inputs": [],
      "name": "oracle",
      "outputs": [
        {
          "internalType": "contract WQPriceOracle",
          "name": "",
          "type": "address"
        }
      ],
      "stateMutability": "view",
      "type": "function"
    },
    {
      "inputs": [],
      "name": "proxiableUUID",
      "outputs": [
        {
          "internalType": "bytes32",
          "name": "",
          "type": "bytes32"
        }
      ],
      "stateMutability": "view",
      "type": "function"
    },
    {
      "inputs": [
        {
          "internalType": "bytes32",
          "name": "role",
          "type": "bytes32"
        },
        {
          "internalType": "address",
          "name": "account",
          "type": "address"
        }
      ],
      "name": "renounceRole",
      "outputs": [],
      "stateMutability": "nonpayable",
      "type": "function"
    },
    {
      "inputs": [
        {
          "internalType": "bytes32",
          "name": "role",
          "type": "bytes32"
        },
        {
          "internalType": "address",
          "name": "account",
          "type": "address"
        }
      ],
      "name": "revokeRole",
      "outputs": [],
      "stateMutability": "nonpayable",
      "type": "function"
    },
    {
      "inputs": [],
      "name": "router",
      "outputs": [
        {
          "internalType": "contract WQRouterInterface",
          "name": "",
          "type": "address"
        }
      ],
      "stateMutability": "view",
      "type": "function"
    },
    {
      "inputs": [
        {
          "internalType": "uint256",
          "name": "duration",
          "type": "uint256"
        }
      ],
      "name": "setAuctionDuration",
      "outputs": [],
      "stateMutability": "nonpayable",
      "type": "function"
    },
    {
      "inputs": [
        {
          "internalType": "uint256",
          "name": "percent",
          "type": "uint256"
        }
      ],
      "name": "setLowerBoundCost",
      "outputs": [],
      "stateMutability": "nonpayable",
      "type": "function"
    },
    {
      "inputs": [
        {
          "internalType": "uint256",
          "name": "percent",
          "type": "uint256"
        }
      ],
      "name": "setMaxLotAmountFactor",
      "outputs": [],
      "stateMutability": "nonpayable",
      "type": "function"
    },
    {
      "inputs": [
        {
          "internalType": "address",
          "name": "_oracle",
          "type": "address"
        }
      ],
      "name": "setOracle",
      "outputs": [],
      "stateMutability": "nonpayable",
      "type": "function"
    },
    {
      "inputs": [
        {
          "internalType": "address",
          "name": "_router",
          "type": "address"
        }
      ],
      "name": "setRouter",
      "outputs": [],
      "stateMutability": "nonpayable",
      "type": "function"
    },
    {
      "inputs": [
        {
          "internalType": "address",
          "name": "token",
          "type": "address"
        },
        {
          "internalType": "string",
          "name": "symbol",
          "type": "string"
        }
      ],
      "name": "setToken",
      "outputs": [],
      "stateMutability": "nonpayable",
      "type": "function"
    },
    {
      "inputs": [
        {
          "internalType": "uint256",
          "name": "percent",
          "type": "uint256"
        }
      ],
      "name": "setUpperBoundCost",
      "outputs": [],
      "stateMutability": "nonpayable",
      "type": "function"
    },
    {
      "inputs": [
        {
          "internalType": "uint256",
          "name": "amount",
          "type": "uint256"
        },
        {
          "internalType": "string",
          "name": "symbol",
          "type": "string"
        }
      ],
      "name": "startAuction",
      "outputs": [],
      "stateMutability": "nonpayable",
      "type": "function"
    },
    {
      "inputs": [
        {
          "internalType": "bytes4",
          "name": "interfaceId",
          "type": "bytes4"
        }
      ],
      "name": "supportsInterface",
      "outputs": [
        {
          "internalType": "bool",
          "name": "",
          "type": "bool"
        }
      ],
      "stateMutability": "view",
      "type": "function"
    },
    {
      "inputs": [
        {
          "internalType": "string",
          "name": "",
          "type": "string"
        }
      ],
      "name": "tokens",
      "outputs": [
        {
          "internalType": "contract IERC20MetadataUpgradeable",
          "name": "",
          "type": "address"
        }
      ],
      "stateMutability": "view",
      "type": "function"
    },
    {
      "inputs": [],
      "name": "totalAuctioned",
      "outputs": [
        {
          "internalType": "uint256",
          "name": "",
          "type": "uint256"
        }
      ],
      "stateMutability": "view",
      "type": "function"
    },
    {
      "inputs": [
        {
          "internalType": "address",
          "name": "newImplementation",
          "type": "address"
        }
      ],
      "name": "upgradeTo",
      "outputs": [],
      "stateMutability": "nonpayable",
      "type": "function"
    },
    {
      "inputs": [
        {
          "internalType": "address",
          "name": "newImplementation",
          "type": "address"
        },
        {
          "internalType": "bytes",
          "name": "data",
          "type": "bytes"
        }
      ],
      "name": "upgradeToAndCall",
      "outputs": [],
      "stateMutability": "payable",
      "type": "function"
    },
    {
      "inputs": [],
      "name": "upperBoundCost",
      "outputs": [
        {
          "internalType": "uint256",
          "name": "",
          "type": "uint256"
        }
      ],
      "stateMutability": "view",
      "type": "function"
    }
  ],
  "bytecode": "0x60a0604052306080523480156200001557600080fd5b50600054610100900460ff16620000335760005460ff16156200003d565b6200003d620000e2565b620000a55760405162461bcd60e51b815260206004820152602e60248201527f496e697469616c697a61626c653a20636f6e747261637420697320616c72656160448201526d191e481a5b9a5d1a585b1a5e995960921b606482015260840160405180910390fd5b600054610100900460ff16158015620000c8576000805461ffff19166101011790555b8015620000db576000805461ff00191690555b506200010f565b6000620000fa306200010060201b62001bdd1760201c565b15905090565b6001600160a01b03163b151590565b608051612f3f6200014760003960008181610ce101528181610d2101528181610de301528181610e230152610eb20152612f3f6000f3fe6080604052600436106102045760003560e01c806375f4442e11610118578063c0d78655116100a0578063f72c0d8b1161006f578063f72c0d8b1461060f578063f887ea4014610631578063fdad53db14610652578063ff2ab22914610672578063ffb671861461068957600080fd5b8063c0d786551461057d578063d547741f1461059d578063e2a07a07146105bd578063f1648e84146105dd57600080fd5b806386489ba9116100e757806386489ba9146104e857806391d1485414610508578063a217fddf14610528578063a497e6741461053d578063b32fdcea1461055d57600080fd5b806375f4442e146104675780637adbf973146104875780637bb8e8bc146104a75780637dc0d1d0146104c757600080fd5b806336568abe1161019b5780634f1ef2861161016a5780634f1ef286146103dd57806352d1902d146103f0578063535bb8671461040557806364ad7ad71461042557806375b238fc1461044557600080fd5b806336568abe146103665780633659cfe614610386578063403b74ed146103a657806345f0a44f146103bd57600080fd5b8063118941ae116101d7578063118941ae146102df57806323469c4e146102ff578063248a9ca3146103165780632f2ff15d1461034657600080fd5b806301ffc9a71461020957806304c2320b1461023e5780630a180f27146102985780630cbf54c8146102ba575b600080fd5b34801561021557600080fd5b50610229610224366004612540565b6106a0565b60405190151581526020015b60405180910390f35b34801561024a57600080fd5b506102806102593660046125f6565b8051602081830181018051610134825292820191909301209152546001600160a01b031681565b6040516001600160a01b039091168152602001610235565b3480156102a457600080fd5b506102b86102b336600461263f565b6106d7565b005b3480156102c657600080fd5b506102d161012f5481565b604051908152602001610235565b3480156102eb57600080fd5b506102d16102fa3660046125f6565b610983565b34801561030b57600080fd5b506102d16101325481565b34801561032257600080fd5b506102d161033136600461263f565b60009081526065602052604090206001015490565b34801561035257600080fd5b506102b8610361366004612674565b610c2d565b34801561037257600080fd5b506102b8610381366004612674565b610c58565b34801561039257600080fd5b506102b86103a13660046126a0565b610cd6565b3480156103b257600080fd5b506102d16101305481565b3480156103c957600080fd5b506102d16103d836600461263f565b610db6565b6102b86103eb3660046126bb565b610dd8565b3480156103fc57600080fd5b506102d1610ea5565b34801561041157600080fd5b506102d161042036600461263f565b610f58565b34801561043157600080fd5b506102b861044036600461263f565b610ff2565b34801561045157600080fd5b506102d1600080516020612eea83398151915281565b34801561047357600080fd5b506102b861048236600461263f565b611012565b34801561049357600080fd5b506102b86104a23660046126a0565b611032565b3480156104b357600080fd5b506102b86104c2366004612766565b61106f565b3480156104d357600080fd5b5061012d54610280906001600160a01b031681565b3480156104f457600080fd5b506102b86105033660046127b2565b611515565b34801561051457600080fd5b50610229610523366004612674565b611697565b34801561053457600080fd5b506102d1600081565b34801561054957600080fd5b506102b861055836600461263f565b6116c2565b34801561056957600080fd5b506102b8610578366004612807565b6116e2565b34801561058957600080fd5b506102b86105983660046126a0565b611a26565b3480156105a957600080fd5b506102b86105b8366004612674565b611a63565b3480156105c957600080fd5b506102b86105d836600461263f565b611a89565b3480156105e957600080fd5b506105fd6105f836600461263f565b611aa9565b60405161023596959493929190612897565b34801561061b57600080fd5b506102d1600080516020612e8383398151915281565b34801561063d57600080fd5b5061012e54610280906001600160a01b031681565b34801561065e57600080fd5b506102b861066d3660046128fd565b611b7b565b34801561067e57600080fd5b506102d16101315481565b34801561069557600080fd5b506102d16101335481565b60006001600160e01b03198216637965db0b60e01b14806106d157506301ffc9a760e01b6001600160e01b03198316145b92915050565b600260975414156107035760405162461bcd60e51b81526004016106fa90612937565b60405180910390fd5b600260975560008181526101356020526040902060016003820154600160a01b900460ff16600281111561073957610739612829565b146107865760405162461bcd60e51b815260206004820152601f60248201527f575141756374696f6e3a204c6f74206973206e6f742061756374696f6e65640060448201526064016106fa565b806002015442116107e95760405162461bcd60e51b815260206004820152602760248201527f575141756374696f6e3a2041756374696f6e2074696d65206973206e6f74206f6044820152661d995c881e595d60ca1b60648201526084016106fa565b80600101546101368260000154815481106108065761080661296e565b9060005260206000200154141561097a578060010154610133600082825461082e919061299a565b9091555050805460018201546040517f2f5d6db7bddb2094476f65b2865180ce1888601bc9e022cab86d994a487af9a09261087192908252602082015260400190565b60405180910390a1610136805461088a9060019061299a565b8154811061089a5761089a61296e565b90600052602060002001546101368260000154815481106108bd576108bd61296e565b9060005260206000200181905550806000015461013560006101368460000154815481106108ed576108ed61296e565b906000526020600020015481526020019081526020016000206000018190555061013680548061091f5761091f6129b1565b60008281526020808220830160001990810183905590920190925583825261013590526040812081815560018101829055600281018290556003810180546001600160a81b031916905590610977600483018261246d565b50505b50506001609755565b6000806101348360405161099791906129c7565b90815260408051602092819003830181205463313ce56760e01b825291516001600160a01b039092169263313ce56792600480840193829003018186803b1580156109e157600080fd5b505afa1580156109f5573d6000803e3d6000fd5b505050506040513d601f19601f82011682018060405250810190610a1991906129e3565b610a24906012612a06565b610a2f90600a612b0d565b61012d54604051630292e0fd60e01b81526001600160a01b0390911690630292e0fd90610a60908790600401612b1c565b60206040518083038186803b158015610a7857600080fd5b505afa158015610a8c573d6000803e3d6000fd5b505050506040513d601f19601f82011682018060405250810190610ab09190612b2f565b61012e54604051632ed4877d60e21b81526001600160a01b039091169063bb521df490610ae1908890600401612b1c565b60206040518083038186803b158015610af957600080fd5b505afa158015610b0d573d6000803e3d6000fd5b505050506040513d601f19601f82011682018060405250810190610b319190612b2f565b610b3b9190612b48565b610b459190612b48565b61012e54604051638c1e06f160e01b81529192506000916001600160a01b0390911690638c1e06f190610b7c908790600401612b1c565b60206040518083038186803b158015610b9457600080fd5b505afa158015610ba8573d6000803e3d6000fd5b505050506040513d601f19601f82011682018060405250810190610bcc9190612b2f565b90506729a2241af62c0000610be2836002612b48565b610bec9190612b67565b811115610c23576729a2241af62c0000610c07836002612b48565b610c119190612b67565b610c1b908261299a565b949350505050565b5060009392505050565b600082815260656020526040902060010154610c498133611bec565b610c538383611c50565b505050565b6001600160a01b0381163314610cc85760405162461bcd60e51b815260206004820152602f60248201527f416363657373436f6e74726f6c3a2063616e206f6e6c792072656e6f756e636560448201526e103937b632b9903337b91039b2b63360891b60648201526084016106fa565b610cd28282611cd6565b5050565b306001600160a01b037f0000000000000000000000000000000000000000000000000000000000000000161415610d1f5760405162461bcd60e51b81526004016106fa90612b89565b7f00000000000000000000000000000000000000000000000000000000000000006001600160a01b0316610d68600080516020612ea3833981519152546001600160a01b031690565b6001600160a01b031614610d8e5760405162461bcd60e51b81526004016106fa90612bd5565b610d9781611d3d565b60408051600080825260208201909252610db391839190611d56565b50565b6101368181548110610dc757600080fd5b600091825260209091200154905081565b306001600160a01b037f0000000000000000000000000000000000000000000000000000000000000000161415610e215760405162461bcd60e51b81526004016106fa90612b89565b7f00000000000000000000000000000000000000000000000000000000000000006001600160a01b0316610e6a600080516020612ea3833981519152546001600160a01b031690565b6001600160a01b031614610e905760405162461bcd60e51b81526004016106fa90612bd5565b610e9982611d3d565b610cd282826001611d56565b6000306001600160a01b037f00000000000000000000000000000000000000000000000000000000000000001614610f455760405162461bcd60e51b815260206004820152603860248201527f555550535570677261646561626c653a206d757374206e6f742062652063616c60448201527f6c6564207468726f7567682064656c656761746563616c6c000000000000000060648201526084016106fa565b50600080516020612ea383398151915290565b60008181526101356020526040812060016003820154600160a01b900460ff166002811115610f8957610f89612829565b14610fe25760405162461bcd60e51b8152602060048201526024808201527f575141756374696f6e3a2054686973206c6f74206973206e6f742061756374696044820152631bdb995960e21b60648201526084016106fa565b610feb81611ed0565b9392505050565b600080516020612eea83398151915261100b8133611bec565b5061013055565b600080516020612eea83398151915261102b8133611bec565b5061013255565b600080516020612eea83398151915261104b8133611bec565b5061012d80546001600160a01b0319166001600160a01b0392909216919091179055565b600260975414156110925760405162461bcd60e51b81526004016106fa90612937565b6002609755604051600090610134906110ae9085908590612c21565b908152604051908190036020019020546001600160a01b0316141561111f5760405162461bcd60e51b815260206004820152602160248201527f575141756374696f6e3a205468697320746f6b656e2069732064697361626c656044820152601960fa1b60648201526084016106fa565b600083116111795760405162461bcd60e51b815260206004820152602160248201527f575141756374696f6e3a20496e636f727265637420616d6f756e742076616c756044820152606560f81b60648201526084016106fa565b600160008481526101356020526040902060030154600160a01b900460ff1660028111156111a9576111a9612829565b1415611215576000838152610135602052604090206002015442116112105760405162461bcd60e51b815260206004820152601f60248201527f575141756374696f6e3a204c6f742069732061756374696f6e6564207965740060448201526064016106fa565b61122e565b8261013360008282546112289190612c31565b90915550505b600061126f83838080601f01602080910402602001604051908101604052809392919081815260200183838082843760009201919091525061098392505050565b9050806101335411156112e05760405162461bcd60e51b815260206004820152603360248201527f575141756374696f6e3a20416d6f756e74206f662062696420697320677265616044820152721d195c881d1a185b881d1bdd185b081919589d606a1b60648201526084016106fa565b61013254816112f786670de0b6b3a7640000612b48565b6113019190612b67565b111561131f5760405162461bcd60e51b81526004016106fa90612c49565b600084815261013560205260409020546101365481101580611370575060008581526101356020526040902054610136805487929081106113625761136261296e565b906000526020600020015414155b156113bc5761013680546001818101835560008390527f39da2db355130acf428d669fbf1c14faa9d51399a25b793fc254bbbde66f02e290910187905590546113b9919061299a565b90505b6040518060c0016040528082815260200186815260200161012f54426113e29190612c31565b8152600060208201526040016001815260200185858080601f01602080910402602001604051908101604052809392919081815260200183838082843760009201829052509390945250508781526101356020908152604091829020845181559084015160018201559083015160028083019190915560608401516003830180546001600160a01b039092166001600160a01b0319831681178255608087015194955090926001600160a81b03199092161790600160a01b9084908111156114ac576114ac612829565b021790555060a082015180516114cc9160048401916020909101906124a7565b505060408051838152602081018890527ff8910119ddbef5440c54532457dfe8250a10ed39e583292818f44724b9e1344c9250015b60405180910390a150506001609755505050565b600054610100900460ff166115305760005460ff1615611534565b303b155b6115975760405162461bcd60e51b815260206004820152602e60248201527f496e697469616c697a61626c653a20636f6e747261637420697320616c72656160448201526d191e481a5b9a5d1a585b1a5e995960921b60648201526084016106fa565b600054610100900460ff161580156115b9576000805461ffff19166101011790555b6115c1611fc2565b6115c9611feb565b6115d1611fc2565b6115dc60003361201a565b6115f4600080516020612eea8339815191523361201a565b61160c600080516020612e838339815191523361201a565b611632600080516020612e83833981519152600080516020612eea833981519152612024565b61012d80546001600160a01b03808a166001600160a01b03199283161790925561012e80549289169290911691909117905561012f859055610130849055610131839055610132829055801561168e576000805461ff00191690555b50505050505050565b60009182526065602090815260408084206001600160a01b0393909316845291905290205460ff1690565b600080516020612eea8339815191526116db8133611bec565b5061012f55565b600260975414156117055760405162461bcd60e51b81526004016106fa90612937565b600260975560008281526101356020526040902060016003820154600160a01b900460ff16600281111561173b5761173b612829565b146117885760405162461bcd60e51b815260206004820152601f60248201527f575141756374696f6e3a204c6f74206973206e6f742061756374696f6e65640060448201526064016106fa565b80600201544211156117dc5760405162461bcd60e51b815260206004820152601f60248201527f575141756374696f6e3a2041756374696f6e2074696d65206973206f7665720060448201526064016106fa565b60006118738260040180546117f090612ca6565b80601f016020809104026020016040519081016040528092919081815260200182805461181c90612ca6565b80156118695780601f1061183e57610100808354040283529160200191611869565b820191906000526020600020905b81548152906001019060200180831161184c57829003601f168201915b5050505050610983565b90506000811180156118aa575061013254818360010154670de0b6b3a764000061189d9190612b48565b6118a79190612b67565b11155b6118c65760405162461bcd60e51b81526004016106fa90612c49565b60006118d183611ed0565b9050831561193a578381101561193a5760405162461bcd60e51b815260206004820152602860248201527f575141756374696f6e3a2043757272656e7420636f7374206973206c65617374604482015267206d696e696d756d60c01b60648201526084016106fa565b82600101546101336000828254611951919061299a565b90915550506003830180546001600160a81b0319163360ff60a01b19811691909117600160a11b1790915561012e546001850154604051637fb95f6760e01b81526001600160a01b0390921692637fb95f67926119b69286916004808b019101612ce1565b600060405180830381600087803b1580156119d057600080fd5b505af11580156119e4573d6000803e3d6000fd5b5050845460018601546040517fd6e7678fa971a6655c284a5ed1b69b1419aecc0c105b8ddecf55a73ef0076c7994506115019350918252602082015260400190565b600080516020612eea833981519152611a3f8133611bec565b5061012e80546001600160a01b0319166001600160a01b0392909216919091179055565b600082815260656020526040902060010154611a7f8133611bec565b610c538383611cd6565b600080516020612eea833981519152611aa28133611bec565b5061013155565b61013560205260009081526040902080546001820154600283015460038401546004850180549495939492936001600160a01b03831693600160a01b90930460ff1692909190611af890612ca6565b80601f0160208091040260200160405190810160405280929190818152602001828054611b2490612ca6565b8015611b715780601f10611b4657610100808354040283529160200191611b71565b820191906000526020600020905b815481529060010190602001808311611b5457829003601f168201915b5050505050905086565b600080516020612eea833981519152611b948133611bec565b836101348484604051611ba8929190612c21565b90815260405190819003602001902080546001600160a01b03929092166001600160a01b031990921691909117905550505050565b6001600160a01b03163b151590565b611bf68282611697565b610cd257611c0e816001600160a01b0316601461206f565b611c1983602061206f565b604051602001611c2a929190612dab565b60408051601f198184030181529082905262461bcd60e51b82526106fa91600401612b1c565b611c5a8282611697565b610cd25760008281526065602090815260408083206001600160a01b03851684529091529020805460ff19166001179055611c923390565b6001600160a01b0316816001600160a01b0316837f2f8788117e7eff1d82e926ec794901d17c78024a50270940304540a733656f0d60405160405180910390a45050565b611ce08282611697565b15610cd25760008281526065602090815260408083206001600160a01b0385168085529252808320805460ff1916905551339285917ff6391f5c32d9c69d2a47ea670b442974b53935d1edc7fd64eb21e047a839171b9190a45050565b600080516020612e83833981519152610cd28133611bec565b7f4910fdfa16fed3260ed0e7147f7cc6da11a60208b5b9406d12a635614ffd91435460ff1615611d8957610c538361220b565b826001600160a01b03166352d1902d6040518163ffffffff1660e01b815260040160206040518083038186803b158015611dc257600080fd5b505afa925050508015611df2575060408051601f3d908101601f19168201909252611def91810190612b2f565b60015b611e555760405162461bcd60e51b815260206004820152602e60248201527f45524331393637557067726164653a206e657720696d706c656d656e7461746960448201526d6f6e206973206e6f74205555505360901b60648201526084016106fa565b600080516020612ea38339815191528114611ec45760405162461bcd60e51b815260206004820152602960248201527f45524331393637557067726164653a20756e737570706f727465642070726f786044820152681a58589b195555525160ba1b60648201526084016106fa565b50610c538383836122a7565b61012d54604051630292e0fd60e01b815260206004820152600360248201526215d45560ea1b60448201526000916001600160a01b031690630292e0fd9060640160206040518083038186803b158015611f2957600080fd5b505afa158015611f3d573d6000803e3d6000fd5b505050506040513d601f19601f82011682018060405250810190611f619190612b2f565b826001015461012f54428560020154611f7a919061299a565b6101315461013054611f8c919061299a565b611f969190612b48565b611fa09190612b67565b61013054611fae919061299a565b611fb89190612b48565b6106d19190612b67565b600054610100900460ff16611fe95760405162461bcd60e51b81526004016106fa90612e20565b565b600054610100900460ff166120125760405162461bcd60e51b81526004016106fa90612e20565b611fe96122d2565b610cd28282611c50565b600082815260656020526040808220600101805490849055905190918391839186917fbd79b86ffe0ab8e8776151514217cd7cacd52c909f66475c3af44e129f0b00ff9190a4505050565b6060600061207e836002612b48565b612089906002612c31565b67ffffffffffffffff8111156120a1576120a161256a565b6040519080825280601f01601f1916602001820160405280156120cb576020820181803683370190505b509050600360fc1b816000815181106120e6576120e661296e565b60200101906001600160f81b031916908160001a905350600f60fb1b816001815181106121155761211561296e565b60200101906001600160f81b031916908160001a9053506000612139846002612b48565b612144906001612c31565b90505b60018111156121bc576f181899199a1a9b1b9c1cb0b131b232b360811b85600f16601081106121785761217861296e565b1a60f81b82828151811061218e5761218e61296e565b60200101906001600160f81b031916908160001a90535060049490941c936121b581612e6b565b9050612147565b508315610feb5760405162461bcd60e51b815260206004820181905260248201527f537472696e67733a20686578206c656e67746820696e73756666696369656e7460448201526064016106fa565b6001600160a01b0381163b6122785760405162461bcd60e51b815260206004820152602d60248201527f455243313936373a206e657720696d706c656d656e746174696f6e206973206e60448201526c1bdd08184818dbdb9d1c9858dd609a1b60648201526084016106fa565b600080516020612ea383398151915280546001600160a01b0319166001600160a01b0392909216919091179055565b6122b083612300565b6000825111806122bd5750805b15610c53576122cc8383612340565b50505050565b600054610100900460ff166122f95760405162461bcd60e51b81526004016106fa90612e20565b6001609755565b6123098161220b565b6040516001600160a01b038216907fbc7cd75a20ee27fd9adebab32041f755214dbc6bffa90cc0225b39da2e5c2d3b90600090a250565b60606001600160a01b0383163b6123a85760405162461bcd60e51b815260206004820152602660248201527f416464726573733a2064656c65676174652063616c6c20746f206e6f6e2d636f6044820152651b9d1c9858dd60d21b60648201526084016106fa565b600080846001600160a01b0316846040516123c391906129c7565b600060405180830381855af49150503d80600081146123fe576040519150601f19603f3d011682016040523d82523d6000602084013e612403565b606091505b509150915061242b8282604051806060016040528060278152602001612ec360279139612434565b95945050505050565b60608315612443575081610feb565b8251156124535782518084602001fd5b8160405162461bcd60e51b81526004016106fa9190612b1c565b50805461247990612ca6565b6000825580601f10612489575050565b601f016020900490600052602060002090810190610db3919061252b565b8280546124b390612ca6565b90600052602060002090601f0160209004810192826124d5576000855561251b565b82601f106124ee57805160ff191683800117855561251b565b8280016001018555821561251b579182015b8281111561251b578251825591602001919060010190612500565b5061252792915061252b565b5090565b5b80821115612527576000815560010161252c565b60006020828403121561255257600080fd5b81356001600160e01b031981168114610feb57600080fd5b634e487b7160e01b600052604160045260246000fd5b600067ffffffffffffffff8084111561259b5761259b61256a565b604051601f8501601f19908116603f011681019082821181831017156125c3576125c361256a565b816040528093508581528686860111156125dc57600080fd5b858560208301376000602087830101525050509392505050565b60006020828403121561260857600080fd5b813567ffffffffffffffff81111561261f57600080fd5b8201601f8101841361263057600080fd5b610c1b84823560208401612580565b60006020828403121561265157600080fd5b5035919050565b80356001600160a01b038116811461266f57600080fd5b919050565b6000806040838503121561268757600080fd5b8235915061269760208401612658565b90509250929050565b6000602082840312156126b257600080fd5b610feb82612658565b600080604083850312156126ce57600080fd5b6126d783612658565b9150602083013567ffffffffffffffff8111156126f357600080fd5b8301601f8101851361270457600080fd5b61271385823560208401612580565b9150509250929050565b60008083601f84011261272f57600080fd5b50813567ffffffffffffffff81111561274757600080fd5b60208301915083602082850101111561275f57600080fd5b9250929050565b60008060006040848603121561277b57600080fd5b83359250602084013567ffffffffffffffff81111561279957600080fd5b6127a58682870161271d565b9497909650939450505050565b60008060008060008060c087890312156127cb57600080fd5b6127d487612658565b95506127e260208801612658565b95989597505050506040840135936060810135936080820135935060a0909101359150565b6000806040838503121561281a57600080fd5b50508035926020909101359150565b634e487b7160e01b600052602160045260246000fd5b60005b8381101561285a578181015183820152602001612842565b838111156122cc5750506000910152565b6000815180845261288381602086016020860161283f565b601f01601f19169290920160200192915050565b86815260208101869052604081018590526001600160a01b03841660608201526000600384106128d757634e487b7160e01b600052602160045260246000fd5b83608083015260c060a08301526128f160c083018461286b565b98975050505050505050565b60008060006040848603121561291257600080fd5b61291b84612658565b9250602084013567ffffffffffffffff81111561279957600080fd5b6020808252601f908201527f5265656e7472616e637947756172643a207265656e7472616e742063616c6c00604082015260600190565b634e487b7160e01b600052603260045260246000fd5b634e487b7160e01b600052601160045260246000fd5b6000828210156129ac576129ac612984565b500390565b634e487b7160e01b600052603160045260246000fd5b600082516129d981846020870161283f565b9190910192915050565b6000602082840312156129f557600080fd5b815160ff81168114610feb57600080fd5b600060ff821660ff841680821015612a2057612a20612984565b90039392505050565b600181815b80851115612a64578160001904821115612a4a57612a4a612984565b80851615612a5757918102915b93841c9390800290612a2e565b509250929050565b600082612a7b575060016106d1565b81612a88575060006106d1565b8160018114612a9e5760028114612aa857612ac4565b60019150506106d1565b60ff841115612ab957612ab9612984565b50506001821b6106d1565b5060208310610133831016604e8410600b8410161715612ae7575081810a6106d1565b612af18383612a29565b8060001904821115612b0557612b05612984565b029392505050565b6000610feb60ff841683612a6c565b602081526000610feb602083018461286b565b600060208284031215612b4157600080fd5b5051919050565b6000816000190483118215151615612b6257612b62612984565b500290565b600082612b8457634e487b7160e01b600052601260045260246000fd5b500490565b6020808252602c908201527f46756e6374696f6e206d7573742062652063616c6c6564207468726f7567682060408201526b19195b1959d85d1958d85b1b60a21b606082015260800190565b6020808252602c908201527f46756e6374696f6e206d7573742062652063616c6c6564207468726f7567682060408201526b6163746976652070726f787960a01b606082015260800190565b8183823760009101908152919050565b60008219821115612c4457612c44612984565b500190565b60208082526037908201527f575141756374696f6e3a2041756374696f6e206f662074686973206c6f74206960408201527f732074656d706f726172696c792073757370656e646564000000000000000000606082015260800190565b600181811c90821680612cba57607f821691505b60208210811415612cdb57634e487b7160e01b600052602260045260246000fd5b50919050565b6001600160a01b0385168152602080820185905260408201849052608060608301528254600091908290600181811c9082811680612d2057607f831692505b858310811415612d3e57634e487b7160e01b85526022600452602485fd5b6080880183905260a08801818015612d5d5760018114612d6e57612d99565b60ff19861682528782019650612d99565b60008b81526020902060005b86811015612d9357815484820152908501908901612d7a565b83019750505b50949c9b505050505050505050505050565b7f416363657373436f6e74726f6c3a206163636f756e7420000000000000000000815260008351612de381601785016020880161283f565b7001034b99036b4b9b9b4b733903937b6329607d1b6017918401918201528351612e1481602884016020880161283f565b01602801949350505050565b6020808252602b908201527f496e697469616c697a61626c653a20636f6e7472616374206973206e6f74206960408201526a6e697469616c697a696e6760a81b606082015260800190565b600081612e7a57612e7a612984565b50600019019056fe189ab7a9244df0848122154315af71fe140f3db0fe014031783b0946b8c9d2e3360894a13ba1a3210667c828492db98dca3e2076cc3735a920a3ca505d382bbc416464726573733a206c6f772d6c6576656c2064656c65676174652063616c6c206661696c6564a49807205ce4d355092ef5a8a18f56e8913cf4a201fbe287825b095693c21775a26469706673582212205d2b7081a7d9de5c47d77e67270c526e115c64dbd22facb907f41b6443f8444a64736f6c63430008090033",
  "linkReferences": {},
  "deployedLinkReferences": {}
}