{
  "_format": "hh-sol-artifact-1",
  "contractName": "WQReferral",
  "sourceName": "contracts/WQReferral.sol",
  "abi": [
    {
      "inputs": [],
      "stateMutability": "nonpayable",
      "type": "constructor"
    },
    {
      "anonymous": false,
      "inputs": [
        {
          "indexed": false,
          "internalType": "address",
          "name": "previousAdmin",
          "type": "address"
        },
        {
          "indexed": false,
          "internalType": "address",
          "name": "newAdmin",
          "type": "address"
        }
      ],
      "name": "AdminChanged",
      "type": "event"
    },
    {
      "anonymous": false,
      "inputs": [
        {
          "indexed": true,
          "internalType": "address",
          "name": "beacon",
          "type": "address"
        }
      ],
      "name": "BeaconUpgraded",
      "type": "event"
    },
    {
      "anonymous": false,
      "inputs": [
        {
          "indexed": false,
          "internalType": "address",
          "name": "referral",
          "type": "address"
        },
        {
          "indexed": false,
          "internalType": "address",
          "name": "affiliate",
          "type": "address"
        },
        {
          "indexed": false,
          "internalType": "uint256",
          "name": "amount",
          "type": "uint256"
        }
      ],
      "name": "PaidReferral",
      "type": "event"
    },
    {
      "anonymous": false,
      "inputs": [
        {
          "indexed": false,
          "internalType": "uint256",
          "name": "amount",
          "type": "uint256"
        }
      ],
      "name": "Received",
      "type": "event"
    },
    {
      "anonymous": false,
      "inputs": [
        {
          "indexed": false,
          "internalType": "address",
          "name": "referral",
          "type": "address"
        },
        {
          "indexed": false,
          "internalType": "address",
          "name": "affiliate",
          "type": "address"
        }
      ],
      "name": "RegisteredAffiliat",
      "type": "event"
    },
    {
      "anonymous": false,
      "inputs": [
        {
          "indexed": false,
          "internalType": "address",
          "name": "affiliate",
          "type": "address"
        },
        {
          "indexed": false,
          "internalType": "uint256",
          "name": "amount",
          "type": "uint256"
        }
      ],
      "name": "RewardClaimed",
      "type": "event"
    },
    {
      "anonymous": false,
      "inputs": [
        {
          "indexed": true,
          "internalType": "bytes32",
          "name": "role",
          "type": "bytes32"
        },
        {
          "indexed": true,
          "internalType": "bytes32",
          "name": "previousAdminRole",
          "type": "bytes32"
        },
        {
          "indexed": true,
          "internalType": "bytes32",
          "name": "newAdminRole",
          "type": "bytes32"
        }
      ],
      "name": "RoleAdminChanged",
      "type": "event"
    },
    {
      "anonymous": false,
      "inputs": [
        {
          "indexed": true,
          "internalType": "bytes32",
          "name": "role",
          "type": "bytes32"
        },
        {
          "indexed": true,
          "internalType": "address",
          "name": "account",
          "type": "address"
        },
        {
          "indexed": true,
          "internalType": "address",
          "name": "sender",
          "type": "address"
        }
      ],
      "name": "RoleGranted",
      "type": "event"
    },
    {
      "anonymous": false,
      "inputs": [
        {
          "indexed": true,
          "internalType": "bytes32",
          "name": "role",
          "type": "bytes32"
        },
        {
          "indexed": true,
          "internalType": "address",
          "name": "account",
          "type": "address"
        },
        {
          "indexed": true,
          "internalType": "address",
          "name": "sender",
          "type": "address"
        }
      ],
      "name": "RoleRevoked",
      "type": "event"
    },
    {
      "anonymous": false,
      "inputs": [
        {
          "indexed": true,
          "internalType": "address",
          "name": "implementation",
          "type": "address"
        }
      ],
      "name": "Upgraded",
      "type": "event"
    },
    {
      "inputs": [],
      "name": "ADMIN_ROLE",
      "outputs": [
        {
          "internalType": "bytes32",
          "name": "",
          "type": "bytes32"
        }
      ],
      "stateMutability": "view",
      "type": "function"
    },
    {
      "inputs": [],
      "name": "DEFAULT_ADMIN_ROLE",
      "outputs": [
        {
          "internalType": "bytes32",
          "name": "",
          "type": "bytes32"
        }
      ],
      "stateMutability": "view",
      "type": "function"
    },
    {
      "inputs": [],
      "name": "SERVICE_ROLE",
      "outputs": [
        {
          "internalType": "bytes32",
          "name": "",
          "type": "bytes32"
        }
      ],
      "stateMutability": "view",
      "type": "function"
    },
    {
      "inputs": [],
      "name": "UPGRADER_ROLE",
      "outputs": [
        {
          "internalType": "bytes32",
          "name": "",
          "type": "bytes32"
        }
      ],
      "stateMutability": "view",
      "type": "function"
    },
    {
      "inputs": [
        {
          "internalType": "uint8",
          "name": "v",
          "type": "uint8"
        },
        {
          "internalType": "bytes32",
          "name": "r",
          "type": "bytes32"
        },
        {
          "internalType": "bytes32",
          "name": "s",
          "type": "bytes32"
        },
        {
          "internalType": "address[]",
          "name": "referral",
          "type": "address[]"
        }
      ],
      "name": "addReferrals",
      "outputs": [],
      "stateMutability": "nonpayable",
      "type": "function"
    },
    {
      "inputs": [
        {
          "internalType": "address",
          "name": "referral",
          "type": "address"
        },
        {
          "internalType": "uint256",
          "name": "earnedAmount",
          "type": "uint256"
        }
      ],
      "name": "calcReferral",
      "outputs": [],
      "stateMutability": "nonpayable",
      "type": "function"
    },
    {
      "inputs": [],
      "name": "claim",
      "outputs": [],
      "stateMutability": "nonpayable",
      "type": "function"
    },
    {
      "inputs": [
        {
          "internalType": "address",
          "name": "referral",
          "type": "address"
        }
      ],
      "name": "delAffiliate",
      "outputs": [],
      "stateMutability": "nonpayable",
      "type": "function"
    },
    {
      "inputs": [],
      "name": "earnedThreshold",
      "outputs": [
        {
          "internalType": "uint256",
          "name": "",
          "type": "uint256"
        }
      ],
      "stateMutability": "view",
      "type": "function"
    },
    {
      "inputs": [],
      "name": "factory",
      "outputs": [
        {
          "internalType": "contract WorkQuestFactory",
          "name": "",
          "type": "address"
        }
      ],
      "stateMutability": "view",
      "type": "function"
    },
    {
      "inputs": [
        {
          "internalType": "address",
          "name": "user",
          "type": "address"
        }
      ],
      "name": "getRewards",
      "outputs": [
        {
          "internalType": "uint256",
          "name": "",
          "type": "uint256"
        }
      ],
      "stateMutability": "view",
      "type": "function"
    },
    {
      "inputs": [
        {
          "internalType": "bytes32",
          "name": "role",
          "type": "bytes32"
        }
      ],
      "name": "getRoleAdmin",
      "outputs": [
        {
          "internalType": "bytes32",
          "name": "",
          "type": "bytes32"
        }
      ],
      "stateMutability": "view",
      "type": "function"
    },
    {
      "inputs": [
        {
          "internalType": "bytes32",
          "name": "role",
          "type": "bytes32"
        },
        {
          "internalType": "address",
          "name": "account",
          "type": "address"
        }
      ],
      "name": "grantRole",
      "outputs": [],
      "stateMutability": "nonpayable",
      "type": "function"
    },
    {
      "inputs": [
        {
          "internalType": "bytes32",
          "name": "role",
          "type": "bytes32"
        },
        {
          "internalType": "address",
          "name": "account",
          "type": "address"
        }
      ],
      "name": "hasRole",
      "outputs": [
        {
          "internalType": "bool",
          "name": "",
          "type": "bool"
        }
      ],
      "stateMutability": "view",
      "type": "function"
    },
    {
      "inputs": [
        {
          "internalType": "address",
          "name": "_oracle",
          "type": "address"
        },
        {
          "internalType": "address",
          "name": "_service",
          "type": "address"
        },
        {
          "internalType": "uint256",
          "name": "_referralBonus",
          "type": "uint256"
        },
        {
          "internalType": "uint256",
          "name": "_earnedThreshold",
          "type": "uint256"
        }
      ],
      "name": "initialize",
      "outputs": [],
      "stateMutability": "nonpayable",
      "type": "function"
    },
    {
      "inputs": [],
      "name": "oracle",
      "outputs": [
        {
          "internalType": "contract WQPriceOracleInterface",
          "name": "",
          "type": "address"
        }
      ],
      "stateMutability": "view",
      "type": "function"
    },
    {
      "inputs": [],
      "name": "proxiableUUID",
      "outputs": [
        {
          "internalType": "bytes32",
          "name": "",
          "type": "bytes32"
        }
      ],
      "stateMutability": "view",
      "type": "function"
    },
    {
      "inputs": [],
      "name": "referralBonus",
      "outputs": [
        {
          "internalType": "uint256",
          "name": "",
          "type": "uint256"
        }
      ],
      "stateMutability": "view",
      "type": "function"
    },
    {
      "inputs": [
        {
          "internalType": "address",
          "name": "",
          "type": "address"
        }
      ],
      "name": "referrals",
      "outputs": [
        {
          "internalType": "address",
          "name": "affiliat",
          "type": "address"
        },
        {
          "internalType": "uint256",
          "name": "earnedAmount",
          "type": "uint256"
        },
        {
          "internalType": "uint256",
          "name": "rewardTotal",
          "type": "uint256"
        },
        {
          "internalType": "uint256",
          "name": "rewardPaid",
          "type": "uint256"
        },
        {
          "internalType": "uint256",
          "name": "referredCount",
          "type": "uint256"
        },
        {
          "internalType": "bool",
          "name": "paid",
          "type": "bool"
        }
      ],
      "stateMutability": "view",
      "type": "function"
    },
    {
      "inputs": [
        {
          "internalType": "bytes32",
          "name": "role",
          "type": "bytes32"
        },
        {
          "internalType": "address",
          "name": "account",
          "type": "address"
        }
      ],
      "name": "renounceRole",
      "outputs": [],
      "stateMutability": "nonpayable",
      "type": "function"
    },
    {
      "inputs": [
        {
          "internalType": "bytes32",
          "name": "role",
          "type": "bytes32"
        },
        {
          "internalType": "address",
          "name": "account",
          "type": "address"
        }
      ],
      "name": "revokeRole",
      "outputs": [],
      "stateMutability": "nonpayable",
      "type": "function"
    },
    {
      "inputs": [
        {
          "internalType": "uint256",
          "name": "_earnedThreshold",
          "type": "uint256"
        }
      ],
      "name": "setEarnedThreshold",
      "outputs": [],
      "stateMutability": "nonpayable",
      "type": "function"
    },
    {
      "inputs": [
        {
          "internalType": "address",
          "name": "_factory",
          "type": "address"
        }
      ],
      "name": "setFactory",
      "outputs": [],
      "stateMutability": "nonpayable",
      "type": "function"
    },
    {
      "inputs": [
        {
          "internalType": "address",
          "name": "_oracle",
          "type": "address"
        }
      ],
      "name": "setOracle",
      "outputs": [],
      "stateMutability": "nonpayable",
      "type": "function"
    },
    {
      "inputs": [
        {
          "internalType": "uint256",
          "name": "_referralBonus",
          "type": "uint256"
        }
      ],
      "name": "setReferralBonus",
      "outputs": [],
      "stateMutability": "nonpayable",
      "type": "function"
    },
    {
      "inputs": [
        {
          "internalType": "bytes4",
          "name": "interfaceId",
          "type": "bytes4"
        }
      ],
      "name": "supportsInterface",
      "outputs": [
        {
          "internalType": "bool",
          "name": "",
          "type": "bool"
        }
      ],
      "stateMutability": "view",
      "type": "function"
    },
    {
      "inputs": [
        {
          "internalType": "address",
          "name": "newImplementation",
          "type": "address"
        }
      ],
      "name": "upgradeTo",
      "outputs": [],
      "stateMutability": "nonpayable",
      "type": "function"
    },
    {
      "inputs": [
        {
          "internalType": "address",
          "name": "newImplementation",
          "type": "address"
        },
        {
          "internalType": "bytes",
          "name": "data",
          "type": "bytes"
        }
      ],
      "name": "upgradeToAndCall",
      "outputs": [],
      "stateMutability": "payable",
      "type": "function"
    },
    {
      "stateMutability": "payable",
      "type": "receive"
    }
  ],
  "bytecode": "0x60a0604052306080523480156200001557600080fd5b50600054610100900460ff16620000335760005460ff16156200003d565b6200003d620000e2565b620000a55760405162461bcd60e51b815260206004820152602e60248201527f496e697469616c697a61626c653a20636f6e747261637420697320616c72656160448201526d191e481a5b9a5d1a585b1a5e995960921b606482015260840160405180910390fd5b600054610100900460ff16158015620000c8576000805461ffff19166101011790555b8015620000db576000805461ff00191690555b506200010f565b6000620000fa306200010060201b620014e31760201c565b15905090565b6001600160a01b03163b151590565b6080516127236200014760003960008181610760015281816107a001528181610ab301528181610af30152610b8201526127236000f3fe6080604052600436106101bb5760003560e01c80637dc0d1d0116100ec578063beae308e1161008a578063ce7842f511610064578063ce7842f51461058d578063d547741f146105a4578063eb990c59146105c4578063f72c0d8b146105e457600080fd5b8063beae308e14610535578063c45a01551461054c578063c5e7ea231461056d57600080fd5b80639ca423b3116100c65780639ca423b314610447578063a20e7d47146104de578063a217fddf14610500578063b3dadae91461051557600080fd5b80637dc0d1d0146103ce57806391d14854146104075780639a037aa01461042757600080fd5b80634e71d92d116101595780635bb47808116101335780635bb478081461034c57806375b238fc1461036c57806379ee54f71461038e5780637adbf973146103ae57600080fd5b80634e71d92d1461030f5780634f1ef2861461032457806352d1902d1461033757600080fd5b80632f2ff15d116101955780632f2ff15d1461028f57806336568abe146102af5780633659cfe6146102cf5780633a1808e4146102ef57600080fd5b806301ffc9a7146101fa578063248a9ca31461022f5780632a64d4f91461026d57600080fd5b366101f5576040513481527fa8142743f8f70a4c26f3691cf4ed59718381fb2f18070ec52be1f1022d8555579060200160405180910390a1005b600080fd5b34801561020657600080fd5b5061021a610215366004612071565b610606565b60405190151581526020015b60405180910390f35b34801561023b57600080fd5b5061025f61024a36600461209b565b60009081526065602052604090206001015490565b604051908152602001610226565b34801561027957600080fd5b5061028d6102883660046120d0565b61063d565b005b34801561029b57600080fd5b5061028d6102aa3660046120eb565b6106a7565b3480156102bb57600080fd5b5061028d6102ca3660046120eb565b6106d2565b3480156102db57600080fd5b5061028d6102ea3660046120d0565b610755565b3480156102fb57600080fd5b5061028d61030a36600461209b565b610835565b34801561031b57600080fd5b5061028d610855565b61028d61033236600461212d565b610aa8565b34801561034357600080fd5b5061025f610b75565b34801561035857600080fd5b5061028d6103673660046120d0565b610c28565b34801561037857600080fd5b5061025f6000805160206126ce83398151915281565b34801561039a57600080fd5b5061025f6103a93660046120d0565b610c65565b3480156103ba57600080fd5b5061028d6103c93660046120d0565b610c93565b3480156103da57600080fd5b5061012e546103ef906001600160a01b031681565b6040516001600160a01b039091168152602001610226565b34801561041357600080fd5b5061021a6104223660046120eb565b610cd0565b34801561043357600080fd5b5061028d61044236600461209b565b610cfb565b34801561045357600080fd5b506104a56104623660046120d0565b610131602052600090815260409020805460018201546002830154600384015460048501546005909501546001600160a01b039094169492939192909160ff1686565b604080516001600160a01b03909716875260208701959095529385019290925260608401526080830152151560a082015260c001610226565b3480156104ea57600080fd5b5061025f60008051602061264783398151915281565b34801561050c57600080fd5b5061025f600081565b34801561052157600080fd5b5061028d6105303660046121ef565b610d1b565b34801561054157600080fd5b5061025f6101305481565b34801561055857600080fd5b5061012f546103ef906001600160a01b031681565b34801561057957600080fd5b5061028d61058836600461228e565b6110f0565b34801561059957600080fd5b5061025f61012d5481565b3480156105b057600080fd5b5061028d6105bf3660046120eb565b611321565b3480156105d057600080fd5b5061028d6105df3660046122b8565b611347565b3480156105f057600080fd5b5061025f60008051602061266783398151915281565b60006001600160e01b03198216637965db0b60e01b148061063757506301ffc9a760e01b6001600160e01b03198316145b92915050565b6000805160206126ce83398151915261065681336114f2565b506001600160a01b031660009081526101316020526040812080546001600160a01b03191681556001810182905560028101829055600381018290556004810191909155600501805460ff19169055565b6000828152606560205260409020600101546106c381336114f2565b6106cd8383611556565b505050565b6001600160a01b03811633146107475760405162461bcd60e51b815260206004820152602f60248201527f416363657373436f6e74726f6c3a2063616e206f6e6c792072656e6f756e636560448201526e103937b632b9903337b91039b2b63360891b60648201526084015b60405180910390fd5b61075182826115dc565b5050565b306001600160a01b037f000000000000000000000000000000000000000000000000000000000000000016141561079e5760405162461bcd60e51b815260040161073e906122fa565b7f00000000000000000000000000000000000000000000000000000000000000006001600160a01b03166107e7600080516020612687833981519152546001600160a01b031690565b6001600160a01b03161461080d5760405162461bcd60e51b815260040161073e90612346565b61081681611643565b604080516000808252602082019092526108329183919061165c565b50565b6000805160206126ce83398151915261084e81336114f2565b5061013055565b600260975414156108a85760405162461bcd60e51b815260206004820152601f60248201527f5265656e7472616e637947756172643a207265656e7472616e742063616c6c00604482015260640161073e565b6002609781905533600090815261013160205260408120600381015492015490916108d2916123a8565b9050600081116109325760405162461bcd60e51b815260206004820152602560248201527f5751526566657272616c3a207468657265206973206e6f7468696e6720746f20604482015264636c61696d60d81b606482015260840161073e565b8047116109915760405162461bcd60e51b815260206004820152602760248201527f5751526566657272616c3a2042616c616e6365206f6e20636f6e747261637420604482015266746f6f206c6f7760c81b606482015260840161073e565b61012e54604051630292e0fd60e01b815260206004820152600360248201526215d45560ea1b60448201526000916001600160a01b031690630292e0fd9060640160206040518083038186803b1580156109ea57600080fd5b505afa1580156109fe573d6000803e3d6000fd5b505050506040513d601f19601f82011682018060405250810190610a2291906123bf565b610a3483670de0b6b3a76400006123d8565b610a3e91906123f7565b336000818152610131602052604090206002810154600390910155909150610a6690826117d6565b60408051338152602081018390527f106f923f993c2149d49b4255ff723acafa1f2d94393f561d3eda32ae348f7241910160405180910390a150506001609755565b306001600160a01b037f0000000000000000000000000000000000000000000000000000000000000000161415610af15760405162461bcd60e51b815260040161073e906122fa565b7f00000000000000000000000000000000000000000000000000000000000000006001600160a01b0316610b3a600080516020612687833981519152546001600160a01b031690565b6001600160a01b031614610b605760405162461bcd60e51b815260040161073e90612346565b610b6982611643565b6107518282600161165c565b6000306001600160a01b037f00000000000000000000000000000000000000000000000000000000000000001614610c155760405162461bcd60e51b815260206004820152603860248201527f555550535570677261646561626c653a206d757374206e6f742062652063616c60448201527f6c6564207468726f7567682064656c656761746563616c6c0000000000000000606482015260840161073e565b5060008051602061268783398151915290565b6000805160206126ce833981519152610c4181336114f2565b5061012f80546001600160a01b0319166001600160a01b0392909216919091179055565b6001600160a01b038116600090815261013160205260408120600381015460029091015461063791906123a8565b6000805160206126ce833981519152610cac81336114f2565b5061012e80546001600160a01b0319166001600160a01b0392909216919091179055565b60009182526065602090815260408084206001600160a01b0393909316845291905290205460ff1690565b6000805160206126ce833981519152610d1481336114f2565b5061012d55565b610db3600080516020612647833981519152610422878787610dab338989604051602001610d4b93929190612419565b60408051601f1981840301815282825280516020918201207f19457468657265756d205369676e6564204d6573736167653a0a33320000000084830152603c8085019190915282518085039091018152605c909301909152815191012090565b9291906118ef565b610e0d5760405162461bcd60e51b815260206004820152602560248201527f57515265666572616c3a2076616c696461746f72206973206e6f742061207365604482015264727669636560d81b606482015260840161073e565b60005b818110156110e8576000838383818110610e2c57610e2c612473565b9050602002016020810190610e4191906120d0565b6001600160a01b03161415610ead5760405162461bcd60e51b815260206004820152602c60248201527f5751526566657272616c3a20616666696c696174652063616e6e6f742062652060448201526b7a65726f206164647265737360a01b606482015260840161073e565b33838383818110610ec057610ec0612473565b9050602002016020810190610ed591906120d0565b6001600160a01b03161415610f435760405162461bcd60e51b815260206004820152602e60248201527f5751526566657272616c3a20616666696c696174652063616e6e6f742062652060448201526d73656e646572206164647265737360901b606482015260840161073e565b600061013181858585818110610f5b57610f5b612473565b9050602002016020810190610f7091906120d0565b6001600160a01b0390811682526020820192909252604001600020541614610fec5760405162461bcd60e51b815260206004820152602960248201527f5751526566657272616c3a204164647265737320697320616c726561647920726044820152681959da5cdd195c995960ba1b606482015260840161073e565b33610131600085858581811061100457611004612473565b905060200201602081019061101991906120d0565b6001600160a01b0390811682526020808301939093526040918201600090812080546001600160a01b03191695909216949094179055338352610131909152812060040180549161106983612489565b91905055507f55af10c9d5e5b63aa622c225c81dfe6d7d48b5cec3df65785d0234f2f4555ddd8383838181106110a1576110a1612473565b90506020020160208101906110b691906120d0565b604080516001600160a01b0390921682523360208301520160405180910390a1806110e081612489565b915050610e10565b505050505050565b600260975414156111435760405162461bcd60e51b815260206004820152601f60248201527f5265656e7472616e637947756172643a207265656e7472616e742063616c6c00604482015260640161073e565b600260975561012f546040516308dc900f60e21b81523360048201526001600160a01b0390911690632372403c9060240160206040518083038186803b15801561118c57600080fd5b505afa1580156111a0573d6000803e3d6000fd5b505050506040513d601f19601f820116820180604052508101906111c491906124a4565b6112245760405162461bcd60e51b815260206004820152602b60248201527f57515265666572616c3a2053656e646572206973206e6f7420576f726b51756560448201526a1cdd0818dbdb9d1c9858dd60aa1b606482015260840161073e565b6001600160a01b038083166000908152610131602052604090208054909116158015906112565750600581015460ff16155b15611317578181600101600082825461126f91906124c6565b9091555050610130546001820154106113175760058101805460ff1916600117905561012d5481546001600160a01b031660009081526101316020526040812060020180549091906112c29084906124c6565b9091555050805461012d54604080516001600160a01b03808816825290931660208401528201527fe551749cd3e23ab6ffc45842ff5f66b01e92acbbcc59ecc834d2015ca142e19d9060600160405180910390a15b5050600160975550565b60008281526065602052604090206001015461133d81336114f2565b6106cd83836115dc565b600054610100900460ff166113625760005460ff1615611366565b303b155b6113c95760405162461bcd60e51b815260206004820152602e60248201527f496e697469616c697a61626c653a20636f6e747261637420697320616c72656160448201526d191e481a5b9a5d1a585b1a5e995960921b606482015260840161073e565b600054610100900460ff161580156113eb576000805461ffff19166101011790555b6113f3611917565b6113fb611940565b611403611917565b61140e60003361196f565b6114266000805160206126ce8339815191523361196f565b61143e6000805160206126678339815191523361196f565b6114566000805160206126478339815191528561196f565b61147c6000805160206126678339815191526000805160206126ce833981519152611979565b6114a26000805160206126478339815191526000805160206126ce833981519152611979565b61012e80546001600160a01b0319166001600160a01b03871617905561012d83905561013082905580156114dc576000805461ff00191690555b5050505050565b6001600160a01b03163b151590565b6114fc8282610cd0565b61075157611514816001600160a01b031660146119c4565b61151f8360206119c4565b60405160200161153092919061250a565b60408051601f198184030181529082905262461bcd60e51b825261073e9160040161257f565b6115608282610cd0565b6107515760008281526065602090815260408083206001600160a01b03851684529091529020805460ff191660011790556115983390565b6001600160a01b0316816001600160a01b0316837f2f8788117e7eff1d82e926ec794901d17c78024a50270940304540a733656f0d60405160405180910390a45050565b6115e68282610cd0565b156107515760008281526065602090815260408083206001600160a01b0385168085529252808320805460ff1916905551339285917ff6391f5c32d9c69d2a47ea670b442974b53935d1edc7fd64eb21e047a839171b9190a45050565b60008051602061266783398151915261075181336114f2565b7f4910fdfa16fed3260ed0e7147f7cc6da11a60208b5b9406d12a635614ffd91435460ff161561168f576106cd83611b67565b826001600160a01b03166352d1902d6040518163ffffffff1660e01b815260040160206040518083038186803b1580156116c857600080fd5b505afa9250505080156116f8575060408051601f3d908101601f191682019092526116f5918101906123bf565b60015b61175b5760405162461bcd60e51b815260206004820152602e60248201527f45524331393637557067726164653a206e657720696d706c656d656e7461746960448201526d6f6e206973206e6f74205555505360901b606482015260840161073e565b60008051602061268783398151915281146117ca5760405162461bcd60e51b815260206004820152602960248201527f45524331393637557067726164653a20756e737570706f727465642070726f786044820152681a58589b195555525160ba1b606482015260840161073e565b506106cd838383611c03565b804710156118265760405162461bcd60e51b815260206004820152601d60248201527f416464726573733a20696e73756666696369656e742062616c616e6365000000604482015260640161073e565b6000826001600160a01b03168260405160006040518083038185875af1925050503d8060008114611873576040519150601f19603f3d011682016040523d82523d6000602084013e611878565b606091505b50509050806106cd5760405162461bcd60e51b815260206004820152603a60248201527f416464726573733a20756e61626c6520746f2073656e642076616c75652c207260448201527f6563697069656e74206d61792068617665207265766572746564000000000000606482015260840161073e565b600080600061190087878787611c2e565b9150915061190d81611d1b565b5095945050505050565b600054610100900460ff1661193e5760405162461bcd60e51b815260040161073e906125b2565b565b600054610100900460ff166119675760405162461bcd60e51b815260040161073e906125b2565b61193e611ed6565b6107518282611556565b600082815260656020526040808220600101805490849055905190918391839186917fbd79b86ffe0ab8e8776151514217cd7cacd52c909f66475c3af44e129f0b00ff9190a4505050565b606060006119d38360026123d8565b6119de9060026124c6565b67ffffffffffffffff8111156119f6576119f6612117565b6040519080825280601f01601f191660200182016040528015611a20576020820181803683370190505b509050600360fc1b81600081518110611a3b57611a3b612473565b60200101906001600160f81b031916908160001a905350600f60fb1b81600181518110611a6a57611a6a612473565b60200101906001600160f81b031916908160001a9053506000611a8e8460026123d8565b611a999060016124c6565b90505b6001811115611b11576f181899199a1a9b1b9c1cb0b131b232b360811b85600f1660108110611acd57611acd612473565b1a60f81b828281518110611ae357611ae3612473565b60200101906001600160f81b031916908160001a90535060049490941c93611b0a816125fd565b9050611a9c565b508315611b605760405162461bcd60e51b815260206004820181905260248201527f537472696e67733a20686578206c656e67746820696e73756666696369656e74604482015260640161073e565b9392505050565b6001600160a01b0381163b611bd45760405162461bcd60e51b815260206004820152602d60248201527f455243313936373a206e657720696d706c656d656e746174696f6e206973206e60448201526c1bdd08184818dbdb9d1c9858dd609a1b606482015260840161073e565b60008051602061268783398151915280546001600160a01b0319166001600160a01b0392909216919091179055565b611c0c83611f04565b600082511180611c195750805b156106cd57611c288383611f44565b50505050565b6000807f7fffffffffffffffffffffffffffffff5d576e7357a4501ddfe92f46681b20a0831115611c655750600090506003611d12565b8460ff16601b14158015611c7d57508460ff16601c14155b15611c8e5750600090506004611d12565b6040805160008082526020820180845289905260ff881692820192909252606081018690526080810185905260019060a0016020604051602081039080840390855afa158015611ce2573d6000803e3d6000fd5b5050604051601f1901519150506001600160a01b038116611d0b57600060019250925050611d12565b9150600090505b94509492505050565b6000816004811115611d2f57611d2f612614565b1415611d385750565b6001816004811115611d4c57611d4c612614565b1415611d9a5760405162461bcd60e51b815260206004820152601860248201527f45434453413a20696e76616c6964207369676e61747572650000000000000000604482015260640161073e565b6002816004811115611dae57611dae612614565b1415611dfc5760405162461bcd60e51b815260206004820152601f60248201527f45434453413a20696e76616c6964207369676e6174757265206c656e67746800604482015260640161073e565b6003816004811115611e1057611e10612614565b1415611e695760405162461bcd60e51b815260206004820152602260248201527f45434453413a20696e76616c6964207369676e6174757265202773272076616c604482015261756560f01b606482015260840161073e565b6004816004811115611e7d57611e7d612614565b14156108325760405162461bcd60e51b815260206004820152602260248201527f45434453413a20696e76616c6964207369676e6174757265202776272076616c604482015261756560f01b606482015260840161073e565b600054610100900460ff16611efd5760405162461bcd60e51b815260040161073e906125b2565b6001609755565b611f0d81611b67565b6040516001600160a01b038216907fbc7cd75a20ee27fd9adebab32041f755214dbc6bffa90cc0225b39da2e5c2d3b90600090a250565b60606001600160a01b0383163b611fac5760405162461bcd60e51b815260206004820152602660248201527f416464726573733a2064656c65676174652063616c6c20746f206e6f6e2d636f6044820152651b9d1c9858dd60d21b606482015260840161073e565b600080846001600160a01b031684604051611fc7919061262a565b600060405180830381855af49150503d8060008114612002576040519150601f19603f3d011682016040523d82523d6000602084013e612007565b606091505b509150915061202f82826040518060600160405280602781526020016126a760279139612038565b95945050505050565b60608315612047575081611b60565b8251156120575782518084602001fd5b8160405162461bcd60e51b815260040161073e919061257f565b60006020828403121561208357600080fd5b81356001600160e01b031981168114611b6057600080fd5b6000602082840312156120ad57600080fd5b5035919050565b80356001600160a01b03811681146120cb57600080fd5b919050565b6000602082840312156120e257600080fd5b611b60826120b4565b600080604083850312156120fe57600080fd5b8235915061210e602084016120b4565b90509250929050565b634e487b7160e01b600052604160045260246000fd5b6000806040838503121561214057600080fd5b612149836120b4565b9150602083013567ffffffffffffffff8082111561216657600080fd5b818501915085601f83011261217a57600080fd5b81358181111561218c5761218c612117565b604051601f8201601f19908116603f011681019083821181831017156121b4576121b4612117565b816040528281528860208487010111156121cd57600080fd5b8260208601602083013760006020848301015280955050505050509250929050565b60008060008060006080868803121561220757600080fd5b853560ff8116811461221857600080fd5b94506020860135935060408601359250606086013567ffffffffffffffff8082111561224357600080fd5b818801915088601f83011261225757600080fd5b81358181111561226657600080fd5b8960208260051b850101111561227b57600080fd5b9699959850939650602001949392505050565b600080604083850312156122a157600080fd5b6122aa836120b4565b946020939093013593505050565b600080600080608085870312156122ce57600080fd5b6122d7856120b4565b93506122e5602086016120b4565b93969395505050506040820135916060013590565b6020808252602c908201527f46756e6374696f6e206d7573742062652063616c6c6564207468726f7567682060408201526b19195b1959d85d1958d85b1b60a21b606082015260800190565b6020808252602c908201527f46756e6374696f6e206d7573742062652063616c6c6564207468726f7567682060408201526b6163746976652070726f787960a01b606082015260800190565b634e487b7160e01b600052601160045260246000fd5b6000828210156123ba576123ba612392565b500390565b6000602082840312156123d157600080fd5b5051919050565b60008160001904831182151516156123f2576123f2612392565b500290565b60008261241457634e487b7160e01b600052601260045260246000fd5b500490565b6bffffffffffffffffffffffff198460601b1681526000601482018460005b85811015612467576001600160a01b03612451836120b4565b1683526020928301929190910190600101612438565b50909695505050505050565b634e487b7160e01b600052603260045260246000fd5b600060001982141561249d5761249d612392565b5060010190565b6000602082840312156124b657600080fd5b81518015158114611b6057600080fd5b600082198211156124d9576124d9612392565b500190565b60005b838110156124f95781810151838201526020016124e1565b83811115611c285750506000910152565b7f416363657373436f6e74726f6c3a206163636f756e74200000000000000000008152600083516125428160178501602088016124de565b7001034b99036b4b9b9b4b733903937b6329607d1b60179184019182015283516125738160288401602088016124de565b01602801949350505050565b602081526000825180602084015261259e8160408501602087016124de565b601f01601f19169190910160400192915050565b6020808252602b908201527f496e697469616c697a61626c653a20636f6e7472616374206973206e6f74206960408201526a6e697469616c697a696e6760a81b606082015260800190565b60008161260c5761260c612392565b506000190190565b634e487b7160e01b600052602160045260246000fd5b6000825161263c8184602087016124de565b919091019291505056fed8a7a79547af723ee3e12b59a480111268d8969c634e1a34a144d2c8b91d635b189ab7a9244df0848122154315af71fe140f3db0fe014031783b0946b8c9d2e3360894a13ba1a3210667c828492db98dca3e2076cc3735a920a3ca505d382bbc416464726573733a206c6f772d6c6576656c2064656c65676174652063616c6c206661696c6564a49807205ce4d355092ef5a8a18f56e8913cf4a201fbe287825b095693c21775a26469706673582212209887db53d3746888e8868dd80a4009c216ae966042f8e6c78edda1c84d6b2ce064736f6c63430008090033",
  "linkReferences": {},
  "deployedLinkReferences": {}
}