{
  "_format": "hh-sol-artifact-1",
  "contractName": "WQBorrowing",
  "sourceName": "contracts/WQBorrowing.sol",
  "abi": [
    {
      "inputs": [],
      "stateMutability": "nonpayable",
      "type": "constructor"
    },
    {
      "anonymous": false,
      "inputs": [
        {
          "indexed": false,
          "internalType": "address",
          "name": "previousAdmin",
          "type": "address"
        },
        {
          "indexed": false,
          "internalType": "address",
          "name": "newAdmin",
          "type": "address"
        }
      ],
      "name": "AdminChanged",
      "type": "event"
    },
    {
      "anonymous": false,
      "inputs": [
        {
          "indexed": true,
          "internalType": "address",
          "name": "beacon",
          "type": "address"
        }
      ],
      "name": "BeaconUpgraded",
      "type": "event"
    },
    {
      "anonymous": false,
      "inputs": [
        {
          "indexed": false,
          "internalType": "uint256",
          "name": "nonce",
          "type": "uint256"
        },
        {
          "indexed": false,
          "internalType": "address",
          "name": "borrower",
          "type": "address"
        },
        {
          "indexed": false,
          "internalType": "uint256",
          "name": "index",
          "type": "uint256"
        },
        {
          "indexed": false,
          "internalType": "uint256",
          "name": "collateral",
          "type": "uint256"
        },
        {
          "indexed": false,
          "internalType": "uint256",
          "name": "credit",
          "type": "uint256"
        },
        {
          "indexed": false,
          "internalType": "string",
          "name": "symbol",
          "type": "string"
        }
      ],
      "name": "Borrowed",
      "type": "event"
    },
    {
      "anonymous": false,
      "inputs": [
        {
          "indexed": false,
          "internalType": "uint256",
          "name": "amount",
          "type": "uint256"
        }
      ],
      "name": "Received",
      "type": "event"
    },
    {
      "anonymous": false,
      "inputs": [
        {
          "indexed": false,
          "internalType": "uint256",
          "name": "nonce",
          "type": "uint256"
        },
        {
          "indexed": false,
          "internalType": "address",
          "name": "borrower",
          "type": "address"
        },
        {
          "indexed": false,
          "internalType": "uint256",
          "name": "index",
          "type": "uint256"
        },
        {
          "indexed": false,
          "internalType": "uint256",
          "name": "amount",
          "type": "uint256"
        }
      ],
      "name": "Refunded",
      "type": "event"
    },
    {
      "anonymous": false,
      "inputs": [
        {
          "indexed": true,
          "internalType": "bytes32",
          "name": "role",
          "type": "bytes32"
        },
        {
          "indexed": true,
          "internalType": "bytes32",
          "name": "previousAdminRole",
          "type": "bytes32"
        },
        {
          "indexed": true,
          "internalType": "bytes32",
          "name": "newAdminRole",
          "type": "bytes32"
        }
      ],
      "name": "RoleAdminChanged",
      "type": "event"
    },
    {
      "anonymous": false,
      "inputs": [
        {
          "indexed": true,
          "internalType": "bytes32",
          "name": "role",
          "type": "bytes32"
        },
        {
          "indexed": true,
          "internalType": "address",
          "name": "account",
          "type": "address"
        },
        {
          "indexed": true,
          "internalType": "address",
          "name": "sender",
          "type": "address"
        }
      ],
      "name": "RoleGranted",
      "type": "event"
    },
    {
      "anonymous": false,
      "inputs": [
        {
          "indexed": true,
          "internalType": "bytes32",
          "name": "role",
          "type": "bytes32"
        },
        {
          "indexed": true,
          "internalType": "address",
          "name": "account",
          "type": "address"
        },
        {
          "indexed": true,
          "internalType": "address",
          "name": "sender",
          "type": "address"
        }
      ],
      "name": "RoleRevoked",
      "type": "event"
    },
    {
      "anonymous": false,
      "inputs": [
        {
          "indexed": true,
          "internalType": "address",
          "name": "implementation",
          "type": "address"
        }
      ],
      "name": "Upgraded",
      "type": "event"
    },
    {
      "inputs": [],
      "name": "ADMIN_ROLE",
      "outputs": [
        {
          "internalType": "bytes32",
          "name": "",
          "type": "bytes32"
        }
      ],
      "stateMutability": "view",
      "type": "function"
    },
    {
      "inputs": [],
      "name": "AUCTION_ROLE",
      "outputs": [
        {
          "internalType": "bytes32",
          "name": "",
          "type": "bytes32"
        }
      ],
      "stateMutability": "view",
      "type": "function"
    },
    {
      "inputs": [],
      "name": "DEFAULT_ADMIN_ROLE",
      "outputs": [
        {
          "internalType": "bytes32",
          "name": "",
          "type": "bytes32"
        }
      ],
      "stateMutability": "view",
      "type": "function"
    },
    {
      "inputs": [],
      "name": "UPGRADER_ROLE",
      "outputs": [
        {
          "internalType": "bytes32",
          "name": "",
          "type": "bytes32"
        }
      ],
      "stateMutability": "view",
      "type": "function"
    },
    {
      "inputs": [],
      "name": "YEAR",
      "outputs": [
        {
          "internalType": "uint256",
          "name": "",
          "type": "uint256"
        }
      ],
      "stateMutability": "view",
      "type": "function"
    },
    {
      "inputs": [
        {
          "internalType": "contract WQFundInterface",
          "name": "fund",
          "type": "address"
        }
      ],
      "name": "addFund",
      "outputs": [],
      "stateMutability": "nonpayable",
      "type": "function"
    },
    {
      "inputs": [
        {
          "internalType": "uint256",
          "name": "",
          "type": "uint256"
        }
      ],
      "name": "apys",
      "outputs": [
        {
          "internalType": "uint256",
          "name": "",
          "type": "uint256"
        }
      ],
      "stateMutability": "view",
      "type": "function"
    },
    {
      "inputs": [
        {
          "internalType": "uint256",
          "name": "nonce",
          "type": "uint256"
        },
        {
          "internalType": "address",
          "name": "depositor",
          "type": "address"
        },
        {
          "internalType": "uint256",
          "name": "credit",
          "type": "uint256"
        },
        {
          "internalType": "uint256",
          "name": "fundIndex",
          "type": "uint256"
        },
        {
          "internalType": "uint256",
          "name": "duration",
          "type": "uint256"
        },
        {
          "internalType": "string",
          "name": "symbol",
          "type": "string"
        }
      ],
      "name": "borrow",
      "outputs": [],
      "stateMutability": "nonpayable",
      "type": "function"
    },
    {
      "inputs": [
        {
          "internalType": "address",
          "name": "",
          "type": "address"
        },
        {
          "internalType": "uint256",
          "name": "",
          "type": "uint256"
        }
      ],
      "name": "borrowers",
      "outputs": [
        {
          "internalType": "address",
          "name": "depositor",
          "type": "address"
        },
        {
          "internalType": "uint256",
          "name": "collateral",
          "type": "uint256"
        },
        {
          "internalType": "uint256",
          "name": "credit",
          "type": "uint256"
        },
        {
          "internalType": "uint256",
          "name": "borrowedAt",
          "type": "uint256"
        },
        {
          "internalType": "uint256",
          "name": "duration",
          "type": "uint256"
        },
        {
          "internalType": "uint256",
          "name": "apy",
          "type": "uint256"
        },
        {
          "internalType": "contract WQFundInterface",
          "name": "fund",
          "type": "address"
        },
        {
          "internalType": "string",
          "name": "symbol",
          "type": "string"
        }
      ],
      "stateMutability": "view",
      "type": "function"
    },
    {
      "inputs": [
        {
          "internalType": "uint256",
          "name": "index",
          "type": "uint256"
        },
        {
          "internalType": "uint256",
          "name": "nonce",
          "type": "uint256"
        },
        {
          "internalType": "address",
          "name": "borrower",
          "type": "address"
        },
        {
          "internalType": "uint256",
          "name": "amount",
          "type": "uint256"
        }
      ],
      "name": "buyCollateral",
      "outputs": [],
      "stateMutability": "nonpayable",
      "type": "function"
    },
    {
      "inputs": [],
      "name": "fee",
      "outputs": [
        {
          "internalType": "uint256",
          "name": "",
          "type": "uint256"
        }
      ],
      "stateMutability": "view",
      "type": "function"
    },
    {
      "inputs": [],
      "name": "feeReceiver",
      "outputs": [
        {
          "internalType": "address",
          "name": "",
          "type": "address"
        }
      ],
      "stateMutability": "view",
      "type": "function"
    },
    {
      "inputs": [],
      "name": "fixedRate",
      "outputs": [
        {
          "internalType": "uint256",
          "name": "",
          "type": "uint256"
        }
      ],
      "stateMutability": "view",
      "type": "function"
    },
    {
      "inputs": [
        {
          "internalType": "uint256",
          "name": "",
          "type": "uint256"
        }
      ],
      "name": "funds",
      "outputs": [
        {
          "internalType": "contract WQFundInterface",
          "name": "",
          "type": "address"
        }
      ],
      "stateMutability": "view",
      "type": "function"
    },
    {
      "inputs": [
        {
          "internalType": "address",
          "name": "borrower",
          "type": "address"
        },
        {
          "internalType": "uint256",
          "name": "index",
          "type": "uint256"
        }
      ],
      "name": "getCurrentFee",
      "outputs": [
        {
          "internalType": "uint256",
          "name": "",
          "type": "uint256"
        }
      ],
      "stateMutability": "view",
      "type": "function"
    },
    {
      "inputs": [],
      "name": "getFunds",
      "outputs": [
        {
          "internalType": "contract WQFundInterface[]",
          "name": "funds_",
          "type": "address[]"
        }
      ],
      "stateMutability": "view",
      "type": "function"
    },
    {
      "inputs": [
        {
          "internalType": "address",
          "name": "borrower",
          "type": "address"
        },
        {
          "internalType": "uint256",
          "name": "index",
          "type": "uint256"
        }
      ],
      "name": "getRewards",
      "outputs": [
        {
          "internalType": "uint256",
          "name": "",
          "type": "uint256"
        }
      ],
      "stateMutability": "view",
      "type": "function"
    },
    {
      "inputs": [
        {
          "internalType": "bytes32",
          "name": "role",
          "type": "bytes32"
        }
      ],
      "name": "getRoleAdmin",
      "outputs": [
        {
          "internalType": "bytes32",
          "name": "",
          "type": "bytes32"
        }
      ],
      "stateMutability": "view",
      "type": "function"
    },
    {
      "inputs": [
        {
          "internalType": "bytes32",
          "name": "role",
          "type": "bytes32"
        },
        {
          "internalType": "address",
          "name": "account",
          "type": "address"
        }
      ],
      "name": "grantRole",
      "outputs": [],
      "stateMutability": "nonpayable",
      "type": "function"
    },
    {
      "inputs": [
        {
          "internalType": "bytes32",
          "name": "role",
          "type": "bytes32"
        },
        {
          "internalType": "address",
          "name": "account",
          "type": "address"
        }
      ],
      "name": "hasRole",
      "outputs": [
        {
          "internalType": "bool",
          "name": "",
          "type": "bool"
        }
      ],
      "stateMutability": "view",
      "type": "function"
    },
    {
      "inputs": [
        {
          "internalType": "uint256",
          "name": "_fixedRate",
          "type": "uint256"
        },
        {
          "internalType": "uint256",
          "name": "_fee",
          "type": "uint256"
        },
        {
          "internalType": "address",
          "name": "_oracle",
          "type": "address"
        },
        {
          "internalType": "address",
          "name": "_wusd",
          "type": "address"
        },
        {
          "internalType": "address",
          "name": "_feeReceiver",
          "type": "address"
        }
      ],
      "name": "initialize",
      "outputs": [],
      "stateMutability": "nonpayable",
      "type": "function"
    },
    {
      "inputs": [],
      "name": "oracle",
      "outputs": [
        {
          "internalType": "contract WQPriceOracleInterface",
          "name": "",
          "type": "address"
        }
      ],
      "stateMutability": "view",
      "type": "function"
    },
    {
      "inputs": [],
      "name": "proxiableUUID",
      "outputs": [
        {
          "internalType": "bytes32",
          "name": "",
          "type": "bytes32"
        }
      ],
      "stateMutability": "view",
      "type": "function"
    },
    {
      "inputs": [
        {
          "internalType": "uint256",
          "name": "index",
          "type": "uint256"
        },
        {
          "internalType": "uint256",
          "name": "nonce",
          "type": "uint256"
        },
        {
          "internalType": "uint256",
          "name": "amount",
          "type": "uint256"
        }
      ],
      "name": "refund",
      "outputs": [],
      "stateMutability": "nonpayable",
      "type": "function"
    },
    {
      "inputs": [
        {
          "internalType": "uint256",
          "name": "index",
          "type": "uint256"
        }
      ],
      "name": "removeFund",
      "outputs": [],
      "stateMutability": "nonpayable",
      "type": "function"
    },
    {
      "inputs": [
        {
          "internalType": "bytes32",
          "name": "role",
          "type": "bytes32"
        },
        {
          "internalType": "address",
          "name": "account",
          "type": "address"
        }
      ],
      "name": "renounceRole",
      "outputs": [],
      "stateMutability": "nonpayable",
      "type": "function"
    },
    {
      "inputs": [
        {
          "internalType": "bytes32",
          "name": "role",
          "type": "bytes32"
        },
        {
          "internalType": "address",
          "name": "account",
          "type": "address"
        }
      ],
      "name": "revokeRole",
      "outputs": [],
      "stateMutability": "nonpayable",
      "type": "function"
    },
    {
      "inputs": [
        {
          "internalType": "uint256",
          "name": "duration",
          "type": "uint256"
        },
        {
          "internalType": "uint256",
          "name": "apy",
          "type": "uint256"
        }
      ],
      "name": "setApy",
      "outputs": [],
      "stateMutability": "nonpayable",
      "type": "function"
    },
    {
      "inputs": [
        {
          "internalType": "uint256",
          "name": "_fee",
          "type": "uint256"
        }
      ],
      "name": "setFee",
      "outputs": [],
      "stateMutability": "nonpayable",
      "type": "function"
    },
    {
      "inputs": [
        {
          "internalType": "address",
          "name": "_feeReceiver",
          "type": "address"
        }
      ],
      "name": "setFeeReceiver",
      "outputs": [],
      "stateMutability": "nonpayable",
      "type": "function"
    },
    {
      "inputs": [
        {
          "internalType": "uint256",
          "name": "_fixedRate",
          "type": "uint256"
        }
      ],
      "name": "setFixedRate",
      "outputs": [],
      "stateMutability": "nonpayable",
      "type": "function"
    },
    {
      "inputs": [
        {
          "internalType": "contract IERC20Upgradeable",
          "name": "token",
          "type": "address"
        },
        {
          "internalType": "string",
          "name": "symbol",
          "type": "string"
        }
      ],
      "name": "setToken",
      "outputs": [],
      "stateMutability": "nonpayable",
      "type": "function"
    },
    {
      "inputs": [
        {
          "internalType": "uint256",
          "name": "index",
          "type": "uint256"
        },
        {
          "internalType": "address",
          "name": "borrower",
          "type": "address"
        }
      ],
      "name": "startAuction",
      "outputs": [],
      "stateMutability": "nonpayable",
      "type": "function"
    },
    {
      "inputs": [
        {
          "internalType": "bytes4",
          "name": "interfaceId",
          "type": "bytes4"
        }
      ],
      "name": "supportsInterface",
      "outputs": [
        {
          "internalType": "bool",
          "name": "",
          "type": "bool"
        }
      ],
      "stateMutability": "view",
      "type": "function"
    },
    {
      "inputs": [
        {
          "internalType": "string",
          "name": "",
          "type": "string"
        }
      ],
      "name": "tokens",
      "outputs": [
        {
          "internalType": "contract IERC20Upgradeable",
          "name": "",
          "type": "address"
        }
      ],
      "stateMutability": "view",
      "type": "function"
    },
    {
      "inputs": [
        {
          "internalType": "uint256",
          "name": "index",
          "type": "uint256"
        },
        {
          "internalType": "contract WQFundInterface",
          "name": "fund",
          "type": "address"
        }
      ],
      "name": "updateFund",
      "outputs": [],
      "stateMutability": "nonpayable",
      "type": "function"
    },
    {
      "inputs": [
        {
          "internalType": "address",
          "name": "newImplementation",
          "type": "address"
        }
      ],
      "name": "upgradeTo",
      "outputs": [],
      "stateMutability": "nonpayable",
      "type": "function"
    },
    {
      "inputs": [
        {
          "internalType": "address",
          "name": "newImplementation",
          "type": "address"
        },
        {
          "internalType": "bytes",
          "name": "data",
          "type": "bytes"
        }
      ],
      "name": "upgradeToAndCall",
      "outputs": [],
      "stateMutability": "payable",
      "type": "function"
    },
    {
      "inputs": [],
      "name": "wusd",
      "outputs": [
        {
          "internalType": "contract IERC20Upgradeable",
          "name": "",
          "type": "address"
        }
      ],
      "stateMutability": "view",
      "type": "function"
    }
  ],
  "bytecode": "0x60a0604052306080523480156200001557600080fd5b50600054610100900460ff16620000335760005460ff16156200003d565b6200003d620000e2565b620000a55760405162461bcd60e51b815260206004820152602e60248201527f496e697469616c697a61626c653a20636f6e747261637420697320616c72656160448201526d191e481a5b9a5d1a585b1a5e995960921b606482015260840160405180910390fd5b600054610100900460ff16158015620000c8576000805461ffff19166101011790555b8015620000db576000805461ff00191690555b506200010f565b6000620000fa306200010060201b62001f271760201c565b15905090565b6001600160a01b03163b151590565b608051613bb462000147600039600081816108e30152818161092301528181610e8101528181610ec10152610f500152613bb46000f3fe6080604052600436106102305760003560e01c80637387f44d1161012e578063b3f00674116100ab578063e9302e091161006f578063e9302e09146106d0578063efdcd974146106f0578063f335ed7614610710578063f72c0d8b14610744578063fdad53db1461076657600080fd5b8063b3f0067414610638578063d547741f14610659578063daf8bc1014610679578063ddca3f4314610699578063e7aac8cc146106b057600080fd5b806381ce1c23116100f257806381ce1c231461059d57806383914540146105cb57806391d14854146105e3578063a217fddf14610603578063af191a0c1461061857600080fd5b80637387f44d1461050357806375b238fc146105235780637b8e8895146105455780637dc0d1d014610565578063802d14221461058657600080fd5b80633af388e0116101bc5780634d9b3735116101805780634d9b3735146104795780634f1ef2861461049b57806352d1902d146104ae578063554ccea0146104c357806369fe0e2d146104e357600080fd5b80633af388e0146103c55780633fbfd4df146103e557806342569ec314610405578063430730a314610425578063476ec1cc1461045957600080fd5b8063248a9ca311610203578063248a9ca3146103075780632f2ff15d1461034557806336568abe146103655780633659cfe61461038557806338e8701e146103a557600080fd5b806301ffc9a71461023557806304c2320b1461026a57806307dc290a146102c457806315c40eb0146102e6575b600080fd5b34801561024157600080fd5b50610255610250366004612f67565b610786565b60405190151581526020015b60405180910390f35b34801561027657600080fd5b506102ac61028536600461301d565b8051602081830181018051610133825292820191909301209152546001600160a01b031681565b6040516001600160a01b039091168152602001610261565b3480156102d057600080fd5b506102e46102df36600461307b565b6107bd565b005b3480156102f257600080fd5b5061012f546102ac906001600160a01b031681565b34801561031357600080fd5b50610337610322366004613098565b60009081526065602052604090206001015490565b604051908152602001610261565b34801561035157600080fd5b506102e46103603660046130b1565b61082a565b34801561037157600080fd5b506102e46103803660046130b1565b610855565b34801561039157600080fd5b506102e46103a036600461307b565b6108d8565b3480156103b157600080fd5b506103376103c03660046130e1565b6109b8565b3480156103d157600080fd5b506102e46103e0366004613098565b610a15565b3480156103f157600080fd5b506102e461040036600461310d565b610ae2565b34801561041157600080fd5b506102e46104203660046130b1565b610c9d565b34801561043157600080fd5b506103377fc5e2d1653feba496cf5ce3a744b90ea18acf0df3d036aba9b2f85992a146790681565b34801561046557600080fd5b506102e46104743660046130b1565b610cfe565b34801561048557600080fd5b5061048e610dab565b604051610261919061316c565b6102e46104a93660046131b9565b610e76565b3480156104ba57600080fd5b50610337610f43565b3480156104cf57600080fd5b506102e46104de366004613266565b610ff6565b3480156104ef57600080fd5b506102e46104fe366004613098565b61171b565b34801561050f57600080fd5b5061033761051e3660046130e1565b61173b565b34801561052f57600080fd5b50610337600080516020613b5f83398151915281565b34801561055157600080fd5b506102ac610560366004613098565b611810565b34801561057157600080fd5b5061012d546102ac906001600160a01b031681565b34801561059257600080fd5b5061033761012e5481565b3480156105a957600080fd5b506103376105b8366004613098565b6101326020526000908152604090205481565b3480156105d757600080fd5b506103376301e1338081565b3480156105ef57600080fd5b506102556105fe3660046130b1565b61183b565b34801561060f57600080fd5b50610337600081565b34801561062457600080fd5b506102e46106333660046132e3565b611866565b34801561064457600080fd5b50610130546102ac906001600160a01b031681565b34801561066557600080fd5b506102e46106743660046130b1565b6119ae565b34801561068557600080fd5b506102e461069436600461330f565b6119d4565b3480156106a557600080fd5b506103376101315481565b3480156106bc57600080fd5b506102e46106cb366004613331565b611a01565b3480156106dc57600080fd5b506102e46106eb366004613098565b611d6c565b3480156106fc57600080fd5b506102e461070b36600461307b565b611d8c565b34801561071c57600080fd5b5061073061072b3660046130e1565b611dc9565b6040516102619897969594939291906133c8565b34801561075057600080fd5b50610337600080516020613af883398151915281565b34801561077257600080fd5b506102e4610781366004613421565b611ec5565b60006001600160e01b03198216637965db0b60e01b14806107b757506301ffc9a760e01b6001600160e01b03198316145b92915050565b600080516020613b5f8339815191526107d68133611f36565b5061013580546001810182556000919091527fdf37d27e88e3bd0b85262482997e409a463f5be0ebb19232abf994dd8474090d0180546001600160a01b0319166001600160a01b0392909216919091179055565b6000828152606560205260409020600101546108468133611f36565b6108508383611f9a565b505050565b6001600160a01b03811633146108ca5760405162461bcd60e51b815260206004820152602f60248201527f416363657373436f6e74726f6c3a2063616e206f6e6c792072656e6f756e636560448201526e103937b632b9903337b91039b2b63360891b60648201526084015b60405180910390fd5b6108d48282612020565b5050565b306001600160a01b037f00000000000000000000000000000000000000000000000000000000000000001614156109215760405162461bcd60e51b81526004016108c190613476565b7f00000000000000000000000000000000000000000000000000000000000000006001600160a01b031661096a600080516020613b18833981519152546001600160a01b031690565b6001600160a01b0316146109905760405162461bcd60e51b81526004016108c1906134c2565b61099981612087565b604080516000808252602082019092526109b5918391906120a0565b50565b6001600160a01b0382166000908152610134602052604081208054829190849081106109e6576109e661350e565b90600052602060002090600802019050610a0d81600201548260050154836003015461221a565b949350505050565b600080516020613b5f833981519152610a2e8133611f36565b6101358054610a3f9060019061353a565b81548110610a4f57610a4f61350e565b60009182526020909120015461013580546001600160a01b039092169184908110610a7c57610a7c61350e565b9060005260206000200160006101000a8154816001600160a01b0302191690836001600160a01b03160217905550610135805480610abc57610abc613551565b600082815260209020810160001990810180546001600160a01b03191690550190555050565b600054610100900460ff16610afd5760005460ff1615610b01565b303b155b610b645760405162461bcd60e51b815260206004820152602e60248201527f496e697469616c697a61626c653a20636f6e747261637420697320616c72656160448201526d191e481a5b9a5d1a585b1a5e995960921b60648201526084016108c1565b600054610100900460ff16158015610b86576000805461ffff19166101011790555b610b8e61227e565b610b966122a7565b610b9e61227e565b610ba96000336122d6565b610bc1600080516020613b5f833981519152336122d6565b610bd9600080516020613af8833981519152336122d6565b610bff600080516020613af8833981519152600080516020613b5f8339815191526122e0565b610c377fc5e2d1653feba496cf5ce3a744b90ea18acf0df3d036aba9b2f85992a1467906600080516020613b5f8339815191526122e0565b61012d80546001600160a01b038087166001600160a01b03199283161790925561012e88905561012f80548684169083161790556101308054928516929091169190911790556101318590558015610c95576000805461ff00191690555b505050505050565b600080516020613b5f833981519152610cb68133611f36565b816101358481548110610ccb57610ccb61350e565b9060005260206000200160006101000a8154816001600160a01b0302191690836001600160a01b03160217905550505050565b60026097541415610d215760405162461bcd60e51b81526004016108c190613567565b60026097556001600160a01b038116600090815261013460205260408120805484908110610d5157610d5161350e565b90600052602060002090600802019050806004015462015180610d74919061359e565b8160030154610d8391906135bd565b4211610da15760405162461bcd60e51b81526004016108c1906135d5565b5050600160975550565b6101355460609067ffffffffffffffff811115610dca57610dca612f91565b604051908082528060200260200182016040528015610df3578160200160208202803683370190505b50905060005b61013554811015610e72576101358181548110610e1857610e1861350e565b9060005260206000200160009054906101000a90046001600160a01b0316828281518110610e4857610e4861350e565b6001600160a01b039092166020928302919091019091015280610e6a81613632565b915050610df9565b5090565b306001600160a01b037f0000000000000000000000000000000000000000000000000000000000000000161415610ebf5760405162461bcd60e51b81526004016108c190613476565b7f00000000000000000000000000000000000000000000000000000000000000006001600160a01b0316610f08600080516020613b18833981519152546001600160a01b031690565b6001600160a01b031614610f2e5760405162461bcd60e51b81526004016108c1906134c2565b610f3782612087565b6108d4828260016120a0565b6000306001600160a01b037f00000000000000000000000000000000000000000000000000000000000000001614610fe35760405162461bcd60e51b815260206004820152603860248201527f555550535570677261646561626c653a206d757374206e6f742062652063616c60448201527f6c6564207468726f7567682064656c656761746563616c6c000000000000000060648201526084016108c1565b50600080516020613b1883398151915290565b600260975414156110195760405162461bcd60e51b81526004016108c190613567565b600260975560405160009061013390611035908590859061364d565b908152604051908190036020019020546001600160a01b031614156110b65760405162461bcd60e51b815260206004820152603160248201527f5751426f72726f77696e673a205468697320746f6b656e2069732064697361626044820152701b1959081d1bc818dbdb1b185d195c985b607a1b60648201526084016108c1565b600083815261013260205260409020546111125760405162461bcd60e51b815260206004820152601d60248201527f5751426f72726f77696e673a20496e76616c6964206475726174696f6e00000060448201526064016108c1565b600061013585815481106111285761112861350e565b6000918252602090912001546040516381ce1c2360e01b8152600481018690526001600160a01b03909116906381ce1c239060240160206040518083038186803b15801561117557600080fd5b505afa158015611189573d6000803e3d6000fd5b505050506040513d601f19601f820116820180604052508101906111ad919061365d565b116111fa5760405162461bcd60e51b815260206004820152601d60248201527f5751426f72726f77696e673a20496e76616c6964206475726174696f6e00000060448201526064016108c1565b610135848154811061120e5761120e61350e565b6000918252602090912001546040516370a0823160e01b81526001600160a01b038881166004830152909116906370a082319060240160206040518083038186803b15801561125c57600080fd5b505afa158015611270573d6000803e3d6000fd5b505050506040513d601f19601f82011682018060405250810190611294919061365d565b8511156112f45760405162461bcd60e51b815260206004820152602860248201527f5751426f72726f77696e673a20496e73756666696369656e7420616d6f756e74604482015267081a5b88199d5b9960c21b60648201526084016108c1565b6000610133838360405161130992919061364d565b90815260408051602092819003830181205463313ce56760e01b825291516001600160a01b039092169263313ce56792600480840193829003018186803b15801561135357600080fd5b505afa158015611367573d6000803e3d6000fd5b505050506040513d601f19601f8201168201806040525081019061138b9190613676565b611396906012613699565b6113a190600a6137a0565b61012d54604051630292e0fd60e01b81526002916001600160a01b031690630292e0fd906113d590889088906004016137d8565b60206040518083038186803b1580156113ed57600080fd5b505afa158015611401573d6000803e3d6000fd5b505050506040513d601f19601f82011682018060405250810190611425919061365d565b611437896729a2241af62c000061359e565b61144191906137ec565b61144b91906137ec565b61145591906137ec565b90506101346000336001600160a01b03166001600160a01b03168152602001908152602001600020604051806101000160405280896001600160a01b03168152602001838152602001888152602001428152602001868152602001610132600088815260200190815260200160002054815260200161013588815481106114de576114de61350e565b600091825260209182902001546001600160a01b0316825260408051601f8801839004830281018301909152868152918101919087908790819084018382808284376000920182905250939094525050835460018181018655948252602091829020845160089092020180546001600160a01b039283166001600160a01b0319918216178255838601519682019690965560408501516002820155606085015160038201556080850151600482015560a0850151600582015560c085015160068201805491909316961695909517905560e083015180519394936115cc935060078501929190910190612ed7565b50505061160933308361013387876040516115e892919061364d565b908152604051908190036020019020546001600160a01b031692919061232b565b610135858154811061161d5761161d61350e565b60009182526020909120015460405163c1bce0b760e01b81526001600160a01b03898116600483015260248201899052604482018790529091169063c1bce0b790606401600060405180830381600087803b15801561167b57600080fd5b505af115801561168f573d6000803e3d6000fd5b505061012f546116ac92506001600160a01b03169050338861239c565b33600081815261013460205260409020547fefa9aff199b44bd001723725cda17225156b141a04fc472c5510ec7e0283896c918a916116ed9060019061353a565b848a8888604051611704979695949392919061380e565b60405180910390a150506001609755505050505050565b600080516020613b5f8339815191526117348133611f36565b5061013155565b6001600160a01b0382166000908152610134602052604081208054829190849081106117695761176961350e565b60009182526020909120600890910201600281015460068201546004808401546040516381ce1c2360e01b815291820152929350610a0d926001600160a01b03909116906381ce1c239060240160206040518083038186803b1580156117ce57600080fd5b505afa1580156117e2573d6000803e3d6000fd5b505050506040513d601f19601f82011682018060405250810190611806919061365d565b83600301546123cc565b610135818154811061182157600080fd5b6000918252602090912001546001600160a01b0316905081565b60009182526065602090815260408084206001600160a01b0393909316845291905290205460ff1690565b600260975414156118895760405162461bcd60e51b81526004016108c190613567565b6002609755336000908152610134602052604081208054859081106118b0576118b061350e565b9060005260206000209060080201905060008160020154116118e45760405162461bcd60e51b81526004016108c190613855565b61190f843333858560020154878760010154611900919061359e565b61190a91906137ec565b612404565b610130546101315461195c9133916001600160a01b0390911690670de0b6b3a76400009061193d908761359e565b61194791906137ec565b61012f546001600160a01b031692919061232b565b60408051848152336020820152908101859052606081018390527f279ac10417b4a21068fc6d3150dd2e5fc45320cb722f60a07d37a113a3bf3acd9060800160405180910390a1505060016097555050565b6000828152606560205260409020600101546119ca8133611f36565b6108508383612020565b600080516020613b5f8339815191526119ed8133611f36565b506000918252610132602052604090912055565b60026097541415611a245760405162461bcd60e51b81526004016108c190613567565b60026097557fc5e2d1653feba496cf5ce3a744b90ea18acf0df3d036aba9b2f85992a1467906611a548133611f36565b6001600160a01b038316600090815261013460205260408120805487908110611a7f57611a7f61350e565b906000526020600020906008020190506000816001015411611ab35760405162461bcd60e51b81526004016108c190613855565b6004810154611ac5906201518061359e565b8160030154611ad491906135bd565b4211611af25760405162461bcd60e51b81526004016108c1906135d5565b61012d54604051630292e0fd60e01b81526000916001600160a01b031690630292e0fd90611b279060078601906004016138d8565b60206040518083038186803b158015611b3f57600080fd5b505afa158015611b53573d6000803e3d6000fd5b505050506040513d601f19601f82011682018060405250810190611b77919061365d565b9050600061013383600701604051611b8f919061395d565b90815260408051602092819003830181205463313ce56760e01b825291516001600160a01b039092169263313ce56792600480840193829003018186803b158015611bd957600080fd5b505afa158015611bed573d6000803e3d6000fd5b505050506040513d601f19601f82011682018060405250810190611c119190613676565b611c1c906012613699565b611c2790600a6137a0565b9050670de0b6b3a76400008284600101546002611c44919061359e565b611c4e919061359e565b828560020154611c5e919061359e565b611c78906f0241c76b735b154119e2dd300000000061359e565b611c8291906137ec565b11611d035760405162461bcd60e51b815260206004820152604560248201527f5751426f72726f77696e673a2054686520636f6c6c61746572616c207072696360448201527f6520697320696e73756666696369656e7420746f2072657061792074686520636064820152641c99591a5d60da1b608482015260a4016108c1565b611d28888733888587611d1e83670de0b6b3a764000061359e565b61190091906137ec565b60408051888152336020820152908101899052606081018690527f279ac10417b4a21068fc6d3150dd2e5fc45320cb722f60a07d37a113a3bf3acd90608001611704565b600080516020613b5f833981519152611d858133611f36565b5061012e55565b600080516020613b5f833981519152611da58133611f36565b5061013080546001600160a01b0319166001600160a01b0392909216919091179055565b6101346020528160005260406000208181548110611de657600080fd5b6000918252602090912060089091020180546001820154600283015460038401546004850154600586015460068701546007880180546001600160a01b039889169b5096995094979396929591949216929190611e429061389d565b80601f0160208091040260200160405190810160405280929190818152602001828054611e6e9061389d565b8015611ebb5780601f10611e9057610100808354040283529160200191611ebb565b820191906000526020600020905b815481529060010190602001808311611e9e57829003601f168201915b5050505050905088565b600080516020613b5f833981519152611ede8133611f36565b836101338484604051611ef292919061364d565b90815260405190819003602001902080546001600160a01b03929092166001600160a01b031990921691909117905550505050565b6001600160a01b03163b151590565b611f40828261183b565b6108d457611f58816001600160a01b031660146127a9565b611f638360206127a9565b604051602001611f749291906139cf565b60408051601f198184030181529082905262461bcd60e51b82526108c191600401613a44565b611fa4828261183b565b6108d45760008281526065602090815260408083206001600160a01b03851684529091529020805460ff19166001179055611fdc3390565b6001600160a01b0316816001600160a01b0316837f2f8788117e7eff1d82e926ec794901d17c78024a50270940304540a733656f0d60405160405180910390a45050565b61202a828261183b565b156108d45760008281526065602090815260408083206001600160a01b0385168085529252808320805460ff1916905551339285917ff6391f5c32d9c69d2a47ea670b442974b53935d1edc7fd64eb21e047a839171b9190a45050565b600080516020613af88339815191526108d48133611f36565b7f4910fdfa16fed3260ed0e7147f7cc6da11a60208b5b9406d12a635614ffd91435460ff16156120d35761085083612945565b826001600160a01b03166352d1902d6040518163ffffffff1660e01b815260040160206040518083038186803b15801561210c57600080fd5b505afa92505050801561213c575060408051601f3d908101601f191682019092526121399181019061365d565b60015b61219f5760405162461bcd60e51b815260206004820152602e60248201527f45524331393637557067726164653a206e657720696d706c656d656e7461746960448201526d6f6e206973206e6f74205555505360901b60648201526084016108c1565b600080516020613b18833981519152811461220e5760405162461bcd60e51b815260206004820152602960248201527f45524331393637557067726164653a20756e737570706f727465642070726f786044820152681a58589b195555525160ba1b60648201526084016108c1565b506108508383836129e1565b6000670de0b6b3a76400006301e13380612234844261353a565b61223e868861359e565b612248919061359e565b61225291906137ec565b61012e54612260908761359e565b61226a91906135bd565b61227491906137ec565b90505b9392505050565b600054610100900460ff166122a55760405162461bcd60e51b81526004016108c190613a57565b565b600054610100900460ff166122ce5760405162461bcd60e51b81526004016108c190613a57565b6122a5612a06565b6108d48282611f9a565b600082815260656020526040808220600101805490849055905190918391839186917fbd79b86ffe0ab8e8776151514217cd7cacd52c909f66475c3af44e129f0b00ff9190a4505050565b6040516001600160a01b03808516602483015283166044820152606481018290526123969085906323b872dd60e01b906084015b60408051601f198184030181529190526020810180516001600160e01b03166001600160e01b031990931692909217909152612a34565b50505050565b6040516001600160a01b03831660248201526044810182905261085090849063a9059cbb60e01b9060640161235f565b6000670de0b6b3a76400006301e133806123e6844261353a565b6123f0868861359e565b6123fa919061359e565b61226a91906137ec565b6001600160a01b03841660009081526101346020526040812080548790811061242f5761242f61350e565b9060005260206000209060080201905060006001600160a01b03166101338260070160405161245e919061395d565b908152604051908190036020019020546001600160a01b031614156124c55760405162461bcd60e51b815260206004820152601e60248201527f5751426f72726f77696e673a20546f6b656e2069732064697361626c6564000060448201526064016108c1565b828160020160008282546124d9919061353a565b92505081905550818160010160008282546124f4919061353a565b909155505060068101546004808301546040516381ce1c2360e01b81529182015260009161258b9186916001600160a01b0316906381ce1c239060240160206040518083038186803b15801561254957600080fd5b505afa15801561255d573d6000803e3d6000fd5b505050506040513d601f19601f82011682018060405250810190612581919061365d565b84600301546123cc565b905060006125a2858460050154856003015461221a565b90506125b3333061194784896135bd565b61012f546006840154604051636eb1769f60e11b81523060048201526001600160a01b039182166024820152600092919091169063dd62ed3e9060440160206040518083038186803b15801561260857600080fd5b505afa15801561261c573d6000803e3d6000fd5b505050506040513d601f19601f82011682018060405250810190612640919061365d565b111561266757600683015461012f54612667916001600160a01b0391821691166000612b06565b6006830154612697906001600160a01b031661268384886135bd565b61012f546001600160a01b03169190612b06565b6006830154835460038501546001600160a01b039283169263268ebd5992169088906126c3904261353a565b6004808901546040516001600160e01b031960e088901b1681526001600160a01b0390951691850191909152602484019290925260448301526064820152608401600060405180830381600087803b15801561271e57600080fd5b505af1158015612732573d6000803e3d6000fd5b50506101305461276692506001600160a01b03169050612752848461353a565b61012f546001600160a01b0316919061239c565b61279f86856101338660070160405161277f919061395d565b908152604051908190036020019020546001600160a01b0316919061239c565b5050505050505050565b606060006127b883600261359e565b6127c39060026135bd565b67ffffffffffffffff8111156127db576127db612f91565b6040519080825280601f01601f191660200182016040528015612805576020820181803683370190505b509050600360fc1b816000815181106128205761282061350e565b60200101906001600160f81b031916908160001a905350600f60fb1b8160018151811061284f5761284f61350e565b60200101906001600160f81b031916908160001a905350600061287384600261359e565b61287e9060016135bd565b90505b60018111156128f6576f181899199a1a9b1b9c1cb0b131b232b360811b85600f16601081106128b2576128b261350e565b1a60f81b8282815181106128c8576128c861350e565b60200101906001600160f81b031916908160001a90535060049490941c936128ef81613aa2565b9050612881565b5083156122775760405162461bcd60e51b815260206004820181905260248201527f537472696e67733a20686578206c656e67746820696e73756666696369656e7460448201526064016108c1565b6001600160a01b0381163b6129b25760405162461bcd60e51b815260206004820152602d60248201527f455243313936373a206e657720696d706c656d656e746174696f6e206973206e60448201526c1bdd08184818dbdb9d1c9858dd609a1b60648201526084016108c1565b600080516020613b1883398151915280546001600160a01b0319166001600160a01b0392909216919091179055565b6129ea83612c2a565b6000825111806129f75750805b15610850576123968383612c6a565b600054610100900460ff16612a2d5760405162461bcd60e51b81526004016108c190613a57565b6001609755565b6000612a89826040518060400160405280602081526020017f5361666545524332303a206c6f772d6c6576656c2063616c6c206661696c6564815250856001600160a01b0316612d5e9092919063ffffffff16565b8051909150156108505780806020019051810190612aa79190613ab9565b6108505760405162461bcd60e51b815260206004820152602a60248201527f5361666545524332303a204552433230206f7065726174696f6e20646964206e6044820152691bdd081cdd58d8d9595960b21b60648201526084016108c1565b801580612b8f5750604051636eb1769f60e11b81523060048201526001600160a01b03838116602483015284169063dd62ed3e9060440160206040518083038186803b158015612b5557600080fd5b505afa158015612b69573d6000803e3d6000fd5b505050506040513d601f19601f82011682018060405250810190612b8d919061365d565b155b612bfa5760405162461bcd60e51b815260206004820152603660248201527f5361666545524332303a20617070726f76652066726f6d206e6f6e2d7a65726f60448201527520746f206e6f6e2d7a65726f20616c6c6f77616e636560501b60648201526084016108c1565b6040516001600160a01b03831660248201526044810182905261085090849063095ea7b360e01b9060640161235f565b612c3381612945565b6040516001600160a01b038216907fbc7cd75a20ee27fd9adebab32041f755214dbc6bffa90cc0225b39da2e5c2d3b90600090a250565b60606001600160a01b0383163b612cd25760405162461bcd60e51b815260206004820152602660248201527f416464726573733a2064656c65676174652063616c6c20746f206e6f6e2d636f6044820152651b9d1c9858dd60d21b60648201526084016108c1565b600080846001600160a01b031684604051612ced9190613adb565b600060405180830381855af49150503d8060008114612d28576040519150601f19603f3d011682016040523d82523d6000602084013e612d2d565b606091505b5091509150612d558282604051806060016040528060278152602001613b3860279139612d6d565b95945050505050565b60606122748484600085612da6565b60608315612d7c575081612277565b825115612d8c5782518084602001fd5b8160405162461bcd60e51b81526004016108c19190613a44565b606082471015612e075760405162461bcd60e51b815260206004820152602660248201527f416464726573733a20696e73756666696369656e742062616c616e636520666f6044820152651c8818d85b1b60d21b60648201526084016108c1565b6001600160a01b0385163b612e5e5760405162461bcd60e51b815260206004820152601d60248201527f416464726573733a2063616c6c20746f206e6f6e2d636f6e747261637400000060448201526064016108c1565b600080866001600160a01b03168587604051612e7a9190613adb565b60006040518083038185875af1925050503d8060008114612eb7576040519150601f19603f3d011682016040523d82523d6000602084013e612ebc565b606091505b5091509150612ecc828286612d6d565b979650505050505050565b828054612ee39061389d565b90600052602060002090601f016020900481019282612f055760008555612f4b565b82601f10612f1e57805160ff1916838001178555612f4b565b82800160010185558215612f4b579182015b82811115612f4b578251825591602001919060010190612f30565b50610e729291505b80821115610e725760008155600101612f53565b600060208284031215612f7957600080fd5b81356001600160e01b03198116811461227757600080fd5b634e487b7160e01b600052604160045260246000fd5b600067ffffffffffffffff80841115612fc257612fc2612f91565b604051601f8501601f19908116603f01168101908282118183101715612fea57612fea612f91565b8160405280935085815286868601111561300357600080fd5b858560208301376000602087830101525050509392505050565b60006020828403121561302f57600080fd5b813567ffffffffffffffff81111561304657600080fd5b8201601f8101841361305757600080fd5b610a0d84823560208401612fa7565b6001600160a01b03811681146109b557600080fd5b60006020828403121561308d57600080fd5b813561227781613066565b6000602082840312156130aa57600080fd5b5035919050565b600080604083850312156130c457600080fd5b8235915060208301356130d681613066565b809150509250929050565b600080604083850312156130f457600080fd5b82356130ff81613066565b946020939093013593505050565b600080600080600060a0868803121561312557600080fd5b8535945060208601359350604086013561313e81613066565b9250606086013561314e81613066565b9150608086013561315e81613066565b809150509295509295909350565b6020808252825182820181905260009190848201906040850190845b818110156131ad5783516001600160a01b031683529284019291840191600101613188565b50909695505050505050565b600080604083850312156131cc57600080fd5b82356131d781613066565b9150602083013567ffffffffffffffff8111156131f357600080fd5b8301601f8101851361320457600080fd5b61321385823560208401612fa7565b9150509250929050565b60008083601f84011261322f57600080fd5b50813567ffffffffffffffff81111561324757600080fd5b60208301915083602082850101111561325f57600080fd5b9250929050565b600080600080600080600060c0888a03121561328157600080fd5b87359650602088013561329381613066565b955060408801359450606088013593506080880135925060a088013567ffffffffffffffff8111156132c457600080fd5b6132d08a828b0161321d565b989b979a50959850939692959293505050565b6000806000606084860312156132f857600080fd5b505081359360208301359350604090920135919050565b6000806040838503121561332257600080fd5b50508035926020909101359150565b6000806000806080858703121561334757600080fd5b8435935060208501359250604085013561336081613066565b9396929550929360600135925050565b60005b8381101561338b578181015183820152602001613373565b838111156123965750506000910152565b600081518084526133b4816020860160208601613370565b601f01601f19169290920160200192915050565b600061010060018060a01b03808c1684528a60208501528960408501528860608501528760808501528660a085015280861660c0850152508060e08401526134128184018561339c565b9b9a5050505050505050505050565b60008060006040848603121561343657600080fd5b833561344181613066565b9250602084013567ffffffffffffffff81111561345d57600080fd5b6134698682870161321d565b9497909650939450505050565b6020808252602c908201527f46756e6374696f6e206d7573742062652063616c6c6564207468726f7567682060408201526b19195b1959d85d1958d85b1b60a21b606082015260800190565b6020808252602c908201527f46756e6374696f6e206d7573742062652063616c6c6564207468726f7567682060408201526b6163746976652070726f787960a01b606082015260800190565b634e487b7160e01b600052603260045260246000fd5b634e487b7160e01b600052601160045260246000fd5b60008282101561354c5761354c613524565b500390565b634e487b7160e01b600052603160045260246000fd5b6020808252601f908201527f5265656e7472616e637947756172643a207265656e7472616e742063616c6c00604082015260600190565b60008160001904831182151516156135b8576135b8613524565b500290565b600082198211156135d0576135d0613524565b500190565b60208082526039908201527f5751426f72726f77696e673a2054686520636f6c6c61746572616c206973206e60408201527f6f7420617661696c61626c6520666f7220707572636861736500000000000000606082015260800190565b600060001982141561364657613646613524565b5060010190565b8183823760009101908152919050565b60006020828403121561366f57600080fd5b5051919050565b60006020828403121561368857600080fd5b815160ff8116811461227757600080fd5b600060ff821660ff8416808210156136b3576136b3613524565b90039392505050565b600181815b808511156136f75781600019048211156136dd576136dd613524565b808516156136ea57918102915b93841c93908002906136c1565b509250929050565b60008261370e575060016107b7565b8161371b575060006107b7565b8160018114613731576002811461373b57613757565b60019150506107b7565b60ff84111561374c5761374c613524565b50506001821b6107b7565b5060208310610133831016604e8410600b841016171561377a575081810a6107b7565b61378483836136bc565b806000190482111561379857613798613524565b029392505050565b600061227760ff8416836136ff565b81835281816020850137506000828201602090810191909152601f909101601f19169091010190565b6020815260006122746020830184866137af565b60008261380957634e487b7160e01b600052601260045260246000fd5b500490565b87815260018060a01b038716602082015285604082015284606082015283608082015260c060a0820152600061384860c0830184866137af565b9998505050505050505050565b60208082526028908201527f5751426f72726f77696e673a20596f7520617265206e6f7420626f72726f776560408201526764206d6f6e65797360c01b606082015260800190565b600181811c908216806138b157607f821691505b602082108114156138d257634e487b7160e01b600052602260045260246000fd5b50919050565b60006020808352600084546138ec8161389d565b8084870152604060018084166000811461390d57600181146139215761394f565b60ff1985168984015260608901955061394f565b896000528660002060005b858110156139475781548b820186015290830190880161392c565b8a0184019650505b509398975050505050505050565b600080835461396b8161389d565b600182811680156139835760018114613994576139c3565b60ff198416875282870194506139c3565b8760005260208060002060005b858110156139ba5781548a8201529084019082016139a1565b50505082870194505b50929695505050505050565b7f416363657373436f6e74726f6c3a206163636f756e7420000000000000000000815260008351613a07816017850160208801613370565b7001034b99036b4b9b9b4b733903937b6329607d1b6017918401918201528351613a38816028840160208801613370565b01602801949350505050565b602081526000612277602083018461339c565b6020808252602b908201527f496e697469616c697a61626c653a20636f6e7472616374206973206e6f74206960408201526a6e697469616c697a696e6760a81b606082015260800190565b600081613ab157613ab1613524565b506000190190565b600060208284031215613acb57600080fd5b8151801515811461227757600080fd5b60008251613aed818460208701613370565b919091019291505056fe189ab7a9244df0848122154315af71fe140f3db0fe014031783b0946b8c9d2e3360894a13ba1a3210667c828492db98dca3e2076cc3735a920a3ca505d382bbc416464726573733a206c6f772d6c6576656c2064656c65676174652063616c6c206661696c6564a49807205ce4d355092ef5a8a18f56e8913cf4a201fbe287825b095693c21775a26469706673582212206a0da8bbcc22f32340d62f60ca5d5b284a895082a708fe80dfa6cb0f6337c80e64736f6c63430008090033",
  "linkReferences": {},
  "deployedLinkReferences": {}
}