{
  "_format": "hh-sol-artifact-1",
  "contractName": "WQBorrowing",
  "sourceName": "contracts/WQBorrowing.sol",
  "abi": [
    {
      "inputs": [],
      "stateMutability": "nonpayable",
      "type": "constructor"
    },
    {
      "anonymous": false,
      "inputs": [
        {
          "indexed": false,
          "internalType": "address",
          "name": "previousAdmin",
          "type": "address"
        },
        {
          "indexed": false,
          "internalType": "address",
          "name": "newAdmin",
          "type": "address"
        }
      ],
      "name": "AdminChanged",
      "type": "event"
    },
    {
      "anonymous": false,
      "inputs": [
        {
          "indexed": false,
          "internalType": "address",
          "name": "borrower",
          "type": "address"
        },
        {
          "indexed": false,
          "internalType": "uint256",
          "name": "index",
          "type": "uint256"
        },
        {
          "indexed": false,
          "internalType": "uint256",
          "name": "amount",
          "type": "uint256"
        },
        {
          "indexed": false,
          "internalType": "uint256",
          "name": "endCost",
          "type": "uint256"
        }
      ],
      "name": "AuctionStarted",
      "type": "event"
    },
    {
      "anonymous": false,
      "inputs": [
        {
          "indexed": true,
          "internalType": "address",
          "name": "beacon",
          "type": "address"
        }
      ],
      "name": "BeaconUpgraded",
      "type": "event"
    },
    {
      "anonymous": false,
      "inputs": [
        {
          "indexed": false,
          "internalType": "uint256",
          "name": "nonce",
          "type": "uint256"
        },
        {
          "indexed": false,
          "internalType": "address",
          "name": "borrower",
          "type": "address"
        },
        {
          "indexed": false,
          "internalType": "uint256",
          "name": "index",
          "type": "uint256"
        },
        {
          "indexed": false,
          "internalType": "uint256",
          "name": "collateral",
          "type": "uint256"
        },
        {
          "indexed": false,
          "internalType": "uint256",
          "name": "credit",
          "type": "uint256"
        },
        {
          "indexed": false,
          "internalType": "string",
          "name": "symbol",
          "type": "string"
        }
      ],
      "name": "Borrowed",
      "type": "event"
    },
    {
      "anonymous": false,
      "inputs": [
        {
          "indexed": false,
          "internalType": "uint8",
          "name": "version",
          "type": "uint8"
        }
      ],
      "name": "Initialized",
      "type": "event"
    },
    {
      "anonymous": false,
      "inputs": [
        {
          "indexed": false,
          "internalType": "address",
          "name": "borrower",
          "type": "address"
        },
        {
          "indexed": false,
          "internalType": "uint256",
          "name": "index",
          "type": "uint256"
        },
        {
          "indexed": false,
          "internalType": "uint256",
          "name": "amount",
          "type": "uint256"
        },
        {
          "indexed": false,
          "internalType": "uint256",
          "name": "cost",
          "type": "uint256"
        }
      ],
      "name": "LotBuyed",
      "type": "event"
    },
    {
      "anonymous": false,
      "inputs": [
        {
          "indexed": false,
          "internalType": "address",
          "name": "borrower",
          "type": "address"
        },
        {
          "indexed": false,
          "internalType": "uint256",
          "name": "index",
          "type": "uint256"
        }
      ],
      "name": "LotCanceled",
      "type": "event"
    },
    {
      "anonymous": false,
      "inputs": [
        {
          "indexed": false,
          "internalType": "address",
          "name": "borrower",
          "type": "address"
        },
        {
          "indexed": false,
          "internalType": "uint256",
          "name": "index",
          "type": "uint256"
        },
        {
          "indexed": false,
          "internalType": "uint256",
          "name": "amount",
          "type": "uint256"
        }
      ],
      "name": "Refunded",
      "type": "event"
    },
    {
      "anonymous": false,
      "inputs": [
        {
          "indexed": true,
          "internalType": "bytes32",
          "name": "role",
          "type": "bytes32"
        },
        {
          "indexed": true,
          "internalType": "bytes32",
          "name": "previousAdminRole",
          "type": "bytes32"
        },
        {
          "indexed": true,
          "internalType": "bytes32",
          "name": "newAdminRole",
          "type": "bytes32"
        }
      ],
      "name": "RoleAdminChanged",
      "type": "event"
    },
    {
      "anonymous": false,
      "inputs": [
        {
          "indexed": true,
          "internalType": "bytes32",
          "name": "role",
          "type": "bytes32"
        },
        {
          "indexed": true,
          "internalType": "address",
          "name": "account",
          "type": "address"
        },
        {
          "indexed": true,
          "internalType": "address",
          "name": "sender",
          "type": "address"
        }
      ],
      "name": "RoleGranted",
      "type": "event"
    },
    {
      "anonymous": false,
      "inputs": [
        {
          "indexed": true,
          "internalType": "bytes32",
          "name": "role",
          "type": "bytes32"
        },
        {
          "indexed": true,
          "internalType": "address",
          "name": "account",
          "type": "address"
        },
        {
          "indexed": true,
          "internalType": "address",
          "name": "sender",
          "type": "address"
        }
      ],
      "name": "RoleRevoked",
      "type": "event"
    },
    {
      "anonymous": false,
      "inputs": [
        {
          "indexed": true,
          "internalType": "address",
          "name": "implementation",
          "type": "address"
        }
      ],
      "name": "Upgraded",
      "type": "event"
    },
    {
      "inputs": [],
      "name": "ADMIN_ROLE",
      "outputs": [
        {
          "internalType": "bytes32",
          "name": "",
          "type": "bytes32"
        }
      ],
      "stateMutability": "view",
      "type": "function"
    },
    {
      "inputs": [],
      "name": "AUCTION_ROLE",
      "outputs": [
        {
          "internalType": "bytes32",
          "name": "",
          "type": "bytes32"
        }
      ],
      "stateMutability": "view",
      "type": "function"
    },
    {
      "inputs": [],
      "name": "DEFAULT_ADMIN_ROLE",
      "outputs": [
        {
          "internalType": "bytes32",
          "name": "",
          "type": "bytes32"
        }
      ],
      "stateMutability": "view",
      "type": "function"
    },
    {
      "inputs": [],
      "name": "UPGRADER_ROLE",
      "outputs": [
        {
          "internalType": "bytes32",
          "name": "",
          "type": "bytes32"
        }
      ],
      "stateMutability": "view",
      "type": "function"
    },
    {
      "inputs": [],
      "name": "YEAR",
      "outputs": [
        {
          "internalType": "uint256",
          "name": "",
          "type": "uint256"
        }
      ],
      "stateMutability": "view",
      "type": "function"
    },
    {
      "inputs": [
        {
          "internalType": "contract WQFundInterface",
          "name": "fund",
          "type": "address"
        }
      ],
      "name": "addFund",
      "outputs": [],
      "stateMutability": "nonpayable",
      "type": "function"
    },
    {
      "inputs": [
        {
          "internalType": "uint256",
          "name": "",
          "type": "uint256"
        }
      ],
      "name": "apys",
      "outputs": [
        {
          "internalType": "uint256",
          "name": "",
          "type": "uint256"
        }
      ],
      "stateMutability": "view",
      "type": "function"
    },
    {
      "inputs": [
        {
          "internalType": "uint256",
          "name": "nonce",
          "type": "uint256"
        },
        {
          "internalType": "address",
          "name": "depositor",
          "type": "address"
        },
        {
          "internalType": "uint256",
          "name": "credit",
          "type": "uint256"
        },
        {
          "internalType": "uint256",
          "name": "fundIndex",
          "type": "uint256"
        },
        {
          "internalType": "uint256",
          "name": "duration",
          "type": "uint256"
        },
        {
          "internalType": "string",
          "name": "symbol",
          "type": "string"
        }
      ],
      "name": "borrow",
      "outputs": [],
      "stateMutability": "nonpayable",
      "type": "function"
    },
    {
      "inputs": [
        {
          "internalType": "address",
          "name": "",
          "type": "address"
        },
        {
          "internalType": "uint256",
          "name": "",
          "type": "uint256"
        }
      ],
      "name": "borrowers",
      "outputs": [
        {
          "internalType": "address",
          "name": "depositor",
          "type": "address"
        },
        {
          "internalType": "uint256",
          "name": "collateral",
          "type": "uint256"
        },
        {
          "internalType": "uint256",
          "name": "credit",
          "type": "uint256"
        },
        {
          "internalType": "uint256",
          "name": "borrowedAt",
          "type": "uint256"
        },
        {
          "internalType": "uint256",
          "name": "borrowedTo",
          "type": "uint256"
        },
        {
          "internalType": "uint256",
          "name": "duration",
          "type": "uint256"
        },
        {
          "internalType": "uint256",
          "name": "apy",
          "type": "uint256"
        },
        {
          "internalType": "uint256",
          "name": "saleAmount",
          "type": "uint256"
        },
        {
          "internalType": "uint256",
          "name": "endCost",
          "type": "uint256"
        },
        {
          "internalType": "uint256",
          "name": "endTime",
          "type": "uint256"
        },
        {
          "internalType": "contract WQFundInterface",
          "name": "fund",
          "type": "address"
        },
        {
          "internalType": "string",
          "name": "symbol",
          "type": "string"
        }
      ],
      "stateMutability": "view",
      "type": "function"
    },
    {
      "inputs": [
        {
          "internalType": "address",
          "name": "borrower",
          "type": "address"
        },
        {
          "internalType": "uint256",
          "name": "index",
          "type": "uint256"
        }
      ],
      "name": "buyCollateral",
      "outputs": [],
      "stateMutability": "nonpayable",
      "type": "function"
    },
    {
      "inputs": [
        {
          "internalType": "address",
          "name": "borrower",
          "type": "address"
        },
        {
          "internalType": "uint256",
          "name": "index",
          "type": "uint256"
        }
      ],
      "name": "cancelAuction",
      "outputs": [],
      "stateMutability": "nonpayable",
      "type": "function"
    },
    {
      "inputs": [],
      "name": "fee",
      "outputs": [
        {
          "internalType": "uint256",
          "name": "",
          "type": "uint256"
        }
      ],
      "stateMutability": "view",
      "type": "function"
    },
    {
      "inputs": [],
      "name": "feeReceiver",
      "outputs": [
        {
          "internalType": "address",
          "name": "",
          "type": "address"
        }
      ],
      "stateMutability": "view",
      "type": "function"
    },
    {
      "inputs": [],
      "name": "fixedRate",
      "outputs": [
        {
          "internalType": "uint256",
          "name": "",
          "type": "uint256"
        }
      ],
      "stateMutability": "view",
      "type": "function"
    },
    {
      "inputs": [
        {
          "internalType": "uint256",
          "name": "",
          "type": "uint256"
        }
      ],
      "name": "funds",
      "outputs": [
        {
          "internalType": "contract WQFundInterface",
          "name": "",
          "type": "address"
        }
      ],
      "stateMutability": "view",
      "type": "function"
    },
    {
      "inputs": [
        {
          "internalType": "address",
          "name": "borrower",
          "type": "address"
        },
        {
          "internalType": "uint256",
          "name": "index",
          "type": "uint256"
        }
      ],
      "name": "getCurrentFee",
      "outputs": [
        {
          "internalType": "uint256",
          "name": "",
          "type": "uint256"
        }
      ],
      "stateMutability": "view",
      "type": "function"
    },
    {
      "inputs": [
        {
          "internalType": "address",
          "name": "borrower",
          "type": "address"
        },
        {
          "internalType": "uint256",
          "name": "index",
          "type": "uint256"
        }
      ],
      "name": "getCurrentLotCost",
      "outputs": [
        {
          "internalType": "uint256",
          "name": "",
          "type": "uint256"
        }
      ],
      "stateMutability": "view",
      "type": "function"
    },
    {
      "inputs": [],
      "name": "getFunds",
      "outputs": [
        {
          "internalType": "contract WQFundInterface[]",
          "name": "funds_",
          "type": "address[]"
        }
      ],
      "stateMutability": "view",
      "type": "function"
    },
    {
      "inputs": [
        {
          "internalType": "address",
          "name": "borrower",
          "type": "address"
        },
        {
          "internalType": "uint256",
          "name": "index",
          "type": "uint256"
        }
      ],
      "name": "getRewards",
      "outputs": [
        {
          "internalType": "uint256",
          "name": "",
          "type": "uint256"
        }
      ],
      "stateMutability": "view",
      "type": "function"
    },
    {
      "inputs": [
        {
          "internalType": "bytes32",
          "name": "role",
          "type": "bytes32"
        }
      ],
      "name": "getRoleAdmin",
      "outputs": [
        {
          "internalType": "bytes32",
          "name": "",
          "type": "bytes32"
        }
      ],
      "stateMutability": "view",
      "type": "function"
    },
    {
      "inputs": [
        {
          "internalType": "bytes32",
          "name": "role",
          "type": "bytes32"
        },
        {
          "internalType": "address",
          "name": "account",
          "type": "address"
        }
      ],
      "name": "grantRole",
      "outputs": [],
      "stateMutability": "nonpayable",
      "type": "function"
    },
    {
      "inputs": [
        {
          "internalType": "bytes32",
          "name": "role",
          "type": "bytes32"
        },
        {
          "internalType": "address",
          "name": "account",
          "type": "address"
        }
      ],
      "name": "hasRole",
      "outputs": [
        {
          "internalType": "bool",
          "name": "",
          "type": "bool"
        }
      ],
      "stateMutability": "view",
      "type": "function"
    },
    {
      "inputs": [
        {
          "internalType": "uint256",
          "name": "_fixedRate",
          "type": "uint256"
        },
        {
          "internalType": "uint256",
          "name": "_fee",
          "type": "uint256"
        },
        {
          "internalType": "uint256",
          "name": "_auctionDuration",
          "type": "uint256"
        },
        {
          "internalType": "uint256",
          "name": "_upperBoundCost",
          "type": "uint256"
        },
        {
          "internalType": "uint256",
          "name": "_lowerBoundCost",
          "type": "uint256"
        },
        {
          "internalType": "address",
          "name": "_oracle",
          "type": "address"
        },
        {
          "internalType": "address",
          "name": "_wusd",
          "type": "address"
        },
        {
          "internalType": "address",
          "name": "_feeReceiver",
          "type": "address"
        }
      ],
      "name": "initialize",
      "outputs": [],
      "stateMutability": "nonpayable",
      "type": "function"
    },
    {
      "inputs": [],
      "name": "lowerBoundCost",
      "outputs": [
        {
          "internalType": "uint256",
          "name": "",
          "type": "uint256"
        }
      ],
      "stateMutability": "view",
      "type": "function"
    },
    {
      "inputs": [],
      "name": "oracle",
      "outputs": [
        {
          "internalType": "contract WQPriceOracleInterface",
          "name": "",
          "type": "address"
        }
      ],
      "stateMutability": "view",
      "type": "function"
    },
    {
      "inputs": [],
      "name": "proxiableUUID",
      "outputs": [
        {
          "internalType": "bytes32",
          "name": "",
          "type": "bytes32"
        }
      ],
      "stateMutability": "view",
      "type": "function"
    },
    {
      "inputs": [
        {
          "internalType": "uint256",
          "name": "index",
          "type": "uint256"
        },
        {
          "internalType": "uint256",
          "name": "amount",
          "type": "uint256"
        }
      ],
      "name": "refund",
      "outputs": [],
      "stateMutability": "nonpayable",
      "type": "function"
    },
    {
      "inputs": [
        {
          "internalType": "uint256",
          "name": "index",
          "type": "uint256"
        }
      ],
      "name": "removeFund",
      "outputs": [],
      "stateMutability": "nonpayable",
      "type": "function"
    },
    {
      "inputs": [
        {
          "internalType": "bytes32",
          "name": "role",
          "type": "bytes32"
        },
        {
          "internalType": "address",
          "name": "account",
          "type": "address"
        }
      ],
      "name": "renounceRole",
      "outputs": [],
      "stateMutability": "nonpayable",
      "type": "function"
    },
    {
      "inputs": [
        {
          "internalType": "bytes32",
          "name": "role",
          "type": "bytes32"
        },
        {
          "internalType": "address",
          "name": "account",
          "type": "address"
        }
      ],
      "name": "revokeRole",
      "outputs": [],
      "stateMutability": "nonpayable",
      "type": "function"
    },
    {
      "inputs": [
        {
          "internalType": "uint256",
          "name": "duration",
          "type": "uint256"
        },
        {
          "internalType": "uint256",
          "name": "apy",
          "type": "uint256"
        }
      ],
      "name": "setApy",
      "outputs": [],
      "stateMutability": "nonpayable",
      "type": "function"
    },
    {
      "inputs": [
        {
          "internalType": "uint256",
          "name": "_auctionDuration",
          "type": "uint256"
        }
      ],
      "name": "setAuctionDuration",
      "outputs": [],
      "stateMutability": "nonpayable",
      "type": "function"
    },
    {
      "inputs": [
        {
          "internalType": "uint256",
          "name": "_fee",
          "type": "uint256"
        }
      ],
      "name": "setFee",
      "outputs": [],
      "stateMutability": "nonpayable",
      "type": "function"
    },
    {
      "inputs": [
        {
          "internalType": "address",
          "name": "_feeReceiver",
          "type": "address"
        }
      ],
      "name": "setFeeReceiver",
      "outputs": [],
      "stateMutability": "nonpayable",
      "type": "function"
    },
    {
      "inputs": [
        {
          "internalType": "uint256",
          "name": "_fixedRate",
          "type": "uint256"
        }
      ],
      "name": "setFixedRate",
      "outputs": [],
      "stateMutability": "nonpayable",
      "type": "function"
    },
    {
      "inputs": [
        {
          "internalType": "uint256",
          "name": "percent",
          "type": "uint256"
        }
      ],
      "name": "setLowerBoundCost",
      "outputs": [],
      "stateMutability": "nonpayable",
      "type": "function"
    },
    {
      "inputs": [
        {
          "internalType": "contract IERC20Upgradeable",
          "name": "token",
          "type": "address"
        },
        {
          "internalType": "string",
          "name": "symbol",
          "type": "string"
        }
      ],
      "name": "setToken",
      "outputs": [],
      "stateMutability": "nonpayable",
      "type": "function"
    },
    {
      "inputs": [
        {
          "internalType": "uint256",
          "name": "percent",
          "type": "uint256"
        }
      ],
      "name": "setUpperBoundCost",
      "outputs": [],
      "stateMutability": "nonpayable",
      "type": "function"
    },
    {
      "inputs": [
        {
          "internalType": "address",
          "name": "borrower",
          "type": "address"
        },
        {
          "internalType": "uint256",
          "name": "index",
          "type": "uint256"
        },
        {
          "internalType": "uint256",
          "name": "amount",
          "type": "uint256"
        }
      ],
      "name": "startAuction",
      "outputs": [],
      "stateMutability": "nonpayable",
      "type": "function"
    },
    {
      "inputs": [
        {
          "internalType": "bytes4",
          "name": "interfaceId",
          "type": "bytes4"
        }
      ],
      "name": "supportsInterface",
      "outputs": [
        {
          "internalType": "bool",
          "name": "",
          "type": "bool"
        }
      ],
      "stateMutability": "view",
      "type": "function"
    },
    {
      "inputs": [
        {
          "internalType": "string",
          "name": "",
          "type": "string"
        }
      ],
      "name": "tokens",
      "outputs": [
        {
          "internalType": "contract IERC20Upgradeable",
          "name": "",
          "type": "address"
        }
      ],
      "stateMutability": "view",
      "type": "function"
    },
    {
      "inputs": [
        {
          "internalType": "uint256",
          "name": "index",
          "type": "uint256"
        },
        {
          "internalType": "contract WQFundInterface",
          "name": "fund",
          "type": "address"
        }
      ],
      "name": "updateFund",
      "outputs": [],
      "stateMutability": "nonpayable",
      "type": "function"
    },
    {
      "inputs": [
        {
          "internalType": "address",
          "name": "newImplementation",
          "type": "address"
        }
      ],
      "name": "upgradeTo",
      "outputs": [],
      "stateMutability": "nonpayable",
      "type": "function"
    },
    {
      "inputs": [
        {
          "internalType": "address",
          "name": "newImplementation",
          "type": "address"
        },
        {
          "internalType": "bytes",
          "name": "data",
          "type": "bytes"
        }
      ],
      "name": "upgradeToAndCall",
      "outputs": [],
      "stateMutability": "payable",
      "type": "function"
    },
    {
      "inputs": [],
      "name": "upperBoundCost",
      "outputs": [
        {
          "internalType": "uint256",
          "name": "",
          "type": "uint256"
        }
      ],
      "stateMutability": "view",
      "type": "function"
    },
    {
      "inputs": [],
      "name": "wusd",
      "outputs": [
        {
          "internalType": "contract IERC20Upgradeable",
          "name": "",
          "type": "address"
        }
      ],
      "stateMutability": "view",
      "type": "function"
    }
  ],
  "bytecode": "0x60a0604052306080523480156200001557600080fd5b50600054610100900460ff1615808015620000375750600054600160ff909116105b8062000067575062000054306200014160201b620024ce1760201c565b15801562000067575060005460ff166001145b620000cf5760405162461bcd60e51b815260206004820152602e60248201527f496e697469616c697a61626c653a20636f6e747261637420697320616c72656160448201526d191e481a5b9a5d1a585b1a5e995960921b606482015260840160405180910390fd5b6000805460ff191660011790558015620000f3576000805461ff0019166101001790555b80156200013a576000805461ff0019169055604051600181527f7f26b83ff96e1f2b6a682f133852f6798a09c465da95921460cefb38474024989060200160405180910390a15b5062000150565b6001600160a01b03163b151590565b60805161414a6200018860003960008181610a0001528181610a4001528181610d3401528181610d740152610e03015261414a6000f3fe60806040526004361061027d5760003560e01c806375b238fc1161014f578063a497e674116100c1578063e9302e091161007a578063e9302e09146107d4578063efdcd974146107f4578063f335ed7614610814578063f72c0d8b1461084c578063fdad53db1461086e578063ff2ab2291461088e57600080fd5b8063a497e6741461071c578063b3f006741461073c578063d547741f1461075d578063daf8bc101461077d578063ddca3f431461079d578063e2a07a07146107b457600080fd5b80638382fbc9116101135780638382fbc91461066f578063839145401461068f578063859b97fe146106a757806391d14854146106c757806397c3c846146106e7578063a217fddf1461070757600080fd5b806375b238fc146105c75780637b8e8895146105e95780637dc0d1d014610609578063802d14221461062a57806381ce1c231461064157600080fd5b806342569ec3116101f357806356dd4755116101ac57806356dd4755146105075780635af36e3e1461052757806364ad7ad71461054757806369fe0e2d146105675780637387f44d1461058757806374a34812146105a757600080fd5b806342569ec314610449578063430730a3146104695780634d9b37351461049d5780634f1ef286146104bf57806352d1902d146104d2578063554ccea0146104e757600080fd5b80632f2ff15d116102455780632f2ff15d1461039257806336568abe146103b25780633659cfe6146103d257806338e8701e146103f25780633af388e014610412578063403b74ed1461043257600080fd5b806301ffc9a71461028257806304c2320b146102b757806307dc290a1461031157806315c40eb014610333578063248a9ca314610354575b600080fd5b34801561028e57600080fd5b506102a261029d36600461359b565b6108a5565b60405190151581526020015b60405180910390f35b3480156102c357600080fd5b506102f96102d2366004613651565b8051602081830181018051610136825292820191909301209152546001600160a01b031681565b6040516001600160a01b0390911681526020016102ae565b34801561031d57600080fd5b5061033161032c3660046136af565b6108dc565b005b34801561033f57600080fd5b5061012f546102f9906001600160a01b031681565b34801561036057600080fd5b5061038461036f3660046136cc565b60009081526065602052604090206001015490565b6040519081526020016102ae565b34801561039e57600080fd5b506103316103ad3660046136e5565b610948565b3480156103be57600080fd5b506103316103cd3660046136e5565b610972565b3480156103de57600080fd5b506103316103ed3660046136af565b6109f5565b3480156103fe57600080fd5b5061038461040d366004613715565b610ad5565b34801561041e57600080fd5b5061033161042d3660046136cc565b610b32565b34801561043e57600080fd5b506103846101335481565b34801561045557600080fd5b506103316104643660046136e5565b610bfe565b34801561047557600080fd5b506103847fc5e2d1653feba496cf5ce3a744b90ea18acf0df3d036aba9b2f85992a146790681565b3480156104a957600080fd5b506104b2610c5e565b6040516102ae9190613741565b6103316104cd36600461378e565b610d29565b3480156104de57600080fd5b50610384610df6565b3480156104f357600080fd5b5061033161050236600461383b565b610ea9565b34801561051357600080fd5b506103316105223660046138b8565b6115f1565b34801561053357600080fd5b506103316105423660046138ed565b611a6d565b34801561055357600080fd5b506103316105623660046136cc565b611c53565b34801561057357600080fd5b506103316105823660046136cc565b611c72565b34801561059357600080fd5b506103846105a2366004613715565b611c91565b3480156105b357600080fd5b506103316105c236600461390f565b611d69565b3480156105d357600080fd5b506103846000805160206140f583398151915281565b3480156105f557600080fd5b506102f96106043660046136cc565b611f89565b34801561061557600080fd5b5061012d546102f9906001600160a01b031681565b34801561063657600080fd5b5061038461012e5481565b34801561064d57600080fd5b5061038461065c3660046136cc565b6101356020526000908152604090205481565b34801561067b57600080fd5b5061033161068a366004613715565b611fb4565b34801561069b57600080fd5b506103846301e1338081565b3480156106b357600080fd5b506103316106c2366004613715565b6120fa565b3480156106d357600080fd5b506102a26106e23660046136e5565b6121f6565b3480156106f357600080fd5b50610384610702366004613715565b612221565b34801561071357600080fd5b50610384600081565b34801561072857600080fd5b506103316107373660046136cc565b61226b565b34801561074857600080fd5b50610130546102f9906001600160a01b031681565b34801561076957600080fd5b506103316107783660046136e5565b61228a565b34801561078957600080fd5b506103316107983660046138ed565b6122af565b3480156107a957600080fd5b506103846101315481565b3480156107c057600080fd5b506103316107cf3660046136cc565b6122db565b3480156107e057600080fd5b506103316107ef3660046136cc565b6122fa565b34801561080057600080fd5b5061033161080f3660046136af565b612319565b34801561082057600080fd5b5061083461082f366004613715565b612355565b6040516102ae9c9b9a999897969594939291906139e3565b34801561085857600080fd5b5061038460008051602061408e83398151915281565b34801561087a57600080fd5b50610331610889366004613a5c565b61246d565b34801561089a57600080fd5b506103846101345481565b60006001600160e01b03198216637965db0b60e01b14806108d657506301ffc9a760e01b6001600160e01b03198316145b92915050565b6000805160206140f58339815191526108f4816124dd565b5061013880546001810182556000919091527ff79a63dcec80ed75c82f36161f17b9c2f407860160383a7be0a0ee7962c527ae0180546001600160a01b0319166001600160a01b0392909216919091179055565b600082815260656020526040902060010154610963816124dd565b61096d83836124e7565b505050565b6001600160a01b03811633146109e75760405162461bcd60e51b815260206004820152602f60248201527f416363657373436f6e74726f6c3a2063616e206f6e6c792072656e6f756e636560448201526e103937b632b9903337b91039b2b63360891b60648201526084015b60405180910390fd5b6109f1828261256d565b5050565b306001600160a01b037f0000000000000000000000000000000000000000000000000000000000000000161415610a3e5760405162461bcd60e51b81526004016109de90613ab1565b7f00000000000000000000000000000000000000000000000000000000000000006001600160a01b0316610a876000805160206140ae833981519152546001600160a01b031690565b6001600160a01b031614610aad5760405162461bcd60e51b81526004016109de90613afd565b610ab6816125d4565b60408051600080825260208201909252610ad2918391906125ec565b50565b6001600160a01b038216600090815261013760205260408120805482919084908110610b0357610b03613b49565b90600052602060002090600c02019050610b2a816002015482600601548360030154612766565b949350505050565b6000805160206140f5833981519152610b4a816124dd565b6101388054610b5b90600190613b75565b81548110610b6b57610b6b613b49565b60009182526020909120015461013880546001600160a01b039092169184908110610b9857610b98613b49565b9060005260206000200160006101000a8154816001600160a01b0302191690836001600160a01b03160217905550610138805480610bd857610bd8613b8c565b600082815260209020810160001990810180546001600160a01b03191690550190555050565b6000805160206140f5833981519152610c16816124dd565b816101388481548110610c2b57610c2b613b49565b9060005260206000200160006101000a8154816001600160a01b0302191690836001600160a01b03160217905550505050565b6101385460609067ffffffffffffffff811115610c7d57610c7d6135c5565b604051908082528060200260200182016040528015610ca6578160200160208202803683370190505b50905060005b61013854811015610d25576101388181548110610ccb57610ccb613b49565b9060005260206000200160009054906101000a90046001600160a01b0316828281518110610cfb57610cfb613b49565b6001600160a01b039092166020928302919091019091015280610d1d81613ba2565b915050610cac565b5090565b306001600160a01b037f0000000000000000000000000000000000000000000000000000000000000000161415610d725760405162461bcd60e51b81526004016109de90613ab1565b7f00000000000000000000000000000000000000000000000000000000000000006001600160a01b0316610dbb6000805160206140ae833981519152546001600160a01b031690565b6001600160a01b031614610de15760405162461bcd60e51b81526004016109de90613afd565b610dea826125d4565b6109f1828260016125ec565b6000306001600160a01b037f00000000000000000000000000000000000000000000000000000000000000001614610e965760405162461bcd60e51b815260206004820152603860248201527f555550535570677261646561626c653a206d757374206e6f742062652063616c60448201527f6c6564207468726f7567682064656c656761746563616c6c000000000000000060648201526084016109de565b506000805160206140ae83398151915290565b60026097541415610ecc5760405162461bcd60e51b81526004016109de90613bbd565b600260975560405160009061013690610ee89085908590613bf4565b908152604051908190036020019020546001600160a01b03161415610f695760405162461bcd60e51b815260206004820152603160248201527f5751426f72726f77696e673a205468697320746f6b656e2069732064697361626044820152701b1959081d1bc818dbdb1b185d195c985b607a1b60648201526084016109de565b600083815261013560205260409020541580159061101f575060006101388581548110610f9857610f98613b49565b6000918252602090912001546040516381ce1c2360e01b8152600481018690526001600160a01b03909116906381ce1c239060240160206040518083038186803b158015610fe557600080fd5b505afa158015610ff9573d6000803e3d6000fd5b505050506040513d601f19601f8201168201806040525081019061101d9190613c04565b115b61106b5760405162461bcd60e51b815260206004820152601d60248201527f5751426f72726f77696e673a20496e76616c6964206475726174696f6e00000060448201526064016109de565b610138848154811061107f5761107f613b49565b6000918252602090912001546040516370a0823160e01b81526001600160a01b038881166004830152909116906370a082319060240160206040518083038186803b1580156110cd57600080fd5b505afa1580156110e1573d6000803e3d6000fd5b505050506040513d601f19601f820116820180604052508101906111059190613c04565b8511156111655760405162461bcd60e51b815260206004820152602860248201527f5751426f72726f77696e673a20496e73756666696369656e7420616d6f756e74604482015267081a5b88199d5b9960c21b60648201526084016109de565b6000610136838360405161117a929190613bf4565b90815260408051602092819003830181205463313ce56760e01b825291516001600160a01b039092169263313ce56792600480840193829003018186803b1580156111c457600080fd5b505afa1580156111d8573d6000803e3d6000fd5b505050506040513d601f19601f820116820180604052508101906111fc9190613c1d565b611207906012613c40565b61121290600a613d47565b61012d54604051630292e0fd60e01b81526002916001600160a01b031690630292e0fd906112469088908890600401613d7f565b60206040518083038186803b15801561125e57600080fd5b505afa158015611272573d6000803e3d6000fd5b505050506040513d601f19601f820116820180604052508101906112969190613c04565b6112a8896729a2241af62c0000613d93565b6112b29190613db2565b6112bc9190613db2565b6112c69190613db2565b90506101376000336001600160a01b03166001600160a01b03168152602001908152602001600020604051806101800160405280896001600160a01b03168152602001838152602001888152602001428152602001610138888154811061132f5761132f613b49565b60009182526020909120015460405163c1bce0b760e01b81526001600160a01b038c81166004830152602482018c9052604482018a90529091169063c1bce0b790606401602060405180830381600087803b15801561138d57600080fd5b505af11580156113a1573d6000803e3d6000fd5b505050506040513d601f19601f820116820180604052508101906113c59190613c04565b81526020018681526020016101356000888152602001908152602001600020548152602001600081526020016000815260200160008152602001610138888154811061141357611413613b49565b600091825260209182902001546001600160a01b0316825260408051601f88018390048302810183019091528681529181019190879087908190840183828082843760009201829052509390945250508354600181810186559482526020918290208451600c9092020180546001600160a01b039283166001600160a01b0319918216178255838601519682019690965560408501516002820155606085015160038201556080850151600482015560a0850151600582015560c0850151600682015560e0850151600782015561010085015160088201556101208501516009820155610140850151600a82018054919093169616959095179055610160830151805193949361152d9350600b850192919091019061350b565b50505061156a3330836101368787604051611549929190613bf4565b908152604051908190036020019020546001600160a01b03169291906127c0565b61012f54611582906001600160a01b03163388612831565b33600081815261013760205260409020547fefa9aff199b44bd001723725cda17225156b141a04fc472c5510ec7e0283896c918a916115c390600190613b75565b848a88886040516115da9796959493929190613dd4565b60405180910390a150506001609755505050505050565b600260975414156116145760405162461bcd60e51b81526004016109de90613bbd565b60026097556001600160a01b03831660009081526101376020526040812080548490811061164457611644613b49565b90600052602060002090600c02019050806004015442116116c55760405162461bcd60e51b815260206004820152603560248201527f5751426f72726f77696e673a20436f6c6c61746572616c206973206e6f7420616044820152747661696c61626c6520666f7220707572636861736560581b60648201526084016109de565b8060090154421161172d5760405162461bcd60e51b815260206004820152602c60248201527f5751426f72726f77696e673a20436f6c6c61746572616c20697320616c72656160448201526b191e48185d58dd1a5bdb995960a21b60648201526084016109de565b61012d54604051630292e0fd60e01b81526000916001600160a01b031690630292e0fd9061176290600b860190600401613e56565b60206040518083038186803b15801561177a57600080fd5b505afa15801561178e573d6000803e3d6000fd5b505050506040513d601f19601f820116820180604052508101906117b29190613c04565b9050600061013683600b016040516117ca9190613edb565b90815260408051602092819003830181205463313ce56760e01b825291516001600160a01b039092169263313ce56792600480840193829003018186803b15801561181457600080fd5b505afa158015611828573d6000803e3d6000fd5b505050506040513d601f19601f8201168201806040525081019061184c9190613c1d565b611857906012613c40565b61186290600a613d47565b9050670de0b6b3a76400008360020154838386600101546118839190613d93565b61188d9190613d93565b6118979190613db2565b116119145760405162461bcd60e51b815260206004820152604160248201527f5751426f72726f77696e673a20436f6c6c61746572616c20707269636520697360448201527f20696e73756666696369656e7420746f207265706179207468652063726564696064820152601d60fa1b608482015260a4016109de565b80826101335485600201546ec097ce7bc90715b34b9f10000000006119399190613d93565b6119439190613db2565b61194d9190613db2565b6119579190613db2565b84108015611969575082600101548411155b6119c45760405162461bcd60e51b815260206004820152602660248201527f5751426f72726f77696e673a20546f6f206d616e7920616d6f756e74206f6620604482015265746f6b656e7360d01b60648201526084016109de565b60078301849055670de0b6b3a7640000816119df8685613d93565b6119e99190613d93565b6119f39190613db2565b600884015561013254611a069042613f4d565b60098401556008830154604080516001600160a01b0389168152602081018890528082018790526060810192909252517fc033a93229c068dace48c5b4afbbb99230dba9c9234b9153116b5354e361fc449181900360800190a15050600160975550505050565b60026097541415611a905760405162461bcd60e51b81526004016109de90613bbd565b600260975533600090815261013760205260408120805484908110611ab757611ab7613b49565b90600052602060002090600c020190506000816002015411611b2c5760405162461bcd60e51b815260206004820152602860248201527f5751426f72726f77696e673a20596f7520617265206e6f7420626f72726f776560448201526764206d6f6e65797360c01b60648201526084016109de565b80600901544211611b905760405162461bcd60e51b815260206004820152602860248201527f5751426f72726f77696e673a20436f6c6c61746572616c2069732061756374696044820152676f6e6564206e6f7760c01b60648201526084016109de565b611bbb833333858560020154878760010154611bac9190613d93565b611bb69190613db2565b612861565b6101305461013154611c089133916001600160a01b0390911690670de0b6b3a764000090611be99087613d93565b611bf39190613db2565b61012f546001600160a01b03169291906127c0565b60408051338152602081018590529081018390527f2dc8e290002f06fc0085bbca9dfb8b415cf4d1178950c72ff9ee8f4d8878ee669060600160405180910390a15050600160975550565b6000805160206140f5833981519152611c6b816124dd565b5061013355565b6000805160206140f5833981519152611c8a816124dd565b5061013155565b6001600160a01b038216600090815261013760205260408120805482919084908110611cbf57611cbf613b49565b60009182526020909120600c909102016002810154600a82015460058301546040516381ce1c2360e01b81526004810191909152929350610b2a926001600160a01b03909116906381ce1c239060240160206040518083038186803b158015611d2757600080fd5b505afa158015611d3b573d6000803e3d6000fd5b505050506040513d601f19601f82011682018060405250810190611d5f9190613c04565b8360030154612c06565b600054610100900460ff1615808015611d895750600054600160ff909116105b80611da35750303b158015611da3575060005460ff166001145b611e065760405162461bcd60e51b815260206004820152602e60248201527f496e697469616c697a61626c653a20636f6e747261637420697320616c72656160448201526d191e481a5b9a5d1a585b1a5e995960921b60648201526084016109de565b6000805460ff191660011790558015611e29576000805461ff0019166101001790555b611e31612c3e565b611e39612c67565b611e41612c3e565b611e4c600033612c96565b611e646000805160206140f583398151915233612c96565b611e7c60008051602061408e83398151915233612c96565b611ea260008051602061408e8339815191526000805160206140f5833981519152612ca0565b611eda7fc5e2d1653feba496cf5ce3a744b90ea18acf0df3d036aba9b2f85992a14679066000805160206140f5833981519152612ca0565b61012d80546001600160a01b038087166001600160a01b03199283161790925561012e8b905561013289905561013388905561013487905561012f80548684169083161790556101308054928516929091169190911790556101318890558015611f7e576000805461ff0019169055604051600181527f7f26b83ff96e1f2b6a682f133852f6798a09c465da95921460cefb38474024989060200160405180910390a15b505050505050505050565b6101388181548110611f9a57600080fd5b6000918252602090912001546001600160a01b0316905081565b60026097541415611fd75760405162461bcd60e51b81526004016109de90613bbd565b60026097556001600160a01b03821660009081526101376020526040812080548390811061200757612007613b49565b90600052602060002090600c0201905080600901544211156120755760405162461bcd60e51b815260206004820152602160248201527f5751426f72726f77696e673a2041756374696f6e2074696d65206973206f76656044820152603960f91b60648201526084016109de565b600061208082612ceb565b600783018054600060088601819055600986018190559091559091506120a98486338585612861565b6007830154604080513381526020810187905280820192909252517f2dc8e290002f06fc0085bbca9dfb8b415cf4d1178950c72ff9ee8f4d8878ee669181900360600190a150506001609755505050565b6001600160a01b03821660009081526101376020526040812080548390811061212557612125613b49565b90600052602060002090600c020190508060090154421161219a5760405162461bcd60e51b815260206004820152602960248201527f5751426f72726f77696e673a2041756374696f6e2074696d65206973206e6f74604482015268081bdd995c881e595d60ba1b60648201526084016109de565b600060078201819055600882018190556009820155604080516001600160a01b0385168152602081018490527fb5909080a418755f1faf2c534680a4a7c2f00b670f0f3f4f27ef58485244e821910160405180910390a1505050565b60009182526065602090815260408084206001600160a01b0393909316845291905290205460ff1690565b6001600160a01b038216600090815261013760205260408120805461226491908490811061225157612251613b49565b90600052602060002090600c0201612ceb565b9392505050565b6000805160206140f5833981519152612283816124dd565b5061013255565b6000828152606560205260409020600101546122a5816124dd565b61096d838361256d565b6000805160206140f58339815191526122c7816124dd565b506000918252610135602052604090912055565b6000805160206140f58339815191526122f3816124dd565b5061013455565b6000805160206140f5833981519152612312816124dd565b5061012e55565b6000805160206140f5833981519152612331816124dd565b5061013080546001600160a01b0319166001600160a01b0392909216919091179055565b610137602052816000526040600020818154811061237257600080fd5b60009182526020909120600c9091020180546001820154600283015460038401546004850154600586015460068701546007880154600889015460098a0154600a8b0154600b8c0180546001600160a01b039c8d169f509a9d50989b979a96999598949793969295919492169291906123ea90613e1b565b80601f016020809104026020016040519081016040528092919081815260200182805461241690613e1b565b80156124635780601f1061243857610100808354040283529160200191612463565b820191906000526020600020905b81548152906001019060200180831161244657829003601f168201915b505050505090508c565b6000805160206140f5833981519152612485816124dd565b836101368484604051612499929190613bf4565b90815260405190819003602001902080546001600160a01b03929092166001600160a01b031990921691909117905550505050565b6001600160a01b03163b151590565b610ad28133612d79565b6124f182826121f6565b6109f15760008281526065602090815260408083206001600160a01b03851684529091529020805460ff191660011790556125293390565b6001600160a01b0316816001600160a01b0316837f2f8788117e7eff1d82e926ec794901d17c78024a50270940304540a733656f0d60405160405180910390a45050565b61257782826121f6565b156109f15760008281526065602090815260408083206001600160a01b0385168085529252808320805460ff1916905551339285917ff6391f5c32d9c69d2a47ea670b442974b53935d1edc7fd64eb21e047a839171b9190a45050565b60008051602061408e8339815191526109f1816124dd565b7f4910fdfa16fed3260ed0e7147f7cc6da11a60208b5b9406d12a635614ffd91435460ff161561261f5761096d83612ddd565b826001600160a01b03166352d1902d6040518163ffffffff1660e01b815260040160206040518083038186803b15801561265857600080fd5b505afa925050508015612688575060408051601f3d908101601f1916820190925261268591810190613c04565b60015b6126eb5760405162461bcd60e51b815260206004820152602e60248201527f45524331393637557067726164653a206e657720696d706c656d656e7461746960448201526d6f6e206973206e6f74205555505360901b60648201526084016109de565b6000805160206140ae833981519152811461275a5760405162461bcd60e51b815260206004820152602960248201527f45524331393637557067726164653a20756e737570706f727465642070726f786044820152681a58589b195555525160ba1b60648201526084016109de565b5061096d838383612e79565b6000670de0b6b3a76400006301e133806127808442613b75565b61278a8688613d93565b6127949190613d93565b61279e9190613db2565b61012e546127ac9087613d93565b6127b69190613f4d565b610b2a9190613db2565b6040516001600160a01b038085166024830152831660448201526064810182905261282b9085906323b872dd60e01b906084015b60408051601f198184030181529190526020810180516001600160e01b03166001600160e01b031990931692909217909152612e9e565b50505050565b6040516001600160a01b03831660248201526044810182905261096d90849063a9059cbb60e01b906064016127f4565b6001600160a01b03841660009081526101376020526040812080548790811061288c5761288c613b49565b90600052602060002090600c0201905060006001600160a01b031661013682600b016040516128bb9190613edb565b908152604051908190036020019020546001600160a01b031614156129225760405162461bcd60e51b815260206004820152601e60248201527f5751426f72726f77696e673a20546f6b656e2069732064697361626c6564000060448201526064016109de565b828160020160008282546129369190613b75565b92505081905550818160010160008282546129519190613b75565b9091555050600a81015460058201546040516381ce1c2360e01b815260048101919091526000916129eb9186916001600160a01b0316906381ce1c239060240160206040518083038186803b1580156129a957600080fd5b505afa1580156129bd573d6000803e3d6000fd5b505050506040513d601f19601f820116820180604052508101906129e19190613c04565b8460030154612c06565b90506000612a028584600601548560030154612766565b9050612a133330611bf38489613f4d565b61012f54600a840154604051636eb1769f60e11b81523060048201526001600160a01b039182166024820152600092919091169063dd62ed3e9060440160206040518083038186803b158015612a6857600080fd5b505afa158015612a7c573d6000803e3d6000fd5b505050506040513d601f19601f82011682018060405250810190612aa09190613c04565b1115612ac757600a83015461012f54612ac7916001600160a01b0391821691166000612f70565b600a830154612af7906001600160a01b0316612ae38488613f4d565b61012f546001600160a01b03169190612f70565b600a830154835460038501546001600160a01b039283169263268ebd599216908890612b239042613b75565b60058801546040516001600160e01b031960e087901b1681526001600160a01b039094166004850152602484019290925260448301526064820152608401600060405180830381600087803b158015612b7b57600080fd5b505af1158015612b8f573d6000803e3d6000fd5b505061013054612bc392506001600160a01b03169050612baf8484613b75565b61012f546001600160a01b03169190612831565b612bfc868561013686600b01604051612bdc9190613edb565b908152604051908190036020019020546001600160a01b03169190612831565b5050505050505050565b6000670de0b6b3a76400006301e13380612c208442613b75565b612c2a8688613d93565b612c349190613d93565b6127b69190613db2565b600054610100900460ff16612c655760405162461bcd60e51b81526004016109de90613f65565b565b600054610100900460ff16612c8e5760405162461bcd60e51b81526004016109de90613f65565b612c65613094565b6109f182826124e7565b600082815260656020526040808220600101805490849055905190918391839186917fbd79b86ffe0ab8e8776151514217cd7cacd52c909f66475c3af44e129f0b00ff9190a4505050565b6000670de0b6b3a76400006101325483600801546101345461013354612d119190613b75565b428660090154612d219190613b75565b612d2b9190613d93565b612d359190613d93565b612d3f9190613db2565b612d499190613db2565b670de0b6b3a7640000610134548460080154612d659190613d93565b612d6f9190613db2565b6108d69190613f4d565b612d8382826121f6565b6109f157612d9b816001600160a01b031660146130c2565b612da68360206130c2565b604051602001612db7929190613fb0565b60408051601f198184030181529082905262461bcd60e51b82526109de91600401614025565b6001600160a01b0381163b612e4a5760405162461bcd60e51b815260206004820152602d60248201527f455243313936373a206e657720696d706c656d656e746174696f6e206973206e60448201526c1bdd08184818dbdb9d1c9858dd609a1b60648201526084016109de565b6000805160206140ae83398151915280546001600160a01b0319166001600160a01b0392909216919091179055565b612e828361325e565b600082511180612e8f5750805b1561096d5761282b838361329e565b6000612ef3826040518060400160405280602081526020017f5361666545524332303a206c6f772d6c6576656c2063616c6c206661696c6564815250856001600160a01b03166133929092919063ffffffff16565b80519091501561096d5780806020019051810190612f119190614038565b61096d5760405162461bcd60e51b815260206004820152602a60248201527f5361666545524332303a204552433230206f7065726174696f6e20646964206e6044820152691bdd081cdd58d8d9595960b21b60648201526084016109de565b801580612ff95750604051636eb1769f60e11b81523060048201526001600160a01b03838116602483015284169063dd62ed3e9060440160206040518083038186803b158015612fbf57600080fd5b505afa158015612fd3573d6000803e3d6000fd5b505050506040513d601f19601f82011682018060405250810190612ff79190613c04565b155b6130645760405162461bcd60e51b815260206004820152603660248201527f5361666545524332303a20617070726f76652066726f6d206e6f6e2d7a65726f60448201527520746f206e6f6e2d7a65726f20616c6c6f77616e636560501b60648201526084016109de565b6040516001600160a01b03831660248201526044810182905261096d90849063095ea7b360e01b906064016127f4565b600054610100900460ff166130bb5760405162461bcd60e51b81526004016109de90613f65565b6001609755565b606060006130d1836002613d93565b6130dc906002613f4d565b67ffffffffffffffff8111156130f4576130f46135c5565b6040519080825280601f01601f19166020018201604052801561311e576020820181803683370190505b509050600360fc1b8160008151811061313957613139613b49565b60200101906001600160f81b031916908160001a905350600f60fb1b8160018151811061316857613168613b49565b60200101906001600160f81b031916908160001a905350600061318c846002613d93565b613197906001613f4d565b90505b600181111561320f576f181899199a1a9b1b9c1cb0b131b232b360811b85600f16601081106131cb576131cb613b49565b1a60f81b8282815181106131e1576131e1613b49565b60200101906001600160f81b031916908160001a90535060049490941c936132088161405a565b905061319a565b5083156122645760405162461bcd60e51b815260206004820181905260248201527f537472696e67733a20686578206c656e67746820696e73756666696369656e7460448201526064016109de565b61326781612ddd565b6040516001600160a01b038216907fbc7cd75a20ee27fd9adebab32041f755214dbc6bffa90cc0225b39da2e5c2d3b90600090a250565b60606001600160a01b0383163b6133065760405162461bcd60e51b815260206004820152602660248201527f416464726573733a2064656c65676174652063616c6c20746f206e6f6e2d636f6044820152651b9d1c9858dd60d21b60648201526084016109de565b600080846001600160a01b0316846040516133219190614071565b600060405180830381855af49150503d806000811461335c576040519150601f19603f3d011682016040523d82523d6000602084013e613361565b606091505b509150915061338982826040518060600160405280602781526020016140ce602791396133a1565b95945050505050565b6060610b2a84846000856133da565b606083156133b0575081612264565b8251156133c05782518084602001fd5b8160405162461bcd60e51b81526004016109de9190614025565b60608247101561343b5760405162461bcd60e51b815260206004820152602660248201527f416464726573733a20696e73756666696369656e742062616c616e636520666f6044820152651c8818d85b1b60d21b60648201526084016109de565b6001600160a01b0385163b6134925760405162461bcd60e51b815260206004820152601d60248201527f416464726573733a2063616c6c20746f206e6f6e2d636f6e747261637400000060448201526064016109de565b600080866001600160a01b031685876040516134ae9190614071565b60006040518083038185875af1925050503d80600081146134eb576040519150601f19603f3d011682016040523d82523d6000602084013e6134f0565b606091505b50915091506135008282866133a1565b979650505050505050565b82805461351790613e1b565b90600052602060002090601f016020900481019282613539576000855561357f565b82601f1061355257805160ff191683800117855561357f565b8280016001018555821561357f579182015b8281111561357f578251825591602001919060010190613564565b50610d259291505b80821115610d255760008155600101613587565b6000602082840312156135ad57600080fd5b81356001600160e01b03198116811461226457600080fd5b634e487b7160e01b600052604160045260246000fd5b600067ffffffffffffffff808411156135f6576135f66135c5565b604051601f8501601f19908116603f0116810190828211818310171561361e5761361e6135c5565b8160405280935085815286868601111561363757600080fd5b858560208301376000602087830101525050509392505050565b60006020828403121561366357600080fd5b813567ffffffffffffffff81111561367a57600080fd5b8201601f8101841361368b57600080fd5b610b2a848235602084016135db565b6001600160a01b0381168114610ad257600080fd5b6000602082840312156136c157600080fd5b81356122648161369a565b6000602082840312156136de57600080fd5b5035919050565b600080604083850312156136f857600080fd5b82359150602083013561370a8161369a565b809150509250929050565b6000806040838503121561372857600080fd5b82356137338161369a565b946020939093013593505050565b6020808252825182820181905260009190848201906040850190845b818110156137825783516001600160a01b03168352928401929184019160010161375d565b50909695505050505050565b600080604083850312156137a157600080fd5b82356137ac8161369a565b9150602083013567ffffffffffffffff8111156137c857600080fd5b8301601f810185136137d957600080fd5b6137e8858235602084016135db565b9150509250929050565b60008083601f84011261380457600080fd5b50813567ffffffffffffffff81111561381c57600080fd5b60208301915083602082850101111561383457600080fd5b9250929050565b600080600080600080600060c0888a03121561385657600080fd5b8735965060208801356138688161369a565b955060408801359450606088013593506080880135925060a088013567ffffffffffffffff81111561389957600080fd5b6138a58a828b016137f2565b989b979a50959850939692959293505050565b6000806000606084860312156138cd57600080fd5b83356138d88161369a565b95602085013595506040909401359392505050565b6000806040838503121561390057600080fd5b50508035926020909101359150565b600080600080600080600080610100898b03121561392c57600080fd5b883597506020890135965060408901359550606089013594506080890135935060a089013561395a8161369a565b925060c089013561396a8161369a565b915060e089013561397a8161369a565b809150509295985092959890939650565b60005b838110156139a657818101518382015260200161398e565b8381111561282b5750506000910152565b600081518084526139cf81602086016020860161398b565b601f01601f19169290920160200192915050565b600060018060a01b03808f1683528d60208401528c60408401528b60608401528a60808401528960a08401528860c08401528760e0840152866101008401528561012084015280851661014084015250610180610160830152613a4a6101808301846139b7565b9e9d5050505050505050505050505050565b600080600060408486031215613a7157600080fd5b8335613a7c8161369a565b9250602084013567ffffffffffffffff811115613a9857600080fd5b613aa4868287016137f2565b9497909650939450505050565b6020808252602c908201527f46756e6374696f6e206d7573742062652063616c6c6564207468726f7567682060408201526b19195b1959d85d1958d85b1b60a21b606082015260800190565b6020808252602c908201527f46756e6374696f6e206d7573742062652063616c6c6564207468726f7567682060408201526b6163746976652070726f787960a01b606082015260800190565b634e487b7160e01b600052603260045260246000fd5b634e487b7160e01b600052601160045260246000fd5b600082821015613b8757613b87613b5f565b500390565b634e487b7160e01b600052603160045260246000fd5b6000600019821415613bb657613bb6613b5f565b5060010190565b6020808252601f908201527f5265656e7472616e637947756172643a207265656e7472616e742063616c6c00604082015260600190565b8183823760009101908152919050565b600060208284031215613c1657600080fd5b5051919050565b600060208284031215613c2f57600080fd5b815160ff8116811461226457600080fd5b600060ff821660ff841680821015613c5a57613c5a613b5f565b90039392505050565b600181815b80851115613c9e578160001904821115613c8457613c84613b5f565b80851615613c9157918102915b93841c9390800290613c68565b509250929050565b600082613cb5575060016108d6565b81613cc2575060006108d6565b8160018114613cd85760028114613ce257613cfe565b60019150506108d6565b60ff841115613cf357613cf3613b5f565b50506001821b6108d6565b5060208310610133831016604e8410600b8410161715613d21575081810a6108d6565b613d2b8383613c63565b8060001904821115613d3f57613d3f613b5f565b029392505050565b600061226460ff841683613ca6565b81835281816020850137506000828201602090810191909152601f909101601f19169091010190565b602081526000610b2a602083018486613d56565b6000816000190483118215151615613dad57613dad613b5f565b500290565b600082613dcf57634e487b7160e01b600052601260045260246000fd5b500490565b87815260018060a01b038716602082015285604082015284606082015283608082015260c060a08201526000613e0e60c083018486613d56565b9998505050505050505050565b600181811c90821680613e2f57607f821691505b60208210811415613e5057634e487b7160e01b600052602260045260246000fd5b50919050565b6000602080835260008454613e6a81613e1b565b80848701526040600180841660008114613e8b5760018114613e9f57613ecd565b60ff19851689840152606089019550613ecd565b896000528660002060005b85811015613ec55781548b8201860152908301908801613eaa565b8a0184019650505b509398975050505050505050565b6000808354613ee981613e1b565b60018281168015613f015760018114613f1257613f41565b60ff19841687528287019450613f41565b8760005260208060002060005b85811015613f385781548a820152908401908201613f1f565b50505082870194505b50929695505050505050565b60008219821115613f6057613f60613b5f565b500190565b6020808252602b908201527f496e697469616c697a61626c653a20636f6e7472616374206973206e6f74206960408201526a6e697469616c697a696e6760a81b606082015260800190565b7f416363657373436f6e74726f6c3a206163636f756e7420000000000000000000815260008351613fe881601785016020880161398b565b7001034b99036b4b9b9b4b733903937b6329607d1b601791840191820152835161401981602884016020880161398b565b01602801949350505050565b60208152600061226460208301846139b7565b60006020828403121561404a57600080fd5b8151801515811461226457600080fd5b60008161406957614069613b5f565b506000190190565b6000825161408381846020870161398b565b919091019291505056fe189ab7a9244df0848122154315af71fe140f3db0fe014031783b0946b8c9d2e3360894a13ba1a3210667c828492db98dca3e2076cc3735a920a3ca505d382bbc416464726573733a206c6f772d6c6576656c2064656c65676174652063616c6c206661696c6564a49807205ce4d355092ef5a8a18f56e8913cf4a201fbe287825b095693c21775a2646970667358221220bdd65151d848ebc365500a68b477883ea24819f9e9a799380aa4ab8addc3a2ca64736f6c63430008090033",
  "linkReferences": {},
  "deployedLinkReferences": {}
}