{
  "_format": "hh-sol-artifact-1",
  "contractName": "WorkQuestFactory",
  "sourceName": "contracts/WorkQuestFactory.sol",
  "abi": [
    {
      "inputs": [],
      "stateMutability": "nonpayable",
      "type": "constructor"
    },
    {
      "anonymous": false,
      "inputs": [
        {
          "indexed": false,
          "internalType": "address",
          "name": "previousAdmin",
          "type": "address"
        },
        {
          "indexed": false,
          "internalType": "address",
          "name": "newAdmin",
          "type": "address"
        }
      ],
      "name": "AdminChanged",
      "type": "event"
    },
    {
      "anonymous": false,
      "inputs": [
        {
          "indexed": true,
          "internalType": "address",
          "name": "beacon",
          "type": "address"
        }
      ],
      "name": "BeaconUpgraded",
      "type": "event"
    },
    {
      "anonymous": false,
      "inputs": [
        {
          "indexed": true,
          "internalType": "bytes32",
          "name": "role",
          "type": "bytes32"
        },
        {
          "indexed": true,
          "internalType": "bytes32",
          "name": "previousAdminRole",
          "type": "bytes32"
        },
        {
          "indexed": true,
          "internalType": "bytes32",
          "name": "newAdminRole",
          "type": "bytes32"
        }
      ],
      "name": "RoleAdminChanged",
      "type": "event"
    },
    {
      "anonymous": false,
      "inputs": [
        {
          "indexed": true,
          "internalType": "bytes32",
          "name": "role",
          "type": "bytes32"
        },
        {
          "indexed": true,
          "internalType": "address",
          "name": "account",
          "type": "address"
        },
        {
          "indexed": true,
          "internalType": "address",
          "name": "sender",
          "type": "address"
        }
      ],
      "name": "RoleGranted",
      "type": "event"
    },
    {
      "anonymous": false,
      "inputs": [
        {
          "indexed": true,
          "internalType": "bytes32",
          "name": "role",
          "type": "bytes32"
        },
        {
          "indexed": true,
          "internalType": "address",
          "name": "account",
          "type": "address"
        },
        {
          "indexed": true,
          "internalType": "address",
          "name": "sender",
          "type": "address"
        }
      ],
      "name": "RoleRevoked",
      "type": "event"
    },
    {
      "anonymous": false,
      "inputs": [
        {
          "indexed": true,
          "internalType": "address",
          "name": "implementation",
          "type": "address"
        }
      ],
      "name": "Upgraded",
      "type": "event"
    },
    {
      "anonymous": false,
      "inputs": [
        {
          "indexed": false,
          "internalType": "bytes32",
          "name": "jobHash",
          "type": "bytes32"
        },
        {
          "indexed": false,
          "internalType": "address",
          "name": "employer",
          "type": "address"
        },
        {
          "indexed": false,
          "internalType": "address",
          "name": "workquest",
          "type": "address"
        },
        {
          "indexed": false,
          "internalType": "uint256",
          "name": "createdAt",
          "type": "uint256"
        },
        {
          "indexed": false,
          "internalType": "uint256",
          "name": "nonce",
          "type": "uint256"
        }
      ],
      "name": "WorkQuestCreated",
      "type": "event"
    },
    {
      "inputs": [],
      "name": "ADMIN_ROLE",
      "outputs": [
        {
          "internalType": "bytes32",
          "name": "",
          "type": "bytes32"
        }
      ],
      "stateMutability": "view",
      "type": "function"
    },
    {
      "inputs": [],
      "name": "ARBITER_ROLE",
      "outputs": [
        {
          "internalType": "bytes32",
          "name": "",
          "type": "bytes32"
        }
      ],
      "stateMutability": "view",
      "type": "function"
    },
    {
      "inputs": [],
      "name": "DEFAULT_ADMIN_ROLE",
      "outputs": [
        {
          "internalType": "bytes32",
          "name": "",
          "type": "bytes32"
        }
      ],
      "stateMutability": "view",
      "type": "function"
    },
    {
      "inputs": [],
      "name": "UPGRADER_ROLE",
      "outputs": [
        {
          "internalType": "bytes32",
          "name": "",
          "type": "bytes32"
        }
      ],
      "stateMutability": "view",
      "type": "function"
    },
    {
      "inputs": [],
      "name": "feeEmployer",
      "outputs": [
        {
          "internalType": "uint256",
          "name": "",
          "type": "uint256"
        }
      ],
      "stateMutability": "view",
      "type": "function"
    },
    {
      "inputs": [],
      "name": "feeReceiver",
      "outputs": [
        {
          "internalType": "address payable",
          "name": "",
          "type": "address"
        }
      ],
      "stateMutability": "view",
      "type": "function"
    },
    {
      "inputs": [],
      "name": "feeTx",
      "outputs": [
        {
          "internalType": "uint256",
          "name": "",
          "type": "uint256"
        }
      ],
      "stateMutability": "view",
      "type": "function"
    },
    {
      "inputs": [],
      "name": "feeWorker",
      "outputs": [
        {
          "internalType": "uint256",
          "name": "",
          "type": "uint256"
        }
      ],
      "stateMutability": "view",
      "type": "function"
    },
    {
      "inputs": [
        {
          "internalType": "bytes32",
          "name": "role",
          "type": "bytes32"
        }
      ],
      "name": "getRoleAdmin",
      "outputs": [
        {
          "internalType": "bytes32",
          "name": "",
          "type": "bytes32"
        }
      ],
      "stateMutability": "view",
      "type": "function"
    },
    {
      "inputs": [
        {
          "internalType": "address",
          "name": "employer",
          "type": "address"
        },
        {
          "internalType": "uint256",
          "name": "offset",
          "type": "uint256"
        },
        {
          "internalType": "uint256",
          "name": "limit",
          "type": "uint256"
        }
      ],
      "name": "getWorkQuests",
      "outputs": [
        {
          "internalType": "address[]",
          "name": "page",
          "type": "address[]"
        }
      ],
      "stateMutability": "view",
      "type": "function"
    },
    {
      "inputs": [
        {
          "internalType": "bytes32",
          "name": "role",
          "type": "bytes32"
        },
        {
          "internalType": "address",
          "name": "account",
          "type": "address"
        }
      ],
      "name": "grantRole",
      "outputs": [],
      "stateMutability": "nonpayable",
      "type": "function"
    },
    {
      "inputs": [
        {
          "internalType": "bytes32",
          "name": "role",
          "type": "bytes32"
        },
        {
          "internalType": "address",
          "name": "account",
          "type": "address"
        }
      ],
      "name": "hasRole",
      "outputs": [
        {
          "internalType": "bool",
          "name": "",
          "type": "bool"
        }
      ],
      "stateMutability": "view",
      "type": "function"
    },
    {
      "inputs": [
        {
          "internalType": "uint256",
          "name": "_feeEmployer",
          "type": "uint256"
        },
        {
          "internalType": "uint256",
          "name": "_feeWorker",
          "type": "uint256"
        },
        {
          "internalType": "uint256",
          "name": "_feeTx",
          "type": "uint256"
        },
        {
          "internalType": "address payable",
          "name": "_feeReceiver",
          "type": "address"
        },
        {
          "internalType": "address payable",
          "name": "_pensionFund",
          "type": "address"
        },
        {
          "internalType": "address payable",
          "name": "_referral",
          "type": "address"
        },
        {
          "internalType": "address",
          "name": "_wusd",
          "type": "address"
        }
      ],
      "name": "initialize",
      "outputs": [],
      "stateMutability": "nonpayable",
      "type": "function"
    },
    {
      "inputs": [
        {
          "internalType": "bytes32",
          "name": "jobHash",
          "type": "bytes32"
        },
        {
          "internalType": "uint256",
          "name": "cost",
          "type": "uint256"
        },
        {
          "internalType": "uint256",
          "name": "deadline",
          "type": "uint256"
        },
        {
          "internalType": "uint256",
          "name": "nonce",
          "type": "uint256"
        }
      ],
      "name": "newWorkQuest",
      "outputs": [],
      "stateMutability": "nonpayable",
      "type": "function"
    },
    {
      "inputs": [],
      "name": "pensionFund",
      "outputs": [
        {
          "internalType": "address payable",
          "name": "",
          "type": "address"
        }
      ],
      "stateMutability": "view",
      "type": "function"
    },
    {
      "inputs": [],
      "name": "proxiableUUID",
      "outputs": [
        {
          "internalType": "bytes32",
          "name": "",
          "type": "bytes32"
        }
      ],
      "stateMutability": "view",
      "type": "function"
    },
    {
      "inputs": [],
      "name": "referral",
      "outputs": [
        {
          "internalType": "address payable",
          "name": "",
          "type": "address"
        }
      ],
      "stateMutability": "view",
      "type": "function"
    },
    {
      "inputs": [
        {
          "internalType": "bytes32",
          "name": "role",
          "type": "bytes32"
        },
        {
          "internalType": "address",
          "name": "account",
          "type": "address"
        }
      ],
      "name": "renounceRole",
      "outputs": [],
      "stateMutability": "nonpayable",
      "type": "function"
    },
    {
      "inputs": [
        {
          "internalType": "bytes32",
          "name": "role",
          "type": "bytes32"
        },
        {
          "internalType": "address",
          "name": "account",
          "type": "address"
        }
      ],
      "name": "revokeRole",
      "outputs": [],
      "stateMutability": "nonpayable",
      "type": "function"
    },
    {
      "inputs": [
        {
          "internalType": "uint256",
          "name": "_fee",
          "type": "uint256"
        }
      ],
      "name": "setFeeEmployer",
      "outputs": [],
      "stateMutability": "nonpayable",
      "type": "function"
    },
    {
      "inputs": [
        {
          "internalType": "address payable",
          "name": "_feeReceiver",
          "type": "address"
        }
      ],
      "name": "setFeeReceiver",
      "outputs": [],
      "stateMutability": "nonpayable",
      "type": "function"
    },
    {
      "inputs": [
        {
          "internalType": "uint256",
          "name": "_fee",
          "type": "uint256"
        }
      ],
      "name": "setFeeTx",
      "outputs": [],
      "stateMutability": "nonpayable",
      "type": "function"
    },
    {
      "inputs": [
        {
          "internalType": "uint256",
          "name": "_fee",
          "type": "uint256"
        }
      ],
      "name": "setFeeWorker",
      "outputs": [],
      "stateMutability": "nonpayable",
      "type": "function"
    },
    {
      "inputs": [
        {
          "internalType": "address payable",
          "name": "_pensionFund",
          "type": "address"
        }
      ],
      "name": "setPensionFund",
      "outputs": [],
      "stateMutability": "nonpayable",
      "type": "function"
    },
    {
      "inputs": [
        {
          "internalType": "address payable",
          "name": "_referral",
          "type": "address"
        }
      ],
      "name": "setRefferal",
      "outputs": [],
      "stateMutability": "nonpayable",
      "type": "function"
    },
    {
      "inputs": [
        {
          "internalType": "address",
          "name": "_wusd",
          "type": "address"
        }
      ],
      "name": "setWusd",
      "outputs": [],
      "stateMutability": "nonpayable",
      "type": "function"
    },
    {
      "inputs": [
        {
          "internalType": "bytes4",
          "name": "interfaceId",
          "type": "bytes4"
        }
      ],
      "name": "supportsInterface",
      "outputs": [
        {
          "internalType": "bool",
          "name": "",
          "type": "bool"
        }
      ],
      "stateMutability": "view",
      "type": "function"
    },
    {
      "inputs": [
        {
          "internalType": "address",
          "name": "newImplementation",
          "type": "address"
        }
      ],
      "name": "upgradeTo",
      "outputs": [],
      "stateMutability": "nonpayable",
      "type": "function"
    },
    {
      "inputs": [
        {
          "internalType": "address",
          "name": "newImplementation",
          "type": "address"
        },
        {
          "internalType": "bytes",
          "name": "data",
          "type": "bytes"
        }
      ],
      "name": "upgradeToAndCall",
      "outputs": [],
      "stateMutability": "payable",
      "type": "function"
    },
    {
      "inputs": [
        {
          "internalType": "address",
          "name": "",
          "type": "address"
        }
      ],
      "name": "workquestValid",
      "outputs": [
        {
          "internalType": "bool",
          "name": "",
          "type": "bool"
        }
      ],
      "stateMutability": "view",
      "type": "function"
    },
    {
      "inputs": [
        {
          "internalType": "address",
          "name": "",
          "type": "address"
        },
        {
          "internalType": "uint256",
          "name": "",
          "type": "uint256"
        }
      ],
      "name": "workquests",
      "outputs": [
        {
          "internalType": "address",
          "name": "",
          "type": "address"
        }
      ],
      "stateMutability": "view",
      "type": "function"
    },
    {
      "inputs": [],
      "name": "wusd",
      "outputs": [
        {
          "internalType": "contract IERC20Upgradeable",
          "name": "",
          "type": "address"
        }
      ],
      "stateMutability": "view",
      "type": "function"
    }
  ],
  "bytecode": "0x60a0604052306080523480156200001557600080fd5b50600054610100900460ff16620000335760005460ff16156200003d565b6200003d620000e2565b620000a55760405162461bcd60e51b815260206004820152602e60248201527f496e697469616c697a61626c653a20636f6e747261637420697320616c72656160448201526d191e481a5b9a5d1a585b1a5e995960921b606482015260840160405180910390fd5b600054610100900460ff16158015620000c8576000805461ffff19166101011790555b8015620000db576000805461ff00191690555b506200010f565b6000620000fa306200010060201b6200109d1760201c565b15905090565b6001600160a01b03163b151590565b608051614c726200014760003960008181610ace01528181610b1101528181610c3901528181610c7c0152610d140152614c726000f3fe6080604052600436106200020b5760003560e01c806353af3de31162000117578063b3f0067411620000a1578063d1cbfe65116200006c578063d1cbfe651462000640578063d547741f1462000665578063efdcd974146200068a578063f72c0d8b14620006af57600080fd5b8063b3f0067414620005bc578063bce515aa14620005de578063c846dccb14620005f6578063ce417cf2146200061b57600080fd5b80638eab005b11620000e25780638eab005b146200054357806391d148541462000568578063a1e59769146200058d578063a217fddf14620005a557600080fd5b806353af3de314620004bc5780636432506514620004e157806375b238fc14620004f95780638d46f309146200051e57600080fd5b80632f2ff15d116200019957806345c12b2d116200016457806345c12b2d14620004325780634d104adf14620004575780634f1ef286146200048d57806352d1902d14620004a457600080fd5b80632f2ff15d146200039e57806336568abe14620003c35780633659cfe614620003e85780633f8f9985146200040d57600080fd5b80632372403c11620001da5780632372403c14620002d0578063248a9ca314620003055780632931b14c14620003485780632cba90c7146200037c57600080fd5b806301ffc9a714620002105780630fc65407146200024a5780631441a5a9146200027157806315c40eb014620002ad575b600080fd5b3480156200021d57600080fd5b50620002356200022f36600462001b17565b620006d4565b60405190151581526020015b60405180910390f35b3480156200025757600080fd5b506200026f6200026936600462001b59565b6200070c565b005b3480156200027e57600080fd5b506101005462000294906001600160a01b031681565b6040516001600160a01b03909116815260200162000241565b348015620002ba57600080fd5b506101015462000294906001600160a01b031681565b348015620002dd57600080fd5b5062000235620002ef36600462001bdd565b6101036020526000908152604090205460ff1681565b3480156200031257600080fd5b50620003396200032436600462001bfd565b60009081526065602052604090206001015490565b60405190815260200162000241565b3480156200035557600080fd5b506200036d6200036736600462001c17565b620008ed565b60405162000241919062001c4f565b3480156200038957600080fd5b5060ff5462000294906001600160a01b031681565b348015620003ab57600080fd5b506200026f620003bd36600462001c9e565b62000a12565b348015620003d057600080fd5b506200026f620003e236600462001c9e565b62000a41565b348015620003f557600080fd5b506200026f6200040736600462001bdd565b62000ac3565b3480156200041a57600080fd5b506200026f6200042c36600462001bdd565b62000baf565b3480156200043f57600080fd5b506200026f6200045136600462001bdd565b62000bef565b3480156200046457600080fd5b50620003397fbb08418a67729a078f87bbc8d02a770929bb68f5bfdf134ae2ead6ed38e2f4ae81565b6200026f6200049e36600462001ce7565b62000c2e565b348015620004b157600080fd5b506200033962000d07565b348015620004c957600080fd5b506200026f620004db36600462001bfd565b62000dbd565b348015620004ee57600080fd5b506200033960fd5481565b3480156200050657600080fd5b506200033960008051602062004c1d83398151915281565b3480156200052b57600080fd5b506200026f6200053d36600462001bfd565b62000ddf565b3480156200055057600080fd5b506200026f6200056236600462001bfd565b62000e01565b3480156200057557600080fd5b50620002356200058736600462001c9e565b62000e23565b3480156200059a57600080fd5b506200033960fb5481565b348015620005b257600080fd5b5062000339600081565b348015620005c957600080fd5b5060fe5462000294906001600160a01b031681565b348015620005eb57600080fd5b506200033960fc5481565b3480156200060357600080fd5b506200026f6200061536600462001db7565b62000e4e565b3480156200062857600080fd5b50620002946200063a36600462001dea565b62000fba565b3480156200064d57600080fd5b506200026f6200065f36600462001bdd565b62000ff4565b3480156200067257600080fd5b506200026f6200068436600462001c9e565b62001034565b3480156200069757600080fd5b506200026f620006a936600462001bdd565b6200105e565b348015620006bc57600080fd5b506200033960008051602062004bb683398151915281565b60006001600160e01b03198216637965db0b60e01b14806200070657506301ffc9a760e01b6001600160e01b03198316145b92915050565b600054610100900460ff16620007295760005460ff16156200072d565b303b155b620007965760405162461bcd60e51b815260206004820152602e60248201527f496e697469616c697a61626c653a20636f6e747261637420697320616c72656160448201526d191e481a5b9a5d1a585b1a5e995960921b60648201526084015b60405180910390fd5b600054610100900460ff16158015620007b9576000805461ffff19166101011790555b620007c3620010ac565b620007cd620010ac565b620007da6000336200111b565b620007f560008051602062004c1d833981519152336200111b565b6200081060008051602062004bb6833981519152336200111b565b6200083a60008051602062004bb683398151915260008051602062004c1d83398151915262001127565b620008757fbb08418a67729a078f87bbc8d02a770929bb68f5bfdf134ae2ead6ed38e2f4ae60008051602062004c1d83398151915262001127565b60fb88905560fc87905560fd86905560fe80546001600160a01b038088166001600160a01b03199283161790925560ff805487841690831617905561010080548684169083161790556101018054928516929091169190911790558015620008e3576000805461ff00191690555b5050505050505050565b6001600160a01b0383166000908152610102602052604090208054606091906200091990859062001e2f565b831115620009335780546200093090859062001e2f565b92505b8267ffffffffffffffff8111156200094f576200094f62001cd1565b60405190808252806020026020018201604052801562000979578160200160208202803683370190505b50915060005b8381101562000a08578162000995828762001e49565b81548110620009a857620009a862001e64565b9060005260206000200160009054906101000a90046001600160a01b0316838281518110620009db57620009db62001e64565b6001600160a01b039092166020928302919091019091015280620009ff8162001e7a565b9150506200097f565b50505b9392505050565b60008281526065602052604090206001015462000a30813362001172565b62000a3c8383620011e1565b505050565b6001600160a01b038116331462000ab35760405162461bcd60e51b815260206004820152602f60248201527f416363657373436f6e74726f6c3a2063616e206f6e6c792072656e6f756e636560448201526e103937b632b9903337b91039b2b63360891b60648201526084016200078d565b62000abf82826200126b565b5050565b306001600160a01b037f000000000000000000000000000000000000000000000000000000000000000016141562000b0f5760405162461bcd60e51b81526004016200078d9062001e98565b7f00000000000000000000000000000000000000000000000000000000000000006001600160a01b031662000b5a60008051602062004bd6833981519152546001600160a01b031690565b6001600160a01b03161462000b835760405162461bcd60e51b81526004016200078d9062001ee4565b62000b8e81620012d5565b6040805160008082526020820190925262000bac91839190620012f1565b50565b60008051602062004c1d83398151915262000bcb813362001172565b5061010180546001600160a01b0319166001600160a01b0392909216919091179055565b60008051602062004c1d83398151915262000c0b813362001172565b5060ff80546001600160a01b0319166001600160a01b0392909216919091179055565b306001600160a01b037f000000000000000000000000000000000000000000000000000000000000000016141562000c7a5760405162461bcd60e51b81526004016200078d9062001e98565b7f00000000000000000000000000000000000000000000000000000000000000006001600160a01b031662000cc560008051602062004bd6833981519152546001600160a01b031690565b6001600160a01b03161462000cee5760405162461bcd60e51b81526004016200078d9062001ee4565b62000cf982620012d5565b62000abf82826001620012f1565b6000306001600160a01b037f0000000000000000000000000000000000000000000000000000000000000000161462000da95760405162461bcd60e51b815260206004820152603860248201527f555550535570677261646561626c653a206d757374206e6f742062652063616c60448201527f6c6564207468726f7567682064656c656761746563616c6c000000000000000060648201526084016200078d565b5060008051602062004bd683398151915290565b60008051602062004c1d83398151915262000dd9813362001172565b5060fd55565b60008051602062004c1d83398151915262000dfb813362001172565b5060fb55565b60008051602062004c1d83398151915262000e1d813362001172565b5060fc55565b60009182526065602090815260408084206001600160a01b0393909316845291905290205460ff1690565b60008484843360405162000e629062001b09565b938452602084019290925260408301526001600160a01b03166060820152608001604051809103906000f08015801562000ea0573d6000803e3d6000fd5b50336000908152610102602090815260408083208054600180820183559185528385200180546001600160a01b0319166001600160a01b03871690811790915584526101039092528220805460ff1916909117905560fb5491925090670de0b6b3a76400009062000f12908762001f30565b62000f1e919062001f52565b6101015490915062000f3c906001600160a01b031633848862001479565b60fe546101015462000f5e916001600160a01b03918216913391168462001479565b604080518781523360208201526001600160a01b038416818301524260608201526080810185905290517fc9fd97c1118b97a71931dc93489f048cb2e4fb431adac7bce7756f6165eea68a9181900360a00190a1505050505050565b610102602052816000526040600020818154811062000fd857600080fd5b6000918252602090912001546001600160a01b03169150829050565b60008051602062004c1d83398151915262001010813362001172565b5061010080546001600160a01b0319166001600160a01b0392909216919091179055565b60008281526065602052604090206001015462001052813362001172565b62000a3c83836200126b565b60008051602062004c1d8339815191526200107a813362001172565b5060fe80546001600160a01b0319166001600160a01b0392909216919091179055565b6001600160a01b03163b151590565b600054610100900460ff16620011195760405162461bcd60e51b815260206004820152602b60248201527f496e697469616c697a61626c653a20636f6e7472616374206973206e6f74206960448201526a6e697469616c697a696e6760a81b60648201526084016200078d565b565b62000abf8282620011e1565b600082815260656020526040808220600101805490849055905190918391839186917fbd79b86ffe0ab8e8776151514217cd7cacd52c909f66475c3af44e129f0b00ff9190a4505050565b6200117e828262000e23565b62000abf5762001199816001600160a01b03166014620014db565b620011a6836020620014db565b604051602001620011b992919062001fa4565b60408051601f198184030181529082905262461bcd60e51b82526200078d916004016200201d565b620011ed828262000e23565b62000abf5760008281526065602090815260408083206001600160a01b03851684529091529020805460ff19166001179055620012273390565b6001600160a01b0316816001600160a01b0316837f2f8788117e7eff1d82e926ec794901d17c78024a50270940304540a733656f0d60405160405180910390a45050565b62001277828262000e23565b1562000abf5760008281526065602090815260408083206001600160a01b0385168085529252808320805460ff1916905551339285917ff6391f5c32d9c69d2a47ea670b442974b53935d1edc7fd64eb21e047a839171b9190a45050565b60008051602062004bb683398151915262000abf813362001172565b7f4910fdfa16fed3260ed0e7147f7cc6da11a60208b5b9406d12a635614ffd91435460ff1615620013275762000a3c8362001695565b826001600160a01b03166352d1902d6040518163ffffffff1660e01b815260040160206040518083038186803b1580156200136157600080fd5b505afa92505050801562001394575060408051601f3d908101601f19168201909252620013919181019062002052565b60015b620013f95760405162461bcd60e51b815260206004820152602e60248201527f45524331393637557067726164653a206e657720696d706c656d656e7461746960448201526d6f6e206973206e6f74205555505360901b60648201526084016200078d565b60008051602062004bd683398151915281146200146b5760405162461bcd60e51b815260206004820152602960248201527f45524331393637557067726164653a20756e737570706f727465642070726f786044820152681a58589b195555525160ba1b60648201526084016200078d565b5062000a3c83838362001734565b604080516001600160a01b0385811660248301528416604482015260648082018490528251808303909101815260849091019091526020810180516001600160e01b03166323b872dd60e01b179052620014d59085906200175f565b50505050565b60606000620014ec83600262001f30565b620014f990600262001e49565b67ffffffffffffffff81111562001514576200151462001cd1565b6040519080825280601f01601f1916602001820160405280156200153f576020820181803683370190505b509050600360fc1b816000815181106200155d576200155d62001e64565b60200101906001600160f81b031916908160001a905350600f60fb1b816001815181106200158f576200158f62001e64565b60200101906001600160f81b031916908160001a9053506000620015b584600262001f30565b620015c290600162001e49565b90505b600181111562001644576f181899199a1a9b1b9c1cb0b131b232b360811b85600f1660108110620015fa57620015fa62001e64565b1a60f81b82828151811062001613576200161362001e64565b60200101906001600160f81b031916908160001a90535060049490941c936200163c816200206c565b9050620015c5565b50831562000a0b5760405162461bcd60e51b815260206004820181905260248201527f537472696e67733a20686578206c656e67746820696e73756666696369656e7460448201526064016200078d565b6001600160a01b0381163b620017045760405162461bcd60e51b815260206004820152602d60248201527f455243313936373a206e657720696d706c656d656e746174696f6e206973206e60448201526c1bdd08184818dbdb9d1c9858dd609a1b60648201526084016200078d565b60008051602062004bd683398151915280546001600160a01b0319166001600160a01b0392909216919091179055565b6200173f8362001838565b6000825111806200174d5750805b1562000a3c57620014d583836200187a565b6000620017b6826040518060400160405280602081526020017f5361666545524332303a206c6f772d6c6576656c2063616c6c206661696c6564815250856001600160a01b0316620019779092919063ffffffff16565b80519091501562000a3c5780806020019051810190620017d7919062002086565b62000a3c5760405162461bcd60e51b815260206004820152602a60248201527f5361666545524332303a204552433230206f7065726174696f6e20646964206e6044820152691bdd081cdd58d8d9595960b21b60648201526084016200078d565b620018438162001695565b6040516001600160a01b038216907fbc7cd75a20ee27fd9adebab32041f755214dbc6bffa90cc0225b39da2e5c2d3b90600090a250565b60606001600160a01b0383163b620018e45760405162461bcd60e51b815260206004820152602660248201527f416464726573733a2064656c65676174652063616c6c20746f206e6f6e2d636f6044820152651b9d1c9858dd60d21b60648201526084016200078d565b600080846001600160a01b031684604051620019019190620020aa565b600060405180830381855af49150503d80600081146200193e576040519150601f19603f3d011682016040523d82523d6000602084013e62001943565b606091505b50915091506200196e828260405180606001604052806027815260200162004bf66027913962001990565b95945050505050565b6060620019888484600085620019ce565b949350505050565b60608315620019a157508162000a0b565b825115620019b25782518084602001fd5b8160405162461bcd60e51b81526004016200078d91906200201d565b60608247101562001a315760405162461bcd60e51b815260206004820152602660248201527f416464726573733a20696e73756666696369656e742062616c616e636520666f6044820152651c8818d85b1b60d21b60648201526084016200078d565b6001600160a01b0385163b62001a8a5760405162461bcd60e51b815260206004820152601d60248201527f416464726573733a2063616c6c20746f206e6f6e2d636f6e747261637400000060448201526064016200078d565b600080866001600160a01b0316858760405162001aa89190620020aa565b60006040518083038185875af1925050503d806000811462001ae7576040519150601f19603f3d011682016040523d82523d6000602084013e62001aec565b606091505b509150915062001afe82828662001990565b979650505050505050565b612aed80620020c983390190565b60006020828403121562001b2a57600080fd5b81356001600160e01b03198116811462000a0b57600080fd5b6001600160a01b038116811462000bac57600080fd5b600080600080600080600060e0888a03121562001b7557600080fd5b873596506020880135955060408801359450606088013562001b978162001b43565b9350608088013562001ba98162001b43565b925060a088013562001bbb8162001b43565b915060c088013562001bcd8162001b43565b8091505092959891949750929550565b60006020828403121562001bf057600080fd5b813562000a0b8162001b43565b60006020828403121562001c1057600080fd5b5035919050565b60008060006060848603121562001c2d57600080fd5b833562001c3a8162001b43565b95602085013595506040909401359392505050565b6020808252825182820181905260009190848201906040850190845b8181101562001c925783516001600160a01b03168352928401929184019160010162001c6b565b50909695505050505050565b6000806040838503121562001cb257600080fd5b82359150602083013562001cc68162001b43565b809150509250929050565b634e487b7160e01b600052604160045260246000fd5b6000806040838503121562001cfb57600080fd5b823562001d088162001b43565b9150602083013567ffffffffffffffff8082111562001d2657600080fd5b818501915085601f83011262001d3b57600080fd5b81358181111562001d505762001d5062001cd1565b604051601f8201601f19908116603f0116810190838211818310171562001d7b5762001d7b62001cd1565b8160405282815288602084870101111562001d9557600080fd5b8260208601602083013760006020848301015280955050505050509250929050565b6000806000806080858703121562001dce57600080fd5b5050823594602084013594506040840135936060013592509050565b6000806040838503121562001dfe57600080fd5b823562001e0b8162001b43565b946020939093013593505050565b634e487b7160e01b600052601160045260246000fd5b60008282101562001e445762001e4462001e19565b500390565b6000821982111562001e5f5762001e5f62001e19565b500190565b634e487b7160e01b600052603260045260246000fd5b600060001982141562001e915762001e9162001e19565b5060010190565b6020808252602c908201527f46756e6374696f6e206d7573742062652063616c6c6564207468726f7567682060408201526b19195b1959d85d1958d85b1b60a21b606082015260800190565b6020808252602c908201527f46756e6374696f6e206d7573742062652063616c6c6564207468726f7567682060408201526b6163746976652070726f787960a01b606082015260800190565b600081600019048311821515161562001f4d5762001f4d62001e19565b500290565b60008262001f7057634e487b7160e01b600052601260045260246000fd5b500490565b60005b8381101562001f9257818101518382015260200162001f78565b83811115620014d55750506000910152565b7f416363657373436f6e74726f6c3a206163636f756e742000000000000000000081526000835162001fde81601785016020880162001f75565b7001034b99036b4b9b9b4b733903937b6329607d1b60179184019182015283516200201181602884016020880162001f75565b01602801949350505050565b60208152600082518060208401526200203e81604085016020870162001f75565b601f01601f19169190910160400192915050565b6000602082840312156200206557600080fd5b5051919050565b6000816200207e576200207e62001e19565b506000190190565b6000602082840312156200209957600080fd5b8151801515811462000a0b57600080fd5b60008251620020be81846020870162001f75565b919091019291505056fe60c06040523480156200001157600080fd5b5060405162002aed38038062002aed8339810160408190526200003491620000a4565b6000849055600183905560048290556001600160a01b03811660a052336080526003805460ff60a01b1916600160a01b1790556040518481527f1f3edb4d58a0796934b2fca1e84cec8a42269dc76c56c22b4489a77205ed6bcf9060200160405180910390a150505050620000f5565b60008060008060808587031215620000bb57600080fd5b845160208601516040870151606088015192965090945092506001600160a01b0381168114620000ea57600080fd5b939692955090935050565b60805160a0516128c8620002256000396000818161023f0152818161033801528181610461015281816107790152818161088e015281816109ed01528181610fe3015281816111930152818161120c015281816116a1015261202801526000818161026c01528181610381015281816104db015281816105a201528181610648015281816106da015281816107a801528181610ac601528181610cc301528181610e2c01528181610f3601528181611015015281816110a701528181611230015281816112db015281816114ec01528181611949015281816119fb01528181611b4c01528181611bec01528181611d0401528181611d9701528181611e3b01528181611ecd01528181611f260152818161204c015281816120a50152818161219e015261223001526128c86000f3fe6080604052600436106101355760003560e01c8063a758757d116100ab578063c72331fe1161006f578063c72331fe146103a3578063d295ef5c146103b8578063d5c4034e146103cd578063f3d86e4a146103ed578063f409abcb14610403578063f6faa7471461041857600080fd5b8063a758757d146102fc578063a77945b414610311578063ae200e7914610326578063b07c74751461035a578063c45a01551461036f57600080fd5b80634d547ada116100fd5780634d547ada146101df5780635a9b0b8914610217578063702d97491461029d578063897399ae146102bf5780639b732350146102df5780639b789b7e146102e757600080fd5b8063021a0b7d1461013a57806313faede614610163578063200d2ed21461017957806329dcb0cf146101a75780634d104adf146101bd575b600080fd5b34801561014657600080fd5b5061015060055481565b6040519081526020015b60405180910390f35b34801561016f57600080fd5b5061015060015481565b34801561018557600080fd5b5060035461019a90600160a01b900460ff1681565b60405161015a9190612638565b3480156101b357600080fd5b5061015060045481565b3480156101c957600080fd5b5061015060008051602061284983398151915281565b3480156101eb57600080fd5b506003546101ff906001600160a01b031681565b6040516001600160a01b03909116815260200161015a565b34801561022357600080fd5b5060005460015460025460035460045460405161015a959493927f0000000000000000000000000000000000000000000000000000000000000000926001600160a01b038216927f000000000000000000000000000000000000000000000000000000000000000092600160a01b900460ff16919061264c565b3480156102a957600080fd5b506102bd6102b83660046126a1565b61042e565b005b3480156102cb57600080fd5b506102bd6102da3660046126d2565b610883565b6102bd6109e2565b3480156102f357600080fd5b506102bd610bed565b34801561030857600080fd5b506102bd610c9a565b34801561031d57600080fd5b506102bd610e03565b34801561033257600080fd5b506101ff7f000000000000000000000000000000000000000000000000000000000000000081565b34801561036657600080fd5b506102bd611138565b34801561037b57600080fd5b506101ff7f000000000000000000000000000000000000000000000000000000000000000081565b3480156103af57600080fd5b506102bd6112b2565b3480156103c457600080fd5b506102bd611413565b3480156103d957600080fd5b506102bd6103e83660046126a1565b6114c3565b3480156103f957600080fd5b5061015060025481565b34801561040f57600080fd5b506102bd611696565b34801561042457600080fd5b5061015060005481565b6001600354600160a01b900460ff16600681111561044e5761044e612600565b1480156104835750336001600160a01b037f000000000000000000000000000000000000000000000000000000000000000016145b6040518060600160405280602a8152602001612869602a9139906104c35760405162461bcd60e51b81526004016104ba919061271b565b60405180910390fd5b5060015481111561076a576000670de0b6b3a76400007f00000000000000000000000000000000000000000000000000000000000000006001600160a01b031663bce515aa6040518163ffffffff1660e01b815260040160206040518083038186803b15801561053257600080fd5b505afa158015610546573d6000803e3d6000fd5b505050506040513d601f19601f8201168201806040525081019061056a919061274e565b600154610577908561277d565b6105819190612794565b61058b91906127b3565b90506106423330600154856105a0919061277d565b7f00000000000000000000000000000000000000000000000000000000000000006001600160a01b03166315c40eb06040518163ffffffff1660e01b815260040160206040518083038186803b1580156105f957600080fd5b505afa15801561060d573d6000803e3d6000fd5b505050506040513d601f19601f8201168201806040525081019061063191906127d5565b6001600160a01b0316929190611769565b610731337f00000000000000000000000000000000000000000000000000000000000000006001600160a01b031663b3f006746040518163ffffffff1660e01b815260040160206040518083038186803b15801561069f57600080fd5b505afa1580156106b3573d6000803e3d6000fd5b505050506040513d601f19601f820116820180604052508101906106d791906127d5565b837f00000000000000000000000000000000000000000000000000000000000000006001600160a01b03166315c40eb06040518163ffffffff1660e01b815260040160206040518083038186803b1580156105f957600080fd5b6040518281527fa8142743f8f70a4c26f3691cf4ed59718381fb2f18070ec52be1f1022d8555579060200160405180910390a150610847565b600154811015610847576108477f0000000000000000000000000000000000000000000000000000000000000000826001546107a6919061277d565b7f00000000000000000000000000000000000000000000000000000000000000006001600160a01b03166315c40eb06040518163ffffffff1660e01b815260040160206040518083038186803b1580156107ff57600080fd5b505afa158015610813573d6000803e3d6000fd5b505050506040513d601f19601f8201168201806040525081019061083791906127d5565b6001600160a01b031691906117da565b60018190556040518181527fd1b5972bc4cfe8651dd4945f53542580e375118b79554778bda228502f49fd85906020015b60405180910390a150565b336001600160a01b037f0000000000000000000000000000000000000000000000000000000000000000161480156108ff57506001600354600160a01b900460ff1660068111156108d6576108d6612600565b14806108ff57506002600354600160a01b900460ff1660068111156108fd576108fd612600565b145b6040518060600160405280602a8152602001612869602a9139906109365760405162461bcd60e51b81526004016104ba919061271b565b506001600160a01b03811661098d5760405162461bcd60e51b815260206004820152601a60248201527f576f726b51756573743a20496e76616c6964206164647265737300000000000060448201526064016104ba565b600380546001600160a01b0383166001600160a81b03199091168117600160a11b179091556040519081527f3c8974307e4abad0239998f9dc76add6b783cd52bf1337e9871763ce00f0e94b90602001610878565b336001600160a01b037f000000000000000000000000000000000000000000000000000000000000000016148015610a3757506004600354600160a01b900460ff166006811115610a3557610a35612600565b145b80610a8c57506003546001600160a01b031633148015610a7457506004600354600160a01b900460ff166006811115610a7257610a72612600565b145b8015610a8c5750600554610a8990603c6127f2565b42115b6040518060600160405280602a8152602001612869602a913990610ac35760405162461bcd60e51b81526004016104ba919061271b565b507f00000000000000000000000000000000000000000000000000000000000000006001600160a01b031663643250656040518163ffffffff1660e01b815260040160206040518083038186803b158015610b1d57600080fd5b505afa158015610b31573d6000803e3d6000fd5b505050506040513d601f19601f82011682018060405250810190610b55919061274e565b341015610ba45760405162461bcd60e51b815260206004820152601b60248201527f576f726b51756573743a20696e73756666696369656e7420666565000000000060448201526064016104ba565b6003805460ff60a01b1916600560a01b1790556040514281527fe3d179e82725f4017e2cd7c543e789daec416599188407652080df0569557520906020015b60405180910390a1565b6003546001600160a01b031633148015610c2457506002600354600160a01b900460ff166006811115610c2257610c22612600565b145b6040518060600160405280602a8152602001612869602a913990610c5b5760405162461bcd60e51b81526004016104ba919061271b565b506003805460ff60a01b1916600360a01b1790556040517f09c75d41aa3ec09c07382b19acbb564b6194701c275a1e84c265b13c096bddc690600090a1565b604051632474521560e21b815260008051602061284983398151915260048201523360248201527f00000000000000000000000000000000000000000000000000000000000000006001600160a01b0316906391d148549060440160206040518083038186803b158015610d0d57600080fd5b505afa158015610d21573d6000803e3d6000fd5b505050506040513d601f19601f82011682018060405250810190610d45919061280a565b8015610d6e57506005600354600160a01b900460ff166006811115610d6c57610d6c612600565b145b6040518060600160405280602a8152602001612869602a913990610da55760405162461bcd60e51b81526004016104ba919061271b565b50610db3426203f4806127f2565b6004556003805460ff60a01b1916600360a01b179055610dd3334761180f565b6040514281527fd9219842a38f53237686873a8ec136ede21c62a7a31b050c0df4281cd45ee84190602001610be3565b604051632474521560e21b815260008051602061284983398151915260048201523360248201527f00000000000000000000000000000000000000000000000000000000000000006001600160a01b0316906391d148549060440160206040518083038186803b158015610e7657600080fd5b505afa158015610e8a573d6000803e3d6000fd5b505050506040513d601f19601f82011682018060405250810190610eae919061280a565b8015610ed757506005600354600160a01b900460ff166006811115610ed557610ed5612600565b145b6040518060600160405280602a8152602001612869602a913990610f0e5760405162461bcd60e51b81526004016104ba919061271b565b50600380546006919060ff60a01b1916600160a01b8302179055506000670de0b6b3a76400007f00000000000000000000000000000000000000000000000000000000000000006001600160a01b031663bce515aa6040518163ffffffff1660e01b815260040160206040518083038186803b158015610f8d57600080fd5b505afa158015610fa1573d6000803e3d6000fd5b505050506040513d601f19601f82011682018060405250810190610fc5919061274e565b600154610fd29190612794565b610fdc91906127b3565b90506110107f0000000000000000000000000000000000000000000000000000000000000000826001546107a6919061277d565b6110fe7f00000000000000000000000000000000000000000000000000000000000000006001600160a01b031663b3f006746040518163ffffffff1660e01b815260040160206040518083038186803b15801561106c57600080fd5b505afa158015611080573d6000803e3d6000fd5b505050506040513d601f19601f820116820180604052508101906110a491906127d5565b827f00000000000000000000000000000000000000000000000000000000000000006001600160a01b03166315c40eb06040518163ffffffff1660e01b815260040160206040518083038186803b1580156107ff57600080fd5b611108334761180f565b6040514281527f3ccf377ae75c37622a19550c362c6fbdf396057a8464eef75c4ea94d1e4a839290602001610878565b6001600354600160a01b900460ff16600681111561115857611158612600565b148061118157506002600354600160a01b900460ff16600681111561117f5761117f612600565b145b80156111b55750336001600160a01b037f000000000000000000000000000000000000000000000000000000000000000016145b6040518060600160405280602a8152602001612869602a9139906111ec5760405162461bcd60e51b81526004016104ba919061271b565b50600380546006919060ff60a01b1916600160a01b8302179055506112877f00000000000000000000000000000000000000000000000000000000000000006001547f00000000000000000000000000000000000000000000000000000000000000006001600160a01b03166315c40eb06040518163ffffffff1660e01b815260040160206040518083038186803b1580156107ff57600080fd5b6040517f1a7b868a3587950cf797c54b284b8c24e1ed007035e305719a6cbdd34b0ea1a890600090a1565b604051632474521560e21b815260008051602061284983398151915260048201523360248201527f00000000000000000000000000000000000000000000000000000000000000006001600160a01b0316906391d148549060440160206040518083038186803b15801561132557600080fd5b505afa158015611339573d6000803e3d6000fd5b505050506040513d601f19601f8201168201806040525081019061135d919061280a565b801561138657506005600354600160a01b900460ff16600681111561138457611384612600565b145b6040518060600160405280602a8152602001612869602a9139906113bd5760405162461bcd60e51b81526004016104ba919061271b565b506003805460ff60a01b1916600360a11b1790556113d9611928565b6113e3334761180f565b6040514281527f844465112ba48ffdb453bcb0a6965dc77f141971a8f6b48a4e07b3cf71c8de9290602001610be3565b6003546001600160a01b031633148015611449575060038054600160a01b900460ff16600681111561144757611447612600565b145b6040518060600160405280602a8152602001612869602a9139906114805760405162461bcd60e51b81526004016104ba919061271b565b506003805460ff60a01b1916600160a21b179055426005556040517f3c350d18e479f5682191b9cdb4cdfa755c912f69d2d5ab94d910df38dec36a7290600090a1565b604051632474521560e21b815260008051602061284983398151915260048201523360248201527f00000000000000000000000000000000000000000000000000000000000000006001600160a01b0316906391d148549060440160206040518083038186803b15801561153657600080fd5b505afa15801561154a573d6000803e3d6000fd5b505050506040513d601f19601f8201168201806040525081019061156e919061280a565b801561159757506005600354600160a01b900460ff16600681111561159557611595612600565b145b6040518060600160405280602a8152602001612869602a9139906115ce5760405162461bcd60e51b81526004016104ba919061271b565b5060015481111561163c5760405162461bcd60e51b815260206004820152603260248201527f576f726b51756573743a20666f7266656974206d757374206265206c65617374604482015271081bdc88195c5d585b081a9bd88818dbdcdd60721b60648201526084016104ba565b6003805460ff60a01b1916600360a11b179055600281905561165c611928565b611666334761180f565b6040514281527f9781a3519a136c237f0b50133d638c600fcece4425220b90ba4a4d153dccfb4c90602001610878565b336001600160a01b037f0000000000000000000000000000000000000000000000000000000000000000161480156116eb57506004600354600160a01b900460ff1660068111156116e9576116e9612600565b145b6040518060600160405280602a8152602001612869602a9139906117225760405162461bcd60e51b81526004016104ba919061271b565b506003805460ff60a01b1916600360a11b17905561173e611928565b6040517ffe17fb508799412c4bf2b124b8292bcc9ca4ff8ab8ec830110fbcb1ae5cb312590600090a1565b6040516001600160a01b03808516602483015283166044820152606481018290526117d49085906323b872dd60e01b906084015b60408051601f198184030181529190526020810180516001600160e01b03166001600160e01b031990931692909217909152612287565b50505050565b6040516001600160a01b03831660248201526044810182905261180a90849063a9059cbb60e01b9060640161179d565b505050565b8047101561185f5760405162461bcd60e51b815260206004820152601d60248201527f416464726573733a20696e73756666696369656e742062616c616e636500000060448201526064016104ba565b6000826001600160a01b03168260405160006040518083038185875af1925050503d80600081146118ac576040519150601f19603f3d011682016040523d82523d6000602084013e6118b1565b606091505b505090508061180a5760405162461bcd60e51b815260206004820152603a60248201527f416464726573733a20756e61626c6520746f2073656e642076616c75652c207260448201527f6563697069656e74206d6179206861766520726576657274656400000000000060648201526084016104ba565b600060025460015461193a919061277d565b90506000670de0b6b3a76400007f00000000000000000000000000000000000000000000000000000000000000006001600160a01b031663bce515aa6040518163ffffffff1660e01b815260040160206040518083038186803b1580156119a057600080fd5b505afa1580156119b4573d6000803e3d6000fd5b505050506040513d601f19601f820116820180604052508101906119d8919061274e565b6119e29084612794565b6119ec91906127b3565b90506000670de0b6b3a76400007f00000000000000000000000000000000000000000000000000000000000000006001600160a01b0316632cba90c76040518163ffffffff1660e01b815260040160206040518083038186803b158015611a5257600080fd5b505afa158015611a66573d6000803e3d6000fd5b505050506040513d601f19601f82011682018060405250810190611a8a91906127d5565b600354604051631711922960e31b81526001600160a01b03918216600482015291169063b88c91489060240160206040518083038186803b158015611ace57600080fd5b505afa158015611ae2573d6000803e3d6000fd5b505050506040513d601f19601f82011682018060405250810190611b06919061274e565b611b109085612794565b611b1a91906127b3565b600354909150611b42906001600160a01b031682611b38858761277d565b6107a6919061277d565b801561201b5760007f00000000000000000000000000000000000000000000000000000000000000006001600160a01b03166315c40eb06040518163ffffffff1660e01b815260040160206040518083038186803b158015611ba357600080fd5b505afa158015611bb7573d6000803e3d6000fd5b505050506040513d601f19601f82011682018060405250810190611bdb91906127d5565b6001600160a01b031663dd62ed3e307f00000000000000000000000000000000000000000000000000000000000000006001600160a01b0316632cba90c76040518163ffffffff1660e01b815260040160206040518083038186803b158015611c4357600080fd5b505afa158015611c57573d6000803e3d6000fd5b505050506040513d601f19601f82011682018060405250810190611c7b91906127d5565b6040516001600160e01b031960e085901b1681526001600160a01b0392831660048201529116602482015260440160206040518083038186803b158015611cc157600080fd5b505afa158015611cd5573d6000803e3d6000fd5b505050506040513d601f19601f82011682018060405250810190611cf9919061274e565b1115611e3657611e367f00000000000000000000000000000000000000000000000000000000000000006001600160a01b0316632cba90c76040518163ffffffff1660e01b815260040160206040518083038186803b158015611d5b57600080fd5b505afa158015611d6f573d6000803e3d6000fd5b505050506040513d601f19601f82011682018060405250810190611d9391906127d5565b60007f00000000000000000000000000000000000000000000000000000000000000006001600160a01b03166315c40eb06040518163ffffffff1660e01b815260040160206040518083038186803b158015611dee57600080fd5b505afa158015611e02573d6000803e3d6000fd5b505050506040513d601f19601f82011682018060405250810190611e2691906127d5565b6001600160a01b03169190612359565b611f247f00000000000000000000000000000000000000000000000000000000000000006001600160a01b0316632cba90c76040518163ffffffff1660e01b815260040160206040518083038186803b158015611e9257600080fd5b505afa158015611ea6573d6000803e3d6000fd5b505050506040513d601f19601f82011682018060405250810190611eca91906127d5565b827f00000000000000000000000000000000000000000000000000000000000000006001600160a01b03166315c40eb06040518163ffffffff1660e01b815260040160206040518083038186803b158015611dee57600080fd5b7f00000000000000000000000000000000000000000000000000000000000000006001600160a01b0316632cba90c76040518163ffffffff1660e01b815260040160206040518083038186803b158015611f7d57600080fd5b505afa158015611f91573d6000803e3d6000fd5b505050506040513d601f19601f82011682018060405250810190611fb591906127d5565b600354604051638418cd9960e01b81526001600160a01b03918216600482015260248101849052911690638418cd9990604401600060405180830381600087803b15801561200257600080fd5b505af1158015612016573d6000803e3d6000fd5b505050505b600254156120a3576120a37f00000000000000000000000000000000000000000000000000000000000000006002547f00000000000000000000000000000000000000000000000000000000000000006001600160a01b03166315c40eb06040518163ffffffff1660e01b815260040160206040518083038186803b1580156107ff57600080fd5b7f00000000000000000000000000000000000000000000000000000000000000006001600160a01b0316631441a5a96040518163ffffffff1660e01b815260040160206040518083038186803b1580156120fc57600080fd5b505afa158015612110573d6000803e3d6000fd5b505050506040513d601f19601f8201168201806040525081019061213491906127d5565b60035460405163c5e7ea2360e01b81526001600160a01b0391821660048201526024810186905291169063c5e7ea2390604401600060405180830381600087803b15801561218157600080fd5b505af1158015612195573d6000803e3d6000fd5b5050505061180a7f00000000000000000000000000000000000000000000000000000000000000006001600160a01b031663b3f006746040518163ffffffff1660e01b815260040160206040518083038186803b1580156121f557600080fd5b505afa158015612209573d6000803e3d6000fd5b505050506040513d601f19601f8201168201806040525081019061222d91906127d5565b837f00000000000000000000000000000000000000000000000000000000000000006001600160a01b03166315c40eb06040518163ffffffff1660e01b815260040160206040518083038186803b1580156107ff57600080fd5b60006122dc826040518060400160405280602081526020017f5361666545524332303a206c6f772d6c6576656c2063616c6c206661696c6564815250856001600160a01b031661247d9092919063ffffffff16565b80519091501561180a57808060200190518101906122fa919061280a565b61180a5760405162461bcd60e51b815260206004820152602a60248201527f5361666545524332303a204552433230206f7065726174696f6e20646964206e6044820152691bdd081cdd58d8d9595960b21b60648201526084016104ba565b8015806123e25750604051636eb1769f60e11b81523060048201526001600160a01b03838116602483015284169063dd62ed3e9060440160206040518083038186803b1580156123a857600080fd5b505afa1580156123bc573d6000803e3d6000fd5b505050506040513d601f19601f820116820180604052508101906123e0919061274e565b155b61244d5760405162461bcd60e51b815260206004820152603660248201527f5361666545524332303a20617070726f76652066726f6d206e6f6e2d7a65726f60448201527520746f206e6f6e2d7a65726f20616c6c6f77616e636560501b60648201526084016104ba565b6040516001600160a01b03831660248201526044810182905261180a90849063095ea7b360e01b9060640161179d565b606061248c8484600085612496565b90505b9392505050565b6060824710156124f75760405162461bcd60e51b815260206004820152602660248201527f416464726573733a20696e73756666696369656e742062616c616e636520666f6044820152651c8818d85b1b60d21b60648201526084016104ba565b6001600160a01b0385163b61254e5760405162461bcd60e51b815260206004820152601d60248201527f416464726573733a2063616c6c20746f206e6f6e2d636f6e747261637400000060448201526064016104ba565b600080866001600160a01b0316858760405161256a919061282c565b60006040518083038185875af1925050503d80600081146125a7576040519150601f19603f3d011682016040523d82523d6000602084013e6125ac565b606091505b50915091506125bc8282866125c7565b979650505050505050565b606083156125d657508161248f565b8251156125e65782518084602001fd5b8160405162461bcd60e51b81526004016104ba919061271b565b634e487b7160e01b600052602160045260246000fd5b6007811061263457634e487b7160e01b600052602160045260246000fd5b9052565b602081016126468284612616565b92915050565b88815260208101889052604081018790526001600160a01b0386811660608301528581166080830152841660a0820152610100810161268e60c0830185612616565b8260e08301529998505050505050505050565b6000602082840312156126b357600080fd5b5035919050565b6001600160a01b03811681146126cf57600080fd5b50565b6000602082840312156126e457600080fd5b813561248f816126ba565b60005b8381101561270a5781810151838201526020016126f2565b838111156117d45750506000910152565b602081526000825180602084015261273a8160408501602087016126ef565b601f01601f19169190910160400192915050565b60006020828403121561276057600080fd5b5051919050565b634e487b7160e01b600052601160045260246000fd5b60008282101561278f5761278f612767565b500390565b60008160001904831182151516156127ae576127ae612767565b500290565b6000826127d057634e487b7160e01b600052601260045260246000fd5b500490565b6000602082840312156127e757600080fd5b815161248f816126ba565b6000821982111561280557612805612767565b500190565b60006020828403121561281c57600080fd5b8151801515811461248f57600080fd5b6000825161283e8184602087016126ef565b919091019291505056febb08418a67729a078f87bbc8d02a770929bb68f5bfdf134ae2ead6ed38e2f4ae576f726b51756573743a204163636573732064656e696564206f7220696e76616c696420737461747573a2646970667358221220e9b6a70d75b724f5975ff432cf120c4faefff12e695f0dfb39dff332f3b8daed64736f6c63430008090033189ab7a9244df0848122154315af71fe140f3db0fe014031783b0946b8c9d2e3360894a13ba1a3210667c828492db98dca3e2076cc3735a920a3ca505d382bbc416464726573733a206c6f772d6c6576656c2064656c65676174652063616c6c206661696c6564a49807205ce4d355092ef5a8a18f56e8913cf4a201fbe287825b095693c21775a264697066735822122014221d0c16a34c6e273610d9d9c5731961c1c2f3ceaea9fb5e8ac44ed70afcc164736f6c63430008090033",
  "linkReferences": {},
  "deployedLinkReferences": {}
}