{
  "_format": "hh-sol-artifact-1",
  "contractName": "WorkQuestFactory",
  "sourceName": "contracts/WorkQuestFactory.sol",
  "abi": [
    {
      "inputs": [],
      "stateMutability": "nonpayable",
      "type": "constructor"
    },
    {
      "anonymous": false,
      "inputs": [
        {
          "indexed": false,
          "internalType": "address",
          "name": "previousAdmin",
          "type": "address"
        },
        {
          "indexed": false,
          "internalType": "address",
          "name": "newAdmin",
          "type": "address"
        }
      ],
      "name": "AdminChanged",
      "type": "event"
    },
    {
      "anonymous": false,
      "inputs": [
        {
          "indexed": true,
          "internalType": "address",
          "name": "beacon",
          "type": "address"
        }
      ],
      "name": "BeaconUpgraded",
      "type": "event"
    },
    {
      "anonymous": false,
      "inputs": [
        {
          "indexed": false,
          "internalType": "uint8",
          "name": "version",
          "type": "uint8"
        }
      ],
      "name": "Initialized",
      "type": "event"
    },
    {
      "anonymous": false,
      "inputs": [
        {
          "indexed": true,
          "internalType": "bytes32",
          "name": "role",
          "type": "bytes32"
        },
        {
          "indexed": true,
          "internalType": "bytes32",
          "name": "previousAdminRole",
          "type": "bytes32"
        },
        {
          "indexed": true,
          "internalType": "bytes32",
          "name": "newAdminRole",
          "type": "bytes32"
        }
      ],
      "name": "RoleAdminChanged",
      "type": "event"
    },
    {
      "anonymous": false,
      "inputs": [
        {
          "indexed": true,
          "internalType": "bytes32",
          "name": "role",
          "type": "bytes32"
        },
        {
          "indexed": true,
          "internalType": "address",
          "name": "account",
          "type": "address"
        },
        {
          "indexed": true,
          "internalType": "address",
          "name": "sender",
          "type": "address"
        }
      ],
      "name": "RoleGranted",
      "type": "event"
    },
    {
      "anonymous": false,
      "inputs": [
        {
          "indexed": true,
          "internalType": "bytes32",
          "name": "role",
          "type": "bytes32"
        },
        {
          "indexed": true,
          "internalType": "address",
          "name": "account",
          "type": "address"
        },
        {
          "indexed": true,
          "internalType": "address",
          "name": "sender",
          "type": "address"
        }
      ],
      "name": "RoleRevoked",
      "type": "event"
    },
    {
      "anonymous": false,
      "inputs": [
        {
          "indexed": true,
          "internalType": "address",
          "name": "implementation",
          "type": "address"
        }
      ],
      "name": "Upgraded",
      "type": "event"
    },
    {
      "anonymous": false,
      "inputs": [
        {
          "indexed": false,
          "internalType": "bytes32",
          "name": "jobHash",
          "type": "bytes32"
        },
        {
          "indexed": false,
          "internalType": "address",
          "name": "employer",
          "type": "address"
        },
        {
          "indexed": false,
          "internalType": "address",
          "name": "workquest",
          "type": "address"
        },
        {
          "indexed": false,
          "internalType": "uint256",
          "name": "createdAt",
          "type": "uint256"
        },
        {
          "indexed": false,
          "internalType": "uint256",
          "name": "nonce",
          "type": "uint256"
        }
      ],
      "name": "WorkQuestCreated",
      "type": "event"
    },
    {
      "inputs": [],
      "name": "ADMIN_ROLE",
      "outputs": [
        {
          "internalType": "bytes32",
          "name": "",
          "type": "bytes32"
        }
      ],
      "stateMutability": "view",
      "type": "function"
    },
    {
      "inputs": [],
      "name": "ARBITER_ROLE",
      "outputs": [
        {
          "internalType": "bytes32",
          "name": "",
          "type": "bytes32"
        }
      ],
      "stateMutability": "view",
      "type": "function"
    },
    {
      "inputs": [],
      "name": "DEFAULT_ADMIN_ROLE",
      "outputs": [
        {
          "internalType": "bytes32",
          "name": "",
          "type": "bytes32"
        }
      ],
      "stateMutability": "view",
      "type": "function"
    },
    {
      "inputs": [],
      "name": "UPGRADER_ROLE",
      "outputs": [
        {
          "internalType": "bytes32",
          "name": "",
          "type": "bytes32"
        }
      ],
      "stateMutability": "view",
      "type": "function"
    },
    {
      "inputs": [],
      "name": "feeEmployer",
      "outputs": [
        {
          "internalType": "uint256",
          "name": "",
          "type": "uint256"
        }
      ],
      "stateMutability": "view",
      "type": "function"
    },
    {
      "inputs": [],
      "name": "feeReceiver",
      "outputs": [
        {
          "internalType": "address payable",
          "name": "",
          "type": "address"
        }
      ],
      "stateMutability": "view",
      "type": "function"
    },
    {
      "inputs": [],
      "name": "feeTx",
      "outputs": [
        {
          "internalType": "uint256",
          "name": "",
          "type": "uint256"
        }
      ],
      "stateMutability": "view",
      "type": "function"
    },
    {
      "inputs": [],
      "name": "feeWorker",
      "outputs": [
        {
          "internalType": "uint256",
          "name": "",
          "type": "uint256"
        }
      ],
      "stateMutability": "view",
      "type": "function"
    },
    {
      "inputs": [
        {
          "internalType": "bytes32",
          "name": "role",
          "type": "bytes32"
        }
      ],
      "name": "getRoleAdmin",
      "outputs": [
        {
          "internalType": "bytes32",
          "name": "",
          "type": "bytes32"
        }
      ],
      "stateMutability": "view",
      "type": "function"
    },
    {
      "inputs": [
        {
          "internalType": "address",
          "name": "employer",
          "type": "address"
        },
        {
          "internalType": "uint256",
          "name": "offset",
          "type": "uint256"
        },
        {
          "internalType": "uint256",
          "name": "limit",
          "type": "uint256"
        }
      ],
      "name": "getWorkQuests",
      "outputs": [
        {
          "internalType": "address[]",
          "name": "page",
          "type": "address[]"
        }
      ],
      "stateMutability": "view",
      "type": "function"
    },
    {
      "inputs": [
        {
          "internalType": "bytes32",
          "name": "role",
          "type": "bytes32"
        },
        {
          "internalType": "address",
          "name": "account",
          "type": "address"
        }
      ],
      "name": "grantRole",
      "outputs": [],
      "stateMutability": "nonpayable",
      "type": "function"
    },
    {
      "inputs": [
        {
          "internalType": "bytes32",
          "name": "role",
          "type": "bytes32"
        },
        {
          "internalType": "address",
          "name": "account",
          "type": "address"
        }
      ],
      "name": "hasRole",
      "outputs": [
        {
          "internalType": "bool",
          "name": "",
          "type": "bool"
        }
      ],
      "stateMutability": "view",
      "type": "function"
    },
    {
      "inputs": [
        {
          "internalType": "uint256",
          "name": "_feeEmployer",
          "type": "uint256"
        },
        {
          "internalType": "uint256",
          "name": "_feeWorker",
          "type": "uint256"
        },
        {
          "internalType": "uint256",
          "name": "_feeTx",
          "type": "uint256"
        },
        {
          "internalType": "address payable",
          "name": "_feeReceiver",
          "type": "address"
        },
        {
          "internalType": "address payable",
          "name": "_pensionFund",
          "type": "address"
        },
        {
          "internalType": "address payable",
          "name": "_referral",
          "type": "address"
        },
        {
          "internalType": "address",
          "name": "_wusd",
          "type": "address"
        }
      ],
      "name": "initialize",
      "outputs": [],
      "stateMutability": "nonpayable",
      "type": "function"
    },
    {
      "inputs": [
        {
          "internalType": "bytes32",
          "name": "jobHash",
          "type": "bytes32"
        },
        {
          "internalType": "uint256",
          "name": "cost",
          "type": "uint256"
        },
        {
          "internalType": "uint256",
          "name": "deadline",
          "type": "uint256"
        },
        {
          "internalType": "uint256",
          "name": "nonce",
          "type": "uint256"
        }
      ],
      "name": "newWorkQuest",
      "outputs": [],
      "stateMutability": "nonpayable",
      "type": "function"
    },
    {
      "inputs": [],
      "name": "pensionFund",
      "outputs": [
        {
          "internalType": "address payable",
          "name": "",
          "type": "address"
        }
      ],
      "stateMutability": "view",
      "type": "function"
    },
    {
      "inputs": [],
      "name": "proxiableUUID",
      "outputs": [
        {
          "internalType": "bytes32",
          "name": "",
          "type": "bytes32"
        }
      ],
      "stateMutability": "view",
      "type": "function"
    },
    {
      "inputs": [],
      "name": "referral",
      "outputs": [
        {
          "internalType": "address payable",
          "name": "",
          "type": "address"
        }
      ],
      "stateMutability": "view",
      "type": "function"
    },
    {
      "inputs": [
        {
          "internalType": "bytes32",
          "name": "role",
          "type": "bytes32"
        },
        {
          "internalType": "address",
          "name": "account",
          "type": "address"
        }
      ],
      "name": "renounceRole",
      "outputs": [],
      "stateMutability": "nonpayable",
      "type": "function"
    },
    {
      "inputs": [
        {
          "internalType": "bytes32",
          "name": "role",
          "type": "bytes32"
        },
        {
          "internalType": "address",
          "name": "account",
          "type": "address"
        }
      ],
      "name": "revokeRole",
      "outputs": [],
      "stateMutability": "nonpayable",
      "type": "function"
    },
    {
      "inputs": [
        {
          "internalType": "uint256",
          "name": "_fee",
          "type": "uint256"
        }
      ],
      "name": "setFeeEmployer",
      "outputs": [],
      "stateMutability": "nonpayable",
      "type": "function"
    },
    {
      "inputs": [
        {
          "internalType": "address payable",
          "name": "_feeReceiver",
          "type": "address"
        }
      ],
      "name": "setFeeReceiver",
      "outputs": [],
      "stateMutability": "nonpayable",
      "type": "function"
    },
    {
      "inputs": [
        {
          "internalType": "uint256",
          "name": "_fee",
          "type": "uint256"
        }
      ],
      "name": "setFeeTx",
      "outputs": [],
      "stateMutability": "nonpayable",
      "type": "function"
    },
    {
      "inputs": [
        {
          "internalType": "uint256",
          "name": "_fee",
          "type": "uint256"
        }
      ],
      "name": "setFeeWorker",
      "outputs": [],
      "stateMutability": "nonpayable",
      "type": "function"
    },
    {
      "inputs": [
        {
          "internalType": "address payable",
          "name": "_pensionFund",
          "type": "address"
        }
      ],
      "name": "setPensionFund",
      "outputs": [],
      "stateMutability": "nonpayable",
      "type": "function"
    },
    {
      "inputs": [
        {
          "internalType": "address payable",
          "name": "_referral",
          "type": "address"
        }
      ],
      "name": "setRefferal",
      "outputs": [],
      "stateMutability": "nonpayable",
      "type": "function"
    },
    {
      "inputs": [
        {
          "internalType": "address",
          "name": "_wusd",
          "type": "address"
        }
      ],
      "name": "setWusd",
      "outputs": [],
      "stateMutability": "nonpayable",
      "type": "function"
    },
    {
      "inputs": [
        {
          "internalType": "bytes4",
          "name": "interfaceId",
          "type": "bytes4"
        }
      ],
      "name": "supportsInterface",
      "outputs": [
        {
          "internalType": "bool",
          "name": "",
          "type": "bool"
        }
      ],
      "stateMutability": "view",
      "type": "function"
    },
    {
      "inputs": [
        {
          "internalType": "address",
          "name": "newImplementation",
          "type": "address"
        }
      ],
      "name": "upgradeTo",
      "outputs": [],
      "stateMutability": "nonpayable",
      "type": "function"
    },
    {
      "inputs": [
        {
          "internalType": "address",
          "name": "newImplementation",
          "type": "address"
        },
        {
          "internalType": "bytes",
          "name": "data",
          "type": "bytes"
        }
      ],
      "name": "upgradeToAndCall",
      "outputs": [],
      "stateMutability": "payable",
      "type": "function"
    },
    {
      "inputs": [
        {
          "internalType": "address",
          "name": "",
          "type": "address"
        }
      ],
      "name": "workquestValid",
      "outputs": [
        {
          "internalType": "bool",
          "name": "",
          "type": "bool"
        }
      ],
      "stateMutability": "view",
      "type": "function"
    },
    {
      "inputs": [
        {
          "internalType": "address",
          "name": "",
          "type": "address"
        },
        {
          "internalType": "uint256",
          "name": "",
          "type": "uint256"
        }
      ],
      "name": "workquests",
      "outputs": [
        {
          "internalType": "address",
          "name": "",
          "type": "address"
        }
      ],
      "stateMutability": "view",
      "type": "function"
    },
    {
      "inputs": [],
      "name": "wusd",
      "outputs": [
        {
          "internalType": "contract IERC20Upgradeable",
          "name": "",
          "type": "address"
        }
      ],
      "stateMutability": "view",
      "type": "function"
    }
  ],
  "bytecode": "0x60a0604052306080523480156200001557600080fd5b50600054610100900460ff1615808015620000375750600054600160ff909116105b8062000067575062000054306200014160201b620010e51760201c565b15801562000067575060005460ff166001145b620000cf5760405162461bcd60e51b815260206004820152602e60248201527f496e697469616c697a61626c653a20636f6e747261637420697320616c72656160448201526d191e481a5b9a5d1a585b1a5e995960921b606482015260840160405180910390fd5b6000805460ff191660011790558015620000f3576000805461ff0019166101001790555b80156200013a576000805461ff0019169055604051600181527f7f26b83ff96e1f2b6a682f133852f6798a09c465da95921460cefb38474024989060200160405180910390a15b5062000150565b6001600160a01b03163b151590565b608051614b916200018860003960008181610b1e01528181610b6101528181610c8701528181610cca0152610d620152614b916000f3fe6080604052600436106200020b5760003560e01c806353af3de31162000117578063b3f0067411620000a1578063d1cbfe65116200006c578063d1cbfe651462000640578063d547741f1462000665578063efdcd974146200068a578063f72c0d8b14620006af57600080fd5b8063b3f0067414620005bc578063bce515aa14620005de578063c846dccb14620005f6578063ce417cf2146200061b57600080fd5b80638eab005b11620000e25780638eab005b146200054357806391d148541462000568578063a1e59769146200058d578063a217fddf14620005a557600080fd5b806353af3de314620004bc5780636432506514620004e157806375b238fc14620004f95780638d46f309146200051e57600080fd5b80632f2ff15d116200019957806345c12b2d116200016457806345c12b2d14620004325780634d104adf14620004575780634f1ef286146200048d57806352d1902d14620004a457600080fd5b80632f2ff15d146200039e57806336568abe14620003c35780633659cfe614620003e85780633f8f9985146200040d57600080fd5b80632372403c11620001da5780632372403c14620002d0578063248a9ca314620003055780632931b14c14620003485780632cba90c7146200037c57600080fd5b806301ffc9a714620002105780630fc65407146200024a5780631441a5a9146200027157806315c40eb014620002ad575b600080fd5b3480156200021d57600080fd5b50620002356200022f36600462001b6a565b620006d4565b60405190151581526020015b60405180910390f35b3480156200025757600080fd5b506200026f6200026936600462001bac565b6200070c565b005b3480156200027e57600080fd5b506101005462000294906001600160a01b031681565b6040516001600160a01b03909116815260200162000241565b348015620002ba57600080fd5b506101015462000294906001600160a01b031681565b348015620002dd57600080fd5b5062000235620002ef36600462001c30565b6101036020526000908152604090205460ff1681565b3480156200031257600080fd5b50620003396200032436600462001c50565b60009081526065602052604090206001015490565b60405190815260200162000241565b3480156200035557600080fd5b506200036d6200036736600462001c6a565b6200093e565b60405162000241919062001ca2565b3480156200038957600080fd5b5060ff5462000294906001600160a01b031681565b348015620003ab57600080fd5b506200026f620003bd36600462001cf1565b62000a63565b348015620003d057600080fd5b506200026f620003e236600462001cf1565b62000a91565b348015620003f557600080fd5b506200026f6200040736600462001c30565b62000b13565b3480156200041a57600080fd5b506200026f6200042c36600462001c30565b62000bff565b3480156200043f57600080fd5b506200026f6200045136600462001c30565b62000c3e565b3480156200046457600080fd5b50620003397fbb08418a67729a078f87bbc8d02a770929bb68f5bfdf134ae2ead6ed38e2f4ae81565b6200026f6200049e36600462001d3a565b62000c7c565b348015620004b157600080fd5b506200033962000d55565b348015620004c957600080fd5b506200026f620004db36600462001c50565b62000e0b565b348015620004ee57600080fd5b506200033960fd5481565b3480156200050657600080fd5b506200033960008051602062004b3c83398151915281565b3480156200052b57600080fd5b506200026f6200053d36600462001c50565b62000e2c565b3480156200055057600080fd5b506200026f6200056236600462001c50565b62000e4d565b3480156200057557600080fd5b50620002356200058736600462001cf1565b62000e6e565b3480156200059a57600080fd5b506200033960fb5481565b348015620005b257600080fd5b5062000339600081565b348015620005c957600080fd5b5060fe5462000294906001600160a01b031681565b348015620005eb57600080fd5b506200033960fc5481565b3480156200060357600080fd5b506200026f6200061536600462001e0a565b62000e99565b3480156200062857600080fd5b50620002946200063a36600462001e3d565b62001005565b3480156200064d57600080fd5b506200026f6200065f36600462001c30565b6200103f565b3480156200067257600080fd5b506200026f6200068436600462001cf1565b6200107e565b3480156200069757600080fd5b506200026f620006a936600462001c30565b620010a7565b348015620006bc57600080fd5b506200033960008051602062004ad583398151915281565b60006001600160e01b03198216637965db0b60e01b14806200070657506301ffc9a760e01b6001600160e01b03198316145b92915050565b600054610100900460ff16158080156200072d5750600054600160ff909116105b80620007495750303b15801562000749575060005460ff166001145b620007b25760405162461bcd60e51b815260206004820152602e60248201527f496e697469616c697a61626c653a20636f6e747261637420697320616c72656160448201526d191e481a5b9a5d1a585b1a5e995960921b60648201526084015b60405180910390fd5b6000805460ff191660011790558015620007d6576000805461ff0019166101001790555b620007e0620010f4565b620007ea620010f4565b620007f760003362001163565b6200081260008051602062004b3c8339815191523362001163565b6200082d60008051602062004ad58339815191523362001163565b6200085760008051602062004ad583398151915260008051602062004b3c8339815191526200116f565b620008927fbb08418a67729a078f87bbc8d02a770929bb68f5bfdf134ae2ead6ed38e2f4ae60008051602062004b3c8339815191526200116f565b60fb88905560fc87905560fd86905560fe80546001600160a01b038088166001600160a01b03199283161790925560ff80548784169083161790556101008054868416908316179055610101805492851692909116919091179055801562000934576000805461ff0019169055604051600181527f7f26b83ff96e1f2b6a682f133852f6798a09c465da95921460cefb38474024989060200160405180910390a15b5050505050505050565b6001600160a01b0383166000908152610102602052604090208054606091906200096a90859062001e82565b831115620009845780546200098190859062001e82565b92505b8267ffffffffffffffff811115620009a057620009a062001d24565b604051908082528060200260200182016040528015620009ca578160200160208202803683370190505b50915060005b8381101562000a595781620009e6828762001e9c565b81548110620009f957620009f962001eb7565b9060005260206000200160009054906101000a90046001600160a01b031683828151811062000a2c5762000a2c62001eb7565b6001600160a01b03909216602092830291909101909101528062000a508162001ecd565b915050620009d0565b50505b9392505050565b60008281526065602052604090206001015462000a8081620011ba565b62000a8c8383620011c6565b505050565b6001600160a01b038116331462000b035760405162461bcd60e51b815260206004820152602f60248201527f416363657373436f6e74726f6c3a2063616e206f6e6c792072656e6f756e636560448201526e103937b632b9903337b91039b2b63360891b6064820152608401620007a9565b62000b0f828262001250565b5050565b306001600160a01b037f000000000000000000000000000000000000000000000000000000000000000016141562000b5f5760405162461bcd60e51b8152600401620007a99062001eeb565b7f00000000000000000000000000000000000000000000000000000000000000006001600160a01b031662000baa60008051602062004af5833981519152546001600160a01b031690565b6001600160a01b03161462000bd35760405162461bcd60e51b8152600401620007a99062001f37565b62000bde81620012ba565b6040805160008082526020820190925262000bfc91839190620012d5565b50565b60008051602062004b3c83398151915262000c1a81620011ba565b5061010180546001600160a01b0319166001600160a01b0392909216919091179055565b60008051602062004b3c83398151915262000c5981620011ba565b5060ff80546001600160a01b0319166001600160a01b0392909216919091179055565b306001600160a01b037f000000000000000000000000000000000000000000000000000000000000000016141562000cc85760405162461bcd60e51b8152600401620007a99062001eeb565b7f00000000000000000000000000000000000000000000000000000000000000006001600160a01b031662000d1360008051602062004af5833981519152546001600160a01b031690565b6001600160a01b03161462000d3c5760405162461bcd60e51b8152600401620007a99062001f37565b62000d4782620012ba565b62000b0f82826001620012d5565b6000306001600160a01b037f0000000000000000000000000000000000000000000000000000000000000000161462000df75760405162461bcd60e51b815260206004820152603860248201527f555550535570677261646561626c653a206d757374206e6f742062652063616c60448201527f6c6564207468726f7567682064656c656761746563616c6c00000000000000006064820152608401620007a9565b5060008051602062004af583398151915290565b60008051602062004b3c83398151915262000e2681620011ba565b5060fd55565b60008051602062004b3c83398151915262000e4781620011ba565b5060fb55565b60008051602062004b3c83398151915262000e6881620011ba565b5060fc55565b60009182526065602090815260408084206001600160a01b0393909316845291905290205460ff1690565b60008484843360405162000ead9062001b5c565b938452602084019290925260408301526001600160a01b03166060820152608001604051809103906000f08015801562000eeb573d6000803e3d6000fd5b50336000908152610102602090815260408083208054600180820183559185528385200180546001600160a01b0319166001600160a01b03871690811790915584526101039092528220805460ff1916909117905560fb5491925090670de0b6b3a76400009062000f5d908762001f83565b62000f69919062001fa5565b6101015490915062000f87906001600160a01b03163384886200145d565b60fe546101015462000fa9916001600160a01b0391821691339116846200145d565b604080518781523360208201526001600160a01b038416818301524260608201526080810185905290517fc9fd97c1118b97a71931dc93489f048cb2e4fb431adac7bce7756f6165eea68a9181900360a00190a1505050505050565b61010260205281600052604060002081815481106200102357600080fd5b6000918252602090912001546001600160a01b03169150829050565b60008051602062004b3c8339815191526200105a81620011ba565b5061010080546001600160a01b0319166001600160a01b0392909216919091179055565b6000828152606560205260409020600101546200109b81620011ba565b62000a8c838362001250565b60008051602062004b3c833981519152620010c281620011ba565b5060fe80546001600160a01b0319166001600160a01b0392909216919091179055565b6001600160a01b03163b151590565b600054610100900460ff16620011615760405162461bcd60e51b815260206004820152602b60248201527f496e697469616c697a61626c653a20636f6e7472616374206973206e6f74206960448201526a6e697469616c697a696e6760a81b6064820152608401620007a9565b565b62000b0f8282620011c6565b600082815260656020526040808220600101805490849055905190918391839186917fbd79b86ffe0ab8e8776151514217cd7cacd52c909f66475c3af44e129f0b00ff9190a4505050565b62000bfc8133620014bf565b620011d2828262000e6e565b62000b0f5760008281526065602090815260408083206001600160a01b03851684529091529020805460ff191660011790556200120c3390565b6001600160a01b0316816001600160a01b0316837f2f8788117e7eff1d82e926ec794901d17c78024a50270940304540a733656f0d60405160405180910390a45050565b6200125c828262000e6e565b1562000b0f5760008281526065602090815260408083206001600160a01b0385168085529252808320805460ff1916905551339285917ff6391f5c32d9c69d2a47ea670b442974b53935d1edc7fd64eb21e047a839171b9190a45050565b60008051602062004ad583398151915262000b0f81620011ba565b7f4910fdfa16fed3260ed0e7147f7cc6da11a60208b5b9406d12a635614ffd91435460ff16156200130b5762000a8c836200152e565b826001600160a01b03166352d1902d6040518163ffffffff1660e01b815260040160206040518083038186803b1580156200134557600080fd5b505afa92505050801562001378575060408051601f3d908101601f19168201909252620013759181019062001fc8565b60015b620013dd5760405162461bcd60e51b815260206004820152602e60248201527f45524331393637557067726164653a206e657720696d706c656d656e7461746960448201526d6f6e206973206e6f74205555505360901b6064820152608401620007a9565b60008051602062004af583398151915281146200144f5760405162461bcd60e51b815260206004820152602960248201527f45524331393637557067726164653a20756e737570706f727465642070726f786044820152681a58589b195555525160ba1b6064820152608401620007a9565b5062000a8c838383620015cd565b604080516001600160a01b0385811660248301528416604482015260648082018490528251808303909101815260849091019091526020810180516001600160e01b03166323b872dd60e01b179052620014b9908590620015f8565b50505050565b620014cb828262000e6e565b62000b0f57620014e6816001600160a01b03166014620016d1565b620014f3836020620016d1565b6040516020016200150692919062002011565b60408051601f198184030181529082905262461bcd60e51b8252620007a9916004016200208a565b6001600160a01b0381163b6200159d5760405162461bcd60e51b815260206004820152602d60248201527f455243313936373a206e657720696d706c656d656e746174696f6e206973206e60448201526c1bdd08184818dbdb9d1c9858dd609a1b6064820152608401620007a9565b60008051602062004af583398151915280546001600160a01b0319166001600160a01b0392909216919091179055565b620015d8836200188b565b600082511180620015e65750805b1562000a8c57620014b98383620018cd565b60006200164f826040518060400160405280602081526020017f5361666545524332303a206c6f772d6c6576656c2063616c6c206661696c6564815250856001600160a01b0316620019ca9092919063ffffffff16565b80519091501562000a8c5780806020019051810190620016709190620020bf565b62000a8c5760405162461bcd60e51b815260206004820152602a60248201527f5361666545524332303a204552433230206f7065726174696f6e20646964206e6044820152691bdd081cdd58d8d9595960b21b6064820152608401620007a9565b60606000620016e283600262001f83565b620016ef90600262001e9c565b67ffffffffffffffff8111156200170a576200170a62001d24565b6040519080825280601f01601f19166020018201604052801562001735576020820181803683370190505b509050600360fc1b8160008151811062001753576200175362001eb7565b60200101906001600160f81b031916908160001a905350600f60fb1b8160018151811062001785576200178562001eb7565b60200101906001600160f81b031916908160001a9053506000620017ab84600262001f83565b620017b890600162001e9c565b90505b60018111156200183a576f181899199a1a9b1b9c1cb0b131b232b360811b85600f1660108110620017f057620017f062001eb7565b1a60f81b82828151811062001809576200180962001eb7565b60200101906001600160f81b031916908160001a90535060049490941c936200183281620020e3565b9050620017bb565b50831562000a5c5760405162461bcd60e51b815260206004820181905260248201527f537472696e67733a20686578206c656e67746820696e73756666696369656e746044820152606401620007a9565b62001896816200152e565b6040516001600160a01b038216907fbc7cd75a20ee27fd9adebab32041f755214dbc6bffa90cc0225b39da2e5c2d3b90600090a250565b60606001600160a01b0383163b620019375760405162461bcd60e51b815260206004820152602660248201527f416464726573733a2064656c65676174652063616c6c20746f206e6f6e2d636f6044820152651b9d1c9858dd60d21b6064820152608401620007a9565b600080846001600160a01b031684604051620019549190620020fd565b600060405180830381855af49150503d806000811462001991576040519150601f19603f3d011682016040523d82523d6000602084013e62001996565b606091505b5091509150620019c1828260405180606001604052806027815260200162004b1560279139620019e3565b95945050505050565b6060620019db848460008562001a21565b949350505050565b60608315620019f457508162000a5c565b82511562001a055782518084602001fd5b8160405162461bcd60e51b8152600401620007a991906200208a565b60608247101562001a845760405162461bcd60e51b815260206004820152602660248201527f416464726573733a20696e73756666696369656e742062616c616e636520666f6044820152651c8818d85b1b60d21b6064820152608401620007a9565b6001600160a01b0385163b62001add5760405162461bcd60e51b815260206004820152601d60248201527f416464726573733a2063616c6c20746f206e6f6e2d636f6e74726163740000006044820152606401620007a9565b600080866001600160a01b0316858760405162001afb9190620020fd565b60006040518083038185875af1925050503d806000811462001b3a576040519150601f19603f3d011682016040523d82523d6000602084013e62001b3f565b606091505b509150915062001b51828286620019e3565b979650505050505050565b6129b9806200211c83390190565b60006020828403121562001b7d57600080fd5b81356001600160e01b03198116811462000a5c57600080fd5b6001600160a01b038116811462000bfc57600080fd5b600080600080600080600060e0888a03121562001bc857600080fd5b873596506020880135955060408801359450606088013562001bea8162001b96565b9350608088013562001bfc8162001b96565b925060a088013562001c0e8162001b96565b915060c088013562001c208162001b96565b8091505092959891949750929550565b60006020828403121562001c4357600080fd5b813562000a5c8162001b96565b60006020828403121562001c6357600080fd5b5035919050565b60008060006060848603121562001c8057600080fd5b833562001c8d8162001b96565b95602085013595506040909401359392505050565b6020808252825182820181905260009190848201906040850190845b8181101562001ce55783516001600160a01b03168352928401929184019160010162001cbe565b50909695505050505050565b6000806040838503121562001d0557600080fd5b82359150602083013562001d198162001b96565b809150509250929050565b634e487b7160e01b600052604160045260246000fd5b6000806040838503121562001d4e57600080fd5b823562001d5b8162001b96565b9150602083013567ffffffffffffffff8082111562001d7957600080fd5b818501915085601f83011262001d8e57600080fd5b81358181111562001da35762001da362001d24565b604051601f8201601f19908116603f0116810190838211818310171562001dce5762001dce62001d24565b8160405282815288602084870101111562001de857600080fd5b8260208601602083013760006020848301015280955050505050509250929050565b6000806000806080858703121562001e2157600080fd5b5050823594602084013594506040840135936060013592509050565b6000806040838503121562001e5157600080fd5b823562001e5e8162001b96565b946020939093013593505050565b634e487b7160e01b600052601160045260246000fd5b60008282101562001e975762001e9762001e6c565b500390565b6000821982111562001eb25762001eb262001e6c565b500190565b634e487b7160e01b600052603260045260246000fd5b600060001982141562001ee45762001ee462001e6c565b5060010190565b6020808252602c908201527f46756e6374696f6e206d7573742062652063616c6c6564207468726f7567682060408201526b19195b1959d85d1958d85b1b60a21b606082015260800190565b6020808252602c908201527f46756e6374696f6e206d7573742062652063616c6c6564207468726f7567682060408201526b6163746976652070726f787960a01b606082015260800190565b600081600019048311821515161562001fa05762001fa062001e6c565b500290565b60008262001fc357634e487b7160e01b600052601260045260246000fd5b500490565b60006020828403121562001fdb57600080fd5b5051919050565b60005b8381101562001fff57818101518382015260200162001fe5565b83811115620014b95750506000910152565b7f416363657373436f6e74726f6c3a206163636f756e74200000000000000000008152600083516200204b81601785016020880162001fe2565b7001034b99036b4b9b9b4b733903937b6329607d1b60179184019182015283516200207e81602884016020880162001fe2565b01602801949350505050565b6020815260008251806020840152620020ab81604085016020870162001fe2565b601f01601f19169190910160400192915050565b600060208284031215620020d257600080fd5b8151801515811462000a5c57600080fd5b600081620020f557620020f562001e6c565b506000190190565b600082516200211181846020870162001fe2565b919091019291505056fe60c06040523480156200001157600080fd5b50604051620029b9380380620029b98339810160408190526200003491620000a4565b6000849055600183905560038290556001600160a01b03811660a052336080526002805460ff60a01b1916600160a01b1790556040518481527f1f3edb4d58a0796934b2fca1e84cec8a42269dc76c56c22b4489a77205ed6bcf9060200160405180910390a150505050620000f5565b60008060008060808587031215620000bb57600080fd5b845160208601516040870151606088015192965090945092506001600160a01b0381168114620000ea57600080fd5b939692955090935050565b60805160a05161279462000225600039600081816102250152818161031e01528181610411015281816107290152818161083e0152818161099c015281816109f70152818161100b015281816111ba01528181611233015281816114f60152612001015260008181610252015281816103670152818161048b01528181610552015281816105f80152818161068a0152818161075801528181610aef01528181610ceb01528181610e5401528181610f5e0152818161103d015281816110cf015281816112570152818161130201528181611791015281816118430152818161199401528181611a3401528181611b4c01528181611bdf01528181611c8301528181611d1501528181611d6e01528181611e6501528181611f5b01528181612073015261210501526127946000f3fe60806040526004361061011f5760003560e01c80639b789b7e116100a0578063c45a015511610064578063c45a015514610355578063c72331fe14610389578063d295ef5c1461039e578063f409abcb146103b3578063f6faa747146103c857600080fd5b80639b789b7e146102cd578063a758757d146102e2578063a77945b4146102f7578063ae200e791461030c578063b07c74751461034057600080fd5b80634d547ada116100e75780634d547ada146101c95780635a9b0b8914610201578063702d974914610283578063897399ae146102a55780639b732350146102c557600080fd5b8063021a0b7d1461012457806313faede61461014d578063200d2ed21461016357806329dcb0cf146101915780634d104adf146101a7575b600080fd5b34801561013057600080fd5b5061013a60045481565b6040519081526020015b60405180910390f35b34801561015957600080fd5b5061013a60015481565b34801561016f57600080fd5b5060025461018490600160a01b900460ff1681565b604051610144919061250d565b34801561019d57600080fd5b5061013a60035481565b3480156101b357600080fd5b5061013a60008051602061271583398151915281565b3480156101d557600080fd5b506002546101e9906001600160a01b031681565b6040516001600160a01b039091168152602001610144565b34801561020d57600080fd5b506000546001546002546003546040516101449493927f0000000000000000000000000000000000000000000000000000000000000000926001600160a01b038216927f000000000000000000000000000000000000000000000000000000000000000092600160a01b900460ff169190612521565b34801561028f57600080fd5b506102a361029e36600461256d565b6103de565b005b3480156102b157600080fd5b506102a36102c036600461259e565b610833565b6102a3610991565b3480156102d957600080fd5b506102a3610c16565b3480156102ee57600080fd5b506102a3610cc2565b34801561030357600080fd5b506102a3610e2b565b34801561031857600080fd5b506101e97f000000000000000000000000000000000000000000000000000000000000000081565b34801561034c57600080fd5b506102a3611160565b34801561036157600080fd5b506101e97f000000000000000000000000000000000000000000000000000000000000000081565b34801561039557600080fd5b506102a36112d9565b3480156103aa57600080fd5b506102a361143a565b3480156103bf57600080fd5b506102a36114eb565b3480156103d457600080fd5b5061013a60005481565b6001600254600160a01b900460ff1660068111156103fe576103fe6124d5565b1480156104335750336001600160a01b037f000000000000000000000000000000000000000000000000000000000000000016145b6040518060600160405280602a8152602001612735602a9139906104735760405162461bcd60e51b815260040161046a91906125e7565b60405180910390fd5b5060015481111561071a576000670de0b6b3a76400007f00000000000000000000000000000000000000000000000000000000000000006001600160a01b031663bce515aa6040518163ffffffff1660e01b815260040160206040518083038186803b1580156104e257600080fd5b505afa1580156104f6573d6000803e3d6000fd5b505050506040513d601f19601f8201168201806040525081019061051a919061261a565b6001546105279085612649565b6105319190612660565b61053b919061267f565b90506105f23330600154856105509190612649565b7f00000000000000000000000000000000000000000000000000000000000000006001600160a01b03166315c40eb06040518163ffffffff1660e01b815260040160206040518083038186803b1580156105a957600080fd5b505afa1580156105bd573d6000803e3d6000fd5b505050506040513d601f19601f820116820180604052508101906105e191906126a1565b6001600160a01b03169291906115be565b6106e1337f00000000000000000000000000000000000000000000000000000000000000006001600160a01b031663b3f006746040518163ffffffff1660e01b815260040160206040518083038186803b15801561064f57600080fd5b505afa158015610663573d6000803e3d6000fd5b505050506040513d601f19601f8201168201806040525081019061068791906126a1565b837f00000000000000000000000000000000000000000000000000000000000000006001600160a01b03166315c40eb06040518163ffffffff1660e01b815260040160206040518083038186803b1580156105a957600080fd5b6040518281527fa8142743f8f70a4c26f3691cf4ed59718381fb2f18070ec52be1f1022d8555579060200160405180910390a1506107f7565b6001548110156107f7576107f77f0000000000000000000000000000000000000000000000000000000000000000826001546107569190612649565b7f00000000000000000000000000000000000000000000000000000000000000006001600160a01b03166315c40eb06040518163ffffffff1660e01b815260040160206040518083038186803b1580156107af57600080fd5b505afa1580156107c3573d6000803e3d6000fd5b505050506040513d601f19601f820116820180604052508101906107e791906126a1565b6001600160a01b0316919061162f565b60018190556040518181527fd1b5972bc4cfe8651dd4945f53542580e375118b79554778bda228502f49fd85906020015b60405180910390a150565b336001600160a01b037f0000000000000000000000000000000000000000000000000000000000000000161480156108ae57506001600254600160a01b900460ff166006811115610886576108866124d5565b14806108ae575060028054600160a01b900460ff1660068111156108ac576108ac6124d5565b145b6040518060600160405280602a8152602001612735602a9139906108e55760405162461bcd60e51b815260040161046a91906125e7565b506001600160a01b03811661093c5760405162461bcd60e51b815260206004820152601a60248201527f576f726b51756573743a20496e76616c69642061646472657373000000000000604482015260640161046a565b600280546001600160a01b0383166001600160a81b03199091168117600160a11b179091556040519081527f3c8974307e4abad0239998f9dc76add6b783cd52bf1337e9871763ce00f0e94b90602001610828565b336001600160a01b037f0000000000000000000000000000000000000000000000000000000000000000161480156109e657506004600254600160a01b900460ff1660068111156109e4576109e46124d5565b145b80610a605750336001600160a01b037f000000000000000000000000000000000000000000000000000000000000000016148015610a4157506003600254600160a01b900460ff166006811115610a3f57610a3f6124d5565b145b8015610a4f57506000600354115b610a5a576000610a60565b60035442115b80610ab557506002546001600160a01b031633148015610a9d57506004600254600160a01b900460ff166006811115610a9b57610a9b6124d5565b145b8015610ab55750600454610ab29060b46126be565b42115b6040518060600160405280602a8152602001612735602a913990610aec5760405162461bcd60e51b815260040161046a91906125e7565b507f00000000000000000000000000000000000000000000000000000000000000006001600160a01b031663643250656040518163ffffffff1660e01b815260040160206040518083038186803b158015610b4657600080fd5b505afa158015610b5a573d6000803e3d6000fd5b505050506040513d601f19601f82011682018060405250810190610b7e919061261a565b341015610bcd5760405162461bcd60e51b815260206004820152601b60248201527f576f726b51756573743a20696e73756666696369656e74206665650000000000604482015260640161046a565b6002805460ff60a01b1916600560a01b1790556040514281527fe3d179e82725f4017e2cd7c543e789daec416599188407652080df0569557520906020015b60405180910390a1565b6002546001600160a01b031633148015610c4c575060028054600160a01b900460ff166006811115610c4a57610c4a6124d5565b145b6040518060600160405280602a8152602001612735602a913990610c835760405162461bcd60e51b815260040161046a91906125e7565b506002805460ff60a01b1916600360a01b1790556040517f09c75d41aa3ec09c07382b19acbb564b6194701c275a1e84c265b13c096bddc690600090a1565b604051632474521560e21b815260008051602061271583398151915260048201523360248201527f00000000000000000000000000000000000000000000000000000000000000006001600160a01b0316906391d148549060440160206040518083038186803b158015610d3557600080fd5b505afa158015610d49573d6000803e3d6000fd5b505050506040513d601f19601f82011682018060405250810190610d6d91906126d6565b8015610d9657506005600254600160a01b900460ff166006811115610d9457610d946124d5565b145b6040518060600160405280602a8152602001612735602a913990610dcd5760405162461bcd60e51b815260040161046a91906125e7565b50610ddb426203f4806126be565b6003556002805460ff60a01b1916600360a01b179055610dfb3347611664565b6040514281527fd9219842a38f53237686873a8ec136ede21c62a7a31b050c0df4281cd45ee84190602001610c0c565b604051632474521560e21b815260008051602061271583398151915260048201523360248201527f00000000000000000000000000000000000000000000000000000000000000006001600160a01b0316906391d148549060440160206040518083038186803b158015610e9e57600080fd5b505afa158015610eb2573d6000803e3d6000fd5b505050506040513d601f19601f82011682018060405250810190610ed691906126d6565b8015610eff57506005600254600160a01b900460ff166006811115610efd57610efd6124d5565b145b6040518060600160405280602a8152602001612735602a913990610f365760405162461bcd60e51b815260040161046a91906125e7565b50600280546006919060ff60a01b1916600160a01b8302179055506000670de0b6b3a76400007f00000000000000000000000000000000000000000000000000000000000000006001600160a01b031663bce515aa6040518163ffffffff1660e01b815260040160206040518083038186803b158015610fb557600080fd5b505afa158015610fc9573d6000803e3d6000fd5b505050506040513d601f19601f82011682018060405250810190610fed919061261a565b600154610ffa9190612660565b611004919061267f565b90506110387f0000000000000000000000000000000000000000000000000000000000000000826001546107569190612649565b6111267f00000000000000000000000000000000000000000000000000000000000000006001600160a01b031663b3f006746040518163ffffffff1660e01b815260040160206040518083038186803b15801561109457600080fd5b505afa1580156110a8573d6000803e3d6000fd5b505050506040513d601f19601f820116820180604052508101906110cc91906126a1565b827f00000000000000000000000000000000000000000000000000000000000000006001600160a01b03166315c40eb06040518163ffffffff1660e01b815260040160206040518083038186803b1580156107af57600080fd5b6111303347611664565b6040514281527f3ccf377ae75c37622a19550c362c6fbdf396057a8464eef75c4ea94d1e4a839290602001610828565b6001600254600160a01b900460ff166006811115611180576111806124d5565b14806111a8575060028054600160a01b900460ff1660068111156111a6576111a66124d5565b145b80156111dc5750336001600160a01b037f000000000000000000000000000000000000000000000000000000000000000016145b6040518060600160405280602a8152602001612735602a9139906112135760405162461bcd60e51b815260040161046a91906125e7565b50600280546006919060ff60a01b1916600160a01b8302179055506112ae7f00000000000000000000000000000000000000000000000000000000000000006001547f00000000000000000000000000000000000000000000000000000000000000006001600160a01b03166315c40eb06040518163ffffffff1660e01b815260040160206040518083038186803b1580156107af57600080fd5b6040517f1a7b868a3587950cf797c54b284b8c24e1ed007035e305719a6cbdd34b0ea1a890600090a1565b604051632474521560e21b815260008051602061271583398151915260048201523360248201527f00000000000000000000000000000000000000000000000000000000000000006001600160a01b0316906391d148549060440160206040518083038186803b15801561134c57600080fd5b505afa158015611360573d6000803e3d6000fd5b505050506040513d601f19601f8201168201806040525081019061138491906126d6565b80156113ad57506005600254600160a01b900460ff1660068111156113ab576113ab6124d5565b145b6040518060600160405280602a8152602001612735602a9139906113e45760405162461bcd60e51b815260040161046a91906125e7565b506002805460ff60a01b1916600360a11b17905561140061177d565b61140a3347611664565b6040514281527f844465112ba48ffdb453bcb0a6965dc77f141971a8f6b48a4e07b3cf71c8de9290602001610c0c565b6002546001600160a01b03163314801561147157506003600254600160a01b900460ff16600681111561146f5761146f6124d5565b145b6040518060600160405280602a8152602001612735602a9139906114a85760405162461bcd60e51b815260040161046a91906125e7565b506002805460ff60a01b1916600160a21b179055426004556040517f3c350d18e479f5682191b9cdb4cdfa755c912f69d2d5ab94d910df38dec36a7290600090a1565b336001600160a01b037f00000000000000000000000000000000000000000000000000000000000000001614801561154057506004600254600160a01b900460ff16600681111561153e5761153e6124d5565b145b6040518060600160405280602a8152602001612735602a9139906115775760405162461bcd60e51b815260040161046a91906125e7565b506002805460ff60a01b1916600360a11b17905561159361177d565b6040517ffe17fb508799412c4bf2b124b8292bcc9ca4ff8ab8ec830110fbcb1ae5cb312590600090a1565b6040516001600160a01b03808516602483015283166044820152606481018290526116299085906323b872dd60e01b906084015b60408051601f198184030181529190526020810180516001600160e01b03166001600160e01b03199093169290921790915261215c565b50505050565b6040516001600160a01b03831660248201526044810182905261165f90849063a9059cbb60e01b906064016115f2565b505050565b804710156116b45760405162461bcd60e51b815260206004820152601d60248201527f416464726573733a20696e73756666696369656e742062616c616e6365000000604482015260640161046a565b6000826001600160a01b03168260405160006040518083038185875af1925050503d8060008114611701576040519150601f19603f3d011682016040523d82523d6000602084013e611706565b606091505b505090508061165f5760405162461bcd60e51b815260206004820152603a60248201527f416464726573733a20756e61626c6520746f2073656e642076616c75652c207260448201527f6563697069656e74206d61792068617665207265766572746564000000000000606482015260840161046a565b600060015490506000670de0b6b3a76400007f00000000000000000000000000000000000000000000000000000000000000006001600160a01b031663bce515aa6040518163ffffffff1660e01b815260040160206040518083038186803b1580156117e857600080fd5b505afa1580156117fc573d6000803e3d6000fd5b505050506040513d601f19601f82011682018060405250810190611820919061261a565b61182a9084612660565b611834919061267f565b90506000670de0b6b3a76400007f00000000000000000000000000000000000000000000000000000000000000006001600160a01b0316632cba90c76040518163ffffffff1660e01b815260040160206040518083038186803b15801561189a57600080fd5b505afa1580156118ae573d6000803e3d6000fd5b505050506040513d601f19601f820116820180604052508101906118d291906126a1565b600254604051631711922960e31b81526001600160a01b03918216600482015291169063b88c91489060240160206040518083038186803b15801561191657600080fd5b505afa15801561192a573d6000803e3d6000fd5b505050506040513d601f19601f8201168201806040525081019061194e919061261a565b6119589085612660565b611962919061267f565b60025490915061198a906001600160a01b0316826119808587612649565b6107569190612649565b8015611e635760007f00000000000000000000000000000000000000000000000000000000000000006001600160a01b03166315c40eb06040518163ffffffff1660e01b815260040160206040518083038186803b1580156119eb57600080fd5b505afa1580156119ff573d6000803e3d6000fd5b505050506040513d601f19601f82011682018060405250810190611a2391906126a1565b6001600160a01b031663dd62ed3e307f00000000000000000000000000000000000000000000000000000000000000006001600160a01b0316632cba90c76040518163ffffffff1660e01b815260040160206040518083038186803b158015611a8b57600080fd5b505afa158015611a9f573d6000803e3d6000fd5b505050506040513d601f19601f82011682018060405250810190611ac391906126a1565b6040516001600160e01b031960e085901b1681526001600160a01b0392831660048201529116602482015260440160206040518083038186803b158015611b0957600080fd5b505afa158015611b1d573d6000803e3d6000fd5b505050506040513d601f19601f82011682018060405250810190611b41919061261a565b1115611c7e57611c7e7f00000000000000000000000000000000000000000000000000000000000000006001600160a01b0316632cba90c76040518163ffffffff1660e01b815260040160206040518083038186803b158015611ba357600080fd5b505afa158015611bb7573d6000803e3d6000fd5b505050506040513d601f19601f82011682018060405250810190611bdb91906126a1565b60007f00000000000000000000000000000000000000000000000000000000000000006001600160a01b03166315c40eb06040518163ffffffff1660e01b815260040160206040518083038186803b158015611c3657600080fd5b505afa158015611c4a573d6000803e3d6000fd5b505050506040513d601f19601f82011682018060405250810190611c6e91906126a1565b6001600160a01b0316919061222e565b611d6c7f00000000000000000000000000000000000000000000000000000000000000006001600160a01b0316632cba90c76040518163ffffffff1660e01b815260040160206040518083038186803b158015611cda57600080fd5b505afa158015611cee573d6000803e3d6000fd5b505050506040513d601f19601f82011682018060405250810190611d1291906126a1565b827f00000000000000000000000000000000000000000000000000000000000000006001600160a01b03166315c40eb06040518163ffffffff1660e01b815260040160206040518083038186803b158015611c3657600080fd5b7f00000000000000000000000000000000000000000000000000000000000000006001600160a01b0316632cba90c76040518163ffffffff1660e01b815260040160206040518083038186803b158015611dc557600080fd5b505afa158015611dd9573d6000803e3d6000fd5b505050506040513d601f19601f82011682018060405250810190611dfd91906126a1565b600254604051638418cd9960e01b81526001600160a01b03918216600482015260248101849052911690638418cd9990604401600060405180830381600087803b158015611e4a57600080fd5b505af1158015611e5e573d6000803e3d6000fd5b505050505b7f00000000000000000000000000000000000000000000000000000000000000006001600160a01b0316631441a5a96040518163ffffffff1660e01b815260040160206040518083038186803b158015611ebc57600080fd5b505afa158015611ed0573d6000803e3d6000fd5b505050506040513d601f19601f82011682018060405250810190611ef491906126a1565b60025460405163c5e7ea2360e01b81526001600160a01b0391821660048201526024810186905291169063c5e7ea2390604401600060405180830381600087803b158015611f4157600080fd5b505af1158015611f55573d6000803e3d6000fd5b505050507f00000000000000000000000000000000000000000000000000000000000000006001600160a01b0316631441a5a96040518163ffffffff1660e01b815260040160206040518083038186803b158015611fb257600080fd5b505afa158015611fc6573d6000803e3d6000fd5b505050506040513d601f19601f82011682018060405250810190611fea91906126a1565b60405163c5e7ea2360e01b81526001600160a01b037f00000000000000000000000000000000000000000000000000000000000000008116600483015260248201869052919091169063c5e7ea2390604401600060405180830381600087803b15801561205657600080fd5b505af115801561206a573d6000803e3d6000fd5b5050505061165f7f00000000000000000000000000000000000000000000000000000000000000006001600160a01b031663b3f006746040518163ffffffff1660e01b815260040160206040518083038186803b1580156120ca57600080fd5b505afa1580156120de573d6000803e3d6000fd5b505050506040513d601f19601f8201168201806040525081019061210291906126a1565b837f00000000000000000000000000000000000000000000000000000000000000006001600160a01b03166315c40eb06040518163ffffffff1660e01b815260040160206040518083038186803b1580156107af57600080fd5b60006121b1826040518060400160405280602081526020017f5361666545524332303a206c6f772d6c6576656c2063616c6c206661696c6564815250856001600160a01b03166123529092919063ffffffff16565b80519091501561165f57808060200190518101906121cf91906126d6565b61165f5760405162461bcd60e51b815260206004820152602a60248201527f5361666545524332303a204552433230206f7065726174696f6e20646964206e6044820152691bdd081cdd58d8d9595960b21b606482015260840161046a565b8015806122b75750604051636eb1769f60e11b81523060048201526001600160a01b03838116602483015284169063dd62ed3e9060440160206040518083038186803b15801561227d57600080fd5b505afa158015612291573d6000803e3d6000fd5b505050506040513d601f19601f820116820180604052508101906122b5919061261a565b155b6123225760405162461bcd60e51b815260206004820152603660248201527f5361666545524332303a20617070726f76652066726f6d206e6f6e2d7a65726f60448201527520746f206e6f6e2d7a65726f20616c6c6f77616e636560501b606482015260840161046a565b6040516001600160a01b03831660248201526044810182905261165f90849063095ea7b360e01b906064016115f2565b6060612361848460008561236b565b90505b9392505050565b6060824710156123cc5760405162461bcd60e51b815260206004820152602660248201527f416464726573733a20696e73756666696369656e742062616c616e636520666f6044820152651c8818d85b1b60d21b606482015260840161046a565b6001600160a01b0385163b6124235760405162461bcd60e51b815260206004820152601d60248201527f416464726573733a2063616c6c20746f206e6f6e2d636f6e7472616374000000604482015260640161046a565b600080866001600160a01b0316858760405161243f91906126f8565b60006040518083038185875af1925050503d806000811461247c576040519150601f19603f3d011682016040523d82523d6000602084013e612481565b606091505b509150915061249182828661249c565b979650505050505050565b606083156124ab575081612364565b8251156124bb5782518084602001fd5b8160405162461bcd60e51b815260040161046a91906125e7565b634e487b7160e01b600052602160045260246000fd5b6007811061250957634e487b7160e01b600052602160045260246000fd5b9052565b6020810161251b82846124eb565b92915050565b878152602081018790526001600160a01b03868116604083015285811660608301528416608082015260e0810161255b60a08301856124eb565b8260c083015298975050505050505050565b60006020828403121561257f57600080fd5b5035919050565b6001600160a01b038116811461259b57600080fd5b50565b6000602082840312156125b057600080fd5b813561236481612586565b60005b838110156125d65781810151838201526020016125be565b838111156116295750506000910152565b60208152600082518060208401526126068160408501602087016125bb565b601f01601f19169190910160400192915050565b60006020828403121561262c57600080fd5b5051919050565b634e487b7160e01b600052601160045260246000fd5b60008282101561265b5761265b612633565b500390565b600081600019048311821515161561267a5761267a612633565b500290565b60008261269c57634e487b7160e01b600052601260045260246000fd5b500490565b6000602082840312156126b357600080fd5b815161236481612586565b600082198211156126d1576126d1612633565b500190565b6000602082840312156126e857600080fd5b8151801515811461236457600080fd5b6000825161270a8184602087016125bb565b919091019291505056febb08418a67729a078f87bbc8d02a770929bb68f5bfdf134ae2ead6ed38e2f4ae576f726b51756573743a204163636573732064656e696564206f7220696e76616c696420737461747573a2646970667358221220e756c0c86935979911bdcc9835ce328cd5911b3761ff53603d7734b7784abfac64736f6c63430008090033189ab7a9244df0848122154315af71fe140f3db0fe014031783b0946b8c9d2e3360894a13ba1a3210667c828492db98dca3e2076cc3735a920a3ca505d382bbc416464726573733a206c6f772d6c6576656c2064656c65676174652063616c6c206661696c6564a49807205ce4d355092ef5a8a18f56e8913cf4a201fbe287825b095693c21775a26469706673582212207f7cda3f573a4d92eea63ea194e7e21fbed6ada83e0aa843fb93b59357cb2df364736f6c63430008090033",
  "linkReferences": {},
  "deployedLinkReferences": {}
}