{
  "_format": "hh-sol-artifact-1",
  "contractName": "WQCollateralAuction",
  "sourceName": "contracts/stablecoin/WQCollateralAuction.sol",
  "abi": [
    {
      "inputs": [],
      "stateMutability": "nonpayable",
      "type": "constructor"
    },
    {
      "anonymous": false,
      "inputs": [
        {
          "indexed": false,
          "internalType": "address",
          "name": "previousAdmin",
          "type": "address"
        },
        {
          "indexed": false,
          "internalType": "address",
          "name": "newAdmin",
          "type": "address"
        }
      ],
      "name": "AdminChanged",
      "type": "event"
    },
    {
      "anonymous": false,
      "inputs": [
        {
          "indexed": false,
          "internalType": "uint256",
          "name": "priceIndex",
          "type": "uint256"
        },
        {
          "indexed": false,
          "internalType": "uint256",
          "name": "index",
          "type": "uint256"
        },
        {
          "indexed": false,
          "internalType": "uint256",
          "name": "amount",
          "type": "uint256"
        },
        {
          "indexed": false,
          "internalType": "uint256",
          "name": "endCost",
          "type": "uint256"
        }
      ],
      "name": "AuctionStarted",
      "type": "event"
    },
    {
      "anonymous": false,
      "inputs": [
        {
          "indexed": true,
          "internalType": "address",
          "name": "beacon",
          "type": "address"
        }
      ],
      "name": "BeaconUpgraded",
      "type": "event"
    },
    {
      "anonymous": false,
      "inputs": [
        {
          "indexed": false,
          "internalType": "uint256",
          "name": "priceIndex",
          "type": "uint256"
        },
        {
          "indexed": false,
          "internalType": "uint256",
          "name": "index",
          "type": "uint256"
        },
        {
          "indexed": false,
          "internalType": "uint256",
          "name": "amount",
          "type": "uint256"
        },
        {
          "indexed": false,
          "internalType": "uint256",
          "name": "cost",
          "type": "uint256"
        }
      ],
      "name": "LotBuyed",
      "type": "event"
    },
    {
      "anonymous": false,
      "inputs": [
        {
          "indexed": false,
          "internalType": "uint256",
          "name": "priceIndex",
          "type": "uint256"
        },
        {
          "indexed": false,
          "internalType": "uint256",
          "name": "index",
          "type": "uint256"
        },
        {
          "indexed": false,
          "internalType": "uint256",
          "name": "amount",
          "type": "uint256"
        },
        {
          "indexed": false,
          "internalType": "uint256",
          "name": "cost",
          "type": "uint256"
        }
      ],
      "name": "LotCanceled",
      "type": "event"
    },
    {
      "anonymous": false,
      "inputs": [
        {
          "indexed": true,
          "internalType": "bytes32",
          "name": "role",
          "type": "bytes32"
        },
        {
          "indexed": true,
          "internalType": "bytes32",
          "name": "previousAdminRole",
          "type": "bytes32"
        },
        {
          "indexed": true,
          "internalType": "bytes32",
          "name": "newAdminRole",
          "type": "bytes32"
        }
      ],
      "name": "RoleAdminChanged",
      "type": "event"
    },
    {
      "anonymous": false,
      "inputs": [
        {
          "indexed": true,
          "internalType": "bytes32",
          "name": "role",
          "type": "bytes32"
        },
        {
          "indexed": true,
          "internalType": "address",
          "name": "account",
          "type": "address"
        },
        {
          "indexed": true,
          "internalType": "address",
          "name": "sender",
          "type": "address"
        }
      ],
      "name": "RoleGranted",
      "type": "event"
    },
    {
      "anonymous": false,
      "inputs": [
        {
          "indexed": true,
          "internalType": "bytes32",
          "name": "role",
          "type": "bytes32"
        },
        {
          "indexed": true,
          "internalType": "address",
          "name": "account",
          "type": "address"
        },
        {
          "indexed": true,
          "internalType": "address",
          "name": "sender",
          "type": "address"
        }
      ],
      "name": "RoleRevoked",
      "type": "event"
    },
    {
      "anonymous": false,
      "inputs": [
        {
          "indexed": true,
          "internalType": "address",
          "name": "implementation",
          "type": "address"
        }
      ],
      "name": "Upgraded",
      "type": "event"
    },
    {
      "inputs": [],
      "name": "ADMIN_ROLE",
      "outputs": [
        {
          "internalType": "bytes32",
          "name": "",
          "type": "bytes32"
        }
      ],
      "stateMutability": "view",
      "type": "function"
    },
    {
      "inputs": [],
      "name": "DEFAULT_ADMIN_ROLE",
      "outputs": [
        {
          "internalType": "bytes32",
          "name": "",
          "type": "bytes32"
        }
      ],
      "stateMutability": "view",
      "type": "function"
    },
    {
      "inputs": [],
      "name": "UPGRADER_ROLE",
      "outputs": [
        {
          "internalType": "bytes32",
          "name": "",
          "type": "bytes32"
        }
      ],
      "stateMutability": "view",
      "type": "function"
    },
    {
      "inputs": [
        {
          "internalType": "address",
          "name": "user",
          "type": "address"
        },
        {
          "internalType": "uint256",
          "name": "price",
          "type": "uint256"
        },
        {
          "internalType": "uint256",
          "name": "amount",
          "type": "uint256"
        },
        {
          "internalType": "uint256",
          "name": "ratio",
          "type": "uint256"
        }
      ],
      "name": "addLot",
      "outputs": [
        {
          "internalType": "uint256",
          "name": "",
          "type": "uint256"
        },
        {
          "internalType": "uint256",
          "name": "",
          "type": "uint256"
        }
      ],
      "stateMutability": "nonpayable",
      "type": "function"
    },
    {
      "inputs": [],
      "name": "auctionDuration",
      "outputs": [
        {
          "internalType": "uint256",
          "name": "",
          "type": "uint256"
        }
      ],
      "stateMutability": "view",
      "type": "function"
    },
    {
      "inputs": [
        {
          "internalType": "uint256",
          "name": "priceIndex",
          "type": "uint256"
        },
        {
          "internalType": "uint256",
          "name": "index",
          "type": "uint256"
        }
      ],
      "name": "buyLot",
      "outputs": [],
      "stateMutability": "nonpayable",
      "type": "function"
    },
    {
      "inputs": [
        {
          "internalType": "uint256",
          "name": "priceIndex",
          "type": "uint256"
        },
        {
          "internalType": "uint256",
          "name": "index",
          "type": "uint256"
        }
      ],
      "name": "cancelAuction",
      "outputs": [],
      "stateMutability": "nonpayable",
      "type": "function"
    },
    {
      "inputs": [
        {
          "internalType": "uint256",
          "name": "priceIndex",
          "type": "uint256"
        },
        {
          "internalType": "uint256",
          "name": "index",
          "type": "uint256"
        },
        {
          "internalType": "uint256",
          "name": "collaterralPart",
          "type": "uint256"
        }
      ],
      "name": "decreaseLotAmount",
      "outputs": [
        {
          "internalType": "uint256",
          "name": "",
          "type": "uint256"
        }
      ],
      "stateMutability": "nonpayable",
      "type": "function"
    },
    {
      "inputs": [
        {
          "internalType": "uint256",
          "name": "priceIndex",
          "type": "uint256"
        },
        {
          "internalType": "uint256",
          "name": "index",
          "type": "uint256"
        }
      ],
      "name": "getCurrentLotCost",
      "outputs": [
        {
          "internalType": "uint256",
          "name": "",
          "type": "uint256"
        }
      ],
      "stateMutability": "view",
      "type": "function"
    },
    {
      "inputs": [],
      "name": "getLiquidatedCollaterallAmount",
      "outputs": [
        {
          "internalType": "uint256",
          "name": "",
          "type": "uint256"
        }
      ],
      "stateMutability": "view",
      "type": "function"
    },
    {
      "inputs": [
        {
          "internalType": "uint256",
          "name": "priceIndex",
          "type": "uint256"
        },
        {
          "internalType": "uint256",
          "name": "index",
          "type": "uint256"
        }
      ],
      "name": "getLotInfo",
      "outputs": [
        {
          "internalType": "uint256",
          "name": "",
          "type": "uint256"
        },
        {
          "internalType": "uint256",
          "name": "",
          "type": "uint256"
        },
        {
          "internalType": "uint256",
          "name": "",
          "type": "uint256"
        },
        {
          "internalType": "uint256",
          "name": "",
          "type": "uint256"
        },
        {
          "internalType": "uint256",
          "name": "",
          "type": "uint256"
        }
      ],
      "stateMutability": "view",
      "type": "function"
    },
    {
      "inputs": [
        {
          "internalType": "uint256",
          "name": "priceIndex",
          "type": "uint256"
        },
        {
          "internalType": "uint256",
          "name": "index",
          "type": "uint256"
        }
      ],
      "name": "getLotStatus",
      "outputs": [
        {
          "internalType": "uint8",
          "name": "",
          "type": "uint8"
        }
      ],
      "stateMutability": "view",
      "type": "function"
    },
    {
      "inputs": [
        {
          "internalType": "uint256",
          "name": "priceIndex",
          "type": "uint256"
        },
        {
          "internalType": "uint256",
          "name": "index",
          "type": "uint256"
        }
      ],
      "name": "getLotUsers",
      "outputs": [
        {
          "internalType": "address",
          "name": "",
          "type": "address"
        },
        {
          "internalType": "address",
          "name": "",
          "type": "address"
        }
      ],
      "stateMutability": "view",
      "type": "function"
    },
    {
      "inputs": [
        {
          "internalType": "uint256",
          "name": "price",
          "type": "uint256"
        },
        {
          "internalType": "uint256",
          "name": "offset",
          "type": "uint256"
        },
        {
          "internalType": "uint256",
          "name": "limit",
          "type": "uint256"
        }
      ],
      "name": "getLots",
      "outputs": [
        {
          "components": [
            {
              "internalType": "address",
              "name": "user",
              "type": "address"
            },
            {
              "internalType": "uint256",
              "name": "price",
              "type": "uint256"
            },
            {
              "internalType": "uint256",
              "name": "amount",
              "type": "uint256"
            },
            {
              "internalType": "uint256",
              "name": "ratio",
              "type": "uint256"
            },
            {
              "internalType": "uint256",
              "name": "created",
              "type": "uint256"
            },
            {
              "internalType": "address",
              "name": "buyer",
              "type": "address"
            },
            {
              "internalType": "uint256",
              "name": "saleAmount",
              "type": "uint256"
            },
            {
              "internalType": "uint256",
              "name": "endCost",
              "type": "uint256"
            },
            {
              "internalType": "uint256",
              "name": "endTime",
              "type": "uint256"
            },
            {
              "internalType": "enum WQCollateralAuction.LotStatus",
              "name": "status",
              "type": "uint8"
            }
          ],
          "internalType": "struct WQCollateralAuction.LotInfo[]",
          "name": "page",
          "type": "tuple[]"
        }
      ],
      "stateMutability": "view",
      "type": "function"
    },
    {
      "inputs": [
        {
          "internalType": "uint256",
          "name": "price",
          "type": "uint256"
        }
      ],
      "name": "getPriceIndex",
      "outputs": [
        {
          "internalType": "uint256",
          "name": "",
          "type": "uint256"
        }
      ],
      "stateMutability": "view",
      "type": "function"
    },
    {
      "inputs": [
        {
          "internalType": "uint256",
          "name": "offset",
          "type": "uint256"
        },
        {
          "internalType": "uint256",
          "name": "limit",
          "type": "uint256"
        }
      ],
      "name": "getPriceIndexes",
      "outputs": [
        {
          "internalType": "uint256[]",
          "name": "page",
          "type": "uint256[]"
        }
      ],
      "stateMutability": "view",
      "type": "function"
    },
    {
      "inputs": [
        {
          "internalType": "bytes32",
          "name": "role",
          "type": "bytes32"
        }
      ],
      "name": "getRoleAdmin",
      "outputs": [
        {
          "internalType": "bytes32",
          "name": "",
          "type": "bytes32"
        }
      ],
      "stateMutability": "view",
      "type": "function"
    },
    {
      "inputs": [
        {
          "internalType": "bytes32",
          "name": "role",
          "type": "bytes32"
        },
        {
          "internalType": "address",
          "name": "account",
          "type": "address"
        }
      ],
      "name": "grantRole",
      "outputs": [],
      "stateMutability": "nonpayable",
      "type": "function"
    },
    {
      "inputs": [
        {
          "internalType": "bytes32",
          "name": "role",
          "type": "bytes32"
        },
        {
          "internalType": "address",
          "name": "account",
          "type": "address"
        }
      ],
      "name": "hasRole",
      "outputs": [
        {
          "internalType": "bool",
          "name": "",
          "type": "bool"
        }
      ],
      "stateMutability": "view",
      "type": "function"
    },
    {
      "inputs": [
        {
          "internalType": "address",
          "name": "_token",
          "type": "address"
        },
        {
          "internalType": "address",
          "name": "_oracle",
          "type": "address"
        },
        {
          "internalType": "address",
          "name": "_router",
          "type": "address"
        },
        {
          "internalType": "uint256",
          "name": "_liquidateThreshold",
          "type": "uint256"
        },
        {
          "internalType": "uint256",
          "name": "_upperBoundCost",
          "type": "uint256"
        },
        {
          "internalType": "uint256",
          "name": "_lowerBoundCost",
          "type": "uint256"
        },
        {
          "internalType": "uint256",
          "name": "_auctionDuration",
          "type": "uint256"
        },
        {
          "internalType": "uint256",
          "name": "_priceIndexStep",
          "type": "uint256"
        }
      ],
      "name": "initialize",
      "outputs": [],
      "stateMutability": "nonpayable",
      "type": "function"
    },
    {
      "inputs": [],
      "name": "liquidateThreshold",
      "outputs": [
        {
          "internalType": "uint256",
          "name": "",
          "type": "uint256"
        }
      ],
      "stateMutability": "view",
      "type": "function"
    },
    {
      "inputs": [
        {
          "internalType": "uint256",
          "name": "",
          "type": "uint256"
        },
        {
          "internalType": "uint256",
          "name": "",
          "type": "uint256"
        }
      ],
      "name": "lots",
      "outputs": [
        {
          "internalType": "address",
          "name": "user",
          "type": "address"
        },
        {
          "internalType": "uint256",
          "name": "price",
          "type": "uint256"
        },
        {
          "internalType": "uint256",
          "name": "amount",
          "type": "uint256"
        },
        {
          "internalType": "uint256",
          "name": "ratio",
          "type": "uint256"
        },
        {
          "internalType": "uint256",
          "name": "created",
          "type": "uint256"
        },
        {
          "internalType": "address",
          "name": "buyer",
          "type": "address"
        },
        {
          "internalType": "uint256",
          "name": "saleAmount",
          "type": "uint256"
        },
        {
          "internalType": "uint256",
          "name": "endCost",
          "type": "uint256"
        },
        {
          "internalType": "uint256",
          "name": "endTime",
          "type": "uint256"
        },
        {
          "internalType": "enum WQCollateralAuction.LotStatus",
          "name": "status",
          "type": "uint8"
        }
      ],
      "stateMutability": "view",
      "type": "function"
    },
    {
      "inputs": [],
      "name": "lowerBoundCost",
      "outputs": [
        {
          "internalType": "uint256",
          "name": "",
          "type": "uint256"
        }
      ],
      "stateMutability": "view",
      "type": "function"
    },
    {
      "inputs": [
        {
          "internalType": "uint256",
          "name": "priceIndex",
          "type": "uint256"
        },
        {
          "internalType": "uint256",
          "name": "index",
          "type": "uint256"
        },
        {
          "internalType": "uint256",
          "name": "newPrice",
          "type": "uint256"
        },
        {
          "internalType": "uint256",
          "name": "newAmount",
          "type": "uint256"
        }
      ],
      "name": "moveLot",
      "outputs": [
        {
          "internalType": "uint256",
          "name": "",
          "type": "uint256"
        },
        {
          "internalType": "uint256",
          "name": "",
          "type": "uint256"
        }
      ],
      "stateMutability": "nonpayable",
      "type": "function"
    },
    {
      "inputs": [],
      "name": "oracle",
      "outputs": [
        {
          "internalType": "contract WQPriceOracle",
          "name": "",
          "type": "address"
        }
      ],
      "stateMutability": "view",
      "type": "function"
    },
    {
      "inputs": [],
      "name": "priceIndexStep",
      "outputs": [
        {
          "internalType": "uint256",
          "name": "",
          "type": "uint256"
        }
      ],
      "stateMutability": "view",
      "type": "function"
    },
    {
      "inputs": [
        {
          "internalType": "uint256",
          "name": "",
          "type": "uint256"
        }
      ],
      "name": "priceIndexes",
      "outputs": [
        {
          "internalType": "uint256",
          "name": "",
          "type": "uint256"
        }
      ],
      "stateMutability": "view",
      "type": "function"
    },
    {
      "inputs": [
        {
          "internalType": "uint256",
          "name": "",
          "type": "uint256"
        }
      ],
      "name": "prices",
      "outputs": [
        {
          "internalType": "uint256",
          "name": "",
          "type": "uint256"
        }
      ],
      "stateMutability": "view",
      "type": "function"
    },
    {
      "inputs": [],
      "name": "proxiableUUID",
      "outputs": [
        {
          "internalType": "bytes32",
          "name": "",
          "type": "bytes32"
        }
      ],
      "stateMutability": "view",
      "type": "function"
    },
    {
      "inputs": [
        {
          "internalType": "bytes32",
          "name": "role",
          "type": "bytes32"
        },
        {
          "internalType": "address",
          "name": "account",
          "type": "address"
        }
      ],
      "name": "renounceRole",
      "outputs": [],
      "stateMutability": "nonpayable",
      "type": "function"
    },
    {
      "inputs": [
        {
          "internalType": "bytes32",
          "name": "role",
          "type": "bytes32"
        },
        {
          "internalType": "address",
          "name": "account",
          "type": "address"
        }
      ],
      "name": "revokeRole",
      "outputs": [],
      "stateMutability": "nonpayable",
      "type": "function"
    },
    {
      "inputs": [],
      "name": "router",
      "outputs": [
        {
          "internalType": "contract WQRouterInterface",
          "name": "",
          "type": "address"
        }
      ],
      "stateMutability": "view",
      "type": "function"
    },
    {
      "inputs": [
        {
          "internalType": "uint256",
          "name": "duration",
          "type": "uint256"
        }
      ],
      "name": "setAuctionDuration",
      "outputs": [],
      "stateMutability": "nonpayable",
      "type": "function"
    },
    {
      "inputs": [
        {
          "internalType": "uint256",
          "name": "percent",
          "type": "uint256"
        }
      ],
      "name": "setLiquidateTreshold",
      "outputs": [],
      "stateMutability": "nonpayable",
      "type": "function"
    },
    {
      "inputs": [
        {
          "internalType": "uint256",
          "name": "percent",
          "type": "uint256"
        }
      ],
      "name": "setLowerBoundCost",
      "outputs": [],
      "stateMutability": "nonpayable",
      "type": "function"
    },
    {
      "inputs": [
        {
          "internalType": "address",
          "name": "_oracle",
          "type": "address"
        }
      ],
      "name": "setOracle",
      "outputs": [],
      "stateMutability": "nonpayable",
      "type": "function"
    },
    {
      "inputs": [
        {
          "internalType": "uint256",
          "name": "step",
          "type": "uint256"
        }
      ],
      "name": "setPriceIndexStep",
      "outputs": [],
      "stateMutability": "nonpayable",
      "type": "function"
    },
    {
      "inputs": [
        {
          "internalType": "address",
          "name": "_router",
          "type": "address"
        }
      ],
      "name": "setRouter",
      "outputs": [],
      "stateMutability": "nonpayable",
      "type": "function"
    },
    {
      "inputs": [
        {
          "internalType": "address",
          "name": "_token",
          "type": "address"
        }
      ],
      "name": "setToken",
      "outputs": [],
      "stateMutability": "nonpayable",
      "type": "function"
    },
    {
      "inputs": [
        {
          "internalType": "uint256",
          "name": "percent",
          "type": "uint256"
        }
      ],
      "name": "setUpperBoundCost",
      "outputs": [],
      "stateMutability": "nonpayable",
      "type": "function"
    },
    {
      "inputs": [
        {
          "internalType": "uint256",
          "name": "priceIndex",
          "type": "uint256"
        },
        {
          "internalType": "uint256",
          "name": "index",
          "type": "uint256"
        },
        {
          "internalType": "uint256",
          "name": "amount",
          "type": "uint256"
        }
      ],
      "name": "startAuction",
      "outputs": [],
      "stateMutability": "nonpayable",
      "type": "function"
    },
    {
      "inputs": [
        {
          "internalType": "bytes4",
          "name": "interfaceId",
          "type": "bytes4"
        }
      ],
      "name": "supportsInterface",
      "outputs": [
        {
          "internalType": "bool",
          "name": "",
          "type": "bool"
        }
      ],
      "stateMutability": "view",
      "type": "function"
    },
    {
      "inputs": [],
      "name": "token",
      "outputs": [
        {
          "internalType": "contract IERC20MetadataUpgradeable",
          "name": "",
          "type": "address"
        }
      ],
      "stateMutability": "view",
      "type": "function"
    },
    {
      "inputs": [],
      "name": "totalAuctioned",
      "outputs": [
        {
          "internalType": "uint256",
          "name": "",
          "type": "uint256"
        }
      ],
      "stateMutability": "view",
      "type": "function"
    },
    {
      "inputs": [
        {
          "internalType": "address",
          "name": "newImplementation",
          "type": "address"
        }
      ],
      "name": "upgradeTo",
      "outputs": [],
      "stateMutability": "nonpayable",
      "type": "function"
    },
    {
      "inputs": [
        {
          "internalType": "address",
          "name": "newImplementation",
          "type": "address"
        },
        {
          "internalType": "bytes",
          "name": "data",
          "type": "bytes"
        }
      ],
      "name": "upgradeToAndCall",
      "outputs": [],
      "stateMutability": "payable",
      "type": "function"
    },
    {
      "inputs": [],
      "name": "upperBoundCost",
      "outputs": [
        {
          "internalType": "uint256",
          "name": "",
          "type": "uint256"
        }
      ],
      "stateMutability": "view",
      "type": "function"
    }
  ],
  "bytecode": "0x60a0604052306080523480156200001557600080fd5b50600054610100900460ff16620000335760005460ff16156200003d565b6200003d620000e2565b620000a55760405162461bcd60e51b815260206004820152602e60248201527f496e697469616c697a61626c653a20636f6e747261637420697320616c72656160448201526d191e481a5b9a5d1a585b1a5e995960921b606482015260840160405180910390fd5b600054610100900460ff16158015620000c8576000805461ffff19166101011790555b8015620000db576000805461ff00191690555b506200010f565b6000620000fa306200010060201b620028971760201c565b15905090565b6001600160a01b03163b151590565b6080516140036200014760003960008181610ce501528181610d2501528181610de501528181610e250152610eb401526140036000f3fe6080604052600436106102875760003560e01c806392ba90751161015a578063cc6b3be3116100c1578063f72c0d8b1161007a578063f72c0d8b14610864578063f887ea4014610886578063fc0c546a146108a7578063fdcb648c146108c8578063ff2ab229146108df578063ffb67186146108f657600080fd5b8063cc6b3be31461076e578063d547741f1461078e578063dd5c05f4146107ae578063df8fa430146107f6578063dff67bfa14610816578063e2a07a071461084457600080fd5b8063b93dafa911610113578063b93dafa914610663578063bc31c1c114610699578063bfdc45bf146106b9578063c0d78655146106ee578063c41600fe1461070e578063c6270ef51461072e57600080fd5b806392ba9075146105b95780639b2fbaeb146105d9578063a217fddf146105f9578063a497e6741461060e578063b0f787651461062e578063b32fdcea1461064357600080fd5b8063403b74ed116101fe57806375b238fc116101b757806375b238fc146104de5780637adbf973146105005780637dc0d1d014610520578063892cfa9c1461055957806391d148541461057957806391e078bb1461059957600080fd5b8063403b74ed1461042d5780634f1ef2861461044457806352d1902d146104575780635b2ccefd1461046c57806364ad7ad71461049e578063663fbde5146104be57600080fd5b8063248a9ca311610250578063248a9ca3146103665780632eda53fb146103965780632f2ff15d146103ad57806336568abe146103cd5780633659cfe6146103ed5780633b9095d41461040d57600080fd5b80625b71561461028c57806301ffc9a7146102c25780630cbf54c8146102f2578063116faf8c14610317578063144fa6d714610344575b600080fd5b34801561029857600080fd5b506102ac6102a7366004613598565b61090d565b6040516102b991906135fc565b60405180910390f35b3480156102ce57600080fd5b506102e26102dd3660046136c0565b610adf565b60405190151581526020016102b9565b3480156102fe57600080fd5b506103096101335481565b6040519081526020016102b9565b34801561032357600080fd5b506103376103323660046136ea565b610b16565b6040516102b9919061370c565b34801561035057600080fd5b5061036461035f36600461376c565b610bef565b005b34801561037257600080fd5b50610309610381366004613787565b60009081526065602052604090206001015490565b3480156103a257600080fd5b506103096101345481565b3480156103b957600080fd5b506103646103c83660046137a0565b610c2c565b3480156103d957600080fd5b506103646103e83660046137a0565b610c57565b3480156103f957600080fd5b5061036461040836600461376c565b610cda565b34801561041957600080fd5b50610364610428366004613787565b610dba565b34801561043957600080fd5b506103096101315481565b61036461045236600461383b565b610dda565b34801561046357600080fd5b50610309610ea7565b34801561047857600080fd5b5061048c6104873660046136ea565b610f5a565b60405160ff90911681526020016102b9565b3480156104aa57600080fd5b506103646104b9366004613787565b610fa3565b3480156104ca57600080fd5b506103096104d9366004613598565b610fc3565b3480156104ea57600080fd5b50610309600080516020613fae83398151915281565b34801561050c57600080fd5b5061036461051b36600461376c565b61108a565b34801561052c57600080fd5b5061012d54610541906001600160a01b031681565b6040516001600160a01b0390911681526020016102b9565b34801561056557600080fd5b506103096105743660046136ea565b6110c7565b34801561058557600080fd5b506102e26105943660046137a0565b61117a565b3480156105a557600080fd5b506103646105b4366004613598565b6111a5565b3480156105c557600080fd5b506103646105d43660046136ea565b6116a7565b3480156105e557600080fd5b506103096105f4366004613787565b611835565b34801561060557600080fd5b50610309600081565b34801561061a57600080fd5b50610364610629366004613787565b611850565b34801561063a57600080fd5b50610309611870565b34801561064f57600080fd5b5061036461065e3660046136ea565b611bc8565b34801561066f57600080fd5b5061068361067e3660046136ea565b612040565b6040516102b99a999897969594939291906138cc565b3480156106a557600080fd5b506103096106b4366004613787565b6120c1565b3480156106c557600080fd5b506106d96106d4366004613934565b6120e3565b604080519283526020830191909152016102b9565b3480156106fa57600080fd5b5061036461070936600461376c565b612345565b34801561071a57600080fd5b50610364610729366004613787565b612382565b34801561073a57600080fd5b5061074e6107493660046136ea565b6123a2565b604080516001600160a01b039384168152929091166020830152016102b9565b34801561077a57600080fd5b506106d9610789366004613966565b61242e565b34801561079a57600080fd5b506103646107a93660046137a0565b61264d565b3480156107ba57600080fd5b506107ce6107c93660046136ea565b612673565b604080519586526020860194909452928401919091526060830152608082015260a0016102b9565b34801561080257600080fd5b5061036461081136600461399f565b6126df565b34801561082257600080fd5b50610309610831366004613787565b6101376020526000908152604090205481565b34801561085057600080fd5b5061036461085f366004613787565b612877565b34801561087057600080fd5b50610309600080516020613f4783398151915281565b34801561089257600080fd5b5061012e54610541906001600160a01b031681565b3480156108b357600080fd5b5061012f54610541906001600160a01b031681565b3480156108d457600080fd5b506103096101305481565b3480156108eb57600080fd5b506103096101325481565b34801561090257600080fd5b506103096101355481565b6060600061091a85611835565b60008181526101366020526040902054909150610938908590613a26565b83111561095d576000818152610136602052604090205461095a908590613a26565b92505b8267ffffffffffffffff811115610976576109766137cc565b6040519080825280602002602001820160405280156109af57816020015b61099c613523565b8152602001906001900390816109945790505b50915060005b83811015610ad5576000828152610136602052604090206109d68287613a3d565b815481106109e6576109e6613a55565b60009182526020918290206040805161014081018252600a90930290910180546001600160a01b039081168452600182015494840194909452600281015491830191909152600380820154606084015260048201546080840152600582015490931660a0830152600681015460c0830152600781015460e0830152600881015461010083015260098101549192909161012084019160ff90911690811115610a9057610a906135c4565b6003811115610aa157610aa16135c4565b81525050838281518110610ab757610ab7613a55565b60200260200101819052508080610acd90613a6b565b9150506109b5565b50505b9392505050565b60006001600160e01b03198216637965db0b60e01b1480610b1057506301ffc9a760e01b6001600160e01b03198316145b92915050565b61013854606090610b28908490613a26565b821115610b415761013854610b3e908490613a26565b91505b8167ffffffffffffffff811115610b5a57610b5a6137cc565b604051908082528060200260200182016040528015610b83578160200160208202803683370190505b50905060005b82811015610be857610138610b9e8286613a3d565b81548110610bae57610bae613a55565b9060005260206000200154828281518110610bcb57610bcb613a55565b602090810291909101015280610be081613a6b565b915050610b89565b5092915050565b600080516020613fae833981519152610c0881336128a6565b5061012f80546001600160a01b0319166001600160a01b0392909216919091179055565b600082815260656020526040902060010154610c4881336128a6565b610c52838361290a565b505050565b6001600160a01b0381163314610ccc5760405162461bcd60e51b815260206004820152602f60248201527f416363657373436f6e74726f6c3a2063616e206f6e6c792072656e6f756e636560448201526e103937b632b9903337b91039b2b63360891b60648201526084015b60405180910390fd5b610cd68282612990565b5050565b306001600160a01b037f0000000000000000000000000000000000000000000000000000000000000000161415610d235760405162461bcd60e51b8152600401610cc390613a86565b7f00000000000000000000000000000000000000000000000000000000000000006001600160a01b0316610d6c600080516020613f67833981519152546001600160a01b031690565b6001600160a01b031614610d925760405162461bcd60e51b8152600401610cc390613ad2565b610d9b816129f7565b60408051600080825260208201909252610db791839190612a10565b50565b600080516020613fae833981519152610dd381336128a6565b5061013455565b306001600160a01b037f0000000000000000000000000000000000000000000000000000000000000000161415610e235760405162461bcd60e51b8152600401610cc390613a86565b7f00000000000000000000000000000000000000000000000000000000000000006001600160a01b0316610e6c600080516020613f67833981519152546001600160a01b031690565b6001600160a01b031614610e925760405162461bcd60e51b8152600401610cc390613ad2565b610e9b826129f7565b610cd682826001612a10565b6000306001600160a01b037f00000000000000000000000000000000000000000000000000000000000000001614610f475760405162461bcd60e51b815260206004820152603860248201527f555550535570677261646561626c653a206d757374206e6f742062652063616c60448201527f6c6564207468726f7567682064656c656761746563616c6c00000000000000006064820152608401610cc3565b50600080516020613f6783398151915290565b600082815261013660205260408120805483908110610f7b57610f7b613a55565b600091825260209091206009600a90920201015460ff166003811115610ad857610ad86135c4565b600080516020613fae833981519152610fbc81336128a6565b5061013155565b61012e546000906001600160a01b03163314610ff15760405162461bcd60e51b8152600401610cc390613b1e565b60008481526101366020526040902080548391908590811061101557611015613a55565b90600052602060002090600a020160020160008282546110359190613a26565b909155505060008481526101366020526040812080548590811061105b5761105b613a55565b90600052602060002090600a02016002015490508060001415611082576110828585612b8a565b949350505050565b600080516020613fae8339815191526110a381336128a6565b5061012d80546001600160a01b0319166001600160a01b0392909216919091179055565b6000828152610136602052604081208054829190849081106110eb576110eb613a55565b60009182526020909120600a9091020190506002600982015460ff166003811115611118576111186135c4565b146111715760405162461bcd60e51b8152602060048201526024808201527f575141756374696f6e3a2054686973206c6f74206973206e6f742061756374696044820152631bdb995960e21b6064820152608401610cc3565b61108281612f10565b60009182526065602090815260408084206001600160a01b0393909316845291905290205460ff1690565b600260975414156111f85760405162461bcd60e51b815260206004820152601f60248201527f5265656e7472616e637947756172643a207265656e7472616e742063616c6c006044820152606401610cc3565b600260975561012d5461012f54604080516395d89b4160e01b815290516000936001600160a01b0390811693630292e0fd939116916395d89b41916004808201928892909190829003018186803b15801561125257600080fd5b505afa158015611266573d6000803e3d6000fd5b505050506040513d6000823e601f3d908101601f1916820160405261128e9190810190613b81565b6040518263ffffffff1660e01b81526004016112aa9190613c1b565b60206040518083038186803b1580156112c257600080fd5b505afa1580156112d6573d6000803e3d6000fd5b505050506040513d601f19601f820116820180604052508101906112fa9190613c2e565b905081610135600082825461130f9190613a3d565b9091555061131d9050611870565b6101355411156113a95760405162461bcd60e51b815260206004820152604b60248201527f575141756374696f6e3a20416d6f756e74206f6620746f6b656e73207075726360448201527f68617365642069732067726561746572207468616e2074686520616d6f756e7460648201526a081b1a5c5d5a59185d195960aa1b608482015260a401610cc3565b6000848152610136602052604081208054859081106113ca576113ca613a55565b60009182526020909120600a9091020190506001600982015460ff1660038111156113f7576113f76135c4565b146114445760405162461bcd60e51b815260206004820152601c60248201527f575141756374696f6e3a20537461747573206973206e6f74204e6577000000006044820152606401610cc3565b6000816001015482600301548461145b9190613c47565b6114659190613c66565b905061013054811080156114815750670de0b6b3a76400008110155b6114e35760405162461bcd60e51b815260206004820152602d60248201527f575141756374696f6e3a2054686973206c6f74206973206e6f7420617661696c60448201526c61626c6520666f722073616c6560981b6064820152608401610cc3565b816002015484111561155f576040805162461bcd60e51b81526020600482015260248101919091527f575141756374696f6e3a20416d6f756e74206f6620746f6b656e73207075726360448201527f68617365642069732067726561746572207468616e206c6f7420616d6f756e746064820152608401610cc3565b6006820184905561012f546040805163313ce56760e01b815290516000926001600160a01b03169163313ce567916004808301926020929190829003018186803b1580156115ac57600080fd5b505afa1580156115c0573d6000803e3d6000fd5b505050506040513d601f19601f820116820180604052508101906115e49190613c88565b6115ef906012613cab565b6115fa90600a613db2565b9050670de0b6b3a7640000816116108787613c47565b61161a9190613c47565b6116249190613c66565b6007840155610133546116379042613a3d565b600884015560098301805460ff191660021790556007830154604080518981526020810189905290810187905260608101919091527fa832766a05f1bd0298b0268308621777cfe1e4eea23afe7c06beea79bc6ddd2d9060800160405180910390a1505060016097555050505050565b6000828152610136602052604081208054839081106116c8576116c8613a55565b60009182526020909120600a9091020190506002600982015460ff1660038111156116f5576116f56135c4565b146117425760405162461bcd60e51b815260206004820152601f60248201527f575141756374696f6e3a204c6f74206973206e6f742061756374696f6e6564006044820152606401610cc3565b806008015442116117a55760405162461bcd60e51b815260206004820152602760248201527f575141756374696f6e3a2041756374696f6e2074696d65206973206e6f74206f6044820152661d995c881e595d60ca1b6064820152608401610cc3565b806006015461013560008282546117bc9190613a26565b9091555050600060068201819055600782018190556008820181905560098201805460ff19166001179055604080518581526020810185905290810182905260608101919091527f69a7e1c88afecbc01148769ca788430aa84369c65a6dacd87d9edbfb7e547ea09060800160405180910390a1505050565b610134546000906118468184613c66565b610b109190613c47565b600080516020613fae83398151915261186981336128a6565b5061013355565b60008061012f60009054906101000a90046001600160a01b03166001600160a01b03166395d89b416040518163ffffffff1660e01b815260040160006040518083038186803b1580156118c257600080fd5b505afa1580156118d6573d6000803e3d6000fd5b505050506040513d6000823e601f3d908101601f191682016040526118fe9190810190613b81565b9050600061012f60009054906101000a90046001600160a01b03166001600160a01b031663313ce5676040518163ffffffff1660e01b815260040160206040518083038186803b15801561195157600080fd5b505afa158015611965573d6000803e3d6000fd5b505050506040513d601f19601f820116820180604052508101906119899190613c88565b611994906012613cab565b61199f90600a613db2565b61012d54604051630292e0fd60e01b81529192506000916001600160a01b0390911690630292e0fd906119d6908690600401613c1b565b60206040518083038186803b1580156119ee57600080fd5b505afa158015611a02573d6000803e3d6000fd5b505050506040513d601f19601f82011682018060405250810190611a269190613c2e565b61012e54604051632ed4877d60e21b8152919250600091849184916001600160a01b039091169063bb521df490611a61908990600401613c1b565b60206040518083038186803b158015611a7957600080fd5b505afa158015611a8d573d6000803e3d6000fd5b505050506040513d601f19601f82011682018060405250810190611ab19190613c2e565b611abb9190613c47565b611ac59190613c47565b61012e54604051638c1e06f160e01b81529192506000916001600160a01b0390911690638c1e06f190611afc908890600401613c1b565b60206040518083038186803b158015611b1457600080fd5b505afa158015611b28573d6000803e3d6000fd5b505050506040513d601f19601f82011682018060405250810190611b4c9190613c2e565b90508061013054611b5d9190613c47565b82108015611b7b5750611b7881670de0b6b3a7640000613c47565b82115b15611bbc5782611b8c836002613c47565b611b9e836729a2241af62c0000613c47565b611ba89190613a26565b611bb29190613c66565b9550505050505090565b60009550505050505090565b60026097541415611c1b5760405162461bcd60e51b815260206004820152601f60248201527f5265656e7472616e637947756172643a207265656e7472616e742063616c6c006044820152606401610cc3565b6002609755600082815261013660205260408120805483908110611c4157611c41613a55565b60009182526020909120600a9091020190506002600982015460ff166003811115611c6e57611c6e6135c4565b14611cbb5760405162461bcd60e51b815260206004820152601f60248201527f575141756374696f6e3a204c6f74206973206e6f742061756374696f6e6564006044820152606401610cc3565b8060080154421115611d0f5760405162461bcd60e51b815260206004820152601f60248201527f575141756374696f6e3a2041756374696f6e2074696d65206973206f766572006044820152606401610cc3565b6000611d1a82612f10565b90506000670de0b6b3a76400006301e13380846004015442611d3c9190613a26565b61012e60009054906101000a90046001600160a01b03166001600160a01b0316631a9703da6040518163ffffffff1660e01b815260040160206040518083038186803b158015611d8b57600080fd5b505afa158015611d9f573d6000803e3d6000fd5b505050506040513d601f19601f82011682018060405250810190611dc39190613c2e565b611dcd9190613c47565b611dd79190613c66565b61012e60009054906101000a90046001600160a01b03166001600160a01b031663802d14226040518163ffffffff1660e01b815260040160206040518083038186803b158015611e2657600080fd5b505afa158015611e3a573d6000803e3d6000fd5b505050506040513d601f19601f82011682018060405250810190611e5e9190613c2e565b611e689190613a3d565b611e729084613c47565b611e7c9190613c66565b905082600601546101356000828254611e959190613a26565b90915550506005830180546001600160a01b031916331790556006830154600284018054600090611ec7908490613a26565b9091555050600283015415611eea5760098301805460ff19166001179055611efa565b60098301805460ff191660031790555b61012e5461012f54604080516395d89b4160e01b815290516001600160a01b039384169363d7b4be23938a938a938993899316916395d89b41916004808301926000929190829003018186803b158015611f5357600080fd5b505afa158015611f67573d6000803e3d6000fd5b505050506040513d6000823e601f3d908101601f19168201604052611f8f9190810190613b81565b6040518663ffffffff1660e01b8152600401611faf959493929190613dc1565b600060405180830381600087803b158015611fc957600080fd5b505af1158015611fdd573d6000803e3d6000fd5b50505050600683015460408051878152602081018790528082019290925260608201849052517fa1dcb4d6e7a55d9f67185811b5f36e3e08ba9aeeac8ca948fae3ce4f60ae28ce9181900360800190a15050600060069091015550506001609755565b610136602052816000526040600020818154811061205d57600080fd5b60009182526020909120600a909102018054600182015460028301546003840154600485015460058601546006870154600788015460088901546009909901546001600160a01b039889169b50969950949793969295919092169391929060ff168a565b61013881815481106120d257600080fd5b600091825260209091200154905081565b61012e5460009081906001600160a01b031633146121135760405162461bcd60e51b8152600401610cc390613b1e565b600061211e85611835565b600088815261013660205260409020805491925086918890811061214457612144613a55565b90600052602060002090600a020160010181905550836101366000898152602001908152602001600020878154811061217f5761217f613a55565b90600052602060002090600a02016002018190555080871461233457600081815261013660205260409020546122045761013880546001818101835560008390527ff79a63dcec80ed75c82f36161f17b9c2f407860160383a7be0a0ee7962c527ae90910183905590546121f39190613a26565b600082815261013760205260409020555b60008181526101366020526040808220898352912080548890811061222b5761222b613a55565b6000918252602080832084546001818101875595855291909320600a92830290930180549190920290920180546001600160a01b03199081166001600160a01b0394851617825584830154828601556002808401549083015560038084015481840155600480850154908401556005808501549084018054909316951694909417905560068083015490820155600780830154908201556008808301549082015560098083015490820180549395929460ff90921693909260ff199091169184908111156122fb576122fb6135c4565b0217905550505061230c8787612b8a565b60008181526101366020526040902054819061232a90600190613a26565b925092505061233c565b868692509250505b94509492505050565b600080516020613fae83398151915261235e81336128a6565b5061012e80546001600160a01b0319166001600160a01b0392909216919091179055565b600080516020613fae83398151915261239b81336128a6565b5061013055565b6000828152610136602052604081208054829190849081106123c6576123c6613a55565b60009182526020808320600a90920290910154868352610136909152604090912080546001600160a01b03909216918590811061240557612405613a55565b600091825260209091206005600a9092020101549092506001600160a01b031690509250929050565b61012e5460009081906001600160a01b0316331461245e5760405162461bcd60e51b8152600401610cc390613b1e565b600061246986611835565b600081815261013660205260409020549091506124d55761013880546001818101835560008390527ff79a63dcec80ed75c82f36161f17b9c2f407860160383a7be0a0ee7962c527ae90910183905590546124c49190613a26565b600082815261013760205260409020555b6101366000828152602001908152602001600020604051806101400160405280896001600160a01b0316815260200188815260200187815260200186815260200142815260200160006001600160a01b0316815260200160008152602001600081526020016000815260200160016003811115612554576125546135c4565b905281546001808201845560009384526020938490208351600a9093020180546001600160a01b03199081166001600160a01b0394851617825594840151818301556040840151600282015560608401516003808301919091556080850151600483015560a085015160058301805490971694169390931790945560c0830151600685015560e0830151600785015561010083015160088501556101208301516009850180549495949193909260ff199092169190849081111561261a5761261a6135c4565b0217905550505060008181526101366020526040902054819061263f90600190613a26565b925092505094509492505050565b60008281526065602052604090206001015461266981336128a6565b610c528383612990565b600080600080600080610136600089815260200190815260200160002087815481106126a1576126a1613a55565b90600052602060002090600a020190508060020154816001015482600301548360040154846006015495509550955095509550509295509295909350565b600054610100900460ff166126fa5760005460ff16156126fe565b303b155b6127615760405162461bcd60e51b815260206004820152602e60248201527f496e697469616c697a61626c653a20636f6e747261637420697320616c72656160448201526d191e481a5b9a5d1a585b1a5e995960921b6064820152608401610cc3565b600054610100900460ff16158015612783576000805461ffff19166101011790555b61278b612f9e565b612793612fc7565b61279b612f9e565b6127a6600033612ff6565b6127be600080516020613fae83398151915233612ff6565b6127d6600080516020613f4783398151915233612ff6565b6127fc600080516020613f47833981519152600080516020613fae833981519152613000565b61012f80546001600160a01b03808c166001600160a01b03199283161790925561012d80548b841690831617905561012e8054928a1692909116919091179055610130869055610131859055610132849055610133839055610134829055801561286c576000805461ff00191690555b505050505050505050565b600080516020613fae83398151915261289081336128a6565b5061013255565b6001600160a01b03163b151590565b6128b0828261117a565b610cd6576128c8816001600160a01b0316601461304b565b6128d383602061304b565b6040516020016128e4929190613df7565b60408051601f198184030181529082905262461bcd60e51b8252610cc391600401613c1b565b612914828261117a565b610cd65760008281526065602090815260408083206001600160a01b03851684529091529020805460ff1916600117905561294c3390565b6001600160a01b0316816001600160a01b0316837f2f8788117e7eff1d82e926ec794901d17c78024a50270940304540a733656f0d60405160405180910390a45050565b61299a828261117a565b15610cd65760008281526065602090815260408083206001600160a01b0385168085529252808320805460ff1916905551339285917ff6391f5c32d9c69d2a47ea670b442974b53935d1edc7fd64eb21e047a839171b9190a45050565b600080516020613f47833981519152610cd681336128a6565b7f4910fdfa16fed3260ed0e7147f7cc6da11a60208b5b9406d12a635614ffd91435460ff1615612a4357610c52836131e7565b826001600160a01b03166352d1902d6040518163ffffffff1660e01b815260040160206040518083038186803b158015612a7c57600080fd5b505afa925050508015612aac575060408051601f3d908101601f19168201909252612aa991810190613c2e565b60015b612b0f5760405162461bcd60e51b815260206004820152602e60248201527f45524331393637557067726164653a206e657720696d706c656d656e7461746960448201526d6f6e206973206e6f74205555505360901b6064820152608401610cc3565b600080516020613f678339815191528114612b7e5760405162461bcd60e51b815260206004820152602960248201527f45524331393637557067726164653a20756e737570706f727465642070726f786044820152681a58589b195555525160ba1b6064820152608401610cc3565b50610c52838383613283565b60008281526101366020526040812054612ba690600190613a26565b9050818114612d545761012e5460008481526101366020526040902080546001600160a01b039092169163911ea019919084908110612be757612be7613a55565b60009182526020808320600a90920290910154878352610136909152604090912080546001600160a01b039092169185908110612c2657612c26613a55565b90600052602060002090600a02016002015461013660008881526020019081526020016000208581548110612c5d57612c5d613a55565b90600052602060002090600a0201600101548786898961012f60009054906101000a90046001600160a01b03166001600160a01b03166395d89b416040518163ffffffff1660e01b815260040160006040518083038186803b158015612cc257600080fd5b505afa158015612cd6573d6000803e3d6000fd5b505050506040513d6000823e601f3d908101601f19168201604052612cfe9190810190613b81565b6040518963ffffffff1660e01b8152600401612d21989796959493929190613e6c565b600060405180830381600087803b158015612d3b57600080fd5b505af1158015612d4f573d6000803e3d6000fd5b505050505b600083815261013660205260409020805482908110612d7557612d75613a55565b90600052602060002090600a020161013660008581526020019081526020016000208381548110612da857612da8613a55565b600091825260209091208254600a9092020180546001600160a01b03199081166001600160a01b039384161782556001808501548184015560028086015490840155600380860154818501556004808701549085015560058087015490850180549094169516949094179091556006808501549083015560078085015490830155600880850154908301556009808501549083018054939460ff90921693909260ff19909116918490811115612e6057612e606135c4565b02179055505050600083815261013660205260409020805480612e8557612e85613eb2565b60008281526020808220600a6000199094019384020180546001600160a01b03199081168255600182018490556002820184905560038201849055600482018490556005820180549091169055600681018390556007810183905560088101839055600901805460ff191690559190925584825261013690526040902054610c5257610c52836132ae565b6000670de0b6b3a76400006101335483600701546101325461013154612f369190613a26565b428660080154612f469190613a26565b612f509190613c47565b612f5a9190613c47565b612f649190613c66565b612f6e9190613c66565b670de0b6b3a7640000610132548460070154612f8a9190613c47565b612f949190613c66565b610b109190613a3d565b600054610100900460ff16612fc55760405162461bcd60e51b8152600401610cc390613ec8565b565b600054610100900460ff16612fee5760405162461bcd60e51b8152600401610cc390613ec8565b612fc5613388565b610cd6828261290a565b600082815260656020526040808220600101805490849055905190918391839186917fbd79b86ffe0ab8e8776151514217cd7cacd52c909f66475c3af44e129f0b00ff9190a4505050565b6060600061305a836002613c47565b613065906002613a3d565b67ffffffffffffffff81111561307d5761307d6137cc565b6040519080825280601f01601f1916602001820160405280156130a7576020820181803683370190505b509050600360fc1b816000815181106130c2576130c2613a55565b60200101906001600160f81b031916908160001a905350600f60fb1b816001815181106130f1576130f1613a55565b60200101906001600160f81b031916908160001a9053506000613115846002613c47565b613120906001613a3d565b90505b6001811115613198576f181899199a1a9b1b9c1cb0b131b232b360811b85600f166010811061315457613154613a55565b1a60f81b82828151811061316a5761316a613a55565b60200101906001600160f81b031916908160001a90535060049490941c9361319181613f13565b9050613123565b508315610ad85760405162461bcd60e51b815260206004820181905260248201527f537472696e67733a20686578206c656e67746820696e73756666696369656e746044820152606401610cc3565b6001600160a01b0381163b6132545760405162461bcd60e51b815260206004820152602d60248201527f455243313936373a206e657720696d706c656d656e746174696f6e206973206e60448201526c1bdd08184818dbdb9d1c9858dd609a1b6064820152608401610cc3565b600080516020613f6783398151915280546001600160a01b0319166001600160a01b0392909216919091179055565b61328c836133b6565b6000825111806132995750805b15610c52576132a883836133f6565b50505050565b6101388054600091906132c390600190613a26565b815481106132d3576132d3613a55565b906000526020600020015490506000610137600084815260200190815260200160002054905082610138828154811061330e5761330e613a55565b90600052602060002001541415610c525781610138828154811061333457613334613a55565b60009182526020909120015561013880548061335257613352613eb2565b60008281526020808220830160001990810183905590920190925583825261013790526040808220839055848252812055505050565b600054610100900460ff166133af5760405162461bcd60e51b8152600401610cc390613ec8565b6001609755565b6133bf816131e7565b6040516001600160a01b038216907fbc7cd75a20ee27fd9adebab32041f755214dbc6bffa90cc0225b39da2e5c2d3b90600090a250565b60606001600160a01b0383163b61345e5760405162461bcd60e51b815260206004820152602660248201527f416464726573733a2064656c65676174652063616c6c20746f206e6f6e2d636f6044820152651b9d1c9858dd60d21b6064820152608401610cc3565b600080846001600160a01b0316846040516134799190613f2a565b600060405180830381855af49150503d80600081146134b4576040519150601f19603f3d011682016040523d82523d6000602084013e6134b9565b606091505b50915091506134e18282604051806060016040528060278152602001613f87602791396134ea565b95945050505050565b606083156134f9575081610ad8565b8251156135095782518084602001fd5b8160405162461bcd60e51b8152600401610cc39190613c1b565b60405180610140016040528060006001600160a01b031681526020016000815260200160008152602001600081526020016000815260200160006001600160a01b0316815260200160008152602001600081526020016000815260200160006003811115613593576135936135c4565b905290565b6000806000606084860312156135ad57600080fd5b505081359360208301359350604090920135919050565b634e487b7160e01b600052602160045260246000fd5b600481106135f857634e487b7160e01b600052602160045260246000fd5b9052565b602080825282518282018190526000919060409081850190868401855b828110156136b357815180516001600160a01b0316855286810151858801528581015186860152606080820151908601526080808201519086015260a0808201516001600160a01b03811682880152505060c0818101519086015260e080820151908601526101008082015190860152610120908101519061369d818701836135da565b5050610140939093019290850190600101613619565b5091979650505050505050565b6000602082840312156136d257600080fd5b81356001600160e01b031981168114610ad857600080fd5b600080604083850312156136fd57600080fd5b50508035926020909101359150565b6020808252825182820181905260009190848201906040850190845b8181101561374457835183529284019291840191600101613728565b50909695505050505050565b80356001600160a01b038116811461376757600080fd5b919050565b60006020828403121561377e57600080fd5b610ad882613750565b60006020828403121561379957600080fd5b5035919050565b600080604083850312156137b357600080fd5b823591506137c360208401613750565b90509250929050565b634e487b7160e01b600052604160045260246000fd5b604051601f8201601f1916810167ffffffffffffffff8111828210171561380b5761380b6137cc565b604052919050565b600067ffffffffffffffff82111561382d5761382d6137cc565b50601f01601f191660200190565b6000806040838503121561384e57600080fd5b61385783613750565b9150602083013567ffffffffffffffff81111561387357600080fd5b8301601f8101851361388457600080fd5b803561389761389282613813565b6137e2565b8181528660208385010111156138ac57600080fd5b816020840160208301376000602083830101528093505050509250929050565b6001600160a01b038b81168252602082018b9052604082018a90526060820189905260808201889052861660a082015260c0810185905260e08101849052610100810183905261014081016139256101208301846135da565b9b9a5050505050505050505050565b6000806000806080858703121561394a57600080fd5b5050823594602084013594506040840135936060013592509050565b6000806000806080858703121561397c57600080fd5b61398585613750565b966020860135965060408601359560600135945092505050565b600080600080600080600080610100898b0312156139bc57600080fd5b6139c589613750565b97506139d360208a01613750565b96506139e160408a01613750565b979a96995096976060810135975060808101359660a0820135965060c0820135955060e0909101359350915050565b634e487b7160e01b600052601160045260246000fd5b600082821015613a3857613a38613a10565b500390565b60008219821115613a5057613a50613a10565b500190565b634e487b7160e01b600052603260045260246000fd5b6000600019821415613a7f57613a7f613a10565b5060010190565b6020808252602c908201527f46756e6374696f6e206d7573742062652063616c6c6564207468726f7567682060408201526b19195b1959d85d1958d85b1b60a21b606082015260800190565b6020808252602c908201527f46756e6374696f6e206d7573742062652063616c6c6564207468726f7567682060408201526b6163746976652070726f787960a01b606082015260800190565b6020808252601f908201527f575141756374696f6e3a2053656e646572206973206e6f7420726f7574657200604082015260600190565b60005b83811015613b70578181015183820152602001613b58565b838111156132a85750506000910152565b600060208284031215613b9357600080fd5b815167ffffffffffffffff811115613baa57600080fd5b8201601f81018413613bbb57600080fd5b8051613bc961389282613813565b818152856020838501011115613bde57600080fd5b6134e1826020830160208601613b55565b60008151808452613c07816020860160208601613b55565b601f01601f19169290920160200192915050565b602081526000610ad86020830184613bef565b600060208284031215613c4057600080fd5b5051919050565b6000816000190483118215151615613c6157613c61613a10565b500290565b600082613c8357634e487b7160e01b600052601260045260246000fd5b500490565b600060208284031215613c9a57600080fd5b815160ff81168114610ad857600080fd5b600060ff821660ff841680821015613cc557613cc5613a10565b90039392505050565b600181815b80851115613d09578160001904821115613cef57613cef613a10565b80851615613cfc57918102915b93841c9390800290613cd3565b509250929050565b600082613d2057506001610b10565b81613d2d57506000610b10565b8160018114613d435760028114613d4d57613d69565b6001915050610b10565b60ff841115613d5e57613d5e613a10565b50506001821b610b10565b5060208310610133831016604e8410600b8410161715613d8c575081810a610b10565b613d968383613cce565b8060001904821115613daa57613daa613a10565b029392505050565b6000610ad860ff841683613d11565b85815284602082015283604082015282606082015260a060808201526000613dec60a0830184613bef565b979650505050505050565b7f416363657373436f6e74726f6c3a206163636f756e7420000000000000000000815260008351613e2f816017850160208801613b55565b7001034b99036b4b9b9b4b733903937b6329607d1b6017918401918201528351613e60816028840160208801613b55565b01602801949350505050565b600061010060018060a01b038b1683528960208401528860408401528760608401528660808401528560a08401528460c08401528060e084015261392581840185613bef565b634e487b7160e01b600052603160045260246000fd5b6020808252602b908201527f496e697469616c697a61626c653a20636f6e7472616374206973206e6f74206960408201526a6e697469616c697a696e6760a81b606082015260800190565b600081613f2257613f22613a10565b506000190190565b60008251613f3c818460208701613b55565b919091019291505056fe189ab7a9244df0848122154315af71fe140f3db0fe014031783b0946b8c9d2e3360894a13ba1a3210667c828492db98dca3e2076cc3735a920a3ca505d382bbc416464726573733a206c6f772d6c6576656c2064656c65676174652063616c6c206661696c6564a49807205ce4d355092ef5a8a18f56e8913cf4a201fbe287825b095693c21775a2646970667358221220b3961c06a7d218a7c8d40a574aa471e6a682d0dc06607cb6b0099b7cd46fa5ed64736f6c63430008090033",
  "linkReferences": {},
  "deployedLinkReferences": {}
}