{
  "_format": "hh-sol-artifact-1",
  "contractName": "WQPriceOracle",
  "sourceName": "contracts/stablecoin/WQPriceOracle.sol",
  "abi": [
    {
      "inputs": [],
      "stateMutability": "nonpayable",
      "type": "constructor"
    },
    {
      "anonymous": false,
      "inputs": [
        {
          "indexed": false,
          "internalType": "address",
          "name": "previousAdmin",
          "type": "address"
        },
        {
          "indexed": false,
          "internalType": "address",
          "name": "newAdmin",
          "type": "address"
        }
      ],
      "name": "AdminChanged",
      "type": "event"
    },
    {
      "anonymous": false,
      "inputs": [
        {
          "indexed": true,
          "internalType": "address",
          "name": "beacon",
          "type": "address"
        }
      ],
      "name": "BeaconUpgraded",
      "type": "event"
    },
    {
      "anonymous": false,
      "inputs": [
        {
          "indexed": false,
          "internalType": "uint256",
          "name": "nonce",
          "type": "uint256"
        },
        {
          "indexed": false,
          "internalType": "uint256",
          "name": "price",
          "type": "uint256"
        },
        {
          "indexed": false,
          "internalType": "uint256",
          "name": "timestamp",
          "type": "uint256"
        },
        {
          "indexed": false,
          "internalType": "string",
          "name": "symbol",
          "type": "string"
        }
      ],
      "name": "Priced",
      "type": "event"
    },
    {
      "anonymous": false,
      "inputs": [
        {
          "indexed": true,
          "internalType": "bytes32",
          "name": "role",
          "type": "bytes32"
        },
        {
          "indexed": true,
          "internalType": "bytes32",
          "name": "previousAdminRole",
          "type": "bytes32"
        },
        {
          "indexed": true,
          "internalType": "bytes32",
          "name": "newAdminRole",
          "type": "bytes32"
        }
      ],
      "name": "RoleAdminChanged",
      "type": "event"
    },
    {
      "anonymous": false,
      "inputs": [
        {
          "indexed": true,
          "internalType": "bytes32",
          "name": "role",
          "type": "bytes32"
        },
        {
          "indexed": true,
          "internalType": "address",
          "name": "account",
          "type": "address"
        },
        {
          "indexed": true,
          "internalType": "address",
          "name": "sender",
          "type": "address"
        }
      ],
      "name": "RoleGranted",
      "type": "event"
    },
    {
      "anonymous": false,
      "inputs": [
        {
          "indexed": true,
          "internalType": "bytes32",
          "name": "role",
          "type": "bytes32"
        },
        {
          "indexed": true,
          "internalType": "address",
          "name": "account",
          "type": "address"
        },
        {
          "indexed": true,
          "internalType": "address",
          "name": "sender",
          "type": "address"
        }
      ],
      "name": "RoleRevoked",
      "type": "event"
    },
    {
      "anonymous": false,
      "inputs": [
        {
          "indexed": true,
          "internalType": "address",
          "name": "implementation",
          "type": "address"
        }
      ],
      "name": "Upgraded",
      "type": "event"
    },
    {
      "inputs": [],
      "name": "ADMIN_ROLE",
      "outputs": [
        {
          "internalType": "bytes32",
          "name": "",
          "type": "bytes32"
        }
      ],
      "stateMutability": "view",
      "type": "function"
    },
    {
      "inputs": [],
      "name": "DEFAULT_ADMIN_ROLE",
      "outputs": [
        {
          "internalType": "bytes32",
          "name": "",
          "type": "bytes32"
        }
      ],
      "stateMutability": "view",
      "type": "function"
    },
    {
      "inputs": [],
      "name": "SERVICE_ROLE",
      "outputs": [
        {
          "internalType": "bytes32",
          "name": "",
          "type": "bytes32"
        }
      ],
      "stateMutability": "view",
      "type": "function"
    },
    {
      "inputs": [],
      "name": "UPGRADER_ROLE",
      "outputs": [
        {
          "internalType": "bytes32",
          "name": "",
          "type": "bytes32"
        }
      ],
      "stateMutability": "view",
      "type": "function"
    },
    {
      "inputs": [
        {
          "internalType": "bytes32",
          "name": "role",
          "type": "bytes32"
        }
      ],
      "name": "getRoleAdmin",
      "outputs": [
        {
          "internalType": "bytes32",
          "name": "",
          "type": "bytes32"
        }
      ],
      "stateMutability": "view",
      "type": "function"
    },
    {
      "inputs": [
        {
          "internalType": "string",
          "name": "symbol",
          "type": "string"
        }
      ],
      "name": "getTokenPriceUSD",
      "outputs": [
        {
          "internalType": "uint256",
          "name": "",
          "type": "uint256"
        }
      ],
      "stateMutability": "view",
      "type": "function"
    },
    {
      "inputs": [
        {
          "internalType": "bytes32",
          "name": "role",
          "type": "bytes32"
        },
        {
          "internalType": "address",
          "name": "account",
          "type": "address"
        }
      ],
      "name": "grantRole",
      "outputs": [],
      "stateMutability": "nonpayable",
      "type": "function"
    },
    {
      "inputs": [
        {
          "internalType": "bytes32",
          "name": "role",
          "type": "bytes32"
        },
        {
          "internalType": "address",
          "name": "account",
          "type": "address"
        }
      ],
      "name": "hasRole",
      "outputs": [
        {
          "internalType": "bool",
          "name": "",
          "type": "bool"
        }
      ],
      "stateMutability": "view",
      "type": "function"
    },
    {
      "inputs": [
        {
          "internalType": "address",
          "name": "service",
          "type": "address"
        },
        {
          "internalType": "uint256",
          "name": "_validTime",
          "type": "uint256"
        }
      ],
      "name": "initialize",
      "outputs": [],
      "stateMutability": "nonpayable",
      "type": "function"
    },
    {
      "inputs": [],
      "name": "lastNonce",
      "outputs": [
        {
          "internalType": "uint256",
          "name": "",
          "type": "uint256"
        }
      ],
      "stateMutability": "view",
      "type": "function"
    },
    {
      "inputs": [],
      "name": "proxiableUUID",
      "outputs": [
        {
          "internalType": "bytes32",
          "name": "",
          "type": "bytes32"
        }
      ],
      "stateMutability": "view",
      "type": "function"
    },
    {
      "inputs": [
        {
          "internalType": "bytes32",
          "name": "role",
          "type": "bytes32"
        },
        {
          "internalType": "address",
          "name": "account",
          "type": "address"
        }
      ],
      "name": "renounceRole",
      "outputs": [],
      "stateMutability": "nonpayable",
      "type": "function"
    },
    {
      "inputs": [
        {
          "internalType": "bytes32",
          "name": "role",
          "type": "bytes32"
        },
        {
          "internalType": "address",
          "name": "account",
          "type": "address"
        }
      ],
      "name": "revokeRole",
      "outputs": [],
      "stateMutability": "nonpayable",
      "type": "function"
    },
    {
      "inputs": [
        {
          "internalType": "uint256",
          "name": "timestamp",
          "type": "uint256"
        },
        {
          "internalType": "uint256",
          "name": "price",
          "type": "uint256"
        },
        {
          "internalType": "uint8",
          "name": "v",
          "type": "uint8"
        },
        {
          "internalType": "bytes32",
          "name": "r",
          "type": "bytes32"
        },
        {
          "internalType": "bytes32",
          "name": "s",
          "type": "bytes32"
        },
        {
          "internalType": "string",
          "name": "symbol",
          "type": "string"
        }
      ],
      "name": "setTokenPriceUSD",
      "outputs": [],
      "stateMutability": "nonpayable",
      "type": "function"
    },
    {
      "inputs": [
        {
          "internalType": "uint256",
          "name": "timestamp",
          "type": "uint256"
        },
        {
          "internalType": "uint8",
          "name": "v",
          "type": "uint8"
        },
        {
          "internalType": "bytes32",
          "name": "r",
          "type": "bytes32"
        },
        {
          "internalType": "bytes32",
          "name": "s",
          "type": "bytes32"
        },
        {
          "internalType": "uint256[]",
          "name": "prices",
          "type": "uint256[]"
        },
        {
          "internalType": "string[]",
          "name": "symbols",
          "type": "string[]"
        }
      ],
      "name": "setTokenPricesUSD",
      "outputs": [],
      "stateMutability": "nonpayable",
      "type": "function"
    },
    {
      "inputs": [
        {
          "internalType": "uint256",
          "name": "_validTime",
          "type": "uint256"
        }
      ],
      "name": "setValidTime",
      "outputs": [],
      "stateMutability": "nonpayable",
      "type": "function"
    },
    {
      "inputs": [
        {
          "internalType": "bytes4",
          "name": "interfaceId",
          "type": "bytes4"
        }
      ],
      "name": "supportsInterface",
      "outputs": [
        {
          "internalType": "bool",
          "name": "",
          "type": "bool"
        }
      ],
      "stateMutability": "view",
      "type": "function"
    },
    {
      "inputs": [
        {
          "internalType": "string",
          "name": "",
          "type": "string"
        }
      ],
      "name": "tokens",
      "outputs": [
        {
          "internalType": "uint256",
          "name": "price",
          "type": "uint256"
        },
        {
          "internalType": "uint256",
          "name": "updatedTime",
          "type": "uint256"
        },
        {
          "internalType": "bool",
          "name": "enabled",
          "type": "bool"
        }
      ],
      "stateMutability": "view",
      "type": "function"
    },
    {
      "inputs": [
        {
          "internalType": "bool",
          "name": "enabled",
          "type": "bool"
        },
        {
          "internalType": "string",
          "name": "symbol",
          "type": "string"
        }
      ],
      "name": "updateToken",
      "outputs": [],
      "stateMutability": "nonpayable",
      "type": "function"
    },
    {
      "inputs": [
        {
          "internalType": "address",
          "name": "newImplementation",
          "type": "address"
        }
      ],
      "name": "upgradeTo",
      "outputs": [],
      "stateMutability": "nonpayable",
      "type": "function"
    },
    {
      "inputs": [
        {
          "internalType": "address",
          "name": "newImplementation",
          "type": "address"
        },
        {
          "internalType": "bytes",
          "name": "data",
          "type": "bytes"
        }
      ],
      "name": "upgradeToAndCall",
      "outputs": [],
      "stateMutability": "payable",
      "type": "function"
    },
    {
      "inputs": [],
      "name": "validTime",
      "outputs": [
        {
          "internalType": "uint256",
          "name": "",
          "type": "uint256"
        }
      ],
      "stateMutability": "view",
      "type": "function"
    }
  ],
  "bytecode": "0x60a0604052306080523480156200001557600080fd5b50600054610100900460ff16620000335760005460ff16156200003d565b6200003d620000e2565b620000a55760405162461bcd60e51b815260206004820152602e60248201527f496e697469616c697a61626c653a20636f6e747261637420697320616c72656160448201526d191e481a5b9a5d1a585b1a5e995960921b606482015260840160405180910390fd5b600054610100900460ff16158015620000c8576000805461ffff19166101011790555b8015620000db576000805461ff00191690555b506200010f565b6000620000fa306200010060201b620010631760201c565b15905090565b6001600160a01b03163b151590565b608051612454620001476000396000818161061901528181610659015281816107180152818161075801526107e701526124546000f3fe6080604052600436106101355760003560e01c80636339199e116100ab578063a217fddf1161006f578063a217fddf14610398578063bbe44917146103ad578063c406c811146103c3578063cd6dc687146103e3578063d547741f14610403578063f72c0d8b1461042357600080fd5b80636339199e146102f45780636cdca5f51461031457806375b238fc1461033457806391d1485414610356578063a20e7d471461037657600080fd5b806336568abe116100fd57806336568abe146102565780633659cfe6146102765780634c93c1e2146102965780634f1ef286146102b657806352631ab4146102c957806352d1902d146102df57600080fd5b806301ffc9a71461013a5780630292e0fd1461016f57806304c2320b1461019d578063248a9ca3146102045780632f2ff15d14610234575b600080fd5b34801561014657600080fd5b5061015a610155366004611abf565b610445565b60405190151581526020015b60405180910390f35b34801561017b57600080fd5b5061018f61018a366004611b32565b61047c565b604051908152602001610166565b3480156101a957600080fd5b506101e76101b8366004611c00565b805160208183018101805160fd8252928201919093012091528054600182015460029092015490919060ff1683565b604080519384526020840192909252151590820152606001610166565b34801561021057600080fd5b5061018f61021f366004611c51565b60009081526065602052604090206001015490565b34801561024057600080fd5b5061025461024f366004611c86565b610565565b005b34801561026257600080fd5b50610254610271366004611c86565b610590565b34801561028257600080fd5b50610254610291366004611cb2565b61060e565b3480156102a257600080fd5b506102546102b1366004611c51565b6106ee565b6102546102c4366004611ccd565b61070d565b3480156102d557600080fd5b5061018f60fc5481565b3480156102eb57600080fd5b5061018f6107da565b34801561030057600080fd5b5061025461030f366004611d85565b61088d565b34801561032057600080fd5b5061025461032f366004611e22565b610c36565b34801561034057600080fd5b5061018f6000805160206123ff83398151915281565b34801561036257600080fd5b5061015a610371366004611c86565b610e4f565b34801561038257600080fd5b5061018f60008051602061237883398151915281565b3480156103a457600080fd5b5061018f600081565b3480156103b957600080fd5b5061018f60fb5481565b3480156103cf57600080fd5b506102546103de366004611e9d565b610e7a565b3480156103ef57600080fd5b506102546103fe366004611ef7565b610ecf565b34801561040f57600080fd5b5061025461041e366004611c86565b61103d565b34801561042f57600080fd5b5061018f60008051602061239883398151915281565b60006001600160e01b03198216637965db0b60e01b148061047657506301ffc9a760e01b6001600160e01b03198316145b92915050565b60008060fd8484604051610491929190611f21565b908152604051908190036020019020600281015490915060ff166104fc5760405162461bcd60e51b815260206004820181905260248201527f575150726963654f7261636c653a20546f6b656e2069732064697361626c656460448201526064015b60405180910390fd5b60fb54816001015461050e9190611f47565b42111561055d5760405162461bcd60e51b815260206004820181905260248201527f575150726963654f7261636c653a205072696365206973206f7574646174656460448201526064016104f3565b549392505050565b6000828152606560205260409020600101546105818133611072565b61058b83836110d6565b505050565b6001600160a01b03811633146106005760405162461bcd60e51b815260206004820152602f60248201527f416363657373436f6e74726f6c3a2063616e206f6e6c792072656e6f756e636560448201526e103937b632b9903337b91039b2b63360891b60648201526084016104f3565b61060a828261115c565b5050565b306001600160a01b037f00000000000000000000000000000000000000000000000000000000000000001614156106575760405162461bcd60e51b81526004016104f390611f5f565b7f00000000000000000000000000000000000000000000000000000000000000006001600160a01b03166106a06000805160206123b8833981519152546001600160a01b031690565b6001600160a01b0316146106c65760405162461bcd60e51b81526004016104f390611fab565b6106cf816111c3565b604080516000808252602082019092526106eb918391906111dc565b50565b6000805160206123ff8339815191526107078133611072565b5060fb55565b306001600160a01b037f00000000000000000000000000000000000000000000000000000000000000001614156107565760405162461bcd60e51b81526004016104f390611f5f565b7f00000000000000000000000000000000000000000000000000000000000000006001600160a01b031661079f6000805160206123b8833981519152546001600160a01b031690565b6001600160a01b0316146107c55760405162461bcd60e51b81526004016104f390611fab565b6107ce826111c3565b61060a828260016111dc565b6000306001600160a01b037f0000000000000000000000000000000000000000000000000000000000000000161461087a5760405162461bcd60e51b815260206004820152603860248201527f555550535570677261646561626c653a206d757374206e6f742062652063616c60448201527f6c6564207468726f7567682064656c656761746563616c6c000000000000000060648201526084016104f3565b506000805160206123b883398151915290565b8281146108f05760405162461bcd60e51b815260206004820152602b60248201527f575150726963654f7261636c653a204172726179206c656e677468732061726560448201526a206e6f7420657175616c7360a81b60648201526084016104f3565b60fc5488116109115760405162461bcd60e51b81526004016104f390611ff7565b606060005b8281101561097957818484838181106109315761093161205f565b90506020028101906109439190612075565b604051602001610955939291906120e8565b6040516020818303038152906040529150808061097190612110565b915050610916565b50610a146000805160206123788339815191526103718a8a8a610a0c8f8c8c8a6040516020016109ac949392919061212b565b60408051601f1981840301815282825280516020918201207f19457468657265756d205369676e6564204d6573736167653a0a33320000000084830152603c8085019190915282518085039091018152605c909301909152815191012090565b929190611356565b610a305760405162461bcd60e51b81526004016104f39061217e565b60fc89905560005b84811015610c2a5760fd848483818110610a5457610a5461205f565b9050602002810190610a669190612075565b604051610a74929190611f21565b9081526040519081900360200190206002015460ff168015610af45750600260fb54610aa091906121c7565b60fd858584818110610ab457610ab461205f565b9050602002810190610ac69190612075565b604051610ad4929190611f21565b908152602001604051809103902060010154610af09190611f47565b4210155b15610c1857858582818110610b0b57610b0b61205f565b9050602002013560fd858584818110610b2657610b2661205f565b9050602002810190610b389190612075565b604051610b46929190611f21565b908152604051908190036020019020554260fd858584818110610b6b57610b6b61205f565b9050602002810190610b7d9190612075565b604051610b8b929190611f21565b908152604051908190036020019020600101557fd2bb0cf37c5e668ca2dd8391d50eeb1fbc95a95067b6526b7a5765334eb821df8a878784818110610bd257610bd261205f565b9050602002013542878786818110610bec57610bec61205f565b9050602002810190610bfe9190612075565b604051610c0f9594939291906121e9565b60405180910390a15b80610c2281612110565b915050610a38565b50505050505050505050565b60fd8282604051610c48929190611f21565b9081526040519081900360200190206002015460ff16610caa5760405162461bcd60e51b815260206004820181905260248201527f575150726963654f7261636c653a20546f6b656e2069732064697361626c656460448201526064016104f3565b60fc548711610ccb5760405162461bcd60e51b81526004016104f390611ff7565b600260fb54610cda91906121c7565b60fd8383604051610cec929190611f21565b908152602001604051809103902060010154610d089190611f47565b421015610d685760405162461bcd60e51b815260206004820152602860248201527f575150726963654f7261636c653a205072696365206973206e6f74206f757464604482015267185d1959081e595d60c21b60648201526084016104f3565b610d9a600080516020612378833981519152610371878787610a0c8d8d8a8a6040516020016109ac949392919061222d565b610db65760405162461bcd60e51b81526004016104f39061217e565b8560fd8383604051610dc9929190611f21565b90815260405190819003602001812091909155429060fd90610dee9085908590611f21565b9081526040519081900360200181206001019190915560fc8890557fd2bb0cf37c5e668ca2dd8391d50eeb1fbc95a95067b6526b7a5765334eb821df90610e3e90899089904290879087906121e9565b60405180910390a150505050505050565b60009182526065602090815260408084206001600160a01b0393909316845291905290205460ff1690565b6000805160206123ff833981519152610e938133611072565b8360fd8484604051610ea6929190611f21565b908152604051908190036020019020600201805491151560ff1990921691909117905550505050565b600054610100900460ff16610eea5760005460ff1615610eee565b303b155b610f515760405162461bcd60e51b815260206004820152602e60248201527f496e697469616c697a61626c653a20636f6e747261637420697320616c72656160448201526d191e481a5b9a5d1a585b1a5e995960921b60648201526084016104f3565b600054610100900460ff16158015610f73576000805461ffff19166101011790555b610f7b61137e565b610f8361137e565b610f8e6000336113eb565b610fa66000805160206123ff833981519152336113eb565b610fbe600080516020612398833981519152336113eb565b610fd6600080516020612378833981519152846113eb565b610ffc6000805160206123988339815191526000805160206123ff8339815191526113f5565b6110226000805160206123788339815191526000805160206123ff8339815191526113f5565b60fb829055801561058b576000805461ff0019169055505050565b6000828152606560205260409020600101546110598133611072565b61058b838361115c565b6001600160a01b03163b151590565b61107c8282610e4f565b61060a57611094816001600160a01b03166014611440565b61109f836020611440565b6040516020016110b092919061224e565b60408051601f198184030181529082905262461bcd60e51b82526104f3916004016122c3565b6110e08282610e4f565b61060a5760008281526065602090815260408083206001600160a01b03851684529091529020805460ff191660011790556111183390565b6001600160a01b0316816001600160a01b0316837f2f8788117e7eff1d82e926ec794901d17c78024a50270940304540a733656f0d60405160405180910390a45050565b6111668282610e4f565b1561060a5760008281526065602090815260408083206001600160a01b0385168085529252808320805460ff1916905551339285917ff6391f5c32d9c69d2a47ea670b442974b53935d1edc7fd64eb21e047a839171b9190a45050565b60008051602061239883398151915261060a8133611072565b7f4910fdfa16fed3260ed0e7147f7cc6da11a60208b5b9406d12a635614ffd91435460ff161561120f5761058b836115e3565b826001600160a01b03166352d1902d6040518163ffffffff1660e01b815260040160206040518083038186803b15801561124857600080fd5b505afa925050508015611278575060408051601f3d908101601f19168201909252611275918101906122f6565b60015b6112db5760405162461bcd60e51b815260206004820152602e60248201527f45524331393637557067726164653a206e657720696d706c656d656e7461746960448201526d6f6e206973206e6f74205555505360901b60648201526084016104f3565b6000805160206123b8833981519152811461134a5760405162461bcd60e51b815260206004820152602960248201527f45524331393637557067726164653a20756e737570706f727465642070726f786044820152681a58589b195555525160ba1b60648201526084016104f3565b5061058b83838361167f565b6000806000611367878787876116aa565b9150915061137481611797565b5095945050505050565b600054610100900460ff166113e95760405162461bcd60e51b815260206004820152602b60248201527f496e697469616c697a61626c653a20636f6e7472616374206973206e6f74206960448201526a6e697469616c697a696e6760a81b60648201526084016104f3565b565b61060a82826110d6565b600082815260656020526040808220600101805490849055905190918391839186917fbd79b86ffe0ab8e8776151514217cd7cacd52c909f66475c3af44e129f0b00ff9190a4505050565b6060600061144f83600261230f565b61145a906002611f47565b67ffffffffffffffff81111561147257611472611b74565b6040519080825280601f01601f19166020018201604052801561149c576020820181803683370190505b509050600360fc1b816000815181106114b7576114b761205f565b60200101906001600160f81b031916908160001a905350600f60fb1b816001815181106114e6576114e661205f565b60200101906001600160f81b031916908160001a905350600061150a84600261230f565b611515906001611f47565b90505b600181111561158d576f181899199a1a9b1b9c1cb0b131b232b360811b85600f16601081106115495761154961205f565b1a60f81b82828151811061155f5761155f61205f565b60200101906001600160f81b031916908160001a90535060049490941c936115868161232e565b9050611518565b5083156115dc5760405162461bcd60e51b815260206004820181905260248201527f537472696e67733a20686578206c656e67746820696e73756666696369656e7460448201526064016104f3565b9392505050565b6001600160a01b0381163b6116505760405162461bcd60e51b815260206004820152602d60248201527f455243313936373a206e657720696d706c656d656e746174696f6e206973206e60448201526c1bdd08184818dbdb9d1c9858dd609a1b60648201526084016104f3565b6000805160206123b883398151915280546001600160a01b0319166001600160a01b0392909216919091179055565b61168883611952565b6000825111806116955750805b1561058b576116a48383611992565b50505050565b6000807f7fffffffffffffffffffffffffffffff5d576e7357a4501ddfe92f46681b20a08311156116e1575060009050600361178e565b8460ff16601b141580156116f957508460ff16601c14155b1561170a575060009050600461178e565b6040805160008082526020820180845289905260ff881692820192909252606081018690526080810185905260019060a0016020604051602081039080840390855afa15801561175e573d6000803e3d6000fd5b5050604051601f1901519150506001600160a01b0381166117875760006001925092505061178e565b9150600090505b94509492505050565b60008160048111156117ab576117ab612345565b14156117b45750565b60018160048111156117c8576117c8612345565b14156118165760405162461bcd60e51b815260206004820152601860248201527f45434453413a20696e76616c6964207369676e6174757265000000000000000060448201526064016104f3565b600281600481111561182a5761182a612345565b14156118785760405162461bcd60e51b815260206004820152601f60248201527f45434453413a20696e76616c6964207369676e6174757265206c656e6774680060448201526064016104f3565b600381600481111561188c5761188c612345565b14156118e55760405162461bcd60e51b815260206004820152602260248201527f45434453413a20696e76616c6964207369676e6174757265202773272076616c604482015261756560f01b60648201526084016104f3565b60048160048111156118f9576118f9612345565b14156106eb5760405162461bcd60e51b815260206004820152602260248201527f45434453413a20696e76616c6964207369676e6174757265202776272076616c604482015261756560f01b60648201526084016104f3565b61195b816115e3565b6040516001600160a01b038216907fbc7cd75a20ee27fd9adebab32041f755214dbc6bffa90cc0225b39da2e5c2d3b90600090a250565b60606001600160a01b0383163b6119fa5760405162461bcd60e51b815260206004820152602660248201527f416464726573733a2064656c65676174652063616c6c20746f206e6f6e2d636f6044820152651b9d1c9858dd60d21b60648201526084016104f3565b600080846001600160a01b031684604051611a15919061235b565b600060405180830381855af49150503d8060008114611a50576040519150601f19603f3d011682016040523d82523d6000602084013e611a55565b606091505b5091509150611a7d82826040518060600160405280602781526020016123d860279139611a86565b95945050505050565b60608315611a955750816115dc565b825115611aa55782518084602001fd5b8160405162461bcd60e51b81526004016104f391906122c3565b600060208284031215611ad157600080fd5b81356001600160e01b0319811681146115dc57600080fd5b60008083601f840112611afb57600080fd5b50813567ffffffffffffffff811115611b1357600080fd5b602083019150836020828501011115611b2b57600080fd5b9250929050565b60008060208385031215611b4557600080fd5b823567ffffffffffffffff811115611b5c57600080fd5b611b6885828601611ae9565b90969095509350505050565b634e487b7160e01b600052604160045260246000fd5b600067ffffffffffffffff80841115611ba557611ba5611b74565b604051601f8501601f19908116603f01168101908282118183101715611bcd57611bcd611b74565b81604052809350858152868686011115611be657600080fd5b858560208301376000602087830101525050509392505050565b600060208284031215611c1257600080fd5b813567ffffffffffffffff811115611c2957600080fd5b8201601f81018413611c3a57600080fd5b611c4984823560208401611b8a565b949350505050565b600060208284031215611c6357600080fd5b5035919050565b80356001600160a01b0381168114611c8157600080fd5b919050565b60008060408385031215611c9957600080fd5b82359150611ca960208401611c6a565b90509250929050565b600060208284031215611cc457600080fd5b6115dc82611c6a565b60008060408385031215611ce057600080fd5b611ce983611c6a565b9150602083013567ffffffffffffffff811115611d0557600080fd5b8301601f81018513611d1657600080fd5b611d2585823560208401611b8a565b9150509250929050565b803560ff81168114611c8157600080fd5b60008083601f840112611d5257600080fd5b50813567ffffffffffffffff811115611d6a57600080fd5b6020830191508360208260051b8501011115611b2b57600080fd5b60008060008060008060008060c0898b031215611da157600080fd5b88359750611db160208a01611d2f565b96506040890135955060608901359450608089013567ffffffffffffffff80821115611ddc57600080fd5b611de88c838d01611d40565b909650945060a08b0135915080821115611e0157600080fd5b50611e0e8b828c01611d40565b999c989b5096995094979396929594505050565b600080600080600080600060c0888a031215611e3d57600080fd5b8735965060208801359550611e5460408901611d2f565b9450606088013593506080880135925060a088013567ffffffffffffffff811115611e7e57600080fd5b611e8a8a828b01611ae9565b989b979a50959850939692959293505050565b600080600060408486031215611eb257600080fd5b83358015158114611ec257600080fd5b9250602084013567ffffffffffffffff811115611ede57600080fd5b611eea86828701611ae9565b9497909650939450505050565b60008060408385031215611f0a57600080fd5b611f1383611c6a565b946020939093013593505050565b8183823760009101908152919050565b634e487b7160e01b600052601160045260246000fd5b60008219821115611f5a57611f5a611f31565b500190565b6020808252602c908201527f46756e6374696f6e206d7573742062652063616c6c6564207468726f7567682060408201526b19195b1959d85d1958d85b1b60a21b606082015260800190565b6020808252602c908201527f46756e6374696f6e206d7573742062652063616c6c6564207468726f7567682060408201526b6163746976652070726f787960a01b606082015260800190565b60208082526042908201527f575150726963654f7261636c653a20496e76616c6964206e6f6e63652076616c60408201527f75652c206d75737420626520677265617465722074686174206c6173744e6f6e606082015261636560f01b608082015260a00190565b634e487b7160e01b600052603260045260246000fd5b6000808335601e1984360301811261208c57600080fd5b83018035915067ffffffffffffffff8211156120a757600080fd5b602001915036819003821315611b2b57600080fd5b60005b838110156120d75781810151838201526020016120bf565b838111156116a45750506000910152565b600084516120fa8184602089016120bc565b8201838582376000930192835250909392505050565b600060001982141561212457612124611f31565b5060010190565b84815260006001600160fb1b0384111561214457600080fd5b8360051b8086602085013780830190506020810160008152845161216c8183602089016120bc565b91909101602001979650505050505050565b60208082526029908201527f575150726963654f7261636c653a2076616c696461746f72206973206e6f742060408201526861207365727669636560b81b606082015260800190565b6000826121e457634e487b7160e01b600052601260045260246000fd5b500490565b85815284602082015283604082015260806060820152816080820152818360a0830137600081830160a090810191909152601f909201601f19160101949350505050565b84815283602082015281836040830137600091016040019081529392505050565b7f416363657373436f6e74726f6c3a206163636f756e74200000000000000000008152600083516122868160178501602088016120bc565b7001034b99036b4b9b9b4b733903937b6329607d1b60179184019182015283516122b78160288401602088016120bc565b01602801949350505050565b60208152600082518060208401526122e28160408501602087016120bc565b601f01601f19169190910160400192915050565b60006020828403121561230857600080fd5b5051919050565b600081600019048311821515161561232957612329611f31565b500290565b60008161233d5761233d611f31565b506000190190565b634e487b7160e01b600052602160045260246000fd5b6000825161236d8184602087016120bc565b919091019291505056fed8a7a79547af723ee3e12b59a480111268d8969c634e1a34a144d2c8b91d635b189ab7a9244df0848122154315af71fe140f3db0fe014031783b0946b8c9d2e3360894a13ba1a3210667c828492db98dca3e2076cc3735a920a3ca505d382bbc416464726573733a206c6f772d6c6576656c2064656c65676174652063616c6c206661696c6564a49807205ce4d355092ef5a8a18f56e8913cf4a201fbe287825b095693c21775a26469706673582212205bd4f5299b7ddecaf211553a7497e171264675354c62f2e594bc21b90577ead864736f6c63430008090033",
  "linkReferences": {},
  "deployedLinkReferences": {}
}