{
  "_format": "hh-sol-artifact-1",
  "contractName": "WQPriceOracle",
  "sourceName": "contracts/stablecoin/WQPriceOracle.sol",
  "abi": [
    {
      "inputs": [],
      "stateMutability": "nonpayable",
      "type": "constructor"
    },
    {
      "anonymous": false,
      "inputs": [
        {
          "indexed": false,
          "internalType": "address",
          "name": "previousAdmin",
          "type": "address"
        },
        {
          "indexed": false,
          "internalType": "address",
          "name": "newAdmin",
          "type": "address"
        }
      ],
      "name": "AdminChanged",
      "type": "event"
    },
    {
      "anonymous": false,
      "inputs": [
        {
          "indexed": true,
          "internalType": "address",
          "name": "beacon",
          "type": "address"
        }
      ],
      "name": "BeaconUpgraded",
      "type": "event"
    },
    {
      "anonymous": false,
      "inputs": [
        {
          "indexed": false,
          "internalType": "uint256",
          "name": "nonce",
          "type": "uint256"
        },
        {
          "indexed": false,
          "internalType": "uint256",
          "name": "price",
          "type": "uint256"
        },
        {
          "indexed": false,
          "internalType": "uint256",
          "name": "timestamp",
          "type": "uint256"
        },
        {
          "indexed": false,
          "internalType": "string",
          "name": "symbol",
          "type": "string"
        }
      ],
      "name": "Priced",
      "type": "event"
    },
    {
      "anonymous": false,
      "inputs": [
        {
          "indexed": true,
          "internalType": "bytes32",
          "name": "role",
          "type": "bytes32"
        },
        {
          "indexed": true,
          "internalType": "bytes32",
          "name": "previousAdminRole",
          "type": "bytes32"
        },
        {
          "indexed": true,
          "internalType": "bytes32",
          "name": "newAdminRole",
          "type": "bytes32"
        }
      ],
      "name": "RoleAdminChanged",
      "type": "event"
    },
    {
      "anonymous": false,
      "inputs": [
        {
          "indexed": true,
          "internalType": "bytes32",
          "name": "role",
          "type": "bytes32"
        },
        {
          "indexed": true,
          "internalType": "address",
          "name": "account",
          "type": "address"
        },
        {
          "indexed": true,
          "internalType": "address",
          "name": "sender",
          "type": "address"
        }
      ],
      "name": "RoleGranted",
      "type": "event"
    },
    {
      "anonymous": false,
      "inputs": [
        {
          "indexed": true,
          "internalType": "bytes32",
          "name": "role",
          "type": "bytes32"
        },
        {
          "indexed": true,
          "internalType": "address",
          "name": "account",
          "type": "address"
        },
        {
          "indexed": true,
          "internalType": "address",
          "name": "sender",
          "type": "address"
        }
      ],
      "name": "RoleRevoked",
      "type": "event"
    },
    {
      "anonymous": false,
      "inputs": [
        {
          "indexed": true,
          "internalType": "address",
          "name": "implementation",
          "type": "address"
        }
      ],
      "name": "Upgraded",
      "type": "event"
    },
    {
      "inputs": [],
      "name": "ADMIN_ROLE",
      "outputs": [
        {
          "internalType": "bytes32",
          "name": "",
          "type": "bytes32"
        }
      ],
      "stateMutability": "view",
      "type": "function"
    },
    {
      "inputs": [],
      "name": "DEFAULT_ADMIN_ROLE",
      "outputs": [
        {
          "internalType": "bytes32",
          "name": "",
          "type": "bytes32"
        }
      ],
      "stateMutability": "view",
      "type": "function"
    },
    {
      "inputs": [],
      "name": "SERVICE_ROLE",
      "outputs": [
        {
          "internalType": "bytes32",
          "name": "",
          "type": "bytes32"
        }
      ],
      "stateMutability": "view",
      "type": "function"
    },
    {
      "inputs": [],
      "name": "UPGRADER_ROLE",
      "outputs": [
        {
          "internalType": "bytes32",
          "name": "",
          "type": "bytes32"
        }
      ],
      "stateMutability": "view",
      "type": "function"
    },
    {
      "inputs": [
        {
          "internalType": "bytes32",
          "name": "role",
          "type": "bytes32"
        }
      ],
      "name": "getRoleAdmin",
      "outputs": [
        {
          "internalType": "bytes32",
          "name": "",
          "type": "bytes32"
        }
      ],
      "stateMutability": "view",
      "type": "function"
    },
    {
      "inputs": [
        {
          "internalType": "string",
          "name": "symbol",
          "type": "string"
        }
      ],
      "name": "getTokenMaxRatio",
      "outputs": [
        {
          "internalType": "uint256",
          "name": "",
          "type": "uint256"
        }
      ],
      "stateMutability": "view",
      "type": "function"
    },
    {
      "inputs": [
        {
          "internalType": "string",
          "name": "symbol",
          "type": "string"
        }
      ],
      "name": "getTokenPriceUSD",
      "outputs": [
        {
          "internalType": "uint256",
          "name": "",
          "type": "uint256"
        }
      ],
      "stateMutability": "view",
      "type": "function"
    },
    {
      "inputs": [
        {
          "internalType": "bytes32",
          "name": "role",
          "type": "bytes32"
        },
        {
          "internalType": "address",
          "name": "account",
          "type": "address"
        }
      ],
      "name": "grantRole",
      "outputs": [],
      "stateMutability": "nonpayable",
      "type": "function"
    },
    {
      "inputs": [
        {
          "internalType": "bytes32",
          "name": "role",
          "type": "bytes32"
        },
        {
          "internalType": "address",
          "name": "account",
          "type": "address"
        }
      ],
      "name": "hasRole",
      "outputs": [
        {
          "internalType": "bool",
          "name": "",
          "type": "bool"
        }
      ],
      "stateMutability": "view",
      "type": "function"
    },
    {
      "inputs": [
        {
          "internalType": "address",
          "name": "service",
          "type": "address"
        },
        {
          "internalType": "uint256",
          "name": "_validTime",
          "type": "uint256"
        }
      ],
      "name": "initialize",
      "outputs": [],
      "stateMutability": "nonpayable",
      "type": "function"
    },
    {
      "inputs": [],
      "name": "lastNonce",
      "outputs": [
        {
          "internalType": "uint256",
          "name": "",
          "type": "uint256"
        }
      ],
      "stateMutability": "view",
      "type": "function"
    },
    {
      "inputs": [],
      "name": "proxiableUUID",
      "outputs": [
        {
          "internalType": "bytes32",
          "name": "",
          "type": "bytes32"
        }
      ],
      "stateMutability": "view",
      "type": "function"
    },
    {
      "inputs": [
        {
          "internalType": "bytes32",
          "name": "role",
          "type": "bytes32"
        },
        {
          "internalType": "address",
          "name": "account",
          "type": "address"
        }
      ],
      "name": "renounceRole",
      "outputs": [],
      "stateMutability": "nonpayable",
      "type": "function"
    },
    {
      "inputs": [
        {
          "internalType": "bytes32",
          "name": "role",
          "type": "bytes32"
        },
        {
          "internalType": "address",
          "name": "account",
          "type": "address"
        }
      ],
      "name": "revokeRole",
      "outputs": [],
      "stateMutability": "nonpayable",
      "type": "function"
    },
    {
      "inputs": [
        {
          "internalType": "uint256",
          "name": "timestamp",
          "type": "uint256"
        },
        {
          "internalType": "uint8",
          "name": "v",
          "type": "uint8"
        },
        {
          "internalType": "bytes32",
          "name": "r",
          "type": "bytes32"
        },
        {
          "internalType": "bytes32",
          "name": "s",
          "type": "bytes32"
        },
        {
          "internalType": "uint256[]",
          "name": "prices",
          "type": "uint256[]"
        },
        {
          "internalType": "uint256[]",
          "name": "maxRatio",
          "type": "uint256[]"
        },
        {
          "internalType": "string[]",
          "name": "symbols",
          "type": "string[]"
        }
      ],
      "name": "setTokenPricesUSD",
      "outputs": [],
      "stateMutability": "nonpayable",
      "type": "function"
    },
    {
      "inputs": [
        {
          "internalType": "uint256",
          "name": "_validTime",
          "type": "uint256"
        }
      ],
      "name": "setValidTime",
      "outputs": [],
      "stateMutability": "nonpayable",
      "type": "function"
    },
    {
      "inputs": [
        {
          "internalType": "bytes4",
          "name": "interfaceId",
          "type": "bytes4"
        }
      ],
      "name": "supportsInterface",
      "outputs": [
        {
          "internalType": "bool",
          "name": "",
          "type": "bool"
        }
      ],
      "stateMutability": "view",
      "type": "function"
    },
    {
      "inputs": [
        {
          "internalType": "string",
          "name": "",
          "type": "string"
        }
      ],
      "name": "tokens",
      "outputs": [
        {
          "internalType": "uint256",
          "name": "price",
          "type": "uint256"
        },
        {
          "internalType": "uint256",
          "name": "maxRatio",
          "type": "uint256"
        },
        {
          "internalType": "uint256",
          "name": "updatedTime",
          "type": "uint256"
        },
        {
          "internalType": "bool",
          "name": "enabled",
          "type": "bool"
        }
      ],
      "stateMutability": "view",
      "type": "function"
    },
    {
      "inputs": [
        {
          "internalType": "bool",
          "name": "enabled",
          "type": "bool"
        },
        {
          "internalType": "string",
          "name": "symbol",
          "type": "string"
        }
      ],
      "name": "updateToken",
      "outputs": [],
      "stateMutability": "nonpayable",
      "type": "function"
    },
    {
      "inputs": [
        {
          "internalType": "address",
          "name": "newImplementation",
          "type": "address"
        }
      ],
      "name": "upgradeTo",
      "outputs": [],
      "stateMutability": "nonpayable",
      "type": "function"
    },
    {
      "inputs": [
        {
          "internalType": "address",
          "name": "newImplementation",
          "type": "address"
        },
        {
          "internalType": "bytes",
          "name": "data",
          "type": "bytes"
        }
      ],
      "name": "upgradeToAndCall",
      "outputs": [],
      "stateMutability": "payable",
      "type": "function"
    },
    {
      "inputs": [],
      "name": "validTime",
      "outputs": [
        {
          "internalType": "uint256",
          "name": "",
          "type": "uint256"
        }
      ],
      "stateMutability": "view",
      "type": "function"
    }
  ],
  "bytecode": "0x60a0604052306080523480156200001557600080fd5b50600054610100900460ff16620000335760005460ff16156200003d565b6200003d620000e2565b620000a55760405162461bcd60e51b815260206004820152602e60248201527f496e697469616c697a61626c653a20636f6e747261637420697320616c72656160448201526d191e481a5b9a5d1a585b1a5e995960921b606482015260840160405180910390fd5b600054610100900460ff16158015620000c8576000805461ffff19166101011790555b8015620000db576000805461ff00191690555b506200010f565b6000620000fa306200010060201b62000f991760201c565b15905090565b6001600160a01b03163b151590565b608051612303620001476000396000818161070b0152818161074b0152818161080a0152818161084a01526108d901526123036000f3fe6080604052600436106101355760003560e01c806352d1902d116100ab578063a217fddf1161006f578063a217fddf146103a3578063bbe44917146103b8578063c406c811146103ce578063cd6dc687146103ee578063d547741f1461040e578063f72c0d8b1461042e57600080fd5b806352d1902d1461030a57806375b238fc1461031f57806391d14854146103415780639f04b10f14610361578063a20e7d471461038157600080fd5b80632f2ff15d116100fd5780632f2ff15d1461025f57806336568abe146102815780633659cfe6146102a15780634c93c1e2146102c15780634f1ef286146102e157806352631ab4146102f457600080fd5b806301ffc9a71461013a5780630292e0fd1461016f57806304c2320b1461019d57806315820cd61461020f578063248a9ca31461022f575b600080fd5b34801561014657600080fd5b5061015a6101553660046119f5565b610450565b60405190151581526020015b60405180910390f35b34801561017b57600080fd5b5061018f61018a366004611a68565b610487565b604051908152602001610166565b3480156101a957600080fd5b506101ed6101b8366004611b69565b805160208183018101805160fd8252928201919093012091528054600182015460028301546003909301549192909160ff1684565b6040805194855260208501939093529183015215156060820152608001610166565b34801561021b57600080fd5b5061018f61022a366004611a68565b610570565b34801561023b57600080fd5b5061018f61024a366004611ba6565b60009081526065602052604090206001015490565b34801561026b57600080fd5b5061027f61027a366004611bdb565b610657565b005b34801561028d57600080fd5b5061027f61029c366004611bdb565b610682565b3480156102ad57600080fd5b5061027f6102bc366004611c07565b610700565b3480156102cd57600080fd5b5061027f6102dc366004611ba6565b6107e0565b61027f6102ef366004611c22565b6107ff565b34801561030057600080fd5b5061018f60fc5481565b34801561031657600080fd5b5061018f6108cc565b34801561032b57600080fd5b5061018f6000805160206122ae83398151915281565b34801561034d57600080fd5b5061015a61035c366004611bdb565b61097f565b34801561036d57600080fd5b5061027f61037c366004611d93565b6109aa565b34801561038d57600080fd5b5061018f60008051602061222783398151915281565b3480156103af57600080fd5b5061018f600081565b3480156103c457600080fd5b5061018f60fb5481565b3480156103da57600080fd5b5061027f6103e9366004611e51565b610db0565b3480156103fa57600080fd5b5061027f610409366004611eab565b610e05565b34801561041a57600080fd5b5061027f610429366004611bdb565b610f73565b34801561043a57600080fd5b5061018f60008051602061224783398151915281565b60006001600160e01b03198216637965db0b60e01b148061048157506301ffc9a760e01b6001600160e01b03198316145b92915050565b60008060fd848460405161049c929190611ed5565b908152604051908190036020019020600381015490915060ff166105075760405162461bcd60e51b815260206004820181905260248201527f575150726963654f7261636c653a20546f6b656e2069732064697361626c656460448201526064015b60405180910390fd5b60fb5481600201546105199190611efb565b4211156105685760405162461bcd60e51b815260206004820181905260248201527f575150726963654f7261636c653a205072696365206973206f7574646174656460448201526064016104fe565b549392505050565b60008060fd8484604051610585929190611ed5565b908152604051908190036020019020600381015490915060ff166105eb5760405162461bcd60e51b815260206004820181905260248201527f575150726963654f7261636c653a20546f6b656e2069732064697361626c656460448201526064016104fe565b60fb5481600201546105fd9190611efb565b42111561064c5760405162461bcd60e51b815260206004820181905260248201527f575150726963654f7261636c653a205072696365206973206f7574646174656460448201526064016104fe565b600101549392505050565b6000828152606560205260409020600101546106738133610fa8565b61067d838361100c565b505050565b6001600160a01b03811633146106f25760405162461bcd60e51b815260206004820152602f60248201527f416363657373436f6e74726f6c3a2063616e206f6e6c792072656e6f756e636560448201526e103937b632b9903337b91039b2b63360891b60648201526084016104fe565b6106fc8282611092565b5050565b306001600160a01b037f00000000000000000000000000000000000000000000000000000000000000001614156107495760405162461bcd60e51b81526004016104fe90611f13565b7f00000000000000000000000000000000000000000000000000000000000000006001600160a01b0316610792600080516020612267833981519152546001600160a01b031690565b6001600160a01b0316146107b85760405162461bcd60e51b81526004016104fe90611f5f565b6107c1816110f9565b604080516000808252602082019092526107dd91839190611112565b50565b6000805160206122ae8339815191526107f98133610fa8565b5060fb55565b306001600160a01b037f00000000000000000000000000000000000000000000000000000000000000001614156108485760405162461bcd60e51b81526004016104fe90611f13565b7f00000000000000000000000000000000000000000000000000000000000000006001600160a01b0316610891600080516020612267833981519152546001600160a01b031690565b6001600160a01b0316146108b75760405162461bcd60e51b81526004016104fe90611f5f565b6108c0826110f9565b6106fc82826001611112565b6000306001600160a01b037f0000000000000000000000000000000000000000000000000000000000000000161461096c5760405162461bcd60e51b815260206004820152603860248201527f555550535570677261646561626c653a206d757374206e6f742062652063616c60448201527f6c6564207468726f7567682064656c656761746563616c6c000000000000000060648201526084016104fe565b5060008051602061226783398151915290565b60009182526065602090815260408084206001600160a01b0393909316845291905290205460ff1690565b60fc548711610a2c5760405162461bcd60e51b815260206004820152604260248201527f575150726963654f7261636c653a20496e76616c6964206e6f6e63652076616c60448201527f75652c206d75737420626520677265617465722074686174206c6173744e6f6e606482015261636560f01b608482015260a4016104fe565b606060005b8251811015610a8a5781838281518110610a4d57610a4d611fab565b6020026020010151604051602001610a66929190611fed565b60405160208183030381529060405291508080610a829061201c565b915050610a31565b50610b2560008051602061222783398151915261035c898989610b1d8e8b8b8a604051602001610abd949392919061206a565b60408051601f1981840301815282825280516020918201207f19457468657265756d205369676e6564204d6573736167653a0a33320000000084830152603c8085019190915282518085039091018152605c909301909152815191012090565b92919061128c565b610b835760405162461bcd60e51b815260206004820152602960248201527f575150726963654f7261636c653a2076616c696461746f72206973206e6f742060448201526861207365727669636560b81b60648201526084016104fe565b5060fc87905560005b8351811015610da65760fd828281518110610ba957610ba9611fab565b6020026020010151604051610bbe91906120a0565b9081526040519081900360200190206003015460ff168015610c335750600260fb54610bea91906120bc565b60fd838381518110610bfe57610bfe611fab565b6020026020010151604051610c1391906120a0565b908152602001604051809103902060020154610c2f9190611efb565b4210155b15610d9457838181518110610c4a57610c4a611fab565b602002602001015160fd838381518110610c6657610c66611fab565b6020026020010151604051610c7b91906120a0565b908152604051908190036020019020558251839082908110610c9f57610c9f611fab565b602002602001015160fd838381518110610cbb57610cbb611fab565b6020026020010151604051610cd091906120a0565b9081526020016040518091039020600101819055504260fd838381518110610cfa57610cfa611fab565b6020026020010151604051610d0f91906120a0565b9081526020016040518091039020600201819055507fd2bb0cf37c5e668ca2dd8391d50eeb1fbc95a95067b6526b7a5765334eb821df88858381518110610d5857610d58611fab565b602002602001015142858581518110610d7357610d73611fab565b6020026020010151604051610d8b949392919061210a565b60405180910390a15b80610d9e8161201c565b915050610b8c565b5050505050505050565b6000805160206122ae833981519152610dc98133610fa8565b8360fd8484604051610ddc929190611ed5565b908152604051908190036020019020600301805491151560ff1990921691909117905550505050565b600054610100900460ff16610e205760005460ff1615610e24565b303b155b610e875760405162461bcd60e51b815260206004820152602e60248201527f496e697469616c697a61626c653a20636f6e747261637420697320616c72656160448201526d191e481a5b9a5d1a585b1a5e995960921b60648201526084016104fe565b600054610100900460ff16158015610ea9576000805461ffff19166101011790555b610eb16112b4565b610eb96112b4565b610ec4600033611321565b610edc6000805160206122ae83398151915233611321565b610ef460008051602061224783398151915233611321565b610f0c60008051602061222783398151915284611321565b610f326000805160206122478339815191526000805160206122ae83398151915261132b565b610f586000805160206122278339815191526000805160206122ae83398151915261132b565b60fb829055801561067d576000805461ff0019169055505050565b600082815260656020526040902060010154610f8f8133610fa8565b61067d8383611092565b6001600160a01b03163b151590565b610fb2828261097f565b6106fc57610fca816001600160a01b03166014611376565b610fd5836020611376565b604051602001610fe6929190612139565b60408051601f198184030181529082905262461bcd60e51b82526104fe916004016121ae565b611016828261097f565b6106fc5760008281526065602090815260408083206001600160a01b03851684529091529020805460ff1916600117905561104e3390565b6001600160a01b0316816001600160a01b0316837f2f8788117e7eff1d82e926ec794901d17c78024a50270940304540a733656f0d60405160405180910390a45050565b61109c828261097f565b156106fc5760008281526065602090815260408083206001600160a01b0385168085529252808320805460ff1916905551339285917ff6391f5c32d9c69d2a47ea670b442974b53935d1edc7fd64eb21e047a839171b9190a45050565b6000805160206122478339815191526106fc8133610fa8565b7f4910fdfa16fed3260ed0e7147f7cc6da11a60208b5b9406d12a635614ffd91435460ff16156111455761067d83611519565b826001600160a01b03166352d1902d6040518163ffffffff1660e01b815260040160206040518083038186803b15801561117e57600080fd5b505afa9250505080156111ae575060408051601f3d908101601f191682019092526111ab918101906121c1565b60015b6112115760405162461bcd60e51b815260206004820152602e60248201527f45524331393637557067726164653a206e657720696d706c656d656e7461746960448201526d6f6e206973206e6f74205555505360901b60648201526084016104fe565b60008051602061226783398151915281146112805760405162461bcd60e51b815260206004820152602960248201527f45524331393637557067726164653a20756e737570706f727465642070726f786044820152681a58589b195555525160ba1b60648201526084016104fe565b5061067d8383836115b5565b600080600061129d878787876115e0565b915091506112aa816116cd565b5095945050505050565b600054610100900460ff1661131f5760405162461bcd60e51b815260206004820152602b60248201527f496e697469616c697a61626c653a20636f6e7472616374206973206e6f74206960448201526a6e697469616c697a696e6760a81b60648201526084016104fe565b565b6106fc828261100c565b600082815260656020526040808220600101805490849055905190918391839186917fbd79b86ffe0ab8e8776151514217cd7cacd52c909f66475c3af44e129f0b00ff9190a4505050565b606060006113858360026121da565b611390906002611efb565b67ffffffffffffffff8111156113a8576113a8611aaa565b6040519080825280601f01601f1916602001820160405280156113d2576020820181803683370190505b509050600360fc1b816000815181106113ed576113ed611fab565b60200101906001600160f81b031916908160001a905350600f60fb1b8160018151811061141c5761141c611fab565b60200101906001600160f81b031916908160001a90535060006114408460026121da565b61144b906001611efb565b90505b60018111156114c3576f181899199a1a9b1b9c1cb0b131b232b360811b85600f166010811061147f5761147f611fab565b1a60f81b82828151811061149557611495611fab565b60200101906001600160f81b031916908160001a90535060049490941c936114bc816121f9565b905061144e565b5083156115125760405162461bcd60e51b815260206004820181905260248201527f537472696e67733a20686578206c656e67746820696e73756666696369656e7460448201526064016104fe565b9392505050565b6001600160a01b0381163b6115865760405162461bcd60e51b815260206004820152602d60248201527f455243313936373a206e657720696d706c656d656e746174696f6e206973206e60448201526c1bdd08184818dbdb9d1c9858dd609a1b60648201526084016104fe565b60008051602061226783398151915280546001600160a01b0319166001600160a01b0392909216919091179055565b6115be83611888565b6000825111806115cb5750805b1561067d576115da83836118c8565b50505050565b6000807f7fffffffffffffffffffffffffffffff5d576e7357a4501ddfe92f46681b20a083111561161757506000905060036116c4565b8460ff16601b1415801561162f57508460ff16601c14155b1561164057506000905060046116c4565b6040805160008082526020820180845289905260ff881692820192909252606081018690526080810185905260019060a0016020604051602081039080840390855afa158015611694573d6000803e3d6000fd5b5050604051601f1901519150506001600160a01b0381166116bd576000600192509250506116c4565b9150600090505b94509492505050565b60008160048111156116e1576116e1612210565b14156116ea5750565b60018160048111156116fe576116fe612210565b141561174c5760405162461bcd60e51b815260206004820152601860248201527f45434453413a20696e76616c6964207369676e6174757265000000000000000060448201526064016104fe565b600281600481111561176057611760612210565b14156117ae5760405162461bcd60e51b815260206004820152601f60248201527f45434453413a20696e76616c6964207369676e6174757265206c656e6774680060448201526064016104fe565b60038160048111156117c2576117c2612210565b141561181b5760405162461bcd60e51b815260206004820152602260248201527f45434453413a20696e76616c6964207369676e6174757265202773272076616c604482015261756560f01b60648201526084016104fe565b600481600481111561182f5761182f612210565b14156107dd5760405162461bcd60e51b815260206004820152602260248201527f45434453413a20696e76616c6964207369676e6174757265202776272076616c604482015261756560f01b60648201526084016104fe565b61189181611519565b6040516001600160a01b038216907fbc7cd75a20ee27fd9adebab32041f755214dbc6bffa90cc0225b39da2e5c2d3b90600090a250565b60606001600160a01b0383163b6119305760405162461bcd60e51b815260206004820152602660248201527f416464726573733a2064656c65676174652063616c6c20746f206e6f6e2d636f6044820152651b9d1c9858dd60d21b60648201526084016104fe565b600080846001600160a01b03168460405161194b91906120a0565b600060405180830381855af49150503d8060008114611986576040519150601f19603f3d011682016040523d82523d6000602084013e61198b565b606091505b50915091506119b38282604051806060016040528060278152602001612287602791396119bc565b95945050505050565b606083156119cb575081611512565b8251156119db5782518084602001fd5b8160405162461bcd60e51b81526004016104fe91906121ae565b600060208284031215611a0757600080fd5b81356001600160e01b03198116811461151257600080fd5b60008083601f840112611a3157600080fd5b50813567ffffffffffffffff811115611a4957600080fd5b602083019150836020828501011115611a6157600080fd5b9250929050565b60008060208385031215611a7b57600080fd5b823567ffffffffffffffff811115611a9257600080fd5b611a9e85828601611a1f565b90969095509350505050565b634e487b7160e01b600052604160045260246000fd5b604051601f8201601f1916810167ffffffffffffffff81118282101715611ae957611ae9611aaa565b604052919050565b600067ffffffffffffffff831115611b0b57611b0b611aaa565b611b1e601f8401601f1916602001611ac0565b9050828152838383011115611b3257600080fd5b828260208301376000602084830101529392505050565b600082601f830112611b5a57600080fd5b61151283833560208501611af1565b600060208284031215611b7b57600080fd5b813567ffffffffffffffff811115611b9257600080fd5b611b9e84828501611b49565b949350505050565b600060208284031215611bb857600080fd5b5035919050565b80356001600160a01b0381168114611bd657600080fd5b919050565b60008060408385031215611bee57600080fd5b82359150611bfe60208401611bbf565b90509250929050565b600060208284031215611c1957600080fd5b61151282611bbf565b60008060408385031215611c3557600080fd5b611c3e83611bbf565b9150602083013567ffffffffffffffff811115611c5a57600080fd5b8301601f81018513611c6b57600080fd5b611c7a85823560208401611af1565b9150509250929050565b600067ffffffffffffffff821115611c9e57611c9e611aaa565b5060051b60200190565b600082601f830112611cb957600080fd5b81356020611cce611cc983611c84565b611ac0565b82815260059290921b84018101918181019086841115611ced57600080fd5b8286015b84811015611d085780358352918301918301611cf1565b509695505050505050565b600082601f830112611d2457600080fd5b81356020611d34611cc983611c84565b82815260059290921b84018101918181019086841115611d5357600080fd5b8286015b84811015611d0857803567ffffffffffffffff811115611d775760008081fd5b611d858986838b0101611b49565b845250918301918301611d57565b600080600080600080600060e0888a031215611dae57600080fd5b87359650602088013560ff81168114611dc657600080fd5b95506040880135945060608801359350608088013567ffffffffffffffff80821115611df157600080fd5b611dfd8b838c01611ca8565b945060a08a0135915080821115611e1357600080fd5b611e1f8b838c01611ca8565b935060c08a0135915080821115611e3557600080fd5b50611e428a828b01611d13565b91505092959891949750929550565b600080600060408486031215611e6657600080fd5b83358015158114611e7657600080fd5b9250602084013567ffffffffffffffff811115611e9257600080fd5b611e9e86828701611a1f565b9497909650939450505050565b60008060408385031215611ebe57600080fd5b611ec783611bbf565b946020939093013593505050565b8183823760009101908152919050565b634e487b7160e01b600052601160045260246000fd5b60008219821115611f0e57611f0e611ee5565b500190565b6020808252602c908201527f46756e6374696f6e206d7573742062652063616c6c6564207468726f7567682060408201526b19195b1959d85d1958d85b1b60a21b606082015260800190565b6020808252602c908201527f46756e6374696f6e206d7573742062652063616c6c6564207468726f7567682060408201526b6163746976652070726f787960a01b606082015260800190565b634e487b7160e01b600052603260045260246000fd5b60005b83811015611fdc578181015183820152602001611fc4565b838111156115da5750506000910152565b60008351611fff818460208801611fc1565b835190830190612013818360208801611fc1565b01949350505050565b600060001982141561203057612030611ee5565b5060010190565b60008151602080840160005b8381101561205f57815187529582019590820190600101612043565b509495945050505050565b848152600061208561207f6020840187612037565b85612037565b8351612095818360208801611fc1565b019695505050505050565b600082516120b2818460208701611fc1565b9190910192915050565b6000826120d957634e487b7160e01b600052601260045260246000fd5b500490565b600081518084526120f6816020860160208601611fc1565b601f01601f19169290920160200192915050565b84815283602082015282604082015260806060820152600061212f60808301846120de565b9695505050505050565b7f416363657373436f6e74726f6c3a206163636f756e7420000000000000000000815260008351612171816017850160208801611fc1565b7001034b99036b4b9b9b4b733903937b6329607d1b60179184019182015283516121a2816028840160208801611fc1565b01602801949350505050565b60208152600061151260208301846120de565b6000602082840312156121d357600080fd5b5051919050565b60008160001904831182151516156121f4576121f4611ee5565b500290565b60008161220857612208611ee5565b506000190190565b634e487b7160e01b600052602160045260246000fdfed8a7a79547af723ee3e12b59a480111268d8969c634e1a34a144d2c8b91d635b189ab7a9244df0848122154315af71fe140f3db0fe014031783b0946b8c9d2e3360894a13ba1a3210667c828492db98dca3e2076cc3735a920a3ca505d382bbc416464726573733a206c6f772d6c6576656c2064656c65676174652063616c6c206661696c6564a49807205ce4d355092ef5a8a18f56e8913cf4a201fbe287825b095693c21775a264697066735822122049fb800979e608a6a29dfab810618ca0d16aaa5ca739f4ea0a121c1a473f298e64736f6c63430008090033",
  "linkReferences": {},
  "deployedLinkReferences": {}
}