{
  "_format": "hh-sol-artifact-1",
  "contractName": "WQPromotion",
  "sourceName": "contracts/WQPromotion.sol",
  "abi": [
    {
      "inputs": [],
      "stateMutability": "nonpayable",
      "type": "constructor"
    },
    {
      "anonymous": false,
      "inputs": [
        {
          "indexed": false,
          "internalType": "address",
          "name": "previousAdmin",
          "type": "address"
        },
        {
          "indexed": false,
          "internalType": "address",
          "name": "newAdmin",
          "type": "address"
        }
      ],
      "name": "AdminChanged",
      "type": "event"
    },
    {
      "anonymous": false,
      "inputs": [
        {
          "indexed": true,
          "internalType": "address",
          "name": "beacon",
          "type": "address"
        }
      ],
      "name": "BeaconUpgraded",
      "type": "event"
    },
    {
      "anonymous": false,
      "inputs": [
        {
          "indexed": false,
          "internalType": "address",
          "name": "quest",
          "type": "address"
        },
        {
          "indexed": false,
          "internalType": "enum WQPromotion.PaidTariff",
          "name": "tariff",
          "type": "uint8"
        },
        {
          "indexed": false,
          "internalType": "uint256",
          "name": "period",
          "type": "uint256"
        },
        {
          "indexed": false,
          "internalType": "uint256",
          "name": "promotedAt",
          "type": "uint256"
        },
        {
          "indexed": false,
          "internalType": "uint256",
          "name": "amount",
          "type": "uint256"
        }
      ],
      "name": "PromotedQuest",
      "type": "event"
    },
    {
      "anonymous": false,
      "inputs": [
        {
          "indexed": false,
          "internalType": "address",
          "name": "user",
          "type": "address"
        },
        {
          "indexed": false,
          "internalType": "enum WQPromotion.PaidTariff",
          "name": "tariff",
          "type": "uint8"
        },
        {
          "indexed": false,
          "internalType": "uint256",
          "name": "period",
          "type": "uint256"
        },
        {
          "indexed": false,
          "internalType": "uint256",
          "name": "promotedAt",
          "type": "uint256"
        },
        {
          "indexed": false,
          "internalType": "uint256",
          "name": "amount",
          "type": "uint256"
        }
      ],
      "name": "PromotedUser",
      "type": "event"
    },
    {
      "anonymous": false,
      "inputs": [
        {
          "indexed": true,
          "internalType": "bytes32",
          "name": "role",
          "type": "bytes32"
        },
        {
          "indexed": true,
          "internalType": "bytes32",
          "name": "previousAdminRole",
          "type": "bytes32"
        },
        {
          "indexed": true,
          "internalType": "bytes32",
          "name": "newAdminRole",
          "type": "bytes32"
        }
      ],
      "name": "RoleAdminChanged",
      "type": "event"
    },
    {
      "anonymous": false,
      "inputs": [
        {
          "indexed": true,
          "internalType": "bytes32",
          "name": "role",
          "type": "bytes32"
        },
        {
          "indexed": true,
          "internalType": "address",
          "name": "account",
          "type": "address"
        },
        {
          "indexed": true,
          "internalType": "address",
          "name": "sender",
          "type": "address"
        }
      ],
      "name": "RoleGranted",
      "type": "event"
    },
    {
      "anonymous": false,
      "inputs": [
        {
          "indexed": true,
          "internalType": "bytes32",
          "name": "role",
          "type": "bytes32"
        },
        {
          "indexed": true,
          "internalType": "address",
          "name": "account",
          "type": "address"
        },
        {
          "indexed": true,
          "internalType": "address",
          "name": "sender",
          "type": "address"
        }
      ],
      "name": "RoleRevoked",
      "type": "event"
    },
    {
      "anonymous": false,
      "inputs": [
        {
          "indexed": true,
          "internalType": "address",
          "name": "implementation",
          "type": "address"
        }
      ],
      "name": "Upgraded",
      "type": "event"
    },
    {
      "inputs": [],
      "name": "ADMIN_ROLE",
      "outputs": [
        {
          "internalType": "bytes32",
          "name": "",
          "type": "bytes32"
        }
      ],
      "stateMutability": "view",
      "type": "function"
    },
    {
      "inputs": [],
      "name": "DEFAULT_ADMIN_ROLE",
      "outputs": [
        {
          "internalType": "bytes32",
          "name": "",
          "type": "bytes32"
        }
      ],
      "stateMutability": "view",
      "type": "function"
    },
    {
      "inputs": [],
      "name": "UPGRADER_ROLE",
      "outputs": [
        {
          "internalType": "bytes32",
          "name": "",
          "type": "bytes32"
        }
      ],
      "stateMutability": "view",
      "type": "function"
    },
    {
      "inputs": [],
      "name": "factory",
      "outputs": [
        {
          "internalType": "contract WorkQuestFactoryInterface",
          "name": "",
          "type": "address"
        }
      ],
      "stateMutability": "view",
      "type": "function"
    },
    {
      "inputs": [],
      "name": "feeReceiver",
      "outputs": [
        {
          "internalType": "address",
          "name": "",
          "type": "address"
        }
      ],
      "stateMutability": "view",
      "type": "function"
    },
    {
      "inputs": [
        {
          "internalType": "bytes32",
          "name": "role",
          "type": "bytes32"
        }
      ],
      "name": "getRoleAdmin",
      "outputs": [
        {
          "internalType": "bytes32",
          "name": "",
          "type": "bytes32"
        }
      ],
      "stateMutability": "view",
      "type": "function"
    },
    {
      "inputs": [
        {
          "internalType": "bytes32",
          "name": "role",
          "type": "bytes32"
        },
        {
          "internalType": "address",
          "name": "account",
          "type": "address"
        }
      ],
      "name": "grantRole",
      "outputs": [],
      "stateMutability": "nonpayable",
      "type": "function"
    },
    {
      "inputs": [
        {
          "internalType": "bytes32",
          "name": "role",
          "type": "bytes32"
        },
        {
          "internalType": "address",
          "name": "account",
          "type": "address"
        }
      ],
      "name": "hasRole",
      "outputs": [
        {
          "internalType": "bool",
          "name": "",
          "type": "bool"
        }
      ],
      "stateMutability": "view",
      "type": "function"
    },
    {
      "inputs": [
        {
          "internalType": "address",
          "name": "_feeReceiver",
          "type": "address"
        },
        {
          "internalType": "address",
          "name": "_factory",
          "type": "address"
        },
        {
          "internalType": "address",
          "name": "_wusd",
          "type": "address"
        }
      ],
      "name": "initialize",
      "outputs": [],
      "stateMutability": "nonpayable",
      "type": "function"
    },
    {
      "inputs": [
        {
          "internalType": "address",
          "name": "quest",
          "type": "address"
        },
        {
          "internalType": "enum WQPromotion.PaidTariff",
          "name": "tariff",
          "type": "uint8"
        },
        {
          "internalType": "uint256",
          "name": "period",
          "type": "uint256"
        }
      ],
      "name": "promoteQuest",
      "outputs": [],
      "stateMutability": "nonpayable",
      "type": "function"
    },
    {
      "inputs": [
        {
          "internalType": "enum WQPromotion.PaidTariff",
          "name": "tariff",
          "type": "uint8"
        },
        {
          "internalType": "uint256",
          "name": "period",
          "type": "uint256"
        }
      ],
      "name": "promoteUser",
      "outputs": [],
      "stateMutability": "nonpayable",
      "type": "function"
    },
    {
      "inputs": [],
      "name": "proxiableUUID",
      "outputs": [
        {
          "internalType": "bytes32",
          "name": "",
          "type": "bytes32"
        }
      ],
      "stateMutability": "view",
      "type": "function"
    },
    {
      "inputs": [
        {
          "internalType": "enum WQPromotion.PaidTariff",
          "name": "",
          "type": "uint8"
        },
        {
          "internalType": "uint256",
          "name": "",
          "type": "uint256"
        }
      ],
      "name": "questTariff",
      "outputs": [
        {
          "internalType": "uint256",
          "name": "",
          "type": "uint256"
        }
      ],
      "stateMutability": "view",
      "type": "function"
    },
    {
      "inputs": [
        {
          "internalType": "bytes32",
          "name": "role",
          "type": "bytes32"
        },
        {
          "internalType": "address",
          "name": "account",
          "type": "address"
        }
      ],
      "name": "renounceRole",
      "outputs": [],
      "stateMutability": "nonpayable",
      "type": "function"
    },
    {
      "inputs": [
        {
          "internalType": "bytes32",
          "name": "role",
          "type": "bytes32"
        },
        {
          "internalType": "address",
          "name": "account",
          "type": "address"
        }
      ],
      "name": "revokeRole",
      "outputs": [],
      "stateMutability": "nonpayable",
      "type": "function"
    },
    {
      "inputs": [
        {
          "internalType": "address",
          "name": "_factory",
          "type": "address"
        }
      ],
      "name": "setFactory",
      "outputs": [],
      "stateMutability": "nonpayable",
      "type": "function"
    },
    {
      "inputs": [
        {
          "internalType": "enum WQPromotion.PaidTariff",
          "name": "tariff",
          "type": "uint8"
        },
        {
          "internalType": "uint256",
          "name": "period",
          "type": "uint256"
        },
        {
          "internalType": "uint256",
          "name": "cost",
          "type": "uint256"
        }
      ],
      "name": "setQuestTariff",
      "outputs": [],
      "stateMutability": "nonpayable",
      "type": "function"
    },
    {
      "inputs": [
        {
          "internalType": "enum WQPromotion.PaidTariff",
          "name": "tariff",
          "type": "uint8"
        },
        {
          "internalType": "uint256",
          "name": "period",
          "type": "uint256"
        },
        {
          "internalType": "uint256",
          "name": "cost",
          "type": "uint256"
        }
      ],
      "name": "setUserTariff",
      "outputs": [],
      "stateMutability": "nonpayable",
      "type": "function"
    },
    {
      "inputs": [
        {
          "internalType": "bytes4",
          "name": "interfaceId",
          "type": "bytes4"
        }
      ],
      "name": "supportsInterface",
      "outputs": [
        {
          "internalType": "bool",
          "name": "",
          "type": "bool"
        }
      ],
      "stateMutability": "view",
      "type": "function"
    },
    {
      "inputs": [
        {
          "internalType": "address",
          "name": "newImplementation",
          "type": "address"
        }
      ],
      "name": "upgradeTo",
      "outputs": [],
      "stateMutability": "nonpayable",
      "type": "function"
    },
    {
      "inputs": [
        {
          "internalType": "address",
          "name": "newImplementation",
          "type": "address"
        },
        {
          "internalType": "bytes",
          "name": "data",
          "type": "bytes"
        }
      ],
      "name": "upgradeToAndCall",
      "outputs": [],
      "stateMutability": "payable",
      "type": "function"
    },
    {
      "inputs": [
        {
          "internalType": "enum WQPromotion.PaidTariff",
          "name": "",
          "type": "uint8"
        },
        {
          "internalType": "uint256",
          "name": "",
          "type": "uint256"
        }
      ],
      "name": "usersTariff",
      "outputs": [
        {
          "internalType": "uint256",
          "name": "",
          "type": "uint256"
        }
      ],
      "stateMutability": "view",
      "type": "function"
    },
    {
      "inputs": [],
      "name": "wusd",
      "outputs": [
        {
          "internalType": "contract IERC20Upgradeable",
          "name": "",
          "type": "address"
        }
      ],
      "stateMutability": "view",
      "type": "function"
    }
  ],
  "bytecode": "0x60a0604052306080523480156200001557600080fd5b50600054610100900460ff16620000335760005460ff16156200003d565b6200003d620000e2565b620000a55760405162461bcd60e51b815260206004820152602e60248201527f496e697469616c697a61626c653a20636f6e747261637420697320616c72656160448201526d191e481a5b9a5d1a585b1a5e995960921b606482015260840160405180910390fd5b600054610100900460ff16158015620000c8576000805461ffff19166101011790555b8015620000db576000805461ff00191690555b506200010f565b6000620000fa306200010060201b62000edf1760201c565b15905090565b6001600160a01b03163b151590565b608051611f0662000147600039600081816109eb01528181610a2b01528181610acb01528181610b0b0152610b9a0152611f066000f3fe6080604052600436106101405760003560e01c80635bb47808116100b6578063b6c190e81161006f578063b6c190e8146103ac578063c0c53b8b146103e5578063c45a015514610405578063d547741f14610426578063f72c0d8b14610446578063fb003fd11461046857600080fd5b80635bb47808146102f457806375b238fc146103145780638726c2fa1461033657806391d1485414610356578063a217fddf14610376578063b3f006741461038b57600080fd5b80632f2ff15d116101085780632f2ff15d146102335780633313fe991461025357806336568abe1461028c5780633659cfe6146102ac5780634f1ef286146102cc57806352d1902d146102df57600080fd5b806301ffc9a71461014557806315c40eb01461017a5780631b5a99c9146101b3578063205d4810146101d5578063248a9ca3146101f5575b600080fd5b34801561015157600080fd5b506101656101603660046118f2565b610488565b60405190151581526020015b60405180910390f35b34801561018657600080fd5b5061012e5461019b906001600160a01b031681565b6040516001600160a01b039091168152602001610171565b3480156101bf57600080fd5b506101d36101ce366004611930565b6104bf565b005b3480156101e157600080fd5b506101d36101f0366004611971565b6106af565b34801561020157600080fd5b506102256102103660046119ad565b60009081526065602052604090206001015490565b604051908152602001610171565b34801561023f57600080fd5b506101d361024e3660046119c6565b610937565b34801561025f57600080fd5b5061022561026e366004611930565b61013060209081526000928352604080842090915290825290205481565b34801561029857600080fd5b506101d36102a73660046119c6565b610962565b3480156102b857600080fd5b506101d36102c73660046119f2565b6109e0565b6101d36102da366004611a23565b610ac0565b3480156102eb57600080fd5b50610225610b8d565b34801561030057600080fd5b506101d361030f3660046119f2565b610c40565b34801561032057600080fd5b50610225600080516020611eb183398151915281565b34801561034257600080fd5b506101d3610351366004611ae5565b610c7d565b34801561036257600080fd5b506101656103713660046119c6565b610ce8565b34801561038257600080fd5b50610225600081565b34801561039757600080fd5b5061012f5461019b906001600160a01b031681565b3480156103b857600080fd5b506102256103c7366004611930565b61013160209081526000928352604080842090915290825290205481565b3480156103f157600080fd5b506101d3610400366004611b18565b610d13565b34801561041157600080fd5b5061012d5461019b906001600160a01b031681565b34801561043257600080fd5b506101d36104413660046119c6565b610e88565b34801561045257600080fd5b50610225600080516020611e4a83398151915281565b34801561047457600080fd5b506101d3610483366004611ae5565b610eae565b60006001600160e01b03198216637965db0b60e01b14806104b957506301ffc9a760e01b6001600160e01b03198316145b92915050565b600260975414156105175760405162461bcd60e51b815260206004820152601f60248201527f5265656e7472616e637947756172643a207265656e7472616e742063616c6c0060448201526064015b60405180910390fd5b600260975560006101318184600381111561053457610534611b5b565b600381111561054557610545611b5b565b8152602001908152602001600020600083815260200190815260200160002054116105b25760405162461bcd60e51b815260206004820152601b60248201527f575150726f6d6f74696f6e3a20496e76616c6964207461726966660000000000604482015260640161050e565b61012f546106209033906001600160a01b031661013160008660038111156105dc576105dc611b5b565b60038111156105ed576105ed611b5b565b81526020808201929092526040908101600090812087825290925290205461012e546001600160a01b0316929190610eee565b7f90ddfee07107f175edb6f8c388818b502e896ff327723577311764c1e620f4e633838342610131600088600381111561065c5761065c611b5b565b600381111561066d5761066d611b5b565b815260200190815260200160002060008781526020019081526020016000205460405161069e959493929190611b71565b60405180910390a150506001609755565b600260975414156107025760405162461bcd60e51b815260206004820152601f60248201527f5265656e7472616e637947756172643a207265656e7472616e742063616c6c00604482015260640161050e565b600260975561012d546040516308dc900f60e21b81526001600160a01b03858116600483015290911690632372403c9060240160206040518083038186803b15801561074d57600080fd5b505afa158015610761573d6000803e3d6000fd5b505050506040513d601f19601f820116820180604052508101906107859190611bc1565b6107e65760405162461bcd60e51b815260206004820152602c60248201527f575150726f6d6f74696f6e3a205175657374206973206e6f7420576f726b517560448201526b195cdd0818dbdb9d1c9858dd60a21b606482015260840161050e565b600061013060008460038111156107ff576107ff611b5b565b600381111561081057610810611b5b565b81526020019081526020016000206000838152602001908152602001600020541161087d5760405162461bcd60e51b815260206004820152601b60248201527f575150726f6d6f74696f6e3a20496e76616c6964207461726966660000000000604482015260640161050e565b61012f546108a79033906001600160a01b031661013060008660038111156105dc576105dc611b5b565b7fc797b92127604e9d130dc1f6bd738f32ff63619f783f8853a8d0778bd3d13ac38383834261013060008860038111156108e3576108e3611b5b565b60038111156108f4576108f4611b5b565b8152602001908152602001600020600087815260200190815260200160002054604051610925959493929190611b71565b60405180910390a15050600160975550565b6000828152606560205260409020600101546109538133610f48565b61095d8383610fac565b505050565b6001600160a01b03811633146109d25760405162461bcd60e51b815260206004820152602f60248201527f416363657373436f6e74726f6c3a2063616e206f6e6c792072656e6f756e636560448201526e103937b632b9903337b91039b2b63360891b606482015260840161050e565b6109dc8282611032565b5050565b306001600160a01b037f0000000000000000000000000000000000000000000000000000000000000000161415610a295760405162461bcd60e51b815260040161050e90611be3565b7f00000000000000000000000000000000000000000000000000000000000000006001600160a01b0316610a72600080516020611e6a833981519152546001600160a01b031690565b6001600160a01b031614610a985760405162461bcd60e51b815260040161050e90611c2f565b610aa181611099565b60408051600080825260208201909252610abd918391906110b2565b50565b306001600160a01b037f0000000000000000000000000000000000000000000000000000000000000000161415610b095760405162461bcd60e51b815260040161050e90611be3565b7f00000000000000000000000000000000000000000000000000000000000000006001600160a01b0316610b52600080516020611e6a833981519152546001600160a01b031690565b6001600160a01b031614610b785760405162461bcd60e51b815260040161050e90611c2f565b610b8182611099565b6109dc828260016110b2565b6000306001600160a01b037f00000000000000000000000000000000000000000000000000000000000000001614610c2d5760405162461bcd60e51b815260206004820152603860248201527f555550535570677261646561626c653a206d757374206e6f742062652063616c60448201527f6c6564207468726f7567682064656c656761746563616c6c0000000000000000606482015260840161050e565b50600080516020611e6a83398151915290565b600080516020611eb1833981519152610c598133610f48565b5061012d80546001600160a01b0319166001600160a01b0392909216919091179055565b600080516020611eb1833981519152610c968133610f48565b816101316000866003811115610cae57610cae611b5b565b6003811115610cbf57610cbf611b5b565b815260200190815260200160002060008581526020019081526020016000208190555050505050565b60009182526065602090815260408084206001600160a01b0393909316845291905290205460ff1690565b600054610100900460ff16610d2e5760005460ff1615610d32565b303b155b610d955760405162461bcd60e51b815260206004820152602e60248201527f496e697469616c697a61626c653a20636f6e747261637420697320616c72656160448201526d191e481a5b9a5d1a585b1a5e995960921b606482015260840161050e565b600054610100900460ff16158015610db7576000805461ffff19166101011790555b610dbf61122c565b610dc7611255565b610dcf61122c565b610dda600033611284565b610df2600080516020611eb183398151915233611284565b610e0a600080516020611e4a83398151915233611284565b610e30600080516020611e4a833981519152600080516020611eb183398151915261128e565b61012f80546001600160a01b038087166001600160a01b03199283161790925561012d805486841690831617905561012e8054928516929091169190911790558015610e82576000805461ff00191690555b50505050565b600082815260656020526040902060010154610ea48133610f48565b61095d8383611032565b600080516020611eb1833981519152610ec78133610f48565b816101306000866003811115610cae57610cae611b5b565b6001600160a01b03163b151590565b604080516001600160a01b0385811660248301528416604482015260648082018490528251808303909101815260849091019091526020810180516001600160e01b03166323b872dd60e01b179052610e829085906112d9565b610f528282610ce8565b6109dc57610f6a816001600160a01b031660146113ab565b610f758360206113ab565b604051602001610f86929190611ca7565b60408051601f198184030181529082905262461bcd60e51b825261050e91600401611d1c565b610fb68282610ce8565b6109dc5760008281526065602090815260408083206001600160a01b03851684529091529020805460ff19166001179055610fee3390565b6001600160a01b0316816001600160a01b0316837f2f8788117e7eff1d82e926ec794901d17c78024a50270940304540a733656f0d60405160405180910390a45050565b61103c8282610ce8565b156109dc5760008281526065602090815260408083206001600160a01b0385168085529252808320805460ff1916905551339285917ff6391f5c32d9c69d2a47ea670b442974b53935d1edc7fd64eb21e047a839171b9190a45050565b600080516020611e4a8339815191526109dc8133610f48565b7f4910fdfa16fed3260ed0e7147f7cc6da11a60208b5b9406d12a635614ffd91435460ff16156110e55761095d8361154e565b826001600160a01b03166352d1902d6040518163ffffffff1660e01b815260040160206040518083038186803b15801561111e57600080fd5b505afa92505050801561114e575060408051601f3d908101601f1916820190925261114b91810190611d4f565b60015b6111b15760405162461bcd60e51b815260206004820152602e60248201527f45524331393637557067726164653a206e657720696d706c656d656e7461746960448201526d6f6e206973206e6f74205555505360901b606482015260840161050e565b600080516020611e6a83398151915281146112205760405162461bcd60e51b815260206004820152602960248201527f45524331393637557067726164653a20756e737570706f727465642070726f786044820152681a58589b195555525160ba1b606482015260840161050e565b5061095d8383836115ea565b600054610100900460ff166112535760405162461bcd60e51b815260040161050e90611d68565b565b600054610100900460ff1661127c5760405162461bcd60e51b815260040161050e90611d68565b61125361160f565b6109dc8282610fac565b600082815260656020526040808220600101805490849055905190918391839186917fbd79b86ffe0ab8e8776151514217cd7cacd52c909f66475c3af44e129f0b00ff9190a4505050565b600061132e826040518060400160405280602081526020017f5361666545524332303a206c6f772d6c6576656c2063616c6c206661696c6564815250856001600160a01b031661163d9092919063ffffffff16565b80519091501561095d578080602001905181019061134c9190611bc1565b61095d5760405162461bcd60e51b815260206004820152602a60248201527f5361666545524332303a204552433230206f7065726174696f6e20646964206e6044820152691bdd081cdd58d8d9595960b21b606482015260840161050e565b606060006113ba836002611dc9565b6113c5906002611de8565b67ffffffffffffffff8111156113dd576113dd611a0d565b6040519080825280601f01601f191660200182016040528015611407576020820181803683370190505b509050600360fc1b8160008151811061142257611422611e00565b60200101906001600160f81b031916908160001a905350600f60fb1b8160018151811061145157611451611e00565b60200101906001600160f81b031916908160001a9053506000611475846002611dc9565b611480906001611de8565b90505b60018111156114f8576f181899199a1a9b1b9c1cb0b131b232b360811b85600f16601081106114b4576114b4611e00565b1a60f81b8282815181106114ca576114ca611e00565b60200101906001600160f81b031916908160001a90535060049490941c936114f181611e16565b9050611483565b5083156115475760405162461bcd60e51b815260206004820181905260248201527f537472696e67733a20686578206c656e67746820696e73756666696369656e74604482015260640161050e565b9392505050565b6001600160a01b0381163b6115bb5760405162461bcd60e51b815260206004820152602d60248201527f455243313936373a206e657720696d706c656d656e746174696f6e206973206e60448201526c1bdd08184818dbdb9d1c9858dd609a1b606482015260840161050e565b600080516020611e6a83398151915280546001600160a01b0319166001600160a01b0392909216919091179055565b6115f383611654565b6000825111806116005750805b1561095d57610e828383611694565b600054610100900460ff166116365760405162461bcd60e51b815260040161050e90611d68565b6001609755565b606061164c8484600085611788565b949350505050565b61165d8161154e565b6040516001600160a01b038216907fbc7cd75a20ee27fd9adebab32041f755214dbc6bffa90cc0225b39da2e5c2d3b90600090a250565b60606001600160a01b0383163b6116fc5760405162461bcd60e51b815260206004820152602660248201527f416464726573733a2064656c65676174652063616c6c20746f206e6f6e2d636f6044820152651b9d1c9858dd60d21b606482015260840161050e565b600080846001600160a01b0316846040516117179190611e2d565b600060405180830381855af49150503d8060008114611752576040519150601f19603f3d011682016040523d82523d6000602084013e611757565b606091505b509150915061177f8282604051806060016040528060278152602001611e8a602791396118b9565b95945050505050565b6060824710156117e95760405162461bcd60e51b815260206004820152602660248201527f416464726573733a20696e73756666696369656e742062616c616e636520666f6044820152651c8818d85b1b60d21b606482015260840161050e565b6001600160a01b0385163b6118405760405162461bcd60e51b815260206004820152601d60248201527f416464726573733a2063616c6c20746f206e6f6e2d636f6e7472616374000000604482015260640161050e565b600080866001600160a01b0316858760405161185c9190611e2d565b60006040518083038185875af1925050503d8060008114611899576040519150601f19603f3d011682016040523d82523d6000602084013e61189e565b606091505b50915091506118ae8282866118b9565b979650505050505050565b606083156118c8575081611547565b8251156118d85782518084602001fd5b8160405162461bcd60e51b815260040161050e9190611d1c565b60006020828403121561190457600080fd5b81356001600160e01b03198116811461154757600080fd5b80356004811061192b57600080fd5b919050565b6000806040838503121561194357600080fd5b61194c8361191c565b946020939093013593505050565b80356001600160a01b038116811461192b57600080fd5b60008060006060848603121561198657600080fd5b61198f8461195a565b925061199d6020850161191c565b9150604084013590509250925092565b6000602082840312156119bf57600080fd5b5035919050565b600080604083850312156119d957600080fd5b823591506119e96020840161195a565b90509250929050565b600060208284031215611a0457600080fd5b6115478261195a565b634e487b7160e01b600052604160045260246000fd5b60008060408385031215611a3657600080fd5b611a3f8361195a565b9150602083013567ffffffffffffffff80821115611a5c57600080fd5b818501915085601f830112611a7057600080fd5b813581811115611a8257611a82611a0d565b604051601f8201601f19908116603f01168101908382118183101715611aaa57611aaa611a0d565b81604052828152886020848701011115611ac357600080fd5b8260208601602083013760006020848301015280955050505050509250929050565b600080600060608486031215611afa57600080fd5b611b038461191c565b95602085013595506040909401359392505050565b600080600060608486031215611b2d57600080fd5b611b368461195a565b9250611b446020850161195a565b9150611b526040850161195a565b90509250925092565b634e487b7160e01b600052602160045260246000fd5b6001600160a01b038616815260a0810160048610611b9f57634e487b7160e01b600052602160045260246000fd5b8560208301528460408301528360608301528260808301529695505050505050565b600060208284031215611bd357600080fd5b8151801515811461154757600080fd5b6020808252602c908201527f46756e6374696f6e206d7573742062652063616c6c6564207468726f7567682060408201526b19195b1959d85d1958d85b1b60a21b606082015260800190565b6020808252602c908201527f46756e6374696f6e206d7573742062652063616c6c6564207468726f7567682060408201526b6163746976652070726f787960a01b606082015260800190565b60005b83811015611c96578181015183820152602001611c7e565b83811115610e825750506000910152565b7f416363657373436f6e74726f6c3a206163636f756e7420000000000000000000815260008351611cdf816017850160208801611c7b565b7001034b99036b4b9b9b4b733903937b6329607d1b6017918401918201528351611d10816028840160208801611c7b565b01602801949350505050565b6020815260008251806020840152611d3b816040850160208701611c7b565b601f01601f19169190910160400192915050565b600060208284031215611d6157600080fd5b5051919050565b6020808252602b908201527f496e697469616c697a61626c653a20636f6e7472616374206973206e6f74206960408201526a6e697469616c697a696e6760a81b606082015260800190565b634e487b7160e01b600052601160045260246000fd5b6000816000190483118215151615611de357611de3611db3565b500290565b60008219821115611dfb57611dfb611db3565b500190565b634e487b7160e01b600052603260045260246000fd5b600081611e2557611e25611db3565b506000190190565b60008251611e3f818460208701611c7b565b919091019291505056fe189ab7a9244df0848122154315af71fe140f3db0fe014031783b0946b8c9d2e3360894a13ba1a3210667c828492db98dca3e2076cc3735a920a3ca505d382bbc416464726573733a206c6f772d6c6576656c2064656c65676174652063616c6c206661696c6564a49807205ce4d355092ef5a8a18f56e8913cf4a201fbe287825b095693c21775a2646970667358221220f7e680ca9eeadd63afaa5891bf270872e18a694d40f9f317e9dff5fe0119c3d964736f6c63430008090033",
  "linkReferences": {},
  "deployedLinkReferences": {}
}