{
  "_format": "hh-sol-artifact-1",
  "contractName": "WQBridgeStable",
  "sourceName": "contracts/WQBridgeStable.sol",
  "abi": [
    {
      "inputs": [],
      "stateMutability": "nonpayable",
      "type": "constructor"
    },
    {
      "anonymous": false,
      "inputs": [
        {
          "indexed": false,
          "internalType": "address",
          "name": "previousAdmin",
          "type": "address"
        },
        {
          "indexed": false,
          "internalType": "address",
          "name": "newAdmin",
          "type": "address"
        }
      ],
      "name": "AdminChanged",
      "type": "event"
    },
    {
      "anonymous": false,
      "inputs": [
        {
          "indexed": true,
          "internalType": "address",
          "name": "beacon",
          "type": "address"
        }
      ],
      "name": "BeaconUpgraded",
      "type": "event"
    },
    {
      "anonymous": false,
      "inputs": [
        {
          "indexed": false,
          "internalType": "address",
          "name": "account",
          "type": "address"
        }
      ],
      "name": "Paused",
      "type": "event"
    },
    {
      "anonymous": false,
      "inputs": [
        {
          "indexed": true,
          "internalType": "bytes32",
          "name": "role",
          "type": "bytes32"
        },
        {
          "indexed": true,
          "internalType": "bytes32",
          "name": "previousAdminRole",
          "type": "bytes32"
        },
        {
          "indexed": true,
          "internalType": "bytes32",
          "name": "newAdminRole",
          "type": "bytes32"
        }
      ],
      "name": "RoleAdminChanged",
      "type": "event"
    },
    {
      "anonymous": false,
      "inputs": [
        {
          "indexed": true,
          "internalType": "bytes32",
          "name": "role",
          "type": "bytes32"
        },
        {
          "indexed": true,
          "internalType": "address",
          "name": "account",
          "type": "address"
        },
        {
          "indexed": true,
          "internalType": "address",
          "name": "sender",
          "type": "address"
        }
      ],
      "name": "RoleGranted",
      "type": "event"
    },
    {
      "anonymous": false,
      "inputs": [
        {
          "indexed": true,
          "internalType": "bytes32",
          "name": "role",
          "type": "bytes32"
        },
        {
          "indexed": true,
          "internalType": "address",
          "name": "account",
          "type": "address"
        },
        {
          "indexed": true,
          "internalType": "address",
          "name": "sender",
          "type": "address"
        }
      ],
      "name": "RoleRevoked",
      "type": "event"
    },
    {
      "anonymous": false,
      "inputs": [
        {
          "indexed": false,
          "internalType": "uint256",
          "name": "timestamp",
          "type": "uint256"
        },
        {
          "indexed": false,
          "internalType": "address",
          "name": "recipient",
          "type": "address"
        },
        {
          "indexed": false,
          "internalType": "uint256",
          "name": "amount",
          "type": "uint256"
        },
        {
          "indexed": false,
          "internalType": "uint256",
          "name": "chainFrom",
          "type": "uint256"
        },
        {
          "indexed": false,
          "internalType": "uint256",
          "name": "chainTo",
          "type": "uint256"
        },
        {
          "indexed": false,
          "internalType": "uint256",
          "name": "nonce",
          "type": "uint256"
        },
        {
          "indexed": false,
          "internalType": "string",
          "name": "userId",
          "type": "string"
        },
        {
          "indexed": false,
          "internalType": "string",
          "name": "symbol",
          "type": "string"
        }
      ],
      "name": "SwapInitialized",
      "type": "event"
    },
    {
      "anonymous": false,
      "inputs": [
        {
          "indexed": false,
          "internalType": "address",
          "name": "token",
          "type": "address"
        },
        {
          "indexed": false,
          "internalType": "address",
          "name": "recipient",
          "type": "address"
        },
        {
          "indexed": false,
          "internalType": "uint256",
          "name": "amount",
          "type": "uint256"
        }
      ],
      "name": "Transferred",
      "type": "event"
    },
    {
      "anonymous": false,
      "inputs": [
        {
          "indexed": false,
          "internalType": "address",
          "name": "account",
          "type": "address"
        }
      ],
      "name": "Unpaused",
      "type": "event"
    },
    {
      "anonymous": false,
      "inputs": [
        {
          "indexed": true,
          "internalType": "address",
          "name": "implementation",
          "type": "address"
        }
      ],
      "name": "Upgraded",
      "type": "event"
    },
    {
      "inputs": [],
      "name": "ADMIN_ROLE",
      "outputs": [
        {
          "internalType": "bytes32",
          "name": "",
          "type": "bytes32"
        }
      ],
      "stateMutability": "view",
      "type": "function"
    },
    {
      "inputs": [],
      "name": "DEFAULT_ADMIN_ROLE",
      "outputs": [
        {
          "internalType": "bytes32",
          "name": "",
          "type": "bytes32"
        }
      ],
      "stateMutability": "view",
      "type": "function"
    },
    {
      "inputs": [],
      "name": "UPGRADER_ROLE",
      "outputs": [
        {
          "internalType": "bytes32",
          "name": "",
          "type": "bytes32"
        }
      ],
      "stateMutability": "view",
      "type": "function"
    },
    {
      "inputs": [],
      "name": "VALIDATOR_ROLE",
      "outputs": [
        {
          "internalType": "bytes32",
          "name": "",
          "type": "bytes32"
        }
      ],
      "stateMutability": "view",
      "type": "function"
    },
    {
      "inputs": [],
      "name": "chainId",
      "outputs": [
        {
          "internalType": "uint256",
          "name": "",
          "type": "uint256"
        }
      ],
      "stateMutability": "view",
      "type": "function"
    },
    {
      "inputs": [
        {
          "internalType": "uint256",
          "name": "",
          "type": "uint256"
        }
      ],
      "name": "chains",
      "outputs": [
        {
          "internalType": "bool",
          "name": "",
          "type": "bool"
        }
      ],
      "stateMutability": "view",
      "type": "function"
    },
    {
      "inputs": [
        {
          "internalType": "bytes32",
          "name": "role",
          "type": "bytes32"
        }
      ],
      "name": "getRoleAdmin",
      "outputs": [
        {
          "internalType": "bytes32",
          "name": "",
          "type": "bytes32"
        }
      ],
      "stateMutability": "view",
      "type": "function"
    },
    {
      "inputs": [
        {
          "internalType": "bytes32",
          "name": "message",
          "type": "bytes32"
        }
      ],
      "name": "getSwapState",
      "outputs": [
        {
          "internalType": "enum WQBridgeStable.State",
          "name": "state",
          "type": "uint8"
        }
      ],
      "stateMutability": "view",
      "type": "function"
    },
    {
      "inputs": [
        {
          "internalType": "bytes32",
          "name": "role",
          "type": "bytes32"
        },
        {
          "internalType": "address",
          "name": "account",
          "type": "address"
        }
      ],
      "name": "grantRole",
      "outputs": [],
      "stateMutability": "nonpayable",
      "type": "function"
    },
    {
      "inputs": [
        {
          "internalType": "bytes32",
          "name": "role",
          "type": "bytes32"
        },
        {
          "internalType": "address",
          "name": "account",
          "type": "address"
        }
      ],
      "name": "hasRole",
      "outputs": [
        {
          "internalType": "bool",
          "name": "",
          "type": "bool"
        }
      ],
      "stateMutability": "view",
      "type": "function"
    },
    {
      "inputs": [
        {
          "internalType": "uint256",
          "name": "_chainId",
          "type": "uint256"
        },
        {
          "internalType": "address payable",
          "name": "_pool",
          "type": "address"
        },
        {
          "internalType": "address",
          "name": "validator",
          "type": "address"
        }
      ],
      "name": "initialize",
      "outputs": [],
      "stateMutability": "nonpayable",
      "type": "function"
    },
    {
      "inputs": [],
      "name": "pause",
      "outputs": [],
      "stateMutability": "nonpayable",
      "type": "function"
    },
    {
      "inputs": [],
      "name": "paused",
      "outputs": [
        {
          "internalType": "bool",
          "name": "",
          "type": "bool"
        }
      ],
      "stateMutability": "view",
      "type": "function"
    },
    {
      "inputs": [],
      "name": "pool",
      "outputs": [
        {
          "internalType": "address payable",
          "name": "",
          "type": "address"
        }
      ],
      "stateMutability": "view",
      "type": "function"
    },
    {
      "inputs": [],
      "name": "proxiableUUID",
      "outputs": [
        {
          "internalType": "bytes32",
          "name": "",
          "type": "bytes32"
        }
      ],
      "stateMutability": "view",
      "type": "function"
    },
    {
      "inputs": [
        {
          "internalType": "address payable",
          "name": "recipient",
          "type": "address"
        },
        {
          "internalType": "uint256",
          "name": "amount",
          "type": "uint256"
        },
        {
          "internalType": "address",
          "name": "token",
          "type": "address"
        }
      ],
      "name": "removeLiquidity",
      "outputs": [],
      "stateMutability": "nonpayable",
      "type": "function"
    },
    {
      "inputs": [
        {
          "internalType": "bytes32",
          "name": "role",
          "type": "bytes32"
        },
        {
          "internalType": "address",
          "name": "account",
          "type": "address"
        }
      ],
      "name": "renounceRole",
      "outputs": [],
      "stateMutability": "nonpayable",
      "type": "function"
    },
    {
      "inputs": [
        {
          "internalType": "bytes32",
          "name": "role",
          "type": "bytes32"
        },
        {
          "internalType": "address",
          "name": "account",
          "type": "address"
        }
      ],
      "name": "revokeRole",
      "outputs": [],
      "stateMutability": "nonpayable",
      "type": "function"
    },
    {
      "inputs": [
        {
          "internalType": "bytes4",
          "name": "interfaceId",
          "type": "bytes4"
        }
      ],
      "name": "supportsInterface",
      "outputs": [
        {
          "internalType": "bool",
          "name": "",
          "type": "bool"
        }
      ],
      "stateMutability": "view",
      "type": "function"
    },
    {
      "inputs": [
        {
          "internalType": "uint256",
          "name": "nonce",
          "type": "uint256"
        },
        {
          "internalType": "uint256",
          "name": "chainTo",
          "type": "uint256"
        },
        {
          "internalType": "uint256",
          "name": "amount",
          "type": "uint256"
        },
        {
          "internalType": "address",
          "name": "recipient",
          "type": "address"
        },
        {
          "internalType": "string",
          "name": "userId",
          "type": "string"
        },
        {
          "internalType": "string",
          "name": "symbol",
          "type": "string"
        }
      ],
      "name": "swap",
      "outputs": [],
      "stateMutability": "payable",
      "type": "function"
    },
    {
      "inputs": [
        {
          "internalType": "bytes32",
          "name": "",
          "type": "bytes32"
        }
      ],
      "name": "swaps",
      "outputs": [
        {
          "internalType": "uint256",
          "name": "nonce",
          "type": "uint256"
        },
        {
          "internalType": "enum WQBridgeStable.State",
          "name": "state",
          "type": "uint8"
        }
      ],
      "stateMutability": "view",
      "type": "function"
    },
    {
      "inputs": [
        {
          "internalType": "string",
          "name": "",
          "type": "string"
        }
      ],
      "name": "tokens",
      "outputs": [
        {
          "internalType": "uint256",
          "name": "minAmount",
          "type": "uint256"
        },
        {
          "internalType": "uint256",
          "name": "maxAmount",
          "type": "uint256"
        },
        {
          "internalType": "address",
          "name": "token",
          "type": "address"
        },
        {
          "internalType": "bool",
          "name": "enabled",
          "type": "bool"
        },
        {
          "internalType": "bool",
          "name": "native",
          "type": "bool"
        },
        {
          "internalType": "bool",
          "name": "lockable",
          "type": "bool"
        }
      ],
      "stateMutability": "view",
      "type": "function"
    },
    {
      "inputs": [],
      "name": "unpause",
      "outputs": [],
      "stateMutability": "nonpayable",
      "type": "function"
    },
    {
      "inputs": [
        {
          "internalType": "uint256",
          "name": "_chainId",
          "type": "uint256"
        },
        {
          "internalType": "bool",
          "name": "enabled",
          "type": "bool"
        }
      ],
      "name": "updateChain",
      "outputs": [],
      "stateMutability": "nonpayable",
      "type": "function"
    },
    {
      "inputs": [
        {
          "internalType": "address payable",
          "name": "_pool",
          "type": "address"
        }
      ],
      "name": "updatePool",
      "outputs": [],
      "stateMutability": "nonpayable",
      "type": "function"
    },
    {
      "inputs": [
        {
          "internalType": "address",
          "name": "token",
          "type": "address"
        },
        {
          "internalType": "bool",
          "name": "enabled",
          "type": "bool"
        },
        {
          "internalType": "bool",
          "name": "native",
          "type": "bool"
        },
        {
          "internalType": "bool",
          "name": "lockable",
          "type": "bool"
        },
        {
          "internalType": "uint256",
          "name": "minAmount",
          "type": "uint256"
        },
        {
          "internalType": "uint256",
          "name": "maxAmount",
          "type": "uint256"
        },
        {
          "internalType": "string",
          "name": "symbol",
          "type": "string"
        }
      ],
      "name": "updateToken",
      "outputs": [],
      "stateMutability": "nonpayable",
      "type": "function"
    },
    {
      "inputs": [
        {
          "internalType": "address",
          "name": "newImplementation",
          "type": "address"
        }
      ],
      "name": "upgradeTo",
      "outputs": [],
      "stateMutability": "nonpayable",
      "type": "function"
    },
    {
      "inputs": [
        {
          "internalType": "address",
          "name": "newImplementation",
          "type": "address"
        },
        {
          "internalType": "bytes",
          "name": "data",
          "type": "bytes"
        }
      ],
      "name": "upgradeToAndCall",
      "outputs": [],
      "stateMutability": "payable",
      "type": "function"
    }
  ],
  "bytecode": "0x60a0604052306080523480156200001557600080fd5b50600054610100900460ff16620000335760005460ff16156200003d565b6200003d620000e2565b620000a55760405162461bcd60e51b815260206004820152602e60248201527f496e697469616c697a61626c653a20636f6e747261637420697320616c72656160448201526d191e481a5b9a5d1a585b1a5e995960921b606482015260840160405180910390fd5b600054610100900460ff16158015620000c8576000805461ffff19166101011790555b8015620000db576000805461ff00191690555b506200010f565b6000620000fa306200010060201b620013ff1760201c565b15905090565b6001600160a01b03163b151590565b6080516129316200014760003960008181610893015281816108d301528181610f9101528181610fd1015261106001526129316000f3fe6080604052600436106101b75760003560e01c80635c975abb116100ec578063b4988fd01161008a578063db9b6d0611610064578063db9b6d061461056c578063dbe77e54146105ad578063eb84e7f2146105cd578063f72c0d8b1461061357600080fd5b8063b4988fd0146104f8578063c49baebe14610518578063d547741f1461054c57600080fd5b80638456cb59116100c65780638456cb591461049757806391d14854146104ac5780639a8a0592146104cc578063a217fddf146104e357600080fd5b80635c975abb1461043d57806375b238fc146104555780637b46c54f1461047757600080fd5b80633659cfe61161015957806348fdceb61161013357806348fdceb6146103d15780634f1ef286146103e457806352d1902d146103f7578063550325b51461040c57600080fd5b80633659cfe61461037c5780633f4ba83a1461039c57806347fdbc8e146103b157600080fd5b806316f0115b1161019557806316f0115b146102c5578063248a9ca3146102fe5780632f2ff15d1461033c57806336568abe1461035c57600080fd5b806301ffc9a7146101bc57806304c2320b146101f1578063066d697b146102a3575b600080fd5b3480156101c857600080fd5b506101dc6101d736600461207f565b610635565b60405190151581526020015b60405180910390f35b3480156101fd57600080fd5b5061026461020c366004612155565b805180820160209081018051610130825292820191909301209152805460018201546002909201549091906001600160a01b0381169060ff600160a01b8204811691600160a81b8104821691600160b01b9091041686565b6040805196875260208701959095526001600160a01b0390931693850193909352151560608401529015156080830152151560a082015260c0016101e8565b3480156102af57600080fd5b506102c36102be3660046121ad565b61066c565b005b3480156102d157600080fd5b5061012e546102e6906001600160a01b031681565b6040516001600160a01b0390911681526020016101e8565b34801561030a57600080fd5b5061032e610319366004612248565b60009081526065602052604090206001015490565b6040519081526020016101e8565b34801561034857600080fd5b506102c3610357366004612261565b6107df565b34801561036857600080fd5b506102c3610377366004612261565b61080a565b34801561038857600080fd5b506102c3610397366004612291565b610888565b3480156103a857600080fd5b506102c3610968565b3480156103bd57600080fd5b506102c36103cc3660046122ae565b610989565b6102c36103df366004612339565b610a90565b6102c36103f23660046123d8565b610f86565b34801561040357600080fd5b5061032e611053565b34801561041857600080fd5b506101dc610427366004612248565b61012f6020526000908152604090205460ff1681565b34801561044957600080fd5b5060975460ff166101dc565b34801561046157600080fd5b5061032e6000805160206128dc83398151915281565b34801561048357600080fd5b506102c3610492366004612291565b611106565b3480156104a357600080fd5b506102c3611199565b3480156104b857600080fd5b506101dc6104c7366004612261565b6111ba565b3480156104d857600080fd5b5061032e61012d5481565b3480156104ef57600080fd5b5061032e600081565b34801561050457600080fd5b506102c361051336600461243c565b6111e5565b34801561052457600080fd5b5061032e7f21702c8af46127c7fa207f89d0b0a8441bb32959a0ac7df790e9ab1a25c9892681565b34801561055857600080fd5b506102c3610567366004612261565b61139e565b34801561057857600080fd5b506105a0610587366004612248565b6000908152610131602052604090206001015460ff1690565b6040516101e891906124ab565b3480156105b957600080fd5b506102c36105c83660046124b9565b6113c4565b3480156105d957600080fd5b506106056105e8366004612248565b610131602052600090815260409020805460019091015460ff1682565b6040516101e89291906124de565b34801561061f57600080fd5b5061032e60008051602061287583398151915281565b60006001600160e01b03198216637965db0b60e01b148061066657506301ffc9a760e01b6001600160e01b03198316145b92915050565b6000805160206128dc833981519152610685813361140e565b60008251116106fa5760405162461bcd60e51b815260206004820152603660248201527f576f726b5175657374204272696467653a2053796d626f6c206c656e6774682060448201527506d7573742062652067726561746572207468616e20360541b60648201526084015b60405180910390fd5b6040518060c00160405280858152602001848152602001896001600160a01b031681526020018815158152602001871515815260200186151581525061013083604051610747919061251e565b908152604080516020928190038301902083518155918301516001830155820151600290910180546060840151608085015160a0909501516001600160a01b039094166001600160a81b031990921691909117600160a01b911515919091021761ffff60a81b1916600160a81b9315159390930260ff60b01b191692909217600160b01b911515919091021790555050505050505050565b6000828152606560205260409020600101546107fb813361140e565b6108058383611472565b505050565b6001600160a01b038116331461087a5760405162461bcd60e51b815260206004820152602f60248201527f416363657373436f6e74726f6c3a2063616e206f6e6c792072656e6f756e636560448201526e103937b632b9903337b91039b2b63360891b60648201526084016106f1565b61088482826114f8565b5050565b306001600160a01b037f00000000000000000000000000000000000000000000000000000000000000001614156108d15760405162461bcd60e51b81526004016106f19061253a565b7f00000000000000000000000000000000000000000000000000000000000000006001600160a01b031661091a600080516020612895833981519152546001600160a01b031690565b6001600160a01b0316146109405760405162461bcd60e51b81526004016106f190612586565b6109498161155f565b6040805160008082526020820190925261096591839190611578565b50565b6000805160206128dc833981519152610981813361140e565b6109656116f2565b6000805160206128dc8339815191526109a2813361140e565b6001600160a01b038416610a045760405162461bcd60e51b815260206004820152602360248201527f57514272696467653a20696e76616c696420726563697069656e74206164647260448201526265737360e81b60648201526084016106f1565b6001600160a01b03821615610a2c57610a276001600160a01b0383168585611785565b610a3f565b610a3f6001600160a01b038516846117e8565b604080516001600160a01b038085168252861660208201529081018490527fd1ba4ac2e2a11b5101f6cb4d978f514a155b421e8ec396d2d9abaf0bb02917ee9060600160405180910390a150505050565b60975460ff1615610ad65760405162461bcd60e51b815260206004820152601060248201526f14185d5cd8589b194e881c185d5cd95960821b60448201526064016106f1565b61012d54871415610b355760405162461bcd60e51b8152602060048201526024808201527f576f726b5175657374204272696467653a20496e76616c696420636861696e546044820152631bc81a5960e21b60648201526084016106f1565b600087815261012f602052604090205460ff16610ba85760405162461bcd60e51b815260206004820152602b60248201527f576f726b5175657374204272696467653a20436861696e546f2049442069732060448201526a1b9bdd08185b1b1bddd95960aa1b60648201526084016106f1565b60006101308383604051610bbd9291906125d2565b908152604051908190036020019020600281015490915060ff600160a01b90910416610c515760405162461bcd60e51b815260206004820152603760248201527f576f726b5175657374204272696467653a205468697320746f6b656e206e6f7460448201527f2072656769737465726564206f722064697361626c656400000000000000000060648201526084016106f1565b80548710801590610c66575080600101548711155b610cb25760405162461bcd60e51b815260206004820181905260248201527f576f726b5175657374204272696467653a20496e76616c696420616d6f756e7460448201526064016106f1565b600089888861012d548c8a8a8a8a604051602001610cd8999897969594939291906125e2565b60408051601f1981840301815291905280516020909101209050600080828152610131602052604090206001015460ff166002811115610d1a57610d1a612473565b14610d985760405162461bcd60e51b815260206004820152604260248201527f576f726b5175657374204272696467653a2053776170206973206e6f7420656d60448201527f707479207374617465206f72206475706c6963617465207472616e736163746960648201526137b760f11b608482015260a4016106f1565b6040805180820182528b815260016020808301828152600086815261013190925293902082518155925183820180549394939192909160ff191690836002811115610de557610de5612473565b021790555050506002820154600160b01b900460ff1615610e275761012e546002830154610e22916001600160a01b03918216913391168b611901565b610f2e565b6002820154600160a81b900460ff1615610ec757873414610eb05760405162461bcd60e51b815260206004820152603f60248201527f576f726b5175657374204272696467653a20416d6f756e742076616c7565206960448201527f73206e6f7420657175616c20746f207472616e7366657265642066756e64730060648201526084016106f1565b61012e54610e22906001600160a01b0316896117e8565b6002820154604051632770a7eb60e21b8152336004820152602481018a90526001600160a01b0390911690639dc29fac90604401600060405180830381600087803b158015610f1557600080fd5b505af1158015610f29573d6000803e3d6000fd5b505050505b7f29ab7267823901259c18ef8ff2b6ce9a175b3a1c6cfeba495e0aea26eb235fe242888a61012d548d8f8c8c8c8c604051610f729a9998979695949392919061266a565b60405180910390a150505050505050505050565b306001600160a01b037f0000000000000000000000000000000000000000000000000000000000000000161415610fcf5760405162461bcd60e51b81526004016106f19061253a565b7f00000000000000000000000000000000000000000000000000000000000000006001600160a01b0316611018600080516020612895833981519152546001600160a01b031690565b6001600160a01b03161461103e5760405162461bcd60e51b81526004016106f190612586565b6110478261155f565b61088482826001611578565b6000306001600160a01b037f000000000000000000000000000000000000000000000000000000000000000016146110f35760405162461bcd60e51b815260206004820152603860248201527f555550535570677261646561626c653a206d757374206e6f742062652063616c60448201527f6c6564207468726f7567682064656c656761746563616c6c000000000000000060648201526084016106f1565b5060008051602061289583398151915290565b6000805160206128dc83398151915261111f813361140e565b6001600160a01b0382166111755760405162461bcd60e51b815260206004820152601e60248201527f57514272696467653a20696e76616c696420706f6f6c2061646472657373000060448201526064016106f1565b5061012e80546001600160a01b0319166001600160a01b0392909216919091179055565b6000805160206128dc8339815191526111b2813361140e565b610965611939565b60009182526065602090815260408084206001600160a01b0393909316845291905290205460ff1690565b600054610100900460ff166112005760005460ff1615611204565b303b155b6112675760405162461bcd60e51b815260206004820152602e60248201527f496e697469616c697a61626c653a20636f6e747261637420697320616c72656160448201526d191e481a5b9a5d1a585b1a5e995960921b60648201526084016106f1565b600054610100900460ff16158015611289576000805461ffff19166101011790555b6112916119b4565b6112996119dd565b6112a16119b4565b6112ac600033611a0c565b6112c46000805160206128dc83398151915233611a0c565b6112dc60008051602061287583398151915233611a0c565b6113026000805160206128758339815191526000805160206128dc833981519152611a16565b61133a7f21702c8af46127c7fa207f89d0b0a8441bb32959a0ac7df790e9ab1a25c989266000805160206128dc833981519152611a16565b6113647f21702c8af46127c7fa207f89d0b0a8441bb32959a0ac7df790e9ab1a25c9892683611a0c565b61012d84905561012e80546001600160a01b0319166001600160a01b0385161790558015611398576000805461ff00191690555b50505050565b6000828152606560205260409020600101546113ba813361140e565b61080583836114f8565b6000805160206128dc8339815191526113dd813361140e565b50600091825261012f6020526040909120805460ff1916911515919091179055565b6001600160a01b03163b151590565b61141882826111ba565b61088457611430816001600160a01b03166014611a61565b61143b836020611a61565b60405160200161144c9291906126d1565b60408051601f198184030181529082905262461bcd60e51b82526106f191600401612746565b61147c82826111ba565b6108845760008281526065602090815260408083206001600160a01b03851684529091529020805460ff191660011790556114b43390565b6001600160a01b0316816001600160a01b0316837f2f8788117e7eff1d82e926ec794901d17c78024a50270940304540a733656f0d60405160405180910390a45050565b61150282826111ba565b156108845760008281526065602090815260408083206001600160a01b0385168085529252808320805460ff1916905551339285917ff6391f5c32d9c69d2a47ea670b442974b53935d1edc7fd64eb21e047a839171b9190a45050565b600080516020612875833981519152610884813361140e565b7f4910fdfa16fed3260ed0e7147f7cc6da11a60208b5b9406d12a635614ffd91435460ff16156115ab5761080583611c04565b826001600160a01b03166352d1902d6040518163ffffffff1660e01b815260040160206040518083038186803b1580156115e457600080fd5b505afa925050508015611614575060408051601f3d908101601f1916820190925261161191810190612779565b60015b6116775760405162461bcd60e51b815260206004820152602e60248201527f45524331393637557067726164653a206e657720696d706c656d656e7461746960448201526d6f6e206973206e6f74205555505360901b60648201526084016106f1565b60008051602061289583398151915281146116e65760405162461bcd60e51b815260206004820152602960248201527f45524331393637557067726164653a20756e737570706f727465642070726f786044820152681a58589b195555525160ba1b60648201526084016106f1565b50610805838383611ca0565b60975460ff1661173b5760405162461bcd60e51b815260206004820152601460248201527314185d5cd8589b194e881b9bdd081c185d5cd95960621b60448201526064016106f1565b6097805460ff191690557f5db9ee0a495bf2e6ff9c91a7834c1ba4fdd244a5e8aa4e537bd38aeae4b073aa335b6040516001600160a01b03909116815260200160405180910390a1565b6040516001600160a01b03831660248201526044810182905261080590849063a9059cbb60e01b906064015b60408051601f198184030181529190526020810180516001600160e01b03166001600160e01b031990931692909217909152611cc5565b804710156118385760405162461bcd60e51b815260206004820152601d60248201527f416464726573733a20696e73756666696369656e742062616c616e636500000060448201526064016106f1565b6000826001600160a01b03168260405160006040518083038185875af1925050503d8060008114611885576040519150601f19603f3d011682016040523d82523d6000602084013e61188a565b606091505b50509050806108055760405162461bcd60e51b815260206004820152603a60248201527f416464726573733a20756e61626c6520746f2073656e642076616c75652c207260448201527f6563697069656e74206d6179206861766520726576657274656400000000000060648201526084016106f1565b6040516001600160a01b03808516602483015283166044820152606481018290526113989085906323b872dd60e01b906084016117b1565b60975460ff161561197f5760405162461bcd60e51b815260206004820152601060248201526f14185d5cd8589b194e881c185d5cd95960821b60448201526064016106f1565b6097805460ff191660011790557f62e78cea01bee320cd4e420270b5ea74000d11b0c9f74754ebdbfc544b05a2586117683390565b600054610100900460ff166119db5760405162461bcd60e51b81526004016106f190612792565b565b600054610100900460ff16611a045760405162461bcd60e51b81526004016106f190612792565b6119db611d97565b6108848282611472565b600082815260656020526040808220600101805490849055905190918391839186917fbd79b86ffe0ab8e8776151514217cd7cacd52c909f66475c3af44e129f0b00ff9190a4505050565b60606000611a708360026127f3565b611a7b906002612812565b67ffffffffffffffff811115611a9357611a936120a9565b6040519080825280601f01601f191660200182016040528015611abd576020820181803683370190505b509050600360fc1b81600081518110611ad857611ad861282a565b60200101906001600160f81b031916908160001a905350600f60fb1b81600181518110611b0757611b0761282a565b60200101906001600160f81b031916908160001a9053506000611b2b8460026127f3565b611b36906001612812565b90505b6001811115611bae576f181899199a1a9b1b9c1cb0b131b232b360811b85600f1660108110611b6a57611b6a61282a565b1a60f81b828281518110611b8057611b8061282a565b60200101906001600160f81b031916908160001a90535060049490941c93611ba781612840565b9050611b39565b508315611bfd5760405162461bcd60e51b815260206004820181905260248201527f537472696e67733a20686578206c656e67746820696e73756666696369656e7460448201526064016106f1565b9392505050565b6001600160a01b0381163b611c715760405162461bcd60e51b815260206004820152602d60248201527f455243313936373a206e657720696d706c656d656e746174696f6e206973206e60448201526c1bdd08184818dbdb9d1c9858dd609a1b60648201526084016106f1565b60008051602061289583398151915280546001600160a01b0319166001600160a01b0392909216919091179055565b611ca983611dca565b600082511180611cb65750805b15610805576113988383611e0a565b6000611d1a826040518060400160405280602081526020017f5361666545524332303a206c6f772d6c6576656c2063616c6c206661696c6564815250856001600160a01b0316611efe9092919063ffffffff16565b8051909150156108055780806020019051810190611d389190612857565b6108055760405162461bcd60e51b815260206004820152602a60248201527f5361666545524332303a204552433230206f7065726174696f6e20646964206e6044820152691bdd081cdd58d8d9595960b21b60648201526084016106f1565b600054610100900460ff16611dbe5760405162461bcd60e51b81526004016106f190612792565b6097805460ff19169055565b611dd381611c04565b6040516001600160a01b038216907fbc7cd75a20ee27fd9adebab32041f755214dbc6bffa90cc0225b39da2e5c2d3b90600090a250565b60606001600160a01b0383163b611e725760405162461bcd60e51b815260206004820152602660248201527f416464726573733a2064656c65676174652063616c6c20746f206e6f6e2d636f6044820152651b9d1c9858dd60d21b60648201526084016106f1565b600080846001600160a01b031684604051611e8d919061251e565b600060405180830381855af49150503d8060008114611ec8576040519150601f19603f3d011682016040523d82523d6000602084013e611ecd565b606091505b5091509150611ef582826040518060600160405280602781526020016128b560279139611f15565b95945050505050565b6060611f0d8484600085611f4e565b949350505050565b60608315611f24575081611bfd565b825115611f345782518084602001fd5b8160405162461bcd60e51b81526004016106f19190612746565b606082471015611faf5760405162461bcd60e51b815260206004820152602660248201527f416464726573733a20696e73756666696369656e742062616c616e636520666f6044820152651c8818d85b1b60d21b60648201526084016106f1565b6001600160a01b0385163b6120065760405162461bcd60e51b815260206004820152601d60248201527f416464726573733a2063616c6c20746f206e6f6e2d636f6e747261637400000060448201526064016106f1565b600080866001600160a01b03168587604051612022919061251e565b60006040518083038185875af1925050503d806000811461205f576040519150601f19603f3d011682016040523d82523d6000602084013e612064565b606091505b5091509150612074828286611f15565b979650505050505050565b60006020828403121561209157600080fd5b81356001600160e01b031981168114611bfd57600080fd5b634e487b7160e01b600052604160045260246000fd5b600067ffffffffffffffff808411156120da576120da6120a9565b604051601f8501601f19908116603f01168101908282118183101715612102576121026120a9565b8160405280935085815286868601111561211b57600080fd5b858560208301376000602087830101525050509392505050565b600082601f83011261214657600080fd5b611bfd838335602085016120bf565b60006020828403121561216757600080fd5b813567ffffffffffffffff81111561217e57600080fd5b611f0d84828501612135565b6001600160a01b038116811461096557600080fd5b801515811461096557600080fd5b600080600080600080600060e0888a0312156121c857600080fd5b87356121d38161218a565b965060208801356121e38161219f565b955060408801356121f38161219f565b945060608801356122038161219f565b93506080880135925060a0880135915060c088013567ffffffffffffffff81111561222d57600080fd5b6122398a828b01612135565b91505092959891949750929550565b60006020828403121561225a57600080fd5b5035919050565b6000806040838503121561227457600080fd5b8235915060208301356122868161218a565b809150509250929050565b6000602082840312156122a357600080fd5b8135611bfd8161218a565b6000806000606084860312156122c357600080fd5b83356122ce8161218a565b92506020840135915060408401356122e58161218a565b809150509250925092565b60008083601f84011261230257600080fd5b50813567ffffffffffffffff81111561231a57600080fd5b60208301915083602082850101111561233257600080fd5b9250929050565b60008060008060008060008060c0898b03121561235557600080fd5b88359750602089013596506040890135955060608901356123758161218a565b9450608089013567ffffffffffffffff8082111561239257600080fd5b61239e8c838d016122f0565b909650945060a08b01359150808211156123b757600080fd5b506123c48b828c016122f0565b999c989b5096995094979396929594505050565b600080604083850312156123eb57600080fd5b82356123f68161218a565b9150602083013567ffffffffffffffff81111561241257600080fd5b8301601f8101851361242357600080fd5b612432858235602084016120bf565b9150509250929050565b60008060006060848603121561245157600080fd5b8335925060208401356124638161218a565b915060408401356122e58161218a565b634e487b7160e01b600052602160045260246000fd5b600381106124a757634e487b7160e01b600052602160045260246000fd5b9052565b602081016106668284612489565b600080604083850312156124cc57600080fd5b8235915060208301356122868161219f565b82815260408101611bfd6020830184612489565b60005b8381101561250d5781810151838201526020016124f5565b838111156113985750506000910152565b600082516125308184602087016124f2565b9190910192915050565b6020808252602c908201527f46756e6374696f6e206d7573742062652063616c6c6564207468726f7567682060408201526b19195b1959d85d1958d85b1b60a21b606082015260800190565b6020808252602c908201527f46756e6374696f6e206d7573742062652063616c6c6564207468726f7567682060408201526b6163746976652070726f787960a01b606082015260800190565b8183823760009101908152919050565b8981528860208201526bffffffffffffffffffffffff198860601b166040820152866054820152856074820152838560948301376000848201609481016000815284868237506000930160940192835250909998505050505050505050565b81835281816020850137506000828201602090810191909152601f909101601f19169091010190565b60006101008c835260018060a01b038c1660208401528a60408401528960608401528860808401528760a08401528060c08401526126ab8184018789612641565b905082810360e08401526126c0818587612641565b9d9c50505050505050505050505050565b7f416363657373436f6e74726f6c3a206163636f756e74200000000000000000008152600083516127098160178501602088016124f2565b7001034b99036b4b9b9b4b733903937b6329607d1b601791840191820152835161273a8160288401602088016124f2565b01602801949350505050565b60208152600082518060208401526127658160408501602087016124f2565b601f01601f19169190910160400192915050565b60006020828403121561278b57600080fd5b5051919050565b6020808252602b908201527f496e697469616c697a61626c653a20636f6e7472616374206973206e6f74206960408201526a6e697469616c697a696e6760a81b606082015260800190565b634e487b7160e01b600052601160045260246000fd5b600081600019048311821515161561280d5761280d6127dd565b500290565b60008219821115612825576128256127dd565b500190565b634e487b7160e01b600052603260045260246000fd5b60008161284f5761284f6127dd565b506000190190565b60006020828403121561286957600080fd5b8151611bfd8161219f56fe189ab7a9244df0848122154315af71fe140f3db0fe014031783b0946b8c9d2e3360894a13ba1a3210667c828492db98dca3e2076cc3735a920a3ca505d382bbc416464726573733a206c6f772d6c6576656c2064656c65676174652063616c6c206661696c6564a49807205ce4d355092ef5a8a18f56e8913cf4a201fbe287825b095693c21775a264697066735822122030710c193f9e190688c0d893f2c836ec865d8310f39ae1caafca458570b5408464736f6c63430008090033",
  "linkReferences": {},
  "deployedLinkReferences": {}
}