{
  "_format": "hh-sol-artifact-1",
  "contractName": "WQCollateralAuction",
  "sourceName": "contracts/stablecoin/WQCollateralAuction.sol",
  "abi": [
    {
      "inputs": [],
      "stateMutability": "nonpayable",
      "type": "constructor"
    },
    {
      "anonymous": false,
      "inputs": [
        {
          "indexed": false,
          "internalType": "address",
          "name": "previousAdmin",
          "type": "address"
        },
        {
          "indexed": false,
          "internalType": "address",
          "name": "newAdmin",
          "type": "address"
        }
      ],
      "name": "AdminChanged",
      "type": "event"
    },
    {
      "anonymous": false,
      "inputs": [
        {
          "indexed": false,
          "internalType": "uint256",
          "name": "index",
          "type": "uint256"
        },
        {
          "indexed": false,
          "internalType": "uint256",
          "name": "amount",
          "type": "uint256"
        },
        {
          "indexed": false,
          "internalType": "uint256",
          "name": "endCost",
          "type": "uint256"
        }
      ],
      "name": "AuctionStarted",
      "type": "event"
    },
    {
      "anonymous": false,
      "inputs": [
        {
          "indexed": true,
          "internalType": "address",
          "name": "beacon",
          "type": "address"
        }
      ],
      "name": "BeaconUpgraded",
      "type": "event"
    },
    {
      "anonymous": false,
      "inputs": [
        {
          "indexed": false,
          "internalType": "address",
          "name": "buyer",
          "type": "address"
        },
        {
          "indexed": false,
          "internalType": "uint256",
          "name": "index",
          "type": "uint256"
        },
        {
          "indexed": false,
          "internalType": "uint256",
          "name": "amount",
          "type": "uint256"
        },
        {
          "indexed": false,
          "internalType": "uint256",
          "name": "cost",
          "type": "uint256"
        },
        {
          "indexed": false,
          "internalType": "uint256",
          "name": "price",
          "type": "uint256"
        }
      ],
      "name": "LotBuyed",
      "type": "event"
    },
    {
      "anonymous": false,
      "inputs": [
        {
          "indexed": false,
          "internalType": "uint256",
          "name": "index",
          "type": "uint256"
        },
        {
          "indexed": false,
          "internalType": "uint256",
          "name": "amount",
          "type": "uint256"
        },
        {
          "indexed": false,
          "internalType": "uint256",
          "name": "cost",
          "type": "uint256"
        }
      ],
      "name": "LotCanceled",
      "type": "event"
    },
    {
      "anonymous": false,
      "inputs": [
        {
          "indexed": true,
          "internalType": "bytes32",
          "name": "role",
          "type": "bytes32"
        },
        {
          "indexed": true,
          "internalType": "bytes32",
          "name": "previousAdminRole",
          "type": "bytes32"
        },
        {
          "indexed": true,
          "internalType": "bytes32",
          "name": "newAdminRole",
          "type": "bytes32"
        }
      ],
      "name": "RoleAdminChanged",
      "type": "event"
    },
    {
      "anonymous": false,
      "inputs": [
        {
          "indexed": true,
          "internalType": "bytes32",
          "name": "role",
          "type": "bytes32"
        },
        {
          "indexed": true,
          "internalType": "address",
          "name": "account",
          "type": "address"
        },
        {
          "indexed": true,
          "internalType": "address",
          "name": "sender",
          "type": "address"
        }
      ],
      "name": "RoleGranted",
      "type": "event"
    },
    {
      "anonymous": false,
      "inputs": [
        {
          "indexed": true,
          "internalType": "bytes32",
          "name": "role",
          "type": "bytes32"
        },
        {
          "indexed": true,
          "internalType": "address",
          "name": "account",
          "type": "address"
        },
        {
          "indexed": true,
          "internalType": "address",
          "name": "sender",
          "type": "address"
        }
      ],
      "name": "RoleRevoked",
      "type": "event"
    },
    {
      "anonymous": false,
      "inputs": [
        {
          "indexed": true,
          "internalType": "address",
          "name": "implementation",
          "type": "address"
        }
      ],
      "name": "Upgraded",
      "type": "event"
    },
    {
      "inputs": [],
      "name": "ADMIN_ROLE",
      "outputs": [
        {
          "internalType": "bytes32",
          "name": "",
          "type": "bytes32"
        }
      ],
      "stateMutability": "view",
      "type": "function"
    },
    {
      "inputs": [],
      "name": "DEFAULT_ADMIN_ROLE",
      "outputs": [
        {
          "internalType": "bytes32",
          "name": "",
          "type": "bytes32"
        }
      ],
      "stateMutability": "view",
      "type": "function"
    },
    {
      "inputs": [],
      "name": "SERVICE_ROLE",
      "outputs": [
        {
          "internalType": "bytes32",
          "name": "",
          "type": "bytes32"
        }
      ],
      "stateMutability": "view",
      "type": "function"
    },
    {
      "inputs": [],
      "name": "UPGRADER_ROLE",
      "outputs": [
        {
          "internalType": "bytes32",
          "name": "",
          "type": "bytes32"
        }
      ],
      "stateMutability": "view",
      "type": "function"
    },
    {
      "inputs": [
        {
          "internalType": "address",
          "name": "user",
          "type": "address"
        },
        {
          "internalType": "uint256",
          "name": "price",
          "type": "uint256"
        },
        {
          "internalType": "uint256",
          "name": "amount",
          "type": "uint256"
        },
        {
          "internalType": "uint256",
          "name": "ratio",
          "type": "uint256"
        }
      ],
      "name": "addLot",
      "outputs": [
        {
          "internalType": "uint256",
          "name": "",
          "type": "uint256"
        }
      ],
      "stateMutability": "nonpayable",
      "type": "function"
    },
    {
      "inputs": [],
      "name": "auctionDuration",
      "outputs": [
        {
          "internalType": "uint256",
          "name": "",
          "type": "uint256"
        }
      ],
      "stateMutability": "view",
      "type": "function"
    },
    {
      "inputs": [
        {
          "internalType": "uint256",
          "name": "index",
          "type": "uint256"
        }
      ],
      "name": "buyLot",
      "outputs": [],
      "stateMutability": "nonpayable",
      "type": "function"
    },
    {
      "inputs": [
        {
          "internalType": "uint256",
          "name": "index",
          "type": "uint256"
        }
      ],
      "name": "cancelAuction",
      "outputs": [],
      "stateMutability": "nonpayable",
      "type": "function"
    },
    {
      "inputs": [
        {
          "internalType": "uint256",
          "name": "index",
          "type": "uint256"
        },
        {
          "internalType": "uint256",
          "name": "collaterralPart",
          "type": "uint256"
        }
      ],
      "name": "decreaseLotAmount",
      "outputs": [
        {
          "internalType": "uint256",
          "name": "",
          "type": "uint256"
        }
      ],
      "stateMutability": "nonpayable",
      "type": "function"
    },
    {
      "inputs": [],
      "name": "disableReserves",
      "outputs": [],
      "stateMutability": "nonpayable",
      "type": "function"
    },
    {
      "inputs": [],
      "name": "enableReserves",
      "outputs": [],
      "stateMutability": "nonpayable",
      "type": "function"
    },
    {
      "inputs": [
        {
          "internalType": "uint256",
          "name": "index",
          "type": "uint256"
        },
        {
          "internalType": "uint256",
          "name": "amount",
          "type": "uint256"
        }
      ],
      "name": "getComission",
      "outputs": [
        {
          "internalType": "uint256",
          "name": "",
          "type": "uint256"
        }
      ],
      "stateMutability": "view",
      "type": "function"
    },
    {
      "inputs": [
        {
          "internalType": "uint256",
          "name": "index",
          "type": "uint256"
        }
      ],
      "name": "getCurrentLotCost",
      "outputs": [
        {
          "internalType": "uint256",
          "name": "",
          "type": "uint256"
        }
      ],
      "stateMutability": "view",
      "type": "function"
    },
    {
      "inputs": [],
      "name": "getLiquidatedCollaterallAmount",
      "outputs": [
        {
          "internalType": "uint256",
          "name": "",
          "type": "uint256"
        }
      ],
      "stateMutability": "view",
      "type": "function"
    },
    {
      "inputs": [
        {
          "internalType": "uint256",
          "name": "index",
          "type": "uint256"
        }
      ],
      "name": "getLotInfo",
      "outputs": [
        {
          "internalType": "uint256",
          "name": "",
          "type": "uint256"
        },
        {
          "internalType": "uint256",
          "name": "",
          "type": "uint256"
        },
        {
          "internalType": "uint256",
          "name": "",
          "type": "uint256"
        }
      ],
      "stateMutability": "view",
      "type": "function"
    },
    {
      "inputs": [
        {
          "internalType": "uint256",
          "name": "index",
          "type": "uint256"
        }
      ],
      "name": "getLotOwner",
      "outputs": [
        {
          "internalType": "address",
          "name": "",
          "type": "address"
        }
      ],
      "stateMutability": "view",
      "type": "function"
    },
    {
      "inputs": [
        {
          "internalType": "uint256",
          "name": "index",
          "type": "uint256"
        }
      ],
      "name": "getLotStatus",
      "outputs": [
        {
          "internalType": "uint8",
          "name": "",
          "type": "uint8"
        }
      ],
      "stateMutability": "view",
      "type": "function"
    },
    {
      "inputs": [
        {
          "internalType": "uint256",
          "name": "offset",
          "type": "uint256"
        },
        {
          "internalType": "uint256",
          "name": "limit",
          "type": "uint256"
        }
      ],
      "name": "getLots",
      "outputs": [
        {
          "components": [
            {
              "internalType": "address",
              "name": "user",
              "type": "address"
            },
            {
              "internalType": "uint256",
              "name": "price",
              "type": "uint256"
            },
            {
              "internalType": "uint256",
              "name": "amount",
              "type": "uint256"
            },
            {
              "internalType": "uint256",
              "name": "ratio",
              "type": "uint256"
            },
            {
              "internalType": "uint256",
              "name": "created",
              "type": "uint256"
            },
            {
              "internalType": "uint256",
              "name": "saleAmount",
              "type": "uint256"
            },
            {
              "internalType": "uint256",
              "name": "endPrice",
              "type": "uint256"
            },
            {
              "internalType": "uint256",
              "name": "endTime",
              "type": "uint256"
            },
            {
              "internalType": "enum WQCollateralAuction.LotStatus",
              "name": "status",
              "type": "uint8"
            }
          ],
          "internalType": "struct WQCollateralAuction.LotInfo[]",
          "name": "page",
          "type": "tuple[]"
        }
      ],
      "stateMutability": "view",
      "type": "function"
    },
    {
      "inputs": [
        {
          "internalType": "bytes32",
          "name": "role",
          "type": "bytes32"
        }
      ],
      "name": "getRoleAdmin",
      "outputs": [
        {
          "internalType": "bytes32",
          "name": "",
          "type": "bytes32"
        }
      ],
      "stateMutability": "view",
      "type": "function"
    },
    {
      "inputs": [
        {
          "internalType": "bytes32",
          "name": "role",
          "type": "bytes32"
        },
        {
          "internalType": "address",
          "name": "account",
          "type": "address"
        }
      ],
      "name": "grantRole",
      "outputs": [],
      "stateMutability": "nonpayable",
      "type": "function"
    },
    {
      "inputs": [
        {
          "internalType": "bytes32",
          "name": "role",
          "type": "bytes32"
        },
        {
          "internalType": "address",
          "name": "account",
          "type": "address"
        }
      ],
      "name": "hasRole",
      "outputs": [
        {
          "internalType": "bool",
          "name": "",
          "type": "bool"
        }
      ],
      "stateMutability": "view",
      "type": "function"
    },
    {
      "inputs": [
        {
          "internalType": "address",
          "name": "_token",
          "type": "address"
        },
        {
          "internalType": "address",
          "name": "_oracle",
          "type": "address"
        },
        {
          "internalType": "address",
          "name": "_router",
          "type": "address"
        },
        {
          "internalType": "uint256",
          "name": "_liquidateThreshold",
          "type": "uint256"
        },
        {
          "internalType": "uint256",
          "name": "_upperBoundCost",
          "type": "uint256"
        },
        {
          "internalType": "uint256",
          "name": "_lowerBoundCost",
          "type": "uint256"
        },
        {
          "internalType": "uint256",
          "name": "_auctionDuration",
          "type": "uint256"
        }
      ],
      "name": "initialize",
      "outputs": [],
      "stateMutability": "nonpayable",
      "type": "function"
    },
    {
      "inputs": [
        {
          "internalType": "uint256",
          "name": "index",
          "type": "uint256"
        },
        {
          "internalType": "uint256",
          "name": "amount",
          "type": "uint256"
        }
      ],
      "name": "liquidateLot",
      "outputs": [],
      "stateMutability": "nonpayable",
      "type": "function"
    },
    {
      "inputs": [],
      "name": "liquidateThreshold",
      "outputs": [
        {
          "internalType": "uint256",
          "name": "",
          "type": "uint256"
        }
      ],
      "stateMutability": "view",
      "type": "function"
    },
    {
      "inputs": [
        {
          "internalType": "uint256",
          "name": "",
          "type": "uint256"
        }
      ],
      "name": "lots",
      "outputs": [
        {
          "internalType": "address",
          "name": "user",
          "type": "address"
        },
        {
          "internalType": "uint256",
          "name": "price",
          "type": "uint256"
        },
        {
          "internalType": "uint256",
          "name": "amount",
          "type": "uint256"
        },
        {
          "internalType": "uint256",
          "name": "ratio",
          "type": "uint256"
        },
        {
          "internalType": "uint256",
          "name": "created",
          "type": "uint256"
        },
        {
          "internalType": "uint256",
          "name": "saleAmount",
          "type": "uint256"
        },
        {
          "internalType": "uint256",
          "name": "endPrice",
          "type": "uint256"
        },
        {
          "internalType": "uint256",
          "name": "endTime",
          "type": "uint256"
        },
        {
          "internalType": "enum WQCollateralAuction.LotStatus",
          "name": "status",
          "type": "uint8"
        }
      ],
      "stateMutability": "view",
      "type": "function"
    },
    {
      "inputs": [],
      "name": "lowerBoundCost",
      "outputs": [
        {
          "internalType": "uint256",
          "name": "",
          "type": "uint256"
        }
      ],
      "stateMutability": "view",
      "type": "function"
    },
    {
      "inputs": [
        {
          "internalType": "uint256",
          "name": "index",
          "type": "uint256"
        },
        {
          "internalType": "uint256",
          "name": "newPrice",
          "type": "uint256"
        },
        {
          "internalType": "uint256",
          "name": "newAmount",
          "type": "uint256"
        }
      ],
      "name": "moveLot",
      "outputs": [
        {
          "internalType": "uint256",
          "name": "",
          "type": "uint256"
        }
      ],
      "stateMutability": "nonpayable",
      "type": "function"
    },
    {
      "inputs": [],
      "name": "oracle",
      "outputs": [
        {
          "internalType": "contract WQPriceOracleInterface",
          "name": "",
          "type": "address"
        }
      ],
      "stateMutability": "view",
      "type": "function"
    },
    {
      "inputs": [],
      "name": "proxiableUUID",
      "outputs": [
        {
          "internalType": "bytes32",
          "name": "",
          "type": "bytes32"
        }
      ],
      "stateMutability": "view",
      "type": "function"
    },
    {
      "inputs": [
        {
          "internalType": "bytes32",
          "name": "role",
          "type": "bytes32"
        },
        {
          "internalType": "address",
          "name": "account",
          "type": "address"
        }
      ],
      "name": "renounceRole",
      "outputs": [],
      "stateMutability": "nonpayable",
      "type": "function"
    },
    {
      "inputs": [],
      "name": "reservesEnabled",
      "outputs": [
        {
          "internalType": "bool",
          "name": "",
          "type": "bool"
        }
      ],
      "stateMutability": "view",
      "type": "function"
    },
    {
      "inputs": [
        {
          "internalType": "bytes32",
          "name": "role",
          "type": "bytes32"
        },
        {
          "internalType": "address",
          "name": "account",
          "type": "address"
        }
      ],
      "name": "revokeRole",
      "outputs": [],
      "stateMutability": "nonpayable",
      "type": "function"
    },
    {
      "inputs": [],
      "name": "router",
      "outputs": [
        {
          "internalType": "contract WQRouterInterface",
          "name": "",
          "type": "address"
        }
      ],
      "stateMutability": "view",
      "type": "function"
    },
    {
      "inputs": [
        {
          "internalType": "uint256",
          "name": "duration",
          "type": "uint256"
        }
      ],
      "name": "setAuctionDuration",
      "outputs": [],
      "stateMutability": "nonpayable",
      "type": "function"
    },
    {
      "inputs": [
        {
          "internalType": "uint256",
          "name": "percent",
          "type": "uint256"
        }
      ],
      "name": "setLiquidateTreshold",
      "outputs": [],
      "stateMutability": "nonpayable",
      "type": "function"
    },
    {
      "inputs": [
        {
          "internalType": "uint256",
          "name": "percent",
          "type": "uint256"
        }
      ],
      "name": "setLowerBoundCost",
      "outputs": [],
      "stateMutability": "nonpayable",
      "type": "function"
    },
    {
      "inputs": [
        {
          "internalType": "address",
          "name": "_oracle",
          "type": "address"
        }
      ],
      "name": "setOracle",
      "outputs": [],
      "stateMutability": "nonpayable",
      "type": "function"
    },
    {
      "inputs": [
        {
          "internalType": "address",
          "name": "_router",
          "type": "address"
        }
      ],
      "name": "setRouter",
      "outputs": [],
      "stateMutability": "nonpayable",
      "type": "function"
    },
    {
      "inputs": [
        {
          "internalType": "address",
          "name": "_token",
          "type": "address"
        }
      ],
      "name": "setToken",
      "outputs": [],
      "stateMutability": "nonpayable",
      "type": "function"
    },
    {
      "inputs": [
        {
          "internalType": "uint256",
          "name": "percent",
          "type": "uint256"
        }
      ],
      "name": "setUpperBoundCost",
      "outputs": [],
      "stateMutability": "nonpayable",
      "type": "function"
    },
    {
      "inputs": [
        {
          "internalType": "uint256",
          "name": "index",
          "type": "uint256"
        },
        {
          "internalType": "uint256",
          "name": "amount",
          "type": "uint256"
        }
      ],
      "name": "startAuction",
      "outputs": [],
      "stateMutability": "nonpayable",
      "type": "function"
    },
    {
      "inputs": [
        {
          "internalType": "bytes4",
          "name": "interfaceId",
          "type": "bytes4"
        }
      ],
      "name": "supportsInterface",
      "outputs": [
        {
          "internalType": "bool",
          "name": "",
          "type": "bool"
        }
      ],
      "stateMutability": "view",
      "type": "function"
    },
    {
      "inputs": [],
      "name": "token",
      "outputs": [
        {
          "internalType": "contract IERC20MetadataUpgradeable",
          "name": "",
          "type": "address"
        }
      ],
      "stateMutability": "view",
      "type": "function"
    },
    {
      "inputs": [],
      "name": "totalAuctioned",
      "outputs": [
        {
          "internalType": "uint256",
          "name": "",
          "type": "uint256"
        }
      ],
      "stateMutability": "view",
      "type": "function"
    },
    {
      "inputs": [
        {
          "internalType": "address",
          "name": "newImplementation",
          "type": "address"
        }
      ],
      "name": "upgradeTo",
      "outputs": [],
      "stateMutability": "nonpayable",
      "type": "function"
    },
    {
      "inputs": [
        {
          "internalType": "address",
          "name": "newImplementation",
          "type": "address"
        },
        {
          "internalType": "bytes",
          "name": "data",
          "type": "bytes"
        }
      ],
      "name": "upgradeToAndCall",
      "outputs": [],
      "stateMutability": "payable",
      "type": "function"
    },
    {
      "inputs": [],
      "name": "upperBoundCost",
      "outputs": [
        {
          "internalType": "uint256",
          "name": "",
          "type": "uint256"
        }
      ],
      "stateMutability": "view",
      "type": "function"
    }
  ],
  "bytecode": "0x60a0604052306080523480156200001557600080fd5b50600054610100900460ff16620000335760005460ff16156200003d565b6200003d620000e2565b620000a55760405162461bcd60e51b815260206004820152602e60248201527f496e697469616c697a61626c653a20636f6e747261637420697320616c72656160448201526d191e481a5b9a5d1a585b1a5e995960921b606482015260840160405180910390fd5b600054610100900460ff16158015620000c8576000805461ffff19166101011790555b8015620000db576000805461ff00191690555b506200010f565b6000620000fa306200010060201b62002beb1760201c565b15905090565b6001600160a01b03163b151590565b60805161420f620001476000396000818161107a015281816110ba015281816111e80152818161122801526117c0015261420f6000f3fe6080604052600436106102885760003560e01c8063874f5cbb1161015a578063c41600fe116100c1578063f72c0d8b1161007a578063f72c0d8b146107f3578063f887ea4014610815578063fc0c546a14610836578063fdcb648c14610857578063ff2ab2291461086e578063ffb671861461088557600080fd5b8063c41600fe1461071e578063cc6b3be31461073e578063d0896c551461075e578063d547741f1461077e578063e2a07a071461079e578063f1648e84146107be57600080fd5b8063a20e7d4711610113578063a20e7d4714610672578063a217fddf14610694578063a497e674146106a9578063b0f78765146106c9578063b70a07ea146106de578063c0d78655146106fe57600080fd5b8063874f5cbb1461059857806390d070f3146105c557806391d14854146105e557806396b5a75514610605578063997e7c36146106255780639ea687a71461065757600080fd5b80633a1a7327116101fe57806364ad7ad7116101b757806364ad7ad7146104e057806374e3e3dc1461050057806375b238fc1461052057806376446013146105425780637adbf973146105575780637dc0d1d01461057757600080fd5b80633a1a732714610429578063403b74ed146104615780634f1ef286146104785780634fee13fc1461048b57806352d1902d146104ab578063535bb867146104c057600080fd5b80632c2a40c7116102505780632c2a40c7146103595780632f1b1303146103795780632f2ff15d146103b457806336568abe146103d45780633659cfe6146103f457806336c1d2351461041457600080fd5b806301ffc9a71461028d5780630cbf54c8146102c2578063144fa6d7146102e7578063248a9ca3146103095780632b4656c814610339575b600080fd5b34801561029957600080fd5b506102ad6102a836600461377e565b61089c565b60405190151581526020015b60405180910390f35b3480156102ce57600080fd5b506102d96101335481565b6040519081526020016102b9565b3480156102f357600080fd5b506103076103023660046137c4565b6108d3565b005b34801561031557600080fd5b506102d96103243660046137df565b60009081526065602052604090206001015490565b34801561034557600080fd5b506103076103543660046137f8565b610910565b34801561036557600080fd5b50610307610374366004613860565b610acc565b34801561038557600080fd5b506103996103943660046137df565b610f7f565b604080519384526020840192909252908201526060016102b9565b3480156103c057600080fd5b506103076103cf366004613882565b610fc6565b3480156103e057600080fd5b506103076103ef366004613882565b610ff1565b34801561040057600080fd5b5061030761040f3660046137c4565b61106f565b34801561042057600080fd5b5061030761114f565b34801561043557600080fd5b506104496104443660046137df565b6111a7565b6040516001600160a01b0390911681526020016102b9565b34801561046d57600080fd5b506102d96101315481565b61030761048636600461391d565b6111dd565b34801561049757600080fd5b506103076104a6366004613860565b6112aa565b3480156104b757600080fd5b506102d96117b3565b3480156104cc57600080fd5b506102d96104db3660046137df565b611866565b3480156104ec57600080fd5b506103076104fb3660046137df565b6119dc565b34801561050c57600080fd5b5061030761051b3660046137df565b6119fc565b34801561052c57600080fd5b506102d96000805160206141ba83398151915281565b34801561054e57600080fd5b50610307611e37565b34801561056357600080fd5b506103076105723660046137c4565b611e8b565b34801561058357600080fd5b5061012d54610449906001600160a01b031681565b3480156105a457600080fd5b506105b86105b3366004613860565b611ec8565b6040516102b991906139e6565b3480156105d157600080fd5b506102d96105e0366004613860565b612052565b3480156105f157600080fd5b506102ad610600366004613882565b6121c9565b34801561061157600080fd5b506103076106203660046137df565b6121f4565b34801561063157600080fd5b506106456106403660046137df565b61249d565b60405160ff90911681526020016102b9565b34801561066357600080fd5b50610135546102ad9060ff1681565b34801561067e57600080fd5b506102d960008051602061413383398151915281565b3480156106a057600080fd5b506102d9600081565b3480156106b557600080fd5b506103076106c43660046137df565b6124db565b3480156106d557600080fd5b506102d96124fb565b3480156106ea57600080fd5b506102d96106f9366004613a93565b612855565b34801561070a57600080fd5b506103076107193660046137c4565b6128de565b34801561072a57600080fd5b506103076107393660046137df565b61291b565b34801561074a57600080fd5b506102d9610759366004613abf565b61293b565b34801561076a57600080fd5b506102d9610779366004613860565b612a96565b34801561078a57600080fd5b50610307610799366004613882565b612b3c565b3480156107aa57600080fd5b506103076107b93660046137df565b612b62565b3480156107ca57600080fd5b506107de6107d93660046137df565b612b82565b6040516102b999989796959493929190613af8565b3480156107ff57600080fd5b506102d960008051602061415383398151915281565b34801561082157600080fd5b5061012e54610449906001600160a01b031681565b34801561084257600080fd5b5061012f54610449906001600160a01b031681565b34801561086357600080fd5b506102d96101305481565b34801561087a57600080fd5b506102d96101325481565b34801561089157600080fd5b506102d96101345481565b60006001600160e01b03198216637965db0b60e01b14806108cd57506301ffc9a760e01b6001600160e01b03198316145b92915050565b6000805160206141ba8339815191526108ec8133612bfa565b5061012f80546001600160a01b0319166001600160a01b0392909216919091179055565b600054610100900460ff1661092b5760005460ff161561092f565b303b155b6109975760405162461bcd60e51b815260206004820152602e60248201527f496e697469616c697a61626c653a20636f6e747261637420697320616c72656160448201526d191e481a5b9a5d1a585b1a5e995960921b60648201526084015b60405180910390fd5b600054610100900460ff161580156109b9576000805461ffff19166101011790555b6109c1612c5e565b6109c9612c87565b6109d1612c5e565b6109dc600033612cb6565b6109f46000805160206141ba83398151915233612cb6565b610a0c60008051602061415383398151915233612cb6565b610a326000805160206141338339815191526000805160206141ba833981519152612cc0565b610a586000805160206141538339815191526000805160206141ba833981519152612cc0565b61012f80546001600160a01b03808b166001600160a01b03199283161790925561012d80548a841690831617905561012e8054928916929091169190911790556101308590556101318490556101328390556101338290558015610ac2576000805461ff00191690555b5050505050505050565b60006101368381548110610ae257610ae2613b52565b6000918252602090912060099091020190506003600882015460ff166003811115610b0f57610b0f6139ae565b14610b5c5760405162461bcd60e51b815260206004820181905260248201527f575141756374696f6e3a204c6f74206973206e6f74206c697175696461746564604482015260640161098e565b61012d5461012f54604080516395d89b4160e01b815290516000936001600160a01b0390811693630292e0fd939116916395d89b41916004808201928892909190829003018186803b158015610bb157600080fd5b505afa158015610bc5573d6000803e3d6000fd5b505050506040513d6000823e601f3d908101601f19168201604052610bed9190810190613b94565b6040518263ffffffff1660e01b8152600401610c099190613c2e565b60206040518083038186803b158015610c2157600080fd5b505afa158015610c35573d6000803e3d6000fd5b505050506040513d601f19601f82011682018060405250810190610c599190613c41565b905060008260010154836003015483610c729190613c70565b610c7c9190613c8f565b9050808360020154670de0b6b3a7640000610c979190613c70565b610ca19190613c8f565b8410610cbf5760405162461bcd60e51b815260040161098e90613cb1565b6000670de0b6b3a76400008361012f60009054906101000a90046001600160a01b03166001600160a01b031663313ce5676040518163ffffffff1660e01b815260040160206040518083038186803b158015610d1a57600080fd5b505afa158015610d2e573d6000803e3d6000fd5b505050506040513d601f19601f82011682018060405250810190610d529190613d0f565b610d5d906012613d32565b610d6890600a613e39565b610d729088613c70565b610d7c9190613c70565b610d869190613c8f565b90506000610d98878660050154612052565b905085838660020154670de0b6b3a7640000610db49190613c70565b610dbe9190613c8f565b610dc89190613e48565b868660020154610dd89190613e48565b610dea90670de0b6b3a7640000613c70565b610df49190613c8f565b856003018190555085856002016000828254610e109190613e48565b90915550506001850184905561013054600386015410610e3a5760088501805460ff191660011790555b61012e5461012f54604080516395d89b4160e01b815290516001600160a01b0393841693638701c5429333938d9389938e938a939116916395d89b4191600480820192600092909190829003018186803b158015610e9757600080fd5b505afa158015610eab573d6000803e3d6000fd5b505050506040513d6000823e601f3d908101601f19168201604052610ed39190810190613b94565b6040518763ffffffff1660e01b8152600401610ef496959493929190613e5f565b600060405180830381600087803b158015610f0e57600080fd5b505af1158015610f22573d6000803e3d6000fd5b505060408051338152602081018b905290810189905260608101859052608081018790527f98d42833b8bbd469503fdacb5bb2ddee0a389699fcb5e6d9b85dae63d42668b9925060a001905060405180910390a150505050505050565b6000806000806101368581548110610f9957610f99613b52565b90600052602060002090600902019050806002015481600101548260030154935093509350509193909250565b600082815260656020526040902060010154610fe28133612bfa565b610fec8383612d0b565b505050565b6001600160a01b03811633146110615760405162461bcd60e51b815260206004820152602f60248201527f416363657373436f6e74726f6c3a2063616e206f6e6c792072656e6f756e636560448201526e103937b632b9903337b91039b2b63360891b606482015260840161098e565b61106b8282612d91565b5050565b306001600160a01b037f00000000000000000000000000000000000000000000000000000000000000001614156110b85760405162461bcd60e51b815260040161098e90613ea4565b7f00000000000000000000000000000000000000000000000000000000000000006001600160a01b0316611101600080516020614173833981519152546001600160a01b031690565b6001600160a01b0316146111275760405162461bcd60e51b815260040161098e90613ef0565b61113081612df8565b6040805160008082526020820190925261114c91839190612e11565b50565b600260975414156111725760405162461bcd60e51b815260040161098e90613f3c565b60026097556000805160206141338339815191526111908133612bfa565b50610135805460ff19166001908117909155609755565b600061013682815481106111bd576111bd613b52565b60009182526020909120600990910201546001600160a01b031692915050565b306001600160a01b037f00000000000000000000000000000000000000000000000000000000000000001614156112265760405162461bcd60e51b815260040161098e90613ea4565b7f00000000000000000000000000000000000000000000000000000000000000006001600160a01b031661126f600080516020614173833981519152546001600160a01b031690565b6001600160a01b0316146112955760405162461bcd60e51b815260040161098e90613ef0565b61129e82612df8565b61106b82826001612e11565b600260975414156112cd5760405162461bcd60e51b815260040161098e90613f3c565b600260975561012d5461012f54604080516395d89b4160e01b815290516000936001600160a01b0390811693630292e0fd939116916395d89b41916004808201928892909190829003018186803b15801561132757600080fd5b505afa15801561133b573d6000803e3d6000fd5b505050506040513d6000823e601f3d908101601f191682016040526113639190810190613b94565b6040518263ffffffff1660e01b815260040161137f9190613c2e565b60206040518083038186803b15801561139757600080fd5b505afa1580156113ab573d6000803e3d6000fd5b505050506040513d601f19601f820116820180604052508101906113cf9190613c41565b90508161013460008282546113e49190613f73565b909155506113f290506124fb565b61013454111561147e5760405162461bcd60e51b815260206004820152604b60248201527f575141756374696f6e3a20416d6f756e74206f6620746f6b656e73207075726360448201527f68617365642069732067726561746572207468616e2074686520616d6f756e7460648201526a081b1a5c5d5a59185d195960aa1b608482015260a40161098e565b6000610136848154811061149457611494613b52565b6000918252602090912060099091020190506001600882015460ff1660038111156114c1576114c16139ae565b1461150e5760405162461bcd60e51b815260206004820152601c60248201527f575141756374696f6e3a20537461747573206973206e6f74204e657700000000604482015260640161098e565b600081600101548260030154846115259190613c70565b61152f9190613c8f565b9050610130548110801561154b5750670de0b6b3a76400008110155b8061156b57506101355460ff16801561156b5750670de0b6b3a764000081105b6115cd5760405162461bcd60e51b815260206004820152602d60248201527f575141756374696f6e3a2054686973206c6f74206973206e6f7420617661696c60448201526c61626c6520666f722073616c6560981b606482015260840161098e565b60058201849055600282015481906115ed90670de0b6b3a7640000613c70565b6115f79190613c8f565b84106116155760405162461bcd60e51b815260040161098e90613cb1565b6101355460ff16156117375761012f546040516370a0823160e01b81523060048201526001600160a01b03909116906370a082319060240160206040518083038186803b15801561166557600080fd5b505afa158015611679573d6000803e3d6000fd5b505050506040513d601f19601f8201168201806040525081019061169d9190613c41565b82600201546116ac9190613f73565b8411156117375760405162461bcd60e51b815260206004820152604d60248201527f575141756374696f6e3a20416d6f756e74206f6620746f6b656e73207075726360448201527f68617365642069732067726561746572207468616e206c6f7420616d6f756e7460648201526c20616e6420726573657276657360981b608482015260a40161098e565b600682018390556101335461174c9042613f73565b600783015560088201805460ff1916600217905560068201546040805187815260208101879052908101919091527f44c53be110c6aa83aa83cd02e351ed172359268272ee1b5d31c0fe48db35c6c79060600160405180910390a150506001609755505050565b6000306001600160a01b037f000000000000000000000000000000000000000000000000000000000000000016146118535760405162461bcd60e51b815260206004820152603860248201527f555550535570677261646561626c653a206d757374206e6f742062652063616c60448201527f6c6564207468726f7567682064656c656761746563616c6c0000000000000000606482015260840161098e565b5060008051602061417383398151915290565b600080610136838154811061187d5761187d613b52565b6000918252602090912060099091020190506002600882015460ff1660038111156118aa576118aa6139ae565b146119035760405162461bcd60e51b8152602060048201526024808201527f575141756374696f6e3a2054686973206c6f74206973206e6f742061756374696044820152631bdb995960e21b606482015260840161098e565b670de0b6b3a764000061191582612f8b565b61012f60009054906101000a90046001600160a01b03166001600160a01b031663313ce5676040518163ffffffff1660e01b815260040160206040518083038186803b15801561196457600080fd5b505afa158015611978573d6000803e3d6000fd5b505050506040513d601f19601f8201168201806040525081019061199c9190613d0f565b6119a7906012613d32565b6119b290600a613e39565b83600501546119c19190613c70565b6119cb9190613c70565b6119d59190613c8f565b9392505050565b6000805160206141ba8339815191526119f58133612bfa565b5061013155565b60026097541415611a1f5760405162461bcd60e51b815260040161098e90613f3c565b600260978190555060006101368281548110611a3d57611a3d613b52565b6000918252602090912060099091020190506002600882015460ff166003811115611a6a57611a6a6139ae565b14611ab75760405162461bcd60e51b815260206004820152601f60248201527f575141756374696f6e3a204c6f74206973206e6f742061756374696f6e656400604482015260640161098e565b8060070154421115611b0b5760405162461bcd60e51b815260206004820152601f60248201527f575141756374696f6e3a2041756374696f6e2074696d65206973206f76657200604482015260640161098e565b6000611b1682612f8b565b90506000670de0b6b3a76400008261012f60009054906101000a90046001600160a01b03166001600160a01b031663313ce5676040518163ffffffff1660e01b815260040160206040518083038186803b158015611b7357600080fd5b505afa158015611b87573d6000803e3d6000fd5b505050506040513d601f19601f82011682018060405250810190611bab9190613d0f565b611bb6906012613d32565b611bc190600a613e39565b8560050154611bd09190613c70565b611bda9190613c70565b611be49190613c8f565b90506000611bf6858560050154612052565b905060008460010154856003015485611c0f9190613c70565b611c199190613c8f565b905084600501546101346000828254611c329190613e48565b9091555050600585015460028601548290611c5590670de0b6b3a7640000613c70565b611c5f9190613c8f565b611c699190613e48565b85600501548660020154611c7d9190613e48565b611c8f90670de0b6b3a7640000613c70565b611c999190613c8f565b60038601556005850154600286018054600090611cb7908490613e48565b90915550506001850184905561012e54600586015461012f54604080516395d89b4160e01b815290516001600160a01b0394851694638701c5429433948d948b9492938b939216916395d89b4191600480820192600092909190829003018186803b158015611d2557600080fd5b505afa158015611d39573d6000803e3d6000fd5b505050506040513d6000823e601f3d908101601f19168201604052611d619190810190613b94565b6040518763ffffffff1660e01b8152600401611d8296959493929190613e5f565b600060405180830381600087803b158015611d9c57600080fd5b505af1158015611db0573d6000803e3d6000fd5b5050505060058501546040805133815260208101899052808201929092526060820185905260808201869052517f98d42833b8bbd469503fdacb5bb2ddee0a389699fcb5e6d9b85dae63d42668b99181900360a00190a150506000600584018190556006840181905560078401555050600801805460ff1916600190811790915560975550565b60026097541415611e5a5760405162461bcd60e51b815260040161098e90613f3c565b6002609755600080516020614133833981519152611e788133612bfa565b50610135805460ff191690556001609755565b6000805160206141ba833981519152611ea48133612bfa565b5061012d80546001600160a01b0319166001600160a01b0392909216919091179055565b61013654606090611eda908490613e48565b821115611ef35761013654611ef0908490613e48565b91505b8167ffffffffffffffff811115611f0c57611f0c6138ae565b604051908082528060200260200182016040528015611f4557816020015b611f32613719565b815260200190600190039081611f2a5790505b50905060005b8281101561204b57610136611f608286613f73565b81548110611f7057611f70613b52565b60009182526020918290206040805161012081018252600990930290910180546001600160a01b03168352600181015493830193909352600283015490820152600380830154606083015260048301546080830152600583015460a0830152600683015460c0830152600783015460e0830152600883015491929161010084019160ff90911690811115612006576120066139ae565b6003811115612017576120176139ae565b8152505082828151811061202d5761202d613b52565b6020026020010181905250808061204390613f8b565b915050611f4b565b5092915050565b6000670de0b6b3a76400006301e13380610136858154811061207657612076613b52565b906000526020600020906009020160040154426120939190613e48565b61012e60009054906101000a90046001600160a01b03166001600160a01b0316631a9703da6040518163ffffffff1660e01b815260040160206040518083038186803b1580156120e257600080fd5b505afa1580156120f6573d6000803e3d6000fd5b505050506040513d601f19601f8201168201806040525081019061211a9190613c41565b6121249190613c70565b61212e9190613c8f565b61012e60009054906101000a90046001600160a01b03166001600160a01b031663802d14226040518163ffffffff1660e01b815260040160206040518083038186803b15801561217d57600080fd5b505afa158015612191573d6000803e3d6000fd5b505050506040513d601f19601f820116820180604052508101906121b59190613c41565b6121bf9190613f73565b6119cb9084613c70565b60009182526065602090815260408084206001600160a01b0393909316845291905290205460ff1690565b6000610136828154811061220a5761220a613b52565b6000918252602090912060099091020190506002600882015460ff166003811115612237576122376139ae565b146122845760405162461bcd60e51b815260206004820152601f60248201527f575141756374696f6e3a204c6f74206973206e6f742061756374696f6e656400604482015260640161098e565b806007015442116122e75760405162461bcd60e51b815260206004820152602760248201527f575141756374696f6e3a2041756374696f6e2074696d65206973206e6f74206f6044820152661d995c881e595d60ca1b606482015260840161098e565b806005015461013460008282546122fe9190613e48565b909155505061012d5461012f54604080516395d89b4160e01b815290516000936001600160a01b0390811693630292e0fd939116916395d89b41916004808201928892909190829003018186803b15801561235857600080fd5b505afa15801561236c573d6000803e3d6000fd5b505050506040513d6000823e601f3d908101601f191682016040526123949190810190613b94565b6040518263ffffffff1660e01b81526004016123b09190613c2e565b60206040518083038186803b1580156123c857600080fd5b505afa1580156123dc573d6000803e3d6000fd5b505050506040513d601f19601f820116820180604052508101906124009190613c41565b905081600101548260030154826124179190613c70565b6124219190613c8f565b60038381019190915560018301829055600060058401819055600684018190556007840181905560088401805460ff1916909217909155604080518581526020810183905280820192909252517ff49dbfcc40079f59a911e2541cedaa7a9275ee6fdfb9349032eeb970ce60f57a9181900360600190a1505050565b600061013682815481106124b3576124b3613b52565b600091825260209091206008600990920201015460ff1660038111156108cd576108cd6139ae565b6000805160206141ba8339815191526124f48133612bfa565b5061013355565b60008061012f60009054906101000a90046001600160a01b03166001600160a01b03166395d89b416040518163ffffffff1660e01b815260040160006040518083038186803b15801561254d57600080fd5b505afa158015612561573d6000803e3d6000fd5b505050506040513d6000823e601f3d908101601f191682016040526125899190810190613b94565b61012d54604051630292e0fd60e01b81529192506000916001600160a01b0390911690630292e0fd906125c0908590600401613c2e565b60206040518083038186803b1580156125d857600080fd5b505afa1580156125ec573d6000803e3d6000fd5b505050506040513d601f19601f820116820180604052508101906126109190613c41565b9050600061012f60009054906101000a90046001600160a01b03166001600160a01b031663313ce5676040518163ffffffff1660e01b815260040160206040518083038186803b15801561266357600080fd5b505afa158015612677573d6000803e3d6000fd5b505050506040513d601f19601f8201168201806040525081019061269b9190613d0f565b6126a6906012613d32565b6126b190600a613e39565b61012e54604051632ed4877d60e21b815291925060009183916001600160a01b03169063bb521df4906126e8908890600401613c2e565b60206040518083038186803b15801561270057600080fd5b505afa158015612714573d6000803e3d6000fd5b505050506040513d601f19601f820116820180604052508101906127389190613c41565b6127429190613c70565b61012e54604051638c1e06f160e01b81529192506000916001600160a01b0390911690638c1e06f190612779908890600401613c2e565b60206040518083038186803b15801561279157600080fd5b505afa1580156127a5573d6000803e3d6000fd5b505050506040513d601f19601f820116820180604052508101906127c99190613c41565b905080610130546127da9190613c70565b6127e48584613c70565b10801561280a57506127fe81670de0b6b3a7640000613c70565b6128088584613c70565b115b156128495782828583610130546128219190613c70565b61282b9190613c8f565b6128359190613e48565b61283f9190613c8f565b9550505050505090565b60009550505050505090565b61012e546000906001600160a01b031633146128835760405162461bcd60e51b815260040161098e90613fa6565b82610136858154811061289857612898613b52565b9060005260206000209060090201600101819055508161013685815481106128c2576128c2613b52565b6000918252602090912060099091020160020155509192915050565b6000805160206141ba8339815191526128f78133612bfa565b5061012e80546001600160a01b0319166001600160a01b0392909216919091179055565b6000805160206141ba8339815191526129348133612bfa565b5061013055565b61012e546000906001600160a01b031633146129695760405162461bcd60e51b815260040161098e90613fa6565b610136604051806101200160405280876001600160a01b03168152602001868152602001858152602001848152602001428152602001600081526020016000815260200160008152602001600160038111156129c7576129c76139ae565b90528154600180820184556000938452602093849020835160099093020180546001600160a01b0319166001600160a01b0390931692909217825592820151818401556040820151600282015560608201516003808301919091556080830151600483015560a0830151600583015560c0830151600683015560e08301516007830155610100830151600883018054949593949193909260ff19909216918490811115612a7657612a766139ae565b02179055505061013654612a8d9150600190613e48565b95945050505050565b61012e546000906001600160a01b03163314612ac45760405162461bcd60e51b815260040161098e90613fa6565b816101368481548110612ad957612ad9613b52565b90600052602060002090600902016002016000828254612af99190613e48565b9250508190555060006101368481548110612b1657612b16613b52565b906000526020600020906009020160020154905080600014156119d5576119d584613019565b600082815260656020526040902060010154612b588133612bfa565b610fec8383612d91565b6000805160206141ba833981519152612b7b8133612bfa565b5061013255565b6101368181548110612b9357600080fd5b60009182526020909120600990910201805460018201546002830154600384015460048501546005860154600687015460078801546008909801546001600160a01b0390971698509496939592949193909260ff1689565b6001600160a01b03163b151590565b612c0482826121c9565b61106b57612c1c816001600160a01b03166014613329565b612c27836020613329565b604051602001612c38929190613fdd565b60408051601f198184030181529082905262461bcd60e51b825261098e91600401613c2e565b600054610100900460ff16612c855760405162461bcd60e51b815260040161098e90614052565b565b600054610100900460ff16612cae5760405162461bcd60e51b815260040161098e90614052565b612c856134c5565b61106b8282612d0b565b600082815260656020526040808220600101805490849055905190918391839186917fbd79b86ffe0ab8e8776151514217cd7cacd52c909f66475c3af44e129f0b00ff9190a4505050565b612d1582826121c9565b61106b5760008281526065602090815260408083206001600160a01b03851684529091529020805460ff19166001179055612d4d3390565b6001600160a01b0316816001600160a01b0316837f2f8788117e7eff1d82e926ec794901d17c78024a50270940304540a733656f0d60405160405180910390a45050565b612d9b82826121c9565b1561106b5760008281526065602090815260408083206001600160a01b0385168085529252808320805460ff1916905551339285917ff6391f5c32d9c69d2a47ea670b442974b53935d1edc7fd64eb21e047a839171b9190a45050565b60008051602061415383398151915261106b8133612bfa565b7f4910fdfa16fed3260ed0e7147f7cc6da11a60208b5b9406d12a635614ffd91435460ff1615612e4457610fec836134f3565b826001600160a01b03166352d1902d6040518163ffffffff1660e01b815260040160206040518083038186803b158015612e7d57600080fd5b505afa925050508015612ead575060408051601f3d908101601f19168201909252612eaa91810190613c41565b60015b612f105760405162461bcd60e51b815260206004820152602e60248201527f45524331393637557067726164653a206e657720696d706c656d656e7461746960448201526d6f6e206973206e6f74205555505360901b606482015260840161098e565b6000805160206141738339815191528114612f7f5760405162461bcd60e51b815260206004820152602960248201527f45524331393637557067726164653a20756e737570706f727465642070726f786044820152681a58589b195555525160ba1b606482015260840161098e565b50610fec83838361358f565b6000670de0b6b3a76400006101335483600601546101325461013154612fb19190613e48565b428660070154612fc19190613e48565b612fcb9190613c70565b612fd59190613c70565b612fdf9190613c8f565b612fe99190613c8f565b670de0b6b3a76400006101325484600601546130059190613c70565b61300f9190613c8f565b6108cd9190613f73565b6101365460009061302c90600190613e48565b90508181146131d35761012e5461013680546001600160a01b03909216916359880b9591908490811061306157613061613b52565b600091825260209091206009909102015461013680546001600160a01b03909216918590811061309357613093613b52565b90600052602060002090600902016002015461013685815481106130b9576130b9613b52565b90600052602060002090600902016001015461013686815481106130df576130df613b52565b906000526020600020906009020160030154868861012f60009054906101000a90046001600160a01b03166001600160a01b03166395d89b416040518163ffffffff1660e01b815260040160006040518083038186803b15801561314257600080fd5b505afa158015613156573d6000803e3d6000fd5b505050506040513d6000823e601f3d908101601f1916820160405261317e9190810190613b94565b6040518863ffffffff1660e01b81526004016131a0979695949392919061409d565b600060405180830381600087803b1580156131ba57600080fd5b505af11580156131ce573d6000803e3d6000fd5b505050505b61013681815481106131e7576131e7613b52565b9060005260206000209060090201610136838154811061320957613209613b52565b60009182526020909120825460099092020180546001600160a01b0319166001600160a01b0390921691909117815560018083015481830155600280840154908301556003808401548184015560048085015490840155600580850154908401556006808501549084015560078085015490840155600880850154908401805460ff90921693909260ff199092169184908111156132a9576132a96139ae565b02179055509050506101368054806132c3576132c36140e9565b60008281526020812060096000199093019283020180546001600160a01b03191681556001810182905560028101829055600381018290556004810182905560058101829055600681018290556007810191909155600801805460ff1916905590555050565b60606000613338836002613c70565b613343906002613f73565b67ffffffffffffffff81111561335b5761335b6138ae565b6040519080825280601f01601f191660200182016040528015613385576020820181803683370190505b509050600360fc1b816000815181106133a0576133a0613b52565b60200101906001600160f81b031916908160001a905350600f60fb1b816001815181106133cf576133cf613b52565b60200101906001600160f81b031916908160001a90535060006133f3846002613c70565b6133fe906001613f73565b90505b6001811115613476576f181899199a1a9b1b9c1cb0b131b232b360811b85600f166010811061343257613432613b52565b1a60f81b82828151811061344857613448613b52565b60200101906001600160f81b031916908160001a90535060049490941c9361346f816140ff565b9050613401565b5083156119d55760405162461bcd60e51b815260206004820181905260248201527f537472696e67733a20686578206c656e67746820696e73756666696369656e74604482015260640161098e565b600054610100900460ff166134ec5760405162461bcd60e51b815260040161098e90614052565b6001609755565b6001600160a01b0381163b6135605760405162461bcd60e51b815260206004820152602d60248201527f455243313936373a206e657720696d706c656d656e746174696f6e206973206e60448201526c1bdd08184818dbdb9d1c9858dd609a1b606482015260840161098e565b60008051602061417383398151915280546001600160a01b0319166001600160a01b0392909216919091179055565b613598836135ba565b6000825111806135a55750805b15610fec576135b483836135fa565b50505050565b6135c3816134f3565b6040516001600160a01b038216907fbc7cd75a20ee27fd9adebab32041f755214dbc6bffa90cc0225b39da2e5c2d3b90600090a250565b60606001600160a01b0383163b6136625760405162461bcd60e51b815260206004820152602660248201527f416464726573733a2064656c65676174652063616c6c20746f206e6f6e2d636f6044820152651b9d1c9858dd60d21b606482015260840161098e565b600080846001600160a01b03168460405161367d9190614116565b600060405180830381855af49150503d80600081146136b8576040519150601f19603f3d011682016040523d82523d6000602084013e6136bd565b606091505b5091509150612a8d828260405180606001604052806027815260200161419360279139606083156136ef5750816119d5565b8251156136ff5782518084602001fd5b8160405162461bcd60e51b815260040161098e9190613c2e565b60405180610120016040528060006001600160a01b031681526020016000815260200160008152602001600081526020016000815260200160008152602001600081526020016000815260200160006003811115613779576137796139ae565b905290565b60006020828403121561379057600080fd5b81356001600160e01b0319811681146119d557600080fd5b80356001600160a01b03811681146137bf57600080fd5b919050565b6000602082840312156137d657600080fd5b6119d5826137a8565b6000602082840312156137f157600080fd5b5035919050565b600080600080600080600060e0888a03121561381357600080fd5b61381c886137a8565b965061382a602089016137a8565b9550613838604089016137a8565b969995985095966060810135965060808101359560a0820135955060c0909101359350915050565b6000806040838503121561387357600080fd5b50508035926020909101359150565b6000806040838503121561389557600080fd5b823591506138a5602084016137a8565b90509250929050565b634e487b7160e01b600052604160045260246000fd5b604051601f8201601f1916810167ffffffffffffffff811182821017156138ed576138ed6138ae565b604052919050565b600067ffffffffffffffff82111561390f5761390f6138ae565b50601f01601f191660200190565b6000806040838503121561393057600080fd5b613939836137a8565b9150602083013567ffffffffffffffff81111561395557600080fd5b8301601f8101851361396657600080fd5b8035613979613974826138f5565b6138c4565b81815286602083850101111561398e57600080fd5b816020840160208301376000602083830101528093505050509250929050565b634e487b7160e01b600052602160045260246000fd5b600481106139e257634e487b7160e01b600052602160045260246000fd5b9052565b602080825282518282018190526000919060409081850190868401855b82811015613a8657815180516001600160a01b0316855286810151878601528581015186860152606080820151908601526080808201519086015260a0808201519086015260c0808201519086015260e080820151908601526101009081015190613a70818701836139c4565b5050610120939093019290850190600101613a03565b5091979650505050505050565b600080600060608486031215613aa857600080fd5b505081359360208301359350604090920135919050565b60008060008060808587031215613ad557600080fd5b613ade856137a8565b966020860135965060408601359560600135945092505050565b60006101208201905060018060a01b038b1682528960208301528860408301528760608301528660808301528560a08301528460c08301528360e0830152613b446101008301846139c4565b9a9950505050505050505050565b634e487b7160e01b600052603260045260246000fd5b60005b83811015613b83578181015183820152602001613b6b565b838111156135b45750506000910152565b600060208284031215613ba657600080fd5b815167ffffffffffffffff811115613bbd57600080fd5b8201601f81018413613bce57600080fd5b8051613bdc613974826138f5565b818152856020838501011115613bf157600080fd5b612a8d826020830160208601613b68565b60008151808452613c1a816020860160208601613b68565b601f01601f19169290920160200192915050565b6020815260006119d56020830184613c02565b600060208284031215613c5357600080fd5b5051919050565b634e487b7160e01b600052601160045260246000fd5b6000816000190483118215151615613c8a57613c8a613c5a565b500290565b600082613cac57634e487b7160e01b600052601260045260246000fd5b500490565b602080825260409082018190527f575141756374696f6e3a20416d6f756e74206f6620746f6b656e732070757263908201527f68617365642069732067726561746572207468616e206c6f7420616d6f756e74606082015260800190565b600060208284031215613d2157600080fd5b815160ff811681146119d557600080fd5b600060ff821660ff841680821015613d4c57613d4c613c5a565b90039392505050565b600181815b80851115613d90578160001904821115613d7657613d76613c5a565b80851615613d8357918102915b93841c9390800290613d5a565b509250929050565b600082613da7575060016108cd565b81613db4575060006108cd565b8160018114613dca5760028114613dd457613df0565b60019150506108cd565b60ff841115613de557613de5613c5a565b50506001821b6108cd565b5060208310610133831016604e8410600b8410161715613e13575081810a6108cd565b613e1d8383613d55565b8060001904821115613e3157613e31613c5a565b029392505050565b60006119d560ff841683613d98565b600082821015613e5a57613e5a613c5a565b500390565b60018060a01b038716815285602082015284604082015283606082015282608082015260c060a08201526000613e9860c0830184613c02565b98975050505050505050565b6020808252602c908201527f46756e6374696f6e206d7573742062652063616c6c6564207468726f7567682060408201526b19195b1959d85d1958d85b1b60a21b606082015260800190565b6020808252602c908201527f46756e6374696f6e206d7573742062652063616c6c6564207468726f7567682060408201526b6163746976652070726f787960a01b606082015260800190565b6020808252601f908201527f5265656e7472616e637947756172643a207265656e7472616e742063616c6c00604082015260600190565b60008219821115613f8657613f86613c5a565b500190565b6000600019821415613f9f57613f9f613c5a565b5060010190565b6020808252601f908201527f575141756374696f6e3a2053656e646572206973206e6f7420726f7574657200604082015260600190565b7f416363657373436f6e74726f6c3a206163636f756e7420000000000000000000815260008351614015816017850160208801613b68565b7001034b99036b4b9b9b4b733903937b6329607d1b6017918401918201528351614046816028840160208801613b68565b01602801949350505050565b6020808252602b908201527f496e697469616c697a61626c653a20636f6e7472616374206973206e6f74206960408201526a6e697469616c697a696e6760a81b606082015260800190565b60018060a01b03881681528660208201528560408201528460608201528360808201528260a082015260e060c082015260006140dc60e0830184613c02565b9998505050505050505050565b634e487b7160e01b600052603160045260246000fd5b60008161410e5761410e613c5a565b506000190190565b60008251614128818460208701613b68565b919091019291505056fed8a7a79547af723ee3e12b59a480111268d8969c634e1a34a144d2c8b91d635b189ab7a9244df0848122154315af71fe140f3db0fe014031783b0946b8c9d2e3360894a13ba1a3210667c828492db98dca3e2076cc3735a920a3ca505d382bbc416464726573733a206c6f772d6c6576656c2064656c65676174652063616c6c206661696c6564a49807205ce4d355092ef5a8a18f56e8913cf4a201fbe287825b095693c21775a264697066735822122009cfe6188ed26a70bc65c8a32837e17c92ee59f35de97cb21b5fe362adf6c6d064736f6c63430008090033",
  "linkReferences": {},
  "deployedLinkReferences": {}
}