{
  "_format": "hh-sol-artifact-1",
  "contractName": "WQCollateralAuction",
  "sourceName": "contracts/stablecoin/WQCollateralAuction.sol",
  "abi": [
    {
      "inputs": [],
      "stateMutability": "nonpayable",
      "type": "constructor"
    },
    {
      "anonymous": false,
      "inputs": [
        {
          "indexed": false,
          "internalType": "address",
          "name": "previousAdmin",
          "type": "address"
        },
        {
          "indexed": false,
          "internalType": "address",
          "name": "newAdmin",
          "type": "address"
        }
      ],
      "name": "AdminChanged",
      "type": "event"
    },
    {
      "anonymous": false,
      "inputs": [
        {
          "indexed": false,
          "internalType": "uint256",
          "name": "index",
          "type": "uint256"
        },
        {
          "indexed": false,
          "internalType": "uint256",
          "name": "amount",
          "type": "uint256"
        },
        {
          "indexed": false,
          "internalType": "uint256",
          "name": "endCost",
          "type": "uint256"
        }
      ],
      "name": "AuctionStarted",
      "type": "event"
    },
    {
      "anonymous": false,
      "inputs": [
        {
          "indexed": true,
          "internalType": "address",
          "name": "beacon",
          "type": "address"
        }
      ],
      "name": "BeaconUpgraded",
      "type": "event"
    },
    {
      "anonymous": false,
      "inputs": [
        {
          "indexed": false,
          "internalType": "uint256",
          "name": "index",
          "type": "uint256"
        },
        {
          "indexed": false,
          "internalType": "uint256",
          "name": "amount",
          "type": "uint256"
        },
        {
          "indexed": false,
          "internalType": "uint256",
          "name": "cost",
          "type": "uint256"
        }
      ],
      "name": "LotBuyed",
      "type": "event"
    },
    {
      "anonymous": false,
      "inputs": [
        {
          "indexed": false,
          "internalType": "uint256",
          "name": "index",
          "type": "uint256"
        },
        {
          "indexed": false,
          "internalType": "uint256",
          "name": "amount",
          "type": "uint256"
        },
        {
          "indexed": false,
          "internalType": "uint256",
          "name": "cost",
          "type": "uint256"
        }
      ],
      "name": "LotCanceled",
      "type": "event"
    },
    {
      "anonymous": false,
      "inputs": [
        {
          "indexed": true,
          "internalType": "bytes32",
          "name": "role",
          "type": "bytes32"
        },
        {
          "indexed": true,
          "internalType": "bytes32",
          "name": "previousAdminRole",
          "type": "bytes32"
        },
        {
          "indexed": true,
          "internalType": "bytes32",
          "name": "newAdminRole",
          "type": "bytes32"
        }
      ],
      "name": "RoleAdminChanged",
      "type": "event"
    },
    {
      "anonymous": false,
      "inputs": [
        {
          "indexed": true,
          "internalType": "bytes32",
          "name": "role",
          "type": "bytes32"
        },
        {
          "indexed": true,
          "internalType": "address",
          "name": "account",
          "type": "address"
        },
        {
          "indexed": true,
          "internalType": "address",
          "name": "sender",
          "type": "address"
        }
      ],
      "name": "RoleGranted",
      "type": "event"
    },
    {
      "anonymous": false,
      "inputs": [
        {
          "indexed": true,
          "internalType": "bytes32",
          "name": "role",
          "type": "bytes32"
        },
        {
          "indexed": true,
          "internalType": "address",
          "name": "account",
          "type": "address"
        },
        {
          "indexed": true,
          "internalType": "address",
          "name": "sender",
          "type": "address"
        }
      ],
      "name": "RoleRevoked",
      "type": "event"
    },
    {
      "anonymous": false,
      "inputs": [
        {
          "indexed": true,
          "internalType": "address",
          "name": "implementation",
          "type": "address"
        }
      ],
      "name": "Upgraded",
      "type": "event"
    },
    {
      "inputs": [],
      "name": "ADMIN_ROLE",
      "outputs": [
        {
          "internalType": "bytes32",
          "name": "",
          "type": "bytes32"
        }
      ],
      "stateMutability": "view",
      "type": "function"
    },
    {
      "inputs": [],
      "name": "DEFAULT_ADMIN_ROLE",
      "outputs": [
        {
          "internalType": "bytes32",
          "name": "",
          "type": "bytes32"
        }
      ],
      "stateMutability": "view",
      "type": "function"
    },
    {
      "inputs": [],
      "name": "SERVICE_ROLE",
      "outputs": [
        {
          "internalType": "bytes32",
          "name": "",
          "type": "bytes32"
        }
      ],
      "stateMutability": "view",
      "type": "function"
    },
    {
      "inputs": [],
      "name": "UPGRADER_ROLE",
      "outputs": [
        {
          "internalType": "bytes32",
          "name": "",
          "type": "bytes32"
        }
      ],
      "stateMutability": "view",
      "type": "function"
    },
    {
      "inputs": [
        {
          "internalType": "address",
          "name": "user",
          "type": "address"
        },
        {
          "internalType": "uint256",
          "name": "price",
          "type": "uint256"
        },
        {
          "internalType": "uint256",
          "name": "amount",
          "type": "uint256"
        },
        {
          "internalType": "uint256",
          "name": "ratio",
          "type": "uint256"
        }
      ],
      "name": "addLot",
      "outputs": [
        {
          "internalType": "uint256",
          "name": "",
          "type": "uint256"
        }
      ],
      "stateMutability": "nonpayable",
      "type": "function"
    },
    {
      "inputs": [],
      "name": "auctionDuration",
      "outputs": [
        {
          "internalType": "uint256",
          "name": "",
          "type": "uint256"
        }
      ],
      "stateMutability": "view",
      "type": "function"
    },
    {
      "inputs": [
        {
          "internalType": "uint256",
          "name": "index",
          "type": "uint256"
        }
      ],
      "name": "buyLot",
      "outputs": [],
      "stateMutability": "nonpayable",
      "type": "function"
    },
    {
      "inputs": [
        {
          "internalType": "uint256",
          "name": "index",
          "type": "uint256"
        }
      ],
      "name": "cancelAuction",
      "outputs": [],
      "stateMutability": "nonpayable",
      "type": "function"
    },
    {
      "inputs": [
        {
          "internalType": "uint256",
          "name": "index",
          "type": "uint256"
        },
        {
          "internalType": "uint256",
          "name": "collaterralPart",
          "type": "uint256"
        }
      ],
      "name": "decreaseLotAmount",
      "outputs": [
        {
          "internalType": "uint256",
          "name": "",
          "type": "uint256"
        }
      ],
      "stateMutability": "nonpayable",
      "type": "function"
    },
    {
      "inputs": [],
      "name": "disableReserves",
      "outputs": [],
      "stateMutability": "nonpayable",
      "type": "function"
    },
    {
      "inputs": [],
      "name": "enableReserves",
      "outputs": [],
      "stateMutability": "nonpayable",
      "type": "function"
    },
    {
      "inputs": [
        {
          "internalType": "uint256",
          "name": "index",
          "type": "uint256"
        }
      ],
      "name": "getComission",
      "outputs": [
        {
          "internalType": "uint256",
          "name": "",
          "type": "uint256"
        }
      ],
      "stateMutability": "view",
      "type": "function"
    },
    {
      "inputs": [
        {
          "internalType": "uint256",
          "name": "index",
          "type": "uint256"
        }
      ],
      "name": "getCurrentLotCost",
      "outputs": [
        {
          "internalType": "uint256",
          "name": "",
          "type": "uint256"
        }
      ],
      "stateMutability": "view",
      "type": "function"
    },
    {
      "inputs": [],
      "name": "getLiquidatedCollaterallAmount",
      "outputs": [
        {
          "internalType": "uint256",
          "name": "",
          "type": "uint256"
        }
      ],
      "stateMutability": "view",
      "type": "function"
    },
    {
      "inputs": [
        {
          "internalType": "uint256",
          "name": "index",
          "type": "uint256"
        }
      ],
      "name": "getLotInfo",
      "outputs": [
        {
          "internalType": "uint256",
          "name": "",
          "type": "uint256"
        },
        {
          "internalType": "uint256",
          "name": "",
          "type": "uint256"
        },
        {
          "internalType": "uint256",
          "name": "",
          "type": "uint256"
        },
        {
          "internalType": "uint256",
          "name": "",
          "type": "uint256"
        }
      ],
      "stateMutability": "view",
      "type": "function"
    },
    {
      "inputs": [
        {
          "internalType": "uint256",
          "name": "index",
          "type": "uint256"
        }
      ],
      "name": "getLotOwner",
      "outputs": [
        {
          "internalType": "address",
          "name": "",
          "type": "address"
        }
      ],
      "stateMutability": "view",
      "type": "function"
    },
    {
      "inputs": [
        {
          "internalType": "uint256",
          "name": "index",
          "type": "uint256"
        }
      ],
      "name": "getLotStatus",
      "outputs": [
        {
          "internalType": "uint8",
          "name": "",
          "type": "uint8"
        }
      ],
      "stateMutability": "view",
      "type": "function"
    },
    {
      "inputs": [
        {
          "internalType": "uint256",
          "name": "offset",
          "type": "uint256"
        },
        {
          "internalType": "uint256",
          "name": "limit",
          "type": "uint256"
        }
      ],
      "name": "getLots",
      "outputs": [
        {
          "components": [
            {
              "internalType": "address",
              "name": "user",
              "type": "address"
            },
            {
              "internalType": "uint256",
              "name": "price",
              "type": "uint256"
            },
            {
              "internalType": "uint256",
              "name": "amount",
              "type": "uint256"
            },
            {
              "internalType": "uint256",
              "name": "ratio",
              "type": "uint256"
            },
            {
              "internalType": "uint256",
              "name": "created",
              "type": "uint256"
            },
            {
              "internalType": "uint256",
              "name": "saleAmount",
              "type": "uint256"
            },
            {
              "internalType": "uint256",
              "name": "endPrice",
              "type": "uint256"
            },
            {
              "internalType": "uint256",
              "name": "endTime",
              "type": "uint256"
            },
            {
              "internalType": "enum WQCollateralAuction.LotStatus",
              "name": "status",
              "type": "uint8"
            }
          ],
          "internalType": "struct WQCollateralAuction.LotInfo[]",
          "name": "page",
          "type": "tuple[]"
        }
      ],
      "stateMutability": "view",
      "type": "function"
    },
    {
      "inputs": [
        {
          "internalType": "bytes32",
          "name": "role",
          "type": "bytes32"
        }
      ],
      "name": "getRoleAdmin",
      "outputs": [
        {
          "internalType": "bytes32",
          "name": "",
          "type": "bytes32"
        }
      ],
      "stateMutability": "view",
      "type": "function"
    },
    {
      "inputs": [
        {
          "internalType": "bytes32",
          "name": "role",
          "type": "bytes32"
        },
        {
          "internalType": "address",
          "name": "account",
          "type": "address"
        }
      ],
      "name": "grantRole",
      "outputs": [],
      "stateMutability": "nonpayable",
      "type": "function"
    },
    {
      "inputs": [
        {
          "internalType": "bytes32",
          "name": "role",
          "type": "bytes32"
        },
        {
          "internalType": "address",
          "name": "account",
          "type": "address"
        }
      ],
      "name": "hasRole",
      "outputs": [
        {
          "internalType": "bool",
          "name": "",
          "type": "bool"
        }
      ],
      "stateMutability": "view",
      "type": "function"
    },
    {
      "inputs": [
        {
          "internalType": "address",
          "name": "_token",
          "type": "address"
        },
        {
          "internalType": "address",
          "name": "_oracle",
          "type": "address"
        },
        {
          "internalType": "address",
          "name": "_router",
          "type": "address"
        },
        {
          "internalType": "uint256",
          "name": "_liquidateThreshold",
          "type": "uint256"
        },
        {
          "internalType": "uint256",
          "name": "_upperBoundCost",
          "type": "uint256"
        },
        {
          "internalType": "uint256",
          "name": "_lowerBoundCost",
          "type": "uint256"
        },
        {
          "internalType": "uint256",
          "name": "_auctionDuration",
          "type": "uint256"
        }
      ],
      "name": "initialize",
      "outputs": [],
      "stateMutability": "nonpayable",
      "type": "function"
    },
    {
      "inputs": [],
      "name": "liquidateThreshold",
      "outputs": [
        {
          "internalType": "uint256",
          "name": "",
          "type": "uint256"
        }
      ],
      "stateMutability": "view",
      "type": "function"
    },
    {
      "inputs": [
        {
          "internalType": "uint256",
          "name": "",
          "type": "uint256"
        }
      ],
      "name": "lots",
      "outputs": [
        {
          "internalType": "address",
          "name": "user",
          "type": "address"
        },
        {
          "internalType": "uint256",
          "name": "price",
          "type": "uint256"
        },
        {
          "internalType": "uint256",
          "name": "amount",
          "type": "uint256"
        },
        {
          "internalType": "uint256",
          "name": "ratio",
          "type": "uint256"
        },
        {
          "internalType": "uint256",
          "name": "created",
          "type": "uint256"
        },
        {
          "internalType": "uint256",
          "name": "saleAmount",
          "type": "uint256"
        },
        {
          "internalType": "uint256",
          "name": "endPrice",
          "type": "uint256"
        },
        {
          "internalType": "uint256",
          "name": "endTime",
          "type": "uint256"
        },
        {
          "internalType": "enum WQCollateralAuction.LotStatus",
          "name": "status",
          "type": "uint8"
        }
      ],
      "stateMutability": "view",
      "type": "function"
    },
    {
      "inputs": [],
      "name": "lowerBoundCost",
      "outputs": [
        {
          "internalType": "uint256",
          "name": "",
          "type": "uint256"
        }
      ],
      "stateMutability": "view",
      "type": "function"
    },
    {
      "inputs": [
        {
          "internalType": "uint256",
          "name": "index",
          "type": "uint256"
        },
        {
          "internalType": "uint256",
          "name": "newPrice",
          "type": "uint256"
        },
        {
          "internalType": "uint256",
          "name": "newAmount",
          "type": "uint256"
        }
      ],
      "name": "moveLot",
      "outputs": [
        {
          "internalType": "uint256",
          "name": "",
          "type": "uint256"
        }
      ],
      "stateMutability": "nonpayable",
      "type": "function"
    },
    {
      "inputs": [],
      "name": "oracle",
      "outputs": [
        {
          "internalType": "contract WQPriceOracleInterface",
          "name": "",
          "type": "address"
        }
      ],
      "stateMutability": "view",
      "type": "function"
    },
    {
      "inputs": [],
      "name": "proxiableUUID",
      "outputs": [
        {
          "internalType": "bytes32",
          "name": "",
          "type": "bytes32"
        }
      ],
      "stateMutability": "view",
      "type": "function"
    },
    {
      "inputs": [
        {
          "internalType": "bytes32",
          "name": "role",
          "type": "bytes32"
        },
        {
          "internalType": "address",
          "name": "account",
          "type": "address"
        }
      ],
      "name": "renounceRole",
      "outputs": [],
      "stateMutability": "nonpayable",
      "type": "function"
    },
    {
      "inputs": [],
      "name": "reservesEnabled",
      "outputs": [
        {
          "internalType": "bool",
          "name": "",
          "type": "bool"
        }
      ],
      "stateMutability": "view",
      "type": "function"
    },
    {
      "inputs": [
        {
          "internalType": "bytes32",
          "name": "role",
          "type": "bytes32"
        },
        {
          "internalType": "address",
          "name": "account",
          "type": "address"
        }
      ],
      "name": "revokeRole",
      "outputs": [],
      "stateMutability": "nonpayable",
      "type": "function"
    },
    {
      "inputs": [],
      "name": "router",
      "outputs": [
        {
          "internalType": "contract WQRouterInterface",
          "name": "",
          "type": "address"
        }
      ],
      "stateMutability": "view",
      "type": "function"
    },
    {
      "inputs": [
        {
          "internalType": "uint256",
          "name": "duration",
          "type": "uint256"
        }
      ],
      "name": "setAuctionDuration",
      "outputs": [],
      "stateMutability": "nonpayable",
      "type": "function"
    },
    {
      "inputs": [
        {
          "internalType": "uint256",
          "name": "percent",
          "type": "uint256"
        }
      ],
      "name": "setLiquidateTreshold",
      "outputs": [],
      "stateMutability": "nonpayable",
      "type": "function"
    },
    {
      "inputs": [
        {
          "internalType": "uint256",
          "name": "percent",
          "type": "uint256"
        }
      ],
      "name": "setLowerBoundCost",
      "outputs": [],
      "stateMutability": "nonpayable",
      "type": "function"
    },
    {
      "inputs": [
        {
          "internalType": "address",
          "name": "_oracle",
          "type": "address"
        }
      ],
      "name": "setOracle",
      "outputs": [],
      "stateMutability": "nonpayable",
      "type": "function"
    },
    {
      "inputs": [
        {
          "internalType": "address",
          "name": "_router",
          "type": "address"
        }
      ],
      "name": "setRouter",
      "outputs": [],
      "stateMutability": "nonpayable",
      "type": "function"
    },
    {
      "inputs": [
        {
          "internalType": "address",
          "name": "_token",
          "type": "address"
        }
      ],
      "name": "setToken",
      "outputs": [],
      "stateMutability": "nonpayable",
      "type": "function"
    },
    {
      "inputs": [
        {
          "internalType": "uint256",
          "name": "percent",
          "type": "uint256"
        }
      ],
      "name": "setUpperBoundCost",
      "outputs": [],
      "stateMutability": "nonpayable",
      "type": "function"
    },
    {
      "inputs": [
        {
          "internalType": "uint256",
          "name": "index",
          "type": "uint256"
        },
        {
          "internalType": "uint256",
          "name": "amount",
          "type": "uint256"
        }
      ],
      "name": "startAuction",
      "outputs": [],
      "stateMutability": "nonpayable",
      "type": "function"
    },
    {
      "inputs": [
        {
          "internalType": "bytes4",
          "name": "interfaceId",
          "type": "bytes4"
        }
      ],
      "name": "supportsInterface",
      "outputs": [
        {
          "internalType": "bool",
          "name": "",
          "type": "bool"
        }
      ],
      "stateMutability": "view",
      "type": "function"
    },
    {
      "inputs": [],
      "name": "token",
      "outputs": [
        {
          "internalType": "contract IERC20MetadataUpgradeable",
          "name": "",
          "type": "address"
        }
      ],
      "stateMutability": "view",
      "type": "function"
    },
    {
      "inputs": [],
      "name": "totalAuctioned",
      "outputs": [
        {
          "internalType": "uint256",
          "name": "",
          "type": "uint256"
        }
      ],
      "stateMutability": "view",
      "type": "function"
    },
    {
      "inputs": [
        {
          "internalType": "address",
          "name": "newImplementation",
          "type": "address"
        }
      ],
      "name": "upgradeTo",
      "outputs": [],
      "stateMutability": "nonpayable",
      "type": "function"
    },
    {
      "inputs": [
        {
          "internalType": "address",
          "name": "newImplementation",
          "type": "address"
        },
        {
          "internalType": "bytes",
          "name": "data",
          "type": "bytes"
        }
      ],
      "name": "upgradeToAndCall",
      "outputs": [],
      "stateMutability": "payable",
      "type": "function"
    },
    {
      "inputs": [],
      "name": "upperBoundCost",
      "outputs": [
        {
          "internalType": "uint256",
          "name": "",
          "type": "uint256"
        }
      ],
      "stateMutability": "view",
      "type": "function"
    }
  ],
  "bytecode": "0x60a0604052306080523480156200001557600080fd5b50600054610100900460ff16620000335760005460ff16156200003d565b6200003d620000e2565b620000a55760405162461bcd60e51b815260206004820152602e60248201527f496e697469616c697a61626c653a20636f6e747261637420697320616c72656160448201526d191e481a5b9a5d1a585b1a5e995960921b606482015260840160405180910390fd5b600054610100900460ff16158015620000c8576000805461ffff19166101011790555b8015620000db576000805461ff00191690555b506200010f565b6000620000fa306200010060201b620025241760201c565b15905090565b6001600160a01b03163b151590565b608051613a776200014760003960008181610baa01528181610bea01528181610ebf01528181610eff01526113bf0152613a776000f3fe60806040526004361061027d5760003560e01c8063874f5cbb1161014f578063c41600fe116100c1578063f72c0d8b1161007a578063f72c0d8b146107cd578063f887ea40146107ef578063fc0c546a14610810578063fdcb648c14610831578063ff2ab22914610848578063ffb671861461085f57600080fd5b8063c41600fe146106f8578063cc6b3be314610718578063d0896c5514610738578063d547741f14610758578063e2a07a0714610778578063f1648e841461079857600080fd5b8063a20e7d4711610113578063a20e7d471461064c578063a217fddf1461066e578063a497e67414610683578063b0f78765146106a3578063b70a07ea146106b8578063c0d78655146106d857600080fd5b8063874f5cbb1461059257806391d14854146105bf57806396b5a755146105df578063997e7c36146105ff5780639ea687a71461063157600080fd5b8063403b74ed116101f357806364ad7ad7116101ac57806364ad7ad7146104da57806374e3e3dc146104fa57806375b238fc1461051a578063764460131461053c5780637adbf973146105515780637dc0d1d01461057157600080fd5b8063403b74ed1461043b5780634823bd55146104525780634f1ef286146104725780634fee13fc1461048557806352d1902d146104a5578063535bb867146104ba57600080fd5b80632f1b1303116102455780632f1b13031461034e5780632f2ff15d1461038e57806336568abe146103ae5780633659cfe6146103ce57806336c1d235146103ee5780633a1a73271461040357600080fd5b806301ffc9a7146102825780630cbf54c8146102b7578063144fa6d7146102dc578063248a9ca3146102fe5780632b4656c81461032e575b600080fd5b34801561028e57600080fd5b506102a261029d366004613090565b610876565b60405190151581526020015b60405180910390f35b3480156102c357600080fd5b506102ce6101335481565b6040519081526020016102ae565b3480156102e857600080fd5b506102fc6102f73660046130d6565b6108ad565b005b34801561030a57600080fd5b506102ce6103193660046130f1565b60009081526065602052604090206001015490565b34801561033a57600080fd5b506102fc61034936600461310a565b6108ea565b34801561035a57600080fd5b5061036e6103693660046130f1565b610aa6565b6040805194855260208501939093529183015260608201526080016102ae565b34801561039a57600080fd5b506102fc6103a9366004613172565b610af6565b3480156103ba57600080fd5b506102fc6103c9366004613172565b610b21565b3480156103da57600080fd5b506102fc6103e93660046130d6565b610b9f565b3480156103fa57600080fd5b506102fc610c7f565b34801561040f57600080fd5b5061042361041e3660046130f1565b610cd7565b6040516001600160a01b0390911681526020016102ae565b34801561044757600080fd5b506102ce6101315481565b34801561045e57600080fd5b506102ce61046d3660046130f1565b610d0d565b6102fc61048036600461320d565b610eb4565b34801561049157600080fd5b506102fc6104a036600461329e565b610f81565b3480156104b157600080fd5b506102ce6113b2565b3480156104c657600080fd5b506102ce6104d53660046130f1565b611465565b3480156104e657600080fd5b506102fc6104f53660046130f1565b6115db565b34801561050657600080fd5b506102fc6105153660046130f1565b6115fb565b34801561052657600080fd5b506102ce600080516020613a2283398151915281565b34801561054857600080fd5b506102fc611a17565b34801561055d57600080fd5b506102fc61056c3660046130d6565b611a6b565b34801561057d57600080fd5b5061012d54610423906001600160a01b031681565b34801561059e57600080fd5b506105b26105ad36600461329e565b611aa8565b6040516102ae91906132f8565b3480156105cb57600080fd5b506102a26105da366004613172565b611c32565b3480156105eb57600080fd5b506102fc6105fa3660046130f1565b611c5d565b34801561060b57600080fd5b5061061f61061a3660046130f1565b611dd8565b60405160ff90911681526020016102ae565b34801561063d57600080fd5b50610135546102a29060ff1681565b34801561065857600080fd5b506102ce60008051602061399b83398151915281565b34801561067a57600080fd5b506102ce600081565b34801561068f57600080fd5b506102fc61069e3660046130f1565b611e16565b3480156106af57600080fd5b506102ce611e36565b3480156106c457600080fd5b506102ce6106d33660046133a5565b61218e565b3480156106e457600080fd5b506102fc6106f33660046130d6565b612217565b34801561070457600080fd5b506102fc6107133660046130f1565b612254565b34801561072457600080fd5b506102ce6107333660046133d1565b612274565b34801561074457600080fd5b506102ce61075336600461329e565b6123cf565b34801561076457600080fd5b506102fc610773366004613172565b612475565b34801561078457600080fd5b506102fc6107933660046130f1565b61249b565b3480156107a457600080fd5b506107b86107b33660046130f1565b6124bb565b6040516102ae9998979695949392919061340a565b3480156107d957600080fd5b506102ce6000805160206139bb83398151915281565b3480156107fb57600080fd5b5061012e54610423906001600160a01b031681565b34801561081c57600080fd5b5061012f54610423906001600160a01b031681565b34801561083d57600080fd5b506102ce6101305481565b34801561085457600080fd5b506102ce6101325481565b34801561086b57600080fd5b506102ce6101345481565b60006001600160e01b03198216637965db0b60e01b14806108a757506301ffc9a760e01b6001600160e01b03198316145b92915050565b600080516020613a228339815191526108c68133612533565b5061012f80546001600160a01b0319166001600160a01b0392909216919091179055565b600054610100900460ff166109055760005460ff1615610909565b303b155b6109715760405162461bcd60e51b815260206004820152602e60248201527f496e697469616c697a61626c653a20636f6e747261637420697320616c72656160448201526d191e481a5b9a5d1a585b1a5e995960921b60648201526084015b60405180910390fd5b600054610100900460ff16158015610993576000805461ffff19166101011790555b61099b612597565b6109a36125c0565b6109ab612597565b6109b66000336125ef565b6109ce600080516020613a22833981519152336125ef565b6109e66000805160206139bb833981519152336125ef565b610a0c60008051602061399b833981519152600080516020613a228339815191526125f9565b610a326000805160206139bb833981519152600080516020613a228339815191526125f9565b61012f80546001600160a01b03808b166001600160a01b03199283161790925561012d80548a841690831617905561012e8054928916929091169190911790556101308590556101318490556101328390556101338290558015610a9c576000805461ff00191690555b5050505050505050565b60008060008060006101368681548110610ac257610ac2613464565b9060005260206000209060090201905080600201548160010154826003015483600401549450945094509450509193509193565b600082815260656020526040902060010154610b128133612533565b610b1c8383612644565b505050565b6001600160a01b0381163314610b915760405162461bcd60e51b815260206004820152602f60248201527f416363657373436f6e74726f6c3a2063616e206f6e6c792072656e6f756e636560448201526e103937b632b9903337b91039b2b63360891b6064820152608401610968565b610b9b82826126ca565b5050565b306001600160a01b037f0000000000000000000000000000000000000000000000000000000000000000161415610be85760405162461bcd60e51b81526004016109689061347a565b7f00000000000000000000000000000000000000000000000000000000000000006001600160a01b0316610c316000805160206139db833981519152546001600160a01b031690565b6001600160a01b031614610c575760405162461bcd60e51b8152600401610968906134c6565b610c6081612731565b60408051600080825260208201909252610c7c9183919061274a565b50565b60026097541415610ca25760405162461bcd60e51b815260040161096890613512565b600260975560008051602061399b833981519152610cc08133612533565b50610135805460ff19166001908117909155609755565b60006101368281548110610ced57610ced613464565b60009182526020909120600990910201546001600160a01b031692915050565b6000670de0b6b3a76400006301e133806101368481548110610d3157610d31613464565b90600052602060002090600902016004015442610d4e919061355f565b61012e60009054906101000a90046001600160a01b03166001600160a01b0316631a9703da6040518163ffffffff1660e01b815260040160206040518083038186803b158015610d9d57600080fd5b505afa158015610db1573d6000803e3d6000fd5b505050506040513d601f19601f82011682018060405250810190610dd59190613576565b610ddf919061358f565b610de991906135ae565b61012e60009054906101000a90046001600160a01b03166001600160a01b031663802d14226040518163ffffffff1660e01b815260040160206040518083038186803b158015610e3857600080fd5b505afa158015610e4c573d6000803e3d6000fd5b505050506040513d601f19601f82011682018060405250810190610e709190613576565b610e7a91906135d0565b6101368481548110610e8e57610e8e613464565b906000526020600020906009020160050154610eaa919061358f565b6108a791906135ae565b306001600160a01b037f0000000000000000000000000000000000000000000000000000000000000000161415610efd5760405162461bcd60e51b81526004016109689061347a565b7f00000000000000000000000000000000000000000000000000000000000000006001600160a01b0316610f466000805160206139db833981519152546001600160a01b031690565b6001600160a01b031614610f6c5760405162461bcd60e51b8152600401610968906134c6565b610f7582612731565b610b9b8282600161274a565b60026097541415610fa45760405162461bcd60e51b815260040161096890613512565b600260975561012d5461012f54604080516395d89b4160e01b815290516000936001600160a01b0390811693630292e0fd939116916395d89b41916004808201928892909190829003018186803b158015610ffe57600080fd5b505afa158015611012573d6000803e3d6000fd5b505050506040513d6000823e601f3d908101601f1916820160405261103a9190810190613614565b6040518263ffffffff1660e01b815260040161105691906136ae565b60206040518083038186803b15801561106e57600080fd5b505afa158015611082573d6000803e3d6000fd5b505050506040513d601f19601f820116820180604052508101906110a69190613576565b90508161013460008282546110bb91906135d0565b909155506110c99050611e36565b6101345411156111555760405162461bcd60e51b815260206004820152604b60248201527f575141756374696f6e3a20416d6f756e74206f6620746f6b656e73207075726360448201527f68617365642069732067726561746572207468616e2074686520616d6f756e7460648201526a081b1a5c5d5a59185d195960aa1b608482015260a401610968565b6000610136848154811061116b5761116b613464565b6000918252602090912060099091020190506001600882015460ff166003811115611198576111986132c0565b146111e55760405162461bcd60e51b815260206004820152601c60248201527f575141756374696f6e3a20537461747573206973206e6f74204e6577000000006044820152606401610968565b600081600101548260030154846111fc919061358f565b61120691906135ae565b905061013054811080156112225750670de0b6b3a76400008110155b6112845760405162461bcd60e51b815260206004820152602d60248201527f575141756374696f6e3a2054686973206c6f74206973206e6f7420617661696c60448201526c61626c6520666f722073616c6560981b6064820152608401610968565b60058201849055600282015481906112a490670de0b6b3a764000061358f565b6112ae91906135ae565b6112b786610d0d565b6112c190866135d0565b10611336576040805162461bcd60e51b81526020600482015260248101919091527f575141756374696f6e3a20416d6f756e74206f6620746f6b656e73207075726360448201527f68617365642069732067726561746572207468616e206c6f7420616d6f756e746064820152608401610968565b600682018390556101335461134b90426135d0565b600783015560088201805460ff1916600217905560068201546040805187815260208101879052908101919091527f44c53be110c6aa83aa83cd02e351ed172359268272ee1b5d31c0fe48db35c6c79060600160405180910390a150506001609755505050565b6000306001600160a01b037f000000000000000000000000000000000000000000000000000000000000000016146114525760405162461bcd60e51b815260206004820152603860248201527f555550535570677261646561626c653a206d757374206e6f742062652063616c60448201527f6c6564207468726f7567682064656c656761746563616c6c00000000000000006064820152608401610968565b506000805160206139db83398151915290565b600080610136838154811061147c5761147c613464565b6000918252602090912060099091020190506002600882015460ff1660038111156114a9576114a96132c0565b146115025760405162461bcd60e51b8152602060048201526024808201527f575141756374696f6e3a2054686973206c6f74206973206e6f742061756374696044820152631bdb995960e21b6064820152608401610968565b670de0b6b3a7640000611514826128c4565b61012f60009054906101000a90046001600160a01b03166001600160a01b031663313ce5676040518163ffffffff1660e01b815260040160206040518083038186803b15801561156357600080fd5b505afa158015611577573d6000803e3d6000fd5b505050506040513d601f19601f8201168201806040525081019061159b91906136c1565b6115a69060126136e4565b6115b190600a6137eb565b83600501546115c0919061358f565b6115ca919061358f565b6115d491906135ae565b9392505050565b600080516020613a228339815191526115f48133612533565b5061013155565b6002609754141561161e5760405162461bcd60e51b815260040161096890613512565b60026097819055506000610136828154811061163c5761163c613464565b6000918252602090912060099091020190506002600882015460ff166003811115611669576116696132c0565b146116b65760405162461bcd60e51b815260206004820152601f60248201527f575141756374696f6e3a204c6f74206973206e6f742061756374696f6e6564006044820152606401610968565b806007015442111561170a5760405162461bcd60e51b815260206004820152601f60248201527f575141756374696f6e3a2041756374696f6e2074696d65206973206f766572006044820152606401610968565b6000670de0b6b3a764000061171e836128c4565b61012f60009054906101000a90046001600160a01b03166001600160a01b031663313ce5676040518163ffffffff1660e01b815260040160206040518083038186803b15801561176d57600080fd5b505afa158015611781573d6000803e3d6000fd5b505050506040513d601f19601f820116820180604052508101906117a591906136c1565b6117b09060126136e4565b6117bb90600a6137eb565b84600501546117ca919061358f565b6117d4919061358f565b6117de91906135ae565b905060006117eb84610d0d565b90506000836001015484600301548560060154611808919061358f565b61181291906135ae565b90508360050154610134600082825461182b919061355f565b909155505060058401546118409083906135d0565b846002016000828254611853919061355f565b90915550506005840154600285015461186c919061355f565b8460050154828660020154670de0b6b3a764000061188a919061358f565b61189491906135ae565b61189e919061355f565b6118b090670de0b6b3a764000061358f565b6118ba91906135ae565b600385015561012e54600585015461012f54604080516395d89b4160e01b815290516001600160a01b0394851694638701c5429433948c948b9492938b939216916395d89b4191600480820192600092909190829003018186803b15801561192157600080fd5b505afa158015611935573d6000803e3d6000fd5b505050506040513d6000823e601f3d908101601f1916820160405261195d9190810190613614565b6040518763ffffffff1660e01b815260040161197e969594939291906137fa565b600060405180830381600087803b15801561199857600080fd5b505af11580156119ac573d6000803e3d6000fd5b505050600585015460408051888152602081019290925281018590527fdcbbffeefd7d789c21429b616a74a46f1b4768145c7bebdd7bc2de50230779b1915060600160405180910390a150506000600583015550600801805460ff1916600190811790915560975550565b60026097541415611a3a5760405162461bcd60e51b815260040161096890613512565b600260975560008051602061399b833981519152611a588133612533565b50610135805460ff191690556001609755565b600080516020613a22833981519152611a848133612533565b5061012d80546001600160a01b0319166001600160a01b0392909216919091179055565b61013654606090611aba90849061355f565b821115611ad35761013654611ad090849061355f565b91505b8167ffffffffffffffff811115611aec57611aec61319e565b604051908082528060200260200182016040528015611b2557816020015b611b1261302b565b815260200190600190039081611b0a5790505b50905060005b82811015611c2b57610136611b4082866135d0565b81548110611b5057611b50613464565b60009182526020918290206040805161012081018252600990930290910180546001600160a01b03168352600181015493830193909352600283015490820152600380830154606083015260048301546080830152600583015460a0830152600683015460c0830152600783015460e0830152600883015491929161010084019160ff90911690811115611be657611be66132c0565b6003811115611bf757611bf76132c0565b81525050828281518110611c0d57611c0d613464565b60200260200101819052508080611c239061383f565b915050611b2b565b5092915050565b60009182526065602090815260408084206001600160a01b0393909316845291905290205460ff1690565b60006101368281548110611c7357611c73613464565b6000918252602090912060099091020190506002600882015460ff166003811115611ca057611ca06132c0565b14611ced5760405162461bcd60e51b815260206004820152601f60248201527f575141756374696f6e3a204c6f74206973206e6f742061756374696f6e6564006044820152606401610968565b80600701544211611d505760405162461bcd60e51b815260206004820152602760248201527f575141756374696f6e3a2041756374696f6e2074696d65206973206e6f74206f6044820152661d995c881e595d60ca1b6064820152608401610968565b80600501546101346000828254611d67919061355f565b9091555050600060058201819055600682018190556007820181905560088201805460ff191660011790556040805184815260208101839052908101919091527ff49dbfcc40079f59a911e2541cedaa7a9275ee6fdfb9349032eeb970ce60f57a9060600160405180910390a15050565b60006101368281548110611dee57611dee613464565b600091825260209091206008600990920201015460ff1660038111156108a7576108a76132c0565b600080516020613a22833981519152611e2f8133612533565b5061013355565b60008061012f60009054906101000a90046001600160a01b03166001600160a01b03166395d89b416040518163ffffffff1660e01b815260040160006040518083038186803b158015611e8857600080fd5b505afa158015611e9c573d6000803e3d6000fd5b505050506040513d6000823e601f3d908101601f19168201604052611ec49190810190613614565b9050600061012f60009054906101000a90046001600160a01b03166001600160a01b031663313ce5676040518163ffffffff1660e01b815260040160206040518083038186803b158015611f1757600080fd5b505afa158015611f2b573d6000803e3d6000fd5b505050506040513d601f19601f82011682018060405250810190611f4f91906136c1565b611f5a9060126136e4565b611f6590600a6137eb565b61012d54604051630292e0fd60e01b81529192506000916001600160a01b0390911690630292e0fd90611f9c9086906004016136ae565b60206040518083038186803b158015611fb457600080fd5b505afa158015611fc8573d6000803e3d6000fd5b505050506040513d601f19601f82011682018060405250810190611fec9190613576565b61012e54604051632ed4877d60e21b8152919250600091849184916001600160a01b039091169063bb521df4906120279089906004016136ae565b60206040518083038186803b15801561203f57600080fd5b505afa158015612053573d6000803e3d6000fd5b505050506040513d601f19601f820116820180604052508101906120779190613576565b612081919061358f565b61208b919061358f565b61012e54604051638c1e06f160e01b81529192506000916001600160a01b0390911690638c1e06f1906120c29088906004016136ae565b60206040518083038186803b1580156120da57600080fd5b505afa1580156120ee573d6000803e3d6000fd5b505050506040513d601f19601f820116820180604052508101906121129190613576565b90508061013054612123919061358f565b82108015612141575061213e81670de0b6b3a764000061358f565b82115b15612182578261215283600261358f565b612164836729a2241af62c000061358f565b61216e919061355f565b61217891906135ae565b9550505050505090565b60009550505050505090565b61012e546000906001600160a01b031633146121bc5760405162461bcd60e51b81526004016109689061385a565b8261013685815481106121d1576121d1613464565b9060005260206000209060090201600101819055508161013685815481106121fb576121fb613464565b6000918252602090912060099091020160020155509192915050565b600080516020613a228339815191526122308133612533565b5061012e80546001600160a01b0319166001600160a01b0392909216919091179055565b600080516020613a2283398151915261226d8133612533565b5061013055565b61012e546000906001600160a01b031633146122a25760405162461bcd60e51b81526004016109689061385a565b610136604051806101200160405280876001600160a01b0316815260200186815260200185815260200184815260200142815260200160008152602001600081526020016000815260200160016003811115612300576123006132c0565b90528154600180820184556000938452602093849020835160099093020180546001600160a01b0319166001600160a01b0390931692909217825592820151818401556040820151600282015560608201516003808301919091556080830151600483015560a0830151600583015560c0830151600683015560e08301516007830155610100830151600883018054949593949193909260ff199092169184908111156123af576123af6132c0565b021790555050610136546123c6915060019061355f565b95945050505050565b61012e546000906001600160a01b031633146123fd5760405162461bcd60e51b81526004016109689061385a565b81610136848154811061241257612412613464565b90600052602060002090600902016002016000828254612432919061355f565b925050819055506000610136848154811061244f5761244f613464565b906000526020600020906009020160020154905080600014156115d4576115d484612952565b6000828152606560205260409020600101546124918133612533565b610b1c83836126ca565b600080516020613a228339815191526124b48133612533565b5061013255565b61013681815481106124cc57600080fd5b60009182526020909120600990910201805460018201546002830154600384015460048501546005860154600687015460078801546008909801546001600160a01b0390971698509496939592949193909260ff1689565b6001600160a01b03163b151590565b61253d8282611c32565b610b9b57612555816001600160a01b03166014612c3b565b612560836020612c3b565b604051602001612571929190613891565b60408051601f198184030181529082905262461bcd60e51b8252610968916004016136ae565b600054610100900460ff166125be5760405162461bcd60e51b815260040161096890613906565b565b600054610100900460ff166125e75760405162461bcd60e51b815260040161096890613906565b6125be612dd7565b610b9b8282612644565b600082815260656020526040808220600101805490849055905190918391839186917fbd79b86ffe0ab8e8776151514217cd7cacd52c909f66475c3af44e129f0b00ff9190a4505050565b61264e8282611c32565b610b9b5760008281526065602090815260408083206001600160a01b03851684529091529020805460ff191660011790556126863390565b6001600160a01b0316816001600160a01b0316837f2f8788117e7eff1d82e926ec794901d17c78024a50270940304540a733656f0d60405160405180910390a45050565b6126d48282611c32565b15610b9b5760008281526065602090815260408083206001600160a01b0385168085529252808320805460ff1916905551339285917ff6391f5c32d9c69d2a47ea670b442974b53935d1edc7fd64eb21e047a839171b9190a45050565b6000805160206139bb833981519152610b9b8133612533565b7f4910fdfa16fed3260ed0e7147f7cc6da11a60208b5b9406d12a635614ffd91435460ff161561277d57610b1c83612e05565b826001600160a01b03166352d1902d6040518163ffffffff1660e01b815260040160206040518083038186803b1580156127b657600080fd5b505afa9250505080156127e6575060408051601f3d908101601f191682019092526127e391810190613576565b60015b6128495760405162461bcd60e51b815260206004820152602e60248201527f45524331393637557067726164653a206e657720696d706c656d656e7461746960448201526d6f6e206973206e6f74205555505360901b6064820152608401610968565b6000805160206139db83398151915281146128b85760405162461bcd60e51b815260206004820152602960248201527f45524331393637557067726164653a20756e737570706f727465642070726f786044820152681a58589b195555525160ba1b6064820152608401610968565b50610b1c838383612ea1565b6000670de0b6b3a764000061013354836006015461013254610131546128ea919061355f565b4286600701546128fa919061355f565b612904919061358f565b61290e919061358f565b61291891906135ae565b61292291906135ae565b670de0b6b3a764000061013254846006015461293e919061358f565b61294891906135ae565b6108a791906135d0565b610136546000906129659060019061355f565b9050818114612ae55761012e5461013680546001600160a01b039092169163103624b191908490811061299a5761299a613464565b600091825260209091206009909102015461013680546001600160a01b0390921691859081106129cc576129cc613464565b90600052602060002090600902016002015461013685815481106129f2576129f2613464565b906000526020600020906009020160010154858761012f60009054906101000a90046001600160a01b03166001600160a01b03166395d89b416040518163ffffffff1660e01b815260040160006040518083038186803b158015612a5557600080fd5b505afa158015612a69573d6000803e3d6000fd5b505050506040513d6000823e601f3d908101601f19168201604052612a919190810190613614565b6040518763ffffffff1660e01b8152600401612ab2969594939291906137fa565b600060405180830381600087803b158015612acc57600080fd5b505af1158015612ae0573d6000803e3d6000fd5b505050505b6101368181548110612af957612af9613464565b90600052602060002090600902016101368381548110612b1b57612b1b613464565b60009182526020909120825460099092020180546001600160a01b0319166001600160a01b0390921691909117815560018083015481830155600280840154908301556003808401548184015560048085015490840155600580850154908401556006808501549084015560078085015490840155600880850154908401805460ff90921693909260ff19909216918490811115612bbb57612bbb6132c0565b0217905550905050610136805480612bd557612bd5613951565b60008281526020812060096000199093019283020180546001600160a01b03191681556001810182905560028101829055600381018290556004810182905560058101829055600681018290556007810191909155600801805460ff1916905590555050565b60606000612c4a83600261358f565b612c559060026135d0565b67ffffffffffffffff811115612c6d57612c6d61319e565b6040519080825280601f01601f191660200182016040528015612c97576020820181803683370190505b509050600360fc1b81600081518110612cb257612cb2613464565b60200101906001600160f81b031916908160001a905350600f60fb1b81600181518110612ce157612ce1613464565b60200101906001600160f81b031916908160001a9053506000612d0584600261358f565b612d109060016135d0565b90505b6001811115612d88576f181899199a1a9b1b9c1cb0b131b232b360811b85600f1660108110612d4457612d44613464565b1a60f81b828281518110612d5a57612d5a613464565b60200101906001600160f81b031916908160001a90535060049490941c93612d8181613967565b9050612d13565b5083156115d45760405162461bcd60e51b815260206004820181905260248201527f537472696e67733a20686578206c656e67746820696e73756666696369656e746044820152606401610968565b600054610100900460ff16612dfe5760405162461bcd60e51b815260040161096890613906565b6001609755565b6001600160a01b0381163b612e725760405162461bcd60e51b815260206004820152602d60248201527f455243313936373a206e657720696d706c656d656e746174696f6e206973206e60448201526c1bdd08184818dbdb9d1c9858dd609a1b6064820152608401610968565b6000805160206139db83398151915280546001600160a01b0319166001600160a01b0392909216919091179055565b612eaa83612ecc565b600082511180612eb75750805b15610b1c57612ec68383612f0c565b50505050565b612ed581612e05565b6040516001600160a01b038216907fbc7cd75a20ee27fd9adebab32041f755214dbc6bffa90cc0225b39da2e5c2d3b90600090a250565b60606001600160a01b0383163b612f745760405162461bcd60e51b815260206004820152602660248201527f416464726573733a2064656c65676174652063616c6c20746f206e6f6e2d636f6044820152651b9d1c9858dd60d21b6064820152608401610968565b600080846001600160a01b031684604051612f8f919061397e565b600060405180830381855af49150503d8060008114612fca576040519150601f19603f3d011682016040523d82523d6000602084013e612fcf565b606091505b50915091506123c682826040518060600160405280602781526020016139fb60279139606083156130015750816115d4565b8251156130115782518084602001fd5b8160405162461bcd60e51b815260040161096891906136ae565b60405180610120016040528060006001600160a01b03168152602001600081526020016000815260200160008152602001600081526020016000815260200160008152602001600081526020016000600381111561308b5761308b6132c0565b905290565b6000602082840312156130a257600080fd5b81356001600160e01b0319811681146115d457600080fd5b80356001600160a01b03811681146130d157600080fd5b919050565b6000602082840312156130e857600080fd5b6115d4826130ba565b60006020828403121561310357600080fd5b5035919050565b600080600080600080600060e0888a03121561312557600080fd5b61312e886130ba565b965061313c602089016130ba565b955061314a604089016130ba565b969995985095966060810135965060808101359560a0820135955060c0909101359350915050565b6000806040838503121561318557600080fd5b82359150613195602084016130ba565b90509250929050565b634e487b7160e01b600052604160045260246000fd5b604051601f8201601f1916810167ffffffffffffffff811182821017156131dd576131dd61319e565b604052919050565b600067ffffffffffffffff8211156131ff576131ff61319e565b50601f01601f191660200190565b6000806040838503121561322057600080fd5b613229836130ba565b9150602083013567ffffffffffffffff81111561324557600080fd5b8301601f8101851361325657600080fd5b8035613269613264826131e5565b6131b4565b81815286602083850101111561327e57600080fd5b816020840160208301376000602083830101528093505050509250929050565b600080604083850312156132b157600080fd5b50508035926020909101359150565b634e487b7160e01b600052602160045260246000fd5b600481106132f457634e487b7160e01b600052602160045260246000fd5b9052565b602080825282518282018190526000919060409081850190868401855b8281101561339857815180516001600160a01b0316855286810151878601528581015186860152606080820151908601526080808201519086015260a0808201519086015260c0808201519086015260e080820151908601526101009081015190613382818701836132d6565b5050610120939093019290850190600101613315565b5091979650505050505050565b6000806000606084860312156133ba57600080fd5b505081359360208301359350604090920135919050565b600080600080608085870312156133e757600080fd5b6133f0856130ba565b966020860135965060408601359560600135945092505050565b60006101208201905060018060a01b038b1682528960208301528860408301528760608301528660808301528560a08301528460c08301528360e08301526134566101008301846132d6565b9a9950505050505050505050565b634e487b7160e01b600052603260045260246000fd5b6020808252602c908201527f46756e6374696f6e206d7573742062652063616c6c6564207468726f7567682060408201526b19195b1959d85d1958d85b1b60a21b606082015260800190565b6020808252602c908201527f46756e6374696f6e206d7573742062652063616c6c6564207468726f7567682060408201526b6163746976652070726f787960a01b606082015260800190565b6020808252601f908201527f5265656e7472616e637947756172643a207265656e7472616e742063616c6c00604082015260600190565b634e487b7160e01b600052601160045260246000fd5b60008282101561357157613571613549565b500390565b60006020828403121561358857600080fd5b5051919050565b60008160001904831182151516156135a9576135a9613549565b500290565b6000826135cb57634e487b7160e01b600052601260045260246000fd5b500490565b600082198211156135e3576135e3613549565b500190565b60005b838110156136035781810151838201526020016135eb565b83811115612ec65750506000910152565b60006020828403121561362657600080fd5b815167ffffffffffffffff81111561363d57600080fd5b8201601f8101841361364e57600080fd5b805161365c613264826131e5565b81815285602083850101111561367157600080fd5b6123c68260208301602086016135e8565b6000815180845261369a8160208601602086016135e8565b601f01601f19169290920160200192915050565b6020815260006115d46020830184613682565b6000602082840312156136d357600080fd5b815160ff811681146115d457600080fd5b600060ff821660ff8416808210156136fe576136fe613549565b90039392505050565b600181815b8085111561374257816000190482111561372857613728613549565b8085161561373557918102915b93841c939080029061370c565b509250929050565b600082613759575060016108a7565b81613766575060006108a7565b816001811461377c5760028114613786576137a2565b60019150506108a7565b60ff84111561379757613797613549565b50506001821b6108a7565b5060208310610133831016604e8410600b84101617156137c5575081810a6108a7565b6137cf8383613707565b80600019048211156137e3576137e3613549565b029392505050565b60006115d460ff84168361374a565b60018060a01b038716815285602082015284604082015283606082015282608082015260c060a0820152600061383360c0830184613682565b98975050505050505050565b600060001982141561385357613853613549565b5060010190565b6020808252601f908201527f575141756374696f6e3a2053656e646572206973206e6f7420726f7574657200604082015260600190565b7f416363657373436f6e74726f6c3a206163636f756e74200000000000000000008152600083516138c98160178501602088016135e8565b7001034b99036b4b9b9b4b733903937b6329607d1b60179184019182015283516138fa8160288401602088016135e8565b01602801949350505050565b6020808252602b908201527f496e697469616c697a61626c653a20636f6e7472616374206973206e6f74206960408201526a6e697469616c697a696e6760a81b606082015260800190565b634e487b7160e01b600052603160045260246000fd5b60008161397657613976613549565b506000190190565b600082516139908184602087016135e8565b919091019291505056fed8a7a79547af723ee3e12b59a480111268d8969c634e1a34a144d2c8b91d635b189ab7a9244df0848122154315af71fe140f3db0fe014031783b0946b8c9d2e3360894a13ba1a3210667c828492db98dca3e2076cc3735a920a3ca505d382bbc416464726573733a206c6f772d6c6576656c2064656c65676174652063616c6c206661696c6564a49807205ce4d355092ef5a8a18f56e8913cf4a201fbe287825b095693c21775a264697066735822122017f9d1ccc1e0d91e61114209b4e64a8ea67326081770776e053f36740908653964736f6c63430008090033",
  "linkReferences": {},
  "deployedLinkReferences": {}
}