{
  "_format": "hh-sol-artifact-1",
  "contractName": "WQCollateralAuction",
  "sourceName": "contracts/stablecoin/WQCollateralAuction.sol",
  "abi": [
    {
      "inputs": [],
      "stateMutability": "nonpayable",
      "type": "constructor"
    },
    {
      "anonymous": false,
      "inputs": [
        {
          "indexed": false,
          "internalType": "address",
          "name": "previousAdmin",
          "type": "address"
        },
        {
          "indexed": false,
          "internalType": "address",
          "name": "newAdmin",
          "type": "address"
        }
      ],
      "name": "AdminChanged",
      "type": "event"
    },
    {
      "anonymous": false,
      "inputs": [
        {
          "indexed": false,
          "internalType": "uint256",
          "name": "index",
          "type": "uint256"
        },
        {
          "indexed": false,
          "internalType": "uint256",
          "name": "amount",
          "type": "uint256"
        },
        {
          "indexed": false,
          "internalType": "uint256",
          "name": "endCost",
          "type": "uint256"
        }
      ],
      "name": "AuctionStarted",
      "type": "event"
    },
    {
      "anonymous": false,
      "inputs": [
        {
          "indexed": true,
          "internalType": "address",
          "name": "beacon",
          "type": "address"
        }
      ],
      "name": "BeaconUpgraded",
      "type": "event"
    },
    {
      "anonymous": false,
      "inputs": [
        {
          "indexed": false,
          "internalType": "address",
          "name": "buyer",
          "type": "address"
        },
        {
          "indexed": false,
          "internalType": "uint256",
          "name": "index",
          "type": "uint256"
        },
        {
          "indexed": false,
          "internalType": "uint256",
          "name": "amount",
          "type": "uint256"
        },
        {
          "indexed": false,
          "internalType": "uint256",
          "name": "cost",
          "type": "uint256"
        },
        {
          "indexed": false,
          "internalType": "uint256",
          "name": "price",
          "type": "uint256"
        }
      ],
      "name": "LotBuyed",
      "type": "event"
    },
    {
      "anonymous": false,
      "inputs": [
        {
          "indexed": false,
          "internalType": "uint256",
          "name": "index",
          "type": "uint256"
        },
        {
          "indexed": false,
          "internalType": "uint256",
          "name": "amount",
          "type": "uint256"
        },
        {
          "indexed": false,
          "internalType": "uint256",
          "name": "cost",
          "type": "uint256"
        }
      ],
      "name": "LotCanceled",
      "type": "event"
    },
    {
      "anonymous": false,
      "inputs": [
        {
          "indexed": true,
          "internalType": "bytes32",
          "name": "role",
          "type": "bytes32"
        },
        {
          "indexed": true,
          "internalType": "bytes32",
          "name": "previousAdminRole",
          "type": "bytes32"
        },
        {
          "indexed": true,
          "internalType": "bytes32",
          "name": "newAdminRole",
          "type": "bytes32"
        }
      ],
      "name": "RoleAdminChanged",
      "type": "event"
    },
    {
      "anonymous": false,
      "inputs": [
        {
          "indexed": true,
          "internalType": "bytes32",
          "name": "role",
          "type": "bytes32"
        },
        {
          "indexed": true,
          "internalType": "address",
          "name": "account",
          "type": "address"
        },
        {
          "indexed": true,
          "internalType": "address",
          "name": "sender",
          "type": "address"
        }
      ],
      "name": "RoleGranted",
      "type": "event"
    },
    {
      "anonymous": false,
      "inputs": [
        {
          "indexed": true,
          "internalType": "bytes32",
          "name": "role",
          "type": "bytes32"
        },
        {
          "indexed": true,
          "internalType": "address",
          "name": "account",
          "type": "address"
        },
        {
          "indexed": true,
          "internalType": "address",
          "name": "sender",
          "type": "address"
        }
      ],
      "name": "RoleRevoked",
      "type": "event"
    },
    {
      "anonymous": false,
      "inputs": [
        {
          "indexed": true,
          "internalType": "address",
          "name": "implementation",
          "type": "address"
        }
      ],
      "name": "Upgraded",
      "type": "event"
    },
    {
      "inputs": [],
      "name": "ADMIN_ROLE",
      "outputs": [
        {
          "internalType": "bytes32",
          "name": "",
          "type": "bytes32"
        }
      ],
      "stateMutability": "view",
      "type": "function"
    },
    {
      "inputs": [],
      "name": "DEFAULT_ADMIN_ROLE",
      "outputs": [
        {
          "internalType": "bytes32",
          "name": "",
          "type": "bytes32"
        }
      ],
      "stateMutability": "view",
      "type": "function"
    },
    {
      "inputs": [],
      "name": "SERVICE_ROLE",
      "outputs": [
        {
          "internalType": "bytes32",
          "name": "",
          "type": "bytes32"
        }
      ],
      "stateMutability": "view",
      "type": "function"
    },
    {
      "inputs": [],
      "name": "UPGRADER_ROLE",
      "outputs": [
        {
          "internalType": "bytes32",
          "name": "",
          "type": "bytes32"
        }
      ],
      "stateMutability": "view",
      "type": "function"
    },
    {
      "inputs": [
        {
          "internalType": "address",
          "name": "user",
          "type": "address"
        },
        {
          "internalType": "uint256",
          "name": "price",
          "type": "uint256"
        },
        {
          "internalType": "uint256",
          "name": "amount",
          "type": "uint256"
        },
        {
          "internalType": "uint256",
          "name": "ratio",
          "type": "uint256"
        }
      ],
      "name": "addLot",
      "outputs": [
        {
          "internalType": "uint256",
          "name": "",
          "type": "uint256"
        }
      ],
      "stateMutability": "nonpayable",
      "type": "function"
    },
    {
      "inputs": [],
      "name": "auctionDuration",
      "outputs": [
        {
          "internalType": "uint256",
          "name": "",
          "type": "uint256"
        }
      ],
      "stateMutability": "view",
      "type": "function"
    },
    {
      "inputs": [
        {
          "internalType": "uint256",
          "name": "index",
          "type": "uint256"
        }
      ],
      "name": "buyLot",
      "outputs": [],
      "stateMutability": "nonpayable",
      "type": "function"
    },
    {
      "inputs": [
        {
          "internalType": "uint256",
          "name": "index",
          "type": "uint256"
        }
      ],
      "name": "cancelAuction",
      "outputs": [],
      "stateMutability": "nonpayable",
      "type": "function"
    },
    {
      "inputs": [
        {
          "internalType": "uint256",
          "name": "index",
          "type": "uint256"
        },
        {
          "internalType": "uint256",
          "name": "collaterralPart",
          "type": "uint256"
        }
      ],
      "name": "decreaseLotAmount",
      "outputs": [
        {
          "internalType": "uint256",
          "name": "",
          "type": "uint256"
        }
      ],
      "stateMutability": "nonpayable",
      "type": "function"
    },
    {
      "inputs": [],
      "name": "disableReserves",
      "outputs": [],
      "stateMutability": "nonpayable",
      "type": "function"
    },
    {
      "inputs": [],
      "name": "enableReserves",
      "outputs": [],
      "stateMutability": "nonpayable",
      "type": "function"
    },
    {
      "inputs": [
        {
          "internalType": "uint256",
          "name": "index",
          "type": "uint256"
        },
        {
          "internalType": "uint256",
          "name": "amount",
          "type": "uint256"
        }
      ],
      "name": "getComission",
      "outputs": [
        {
          "internalType": "uint256",
          "name": "",
          "type": "uint256"
        }
      ],
      "stateMutability": "view",
      "type": "function"
    },
    {
      "inputs": [
        {
          "internalType": "uint256",
          "name": "index",
          "type": "uint256"
        }
      ],
      "name": "getCurrentLotCost",
      "outputs": [
        {
          "internalType": "uint256",
          "name": "",
          "type": "uint256"
        }
      ],
      "stateMutability": "view",
      "type": "function"
    },
    {
      "inputs": [],
      "name": "getLiquidatedCollaterallAmount",
      "outputs": [
        {
          "internalType": "uint256",
          "name": "",
          "type": "uint256"
        }
      ],
      "stateMutability": "view",
      "type": "function"
    },
    {
      "inputs": [
        {
          "internalType": "uint256",
          "name": "index",
          "type": "uint256"
        }
      ],
      "name": "getLotInfo",
      "outputs": [
        {
          "internalType": "uint256",
          "name": "",
          "type": "uint256"
        },
        {
          "internalType": "uint256",
          "name": "",
          "type": "uint256"
        },
        {
          "internalType": "uint256",
          "name": "",
          "type": "uint256"
        }
      ],
      "stateMutability": "view",
      "type": "function"
    },
    {
      "inputs": [
        {
          "internalType": "uint256",
          "name": "index",
          "type": "uint256"
        }
      ],
      "name": "getLotOwner",
      "outputs": [
        {
          "internalType": "address",
          "name": "",
          "type": "address"
        }
      ],
      "stateMutability": "view",
      "type": "function"
    },
    {
      "inputs": [
        {
          "internalType": "uint256",
          "name": "index",
          "type": "uint256"
        }
      ],
      "name": "getLotStatus",
      "outputs": [
        {
          "internalType": "uint8",
          "name": "",
          "type": "uint8"
        }
      ],
      "stateMutability": "view",
      "type": "function"
    },
    {
      "inputs": [
        {
          "internalType": "uint256",
          "name": "offset",
          "type": "uint256"
        },
        {
          "internalType": "uint256",
          "name": "limit",
          "type": "uint256"
        }
      ],
      "name": "getLots",
      "outputs": [
        {
          "components": [
            {
              "internalType": "address",
              "name": "user",
              "type": "address"
            },
            {
              "internalType": "uint256",
              "name": "price",
              "type": "uint256"
            },
            {
              "internalType": "uint256",
              "name": "amount",
              "type": "uint256"
            },
            {
              "internalType": "uint256",
              "name": "ratio",
              "type": "uint256"
            },
            {
              "internalType": "uint256",
              "name": "created",
              "type": "uint256"
            },
            {
              "internalType": "uint256",
              "name": "saleAmount",
              "type": "uint256"
            },
            {
              "internalType": "uint256",
              "name": "endPrice",
              "type": "uint256"
            },
            {
              "internalType": "uint256",
              "name": "endTime",
              "type": "uint256"
            },
            {
              "internalType": "enum WQCollateralAuction.LotStatus",
              "name": "status",
              "type": "uint8"
            }
          ],
          "internalType": "struct WQCollateralAuction.LotInfo[]",
          "name": "page",
          "type": "tuple[]"
        }
      ],
      "stateMutability": "view",
      "type": "function"
    },
    {
      "inputs": [
        {
          "internalType": "bytes32",
          "name": "role",
          "type": "bytes32"
        }
      ],
      "name": "getRoleAdmin",
      "outputs": [
        {
          "internalType": "bytes32",
          "name": "",
          "type": "bytes32"
        }
      ],
      "stateMutability": "view",
      "type": "function"
    },
    {
      "inputs": [
        {
          "internalType": "bytes32",
          "name": "role",
          "type": "bytes32"
        },
        {
          "internalType": "address",
          "name": "account",
          "type": "address"
        }
      ],
      "name": "grantRole",
      "outputs": [],
      "stateMutability": "nonpayable",
      "type": "function"
    },
    {
      "inputs": [
        {
          "internalType": "bytes32",
          "name": "role",
          "type": "bytes32"
        },
        {
          "internalType": "address",
          "name": "account",
          "type": "address"
        }
      ],
      "name": "hasRole",
      "outputs": [
        {
          "internalType": "bool",
          "name": "",
          "type": "bool"
        }
      ],
      "stateMutability": "view",
      "type": "function"
    },
    {
      "inputs": [
        {
          "internalType": "address",
          "name": "_token",
          "type": "address"
        },
        {
          "internalType": "address",
          "name": "_oracle",
          "type": "address"
        },
        {
          "internalType": "address",
          "name": "_router",
          "type": "address"
        },
        {
          "internalType": "uint256",
          "name": "_liquidateThreshold",
          "type": "uint256"
        },
        {
          "internalType": "uint256",
          "name": "_upperBoundCost",
          "type": "uint256"
        },
        {
          "internalType": "uint256",
          "name": "_lowerBoundCost",
          "type": "uint256"
        },
        {
          "internalType": "uint256",
          "name": "_auctionDuration",
          "type": "uint256"
        }
      ],
      "name": "initialize",
      "outputs": [],
      "stateMutability": "nonpayable",
      "type": "function"
    },
    {
      "inputs": [
        {
          "internalType": "uint256",
          "name": "index",
          "type": "uint256"
        },
        {
          "internalType": "uint256",
          "name": "amount",
          "type": "uint256"
        }
      ],
      "name": "liquidateLot",
      "outputs": [],
      "stateMutability": "nonpayable",
      "type": "function"
    },
    {
      "inputs": [],
      "name": "liquidateThreshold",
      "outputs": [
        {
          "internalType": "uint256",
          "name": "",
          "type": "uint256"
        }
      ],
      "stateMutability": "view",
      "type": "function"
    },
    {
      "inputs": [
        {
          "internalType": "uint256",
          "name": "",
          "type": "uint256"
        }
      ],
      "name": "lots",
      "outputs": [
        {
          "internalType": "address",
          "name": "user",
          "type": "address"
        },
        {
          "internalType": "uint256",
          "name": "price",
          "type": "uint256"
        },
        {
          "internalType": "uint256",
          "name": "amount",
          "type": "uint256"
        },
        {
          "internalType": "uint256",
          "name": "ratio",
          "type": "uint256"
        },
        {
          "internalType": "uint256",
          "name": "created",
          "type": "uint256"
        },
        {
          "internalType": "uint256",
          "name": "saleAmount",
          "type": "uint256"
        },
        {
          "internalType": "uint256",
          "name": "endPrice",
          "type": "uint256"
        },
        {
          "internalType": "uint256",
          "name": "endTime",
          "type": "uint256"
        },
        {
          "internalType": "enum WQCollateralAuction.LotStatus",
          "name": "status",
          "type": "uint8"
        }
      ],
      "stateMutability": "view",
      "type": "function"
    },
    {
      "inputs": [],
      "name": "lowerBoundCost",
      "outputs": [
        {
          "internalType": "uint256",
          "name": "",
          "type": "uint256"
        }
      ],
      "stateMutability": "view",
      "type": "function"
    },
    {
      "inputs": [
        {
          "internalType": "uint256",
          "name": "index",
          "type": "uint256"
        },
        {
          "internalType": "uint256",
          "name": "newPrice",
          "type": "uint256"
        },
        {
          "internalType": "uint256",
          "name": "newAmount",
          "type": "uint256"
        }
      ],
      "name": "moveLot",
      "outputs": [
        {
          "internalType": "uint256",
          "name": "",
          "type": "uint256"
        }
      ],
      "stateMutability": "nonpayable",
      "type": "function"
    },
    {
      "inputs": [],
      "name": "oracle",
      "outputs": [
        {
          "internalType": "contract WQPriceOracleInterface",
          "name": "",
          "type": "address"
        }
      ],
      "stateMutability": "view",
      "type": "function"
    },
    {
      "inputs": [],
      "name": "proxiableUUID",
      "outputs": [
        {
          "internalType": "bytes32",
          "name": "",
          "type": "bytes32"
        }
      ],
      "stateMutability": "view",
      "type": "function"
    },
    {
      "inputs": [
        {
          "internalType": "bytes32",
          "name": "role",
          "type": "bytes32"
        },
        {
          "internalType": "address",
          "name": "account",
          "type": "address"
        }
      ],
      "name": "renounceRole",
      "outputs": [],
      "stateMutability": "nonpayable",
      "type": "function"
    },
    {
      "inputs": [],
      "name": "reservesEnabled",
      "outputs": [
        {
          "internalType": "bool",
          "name": "",
          "type": "bool"
        }
      ],
      "stateMutability": "view",
      "type": "function"
    },
    {
      "inputs": [
        {
          "internalType": "bytes32",
          "name": "role",
          "type": "bytes32"
        },
        {
          "internalType": "address",
          "name": "account",
          "type": "address"
        }
      ],
      "name": "revokeRole",
      "outputs": [],
      "stateMutability": "nonpayable",
      "type": "function"
    },
    {
      "inputs": [],
      "name": "router",
      "outputs": [
        {
          "internalType": "contract WQRouterInterface",
          "name": "",
          "type": "address"
        }
      ],
      "stateMutability": "view",
      "type": "function"
    },
    {
      "inputs": [
        {
          "internalType": "uint256",
          "name": "duration",
          "type": "uint256"
        }
      ],
      "name": "setAuctionDuration",
      "outputs": [],
      "stateMutability": "nonpayable",
      "type": "function"
    },
    {
      "inputs": [
        {
          "internalType": "uint256",
          "name": "percent",
          "type": "uint256"
        }
      ],
      "name": "setLiquidateTreshold",
      "outputs": [],
      "stateMutability": "nonpayable",
      "type": "function"
    },
    {
      "inputs": [
        {
          "internalType": "uint256",
          "name": "percent",
          "type": "uint256"
        }
      ],
      "name": "setLowerBoundCost",
      "outputs": [],
      "stateMutability": "nonpayable",
      "type": "function"
    },
    {
      "inputs": [
        {
          "internalType": "address",
          "name": "_oracle",
          "type": "address"
        }
      ],
      "name": "setOracle",
      "outputs": [],
      "stateMutability": "nonpayable",
      "type": "function"
    },
    {
      "inputs": [
        {
          "internalType": "address",
          "name": "_router",
          "type": "address"
        }
      ],
      "name": "setRouter",
      "outputs": [],
      "stateMutability": "nonpayable",
      "type": "function"
    },
    {
      "inputs": [
        {
          "internalType": "address",
          "name": "_token",
          "type": "address"
        }
      ],
      "name": "setToken",
      "outputs": [],
      "stateMutability": "nonpayable",
      "type": "function"
    },
    {
      "inputs": [
        {
          "internalType": "uint256",
          "name": "percent",
          "type": "uint256"
        }
      ],
      "name": "setUpperBoundCost",
      "outputs": [],
      "stateMutability": "nonpayable",
      "type": "function"
    },
    {
      "inputs": [
        {
          "internalType": "uint256",
          "name": "index",
          "type": "uint256"
        },
        {
          "internalType": "uint256",
          "name": "amount",
          "type": "uint256"
        }
      ],
      "name": "startAuction",
      "outputs": [],
      "stateMutability": "nonpayable",
      "type": "function"
    },
    {
      "inputs": [
        {
          "internalType": "bytes4",
          "name": "interfaceId",
          "type": "bytes4"
        }
      ],
      "name": "supportsInterface",
      "outputs": [
        {
          "internalType": "bool",
          "name": "",
          "type": "bool"
        }
      ],
      "stateMutability": "view",
      "type": "function"
    },
    {
      "inputs": [],
      "name": "token",
      "outputs": [
        {
          "internalType": "contract IERC20MetadataUpgradeable",
          "name": "",
          "type": "address"
        }
      ],
      "stateMutability": "view",
      "type": "function"
    },
    {
      "inputs": [],
      "name": "totalAuctioned",
      "outputs": [
        {
          "internalType": "uint256",
          "name": "",
          "type": "uint256"
        }
      ],
      "stateMutability": "view",
      "type": "function"
    },
    {
      "inputs": [
        {
          "internalType": "address",
          "name": "newImplementation",
          "type": "address"
        }
      ],
      "name": "upgradeTo",
      "outputs": [],
      "stateMutability": "nonpayable",
      "type": "function"
    },
    {
      "inputs": [
        {
          "internalType": "address",
          "name": "newImplementation",
          "type": "address"
        },
        {
          "internalType": "bytes",
          "name": "data",
          "type": "bytes"
        }
      ],
      "name": "upgradeToAndCall",
      "outputs": [],
      "stateMutability": "payable",
      "type": "function"
    },
    {
      "inputs": [],
      "name": "upperBoundCost",
      "outputs": [
        {
          "internalType": "uint256",
          "name": "",
          "type": "uint256"
        }
      ],
      "stateMutability": "view",
      "type": "function"
    }
  ],
  "bytecode": "0x60a0604052306080523480156200001557600080fd5b50600054610100900460ff16620000335760005460ff16156200003d565b6200003d620000e2565b620000a55760405162461bcd60e51b815260206004820152602e60248201527f496e697469616c697a61626c653a20636f6e747261637420697320616c72656160448201526d191e481a5b9a5d1a585b1a5e995960921b606482015260840160405180910390fd5b600054610100900460ff16158015620000c8576000805461ffff19166101011790555b8015620000db576000805461ff00191690555b506200010f565b6000620000fa306200010060201b62002adc1760201c565b15905090565b6001600160a01b03163b151590565b608051614100620001476000396000818161105c0152818161109c015281816111ca0152818161120a01526117a201526141006000f3fe6080604052600436106102885760003560e01c8063874f5cbb1161015a578063c41600fe116100c1578063f72c0d8b1161007a578063f72c0d8b146107f3578063f887ea4014610815578063fc0c546a14610836578063fdcb648c14610857578063ff2ab2291461086e578063ffb671861461088557600080fd5b8063c41600fe1461071e578063cc6b3be31461073e578063d0896c551461075e578063d547741f1461077e578063e2a07a071461079e578063f1648e84146107be57600080fd5b8063a20e7d4711610113578063a20e7d4714610672578063a217fddf14610694578063a497e674146106a9578063b0f78765146106c9578063b70a07ea146106de578063c0d78655146106fe57600080fd5b8063874f5cbb1461059857806390d070f3146105c557806391d14854146105e557806396b5a75514610605578063997e7c36146106255780639ea687a71461065757600080fd5b80633a1a7327116101fe57806364ad7ad7116101b757806364ad7ad7146104e057806374e3e3dc1461050057806375b238fc1461052057806376446013146105425780637adbf973146105575780637dc0d1d01461057757600080fd5b80633a1a732714610429578063403b74ed146104615780634f1ef286146104785780634fee13fc1461048b57806352d1902d146104ab578063535bb867146104c057600080fd5b80632c2a40c7116102505780632c2a40c7146103595780632f1b1303146103795780632f2ff15d146103b457806336568abe146103d45780633659cfe6146103f457806336c1d2351461041457600080fd5b806301ffc9a71461028d5780630cbf54c8146102c2578063144fa6d7146102e7578063248a9ca3146103095780632b4656c814610339575b600080fd5b34801561029957600080fd5b506102ad6102a836600461366f565b61089c565b60405190151581526020015b60405180910390f35b3480156102ce57600080fd5b506102d96101335481565b6040519081526020016102b9565b3480156102f357600080fd5b506103076103023660046136b5565b6108d3565b005b34801561031557600080fd5b506102d96103243660046136d0565b60009081526065602052604090206001015490565b34801561034557600080fd5b506103076103543660046136e9565b610910565b34801561036557600080fd5b50610307610374366004613751565b610acc565b34801561038557600080fd5b506103996103943660046136d0565b610f61565b604080519384526020840192909252908201526060016102b9565b3480156103c057600080fd5b506103076103cf366004613773565b610fa8565b3480156103e057600080fd5b506103076103ef366004613773565b610fd3565b34801561040057600080fd5b5061030761040f3660046136b5565b611051565b34801561042057600080fd5b50610307611131565b34801561043557600080fd5b506104496104443660046136d0565b611189565b6040516001600160a01b0390911681526020016102b9565b34801561046d57600080fd5b506102d96101315481565b61030761048636600461380e565b6111bf565b34801561049757600080fd5b506103076104a6366004613751565b61128c565b3480156104b757600080fd5b506102d9611795565b3480156104cc57600080fd5b506102d96104db3660046136d0565b611848565b3480156104ec57600080fd5b506103076104fb3660046136d0565b6119be565b34801561050c57600080fd5b5061030761051b3660046136d0565b6119de565b34801561052c57600080fd5b506102d96000805160206140ab83398151915281565b34801561054e57600080fd5b50610307611e19565b34801561056357600080fd5b506103076105723660046136b5565b611e6d565b34801561058357600080fd5b5061012d54610449906001600160a01b031681565b3480156105a457600080fd5b506105b86105b3366004613751565b611eaa565b6040516102b991906138d7565b3480156105d157600080fd5b506102d96105e0366004613751565b612034565b3480156105f157600080fd5b506102ad610600366004613773565b6121ab565b34801561061157600080fd5b506103076106203660046136d0565b6121d6565b34801561063157600080fd5b506106456106403660046136d0565b61238e565b60405160ff90911681526020016102b9565b34801561066357600080fd5b50610135546102ad9060ff1681565b34801561067e57600080fd5b506102d960008051602061402483398151915281565b3480156106a057600080fd5b506102d9600081565b3480156106b557600080fd5b506103076106c43660046136d0565b6123cc565b3480156106d557600080fd5b506102d96123ec565b3480156106ea57600080fd5b506102d96106f9366004613984565b612746565b34801561070a57600080fd5b506103076107193660046136b5565b6127cf565b34801561072a57600080fd5b506103076107393660046136d0565b61280c565b34801561074a57600080fd5b506102d96107593660046139b0565b61282c565b34801561076a57600080fd5b506102d9610779366004613751565b612987565b34801561078a57600080fd5b50610307610799366004613773565b612a2d565b3480156107aa57600080fd5b506103076107b93660046136d0565b612a53565b3480156107ca57600080fd5b506107de6107d93660046136d0565b612a73565b6040516102b9999897969594939291906139e9565b3480156107ff57600080fd5b506102d960008051602061404483398151915281565b34801561082157600080fd5b5061012e54610449906001600160a01b031681565b34801561084257600080fd5b5061012f54610449906001600160a01b031681565b34801561086357600080fd5b506102d96101305481565b34801561087a57600080fd5b506102d96101325481565b34801561089157600080fd5b506102d96101345481565b60006001600160e01b03198216637965db0b60e01b14806108cd57506301ffc9a760e01b6001600160e01b03198316145b92915050565b6000805160206140ab8339815191526108ec8133612aeb565b5061012f80546001600160a01b0319166001600160a01b0392909216919091179055565b600054610100900460ff1661092b5760005460ff161561092f565b303b155b6109975760405162461bcd60e51b815260206004820152602e60248201527f496e697469616c697a61626c653a20636f6e747261637420697320616c72656160448201526d191e481a5b9a5d1a585b1a5e995960921b60648201526084015b60405180910390fd5b600054610100900460ff161580156109b9576000805461ffff19166101011790555b6109c1612b4f565b6109c9612b78565b6109d1612b4f565b6109dc600033612ba7565b6109f46000805160206140ab83398151915233612ba7565b610a0c60008051602061404483398151915233612ba7565b610a326000805160206140248339815191526000805160206140ab833981519152612bb1565b610a586000805160206140448339815191526000805160206140ab833981519152612bb1565b61012f80546001600160a01b03808b166001600160a01b03199283161790925561012d80548a841690831617905561012e8054928916929091169190911790556101308590556101318490556101328390556101338290558015610ac2576000805461ff00191690555b5050505050505050565b60006101368381548110610ae257610ae2613a43565b6000918252602090912060099091020190506003600882015460ff166003811115610b0f57610b0f61389f565b14610b5c5760405162461bcd60e51b815260206004820181905260248201527f575141756374696f6e3a204c6f74206973206e6f74206c697175696461746564604482015260640161098e565b61012d5461012f54604080516395d89b4160e01b815290516000936001600160a01b0390811693630292e0fd939116916395d89b41916004808201928892909190829003018186803b158015610bb157600080fd5b505afa158015610bc5573d6000803e3d6000fd5b505050506040513d6000823e601f3d908101601f19168201604052610bed9190810190613a85565b6040518263ffffffff1660e01b8152600401610c099190613b1f565b60206040518083038186803b158015610c2157600080fd5b505afa158015610c35573d6000803e3d6000fd5b505050506040513d601f19601f82011682018060405250810190610c599190613b32565b905060008260010154836003015483610c729190613b61565b610c7c9190613b80565b9050808360020154670de0b6b3a7640000610c979190613b61565b610ca19190613b80565b8410610cbf5760405162461bcd60e51b815260040161098e90613ba2565b6000670de0b6b3a76400008361012f60009054906101000a90046001600160a01b03166001600160a01b031663313ce5676040518163ffffffff1660e01b815260040160206040518083038186803b158015610d1a57600080fd5b505afa158015610d2e573d6000803e3d6000fd5b505050506040513d601f19601f82011682018060405250810190610d529190613c00565b610d5d906012613c23565b610d6890600a613d2a565b610d729088613b61565b610d7c9190613b61565b610d869190613b80565b90506000610d98878660050154612034565b905085838660020154670de0b6b3a7640000610db49190613b61565b610dbe9190613b80565b610dc89190613d39565b868660020154610dd89190613d39565b610dea90670de0b6b3a7640000613b61565b610df49190613b80565b856003018190555085856002016000828254610e109190613d39565b90915550506001850184905561012e5461012f54604080516395d89b4160e01b815290516001600160a01b0393841693638701c5429333938d9389938e938a939116916395d89b4191600480820192600092909190829003018186803b158015610e7957600080fd5b505afa158015610e8d573d6000803e3d6000fd5b505050506040513d6000823e601f3d908101601f19168201604052610eb59190810190613a85565b6040518763ffffffff1660e01b8152600401610ed696959493929190613d50565b600060405180830381600087803b158015610ef057600080fd5b505af1158015610f04573d6000803e3d6000fd5b505060408051338152602081018b905290810189905260608101859052608081018790527f98d42833b8bbd469503fdacb5bb2ddee0a389699fcb5e6d9b85dae63d42668b9925060a001905060405180910390a150505050505050565b6000806000806101368581548110610f7b57610f7b613a43565b90600052602060002090600902019050806002015481600101548260030154935093509350509193909250565b600082815260656020526040902060010154610fc48133612aeb565b610fce8383612bfc565b505050565b6001600160a01b03811633146110435760405162461bcd60e51b815260206004820152602f60248201527f416363657373436f6e74726f6c3a2063616e206f6e6c792072656e6f756e636560448201526e103937b632b9903337b91039b2b63360891b606482015260840161098e565b61104d8282612c82565b5050565b306001600160a01b037f000000000000000000000000000000000000000000000000000000000000000016141561109a5760405162461bcd60e51b815260040161098e90613d95565b7f00000000000000000000000000000000000000000000000000000000000000006001600160a01b03166110e3600080516020614064833981519152546001600160a01b031690565b6001600160a01b0316146111095760405162461bcd60e51b815260040161098e90613de1565b61111281612ce9565b6040805160008082526020820190925261112e91839190612d02565b50565b600260975414156111545760405162461bcd60e51b815260040161098e90613e2d565b60026097556000805160206140248339815191526111728133612aeb565b50610135805460ff19166001908117909155609755565b6000610136828154811061119f5761119f613a43565b60009182526020909120600990910201546001600160a01b031692915050565b306001600160a01b037f00000000000000000000000000000000000000000000000000000000000000001614156112085760405162461bcd60e51b815260040161098e90613d95565b7f00000000000000000000000000000000000000000000000000000000000000006001600160a01b0316611251600080516020614064833981519152546001600160a01b031690565b6001600160a01b0316146112775760405162461bcd60e51b815260040161098e90613de1565b61128082612ce9565b61104d82826001612d02565b600260975414156112af5760405162461bcd60e51b815260040161098e90613e2d565b600260975561012d5461012f54604080516395d89b4160e01b815290516000936001600160a01b0390811693630292e0fd939116916395d89b41916004808201928892909190829003018186803b15801561130957600080fd5b505afa15801561131d573d6000803e3d6000fd5b505050506040513d6000823e601f3d908101601f191682016040526113459190810190613a85565b6040518263ffffffff1660e01b81526004016113619190613b1f565b60206040518083038186803b15801561137957600080fd5b505afa15801561138d573d6000803e3d6000fd5b505050506040513d601f19601f820116820180604052508101906113b19190613b32565b90508161013460008282546113c69190613e64565b909155506113d490506123ec565b6101345411156114605760405162461bcd60e51b815260206004820152604b60248201527f575141756374696f6e3a20416d6f756e74206f6620746f6b656e73207075726360448201527f68617365642069732067726561746572207468616e2074686520616d6f756e7460648201526a081b1a5c5d5a59185d195960aa1b608482015260a40161098e565b6000610136848154811061147657611476613a43565b6000918252602090912060099091020190506001600882015460ff1660038111156114a3576114a361389f565b146114f05760405162461bcd60e51b815260206004820152601c60248201527f575141756374696f6e3a20537461747573206973206e6f74204e657700000000604482015260640161098e565b600081600101548260030154846115079190613b61565b6115119190613b80565b9050610130548110801561152d5750670de0b6b3a76400008110155b8061154d57506101355460ff16801561154d5750670de0b6b3a764000081105b6115af5760405162461bcd60e51b815260206004820152602d60248201527f575141756374696f6e3a2054686973206c6f74206973206e6f7420617661696c60448201526c61626c6520666f722073616c6560981b606482015260840161098e565b60058201849055600282015481906115cf90670de0b6b3a7640000613b61565b6115d99190613b80565b84106115f75760405162461bcd60e51b815260040161098e90613ba2565b6101355460ff16156117195761012f546040516370a0823160e01b81523060048201526001600160a01b03909116906370a082319060240160206040518083038186803b15801561164757600080fd5b505afa15801561165b573d6000803e3d6000fd5b505050506040513d601f19601f8201168201806040525081019061167f9190613b32565b826002015461168e9190613e64565b8411156117195760405162461bcd60e51b815260206004820152604d60248201527f575141756374696f6e3a20416d6f756e74206f6620746f6b656e73207075726360448201527f68617365642069732067726561746572207468616e206c6f7420616d6f756e7460648201526c20616e6420726573657276657360981b608482015260a40161098e565b600682018390556101335461172e9042613e64565b600783015560088201805460ff1916600217905560068201546040805187815260208101879052908101919091527f44c53be110c6aa83aa83cd02e351ed172359268272ee1b5d31c0fe48db35c6c79060600160405180910390a150506001609755505050565b6000306001600160a01b037f000000000000000000000000000000000000000000000000000000000000000016146118355760405162461bcd60e51b815260206004820152603860248201527f555550535570677261646561626c653a206d757374206e6f742062652063616c60448201527f6c6564207468726f7567682064656c656761746563616c6c0000000000000000606482015260840161098e565b5060008051602061406483398151915290565b600080610136838154811061185f5761185f613a43565b6000918252602090912060099091020190506002600882015460ff16600381111561188c5761188c61389f565b146118e55760405162461bcd60e51b8152602060048201526024808201527f575141756374696f6e3a2054686973206c6f74206973206e6f742061756374696044820152631bdb995960e21b606482015260840161098e565b670de0b6b3a76400006118f782612e7c565b61012f60009054906101000a90046001600160a01b03166001600160a01b031663313ce5676040518163ffffffff1660e01b815260040160206040518083038186803b15801561194657600080fd5b505afa15801561195a573d6000803e3d6000fd5b505050506040513d601f19601f8201168201806040525081019061197e9190613c00565b611989906012613c23565b61199490600a613d2a565b83600501546119a39190613b61565b6119ad9190613b61565b6119b79190613b80565b9392505050565b6000805160206140ab8339815191526119d78133612aeb565b5061013155565b60026097541415611a015760405162461bcd60e51b815260040161098e90613e2d565b600260978190555060006101368281548110611a1f57611a1f613a43565b6000918252602090912060099091020190506002600882015460ff166003811115611a4c57611a4c61389f565b14611a995760405162461bcd60e51b815260206004820152601f60248201527f575141756374696f6e3a204c6f74206973206e6f742061756374696f6e656400604482015260640161098e565b8060070154421115611aed5760405162461bcd60e51b815260206004820152601f60248201527f575141756374696f6e3a2041756374696f6e2074696d65206973206f76657200604482015260640161098e565b6000611af882612e7c565b90506000670de0b6b3a76400008261012f60009054906101000a90046001600160a01b03166001600160a01b031663313ce5676040518163ffffffff1660e01b815260040160206040518083038186803b158015611b5557600080fd5b505afa158015611b69573d6000803e3d6000fd5b505050506040513d601f19601f82011682018060405250810190611b8d9190613c00565b611b98906012613c23565b611ba390600a613d2a565b8560050154611bb29190613b61565b611bbc9190613b61565b611bc69190613b80565b90506000611bd8858560050154612034565b905060008460010154856003015485611bf19190613b61565b611bfb9190613b80565b905084600501546101346000828254611c149190613d39565b9091555050600585015460028601548290611c3790670de0b6b3a7640000613b61565b611c419190613b80565b611c4b9190613d39565b85600501548660020154611c5f9190613d39565b611c7190670de0b6b3a7640000613b61565b611c7b9190613b80565b60038601556005850154600286018054600090611c99908490613d39565b90915550506001850184905561012e54600586015461012f54604080516395d89b4160e01b815290516001600160a01b0394851694638701c5429433948d948b9492938b939216916395d89b4191600480820192600092909190829003018186803b158015611d0757600080fd5b505afa158015611d1b573d6000803e3d6000fd5b505050506040513d6000823e601f3d908101601f19168201604052611d439190810190613a85565b6040518763ffffffff1660e01b8152600401611d6496959493929190613d50565b600060405180830381600087803b158015611d7e57600080fd5b505af1158015611d92573d6000803e3d6000fd5b5050505060058501546040805133815260208101899052808201929092526060820185905260808201869052517f98d42833b8bbd469503fdacb5bb2ddee0a389699fcb5e6d9b85dae63d42668b99181900360a00190a150506000600584018190556006840181905560078401555050600801805460ff1916600190811790915560975550565b60026097541415611e3c5760405162461bcd60e51b815260040161098e90613e2d565b6002609755600080516020614024833981519152611e5a8133612aeb565b50610135805460ff191690556001609755565b6000805160206140ab833981519152611e868133612aeb565b5061012d80546001600160a01b0319166001600160a01b0392909216919091179055565b61013654606090611ebc908490613d39565b821115611ed55761013654611ed2908490613d39565b91505b8167ffffffffffffffff811115611eee57611eee61379f565b604051908082528060200260200182016040528015611f2757816020015b611f1461360a565b815260200190600190039081611f0c5790505b50905060005b8281101561202d57610136611f428286613e64565b81548110611f5257611f52613a43565b60009182526020918290206040805161012081018252600990930290910180546001600160a01b03168352600181015493830193909352600283015490820152600380830154606083015260048301546080830152600583015460a0830152600683015460c0830152600783015460e0830152600883015491929161010084019160ff90911690811115611fe857611fe861389f565b6003811115611ff957611ff961389f565b8152505082828151811061200f5761200f613a43565b6020026020010181905250808061202590613e7c565b915050611f2d565b5092915050565b6000670de0b6b3a76400006301e13380610136858154811061205857612058613a43565b906000526020600020906009020160040154426120759190613d39565b61012e60009054906101000a90046001600160a01b03166001600160a01b0316631a9703da6040518163ffffffff1660e01b815260040160206040518083038186803b1580156120c457600080fd5b505afa1580156120d8573d6000803e3d6000fd5b505050506040513d601f19601f820116820180604052508101906120fc9190613b32565b6121069190613b61565b6121109190613b80565b61012e60009054906101000a90046001600160a01b03166001600160a01b031663802d14226040518163ffffffff1660e01b815260040160206040518083038186803b15801561215f57600080fd5b505afa158015612173573d6000803e3d6000fd5b505050506040513d601f19601f820116820180604052508101906121979190613b32565b6121a19190613e64565b6119ad9084613b61565b60009182526065602090815260408084206001600160a01b0393909316845291905290205460ff1690565b600061013682815481106121ec576121ec613a43565b6000918252602090912060099091020190506002600882015460ff1660038111156122195761221961389f565b146122665760405162461bcd60e51b815260206004820152601f60248201527f575141756374696f6e3a204c6f74206973206e6f742061756374696f6e656400604482015260640161098e565b806007015442116122c95760405162461bcd60e51b815260206004820152602760248201527f575141756374696f6e3a2041756374696f6e2074696d65206973206e6f74206f6044820152661d995c881e595d60ca1b606482015260840161098e565b806005015461013460008282546122e09190613d39565b90915550600090506122f182612e7c565b905081600101548260030154826123089190613b61565b6123129190613b80565b60038381019190915560018301829055600060058401819055600684018190556007840181905560088401805460ff1916909217909155604080518581526020810183905280820192909252517ff49dbfcc40079f59a911e2541cedaa7a9275ee6fdfb9349032eeb970ce60f57a9181900360600190a1505050565b600061013682815481106123a4576123a4613a43565b600091825260209091206008600990920201015460ff1660038111156108cd576108cd61389f565b6000805160206140ab8339815191526123e58133612aeb565b5061013355565b60008061012f60009054906101000a90046001600160a01b03166001600160a01b03166395d89b416040518163ffffffff1660e01b815260040160006040518083038186803b15801561243e57600080fd5b505afa158015612452573d6000803e3d6000fd5b505050506040513d6000823e601f3d908101601f1916820160405261247a9190810190613a85565b61012d54604051630292e0fd60e01b81529192506000916001600160a01b0390911690630292e0fd906124b1908590600401613b1f565b60206040518083038186803b1580156124c957600080fd5b505afa1580156124dd573d6000803e3d6000fd5b505050506040513d601f19601f820116820180604052508101906125019190613b32565b9050600061012f60009054906101000a90046001600160a01b03166001600160a01b031663313ce5676040518163ffffffff1660e01b815260040160206040518083038186803b15801561255457600080fd5b505afa158015612568573d6000803e3d6000fd5b505050506040513d601f19601f8201168201806040525081019061258c9190613c00565b612597906012613c23565b6125a290600a613d2a565b61012e54604051632ed4877d60e21b815291925060009183916001600160a01b03169063bb521df4906125d9908890600401613b1f565b60206040518083038186803b1580156125f157600080fd5b505afa158015612605573d6000803e3d6000fd5b505050506040513d601f19601f820116820180604052508101906126299190613b32565b6126339190613b61565b61012e54604051638c1e06f160e01b81529192506000916001600160a01b0390911690638c1e06f19061266a908890600401613b1f565b60206040518083038186803b15801561268257600080fd5b505afa158015612696573d6000803e3d6000fd5b505050506040513d601f19601f820116820180604052508101906126ba9190613b32565b905080610130546126cb9190613b61565b6126d58584613b61565b1080156126fb57506126ef81670de0b6b3a7640000613b61565b6126f98584613b61565b115b1561273a5782828583610130546127129190613b61565b61271c9190613b80565b6127269190613d39565b6127309190613b80565b9550505050505090565b60009550505050505090565b61012e546000906001600160a01b031633146127745760405162461bcd60e51b815260040161098e90613e97565b82610136858154811061278957612789613a43565b9060005260206000209060090201600101819055508161013685815481106127b3576127b3613a43565b6000918252602090912060099091020160020155509192915050565b6000805160206140ab8339815191526127e88133612aeb565b5061012e80546001600160a01b0319166001600160a01b0392909216919091179055565b6000805160206140ab8339815191526128258133612aeb565b5061013055565b61012e546000906001600160a01b0316331461285a5760405162461bcd60e51b815260040161098e90613e97565b610136604051806101200160405280876001600160a01b03168152602001868152602001858152602001848152602001428152602001600081526020016000815260200160008152602001600160038111156128b8576128b861389f565b90528154600180820184556000938452602093849020835160099093020180546001600160a01b0319166001600160a01b0390931692909217825592820151818401556040820151600282015560608201516003808301919091556080830151600483015560a0830151600583015560c0830151600683015560e08301516007830155610100830151600883018054949593949193909260ff199092169184908111156129675761296761389f565b0217905550506101365461297e9150600190613d39565b95945050505050565b61012e546000906001600160a01b031633146129b55760405162461bcd60e51b815260040161098e90613e97565b8161013684815481106129ca576129ca613a43565b906000526020600020906009020160020160008282546129ea9190613d39565b9250508190555060006101368481548110612a0757612a07613a43565b906000526020600020906009020160020154905080600014156119b7576119b784612f0a565b600082815260656020526040902060010154612a498133612aeb565b610fce8383612c82565b6000805160206140ab833981519152612a6c8133612aeb565b5061013255565b6101368181548110612a8457600080fd5b60009182526020909120600990910201805460018201546002830154600384015460048501546005860154600687015460078801546008909801546001600160a01b0390971698509496939592949193909260ff1689565b6001600160a01b03163b151590565b612af582826121ab565b61104d57612b0d816001600160a01b0316601461321a565b612b1883602061321a565b604051602001612b29929190613ece565b60408051601f198184030181529082905262461bcd60e51b825261098e91600401613b1f565b600054610100900460ff16612b765760405162461bcd60e51b815260040161098e90613f43565b565b600054610100900460ff16612b9f5760405162461bcd60e51b815260040161098e90613f43565b612b766133b6565b61104d8282612bfc565b600082815260656020526040808220600101805490849055905190918391839186917fbd79b86ffe0ab8e8776151514217cd7cacd52c909f66475c3af44e129f0b00ff9190a4505050565b612c0682826121ab565b61104d5760008281526065602090815260408083206001600160a01b03851684529091529020805460ff19166001179055612c3e3390565b6001600160a01b0316816001600160a01b0316837f2f8788117e7eff1d82e926ec794901d17c78024a50270940304540a733656f0d60405160405180910390a45050565b612c8c82826121ab565b1561104d5760008281526065602090815260408083206001600160a01b0385168085529252808320805460ff1916905551339285917ff6391f5c32d9c69d2a47ea670b442974b53935d1edc7fd64eb21e047a839171b9190a45050565b60008051602061404483398151915261104d8133612aeb565b7f4910fdfa16fed3260ed0e7147f7cc6da11a60208b5b9406d12a635614ffd91435460ff1615612d3557610fce836133e4565b826001600160a01b03166352d1902d6040518163ffffffff1660e01b815260040160206040518083038186803b158015612d6e57600080fd5b505afa925050508015612d9e575060408051601f3d908101601f19168201909252612d9b91810190613b32565b60015b612e015760405162461bcd60e51b815260206004820152602e60248201527f45524331393637557067726164653a206e657720696d706c656d656e7461746960448201526d6f6e206973206e6f74205555505360901b606482015260840161098e565b6000805160206140648339815191528114612e705760405162461bcd60e51b815260206004820152602960248201527f45524331393637557067726164653a20756e737570706f727465642070726f786044820152681a58589b195555525160ba1b606482015260840161098e565b50610fce838383613480565b6000670de0b6b3a76400006101335483600601546101325461013154612ea29190613d39565b428660070154612eb29190613d39565b612ebc9190613b61565b612ec69190613b61565b612ed09190613b80565b612eda9190613b80565b670de0b6b3a7640000610132548460060154612ef69190613b61565b612f009190613b80565b6108cd9190613e64565b61013654600090612f1d90600190613d39565b90508181146130c45761012e5461013680546001600160a01b03909216916359880b95919084908110612f5257612f52613a43565b600091825260209091206009909102015461013680546001600160a01b039092169185908110612f8457612f84613a43565b9060005260206000209060090201600201546101368581548110612faa57612faa613a43565b9060005260206000209060090201600101546101368681548110612fd057612fd0613a43565b906000526020600020906009020160030154868861012f60009054906101000a90046001600160a01b03166001600160a01b03166395d89b416040518163ffffffff1660e01b815260040160006040518083038186803b15801561303357600080fd5b505afa158015613047573d6000803e3d6000fd5b505050506040513d6000823e601f3d908101601f1916820160405261306f9190810190613a85565b6040518863ffffffff1660e01b81526004016130919796959493929190613f8e565b600060405180830381600087803b1580156130ab57600080fd5b505af11580156130bf573d6000803e3d6000fd5b505050505b61013681815481106130d8576130d8613a43565b906000526020600020906009020161013683815481106130fa576130fa613a43565b60009182526020909120825460099092020180546001600160a01b0319166001600160a01b0390921691909117815560018083015481830155600280840154908301556003808401548184015560048085015490840155600580850154908401556006808501549084015560078085015490840155600880850154908401805460ff90921693909260ff1990921691849081111561319a5761319a61389f565b02179055509050506101368054806131b4576131b4613fda565b60008281526020812060096000199093019283020180546001600160a01b03191681556001810182905560028101829055600381018290556004810182905560058101829055600681018290556007810191909155600801805460ff1916905590555050565b60606000613229836002613b61565b613234906002613e64565b67ffffffffffffffff81111561324c5761324c61379f565b6040519080825280601f01601f191660200182016040528015613276576020820181803683370190505b509050600360fc1b8160008151811061329157613291613a43565b60200101906001600160f81b031916908160001a905350600f60fb1b816001815181106132c0576132c0613a43565b60200101906001600160f81b031916908160001a90535060006132e4846002613b61565b6132ef906001613e64565b90505b6001811115613367576f181899199a1a9b1b9c1cb0b131b232b360811b85600f166010811061332357613323613a43565b1a60f81b82828151811061333957613339613a43565b60200101906001600160f81b031916908160001a90535060049490941c9361336081613ff0565b90506132f2565b5083156119b75760405162461bcd60e51b815260206004820181905260248201527f537472696e67733a20686578206c656e67746820696e73756666696369656e74604482015260640161098e565b600054610100900460ff166133dd5760405162461bcd60e51b815260040161098e90613f43565b6001609755565b6001600160a01b0381163b6134515760405162461bcd60e51b815260206004820152602d60248201527f455243313936373a206e657720696d706c656d656e746174696f6e206973206e60448201526c1bdd08184818dbdb9d1c9858dd609a1b606482015260840161098e565b60008051602061406483398151915280546001600160a01b0319166001600160a01b0392909216919091179055565b613489836134ab565b6000825111806134965750805b15610fce576134a583836134eb565b50505050565b6134b4816133e4565b6040516001600160a01b038216907fbc7cd75a20ee27fd9adebab32041f755214dbc6bffa90cc0225b39da2e5c2d3b90600090a250565b60606001600160a01b0383163b6135535760405162461bcd60e51b815260206004820152602660248201527f416464726573733a2064656c65676174652063616c6c20746f206e6f6e2d636f6044820152651b9d1c9858dd60d21b606482015260840161098e565b600080846001600160a01b03168460405161356e9190614007565b600060405180830381855af49150503d80600081146135a9576040519150601f19603f3d011682016040523d82523d6000602084013e6135ae565b606091505b509150915061297e828260405180606001604052806027815260200161408460279139606083156135e05750816119b7565b8251156135f05782518084602001fd5b8160405162461bcd60e51b815260040161098e9190613b1f565b60405180610120016040528060006001600160a01b03168152602001600081526020016000815260200160008152602001600081526020016000815260200160008152602001600081526020016000600381111561366a5761366a61389f565b905290565b60006020828403121561368157600080fd5b81356001600160e01b0319811681146119b757600080fd5b80356001600160a01b03811681146136b057600080fd5b919050565b6000602082840312156136c757600080fd5b6119b782613699565b6000602082840312156136e257600080fd5b5035919050565b600080600080600080600060e0888a03121561370457600080fd5b61370d88613699565b965061371b60208901613699565b955061372960408901613699565b969995985095966060810135965060808101359560a0820135955060c0909101359350915050565b6000806040838503121561376457600080fd5b50508035926020909101359150565b6000806040838503121561378657600080fd5b8235915061379660208401613699565b90509250929050565b634e487b7160e01b600052604160045260246000fd5b604051601f8201601f1916810167ffffffffffffffff811182821017156137de576137de61379f565b604052919050565b600067ffffffffffffffff8211156138005761380061379f565b50601f01601f191660200190565b6000806040838503121561382157600080fd5b61382a83613699565b9150602083013567ffffffffffffffff81111561384657600080fd5b8301601f8101851361385757600080fd5b803561386a613865826137e6565b6137b5565b81815286602083850101111561387f57600080fd5b816020840160208301376000602083830101528093505050509250929050565b634e487b7160e01b600052602160045260246000fd5b600481106138d357634e487b7160e01b600052602160045260246000fd5b9052565b602080825282518282018190526000919060409081850190868401855b8281101561397757815180516001600160a01b0316855286810151878601528581015186860152606080820151908601526080808201519086015260a0808201519086015260c0808201519086015260e080820151908601526101009081015190613961818701836138b5565b50506101209390930192908501906001016138f4565b5091979650505050505050565b60008060006060848603121561399957600080fd5b505081359360208301359350604090920135919050565b600080600080608085870312156139c657600080fd5b6139cf85613699565b966020860135965060408601359560600135945092505050565b60006101208201905060018060a01b038b1682528960208301528860408301528760608301528660808301528560a08301528460c08301528360e0830152613a356101008301846138b5565b9a9950505050505050505050565b634e487b7160e01b600052603260045260246000fd5b60005b83811015613a74578181015183820152602001613a5c565b838111156134a55750506000910152565b600060208284031215613a9757600080fd5b815167ffffffffffffffff811115613aae57600080fd5b8201601f81018413613abf57600080fd5b8051613acd613865826137e6565b818152856020838501011115613ae257600080fd5b61297e826020830160208601613a59565b60008151808452613b0b816020860160208601613a59565b601f01601f19169290920160200192915050565b6020815260006119b76020830184613af3565b600060208284031215613b4457600080fd5b5051919050565b634e487b7160e01b600052601160045260246000fd5b6000816000190483118215151615613b7b57613b7b613b4b565b500290565b600082613b9d57634e487b7160e01b600052601260045260246000fd5b500490565b602080825260409082018190527f575141756374696f6e3a20416d6f756e74206f6620746f6b656e732070757263908201527f68617365642069732067726561746572207468616e206c6f7420616d6f756e74606082015260800190565b600060208284031215613c1257600080fd5b815160ff811681146119b757600080fd5b600060ff821660ff841680821015613c3d57613c3d613b4b565b90039392505050565b600181815b80851115613c81578160001904821115613c6757613c67613b4b565b80851615613c7457918102915b93841c9390800290613c4b565b509250929050565b600082613c98575060016108cd565b81613ca5575060006108cd565b8160018114613cbb5760028114613cc557613ce1565b60019150506108cd565b60ff841115613cd657613cd6613b4b565b50506001821b6108cd565b5060208310610133831016604e8410600b8410161715613d04575081810a6108cd565b613d0e8383613c46565b8060001904821115613d2257613d22613b4b565b029392505050565b60006119b760ff841683613c89565b600082821015613d4b57613d4b613b4b565b500390565b60018060a01b038716815285602082015284604082015283606082015282608082015260c060a08201526000613d8960c0830184613af3565b98975050505050505050565b6020808252602c908201527f46756e6374696f6e206d7573742062652063616c6c6564207468726f7567682060408201526b19195b1959d85d1958d85b1b60a21b606082015260800190565b6020808252602c908201527f46756e6374696f6e206d7573742062652063616c6c6564207468726f7567682060408201526b6163746976652070726f787960a01b606082015260800190565b6020808252601f908201527f5265656e7472616e637947756172643a207265656e7472616e742063616c6c00604082015260600190565b60008219821115613e7757613e77613b4b565b500190565b6000600019821415613e9057613e90613b4b565b5060010190565b6020808252601f908201527f575141756374696f6e3a2053656e646572206973206e6f7420726f7574657200604082015260600190565b7f416363657373436f6e74726f6c3a206163636f756e7420000000000000000000815260008351613f06816017850160208801613a59565b7001034b99036b4b9b9b4b733903937b6329607d1b6017918401918201528351613f37816028840160208801613a59565b01602801949350505050565b6020808252602b908201527f496e697469616c697a61626c653a20636f6e7472616374206973206e6f74206960408201526a6e697469616c697a696e6760a81b606082015260800190565b60018060a01b03881681528660208201528560408201528460608201528360808201528260a082015260e060c08201526000613fcd60e0830184613af3565b9998505050505050505050565b634e487b7160e01b600052603160045260246000fd5b600081613fff57613fff613b4b565b506000190190565b60008251614019818460208701613a59565b919091019291505056fed8a7a79547af723ee3e12b59a480111268d8969c634e1a34a144d2c8b91d635b189ab7a9244df0848122154315af71fe140f3db0fe014031783b0946b8c9d2e3360894a13ba1a3210667c828492db98dca3e2076cc3735a920a3ca505d382bbc416464726573733a206c6f772d6c6576656c2064656c65676174652063616c6c206661696c6564a49807205ce4d355092ef5a8a18f56e8913cf4a201fbe287825b095693c21775a2646970667358221220333ae01ad5f5f56dff58e5ec451d9249273a751bddaf1cef988e5657f4f870b764736f6c63430008090033",
  "linkReferences": {},
  "deployedLinkReferences": {}
}