{
  "_format": "hh-sol-artifact-1",
  "contractName": "WQBridgeStable",
  "sourceName": "contracts/WQBridgeStable.sol",
  "abi": [
    {
      "inputs": [],
      "stateMutability": "nonpayable",
      "type": "constructor"
    },
    {
      "anonymous": false,
      "inputs": [
        {
          "indexed": false,
          "internalType": "address",
          "name": "previousAdmin",
          "type": "address"
        },
        {
          "indexed": false,
          "internalType": "address",
          "name": "newAdmin",
          "type": "address"
        }
      ],
      "name": "AdminChanged",
      "type": "event"
    },
    {
      "anonymous": false,
      "inputs": [
        {
          "indexed": true,
          "internalType": "address",
          "name": "beacon",
          "type": "address"
        }
      ],
      "name": "BeaconUpgraded",
      "type": "event"
    },
    {
      "anonymous": false,
      "inputs": [
        {
          "indexed": false,
          "internalType": "address",
          "name": "account",
          "type": "address"
        }
      ],
      "name": "Paused",
      "type": "event"
    },
    {
      "anonymous": false,
      "inputs": [
        {
          "indexed": true,
          "internalType": "bytes32",
          "name": "role",
          "type": "bytes32"
        },
        {
          "indexed": true,
          "internalType": "bytes32",
          "name": "previousAdminRole",
          "type": "bytes32"
        },
        {
          "indexed": true,
          "internalType": "bytes32",
          "name": "newAdminRole",
          "type": "bytes32"
        }
      ],
      "name": "RoleAdminChanged",
      "type": "event"
    },
    {
      "anonymous": false,
      "inputs": [
        {
          "indexed": true,
          "internalType": "bytes32",
          "name": "role",
          "type": "bytes32"
        },
        {
          "indexed": true,
          "internalType": "address",
          "name": "account",
          "type": "address"
        },
        {
          "indexed": true,
          "internalType": "address",
          "name": "sender",
          "type": "address"
        }
      ],
      "name": "RoleGranted",
      "type": "event"
    },
    {
      "anonymous": false,
      "inputs": [
        {
          "indexed": true,
          "internalType": "bytes32",
          "name": "role",
          "type": "bytes32"
        },
        {
          "indexed": true,
          "internalType": "address",
          "name": "account",
          "type": "address"
        },
        {
          "indexed": true,
          "internalType": "address",
          "name": "sender",
          "type": "address"
        }
      ],
      "name": "RoleRevoked",
      "type": "event"
    },
    {
      "anonymous": false,
      "inputs": [
        {
          "indexed": false,
          "internalType": "uint256",
          "name": "timestamp",
          "type": "uint256"
        },
        {
          "indexed": false,
          "internalType": "address",
          "name": "recipient",
          "type": "address"
        },
        {
          "indexed": false,
          "internalType": "uint256",
          "name": "amount",
          "type": "uint256"
        },
        {
          "indexed": false,
          "internalType": "uint256",
          "name": "chainFrom",
          "type": "uint256"
        },
        {
          "indexed": false,
          "internalType": "uint256",
          "name": "chainTo",
          "type": "uint256"
        },
        {
          "indexed": false,
          "internalType": "uint256",
          "name": "nonce",
          "type": "uint256"
        },
        {
          "indexed": false,
          "internalType": "string",
          "name": "userId",
          "type": "string"
        },
        {
          "indexed": false,
          "internalType": "string",
          "name": "symbol",
          "type": "string"
        }
      ],
      "name": "SwapInitialized",
      "type": "event"
    },
    {
      "anonymous": false,
      "inputs": [
        {
          "indexed": false,
          "internalType": "address",
          "name": "token",
          "type": "address"
        },
        {
          "indexed": false,
          "internalType": "address",
          "name": "recipient",
          "type": "address"
        },
        {
          "indexed": false,
          "internalType": "uint256",
          "name": "amount",
          "type": "uint256"
        }
      ],
      "name": "Transferred",
      "type": "event"
    },
    {
      "anonymous": false,
      "inputs": [
        {
          "indexed": false,
          "internalType": "address",
          "name": "account",
          "type": "address"
        }
      ],
      "name": "Unpaused",
      "type": "event"
    },
    {
      "anonymous": false,
      "inputs": [
        {
          "indexed": true,
          "internalType": "address",
          "name": "implementation",
          "type": "address"
        }
      ],
      "name": "Upgraded",
      "type": "event"
    },
    {
      "inputs": [],
      "name": "ADMIN_ROLE",
      "outputs": [
        {
          "internalType": "bytes32",
          "name": "",
          "type": "bytes32"
        }
      ],
      "stateMutability": "view",
      "type": "function"
    },
    {
      "inputs": [],
      "name": "DEFAULT_ADMIN_ROLE",
      "outputs": [
        {
          "internalType": "bytes32",
          "name": "",
          "type": "bytes32"
        }
      ],
      "stateMutability": "view",
      "type": "function"
    },
    {
      "inputs": [],
      "name": "UPGRADER_ROLE",
      "outputs": [
        {
          "internalType": "bytes32",
          "name": "",
          "type": "bytes32"
        }
      ],
      "stateMutability": "view",
      "type": "function"
    },
    {
      "inputs": [],
      "name": "chainId",
      "outputs": [
        {
          "internalType": "uint256",
          "name": "",
          "type": "uint256"
        }
      ],
      "stateMutability": "view",
      "type": "function"
    },
    {
      "inputs": [
        {
          "internalType": "uint256",
          "name": "",
          "type": "uint256"
        }
      ],
      "name": "chains",
      "outputs": [
        {
          "internalType": "bool",
          "name": "",
          "type": "bool"
        }
      ],
      "stateMutability": "view",
      "type": "function"
    },
    {
      "inputs": [
        {
          "internalType": "bytes32",
          "name": "role",
          "type": "bytes32"
        }
      ],
      "name": "getRoleAdmin",
      "outputs": [
        {
          "internalType": "bytes32",
          "name": "",
          "type": "bytes32"
        }
      ],
      "stateMutability": "view",
      "type": "function"
    },
    {
      "inputs": [
        {
          "internalType": "bytes32",
          "name": "role",
          "type": "bytes32"
        },
        {
          "internalType": "address",
          "name": "account",
          "type": "address"
        }
      ],
      "name": "grantRole",
      "outputs": [],
      "stateMutability": "nonpayable",
      "type": "function"
    },
    {
      "inputs": [
        {
          "internalType": "bytes32",
          "name": "role",
          "type": "bytes32"
        },
        {
          "internalType": "address",
          "name": "account",
          "type": "address"
        }
      ],
      "name": "hasRole",
      "outputs": [
        {
          "internalType": "bool",
          "name": "",
          "type": "bool"
        }
      ],
      "stateMutability": "view",
      "type": "function"
    },
    {
      "inputs": [
        {
          "internalType": "uint256",
          "name": "_chainId",
          "type": "uint256"
        },
        {
          "internalType": "address payable",
          "name": "_pool",
          "type": "address"
        }
      ],
      "name": "initialize",
      "outputs": [],
      "stateMutability": "nonpayable",
      "type": "function"
    },
    {
      "inputs": [],
      "name": "pause",
      "outputs": [],
      "stateMutability": "nonpayable",
      "type": "function"
    },
    {
      "inputs": [],
      "name": "paused",
      "outputs": [
        {
          "internalType": "bool",
          "name": "",
          "type": "bool"
        }
      ],
      "stateMutability": "view",
      "type": "function"
    },
    {
      "inputs": [],
      "name": "pool",
      "outputs": [
        {
          "internalType": "address payable",
          "name": "",
          "type": "address"
        }
      ],
      "stateMutability": "view",
      "type": "function"
    },
    {
      "inputs": [],
      "name": "proxiableUUID",
      "outputs": [
        {
          "internalType": "bytes32",
          "name": "",
          "type": "bytes32"
        }
      ],
      "stateMutability": "view",
      "type": "function"
    },
    {
      "inputs": [
        {
          "internalType": "address payable",
          "name": "recipient",
          "type": "address"
        },
        {
          "internalType": "uint256",
          "name": "amount",
          "type": "uint256"
        },
        {
          "internalType": "address",
          "name": "token",
          "type": "address"
        }
      ],
      "name": "removeLiquidity",
      "outputs": [],
      "stateMutability": "nonpayable",
      "type": "function"
    },
    {
      "inputs": [
        {
          "internalType": "bytes32",
          "name": "role",
          "type": "bytes32"
        },
        {
          "internalType": "address",
          "name": "account",
          "type": "address"
        }
      ],
      "name": "renounceRole",
      "outputs": [],
      "stateMutability": "nonpayable",
      "type": "function"
    },
    {
      "inputs": [
        {
          "internalType": "bytes32",
          "name": "role",
          "type": "bytes32"
        },
        {
          "internalType": "address",
          "name": "account",
          "type": "address"
        }
      ],
      "name": "revokeRole",
      "outputs": [],
      "stateMutability": "nonpayable",
      "type": "function"
    },
    {
      "inputs": [
        {
          "internalType": "bytes4",
          "name": "interfaceId",
          "type": "bytes4"
        }
      ],
      "name": "supportsInterface",
      "outputs": [
        {
          "internalType": "bool",
          "name": "",
          "type": "bool"
        }
      ],
      "stateMutability": "view",
      "type": "function"
    },
    {
      "inputs": [
        {
          "internalType": "uint256",
          "name": "nonce",
          "type": "uint256"
        },
        {
          "internalType": "uint256",
          "name": "chainTo",
          "type": "uint256"
        },
        {
          "internalType": "uint256",
          "name": "amount",
          "type": "uint256"
        },
        {
          "internalType": "address",
          "name": "recipient",
          "type": "address"
        },
        {
          "internalType": "string",
          "name": "userId",
          "type": "string"
        },
        {
          "internalType": "string",
          "name": "symbol",
          "type": "string"
        }
      ],
      "name": "swap",
      "outputs": [],
      "stateMutability": "payable",
      "type": "function"
    },
    {
      "inputs": [
        {
          "internalType": "bytes32",
          "name": "",
          "type": "bytes32"
        }
      ],
      "name": "swaps",
      "outputs": [
        {
          "internalType": "bool",
          "name": "",
          "type": "bool"
        }
      ],
      "stateMutability": "view",
      "type": "function"
    },
    {
      "inputs": [
        {
          "internalType": "string",
          "name": "",
          "type": "string"
        }
      ],
      "name": "tokens",
      "outputs": [
        {
          "internalType": "uint256",
          "name": "minAmount",
          "type": "uint256"
        },
        {
          "internalType": "uint256",
          "name": "maxAmount",
          "type": "uint256"
        },
        {
          "internalType": "uint256",
          "name": "factor",
          "type": "uint256"
        },
        {
          "internalType": "address",
          "name": "token",
          "type": "address"
        },
        {
          "internalType": "bool",
          "name": "enabled",
          "type": "bool"
        }
      ],
      "stateMutability": "view",
      "type": "function"
    },
    {
      "inputs": [],
      "name": "unpause",
      "outputs": [],
      "stateMutability": "nonpayable",
      "type": "function"
    },
    {
      "inputs": [
        {
          "internalType": "uint256",
          "name": "_chainId",
          "type": "uint256"
        },
        {
          "internalType": "bool",
          "name": "enabled",
          "type": "bool"
        }
      ],
      "name": "updateChain",
      "outputs": [],
      "stateMutability": "nonpayable",
      "type": "function"
    },
    {
      "inputs": [
        {
          "internalType": "address payable",
          "name": "_pool",
          "type": "address"
        }
      ],
      "name": "updatePool",
      "outputs": [],
      "stateMutability": "nonpayable",
      "type": "function"
    },
    {
      "inputs": [
        {
          "internalType": "address",
          "name": "token",
          "type": "address"
        },
        {
          "internalType": "bool",
          "name": "enabled",
          "type": "bool"
        },
        {
          "internalType": "uint256",
          "name": "factor",
          "type": "uint256"
        },
        {
          "internalType": "uint256",
          "name": "minAmount",
          "type": "uint256"
        },
        {
          "internalType": "uint256",
          "name": "maxAmount",
          "type": "uint256"
        },
        {
          "internalType": "string",
          "name": "symbol",
          "type": "string"
        }
      ],
      "name": "updateToken",
      "outputs": [],
      "stateMutability": "nonpayable",
      "type": "function"
    },
    {
      "inputs": [
        {
          "internalType": "address",
          "name": "newImplementation",
          "type": "address"
        }
      ],
      "name": "upgradeTo",
      "outputs": [],
      "stateMutability": "nonpayable",
      "type": "function"
    },
    {
      "inputs": [
        {
          "internalType": "address",
          "name": "newImplementation",
          "type": "address"
        },
        {
          "internalType": "bytes",
          "name": "data",
          "type": "bytes"
        }
      ],
      "name": "upgradeToAndCall",
      "outputs": [],
      "stateMutability": "payable",
      "type": "function"
    }
  ],
  "bytecode": "0x60a0604052306080523480156200001557600080fd5b50600054610100900460ff16620000335760005460ff16156200003d565b6200003d620000e2565b620000a55760405162461bcd60e51b815260206004820152602e60248201527f496e697469616c697a61626c653a20636f6e747261637420697320616c72656160448201526d191e481a5b9a5d1a585b1a5e995960921b606482015260840160405180910390fd5b600054610100900460ff16158015620000c8576000805461ffff19166101011790555b8015620000db576000805461ff00191690555b506200010f565b6000620000fa306200010060201b620011271760201c565b15905090565b6001600160a01b03163b151590565b6080516125d362000147600039600081816106490152818161068901528181610be601528181610c260152610cb501526125d36000f3fe6080604052600436106101815760003560e01c80635c975abb116100d1578063a217fddf1161008a578063da35a26f11610064578063da35a26f146104c6578063dbe77e54146104e6578063eb84e7f214610506578063f72c0d8b1461053757600080fd5b8063a217fddf14610471578063ada9f0c214610486578063d547741f146104a657600080fd5b80635c975abb146103cb57806375b238fc146103e35780637b46c54f146104055780638456cb591461042557806391d148541461043a5780639a8a05921461045a57600080fd5b80633659cfe61161013e57806348fdceb61161011857806348fdceb61461035f5780634f1ef2861461037257806352d1902d14610385578063550325b51461039a57600080fd5b80633659cfe61461030a5780633f4ba83a1461032a57806347fdbc8e1461033f57600080fd5b806301ffc9a71461018657806304c2320b146101bb57806316f0115b14610251578063248a9ca31461028a5780632f2ff15d146102c857806336568abe146102ea575b600080fd5b34801561019257600080fd5b506101a66101a1366004611dad565b610559565b60405190151581526020015b60405180910390f35b3480156101c757600080fd5b5061021e6101d6366004611e83565b8051602081830181018051610130825292820191909301209152805460018201546002830154600390930154919290916001600160a01b03811690600160a01b900460ff1685565b604080519586526020860194909452928401919091526001600160a01b031660608301521515608082015260a0016101b2565b34801561025d57600080fd5b5061012e54610272906001600160a01b031681565b6040516001600160a01b0390911681526020016101b2565b34801561029657600080fd5b506102ba6102a5366004611eb8565b60009081526065602052604090206001015490565b6040519081526020016101b2565b3480156102d457600080fd5b506102e86102e3366004611ee6565b610590565b005b3480156102f657600080fd5b506102e8610305366004611ee6565b6105bb565b34801561031657600080fd5b506102e8610325366004611f16565b61063e565b34801561033657600080fd5b506102e861071e565b34801561034b57600080fd5b506102e861035a366004611f33565b61073f565b6102e861036d366004611fbe565b610846565b6102e861038036600461205d565b610bdb565b34801561039157600080fd5b506102ba610ca8565b3480156103a657600080fd5b506101a66103b5366004611eb8565b61012f6020526000908152604090205460ff1681565b3480156103d757600080fd5b5060975460ff166101a6565b3480156103ef57600080fd5b506102ba60008051602061257e83398151915281565b34801561041157600080fd5b506102e8610420366004611f16565b610d5b565b34801561043157600080fd5b506102e8610dee565b34801561044657600080fd5b506101a6610455366004611ee6565b610e0f565b34801561046657600080fd5b506102ba61012d5481565b34801561047d57600080fd5b506102ba600081565b34801561049257600080fd5b506102e86104a13660046120cf565b610e3a565b3480156104b257600080fd5b506102e86104c1366004611ee6565b610f71565b3480156104d257600080fd5b506102e86104e1366004611ee6565b610f97565b3480156104f257600080fd5b506102e861050136600461214d565b6110ec565b34801561051257600080fd5b506101a6610521366004611eb8565b6101316020526000908152604090205460ff1681565b34801561054357600080fd5b506102ba60008051602061251783398151915281565b60006001600160e01b03198216637965db0b60e01b148061058a57506301ffc9a760e01b6001600160e01b03198316145b92915050565b6000828152606560205260409020600101546105ac8133611136565b6105b6838361119a565b505050565b6001600160a01b03811633146106305760405162461bcd60e51b815260206004820152602f60248201527f416363657373436f6e74726f6c3a2063616e206f6e6c792072656e6f756e636560448201526e103937b632b9903337b91039b2b63360891b60648201526084015b60405180910390fd5b61063a8282611220565b5050565b306001600160a01b037f00000000000000000000000000000000000000000000000000000000000000001614156106875760405162461bcd60e51b815260040161062790612172565b7f00000000000000000000000000000000000000000000000000000000000000006001600160a01b03166106d0600080516020612537833981519152546001600160a01b031690565b6001600160a01b0316146106f65760405162461bcd60e51b8152600401610627906121be565b6106ff81611287565b6040805160008082526020820190925261071b918391906112a0565b50565b60008051602061257e8339815191526107378133611136565b61071b61141a565b60008051602061257e8339815191526107588133611136565b6001600160a01b0384166107ba5760405162461bcd60e51b815260206004820152602360248201527f57514272696467653a20696e76616c696420726563697069656e74206164647260448201526265737360e81b6064820152608401610627565b6001600160a01b038216156107e2576107dd6001600160a01b03831685856114ad565b6107f5565b6107f56001600160a01b03851684611510565b604080516001600160a01b038085168252861660208201529081018490527fd1ba4ac2e2a11b5101f6cb4d978f514a155b421e8ec396d2d9abaf0bb02917ee9060600160405180910390a150505050565b60975460ff161561088c5760405162461bcd60e51b815260206004820152601060248201526f14185d5cd8589b194e881c185d5cd95960821b6044820152606401610627565b61012d548714156108eb5760405162461bcd60e51b8152602060048201526024808201527f576f726b5175657374204272696467653a20496e76616c696420636861696e546044820152631bc81a5960e21b6064820152608401610627565b600087815261012f602052604090205460ff1661095e5760405162461bcd60e51b815260206004820152602b60248201527f576f726b5175657374204272696467653a20436861696e546f2049442069732060448201526a1b9bdd08185b1b1bddd95960aa1b6064820152608401610627565b6000610130838360405161097392919061220a565b908152604051908190036020019020600381015490915060ff600160a01b90910416610a075760405162461bcd60e51b815260206004820152603760248201527f576f726b5175657374204272696467653a205468697320746f6b656e206e6f7460448201527f2072656769737465726564206f722064697361626c65640000000000000000006064820152608401610627565b80548710801590610a1c575080600101548711155b610a685760405162461bcd60e51b815260206004820181905260248201527f576f726b5175657374204272696467653a20496e76616c696420616d6f756e746044820152606401610627565b600089888861012d548c8a8a8a8a604051602001610a8e9998979695949392919061221a565b60408051601f198184030181529181528151602092830120600081815261013190935291205490915060ff1615610b385760405162461bcd60e51b815260206004820152604260248201527f576f726b5175657374204272696467653a2053776170206973206e6f7420656d60448201527f707479207374617465206f72206475706c6963617465207472616e736163746960648201526137b760f11b608482015260a401610627565b600081815261013160205260409020805460ff1916600117905561012e546003830154610b74916001600160a01b03918216913391168b611629565b7f29ab7267823901259c18ef8ff2b6ce9a175b3a1c6cfeba495e0aea26eb235fe2428884600201548b610ba7919061228f565b61012d548d8f8c8c8c8c604051610bc79a999897969594939291906122da565b60405180910390a150505050505050505050565b306001600160a01b037f0000000000000000000000000000000000000000000000000000000000000000161415610c245760405162461bcd60e51b815260040161062790612172565b7f00000000000000000000000000000000000000000000000000000000000000006001600160a01b0316610c6d600080516020612537833981519152546001600160a01b031690565b6001600160a01b031614610c935760405162461bcd60e51b8152600401610627906121be565b610c9c82611287565b61063a828260016112a0565b6000306001600160a01b037f00000000000000000000000000000000000000000000000000000000000000001614610d485760405162461bcd60e51b815260206004820152603860248201527f555550535570677261646561626c653a206d757374206e6f742062652063616c60448201527f6c6564207468726f7567682064656c656761746563616c6c00000000000000006064820152608401610627565b5060008051602061253783398151915290565b60008051602061257e833981519152610d748133611136565b6001600160a01b038216610dca5760405162461bcd60e51b815260206004820152601e60248201527f57514272696467653a20696e76616c696420706f6f6c206164647265737300006044820152606401610627565b5061012e80546001600160a01b0319166001600160a01b0392909216919091179055565b60008051602061257e833981519152610e078133611136565b61071b611667565b60009182526065602090815260408084206001600160a01b0393909316845291905290205460ff1690565b60008051602061257e833981519152610e538133611136565b6000825111610ec35760405162461bcd60e51b815260206004820152603660248201527f576f726b5175657374204272696467653a2053796d626f6c206c656e6774682060448201527506d7573742062652067726561746572207468616e20360541b6064820152608401610627565b6040518060a00160405280858152602001848152602001868152602001886001600160a01b0316815260200187151581525061013083604051610f06919061236d565b90815260408051602092819003830190208351815591830151600183015582015160028201556060820151600390910180546080909301516001600160a01b039092166001600160a81b031990931692909217600160a01b9115159190910217905550505050505050565b600082815260656020526040902060010154610f8d8133611136565b6105b68383611220565b600054610100900460ff16610fb25760005460ff1615610fb6565b303b155b6110195760405162461bcd60e51b815260206004820152602e60248201527f496e697469616c697a61626c653a20636f6e747261637420697320616c72656160448201526d191e481a5b9a5d1a585b1a5e995960921b6064820152608401610627565b600054610100900460ff1615801561103b576000805461ffff19166101011790555b6110436116e2565b61104b61170b565b6110536116e2565b61105e60003361173a565b61107660008051602061257e8339815191523361173a565b61108e6000805160206125178339815191523361173a565b6110b460008051602061251783398151915260008051602061257e833981519152611744565b61012d83905561012e80546001600160a01b0319166001600160a01b03841617905580156105b6576000805461ff0019169055505050565b60008051602061257e8339815191526111058133611136565b50600091825261012f6020526040909120805460ff1916911515919091179055565b6001600160a01b03163b151590565b6111408282610e0f565b61063a57611158816001600160a01b0316601461178f565b61116383602061178f565b604051602001611174929190612389565b60408051601f198184030181529082905262461bcd60e51b8252610627916004016123fe565b6111a48282610e0f565b61063a5760008281526065602090815260408083206001600160a01b03851684529091529020805460ff191660011790556111dc3390565b6001600160a01b0316816001600160a01b0316837f2f8788117e7eff1d82e926ec794901d17c78024a50270940304540a733656f0d60405160405180910390a45050565b61122a8282610e0f565b1561063a5760008281526065602090815260408083206001600160a01b0385168085529252808320805460ff1916905551339285917ff6391f5c32d9c69d2a47ea670b442974b53935d1edc7fd64eb21e047a839171b9190a45050565b60008051602061251783398151915261063a8133611136565b7f4910fdfa16fed3260ed0e7147f7cc6da11a60208b5b9406d12a635614ffd91435460ff16156112d3576105b683611932565b826001600160a01b03166352d1902d6040518163ffffffff1660e01b815260040160206040518083038186803b15801561130c57600080fd5b505afa92505050801561133c575060408051601f3d908101601f1916820190925261133991810190612431565b60015b61139f5760405162461bcd60e51b815260206004820152602e60248201527f45524331393637557067726164653a206e657720696d706c656d656e7461746960448201526d6f6e206973206e6f74205555505360901b6064820152608401610627565b600080516020612537833981519152811461140e5760405162461bcd60e51b815260206004820152602960248201527f45524331393637557067726164653a20756e737570706f727465642070726f786044820152681a58589b195555525160ba1b6064820152608401610627565b506105b68383836119ce565b60975460ff166114635760405162461bcd60e51b815260206004820152601460248201527314185d5cd8589b194e881b9bdd081c185d5cd95960621b6044820152606401610627565b6097805460ff191690557f5db9ee0a495bf2e6ff9c91a7834c1ba4fdd244a5e8aa4e537bd38aeae4b073aa335b6040516001600160a01b03909116815260200160405180910390a1565b6040516001600160a01b0383166024820152604481018290526105b690849063a9059cbb60e01b906064015b60408051601f198184030181529190526020810180516001600160e01b03166001600160e01b0319909316929092179091526119f3565b804710156115605760405162461bcd60e51b815260206004820152601d60248201527f416464726573733a20696e73756666696369656e742062616c616e63650000006044820152606401610627565b6000826001600160a01b03168260405160006040518083038185875af1925050503d80600081146115ad576040519150601f19603f3d011682016040523d82523d6000602084013e6115b2565b606091505b50509050806105b65760405162461bcd60e51b815260206004820152603a60248201527f416464726573733a20756e61626c6520746f2073656e642076616c75652c207260448201527f6563697069656e74206d617920686176652072657665727465640000000000006064820152608401610627565b6040516001600160a01b03808516602483015283166044820152606481018290526116619085906323b872dd60e01b906084016114d9565b50505050565b60975460ff16156116ad5760405162461bcd60e51b815260206004820152601060248201526f14185d5cd8589b194e881c185d5cd95960821b6044820152606401610627565b6097805460ff191660011790557f62e78cea01bee320cd4e420270b5ea74000d11b0c9f74754ebdbfc544b05a2586114903390565b600054610100900460ff166117095760405162461bcd60e51b81526004016106279061244a565b565b600054610100900460ff166117325760405162461bcd60e51b81526004016106279061244a565b611709611ac5565b61063a828261119a565b600082815260656020526040808220600101805490849055905190918391839186917fbd79b86ffe0ab8e8776151514217cd7cacd52c909f66475c3af44e129f0b00ff9190a4505050565b6060600061179e836002612495565b6117a99060026124b4565b67ffffffffffffffff8111156117c1576117c1611dd7565b6040519080825280601f01601f1916602001820160405280156117eb576020820181803683370190505b509050600360fc1b81600081518110611806576118066124cc565b60200101906001600160f81b031916908160001a905350600f60fb1b81600181518110611835576118356124cc565b60200101906001600160f81b031916908160001a9053506000611859846002612495565b6118649060016124b4565b90505b60018111156118dc576f181899199a1a9b1b9c1cb0b131b232b360811b85600f1660108110611898576118986124cc565b1a60f81b8282815181106118ae576118ae6124cc565b60200101906001600160f81b031916908160001a90535060049490941c936118d5816124e2565b9050611867565b50831561192b5760405162461bcd60e51b815260206004820181905260248201527f537472696e67733a20686578206c656e67746820696e73756666696369656e746044820152606401610627565b9392505050565b6001600160a01b0381163b61199f5760405162461bcd60e51b815260206004820152602d60248201527f455243313936373a206e657720696d706c656d656e746174696f6e206973206e60448201526c1bdd08184818dbdb9d1c9858dd609a1b6064820152608401610627565b60008051602061253783398151915280546001600160a01b0319166001600160a01b0392909216919091179055565b6119d783611af8565b6000825111806119e45750805b156105b6576116618383611b38565b6000611a48826040518060400160405280602081526020017f5361666545524332303a206c6f772d6c6576656c2063616c6c206661696c6564815250856001600160a01b0316611c2c9092919063ffffffff16565b8051909150156105b65780806020019051810190611a6691906124f9565b6105b65760405162461bcd60e51b815260206004820152602a60248201527f5361666545524332303a204552433230206f7065726174696f6e20646964206e6044820152691bdd081cdd58d8d9595960b21b6064820152608401610627565b600054610100900460ff16611aec5760405162461bcd60e51b81526004016106279061244a565b6097805460ff19169055565b611b0181611932565b6040516001600160a01b038216907fbc7cd75a20ee27fd9adebab32041f755214dbc6bffa90cc0225b39da2e5c2d3b90600090a250565b60606001600160a01b0383163b611ba05760405162461bcd60e51b815260206004820152602660248201527f416464726573733a2064656c65676174652063616c6c20746f206e6f6e2d636f6044820152651b9d1c9858dd60d21b6064820152608401610627565b600080846001600160a01b031684604051611bbb919061236d565b600060405180830381855af49150503d8060008114611bf6576040519150601f19603f3d011682016040523d82523d6000602084013e611bfb565b606091505b5091509150611c23828260405180606001604052806027815260200161255760279139611c43565b95945050505050565b6060611c3b8484600085611c7c565b949350505050565b60608315611c5257508161192b565b825115611c625782518084602001fd5b8160405162461bcd60e51b815260040161062791906123fe565b606082471015611cdd5760405162461bcd60e51b815260206004820152602660248201527f416464726573733a20696e73756666696369656e742062616c616e636520666f6044820152651c8818d85b1b60d21b6064820152608401610627565b6001600160a01b0385163b611d345760405162461bcd60e51b815260206004820152601d60248201527f416464726573733a2063616c6c20746f206e6f6e2d636f6e74726163740000006044820152606401610627565b600080866001600160a01b03168587604051611d50919061236d565b60006040518083038185875af1925050503d8060008114611d8d576040519150601f19603f3d011682016040523d82523d6000602084013e611d92565b606091505b5091509150611da2828286611c43565b979650505050505050565b600060208284031215611dbf57600080fd5b81356001600160e01b03198116811461192b57600080fd5b634e487b7160e01b600052604160045260246000fd5b600067ffffffffffffffff80841115611e0857611e08611dd7565b604051601f8501601f19908116603f01168101908282118183101715611e3057611e30611dd7565b81604052809350858152868686011115611e4957600080fd5b858560208301376000602087830101525050509392505050565b600082601f830112611e7457600080fd5b61192b83833560208501611ded565b600060208284031215611e9557600080fd5b813567ffffffffffffffff811115611eac57600080fd5b611c3b84828501611e63565b600060208284031215611eca57600080fd5b5035919050565b6001600160a01b038116811461071b57600080fd5b60008060408385031215611ef957600080fd5b823591506020830135611f0b81611ed1565b809150509250929050565b600060208284031215611f2857600080fd5b813561192b81611ed1565b600080600060608486031215611f4857600080fd5b8335611f5381611ed1565b9250602084013591506040840135611f6a81611ed1565b809150509250925092565b60008083601f840112611f8757600080fd5b50813567ffffffffffffffff811115611f9f57600080fd5b602083019150836020828501011115611fb757600080fd5b9250929050565b60008060008060008060008060c0898b031215611fda57600080fd5b8835975060208901359650604089013595506060890135611ffa81611ed1565b9450608089013567ffffffffffffffff8082111561201757600080fd5b6120238c838d01611f75565b909650945060a08b013591508082111561203c57600080fd5b506120498b828c01611f75565b999c989b5096995094979396929594505050565b6000806040838503121561207057600080fd5b823561207b81611ed1565b9150602083013567ffffffffffffffff81111561209757600080fd5b8301601f810185136120a857600080fd5b6120b785823560208401611ded565b9150509250929050565b801515811461071b57600080fd5b60008060008060008060c087890312156120e857600080fd5b86356120f381611ed1565b95506020870135612103816120c1565b945060408701359350606087013592506080870135915060a087013567ffffffffffffffff81111561213457600080fd5b61214089828a01611e63565b9150509295509295509295565b6000806040838503121561216057600080fd5b823591506020830135611f0b816120c1565b6020808252602c908201527f46756e6374696f6e206d7573742062652063616c6c6564207468726f7567682060408201526b19195b1959d85d1958d85b1b60a21b606082015260800190565b6020808252602c908201527f46756e6374696f6e206d7573742062652063616c6c6564207468726f7567682060408201526b6163746976652070726f787960a01b606082015260800190565b8183823760009101908152919050565b8981528860208201526bffffffffffffffffffffffff198860601b166040820152866054820152856074820152838560948301376000848201609481016000815284868237506000930160940192835250909998505050505050505050565b634e487b7160e01b600052601160045260246000fd5b6000826122ac57634e487b7160e01b600052601260045260246000fd5b500490565b81835281816020850137506000828201602090810191909152601f909101601f19169091010190565b60006101008c835260018060a01b038c1660208401528a60408401528960608401528860808401528760a08401528060c084015261231b81840187896122b1565b905082810360e08401526123308185876122b1565b9d9c50505050505050505050505050565b60005b8381101561235c578181015183820152602001612344565b838111156116615750506000910152565b6000825161237f818460208701612341565b9190910192915050565b7f416363657373436f6e74726f6c3a206163636f756e74200000000000000000008152600083516123c1816017850160208801612341565b7001034b99036b4b9b9b4b733903937b6329607d1b60179184019182015283516123f2816028840160208801612341565b01602801949350505050565b602081526000825180602084015261241d816040850160208701612341565b601f01601f19169190910160400192915050565b60006020828403121561244357600080fd5b5051919050565b6020808252602b908201527f496e697469616c697a61626c653a20636f6e7472616374206973206e6f74206960408201526a6e697469616c697a696e6760a81b606082015260800190565b60008160001904831182151516156124af576124af612279565b500290565b600082198211156124c7576124c7612279565b500190565b634e487b7160e01b600052603260045260246000fd5b6000816124f1576124f1612279565b506000190190565b60006020828403121561250b57600080fd5b815161192b816120c156fe189ab7a9244df0848122154315af71fe140f3db0fe014031783b0946b8c9d2e3360894a13ba1a3210667c828492db98dca3e2076cc3735a920a3ca505d382bbc416464726573733a206c6f772d6c6576656c2064656c65676174652063616c6c206661696c6564a49807205ce4d355092ef5a8a18f56e8913cf4a201fbe287825b095693c21775a264697066735822122022b57a5f1597c0ffe68d77ce90f723b13a7b05fa44ba43ca054782e7fee630ff64736f6c63430008090033",
  "linkReferences": {},
  "deployedLinkReferences": {}
}