{
  "_format": "hh-sol-artifact-1",
  "contractName": "WQBridgeStable",
  "sourceName": "contracts/WQBridgeStable.sol",
  "abi": [
    {
      "inputs": [],
      "stateMutability": "nonpayable",
      "type": "constructor"
    },
    {
      "anonymous": false,
      "inputs": [
        {
          "indexed": false,
          "internalType": "address",
          "name": "previousAdmin",
          "type": "address"
        },
        {
          "indexed": false,
          "internalType": "address",
          "name": "newAdmin",
          "type": "address"
        }
      ],
      "name": "AdminChanged",
      "type": "event"
    },
    {
      "anonymous": false,
      "inputs": [
        {
          "indexed": true,
          "internalType": "address",
          "name": "beacon",
          "type": "address"
        }
      ],
      "name": "BeaconUpgraded",
      "type": "event"
    },
    {
      "anonymous": false,
      "inputs": [
        {
          "indexed": false,
          "internalType": "uint8",
          "name": "version",
          "type": "uint8"
        }
      ],
      "name": "Initialized",
      "type": "event"
    },
    {
      "anonymous": false,
      "inputs": [
        {
          "indexed": false,
          "internalType": "address",
          "name": "account",
          "type": "address"
        }
      ],
      "name": "Paused",
      "type": "event"
    },
    {
      "anonymous": false,
      "inputs": [
        {
          "indexed": true,
          "internalType": "bytes32",
          "name": "role",
          "type": "bytes32"
        },
        {
          "indexed": true,
          "internalType": "bytes32",
          "name": "previousAdminRole",
          "type": "bytes32"
        },
        {
          "indexed": true,
          "internalType": "bytes32",
          "name": "newAdminRole",
          "type": "bytes32"
        }
      ],
      "name": "RoleAdminChanged",
      "type": "event"
    },
    {
      "anonymous": false,
      "inputs": [
        {
          "indexed": true,
          "internalType": "bytes32",
          "name": "role",
          "type": "bytes32"
        },
        {
          "indexed": true,
          "internalType": "address",
          "name": "account",
          "type": "address"
        },
        {
          "indexed": true,
          "internalType": "address",
          "name": "sender",
          "type": "address"
        }
      ],
      "name": "RoleGranted",
      "type": "event"
    },
    {
      "anonymous": false,
      "inputs": [
        {
          "indexed": true,
          "internalType": "bytes32",
          "name": "role",
          "type": "bytes32"
        },
        {
          "indexed": true,
          "internalType": "address",
          "name": "account",
          "type": "address"
        },
        {
          "indexed": true,
          "internalType": "address",
          "name": "sender",
          "type": "address"
        }
      ],
      "name": "RoleRevoked",
      "type": "event"
    },
    {
      "anonymous": false,
      "inputs": [
        {
          "indexed": false,
          "internalType": "uint256",
          "name": "timestamp",
          "type": "uint256"
        },
        {
          "indexed": false,
          "internalType": "address",
          "name": "recipient",
          "type": "address"
        },
        {
          "indexed": false,
          "internalType": "uint256",
          "name": "amount",
          "type": "uint256"
        },
        {
          "indexed": false,
          "internalType": "uint256",
          "name": "chainFrom",
          "type": "uint256"
        },
        {
          "indexed": false,
          "internalType": "uint256",
          "name": "chainTo",
          "type": "uint256"
        },
        {
          "indexed": false,
          "internalType": "uint256",
          "name": "nonce",
          "type": "uint256"
        },
        {
          "indexed": false,
          "internalType": "string",
          "name": "userId",
          "type": "string"
        },
        {
          "indexed": false,
          "internalType": "string",
          "name": "symbol",
          "type": "string"
        }
      ],
      "name": "SwapInitialized",
      "type": "event"
    },
    {
      "anonymous": false,
      "inputs": [
        {
          "indexed": false,
          "internalType": "address",
          "name": "token",
          "type": "address"
        },
        {
          "indexed": false,
          "internalType": "address",
          "name": "recipient",
          "type": "address"
        },
        {
          "indexed": false,
          "internalType": "uint256",
          "name": "amount",
          "type": "uint256"
        }
      ],
      "name": "Transferred",
      "type": "event"
    },
    {
      "anonymous": false,
      "inputs": [
        {
          "indexed": false,
          "internalType": "address",
          "name": "account",
          "type": "address"
        }
      ],
      "name": "Unpaused",
      "type": "event"
    },
    {
      "anonymous": false,
      "inputs": [
        {
          "indexed": true,
          "internalType": "address",
          "name": "implementation",
          "type": "address"
        }
      ],
      "name": "Upgraded",
      "type": "event"
    },
    {
      "inputs": [],
      "name": "ADMIN_ROLE",
      "outputs": [
        {
          "internalType": "bytes32",
          "name": "",
          "type": "bytes32"
        }
      ],
      "stateMutability": "view",
      "type": "function"
    },
    {
      "inputs": [],
      "name": "DEFAULT_ADMIN_ROLE",
      "outputs": [
        {
          "internalType": "bytes32",
          "name": "",
          "type": "bytes32"
        }
      ],
      "stateMutability": "view",
      "type": "function"
    },
    {
      "inputs": [],
      "name": "UPGRADER_ROLE",
      "outputs": [
        {
          "internalType": "bytes32",
          "name": "",
          "type": "bytes32"
        }
      ],
      "stateMutability": "view",
      "type": "function"
    },
    {
      "inputs": [],
      "name": "chainId",
      "outputs": [
        {
          "internalType": "uint256",
          "name": "",
          "type": "uint256"
        }
      ],
      "stateMutability": "view",
      "type": "function"
    },
    {
      "inputs": [
        {
          "internalType": "uint256",
          "name": "",
          "type": "uint256"
        }
      ],
      "name": "chains",
      "outputs": [
        {
          "internalType": "bool",
          "name": "",
          "type": "bool"
        }
      ],
      "stateMutability": "view",
      "type": "function"
    },
    {
      "inputs": [
        {
          "internalType": "bytes32",
          "name": "role",
          "type": "bytes32"
        }
      ],
      "name": "getRoleAdmin",
      "outputs": [
        {
          "internalType": "bytes32",
          "name": "",
          "type": "bytes32"
        }
      ],
      "stateMutability": "view",
      "type": "function"
    },
    {
      "inputs": [
        {
          "internalType": "bytes32",
          "name": "role",
          "type": "bytes32"
        },
        {
          "internalType": "address",
          "name": "account",
          "type": "address"
        }
      ],
      "name": "grantRole",
      "outputs": [],
      "stateMutability": "nonpayable",
      "type": "function"
    },
    {
      "inputs": [
        {
          "internalType": "bytes32",
          "name": "role",
          "type": "bytes32"
        },
        {
          "internalType": "address",
          "name": "account",
          "type": "address"
        }
      ],
      "name": "hasRole",
      "outputs": [
        {
          "internalType": "bool",
          "name": "",
          "type": "bool"
        }
      ],
      "stateMutability": "view",
      "type": "function"
    },
    {
      "inputs": [
        {
          "internalType": "uint256",
          "name": "_chainId",
          "type": "uint256"
        },
        {
          "internalType": "address payable",
          "name": "_pool",
          "type": "address"
        }
      ],
      "name": "initialize",
      "outputs": [],
      "stateMutability": "nonpayable",
      "type": "function"
    },
    {
      "inputs": [],
      "name": "pause",
      "outputs": [],
      "stateMutability": "nonpayable",
      "type": "function"
    },
    {
      "inputs": [],
      "name": "paused",
      "outputs": [
        {
          "internalType": "bool",
          "name": "",
          "type": "bool"
        }
      ],
      "stateMutability": "view",
      "type": "function"
    },
    {
      "inputs": [],
      "name": "pool",
      "outputs": [
        {
          "internalType": "address payable",
          "name": "",
          "type": "address"
        }
      ],
      "stateMutability": "view",
      "type": "function"
    },
    {
      "inputs": [],
      "name": "proxiableUUID",
      "outputs": [
        {
          "internalType": "bytes32",
          "name": "",
          "type": "bytes32"
        }
      ],
      "stateMutability": "view",
      "type": "function"
    },
    {
      "inputs": [
        {
          "internalType": "address payable",
          "name": "recipient",
          "type": "address"
        },
        {
          "internalType": "uint256",
          "name": "amount",
          "type": "uint256"
        },
        {
          "internalType": "address",
          "name": "token",
          "type": "address"
        }
      ],
      "name": "removeLiquidity",
      "outputs": [],
      "stateMutability": "nonpayable",
      "type": "function"
    },
    {
      "inputs": [
        {
          "internalType": "bytes32",
          "name": "role",
          "type": "bytes32"
        },
        {
          "internalType": "address",
          "name": "account",
          "type": "address"
        }
      ],
      "name": "renounceRole",
      "outputs": [],
      "stateMutability": "nonpayable",
      "type": "function"
    },
    {
      "inputs": [
        {
          "internalType": "bytes32",
          "name": "role",
          "type": "bytes32"
        },
        {
          "internalType": "address",
          "name": "account",
          "type": "address"
        }
      ],
      "name": "revokeRole",
      "outputs": [],
      "stateMutability": "nonpayable",
      "type": "function"
    },
    {
      "inputs": [
        {
          "internalType": "bytes4",
          "name": "interfaceId",
          "type": "bytes4"
        }
      ],
      "name": "supportsInterface",
      "outputs": [
        {
          "internalType": "bool",
          "name": "",
          "type": "bool"
        }
      ],
      "stateMutability": "view",
      "type": "function"
    },
    {
      "inputs": [
        {
          "internalType": "uint256",
          "name": "nonce",
          "type": "uint256"
        },
        {
          "internalType": "uint256",
          "name": "chainTo",
          "type": "uint256"
        },
        {
          "internalType": "uint256",
          "name": "amount",
          "type": "uint256"
        },
        {
          "internalType": "address",
          "name": "recipient",
          "type": "address"
        },
        {
          "internalType": "string",
          "name": "userId",
          "type": "string"
        },
        {
          "internalType": "string",
          "name": "symbol",
          "type": "string"
        }
      ],
      "name": "swap",
      "outputs": [],
      "stateMutability": "payable",
      "type": "function"
    },
    {
      "inputs": [
        {
          "internalType": "bytes32",
          "name": "",
          "type": "bytes32"
        }
      ],
      "name": "swaps",
      "outputs": [
        {
          "internalType": "bool",
          "name": "",
          "type": "bool"
        }
      ],
      "stateMutability": "view",
      "type": "function"
    },
    {
      "inputs": [
        {
          "internalType": "string",
          "name": "",
          "type": "string"
        }
      ],
      "name": "tokens",
      "outputs": [
        {
          "internalType": "uint256",
          "name": "minAmount",
          "type": "uint256"
        },
        {
          "internalType": "uint256",
          "name": "maxAmount",
          "type": "uint256"
        },
        {
          "internalType": "uint256",
          "name": "factor",
          "type": "uint256"
        },
        {
          "internalType": "address",
          "name": "token",
          "type": "address"
        },
        {
          "internalType": "bool",
          "name": "enabled",
          "type": "bool"
        }
      ],
      "stateMutability": "view",
      "type": "function"
    },
    {
      "inputs": [],
      "name": "unpause",
      "outputs": [],
      "stateMutability": "nonpayable",
      "type": "function"
    },
    {
      "inputs": [
        {
          "internalType": "uint256",
          "name": "_chainId",
          "type": "uint256"
        },
        {
          "internalType": "bool",
          "name": "enabled",
          "type": "bool"
        }
      ],
      "name": "updateChain",
      "outputs": [],
      "stateMutability": "nonpayable",
      "type": "function"
    },
    {
      "inputs": [
        {
          "internalType": "address payable",
          "name": "_pool",
          "type": "address"
        }
      ],
      "name": "updatePool",
      "outputs": [],
      "stateMutability": "nonpayable",
      "type": "function"
    },
    {
      "inputs": [
        {
          "internalType": "address",
          "name": "token",
          "type": "address"
        },
        {
          "internalType": "bool",
          "name": "enabled",
          "type": "bool"
        },
        {
          "internalType": "uint256",
          "name": "factor",
          "type": "uint256"
        },
        {
          "internalType": "uint256",
          "name": "minAmount",
          "type": "uint256"
        },
        {
          "internalType": "uint256",
          "name": "maxAmount",
          "type": "uint256"
        },
        {
          "internalType": "string",
          "name": "symbol",
          "type": "string"
        }
      ],
      "name": "updateToken",
      "outputs": [],
      "stateMutability": "nonpayable",
      "type": "function"
    },
    {
      "inputs": [
        {
          "internalType": "address",
          "name": "newImplementation",
          "type": "address"
        }
      ],
      "name": "upgradeTo",
      "outputs": [],
      "stateMutability": "nonpayable",
      "type": "function"
    },
    {
      "inputs": [
        {
          "internalType": "address",
          "name": "newImplementation",
          "type": "address"
        },
        {
          "internalType": "bytes",
          "name": "data",
          "type": "bytes"
        }
      ],
      "name": "upgradeToAndCall",
      "outputs": [],
      "stateMutability": "payable",
      "type": "function"
    }
  ],
  "bytecode": "0x60a0604052306080523480156200001557600080fd5b50600054610100900460ff1615808015620000375750600054600160ff909116105b8062000067575062000054306200014160201b620011311760201c565b15801562000067575060005460ff166001145b620000cf5760405162461bcd60e51b815260206004820152602e60248201527f496e697469616c697a61626c653a20636f6e747261637420697320616c72656160448201526d191e481a5b9a5d1a585b1a5e995960921b606482015260840160405180910390fd5b6000805460ff191660011790558015620000f3576000805461ff0019166101001790555b80156200013a576000805461ff0019169055604051600181527f7f26b83ff96e1f2b6a682f133852f6798a09c465da95921460cefb38474024989060200160405180910390a15b5062000150565b6001600160a01b03163b151590565b6080516125f662000188600039600081816106480152818161068801528181610ba501528181610be50152610c7401526125f66000f3fe6080604052600436106101815760003560e01c80635c975abb116100d1578063a217fddf1161008a578063da35a26f11610064578063da35a26f146104c6578063dbe77e54146104e6578063eb84e7f214610506578063f72c0d8b1461053757600080fd5b8063a217fddf14610471578063ada9f0c214610486578063d547741f146104a657600080fd5b80635c975abb146103cb57806375b238fc146103e35780637b46c54f146104055780638456cb591461042557806391d148541461043a5780639a8a05921461045a57600080fd5b80633659cfe61161013e57806348fdceb61161011857806348fdceb61461035f5780634f1ef2861461037257806352d1902d14610385578063550325b51461039a57600080fd5b80633659cfe61461030a5780633f4ba83a1461032a57806347fdbc8e1461033f57600080fd5b806301ffc9a71461018657806304c2320b146101bb57806316f0115b14610251578063248a9ca31461028a5780632f2ff15d146102c857806336568abe146102ea575b600080fd5b34801561019257600080fd5b506101a66101a1366004611dd0565b610559565b60405190151581526020015b60405180910390f35b3480156101c757600080fd5b5061021e6101d6366004611ea6565b8051602081830181018051610130825292820191909301209152805460018201546002830154600390930154919290916001600160a01b03811690600160a01b900460ff1685565b604080519586526020860194909452928401919091526001600160a01b031660608301521515608082015260a0016101b2565b34801561025d57600080fd5b5061012e54610272906001600160a01b031681565b6040516001600160a01b0390911681526020016101b2565b34801561029657600080fd5b506102ba6102a5366004611edb565b60009081526065602052604090206001015490565b6040519081526020016101b2565b3480156102d457600080fd5b506102e86102e3366004611f09565b610590565b005b3480156102f657600080fd5b506102e8610305366004611f09565b6105ba565b34801561031657600080fd5b506102e8610325366004611f39565b61063d565b34801561033657600080fd5b506102e861071d565b34801561034b57600080fd5b506102e861035a366004611f56565b61073d565b6102e861036d366004611fe1565b610843565b6102e8610380366004612080565b610b9a565b34801561039157600080fd5b506102ba610c67565b3480156103a657600080fd5b506101a66103b5366004611edb565b61012f6020526000908152604090205460ff1681565b3480156103d757600080fd5b5060975460ff166101a6565b3480156103ef57600080fd5b506102ba6000805160206125a183398151915281565b34801561041157600080fd5b506102e8610420366004611f39565b610d1a565b34801561043157600080fd5b506102e8610dac565b34801561044657600080fd5b506101a6610455366004611f09565b610dcc565b34801561046657600080fd5b506102ba61012d5481565b34801561047d57600080fd5b506102ba600081565b34801561049257600080fd5b506102e86104a13660046120f2565b610df7565b3480156104b257600080fd5b506102e86104c1366004611f09565b610f2d565b3480156104d257600080fd5b506102e86104e1366004611f09565b610f52565b3480156104f257600080fd5b506102e8610501366004612170565b6110f7565b34801561051257600080fd5b506101a6610521366004611edb565b6101316020526000908152604090205460ff1681565b34801561054357600080fd5b506102ba60008051602061253a83398151915281565b60006001600160e01b03198216637965db0b60e01b148061058a57506301ffc9a760e01b6001600160e01b03198316145b92915050565b6000828152606560205260409020600101546105ab81611140565b6105b5838361114a565b505050565b6001600160a01b038116331461062f5760405162461bcd60e51b815260206004820152602f60248201527f416363657373436f6e74726f6c3a2063616e206f6e6c792072656e6f756e636560448201526e103937b632b9903337b91039b2b63360891b60648201526084015b60405180910390fd5b61063982826111d0565b5050565b306001600160a01b037f00000000000000000000000000000000000000000000000000000000000000001614156106865760405162461bcd60e51b815260040161062690612195565b7f00000000000000000000000000000000000000000000000000000000000000006001600160a01b03166106cf60008051602061255a833981519152546001600160a01b031690565b6001600160a01b0316146106f55760405162461bcd60e51b8152600401610626906121e1565b6106fe81611237565b6040805160008082526020820190925261071a9183919061124f565b50565b6000805160206125a183398151915261073581611140565b61071a6113c9565b6000805160206125a183398151915261075581611140565b6001600160a01b0384166107b75760405162461bcd60e51b815260206004820152602360248201527f57514272696467653a20696e76616c696420726563697069656e74206164647260448201526265737360e81b6064820152608401610626565b6001600160a01b038216156107df576107da6001600160a01b038316858561141b565b6107f2565b6107f26001600160a01b0385168461147e565b604080516001600160a01b038085168252861660208201529081018490527fd1ba4ac2e2a11b5101f6cb4d978f514a155b421e8ec396d2d9abaf0bb02917ee9060600160405180910390a150505050565b61084b611597565b61012d548714156108aa5760405162461bcd60e51b8152602060048201526024808201527f576f726b5175657374204272696467653a20496e76616c696420636861696e546044820152631bc81a5960e21b6064820152608401610626565b600087815261012f602052604090205460ff1661091d5760405162461bcd60e51b815260206004820152602b60248201527f576f726b5175657374204272696467653a20436861696e546f2049442069732060448201526a1b9bdd08185b1b1bddd95960aa1b6064820152608401610626565b6000610130838360405161093292919061222d565b908152604051908190036020019020600381015490915060ff600160a01b909104166109c65760405162461bcd60e51b815260206004820152603760248201527f576f726b5175657374204272696467653a205468697320746f6b656e206e6f7460448201527f2072656769737465726564206f722064697361626c65640000000000000000006064820152608401610626565b805487108015906109db575080600101548711155b610a275760405162461bcd60e51b815260206004820181905260248201527f576f726b5175657374204272696467653a20496e76616c696420616d6f756e746044820152606401610626565b600089888861012d548c8a8a8a8a604051602001610a4d9998979695949392919061223d565b60408051601f198184030181529181528151602092830120600081815261013190935291205490915060ff1615610af75760405162461bcd60e51b815260206004820152604260248201527f576f726b5175657374204272696467653a2053776170206973206e6f7420656d60448201527f707479207374617465206f72206475706c6963617465207472616e736163746960648201526137b760f11b608482015260a401610626565b600081815261013160205260409020805460ff1916600117905561012e546003830154610b33916001600160a01b03918216913391168b6115df565b7f29ab7267823901259c18ef8ff2b6ce9a175b3a1c6cfeba495e0aea26eb235fe2428884600201548b610b6691906122b2565b61012d548d8f8c8c8c8c604051610b869a999897969594939291906122fd565b60405180910390a150505050505050505050565b306001600160a01b037f0000000000000000000000000000000000000000000000000000000000000000161415610be35760405162461bcd60e51b815260040161062690612195565b7f00000000000000000000000000000000000000000000000000000000000000006001600160a01b0316610c2c60008051602061255a833981519152546001600160a01b031690565b6001600160a01b031614610c525760405162461bcd60e51b8152600401610626906121e1565b610c5b82611237565b6106398282600161124f565b6000306001600160a01b037f00000000000000000000000000000000000000000000000000000000000000001614610d075760405162461bcd60e51b815260206004820152603860248201527f555550535570677261646561626c653a206d757374206e6f742062652063616c60448201527f6c6564207468726f7567682064656c656761746563616c6c00000000000000006064820152608401610626565b5060008051602061255a83398151915290565b6000805160206125a1833981519152610d3281611140565b6001600160a01b038216610d885760405162461bcd60e51b815260206004820152601e60248201527f57514272696467653a20696e76616c696420706f6f6c206164647265737300006044820152606401610626565b5061012e80546001600160a01b0319166001600160a01b0392909216919091179055565b6000805160206125a1833981519152610dc481611140565b61071a61161d565b60009182526065602090815260408084206001600160a01b0393909316845291905290205460ff1690565b6000805160206125a1833981519152610e0f81611140565b6000825111610e7f5760405162461bcd60e51b815260206004820152603660248201527f576f726b5175657374204272696467653a2053796d626f6c206c656e6774682060448201527506d7573742062652067726561746572207468616e20360541b6064820152608401610626565b6040518060a00160405280858152602001848152602001868152602001886001600160a01b0316815260200187151581525061013083604051610ec29190612390565b90815260408051602092819003830190208351815591830151600183015582015160028201556060820151600390910180546080909301516001600160a01b039092166001600160a81b031990931692909217600160a01b9115159190910217905550505050505050565b600082815260656020526040902060010154610f4881611140565b6105b583836111d0565b600054610100900460ff1615808015610f725750600054600160ff909116105b80610f8c5750303b158015610f8c575060005460ff166001145b610fef5760405162461bcd60e51b815260206004820152602e60248201527f496e697469616c697a61626c653a20636f6e747261637420697320616c72656160448201526d191e481a5b9a5d1a585b1a5e995960921b6064820152608401610626565b6000805460ff191660011790558015611012576000805461ff0019166101001790555b61101a61165a565b611022611681565b61102a61165a565b6110356000336116b0565b61104d6000805160206125a1833981519152336116b0565b61106560008051602061253a833981519152336116b0565b61108b60008051602061253a8339815191526000805160206125a18339815191526116ba565b61012d83905561012e80546001600160a01b0319166001600160a01b03841617905580156105b5576000805461ff0019169055604051600181527f7f26b83ff96e1f2b6a682f133852f6798a09c465da95921460cefb38474024989060200160405180910390a1505050565b6000805160206125a183398151915261110f81611140565b50600091825261012f6020526040909120805460ff1916911515919091179055565b6001600160a01b03163b151590565b61071a8133611705565b6111548282610dcc565b6106395760008281526065602090815260408083206001600160a01b03851684529091529020805460ff1916600117905561118c3390565b6001600160a01b0316816001600160a01b0316837f2f8788117e7eff1d82e926ec794901d17c78024a50270940304540a733656f0d60405160405180910390a45050565b6111da8282610dcc565b156106395760008281526065602090815260408083206001600160a01b0385168085529252808320805460ff1916905551339285917ff6391f5c32d9c69d2a47ea670b442974b53935d1edc7fd64eb21e047a839171b9190a45050565b60008051602061253a83398151915261063981611140565b7f4910fdfa16fed3260ed0e7147f7cc6da11a60208b5b9406d12a635614ffd91435460ff1615611282576105b583611769565b826001600160a01b03166352d1902d6040518163ffffffff1660e01b815260040160206040518083038186803b1580156112bb57600080fd5b505afa9250505080156112eb575060408051601f3d908101601f191682019092526112e8918101906123ac565b60015b61134e5760405162461bcd60e51b815260206004820152602e60248201527f45524331393637557067726164653a206e657720696d706c656d656e7461746960448201526d6f6e206973206e6f74205555505360901b6064820152608401610626565b60008051602061255a83398151915281146113bd5760405162461bcd60e51b815260206004820152602960248201527f45524331393637557067726164653a20756e737570706f727465642070726f786044820152681a58589b195555525160ba1b6064820152608401610626565b506105b5838383611805565b6113d161182a565b6097805460ff191690557f5db9ee0a495bf2e6ff9c91a7834c1ba4fdd244a5e8aa4e537bd38aeae4b073aa335b6040516001600160a01b03909116815260200160405180910390a1565b6040516001600160a01b0383166024820152604481018290526105b590849063a9059cbb60e01b906064015b60408051601f198184030181529190526020810180516001600160e01b03166001600160e01b031990931692909217909152611873565b804710156114ce5760405162461bcd60e51b815260206004820152601d60248201527f416464726573733a20696e73756666696369656e742062616c616e63650000006044820152606401610626565b6000826001600160a01b03168260405160006040518083038185875af1925050503d806000811461151b576040519150601f19603f3d011682016040523d82523d6000602084013e611520565b606091505b50509050806105b55760405162461bcd60e51b815260206004820152603a60248201527f416464726573733a20756e61626c6520746f2073656e642076616c75652c207260448201527f6563697069656e74206d617920686176652072657665727465640000000000006064820152608401610626565b60975460ff16156115dd5760405162461bcd60e51b815260206004820152601060248201526f14185d5cd8589b194e881c185d5cd95960821b6044820152606401610626565b565b6040516001600160a01b03808516602483015283166044820152606481018290526116179085906323b872dd60e01b90608401611447565b50505050565b611625611597565b6097805460ff191660011790557f62e78cea01bee320cd4e420270b5ea74000d11b0c9f74754ebdbfc544b05a2586113fe3390565b600054610100900460ff166115dd5760405162461bcd60e51b8152600401610626906123c5565b600054610100900460ff166116a85760405162461bcd60e51b8152600401610626906123c5565b6115dd611945565b610639828261114a565b600082815260656020526040808220600101805490849055905190918391839186917fbd79b86ffe0ab8e8776151514217cd7cacd52c909f66475c3af44e129f0b00ff9190a4505050565b61170f8282610dcc565b61063957611727816001600160a01b03166014611978565b611732836020611978565b604051602001611743929190612410565b60408051601f198184030181529082905262461bcd60e51b825261062691600401612485565b6001600160a01b0381163b6117d65760405162461bcd60e51b815260206004820152602d60248201527f455243313936373a206e657720696d706c656d656e746174696f6e206973206e60448201526c1bdd08184818dbdb9d1c9858dd609a1b6064820152608401610626565b60008051602061255a83398151915280546001600160a01b0319166001600160a01b0392909216919091179055565b61180e83611b1b565b60008251118061181b5750805b156105b5576116178383611b5b565b60975460ff166115dd5760405162461bcd60e51b815260206004820152601460248201527314185d5cd8589b194e881b9bdd081c185d5cd95960621b6044820152606401610626565b60006118c8826040518060400160405280602081526020017f5361666545524332303a206c6f772d6c6576656c2063616c6c206661696c6564815250856001600160a01b0316611c4f9092919063ffffffff16565b8051909150156105b557808060200190518101906118e691906124b8565b6105b55760405162461bcd60e51b815260206004820152602a60248201527f5361666545524332303a204552433230206f7065726174696f6e20646964206e6044820152691bdd081cdd58d8d9595960b21b6064820152608401610626565b600054610100900460ff1661196c5760405162461bcd60e51b8152600401610626906123c5565b6097805460ff19169055565b606060006119878360026124d5565b6119929060026124f4565b67ffffffffffffffff8111156119aa576119aa611dfa565b6040519080825280601f01601f1916602001820160405280156119d4576020820181803683370190505b509050600360fc1b816000815181106119ef576119ef61250c565b60200101906001600160f81b031916908160001a905350600f60fb1b81600181518110611a1e57611a1e61250c565b60200101906001600160f81b031916908160001a9053506000611a428460026124d5565b611a4d9060016124f4565b90505b6001811115611ac5576f181899199a1a9b1b9c1cb0b131b232b360811b85600f1660108110611a8157611a8161250c565b1a60f81b828281518110611a9757611a9761250c565b60200101906001600160f81b031916908160001a90535060049490941c93611abe81612522565b9050611a50565b508315611b145760405162461bcd60e51b815260206004820181905260248201527f537472696e67733a20686578206c656e67746820696e73756666696369656e746044820152606401610626565b9392505050565b611b2481611769565b6040516001600160a01b038216907fbc7cd75a20ee27fd9adebab32041f755214dbc6bffa90cc0225b39da2e5c2d3b90600090a250565b60606001600160a01b0383163b611bc35760405162461bcd60e51b815260206004820152602660248201527f416464726573733a2064656c65676174652063616c6c20746f206e6f6e2d636f6044820152651b9d1c9858dd60d21b6064820152608401610626565b600080846001600160a01b031684604051611bde9190612390565b600060405180830381855af49150503d8060008114611c19576040519150601f19603f3d011682016040523d82523d6000602084013e611c1e565b606091505b5091509150611c46828260405180606001604052806027815260200161257a60279139611c66565b95945050505050565b6060611c5e8484600085611c9f565b949350505050565b60608315611c75575081611b14565b825115611c855782518084602001fd5b8160405162461bcd60e51b81526004016106269190612485565b606082471015611d005760405162461bcd60e51b815260206004820152602660248201527f416464726573733a20696e73756666696369656e742062616c616e636520666f6044820152651c8818d85b1b60d21b6064820152608401610626565b6001600160a01b0385163b611d575760405162461bcd60e51b815260206004820152601d60248201527f416464726573733a2063616c6c20746f206e6f6e2d636f6e74726163740000006044820152606401610626565b600080866001600160a01b03168587604051611d739190612390565b60006040518083038185875af1925050503d8060008114611db0576040519150601f19603f3d011682016040523d82523d6000602084013e611db5565b606091505b5091509150611dc5828286611c66565b979650505050505050565b600060208284031215611de257600080fd5b81356001600160e01b031981168114611b1457600080fd5b634e487b7160e01b600052604160045260246000fd5b600067ffffffffffffffff80841115611e2b57611e2b611dfa565b604051601f8501601f19908116603f01168101908282118183101715611e5357611e53611dfa565b81604052809350858152868686011115611e6c57600080fd5b858560208301376000602087830101525050509392505050565b600082601f830112611e9757600080fd5b611b1483833560208501611e10565b600060208284031215611eb857600080fd5b813567ffffffffffffffff811115611ecf57600080fd5b611c5e84828501611e86565b600060208284031215611eed57600080fd5b5035919050565b6001600160a01b038116811461071a57600080fd5b60008060408385031215611f1c57600080fd5b823591506020830135611f2e81611ef4565b809150509250929050565b600060208284031215611f4b57600080fd5b8135611b1481611ef4565b600080600060608486031215611f6b57600080fd5b8335611f7681611ef4565b9250602084013591506040840135611f8d81611ef4565b809150509250925092565b60008083601f840112611faa57600080fd5b50813567ffffffffffffffff811115611fc257600080fd5b602083019150836020828501011115611fda57600080fd5b9250929050565b60008060008060008060008060c0898b031215611ffd57600080fd5b883597506020890135965060408901359550606089013561201d81611ef4565b9450608089013567ffffffffffffffff8082111561203a57600080fd5b6120468c838d01611f98565b909650945060a08b013591508082111561205f57600080fd5b5061206c8b828c01611f98565b999c989b5096995094979396929594505050565b6000806040838503121561209357600080fd5b823561209e81611ef4565b9150602083013567ffffffffffffffff8111156120ba57600080fd5b8301601f810185136120cb57600080fd5b6120da85823560208401611e10565b9150509250929050565b801515811461071a57600080fd5b60008060008060008060c0878903121561210b57600080fd5b863561211681611ef4565b95506020870135612126816120e4565b945060408701359350606087013592506080870135915060a087013567ffffffffffffffff81111561215757600080fd5b61216389828a01611e86565b9150509295509295509295565b6000806040838503121561218357600080fd5b823591506020830135611f2e816120e4565b6020808252602c908201527f46756e6374696f6e206d7573742062652063616c6c6564207468726f7567682060408201526b19195b1959d85d1958d85b1b60a21b606082015260800190565b6020808252602c908201527f46756e6374696f6e206d7573742062652063616c6c6564207468726f7567682060408201526b6163746976652070726f787960a01b606082015260800190565b8183823760009101908152919050565b8981528860208201526bffffffffffffffffffffffff198860601b166040820152866054820152856074820152838560948301376000848201609481016000815284868237506000930160940192835250909998505050505050505050565b634e487b7160e01b600052601160045260246000fd5b6000826122cf57634e487b7160e01b600052601260045260246000fd5b500490565b81835281816020850137506000828201602090810191909152601f909101601f19169091010190565b60006101008c835260018060a01b038c1660208401528a60408401528960608401528860808401528760a08401528060c084015261233e81840187896122d4565b905082810360e08401526123538185876122d4565b9d9c50505050505050505050505050565b60005b8381101561237f578181015183820152602001612367565b838111156116175750506000910152565b600082516123a2818460208701612364565b9190910192915050565b6000602082840312156123be57600080fd5b5051919050565b6020808252602b908201527f496e697469616c697a61626c653a20636f6e7472616374206973206e6f74206960408201526a6e697469616c697a696e6760a81b606082015260800190565b7f416363657373436f6e74726f6c3a206163636f756e7420000000000000000000815260008351612448816017850160208801612364565b7001034b99036b4b9b9b4b733903937b6329607d1b6017918401918201528351612479816028840160208801612364565b01602801949350505050565b60208152600082518060208401526124a4816040850160208701612364565b601f01601f19169190910160400192915050565b6000602082840312156124ca57600080fd5b8151611b14816120e4565b60008160001904831182151516156124ef576124ef61229c565b500290565b600082198211156125075761250761229c565b500190565b634e487b7160e01b600052603260045260246000fd5b6000816125315761253161229c565b50600019019056fe189ab7a9244df0848122154315af71fe140f3db0fe014031783b0946b8c9d2e3360894a13ba1a3210667c828492db98dca3e2076cc3735a920a3ca505d382bbc416464726573733a206c6f772d6c6576656c2064656c65676174652063616c6c206661696c6564a49807205ce4d355092ef5a8a18f56e8913cf4a201fbe287825b095693c21775a26469706673582212207baf92de4a29af2477a8a5e428df682c845049caac3219e6cf3ee37baf56768b64736f6c63430008090033",
  "linkReferences": {},
  "deployedLinkReferences": {}
}