{
  "_format": "hh-sol-artifact-1",
  "contractName": "WQSavingProduct",
  "sourceName": "contracts/WQSavingProduct.sol",
  "abi": [
    {
      "inputs": [],
      "stateMutability": "nonpayable",
      "type": "constructor"
    },
    {
      "anonymous": false,
      "inputs": [
        {
          "indexed": false,
          "internalType": "address",
          "name": "previousAdmin",
          "type": "address"
        },
        {
          "indexed": false,
          "internalType": "address",
          "name": "newAdmin",
          "type": "address"
        }
      ],
      "name": "AdminChanged",
      "type": "event"
    },
    {
      "anonymous": false,
      "inputs": [
        {
          "indexed": true,
          "internalType": "address",
          "name": "beacon",
          "type": "address"
        }
      ],
      "name": "BeaconUpgraded",
      "type": "event"
    },
    {
      "anonymous": false,
      "inputs": [
        {
          "indexed": false,
          "internalType": "address",
          "name": "user",
          "type": "address"
        },
        {
          "indexed": false,
          "internalType": "uint256",
          "name": "amount",
          "type": "uint256"
        }
      ],
      "name": "Borrowed",
      "type": "event"
    },
    {
      "anonymous": false,
      "inputs": [
        {
          "indexed": false,
          "internalType": "address",
          "name": "user",
          "type": "address"
        },
        {
          "indexed": false,
          "internalType": "uint256",
          "name": "amount",
          "type": "uint256"
        }
      ],
      "name": "Claimed",
      "type": "event"
    },
    {
      "anonymous": false,
      "inputs": [
        {
          "indexed": false,
          "internalType": "address",
          "name": "user",
          "type": "address"
        },
        {
          "indexed": false,
          "internalType": "uint256",
          "name": "amount",
          "type": "uint256"
        }
      ],
      "name": "Received",
      "type": "event"
    },
    {
      "anonymous": false,
      "inputs": [
        {
          "indexed": false,
          "internalType": "address",
          "name": "user",
          "type": "address"
        },
        {
          "indexed": false,
          "internalType": "uint256",
          "name": "amount",
          "type": "uint256"
        }
      ],
      "name": "Refunded",
      "type": "event"
    },
    {
      "anonymous": false,
      "inputs": [
        {
          "indexed": true,
          "internalType": "bytes32",
          "name": "role",
          "type": "bytes32"
        },
        {
          "indexed": true,
          "internalType": "bytes32",
          "name": "previousAdminRole",
          "type": "bytes32"
        },
        {
          "indexed": true,
          "internalType": "bytes32",
          "name": "newAdminRole",
          "type": "bytes32"
        }
      ],
      "name": "RoleAdminChanged",
      "type": "event"
    },
    {
      "anonymous": false,
      "inputs": [
        {
          "indexed": true,
          "internalType": "bytes32",
          "name": "role",
          "type": "bytes32"
        },
        {
          "indexed": true,
          "internalType": "address",
          "name": "account",
          "type": "address"
        },
        {
          "indexed": true,
          "internalType": "address",
          "name": "sender",
          "type": "address"
        }
      ],
      "name": "RoleGranted",
      "type": "event"
    },
    {
      "anonymous": false,
      "inputs": [
        {
          "indexed": true,
          "internalType": "bytes32",
          "name": "role",
          "type": "bytes32"
        },
        {
          "indexed": true,
          "internalType": "address",
          "name": "account",
          "type": "address"
        },
        {
          "indexed": true,
          "internalType": "address",
          "name": "sender",
          "type": "address"
        }
      ],
      "name": "RoleRevoked",
      "type": "event"
    },
    {
      "anonymous": false,
      "inputs": [
        {
          "indexed": true,
          "internalType": "address",
          "name": "implementation",
          "type": "address"
        }
      ],
      "name": "Upgraded",
      "type": "event"
    },
    {
      "anonymous": false,
      "inputs": [
        {
          "indexed": false,
          "internalType": "address",
          "name": "user",
          "type": "address"
        },
        {
          "indexed": false,
          "internalType": "uint256",
          "name": "amount",
          "type": "uint256"
        }
      ],
      "name": "Withdrew",
      "type": "event"
    },
    {
      "inputs": [],
      "name": "ADMIN_ROLE",
      "outputs": [
        {
          "internalType": "bytes32",
          "name": "",
          "type": "bytes32"
        }
      ],
      "stateMutability": "view",
      "type": "function"
    },
    {
      "inputs": [],
      "name": "BORROWER_ROLE",
      "outputs": [
        {
          "internalType": "bytes32",
          "name": "",
          "type": "bytes32"
        }
      ],
      "stateMutability": "view",
      "type": "function"
    },
    {
      "inputs": [],
      "name": "DEFAULT_ADMIN_ROLE",
      "outputs": [
        {
          "internalType": "bytes32",
          "name": "",
          "type": "bytes32"
        }
      ],
      "stateMutability": "view",
      "type": "function"
    },
    {
      "inputs": [],
      "name": "MONTH",
      "outputs": [
        {
          "internalType": "uint256",
          "name": "",
          "type": "uint256"
        }
      ],
      "stateMutability": "view",
      "type": "function"
    },
    {
      "inputs": [],
      "name": "UPGRADER_ROLE",
      "outputs": [
        {
          "internalType": "bytes32",
          "name": "",
          "type": "bytes32"
        }
      ],
      "stateMutability": "view",
      "type": "function"
    },
    {
      "inputs": [],
      "name": "YEAR",
      "outputs": [
        {
          "internalType": "uint256",
          "name": "",
          "type": "uint256"
        }
      ],
      "stateMutability": "view",
      "type": "function"
    },
    {
      "inputs": [
        {
          "internalType": "uint256",
          "name": "",
          "type": "uint256"
        }
      ],
      "name": "apys",
      "outputs": [
        {
          "internalType": "uint256",
          "name": "",
          "type": "uint256"
        }
      ],
      "stateMutability": "view",
      "type": "function"
    },
    {
      "inputs": [
        {
          "internalType": "address",
          "name": "depositor",
          "type": "address"
        }
      ],
      "name": "balanceOf",
      "outputs": [
        {
          "internalType": "uint256",
          "name": "",
          "type": "uint256"
        }
      ],
      "stateMutability": "view",
      "type": "function"
    },
    {
      "inputs": [
        {
          "internalType": "address",
          "name": "depositor",
          "type": "address"
        },
        {
          "internalType": "uint256",
          "name": "amount",
          "type": "uint256"
        },
        {
          "internalType": "uint256",
          "name": "duration",
          "type": "uint256"
        }
      ],
      "name": "borrow",
      "outputs": [],
      "stateMutability": "nonpayable",
      "type": "function"
    },
    {
      "inputs": [],
      "name": "claim",
      "outputs": [],
      "stateMutability": "nonpayable",
      "type": "function"
    },
    {
      "inputs": [
        {
          "internalType": "uint256",
          "name": "lockTime",
          "type": "uint256"
        },
        {
          "internalType": "uint256",
          "name": "amount",
          "type": "uint256"
        }
      ],
      "name": "deposit",
      "outputs": [],
      "stateMutability": "nonpayable",
      "type": "function"
    },
    {
      "inputs": [],
      "name": "feePerMonth",
      "outputs": [
        {
          "internalType": "uint256",
          "name": "",
          "type": "uint256"
        }
      ],
      "stateMutability": "view",
      "type": "function"
    },
    {
      "inputs": [],
      "name": "feeReceiver",
      "outputs": [
        {
          "internalType": "address",
          "name": "",
          "type": "address"
        }
      ],
      "stateMutability": "view",
      "type": "function"
    },
    {
      "inputs": [],
      "name": "feeWithdraw",
      "outputs": [
        {
          "internalType": "uint256",
          "name": "",
          "type": "uint256"
        }
      ],
      "stateMutability": "view",
      "type": "function"
    },
    {
      "inputs": [
        {
          "internalType": "address",
          "name": "depositor",
          "type": "address"
        }
      ],
      "name": "getRewards",
      "outputs": [
        {
          "internalType": "uint256",
          "name": "",
          "type": "uint256"
        }
      ],
      "stateMutability": "view",
      "type": "function"
    },
    {
      "inputs": [
        {
          "internalType": "bytes32",
          "name": "role",
          "type": "bytes32"
        }
      ],
      "name": "getRoleAdmin",
      "outputs": [
        {
          "internalType": "bytes32",
          "name": "",
          "type": "bytes32"
        }
      ],
      "stateMutability": "view",
      "type": "function"
    },
    {
      "inputs": [
        {
          "internalType": "bytes32",
          "name": "role",
          "type": "bytes32"
        },
        {
          "internalType": "address",
          "name": "account",
          "type": "address"
        }
      ],
      "name": "grantRole",
      "outputs": [],
      "stateMutability": "nonpayable",
      "type": "function"
    },
    {
      "inputs": [
        {
          "internalType": "bytes32",
          "name": "role",
          "type": "bytes32"
        },
        {
          "internalType": "address",
          "name": "account",
          "type": "address"
        }
      ],
      "name": "hasRole",
      "outputs": [
        {
          "internalType": "bool",
          "name": "",
          "type": "bool"
        }
      ],
      "stateMutability": "view",
      "type": "function"
    },
    {
      "inputs": [
        {
          "internalType": "address",
          "name": "_wusd",
          "type": "address"
        },
        {
          "internalType": "address",
          "name": "_feeReceiver",
          "type": "address"
        },
        {
          "internalType": "uint256",
          "name": "_feePerMonth",
          "type": "uint256"
        },
        {
          "internalType": "uint256",
          "name": "_feeWithdraw",
          "type": "uint256"
        }
      ],
      "name": "initialize",
      "outputs": [],
      "stateMutability": "nonpayable",
      "type": "function"
    },
    {
      "inputs": [],
      "name": "proxiableUUID",
      "outputs": [
        {
          "internalType": "bytes32",
          "name": "",
          "type": "bytes32"
        }
      ],
      "stateMutability": "view",
      "type": "function"
    },
    {
      "inputs": [
        {
          "internalType": "address",
          "name": "depositor",
          "type": "address"
        },
        {
          "internalType": "uint256",
          "name": "amount",
          "type": "uint256"
        },
        {
          "internalType": "uint256",
          "name": "elapsedTime",
          "type": "uint256"
        },
        {
          "internalType": "uint256",
          "name": "duration",
          "type": "uint256"
        }
      ],
      "name": "refund",
      "outputs": [],
      "stateMutability": "nonpayable",
      "type": "function"
    },
    {
      "inputs": [
        {
          "internalType": "bytes32",
          "name": "role",
          "type": "bytes32"
        },
        {
          "internalType": "address",
          "name": "account",
          "type": "address"
        }
      ],
      "name": "renounceRole",
      "outputs": [],
      "stateMutability": "nonpayable",
      "type": "function"
    },
    {
      "inputs": [
        {
          "internalType": "bytes32",
          "name": "role",
          "type": "bytes32"
        },
        {
          "internalType": "address",
          "name": "account",
          "type": "address"
        }
      ],
      "name": "revokeRole",
      "outputs": [],
      "stateMutability": "nonpayable",
      "type": "function"
    },
    {
      "inputs": [
        {
          "internalType": "uint256",
          "name": "duration",
          "type": "uint256"
        },
        {
          "internalType": "uint256",
          "name": "apy",
          "type": "uint256"
        }
      ],
      "name": "setApy",
      "outputs": [],
      "stateMutability": "nonpayable",
      "type": "function"
    },
    {
      "inputs": [
        {
          "internalType": "uint256",
          "name": "_feeWithdraw",
          "type": "uint256"
        },
        {
          "internalType": "uint256",
          "name": "_feePerMonth",
          "type": "uint256"
        }
      ],
      "name": "setFee",
      "outputs": [],
      "stateMutability": "nonpayable",
      "type": "function"
    },
    {
      "inputs": [
        {
          "internalType": "address",
          "name": "_feeReceiver",
          "type": "address"
        }
      ],
      "name": "setFeeReceiver",
      "outputs": [],
      "stateMutability": "nonpayable",
      "type": "function"
    },
    {
      "inputs": [
        {
          "internalType": "bytes4",
          "name": "interfaceId",
          "type": "bytes4"
        }
      ],
      "name": "supportsInterface",
      "outputs": [
        {
          "internalType": "bool",
          "name": "",
          "type": "bool"
        }
      ],
      "stateMutability": "view",
      "type": "function"
    },
    {
      "inputs": [
        {
          "internalType": "address",
          "name": "newImplementation",
          "type": "address"
        }
      ],
      "name": "upgradeTo",
      "outputs": [],
      "stateMutability": "nonpayable",
      "type": "function"
    },
    {
      "inputs": [
        {
          "internalType": "address",
          "name": "newImplementation",
          "type": "address"
        },
        {
          "internalType": "bytes",
          "name": "data",
          "type": "bytes"
        }
      ],
      "name": "upgradeToAndCall",
      "outputs": [],
      "stateMutability": "payable",
      "type": "function"
    },
    {
      "inputs": [
        {
          "internalType": "address",
          "name": "",
          "type": "address"
        }
      ],
      "name": "wallets",
      "outputs": [
        {
          "internalType": "uint256",
          "name": "amount",
          "type": "uint256"
        },
        {
          "internalType": "uint256",
          "name": "borrowed",
          "type": "uint256"
        },
        {
          "internalType": "uint256",
          "name": "rewardAllowed",
          "type": "uint256"
        },
        {
          "internalType": "uint256",
          "name": "rewardDistributed",
          "type": "uint256"
        },
        {
          "internalType": "uint256",
          "name": "unlockDate",
          "type": "uint256"
        },
        {
          "internalType": "uint256",
          "name": "duration",
          "type": "uint256"
        },
        {
          "internalType": "uint256",
          "name": "serviceComission",
          "type": "uint256"
        }
      ],
      "stateMutability": "view",
      "type": "function"
    },
    {
      "inputs": [
        {
          "internalType": "uint256",
          "name": "amount",
          "type": "uint256"
        }
      ],
      "name": "withdraw",
      "outputs": [],
      "stateMutability": "nonpayable",
      "type": "function"
    },
    {
      "inputs": [],
      "name": "wusd",
      "outputs": [
        {
          "internalType": "contract IERC20Upgradeable",
          "name": "",
          "type": "address"
        }
      ],
      "stateMutability": "view",
      "type": "function"
    }
  ],
  "bytecode": "0x60a0604052306080523480156200001557600080fd5b50600054610100900460ff16620000335760005460ff16156200003d565b6200003d620000e2565b620000a55760405162461bcd60e51b815260206004820152602e60248201527f496e697469616c697a61626c653a20636f6e747261637420697320616c72656160448201526d191e481a5b9a5d1a585b1a5e995960921b606482015260840160405180910390fd5b600054610100900460ff16158015620000c8576000805461ffff19166101011790555b8015620000db576000805461ff00191690555b506200010f565b6000620000fa306200010060201b620015461760201c565b15905090565b6001600160a01b03163b151590565b60805161259c6200014760003960008181610b5201528181610b9201528181610d5d01528181610d9d0152610e2c015261259c6000f3fe6080604052600436106101e35760003560e01c806379ee54f711610102578063d547741f11610095578063e2bbb15811610064578063e2bbb158146105f8578063eb990c5914610618578063efdcd97414610638578063f72c0d8b1461065857600080fd5b8063d547741f1461058a578063d5999a5c146105aa578063daf8bc10146105c1578063dbf2cb33146105e157600080fd5b806391d14854116100d157806391d1485414610514578063a217fddf14610534578063b3f0067414610549578063c1bce0b71461056a57600080fd5b806379ee54f71461042057806381ce1c2314610440578063839145401461046e57806389b08f111461048657600080fd5b80633659cfe61161017a57806352f7c9881161014957806352f7c988146103a75780636561e6ba146103c757806370a08231146103de57806375b238fc146103fe57600080fd5b80633659cfe61461034a5780634e71d92d1461036a5780634f1ef2861461037f57806352d1902d1461039257600080fd5b8063268ebd59116101b6578063268ebd59146102c85780632e1a7d4d146102ea5780632f2ff15d1461030a57806336568abe1461032a57600080fd5b806301ffc9a7146101e85780630e7b949e1461021d57806315c40eb01461025f578063248a9ca314610298575b600080fd5b3480156101f457600080fd5b50610208610203366004611f99565b61067a565b60405190151581526020015b60405180910390f35b34801561022957600080fd5b506102517f2344277e405079ec07749d374ba0b5862a4e45a6a05ac889dbb4a991c6f9354d81565b604051908152602001610214565b34801561026b57600080fd5b5061012d54610280906001600160a01b031681565b6040516001600160a01b039091168152602001610214565b3480156102a457600080fd5b506102516102b3366004611fc3565b60009081526065602052604090206001015490565b3480156102d457600080fd5b506102e86102e3366004611ff8565b6106b1565b005b3480156102f657600080fd5b506102e8610305366004611fc3565b61088e565b34801561031657600080fd5b506102e8610325366004612031565b610a9e565b34801561033657600080fd5b506102e8610345366004612031565b610ac9565b34801561035657600080fd5b506102e861036536600461205d565b610b47565b34801561037657600080fd5b506102e8610c27565b6102e861038d36600461208e565b610d52565b34801561039e57600080fd5b50610251610e1f565b3480156103b357600080fd5b506102e86103c2366004612150565b610ed2565b3480156103d357600080fd5b506102516101305481565b3480156103ea57600080fd5b506102516103f936600461205d565b610ef9565b34801561040a57600080fd5b5061025160008051602061254783398151915281565b34801561042c57600080fd5b5061025161043b36600461205d565b610f23565b34801561044c57600080fd5b5061025161045b366004611fc3565b6101316020526000908152604090205481565b34801561047a57600080fd5b506102516301e1338081565b34801561049257600080fd5b506104df6104a136600461205d565b610132602052600090815260409020805460018201546002830154600384015460048501546005860154600690960154949593949293919290919087565b604080519788526020880196909652948601939093526060850191909152608084015260a083015260c082015260e001610214565b34801561052057600080fd5b5061020861052f366004612031565b610f57565b34801561054057600080fd5b50610251600081565b34801561055557600080fd5b5061012e54610280906001600160a01b031681565b34801561057657600080fd5b506102e8610585366004612172565b610f82565b34801561059657600080fd5b506102e86105a5366004612031565b611137565b3480156105b657600080fd5b5061025162278d0081565b3480156105cd57600080fd5b506102e86105dc366004612150565b61115d565b3480156105ed57600080fd5b5061025161012f5481565b34801561060457600080fd5b506102e8610613366004612150565b61118a565b34801561062457600080fd5b506102e86106333660046121a5565b611395565b34801561064457600080fd5b506102e861065336600461205d565b611509565b34801561066457600080fd5b506102516000805160206124e083398151915281565b60006001600160e01b03198216637965db0b60e01b14806106ab57506301ffc9a760e01b6001600160e01b03198316145b92915050565b600260975414156106dd5760405162461bcd60e51b81526004016106d4906121e7565b60405180910390fd5b60026097557f2344277e405079ec07749d374ba0b5862a4e45a6a05ac889dbb4a991c6f9354d61070d8133611555565b600082815261013160205260409020546107735760405162461bcd60e51b815260206004820152602160248201527f5751536176696e6750726f647563743a20696e76616c6964206475726174696f6044820152603760f91b60648201526084016106d4565b60008281526101316020526040812054670de0b6b3a7640000906301e133809061079e908790612234565b6107a89088612234565b6107b29190612253565b6107bc9190612253565b6001600160a01b038716600090815261013260205260408120600101805492935087929091906107ed908490612275565b90915550506001600160a01b038616600090815261013260205260408120600201805483929061081e90849061228c565b9091555061084890503330610833848961228c565b61012d546001600160a01b03169291906115b9565b60408051338152602081018790527fd7dee2702d63ad89917b6a4da9981c90c4d24f8c2bdfd64c604ecae57d8d0651910160405180910390a15050600160975550505050565b600260975414156108b15760405162461bcd60e51b81526004016106d4906121e7565b600260975533600090815261013260205260409020600481015442101561092d5760405162461bcd60e51b815260206004820152602a60248201527f5751536176696e6750726f647563743a204c6f636b2074696d65206973206e6f6044820152691d081bdd995c881e595d60b21b60648201526084016106d4565b80548211156109895760405162461bcd60e51b815260206004820152602260248201527f5751536176696e6750726f647563743a20416d6f756e7420697320696e76616c6044820152611a5960f21b60648201526084016106d4565b8181600001600082825461099d9190612275565b909155505080546109b057600060048201555b6000670de0b6b3a764000061013054846109ca9190612234565b6109d49190612253565b825460068401549192506000916109eb9086612234565b6109f59190612253565b905080836006016000828254610a0b9190612275565b90915550610a3e90503382610a208588612275565b610a2a9190612275565b61012d546001600160a01b0316919061162a565b61012e54610a59906001600160a01b0316610a2a838561228c565b60408051338152602081018690527fb244b9a17ad633c6e83b7983ee04320484956a68ddbe96a0b70dfca1cf19d72391015b60405180910390a1505060016097555050565b600082815260656020526040902060010154610aba8133611555565b610ac4838361165a565b505050565b6001600160a01b0381163314610b395760405162461bcd60e51b815260206004820152602f60248201527f416363657373436f6e74726f6c3a2063616e206f6e6c792072656e6f756e636560448201526e103937b632b9903337b91039b2b63360891b60648201526084016106d4565b610b4382826116e0565b5050565b306001600160a01b037f0000000000000000000000000000000000000000000000000000000000000000161415610b905760405162461bcd60e51b81526004016106d4906122a4565b7f00000000000000000000000000000000000000000000000000000000000000006001600160a01b0316610bd9600080516020612500833981519152546001600160a01b031690565b6001600160a01b031614610bff5760405162461bcd60e51b81526004016106d4906122f0565b610c0881611747565b60408051600080825260208201909252610c2491839190611760565b50565b60026097541415610c4a5760405162461bcd60e51b81526004016106d4906121e7565b60026097553360009081526101326020526040902060040154421015610cc15760405162461bcd60e51b815260206004820152602660248201527f5751536176696e6750726f647563743a20436c61696d206e6f7420616c6c6f776044820152651959081e595d60d21b60648201526084016106d4565b6000610ccc33610f23565b3360009081526101326020526040812060030180549293508392909190610cf490849061228c565b909155505061012d54610d11906001600160a01b0316338361162a565b60408051338152602081018390527fd8138f8a3f377c5259ca548e70e4c2de94f129f5a11036a15b69513cba2b426a910160405180910390a1506001609755565b306001600160a01b037f0000000000000000000000000000000000000000000000000000000000000000161415610d9b5760405162461bcd60e51b81526004016106d4906122a4565b7f00000000000000000000000000000000000000000000000000000000000000006001600160a01b0316610de4600080516020612500833981519152546001600160a01b031690565b6001600160a01b031614610e0a5760405162461bcd60e51b81526004016106d4906122f0565b610e1382611747565b610b4382826001611760565b6000306001600160a01b037f00000000000000000000000000000000000000000000000000000000000000001614610ebf5760405162461bcd60e51b815260206004820152603860248201527f555550535570677261646561626c653a206d757374206e6f742062652063616c60448201527f6c6564207468726f7567682064656c656761746563616c6c000000000000000060648201526084016106d4565b5060008051602061250083398151915290565b600080516020612547833981519152610eeb8133611555565b506101309190915561012f55565b6001600160a01b038116600090815261013260205260408120600181015490546106ab9190612275565b6001600160a01b03811660009081526101326020526040812060038101546002820154610f509190612275565b9392505050565b60009182526065602090815260408084206001600160a01b0393909316845291905290205460ff1690565b60026097541415610fa55760405162461bcd60e51b81526004016106d4906121e7565b60026097557f2344277e405079ec07749d374ba0b5862a4e45a6a05ac889dbb4a991c6f9354d610fd58133611555565b610fde84610ef9565b831461102c5760405162461bcd60e51b815260206004820152601f60248201527f5751536176696e6750726f647563743a20496e76616c696420616d6f756e740060448201526064016106d4565b6001600160a01b038416600090815261013260205260409020600401546110568362015180612234565b611060904261228c565b11156110b85760405162461bcd60e51b815260206004820152602160248201527f5751536176696e6750726f647563743a20496e76616c6964206475726174696f6044820152603760f91b60648201526084016106d4565b6001600160a01b03841660009081526101326020526040812060010180548592906110e490849061228c565b909155505061012d54611101906001600160a01b0316338561162a565b60408051338152602081018590527fac59582e5396aca512fa873a2047e7f4c80f8f55d4a06cb34a78a0187f62719f9101610a8b565b6000828152606560205260409020600101546111538133611555565b610ac483836116e0565b6000805160206125478339815191526111768133611555565b506000918252610131602052604090912055565b600260975414156111ad5760405162461bcd60e51b81526004016106d4906121e7565b60026097556000828152610131602052604090205461121a5760405162461bcd60e51b8152602060048201526024808201527f5751536176696e6750726f647563743a206c6f636b54696d6520697320696e76604482015263185b1a5960e21b60648201526084016106d4565b3360009081526101326020526040902060048101544210156112895760405162461bcd60e51b815260206004820152602260248201527f5751536176696e6750726f647563743a20616c7265616479206465706f736974604482015261195960f21b60648201526084016106d4565b60048101546112bd5761129f8362015180612234565b6112a9904261228c565b600482015560058101839055600060068201555b818160000160008282546112d1919061228c565b92505081905550670de0b6b3a764000062278d004283600401546112f59190612275565b61012f546113039086612234565b61130d9190612234565b6113179190612253565b6113219190612253565b816006016000828254611334919061228c565b909155505061012d54611352906001600160a01b03163330856115b9565b60408051338152602081018490527f88a5966d370b9919b20f3e2c13ff65706f196a4e32cc2c12bf57088f88525874910160405180910390a15050600160975550565b600054610100900460ff166113b05760005460ff16156113b4565b303b155b6114175760405162461bcd60e51b815260206004820152602e60248201527f496e697469616c697a61626c653a20636f6e747261637420697320616c72656160448201526d191e481a5b9a5d1a585b1a5e995960921b60648201526084016106d4565b600054610100900460ff16158015611439576000805461ffff19166101011790555b6114416118da565b611449611903565b6114516118da565b61145c600033611932565b61147460008051602061254783398151915233611932565b61148c6000805160206124e083398151915233611932565b6114b26000805160206124e083398151915260008051602061254783398151915261193c565b61012d80546001600160a01b038088166001600160a01b03199283161790925561012e80549287169290911691909117905561012f8390556101308290558015611502576000805461ff00191690555b5050505050565b6000805160206125478339815191526115228133611555565b5061012e80546001600160a01b0319166001600160a01b0392909216919091179055565b6001600160a01b03163b151590565b61155f8282610f57565b610b4357611577816001600160a01b03166014611987565b611582836020611987565b604051602001611593929190612368565b60408051601f198184030181529082905262461bcd60e51b82526106d4916004016123dd565b6040516001600160a01b03808516602483015283166044820152606481018290526116249085906323b872dd60e01b906084015b60408051601f198184030181529190526020810180516001600160e01b03166001600160e01b031990931692909217909152611b23565b50505050565b6040516001600160a01b038316602482015260448101829052610ac490849063a9059cbb60e01b906064016115ed565b6116648282610f57565b610b435760008281526065602090815260408083206001600160a01b03851684529091529020805460ff1916600117905561169c3390565b6001600160a01b0316816001600160a01b0316837f2f8788117e7eff1d82e926ec794901d17c78024a50270940304540a733656f0d60405160405180910390a45050565b6116ea8282610f57565b15610b435760008281526065602090815260408083206001600160a01b0385168085529252808320805460ff1916905551339285917ff6391f5c32d9c69d2a47ea670b442974b53935d1edc7fd64eb21e047a839171b9190a45050565b6000805160206124e0833981519152610b438133611555565b7f4910fdfa16fed3260ed0e7147f7cc6da11a60208b5b9406d12a635614ffd91435460ff161561179357610ac483611bf5565b826001600160a01b03166352d1902d6040518163ffffffff1660e01b815260040160206040518083038186803b1580156117cc57600080fd5b505afa9250505080156117fc575060408051601f3d908101601f191682019092526117f991810190612410565b60015b61185f5760405162461bcd60e51b815260206004820152602e60248201527f45524331393637557067726164653a206e657720696d706c656d656e7461746960448201526d6f6e206973206e6f74205555505360901b60648201526084016106d4565b60008051602061250083398151915281146118ce5760405162461bcd60e51b815260206004820152602960248201527f45524331393637557067726164653a20756e737570706f727465642070726f786044820152681a58589b195555525160ba1b60648201526084016106d4565b50610ac4838383611c91565b600054610100900460ff166119015760405162461bcd60e51b81526004016106d490612429565b565b600054610100900460ff1661192a5760405162461bcd60e51b81526004016106d490612429565b611901611cb6565b610b43828261165a565b600082815260656020526040808220600101805490849055905190918391839186917fbd79b86ffe0ab8e8776151514217cd7cacd52c909f66475c3af44e129f0b00ff9190a4505050565b60606000611996836002612234565b6119a190600261228c565b67ffffffffffffffff8111156119b9576119b9612078565b6040519080825280601f01601f1916602001820160405280156119e3576020820181803683370190505b509050600360fc1b816000815181106119fe576119fe612474565b60200101906001600160f81b031916908160001a905350600f60fb1b81600181518110611a2d57611a2d612474565b60200101906001600160f81b031916908160001a9053506000611a51846002612234565b611a5c90600161228c565b90505b6001811115611ad4576f181899199a1a9b1b9c1cb0b131b232b360811b85600f1660108110611a9057611a90612474565b1a60f81b828281518110611aa657611aa6612474565b60200101906001600160f81b031916908160001a90535060049490941c93611acd8161248a565b9050611a5f565b508315610f505760405162461bcd60e51b815260206004820181905260248201527f537472696e67733a20686578206c656e67746820696e73756666696369656e7460448201526064016106d4565b6000611b78826040518060400160405280602081526020017f5361666545524332303a206c6f772d6c6576656c2063616c6c206661696c6564815250856001600160a01b0316611ce49092919063ffffffff16565b805190915015610ac45780806020019051810190611b9691906124a1565b610ac45760405162461bcd60e51b815260206004820152602a60248201527f5361666545524332303a204552433230206f7065726174696f6e20646964206e6044820152691bdd081cdd58d8d9595960b21b60648201526084016106d4565b6001600160a01b0381163b611c625760405162461bcd60e51b815260206004820152602d60248201527f455243313936373a206e657720696d706c656d656e746174696f6e206973206e60448201526c1bdd08184818dbdb9d1c9858dd609a1b60648201526084016106d4565b60008051602061250083398151915280546001600160a01b0319166001600160a01b0392909216919091179055565b611c9a83611cfb565b600082511180611ca75750805b15610ac4576116248383611d3b565b600054610100900460ff16611cdd5760405162461bcd60e51b81526004016106d490612429565b6001609755565b6060611cf38484600085611e2f565b949350505050565b611d0481611bf5565b6040516001600160a01b038216907fbc7cd75a20ee27fd9adebab32041f755214dbc6bffa90cc0225b39da2e5c2d3b90600090a250565b60606001600160a01b0383163b611da35760405162461bcd60e51b815260206004820152602660248201527f416464726573733a2064656c65676174652063616c6c20746f206e6f6e2d636f6044820152651b9d1c9858dd60d21b60648201526084016106d4565b600080846001600160a01b031684604051611dbe91906124c3565b600060405180830381855af49150503d8060008114611df9576040519150601f19603f3d011682016040523d82523d6000602084013e611dfe565b606091505b5091509150611e26828260405180606001604052806027815260200161252060279139611f60565b95945050505050565b606082471015611e905760405162461bcd60e51b815260206004820152602660248201527f416464726573733a20696e73756666696369656e742062616c616e636520666f6044820152651c8818d85b1b60d21b60648201526084016106d4565b6001600160a01b0385163b611ee75760405162461bcd60e51b815260206004820152601d60248201527f416464726573733a2063616c6c20746f206e6f6e2d636f6e747261637400000060448201526064016106d4565b600080866001600160a01b03168587604051611f0391906124c3565b60006040518083038185875af1925050503d8060008114611f40576040519150601f19603f3d011682016040523d82523d6000602084013e611f45565b606091505b5091509150611f55828286611f60565b979650505050505050565b60608315611f6f575081610f50565b825115611f7f5782518084602001fd5b8160405162461bcd60e51b81526004016106d491906123dd565b600060208284031215611fab57600080fd5b81356001600160e01b031981168114610f5057600080fd5b600060208284031215611fd557600080fd5b5035919050565b80356001600160a01b0381168114611ff357600080fd5b919050565b6000806000806080858703121561200e57600080fd5b61201785611fdc565b966020860135965060408601359560600135945092505050565b6000806040838503121561204457600080fd5b8235915061205460208401611fdc565b90509250929050565b60006020828403121561206f57600080fd5b610f5082611fdc565b634e487b7160e01b600052604160045260246000fd5b600080604083850312156120a157600080fd5b6120aa83611fdc565b9150602083013567ffffffffffffffff808211156120c757600080fd5b818501915085601f8301126120db57600080fd5b8135818111156120ed576120ed612078565b604051601f8201601f19908116603f0116810190838211818310171561211557612115612078565b8160405282815288602084870101111561212e57600080fd5b8260208601602083013760006020848301015280955050505050509250929050565b6000806040838503121561216357600080fd5b50508035926020909101359150565b60008060006060848603121561218757600080fd5b61219084611fdc565b95602085013595506040909401359392505050565b600080600080608085870312156121bb57600080fd5b6121c485611fdc565b93506121d260208601611fdc565b93969395505050506040820135916060013590565b6020808252601f908201527f5265656e7472616e637947756172643a207265656e7472616e742063616c6c00604082015260600190565b634e487b7160e01b600052601160045260246000fd5b600081600019048311821515161561224e5761224e61221e565b500290565b60008261227057634e487b7160e01b600052601260045260246000fd5b500490565b6000828210156122875761228761221e565b500390565b6000821982111561229f5761229f61221e565b500190565b6020808252602c908201527f46756e6374696f6e206d7573742062652063616c6c6564207468726f7567682060408201526b19195b1959d85d1958d85b1b60a21b606082015260800190565b6020808252602c908201527f46756e6374696f6e206d7573742062652063616c6c6564207468726f7567682060408201526b6163746976652070726f787960a01b606082015260800190565b60005b8381101561235757818101518382015260200161233f565b838111156116245750506000910152565b7f416363657373436f6e74726f6c3a206163636f756e74200000000000000000008152600083516123a081601785016020880161233c565b7001034b99036b4b9b9b4b733903937b6329607d1b60179184019182015283516123d181602884016020880161233c565b01602801949350505050565b60208152600082518060208401526123fc81604085016020870161233c565b601f01601f19169190910160400192915050565b60006020828403121561242257600080fd5b5051919050565b6020808252602b908201527f496e697469616c697a61626c653a20636f6e7472616374206973206e6f74206960408201526a6e697469616c697a696e6760a81b606082015260800190565b634e487b7160e01b600052603260045260246000fd5b6000816124995761249961221e565b506000190190565b6000602082840312156124b357600080fd5b81518015158114610f5057600080fd5b600082516124d581846020870161233c565b919091019291505056fe189ab7a9244df0848122154315af71fe140f3db0fe014031783b0946b8c9d2e3360894a13ba1a3210667c828492db98dca3e2076cc3735a920a3ca505d382bbc416464726573733a206c6f772d6c6576656c2064656c65676174652063616c6c206661696c6564a49807205ce4d355092ef5a8a18f56e8913cf4a201fbe287825b095693c21775a2646970667358221220d9428f30d072ad06ca17ac5c63c41a6c7419882ed92ef509c7997e553057b7a464736f6c63430008090033",
  "linkReferences": {},
  "deployedLinkReferences": {}
}