{
  "_format": "hh-sol-artifact-1",
  "contractName": "WQSavingProduct",
  "sourceName": "contracts/WQSavingProduct.sol",
  "abi": [
    {
      "inputs": [],
      "stateMutability": "nonpayable",
      "type": "constructor"
    },
    {
      "anonymous": false,
      "inputs": [
        {
          "indexed": false,
          "internalType": "address",
          "name": "previousAdmin",
          "type": "address"
        },
        {
          "indexed": false,
          "internalType": "address",
          "name": "newAdmin",
          "type": "address"
        }
      ],
      "name": "AdminChanged",
      "type": "event"
    },
    {
      "anonymous": false,
      "inputs": [
        {
          "indexed": true,
          "internalType": "address",
          "name": "beacon",
          "type": "address"
        }
      ],
      "name": "BeaconUpgraded",
      "type": "event"
    },
    {
      "anonymous": false,
      "inputs": [
        {
          "indexed": false,
          "internalType": "address",
          "name": "user",
          "type": "address"
        },
        {
          "indexed": false,
          "internalType": "uint256",
          "name": "amount",
          "type": "uint256"
        }
      ],
      "name": "Borrowed",
      "type": "event"
    },
    {
      "anonymous": false,
      "inputs": [
        {
          "indexed": false,
          "internalType": "address",
          "name": "user",
          "type": "address"
        },
        {
          "indexed": false,
          "internalType": "uint256",
          "name": "amount",
          "type": "uint256"
        }
      ],
      "name": "Claimed",
      "type": "event"
    },
    {
      "anonymous": false,
      "inputs": [
        {
          "indexed": false,
          "internalType": "uint8",
          "name": "version",
          "type": "uint8"
        }
      ],
      "name": "Initialized",
      "type": "event"
    },
    {
      "anonymous": false,
      "inputs": [
        {
          "indexed": false,
          "internalType": "address",
          "name": "user",
          "type": "address"
        },
        {
          "indexed": false,
          "internalType": "uint256",
          "name": "amount",
          "type": "uint256"
        }
      ],
      "name": "Received",
      "type": "event"
    },
    {
      "anonymous": false,
      "inputs": [
        {
          "indexed": false,
          "internalType": "address",
          "name": "user",
          "type": "address"
        },
        {
          "indexed": false,
          "internalType": "uint256",
          "name": "amount",
          "type": "uint256"
        }
      ],
      "name": "Refunded",
      "type": "event"
    },
    {
      "anonymous": false,
      "inputs": [
        {
          "indexed": true,
          "internalType": "bytes32",
          "name": "role",
          "type": "bytes32"
        },
        {
          "indexed": true,
          "internalType": "bytes32",
          "name": "previousAdminRole",
          "type": "bytes32"
        },
        {
          "indexed": true,
          "internalType": "bytes32",
          "name": "newAdminRole",
          "type": "bytes32"
        }
      ],
      "name": "RoleAdminChanged",
      "type": "event"
    },
    {
      "anonymous": false,
      "inputs": [
        {
          "indexed": true,
          "internalType": "bytes32",
          "name": "role",
          "type": "bytes32"
        },
        {
          "indexed": true,
          "internalType": "address",
          "name": "account",
          "type": "address"
        },
        {
          "indexed": true,
          "internalType": "address",
          "name": "sender",
          "type": "address"
        }
      ],
      "name": "RoleGranted",
      "type": "event"
    },
    {
      "anonymous": false,
      "inputs": [
        {
          "indexed": true,
          "internalType": "bytes32",
          "name": "role",
          "type": "bytes32"
        },
        {
          "indexed": true,
          "internalType": "address",
          "name": "account",
          "type": "address"
        },
        {
          "indexed": true,
          "internalType": "address",
          "name": "sender",
          "type": "address"
        }
      ],
      "name": "RoleRevoked",
      "type": "event"
    },
    {
      "anonymous": false,
      "inputs": [
        {
          "indexed": true,
          "internalType": "address",
          "name": "implementation",
          "type": "address"
        }
      ],
      "name": "Upgraded",
      "type": "event"
    },
    {
      "anonymous": false,
      "inputs": [
        {
          "indexed": false,
          "internalType": "address",
          "name": "user",
          "type": "address"
        },
        {
          "indexed": false,
          "internalType": "uint256",
          "name": "amount",
          "type": "uint256"
        }
      ],
      "name": "Withdrew",
      "type": "event"
    },
    {
      "inputs": [],
      "name": "ADMIN_ROLE",
      "outputs": [
        {
          "internalType": "bytes32",
          "name": "",
          "type": "bytes32"
        }
      ],
      "stateMutability": "view",
      "type": "function"
    },
    {
      "inputs": [],
      "name": "BORROWER_ROLE",
      "outputs": [
        {
          "internalType": "bytes32",
          "name": "",
          "type": "bytes32"
        }
      ],
      "stateMutability": "view",
      "type": "function"
    },
    {
      "inputs": [],
      "name": "DEFAULT_ADMIN_ROLE",
      "outputs": [
        {
          "internalType": "bytes32",
          "name": "",
          "type": "bytes32"
        }
      ],
      "stateMutability": "view",
      "type": "function"
    },
    {
      "inputs": [],
      "name": "MONTH",
      "outputs": [
        {
          "internalType": "uint256",
          "name": "",
          "type": "uint256"
        }
      ],
      "stateMutability": "view",
      "type": "function"
    },
    {
      "inputs": [],
      "name": "UPGRADER_ROLE",
      "outputs": [
        {
          "internalType": "bytes32",
          "name": "",
          "type": "bytes32"
        }
      ],
      "stateMutability": "view",
      "type": "function"
    },
    {
      "inputs": [],
      "name": "YEAR",
      "outputs": [
        {
          "internalType": "uint256",
          "name": "",
          "type": "uint256"
        }
      ],
      "stateMutability": "view",
      "type": "function"
    },
    {
      "inputs": [
        {
          "internalType": "uint256",
          "name": "",
          "type": "uint256"
        }
      ],
      "name": "apys",
      "outputs": [
        {
          "internalType": "uint256",
          "name": "",
          "type": "uint256"
        }
      ],
      "stateMutability": "view",
      "type": "function"
    },
    {
      "inputs": [
        {
          "internalType": "address",
          "name": "depositor",
          "type": "address"
        }
      ],
      "name": "balanceOf",
      "outputs": [
        {
          "internalType": "uint256",
          "name": "",
          "type": "uint256"
        }
      ],
      "stateMutability": "view",
      "type": "function"
    },
    {
      "inputs": [
        {
          "internalType": "address",
          "name": "depositor",
          "type": "address"
        },
        {
          "internalType": "uint256",
          "name": "amount",
          "type": "uint256"
        },
        {
          "internalType": "uint256",
          "name": "duration",
          "type": "uint256"
        }
      ],
      "name": "borrow",
      "outputs": [
        {
          "internalType": "uint256",
          "name": "",
          "type": "uint256"
        }
      ],
      "stateMutability": "nonpayable",
      "type": "function"
    },
    {
      "inputs": [],
      "name": "claim",
      "outputs": [],
      "stateMutability": "nonpayable",
      "type": "function"
    },
    {
      "inputs": [
        {
          "internalType": "uint256",
          "name": "lockTime",
          "type": "uint256"
        },
        {
          "internalType": "uint256",
          "name": "amount",
          "type": "uint256"
        }
      ],
      "name": "deposit",
      "outputs": [],
      "stateMutability": "nonpayable",
      "type": "function"
    },
    {
      "inputs": [],
      "name": "feePerMonth",
      "outputs": [
        {
          "internalType": "uint256",
          "name": "",
          "type": "uint256"
        }
      ],
      "stateMutability": "view",
      "type": "function"
    },
    {
      "inputs": [],
      "name": "feeReceiver",
      "outputs": [
        {
          "internalType": "address",
          "name": "",
          "type": "address"
        }
      ],
      "stateMutability": "view",
      "type": "function"
    },
    {
      "inputs": [],
      "name": "feeWithdraw",
      "outputs": [
        {
          "internalType": "uint256",
          "name": "",
          "type": "uint256"
        }
      ],
      "stateMutability": "view",
      "type": "function"
    },
    {
      "inputs": [
        {
          "internalType": "address",
          "name": "depositor",
          "type": "address"
        }
      ],
      "name": "getRewards",
      "outputs": [
        {
          "internalType": "uint256",
          "name": "",
          "type": "uint256"
        }
      ],
      "stateMutability": "view",
      "type": "function"
    },
    {
      "inputs": [
        {
          "internalType": "bytes32",
          "name": "role",
          "type": "bytes32"
        }
      ],
      "name": "getRoleAdmin",
      "outputs": [
        {
          "internalType": "bytes32",
          "name": "",
          "type": "bytes32"
        }
      ],
      "stateMutability": "view",
      "type": "function"
    },
    {
      "inputs": [
        {
          "internalType": "bytes32",
          "name": "role",
          "type": "bytes32"
        },
        {
          "internalType": "address",
          "name": "account",
          "type": "address"
        }
      ],
      "name": "grantRole",
      "outputs": [],
      "stateMutability": "nonpayable",
      "type": "function"
    },
    {
      "inputs": [
        {
          "internalType": "bytes32",
          "name": "role",
          "type": "bytes32"
        },
        {
          "internalType": "address",
          "name": "account",
          "type": "address"
        }
      ],
      "name": "hasRole",
      "outputs": [
        {
          "internalType": "bool",
          "name": "",
          "type": "bool"
        }
      ],
      "stateMutability": "view",
      "type": "function"
    },
    {
      "inputs": [
        {
          "internalType": "address",
          "name": "_wusd",
          "type": "address"
        },
        {
          "internalType": "address",
          "name": "_feeReceiver",
          "type": "address"
        },
        {
          "internalType": "uint256",
          "name": "_feePerMonth",
          "type": "uint256"
        },
        {
          "internalType": "uint256",
          "name": "_feeWithdraw",
          "type": "uint256"
        }
      ],
      "name": "initialize",
      "outputs": [],
      "stateMutability": "nonpayable",
      "type": "function"
    },
    {
      "inputs": [],
      "name": "proxiableUUID",
      "outputs": [
        {
          "internalType": "bytes32",
          "name": "",
          "type": "bytes32"
        }
      ],
      "stateMutability": "view",
      "type": "function"
    },
    {
      "inputs": [
        {
          "internalType": "address",
          "name": "depositor",
          "type": "address"
        },
        {
          "internalType": "uint256",
          "name": "amount",
          "type": "uint256"
        },
        {
          "internalType": "uint256",
          "name": "elapsedTime",
          "type": "uint256"
        },
        {
          "internalType": "uint256",
          "name": "duration",
          "type": "uint256"
        }
      ],
      "name": "refund",
      "outputs": [],
      "stateMutability": "nonpayable",
      "type": "function"
    },
    {
      "inputs": [
        {
          "internalType": "bytes32",
          "name": "role",
          "type": "bytes32"
        },
        {
          "internalType": "address",
          "name": "account",
          "type": "address"
        }
      ],
      "name": "renounceRole",
      "outputs": [],
      "stateMutability": "nonpayable",
      "type": "function"
    },
    {
      "inputs": [
        {
          "internalType": "bytes32",
          "name": "role",
          "type": "bytes32"
        },
        {
          "internalType": "address",
          "name": "account",
          "type": "address"
        }
      ],
      "name": "revokeRole",
      "outputs": [],
      "stateMutability": "nonpayable",
      "type": "function"
    },
    {
      "inputs": [
        {
          "internalType": "uint256",
          "name": "duration",
          "type": "uint256"
        },
        {
          "internalType": "uint256",
          "name": "apy",
          "type": "uint256"
        }
      ],
      "name": "setApy",
      "outputs": [],
      "stateMutability": "nonpayable",
      "type": "function"
    },
    {
      "inputs": [
        {
          "internalType": "uint256",
          "name": "_feeWithdraw",
          "type": "uint256"
        },
        {
          "internalType": "uint256",
          "name": "_feePerMonth",
          "type": "uint256"
        }
      ],
      "name": "setFee",
      "outputs": [],
      "stateMutability": "nonpayable",
      "type": "function"
    },
    {
      "inputs": [
        {
          "internalType": "address",
          "name": "_feeReceiver",
          "type": "address"
        }
      ],
      "name": "setFeeReceiver",
      "outputs": [],
      "stateMutability": "nonpayable",
      "type": "function"
    },
    {
      "inputs": [
        {
          "internalType": "bytes4",
          "name": "interfaceId",
          "type": "bytes4"
        }
      ],
      "name": "supportsInterface",
      "outputs": [
        {
          "internalType": "bool",
          "name": "",
          "type": "bool"
        }
      ],
      "stateMutability": "view",
      "type": "function"
    },
    {
      "inputs": [
        {
          "internalType": "address",
          "name": "newImplementation",
          "type": "address"
        }
      ],
      "name": "upgradeTo",
      "outputs": [],
      "stateMutability": "nonpayable",
      "type": "function"
    },
    {
      "inputs": [
        {
          "internalType": "address",
          "name": "newImplementation",
          "type": "address"
        },
        {
          "internalType": "bytes",
          "name": "data",
          "type": "bytes"
        }
      ],
      "name": "upgradeToAndCall",
      "outputs": [],
      "stateMutability": "payable",
      "type": "function"
    },
    {
      "inputs": [
        {
          "internalType": "address",
          "name": "",
          "type": "address"
        }
      ],
      "name": "wallets",
      "outputs": [
        {
          "internalType": "uint256",
          "name": "amount",
          "type": "uint256"
        },
        {
          "internalType": "uint256",
          "name": "borrowed",
          "type": "uint256"
        },
        {
          "internalType": "uint256",
          "name": "rewardAllowed",
          "type": "uint256"
        },
        {
          "internalType": "uint256",
          "name": "rewardDistributed",
          "type": "uint256"
        },
        {
          "internalType": "uint256",
          "name": "unlockDate",
          "type": "uint256"
        },
        {
          "internalType": "uint256",
          "name": "duration",
          "type": "uint256"
        },
        {
          "internalType": "uint256",
          "name": "serviceComission",
          "type": "uint256"
        }
      ],
      "stateMutability": "view",
      "type": "function"
    },
    {
      "inputs": [
        {
          "internalType": "uint256",
          "name": "amount",
          "type": "uint256"
        }
      ],
      "name": "withdraw",
      "outputs": [],
      "stateMutability": "nonpayable",
      "type": "function"
    },
    {
      "inputs": [],
      "name": "wusd",
      "outputs": [
        {
          "internalType": "contract IERC20Upgradeable",
          "name": "",
          "type": "address"
        }
      ],
      "stateMutability": "view",
      "type": "function"
    }
  ],
  "bytecode": "0x60a0604052306080523480156200001557600080fd5b50600054610100900460ff1615808015620000375750600054600160ff909116105b8062000067575062000054306200014160201b620015881760201c565b15801562000067575060005460ff166001145b620000cf5760405162461bcd60e51b815260206004820152602e60248201527f496e697469616c697a61626c653a20636f6e747261637420697320616c72656160448201526d191e481a5b9a5d1a585b1a5e995960921b606482015260840160405180910390fd5b6000805460ff191660011790558015620000f3576000805461ff0019166101001790555b80156200013a576000805461ff0019169055604051600181527f7f26b83ff96e1f2b6a682f133852f6798a09c465da95921460cefb38474024989060200160405180910390a15b5062000150565b6001600160a01b03163b151590565b6080516126076200018860003960008181610b2a01528181610b6a01528181610d3501528181610d750152610e0401526126076000f3fe6080604052600436106101e35760003560e01c806379ee54f711610102578063d547741f11610095578063e2bbb15811610064578063e2bbb158146105e6578063eb990c5914610606578063efdcd97414610626578063f72c0d8b1461064657600080fd5b8063d547741f14610578578063d5999a5c14610598578063daf8bc10146105af578063dbf2cb33146105cf57600080fd5b806391d14854116100d157806391d1485414610502578063a217fddf14610522578063b3f0067414610537578063c1bce0b71461055857600080fd5b806379ee54f71461040e57806381ce1c231461042e578063839145401461045c57806389b08f111461047457600080fd5b80633659cfe61161017a57806352f7c9881161014957806352f7c988146103955780636561e6ba146103b557806370a08231146103cc57806375b238fc146103ec57600080fd5b80633659cfe6146103385780634e71d92d146103585780634f1ef2861461036d57806352d1902d1461038057600080fd5b8063268ebd59116101b6578063268ebd59146102b65780632e1a7d4d146102d85780632f2ff15d146102f857806336568abe1461031857600080fd5b806301ffc9a7146101e85780630e7b949e1461021d57806315c40eb01461024d578063248a9ca314610286575b600080fd5b3480156101f457600080fd5b50610208610203366004611fe4565b610668565b60405190151581526020015b60405180910390f35b34801561022957600080fd5b5061023f60008051602061252b83398151915281565b604051908152602001610214565b34801561025957600080fd5b5061012d5461026e906001600160a01b031681565b6040516001600160a01b039091168152602001610214565b34801561029257600080fd5b5061023f6102a136600461200e565b60009081526065602052604090206001015490565b3480156102c257600080fd5b506102d66102d1366004612043565b61069f565b005b3480156102e457600080fd5b506102d66102f336600461200e565b610869565b34801561030457600080fd5b506102d661031336600461207c565b610a77565b34801561032457600080fd5b506102d661033336600461207c565b610aa1565b34801561034457600080fd5b506102d66103533660046120a8565b610b1f565b34801561036457600080fd5b506102d6610bff565b6102d661037b3660046120d9565b610d2a565b34801561038c57600080fd5b5061023f610df7565b3480156103a157600080fd5b506102d66103b036600461219b565b610eaa565b3480156103c157600080fd5b5061023f6101305481565b3480156103d857600080fd5b5061023f6103e73660046120a8565b610ed0565b3480156103f857600080fd5b5061023f6000805160206125b283398151915281565b34801561041a57600080fd5b5061023f6104293660046120a8565b610efa565b34801561043a57600080fd5b5061023f61044936600461200e565b6101316020526000908152604090205481565b34801561046857600080fd5b5061023f6301e1338081565b34801561048057600080fd5b506104cd61048f3660046120a8565b610132602052600090815260409020805460018201546002830154600384015460048501546005860154600690960154949593949293919290919087565b604080519788526020880196909652948601939093526060850191909152608084015260a083015260c082015260e001610214565b34801561050e57600080fd5b5061020861051d36600461207c565b610f2e565b34801561052e57600080fd5b5061023f600081565b34801561054357600080fd5b5061012e5461026e906001600160a01b031681565b34801561056457600080fd5b5061023f6105733660046121bd565b610f59565b34801561058457600080fd5b506102d661059336600461207c565b611106565b3480156105a457600080fd5b5061023f62278d0081565b3480156105bb57600080fd5b506102d66105ca36600461219b565b61112b565b3480156105db57600080fd5b5061023f61012f5481565b3480156105f257600080fd5b506102d661060136600461219b565b611157565b34801561061257600080fd5b506102d66106213660046121f0565b611362565b34801561063257600080fd5b506102d66106413660046120a8565b61154c565b34801561065257600080fd5b5061023f60008051602061254b83398151915281565b60006001600160e01b03198216637965db0b60e01b148061069957506301ffc9a760e01b6001600160e01b03198316145b92915050565b600260975414156106cb5760405162461bcd60e51b81526004016106c290612232565b60405180910390fd5b600260975560008051602061252b8339815191526106e881611597565b6000828152610131602052604090205461074e5760405162461bcd60e51b815260206004820152602160248201527f5751536176696e6750726f647563743a20696e76616c6964206475726174696f6044820152603760f91b60648201526084016106c2565b60008281526101316020526040812054670de0b6b3a7640000906301e133809061077990879061227f565b610783908861227f565b61078d919061229e565b610797919061229e565b6001600160a01b038716600090815261013260205260408120600101805492935087929091906107c89084906122c0565b90915550506001600160a01b03861660009081526101326020526040812060020180548392906107f99084906122d7565b909155506108239050333061080e84896122d7565b61012d546001600160a01b03169291906115a1565b60408051338152602081018790527fd7dee2702d63ad89917b6a4da9981c90c4d24f8c2bdfd64c604ecae57d8d0651910160405180910390a15050600160975550505050565b6002609754141561088c5760405162461bcd60e51b81526004016106c290612232565b600260975533600090815261013260205260409020600481015442116109075760405162461bcd60e51b815260206004820152602a60248201527f5751536176696e6750726f647563743a204c6f636b2074696d65206973206e6f6044820152691d081bdd995c881e595d60b21b60648201526084016106c2565b80548211156109635760405162461bcd60e51b815260206004820152602260248201527f5751536176696e6750726f647563743a20416d6f756e7420697320696e76616c6044820152611a5960f21b60648201526084016106c2565b6000670de0b6b3a7640000610130548461097d919061227f565b610987919061229e565b8254600684015491925060009161099e908661227f565b6109a8919061229e565b9050838360000160008282546109be91906122c0565b909155505082546109d157600060048401555b808360060160008282546109e591906122c0565b90915550610a18905033826109fa85886122c0565b610a0491906122c0565b61012d546001600160a01b03169190611612565b61012e54610a33906001600160a01b0316610a0483856122d7565b60408051338152602081018690527fb244b9a17ad633c6e83b7983ee04320484956a68ddbe96a0b70dfca1cf19d723910160405180910390a1505060016097555050565b600082815260656020526040902060010154610a9281611597565b610a9c8383611642565b505050565b6001600160a01b0381163314610b115760405162461bcd60e51b815260206004820152602f60248201527f416363657373436f6e74726f6c3a2063616e206f6e6c792072656e6f756e636560448201526e103937b632b9903337b91039b2b63360891b60648201526084016106c2565b610b1b82826116c8565b5050565b306001600160a01b037f0000000000000000000000000000000000000000000000000000000000000000161415610b685760405162461bcd60e51b81526004016106c2906122ef565b7f00000000000000000000000000000000000000000000000000000000000000006001600160a01b0316610bb160008051602061256b833981519152546001600160a01b031690565b6001600160a01b031614610bd75760405162461bcd60e51b81526004016106c29061233b565b610be08161172f565b60408051600080825260208201909252610bfc91839190611747565b50565b60026097541415610c225760405162461bcd60e51b81526004016106c290612232565b60026097553360009081526101326020526040902060040154421015610c995760405162461bcd60e51b815260206004820152602660248201527f5751536176696e6750726f647563743a20436c61696d206e6f7420616c6c6f776044820152651959081e595d60d21b60648201526084016106c2565b6000610ca433610efa565b3360009081526101326020526040812060030180549293508392909190610ccc9084906122d7565b909155505061012d54610ce9906001600160a01b03163383611612565b60408051338152602081018390527fd8138f8a3f377c5259ca548e70e4c2de94f129f5a11036a15b69513cba2b426a910160405180910390a1506001609755565b306001600160a01b037f0000000000000000000000000000000000000000000000000000000000000000161415610d735760405162461bcd60e51b81526004016106c2906122ef565b7f00000000000000000000000000000000000000000000000000000000000000006001600160a01b0316610dbc60008051602061256b833981519152546001600160a01b031690565b6001600160a01b031614610de25760405162461bcd60e51b81526004016106c29061233b565b610deb8261172f565b610b1b82826001611747565b6000306001600160a01b037f00000000000000000000000000000000000000000000000000000000000000001614610e975760405162461bcd60e51b815260206004820152603860248201527f555550535570677261646561626c653a206d757374206e6f742062652063616c60448201527f6c6564207468726f7567682064656c656761746563616c6c000000000000000060648201526084016106c2565b5060008051602061256b83398151915290565b6000805160206125b2833981519152610ec281611597565b506101309190915561012f55565b6001600160a01b0381166000908152610132602052604081206001810154905461069991906122c0565b6001600160a01b03811660009081526101326020526040812060038101546002820154610f2791906122c0565b9392505050565b60009182526065602090815260408084206001600160a01b0393909316845291905290205460ff1690565b600060026097541415610f7e5760405162461bcd60e51b81526004016106c290612232565b600260975560008051602061252b833981519152610f9b81611597565b6001600160a01b0385166000908152610132602052604090206004015442106110125760405162461bcd60e51b815260206004820152602360248201527f5751536176696e6750726f647563743a2043726564697420756e617661696c61604482015262626c6560e81b60648201526084016106c2565b6001600160a01b038516600090815261013260205260408120600101805486929061103e9084906122d7565b909155505061012d5461105b906001600160a01b03163386611612565b60408051338152602081018690527fac59582e5396aca512fa873a2047e7f4c80f8f55d4a06cb34a78a0187f62719f910160405180910390a160006110a3846201518061227f565b6110ad90426122d7565b6001600160a01b0387166000908152610132602052604090206004015490915081106110f5576001600160a01b038616600090815261013260205260409020600401546110f7565b805b60016097559695505050505050565b60008281526065602052604090206001015461112181611597565b610a9c83836116c8565b6000805160206125b283398151915261114381611597565b506000918252610131602052604090912055565b6002609754141561117a5760405162461bcd60e51b81526004016106c290612232565b6002609755600082815261013160205260409020546111e75760405162461bcd60e51b8152602060048201526024808201527f5751536176696e6750726f647563743a206c6f636b54696d6520697320696e76604482015263185b1a5960e21b60648201526084016106c2565b3360009081526101326020526040902060048101544210156112565760405162461bcd60e51b815260206004820152602260248201527f5751536176696e6750726f647563743a20616c7265616479206465706f736974604482015261195960f21b60648201526084016106c2565b600481015461128a5761126c836201518061227f565b61127690426122d7565b600482015560058101839055600060068201555b8181600001600082825461129e91906122d7565b92505081905550670de0b6b3a764000062278d004283600401546112c291906122c0565b61012f546112d0908661227f565b6112da919061227f565b6112e4919061229e565b6112ee919061229e565b81600601600082825461130191906122d7565b909155505061012d5461131f906001600160a01b03163330856115a1565b60408051338152602081018490527f88a5966d370b9919b20f3e2c13ff65706f196a4e32cc2c12bf57088f88525874910160405180910390a15050600160975550565b600054610100900460ff16158080156113825750600054600160ff909116105b8061139c5750303b15801561139c575060005460ff166001145b6113ff5760405162461bcd60e51b815260206004820152602e60248201527f496e697469616c697a61626c653a20636f6e747261637420697320616c72656160448201526d191e481a5b9a5d1a585b1a5e995960921b60648201526084016106c2565b6000805460ff191660011790558015611422576000805461ff0019166101001790555b61142a6118c1565b6114326118ea565b61143a6118c1565b611445600033611919565b61145d6000805160206125b283398151915233611919565b61147560008051602061254b83398151915233611919565b61149b60008051602061254b8339815191526000805160206125b2833981519152611923565b6114c160008051602061252b8339815191526000805160206125b2833981519152611923565b61012d80546001600160a01b038088166001600160a01b03199283161790925561012e80549287169290911691909117905561012f8390556101308290558015611545576000805461ff0019169055604051600181527f7f26b83ff96e1f2b6a682f133852f6798a09c465da95921460cefb38474024989060200160405180910390a15b5050505050565b6000805160206125b283398151915261156481611597565b5061012e80546001600160a01b0319166001600160a01b0392909216919091179055565b6001600160a01b03163b151590565b610bfc813361196e565b6040516001600160a01b038085166024830152831660448201526064810182905261160c9085906323b872dd60e01b906084015b60408051601f198184030181529190526020810180516001600160e01b03166001600160e01b0319909316929092179091526119d2565b50505050565b6040516001600160a01b038316602482015260448101829052610a9c90849063a9059cbb60e01b906064016115d5565b61164c8282610f2e565b610b1b5760008281526065602090815260408083206001600160a01b03851684529091529020805460ff191660011790556116843390565b6001600160a01b0316816001600160a01b0316837f2f8788117e7eff1d82e926ec794901d17c78024a50270940304540a733656f0d60405160405180910390a45050565b6116d28282610f2e565b15610b1b5760008281526065602090815260408083206001600160a01b0385168085529252808320805460ff1916905551339285917ff6391f5c32d9c69d2a47ea670b442974b53935d1edc7fd64eb21e047a839171b9190a45050565b60008051602061254b833981519152610b1b81611597565b7f4910fdfa16fed3260ed0e7147f7cc6da11a60208b5b9406d12a635614ffd91435460ff161561177a57610a9c83611aa4565b826001600160a01b03166352d1902d6040518163ffffffff1660e01b815260040160206040518083038186803b1580156117b357600080fd5b505afa9250505080156117e3575060408051601f3d908101601f191682019092526117e091810190612387565b60015b6118465760405162461bcd60e51b815260206004820152602e60248201527f45524331393637557067726164653a206e657720696d706c656d656e7461746960448201526d6f6e206973206e6f74205555505360901b60648201526084016106c2565b60008051602061256b83398151915281146118b55760405162461bcd60e51b815260206004820152602960248201527f45524331393637557067726164653a20756e737570706f727465642070726f786044820152681a58589b195555525160ba1b60648201526084016106c2565b50610a9c838383611b40565b600054610100900460ff166118e85760405162461bcd60e51b81526004016106c2906123a0565b565b600054610100900460ff166119115760405162461bcd60e51b81526004016106c2906123a0565b6118e8611b65565b610b1b8282611642565b600082815260656020526040808220600101805490849055905190918391839186917fbd79b86ffe0ab8e8776151514217cd7cacd52c909f66475c3af44e129f0b00ff9190a4505050565b6119788282610f2e565b610b1b57611990816001600160a01b03166014611b93565b61199b836020611b93565b6040516020016119ac929190612417565b60408051601f198184030181529082905262461bcd60e51b82526106c29160040161248c565b6000611a27826040518060400160405280602081526020017f5361666545524332303a206c6f772d6c6576656c2063616c6c206661696c6564815250856001600160a01b0316611d2f9092919063ffffffff16565b805190915015610a9c5780806020019051810190611a4591906124bf565b610a9c5760405162461bcd60e51b815260206004820152602a60248201527f5361666545524332303a204552433230206f7065726174696f6e20646964206e6044820152691bdd081cdd58d8d9595960b21b60648201526084016106c2565b6001600160a01b0381163b611b115760405162461bcd60e51b815260206004820152602d60248201527f455243313936373a206e657720696d706c656d656e746174696f6e206973206e60448201526c1bdd08184818dbdb9d1c9858dd609a1b60648201526084016106c2565b60008051602061256b83398151915280546001600160a01b0319166001600160a01b0392909216919091179055565b611b4983611d46565b600082511180611b565750805b15610a9c5761160c8383611d86565b600054610100900460ff16611b8c5760405162461bcd60e51b81526004016106c2906123a0565b6001609755565b60606000611ba283600261227f565b611bad9060026122d7565b67ffffffffffffffff811115611bc557611bc56120c3565b6040519080825280601f01601f191660200182016040528015611bef576020820181803683370190505b509050600360fc1b81600081518110611c0a57611c0a6124e1565b60200101906001600160f81b031916908160001a905350600f60fb1b81600181518110611c3957611c396124e1565b60200101906001600160f81b031916908160001a9053506000611c5d84600261227f565b611c689060016122d7565b90505b6001811115611ce0576f181899199a1a9b1b9c1cb0b131b232b360811b85600f1660108110611c9c57611c9c6124e1565b1a60f81b828281518110611cb257611cb26124e1565b60200101906001600160f81b031916908160001a90535060049490941c93611cd9816124f7565b9050611c6b565b508315610f275760405162461bcd60e51b815260206004820181905260248201527f537472696e67733a20686578206c656e67746820696e73756666696369656e7460448201526064016106c2565b6060611d3e8484600085611e7a565b949350505050565b611d4f81611aa4565b6040516001600160a01b038216907fbc7cd75a20ee27fd9adebab32041f755214dbc6bffa90cc0225b39da2e5c2d3b90600090a250565b60606001600160a01b0383163b611dee5760405162461bcd60e51b815260206004820152602660248201527f416464726573733a2064656c65676174652063616c6c20746f206e6f6e2d636f6044820152651b9d1c9858dd60d21b60648201526084016106c2565b600080846001600160a01b031684604051611e09919061250e565b600060405180830381855af49150503d8060008114611e44576040519150601f19603f3d011682016040523d82523d6000602084013e611e49565b606091505b5091509150611e71828260405180606001604052806027815260200161258b60279139611fab565b95945050505050565b606082471015611edb5760405162461bcd60e51b815260206004820152602660248201527f416464726573733a20696e73756666696369656e742062616c616e636520666f6044820152651c8818d85b1b60d21b60648201526084016106c2565b6001600160a01b0385163b611f325760405162461bcd60e51b815260206004820152601d60248201527f416464726573733a2063616c6c20746f206e6f6e2d636f6e747261637400000060448201526064016106c2565b600080866001600160a01b03168587604051611f4e919061250e565b60006040518083038185875af1925050503d8060008114611f8b576040519150601f19603f3d011682016040523d82523d6000602084013e611f90565b606091505b5091509150611fa0828286611fab565b979650505050505050565b60608315611fba575081610f27565b825115611fca5782518084602001fd5b8160405162461bcd60e51b81526004016106c2919061248c565b600060208284031215611ff657600080fd5b81356001600160e01b031981168114610f2757600080fd5b60006020828403121561202057600080fd5b5035919050565b80356001600160a01b038116811461203e57600080fd5b919050565b6000806000806080858703121561205957600080fd5b61206285612027565b966020860135965060408601359560600135945092505050565b6000806040838503121561208f57600080fd5b8235915061209f60208401612027565b90509250929050565b6000602082840312156120ba57600080fd5b610f2782612027565b634e487b7160e01b600052604160045260246000fd5b600080604083850312156120ec57600080fd5b6120f583612027565b9150602083013567ffffffffffffffff8082111561211257600080fd5b818501915085601f83011261212657600080fd5b813581811115612138576121386120c3565b604051601f8201601f19908116603f01168101908382118183101715612160576121606120c3565b8160405282815288602084870101111561217957600080fd5b8260208601602083013760006020848301015280955050505050509250929050565b600080604083850312156121ae57600080fd5b50508035926020909101359150565b6000806000606084860312156121d257600080fd5b6121db84612027565b95602085013595506040909401359392505050565b6000806000806080858703121561220657600080fd5b61220f85612027565b935061221d60208601612027565b93969395505050506040820135916060013590565b6020808252601f908201527f5265656e7472616e637947756172643a207265656e7472616e742063616c6c00604082015260600190565b634e487b7160e01b600052601160045260246000fd5b600081600019048311821515161561229957612299612269565b500290565b6000826122bb57634e487b7160e01b600052601260045260246000fd5b500490565b6000828210156122d2576122d2612269565b500390565b600082198211156122ea576122ea612269565b500190565b6020808252602c908201527f46756e6374696f6e206d7573742062652063616c6c6564207468726f7567682060408201526b19195b1959d85d1958d85b1b60a21b606082015260800190565b6020808252602c908201527f46756e6374696f6e206d7573742062652063616c6c6564207468726f7567682060408201526b6163746976652070726f787960a01b606082015260800190565b60006020828403121561239957600080fd5b5051919050565b6020808252602b908201527f496e697469616c697a61626c653a20636f6e7472616374206973206e6f74206960408201526a6e697469616c697a696e6760a81b606082015260800190565b60005b838110156124065781810151838201526020016123ee565b8381111561160c5750506000910152565b7f416363657373436f6e74726f6c3a206163636f756e742000000000000000000081526000835161244f8160178501602088016123eb565b7001034b99036b4b9b9b4b733903937b6329607d1b60179184019182015283516124808160288401602088016123eb565b01602801949350505050565b60208152600082518060208401526124ab8160408501602087016123eb565b601f01601f19169190910160400192915050565b6000602082840312156124d157600080fd5b81518015158114610f2757600080fd5b634e487b7160e01b600052603260045260246000fd5b60008161250657612506612269565b506000190190565b600082516125208184602087016123eb565b919091019291505056fe2344277e405079ec07749d374ba0b5862a4e45a6a05ac889dbb4a991c6f9354d189ab7a9244df0848122154315af71fe140f3db0fe014031783b0946b8c9d2e3360894a13ba1a3210667c828492db98dca3e2076cc3735a920a3ca505d382bbc416464726573733a206c6f772d6c6576656c2064656c65676174652063616c6c206661696c6564a49807205ce4d355092ef5a8a18f56e8913cf4a201fbe287825b095693c21775a2646970667358221220fe6117439c3e7504328e1c7c4e7868040af83ff50831820b0cc6597e155acd7664736f6c63430008090033",
  "linkReferences": {},
  "deployedLinkReferences": {}
}