{
  "_format": "hh-sol-artifact-1",
  "contractName": "WQCollateralAuction",
  "sourceName": "contracts/stablecoin/WQCollateralAuction.sol",
  "abi": [
    {
      "inputs": [],
      "stateMutability": "nonpayable",
      "type": "constructor"
    },
    {
      "anonymous": false,
      "inputs": [
        {
          "indexed": false,
          "internalType": "address",
          "name": "previousAdmin",
          "type": "address"
        },
        {
          "indexed": false,
          "internalType": "address",
          "name": "newAdmin",
          "type": "address"
        }
      ],
      "name": "AdminChanged",
      "type": "event"
    },
    {
      "anonymous": false,
      "inputs": [
        {
          "indexed": false,
          "internalType": "uint256",
          "name": "index",
          "type": "uint256"
        },
        {
          "indexed": false,
          "internalType": "uint256",
          "name": "amount",
          "type": "uint256"
        },
        {
          "indexed": false,
          "internalType": "uint256",
          "name": "endCost",
          "type": "uint256"
        }
      ],
      "name": "AuctionStarted",
      "type": "event"
    },
    {
      "anonymous": false,
      "inputs": [
        {
          "indexed": true,
          "internalType": "address",
          "name": "beacon",
          "type": "address"
        }
      ],
      "name": "BeaconUpgraded",
      "type": "event"
    },
    {
      "anonymous": false,
      "inputs": [
        {
          "indexed": false,
          "internalType": "address",
          "name": "buyer",
          "type": "address"
        },
        {
          "indexed": false,
          "internalType": "uint256",
          "name": "index",
          "type": "uint256"
        },
        {
          "indexed": false,
          "internalType": "uint256",
          "name": "amount",
          "type": "uint256"
        },
        {
          "indexed": false,
          "internalType": "uint256",
          "name": "cost",
          "type": "uint256"
        },
        {
          "indexed": false,
          "internalType": "uint256",
          "name": "price",
          "type": "uint256"
        }
      ],
      "name": "LotBuyed",
      "type": "event"
    },
    {
      "anonymous": false,
      "inputs": [
        {
          "indexed": false,
          "internalType": "uint256",
          "name": "index",
          "type": "uint256"
        },
        {
          "indexed": false,
          "internalType": "uint256",
          "name": "amount",
          "type": "uint256"
        },
        {
          "indexed": false,
          "internalType": "uint256",
          "name": "cost",
          "type": "uint256"
        }
      ],
      "name": "LotCanceled",
      "type": "event"
    },
    {
      "anonymous": false,
      "inputs": [
        {
          "indexed": true,
          "internalType": "bytes32",
          "name": "role",
          "type": "bytes32"
        },
        {
          "indexed": true,
          "internalType": "bytes32",
          "name": "previousAdminRole",
          "type": "bytes32"
        },
        {
          "indexed": true,
          "internalType": "bytes32",
          "name": "newAdminRole",
          "type": "bytes32"
        }
      ],
      "name": "RoleAdminChanged",
      "type": "event"
    },
    {
      "anonymous": false,
      "inputs": [
        {
          "indexed": true,
          "internalType": "bytes32",
          "name": "role",
          "type": "bytes32"
        },
        {
          "indexed": true,
          "internalType": "address",
          "name": "account",
          "type": "address"
        },
        {
          "indexed": true,
          "internalType": "address",
          "name": "sender",
          "type": "address"
        }
      ],
      "name": "RoleGranted",
      "type": "event"
    },
    {
      "anonymous": false,
      "inputs": [
        {
          "indexed": true,
          "internalType": "bytes32",
          "name": "role",
          "type": "bytes32"
        },
        {
          "indexed": true,
          "internalType": "address",
          "name": "account",
          "type": "address"
        },
        {
          "indexed": true,
          "internalType": "address",
          "name": "sender",
          "type": "address"
        }
      ],
      "name": "RoleRevoked",
      "type": "event"
    },
    {
      "anonymous": false,
      "inputs": [
        {
          "indexed": true,
          "internalType": "address",
          "name": "implementation",
          "type": "address"
        }
      ],
      "name": "Upgraded",
      "type": "event"
    },
    {
      "inputs": [],
      "name": "ADMIN_ROLE",
      "outputs": [
        {
          "internalType": "bytes32",
          "name": "",
          "type": "bytes32"
        }
      ],
      "stateMutability": "view",
      "type": "function"
    },
    {
      "inputs": [],
      "name": "DEFAULT_ADMIN_ROLE",
      "outputs": [
        {
          "internalType": "bytes32",
          "name": "",
          "type": "bytes32"
        }
      ],
      "stateMutability": "view",
      "type": "function"
    },
    {
      "inputs": [],
      "name": "SERVICE_ROLE",
      "outputs": [
        {
          "internalType": "bytes32",
          "name": "",
          "type": "bytes32"
        }
      ],
      "stateMutability": "view",
      "type": "function"
    },
    {
      "inputs": [],
      "name": "UPGRADER_ROLE",
      "outputs": [
        {
          "internalType": "bytes32",
          "name": "",
          "type": "bytes32"
        }
      ],
      "stateMutability": "view",
      "type": "function"
    },
    {
      "inputs": [
        {
          "internalType": "address",
          "name": "user",
          "type": "address"
        },
        {
          "internalType": "uint256",
          "name": "price",
          "type": "uint256"
        },
        {
          "internalType": "uint256",
          "name": "amount",
          "type": "uint256"
        },
        {
          "internalType": "uint256",
          "name": "ratio",
          "type": "uint256"
        }
      ],
      "name": "addLot",
      "outputs": [
        {
          "internalType": "uint256",
          "name": "",
          "type": "uint256"
        }
      ],
      "stateMutability": "nonpayable",
      "type": "function"
    },
    {
      "inputs": [],
      "name": "auctionDuration",
      "outputs": [
        {
          "internalType": "uint256",
          "name": "",
          "type": "uint256"
        }
      ],
      "stateMutability": "view",
      "type": "function"
    },
    {
      "inputs": [
        {
          "internalType": "uint256",
          "name": "index",
          "type": "uint256"
        }
      ],
      "name": "buyLot",
      "outputs": [],
      "stateMutability": "nonpayable",
      "type": "function"
    },
    {
      "inputs": [
        {
          "internalType": "uint256",
          "name": "index",
          "type": "uint256"
        }
      ],
      "name": "cancelAuction",
      "outputs": [],
      "stateMutability": "nonpayable",
      "type": "function"
    },
    {
      "inputs": [
        {
          "internalType": "uint256",
          "name": "index",
          "type": "uint256"
        },
        {
          "internalType": "uint256",
          "name": "collaterralPart",
          "type": "uint256"
        }
      ],
      "name": "decreaseLotAmount",
      "outputs": [
        {
          "internalType": "uint256",
          "name": "",
          "type": "uint256"
        }
      ],
      "stateMutability": "nonpayable",
      "type": "function"
    },
    {
      "inputs": [],
      "name": "disableReserves",
      "outputs": [],
      "stateMutability": "nonpayable",
      "type": "function"
    },
    {
      "inputs": [],
      "name": "enableReserves",
      "outputs": [],
      "stateMutability": "nonpayable",
      "type": "function"
    },
    {
      "inputs": [],
      "name": "feePlatform",
      "outputs": [
        {
          "internalType": "uint256",
          "name": "",
          "type": "uint256"
        }
      ],
      "stateMutability": "view",
      "type": "function"
    },
    {
      "inputs": [],
      "name": "feeReserves",
      "outputs": [
        {
          "internalType": "uint256",
          "name": "",
          "type": "uint256"
        }
      ],
      "stateMutability": "view",
      "type": "function"
    },
    {
      "inputs": [],
      "name": "feeRewards",
      "outputs": [
        {
          "internalType": "uint256",
          "name": "",
          "type": "uint256"
        }
      ],
      "stateMutability": "view",
      "type": "function"
    },
    {
      "inputs": [
        {
          "internalType": "uint256",
          "name": "index",
          "type": "uint256"
        }
      ],
      "name": "getComission",
      "outputs": [
        {
          "internalType": "uint256",
          "name": "",
          "type": "uint256"
        }
      ],
      "stateMutability": "view",
      "type": "function"
    },
    {
      "inputs": [
        {
          "internalType": "uint256",
          "name": "index",
          "type": "uint256"
        }
      ],
      "name": "getCurrentLotCost",
      "outputs": [
        {
          "internalType": "uint256",
          "name": "",
          "type": "uint256"
        }
      ],
      "stateMutability": "view",
      "type": "function"
    },
    {
      "inputs": [
        {
          "internalType": "uint256",
          "name": "index",
          "type": "uint256"
        }
      ],
      "name": "getLiquidatedCollaterallAmount",
      "outputs": [
        {
          "internalType": "uint256",
          "name": "",
          "type": "uint256"
        }
      ],
      "stateMutability": "view",
      "type": "function"
    },
    {
      "inputs": [
        {
          "internalType": "uint256",
          "name": "index",
          "type": "uint256"
        }
      ],
      "name": "getLotInfo",
      "outputs": [
        {
          "internalType": "uint256",
          "name": "",
          "type": "uint256"
        },
        {
          "internalType": "uint256",
          "name": "",
          "type": "uint256"
        },
        {
          "internalType": "uint256",
          "name": "",
          "type": "uint256"
        }
      ],
      "stateMutability": "view",
      "type": "function"
    },
    {
      "inputs": [
        {
          "internalType": "uint256",
          "name": "index",
          "type": "uint256"
        }
      ],
      "name": "getLotOwner",
      "outputs": [
        {
          "internalType": "address",
          "name": "",
          "type": "address"
        }
      ],
      "stateMutability": "view",
      "type": "function"
    },
    {
      "inputs": [
        {
          "internalType": "uint256",
          "name": "index",
          "type": "uint256"
        }
      ],
      "name": "getLotStatus",
      "outputs": [
        {
          "internalType": "uint8",
          "name": "",
          "type": "uint8"
        }
      ],
      "stateMutability": "view",
      "type": "function"
    },
    {
      "inputs": [
        {
          "internalType": "uint256",
          "name": "offset",
          "type": "uint256"
        },
        {
          "internalType": "uint256",
          "name": "limit",
          "type": "uint256"
        }
      ],
      "name": "getLots",
      "outputs": [
        {
          "components": [
            {
              "internalType": "address",
              "name": "user",
              "type": "address"
            },
            {
              "internalType": "uint256",
              "name": "price",
              "type": "uint256"
            },
            {
              "internalType": "uint256",
              "name": "amount",
              "type": "uint256"
            },
            {
              "internalType": "uint256",
              "name": "ratio",
              "type": "uint256"
            },
            {
              "internalType": "uint256",
              "name": "saleAmount",
              "type": "uint256"
            },
            {
              "internalType": "uint256",
              "name": "endPrice",
              "type": "uint256"
            },
            {
              "internalType": "uint256",
              "name": "endTime",
              "type": "uint256"
            },
            {
              "internalType": "enum WQCollateralAuction.LotStatus",
              "name": "status",
              "type": "uint8"
            }
          ],
          "internalType": "struct WQCollateralAuction.LotInfo[]",
          "name": "page",
          "type": "tuple[]"
        }
      ],
      "stateMutability": "view",
      "type": "function"
    },
    {
      "inputs": [
        {
          "internalType": "bytes32",
          "name": "role",
          "type": "bytes32"
        }
      ],
      "name": "getRoleAdmin",
      "outputs": [
        {
          "internalType": "bytes32",
          "name": "",
          "type": "bytes32"
        }
      ],
      "stateMutability": "view",
      "type": "function"
    },
    {
      "inputs": [
        {
          "internalType": "bytes32",
          "name": "role",
          "type": "bytes32"
        },
        {
          "internalType": "address",
          "name": "account",
          "type": "address"
        }
      ],
      "name": "grantRole",
      "outputs": [],
      "stateMutability": "nonpayable",
      "type": "function"
    },
    {
      "inputs": [
        {
          "internalType": "bytes32",
          "name": "role",
          "type": "bytes32"
        },
        {
          "internalType": "address",
          "name": "account",
          "type": "address"
        }
      ],
      "name": "hasRole",
      "outputs": [
        {
          "internalType": "bool",
          "name": "",
          "type": "bool"
        }
      ],
      "stateMutability": "view",
      "type": "function"
    },
    {
      "inputs": [
        {
          "internalType": "address",
          "name": "_token",
          "type": "address"
        },
        {
          "internalType": "address",
          "name": "_oracle",
          "type": "address"
        },
        {
          "internalType": "address",
          "name": "_router",
          "type": "address"
        },
        {
          "internalType": "uint256",
          "name": "_liquidateThreshold",
          "type": "uint256"
        },
        {
          "internalType": "uint256",
          "name": "_auctionDuration",
          "type": "uint256"
        },
        {
          "internalType": "uint256",
          "name": "_feeRewards",
          "type": "uint256"
        },
        {
          "internalType": "uint256",
          "name": "_feePlatform",
          "type": "uint256"
        },
        {
          "internalType": "uint256",
          "name": "_feeReserves",
          "type": "uint256"
        }
      ],
      "name": "initialize",
      "outputs": [],
      "stateMutability": "nonpayable",
      "type": "function"
    },
    {
      "inputs": [],
      "name": "liquidateThreshold",
      "outputs": [
        {
          "internalType": "uint256",
          "name": "",
          "type": "uint256"
        }
      ],
      "stateMutability": "view",
      "type": "function"
    },
    {
      "inputs": [
        {
          "internalType": "uint256",
          "name": "",
          "type": "uint256"
        }
      ],
      "name": "lots",
      "outputs": [
        {
          "internalType": "address",
          "name": "user",
          "type": "address"
        },
        {
          "internalType": "uint256",
          "name": "price",
          "type": "uint256"
        },
        {
          "internalType": "uint256",
          "name": "amount",
          "type": "uint256"
        },
        {
          "internalType": "uint256",
          "name": "ratio",
          "type": "uint256"
        },
        {
          "internalType": "uint256",
          "name": "saleAmount",
          "type": "uint256"
        },
        {
          "internalType": "uint256",
          "name": "endPrice",
          "type": "uint256"
        },
        {
          "internalType": "uint256",
          "name": "endTime",
          "type": "uint256"
        },
        {
          "internalType": "enum WQCollateralAuction.LotStatus",
          "name": "status",
          "type": "uint8"
        }
      ],
      "stateMutability": "view",
      "type": "function"
    },
    {
      "inputs": [
        {
          "internalType": "uint256",
          "name": "index",
          "type": "uint256"
        },
        {
          "internalType": "uint256",
          "name": "newPrice",
          "type": "uint256"
        },
        {
          "internalType": "uint256",
          "name": "newAmount",
          "type": "uint256"
        }
      ],
      "name": "moveLot",
      "outputs": [
        {
          "internalType": "uint256",
          "name": "",
          "type": "uint256"
        }
      ],
      "stateMutability": "nonpayable",
      "type": "function"
    },
    {
      "inputs": [],
      "name": "oracle",
      "outputs": [
        {
          "internalType": "contract WQPriceOracleInterface",
          "name": "",
          "type": "address"
        }
      ],
      "stateMutability": "view",
      "type": "function"
    },
    {
      "inputs": [],
      "name": "proxiableUUID",
      "outputs": [
        {
          "internalType": "bytes32",
          "name": "",
          "type": "bytes32"
        }
      ],
      "stateMutability": "view",
      "type": "function"
    },
    {
      "inputs": [
        {
          "internalType": "bytes32",
          "name": "role",
          "type": "bytes32"
        },
        {
          "internalType": "address",
          "name": "account",
          "type": "address"
        }
      ],
      "name": "renounceRole",
      "outputs": [],
      "stateMutability": "nonpayable",
      "type": "function"
    },
    {
      "inputs": [],
      "name": "reservesEnabled",
      "outputs": [
        {
          "internalType": "bool",
          "name": "",
          "type": "bool"
        }
      ],
      "stateMutability": "view",
      "type": "function"
    },
    {
      "inputs": [
        {
          "internalType": "uint256",
          "name": "index",
          "type": "uint256"
        }
      ],
      "name": "restartAuction",
      "outputs": [],
      "stateMutability": "nonpayable",
      "type": "function"
    },
    {
      "inputs": [
        {
          "internalType": "bytes32",
          "name": "role",
          "type": "bytes32"
        },
        {
          "internalType": "address",
          "name": "account",
          "type": "address"
        }
      ],
      "name": "revokeRole",
      "outputs": [],
      "stateMutability": "nonpayable",
      "type": "function"
    },
    {
      "inputs": [],
      "name": "router",
      "outputs": [
        {
          "internalType": "contract WQRouterInterface",
          "name": "",
          "type": "address"
        }
      ],
      "stateMutability": "view",
      "type": "function"
    },
    {
      "inputs": [
        {
          "internalType": "uint256",
          "name": "duration",
          "type": "uint256"
        }
      ],
      "name": "setAuctionDuration",
      "outputs": [],
      "stateMutability": "nonpayable",
      "type": "function"
    },
    {
      "inputs": [
        {
          "internalType": "uint256",
          "name": "percent",
          "type": "uint256"
        }
      ],
      "name": "setLiquidateTreshold",
      "outputs": [],
      "stateMutability": "nonpayable",
      "type": "function"
    },
    {
      "inputs": [
        {
          "internalType": "address",
          "name": "_oracle",
          "type": "address"
        }
      ],
      "name": "setOracle",
      "outputs": [],
      "stateMutability": "nonpayable",
      "type": "function"
    },
    {
      "inputs": [
        {
          "internalType": "uint256",
          "name": "_feeRewards",
          "type": "uint256"
        },
        {
          "internalType": "uint256",
          "name": "_feePlatform",
          "type": "uint256"
        },
        {
          "internalType": "uint256",
          "name": "_feeReserves",
          "type": "uint256"
        }
      ],
      "name": "setRate",
      "outputs": [],
      "stateMutability": "nonpayable",
      "type": "function"
    },
    {
      "inputs": [
        {
          "internalType": "address",
          "name": "_router",
          "type": "address"
        }
      ],
      "name": "setRouter",
      "outputs": [],
      "stateMutability": "nonpayable",
      "type": "function"
    },
    {
      "inputs": [
        {
          "internalType": "address",
          "name": "_token",
          "type": "address"
        }
      ],
      "name": "setToken",
      "outputs": [],
      "stateMutability": "nonpayable",
      "type": "function"
    },
    {
      "inputs": [
        {
          "internalType": "uint256",
          "name": "index",
          "type": "uint256"
        },
        {
          "internalType": "uint256",
          "name": "amount",
          "type": "uint256"
        }
      ],
      "name": "startAuction",
      "outputs": [],
      "stateMutability": "nonpayable",
      "type": "function"
    },
    {
      "inputs": [
        {
          "internalType": "bytes4",
          "name": "interfaceId",
          "type": "bytes4"
        }
      ],
      "name": "supportsInterface",
      "outputs": [
        {
          "internalType": "bool",
          "name": "",
          "type": "bool"
        }
      ],
      "stateMutability": "view",
      "type": "function"
    },
    {
      "inputs": [],
      "name": "token",
      "outputs": [
        {
          "internalType": "contract IERC20MetadataUpgradeable",
          "name": "",
          "type": "address"
        }
      ],
      "stateMutability": "view",
      "type": "function"
    },
    {
      "inputs": [],
      "name": "totalAuctioned",
      "outputs": [
        {
          "internalType": "uint256",
          "name": "",
          "type": "uint256"
        }
      ],
      "stateMutability": "view",
      "type": "function"
    },
    {
      "inputs": [
        {
          "internalType": "address",
          "name": "newImplementation",
          "type": "address"
        }
      ],
      "name": "upgradeTo",
      "outputs": [],
      "stateMutability": "nonpayable",
      "type": "function"
    },
    {
      "inputs": [
        {
          "internalType": "address",
          "name": "newImplementation",
          "type": "address"
        },
        {
          "internalType": "bytes",
          "name": "data",
          "type": "bytes"
        }
      ],
      "name": "upgradeToAndCall",
      "outputs": [],
      "stateMutability": "payable",
      "type": "function"
    }
  ],
  "bytecode": "0x60a0604052306080523480156200001557600080fd5b50600054610100900460ff16620000335760005460ff16156200003d565b6200003d620000e2565b620000a55760405162461bcd60e51b815260206004820152602e60248201527f496e697469616c697a61626c653a20636f6e747261637420697320616c72656160448201526d191e481a5b9a5d1a585b1a5e995960921b606482015260840160405180910390fd5b600054610100900460ff16158015620000c8576000805461ffff19166101011790555b8015620000db576000805461ff00191690555b506200010f565b6000620000fa306200010060201b6200272b1760201c565b15905090565b6001600160a01b03163b151590565b608051613f786200014760003960008181610a1101528181610a5101528181610c0f01528181610c4f01526111790152613f786000f3fe6080604052600436106102885760003560e01c806391d148541161015a578063c41600fe116100c1578063f1648e841161007a578063f1648e84146107d7578063f72c0d8b1461080b578063f887ea401461082d578063fc0c546a1461084e578063fdcb648c1461086f578063ffb671861461088657600080fd5b8063c41600fe14610717578063cc6b3be314610737578063d0896c5514610757578063d25ccf5314610777578063d547741f14610797578063df8fa430146107b757600080fd5b8063a497e67411610113578063a497e67414610669578063afe0b64114610689578063b188a849146106a9578063b70a07ea146106c0578063c0d78655146106e0578063c375a48b1461070057600080fd5b806391d14854146105a557806396b5a755146105c5578063997e7c36146105e55780639ea687a714610617578063a20e7d4714610632578063a217fddf1461065457600080fd5b80633a1a7327116101fe57806374e3e3dc116101b757806374e3e3dc146104e057806375b238fc1461050057806376446013146105225780637adbf973146105375780637dc0d1d014610557578063874f5cbb1461057857600080fd5b80633a1a7327146104205780634823bd55146104585780634f1ef286146104785780634fee13fc1461048b57806352d1902d146104ab578063535bb867146104c057600080fd5b80632f1b1303116102505780632f1b1303146103505780632f2ff15d1461038b57806336568abe146103ab5780633659cfe6146103cb57806336c1d235146103eb5780633989c6661461040057600080fd5b806301ffc9a71461028d5780630cbf54c8146102c25780631273cdc4146102e7578063144fa6d7146102fe578063248a9ca314610320575b600080fd5b34801561029957600080fd5b506102ad6102a83660046134cb565b61089d565b60405190151581526020015b60405180910390f35b3480156102ce57600080fd5b506102d96101315481565b6040519081526020016102b9565b3480156102f357600080fd5b506102d96101335481565b34801561030a57600080fd5b5061031e610319366004613511565b6108d4565b005b34801561032c57600080fd5b506102d961033b36600461352c565b60009081526065602052604090206001015490565b34801561035c57600080fd5b5061037061036b36600461352c565b610911565b604080519384526020840192909252908201526060016102b9565b34801561039757600080fd5b5061031e6103a6366004613545565b610958565b3480156103b757600080fd5b5061031e6103c6366004613545565b610983565b3480156103d757600080fd5b5061031e6103e6366004613511565b610a06565b3480156103f757600080fd5b5061031e610ae6565b34801561040c57600080fd5b5061031e61041b366004613571565b610b3e565b34801561042c57600080fd5b5061044061043b36600461352c565b610b69565b6040516001600160a01b0390911681526020016102b9565b34801561046457600080fd5b506102d961047336600461352c565b610b9f565b61031e61048636600461360c565b610c04565b34801561049757600080fd5b5061031e6104a636600461369d565b610cd1565b3480156104b757600080fd5b506102d961116c565b3480156104cc57600080fd5b506102d96104db36600461352c565b61121f565b3480156104ec57600080fd5b5061031e6104fb36600461352c565b611395565b34801561050c57600080fd5b506102d9600080516020613f2383398151915281565b34801561052e57600080fd5b5061031e611935565b34801561054357600080fd5b5061031e610552366004613511565b611989565b34801561056357600080fd5b5061012d54610440906001600160a01b031681565b34801561058457600080fd5b5061059861059336600461369d565b6119c6565b6040516102b991906136f7565b3480156105b157600080fd5b506102ad6105c0366004613545565b611b45565b3480156105d157600080fd5b5061031e6105e036600461352c565b611b70565b3480156105f157600080fd5b5061060561060036600461352c565b611c5f565b60405160ff90911681526020016102b9565b34801561062357600080fd5b50610136546102ad9060ff1681565b34801561063e57600080fd5b506102d9600080516020613e9c83398151915281565b34801561066057600080fd5b506102d9600081565b34801561067557600080fd5b5061031e61068436600461352c565b611c9d565b34801561069557600080fd5b506102d96106a436600461352c565b611cbd565b3480156106b557600080fd5b506102d96101355481565b3480156106cc57600080fd5b506102d96106db366004613571565b612023565b3480156106ec57600080fd5b5061031e6106fb366004613511565b6120ac565b34801561070c57600080fd5b506102d96101345481565b34801561072357600080fd5b5061031e61073236600461352c565b6120e9565b34801561074357600080fd5b506102d9610752366004613799565b612109565b34801561076357600080fd5b506102d961077236600461369d565b612253565b34801561078357600080fd5b5061031e61079236600461352c565b6122f9565b3480156107a357600080fd5b5061031e6107b2366004613545565b6124e3565b3480156107c357600080fd5b5061031e6107d23660046137d2565b612509565b3480156107e357600080fd5b506107f76107f236600461352c565b6126c7565b6040516102b9989796959493929190613843565b34801561081757600080fd5b506102d9600080516020613ebc83398151915281565b34801561083957600080fd5b5061012e54610440906001600160a01b031681565b34801561085a57600080fd5b5061012f54610440906001600160a01b031681565b34801561087b57600080fd5b506102d96101305481565b34801561089257600080fd5b506102d96101325481565b60006001600160e01b03198216637965db0b60e01b14806108ce57506301ffc9a760e01b6001600160e01b03198316145b92915050565b600080516020613f238339815191526108ed813361273a565b5061012f80546001600160a01b0319166001600160a01b0392909216919091179055565b600080600080610137858154811061092b5761092b613898565b90600052602060002090600802019050806002015481600101548260030154935093509350509193909250565b600082815260656020526040902060010154610974813361273a565b61097e838361279e565b505050565b6001600160a01b03811633146109f85760405162461bcd60e51b815260206004820152602f60248201527f416363657373436f6e74726f6c3a2063616e206f6e6c792072656e6f756e636560448201526e103937b632b9903337b91039b2b63360891b60648201526084015b60405180910390fd5b610a028282612824565b5050565b306001600160a01b037f0000000000000000000000000000000000000000000000000000000000000000161415610a4f5760405162461bcd60e51b81526004016109ef906138ae565b7f00000000000000000000000000000000000000000000000000000000000000006001600160a01b0316610a98600080516020613edc833981519152546001600160a01b031690565b6001600160a01b031614610abe5760405162461bcd60e51b81526004016109ef906138fa565b610ac78161288b565b60408051600080825260208201909252610ae3918391906128a4565b50565b60026097541415610b095760405162461bcd60e51b81526004016109ef90613946565b6002609755600080516020613e9c833981519152610b27813361273a565b50610136805460ff19166001908117909155609755565b600080516020613f23833981519152610b57813361273a565b50610134929092556101335561013555565b60006101378281548110610b7f57610b7f613898565b60009182526020909120600890910201546001600160a01b031692915050565b6000670de0b6b3a7640000610135546101335461013454610bc09190613993565b610bca9190613993565b6101378481548110610bde57610bde613898565b906000526020600020906008020160040154610bfa91906139ab565b6108ce91906139ca565b306001600160a01b037f0000000000000000000000000000000000000000000000000000000000000000161415610c4d5760405162461bcd60e51b81526004016109ef906138ae565b7f00000000000000000000000000000000000000000000000000000000000000006001600160a01b0316610c96600080516020613edc833981519152546001600160a01b031690565b6001600160a01b031614610cbc5760405162461bcd60e51b81526004016109ef906138fa565b610cc58261288b565b610a02828260016128a4565b60026097541415610cf45760405162461bcd60e51b81526004016109ef90613946565b600260975561012d5461012f54604080516395d89b4160e01b815290516000936001600160a01b0390811693630292e0fd939116916395d89b41916004808201928892909190829003018186803b158015610d4e57600080fd5b505afa158015610d62573d6000803e3d6000fd5b505050506040513d6000823e601f3d908101601f19168201604052610d8a9190810190613a18565b6040518263ffffffff1660e01b8152600401610da69190613ab2565b60206040518083038186803b158015610dbe57600080fd5b505afa158015610dd2573d6000803e3d6000fd5b505050506040513d601f19601f82011682018060405250810190610df69190613ac5565b905060006101378481548110610e0e57610e0e613898565b6000918252602090912060089091020190506001600782015460ff166003811115610e3b57610e3b6136bf565b14610e885760405162461bcd60e51b815260206004820152601c60248201527f575141756374696f6e3a20537461747573206973206e6f74204e65770000000060448201526064016109ef565b60008160010154826003015484610e9f91906139ab565b610ea991906139ca565b90506101305481108015610ec55750670de0b6b3a76400008110155b80610ee557506101365460ff168015610ee55750670de0b6b3a764000081105b610f475760405162461bcd60e51b815260206004820152602d60248201527f575141756374696f6e3a2054686973206c6f74206973206e6f7420617661696c60448201526c61626c6520666f722073616c6560981b60648201526084016109ef565b60048201849055610f5785611cbd565b841115610fce576040805162461bcd60e51b81526020600482015260248101919091527f575141756374696f6e3a20416d6f756e74206f6620746f6b656e73207075726360448201527f68617365642069732067726561746572207468616e206c6f7420616d6f756e7460648201526084016109ef565b6101365460ff16156110f05761012f546040516370a0823160e01b81523060048201526001600160a01b03909116906370a082319060240160206040518083038186803b15801561101e57600080fd5b505afa158015611032573d6000803e3d6000fd5b505050506040513d601f19601f820116820180604052508101906110569190613ac5565b82600201546110659190613993565b8411156110f05760405162461bcd60e51b815260206004820152604d60248201527f575141756374696f6e3a20416d6f756e74206f6620746f6b656e73207075726360448201527f68617365642069732067726561746572207468616e206c6f7420616d6f756e7460648201526c20616e6420726573657276657360981b608482015260a4016109ef565b60058201839055610131546111059042613993565b600683015560078201805460ff1916600217905560058201546040805187815260208101879052908101919091527f44c53be110c6aa83aa83cd02e351ed172359268272ee1b5d31c0fe48db35c6c79060600160405180910390a150506001609755505050565b6000306001600160a01b037f0000000000000000000000000000000000000000000000000000000000000000161461120c5760405162461bcd60e51b815260206004820152603860248201527f555550535570677261646561626c653a206d757374206e6f742062652063616c60448201527f6c6564207468726f7567682064656c656761746563616c6c000000000000000060648201526084016109ef565b50600080516020613edc83398151915290565b600080610137838154811061123657611236613898565b6000918252602090912060089091020190506002600782015460ff166003811115611263576112636136bf565b146112bc5760405162461bcd60e51b8152602060048201526024808201527f575141756374696f6e3a2054686973206c6f74206973206e6f742061756374696044820152631bdb995960e21b60648201526084016109ef565b670de0b6b3a76400006112ce82612a1e565b61012f60009054906101000a90046001600160a01b03166001600160a01b031663313ce5676040518163ffffffff1660e01b815260040160206040518083038186803b15801561131d57600080fd5b505afa158015611331573d6000803e3d6000fd5b505050506040513d601f19601f820116820180604052508101906113559190613ade565b611360906012613b01565b61136b90600a613c08565b836004015461137a91906139ab565b61138491906139ab565b61138e91906139ca565b9392505050565b600260975414156113b85760405162461bcd60e51b81526004016109ef90613946565b6002609781905550600061013782815481106113d6576113d6613898565b6000918252602090912060089091020190506002600782015460ff166003811115611403576114036136bf565b146114205760405162461bcd60e51b81526004016109ef90613c17565b80600601544211156114745760405162461bcd60e51b815260206004820152601f60248201527f575141756374696f6e3a2041756374696f6e2074696d65206973206f7665720060448201526064016109ef565b61012f546040805163313ce56760e01b815290516000926001600160a01b03169163313ce567916004808301926020929190829003018186803b1580156114ba57600080fd5b505afa1580156114ce573d6000803e3d6000fd5b505050506040513d601f19601f820116820180604052508101906114f29190613ade565b6114fd906012613b01565b61150890600a613c08565b90506000670de0b6b3a764000061151e84612a1e565b83856004015461152e91906139ab565b61153891906139ab565b61154291906139ca565b9050600061154f85610b9f565b9050670de0b6b3a764000084600101548560030154866005015461157391906139ab565b61157d91906139ca565b1061171257818460030154848660010154876002015461159d91906139ab565b6115a791906139ab565b6115b191906139ca565b6115bb9190613c4e565b84600101548483876004015488600201546115d69190613c4e565b6115e09190613c4e565b6115ea91906139ab565b6115f491906139ab565b6115fe91906139ca565b6003850155600484015460028501805460009061161c908490613c4e565b909155505061012e5460048086015461012f54604080516395d89b4160e01b815290516001600160a01b039586169563bb537b509533958d958b9591949316926395d89b4192828101926000929190829003018186803b15801561167f57600080fd5b505afa158015611693573d6000803e3d6000fd5b505050506040513d6000823e601f3d908101601f191682016040526116bb9190810190613a18565b6040518663ffffffff1660e01b81526004016116db959493929190613c65565b600060405180830381600087803b1580156116f557600080fd5b505af1158015611709573d6000803e3d6000fd5b505050506118ae565b6101365460ff166117705760405162461bcd60e51b815260206004820152602260248201527f575141756374696f6e3a205265736572766573206973206e6f7420656e61626c604482015261195960f21b60648201526084016109ef565b61012e5460028501546001600160a01b039091169063bb537b509033908890869061179c908790613993565b61012f60009054906101000a90046001600160a01b03166001600160a01b03166395d89b416040518163ffffffff1660e01b815260040160006040518083038186803b1580156117eb57600080fd5b505afa1580156117ff573d6000803e3d6000fd5b505050506040513d6000823e601f3d908101601f191682016040526118279190810190613a18565b6040518663ffffffff1660e01b8152600401611847959493929190613c65565b600060405180830381600087803b15801561186157600080fd5b505af1158015611875573d6000803e3d6000fd5b505050506118a533856002015486600401546118919190613c4e565b61012f546001600160a01b03169190612a6b565b6118ae85612abd565b600484015460058501546040805133815260208101899052908101929092526060820184905260808201527f98d42833b8bbd469503fdacb5bb2ddee0a389699fcb5e6d9b85dae63d42668b99060a00160405180910390a1505060006005830181905560048301819055600683015550600701805460ff1916600190811790915560975550565b600260975414156119585760405162461bcd60e51b81526004016109ef90613946565b6002609755600080516020613e9c833981519152611976813361273a565b50610136805460ff191690556001609755565b600080516020613f238339815191526119a2813361273a565b5061012d80546001600160a01b0319166001600160a01b0392909216919091179055565b610137546060906119d8908490613c4e565b8211156119f157610137546119ee908490613c4e565b91505b8167ffffffffffffffff811115611a0a57611a0a61359d565b604051908082528060200260200182016040528015611a4357816020015b611a3061346d565b815260200190600190039081611a285790505b50905060005b82811015611b3e57610137611a5e8286613993565b81548110611a6e57611a6e613898565b60009182526020918290206040805161010081018252600890930290910180546001600160a01b03168352600181015493830193909352600283015490820152600380830154606083015260048301546080830152600583015460a0830152600683015460c0830152600783015491929160e084019160ff90911690811115611af957611af96136bf565b6003811115611b0a57611b0a6136bf565b81525050828281518110611b2057611b20613898565b60200260200101819052508080611b3690613c98565b915050611a49565b5092915050565b60009182526065602090815260408084206001600160a01b0393909316845291905290205460ff1690565b60006101378281548110611b8657611b86613898565b6000918252602090912060089091020190506002600782015460ff166003811115611bb357611bb36136bf565b14611bd05760405162461bcd60e51b81526004016109ef90613c17565b80600601544211611bf35760405162461bcd60e51b81526004016109ef90613cb3565b600060048201819055600582018190556006820181905560078201805460ff191660011790556040805184815260208101839052908101919091527ff49dbfcc40079f59a911e2541cedaa7a9275ee6fdfb9349032eeb970ce60f57a9060600160405180910390a15050565b60006101378281548110611c7557611c75613898565b600091825260209091206007600890920201015460ff1660038111156108ce576108ce6136bf565b600080516020613f23833981519152611cb6813361273a565b5061013155565b60008061012f60009054906101000a90046001600160a01b03166001600160a01b03166395d89b416040518163ffffffff1660e01b815260040160006040518083038186803b158015611d0f57600080fd5b505afa158015611d23573d6000803e3d6000fd5b505050506040513d6000823e601f3d908101601f19168201604052611d4b9190810190613a18565b61012d54604051630292e0fd60e01b81529192506000916001600160a01b0390911690630292e0fd90611d82908590600401613ab2565b60206040518083038186803b158015611d9a57600080fd5b505afa158015611dae573d6000803e3d6000fd5b505050506040513d601f19601f82011682018060405250810190611dd29190613ac5565b9050600061012f60009054906101000a90046001600160a01b03166001600160a01b031663313ce5676040518163ffffffff1660e01b815260040160206040518083038186803b158015611e2557600080fd5b505afa158015611e39573d6000803e3d6000fd5b505050506040513d601f19601f82011682018060405250810190611e5d9190613ade565b611e68906012613b01565b611e7390600a613c08565b90506000816101378781548110611e8c57611e8c613898565b906000526020600020906008020160020154611ea891906139ab565b905060006101378781548110611ec057611ec0613898565b9060005260206000209060080201600301546101378881548110611ee657611ee6613898565b906000526020600020906008020160010154846101378a81548110611f0d57611f0d613898565b906000526020600020906008020160020154611f2991906139ab565b611f3391906139ab565b611f3d91906139ca565b90508061013054611f4e91906139ab565b611f5885846139ab565b108015611f7e5750611f7281670de0b6b3a76400006139ab565b611f7c85846139ab565b115b1561201657836101378881548110611f9857611f98613898565b906000526020600020906008020160030154856101378a81548110611fbf57611fbf613898565b906000526020600020906008020160010154611fdb9190613c4e565b611fe590856139ab565b611ff790670de0b6b3a76400006139ab565b61200191906139ca565b61200b91906139ca565b979650505050505050565b5060009695505050505050565b61012e546000906001600160a01b031633146120515760405162461bcd60e51b81526004016109ef90613cfa565b82610137858154811061206657612066613898565b90600052602060002090600802016001018190555081610137858154811061209057612090613898565b6000918252602090912060089091020160020155509192915050565b600080516020613f238339815191526120c5813361273a565b5061012e80546001600160a01b0319166001600160a01b0392909216919091179055565b600080516020613f23833981519152612102813361273a565b5061013055565b61012e546000906001600160a01b031633146121375760405162461bcd60e51b81526004016109ef90613cfa565b610137604051806101000160405280876001600160a01b031681526020018681526020018581526020018481526020016000815260200160008152602001600081526020016001600381111561218f5761218f6136bf565b90528154600180820184556000938452602093849020835160089093020180546001600160a01b0319166001600160a01b0390931692909217825592820151818401556040820151600282015560608201516003808301919091556080830151600483015560a0830151600583015560c0830151600683015560e0830151600783018054949593949193909260ff19909216918490811115612233576122336136bf565b0217905550506101375461224a9150600190613c4e565b95945050505050565b61012e546000906001600160a01b031633146122815760405162461bcd60e51b81526004016109ef90613cfa565b81610137848154811061229657612296613898565b906000526020600020906008020160020160008282546122b69190613c4e565b92505081905550600061013784815481106122d3576122d3613898565b9060005260206000209060080201600201549050806000141561138e5761138e84612abd565b61012d5461012f54604080516395d89b4160e01b815290516000936001600160a01b0390811693630292e0fd939116916395d89b41916004808201928892909190829003018186803b15801561234e57600080fd5b505afa158015612362573d6000803e3d6000fd5b505050506040513d6000823e601f3d908101601f1916820160405261238a9190810190613a18565b6040518263ffffffff1660e01b81526004016123a69190613ab2565b60206040518083038186803b1580156123be57600080fd5b505afa1580156123d2573d6000803e3d6000fd5b505050506040513d601f19601f820116820180604052508101906123f69190613ac5565b90506000610137838154811061240e5761240e613898565b6000918252602090912060089091020190506002600782015460ff16600381111561243b5761243b6136bf565b146124585760405162461bcd60e51b81526004016109ef90613c17565b8060060154421161247b5760405162461bcd60e51b81526004016109ef90613cb3565b60058101829055610131546124909042613993565b6006820155600481015460058201546040805186815260208101939093528201527ff49dbfcc40079f59a911e2541cedaa7a9275ee6fdfb9349032eeb970ce60f57a9060600160405180910390a1505050565b6000828152606560205260409020600101546124ff813361273a565b61097e8383612824565b600054610100900460ff166125245760005460ff1615612528565b303b155b61258b5760405162461bcd60e51b815260206004820152602e60248201527f496e697469616c697a61626c653a20636f6e747261637420697320616c72656160448201526d191e481a5b9a5d1a585b1a5e995960921b60648201526084016109ef565b600054610100900460ff161580156125ad576000805461ffff19166101011790555b6125b5612dbc565b6125bd612de5565b6125c5612dbc565b6125d0600033612e14565b6125e8600080516020613f2383398151915233612e14565b612600600080516020613ebc83398151915233612e14565b612626600080516020613e9c833981519152600080516020613f23833981519152612e1e565b61264c600080516020613ebc833981519152600080516020613f23833981519152612e1e565b61012f80546001600160a01b03808c166001600160a01b03199283161790925561012d80548b841690831617905561012e8054928a169290911691909117905561013086905561013185905561013484905561013383905561013582905580156126bc576000805461ff00191690555b505050505050505050565b61013781815481106126d857600080fd5b6000918252602090912060089091020180546001820154600283015460038401546004850154600586015460068701546007909701546001600160a01b0390961697509395929491939092909160ff1688565b6001600160a01b03163b151590565b6127448282611b45565b610a025761275c816001600160a01b03166014612e69565b612767836020612e69565b604051602001612778929190613d31565b60408051601f198184030181529082905262461bcd60e51b82526109ef91600401613ab2565b6127a88282611b45565b610a025760008281526065602090815260408083206001600160a01b03851684529091529020805460ff191660011790556127e03390565b6001600160a01b0316816001600160a01b0316837f2f8788117e7eff1d82e926ec794901d17c78024a50270940304540a733656f0d60405160405180910390a45050565b61282e8282611b45565b15610a025760008281526065602090815260408083206001600160a01b0385168085529252808320805460ff1916905551339285917ff6391f5c32d9c69d2a47ea670b442974b53935d1edc7fd64eb21e047a839171b9190a45050565b600080516020613ebc833981519152610a02813361273a565b7f4910fdfa16fed3260ed0e7147f7cc6da11a60208b5b9406d12a635614ffd91435460ff16156128d75761097e83613005565b826001600160a01b03166352d1902d6040518163ffffffff1660e01b815260040160206040518083038186803b15801561291057600080fd5b505afa925050508015612940575060408051601f3d908101601f1916820190925261293d91810190613ac5565b60015b6129a35760405162461bcd60e51b815260206004820152602e60248201527f45524331393637557067726164653a206e657720696d706c656d656e7461746960448201526d6f6e206973206e6f74205555505360901b60648201526084016109ef565b600080516020613edc8339815191528114612a125760405162461bcd60e51b815260206004820152602960248201527f45524331393637557067726164653a20756e737570706f727465642070726f786044820152681a58589b195555525160ba1b60648201526084016109ef565b5061097e8383836130a1565b60006101315482600501548360010154612a389190613c4e565b428460060154612a489190613c4e565b612a5291906139ab565b612a5c91906139ca565b82600501546108ce9190613993565b604080516001600160a01b038416602482015260448082018490528251808303909101815260649091019091526020810180516001600160e01b031663a9059cbb60e01b17905261097e9084906130cc565b61013754600090612ad090600190613c4e565b9050818114612c775761012e5461013780546001600160a01b03909216916359880b95919084908110612b0557612b05613898565b600091825260209091206008909102015461013780546001600160a01b039092169185908110612b3757612b37613898565b9060005260206000209060080201600201546101378581548110612b5d57612b5d613898565b9060005260206000209060080201600101546101378681548110612b8357612b83613898565b906000526020600020906008020160030154868861012f60009054906101000a90046001600160a01b03166001600160a01b03166395d89b416040518163ffffffff1660e01b815260040160006040518083038186803b158015612be657600080fd5b505afa158015612bfa573d6000803e3d6000fd5b505050506040513d6000823e601f3d908101601f19168201604052612c229190810190613a18565b6040518863ffffffff1660e01b8152600401612c449796959493929190613da6565b600060405180830381600087803b158015612c5e57600080fd5b505af1158015612c72573d6000803e3d6000fd5b505050505b6101378181548110612c8b57612c8b613898565b90600052602060002090600802016101378381548110612cad57612cad613898565b60009182526020909120825460089092020180546001600160a01b0319166001600160a01b03909216919091178155600180830154818301556002808401549083015560038084015481840155600480850154908401556005808501549084015560068085015490840155600780850154908401805460ff90921693909260ff19909216918490811115612d4357612d436136bf565b0217905550905050610137805480612d5d57612d5d613de5565b60008281526020812060086000199093019283020180546001600160a01b031916815560018101829055600281018290556003810182905560048101829055600581018290556006810191909155600701805460ff1916905590555050565b600054610100900460ff16612de35760405162461bcd60e51b81526004016109ef90613dfb565b565b600054610100900460ff16612e0c5760405162461bcd60e51b81526004016109ef90613dfb565b612de361319e565b610a02828261279e565b600082815260656020526040808220600101805490849055905190918391839186917fbd79b86ffe0ab8e8776151514217cd7cacd52c909f66475c3af44e129f0b00ff9190a4505050565b60606000612e788360026139ab565b612e83906002613993565b67ffffffffffffffff811115612e9b57612e9b61359d565b6040519080825280601f01601f191660200182016040528015612ec5576020820181803683370190505b509050600360fc1b81600081518110612ee057612ee0613898565b60200101906001600160f81b031916908160001a905350600f60fb1b81600181518110612f0f57612f0f613898565b60200101906001600160f81b031916908160001a9053506000612f338460026139ab565b612f3e906001613993565b90505b6001811115612fb6576f181899199a1a9b1b9c1cb0b131b232b360811b85600f1660108110612f7257612f72613898565b1a60f81b828281518110612f8857612f88613898565b60200101906001600160f81b031916908160001a90535060049490941c93612faf81613e46565b9050612f41565b50831561138e5760405162461bcd60e51b815260206004820181905260248201527f537472696e67733a20686578206c656e67746820696e73756666696369656e7460448201526064016109ef565b6001600160a01b0381163b6130725760405162461bcd60e51b815260206004820152602d60248201527f455243313936373a206e657720696d706c656d656e746174696f6e206973206e60448201526c1bdd08184818dbdb9d1c9858dd609a1b60648201526084016109ef565b600080516020613edc83398151915280546001600160a01b0319166001600160a01b0392909216919091179055565b6130aa836131cc565b6000825111806130b75750805b1561097e576130c6838361320c565b50505050565b6000613121826040518060400160405280602081526020017f5361666545524332303a206c6f772d6c6576656c2063616c6c206661696c6564815250856001600160a01b03166132f79092919063ffffffff16565b80519091501561097e578080602001905181019061313f9190613e5d565b61097e5760405162461bcd60e51b815260206004820152602a60248201527f5361666545524332303a204552433230206f7065726174696f6e20646964206e6044820152691bdd081cdd58d8d9595960b21b60648201526084016109ef565b600054610100900460ff166131c55760405162461bcd60e51b81526004016109ef90613dfb565b6001609755565b6131d581613005565b6040516001600160a01b038216907fbc7cd75a20ee27fd9adebab32041f755214dbc6bffa90cc0225b39da2e5c2d3b90600090a250565b60606001600160a01b0383163b6132745760405162461bcd60e51b815260206004820152602660248201527f416464726573733a2064656c65676174652063616c6c20746f206e6f6e2d636f6044820152651b9d1c9858dd60d21b60648201526084016109ef565b600080846001600160a01b03168460405161328f9190613e7f565b600060405180830381855af49150503d80600081146132ca576040519150601f19603f3d011682016040523d82523d6000602084013e6132cf565b606091505b509150915061224a8282604051806060016040528060278152602001613efc6027913961330e565b60606133068484600085613347565b949350505050565b6060831561331d57508161138e565b82511561332d5782518084602001fd5b8160405162461bcd60e51b81526004016109ef9190613ab2565b6060824710156133a85760405162461bcd60e51b815260206004820152602660248201527f416464726573733a20696e73756666696369656e742062616c616e636520666f6044820152651c8818d85b1b60d21b60648201526084016109ef565b6001600160a01b0385163b6133ff5760405162461bcd60e51b815260206004820152601d60248201527f416464726573733a2063616c6c20746f206e6f6e2d636f6e747261637400000060448201526064016109ef565b600080866001600160a01b0316858760405161341b9190613e7f565b60006040518083038185875af1925050503d8060008114613458576040519150601f19603f3d011682016040523d82523d6000602084013e61345d565b606091505b509150915061200b82828661330e565b60405180610100016040528060006001600160a01b03168152602001600081526020016000815260200160008152602001600081526020016000815260200160008152602001600060038111156134c6576134c66136bf565b905290565b6000602082840312156134dd57600080fd5b81356001600160e01b03198116811461138e57600080fd5b80356001600160a01b038116811461350c57600080fd5b919050565b60006020828403121561352357600080fd5b61138e826134f5565b60006020828403121561353e57600080fd5b5035919050565b6000806040838503121561355857600080fd5b82359150613568602084016134f5565b90509250929050565b60008060006060848603121561358657600080fd5b505081359360208301359350604090920135919050565b634e487b7160e01b600052604160045260246000fd5b604051601f8201601f1916810167ffffffffffffffff811182821017156135dc576135dc61359d565b604052919050565b600067ffffffffffffffff8211156135fe576135fe61359d565b50601f01601f191660200190565b6000806040838503121561361f57600080fd5b613628836134f5565b9150602083013567ffffffffffffffff81111561364457600080fd5b8301601f8101851361365557600080fd5b8035613668613663826135e4565b6135b3565b81815286602083850101111561367d57600080fd5b816020840160208301376000602083830101528093505050509250929050565b600080604083850312156136b057600080fd5b50508035926020909101359150565b634e487b7160e01b600052602160045260246000fd5b600481106136f357634e487b7160e01b600052602160045260246000fd5b9052565b602080825282518282018190526000919060409081850190868401855b8281101561378c57815180516001600160a01b0316855286810151878601528581015186860152606080820151908601526080808201519086015260a0808201519086015260c0808201519086015260e09081015190613776818701836136d5565b5050610100939093019290850190600101613714565b5091979650505050505050565b600080600080608085870312156137af57600080fd5b6137b8856134f5565b966020860135965060408601359560600135945092505050565b600080600080600080600080610100898b0312156137ef57600080fd5b6137f8896134f5565b975061380660208a016134f5565b965061381460408a016134f5565b979a96995096976060810135975060808101359660a0820135965060c0820135955060e0909101359350915050565b6001600160a01b03891681526020810188905260408101879052606081018690526080810185905260a0810184905260c08101839052610100810161388b60e08301846136d5565b9998505050505050505050565b634e487b7160e01b600052603260045260246000fd5b6020808252602c908201527f46756e6374696f6e206d7573742062652063616c6c6564207468726f7567682060408201526b19195b1959d85d1958d85b1b60a21b606082015260800190565b6020808252602c908201527f46756e6374696f6e206d7573742062652063616c6c6564207468726f7567682060408201526b6163746976652070726f787960a01b606082015260800190565b6020808252601f908201527f5265656e7472616e637947756172643a207265656e7472616e742063616c6c00604082015260600190565b634e487b7160e01b600052601160045260246000fd5b600082198211156139a6576139a661397d565b500190565b60008160001904831182151516156139c5576139c561397d565b500290565b6000826139e757634e487b7160e01b600052601260045260246000fd5b500490565b60005b83811015613a075781810151838201526020016139ef565b838111156130c65750506000910152565b600060208284031215613a2a57600080fd5b815167ffffffffffffffff811115613a4157600080fd5b8201601f81018413613a5257600080fd5b8051613a60613663826135e4565b818152856020838501011115613a7557600080fd5b61224a8260208301602086016139ec565b60008151808452613a9e8160208601602086016139ec565b601f01601f19169290920160200192915050565b60208152600061138e6020830184613a86565b600060208284031215613ad757600080fd5b5051919050565b600060208284031215613af057600080fd5b815160ff8116811461138e57600080fd5b600060ff821660ff841680821015613b1b57613b1b61397d565b90039392505050565b600181815b80851115613b5f578160001904821115613b4557613b4561397d565b80851615613b5257918102915b93841c9390800290613b29565b509250929050565b600082613b76575060016108ce565b81613b83575060006108ce565b8160018114613b995760028114613ba357613bbf565b60019150506108ce565b60ff841115613bb457613bb461397d565b50506001821b6108ce565b5060208310610133831016604e8410600b8410161715613be2575081810a6108ce565b613bec8383613b24565b8060001904821115613c0057613c0061397d565b029392505050565b600061138e60ff841683613b67565b6020808252601f908201527f575141756374696f6e3a204c6f74206973206e6f742061756374696f6e656400604082015260600190565b600082821015613c6057613c6061397d565b500390565b60018060a01b038616815284602082015283604082015282606082015260a06080820152600061200b60a0830184613a86565b6000600019821415613cac57613cac61397d565b5060010190565b60208082526027908201527f575141756374696f6e3a2041756374696f6e2074696d65206973206e6f74206f6040820152661d995c881e595d60ca1b606082015260800190565b6020808252601f908201527f575141756374696f6e3a2053656e646572206973206e6f7420726f7574657200604082015260600190565b7f416363657373436f6e74726f6c3a206163636f756e7420000000000000000000815260008351613d698160178501602088016139ec565b7001034b99036b4b9b9b4b733903937b6329607d1b6017918401918201528351613d9a8160288401602088016139ec565b01602801949350505050565b60018060a01b03881681528660208201528560408201528460608201528360808201528260a082015260e060c0820152600061388b60e0830184613a86565b634e487b7160e01b600052603160045260246000fd5b6020808252602b908201527f496e697469616c697a61626c653a20636f6e7472616374206973206e6f74206960408201526a6e697469616c697a696e6760a81b606082015260800190565b600081613e5557613e5561397d565b506000190190565b600060208284031215613e6f57600080fd5b8151801515811461138e57600080fd5b60008251613e918184602087016139ec565b919091019291505056fed8a7a79547af723ee3e12b59a480111268d8969c634e1a34a144d2c8b91d635b189ab7a9244df0848122154315af71fe140f3db0fe014031783b0946b8c9d2e3360894a13ba1a3210667c828492db98dca3e2076cc3735a920a3ca505d382bbc416464726573733a206c6f772d6c6576656c2064656c65676174652063616c6c206661696c6564a49807205ce4d355092ef5a8a18f56e8913cf4a201fbe287825b095693c21775a26469706673582212207d8590b9ee8b0438a058a04edcd2d1e80c023248475c66df9fbd6a2d7a65bf1664736f6c63430008090033",
  "linkReferences": {},
  "deployedLinkReferences": {}
}