{
  "_format": "hh-sol-artifact-1",
  "contractName": "WQCollateralAuction",
  "sourceName": "contracts/stablecoin/WQCollateralAuction.sol",
  "abi": [
    {
      "inputs": [],
      "stateMutability": "nonpayable",
      "type": "constructor"
    },
    {
      "anonymous": false,
      "inputs": [
        {
          "indexed": false,
          "internalType": "address",
          "name": "previousAdmin",
          "type": "address"
        },
        {
          "indexed": false,
          "internalType": "address",
          "name": "newAdmin",
          "type": "address"
        }
      ],
      "name": "AdminChanged",
      "type": "event"
    },
    {
      "anonymous": false,
      "inputs": [
        {
          "indexed": false,
          "internalType": "uint256",
          "name": "index",
          "type": "uint256"
        },
        {
          "indexed": false,
          "internalType": "uint256",
          "name": "amount",
          "type": "uint256"
        },
        {
          "indexed": false,
          "internalType": "uint256",
          "name": "endCost",
          "type": "uint256"
        }
      ],
      "name": "AuctionStarted",
      "type": "event"
    },
    {
      "anonymous": false,
      "inputs": [
        {
          "indexed": true,
          "internalType": "address",
          "name": "beacon",
          "type": "address"
        }
      ],
      "name": "BeaconUpgraded",
      "type": "event"
    },
    {
      "anonymous": false,
      "inputs": [
        {
          "indexed": false,
          "internalType": "address",
          "name": "buyer",
          "type": "address"
        },
        {
          "indexed": false,
          "internalType": "uint256",
          "name": "index",
          "type": "uint256"
        },
        {
          "indexed": false,
          "internalType": "uint256",
          "name": "amount",
          "type": "uint256"
        },
        {
          "indexed": false,
          "internalType": "uint256",
          "name": "cost",
          "type": "uint256"
        },
        {
          "indexed": false,
          "internalType": "uint256",
          "name": "price",
          "type": "uint256"
        }
      ],
      "name": "LotBuyed",
      "type": "event"
    },
    {
      "anonymous": false,
      "inputs": [
        {
          "indexed": false,
          "internalType": "uint256",
          "name": "index",
          "type": "uint256"
        },
        {
          "indexed": false,
          "internalType": "uint256",
          "name": "amount",
          "type": "uint256"
        },
        {
          "indexed": false,
          "internalType": "uint256",
          "name": "cost",
          "type": "uint256"
        }
      ],
      "name": "LotCanceled",
      "type": "event"
    },
    {
      "anonymous": false,
      "inputs": [
        {
          "indexed": true,
          "internalType": "bytes32",
          "name": "role",
          "type": "bytes32"
        },
        {
          "indexed": true,
          "internalType": "bytes32",
          "name": "previousAdminRole",
          "type": "bytes32"
        },
        {
          "indexed": true,
          "internalType": "bytes32",
          "name": "newAdminRole",
          "type": "bytes32"
        }
      ],
      "name": "RoleAdminChanged",
      "type": "event"
    },
    {
      "anonymous": false,
      "inputs": [
        {
          "indexed": true,
          "internalType": "bytes32",
          "name": "role",
          "type": "bytes32"
        },
        {
          "indexed": true,
          "internalType": "address",
          "name": "account",
          "type": "address"
        },
        {
          "indexed": true,
          "internalType": "address",
          "name": "sender",
          "type": "address"
        }
      ],
      "name": "RoleGranted",
      "type": "event"
    },
    {
      "anonymous": false,
      "inputs": [
        {
          "indexed": true,
          "internalType": "bytes32",
          "name": "role",
          "type": "bytes32"
        },
        {
          "indexed": true,
          "internalType": "address",
          "name": "account",
          "type": "address"
        },
        {
          "indexed": true,
          "internalType": "address",
          "name": "sender",
          "type": "address"
        }
      ],
      "name": "RoleRevoked",
      "type": "event"
    },
    {
      "anonymous": false,
      "inputs": [
        {
          "indexed": true,
          "internalType": "address",
          "name": "implementation",
          "type": "address"
        }
      ],
      "name": "Upgraded",
      "type": "event"
    },
    {
      "inputs": [],
      "name": "ADMIN_ROLE",
      "outputs": [
        {
          "internalType": "bytes32",
          "name": "",
          "type": "bytes32"
        }
      ],
      "stateMutability": "view",
      "type": "function"
    },
    {
      "inputs": [],
      "name": "DEFAULT_ADMIN_ROLE",
      "outputs": [
        {
          "internalType": "bytes32",
          "name": "",
          "type": "bytes32"
        }
      ],
      "stateMutability": "view",
      "type": "function"
    },
    {
      "inputs": [],
      "name": "SERVICE_ROLE",
      "outputs": [
        {
          "internalType": "bytes32",
          "name": "",
          "type": "bytes32"
        }
      ],
      "stateMutability": "view",
      "type": "function"
    },
    {
      "inputs": [],
      "name": "UPGRADER_ROLE",
      "outputs": [
        {
          "internalType": "bytes32",
          "name": "",
          "type": "bytes32"
        }
      ],
      "stateMutability": "view",
      "type": "function"
    },
    {
      "inputs": [
        {
          "internalType": "address",
          "name": "user",
          "type": "address"
        },
        {
          "internalType": "uint256",
          "name": "price",
          "type": "uint256"
        },
        {
          "internalType": "uint256",
          "name": "amount",
          "type": "uint256"
        },
        {
          "internalType": "uint256",
          "name": "ratio",
          "type": "uint256"
        }
      ],
      "name": "addLot",
      "outputs": [
        {
          "internalType": "uint256",
          "name": "",
          "type": "uint256"
        }
      ],
      "stateMutability": "nonpayable",
      "type": "function"
    },
    {
      "inputs": [],
      "name": "annualInterestRate",
      "outputs": [
        {
          "internalType": "uint256",
          "name": "",
          "type": "uint256"
        }
      ],
      "stateMutability": "view",
      "type": "function"
    },
    {
      "inputs": [],
      "name": "auctionDuration",
      "outputs": [
        {
          "internalType": "uint256",
          "name": "",
          "type": "uint256"
        }
      ],
      "stateMutability": "view",
      "type": "function"
    },
    {
      "inputs": [
        {
          "internalType": "uint256",
          "name": "index",
          "type": "uint256"
        }
      ],
      "name": "buyLot",
      "outputs": [],
      "stateMutability": "nonpayable",
      "type": "function"
    },
    {
      "inputs": [
        {
          "internalType": "uint256",
          "name": "index",
          "type": "uint256"
        }
      ],
      "name": "cancelAuction",
      "outputs": [],
      "stateMutability": "nonpayable",
      "type": "function"
    },
    {
      "inputs": [
        {
          "internalType": "uint256",
          "name": "index",
          "type": "uint256"
        },
        {
          "internalType": "uint256",
          "name": "collaterralPart",
          "type": "uint256"
        }
      ],
      "name": "decreaseLotAmount",
      "outputs": [
        {
          "internalType": "uint256",
          "name": "",
          "type": "uint256"
        }
      ],
      "stateMutability": "nonpayable",
      "type": "function"
    },
    {
      "inputs": [],
      "name": "disableReserves",
      "outputs": [],
      "stateMutability": "nonpayable",
      "type": "function"
    },
    {
      "inputs": [],
      "name": "enableReserves",
      "outputs": [],
      "stateMutability": "nonpayable",
      "type": "function"
    },
    {
      "inputs": [],
      "name": "fixedRate",
      "outputs": [
        {
          "internalType": "uint256",
          "name": "",
          "type": "uint256"
        }
      ],
      "stateMutability": "view",
      "type": "function"
    },
    {
      "inputs": [
        {
          "internalType": "uint256",
          "name": "index",
          "type": "uint256"
        },
        {
          "internalType": "uint256",
          "name": "amount",
          "type": "uint256"
        }
      ],
      "name": "getComission",
      "outputs": [
        {
          "internalType": "uint256",
          "name": "",
          "type": "uint256"
        }
      ],
      "stateMutability": "view",
      "type": "function"
    },
    {
      "inputs": [
        {
          "internalType": "uint256",
          "name": "index",
          "type": "uint256"
        }
      ],
      "name": "getCurrentLotCost",
      "outputs": [
        {
          "internalType": "uint256",
          "name": "",
          "type": "uint256"
        }
      ],
      "stateMutability": "view",
      "type": "function"
    },
    {
      "inputs": [
        {
          "internalType": "uint256",
          "name": "index",
          "type": "uint256"
        }
      ],
      "name": "getLiquidatedCollaterallAmount",
      "outputs": [
        {
          "internalType": "uint256",
          "name": "",
          "type": "uint256"
        }
      ],
      "stateMutability": "view",
      "type": "function"
    },
    {
      "inputs": [
        {
          "internalType": "uint256",
          "name": "index",
          "type": "uint256"
        }
      ],
      "name": "getLotInfo",
      "outputs": [
        {
          "internalType": "uint256",
          "name": "",
          "type": "uint256"
        },
        {
          "internalType": "uint256",
          "name": "",
          "type": "uint256"
        },
        {
          "internalType": "uint256",
          "name": "",
          "type": "uint256"
        }
      ],
      "stateMutability": "view",
      "type": "function"
    },
    {
      "inputs": [
        {
          "internalType": "uint256",
          "name": "index",
          "type": "uint256"
        }
      ],
      "name": "getLotOwner",
      "outputs": [
        {
          "internalType": "address",
          "name": "",
          "type": "address"
        }
      ],
      "stateMutability": "view",
      "type": "function"
    },
    {
      "inputs": [
        {
          "internalType": "uint256",
          "name": "index",
          "type": "uint256"
        }
      ],
      "name": "getLotStatus",
      "outputs": [
        {
          "internalType": "uint8",
          "name": "",
          "type": "uint8"
        }
      ],
      "stateMutability": "view",
      "type": "function"
    },
    {
      "inputs": [
        {
          "internalType": "uint256",
          "name": "offset",
          "type": "uint256"
        },
        {
          "internalType": "uint256",
          "name": "limit",
          "type": "uint256"
        }
      ],
      "name": "getLots",
      "outputs": [
        {
          "components": [
            {
              "internalType": "address",
              "name": "user",
              "type": "address"
            },
            {
              "internalType": "uint256",
              "name": "price",
              "type": "uint256"
            },
            {
              "internalType": "uint256",
              "name": "amount",
              "type": "uint256"
            },
            {
              "internalType": "uint256",
              "name": "ratio",
              "type": "uint256"
            },
            {
              "internalType": "uint256",
              "name": "created",
              "type": "uint256"
            },
            {
              "internalType": "uint256",
              "name": "saleAmount",
              "type": "uint256"
            },
            {
              "internalType": "uint256",
              "name": "endPrice",
              "type": "uint256"
            },
            {
              "internalType": "uint256",
              "name": "endTime",
              "type": "uint256"
            },
            {
              "internalType": "enum WQCollateralAuction.LotStatus",
              "name": "status",
              "type": "uint8"
            }
          ],
          "internalType": "struct WQCollateralAuction.LotInfo[]",
          "name": "page",
          "type": "tuple[]"
        }
      ],
      "stateMutability": "view",
      "type": "function"
    },
    {
      "inputs": [
        {
          "internalType": "bytes32",
          "name": "role",
          "type": "bytes32"
        }
      ],
      "name": "getRoleAdmin",
      "outputs": [
        {
          "internalType": "bytes32",
          "name": "",
          "type": "bytes32"
        }
      ],
      "stateMutability": "view",
      "type": "function"
    },
    {
      "inputs": [
        {
          "internalType": "bytes32",
          "name": "role",
          "type": "bytes32"
        },
        {
          "internalType": "address",
          "name": "account",
          "type": "address"
        }
      ],
      "name": "grantRole",
      "outputs": [],
      "stateMutability": "nonpayable",
      "type": "function"
    },
    {
      "inputs": [
        {
          "internalType": "bytes32",
          "name": "role",
          "type": "bytes32"
        },
        {
          "internalType": "address",
          "name": "account",
          "type": "address"
        }
      ],
      "name": "hasRole",
      "outputs": [
        {
          "internalType": "bool",
          "name": "",
          "type": "bool"
        }
      ],
      "stateMutability": "view",
      "type": "function"
    },
    {
      "inputs": [
        {
          "internalType": "address",
          "name": "_token",
          "type": "address"
        },
        {
          "internalType": "address",
          "name": "_oracle",
          "type": "address"
        },
        {
          "internalType": "address",
          "name": "_router",
          "type": "address"
        },
        {
          "internalType": "uint256",
          "name": "_liquidateThreshold",
          "type": "uint256"
        },
        {
          "internalType": "uint256",
          "name": "_upperBoundCost",
          "type": "uint256"
        },
        {
          "internalType": "uint256",
          "name": "_lowerBoundCost",
          "type": "uint256"
        },
        {
          "internalType": "uint256",
          "name": "_auctionDuration",
          "type": "uint256"
        },
        {
          "internalType": "uint256",
          "name": "_fixedRate",
          "type": "uint256"
        },
        {
          "internalType": "uint256",
          "name": "_annualInterestRate",
          "type": "uint256"
        }
      ],
      "name": "initialize",
      "outputs": [],
      "stateMutability": "nonpayable",
      "type": "function"
    },
    {
      "inputs": [],
      "name": "liquidateThreshold",
      "outputs": [
        {
          "internalType": "uint256",
          "name": "",
          "type": "uint256"
        }
      ],
      "stateMutability": "view",
      "type": "function"
    },
    {
      "inputs": [
        {
          "internalType": "uint256",
          "name": "",
          "type": "uint256"
        }
      ],
      "name": "lots",
      "outputs": [
        {
          "internalType": "address",
          "name": "user",
          "type": "address"
        },
        {
          "internalType": "uint256",
          "name": "price",
          "type": "uint256"
        },
        {
          "internalType": "uint256",
          "name": "amount",
          "type": "uint256"
        },
        {
          "internalType": "uint256",
          "name": "ratio",
          "type": "uint256"
        },
        {
          "internalType": "uint256",
          "name": "created",
          "type": "uint256"
        },
        {
          "internalType": "uint256",
          "name": "saleAmount",
          "type": "uint256"
        },
        {
          "internalType": "uint256",
          "name": "endPrice",
          "type": "uint256"
        },
        {
          "internalType": "uint256",
          "name": "endTime",
          "type": "uint256"
        },
        {
          "internalType": "enum WQCollateralAuction.LotStatus",
          "name": "status",
          "type": "uint8"
        }
      ],
      "stateMutability": "view",
      "type": "function"
    },
    {
      "inputs": [],
      "name": "lowerBoundCost",
      "outputs": [
        {
          "internalType": "uint256",
          "name": "",
          "type": "uint256"
        }
      ],
      "stateMutability": "view",
      "type": "function"
    },
    {
      "inputs": [
        {
          "internalType": "uint256",
          "name": "index",
          "type": "uint256"
        },
        {
          "internalType": "uint256",
          "name": "newPrice",
          "type": "uint256"
        },
        {
          "internalType": "uint256",
          "name": "newAmount",
          "type": "uint256"
        }
      ],
      "name": "moveLot",
      "outputs": [
        {
          "internalType": "uint256",
          "name": "",
          "type": "uint256"
        }
      ],
      "stateMutability": "nonpayable",
      "type": "function"
    },
    {
      "inputs": [],
      "name": "oracle",
      "outputs": [
        {
          "internalType": "contract WQPriceOracleInterface",
          "name": "",
          "type": "address"
        }
      ],
      "stateMutability": "view",
      "type": "function"
    },
    {
      "inputs": [],
      "name": "proxiableUUID",
      "outputs": [
        {
          "internalType": "bytes32",
          "name": "",
          "type": "bytes32"
        }
      ],
      "stateMutability": "view",
      "type": "function"
    },
    {
      "inputs": [
        {
          "internalType": "bytes32",
          "name": "role",
          "type": "bytes32"
        },
        {
          "internalType": "address",
          "name": "account",
          "type": "address"
        }
      ],
      "name": "renounceRole",
      "outputs": [],
      "stateMutability": "nonpayable",
      "type": "function"
    },
    {
      "inputs": [],
      "name": "reservesEnabled",
      "outputs": [
        {
          "internalType": "bool",
          "name": "",
          "type": "bool"
        }
      ],
      "stateMutability": "view",
      "type": "function"
    },
    {
      "inputs": [
        {
          "internalType": "uint256",
          "name": "index",
          "type": "uint256"
        }
      ],
      "name": "restartAuction",
      "outputs": [],
      "stateMutability": "nonpayable",
      "type": "function"
    },
    {
      "inputs": [
        {
          "internalType": "bytes32",
          "name": "role",
          "type": "bytes32"
        },
        {
          "internalType": "address",
          "name": "account",
          "type": "address"
        }
      ],
      "name": "revokeRole",
      "outputs": [],
      "stateMutability": "nonpayable",
      "type": "function"
    },
    {
      "inputs": [],
      "name": "router",
      "outputs": [
        {
          "internalType": "contract WQRouterInterface",
          "name": "",
          "type": "address"
        }
      ],
      "stateMutability": "view",
      "type": "function"
    },
    {
      "inputs": [
        {
          "internalType": "uint256",
          "name": "duration",
          "type": "uint256"
        }
      ],
      "name": "setAuctionDuration",
      "outputs": [],
      "stateMutability": "nonpayable",
      "type": "function"
    },
    {
      "inputs": [
        {
          "internalType": "uint256",
          "name": "percent",
          "type": "uint256"
        }
      ],
      "name": "setLiquidateTreshold",
      "outputs": [],
      "stateMutability": "nonpayable",
      "type": "function"
    },
    {
      "inputs": [
        {
          "internalType": "uint256",
          "name": "percent",
          "type": "uint256"
        }
      ],
      "name": "setLowerBoundCost",
      "outputs": [],
      "stateMutability": "nonpayable",
      "type": "function"
    },
    {
      "inputs": [
        {
          "internalType": "address",
          "name": "_oracle",
          "type": "address"
        }
      ],
      "name": "setOracle",
      "outputs": [],
      "stateMutability": "nonpayable",
      "type": "function"
    },
    {
      "inputs": [
        {
          "internalType": "uint256",
          "name": "_fixedRate",
          "type": "uint256"
        },
        {
          "internalType": "uint256",
          "name": "_annualInterestRate",
          "type": "uint256"
        }
      ],
      "name": "setRate",
      "outputs": [],
      "stateMutability": "nonpayable",
      "type": "function"
    },
    {
      "inputs": [
        {
          "internalType": "address",
          "name": "_router",
          "type": "address"
        }
      ],
      "name": "setRouter",
      "outputs": [],
      "stateMutability": "nonpayable",
      "type": "function"
    },
    {
      "inputs": [
        {
          "internalType": "address",
          "name": "_token",
          "type": "address"
        }
      ],
      "name": "setToken",
      "outputs": [],
      "stateMutability": "nonpayable",
      "type": "function"
    },
    {
      "inputs": [
        {
          "internalType": "uint256",
          "name": "percent",
          "type": "uint256"
        }
      ],
      "name": "setUpperBoundCost",
      "outputs": [],
      "stateMutability": "nonpayable",
      "type": "function"
    },
    {
      "inputs": [
        {
          "internalType": "uint256",
          "name": "index",
          "type": "uint256"
        },
        {
          "internalType": "uint256",
          "name": "amount",
          "type": "uint256"
        }
      ],
      "name": "startAuction",
      "outputs": [],
      "stateMutability": "nonpayable",
      "type": "function"
    },
    {
      "inputs": [
        {
          "internalType": "bytes4",
          "name": "interfaceId",
          "type": "bytes4"
        }
      ],
      "name": "supportsInterface",
      "outputs": [
        {
          "internalType": "bool",
          "name": "",
          "type": "bool"
        }
      ],
      "stateMutability": "view",
      "type": "function"
    },
    {
      "inputs": [],
      "name": "token",
      "outputs": [
        {
          "internalType": "contract IERC20MetadataUpgradeable",
          "name": "",
          "type": "address"
        }
      ],
      "stateMutability": "view",
      "type": "function"
    },
    {
      "inputs": [],
      "name": "totalAuctioned",
      "outputs": [
        {
          "internalType": "uint256",
          "name": "",
          "type": "uint256"
        }
      ],
      "stateMutability": "view",
      "type": "function"
    },
    {
      "inputs": [
        {
          "internalType": "address",
          "name": "newImplementation",
          "type": "address"
        }
      ],
      "name": "upgradeTo",
      "outputs": [],
      "stateMutability": "nonpayable",
      "type": "function"
    },
    {
      "inputs": [
        {
          "internalType": "address",
          "name": "newImplementation",
          "type": "address"
        },
        {
          "internalType": "bytes",
          "name": "data",
          "type": "bytes"
        }
      ],
      "name": "upgradeToAndCall",
      "outputs": [],
      "stateMutability": "payable",
      "type": "function"
    },
    {
      "inputs": [],
      "name": "upperBoundCost",
      "outputs": [
        {
          "internalType": "uint256",
          "name": "",
          "type": "uint256"
        }
      ],
      "stateMutability": "view",
      "type": "function"
    }
  ],
  "bytecode": "0x60a0604052306080523480156200001557600080fd5b50600054610100900460ff16620000335760005460ff16156200003d565b6200003d620000e2565b620000a55760405162461bcd60e51b815260206004820152602e60248201527f496e697469616c697a61626c653a20636f6e747261637420697320616c72656160448201526d191e481a5b9a5d1a585b1a5e995960921b606482015260840160405180910390fd5b600054610100900460ff16158015620000c8576000805461ffff19166101011790555b8015620000db576000805461ff00191690555b506200010f565b6000620000fa306200010060201b6200284c1760201c565b15905090565b6001600160a01b03163b151590565b60805161412b6200014760003960008181610aaa01528181610aea01528181610c3f01528181610c7f01526111a9015261412b6000f3fe6080604052600436106102c95760003560e01c806390d070f311610175578063c41600fe116100dc578063f1648e8411610095578063fc0c546a1161006f578063fc0c546a146108d0578063fdcb648c146108f1578063ff2ab22914610908578063ffb671861461091f57600080fd5b8063f1648e8414610858578063f72c0d8b1461088d578063f887ea40146108af57600080fd5b8063c41600fe14610798578063cc6b3be3146107b8578063d0896c55146107d8578063d25ccf53146107f8578063d547741f14610818578063e2a07a071461083857600080fd5b8063a217fddf1161012e578063a217fddf146106e3578063a497e674146106f8578063afe0b64114610718578063b70a07ea14610738578063bb4a250914610758578063c0d786551461077857600080fd5b806390d070f31461061457806391d148541461063457806396b5a75514610654578063997e7c36146106745780639ea687a7146106a6578063a20e7d47146106c157600080fd5b806346df2ccb1161023457806374e3e3dc116101ed5780637adbf973116101c75780637adbf9731461058f5780637dc0d1d0146105af578063802d1422146105d0578063874f5cbb146105e757600080fd5b806374e3e3dc1461053857806375b238fc14610558578063764460131461057a57600080fd5b806346df2ccb146104905780634f1ef286146104b05780634fee13fc146104c357806352d1902d146104e3578063535bb867146104f857806364ad7ad71461051857600080fd5b80632f2ff15d116102865780632f2ff15d146103cc57806336568abe146103ec5780633659cfe61461040c57806336c1d2351461042c5780633a1a732714610441578063403b74ed1461047957600080fd5b806301ffc9a7146102ce5780630cbf54c814610303578063144fa6d7146103285780631a9703da1461034a578063248a9ca3146103615780632f1b130314610391575b600080fd5b3480156102da57600080fd5b506102ee6102e9366004613645565b610936565b60405190151581526020015b60405180910390f35b34801561030f57600080fd5b5061031a6101335481565b6040519081526020016102fa565b34801561033457600080fd5b5061034861034336600461368b565b61096d565b005b34801561035657600080fd5b5061031a6101365481565b34801561036d57600080fd5b5061031a61037c3660046136a6565b60009081526065602052604090206001015490565b34801561039d57600080fd5b506103b16103ac3660046136a6565b6109aa565b604080519384526020840192909252908201526060016102fa565b3480156103d857600080fd5b506103486103e73660046136bf565b6109f1565b3480156103f857600080fd5b506103486104073660046136bf565b610a1c565b34801561041857600080fd5b5061034861042736600461368b565b610a9f565b34801561043857600080fd5b50610348610b7f565b34801561044d57600080fd5b5061046161045c3660046136a6565b610bd7565b6040516001600160a01b0390911681526020016102fa565b34801561048557600080fd5b5061031a6101315481565b34801561049c57600080fd5b506103486104ab3660046136eb565b610c0d565b6103486104be36600461377c565b610c34565b3480156104cf57600080fd5b506103486104de3660046136eb565b610d01565b3480156104ef57600080fd5b5061031a61119c565b34801561050457600080fd5b5061031a6105133660046136a6565b61124f565b34801561052457600080fd5b506103486105333660046136a6565b6113c5565b34801561054457600080fd5b506103486105533660046136a6565b6113e5565b34801561056457600080fd5b5061031a6000805160206140d683398151915281565b34801561058657600080fd5b50610348611976565b34801561059b57600080fd5b506103486105aa36600461368b565b6119ca565b3480156105bb57600080fd5b5061012d54610461906001600160a01b031681565b3480156105dc57600080fd5b5061031a6101355481565b3480156105f357600080fd5b506106076106023660046136eb565b611a07565b6040516102fa9190613845565b34801561062057600080fd5b5061031a61062f3660046136eb565b611b91565b34801561064057600080fd5b506102ee61064f3660046136bf565b611c02565b34801561066057600080fd5b5061034861066f3660046136a6565b611c2d565b34801561068057600080fd5b5061069461068f3660046136a6565b611d1c565b60405160ff90911681526020016102fa565b3480156106b257600080fd5b50610137546102ee9060ff1681565b3480156106cd57600080fd5b5061031a60008051602061404f83398151915281565b3480156106ef57600080fd5b5061031a600081565b34801561070457600080fd5b506103486107133660046136a6565b611d5a565b34801561072457600080fd5b5061031a6107333660046136a6565b611d7a565b34801561074457600080fd5b5061031a6107533660046138f2565b612107565b34801561076457600080fd5b5061034861077336600461391e565b612190565b34801561078457600080fd5b5061034861079336600461368b565b612355565b3480156107a457600080fd5b506103486107b33660046136a6565b612392565b3480156107c457600080fd5b5061031a6107d3366004613999565b6123b2565b3480156107e457600080fd5b5061031a6107f33660046136eb565b61250d565b34801561080457600080fd5b506103486108133660046136a6565b6125b3565b34801561082457600080fd5b506103486108333660046136bf565b61279d565b34801561084457600080fd5b506103486108533660046136a6565b6127c3565b34801561086457600080fd5b506108786108733660046136a6565b6127e3565b6040516102fa999897969594939291906139d2565b34801561089957600080fd5b5061031a60008051602061406f83398151915281565b3480156108bb57600080fd5b5061012e54610461906001600160a01b031681565b3480156108dc57600080fd5b5061012f54610461906001600160a01b031681565b3480156108fd57600080fd5b5061031a6101305481565b34801561091457600080fd5b5061031a6101325481565b34801561092b57600080fd5b5061031a6101345481565b60006001600160e01b03198216637965db0b60e01b148061096757506301ffc9a760e01b6001600160e01b03198316145b92915050565b6000805160206140d6833981519152610986813361285b565b5061012f80546001600160a01b0319166001600160a01b0392909216919091179055565b60008060008061013885815481106109c4576109c4613a2c565b90600052602060002090600902019050806002015481600101548260030154935093509350509193909250565b600082815260656020526040902060010154610a0d813361285b565b610a1783836128bf565b505050565b6001600160a01b0381163314610a915760405162461bcd60e51b815260206004820152602f60248201527f416363657373436f6e74726f6c3a2063616e206f6e6c792072656e6f756e636560448201526e103937b632b9903337b91039b2b63360891b60648201526084015b60405180910390fd5b610a9b8282612945565b5050565b306001600160a01b037f0000000000000000000000000000000000000000000000000000000000000000161415610ae85760405162461bcd60e51b8152600401610a8890613a42565b7f00000000000000000000000000000000000000000000000000000000000000006001600160a01b0316610b3160008051602061408f833981519152546001600160a01b031690565b6001600160a01b031614610b575760405162461bcd60e51b8152600401610a8890613a8e565b610b60816129ac565b60408051600080825260208201909252610b7c918391906129c5565b50565b60026097541415610ba25760405162461bcd60e51b8152600401610a8890613ada565b600260975560008051602061404f833981519152610bc0813361285b565b50610137805460ff19166001908117909155609755565b60006101388281548110610bed57610bed613a2c565b60009182526020909120600990910201546001600160a01b031692915050565b6000805160206140d6833981519152610c26813361285b565b506101359190915561013655565b306001600160a01b037f0000000000000000000000000000000000000000000000000000000000000000161415610c7d5760405162461bcd60e51b8152600401610a8890613a42565b7f00000000000000000000000000000000000000000000000000000000000000006001600160a01b0316610cc660008051602061408f833981519152546001600160a01b031690565b6001600160a01b031614610cec5760405162461bcd60e51b8152600401610a8890613a8e565b610cf5826129ac565b610a9b828260016129c5565b60026097541415610d245760405162461bcd60e51b8152600401610a8890613ada565b600260975561012d5461012f54604080516395d89b4160e01b815290516000936001600160a01b0390811693630292e0fd939116916395d89b41916004808201928892909190829003018186803b158015610d7e57600080fd5b505afa158015610d92573d6000803e3d6000fd5b505050506040513d6000823e601f3d908101601f19168201604052610dba9190810190613b3d565b6040518263ffffffff1660e01b8152600401610dd69190613bd7565b60206040518083038186803b158015610dee57600080fd5b505afa158015610e02573d6000803e3d6000fd5b505050506040513d601f19601f82011682018060405250810190610e269190613bea565b905060006101388481548110610e3e57610e3e613a2c565b6000918252602090912060099091020190506001600882015460ff166003811115610e6b57610e6b61380d565b14610eb85760405162461bcd60e51b815260206004820152601c60248201527f575141756374696f6e3a20537461747573206973206e6f74204e6577000000006044820152606401610a88565b60008160010154826003015484610ecf9190613c19565b610ed99190613c38565b90506101305481108015610ef55750670de0b6b3a76400008110155b80610f1557506101375460ff168015610f155750670de0b6b3a764000081105b610f775760405162461bcd60e51b815260206004820152602d60248201527f575141756374696f6e3a2054686973206c6f74206973206e6f7420617661696c60448201526c61626c6520666f722073616c6560981b6064820152608401610a88565b60058201849055610f8785611d7a565b841115610ffe576040805162461bcd60e51b81526020600482015260248101919091527f575141756374696f6e3a20416d6f756e74206f6620746f6b656e73207075726360448201527f68617365642069732067726561746572207468616e206c6f7420616d6f756e746064820152608401610a88565b6101375460ff16156111205761012f546040516370a0823160e01b81523060048201526001600160a01b03909116906370a082319060240160206040518083038186803b15801561104e57600080fd5b505afa158015611062573d6000803e3d6000fd5b505050506040513d601f19601f820116820180604052508101906110869190613bea565b82600201546110959190613c5a565b8411156111205760405162461bcd60e51b815260206004820152604d60248201527f575141756374696f6e3a20416d6f756e74206f6620746f6b656e73207075726360448201527f68617365642069732067726561746572207468616e206c6f7420616d6f756e7460648201526c20616e6420726573657276657360981b608482015260a401610a88565b60068201839055610133546111359042613c5a565b600783015560088201805460ff1916600217905560068201546040805187815260208101879052908101919091527f44c53be110c6aa83aa83cd02e351ed172359268272ee1b5d31c0fe48db35c6c79060600160405180910390a150506001609755505050565b6000306001600160a01b037f0000000000000000000000000000000000000000000000000000000000000000161461123c5760405162461bcd60e51b815260206004820152603860248201527f555550535570677261646561626c653a206d757374206e6f742062652063616c60448201527f6c6564207468726f7567682064656c656761746563616c6c00000000000000006064820152608401610a88565b5060008051602061408f83398151915290565b600080610138838154811061126657611266613a2c565b6000918252602090912060099091020190506002600882015460ff1660038111156112935761129361380d565b146112ec5760405162461bcd60e51b8152602060048201526024808201527f575141756374696f6e3a2054686973206c6f74206973206e6f742061756374696044820152631bdb995960e21b6064820152608401610a88565b670de0b6b3a76400006112fe82612b3f565b61012f60009054906101000a90046001600160a01b03166001600160a01b031663313ce5676040518163ffffffff1660e01b815260040160206040518083038186803b15801561134d57600080fd5b505afa158015611361573d6000803e3d6000fd5b505050506040513d601f19601f820116820180604052508101906113859190613c72565b611390906012613c95565b61139b90600a613d9c565b83600501546113aa9190613c19565b6113b49190613c19565b6113be9190613c38565b9392505050565b6000805160206140d68339815191526113de813361285b565b5061013155565b600260975414156114085760405162461bcd60e51b8152600401610a8890613ada565b60026097819055506000610138828154811061142657611426613a2c565b6000918252602090912060099091020190506002600882015460ff1660038111156114535761145361380d565b146114705760405162461bcd60e51b8152600401610a8890613dab565b80600701544211156114c45760405162461bcd60e51b815260206004820152601f60248201527f575141756374696f6e3a2041756374696f6e2074696d65206973206f766572006044820152606401610a88565b61012f546040805163313ce56760e01b815290516000926001600160a01b03169163313ce567916004808301926020929190829003018186803b15801561150a57600080fd5b505afa15801561151e573d6000803e3d6000fd5b505050506040513d601f19601f820116820180604052508101906115429190613c72565b61154d906012613c95565b61155890600a613d9c565b90506000670de0b6b3a764000061156e84612b3f565b83856005015461157e9190613c19565b6115889190613c19565b6115929190613c38565b905060006115a4858560050154611b91565b9050670de0b6b3a76400008460010154856003015486600601546115c89190613c19565b6115d29190613c38565b1061176b5781846003015484866001015487600201546115f29190613c19565b6115fc9190613c19565b6116069190613c38565b6116109190613de2565b8460060154848660050154876002015461162a9190613de2565b6116349190613c19565b61163e9190613c19565b6116489190613c38565b60038501556005840154600285018054600090611666908490613de2565b90915550506006840154600185015561012e54600585015461012f54604080516395d89b4160e01b815290516001600160a01b0394851694638701c5429433948c948a9492938a939216916395d89b4191600480820192600092909190829003018186803b1580156116d757600080fd5b505afa1580156116eb573d6000803e3d6000fd5b505050506040513d6000823e601f3d908101601f191682016040526117139190810190613b3d565b6040518763ffffffff1660e01b815260040161173496959493929190613df9565b600060405180830381600087803b15801561174e57600080fd5b505af1158015611762573d6000803e3d6000fd5b505050506118ef565b6101375460ff166117c95760405162461bcd60e51b815260206004820152602260248201527f575141756374696f6e3a205265736572766573206973206e6f7420656e61626c604482015261195960f21b6064820152608401610a88565b61012e54600285015461012f54604080516395d89b4160e01b815290516001600160a01b0394851694638701c5429433948c948a9492938a939216916395d89b4191600480820192600092909190829003018186803b15801561182b57600080fd5b505afa15801561183f573d6000803e3d6000fd5b505050506040513d6000823e601f3d908101601f191682016040526118679190810190613b3d565b6040518763ffffffff1660e01b815260040161188896959493929190613df9565b600060405180830381600087803b1580156118a257600080fd5b505af11580156118b6573d6000803e3d6000fd5b505050506118e633856002015486600501546118d29190613de2565b61012f546001600160a01b03169190612bcd565b6118ef85612c1f565b600584015460068501546040805133815260208101899052908101929092526060820184905260808201527f98d42833b8bbd469503fdacb5bb2ddee0a389699fcb5e6d9b85dae63d42668b99060a00160405180910390a1505060006006830181905560058301819055600783015550600801805460ff1916600190811790915560975550565b600260975414156119995760405162461bcd60e51b8152600401610a8890613ada565b600260975560008051602061404f8339815191526119b7813361285b565b50610137805460ff191690556001609755565b6000805160206140d68339815191526119e3813361285b565b5061012d80546001600160a01b0319166001600160a01b0392909216919091179055565b61013854606090611a19908490613de2565b821115611a325761013854611a2f908490613de2565b91505b8167ffffffffffffffff811115611a4b57611a4b61370d565b604051908082528060200260200182016040528015611a8457816020015b611a716135e0565b815260200190600190039081611a695790505b50905060005b82811015611b8a57610138611a9f8286613c5a565b81548110611aaf57611aaf613a2c565b60009182526020918290206040805161012081018252600990930290910180546001600160a01b03168352600181015493830193909352600283015490820152600380830154606083015260048301546080830152600583015460a0830152600683015460c0830152600783015460e0830152600883015491929161010084019160ff90911690811115611b4557611b4561380d565b6003811115611b5657611b5661380d565b81525050828281518110611b6c57611b6c613a2c565b60200260200101819052508080611b8290613e3e565b915050611a8a565b5092915050565b6000670de0b6b3a76400006301e133806101388581548110611bb557611bb5613a2c565b90600052602060002090600902016004015442611bd29190613de2565b61013654611be09190613c19565b611bea9190613c38565b61013554611bf89190613c5a565b6113b49084613c19565b60009182526065602090815260408084206001600160a01b0393909316845291905290205460ff1690565b60006101388281548110611c4357611c43613a2c565b6000918252602090912060099091020190506002600882015460ff166003811115611c7057611c7061380d565b14611c8d5760405162461bcd60e51b8152600401610a8890613dab565b80600701544211611cb05760405162461bcd60e51b8152600401610a8890613e59565b600060058201819055600682018190556007820181905560088201805460ff191660011790556040805184815260208101839052908101919091527ff49dbfcc40079f59a911e2541cedaa7a9275ee6fdfb9349032eeb970ce60f57a9060600160405180910390a15050565b60006101388281548110611d3257611d32613a2c565b600091825260209091206008600990920201015460ff1660038111156109675761096761380d565b6000805160206140d6833981519152611d73813361285b565b5061013355565b60008061012f60009054906101000a90046001600160a01b03166001600160a01b03166395d89b416040518163ffffffff1660e01b815260040160006040518083038186803b158015611dcc57600080fd5b505afa158015611de0573d6000803e3d6000fd5b505050506040513d6000823e601f3d908101601f19168201604052611e089190810190613b3d565b61012d54604051630292e0fd60e01b81529192506000916001600160a01b0390911690630292e0fd90611e3f908590600401613bd7565b60206040518083038186803b158015611e5757600080fd5b505afa158015611e6b573d6000803e3d6000fd5b505050506040513d601f19601f82011682018060405250810190611e8f9190613bea565b9050600061012f60009054906101000a90046001600160a01b03166001600160a01b031663313ce5676040518163ffffffff1660e01b815260040160206040518083038186803b158015611ee257600080fd5b505afa158015611ef6573d6000803e3d6000fd5b505050506040513d601f19601f82011682018060405250810190611f1a9190613c72565b611f25906012613c95565b611f3090600a613d9c565b90506000816101388781548110611f4957611f49613a2c565b906000526020600020906009020160020154611f659190613c19565b905060006101388781548110611f7d57611f7d613a2c565b9060005260206000209060090201600301546101388881548110611fa357611fa3613a2c565b906000526020600020906009020160010154846101388a81548110611fca57611fca613a2c565b906000526020600020906009020160020154611fe69190613c19565b611ff09190613c19565b611ffa9190613c38565b9050806101305461200b9190613c19565b6120158584613c19565b10801561203b575061202f81670de0b6b3a7640000613c19565b6120398584613c19565b115b156120fa5782670de0b6b3a7640000610138898154811061205e5761205e613a2c565b90600052602060002090600902016003015461207a9190613de2565b6120849086613c19565b61208e9190613c19565b6120988584613c19565b61013889815481106120ac576120ac613a2c565b906000526020600020906009020160030154836120c99190613c19565b6120d39190613de2565b6120e590670de0b6b3a7640000613c19565b6120ef9190613c38565b979650505050505050565b5060009695505050505050565b61012e546000906001600160a01b031633146121355760405162461bcd60e51b8152600401610a8890613ea0565b82610138858154811061214a5761214a613a2c565b90600052602060002090600902016001018190555081610138858154811061217457612174613a2c565b6000918252602090912060099091020160020155509192915050565b600054610100900460ff166121ab5760005460ff16156121af565b303b155b6122125760405162461bcd60e51b815260206004820152602e60248201527f496e697469616c697a61626c653a20636f6e747261637420697320616c72656160448201526d191e481a5b9a5d1a585b1a5e995960921b6064820152608401610a88565b600054610100900460ff16158015612234576000805461ffff19166101011790555b61223c612f2f565b612244612f58565b61224c612f2f565b612257600033612f87565b61226f6000805160206140d683398151915233612f87565b61228760008051602061406f83398151915233612f87565b6122ad60008051602061404f8339815191526000805160206140d6833981519152612f91565b6122d360008051602061406f8339815191526000805160206140d6833981519152612f91565b61012f80546001600160a01b03808d166001600160a01b03199283161790925561012d80548c841690831617905561012e8054928b16929091169190911790556101308790556101318690556101328590556101338490556101358390556101368290558015612349576000805461ff00191690555b50505050505050505050565b6000805160206140d683398151915261236e813361285b565b5061012e80546001600160a01b0319166001600160a01b0392909216919091179055565b6000805160206140d68339815191526123ab813361285b565b5061013055565b61012e546000906001600160a01b031633146123e05760405162461bcd60e51b8152600401610a8890613ea0565b610138604051806101200160405280876001600160a01b031681526020018681526020018581526020018481526020014281526020016000815260200160008152602001600081526020016001600381111561243e5761243e61380d565b90528154600180820184556000938452602093849020835160099093020180546001600160a01b0319166001600160a01b0390931692909217825592820151818401556040820151600282015560608201516003808301919091556080830151600483015560a0830151600583015560c0830151600683015560e08301516007830155610100830151600883018054949593949193909260ff199092169184908111156124ed576124ed61380d565b021790555050610138546125049150600190613de2565b95945050505050565b61012e546000906001600160a01b0316331461253b5760405162461bcd60e51b8152600401610a8890613ea0565b81610138848154811061255057612550613a2c565b906000526020600020906009020160020160008282546125709190613de2565b925050819055506000610138848154811061258d5761258d613a2c565b906000526020600020906009020160020154905080600014156113be576113be84612c1f565b61012d5461012f54604080516395d89b4160e01b815290516000936001600160a01b0390811693630292e0fd939116916395d89b41916004808201928892909190829003018186803b15801561260857600080fd5b505afa15801561261c573d6000803e3d6000fd5b505050506040513d6000823e601f3d908101601f191682016040526126449190810190613b3d565b6040518263ffffffff1660e01b81526004016126609190613bd7565b60206040518083038186803b15801561267857600080fd5b505afa15801561268c573d6000803e3d6000fd5b505050506040513d601f19601f820116820180604052508101906126b09190613bea565b9050600061013883815481106126c8576126c8613a2c565b6000918252602090912060099091020190506002600882015460ff1660038111156126f5576126f561380d565b146127125760405162461bcd60e51b8152600401610a8890613dab565b806007015442116127355760405162461bcd60e51b8152600401610a8890613e59565b600681018290556101335461274a9042613c5a565b6007820155600581015460068201546040805186815260208101939093528201527ff49dbfcc40079f59a911e2541cedaa7a9275ee6fdfb9349032eeb970ce60f57a9060600160405180910390a1505050565b6000828152606560205260409020600101546127b9813361285b565b610a178383612945565b6000805160206140d68339815191526127dc813361285b565b5061013255565b61013881815481106127f457600080fd5b60009182526020909120600990910201805460018201546002830154600384015460048501546005860154600687015460078801546008909801546001600160a01b0390971698509496939592949193909260ff1689565b6001600160a01b03163b151590565b6128658282611c02565b610a9b5761287d816001600160a01b03166014612fdc565b612888836020612fdc565b604051602001612899929190613ed7565b60408051601f198184030181529082905262461bcd60e51b8252610a8891600401613bd7565b6128c98282611c02565b610a9b5760008281526065602090815260408083206001600160a01b03851684529091529020805460ff191660011790556129013390565b6001600160a01b0316816001600160a01b0316837f2f8788117e7eff1d82e926ec794901d17c78024a50270940304540a733656f0d60405160405180910390a45050565b61294f8282611c02565b15610a9b5760008281526065602090815260408083206001600160a01b0385168085529252808320805460ff1916905551339285917ff6391f5c32d9c69d2a47ea670b442974b53935d1edc7fd64eb21e047a839171b9190a45050565b60008051602061406f833981519152610a9b813361285b565b7f4910fdfa16fed3260ed0e7147f7cc6da11a60208b5b9406d12a635614ffd91435460ff16156129f857610a1783613178565b826001600160a01b03166352d1902d6040518163ffffffff1660e01b815260040160206040518083038186803b158015612a3157600080fd5b505afa925050508015612a61575060408051601f3d908101601f19168201909252612a5e91810190613bea565b60015b612ac45760405162461bcd60e51b815260206004820152602e60248201527f45524331393637557067726164653a206e657720696d706c656d656e7461746960448201526d6f6e206973206e6f74205555505360901b6064820152608401610a88565b60008051602061408f8339815191528114612b335760405162461bcd60e51b815260206004820152602960248201527f45524331393637557067726164653a20756e737570706f727465642070726f786044820152681a58589b195555525160ba1b6064820152608401610a88565b50610a17838383613214565b6000670de0b6b3a76400006101335483600601546101325461013154612b659190613de2565b428660070154612b759190613de2565b612b7f9190613c19565b612b899190613c19565b612b939190613c38565b612b9d9190613c38565b670de0b6b3a7640000610132548460060154612bb99190613c19565b612bc39190613c38565b6109679190613c5a565b604080516001600160a01b038416602482015260448082018490528251808303909101815260649091019091526020810180516001600160e01b031663a9059cbb60e01b179052610a1790849061323f565b61013854600090612c3290600190613de2565b9050818114612dd95761012e5461013880546001600160a01b03909216916359880b95919084908110612c6757612c67613a2c565b600091825260209091206009909102015461013880546001600160a01b039092169185908110612c9957612c99613a2c565b9060005260206000209060090201600201546101388581548110612cbf57612cbf613a2c565b9060005260206000209060090201600101546101388681548110612ce557612ce5613a2c565b906000526020600020906009020160030154868861012f60009054906101000a90046001600160a01b03166001600160a01b03166395d89b416040518163ffffffff1660e01b815260040160006040518083038186803b158015612d4857600080fd5b505afa158015612d5c573d6000803e3d6000fd5b505050506040513d6000823e601f3d908101601f19168201604052612d849190810190613b3d565b6040518863ffffffff1660e01b8152600401612da69796959493929190613f4c565b600060405180830381600087803b158015612dc057600080fd5b505af1158015612dd4573d6000803e3d6000fd5b505050505b6101388181548110612ded57612ded613a2c565b90600052602060002090600902016101388381548110612e0f57612e0f613a2c565b60009182526020909120825460099092020180546001600160a01b0319166001600160a01b0390921691909117815560018083015481830155600280840154908301556003808401548184015560048085015490840155600580850154908401556006808501549084015560078085015490840155600880850154908401805460ff90921693909260ff19909216918490811115612eaf57612eaf61380d565b0217905550905050610138805480612ec957612ec9613f98565b60008281526020812060096000199093019283020180546001600160a01b03191681556001810182905560028101829055600381018290556004810182905560058101829055600681018290556007810191909155600801805460ff1916905590555050565b600054610100900460ff16612f565760405162461bcd60e51b8152600401610a8890613fae565b565b600054610100900460ff16612f7f5760405162461bcd60e51b8152600401610a8890613fae565b612f56613311565b610a9b82826128bf565b600082815260656020526040808220600101805490849055905190918391839186917fbd79b86ffe0ab8e8776151514217cd7cacd52c909f66475c3af44e129f0b00ff9190a4505050565b60606000612feb836002613c19565b612ff6906002613c5a565b67ffffffffffffffff81111561300e5761300e61370d565b6040519080825280601f01601f191660200182016040528015613038576020820181803683370190505b509050600360fc1b8160008151811061305357613053613a2c565b60200101906001600160f81b031916908160001a905350600f60fb1b8160018151811061308257613082613a2c565b60200101906001600160f81b031916908160001a90535060006130a6846002613c19565b6130b1906001613c5a565b90505b6001811115613129576f181899199a1a9b1b9c1cb0b131b232b360811b85600f16601081106130e5576130e5613a2c565b1a60f81b8282815181106130fb576130fb613a2c565b60200101906001600160f81b031916908160001a90535060049490941c9361312281613ff9565b90506130b4565b5083156113be5760405162461bcd60e51b815260206004820181905260248201527f537472696e67733a20686578206c656e67746820696e73756666696369656e746044820152606401610a88565b6001600160a01b0381163b6131e55760405162461bcd60e51b815260206004820152602d60248201527f455243313936373a206e657720696d706c656d656e746174696f6e206973206e60448201526c1bdd08184818dbdb9d1c9858dd609a1b6064820152608401610a88565b60008051602061408f83398151915280546001600160a01b0319166001600160a01b0392909216919091179055565b61321d8361333f565b60008251118061322a5750805b15610a1757613239838361337f565b50505050565b6000613294826040518060400160405280602081526020017f5361666545524332303a206c6f772d6c6576656c2063616c6c206661696c6564815250856001600160a01b031661346a9092919063ffffffff16565b805190915015610a1757808060200190518101906132b29190614010565b610a175760405162461bcd60e51b815260206004820152602a60248201527f5361666545524332303a204552433230206f7065726174696f6e20646964206e6044820152691bdd081cdd58d8d9595960b21b6064820152608401610a88565b600054610100900460ff166133385760405162461bcd60e51b8152600401610a8890613fae565b6001609755565b61334881613178565b6040516001600160a01b038216907fbc7cd75a20ee27fd9adebab32041f755214dbc6bffa90cc0225b39da2e5c2d3b90600090a250565b60606001600160a01b0383163b6133e75760405162461bcd60e51b815260206004820152602660248201527f416464726573733a2064656c65676174652063616c6c20746f206e6f6e2d636f6044820152651b9d1c9858dd60d21b6064820152608401610a88565b600080846001600160a01b0316846040516134029190614032565b600060405180830381855af49150503d806000811461343d576040519150601f19603f3d011682016040523d82523d6000602084013e613442565b606091505b509150915061250482826040518060600160405280602781526020016140af60279139613481565b606061347984846000856134ba565b949350505050565b606083156134905750816113be565b8251156134a05782518084602001fd5b8160405162461bcd60e51b8152600401610a889190613bd7565b60608247101561351b5760405162461bcd60e51b815260206004820152602660248201527f416464726573733a20696e73756666696369656e742062616c616e636520666f6044820152651c8818d85b1b60d21b6064820152608401610a88565b6001600160a01b0385163b6135725760405162461bcd60e51b815260206004820152601d60248201527f416464726573733a2063616c6c20746f206e6f6e2d636f6e74726163740000006044820152606401610a88565b600080866001600160a01b0316858760405161358e9190614032565b60006040518083038185875af1925050503d80600081146135cb576040519150601f19603f3d011682016040523d82523d6000602084013e6135d0565b606091505b50915091506120ef828286613481565b60405180610120016040528060006001600160a01b0316815260200160008152602001600081526020016000815260200160008152602001600081526020016000815260200160008152602001600060038111156136405761364061380d565b905290565b60006020828403121561365757600080fd5b81356001600160e01b0319811681146113be57600080fd5b80356001600160a01b038116811461368657600080fd5b919050565b60006020828403121561369d57600080fd5b6113be8261366f565b6000602082840312156136b857600080fd5b5035919050565b600080604083850312156136d257600080fd5b823591506136e26020840161366f565b90509250929050565b600080604083850312156136fe57600080fd5b50508035926020909101359150565b634e487b7160e01b600052604160045260246000fd5b604051601f8201601f1916810167ffffffffffffffff8111828210171561374c5761374c61370d565b604052919050565b600067ffffffffffffffff82111561376e5761376e61370d565b50601f01601f191660200190565b6000806040838503121561378f57600080fd5b6137988361366f565b9150602083013567ffffffffffffffff8111156137b457600080fd5b8301601f810185136137c557600080fd5b80356137d86137d382613754565b613723565b8181528660208385010111156137ed57600080fd5b816020840160208301376000602083830101528093505050509250929050565b634e487b7160e01b600052602160045260246000fd5b6004811061384157634e487b7160e01b600052602160045260246000fd5b9052565b602080825282518282018190526000919060409081850190868401855b828110156138e557815180516001600160a01b0316855286810151878601528581015186860152606080820151908601526080808201519086015260a0808201519086015260c0808201519086015260e0808201519086015261010090810151906138cf81870183613823565b5050610120939093019290850190600101613862565b5091979650505050505050565b60008060006060848603121561390757600080fd5b505081359360208301359350604090920135919050565b60008060008060008060008060006101208a8c03121561393d57600080fd5b6139468a61366f565b985061395460208b0161366f565b975061396260408b0161366f565b989b979a5097986060810135985060808101359760a0820135975060c0820135965060e08201359550610100909101359350915050565b600080600080608085870312156139af57600080fd5b6139b88561366f565b966020860135965060408601359560600135945092505050565b60006101208201905060018060a01b038b1682528960208301528860408301528760608301528660808301528560a08301528460c08301528360e0830152613a1e610100830184613823565b9a9950505050505050505050565b634e487b7160e01b600052603260045260246000fd5b6020808252602c908201527f46756e6374696f6e206d7573742062652063616c6c6564207468726f7567682060408201526b19195b1959d85d1958d85b1b60a21b606082015260800190565b6020808252602c908201527f46756e6374696f6e206d7573742062652063616c6c6564207468726f7567682060408201526b6163746976652070726f787960a01b606082015260800190565b6020808252601f908201527f5265656e7472616e637947756172643a207265656e7472616e742063616c6c00604082015260600190565b60005b83811015613b2c578181015183820152602001613b14565b838111156132395750506000910152565b600060208284031215613b4f57600080fd5b815167ffffffffffffffff811115613b6657600080fd5b8201601f81018413613b7757600080fd5b8051613b856137d382613754565b818152856020838501011115613b9a57600080fd5b612504826020830160208601613b11565b60008151808452613bc3816020860160208601613b11565b601f01601f19169290920160200192915050565b6020815260006113be6020830184613bab565b600060208284031215613bfc57600080fd5b5051919050565b634e487b7160e01b600052601160045260246000fd5b6000816000190483118215151615613c3357613c33613c03565b500290565b600082613c5557634e487b7160e01b600052601260045260246000fd5b500490565b60008219821115613c6d57613c6d613c03565b500190565b600060208284031215613c8457600080fd5b815160ff811681146113be57600080fd5b600060ff821660ff841680821015613caf57613caf613c03565b90039392505050565b600181815b80851115613cf3578160001904821115613cd957613cd9613c03565b80851615613ce657918102915b93841c9390800290613cbd565b509250929050565b600082613d0a57506001610967565b81613d1757506000610967565b8160018114613d2d5760028114613d3757613d53565b6001915050610967565b60ff841115613d4857613d48613c03565b50506001821b610967565b5060208310610133831016604e8410600b8410161715613d76575081810a610967565b613d808383613cb8565b8060001904821115613d9457613d94613c03565b029392505050565b60006113be60ff841683613cfb565b6020808252601f908201527f575141756374696f6e3a204c6f74206973206e6f742061756374696f6e656400604082015260600190565b600082821015613df457613df4613c03565b500390565b60018060a01b038716815285602082015284604082015283606082015282608082015260c060a08201526000613e3260c0830184613bab565b98975050505050505050565b6000600019821415613e5257613e52613c03565b5060010190565b60208082526027908201527f575141756374696f6e3a2041756374696f6e2074696d65206973206e6f74206f6040820152661d995c881e595d60ca1b606082015260800190565b6020808252601f908201527f575141756374696f6e3a2053656e646572206973206e6f7420726f7574657200604082015260600190565b7f416363657373436f6e74726f6c3a206163636f756e7420000000000000000000815260008351613f0f816017850160208801613b11565b7001034b99036b4b9b9b4b733903937b6329607d1b6017918401918201528351613f40816028840160208801613b11565b01602801949350505050565b60018060a01b03881681528660208201528560408201528460608201528360808201528260a082015260e060c08201526000613f8b60e0830184613bab565b9998505050505050505050565b634e487b7160e01b600052603160045260246000fd5b6020808252602b908201527f496e697469616c697a61626c653a20636f6e7472616374206973206e6f74206960408201526a6e697469616c697a696e6760a81b606082015260800190565b60008161400857614008613c03565b506000190190565b60006020828403121561402257600080fd5b815180151581146113be57600080fd5b60008251614044818460208701613b11565b919091019291505056fed8a7a79547af723ee3e12b59a480111268d8969c634e1a34a144d2c8b91d635b189ab7a9244df0848122154315af71fe140f3db0fe014031783b0946b8c9d2e3360894a13ba1a3210667c828492db98dca3e2076cc3735a920a3ca505d382bbc416464726573733a206c6f772d6c6576656c2064656c65676174652063616c6c206661696c6564a49807205ce4d355092ef5a8a18f56e8913cf4a201fbe287825b095693c21775a2646970667358221220e64b46125cd99dc132803e556439bb01b686a01b5b630dacb79297dcab6a247264736f6c63430008090033",
  "linkReferences": {},
  "deployedLinkReferences": {}
}