{
  "_format": "hh-sol-artifact-1",
  "contractName": "WQCollateralAuction",
  "sourceName": "contracts/stablecoin/WQCollateralAuction.sol",
  "abi": [
    {
      "inputs": [],
      "stateMutability": "nonpayable",
      "type": "constructor"
    },
    {
      "anonymous": false,
      "inputs": [
        {
          "indexed": false,
          "internalType": "address",
          "name": "previousAdmin",
          "type": "address"
        },
        {
          "indexed": false,
          "internalType": "address",
          "name": "newAdmin",
          "type": "address"
        }
      ],
      "name": "AdminChanged",
      "type": "event"
    },
    {
      "anonymous": false,
      "inputs": [
        {
          "indexed": false,
          "internalType": "uint256",
          "name": "index",
          "type": "uint256"
        },
        {
          "indexed": false,
          "internalType": "uint256",
          "name": "amount",
          "type": "uint256"
        },
        {
          "indexed": false,
          "internalType": "uint256",
          "name": "endCost",
          "type": "uint256"
        }
      ],
      "name": "AuctionStarted",
      "type": "event"
    },
    {
      "anonymous": false,
      "inputs": [
        {
          "indexed": true,
          "internalType": "address",
          "name": "beacon",
          "type": "address"
        }
      ],
      "name": "BeaconUpgraded",
      "type": "event"
    },
    {
      "anonymous": false,
      "inputs": [
        {
          "indexed": false,
          "internalType": "address",
          "name": "buyer",
          "type": "address"
        },
        {
          "indexed": false,
          "internalType": "uint256",
          "name": "index",
          "type": "uint256"
        },
        {
          "indexed": false,
          "internalType": "uint256",
          "name": "amount",
          "type": "uint256"
        },
        {
          "indexed": false,
          "internalType": "uint256",
          "name": "cost",
          "type": "uint256"
        },
        {
          "indexed": false,
          "internalType": "uint256",
          "name": "price",
          "type": "uint256"
        }
      ],
      "name": "LotBuyed",
      "type": "event"
    },
    {
      "anonymous": false,
      "inputs": [
        {
          "indexed": false,
          "internalType": "uint256",
          "name": "index",
          "type": "uint256"
        },
        {
          "indexed": false,
          "internalType": "uint256",
          "name": "amount",
          "type": "uint256"
        },
        {
          "indexed": false,
          "internalType": "uint256",
          "name": "cost",
          "type": "uint256"
        }
      ],
      "name": "LotCanceled",
      "type": "event"
    },
    {
      "anonymous": false,
      "inputs": [
        {
          "indexed": true,
          "internalType": "bytes32",
          "name": "role",
          "type": "bytes32"
        },
        {
          "indexed": true,
          "internalType": "bytes32",
          "name": "previousAdminRole",
          "type": "bytes32"
        },
        {
          "indexed": true,
          "internalType": "bytes32",
          "name": "newAdminRole",
          "type": "bytes32"
        }
      ],
      "name": "RoleAdminChanged",
      "type": "event"
    },
    {
      "anonymous": false,
      "inputs": [
        {
          "indexed": true,
          "internalType": "bytes32",
          "name": "role",
          "type": "bytes32"
        },
        {
          "indexed": true,
          "internalType": "address",
          "name": "account",
          "type": "address"
        },
        {
          "indexed": true,
          "internalType": "address",
          "name": "sender",
          "type": "address"
        }
      ],
      "name": "RoleGranted",
      "type": "event"
    },
    {
      "anonymous": false,
      "inputs": [
        {
          "indexed": true,
          "internalType": "bytes32",
          "name": "role",
          "type": "bytes32"
        },
        {
          "indexed": true,
          "internalType": "address",
          "name": "account",
          "type": "address"
        },
        {
          "indexed": true,
          "internalType": "address",
          "name": "sender",
          "type": "address"
        }
      ],
      "name": "RoleRevoked",
      "type": "event"
    },
    {
      "anonymous": false,
      "inputs": [
        {
          "indexed": true,
          "internalType": "address",
          "name": "implementation",
          "type": "address"
        }
      ],
      "name": "Upgraded",
      "type": "event"
    },
    {
      "inputs": [],
      "name": "ADMIN_ROLE",
      "outputs": [
        {
          "internalType": "bytes32",
          "name": "",
          "type": "bytes32"
        }
      ],
      "stateMutability": "view",
      "type": "function"
    },
    {
      "inputs": [],
      "name": "DEFAULT_ADMIN_ROLE",
      "outputs": [
        {
          "internalType": "bytes32",
          "name": "",
          "type": "bytes32"
        }
      ],
      "stateMutability": "view",
      "type": "function"
    },
    {
      "inputs": [],
      "name": "SERVICE_ROLE",
      "outputs": [
        {
          "internalType": "bytes32",
          "name": "",
          "type": "bytes32"
        }
      ],
      "stateMutability": "view",
      "type": "function"
    },
    {
      "inputs": [],
      "name": "UPGRADER_ROLE",
      "outputs": [
        {
          "internalType": "bytes32",
          "name": "",
          "type": "bytes32"
        }
      ],
      "stateMutability": "view",
      "type": "function"
    },
    {
      "inputs": [
        {
          "internalType": "address",
          "name": "user",
          "type": "address"
        },
        {
          "internalType": "uint256",
          "name": "price",
          "type": "uint256"
        },
        {
          "internalType": "uint256",
          "name": "amount",
          "type": "uint256"
        },
        {
          "internalType": "uint256",
          "name": "ratio",
          "type": "uint256"
        }
      ],
      "name": "addLot",
      "outputs": [
        {
          "internalType": "uint256",
          "name": "",
          "type": "uint256"
        }
      ],
      "stateMutability": "nonpayable",
      "type": "function"
    },
    {
      "inputs": [],
      "name": "auctionDuration",
      "outputs": [
        {
          "internalType": "uint256",
          "name": "",
          "type": "uint256"
        }
      ],
      "stateMutability": "view",
      "type": "function"
    },
    {
      "inputs": [
        {
          "internalType": "uint256",
          "name": "index",
          "type": "uint256"
        }
      ],
      "name": "buyLot",
      "outputs": [],
      "stateMutability": "nonpayable",
      "type": "function"
    },
    {
      "inputs": [
        {
          "internalType": "uint256",
          "name": "index",
          "type": "uint256"
        }
      ],
      "name": "cancelAuction",
      "outputs": [],
      "stateMutability": "nonpayable",
      "type": "function"
    },
    {
      "inputs": [
        {
          "internalType": "uint256",
          "name": "index",
          "type": "uint256"
        },
        {
          "internalType": "uint256",
          "name": "collaterralPart",
          "type": "uint256"
        }
      ],
      "name": "decreaseLotAmount",
      "outputs": [
        {
          "internalType": "uint256",
          "name": "",
          "type": "uint256"
        }
      ],
      "stateMutability": "nonpayable",
      "type": "function"
    },
    {
      "inputs": [],
      "name": "disableReserves",
      "outputs": [],
      "stateMutability": "nonpayable",
      "type": "function"
    },
    {
      "inputs": [],
      "name": "enableReserves",
      "outputs": [],
      "stateMutability": "nonpayable",
      "type": "function"
    },
    {
      "inputs": [
        {
          "internalType": "uint256",
          "name": "index",
          "type": "uint256"
        }
      ],
      "name": "getComission",
      "outputs": [
        {
          "internalType": "uint256",
          "name": "",
          "type": "uint256"
        }
      ],
      "stateMutability": "view",
      "type": "function"
    },
    {
      "inputs": [
        {
          "internalType": "uint256",
          "name": "index",
          "type": "uint256"
        }
      ],
      "name": "getCurrentLotCost",
      "outputs": [
        {
          "internalType": "uint256",
          "name": "",
          "type": "uint256"
        }
      ],
      "stateMutability": "view",
      "type": "function"
    },
    {
      "inputs": [],
      "name": "getLiquidatedCollaterallAmount",
      "outputs": [
        {
          "internalType": "uint256",
          "name": "",
          "type": "uint256"
        }
      ],
      "stateMutability": "view",
      "type": "function"
    },
    {
      "inputs": [
        {
          "internalType": "uint256",
          "name": "index",
          "type": "uint256"
        }
      ],
      "name": "getLotInfo",
      "outputs": [
        {
          "internalType": "uint256",
          "name": "",
          "type": "uint256"
        },
        {
          "internalType": "uint256",
          "name": "",
          "type": "uint256"
        },
        {
          "internalType": "uint256",
          "name": "",
          "type": "uint256"
        }
      ],
      "stateMutability": "view",
      "type": "function"
    },
    {
      "inputs": [
        {
          "internalType": "uint256",
          "name": "index",
          "type": "uint256"
        }
      ],
      "name": "getLotOwner",
      "outputs": [
        {
          "internalType": "address",
          "name": "",
          "type": "address"
        }
      ],
      "stateMutability": "view",
      "type": "function"
    },
    {
      "inputs": [
        {
          "internalType": "uint256",
          "name": "index",
          "type": "uint256"
        }
      ],
      "name": "getLotStatus",
      "outputs": [
        {
          "internalType": "uint8",
          "name": "",
          "type": "uint8"
        }
      ],
      "stateMutability": "view",
      "type": "function"
    },
    {
      "inputs": [
        {
          "internalType": "uint256",
          "name": "offset",
          "type": "uint256"
        },
        {
          "internalType": "uint256",
          "name": "limit",
          "type": "uint256"
        }
      ],
      "name": "getLots",
      "outputs": [
        {
          "components": [
            {
              "internalType": "address",
              "name": "user",
              "type": "address"
            },
            {
              "internalType": "uint256",
              "name": "price",
              "type": "uint256"
            },
            {
              "internalType": "uint256",
              "name": "amount",
              "type": "uint256"
            },
            {
              "internalType": "uint256",
              "name": "ratio",
              "type": "uint256"
            },
            {
              "internalType": "uint256",
              "name": "created",
              "type": "uint256"
            },
            {
              "internalType": "uint256",
              "name": "saleAmount",
              "type": "uint256"
            },
            {
              "internalType": "uint256",
              "name": "endPrice",
              "type": "uint256"
            },
            {
              "internalType": "uint256",
              "name": "endTime",
              "type": "uint256"
            },
            {
              "internalType": "enum WQCollateralAuction.LotStatus",
              "name": "status",
              "type": "uint8"
            }
          ],
          "internalType": "struct WQCollateralAuction.LotInfo[]",
          "name": "page",
          "type": "tuple[]"
        }
      ],
      "stateMutability": "view",
      "type": "function"
    },
    {
      "inputs": [
        {
          "internalType": "bytes32",
          "name": "role",
          "type": "bytes32"
        }
      ],
      "name": "getRoleAdmin",
      "outputs": [
        {
          "internalType": "bytes32",
          "name": "",
          "type": "bytes32"
        }
      ],
      "stateMutability": "view",
      "type": "function"
    },
    {
      "inputs": [
        {
          "internalType": "bytes32",
          "name": "role",
          "type": "bytes32"
        },
        {
          "internalType": "address",
          "name": "account",
          "type": "address"
        }
      ],
      "name": "grantRole",
      "outputs": [],
      "stateMutability": "nonpayable",
      "type": "function"
    },
    {
      "inputs": [
        {
          "internalType": "bytes32",
          "name": "role",
          "type": "bytes32"
        },
        {
          "internalType": "address",
          "name": "account",
          "type": "address"
        }
      ],
      "name": "hasRole",
      "outputs": [
        {
          "internalType": "bool",
          "name": "",
          "type": "bool"
        }
      ],
      "stateMutability": "view",
      "type": "function"
    },
    {
      "inputs": [
        {
          "internalType": "address",
          "name": "_token",
          "type": "address"
        },
        {
          "internalType": "address",
          "name": "_oracle",
          "type": "address"
        },
        {
          "internalType": "address",
          "name": "_router",
          "type": "address"
        },
        {
          "internalType": "uint256",
          "name": "_liquidateThreshold",
          "type": "uint256"
        },
        {
          "internalType": "uint256",
          "name": "_upperBoundCost",
          "type": "uint256"
        },
        {
          "internalType": "uint256",
          "name": "_lowerBoundCost",
          "type": "uint256"
        },
        {
          "internalType": "uint256",
          "name": "_auctionDuration",
          "type": "uint256"
        }
      ],
      "name": "initialize",
      "outputs": [],
      "stateMutability": "nonpayable",
      "type": "function"
    },
    {
      "inputs": [
        {
          "internalType": "uint256",
          "name": "index",
          "type": "uint256"
        },
        {
          "internalType": "uint256",
          "name": "amount",
          "type": "uint256"
        }
      ],
      "name": "liquidateLot",
      "outputs": [],
      "stateMutability": "nonpayable",
      "type": "function"
    },
    {
      "inputs": [],
      "name": "liquidateThreshold",
      "outputs": [
        {
          "internalType": "uint256",
          "name": "",
          "type": "uint256"
        }
      ],
      "stateMutability": "view",
      "type": "function"
    },
    {
      "inputs": [
        {
          "internalType": "uint256",
          "name": "",
          "type": "uint256"
        }
      ],
      "name": "lots",
      "outputs": [
        {
          "internalType": "address",
          "name": "user",
          "type": "address"
        },
        {
          "internalType": "uint256",
          "name": "price",
          "type": "uint256"
        },
        {
          "internalType": "uint256",
          "name": "amount",
          "type": "uint256"
        },
        {
          "internalType": "uint256",
          "name": "ratio",
          "type": "uint256"
        },
        {
          "internalType": "uint256",
          "name": "created",
          "type": "uint256"
        },
        {
          "internalType": "uint256",
          "name": "saleAmount",
          "type": "uint256"
        },
        {
          "internalType": "uint256",
          "name": "endPrice",
          "type": "uint256"
        },
        {
          "internalType": "uint256",
          "name": "endTime",
          "type": "uint256"
        },
        {
          "internalType": "enum WQCollateralAuction.LotStatus",
          "name": "status",
          "type": "uint8"
        }
      ],
      "stateMutability": "view",
      "type": "function"
    },
    {
      "inputs": [],
      "name": "lowerBoundCost",
      "outputs": [
        {
          "internalType": "uint256",
          "name": "",
          "type": "uint256"
        }
      ],
      "stateMutability": "view",
      "type": "function"
    },
    {
      "inputs": [
        {
          "internalType": "uint256",
          "name": "index",
          "type": "uint256"
        },
        {
          "internalType": "uint256",
          "name": "newPrice",
          "type": "uint256"
        },
        {
          "internalType": "uint256",
          "name": "newAmount",
          "type": "uint256"
        }
      ],
      "name": "moveLot",
      "outputs": [
        {
          "internalType": "uint256",
          "name": "",
          "type": "uint256"
        }
      ],
      "stateMutability": "nonpayable",
      "type": "function"
    },
    {
      "inputs": [],
      "name": "oracle",
      "outputs": [
        {
          "internalType": "contract WQPriceOracleInterface",
          "name": "",
          "type": "address"
        }
      ],
      "stateMutability": "view",
      "type": "function"
    },
    {
      "inputs": [],
      "name": "proxiableUUID",
      "outputs": [
        {
          "internalType": "bytes32",
          "name": "",
          "type": "bytes32"
        }
      ],
      "stateMutability": "view",
      "type": "function"
    },
    {
      "inputs": [
        {
          "internalType": "bytes32",
          "name": "role",
          "type": "bytes32"
        },
        {
          "internalType": "address",
          "name": "account",
          "type": "address"
        }
      ],
      "name": "renounceRole",
      "outputs": [],
      "stateMutability": "nonpayable",
      "type": "function"
    },
    {
      "inputs": [],
      "name": "reservesEnabled",
      "outputs": [
        {
          "internalType": "bool",
          "name": "",
          "type": "bool"
        }
      ],
      "stateMutability": "view",
      "type": "function"
    },
    {
      "inputs": [
        {
          "internalType": "bytes32",
          "name": "role",
          "type": "bytes32"
        },
        {
          "internalType": "address",
          "name": "account",
          "type": "address"
        }
      ],
      "name": "revokeRole",
      "outputs": [],
      "stateMutability": "nonpayable",
      "type": "function"
    },
    {
      "inputs": [],
      "name": "router",
      "outputs": [
        {
          "internalType": "contract WQRouterInterface",
          "name": "",
          "type": "address"
        }
      ],
      "stateMutability": "view",
      "type": "function"
    },
    {
      "inputs": [
        {
          "internalType": "uint256",
          "name": "duration",
          "type": "uint256"
        }
      ],
      "name": "setAuctionDuration",
      "outputs": [],
      "stateMutability": "nonpayable",
      "type": "function"
    },
    {
      "inputs": [
        {
          "internalType": "uint256",
          "name": "percent",
          "type": "uint256"
        }
      ],
      "name": "setLiquidateTreshold",
      "outputs": [],
      "stateMutability": "nonpayable",
      "type": "function"
    },
    {
      "inputs": [
        {
          "internalType": "uint256",
          "name": "percent",
          "type": "uint256"
        }
      ],
      "name": "setLowerBoundCost",
      "outputs": [],
      "stateMutability": "nonpayable",
      "type": "function"
    },
    {
      "inputs": [
        {
          "internalType": "address",
          "name": "_oracle",
          "type": "address"
        }
      ],
      "name": "setOracle",
      "outputs": [],
      "stateMutability": "nonpayable",
      "type": "function"
    },
    {
      "inputs": [
        {
          "internalType": "address",
          "name": "_router",
          "type": "address"
        }
      ],
      "name": "setRouter",
      "outputs": [],
      "stateMutability": "nonpayable",
      "type": "function"
    },
    {
      "inputs": [
        {
          "internalType": "address",
          "name": "_token",
          "type": "address"
        }
      ],
      "name": "setToken",
      "outputs": [],
      "stateMutability": "nonpayable",
      "type": "function"
    },
    {
      "inputs": [
        {
          "internalType": "uint256",
          "name": "percent",
          "type": "uint256"
        }
      ],
      "name": "setUpperBoundCost",
      "outputs": [],
      "stateMutability": "nonpayable",
      "type": "function"
    },
    {
      "inputs": [
        {
          "internalType": "uint256",
          "name": "index",
          "type": "uint256"
        },
        {
          "internalType": "uint256",
          "name": "amount",
          "type": "uint256"
        }
      ],
      "name": "startAuction",
      "outputs": [],
      "stateMutability": "nonpayable",
      "type": "function"
    },
    {
      "inputs": [
        {
          "internalType": "bytes4",
          "name": "interfaceId",
          "type": "bytes4"
        }
      ],
      "name": "supportsInterface",
      "outputs": [
        {
          "internalType": "bool",
          "name": "",
          "type": "bool"
        }
      ],
      "stateMutability": "view",
      "type": "function"
    },
    {
      "inputs": [],
      "name": "token",
      "outputs": [
        {
          "internalType": "contract IERC20MetadataUpgradeable",
          "name": "",
          "type": "address"
        }
      ],
      "stateMutability": "view",
      "type": "function"
    },
    {
      "inputs": [],
      "name": "totalAuctioned",
      "outputs": [
        {
          "internalType": "uint256",
          "name": "",
          "type": "uint256"
        }
      ],
      "stateMutability": "view",
      "type": "function"
    },
    {
      "inputs": [
        {
          "internalType": "address",
          "name": "newImplementation",
          "type": "address"
        }
      ],
      "name": "upgradeTo",
      "outputs": [],
      "stateMutability": "nonpayable",
      "type": "function"
    },
    {
      "inputs": [
        {
          "internalType": "address",
          "name": "newImplementation",
          "type": "address"
        },
        {
          "internalType": "bytes",
          "name": "data",
          "type": "bytes"
        }
      ],
      "name": "upgradeToAndCall",
      "outputs": [],
      "stateMutability": "payable",
      "type": "function"
    },
    {
      "inputs": [],
      "name": "upperBoundCost",
      "outputs": [
        {
          "internalType": "uint256",
          "name": "",
          "type": "uint256"
        }
      ],
      "stateMutability": "view",
      "type": "function"
    }
  ],
  "bytecode": "0x60a0604052306080523480156200001557600080fd5b50600054610100900460ff16620000335760005460ff16156200003d565b6200003d620000e2565b620000a55760405162461bcd60e51b815260206004820152602e60248201527f496e697469616c697a61626c653a20636f6e747261637420697320616c72656160448201526d191e481a5b9a5d1a585b1a5e995960921b606482015260840160405180910390fd5b600054610100900460ff16158015620000c8576000805461ffff19166101011790555b8015620000db576000805461ff00191690555b506200010f565b6000620000fa306200010060201b62002b021760201c565b15905090565b6001600160a01b03163b151590565b6080516141266200014760003960008181611057015281816110970152818161136c015281816113ac015261194401526141266000f3fe6080604052600436106102885760003560e01c80637dc0d1d01161015a578063c41600fe116100c1578063f72c0d8b1161007a578063f72c0d8b146107f3578063f887ea4014610815578063fc0c546a14610836578063fdcb648c14610857578063ff2ab2291461086e578063ffb671861461088557600080fd5b8063c41600fe1461071e578063cc6b3be31461073e578063d0896c551461075e578063d547741f1461077e578063e2a07a071461079e578063f1648e84146107be57600080fd5b8063a20e7d4711610113578063a20e7d4714610672578063a217fddf14610694578063a497e674146106a9578063b0f78765146106c9578063b70a07ea146106de578063c0d78655146106fe57600080fd5b80637dc0d1d014610597578063874f5cbb146105b857806391d14854146105e557806396b5a75514610605578063997e7c36146106255780639ea687a71461065757600080fd5b80633a1a7327116101fe578063535bb867116101b7578063535bb867146104e057806364ad7ad71461050057806374e3e3dc1461052057806375b238fc1461054057806376446013146105625780637adbf9731461057757600080fd5b80633a1a732714610429578063403b74ed146104615780634823bd55146104785780634f1ef286146104985780634fee13fc146104ab57806352d1902d146104cb57600080fd5b80632c2a40c7116102505780632c2a40c7146103595780632f1b1303146103795780632f2ff15d146103b457806336568abe146103d45780633659cfe6146103f457806336c1d2351461041457600080fd5b806301ffc9a71461028d5780630cbf54c8146102c2578063144fa6d7146102e7578063248a9ca3146103095780632b4656c814610339575b600080fd5b34801561029957600080fd5b506102ad6102a8366004613695565b61089c565b60405190151581526020015b60405180910390f35b3480156102ce57600080fd5b506102d96101335481565b6040519081526020016102b9565b3480156102f357600080fd5b506103076103023660046136db565b6108d3565b005b34801561031557600080fd5b506102d96103243660046136f6565b60009081526065602052604090206001015490565b34801561034557600080fd5b5061030761035436600461370f565b610910565b34801561036557600080fd5b50610307610374366004613777565b610acc565b34801561038557600080fd5b506103996103943660046136f6565b610f5c565b604080519384526020840192909252908201526060016102b9565b3480156103c057600080fd5b506103076103cf366004613799565b610fa3565b3480156103e057600080fd5b506103076103ef366004613799565b610fce565b34801561040057600080fd5b5061030761040f3660046136db565b61104c565b34801561042057600080fd5b5061030761112c565b34801561043557600080fd5b506104496104443660046136f6565b611184565b6040516001600160a01b0390911681526020016102b9565b34801561046d57600080fd5b506102d96101315481565b34801561048457600080fd5b506102d96104933660046136f6565b6111ba565b6103076104a6366004613834565b611361565b3480156104b757600080fd5b506103076104c6366004613777565b61142e565b3480156104d757600080fd5b506102d9611937565b3480156104ec57600080fd5b506102d96104fb3660046136f6565b6119ea565b34801561050c57600080fd5b5061030761051b3660046136f6565b611b60565b34801561052c57600080fd5b5061030761053b3660046136f6565b611b80565b34801561054c57600080fd5b506102d96000805160206140d183398151915281565b34801561056e57600080fd5b50610307611fb6565b34801561058357600080fd5b506103076105923660046136db565b61200a565b3480156105a357600080fd5b5061012d54610449906001600160a01b031681565b3480156105c457600080fd5b506105d86105d3366004613777565b612047565b6040516102b991906138fd565b3480156105f157600080fd5b506102ad610600366004613799565b6121d1565b34801561061157600080fd5b506103076106203660046136f6565b6121fc565b34801561063157600080fd5b506106456106403660046136f6565b6123b4565b60405160ff90911681526020016102b9565b34801561066357600080fd5b50610135546102ad9060ff1681565b34801561067e57600080fd5b506102d960008051602061404a83398151915281565b3480156106a057600080fd5b506102d9600081565b3480156106b557600080fd5b506103076106c43660046136f6565b6123f2565b3480156106d557600080fd5b506102d9612412565b3480156106ea57600080fd5b506102d96106f93660046139aa565b61276c565b34801561070a57600080fd5b506103076107193660046136db565b6127f5565b34801561072a57600080fd5b506103076107393660046136f6565b612832565b34801561074a57600080fd5b506102d96107593660046139d6565b612852565b34801561076a57600080fd5b506102d9610779366004613777565b6129ad565b34801561078a57600080fd5b50610307610799366004613799565b612a53565b3480156107aa57600080fd5b506103076107b93660046136f6565b612a79565b3480156107ca57600080fd5b506107de6107d93660046136f6565b612a99565b6040516102b999989796959493929190613a0f565b3480156107ff57600080fd5b506102d960008051602061406a83398151915281565b34801561082157600080fd5b5061012e54610449906001600160a01b031681565b34801561084257600080fd5b5061012f54610449906001600160a01b031681565b34801561086357600080fd5b506102d96101305481565b34801561087a57600080fd5b506102d96101325481565b34801561089157600080fd5b506102d96101345481565b60006001600160e01b03198216637965db0b60e01b14806108cd57506301ffc9a760e01b6001600160e01b03198316145b92915050565b6000805160206140d18339815191526108ec8133612b11565b5061012f80546001600160a01b0319166001600160a01b0392909216919091179055565b600054610100900460ff1661092b5760005460ff161561092f565b303b155b6109975760405162461bcd60e51b815260206004820152602e60248201527f496e697469616c697a61626c653a20636f6e747261637420697320616c72656160448201526d191e481a5b9a5d1a585b1a5e995960921b60648201526084015b60405180910390fd5b600054610100900460ff161580156109b9576000805461ffff19166101011790555b6109c1612b75565b6109c9612b9e565b6109d1612b75565b6109dc600033612bcd565b6109f46000805160206140d183398151915233612bcd565b610a0c60008051602061406a83398151915233612bcd565b610a3260008051602061404a8339815191526000805160206140d1833981519152612bd7565b610a5860008051602061406a8339815191526000805160206140d1833981519152612bd7565b61012f80546001600160a01b03808b166001600160a01b03199283161790925561012d80548a841690831617905561012e8054928916929091169190911790556101308590556101318490556101328390556101338290558015610ac2576000805461ff00191690555b5050505050505050565b60006101368381548110610ae257610ae2613a69565b6000918252602090912060099091020190506003600882015460ff166003811115610b0f57610b0f6138c5565b14610b5c5760405162461bcd60e51b815260206004820181905260248201527f575141756374696f6e3a204c6f74206973206e6f74206c697175696461746564604482015260640161098e565b61012d5461012f54604080516395d89b4160e01b815290516000936001600160a01b0390811693630292e0fd939116916395d89b41916004808201928892909190829003018186803b158015610bb157600080fd5b505afa158015610bc5573d6000803e3d6000fd5b505050506040513d6000823e601f3d908101601f19168201604052610bed9190810190613aab565b6040518263ffffffff1660e01b8152600401610c099190613b45565b60206040518083038186803b158015610c2157600080fd5b505afa158015610c35573d6000803e3d6000fd5b505050506040513d601f19601f82011682018060405250810190610c599190613b58565b90506000670de0b6b3a76400008261012f60009054906101000a90046001600160a01b03166001600160a01b031663313ce5676040518163ffffffff1660e01b815260040160206040518083038186803b158015610cb657600080fd5b505afa158015610cca573d6000803e3d6000fd5b505050506040513d601f19601f82011682018060405250810190610cee9190613b71565b610cf9906012613baa565b610d0490600a613cb1565b610d0e9087613cc0565b610d189190613cc0565b610d229190613cdf565b90506000610d2f866111ba565b905060008460010154856003015485610d489190613cc0565b610d529190613cdf565b9050808560020154670de0b6b3a7640000610d6d9190613cc0565b610d779190613cdf565b8610610d955760405162461bcd60e51b815260040161098e90613d01565b85818660020154670de0b6b3a7640000610daf9190613cc0565b610db99190613cdf565b610dc39190613d5f565b868660020154610dd39190613d5f565b610de590670de0b6b3a7640000613cc0565b610def9190613cdf565b856003018190555085856002016000828254610e0b9190613d5f565b90915550506001850184905561012e5461012f54604080516395d89b4160e01b815290516001600160a01b0393841693638701c5429333938d938a938e938b939116916395d89b4191600480820192600092909190829003018186803b158015610e7457600080fd5b505afa158015610e88573d6000803e3d6000fd5b505050506040513d6000823e601f3d908101601f19168201604052610eb09190810190613aab565b6040518763ffffffff1660e01b8152600401610ed196959493929190613d76565b600060405180830381600087803b158015610eeb57600080fd5b505af1158015610eff573d6000803e3d6000fd5b505060408051338152602081018b905290810189905260608101869052608081018790527f98d42833b8bbd469503fdacb5bb2ddee0a389699fcb5e6d9b85dae63d42668b9925060a001905060405180910390a150505050505050565b6000806000806101368581548110610f7657610f76613a69565b90600052602060002090600902019050806002015481600101548260030154935093509350509193909250565b600082815260656020526040902060010154610fbf8133612b11565b610fc98383612c22565b505050565b6001600160a01b038116331461103e5760405162461bcd60e51b815260206004820152602f60248201527f416363657373436f6e74726f6c3a2063616e206f6e6c792072656e6f756e636560448201526e103937b632b9903337b91039b2b63360891b606482015260840161098e565b6110488282612ca8565b5050565b306001600160a01b037f00000000000000000000000000000000000000000000000000000000000000001614156110955760405162461bcd60e51b815260040161098e90613dbb565b7f00000000000000000000000000000000000000000000000000000000000000006001600160a01b03166110de60008051602061408a833981519152546001600160a01b031690565b6001600160a01b0316146111045760405162461bcd60e51b815260040161098e90613e07565b61110d81612d0f565b6040805160008082526020820190925261112991839190612d28565b50565b6002609754141561114f5760405162461bcd60e51b815260040161098e90613e53565b600260975560008051602061404a83398151915261116d8133612b11565b50610135805460ff19166001908117909155609755565b6000610136828154811061119a5761119a613a69565b60009182526020909120600990910201546001600160a01b031692915050565b6000670de0b6b3a76400006301e1338061013684815481106111de576111de613a69565b906000526020600020906009020160040154426111fb9190613d5f565b61012e60009054906101000a90046001600160a01b03166001600160a01b0316631a9703da6040518163ffffffff1660e01b815260040160206040518083038186803b15801561124a57600080fd5b505afa15801561125e573d6000803e3d6000fd5b505050506040513d601f19601f820116820180604052508101906112829190613b58565b61128c9190613cc0565b6112969190613cdf565b61012e60009054906101000a90046001600160a01b03166001600160a01b031663802d14226040518163ffffffff1660e01b815260040160206040518083038186803b1580156112e557600080fd5b505afa1580156112f9573d6000803e3d6000fd5b505050506040513d601f19601f8201168201806040525081019061131d9190613b58565b6113279190613e8a565b610136848154811061133b5761133b613a69565b9060005260206000209060090201600501546113579190613cc0565b6108cd9190613cdf565b306001600160a01b037f00000000000000000000000000000000000000000000000000000000000000001614156113aa5760405162461bcd60e51b815260040161098e90613dbb565b7f00000000000000000000000000000000000000000000000000000000000000006001600160a01b03166113f360008051602061408a833981519152546001600160a01b031690565b6001600160a01b0316146114195760405162461bcd60e51b815260040161098e90613e07565b61142282612d0f565b61104882826001612d28565b600260975414156114515760405162461bcd60e51b815260040161098e90613e53565b600260975561012d5461012f54604080516395d89b4160e01b815290516000936001600160a01b0390811693630292e0fd939116916395d89b41916004808201928892909190829003018186803b1580156114ab57600080fd5b505afa1580156114bf573d6000803e3d6000fd5b505050506040513d6000823e601f3d908101601f191682016040526114e79190810190613aab565b6040518263ffffffff1660e01b81526004016115039190613b45565b60206040518083038186803b15801561151b57600080fd5b505afa15801561152f573d6000803e3d6000fd5b505050506040513d601f19601f820116820180604052508101906115539190613b58565b90508161013460008282546115689190613e8a565b909155506115769050612412565b6101345411156116025760405162461bcd60e51b815260206004820152604b60248201527f575141756374696f6e3a20416d6f756e74206f6620746f6b656e73207075726360448201527f68617365642069732067726561746572207468616e2074686520616d6f756e7460648201526a081b1a5c5d5a59185d195960aa1b608482015260a40161098e565b6000610136848154811061161857611618613a69565b6000918252602090912060099091020190506001600882015460ff166003811115611645576116456138c5565b146116925760405162461bcd60e51b815260206004820152601c60248201527f575141756374696f6e3a20537461747573206973206e6f74204e657700000000604482015260640161098e565b600081600101548260030154846116a99190613cc0565b6116b39190613cdf565b905061013054811080156116cf5750670de0b6b3a76400008110155b806116ef57506101355460ff1680156116ef5750670de0b6b3a764000081105b6117515760405162461bcd60e51b815260206004820152602d60248201527f575141756374696f6e3a2054686973206c6f74206973206e6f7420617661696c60448201526c61626c6520666f722073616c6560981b606482015260840161098e565b600582018490556002820154819061177190670de0b6b3a7640000613cc0565b61177b9190613cdf565b84106117995760405162461bcd60e51b815260040161098e90613d01565b6101355460ff16156118bb5761012f546040516370a0823160e01b81523060048201526001600160a01b03909116906370a082319060240160206040518083038186803b1580156117e957600080fd5b505afa1580156117fd573d6000803e3d6000fd5b505050506040513d601f19601f820116820180604052508101906118219190613b58565b82600201546118309190613e8a565b8411156118bb5760405162461bcd60e51b815260206004820152604d60248201527f575141756374696f6e3a20416d6f756e74206f6620746f6b656e73207075726360448201527f68617365642069732067726561746572207468616e206c6f7420616d6f756e7460648201526c20616e6420726573657276657360981b608482015260a40161098e565b60068201839055610133546118d09042613e8a565b600783015560088201805460ff1916600217905560068201546040805187815260208101879052908101919091527f44c53be110c6aa83aa83cd02e351ed172359268272ee1b5d31c0fe48db35c6c79060600160405180910390a150506001609755505050565b6000306001600160a01b037f000000000000000000000000000000000000000000000000000000000000000016146119d75760405162461bcd60e51b815260206004820152603860248201527f555550535570677261646561626c653a206d757374206e6f742062652063616c60448201527f6c6564207468726f7567682064656c656761746563616c6c0000000000000000606482015260840161098e565b5060008051602061408a83398151915290565b6000806101368381548110611a0157611a01613a69565b6000918252602090912060099091020190506002600882015460ff166003811115611a2e57611a2e6138c5565b14611a875760405162461bcd60e51b8152602060048201526024808201527f575141756374696f6e3a2054686973206c6f74206973206e6f742061756374696044820152631bdb995960e21b606482015260840161098e565b670de0b6b3a7640000611a9982612ea2565b61012f60009054906101000a90046001600160a01b03166001600160a01b031663313ce5676040518163ffffffff1660e01b815260040160206040518083038186803b158015611ae857600080fd5b505afa158015611afc573d6000803e3d6000fd5b505050506040513d601f19601f82011682018060405250810190611b209190613b71565b611b2b906012613baa565b611b3690600a613cb1565b8360050154611b459190613cc0565b611b4f9190613cc0565b611b599190613cdf565b9392505050565b6000805160206140d1833981519152611b798133612b11565b5061013155565b60026097541415611ba35760405162461bcd60e51b815260040161098e90613e53565b600260978190555060006101368281548110611bc157611bc1613a69565b6000918252602090912060099091020190506002600882015460ff166003811115611bee57611bee6138c5565b14611c3b5760405162461bcd60e51b815260206004820152601f60248201527f575141756374696f6e3a204c6f74206973206e6f742061756374696f6e656400604482015260640161098e565b8060070154421115611c8f5760405162461bcd60e51b815260206004820152601f60248201527f575141756374696f6e3a2041756374696f6e2074696d65206973206f76657200604482015260640161098e565b6000611c9a82612ea2565b90506000670de0b6b3a76400008261012f60009054906101000a90046001600160a01b03166001600160a01b031663313ce5676040518163ffffffff1660e01b815260040160206040518083038186803b158015611cf757600080fd5b505afa158015611d0b573d6000803e3d6000fd5b505050506040513d601f19601f82011682018060405250810190611d2f9190613b71565b611d3a906012613baa565b611d4590600a613cb1565b8560050154611d549190613cc0565b611d5e9190613cc0565b611d689190613cdf565b90506000611d75856111ba565b905060008460010154856003015485611d8e9190613cc0565b611d989190613cdf565b905084600501546101346000828254611db19190613d5f565b9091555050600585015460028601548290611dd490670de0b6b3a7640000613cc0565b611dde9190613cdf565b611de89190613d5f565b85600501548660020154611dfc9190613d5f565b611e0e90670de0b6b3a7640000613cc0565b611e189190613cdf565b60038601556005850154600286018054600090611e36908490613d5f565b90915550506001850184905561012e54600586015461012f54604080516395d89b4160e01b815290516001600160a01b0394851694638701c5429433948d948b9492938b939216916395d89b4191600480820192600092909190829003018186803b158015611ea457600080fd5b505afa158015611eb8573d6000803e3d6000fd5b505050506040513d6000823e601f3d908101601f19168201604052611ee09190810190613aab565b6040518763ffffffff1660e01b8152600401611f0196959493929190613d76565b600060405180830381600087803b158015611f1b57600080fd5b505af1158015611f2f573d6000803e3d6000fd5b5050505060058501546040805133815260208101899052808201929092526060820185905260808201869052517f98d42833b8bbd469503fdacb5bb2ddee0a389699fcb5e6d9b85dae63d42668b99181900360a00190a150506000600584018190556006840181905560078401555050600801805460ff1916600190811790915560975550565b60026097541415611fd95760405162461bcd60e51b815260040161098e90613e53565b600260975560008051602061404a833981519152611ff78133612b11565b50610135805460ff191690556001609755565b6000805160206140d18339815191526120238133612b11565b5061012d80546001600160a01b0319166001600160a01b0392909216919091179055565b61013654606090612059908490613d5f565b821115612072576101365461206f908490613d5f565b91505b8167ffffffffffffffff81111561208b5761208b6137c5565b6040519080825280602002602001820160405280156120c457816020015b6120b1613630565b8152602001906001900390816120a95790505b50905060005b828110156121ca576101366120df8286613e8a565b815481106120ef576120ef613a69565b60009182526020918290206040805161012081018252600990930290910180546001600160a01b03168352600181015493830193909352600283015490820152600380830154606083015260048301546080830152600583015460a0830152600683015460c0830152600783015460e0830152600883015491929161010084019160ff90911690811115612185576121856138c5565b6003811115612196576121966138c5565b815250508282815181106121ac576121ac613a69565b602002602001018190525080806121c290613ea2565b9150506120ca565b5092915050565b60009182526065602090815260408084206001600160a01b0393909316845291905290205460ff1690565b6000610136828154811061221257612212613a69565b6000918252602090912060099091020190506002600882015460ff16600381111561223f5761223f6138c5565b1461228c5760405162461bcd60e51b815260206004820152601f60248201527f575141756374696f6e3a204c6f74206973206e6f742061756374696f6e656400604482015260640161098e565b806007015442116122ef5760405162461bcd60e51b815260206004820152602760248201527f575141756374696f6e3a2041756374696f6e2074696d65206973206e6f74206f6044820152661d995c881e595d60ca1b606482015260840161098e565b806005015461013460008282546123069190613d5f565b909155506000905061231782612ea2565b9050816001015482600301548261232e9190613cc0565b6123389190613cdf565b60038381019190915560018301829055600060058401819055600684018190556007840181905560088401805460ff1916909217909155604080518581526020810183905280820192909252517ff49dbfcc40079f59a911e2541cedaa7a9275ee6fdfb9349032eeb970ce60f57a9181900360600190a1505050565b600061013682815481106123ca576123ca613a69565b600091825260209091206008600990920201015460ff1660038111156108cd576108cd6138c5565b6000805160206140d183398151915261240b8133612b11565b5061013355565b60008061012f60009054906101000a90046001600160a01b03166001600160a01b03166395d89b416040518163ffffffff1660e01b815260040160006040518083038186803b15801561246457600080fd5b505afa158015612478573d6000803e3d6000fd5b505050506040513d6000823e601f3d908101601f191682016040526124a09190810190613aab565b61012d54604051630292e0fd60e01b81529192506000916001600160a01b0390911690630292e0fd906124d7908590600401613b45565b60206040518083038186803b1580156124ef57600080fd5b505afa158015612503573d6000803e3d6000fd5b505050506040513d601f19601f820116820180604052508101906125279190613b58565b9050600061012f60009054906101000a90046001600160a01b03166001600160a01b031663313ce5676040518163ffffffff1660e01b815260040160206040518083038186803b15801561257a57600080fd5b505afa15801561258e573d6000803e3d6000fd5b505050506040513d601f19601f820116820180604052508101906125b29190613b71565b6125bd906012613baa565b6125c890600a613cb1565b61012e54604051632ed4877d60e21b815291925060009183916001600160a01b03169063bb521df4906125ff908890600401613b45565b60206040518083038186803b15801561261757600080fd5b505afa15801561262b573d6000803e3d6000fd5b505050506040513d601f19601f8201168201806040525081019061264f9190613b58565b6126599190613cc0565b61012e54604051638c1e06f160e01b81529192506000916001600160a01b0390911690638c1e06f190612690908890600401613b45565b60206040518083038186803b1580156126a857600080fd5b505afa1580156126bc573d6000803e3d6000fd5b505050506040513d601f19601f820116820180604052508101906126e09190613b58565b905080610130546126f19190613cc0565b6126fb8584613cc0565b108015612721575061271581670de0b6b3a7640000613cc0565b61271f8584613cc0565b115b156127605782828583610130546127389190613cc0565b6127429190613cdf565b61274c9190613d5f565b6127569190613cdf565b9550505050505090565b60009550505050505090565b61012e546000906001600160a01b0316331461279a5760405162461bcd60e51b815260040161098e90613ebd565b8261013685815481106127af576127af613a69565b9060005260206000209060090201600101819055508161013685815481106127d9576127d9613a69565b6000918252602090912060099091020160020155509192915050565b6000805160206140d183398151915261280e8133612b11565b5061012e80546001600160a01b0319166001600160a01b0392909216919091179055565b6000805160206140d183398151915261284b8133612b11565b5061013055565b61012e546000906001600160a01b031633146128805760405162461bcd60e51b815260040161098e90613ebd565b610136604051806101200160405280876001600160a01b03168152602001868152602001858152602001848152602001428152602001600081526020016000815260200160008152602001600160038111156128de576128de6138c5565b90528154600180820184556000938452602093849020835160099093020180546001600160a01b0319166001600160a01b0390931692909217825592820151818401556040820151600282015560608201516003808301919091556080830151600483015560a0830151600583015560c0830151600683015560e08301516007830155610100830151600883018054949593949193909260ff1990921691849081111561298d5761298d6138c5565b021790555050610136546129a49150600190613d5f565b95945050505050565b61012e546000906001600160a01b031633146129db5760405162461bcd60e51b815260040161098e90613ebd565b8161013684815481106129f0576129f0613a69565b90600052602060002090600902016002016000828254612a109190613d5f565b9250508190555060006101368481548110612a2d57612a2d613a69565b90600052602060002090600902016002015490508060001415611b5957611b5984612f30565b600082815260656020526040902060010154612a6f8133612b11565b610fc98383612ca8565b6000805160206140d1833981519152612a928133612b11565b5061013255565b6101368181548110612aaa57600080fd5b60009182526020909120600990910201805460018201546002830154600384015460048501546005860154600687015460078801546008909801546001600160a01b0390971698509496939592949193909260ff1689565b6001600160a01b03163b151590565b612b1b82826121d1565b61104857612b33816001600160a01b03166014613240565b612b3e836020613240565b604051602001612b4f929190613ef4565b60408051601f198184030181529082905262461bcd60e51b825261098e91600401613b45565b600054610100900460ff16612b9c5760405162461bcd60e51b815260040161098e90613f69565b565b600054610100900460ff16612bc55760405162461bcd60e51b815260040161098e90613f69565b612b9c6133dc565b6110488282612c22565b600082815260656020526040808220600101805490849055905190918391839186917fbd79b86ffe0ab8e8776151514217cd7cacd52c909f66475c3af44e129f0b00ff9190a4505050565b612c2c82826121d1565b6110485760008281526065602090815260408083206001600160a01b03851684529091529020805460ff19166001179055612c643390565b6001600160a01b0316816001600160a01b0316837f2f8788117e7eff1d82e926ec794901d17c78024a50270940304540a733656f0d60405160405180910390a45050565b612cb282826121d1565b156110485760008281526065602090815260408083206001600160a01b0385168085529252808320805460ff1916905551339285917ff6391f5c32d9c69d2a47ea670b442974b53935d1edc7fd64eb21e047a839171b9190a45050565b60008051602061406a8339815191526110488133612b11565b7f4910fdfa16fed3260ed0e7147f7cc6da11a60208b5b9406d12a635614ffd91435460ff1615612d5b57610fc98361340a565b826001600160a01b03166352d1902d6040518163ffffffff1660e01b815260040160206040518083038186803b158015612d9457600080fd5b505afa925050508015612dc4575060408051601f3d908101601f19168201909252612dc191810190613b58565b60015b612e275760405162461bcd60e51b815260206004820152602e60248201527f45524331393637557067726164653a206e657720696d706c656d656e7461746960448201526d6f6e206973206e6f74205555505360901b606482015260840161098e565b60008051602061408a8339815191528114612e965760405162461bcd60e51b815260206004820152602960248201527f45524331393637557067726164653a20756e737570706f727465642070726f786044820152681a58589b195555525160ba1b606482015260840161098e565b50610fc98383836134a6565b6000670de0b6b3a76400006101335483600601546101325461013154612ec89190613d5f565b428660070154612ed89190613d5f565b612ee29190613cc0565b612eec9190613cc0565b612ef69190613cdf565b612f009190613cdf565b670de0b6b3a7640000610132548460060154612f1c9190613cc0565b612f269190613cdf565b6108cd9190613e8a565b61013654600090612f4390600190613d5f565b90508181146130ea5761012e5461013680546001600160a01b03909216916359880b95919084908110612f7857612f78613a69565b600091825260209091206009909102015461013680546001600160a01b039092169185908110612faa57612faa613a69565b9060005260206000209060090201600201546101368581548110612fd057612fd0613a69565b9060005260206000209060090201600101546101368681548110612ff657612ff6613a69565b906000526020600020906009020160030154868861012f60009054906101000a90046001600160a01b03166001600160a01b03166395d89b416040518163ffffffff1660e01b815260040160006040518083038186803b15801561305957600080fd5b505afa15801561306d573d6000803e3d6000fd5b505050506040513d6000823e601f3d908101601f191682016040526130959190810190613aab565b6040518863ffffffff1660e01b81526004016130b79796959493929190613fb4565b600060405180830381600087803b1580156130d157600080fd5b505af11580156130e5573d6000803e3d6000fd5b505050505b61013681815481106130fe576130fe613a69565b9060005260206000209060090201610136838154811061312057613120613a69565b60009182526020909120825460099092020180546001600160a01b0319166001600160a01b0390921691909117815560018083015481830155600280840154908301556003808401548184015560048085015490840155600580850154908401556006808501549084015560078085015490840155600880850154908401805460ff90921693909260ff199092169184908111156131c0576131c06138c5565b02179055509050506101368054806131da576131da614000565b60008281526020812060096000199093019283020180546001600160a01b03191681556001810182905560028101829055600381018290556004810182905560058101829055600681018290556007810191909155600801805460ff1916905590555050565b6060600061324f836002613cc0565b61325a906002613e8a565b67ffffffffffffffff811115613272576132726137c5565b6040519080825280601f01601f19166020018201604052801561329c576020820181803683370190505b509050600360fc1b816000815181106132b7576132b7613a69565b60200101906001600160f81b031916908160001a905350600f60fb1b816001815181106132e6576132e6613a69565b60200101906001600160f81b031916908160001a905350600061330a846002613cc0565b613315906001613e8a565b90505b600181111561338d576f181899199a1a9b1b9c1cb0b131b232b360811b85600f166010811061334957613349613a69565b1a60f81b82828151811061335f5761335f613a69565b60200101906001600160f81b031916908160001a90535060049490941c9361338681614016565b9050613318565b508315611b595760405162461bcd60e51b815260206004820181905260248201527f537472696e67733a20686578206c656e67746820696e73756666696369656e74604482015260640161098e565b600054610100900460ff166134035760405162461bcd60e51b815260040161098e90613f69565b6001609755565b6001600160a01b0381163b6134775760405162461bcd60e51b815260206004820152602d60248201527f455243313936373a206e657720696d706c656d656e746174696f6e206973206e60448201526c1bdd08184818dbdb9d1c9858dd609a1b606482015260840161098e565b60008051602061408a83398151915280546001600160a01b0319166001600160a01b0392909216919091179055565b6134af836134d1565b6000825111806134bc5750805b15610fc9576134cb8383613511565b50505050565b6134da8161340a565b6040516001600160a01b038216907fbc7cd75a20ee27fd9adebab32041f755214dbc6bffa90cc0225b39da2e5c2d3b90600090a250565b60606001600160a01b0383163b6135795760405162461bcd60e51b815260206004820152602660248201527f416464726573733a2064656c65676174652063616c6c20746f206e6f6e2d636f6044820152651b9d1c9858dd60d21b606482015260840161098e565b600080846001600160a01b031684604051613594919061402d565b600060405180830381855af49150503d80600081146135cf576040519150601f19603f3d011682016040523d82523d6000602084013e6135d4565b606091505b50915091506129a482826040518060600160405280602781526020016140aa6027913960608315613606575081611b59565b8251156136165782518084602001fd5b8160405162461bcd60e51b815260040161098e9190613b45565b60405180610120016040528060006001600160a01b031681526020016000815260200160008152602001600081526020016000815260200160008152602001600081526020016000815260200160006003811115613690576136906138c5565b905290565b6000602082840312156136a757600080fd5b81356001600160e01b031981168114611b5957600080fd5b80356001600160a01b03811681146136d657600080fd5b919050565b6000602082840312156136ed57600080fd5b611b59826136bf565b60006020828403121561370857600080fd5b5035919050565b600080600080600080600060e0888a03121561372a57600080fd5b613733886136bf565b9650613741602089016136bf565b955061374f604089016136bf565b969995985095966060810135965060808101359560a0820135955060c0909101359350915050565b6000806040838503121561378a57600080fd5b50508035926020909101359150565b600080604083850312156137ac57600080fd5b823591506137bc602084016136bf565b90509250929050565b634e487b7160e01b600052604160045260246000fd5b604051601f8201601f1916810167ffffffffffffffff81118282101715613804576138046137c5565b604052919050565b600067ffffffffffffffff821115613826576138266137c5565b50601f01601f191660200190565b6000806040838503121561384757600080fd5b613850836136bf565b9150602083013567ffffffffffffffff81111561386c57600080fd5b8301601f8101851361387d57600080fd5b803561389061388b8261380c565b6137db565b8181528660208385010111156138a557600080fd5b816020840160208301376000602083830101528093505050509250929050565b634e487b7160e01b600052602160045260246000fd5b600481106138f957634e487b7160e01b600052602160045260246000fd5b9052565b602080825282518282018190526000919060409081850190868401855b8281101561399d57815180516001600160a01b0316855286810151878601528581015186860152606080820151908601526080808201519086015260a0808201519086015260c0808201519086015260e080820151908601526101009081015190613987818701836138db565b505061012093909301929085019060010161391a565b5091979650505050505050565b6000806000606084860312156139bf57600080fd5b505081359360208301359350604090920135919050565b600080600080608085870312156139ec57600080fd5b6139f5856136bf565b966020860135965060408601359560600135945092505050565b60006101208201905060018060a01b038b1682528960208301528860408301528760608301528660808301528560a08301528460c08301528360e0830152613a5b6101008301846138db565b9a9950505050505050505050565b634e487b7160e01b600052603260045260246000fd5b60005b83811015613a9a578181015183820152602001613a82565b838111156134cb5750506000910152565b600060208284031215613abd57600080fd5b815167ffffffffffffffff811115613ad457600080fd5b8201601f81018413613ae557600080fd5b8051613af361388b8261380c565b818152856020838501011115613b0857600080fd5b6129a4826020830160208601613a7f565b60008151808452613b31816020860160208601613a7f565b601f01601f19169290920160200192915050565b602081526000611b596020830184613b19565b600060208284031215613b6a57600080fd5b5051919050565b600060208284031215613b8357600080fd5b815160ff81168114611b5957600080fd5b634e487b7160e01b600052601160045260246000fd5b600060ff821660ff841680821015613bc457613bc4613b94565b90039392505050565b600181815b80851115613c08578160001904821115613bee57613bee613b94565b80851615613bfb57918102915b93841c9390800290613bd2565b509250929050565b600082613c1f575060016108cd565b81613c2c575060006108cd565b8160018114613c425760028114613c4c57613c68565b60019150506108cd565b60ff841115613c5d57613c5d613b94565b50506001821b6108cd565b5060208310610133831016604e8410600b8410161715613c8b575081810a6108cd565b613c958383613bcd565b8060001904821115613ca957613ca9613b94565b029392505050565b6000611b5960ff841683613c10565b6000816000190483118215151615613cda57613cda613b94565b500290565b600082613cfc57634e487b7160e01b600052601260045260246000fd5b500490565b602080825260409082018190527f575141756374696f6e3a20416d6f756e74206f6620746f6b656e732070757263908201527f68617365642069732067726561746572207468616e206c6f7420616d6f756e74606082015260800190565b600082821015613d7157613d71613b94565b500390565b60018060a01b038716815285602082015284604082015283606082015282608082015260c060a08201526000613daf60c0830184613b19565b98975050505050505050565b6020808252602c908201527f46756e6374696f6e206d7573742062652063616c6c6564207468726f7567682060408201526b19195b1959d85d1958d85b1b60a21b606082015260800190565b6020808252602c908201527f46756e6374696f6e206d7573742062652063616c6c6564207468726f7567682060408201526b6163746976652070726f787960a01b606082015260800190565b6020808252601f908201527f5265656e7472616e637947756172643a207265656e7472616e742063616c6c00604082015260600190565b60008219821115613e9d57613e9d613b94565b500190565b6000600019821415613eb657613eb6613b94565b5060010190565b6020808252601f908201527f575141756374696f6e3a2053656e646572206973206e6f7420726f7574657200604082015260600190565b7f416363657373436f6e74726f6c3a206163636f756e7420000000000000000000815260008351613f2c816017850160208801613a7f565b7001034b99036b4b9b9b4b733903937b6329607d1b6017918401918201528351613f5d816028840160208801613a7f565b01602801949350505050565b6020808252602b908201527f496e697469616c697a61626c653a20636f6e7472616374206973206e6f74206960408201526a6e697469616c697a696e6760a81b606082015260800190565b60018060a01b03881681528660208201528560408201528460608201528360808201528260a082015260e060c08201526000613ff360e0830184613b19565b9998505050505050505050565b634e487b7160e01b600052603160045260246000fd5b60008161402557614025613b94565b506000190190565b6000825161403f818460208701613a7f565b919091019291505056fed8a7a79547af723ee3e12b59a480111268d8969c634e1a34a144d2c8b91d635b189ab7a9244df0848122154315af71fe140f3db0fe014031783b0946b8c9d2e3360894a13ba1a3210667c828492db98dca3e2076cc3735a920a3ca505d382bbc416464726573733a206c6f772d6c6576656c2064656c65676174652063616c6c206661696c6564a49807205ce4d355092ef5a8a18f56e8913cf4a201fbe287825b095693c21775a2646970667358221220c1cfa321cbd7e0b583cd7e330e66ecc21bbb09b98ab1f11c45ab02b594222a3864736f6c63430008090033",
  "linkReferences": {},
  "deployedLinkReferences": {}
}