{
  "_format": "hh-sol-artifact-1",
  "contractName": "WQCollateralAuction",
  "sourceName": "contracts/stablecoin/WQCollateralAuction.sol",
  "abi": [
    {
      "inputs": [],
      "stateMutability": "nonpayable",
      "type": "constructor"
    },
    {
      "anonymous": false,
      "inputs": [
        {
          "indexed": false,
          "internalType": "address",
          "name": "previousAdmin",
          "type": "address"
        },
        {
          "indexed": false,
          "internalType": "address",
          "name": "newAdmin",
          "type": "address"
        }
      ],
      "name": "AdminChanged",
      "type": "event"
    },
    {
      "anonymous": false,
      "inputs": [
        {
          "indexed": false,
          "internalType": "uint256",
          "name": "index",
          "type": "uint256"
        },
        {
          "indexed": false,
          "internalType": "uint256",
          "name": "amount",
          "type": "uint256"
        },
        {
          "indexed": false,
          "internalType": "uint256",
          "name": "endCost",
          "type": "uint256"
        }
      ],
      "name": "AuctionStarted",
      "type": "event"
    },
    {
      "anonymous": false,
      "inputs": [
        {
          "indexed": true,
          "internalType": "address",
          "name": "beacon",
          "type": "address"
        }
      ],
      "name": "BeaconUpgraded",
      "type": "event"
    },
    {
      "anonymous": false,
      "inputs": [
        {
          "indexed": false,
          "internalType": "uint256",
          "name": "index",
          "type": "uint256"
        },
        {
          "indexed": false,
          "internalType": "uint256",
          "name": "amount",
          "type": "uint256"
        },
        {
          "indexed": false,
          "internalType": "uint256",
          "name": "cost",
          "type": "uint256"
        }
      ],
      "name": "LotBuyed",
      "type": "event"
    },
    {
      "anonymous": false,
      "inputs": [
        {
          "indexed": false,
          "internalType": "uint256",
          "name": "index",
          "type": "uint256"
        },
        {
          "indexed": false,
          "internalType": "uint256",
          "name": "amount",
          "type": "uint256"
        },
        {
          "indexed": false,
          "internalType": "uint256",
          "name": "cost",
          "type": "uint256"
        }
      ],
      "name": "LotCanceled",
      "type": "event"
    },
    {
      "anonymous": false,
      "inputs": [
        {
          "indexed": true,
          "internalType": "bytes32",
          "name": "role",
          "type": "bytes32"
        },
        {
          "indexed": true,
          "internalType": "bytes32",
          "name": "previousAdminRole",
          "type": "bytes32"
        },
        {
          "indexed": true,
          "internalType": "bytes32",
          "name": "newAdminRole",
          "type": "bytes32"
        }
      ],
      "name": "RoleAdminChanged",
      "type": "event"
    },
    {
      "anonymous": false,
      "inputs": [
        {
          "indexed": true,
          "internalType": "bytes32",
          "name": "role",
          "type": "bytes32"
        },
        {
          "indexed": true,
          "internalType": "address",
          "name": "account",
          "type": "address"
        },
        {
          "indexed": true,
          "internalType": "address",
          "name": "sender",
          "type": "address"
        }
      ],
      "name": "RoleGranted",
      "type": "event"
    },
    {
      "anonymous": false,
      "inputs": [
        {
          "indexed": true,
          "internalType": "bytes32",
          "name": "role",
          "type": "bytes32"
        },
        {
          "indexed": true,
          "internalType": "address",
          "name": "account",
          "type": "address"
        },
        {
          "indexed": true,
          "internalType": "address",
          "name": "sender",
          "type": "address"
        }
      ],
      "name": "RoleRevoked",
      "type": "event"
    },
    {
      "anonymous": false,
      "inputs": [
        {
          "indexed": true,
          "internalType": "address",
          "name": "implementation",
          "type": "address"
        }
      ],
      "name": "Upgraded",
      "type": "event"
    },
    {
      "inputs": [],
      "name": "ADMIN_ROLE",
      "outputs": [
        {
          "internalType": "bytes32",
          "name": "",
          "type": "bytes32"
        }
      ],
      "stateMutability": "view",
      "type": "function"
    },
    {
      "inputs": [],
      "name": "DEFAULT_ADMIN_ROLE",
      "outputs": [
        {
          "internalType": "bytes32",
          "name": "",
          "type": "bytes32"
        }
      ],
      "stateMutability": "view",
      "type": "function"
    },
    {
      "inputs": [],
      "name": "SERVICE_ROLE",
      "outputs": [
        {
          "internalType": "bytes32",
          "name": "",
          "type": "bytes32"
        }
      ],
      "stateMutability": "view",
      "type": "function"
    },
    {
      "inputs": [],
      "name": "UPGRADER_ROLE",
      "outputs": [
        {
          "internalType": "bytes32",
          "name": "",
          "type": "bytes32"
        }
      ],
      "stateMutability": "view",
      "type": "function"
    },
    {
      "inputs": [
        {
          "internalType": "address",
          "name": "user",
          "type": "address"
        },
        {
          "internalType": "uint256",
          "name": "price",
          "type": "uint256"
        },
        {
          "internalType": "uint256",
          "name": "amount",
          "type": "uint256"
        },
        {
          "internalType": "uint256",
          "name": "ratio",
          "type": "uint256"
        }
      ],
      "name": "addLot",
      "outputs": [
        {
          "internalType": "uint256",
          "name": "",
          "type": "uint256"
        }
      ],
      "stateMutability": "nonpayable",
      "type": "function"
    },
    {
      "inputs": [],
      "name": "auctionDuration",
      "outputs": [
        {
          "internalType": "uint256",
          "name": "",
          "type": "uint256"
        }
      ],
      "stateMutability": "view",
      "type": "function"
    },
    {
      "inputs": [
        {
          "internalType": "uint256",
          "name": "index",
          "type": "uint256"
        }
      ],
      "name": "buyLot",
      "outputs": [],
      "stateMutability": "nonpayable",
      "type": "function"
    },
    {
      "inputs": [
        {
          "internalType": "uint256",
          "name": "index",
          "type": "uint256"
        }
      ],
      "name": "cancelAuction",
      "outputs": [],
      "stateMutability": "nonpayable",
      "type": "function"
    },
    {
      "inputs": [
        {
          "internalType": "uint256",
          "name": "index",
          "type": "uint256"
        },
        {
          "internalType": "uint256",
          "name": "collaterralPart",
          "type": "uint256"
        }
      ],
      "name": "decreaseLotAmount",
      "outputs": [
        {
          "internalType": "uint256",
          "name": "",
          "type": "uint256"
        }
      ],
      "stateMutability": "nonpayable",
      "type": "function"
    },
    {
      "inputs": [
        {
          "internalType": "uint256",
          "name": "index",
          "type": "uint256"
        }
      ],
      "name": "getCurrentLotCost",
      "outputs": [
        {
          "internalType": "uint256",
          "name": "",
          "type": "uint256"
        }
      ],
      "stateMutability": "view",
      "type": "function"
    },
    {
      "inputs": [],
      "name": "getLiquidatedCollaterallAmount",
      "outputs": [
        {
          "internalType": "uint256",
          "name": "",
          "type": "uint256"
        }
      ],
      "stateMutability": "view",
      "type": "function"
    },
    {
      "inputs": [
        {
          "internalType": "uint256",
          "name": "index",
          "type": "uint256"
        }
      ],
      "name": "getLotInfo",
      "outputs": [
        {
          "internalType": "uint256",
          "name": "",
          "type": "uint256"
        },
        {
          "internalType": "uint256",
          "name": "",
          "type": "uint256"
        },
        {
          "internalType": "uint256",
          "name": "",
          "type": "uint256"
        },
        {
          "internalType": "uint256",
          "name": "",
          "type": "uint256"
        },
        {
          "internalType": "uint256",
          "name": "",
          "type": "uint256"
        }
      ],
      "stateMutability": "view",
      "type": "function"
    },
    {
      "inputs": [
        {
          "internalType": "uint256",
          "name": "index",
          "type": "uint256"
        }
      ],
      "name": "getLotStatus",
      "outputs": [
        {
          "internalType": "uint8",
          "name": "",
          "type": "uint8"
        }
      ],
      "stateMutability": "view",
      "type": "function"
    },
    {
      "inputs": [
        {
          "internalType": "uint256",
          "name": "index",
          "type": "uint256"
        }
      ],
      "name": "getLotUsers",
      "outputs": [
        {
          "internalType": "address",
          "name": "",
          "type": "address"
        }
      ],
      "stateMutability": "view",
      "type": "function"
    },
    {
      "inputs": [
        {
          "internalType": "uint256",
          "name": "offset",
          "type": "uint256"
        },
        {
          "internalType": "uint256",
          "name": "limit",
          "type": "uint256"
        }
      ],
      "name": "getLots",
      "outputs": [
        {
          "components": [
            {
              "internalType": "address",
              "name": "user",
              "type": "address"
            },
            {
              "internalType": "uint256",
              "name": "price",
              "type": "uint256"
            },
            {
              "internalType": "uint256",
              "name": "amount",
              "type": "uint256"
            },
            {
              "internalType": "uint256",
              "name": "ratio",
              "type": "uint256"
            },
            {
              "internalType": "uint256",
              "name": "created",
              "type": "uint256"
            },
            {
              "internalType": "uint256",
              "name": "saleAmount",
              "type": "uint256"
            },
            {
              "internalType": "uint256",
              "name": "endPrice",
              "type": "uint256"
            },
            {
              "internalType": "uint256",
              "name": "endTime",
              "type": "uint256"
            },
            {
              "internalType": "enum WQCollateralAuction.LotStatus",
              "name": "status",
              "type": "uint8"
            }
          ],
          "internalType": "struct WQCollateralAuction.LotInfo[]",
          "name": "page",
          "type": "tuple[]"
        }
      ],
      "stateMutability": "view",
      "type": "function"
    },
    {
      "inputs": [
        {
          "internalType": "bytes32",
          "name": "role",
          "type": "bytes32"
        }
      ],
      "name": "getRoleAdmin",
      "outputs": [
        {
          "internalType": "bytes32",
          "name": "",
          "type": "bytes32"
        }
      ],
      "stateMutability": "view",
      "type": "function"
    },
    {
      "inputs": [
        {
          "internalType": "bytes32",
          "name": "role",
          "type": "bytes32"
        },
        {
          "internalType": "address",
          "name": "account",
          "type": "address"
        }
      ],
      "name": "grantRole",
      "outputs": [],
      "stateMutability": "nonpayable",
      "type": "function"
    },
    {
      "inputs": [
        {
          "internalType": "bytes32",
          "name": "role",
          "type": "bytes32"
        },
        {
          "internalType": "address",
          "name": "account",
          "type": "address"
        }
      ],
      "name": "hasRole",
      "outputs": [
        {
          "internalType": "bool",
          "name": "",
          "type": "bool"
        }
      ],
      "stateMutability": "view",
      "type": "function"
    },
    {
      "inputs": [
        {
          "internalType": "address",
          "name": "_token",
          "type": "address"
        },
        {
          "internalType": "address",
          "name": "_oracle",
          "type": "address"
        },
        {
          "internalType": "address",
          "name": "_router",
          "type": "address"
        },
        {
          "internalType": "uint256",
          "name": "_liquidateThreshold",
          "type": "uint256"
        },
        {
          "internalType": "uint256",
          "name": "_upperBoundCost",
          "type": "uint256"
        },
        {
          "internalType": "uint256",
          "name": "_lowerBoundCost",
          "type": "uint256"
        },
        {
          "internalType": "uint256",
          "name": "_auctionDuration",
          "type": "uint256"
        }
      ],
      "name": "initialize",
      "outputs": [],
      "stateMutability": "nonpayable",
      "type": "function"
    },
    {
      "inputs": [],
      "name": "liquidateThreshold",
      "outputs": [
        {
          "internalType": "uint256",
          "name": "",
          "type": "uint256"
        }
      ],
      "stateMutability": "view",
      "type": "function"
    },
    {
      "inputs": [
        {
          "internalType": "uint256",
          "name": "",
          "type": "uint256"
        }
      ],
      "name": "lots",
      "outputs": [
        {
          "internalType": "address",
          "name": "user",
          "type": "address"
        },
        {
          "internalType": "uint256",
          "name": "price",
          "type": "uint256"
        },
        {
          "internalType": "uint256",
          "name": "amount",
          "type": "uint256"
        },
        {
          "internalType": "uint256",
          "name": "ratio",
          "type": "uint256"
        },
        {
          "internalType": "uint256",
          "name": "created",
          "type": "uint256"
        },
        {
          "internalType": "uint256",
          "name": "saleAmount",
          "type": "uint256"
        },
        {
          "internalType": "uint256",
          "name": "endPrice",
          "type": "uint256"
        },
        {
          "internalType": "uint256",
          "name": "endTime",
          "type": "uint256"
        },
        {
          "internalType": "enum WQCollateralAuction.LotStatus",
          "name": "status",
          "type": "uint8"
        }
      ],
      "stateMutability": "view",
      "type": "function"
    },
    {
      "inputs": [],
      "name": "lowerBoundCost",
      "outputs": [
        {
          "internalType": "uint256",
          "name": "",
          "type": "uint256"
        }
      ],
      "stateMutability": "view",
      "type": "function"
    },
    {
      "inputs": [
        {
          "internalType": "uint256",
          "name": "index",
          "type": "uint256"
        },
        {
          "internalType": "uint256",
          "name": "newPrice",
          "type": "uint256"
        },
        {
          "internalType": "uint256",
          "name": "newAmount",
          "type": "uint256"
        }
      ],
      "name": "moveLot",
      "outputs": [
        {
          "internalType": "uint256",
          "name": "",
          "type": "uint256"
        }
      ],
      "stateMutability": "nonpayable",
      "type": "function"
    },
    {
      "inputs": [],
      "name": "oracle",
      "outputs": [
        {
          "internalType": "contract WQPriceOracleInterface",
          "name": "",
          "type": "address"
        }
      ],
      "stateMutability": "view",
      "type": "function"
    },
    {
      "inputs": [],
      "name": "proxiableUUID",
      "outputs": [
        {
          "internalType": "bytes32",
          "name": "",
          "type": "bytes32"
        }
      ],
      "stateMutability": "view",
      "type": "function"
    },
    {
      "inputs": [
        {
          "internalType": "uint256",
          "name": "index",
          "type": "uint256"
        }
      ],
      "name": "refundFromReserves",
      "outputs": [],
      "stateMutability": "nonpayable",
      "type": "function"
    },
    {
      "inputs": [
        {
          "internalType": "bytes32",
          "name": "role",
          "type": "bytes32"
        },
        {
          "internalType": "address",
          "name": "account",
          "type": "address"
        }
      ],
      "name": "renounceRole",
      "outputs": [],
      "stateMutability": "nonpayable",
      "type": "function"
    },
    {
      "inputs": [
        {
          "internalType": "bytes32",
          "name": "role",
          "type": "bytes32"
        },
        {
          "internalType": "address",
          "name": "account",
          "type": "address"
        }
      ],
      "name": "revokeRole",
      "outputs": [],
      "stateMutability": "nonpayable",
      "type": "function"
    },
    {
      "inputs": [],
      "name": "router",
      "outputs": [
        {
          "internalType": "contract WQRouterInterface",
          "name": "",
          "type": "address"
        }
      ],
      "stateMutability": "view",
      "type": "function"
    },
    {
      "inputs": [
        {
          "internalType": "uint256",
          "name": "duration",
          "type": "uint256"
        }
      ],
      "name": "setAuctionDuration",
      "outputs": [],
      "stateMutability": "nonpayable",
      "type": "function"
    },
    {
      "inputs": [
        {
          "internalType": "uint256",
          "name": "percent",
          "type": "uint256"
        }
      ],
      "name": "setLiquidateTreshold",
      "outputs": [],
      "stateMutability": "nonpayable",
      "type": "function"
    },
    {
      "inputs": [
        {
          "internalType": "uint256",
          "name": "percent",
          "type": "uint256"
        }
      ],
      "name": "setLowerBoundCost",
      "outputs": [],
      "stateMutability": "nonpayable",
      "type": "function"
    },
    {
      "inputs": [
        {
          "internalType": "address",
          "name": "_oracle",
          "type": "address"
        }
      ],
      "name": "setOracle",
      "outputs": [],
      "stateMutability": "nonpayable",
      "type": "function"
    },
    {
      "inputs": [
        {
          "internalType": "address",
          "name": "_router",
          "type": "address"
        }
      ],
      "name": "setRouter",
      "outputs": [],
      "stateMutability": "nonpayable",
      "type": "function"
    },
    {
      "inputs": [
        {
          "internalType": "address",
          "name": "_token",
          "type": "address"
        }
      ],
      "name": "setToken",
      "outputs": [],
      "stateMutability": "nonpayable",
      "type": "function"
    },
    {
      "inputs": [
        {
          "internalType": "uint256",
          "name": "percent",
          "type": "uint256"
        }
      ],
      "name": "setUpperBoundCost",
      "outputs": [],
      "stateMutability": "nonpayable",
      "type": "function"
    },
    {
      "inputs": [
        {
          "internalType": "uint256",
          "name": "index",
          "type": "uint256"
        },
        {
          "internalType": "uint256",
          "name": "amount",
          "type": "uint256"
        }
      ],
      "name": "startAuction",
      "outputs": [],
      "stateMutability": "nonpayable",
      "type": "function"
    },
    {
      "inputs": [
        {
          "internalType": "bytes4",
          "name": "interfaceId",
          "type": "bytes4"
        }
      ],
      "name": "supportsInterface",
      "outputs": [
        {
          "internalType": "bool",
          "name": "",
          "type": "bool"
        }
      ],
      "stateMutability": "view",
      "type": "function"
    },
    {
      "inputs": [],
      "name": "token",
      "outputs": [
        {
          "internalType": "contract IERC20MetadataUpgradeable",
          "name": "",
          "type": "address"
        }
      ],
      "stateMutability": "view",
      "type": "function"
    },
    {
      "inputs": [],
      "name": "totalAuctioned",
      "outputs": [
        {
          "internalType": "uint256",
          "name": "",
          "type": "uint256"
        }
      ],
      "stateMutability": "view",
      "type": "function"
    },
    {
      "inputs": [
        {
          "internalType": "address",
          "name": "newImplementation",
          "type": "address"
        }
      ],
      "name": "upgradeTo",
      "outputs": [],
      "stateMutability": "nonpayable",
      "type": "function"
    },
    {
      "inputs": [
        {
          "internalType": "address",
          "name": "newImplementation",
          "type": "address"
        },
        {
          "internalType": "bytes",
          "name": "data",
          "type": "bytes"
        }
      ],
      "name": "upgradeToAndCall",
      "outputs": [],
      "stateMutability": "payable",
      "type": "function"
    },
    {
      "inputs": [],
      "name": "upperBoundCost",
      "outputs": [
        {
          "internalType": "uint256",
          "name": "",
          "type": "uint256"
        }
      ],
      "stateMutability": "view",
      "type": "function"
    }
  ],
  "bytecode": "0x60a0604052306080523480156200001557600080fd5b50600054610100900460ff16620000335760005460ff16156200003d565b6200003d620000e2565b620000a55760405162461bcd60e51b815260206004820152602e60248201527f496e697469616c697a61626c653a20636f6e747261637420697320616c72656160448201526d191e481a5b9a5d1a585b1a5e995960921b606482015260840160405180910390fd5b600054610100900460ff16158015620000c8576000805461ffff19166101011790555b8015620000db576000805461ff00191690555b506200010f565b6000620000fa306200010060201b6200251f1760201c565b15905090565b6001600160a01b03163b151590565b608051613a906200014760003960008181610bb001528181610bf001528181610c9001528181610cd0015261117e0152613a906000f3fe60806040526004361061025c5760003560e01c80638ab8bdee11610144578063cc6b3be3116100b6578063f72c0d8b1161007a578063f72c0d8b14610781578063f887ea40146107a3578063fc0c546a146107c4578063fdcb648c146107e5578063ff2ab229146107fc578063ffb671861461081357600080fd5b8063cc6b3be3146106cc578063d0896c55146106ec578063d547741f1461070c578063e2a07a071461072c578063f1648e841461074c57600080fd5b8063a217fddf11610108578063a217fddf14610622578063a497e67414610637578063b0f7876514610657578063b70a07ea1461066c578063c0d786551461068c578063c41600fe146106ac57600080fd5b80638ab8bdee1461055c57806391d148541461057c57806396b5a7551461059c578063997e7c36146105bc578063a20e7d47146105ee57600080fd5b8063403b74ed116101dd57806364ad7ad7116101a157806364ad7ad71461048c57806374e3e3dc146104ac57806375b238fc146104cc5780637adbf973146104ee5780637dc0d1d01461050e578063874f5cbb1461052f57600080fd5b8063403b74ed1461040d5780634f1ef286146104245780634fee13fc1461043757806352d1902d14610457578063535bb8671461046c57600080fd5b80632f1b1303116102245780632f1b13031461032d5780632f2ff15d1461037557806333b976b01461039557806336568abe146103cd5780633659cfe6146103ed57600080fd5b806301ffc9a7146102615780630cbf54c814610296578063144fa6d7146102bb578063248a9ca3146102dd5780632b4656c81461030d575b600080fd5b34801561026d57600080fd5b5061028161027c36600461308b565b61082a565b60405190151581526020015b60405180910390f35b3480156102a257600080fd5b506102ad6101335481565b60405190815260200161028d565b3480156102c757600080fd5b506102db6102d63660046130d1565b610861565b005b3480156102e957600080fd5b506102ad6102f83660046130ec565b60009081526065602052604090206001015490565b34801561031957600080fd5b506102db610328366004613105565b61089e565b34801561033957600080fd5b5061034d6103483660046130ec565b610a6c565b604080519586526020860194909452928401919091526060830152608082015260a00161028d565b34801561038157600080fd5b506102db61039036600461316d565b610ac6565b3480156103a157600080fd5b506103b56103b03660046130ec565b610af1565b6040516001600160a01b03909116815260200161028d565b3480156103d957600080fd5b506102db6103e836600461316d565b610b27565b3480156103f957600080fd5b506102db6104083660046130d1565b610ba5565b34801561041957600080fd5b506102ad6101315481565b6102db610432366004613208565b610c85565b34801561044357600080fd5b506102db610452366004613299565b610d52565b34801561046357600080fd5b506102ad611171565b34801561047857600080fd5b506102ad6104873660046130ec565b611224565b34801561049857600080fd5b506102db6104a73660046130ec565b61139a565b3480156104b857600080fd5b506102db6104c73660046130ec565b6113ba565b3480156104d857600080fd5b506102ad600080516020613a3b83398151915281565b3480156104fa57600080fd5b506102db6105093660046130d1565b611926565b34801561051a57600080fd5b5061012d546103b5906001600160a01b031681565b34801561053b57600080fd5b5061054f61054a366004613299565b611963565b60405161028d91906132f3565b34801561056857600080fd5b506102db6105773660046130ec565b611aed565b34801561058857600080fd5b5061028161059736600461316d565b611c2d565b3480156105a857600080fd5b506102db6105b73660046130ec565b611c58565b3480156105c857600080fd5b506105dc6105d73660046130ec565b611dd3565b60405160ff909116815260200161028d565b3480156105fa57600080fd5b506102ad7fd8a7a79547af723ee3e12b59a480111268d8969c634e1a34a144d2c8b91d635b81565b34801561062e57600080fd5b506102ad600081565b34801561064357600080fd5b506102db6106523660046130ec565b611e11565b34801561066357600080fd5b506102ad611e31565b34801561067857600080fd5b506102ad6106873660046133a0565b612189565b34801561069857600080fd5b506102db6106a73660046130d1565b612212565b3480156106b857600080fd5b506102db6106c73660046130ec565b61224f565b3480156106d857600080fd5b506102ad6106e73660046133cc565b61226f565b3480156106f857600080fd5b506102ad610707366004613299565b6123ca565b34801561071857600080fd5b506102db61072736600461316d565b612470565b34801561073857600080fd5b506102db6107473660046130ec565b612496565b34801561075857600080fd5b5061076c6107673660046130ec565b6124b6565b60405161028d99989796959493929190613405565b34801561078d57600080fd5b506102ad6000805160206139d483398151915281565b3480156107af57600080fd5b5061012e546103b5906001600160a01b031681565b3480156107d057600080fd5b5061012f546103b5906001600160a01b031681565b3480156107f157600080fd5b506102ad6101305481565b34801561080857600080fd5b506102ad6101325481565b34801561081f57600080fd5b506102ad6101345481565b60006001600160e01b03198216637965db0b60e01b148061085b57506301ffc9a760e01b6001600160e01b03198316145b92915050565b600080516020613a3b83398151915261087a813361252e565b5061012f80546001600160a01b0319166001600160a01b0392909216919091179055565b600054610100900460ff166108b95760005460ff16156108bd565b303b155b6109255760405162461bcd60e51b815260206004820152602e60248201527f496e697469616c697a61626c653a20636f6e747261637420697320616c72656160448201526d191e481a5b9a5d1a585b1a5e995960921b60648201526084015b60405180910390fd5b600054610100900460ff16158015610947576000805461ffff19166101011790555b61094f612592565b6109576125bb565b61095f612592565b61096a6000336125ea565b610982600080516020613a3b833981519152336125ea565b61099a6000805160206139d4833981519152336125ea565b6109d27fd8a7a79547af723ee3e12b59a480111268d8969c634e1a34a144d2c8b91d635b600080516020613a3b8339815191526125f4565b6109f86000805160206139d4833981519152600080516020613a3b8339815191526125f4565b61012f80546001600160a01b03808b166001600160a01b03199283161790925561012d80548a841690831617905561012e8054928916929091169190911790556101308590556101318490556101328390556101338290558015610a62576000805461ff00191690555b5050505050505050565b6000806000806000806101358781548110610a8957610a8961345f565b9060005260206000209060090201905080600201548160010154826003015483600401548460050154955095509550955095505091939590929450565b600082815260656020526040902060010154610ae2813361252e565b610aec838361263f565b505050565b60006101358281548110610b0757610b0761345f565b60009182526020909120600990910201546001600160a01b031692915050565b6001600160a01b0381163314610b975760405162461bcd60e51b815260206004820152602f60248201527f416363657373436f6e74726f6c3a2063616e206f6e6c792072656e6f756e636560448201526e103937b632b9903337b91039b2b63360891b606482015260840161091c565b610ba182826126c5565b5050565b306001600160a01b037f0000000000000000000000000000000000000000000000000000000000000000161415610bee5760405162461bcd60e51b815260040161091c90613475565b7f00000000000000000000000000000000000000000000000000000000000000006001600160a01b0316610c376000805160206139f4833981519152546001600160a01b031690565b6001600160a01b031614610c5d5760405162461bcd60e51b815260040161091c906134c1565b610c668161272c565b60408051600080825260208201909252610c8291839190612745565b50565b306001600160a01b037f0000000000000000000000000000000000000000000000000000000000000000161415610cce5760405162461bcd60e51b815260040161091c90613475565b7f00000000000000000000000000000000000000000000000000000000000000006001600160a01b0316610d176000805160206139f4833981519152546001600160a01b031690565b6001600160a01b031614610d3d5760405162461bcd60e51b815260040161091c906134c1565b610d468261272c565b610ba182826001612745565b60026097541415610d755760405162461bcd60e51b815260040161091c9061350d565b600260975561012d5461012f54604080516395d89b4160e01b815290516000936001600160a01b0390811693630292e0fd939116916395d89b41916004808201928892909190829003018186803b158015610dcf57600080fd5b505afa158015610de3573d6000803e3d6000fd5b505050506040513d6000823e601f3d908101601f19168201604052610e0b9190810190613570565b6040518263ffffffff1660e01b8152600401610e27919061360a565b60206040518083038186803b158015610e3f57600080fd5b505afa158015610e53573d6000803e3d6000fd5b505050506040513d601f19601f82011682018060405250810190610e77919061361d565b9050816101346000828254610e8c919061364c565b90915550610e9a9050611e31565b610134541115610f265760405162461bcd60e51b815260206004820152604b60248201527f575141756374696f6e3a20416d6f756e74206f6620746f6b656e73207075726360448201527f68617365642069732067726561746572207468616e2074686520616d6f756e7460648201526a081b1a5c5d5a59185d195960aa1b608482015260a40161091c565b60006101358481548110610f3c57610f3c61345f565b6000918252602090912060099091020190506001600882015460ff166003811115610f6957610f696132bb565b14610fb65760405162461bcd60e51b815260206004820152601c60248201527f575141756374696f6e3a20537461747573206973206e6f74204e657700000000604482015260640161091c565b60008160010154826003015484610fcd9190613664565b610fd79190613683565b90506101305481108015610ff35750670de0b6b3a76400008110155b6110555760405162461bcd60e51b815260206004820152602d60248201527f575141756374696f6e3a2054686973206c6f74206973206e6f7420617661696c60448201526c61626c6520666f722073616c6560981b606482015260840161091c565b808260020154670de0b6b3a764000061106e9190613664565b6110789190613683565b84106110ee576040805162461bcd60e51b81526020600482015260248101919091527f575141756374696f6e3a20416d6f756e74206f6620746f6b656e73207075726360448201527f68617365642069732067726561746572207468616e206c6f7420616d6f756e74606482015260840161091c565b60058201849055600682018390556101335461110a904261364c565b600783015560088201805460ff1916600217905560068201546040805187815260208101879052908101919091527f44c53be110c6aa83aa83cd02e351ed172359268272ee1b5d31c0fe48db35c6c79060600160405180910390a150506001609755505050565b6000306001600160a01b037f000000000000000000000000000000000000000000000000000000000000000016146112115760405162461bcd60e51b815260206004820152603860248201527f555550535570677261646561626c653a206d757374206e6f742062652063616c60448201527f6c6564207468726f7567682064656c656761746563616c6c0000000000000000606482015260840161091c565b506000805160206139f483398151915290565b600080610135838154811061123b5761123b61345f565b6000918252602090912060099091020190506002600882015460ff166003811115611268576112686132bb565b146112c15760405162461bcd60e51b8152602060048201526024808201527f575141756374696f6e3a2054686973206c6f74206973206e6f742061756374696044820152631bdb995960e21b606482015260840161091c565b670de0b6b3a76400006112d3826128bf565b61012f60009054906101000a90046001600160a01b03166001600160a01b031663313ce5676040518163ffffffff1660e01b815260040160206040518083038186803b15801561132257600080fd5b505afa158015611336573d6000803e3d6000fd5b505050506040513d601f19601f8201168201806040525081019061135a91906136a5565b6113659060126136c8565b61137090600a6137cf565b836005015461137f9190613664565b6113899190613664565b6113939190613683565b9392505050565b600080516020613a3b8339815191526113b3813361252e565b5061013155565b600260975414156113dd5760405162461bcd60e51b815260040161091c9061350d565b6002609781905550600061013582815481106113fb576113fb61345f565b6000918252602090912060099091020190506002600882015460ff166003811115611428576114286132bb565b146114755760405162461bcd60e51b815260206004820152601f60248201527f575141756374696f6e3a204c6f74206973206e6f742061756374696f6e656400604482015260640161091c565b80600701544211156114c95760405162461bcd60e51b815260206004820152601f60248201527f575141756374696f6e3a2041756374696f6e2074696d65206973206f76657200604482015260640161091c565b6000670de0b6b3a76400006114dd836128bf565b61012f60009054906101000a90046001600160a01b03166001600160a01b031663313ce5676040518163ffffffff1660e01b815260040160206040518083038186803b15801561152c57600080fd5b505afa158015611540573d6000803e3d6000fd5b505050506040513d601f19601f8201168201806040525081019061156491906136a5565b61156f9060126136c8565b61157a90600a6137cf565b84600501546115899190613664565b6115939190613664565b61159d9190613683565b90506000670de0b6b3a76400006301e133808460040154426115bf91906137de565b61012e60009054906101000a90046001600160a01b03166001600160a01b0316631a9703da6040518163ffffffff1660e01b815260040160206040518083038186803b15801561160e57600080fd5b505afa158015611622573d6000803e3d6000fd5b505050506040513d601f19601f82011682018060405250810190611646919061361d565b6116509190613664565b61165a9190613683565b61012e60009054906101000a90046001600160a01b03166001600160a01b031663802d14226040518163ffffffff1660e01b815260040160206040518083038186803b1580156116a957600080fd5b505afa1580156116bd573d6000803e3d6000fd5b505050506040513d601f19601f820116820180604052508101906116e1919061361d565b6116eb919061364c565b84600501546116fa9190613664565b6117049190613683565b905060008360010154846003015485600601546117219190613664565b61172b9190613683565b90508360050154610134600082825461174491906137de565b9091555050600584015461175990839061364c565b84600201600082825461176c91906137de565b90915550506005840154600285015461178591906137de565b8460050154828660020154670de0b6b3a76400006117a39190613664565b6117ad9190613683565b6117b791906137de565b6117c990670de0b6b3a7640000613664565b6117d39190613683565b600385015561012e5461012f54604080516395d89b4160e01b815290516001600160a01b039384169363bb537b509333938b938a938a9316916395d89b41916004808301926000929190829003018186803b15801561183157600080fd5b505afa158015611845573d6000803e3d6000fd5b505050506040513d6000823e601f3d908101601f1916820160405261186d9190810190613570565b6040518663ffffffff1660e01b815260040161188d9594939291906137f5565b600060405180830381600087803b1580156118a757600080fd5b505af11580156118bb573d6000803e3d6000fd5b505050600585015460408051888152602081019290925281018590527fdcbbffeefd7d789c21429b616a74a46f1b4768145c7bebdd7bc2de50230779b1915060600160405180910390a150506000600583015550600801805460ff1916600190811790915560975550565b600080516020613a3b83398151915261193f813361252e565b5061012d80546001600160a01b0319166001600160a01b0392909216919091179055565b610135546060906119759084906137de565b82111561198e576101355461198b9084906137de565b91505b8167ffffffffffffffff8111156119a7576119a7613199565b6040519080825280602002602001820160405280156119e057816020015b6119cd613026565b8152602001906001900390816119c55790505b50905060005b82811015611ae6576101356119fb828661364c565b81548110611a0b57611a0b61345f565b60009182526020918290206040805161012081018252600990930290910180546001600160a01b03168352600181015493830193909352600283015490820152600380830154606083015260048301546080830152600583015460a0830152600683015460c0830152600783015460e0830152600883015491929161010084019160ff90911690811115611aa157611aa16132bb565b6003811115611ab257611ab26132bb565b81525050828281518110611ac857611ac861345f565b60200260200101819052508080611ade90613833565b9150506119e6565b5092915050565b60026097541415611b105760405162461bcd60e51b815260040161091c9061350d565b60026097557fd8a7a79547af723ee3e12b59a480111268d8969c634e1a34a144d2c8b91d635b611b40813361252e565b60006101358381548110611b5657611b5661345f565b6000918252602090912060099091020190506001600882015460ff166003811115611b8357611b836132bb565b14611bd05760405162461bcd60e51b815260206004820152601960248201527f575141756374696f6e3a204c6f74206973206e6f74206e657700000000000000604482015260640161091c565b80600701544211611c235760405162461bcd60e51b815260206004820152601f60248201527f575141756374696f6e3a2041756374696f6e2074696d65206973206f76657200604482015260640161091c565b5050600160975550565b60009182526065602090815260408084206001600160a01b0393909316845291905290205460ff1690565b60006101358281548110611c6e57611c6e61345f565b6000918252602090912060099091020190506002600882015460ff166003811115611c9b57611c9b6132bb565b14611ce85760405162461bcd60e51b815260206004820152601f60248201527f575141756374696f6e3a204c6f74206973206e6f742061756374696f6e656400604482015260640161091c565b80600701544211611d4b5760405162461bcd60e51b815260206004820152602760248201527f575141756374696f6e3a2041756374696f6e2074696d65206973206e6f74206f6044820152661d995c881e595d60ca1b606482015260840161091c565b80600501546101346000828254611d6291906137de565b9091555050600060058201819055600682018190556007820181905560088201805460ff191660011790556040805184815260208101839052908101919091527ff49dbfcc40079f59a911e2541cedaa7a9275ee6fdfb9349032eeb970ce60f57a9060600160405180910390a15050565b60006101358281548110611de957611de961345f565b600091825260209091206008600990920201015460ff16600381111561085b5761085b6132bb565b600080516020613a3b833981519152611e2a813361252e565b5061013355565b60008061012f60009054906101000a90046001600160a01b03166001600160a01b03166395d89b416040518163ffffffff1660e01b815260040160006040518083038186803b158015611e8357600080fd5b505afa158015611e97573d6000803e3d6000fd5b505050506040513d6000823e601f3d908101601f19168201604052611ebf9190810190613570565b9050600061012f60009054906101000a90046001600160a01b03166001600160a01b031663313ce5676040518163ffffffff1660e01b815260040160206040518083038186803b158015611f1257600080fd5b505afa158015611f26573d6000803e3d6000fd5b505050506040513d601f19601f82011682018060405250810190611f4a91906136a5565b611f559060126136c8565b611f6090600a6137cf565b61012d54604051630292e0fd60e01b81529192506000916001600160a01b0390911690630292e0fd90611f9790869060040161360a565b60206040518083038186803b158015611faf57600080fd5b505afa158015611fc3573d6000803e3d6000fd5b505050506040513d601f19601f82011682018060405250810190611fe7919061361d565b61012e54604051632ed4877d60e21b8152919250600091849184916001600160a01b039091169063bb521df49061202290899060040161360a565b60206040518083038186803b15801561203a57600080fd5b505afa15801561204e573d6000803e3d6000fd5b505050506040513d601f19601f82011682018060405250810190612072919061361d565b61207c9190613664565b6120869190613664565b61012e54604051638c1e06f160e01b81529192506000916001600160a01b0390911690638c1e06f1906120bd90889060040161360a565b60206040518083038186803b1580156120d557600080fd5b505afa1580156120e9573d6000803e3d6000fd5b505050506040513d601f19601f8201168201806040525081019061210d919061361d565b9050806101305461211e9190613664565b8210801561213c575061213981670de0b6b3a7640000613664565b82115b1561217d578261214d836002613664565b61215f836729a2241af62c0000613664565b61216991906137de565b6121739190613683565b9550505050505090565b60009550505050505090565b61012e546000906001600160a01b031633146121b75760405162461bcd60e51b815260040161091c9061384e565b8261013585815481106121cc576121cc61345f565b9060005260206000209060090201600101819055508161013585815481106121f6576121f661345f565b6000918252602090912060099091020160020155509192915050565b600080516020613a3b83398151915261222b813361252e565b5061012e80546001600160a01b0319166001600160a01b0392909216919091179055565b600080516020613a3b833981519152612268813361252e565b5061013055565b61012e546000906001600160a01b0316331461229d5760405162461bcd60e51b815260040161091c9061384e565b610135604051806101200160405280876001600160a01b03168152602001868152602001858152602001848152602001428152602001600081526020016000815260200160008152602001600160038111156122fb576122fb6132bb565b90528154600180820184556000938452602093849020835160099093020180546001600160a01b0319166001600160a01b0390931692909217825592820151818401556040820151600282015560608201516003808301919091556080830151600483015560a0830151600583015560c0830151600683015560e08301516007830155610100830151600883018054949593949193909260ff199092169184908111156123aa576123aa6132bb565b021790555050610135546123c191506001906137de565b95945050505050565b61012e546000906001600160a01b031633146123f85760405162461bcd60e51b815260040161091c9061384e565b81610135848154811061240d5761240d61345f565b9060005260206000209060090201600201600082825461242d91906137de565b925050819055506000610135848154811061244a5761244a61345f565b90600052602060002090600902016002015490508060001415611393576113938461294d565b60008281526065602052604090206001015461248c813361252e565b610aec83836126c5565b600080516020613a3b8339815191526124af813361252e565b5061013255565b61013581815481106124c757600080fd5b60009182526020909120600990910201805460018201546002830154600384015460048501546005860154600687015460078801546008909801546001600160a01b0390971698509496939592949193909260ff1689565b6001600160a01b03163b151590565b6125388282611c2d565b610ba157612550816001600160a01b03166014612c36565b61255b836020612c36565b60405160200161256c929190613885565b60408051601f198184030181529082905262461bcd60e51b825261091c9160040161360a565b600054610100900460ff166125b95760405162461bcd60e51b815260040161091c906138fa565b565b600054610100900460ff166125e25760405162461bcd60e51b815260040161091c906138fa565b6125b9612dd2565b610ba1828261263f565b600082815260656020526040808220600101805490849055905190918391839186917fbd79b86ffe0ab8e8776151514217cd7cacd52c909f66475c3af44e129f0b00ff9190a4505050565b6126498282611c2d565b610ba15760008281526065602090815260408083206001600160a01b03851684529091529020805460ff191660011790556126813390565b6001600160a01b0316816001600160a01b0316837f2f8788117e7eff1d82e926ec794901d17c78024a50270940304540a733656f0d60405160405180910390a45050565b6126cf8282611c2d565b15610ba15760008281526065602090815260408083206001600160a01b0385168085529252808320805460ff1916905551339285917ff6391f5c32d9c69d2a47ea670b442974b53935d1edc7fd64eb21e047a839171b9190a45050565b6000805160206139d4833981519152610ba1813361252e565b7f4910fdfa16fed3260ed0e7147f7cc6da11a60208b5b9406d12a635614ffd91435460ff161561277857610aec83612e00565b826001600160a01b03166352d1902d6040518163ffffffff1660e01b815260040160206040518083038186803b1580156127b157600080fd5b505afa9250505080156127e1575060408051601f3d908101601f191682019092526127de9181019061361d565b60015b6128445760405162461bcd60e51b815260206004820152602e60248201527f45524331393637557067726164653a206e657720696d706c656d656e7461746960448201526d6f6e206973206e6f74205555505360901b606482015260840161091c565b6000805160206139f483398151915281146128b35760405162461bcd60e51b815260206004820152602960248201527f45524331393637557067726164653a20756e737570706f727465642070726f786044820152681a58589b195555525160ba1b606482015260840161091c565b50610aec838383612e9c565b6000670de0b6b3a764000061013354836006015461013254610131546128e591906137de565b4286600701546128f591906137de565b6128ff9190613664565b6129099190613664565b6129139190613683565b61291d9190613683565b670de0b6b3a76400006101325484600601546129399190613664565b6129439190613683565b61085b919061364c565b61013554600090612960906001906137de565b9050818114612ae05761012e5461013580546001600160a01b039092169163103624b19190849081106129955761299561345f565b600091825260209091206009909102015461013580546001600160a01b0390921691859081106129c7576129c761345f565b90600052602060002090600902016002015461013585815481106129ed576129ed61345f565b906000526020600020906009020160010154858761012f60009054906101000a90046001600160a01b03166001600160a01b03166395d89b416040518163ffffffff1660e01b815260040160006040518083038186803b158015612a5057600080fd5b505afa158015612a64573d6000803e3d6000fd5b505050506040513d6000823e601f3d908101601f19168201604052612a8c9190810190613570565b6040518763ffffffff1660e01b8152600401612aad96959493929190613945565b600060405180830381600087803b158015612ac757600080fd5b505af1158015612adb573d6000803e3d6000fd5b505050505b6101358181548110612af457612af461345f565b90600052602060002090600902016101358381548110612b1657612b1661345f565b60009182526020909120825460099092020180546001600160a01b0319166001600160a01b0390921691909117815560018083015481830155600280840154908301556003808401548184015560048085015490840155600580850154908401556006808501549084015560078085015490840155600880850154908401805460ff90921693909260ff19909216918490811115612bb657612bb66132bb565b0217905550905050610135805480612bd057612bd061398a565b60008281526020812060096000199093019283020180546001600160a01b03191681556001810182905560028101829055600381018290556004810182905560058101829055600681018290556007810191909155600801805460ff1916905590555050565b60606000612c45836002613664565b612c5090600261364c565b67ffffffffffffffff811115612c6857612c68613199565b6040519080825280601f01601f191660200182016040528015612c92576020820181803683370190505b509050600360fc1b81600081518110612cad57612cad61345f565b60200101906001600160f81b031916908160001a905350600f60fb1b81600181518110612cdc57612cdc61345f565b60200101906001600160f81b031916908160001a9053506000612d00846002613664565b612d0b90600161364c565b90505b6001811115612d83576f181899199a1a9b1b9c1cb0b131b232b360811b85600f1660108110612d3f57612d3f61345f565b1a60f81b828281518110612d5557612d5561345f565b60200101906001600160f81b031916908160001a90535060049490941c93612d7c816139a0565b9050612d0e565b5083156113935760405162461bcd60e51b815260206004820181905260248201527f537472696e67733a20686578206c656e67746820696e73756666696369656e74604482015260640161091c565b600054610100900460ff16612df95760405162461bcd60e51b815260040161091c906138fa565b6001609755565b6001600160a01b0381163b612e6d5760405162461bcd60e51b815260206004820152602d60248201527f455243313936373a206e657720696d706c656d656e746174696f6e206973206e60448201526c1bdd08184818dbdb9d1c9858dd609a1b606482015260840161091c565b6000805160206139f483398151915280546001600160a01b0319166001600160a01b0392909216919091179055565b612ea583612ec7565b600082511180612eb25750805b15610aec57612ec18383612f07565b50505050565b612ed081612e00565b6040516001600160a01b038216907fbc7cd75a20ee27fd9adebab32041f755214dbc6bffa90cc0225b39da2e5c2d3b90600090a250565b60606001600160a01b0383163b612f6f5760405162461bcd60e51b815260206004820152602660248201527f416464726573733a2064656c65676174652063616c6c20746f206e6f6e2d636f6044820152651b9d1c9858dd60d21b606482015260840161091c565b600080846001600160a01b031684604051612f8a91906139b7565b600060405180830381855af49150503d8060008114612fc5576040519150601f19603f3d011682016040523d82523d6000602084013e612fca565b606091505b50915091506123c18282604051806060016040528060278152602001613a146027913960608315612ffc575081611393565b82511561300c5782518084602001fd5b8160405162461bcd60e51b815260040161091c919061360a565b60405180610120016040528060006001600160a01b031681526020016000815260200160008152602001600081526020016000815260200160008152602001600081526020016000815260200160006003811115613086576130866132bb565b905290565b60006020828403121561309d57600080fd5b81356001600160e01b03198116811461139357600080fd5b80356001600160a01b03811681146130cc57600080fd5b919050565b6000602082840312156130e357600080fd5b611393826130b5565b6000602082840312156130fe57600080fd5b5035919050565b600080600080600080600060e0888a03121561312057600080fd5b613129886130b5565b9650613137602089016130b5565b9550613145604089016130b5565b969995985095966060810135965060808101359560a0820135955060c0909101359350915050565b6000806040838503121561318057600080fd5b82359150613190602084016130b5565b90509250929050565b634e487b7160e01b600052604160045260246000fd5b604051601f8201601f1916810167ffffffffffffffff811182821017156131d8576131d8613199565b604052919050565b600067ffffffffffffffff8211156131fa576131fa613199565b50601f01601f191660200190565b6000806040838503121561321b57600080fd5b613224836130b5565b9150602083013567ffffffffffffffff81111561324057600080fd5b8301601f8101851361325157600080fd5b803561326461325f826131e0565b6131af565b81815286602083850101111561327957600080fd5b816020840160208301376000602083830101528093505050509250929050565b600080604083850312156132ac57600080fd5b50508035926020909101359150565b634e487b7160e01b600052602160045260246000fd5b600481106132ef57634e487b7160e01b600052602160045260246000fd5b9052565b602080825282518282018190526000919060409081850190868401855b8281101561339357815180516001600160a01b0316855286810151878601528581015186860152606080820151908601526080808201519086015260a0808201519086015260c0808201519086015260e08082015190860152610100908101519061337d818701836132d1565b5050610120939093019290850190600101613310565b5091979650505050505050565b6000806000606084860312156133b557600080fd5b505081359360208301359350604090920135919050565b600080600080608085870312156133e257600080fd5b6133eb856130b5565b966020860135965060408601359560600135945092505050565b60006101208201905060018060a01b038b1682528960208301528860408301528760608301528660808301528560a08301528460c08301528360e08301526134516101008301846132d1565b9a9950505050505050505050565b634e487b7160e01b600052603260045260246000fd5b6020808252602c908201527f46756e6374696f6e206d7573742062652063616c6c6564207468726f7567682060408201526b19195b1959d85d1958d85b1b60a21b606082015260800190565b6020808252602c908201527f46756e6374696f6e206d7573742062652063616c6c6564207468726f7567682060408201526b6163746976652070726f787960a01b606082015260800190565b6020808252601f908201527f5265656e7472616e637947756172643a207265656e7472616e742063616c6c00604082015260600190565b60005b8381101561355f578181015183820152602001613547565b83811115612ec15750506000910152565b60006020828403121561358257600080fd5b815167ffffffffffffffff81111561359957600080fd5b8201601f810184136135aa57600080fd5b80516135b861325f826131e0565b8181528560208385010111156135cd57600080fd5b6123c1826020830160208601613544565b600081518084526135f6816020860160208601613544565b601f01601f19169290920160200192915050565b60208152600061139360208301846135de565b60006020828403121561362f57600080fd5b5051919050565b634e487b7160e01b600052601160045260246000fd5b6000821982111561365f5761365f613636565b500190565b600081600019048311821515161561367e5761367e613636565b500290565b6000826136a057634e487b7160e01b600052601260045260246000fd5b500490565b6000602082840312156136b757600080fd5b815160ff8116811461139357600080fd5b600060ff821660ff8416808210156136e2576136e2613636565b90039392505050565b600181815b8085111561372657816000190482111561370c5761370c613636565b8085161561371957918102915b93841c93908002906136f0565b509250929050565b60008261373d5750600161085b565b8161374a5750600061085b565b8160018114613760576002811461376a57613786565b600191505061085b565b60ff84111561377b5761377b613636565b50506001821b61085b565b5060208310610133831016604e8410600b84101617156137a9575081810a61085b565b6137b383836136eb565b80600019048211156137c7576137c7613636565b029392505050565b600061139360ff84168361372e565b6000828210156137f0576137f0613636565b500390565b60018060a01b038616815284602082015283604082015282606082015260a06080820152600061382860a08301846135de565b979650505050505050565b600060001982141561384757613847613636565b5060010190565b6020808252601f908201527f575141756374696f6e3a2053656e646572206973206e6f7420726f7574657200604082015260600190565b7f416363657373436f6e74726f6c3a206163636f756e74200000000000000000008152600083516138bd816017850160208801613544565b7001034b99036b4b9b9b4b733903937b6329607d1b60179184019182015283516138ee816028840160208801613544565b01602801949350505050565b6020808252602b908201527f496e697469616c697a61626c653a20636f6e7472616374206973206e6f74206960408201526a6e697469616c697a696e6760a81b606082015260800190565b60018060a01b038716815285602082015284604082015283606082015282608082015260c060a0820152600061397e60c08301846135de565b98975050505050505050565b634e487b7160e01b600052603160045260246000fd5b6000816139af576139af613636565b506000190190565b600082516139c9818460208701613544565b919091019291505056fe189ab7a9244df0848122154315af71fe140f3db0fe014031783b0946b8c9d2e3360894a13ba1a3210667c828492db98dca3e2076cc3735a920a3ca505d382bbc416464726573733a206c6f772d6c6576656c2064656c65676174652063616c6c206661696c6564a49807205ce4d355092ef5a8a18f56e8913cf4a201fbe287825b095693c21775a264697066735822122009b4783ad314fbb3985ac9cd93d90411d127f5a967a3cdc1f640b77a3f95146664736f6c63430008090033",
  "linkReferences": {},
  "deployedLinkReferences": {}
}