{
  "_format": "hh-sol-artifact-1",
  "contractName": "WQCollateralAuction",
  "sourceName": "contracts/stablecoin/WQCollateralAuction.sol",
  "abi": [
    {
      "inputs": [],
      "stateMutability": "nonpayable",
      "type": "constructor"
    },
    {
      "anonymous": false,
      "inputs": [
        {
          "indexed": false,
          "internalType": "address",
          "name": "previousAdmin",
          "type": "address"
        },
        {
          "indexed": false,
          "internalType": "address",
          "name": "newAdmin",
          "type": "address"
        }
      ],
      "name": "AdminChanged",
      "type": "event"
    },
    {
      "anonymous": false,
      "inputs": [
        {
          "indexed": false,
          "internalType": "uint256",
          "name": "priceIndex",
          "type": "uint256"
        },
        {
          "indexed": false,
          "internalType": "uint256",
          "name": "index",
          "type": "uint256"
        },
        {
          "indexed": false,
          "internalType": "uint256",
          "name": "amount",
          "type": "uint256"
        },
        {
          "indexed": false,
          "internalType": "uint256",
          "name": "endCost",
          "type": "uint256"
        }
      ],
      "name": "AuctionStarted",
      "type": "event"
    },
    {
      "anonymous": false,
      "inputs": [
        {
          "indexed": true,
          "internalType": "address",
          "name": "beacon",
          "type": "address"
        }
      ],
      "name": "BeaconUpgraded",
      "type": "event"
    },
    {
      "anonymous": false,
      "inputs": [
        {
          "indexed": false,
          "internalType": "uint256",
          "name": "priceIndex",
          "type": "uint256"
        },
        {
          "indexed": false,
          "internalType": "uint256",
          "name": "index",
          "type": "uint256"
        },
        {
          "indexed": false,
          "internalType": "uint256",
          "name": "amount",
          "type": "uint256"
        },
        {
          "indexed": false,
          "internalType": "uint256",
          "name": "cost",
          "type": "uint256"
        }
      ],
      "name": "LotBuyed",
      "type": "event"
    },
    {
      "anonymous": false,
      "inputs": [
        {
          "indexed": false,
          "internalType": "uint256",
          "name": "priceIndex",
          "type": "uint256"
        },
        {
          "indexed": false,
          "internalType": "uint256",
          "name": "index",
          "type": "uint256"
        },
        {
          "indexed": false,
          "internalType": "uint256",
          "name": "amount",
          "type": "uint256"
        },
        {
          "indexed": false,
          "internalType": "uint256",
          "name": "cost",
          "type": "uint256"
        }
      ],
      "name": "LotCanceled",
      "type": "event"
    },
    {
      "anonymous": false,
      "inputs": [
        {
          "indexed": true,
          "internalType": "bytes32",
          "name": "role",
          "type": "bytes32"
        },
        {
          "indexed": true,
          "internalType": "bytes32",
          "name": "previousAdminRole",
          "type": "bytes32"
        },
        {
          "indexed": true,
          "internalType": "bytes32",
          "name": "newAdminRole",
          "type": "bytes32"
        }
      ],
      "name": "RoleAdminChanged",
      "type": "event"
    },
    {
      "anonymous": false,
      "inputs": [
        {
          "indexed": true,
          "internalType": "bytes32",
          "name": "role",
          "type": "bytes32"
        },
        {
          "indexed": true,
          "internalType": "address",
          "name": "account",
          "type": "address"
        },
        {
          "indexed": true,
          "internalType": "address",
          "name": "sender",
          "type": "address"
        }
      ],
      "name": "RoleGranted",
      "type": "event"
    },
    {
      "anonymous": false,
      "inputs": [
        {
          "indexed": true,
          "internalType": "bytes32",
          "name": "role",
          "type": "bytes32"
        },
        {
          "indexed": true,
          "internalType": "address",
          "name": "account",
          "type": "address"
        },
        {
          "indexed": true,
          "internalType": "address",
          "name": "sender",
          "type": "address"
        }
      ],
      "name": "RoleRevoked",
      "type": "event"
    },
    {
      "anonymous": false,
      "inputs": [
        {
          "indexed": true,
          "internalType": "address",
          "name": "implementation",
          "type": "address"
        }
      ],
      "name": "Upgraded",
      "type": "event"
    },
    {
      "inputs": [],
      "name": "ADMIN_ROLE",
      "outputs": [
        {
          "internalType": "bytes32",
          "name": "",
          "type": "bytes32"
        }
      ],
      "stateMutability": "view",
      "type": "function"
    },
    {
      "inputs": [],
      "name": "DEFAULT_ADMIN_ROLE",
      "outputs": [
        {
          "internalType": "bytes32",
          "name": "",
          "type": "bytes32"
        }
      ],
      "stateMutability": "view",
      "type": "function"
    },
    {
      "inputs": [],
      "name": "UPGRADER_ROLE",
      "outputs": [
        {
          "internalType": "bytes32",
          "name": "",
          "type": "bytes32"
        }
      ],
      "stateMutability": "view",
      "type": "function"
    },
    {
      "inputs": [
        {
          "internalType": "address",
          "name": "user",
          "type": "address"
        },
        {
          "internalType": "uint256",
          "name": "price",
          "type": "uint256"
        },
        {
          "internalType": "uint256",
          "name": "amount",
          "type": "uint256"
        },
        {
          "internalType": "uint256",
          "name": "ratio",
          "type": "uint256"
        }
      ],
      "name": "addLot",
      "outputs": [
        {
          "internalType": "uint256",
          "name": "",
          "type": "uint256"
        },
        {
          "internalType": "uint256",
          "name": "",
          "type": "uint256"
        }
      ],
      "stateMutability": "nonpayable",
      "type": "function"
    },
    {
      "inputs": [],
      "name": "auctionDuration",
      "outputs": [
        {
          "internalType": "uint256",
          "name": "",
          "type": "uint256"
        }
      ],
      "stateMutability": "view",
      "type": "function"
    },
    {
      "inputs": [
        {
          "internalType": "uint256",
          "name": "priceIndex",
          "type": "uint256"
        },
        {
          "internalType": "uint256",
          "name": "index",
          "type": "uint256"
        }
      ],
      "name": "buyLot",
      "outputs": [],
      "stateMutability": "nonpayable",
      "type": "function"
    },
    {
      "inputs": [
        {
          "internalType": "uint256",
          "name": "priceIndex",
          "type": "uint256"
        },
        {
          "internalType": "uint256",
          "name": "index",
          "type": "uint256"
        }
      ],
      "name": "cancelAuction",
      "outputs": [],
      "stateMutability": "nonpayable",
      "type": "function"
    },
    {
      "inputs": [
        {
          "internalType": "uint256",
          "name": "priceIndex",
          "type": "uint256"
        },
        {
          "internalType": "uint256",
          "name": "index",
          "type": "uint256"
        },
        {
          "internalType": "uint256",
          "name": "collaterralPart",
          "type": "uint256"
        }
      ],
      "name": "decreaseLotAmount",
      "outputs": [
        {
          "internalType": "uint256",
          "name": "",
          "type": "uint256"
        }
      ],
      "stateMutability": "nonpayable",
      "type": "function"
    },
    {
      "inputs": [
        {
          "internalType": "uint256",
          "name": "priceIndex",
          "type": "uint256"
        },
        {
          "internalType": "uint256",
          "name": "index",
          "type": "uint256"
        }
      ],
      "name": "getCurrentLotCost",
      "outputs": [
        {
          "internalType": "uint256",
          "name": "",
          "type": "uint256"
        }
      ],
      "stateMutability": "view",
      "type": "function"
    },
    {
      "inputs": [],
      "name": "getLiquidatedCollaterallAmount",
      "outputs": [
        {
          "internalType": "uint256",
          "name": "",
          "type": "uint256"
        }
      ],
      "stateMutability": "view",
      "type": "function"
    },
    {
      "inputs": [
        {
          "internalType": "uint256",
          "name": "priceIndex",
          "type": "uint256"
        },
        {
          "internalType": "uint256",
          "name": "index",
          "type": "uint256"
        }
      ],
      "name": "getLotInfo",
      "outputs": [
        {
          "internalType": "uint256",
          "name": "",
          "type": "uint256"
        },
        {
          "internalType": "uint256",
          "name": "",
          "type": "uint256"
        },
        {
          "internalType": "uint256",
          "name": "",
          "type": "uint256"
        },
        {
          "internalType": "uint256",
          "name": "",
          "type": "uint256"
        },
        {
          "internalType": "uint256",
          "name": "",
          "type": "uint256"
        }
      ],
      "stateMutability": "view",
      "type": "function"
    },
    {
      "inputs": [
        {
          "internalType": "uint256",
          "name": "priceIndex",
          "type": "uint256"
        },
        {
          "internalType": "uint256",
          "name": "index",
          "type": "uint256"
        }
      ],
      "name": "getLotStatus",
      "outputs": [
        {
          "internalType": "uint8",
          "name": "",
          "type": "uint8"
        }
      ],
      "stateMutability": "view",
      "type": "function"
    },
    {
      "inputs": [
        {
          "internalType": "uint256",
          "name": "priceIndex",
          "type": "uint256"
        },
        {
          "internalType": "uint256",
          "name": "index",
          "type": "uint256"
        }
      ],
      "name": "getLotUsers",
      "outputs": [
        {
          "internalType": "address",
          "name": "",
          "type": "address"
        },
        {
          "internalType": "address",
          "name": "",
          "type": "address"
        }
      ],
      "stateMutability": "view",
      "type": "function"
    },
    {
      "inputs": [
        {
          "internalType": "uint256",
          "name": "price",
          "type": "uint256"
        },
        {
          "internalType": "uint256",
          "name": "offset",
          "type": "uint256"
        },
        {
          "internalType": "uint256",
          "name": "limit",
          "type": "uint256"
        }
      ],
      "name": "getLots",
      "outputs": [
        {
          "components": [
            {
              "internalType": "address",
              "name": "user",
              "type": "address"
            },
            {
              "internalType": "uint256",
              "name": "price",
              "type": "uint256"
            },
            {
              "internalType": "uint256",
              "name": "amount",
              "type": "uint256"
            },
            {
              "internalType": "uint256",
              "name": "ratio",
              "type": "uint256"
            },
            {
              "internalType": "uint256",
              "name": "created",
              "type": "uint256"
            },
            {
              "internalType": "address",
              "name": "buyer",
              "type": "address"
            },
            {
              "internalType": "uint256",
              "name": "saleAmount",
              "type": "uint256"
            },
            {
              "internalType": "uint256",
              "name": "endCost",
              "type": "uint256"
            },
            {
              "internalType": "uint256",
              "name": "endTime",
              "type": "uint256"
            },
            {
              "internalType": "enum WQCollateralAuction.LotStatus",
              "name": "status",
              "type": "uint8"
            }
          ],
          "internalType": "struct WQCollateralAuction.LotInfo[]",
          "name": "page",
          "type": "tuple[]"
        }
      ],
      "stateMutability": "view",
      "type": "function"
    },
    {
      "inputs": [
        {
          "internalType": "uint256",
          "name": "price",
          "type": "uint256"
        }
      ],
      "name": "getPriceIndex",
      "outputs": [
        {
          "internalType": "uint256",
          "name": "",
          "type": "uint256"
        }
      ],
      "stateMutability": "view",
      "type": "function"
    },
    {
      "inputs": [
        {
          "internalType": "uint256",
          "name": "offset",
          "type": "uint256"
        },
        {
          "internalType": "uint256",
          "name": "limit",
          "type": "uint256"
        }
      ],
      "name": "getPriceIndexes",
      "outputs": [
        {
          "internalType": "uint256[]",
          "name": "page",
          "type": "uint256[]"
        }
      ],
      "stateMutability": "view",
      "type": "function"
    },
    {
      "inputs": [
        {
          "internalType": "bytes32",
          "name": "role",
          "type": "bytes32"
        }
      ],
      "name": "getRoleAdmin",
      "outputs": [
        {
          "internalType": "bytes32",
          "name": "",
          "type": "bytes32"
        }
      ],
      "stateMutability": "view",
      "type": "function"
    },
    {
      "inputs": [
        {
          "internalType": "bytes32",
          "name": "role",
          "type": "bytes32"
        },
        {
          "internalType": "address",
          "name": "account",
          "type": "address"
        }
      ],
      "name": "grantRole",
      "outputs": [],
      "stateMutability": "nonpayable",
      "type": "function"
    },
    {
      "inputs": [
        {
          "internalType": "bytes32",
          "name": "role",
          "type": "bytes32"
        },
        {
          "internalType": "address",
          "name": "account",
          "type": "address"
        }
      ],
      "name": "hasRole",
      "outputs": [
        {
          "internalType": "bool",
          "name": "",
          "type": "bool"
        }
      ],
      "stateMutability": "view",
      "type": "function"
    },
    {
      "inputs": [
        {
          "internalType": "address",
          "name": "_token",
          "type": "address"
        },
        {
          "internalType": "address",
          "name": "_oracle",
          "type": "address"
        },
        {
          "internalType": "address",
          "name": "_router",
          "type": "address"
        },
        {
          "internalType": "uint256",
          "name": "_liquidateThreshold",
          "type": "uint256"
        },
        {
          "internalType": "uint256",
          "name": "_upperBoundCost",
          "type": "uint256"
        },
        {
          "internalType": "uint256",
          "name": "_lowerBoundCost",
          "type": "uint256"
        },
        {
          "internalType": "uint256",
          "name": "_auctionDuration",
          "type": "uint256"
        },
        {
          "internalType": "uint256",
          "name": "_priceIndexStep",
          "type": "uint256"
        }
      ],
      "name": "initialize",
      "outputs": [],
      "stateMutability": "nonpayable",
      "type": "function"
    },
    {
      "inputs": [],
      "name": "liquidateThreshold",
      "outputs": [
        {
          "internalType": "uint256",
          "name": "",
          "type": "uint256"
        }
      ],
      "stateMutability": "view",
      "type": "function"
    },
    {
      "inputs": [
        {
          "internalType": "uint256",
          "name": "",
          "type": "uint256"
        },
        {
          "internalType": "uint256",
          "name": "",
          "type": "uint256"
        }
      ],
      "name": "lots",
      "outputs": [
        {
          "internalType": "address",
          "name": "user",
          "type": "address"
        },
        {
          "internalType": "uint256",
          "name": "price",
          "type": "uint256"
        },
        {
          "internalType": "uint256",
          "name": "amount",
          "type": "uint256"
        },
        {
          "internalType": "uint256",
          "name": "ratio",
          "type": "uint256"
        },
        {
          "internalType": "uint256",
          "name": "created",
          "type": "uint256"
        },
        {
          "internalType": "address",
          "name": "buyer",
          "type": "address"
        },
        {
          "internalType": "uint256",
          "name": "saleAmount",
          "type": "uint256"
        },
        {
          "internalType": "uint256",
          "name": "endCost",
          "type": "uint256"
        },
        {
          "internalType": "uint256",
          "name": "endTime",
          "type": "uint256"
        },
        {
          "internalType": "enum WQCollateralAuction.LotStatus",
          "name": "status",
          "type": "uint8"
        }
      ],
      "stateMutability": "view",
      "type": "function"
    },
    {
      "inputs": [],
      "name": "lowerBoundCost",
      "outputs": [
        {
          "internalType": "uint256",
          "name": "",
          "type": "uint256"
        }
      ],
      "stateMutability": "view",
      "type": "function"
    },
    {
      "inputs": [
        {
          "internalType": "uint256",
          "name": "priceIndex",
          "type": "uint256"
        },
        {
          "internalType": "uint256",
          "name": "index",
          "type": "uint256"
        },
        {
          "internalType": "uint256",
          "name": "newPrice",
          "type": "uint256"
        },
        {
          "internalType": "uint256",
          "name": "newAmount",
          "type": "uint256"
        }
      ],
      "name": "moveLot",
      "outputs": [
        {
          "internalType": "uint256",
          "name": "",
          "type": "uint256"
        },
        {
          "internalType": "uint256",
          "name": "",
          "type": "uint256"
        }
      ],
      "stateMutability": "nonpayable",
      "type": "function"
    },
    {
      "inputs": [],
      "name": "oracle",
      "outputs": [
        {
          "internalType": "contract WQPriceOracle",
          "name": "",
          "type": "address"
        }
      ],
      "stateMutability": "view",
      "type": "function"
    },
    {
      "inputs": [],
      "name": "priceIndexStep",
      "outputs": [
        {
          "internalType": "uint256",
          "name": "",
          "type": "uint256"
        }
      ],
      "stateMutability": "view",
      "type": "function"
    },
    {
      "inputs": [
        {
          "internalType": "uint256",
          "name": "",
          "type": "uint256"
        }
      ],
      "name": "priceIndexes",
      "outputs": [
        {
          "internalType": "uint256",
          "name": "",
          "type": "uint256"
        }
      ],
      "stateMutability": "view",
      "type": "function"
    },
    {
      "inputs": [
        {
          "internalType": "uint256",
          "name": "",
          "type": "uint256"
        }
      ],
      "name": "prices",
      "outputs": [
        {
          "internalType": "uint256",
          "name": "",
          "type": "uint256"
        }
      ],
      "stateMutability": "view",
      "type": "function"
    },
    {
      "inputs": [],
      "name": "proxiableUUID",
      "outputs": [
        {
          "internalType": "bytes32",
          "name": "",
          "type": "bytes32"
        }
      ],
      "stateMutability": "view",
      "type": "function"
    },
    {
      "inputs": [
        {
          "internalType": "uint256",
          "name": "priceIndex",
          "type": "uint256"
        },
        {
          "internalType": "uint256",
          "name": "index",
          "type": "uint256"
        }
      ],
      "name": "recalcLot",
      "outputs": [],
      "stateMutability": "nonpayable",
      "type": "function"
    },
    {
      "inputs": [
        {
          "internalType": "bytes32",
          "name": "role",
          "type": "bytes32"
        },
        {
          "internalType": "address",
          "name": "account",
          "type": "address"
        }
      ],
      "name": "renounceRole",
      "outputs": [],
      "stateMutability": "nonpayable",
      "type": "function"
    },
    {
      "inputs": [
        {
          "internalType": "bytes32",
          "name": "role",
          "type": "bytes32"
        },
        {
          "internalType": "address",
          "name": "account",
          "type": "address"
        }
      ],
      "name": "revokeRole",
      "outputs": [],
      "stateMutability": "nonpayable",
      "type": "function"
    },
    {
      "inputs": [],
      "name": "router",
      "outputs": [
        {
          "internalType": "contract WQRouterInterface",
          "name": "",
          "type": "address"
        }
      ],
      "stateMutability": "view",
      "type": "function"
    },
    {
      "inputs": [
        {
          "internalType": "uint256",
          "name": "duration",
          "type": "uint256"
        }
      ],
      "name": "setAuctionDuration",
      "outputs": [],
      "stateMutability": "nonpayable",
      "type": "function"
    },
    {
      "inputs": [
        {
          "internalType": "uint256",
          "name": "percent",
          "type": "uint256"
        }
      ],
      "name": "setLiquidateTreshold",
      "outputs": [],
      "stateMutability": "nonpayable",
      "type": "function"
    },
    {
      "inputs": [
        {
          "internalType": "uint256",
          "name": "percent",
          "type": "uint256"
        }
      ],
      "name": "setLowerBoundCost",
      "outputs": [],
      "stateMutability": "nonpayable",
      "type": "function"
    },
    {
      "inputs": [
        {
          "internalType": "address",
          "name": "_oracle",
          "type": "address"
        }
      ],
      "name": "setOracle",
      "outputs": [],
      "stateMutability": "nonpayable",
      "type": "function"
    },
    {
      "inputs": [
        {
          "internalType": "uint256",
          "name": "step",
          "type": "uint256"
        }
      ],
      "name": "setPriceIndexStep",
      "outputs": [],
      "stateMutability": "nonpayable",
      "type": "function"
    },
    {
      "inputs": [
        {
          "internalType": "address",
          "name": "_router",
          "type": "address"
        }
      ],
      "name": "setRouter",
      "outputs": [],
      "stateMutability": "nonpayable",
      "type": "function"
    },
    {
      "inputs": [
        {
          "internalType": "address",
          "name": "_token",
          "type": "address"
        }
      ],
      "name": "setToken",
      "outputs": [],
      "stateMutability": "nonpayable",
      "type": "function"
    },
    {
      "inputs": [
        {
          "internalType": "uint256",
          "name": "percent",
          "type": "uint256"
        }
      ],
      "name": "setUpperBoundCost",
      "outputs": [],
      "stateMutability": "nonpayable",
      "type": "function"
    },
    {
      "inputs": [
        {
          "internalType": "uint256",
          "name": "priceIndex",
          "type": "uint256"
        },
        {
          "internalType": "uint256",
          "name": "index",
          "type": "uint256"
        },
        {
          "internalType": "uint256",
          "name": "amount",
          "type": "uint256"
        }
      ],
      "name": "startAuction",
      "outputs": [],
      "stateMutability": "nonpayable",
      "type": "function"
    },
    {
      "inputs": [
        {
          "internalType": "bytes4",
          "name": "interfaceId",
          "type": "bytes4"
        }
      ],
      "name": "supportsInterface",
      "outputs": [
        {
          "internalType": "bool",
          "name": "",
          "type": "bool"
        }
      ],
      "stateMutability": "view",
      "type": "function"
    },
    {
      "inputs": [],
      "name": "token",
      "outputs": [
        {
          "internalType": "contract IERC20MetadataUpgradeable",
          "name": "",
          "type": "address"
        }
      ],
      "stateMutability": "view",
      "type": "function"
    },
    {
      "inputs": [],
      "name": "totalAuctioned",
      "outputs": [
        {
          "internalType": "uint256",
          "name": "",
          "type": "uint256"
        }
      ],
      "stateMutability": "view",
      "type": "function"
    },
    {
      "inputs": [
        {
          "internalType": "address",
          "name": "newImplementation",
          "type": "address"
        }
      ],
      "name": "upgradeTo",
      "outputs": [],
      "stateMutability": "nonpayable",
      "type": "function"
    },
    {
      "inputs": [
        {
          "internalType": "address",
          "name": "newImplementation",
          "type": "address"
        },
        {
          "internalType": "bytes",
          "name": "data",
          "type": "bytes"
        }
      ],
      "name": "upgradeToAndCall",
      "outputs": [],
      "stateMutability": "payable",
      "type": "function"
    },
    {
      "inputs": [],
      "name": "upperBoundCost",
      "outputs": [
        {
          "internalType": "uint256",
          "name": "",
          "type": "uint256"
        }
      ],
      "stateMutability": "view",
      "type": "function"
    }
  ],
  "bytecode": "0x60a0604052306080523480156200001557600080fd5b50600054610100900460ff16620000335760005460ff16156200003d565b6200003d620000e2565b620000a55760405162461bcd60e51b815260206004820152602e60248201527f496e697469616c697a61626c653a20636f6e747261637420697320616c72656160448201526d191e481a5b9a5d1a585b1a5e995960921b606482015260840160405180910390fd5b600054610100900460ff16158015620000c8576000805461ffff19166101011790555b8015620000db576000805461ff00191690555b506200010f565b6000620000fa306200010060201b62002ce81760201c565b15905090565b6001600160a01b03163b151590565b6080516145096200014760003960008181610d1001528181610d5001528181610e1001528181610e500152610edf01526145096000f3fe6080604052600436106102925760003560e01c806392ba90751161015a578063cc6b3be3116100c1578063f72c0d8b1161007a578063f72c0d8b1461088f578063f887ea40146108b1578063fc0c546a146108d2578063fdcb648c146108f3578063ff2ab2291461090a578063ffb671861461092157600080fd5b8063cc6b3be314610799578063d547741f146107b9578063dd5c05f4146107d9578063df8fa43014610821578063dff67bfa14610841578063e2a07a071461086f57600080fd5b8063b93dafa911610113578063b93dafa91461068e578063bc31c1c1146106c4578063bfdc45bf146106e4578063c0d7865514610719578063c41600fe14610739578063c6270ef51461075957600080fd5b806392ba9075146105e45780639b2fbaeb14610604578063a217fddf14610624578063a497e67414610639578063b0f7876514610659578063b32fdcea1461066e57600080fd5b80634f1ef286116101fe5780637adbf973116101b75780637adbf9731461050b5780637dc0d1d01461052b578063892cfa9c146105645780638cbd0af01461058457806391d14854146105a457806391e078bb146105c457600080fd5b80634f1ef2861461044f57806352d1902d146104625780635b2ccefd1461047757806364ad7ad7146104a9578063663fbde5146104c957806375b238fc146104e957600080fd5b80632eda53fb116102505780632eda53fb146103a15780632f2ff15d146103b857806336568abe146103d85780633659cfe6146103f85780633b9095d414610418578063403b74ed1461043857600080fd5b80625b71561461029757806301ffc9a7146102cd5780630cbf54c8146102fd578063116faf8c14610322578063144fa6d71461034f578063248a9ca314610371575b600080fd5b3480156102a357600080fd5b506102b76102b23660046139e9565b610938565b6040516102c49190613a4d565b60405180910390f35b3480156102d957600080fd5b506102ed6102e8366004613b11565b610b0a565b60405190151581526020016102c4565b34801561030957600080fd5b506103146101335481565b6040519081526020016102c4565b34801561032e57600080fd5b5061034261033d366004613b3b565b610b41565b6040516102c49190613b5d565b34801561035b57600080fd5b5061036f61036a366004613bbd565b610c1a565b005b34801561037d57600080fd5b5061031461038c366004613bd8565b60009081526065602052604090206001015490565b3480156103ad57600080fd5b506103146101345481565b3480156103c457600080fd5b5061036f6103d3366004613bf1565b610c57565b3480156103e457600080fd5b5061036f6103f3366004613bf1565b610c82565b34801561040457600080fd5b5061036f610413366004613bbd565b610d05565b34801561042457600080fd5b5061036f610433366004613bd8565b610de5565b34801561044457600080fd5b506103146101315481565b61036f61045d366004613c8c565b610e05565b34801561046e57600080fd5b50610314610ed2565b34801561048357600080fd5b50610497610492366004613b3b565b610f85565b60405160ff90911681526020016102c4565b3480156104b557600080fd5b5061036f6104c4366004613bd8565b610fce565b3480156104d557600080fd5b506103146104e43660046139e9565b610fee565b3480156104f557600080fd5b506103146000805160206144b483398151915281565b34801561051757600080fd5b5061036f610526366004613bbd565b6110b5565b34801561053757600080fd5b5061012d5461054c906001600160a01b031681565b6040516001600160a01b0390911681526020016102c4565b34801561057057600080fd5b5061031461057f366004613b3b565b6110f2565b34801561059057600080fd5b5061036f61059f366004613b3b565b6111a5565b3480156105b057600080fd5b506102ed6105bf366004613bf1565b6116cb565b3480156105d057600080fd5b5061036f6105df3660046139e9565b6116f6565b3480156105f057600080fd5b5061036f6105ff366004613b3b565b611bc8565b34801561061057600080fd5b5061031461061f366004613bd8565b611ce6565b34801561063057600080fd5b50610314600081565b34801561064557600080fd5b5061036f610654366004613bd8565b611d01565b34801561066557600080fd5b50610314611d21565b34801561067a57600080fd5b5061036f610689366004613b3b565b612079565b34801561069a57600080fd5b506106ae6106a9366004613b3b565b612491565b6040516102c49a99989796959493929190613d1d565b3480156106d057600080fd5b506103146106df366004613bd8565b612512565b3480156106f057600080fd5b506107046106ff366004613d85565b612534565b604080519283526020830191909152016102c4565b34801561072557600080fd5b5061036f610734366004613bbd565b612796565b34801561074557600080fd5b5061036f610754366004613bd8565b6127d3565b34801561076557600080fd5b50610779610774366004613b3b565b6127f3565b604080516001600160a01b039384168152929091166020830152016102c4565b3480156107a557600080fd5b506107046107b4366004613db7565b61287f565b3480156107c557600080fd5b5061036f6107d4366004613bf1565b612a9e565b3480156107e557600080fd5b506107f96107f4366004613b3b565b612ac4565b604080519586526020860194909452928401919091526060830152608082015260a0016102c4565b34801561082d57600080fd5b5061036f61083c366004613df0565b612b30565b34801561084d57600080fd5b5061031461085c366004613bd8565b6101376020526000908152604090205481565b34801561087b57600080fd5b5061036f61088a366004613bd8565b612cc8565b34801561089b57600080fd5b5061031460008051602061444d83398151915281565b3480156108bd57600080fd5b5061012e5461054c906001600160a01b031681565b3480156108de57600080fd5b5061012f5461054c906001600160a01b031681565b3480156108ff57600080fd5b506103146101305481565b34801561091657600080fd5b506103146101325481565b34801561092d57600080fd5b506103146101355481565b6060600061094585611ce6565b60008181526101366020526040902054909150610963908590613e77565b8311156109885760008181526101366020526040902054610985908590613e77565b92505b8267ffffffffffffffff8111156109a1576109a1613c1d565b6040519080825280602002602001820160405280156109da57816020015b6109c7613974565b8152602001906001900390816109bf5790505b50915060005b83811015610b0057600082815261013660205260409020610a018287613e8e565b81548110610a1157610a11613ea6565b60009182526020918290206040805161014081018252600a90930290910180546001600160a01b039081168452600182015494840194909452600281015491830191909152600380820154606084015260048201546080840152600582015490931660a0830152600681015460c0830152600781015460e0830152600881015461010083015260098101549192909161012084019160ff90911690811115610abb57610abb613a15565b6003811115610acc57610acc613a15565b81525050838281518110610ae257610ae2613ea6565b60200260200101819052508080610af890613ebc565b9150506109e0565b50505b9392505050565b60006001600160e01b03198216637965db0b60e01b1480610b3b57506301ffc9a760e01b6001600160e01b03198316145b92915050565b61013854606090610b53908490613e77565b821115610b6c5761013854610b69908490613e77565b91505b8167ffffffffffffffff811115610b8557610b85613c1d565b604051908082528060200260200182016040528015610bae578160200160208202803683370190505b50905060005b82811015610c1357610138610bc98286613e8e565b81548110610bd957610bd9613ea6565b9060005260206000200154828281518110610bf657610bf6613ea6565b602090810291909101015280610c0b81613ebc565b915050610bb4565b5092915050565b6000805160206144b4833981519152610c338133612cf7565b5061012f80546001600160a01b0319166001600160a01b0392909216919091179055565b600082815260656020526040902060010154610c738133612cf7565b610c7d8383612d5b565b505050565b6001600160a01b0381163314610cf75760405162461bcd60e51b815260206004820152602f60248201527f416363657373436f6e74726f6c3a2063616e206f6e6c792072656e6f756e636560448201526e103937b632b9903337b91039b2b63360891b60648201526084015b60405180910390fd5b610d018282612de1565b5050565b306001600160a01b037f0000000000000000000000000000000000000000000000000000000000000000161415610d4e5760405162461bcd60e51b8152600401610cee90613ed7565b7f00000000000000000000000000000000000000000000000000000000000000006001600160a01b0316610d9760008051602061446d833981519152546001600160a01b031690565b6001600160a01b031614610dbd5760405162461bcd60e51b8152600401610cee90613f23565b610dc681612e48565b60408051600080825260208201909252610de291839190612e61565b50565b6000805160206144b4833981519152610dfe8133612cf7565b5061013455565b306001600160a01b037f0000000000000000000000000000000000000000000000000000000000000000161415610e4e5760405162461bcd60e51b8152600401610cee90613ed7565b7f00000000000000000000000000000000000000000000000000000000000000006001600160a01b0316610e9760008051602061446d833981519152546001600160a01b031690565b6001600160a01b031614610ebd5760405162461bcd60e51b8152600401610cee90613f23565b610ec682612e48565b610d0182826001612e61565b6000306001600160a01b037f00000000000000000000000000000000000000000000000000000000000000001614610f725760405162461bcd60e51b815260206004820152603860248201527f555550535570677261646561626c653a206d757374206e6f742062652063616c60448201527f6c6564207468726f7567682064656c656761746563616c6c00000000000000006064820152608401610cee565b5060008051602061446d83398151915290565b600082815261013660205260408120805483908110610fa657610fa6613ea6565b600091825260209091206009600a90920201015460ff166003811115610b0357610b03613a15565b6000805160206144b4833981519152610fe78133612cf7565b5061013155565b61012e546000906001600160a01b0316331461101c5760405162461bcd60e51b8152600401610cee90613f6f565b60008481526101366020526040902080548391908590811061104057611040613ea6565b90600052602060002090600a020160020160008282546110609190613e77565b909155505060008481526101366020526040812080548590811061108657611086613ea6565b90600052602060002090600a020160020154905080600014156110ad576110ad8585612fdb565b949350505050565b6000805160206144b48339815191526110ce8133612cf7565b5061012d80546001600160a01b0319166001600160a01b0392909216919091179055565b60008281526101366020526040812080548291908490811061111657611116613ea6565b60009182526020909120600a9091020190506002600982015460ff16600381111561114357611143613a15565b1461119c5760405162461bcd60e51b8152602060048201526024808201527f575141756374696f6e3a2054686973206c6f74206973206e6f742061756374696044820152631bdb995960e21b6064820152608401610cee565b6110ad81613361565b600260975414156111c85760405162461bcd60e51b8152600401610cee90613fa6565b60026097556000828152610136602052604081208054839081106111ee576111ee613ea6565b60009182526020909120600a9091020190506002600982015460ff16600381111561121b5761121b613a15565b146112385760405162461bcd60e51b8152600401610cee90613fdd565b8060080154421161125b5760405162461bcd60e51b8152600401610cee90614014565b806006015461013560008282546112729190613e77565b9091555050600060068201819055600782018190556008820181905560098201805460ff1916600117905561012d5461012f54604080516395d89b4160e01b815290516001600160a01b0393841693630292e0fd9316916395d89b419160048083019288929190829003018186803b1580156112ed57600080fd5b505afa158015611301573d6000803e3d6000fd5b505050506040513d6000823e601f3d908101601f191682016040526113299190810190614087565b6040518263ffffffff1660e01b81526004016113459190614121565b60206040518083038186803b15801561135d57600080fd5b505afa158015611371573d6000803e3d6000fd5b505050506040513d601f19601f820116820180604052508101906113959190614134565b905060006113a282611ce6565b905082600101548360030154836113b9919061414d565b6113c3919061416c565b60038401556001830182905584811461166e576000818152610136602052604090205461143f5761013880546001818101835560008390527ff79a63dcec80ed75c82f36161f17b9c2f407860160383a7be0a0ee7962c527ae909101839055905461142e9190613e77565b600082815261013760205260409020555b60008181526101366020526040808220878352912080548690811061146657611466613ea6565b6000918252602080832084546001818101875595855291909320600a92830290930180549190920290920180546001600160a01b03199081166001600160a01b0394851617825584830154828601556002808401549083015560038084015481840155600480850154908401556005808501549084018054909316951694909417905560068083015490820155600780830154908201556008808301549082015560098083015490820180549395929460ff90921693909260ff1990911691849081111561153657611536613a15565b021790555050506115478585612fdb565b61012e5483546002850154600186810154600086815261013660205260409020546001600160a01b039586169563911ea019951693928b918b91899161158d9190613e77565b61012f60009054906101000a90046001600160a01b03166001600160a01b03166395d89b416040518163ffffffff1660e01b815260040160006040518083038186803b1580156115dc57600080fd5b505afa1580156115f0573d6000803e3d6000fd5b505050506040513d6000823e601f3d908101601f191682016040526116189190810190614087565b6040518963ffffffff1660e01b815260040161163b98979695949392919061418e565b600060405180830381600087803b15801561165557600080fd5b505af1158015611669573d6000803e3d6000fd5b505050505b6006830154600784015460408051888152602081018890529081019290925260608201527f69a7e1c88afecbc01148769ca788430aa84369c65a6dacd87d9edbfb7e547ea09060800160405180910390a150506001609755505050565b60009182526065602090815260408084206001600160a01b0393909316845291905290205460ff1690565b600260975414156117195760405162461bcd60e51b8152600401610cee90613fa6565b600260975561012d5461012f54604080516395d89b4160e01b815290516000936001600160a01b0390811693630292e0fd939116916395d89b41916004808201928892909190829003018186803b15801561177357600080fd5b505afa158015611787573d6000803e3d6000fd5b505050506040513d6000823e601f3d908101601f191682016040526117af9190810190614087565b6040518263ffffffff1660e01b81526004016117cb9190614121565b60206040518083038186803b1580156117e357600080fd5b505afa1580156117f7573d6000803e3d6000fd5b505050506040513d601f19601f8201168201806040525081019061181b9190614134565b90508161013560008282546118309190613e8e565b9091555061183e9050611d21565b6101355411156118ca5760405162461bcd60e51b815260206004820152604b60248201527f575141756374696f6e3a20416d6f756e74206f6620746f6b656e73207075726360448201527f68617365642069732067726561746572207468616e2074686520616d6f756e7460648201526a081b1a5c5d5a59185d195960aa1b608482015260a401610cee565b6000848152610136602052604081208054859081106118eb576118eb613ea6565b60009182526020909120600a9091020190506001600982015460ff16600381111561191857611918613a15565b146119655760405162461bcd60e51b815260206004820152601c60248201527f575141756374696f6e3a20537461747573206973206e6f74204e6577000000006044820152606401610cee565b6000816001015482600301548461197c919061414d565b611986919061416c565b905061013054811080156119a25750670de0b6b3a76400008110155b611a045760405162461bcd60e51b815260206004820152602d60248201527f575141756374696f6e3a2054686973206c6f74206973206e6f7420617661696c60448201526c61626c6520666f722073616c6560981b6064820152608401610cee565b8160020154841115611a80576040805162461bcd60e51b81526020600482015260248101919091527f575141756374696f6e3a20416d6f756e74206f6620746f6b656e73207075726360448201527f68617365642069732067726561746572207468616e206c6f7420616d6f756e746064820152608401610cee565b6006820184905561012f546040805163313ce56760e01b815290516000926001600160a01b03169163313ce567916004808301926020929190829003018186803b158015611acd57600080fd5b505afa158015611ae1573d6000803e3d6000fd5b505050506040513d601f19601f82011682018060405250810190611b0591906141d4565b611b109060126141f7565b611b1b90600a6142fe565b9050670de0b6b3a764000081611b31878761414d565b611b3b919061414d565b611b45919061416c565b600784015561013354611b589042613e8e565b600884015560098301805460ff191660021790556007830154604080518981526020810189905290810187905260608101919091527fa832766a05f1bd0298b0268308621777cfe1e4eea23afe7c06beea79bc6ddd2d9060800160405180910390a1505060016097555050505050565b600082815261013660205260408120805483908110611be957611be9613ea6565b60009182526020909120600a9091020190506002600982015460ff166003811115611c1657611c16613a15565b14611c335760405162461bcd60e51b8152600401610cee90613fdd565b80600801544211611c565760405162461bcd60e51b8152600401610cee90614014565b80600601546101356000828254611c6d9190613e77565b9091555050600060068201819055600782018190556008820181905560098201805460ff19166001179055604080518581526020810185905290810182905260608101919091527f69a7e1c88afecbc01148769ca788430aa84369c65a6dacd87d9edbfb7e547ea09060800160405180910390a1505050565b61013454600090611cf7818461416c565b610b3b919061414d565b6000805160206144b4833981519152611d1a8133612cf7565b5061013355565b60008061012f60009054906101000a90046001600160a01b03166001600160a01b03166395d89b416040518163ffffffff1660e01b815260040160006040518083038186803b158015611d7357600080fd5b505afa158015611d87573d6000803e3d6000fd5b505050506040513d6000823e601f3d908101601f19168201604052611daf9190810190614087565b9050600061012f60009054906101000a90046001600160a01b03166001600160a01b031663313ce5676040518163ffffffff1660e01b815260040160206040518083038186803b158015611e0257600080fd5b505afa158015611e16573d6000803e3d6000fd5b505050506040513d601f19601f82011682018060405250810190611e3a91906141d4565b611e459060126141f7565b611e5090600a6142fe565b61012d54604051630292e0fd60e01b81529192506000916001600160a01b0390911690630292e0fd90611e87908690600401614121565b60206040518083038186803b158015611e9f57600080fd5b505afa158015611eb3573d6000803e3d6000fd5b505050506040513d601f19601f82011682018060405250810190611ed79190614134565b61012e54604051632ed4877d60e21b8152919250600091849184916001600160a01b039091169063bb521df490611f12908990600401614121565b60206040518083038186803b158015611f2a57600080fd5b505afa158015611f3e573d6000803e3d6000fd5b505050506040513d601f19601f82011682018060405250810190611f629190614134565b611f6c919061414d565b611f76919061414d565b61012e54604051638c1e06f160e01b81529192506000916001600160a01b0390911690638c1e06f190611fad908890600401614121565b60206040518083038186803b158015611fc557600080fd5b505afa158015611fd9573d6000803e3d6000fd5b505050506040513d601f19601f82011682018060405250810190611ffd9190614134565b9050806101305461200e919061414d565b8210801561202c575061202981670de0b6b3a764000061414d565b82115b1561206d578261203d83600261414d565b61204f836729a2241af62c000061414d565b6120599190613e77565b612063919061416c565b9550505050505090565b60009550505050505090565b6002609754141561209c5760405162461bcd60e51b8152600401610cee90613fa6565b60026097556000828152610136602052604081208054839081106120c2576120c2613ea6565b60009182526020909120600a9091020190506002600982015460ff1660038111156120ef576120ef613a15565b1461210c5760405162461bcd60e51b8152600401610cee90613fdd565b80600801544211156121605760405162461bcd60e51b815260206004820152601f60248201527f575141756374696f6e3a2041756374696f6e2074696d65206973206f766572006044820152606401610cee565b600061216b82613361565b90506000670de0b6b3a76400006301e1338084600401544261218d9190613e77565b61012e60009054906101000a90046001600160a01b03166001600160a01b0316631a9703da6040518163ffffffff1660e01b815260040160206040518083038186803b1580156121dc57600080fd5b505afa1580156121f0573d6000803e3d6000fd5b505050506040513d601f19601f820116820180604052508101906122149190614134565b61221e919061414d565b612228919061416c565b61012e60009054906101000a90046001600160a01b03166001600160a01b031663802d14226040518163ffffffff1660e01b815260040160206040518083038186803b15801561227757600080fd5b505afa15801561228b573d6000803e3d6000fd5b505050506040513d601f19601f820116820180604052508101906122af9190614134565b6122b99190613e8e565b6122c3908461414d565b6122cd919061416c565b9050826006015461013560008282546122e69190613e77565b90915550506005830180546001600160a01b031916331790556006830154600284018054600090612318908490613e77565b909155505060028301541561233b5760098301805460ff1916600117905561234b565b60098301805460ff191660031790555b61012e5461012f54604080516395d89b4160e01b815290516001600160a01b039384169363d7b4be23938a938a938993899316916395d89b41916004808301926000929190829003018186803b1580156123a457600080fd5b505afa1580156123b8573d6000803e3d6000fd5b505050506040513d6000823e601f3d908101601f191682016040526123e09190810190614087565b6040518663ffffffff1660e01b815260040161240095949392919061430d565b600060405180830381600087803b15801561241a57600080fd5b505af115801561242e573d6000803e3d6000fd5b50505050600683015460408051878152602081018790528082019290925260608201849052517fa1dcb4d6e7a55d9f67185811b5f36e3e08ba9aeeac8ca948fae3ce4f60ae28ce9181900360800190a15050600060069091015550506001609755565b61013660205281600052604060002081815481106124ae57600080fd5b60009182526020909120600a909102018054600182015460028301546003840154600485015460058601546006870154600788015460088901546009909901546001600160a01b039889169b50969950949793969295919092169391929060ff168a565b610138818154811061252357600080fd5b600091825260209091200154905081565b61012e5460009081906001600160a01b031633146125645760405162461bcd60e51b8152600401610cee90613f6f565b600061256f85611ce6565b600088815261013660205260409020805491925086918890811061259557612595613ea6565b90600052602060002090600a02016001018190555083610136600089815260200190815260200160002087815481106125d0576125d0613ea6565b90600052602060002090600a02016002018190555080871461278557600081815261013660205260409020546126555761013880546001818101835560008390527ff79a63dcec80ed75c82f36161f17b9c2f407860160383a7be0a0ee7962c527ae90910183905590546126449190613e77565b600082815261013760205260409020555b60008181526101366020526040808220898352912080548890811061267c5761267c613ea6565b6000918252602080832084546001818101875595855291909320600a92830290930180549190920290920180546001600160a01b03199081166001600160a01b0394851617825584830154828601556002808401549083015560038084015481840155600480850154908401556005808501549084018054909316951694909417905560068083015490820155600780830154908201556008808301549082015560098083015490820180549395929460ff90921693909260ff1990911691849081111561274c5761274c613a15565b0217905550505061275d8787612fdb565b60008181526101366020526040902054819061277b90600190613e77565b925092505061278d565b868692509250505b94509492505050565b6000805160206144b48339815191526127af8133612cf7565b5061012e80546001600160a01b0319166001600160a01b0392909216919091179055565b6000805160206144b48339815191526127ec8133612cf7565b5061013055565b60008281526101366020526040812080548291908490811061281757612817613ea6565b60009182526020808320600a90920290910154868352610136909152604090912080546001600160a01b03909216918590811061285657612856613ea6565b600091825260209091206005600a9092020101549092506001600160a01b031690509250929050565b61012e5460009081906001600160a01b031633146128af5760405162461bcd60e51b8152600401610cee90613f6f565b60006128ba86611ce6565b600081815261013660205260409020549091506129265761013880546001818101835560008390527ff79a63dcec80ed75c82f36161f17b9c2f407860160383a7be0a0ee7962c527ae90910183905590546129159190613e77565b600082815261013760205260409020555b6101366000828152602001908152602001600020604051806101400160405280896001600160a01b0316815260200188815260200187815260200186815260200142815260200160006001600160a01b03168152602001600081526020016000815260200160008152602001600160038111156129a5576129a5613a15565b905281546001808201845560009384526020938490208351600a9093020180546001600160a01b03199081166001600160a01b0394851617825594840151818301556040840151600282015560608401516003808301919091556080850151600483015560a085015160058301805490971694169390931790945560c0830151600685015560e0830151600785015561010083015160088501556101208301516009850180549495949193909260ff1990921691908490811115612a6b57612a6b613a15565b02179055505050600081815261013660205260409020548190612a9090600190613e77565b925092505094509492505050565b600082815260656020526040902060010154612aba8133612cf7565b610c7d8383612de1565b60008060008060008061013660008981526020019081526020016000208781548110612af257612af2613ea6565b90600052602060002090600a020190508060020154816001015482600301548360040154846006015495509550955095509550509295509295909350565b600054610100900460ff16612b4b5760005460ff1615612b4f565b303b155b612bb25760405162461bcd60e51b815260206004820152602e60248201527f496e697469616c697a61626c653a20636f6e747261637420697320616c72656160448201526d191e481a5b9a5d1a585b1a5e995960921b6064820152608401610cee565b600054610100900460ff16158015612bd4576000805461ffff19166101011790555b612bdc6133ef565b612be4613418565b612bec6133ef565b612bf7600033613447565b612c0f6000805160206144b483398151915233613447565b612c2760008051602061444d83398151915233613447565b612c4d60008051602061444d8339815191526000805160206144b4833981519152613451565b61012f80546001600160a01b03808c166001600160a01b03199283161790925561012d80548b841690831617905561012e8054928a16929091169190911790556101308690556101318590556101328490556101338390556101348290558015612cbd576000805461ff00191690555b505050505050505050565b6000805160206144b4833981519152612ce18133612cf7565b5061013255565b6001600160a01b03163b151590565b612d0182826116cb565b610d0157612d19816001600160a01b0316601461349c565b612d2483602061349c565b604051602001612d35929190614343565b60408051601f198184030181529082905262461bcd60e51b8252610cee91600401614121565b612d6582826116cb565b610d015760008281526065602090815260408083206001600160a01b03851684529091529020805460ff19166001179055612d9d3390565b6001600160a01b0316816001600160a01b0316837f2f8788117e7eff1d82e926ec794901d17c78024a50270940304540a733656f0d60405160405180910390a45050565b612deb82826116cb565b15610d015760008281526065602090815260408083206001600160a01b0385168085529252808320805460ff1916905551339285917ff6391f5c32d9c69d2a47ea670b442974b53935d1edc7fd64eb21e047a839171b9190a45050565b60008051602061444d833981519152610d018133612cf7565b7f4910fdfa16fed3260ed0e7147f7cc6da11a60208b5b9406d12a635614ffd91435460ff1615612e9457610c7d83613638565b826001600160a01b03166352d1902d6040518163ffffffff1660e01b815260040160206040518083038186803b158015612ecd57600080fd5b505afa925050508015612efd575060408051601f3d908101601f19168201909252612efa91810190614134565b60015b612f605760405162461bcd60e51b815260206004820152602e60248201527f45524331393637557067726164653a206e657720696d706c656d656e7461746960448201526d6f6e206973206e6f74205555505360901b6064820152608401610cee565b60008051602061446d8339815191528114612fcf5760405162461bcd60e51b815260206004820152602960248201527f45524331393637557067726164653a20756e737570706f727465642070726f786044820152681a58589b195555525160ba1b6064820152608401610cee565b50610c7d8383836136d4565b60008281526101366020526040812054612ff790600190613e77565b90508181146131a55761012e5460008481526101366020526040902080546001600160a01b039092169163911ea01991908490811061303857613038613ea6565b60009182526020808320600a90920290910154878352610136909152604090912080546001600160a01b03909216918590811061307757613077613ea6565b90600052602060002090600a020160020154610136600088815260200190815260200160002085815481106130ae576130ae613ea6565b90600052602060002090600a0201600101548786898961012f60009054906101000a90046001600160a01b03166001600160a01b03166395d89b416040518163ffffffff1660e01b815260040160006040518083038186803b15801561311357600080fd5b505afa158015613127573d6000803e3d6000fd5b505050506040513d6000823e601f3d908101601f1916820160405261314f9190810190614087565b6040518963ffffffff1660e01b815260040161317298979695949392919061418e565b600060405180830381600087803b15801561318c57600080fd5b505af11580156131a0573d6000803e3d6000fd5b505050505b6000838152610136602052604090208054829081106131c6576131c6613ea6565b90600052602060002090600a0201610136600085815260200190815260200160002083815481106131f9576131f9613ea6565b600091825260209091208254600a9092020180546001600160a01b03199081166001600160a01b039384161782556001808501548184015560028086015490840155600380860154818501556004808701549085015560058087015490850180549094169516949094179091556006808501549083015560078085015490830155600880850154908301556009808501549083018054939460ff90921693909260ff199091169184908111156132b1576132b1613a15565b021790555050506000838152610136602052604090208054806132d6576132d66143b8565b60008281526020808220600a6000199094019384020180546001600160a01b03199081168255600182018490556002820184905560038201849055600482018490556005820180549091169055600681018390556007810183905560088101839055600901805460ff191690559190925584825261013690526040902054610c7d57610c7d836136ff565b6000670de0b6b3a764000061013354836007015461013254610131546133879190613e77565b4286600801546133979190613e77565b6133a1919061414d565b6133ab919061414d565b6133b5919061416c565b6133bf919061416c565b670de0b6b3a76400006101325484600701546133db919061414d565b6133e5919061416c565b610b3b9190613e8e565b600054610100900460ff166134165760405162461bcd60e51b8152600401610cee906143ce565b565b600054610100900460ff1661343f5760405162461bcd60e51b8152600401610cee906143ce565b6134166137d9565b610d018282612d5b565b600082815260656020526040808220600101805490849055905190918391839186917fbd79b86ffe0ab8e8776151514217cd7cacd52c909f66475c3af44e129f0b00ff9190a4505050565b606060006134ab83600261414d565b6134b6906002613e8e565b67ffffffffffffffff8111156134ce576134ce613c1d565b6040519080825280601f01601f1916602001820160405280156134f8576020820181803683370190505b509050600360fc1b8160008151811061351357613513613ea6565b60200101906001600160f81b031916908160001a905350600f60fb1b8160018151811061354257613542613ea6565b60200101906001600160f81b031916908160001a905350600061356684600261414d565b613571906001613e8e565b90505b60018111156135e9576f181899199a1a9b1b9c1cb0b131b232b360811b85600f16601081106135a5576135a5613ea6565b1a60f81b8282815181106135bb576135bb613ea6565b60200101906001600160f81b031916908160001a90535060049490941c936135e281614419565b9050613574565b508315610b035760405162461bcd60e51b815260206004820181905260248201527f537472696e67733a20686578206c656e67746820696e73756666696369656e746044820152606401610cee565b6001600160a01b0381163b6136a55760405162461bcd60e51b815260206004820152602d60248201527f455243313936373a206e657720696d706c656d656e746174696f6e206973206e60448201526c1bdd08184818dbdb9d1c9858dd609a1b6064820152608401610cee565b60008051602061446d83398151915280546001600160a01b0319166001600160a01b0392909216919091179055565b6136dd83613807565b6000825111806136ea5750805b15610c7d576136f98383613847565b50505050565b61013880546000919061371490600190613e77565b8154811061372457613724613ea6565b906000526020600020015490506000610137600084815260200190815260200160002054905082610138828154811061375f5761375f613ea6565b90600052602060002001541415610c7d5781610138828154811061378557613785613ea6565b6000918252602090912001556101388054806137a3576137a36143b8565b60008281526020808220830160001990810183905590920190925583825261013790526040808220839055848252812055505050565b600054610100900460ff166138005760405162461bcd60e51b8152600401610cee906143ce565b6001609755565b61381081613638565b6040516001600160a01b038216907fbc7cd75a20ee27fd9adebab32041f755214dbc6bffa90cc0225b39da2e5c2d3b90600090a250565b60606001600160a01b0383163b6138af5760405162461bcd60e51b815260206004820152602660248201527f416464726573733a2064656c65676174652063616c6c20746f206e6f6e2d636f6044820152651b9d1c9858dd60d21b6064820152608401610cee565b600080846001600160a01b0316846040516138ca9190614430565b600060405180830381855af49150503d8060008114613905576040519150601f19603f3d011682016040523d82523d6000602084013e61390a565b606091505b5091509150613932828260405180606001604052806027815260200161448d6027913961393b565b95945050505050565b6060831561394a575081610b03565b82511561395a5782518084602001fd5b8160405162461bcd60e51b8152600401610cee9190614121565b60405180610140016040528060006001600160a01b031681526020016000815260200160008152602001600081526020016000815260200160006001600160a01b03168152602001600081526020016000815260200160008152602001600060038111156139e4576139e4613a15565b905290565b6000806000606084860312156139fe57600080fd5b505081359360208301359350604090920135919050565b634e487b7160e01b600052602160045260246000fd5b60048110613a4957634e487b7160e01b600052602160045260246000fd5b9052565b602080825282518282018190526000919060409081850190868401855b82811015613b0457815180516001600160a01b0316855286810151858801528581015186860152606080820151908601526080808201519086015260a0808201516001600160a01b03811682880152505060c0818101519086015260e0808201519086015261010080820151908601526101209081015190613aee81870183613a2b565b5050610140939093019290850190600101613a6a565b5091979650505050505050565b600060208284031215613b2357600080fd5b81356001600160e01b031981168114610b0357600080fd5b60008060408385031215613b4e57600080fd5b50508035926020909101359150565b6020808252825182820181905260009190848201906040850190845b81811015613b9557835183529284019291840191600101613b79565b50909695505050505050565b80356001600160a01b0381168114613bb857600080fd5b919050565b600060208284031215613bcf57600080fd5b610b0382613ba1565b600060208284031215613bea57600080fd5b5035919050565b60008060408385031215613c0457600080fd5b82359150613c1460208401613ba1565b90509250929050565b634e487b7160e01b600052604160045260246000fd5b604051601f8201601f1916810167ffffffffffffffff81118282101715613c5c57613c5c613c1d565b604052919050565b600067ffffffffffffffff821115613c7e57613c7e613c1d565b50601f01601f191660200190565b60008060408385031215613c9f57600080fd5b613ca883613ba1565b9150602083013567ffffffffffffffff811115613cc457600080fd5b8301601f81018513613cd557600080fd5b8035613ce8613ce382613c64565b613c33565b818152866020838501011115613cfd57600080fd5b816020840160208301376000602083830101528093505050509250929050565b6001600160a01b038b81168252602082018b9052604082018a90526060820189905260808201889052861660a082015260c0810185905260e0810184905261010081018390526101408101613d76610120830184613a2b565b9b9a5050505050505050505050565b60008060008060808587031215613d9b57600080fd5b5050823594602084013594506040840135936060013592509050565b60008060008060808587031215613dcd57600080fd5b613dd685613ba1565b966020860135965060408601359560600135945092505050565b600080600080600080600080610100898b031215613e0d57600080fd5b613e1689613ba1565b9750613e2460208a01613ba1565b9650613e3260408a01613ba1565b979a96995096976060810135975060808101359660a0820135965060c0820135955060e0909101359350915050565b634e487b7160e01b600052601160045260246000fd5b600082821015613e8957613e89613e61565b500390565b60008219821115613ea157613ea1613e61565b500190565b634e487b7160e01b600052603260045260246000fd5b6000600019821415613ed057613ed0613e61565b5060010190565b6020808252602c908201527f46756e6374696f6e206d7573742062652063616c6c6564207468726f7567682060408201526b19195b1959d85d1958d85b1b60a21b606082015260800190565b6020808252602c908201527f46756e6374696f6e206d7573742062652063616c6c6564207468726f7567682060408201526b6163746976652070726f787960a01b606082015260800190565b6020808252601f908201527f575141756374696f6e3a2053656e646572206973206e6f7420726f7574657200604082015260600190565b6020808252601f908201527f5265656e7472616e637947756172643a207265656e7472616e742063616c6c00604082015260600190565b6020808252601f908201527f575141756374696f6e3a204c6f74206973206e6f742061756374696f6e656400604082015260600190565b60208082526027908201527f575141756374696f6e3a2041756374696f6e2074696d65206973206e6f74206f6040820152661d995c881e595d60ca1b606082015260800190565b60005b8381101561407657818101518382015260200161405e565b838111156136f95750506000910152565b60006020828403121561409957600080fd5b815167ffffffffffffffff8111156140b057600080fd5b8201601f810184136140c157600080fd5b80516140cf613ce382613c64565b8181528560208385010111156140e457600080fd5b61393282602083016020860161405b565b6000815180845261410d81602086016020860161405b565b601f01601f19169290920160200192915050565b602081526000610b0360208301846140f5565b60006020828403121561414657600080fd5b5051919050565b600081600019048311821515161561416757614167613e61565b500290565b60008261418957634e487b7160e01b600052601260045260246000fd5b500490565b600061010060018060a01b038b1683528960208401528860408401528760608401528660808401528560a08401528460c08401528060e0840152613d76818401856140f5565b6000602082840312156141e657600080fd5b815160ff81168114610b0357600080fd5b600060ff821660ff84168082101561421157614211613e61565b90039392505050565b600181815b8085111561425557816000190482111561423b5761423b613e61565b8085161561424857918102915b93841c939080029061421f565b509250929050565b60008261426c57506001610b3b565b8161427957506000610b3b565b816001811461428f5760028114614299576142b5565b6001915050610b3b565b60ff8411156142aa576142aa613e61565b50506001821b610b3b565b5060208310610133831016604e8410600b84101617156142d8575081810a610b3b565b6142e2838361421a565b80600019048211156142f6576142f6613e61565b029392505050565b6000610b0360ff84168361425d565b85815284602082015283604082015282606082015260a06080820152600061433860a08301846140f5565b979650505050505050565b7f416363657373436f6e74726f6c3a206163636f756e742000000000000000000081526000835161437b81601785016020880161405b565b7001034b99036b4b9b9b4b733903937b6329607d1b60179184019182015283516143ac81602884016020880161405b565b01602801949350505050565b634e487b7160e01b600052603160045260246000fd5b6020808252602b908201527f496e697469616c697a61626c653a20636f6e7472616374206973206e6f74206960408201526a6e697469616c697a696e6760a81b606082015260800190565b60008161442857614428613e61565b506000190190565b6000825161444281846020870161405b565b919091019291505056fe189ab7a9244df0848122154315af71fe140f3db0fe014031783b0946b8c9d2e3360894a13ba1a3210667c828492db98dca3e2076cc3735a920a3ca505d382bbc416464726573733a206c6f772d6c6576656c2064656c65676174652063616c6c206661696c6564a49807205ce4d355092ef5a8a18f56e8913cf4a201fbe287825b095693c21775a2646970667358221220813f402dbdd7a1af9d60af259ce0cd6ee0ea68bd8f112c9ce6e63c31cb87cfff64736f6c63430008090033",
  "linkReferences": {},
  "deployedLinkReferences": {}
}