{
  "_format": "hh-sol-artifact-1",
  "contractName": "WorkQuest",
  "sourceName": "contracts/WorkQuest.sol",
  "abi": [
    {
      "inputs": [
        {
          "internalType": "bytes32",
          "name": "_jobHash",
          "type": "bytes32"
        },
        {
          "internalType": "uint256",
          "name": "_cost",
          "type": "uint256"
        },
        {
          "internalType": "uint256",
          "name": "_deadline",
          "type": "uint256"
        },
        {
          "internalType": "address",
          "name": "_employer",
          "type": "address"
        }
      ],
      "stateMutability": "nonpayable",
      "type": "constructor"
    },
    {
      "anonymous": false,
      "inputs": [
        {
          "indexed": false,
          "internalType": "uint256",
          "name": "timestamp",
          "type": "uint256"
        }
      ],
      "name": "ArbitrationAcceptWork",
      "type": "event"
    },
    {
      "anonymous": false,
      "inputs": [
        {
          "indexed": false,
          "internalType": "uint256",
          "name": "timestamp",
          "type": "uint256"
        }
      ],
      "name": "ArbitrationRejectWork",
      "type": "event"
    },
    {
      "anonymous": false,
      "inputs": [
        {
          "indexed": false,
          "internalType": "uint256",
          "name": "timestamp",
          "type": "uint256"
        }
      ],
      "name": "ArbitrationRework",
      "type": "event"
    },
    {
      "anonymous": false,
      "inputs": [
        {
          "indexed": false,
          "internalType": "uint256",
          "name": "timestamp",
          "type": "uint256"
        }
      ],
      "name": "ArbitrationStarted",
      "type": "event"
    },
    {
      "anonymous": false,
      "inputs": [
        {
          "indexed": false,
          "internalType": "address",
          "name": "worker",
          "type": "address"
        }
      ],
      "name": "Assigned",
      "type": "event"
    },
    {
      "anonymous": false,
      "inputs": [],
      "name": "JobCancelled",
      "type": "event"
    },
    {
      "anonymous": false,
      "inputs": [],
      "name": "JobDone",
      "type": "event"
    },
    {
      "anonymous": false,
      "inputs": [
        {
          "indexed": false,
          "internalType": "uint256",
          "name": "cost",
          "type": "uint256"
        }
      ],
      "name": "JobEdited",
      "type": "event"
    },
    {
      "anonymous": false,
      "inputs": [],
      "name": "JobFinished",
      "type": "event"
    },
    {
      "anonymous": false,
      "inputs": [],
      "name": "JobStarted",
      "type": "event"
    },
    {
      "anonymous": false,
      "inputs": [
        {
          "indexed": false,
          "internalType": "uint256",
          "name": "amount",
          "type": "uint256"
        }
      ],
      "name": "Received",
      "type": "event"
    },
    {
      "anonymous": false,
      "inputs": [
        {
          "indexed": false,
          "internalType": "bytes32",
          "name": "jobHash",
          "type": "bytes32"
        }
      ],
      "name": "WorkQuestCreated",
      "type": "event"
    },
    {
      "inputs": [],
      "name": "ARBITER_ROLE",
      "outputs": [
        {
          "internalType": "bytes32",
          "name": "",
          "type": "bytes32"
        }
      ],
      "stateMutability": "view",
      "type": "function"
    },
    {
      "inputs": [],
      "name": "acceptJob",
      "outputs": [],
      "stateMutability": "nonpayable",
      "type": "function"
    },
    {
      "inputs": [],
      "name": "acceptJobResult",
      "outputs": [],
      "stateMutability": "nonpayable",
      "type": "function"
    },
    {
      "inputs": [],
      "name": "arbitration",
      "outputs": [],
      "stateMutability": "payable",
      "type": "function"
    },
    {
      "inputs": [],
      "name": "arbitrationAcceptWork",
      "outputs": [],
      "stateMutability": "nonpayable",
      "type": "function"
    },
    {
      "inputs": [],
      "name": "arbitrationRejectWork",
      "outputs": [],
      "stateMutability": "nonpayable",
      "type": "function"
    },
    {
      "inputs": [],
      "name": "arbitrationRework",
      "outputs": [],
      "stateMutability": "nonpayable",
      "type": "function"
    },
    {
      "inputs": [
        {
          "internalType": "address",
          "name": "_worker",
          "type": "address"
        }
      ],
      "name": "assignJob",
      "outputs": [],
      "stateMutability": "nonpayable",
      "type": "function"
    },
    {
      "inputs": [],
      "name": "cancelJob",
      "outputs": [],
      "stateMutability": "nonpayable",
      "type": "function"
    },
    {
      "inputs": [],
      "name": "cost",
      "outputs": [
        {
          "internalType": "uint256",
          "name": "",
          "type": "uint256"
        }
      ],
      "stateMutability": "view",
      "type": "function"
    },
    {
      "inputs": [],
      "name": "deadline",
      "outputs": [
        {
          "internalType": "uint256",
          "name": "",
          "type": "uint256"
        }
      ],
      "stateMutability": "view",
      "type": "function"
    },
    {
      "inputs": [
        {
          "internalType": "uint256",
          "name": "_cost",
          "type": "uint256"
        }
      ],
      "name": "editJob",
      "outputs": [],
      "stateMutability": "nonpayable",
      "type": "function"
    },
    {
      "inputs": [],
      "name": "employer",
      "outputs": [
        {
          "internalType": "address",
          "name": "",
          "type": "address"
        }
      ],
      "stateMutability": "view",
      "type": "function"
    },
    {
      "inputs": [],
      "name": "factory",
      "outputs": [
        {
          "internalType": "contract WorkQuestFactoryInterface",
          "name": "",
          "type": "address"
        }
      ],
      "stateMutability": "view",
      "type": "function"
    },
    {
      "inputs": [],
      "name": "getInfo",
      "outputs": [
        {
          "internalType": "bytes32",
          "name": "_jobHash",
          "type": "bytes32"
        },
        {
          "internalType": "uint256",
          "name": "_cost",
          "type": "uint256"
        },
        {
          "internalType": "address",
          "name": "_employer",
          "type": "address"
        },
        {
          "internalType": "address",
          "name": "_worker",
          "type": "address"
        },
        {
          "internalType": "address",
          "name": "_factory",
          "type": "address"
        },
        {
          "internalType": "enum WorkQuest.JobStatus",
          "name": "_status",
          "type": "uint8"
        },
        {
          "internalType": "uint256",
          "name": "_deadline",
          "type": "uint256"
        }
      ],
      "stateMutability": "view",
      "type": "function"
    },
    {
      "inputs": [],
      "name": "jobHash",
      "outputs": [
        {
          "internalType": "bytes32",
          "name": "",
          "type": "bytes32"
        }
      ],
      "stateMutability": "view",
      "type": "function"
    },
    {
      "inputs": [],
      "name": "status",
      "outputs": [
        {
          "internalType": "enum WorkQuest.JobStatus",
          "name": "",
          "type": "uint8"
        }
      ],
      "stateMutability": "view",
      "type": "function"
    },
    {
      "inputs": [],
      "name": "timeDone",
      "outputs": [
        {
          "internalType": "uint256",
          "name": "",
          "type": "uint256"
        }
      ],
      "stateMutability": "view",
      "type": "function"
    },
    {
      "inputs": [],
      "name": "verificationJob",
      "outputs": [],
      "stateMutability": "nonpayable",
      "type": "function"
    },
    {
      "inputs": [],
      "name": "worker",
      "outputs": [
        {
          "internalType": "address",
          "name": "",
          "type": "address"
        }
      ],
      "stateMutability": "view",
      "type": "function"
    }
  ],
  "bytecode": "0x60c06040523480156200001157600080fd5b50604051620029bb380380620029bb8339810160408190526200003491620000a4565b6000849055600183905560038290556001600160a01b03811660a052336080526002805460ff60a01b1916600160a01b1790556040518481527f1f3edb4d58a0796934b2fca1e84cec8a42269dc76c56c22b4489a77205ed6bcf9060200160405180910390a150505050620000f5565b60008060008060808587031215620000bb57600080fd5b845160208601516040870151606088015192965090945092506001600160a01b0381168114620000ea57600080fd5b939692955090935050565b60805160a05161279662000225600039600081816102250152818161031e01528181610411015281816107290152818161083e0152818161099c015281816109f70152818161100d015281816111bc01528181611235015281816114f80152612003015260008181610252015281816103670152818161048b01528181610552015281816105f80152818161068a0152818161075801528181610af101528181610ced01528181610e5601528181610f600152818161103f015281816110d1015281816112590152818161130401528181611793015281816118450152818161199601528181611a3601528181611b4e01528181611be101528181611c8501528181611d1701528181611d7001528181611e6701528181611f5d01528181612075015261210701526127966000f3fe60806040526004361061011f5760003560e01c80639b789b7e116100a0578063c45a015511610064578063c45a015514610355578063c72331fe14610389578063d295ef5c1461039e578063f409abcb146103b3578063f6faa747146103c857600080fd5b80639b789b7e146102cd578063a758757d146102e2578063a77945b4146102f7578063ae200e791461030c578063b07c74751461034057600080fd5b80634d547ada116100e75780634d547ada146101c95780635a9b0b8914610201578063702d974914610283578063897399ae146102a55780639b732350146102c557600080fd5b8063021a0b7d1461012457806313faede61461014d578063200d2ed21461016357806329dcb0cf146101915780634d104adf146101a7575b600080fd5b34801561013057600080fd5b5061013a60045481565b6040519081526020015b60405180910390f35b34801561015957600080fd5b5061013a60015481565b34801561016f57600080fd5b5060025461018490600160a01b900460ff1681565b604051610144919061250f565b34801561019d57600080fd5b5061013a60035481565b3480156101b357600080fd5b5061013a60008051602061271783398151915281565b3480156101d557600080fd5b506002546101e9906001600160a01b031681565b6040516001600160a01b039091168152602001610144565b34801561020d57600080fd5b506000546001546002546003546040516101449493927f0000000000000000000000000000000000000000000000000000000000000000926001600160a01b038216927f000000000000000000000000000000000000000000000000000000000000000092600160a01b900460ff169190612523565b34801561028f57600080fd5b506102a361029e36600461256f565b6103de565b005b3480156102b157600080fd5b506102a36102c03660046125a0565b610833565b6102a3610991565b3480156102d957600080fd5b506102a3610c18565b3480156102ee57600080fd5b506102a3610cc4565b34801561030357600080fd5b506102a3610e2d565b34801561031857600080fd5b506101e97f000000000000000000000000000000000000000000000000000000000000000081565b34801561034c57600080fd5b506102a3611162565b34801561036157600080fd5b506101e97f000000000000000000000000000000000000000000000000000000000000000081565b34801561039557600080fd5b506102a36112db565b3480156103aa57600080fd5b506102a361143c565b3480156103bf57600080fd5b506102a36114ed565b3480156103d457600080fd5b5061013a60005481565b6001600254600160a01b900460ff1660068111156103fe576103fe6124d7565b1480156104335750336001600160a01b037f000000000000000000000000000000000000000000000000000000000000000016145b6040518060600160405280602a8152602001612737602a9139906104735760405162461bcd60e51b815260040161046a91906125e9565b60405180910390fd5b5060015481111561071a576000670de0b6b3a76400007f00000000000000000000000000000000000000000000000000000000000000006001600160a01b031663bce515aa6040518163ffffffff1660e01b815260040160206040518083038186803b1580156104e257600080fd5b505afa1580156104f6573d6000803e3d6000fd5b505050506040513d601f19601f8201168201806040525081019061051a919061261c565b600154610527908561264b565b6105319190612662565b61053b9190612681565b90506105f2333060015485610550919061264b565b7f00000000000000000000000000000000000000000000000000000000000000006001600160a01b03166315c40eb06040518163ffffffff1660e01b815260040160206040518083038186803b1580156105a957600080fd5b505afa1580156105bd573d6000803e3d6000fd5b505050506040513d601f19601f820116820180604052508101906105e191906126a3565b6001600160a01b03169291906115c0565b6106e1337f00000000000000000000000000000000000000000000000000000000000000006001600160a01b031663b3f006746040518163ffffffff1660e01b815260040160206040518083038186803b15801561064f57600080fd5b505afa158015610663573d6000803e3d6000fd5b505050506040513d601f19601f8201168201806040525081019061068791906126a3565b837f00000000000000000000000000000000000000000000000000000000000000006001600160a01b03166315c40eb06040518163ffffffff1660e01b815260040160206040518083038186803b1580156105a957600080fd5b6040518281527fa8142743f8f70a4c26f3691cf4ed59718381fb2f18070ec52be1f1022d8555579060200160405180910390a1506107f7565b6001548110156107f7576107f77f000000000000000000000000000000000000000000000000000000000000000082600154610756919061264b565b7f00000000000000000000000000000000000000000000000000000000000000006001600160a01b03166315c40eb06040518163ffffffff1660e01b815260040160206040518083038186803b1580156107af57600080fd5b505afa1580156107c3573d6000803e3d6000fd5b505050506040513d601f19601f820116820180604052508101906107e791906126a3565b6001600160a01b03169190611631565b60018190556040518181527fd1b5972bc4cfe8651dd4945f53542580e375118b79554778bda228502f49fd85906020015b60405180910390a150565b336001600160a01b037f0000000000000000000000000000000000000000000000000000000000000000161480156108ae57506001600254600160a01b900460ff166006811115610886576108866124d7565b14806108ae575060028054600160a01b900460ff1660068111156108ac576108ac6124d7565b145b6040518060600160405280602a8152602001612737602a9139906108e55760405162461bcd60e51b815260040161046a91906125e9565b506001600160a01b03811661093c5760405162461bcd60e51b815260206004820152601a60248201527f576f726b51756573743a20496e76616c69642061646472657373000000000000604482015260640161046a565b600280546001600160a01b0383166001600160a81b03199091168117600160a11b179091556040519081527f3c8974307e4abad0239998f9dc76add6b783cd52bf1337e9871763ce00f0e94b90602001610828565b336001600160a01b037f0000000000000000000000000000000000000000000000000000000000000000161480156109e657506004600254600160a01b900460ff1660068111156109e4576109e46124d7565b145b80610a605750336001600160a01b037f000000000000000000000000000000000000000000000000000000000000000016148015610a4157506003600254600160a01b900460ff166006811115610a3f57610a3f6124d7565b145b8015610a4f57506000600354115b610a5a576000610a60565b60035442115b80610ab757506002546001600160a01b031633148015610a9d57506004600254600160a01b900460ff166006811115610a9b57610a9b6124d7565b145b8015610ab75750600454610ab4906203f4806126c0565b42115b6040518060600160405280602a8152602001612737602a913990610aee5760405162461bcd60e51b815260040161046a91906125e9565b507f00000000000000000000000000000000000000000000000000000000000000006001600160a01b031663643250656040518163ffffffff1660e01b815260040160206040518083038186803b158015610b4857600080fd5b505afa158015610b5c573d6000803e3d6000fd5b505050506040513d601f19601f82011682018060405250810190610b80919061261c565b341015610bcf5760405162461bcd60e51b815260206004820152601b60248201527f576f726b51756573743a20696e73756666696369656e74206665650000000000604482015260640161046a565b6002805460ff60a01b1916600560a01b1790556040514281527fe3d179e82725f4017e2cd7c543e789daec416599188407652080df0569557520906020015b60405180910390a1565b6002546001600160a01b031633148015610c4e575060028054600160a01b900460ff166006811115610c4c57610c4c6124d7565b145b6040518060600160405280602a8152602001612737602a913990610c855760405162461bcd60e51b815260040161046a91906125e9565b506002805460ff60a01b1916600360a01b1790556040517f09c75d41aa3ec09c07382b19acbb564b6194701c275a1e84c265b13c096bddc690600090a1565b604051632474521560e21b815260008051602061271783398151915260048201523360248201527f00000000000000000000000000000000000000000000000000000000000000006001600160a01b0316906391d148549060440160206040518083038186803b158015610d3757600080fd5b505afa158015610d4b573d6000803e3d6000fd5b505050506040513d601f19601f82011682018060405250810190610d6f91906126d8565b8015610d9857506005600254600160a01b900460ff166006811115610d9657610d966124d7565b145b6040518060600160405280602a8152602001612737602a913990610dcf5760405162461bcd60e51b815260040161046a91906125e9565b50610ddd426203f4806126c0565b6003556002805460ff60a01b1916600360a01b179055610dfd3347611666565b6040514281527fd9219842a38f53237686873a8ec136ede21c62a7a31b050c0df4281cd45ee84190602001610c0e565b604051632474521560e21b815260008051602061271783398151915260048201523360248201527f00000000000000000000000000000000000000000000000000000000000000006001600160a01b0316906391d148549060440160206040518083038186803b158015610ea057600080fd5b505afa158015610eb4573d6000803e3d6000fd5b505050506040513d601f19601f82011682018060405250810190610ed891906126d8565b8015610f0157506005600254600160a01b900460ff166006811115610eff57610eff6124d7565b145b6040518060600160405280602a8152602001612737602a913990610f385760405162461bcd60e51b815260040161046a91906125e9565b50600280546006919060ff60a01b1916600160a01b8302179055506000670de0b6b3a76400007f00000000000000000000000000000000000000000000000000000000000000006001600160a01b031663bce515aa6040518163ffffffff1660e01b815260040160206040518083038186803b158015610fb757600080fd5b505afa158015610fcb573d6000803e3d6000fd5b505050506040513d601f19601f82011682018060405250810190610fef919061261c565b600154610ffc9190612662565b6110069190612681565b905061103a7f000000000000000000000000000000000000000000000000000000000000000082600154610756919061264b565b6111287f00000000000000000000000000000000000000000000000000000000000000006001600160a01b031663b3f006746040518163ffffffff1660e01b815260040160206040518083038186803b15801561109657600080fd5b505afa1580156110aa573d6000803e3d6000fd5b505050506040513d601f19601f820116820180604052508101906110ce91906126a3565b827f00000000000000000000000000000000000000000000000000000000000000006001600160a01b03166315c40eb06040518163ffffffff1660e01b815260040160206040518083038186803b1580156107af57600080fd5b6111323347611666565b6040514281527f3ccf377ae75c37622a19550c362c6fbdf396057a8464eef75c4ea94d1e4a839290602001610828565b6001600254600160a01b900460ff166006811115611182576111826124d7565b14806111aa575060028054600160a01b900460ff1660068111156111a8576111a86124d7565b145b80156111de5750336001600160a01b037f000000000000000000000000000000000000000000000000000000000000000016145b6040518060600160405280602a8152602001612737602a9139906112155760405162461bcd60e51b815260040161046a91906125e9565b50600280546006919060ff60a01b1916600160a01b8302179055506112b07f00000000000000000000000000000000000000000000000000000000000000006001547f00000000000000000000000000000000000000000000000000000000000000006001600160a01b03166315c40eb06040518163ffffffff1660e01b815260040160206040518083038186803b1580156107af57600080fd5b6040517f1a7b868a3587950cf797c54b284b8c24e1ed007035e305719a6cbdd34b0ea1a890600090a1565b604051632474521560e21b815260008051602061271783398151915260048201523360248201527f00000000000000000000000000000000000000000000000000000000000000006001600160a01b0316906391d148549060440160206040518083038186803b15801561134e57600080fd5b505afa158015611362573d6000803e3d6000fd5b505050506040513d601f19601f8201168201806040525081019061138691906126d8565b80156113af57506005600254600160a01b900460ff1660068111156113ad576113ad6124d7565b145b6040518060600160405280602a8152602001612737602a9139906113e65760405162461bcd60e51b815260040161046a91906125e9565b506002805460ff60a01b1916600360a11b17905561140261177f565b61140c3347611666565b6040514281527f844465112ba48ffdb453bcb0a6965dc77f141971a8f6b48a4e07b3cf71c8de9290602001610c0e565b6002546001600160a01b03163314801561147357506003600254600160a01b900460ff166006811115611471576114716124d7565b145b6040518060600160405280602a8152602001612737602a9139906114aa5760405162461bcd60e51b815260040161046a91906125e9565b506002805460ff60a01b1916600160a21b179055426004556040517f3c350d18e479f5682191b9cdb4cdfa755c912f69d2d5ab94d910df38dec36a7290600090a1565b336001600160a01b037f00000000000000000000000000000000000000000000000000000000000000001614801561154257506004600254600160a01b900460ff166006811115611540576115406124d7565b145b6040518060600160405280602a8152602001612737602a9139906115795760405162461bcd60e51b815260040161046a91906125e9565b506002805460ff60a01b1916600360a11b17905561159561177f565b6040517ffe17fb508799412c4bf2b124b8292bcc9ca4ff8ab8ec830110fbcb1ae5cb312590600090a1565b6040516001600160a01b038085166024830152831660448201526064810182905261162b9085906323b872dd60e01b906084015b60408051601f198184030181529190526020810180516001600160e01b03166001600160e01b03199093169290921790915261215e565b50505050565b6040516001600160a01b03831660248201526044810182905261166190849063a9059cbb60e01b906064016115f4565b505050565b804710156116b65760405162461bcd60e51b815260206004820152601d60248201527f416464726573733a20696e73756666696369656e742062616c616e6365000000604482015260640161046a565b6000826001600160a01b03168260405160006040518083038185875af1925050503d8060008114611703576040519150601f19603f3d011682016040523d82523d6000602084013e611708565b606091505b50509050806116615760405162461bcd60e51b815260206004820152603a60248201527f416464726573733a20756e61626c6520746f2073656e642076616c75652c207260448201527f6563697069656e74206d61792068617665207265766572746564000000000000606482015260840161046a565b600060015490506000670de0b6b3a76400007f00000000000000000000000000000000000000000000000000000000000000006001600160a01b031663bce515aa6040518163ffffffff1660e01b815260040160206040518083038186803b1580156117ea57600080fd5b505afa1580156117fe573d6000803e3d6000fd5b505050506040513d601f19601f82011682018060405250810190611822919061261c565b61182c9084612662565b6118369190612681565b90506000670de0b6b3a76400007f00000000000000000000000000000000000000000000000000000000000000006001600160a01b0316632cba90c76040518163ffffffff1660e01b815260040160206040518083038186803b15801561189c57600080fd5b505afa1580156118b0573d6000803e3d6000fd5b505050506040513d601f19601f820116820180604052508101906118d491906126a3565b600254604051631711922960e31b81526001600160a01b03918216600482015291169063b88c91489060240160206040518083038186803b15801561191857600080fd5b505afa15801561192c573d6000803e3d6000fd5b505050506040513d601f19601f82011682018060405250810190611950919061261c565b61195a9085612662565b6119649190612681565b60025490915061198c906001600160a01b031682611982858761264b565b610756919061264b565b8015611e655760007f00000000000000000000000000000000000000000000000000000000000000006001600160a01b03166315c40eb06040518163ffffffff1660e01b815260040160206040518083038186803b1580156119ed57600080fd5b505afa158015611a01573d6000803e3d6000fd5b505050506040513d601f19601f82011682018060405250810190611a2591906126a3565b6001600160a01b031663dd62ed3e307f00000000000000000000000000000000000000000000000000000000000000006001600160a01b0316632cba90c76040518163ffffffff1660e01b815260040160206040518083038186803b158015611a8d57600080fd5b505afa158015611aa1573d6000803e3d6000fd5b505050506040513d601f19601f82011682018060405250810190611ac591906126a3565b6040516001600160e01b031960e085901b1681526001600160a01b0392831660048201529116602482015260440160206040518083038186803b158015611b0b57600080fd5b505afa158015611b1f573d6000803e3d6000fd5b505050506040513d601f19601f82011682018060405250810190611b43919061261c565b1115611c8057611c807f00000000000000000000000000000000000000000000000000000000000000006001600160a01b0316632cba90c76040518163ffffffff1660e01b815260040160206040518083038186803b158015611ba557600080fd5b505afa158015611bb9573d6000803e3d6000fd5b505050506040513d601f19601f82011682018060405250810190611bdd91906126a3565b60007f00000000000000000000000000000000000000000000000000000000000000006001600160a01b03166315c40eb06040518163ffffffff1660e01b815260040160206040518083038186803b158015611c3857600080fd5b505afa158015611c4c573d6000803e3d6000fd5b505050506040513d601f19601f82011682018060405250810190611c7091906126a3565b6001600160a01b03169190612230565b611d6e7f00000000000000000000000000000000000000000000000000000000000000006001600160a01b0316632cba90c76040518163ffffffff1660e01b815260040160206040518083038186803b158015611cdc57600080fd5b505afa158015611cf0573d6000803e3d6000fd5b505050506040513d601f19601f82011682018060405250810190611d1491906126a3565b827f00000000000000000000000000000000000000000000000000000000000000006001600160a01b03166315c40eb06040518163ffffffff1660e01b815260040160206040518083038186803b158015611c3857600080fd5b7f00000000000000000000000000000000000000000000000000000000000000006001600160a01b0316632cba90c76040518163ffffffff1660e01b815260040160206040518083038186803b158015611dc757600080fd5b505afa158015611ddb573d6000803e3d6000fd5b505050506040513d601f19601f82011682018060405250810190611dff91906126a3565b600254604051638418cd9960e01b81526001600160a01b03918216600482015260248101849052911690638418cd9990604401600060405180830381600087803b158015611e4c57600080fd5b505af1158015611e60573d6000803e3d6000fd5b505050505b7f00000000000000000000000000000000000000000000000000000000000000006001600160a01b0316631441a5a96040518163ffffffff1660e01b815260040160206040518083038186803b158015611ebe57600080fd5b505afa158015611ed2573d6000803e3d6000fd5b505050506040513d601f19601f82011682018060405250810190611ef691906126a3565b60025460405163c5e7ea2360e01b81526001600160a01b0391821660048201526024810186905291169063c5e7ea2390604401600060405180830381600087803b158015611f4357600080fd5b505af1158015611f57573d6000803e3d6000fd5b505050507f00000000000000000000000000000000000000000000000000000000000000006001600160a01b0316631441a5a96040518163ffffffff1660e01b815260040160206040518083038186803b158015611fb457600080fd5b505afa158015611fc8573d6000803e3d6000fd5b505050506040513d601f19601f82011682018060405250810190611fec91906126a3565b60405163c5e7ea2360e01b81526001600160a01b037f00000000000000000000000000000000000000000000000000000000000000008116600483015260248201869052919091169063c5e7ea2390604401600060405180830381600087803b15801561205857600080fd5b505af115801561206c573d6000803e3d6000fd5b505050506116617f00000000000000000000000000000000000000000000000000000000000000006001600160a01b031663b3f006746040518163ffffffff1660e01b815260040160206040518083038186803b1580156120cc57600080fd5b505afa1580156120e0573d6000803e3d6000fd5b505050506040513d601f19601f8201168201806040525081019061210491906126a3565b837f00000000000000000000000000000000000000000000000000000000000000006001600160a01b03166315c40eb06040518163ffffffff1660e01b815260040160206040518083038186803b1580156107af57600080fd5b60006121b3826040518060400160405280602081526020017f5361666545524332303a206c6f772d6c6576656c2063616c6c206661696c6564815250856001600160a01b03166123549092919063ffffffff16565b80519091501561166157808060200190518101906121d191906126d8565b6116615760405162461bcd60e51b815260206004820152602a60248201527f5361666545524332303a204552433230206f7065726174696f6e20646964206e6044820152691bdd081cdd58d8d9595960b21b606482015260840161046a565b8015806122b95750604051636eb1769f60e11b81523060048201526001600160a01b03838116602483015284169063dd62ed3e9060440160206040518083038186803b15801561227f57600080fd5b505afa158015612293573d6000803e3d6000fd5b505050506040513d601f19601f820116820180604052508101906122b7919061261c565b155b6123245760405162461bcd60e51b815260206004820152603660248201527f5361666545524332303a20617070726f76652066726f6d206e6f6e2d7a65726f60448201527520746f206e6f6e2d7a65726f20616c6c6f77616e636560501b606482015260840161046a565b6040516001600160a01b03831660248201526044810182905261166190849063095ea7b360e01b906064016115f4565b6060612363848460008561236d565b90505b9392505050565b6060824710156123ce5760405162461bcd60e51b815260206004820152602660248201527f416464726573733a20696e73756666696369656e742062616c616e636520666f6044820152651c8818d85b1b60d21b606482015260840161046a565b6001600160a01b0385163b6124255760405162461bcd60e51b815260206004820152601d60248201527f416464726573733a2063616c6c20746f206e6f6e2d636f6e7472616374000000604482015260640161046a565b600080866001600160a01b0316858760405161244191906126fa565b60006040518083038185875af1925050503d806000811461247e576040519150601f19603f3d011682016040523d82523d6000602084013e612483565b606091505b509150915061249382828661249e565b979650505050505050565b606083156124ad575081612366565b8251156124bd5782518084602001fd5b8160405162461bcd60e51b815260040161046a91906125e9565b634e487b7160e01b600052602160045260246000fd5b6007811061250b57634e487b7160e01b600052602160045260246000fd5b9052565b6020810161251d82846124ed565b92915050565b878152602081018790526001600160a01b03868116604083015285811660608301528416608082015260e0810161255d60a08301856124ed565b8260c083015298975050505050505050565b60006020828403121561258157600080fd5b5035919050565b6001600160a01b038116811461259d57600080fd5b50565b6000602082840312156125b257600080fd5b813561236681612588565b60005b838110156125d85781810151838201526020016125c0565b8381111561162b5750506000910152565b60208152600082518060208401526126088160408501602087016125bd565b601f01601f19169190910160400192915050565b60006020828403121561262e57600080fd5b5051919050565b634e487b7160e01b600052601160045260246000fd5b60008282101561265d5761265d612635565b500390565b600081600019048311821515161561267c5761267c612635565b500290565b60008261269e57634e487b7160e01b600052601260045260246000fd5b500490565b6000602082840312156126b557600080fd5b815161236681612588565b600082198211156126d3576126d3612635565b500190565b6000602082840312156126ea57600080fd5b8151801515811461236657600080fd5b6000825161270c8184602087016125bd565b919091019291505056febb08418a67729a078f87bbc8d02a770929bb68f5bfdf134ae2ead6ed38e2f4ae576f726b51756573743a204163636573732064656e696564206f7220696e76616c696420737461747573a2646970667358221220a5c8ebc70f9f360cdc6edcfff63b23c8b869026973a45d9d74456bf68b21e30064736f6c63430008090033",
  "linkReferences": {},
  "deployedLinkReferences": {}
}