{
  "_format": "hh-sol-artifact-1",
  "contractName": "WQBridgeToken",
  "sourceName": "contracts/WQBridgeToken.sol",
  "abi": [
    {
      "inputs": [],
      "stateMutability": "nonpayable",
      "type": "constructor"
    },
    {
      "anonymous": false,
      "inputs": [
        {
          "indexed": false,
          "internalType": "address",
          "name": "user",
          "type": "address"
        }
      ],
      "name": "AddedBlockList",
      "type": "event"
    },
    {
      "anonymous": false,
      "inputs": [
        {
          "indexed": false,
          "internalType": "address",
          "name": "user",
          "type": "address"
        }
      ],
      "name": "AddedWhiteList",
      "type": "event"
    },
    {
      "anonymous": false,
      "inputs": [
        {
          "indexed": false,
          "internalType": "address",
          "name": "previousAdmin",
          "type": "address"
        },
        {
          "indexed": false,
          "internalType": "address",
          "name": "newAdmin",
          "type": "address"
        }
      ],
      "name": "AdminChanged",
      "type": "event"
    },
    {
      "anonymous": false,
      "inputs": [
        {
          "indexed": true,
          "internalType": "address",
          "name": "owner",
          "type": "address"
        },
        {
          "indexed": true,
          "internalType": "address",
          "name": "spender",
          "type": "address"
        },
        {
          "indexed": false,
          "internalType": "uint256",
          "name": "value",
          "type": "uint256"
        }
      ],
      "name": "Approval",
      "type": "event"
    },
    {
      "anonymous": false,
      "inputs": [
        {
          "indexed": true,
          "internalType": "address",
          "name": "beacon",
          "type": "address"
        }
      ],
      "name": "BeaconUpgraded",
      "type": "event"
    },
    {
      "anonymous": false,
      "inputs": [
        {
          "indexed": false,
          "internalType": "address",
          "name": "account",
          "type": "address"
        }
      ],
      "name": "Paused",
      "type": "event"
    },
    {
      "anonymous": false,
      "inputs": [
        {
          "indexed": false,
          "internalType": "address",
          "name": "user",
          "type": "address"
        }
      ],
      "name": "RemovedBlockList",
      "type": "event"
    },
    {
      "anonymous": false,
      "inputs": [
        {
          "indexed": false,
          "internalType": "address",
          "name": "user",
          "type": "address"
        }
      ],
      "name": "RemovedWhiteList",
      "type": "event"
    },
    {
      "anonymous": false,
      "inputs": [
        {
          "indexed": true,
          "internalType": "bytes32",
          "name": "role",
          "type": "bytes32"
        },
        {
          "indexed": true,
          "internalType": "bytes32",
          "name": "previousAdminRole",
          "type": "bytes32"
        },
        {
          "indexed": true,
          "internalType": "bytes32",
          "name": "newAdminRole",
          "type": "bytes32"
        }
      ],
      "name": "RoleAdminChanged",
      "type": "event"
    },
    {
      "anonymous": false,
      "inputs": [
        {
          "indexed": true,
          "internalType": "bytes32",
          "name": "role",
          "type": "bytes32"
        },
        {
          "indexed": true,
          "internalType": "address",
          "name": "account",
          "type": "address"
        },
        {
          "indexed": true,
          "internalType": "address",
          "name": "sender",
          "type": "address"
        }
      ],
      "name": "RoleGranted",
      "type": "event"
    },
    {
      "anonymous": false,
      "inputs": [
        {
          "indexed": true,
          "internalType": "bytes32",
          "name": "role",
          "type": "bytes32"
        },
        {
          "indexed": true,
          "internalType": "address",
          "name": "account",
          "type": "address"
        },
        {
          "indexed": true,
          "internalType": "address",
          "name": "sender",
          "type": "address"
        }
      ],
      "name": "RoleRevoked",
      "type": "event"
    },
    {
      "anonymous": false,
      "inputs": [
        {
          "indexed": true,
          "internalType": "address",
          "name": "from",
          "type": "address"
        },
        {
          "indexed": true,
          "internalType": "address",
          "name": "to",
          "type": "address"
        },
        {
          "indexed": false,
          "internalType": "uint256",
          "name": "value",
          "type": "uint256"
        }
      ],
      "name": "Transfer",
      "type": "event"
    },
    {
      "anonymous": false,
      "inputs": [
        {
          "indexed": false,
          "internalType": "address",
          "name": "account",
          "type": "address"
        }
      ],
      "name": "Unpaused",
      "type": "event"
    },
    {
      "anonymous": false,
      "inputs": [
        {
          "indexed": true,
          "internalType": "address",
          "name": "implementation",
          "type": "address"
        }
      ],
      "name": "Upgraded",
      "type": "event"
    },
    {
      "inputs": [],
      "name": "ADMIN_ROLE",
      "outputs": [
        {
          "internalType": "bytes32",
          "name": "",
          "type": "bytes32"
        }
      ],
      "stateMutability": "view",
      "type": "function"
    },
    {
      "inputs": [],
      "name": "BURNER_ROLE",
      "outputs": [
        {
          "internalType": "bytes32",
          "name": "",
          "type": "bytes32"
        }
      ],
      "stateMutability": "view",
      "type": "function"
    },
    {
      "inputs": [],
      "name": "DEFAULT_ADMIN_ROLE",
      "outputs": [
        {
          "internalType": "bytes32",
          "name": "",
          "type": "bytes32"
        }
      ],
      "stateMutability": "view",
      "type": "function"
    },
    {
      "inputs": [],
      "name": "MINTER_ROLE",
      "outputs": [
        {
          "internalType": "bytes32",
          "name": "",
          "type": "bytes32"
        }
      ],
      "stateMutability": "view",
      "type": "function"
    },
    {
      "inputs": [],
      "name": "PAUSER_ROLE",
      "outputs": [
        {
          "internalType": "bytes32",
          "name": "",
          "type": "bytes32"
        }
      ],
      "stateMutability": "view",
      "type": "function"
    },
    {
      "inputs": [],
      "name": "UPGRADER_ROLE",
      "outputs": [
        {
          "internalType": "bytes32",
          "name": "",
          "type": "bytes32"
        }
      ],
      "stateMutability": "view",
      "type": "function"
    },
    {
      "inputs": [
        {
          "internalType": "address",
          "name": "user",
          "type": "address"
        }
      ],
      "name": "addBlockList",
      "outputs": [],
      "stateMutability": "nonpayable",
      "type": "function"
    },
    {
      "inputs": [
        {
          "internalType": "address",
          "name": "user",
          "type": "address"
        }
      ],
      "name": "addWhiteList",
      "outputs": [],
      "stateMutability": "nonpayable",
      "type": "function"
    },
    {
      "inputs": [
        {
          "internalType": "address",
          "name": "owner",
          "type": "address"
        },
        {
          "internalType": "address",
          "name": "spender",
          "type": "address"
        }
      ],
      "name": "allowance",
      "outputs": [
        {
          "internalType": "uint256",
          "name": "",
          "type": "uint256"
        }
      ],
      "stateMutability": "view",
      "type": "function"
    },
    {
      "inputs": [
        {
          "internalType": "address",
          "name": "spender",
          "type": "address"
        },
        {
          "internalType": "uint256",
          "name": "amount",
          "type": "uint256"
        }
      ],
      "name": "approve",
      "outputs": [
        {
          "internalType": "bool",
          "name": "",
          "type": "bool"
        }
      ],
      "stateMutability": "nonpayable",
      "type": "function"
    },
    {
      "inputs": [
        {
          "internalType": "address",
          "name": "account",
          "type": "address"
        }
      ],
      "name": "balanceOf",
      "outputs": [
        {
          "internalType": "uint256",
          "name": "",
          "type": "uint256"
        }
      ],
      "stateMutability": "view",
      "type": "function"
    },
    {
      "inputs": [
        {
          "internalType": "address",
          "name": "from",
          "type": "address"
        },
        {
          "internalType": "uint256",
          "name": "amount",
          "type": "uint256"
        }
      ],
      "name": "burn",
      "outputs": [],
      "stateMutability": "nonpayable",
      "type": "function"
    },
    {
      "inputs": [],
      "name": "decimals",
      "outputs": [
        {
          "internalType": "uint8",
          "name": "",
          "type": "uint8"
        }
      ],
      "stateMutability": "view",
      "type": "function"
    },
    {
      "inputs": [
        {
          "internalType": "address",
          "name": "spender",
          "type": "address"
        },
        {
          "internalType": "uint256",
          "name": "subtractedValue",
          "type": "uint256"
        }
      ],
      "name": "decreaseAllowance",
      "outputs": [
        {
          "internalType": "bool",
          "name": "",
          "type": "bool"
        }
      ],
      "stateMutability": "nonpayable",
      "type": "function"
    },
    {
      "inputs": [],
      "name": "getOwner",
      "outputs": [
        {
          "internalType": "address",
          "name": "",
          "type": "address"
        }
      ],
      "stateMutability": "view",
      "type": "function"
    },
    {
      "inputs": [
        {
          "internalType": "bytes32",
          "name": "role",
          "type": "bytes32"
        }
      ],
      "name": "getRoleAdmin",
      "outputs": [
        {
          "internalType": "bytes32",
          "name": "",
          "type": "bytes32"
        }
      ],
      "stateMutability": "view",
      "type": "function"
    },
    {
      "inputs": [
        {
          "internalType": "bytes32",
          "name": "role",
          "type": "bytes32"
        },
        {
          "internalType": "address",
          "name": "account",
          "type": "address"
        }
      ],
      "name": "grantRole",
      "outputs": [],
      "stateMutability": "nonpayable",
      "type": "function"
    },
    {
      "inputs": [
        {
          "internalType": "bytes32",
          "name": "role",
          "type": "bytes32"
        },
        {
          "internalType": "address",
          "name": "account",
          "type": "address"
        }
      ],
      "name": "hasRole",
      "outputs": [
        {
          "internalType": "bool",
          "name": "",
          "type": "bool"
        }
      ],
      "stateMutability": "view",
      "type": "function"
    },
    {
      "inputs": [
        {
          "internalType": "address",
          "name": "spender",
          "type": "address"
        },
        {
          "internalType": "uint256",
          "name": "addedValue",
          "type": "uint256"
        }
      ],
      "name": "increaseAllowance",
      "outputs": [
        {
          "internalType": "bool",
          "name": "",
          "type": "bool"
        }
      ],
      "stateMutability": "nonpayable",
      "type": "function"
    },
    {
      "inputs": [
        {
          "internalType": "string",
          "name": "name",
          "type": "string"
        },
        {
          "internalType": "string",
          "name": "symbol",
          "type": "string"
        },
        {
          "internalType": "uint8",
          "name": "decimals_",
          "type": "uint8"
        }
      ],
      "name": "initialize",
      "outputs": [],
      "stateMutability": "nonpayable",
      "type": "function"
    },
    {
      "inputs": [
        {
          "internalType": "address",
          "name": "",
          "type": "address"
        }
      ],
      "name": "isBlockListed",
      "outputs": [
        {
          "internalType": "bool",
          "name": "",
          "type": "bool"
        }
      ],
      "stateMutability": "view",
      "type": "function"
    },
    {
      "inputs": [
        {
          "internalType": "address",
          "name": "",
          "type": "address"
        }
      ],
      "name": "isWhiteListed",
      "outputs": [
        {
          "internalType": "bool",
          "name": "",
          "type": "bool"
        }
      ],
      "stateMutability": "view",
      "type": "function"
    },
    {
      "inputs": [
        {
          "internalType": "address",
          "name": "to",
          "type": "address"
        },
        {
          "internalType": "uint256",
          "name": "amount",
          "type": "uint256"
        }
      ],
      "name": "mint",
      "outputs": [],
      "stateMutability": "nonpayable",
      "type": "function"
    },
    {
      "inputs": [],
      "name": "name",
      "outputs": [
        {
          "internalType": "string",
          "name": "",
          "type": "string"
        }
      ],
      "stateMutability": "view",
      "type": "function"
    },
    {
      "inputs": [],
      "name": "pause",
      "outputs": [],
      "stateMutability": "nonpayable",
      "type": "function"
    },
    {
      "inputs": [],
      "name": "paused",
      "outputs": [
        {
          "internalType": "bool",
          "name": "",
          "type": "bool"
        }
      ],
      "stateMutability": "view",
      "type": "function"
    },
    {
      "inputs": [],
      "name": "proxiableUUID",
      "outputs": [
        {
          "internalType": "bytes32",
          "name": "",
          "type": "bytes32"
        }
      ],
      "stateMutability": "view",
      "type": "function"
    },
    {
      "inputs": [
        {
          "internalType": "address",
          "name": "user",
          "type": "address"
        }
      ],
      "name": "removeBlockList",
      "outputs": [],
      "stateMutability": "nonpayable",
      "type": "function"
    },
    {
      "inputs": [
        {
          "internalType": "address",
          "name": "user",
          "type": "address"
        }
      ],
      "name": "removeWhiteList",
      "outputs": [],
      "stateMutability": "nonpayable",
      "type": "function"
    },
    {
      "inputs": [
        {
          "internalType": "bytes32",
          "name": "role",
          "type": "bytes32"
        },
        {
          "internalType": "address",
          "name": "account",
          "type": "address"
        }
      ],
      "name": "renounceRole",
      "outputs": [],
      "stateMutability": "nonpayable",
      "type": "function"
    },
    {
      "inputs": [
        {
          "internalType": "bytes32",
          "name": "role",
          "type": "bytes32"
        },
        {
          "internalType": "address",
          "name": "account",
          "type": "address"
        }
      ],
      "name": "revokeRole",
      "outputs": [],
      "stateMutability": "nonpayable",
      "type": "function"
    },
    {
      "inputs": [
        {
          "internalType": "bytes4",
          "name": "interfaceId",
          "type": "bytes4"
        }
      ],
      "name": "supportsInterface",
      "outputs": [
        {
          "internalType": "bool",
          "name": "",
          "type": "bool"
        }
      ],
      "stateMutability": "view",
      "type": "function"
    },
    {
      "inputs": [],
      "name": "symbol",
      "outputs": [
        {
          "internalType": "string",
          "name": "",
          "type": "string"
        }
      ],
      "stateMutability": "view",
      "type": "function"
    },
    {
      "inputs": [],
      "name": "totalSupply",
      "outputs": [
        {
          "internalType": "uint256",
          "name": "",
          "type": "uint256"
        }
      ],
      "stateMutability": "view",
      "type": "function"
    },
    {
      "inputs": [
        {
          "internalType": "address",
          "name": "to",
          "type": "address"
        },
        {
          "internalType": "uint256",
          "name": "amount",
          "type": "uint256"
        }
      ],
      "name": "transfer",
      "outputs": [
        {
          "internalType": "bool",
          "name": "",
          "type": "bool"
        }
      ],
      "stateMutability": "nonpayable",
      "type": "function"
    },
    {
      "inputs": [
        {
          "internalType": "address",
          "name": "from",
          "type": "address"
        },
        {
          "internalType": "address",
          "name": "to",
          "type": "address"
        },
        {
          "internalType": "uint256",
          "name": "amount",
          "type": "uint256"
        }
      ],
      "name": "transferFrom",
      "outputs": [
        {
          "internalType": "bool",
          "name": "",
          "type": "bool"
        }
      ],
      "stateMutability": "nonpayable",
      "type": "function"
    },
    {
      "inputs": [],
      "name": "unpause",
      "outputs": [],
      "stateMutability": "nonpayable",
      "type": "function"
    },
    {
      "inputs": [
        {
          "internalType": "address",
          "name": "newImplementation",
          "type": "address"
        }
      ],
      "name": "upgradeTo",
      "outputs": [],
      "stateMutability": "nonpayable",
      "type": "function"
    },
    {
      "inputs": [
        {
          "internalType": "address",
          "name": "newImplementation",
          "type": "address"
        },
        {
          "internalType": "bytes",
          "name": "data",
          "type": "bytes"
        }
      ],
      "name": "upgradeToAndCall",
      "outputs": [],
      "stateMutability": "payable",
      "type": "function"
    }
  ],
  "bytecode": "0x60a0604052306080523480156200001557600080fd5b50600054610100900460ff16620000335760005460ff16156200003d565b6200003d620000e2565b620000a55760405162461bcd60e51b815260206004820152602e60248201527f496e697469616c697a61626c653a20636f6e747261637420697320616c72656160448201526d191e481a5b9a5d1a585b1a5e995960921b606482015260840160405180910390fd5b600054610100900460ff16158015620000c8576000805461ffff19166101011790555b8015620000db576000805461ff00191690555b506200010f565b6000620000fa306200010060201b620011521760201c565b15905090565b6001600160a01b03163b151590565b6080516128a06200014760003960008181610bc001528181610c0001528181610d3501528181610d750152610e0401526128a06000f3fe6080604052600436106102305760003560e01c80635c975abb1161012e578063a457c2d7116100ab578063dd62ed3e1161006f578063dd62ed3e146106c9578063e63ab1e91461070f578063e7cd4a0414610731578063f3ece9f414610751578063f72c0d8b1461077157600080fd5b8063a457c2d714610604578063a9059cbb14610624578063b2c1e0de14610644578063d539139314610675578063d547741f146106a957600080fd5b8063893d20e8116100f2578063893d20e81461057157806391d148541461059a57806395d89b41146105ba5780639dc29fac146105cf578063a217fddf146105ef57600080fd5b80635c975abb146104bb5780636f9170f6146104d357806370a082311461050457806375b238fc1461053a5780638456cb591461055c57600080fd5b80632f2ff15d116101bc5780633f4ba83a116101805780633f4ba83a1461043e57806340c10f19146104535780634f1ef2861461047357806352d1902d1461048657806359b0d9311461049b57600080fd5b80632f2ff15d14610391578063313ce567146103b157806336568abe146103de5780633659cfe6146103fe578063395093511461041e57600080fd5b806318160ddd1161020357806318160ddd146102ce5780632042e5c2146102ed57806323b872dd1461030d578063248a9ca31461032d578063282c51f31461035d57600080fd5b806301ffc9a71461023557806306fdde031461026a578063095ea7b31461028c5780631624f6c6146102ac575b600080fd5b34801561024157600080fd5b50610255610250366004612249565b610793565b60405190151581526020015b60405180910390f35b34801561027657600080fd5b5061027f6107ca565b604051610261919061229f565b34801561029857600080fd5b506102556102a73660046122ee565b61085c565b3480156102b857600080fd5b506102cc6102c73660046123c4565b610874565b005b3480156102da57600080fd5b506035545b604051908152602001610261565b3480156102f957600080fd5b506102cc610308366004612442565b610a73565b34801561031957600080fd5b5061025561032836600461245d565b610ae6565b34801561033957600080fd5b506102df610348366004612499565b600090815260fb602052604090206001015490565b34801561036957600080fd5b506102df7f3c11d16cbaffd01df69ce1c404f6340ee057498f5f00246190ea54220576a84881565b34801561039d57600080fd5b506102cc6103ac3660046124b2565b610b0c565b3480156103bd57600080fd5b5061019154600160a01b900460ff1660405160ff9091168152602001610261565b3480156103ea57600080fd5b506102cc6103f93660046124b2565b610b37565b34801561040a57600080fd5b506102cc610419366004612442565b610bb5565b34801561042a57600080fd5b506102556104393660046122ee565b610c95565b34801561044a57600080fd5b506102cc610cd4565b34801561045f57600080fd5b506102cc61046e3660046122ee565b610cf5565b6102cc6104813660046124de565b610d2a565b34801561049257600080fd5b506102df610df7565b3480156104a757600080fd5b506102cc6104b6366004612442565b610eaa565b3480156104c757600080fd5b5060655460ff16610255565b3480156104df57600080fd5b506102556104ee366004612442565b6101936020526000908152604090205460ff1681565b34801561051057600080fd5b506102df61051f366004612442565b6001600160a01b031660009081526033602052604090205490565b34801561054657600080fd5b506102df60008051602061284b83398151915281565b34801561056857600080fd5b506102cc610f15565b34801561057d57600080fd5b50610191546040516001600160a01b039091168152602001610261565b3480156105a657600080fd5b506102556105b53660046124b2565b610f36565b3480156105c657600080fd5b5061027f610f61565b3480156105db57600080fd5b506102cc6105ea3660046122ee565b610f70565b3480156105fb57600080fd5b506102df600081565b34801561061057600080fd5b5061025561061f3660046122ee565b610fa5565b34801561063057600080fd5b5061025561063f3660046122ee565b611042565b34801561065057600080fd5b5061025561065f366004612442565b6101926020526000908152604090205460ff1681565b34801561068157600080fd5b506102df7f9f2df0fed2c77648de5860a4cc508cd0818c85b8b8a1ab4ceeef8d981c8956a681565b3480156106b557600080fd5b506102cc6106c43660046124b2565b611050565b3480156106d557600080fd5b506102df6106e4366004612540565b6001600160a01b03918216600090815260346020908152604080832093909416825291909152205490565b34801561071b57600080fd5b506102df60008051602061280483398151915281565b34801561073d57600080fd5b506102cc61074c366004612442565b611076565b34801561075d57600080fd5b506102cc61076c366004612442565b6110e4565b34801561077d57600080fd5b506102df6000805160206127c483398151915281565b60006001600160e01b03198216637965db0b60e01b14806107c457506301ffc9a760e01b6001600160e01b03198316145b92915050565b6060603680546107d99061256a565b80601f01602080910402602001604051908101604052809291908181526020018280546108059061256a565b80156108525780601f1061082757610100808354040283529160200191610852565b820191906000526020600020905b81548152906001019060200180831161083557829003601f168201915b5050505050905090565b60003361086a818585611161565b5060019392505050565b600054610100900460ff1661088f5760005460ff1615610893565b303b155b6108fb5760405162461bcd60e51b815260206004820152602e60248201527f496e697469616c697a61626c653a20636f6e747261637420697320616c72656160448201526d191e481a5b9a5d1a585b1a5e995960921b60648201526084015b60405180910390fd5b600054610100900460ff1615801561091d576000805461ffff19166101011790555b6109278484611285565b61092f6112b6565b6109376112e7565b61093f6112e7565b61094a60003361130e565b61096260008051602061284b8339815191523361130e565b61097a6000805160206127c48339815191523361130e565b6109a06000805160206127c483398151915260008051602061284b833981519152611318565b6109d87f9f2df0fed2c77648de5860a4cc508cd0818c85b8b8a1ab4ceeef8d981c8956a660008051602061284b833981519152611318565b610a107f3c11d16cbaffd01df69ce1c404f6340ee057498f5f00246190ea54220576a84860008051602061284b833981519152611318565b610a3660008051602061280483398151915260008051602061284b833981519152611318565b61019180546001600160a81b0319163360ff60a01b191617600160a01b60ff8516021790558015610a6d576000805461ff00191690555b50505050565b60008051602061284b833981519152610a8c8133611363565b6001600160a01b03821660008181526101936020908152604091829020805460ff1916905590519182527f9ff0fe46bde692ffa123229beb5debd1c068a183c3b74be4f2d749f628203d3a91015b60405180910390a15050565b600033610af48582856113c7565b610aff858585611453565b60019150505b9392505050565b600082815260fb6020526040902060010154610b288133611363565b610b32838361162c565b505050565b6001600160a01b0381163314610ba75760405162461bcd60e51b815260206004820152602f60248201527f416363657373436f6e74726f6c3a2063616e206f6e6c792072656e6f756e636560448201526e103937b632b9903337b91039b2b63360891b60648201526084016108f2565b610bb182826116b2565b5050565b306001600160a01b037f0000000000000000000000000000000000000000000000000000000000000000161415610bfe5760405162461bcd60e51b81526004016108f2906125a5565b7f00000000000000000000000000000000000000000000000000000000000000006001600160a01b0316610c476000805160206127e4833981519152546001600160a01b031690565b6001600160a01b031614610c6d5760405162461bcd60e51b81526004016108f2906125f1565b610c7681611719565b60408051600080825260208201909252610c9291839190611732565b50565b3360008181526034602090815260408083206001600160a01b038716845290915281205490919061086a9082908690610ccf908790612653565b611161565b600080516020612804833981519152610ced8133611363565b610c926118ac565b7f9f2df0fed2c77648de5860a4cc508cd0818c85b8b8a1ab4ceeef8d981c8956a6610d208133611363565b610b32838361193f565b306001600160a01b037f0000000000000000000000000000000000000000000000000000000000000000161415610d735760405162461bcd60e51b81526004016108f2906125a5565b7f00000000000000000000000000000000000000000000000000000000000000006001600160a01b0316610dbc6000805160206127e4833981519152546001600160a01b031690565b6001600160a01b031614610de25760405162461bcd60e51b81526004016108f2906125f1565b610deb82611719565b610bb182826001611732565b6000306001600160a01b037f00000000000000000000000000000000000000000000000000000000000000001614610e975760405162461bcd60e51b815260206004820152603860248201527f555550535570677261646561626c653a206d757374206e6f742062652063616c60448201527f6c6564207468726f7567682064656c656761746563616c6c000000000000000060648201526084016108f2565b506000805160206127e483398151915290565b60008051602061284b833981519152610ec38133611363565b6001600160a01b03821660008181526101926020908152604091829020805460ff1916905590519182527f64f3db07cedf69b1588bdddf3689a1c99e7e1af2049db54db4d76e10836636c39101610ada565b600080516020612804833981519152610f2e8133611363565b610c92611a2a565b600091825260fb602090815260408084206001600160a01b0393909316845291905290205460ff1690565b6060603780546107d99061256a565b7f3c11d16cbaffd01df69ce1c404f6340ee057498f5f00246190ea54220576a848610f9b8133611363565b610b328383611aa5565b3360008181526034602090815260408083206001600160a01b03871684529091528120549091908381101561102a5760405162461bcd60e51b815260206004820152602560248201527f45524332303a2064656372656173656420616c6c6f77616e63652062656c6f77604482015264207a65726f60d81b60648201526084016108f2565b6110378286868403611161565b506001949350505050565b60003361086a818585611453565b600082815260fb602052604090206001015461106c8133611363565b610b3283836116b2565b60008051602061284b83398151915261108f8133611363565b6001600160a01b03821660008181526101936020908152604091829020805460ff1916600117905590519182527f64fd21439447139bed5a374a0f62ecc0fbd38cf2687d4ed5d587cb55dfbd42589101610ada565b60008051602061284b8339815191526110fd8133611363565b6001600160a01b03821660008181526101926020908152604091829020805460ff1916600117905590519182527f21d3d97349e331a2f8311b5ea84fc5316e4f6e2b3927296419893150731688309101610ada565b6001600160a01b03163b151590565b6001600160a01b0383166111c35760405162461bcd60e51b8152602060048201526024808201527f45524332303a20617070726f76652066726f6d20746865207a65726f206164646044820152637265737360e01b60648201526084016108f2565b6001600160a01b0382166112245760405162461bcd60e51b815260206004820152602260248201527f45524332303a20617070726f766520746f20746865207a65726f206164647265604482015261737360f01b60648201526084016108f2565b6001600160a01b0383811660008181526034602090815260408083209487168084529482529182902085905590518481527f8c5be1e5ebec7d5bd14f71427d1e84f3dd0314c0f7b2291e5b200ac8c7c3b925910160405180910390a3505050565b600054610100900460ff166112ac5760405162461bcd60e51b81526004016108f29061266b565b610bb18282611bff565b600054610100900460ff166112dd5760405162461bcd60e51b81526004016108f29061266b565b6112e5611c4d565b565b600054610100900460ff166112e55760405162461bcd60e51b81526004016108f29061266b565b610bb1828261162c565b600082815260fb6020526040808220600101805490849055905190918391839186917fbd79b86ffe0ab8e8776151514217cd7cacd52c909f66475c3af44e129f0b00ff9190a4505050565b61136d8282610f36565b610bb157611385816001600160a01b03166014611c80565b611390836020611c80565b6040516020016113a19291906126b6565b60408051601f198184030181529082905262461bcd60e51b82526108f29160040161229f565b6001600160a01b038381166000908152603460209081526040808320938616835292905220546000198114610a6d57818110156114465760405162461bcd60e51b815260206004820152601d60248201527f45524332303a20696e73756666696369656e7420616c6c6f77616e636500000060448201526064016108f2565b610a6d8484848403611161565b6001600160a01b0383166114b75760405162461bcd60e51b815260206004820152602560248201527f45524332303a207472616e736665722066726f6d20746865207a65726f206164604482015264647265737360d81b60648201526084016108f2565b6001600160a01b0382166115195760405162461bcd60e51b815260206004820152602360248201527f45524332303a207472616e7366657220746f20746865207a65726f206164647260448201526265737360e81b60648201526084016108f2565b611524838383611e1c565b6001600160a01b0383166000908152603360205260409020548181101561159c5760405162461bcd60e51b815260206004820152602660248201527f45524332303a207472616e7366657220616d6f756e7420657863656564732062604482015265616c616e636560d01b60648201526084016108f2565b6001600160a01b038085166000908152603360205260408082208585039055918516815290812080548492906115d3908490612653565b92505081905550826001600160a01b0316846001600160a01b03167fddf252ad1be2c89b69c2b068fc378daa952ba7f163c4a11628f55a4df523b3ef8460405161161f91815260200190565b60405180910390a3610a6d565b6116368282610f36565b610bb157600082815260fb602090815260408083206001600160a01b03851684529091529020805460ff1916600117905561166e3390565b6001600160a01b0316816001600160a01b0316837f2f8788117e7eff1d82e926ec794901d17c78024a50270940304540a733656f0d60405160405180910390a45050565b6116bc8282610f36565b15610bb157600082815260fb602090815260408083206001600160a01b0385168085529252808320805460ff1916905551339285917ff6391f5c32d9c69d2a47ea670b442974b53935d1edc7fd64eb21e047a839171b9190a45050565b6000805160206127c4833981519152610bb18133611363565b7f4910fdfa16fed3260ed0e7147f7cc6da11a60208b5b9406d12a635614ffd91435460ff161561176557610b3283611f1c565b826001600160a01b03166352d1902d6040518163ffffffff1660e01b815260040160206040518083038186803b15801561179e57600080fd5b505afa9250505080156117ce575060408051601f3d908101601f191682019092526117cb9181019061272b565b60015b6118315760405162461bcd60e51b815260206004820152602e60248201527f45524331393637557067726164653a206e657720696d706c656d656e7461746960448201526d6f6e206973206e6f74205555505360901b60648201526084016108f2565b6000805160206127e483398151915281146118a05760405162461bcd60e51b815260206004820152602960248201527f45524331393637557067726164653a20756e737570706f727465642070726f786044820152681a58589b195555525160ba1b60648201526084016108f2565b50610b32838383611fb8565b60655460ff166118f55760405162461bcd60e51b815260206004820152601460248201527314185d5cd8589b194e881b9bdd081c185d5cd95960621b60448201526064016108f2565b6065805460ff191690557f5db9ee0a495bf2e6ff9c91a7834c1ba4fdd244a5e8aa4e537bd38aeae4b073aa335b6040516001600160a01b03909116815260200160405180910390a1565b6001600160a01b0382166119955760405162461bcd60e51b815260206004820152601f60248201527f45524332303a206d696e7420746f20746865207a65726f20616464726573730060448201526064016108f2565b6119a160008383611e1c565b80603560008282546119b39190612653565b90915550506001600160a01b038216600090815260336020526040812080548392906119e0908490612653565b90915550506040518181526001600160a01b038316906000907fddf252ad1be2c89b69c2b068fc378daa952ba7f163c4a11628f55a4df523b3ef9060200160405180910390a35050565b60655460ff1615611a705760405162461bcd60e51b815260206004820152601060248201526f14185d5cd8589b194e881c185d5cd95960821b60448201526064016108f2565b6065805460ff191660011790557f62e78cea01bee320cd4e420270b5ea74000d11b0c9f74754ebdbfc544b05a2586119223390565b6001600160a01b038216611b055760405162461bcd60e51b815260206004820152602160248201527f45524332303a206275726e2066726f6d20746865207a65726f206164647265736044820152607360f81b60648201526084016108f2565b611b1182600083611e1c565b6001600160a01b03821660009081526033602052604090205481811015611b855760405162461bcd60e51b815260206004820152602260248201527f45524332303a206275726e20616d6f756e7420657863656564732062616c616e604482015261636560f01b60648201526084016108f2565b6001600160a01b0383166000908152603360205260408120838303905560358054849290611bb4908490612744565b90915550506040518281526000906001600160a01b038516907fddf252ad1be2c89b69c2b068fc378daa952ba7f163c4a11628f55a4df523b3ef9060200160405180910390a3505050565b600054610100900460ff16611c265760405162461bcd60e51b81526004016108f29061266b565b8151611c399060369060208501906121b0565b508051610b329060379060208401906121b0565b600054610100900460ff16611c745760405162461bcd60e51b81526004016108f29061266b565b6065805460ff19169055565b60606000611c8f83600261275b565b611c9a906002612653565b67ffffffffffffffff811115611cb257611cb2612318565b6040519080825280601f01601f191660200182016040528015611cdc576020820181803683370190505b509050600360fc1b81600081518110611cf757611cf761277a565b60200101906001600160f81b031916908160001a905350600f60fb1b81600181518110611d2657611d2661277a565b60200101906001600160f81b031916908160001a9053506000611d4a84600261275b565b611d55906001612653565b90505b6001811115611dcd576f181899199a1a9b1b9c1cb0b131b232b360811b85600f1660108110611d8957611d8961277a565b1a60f81b828281518110611d9f57611d9f61277a565b60200101906001600160f81b031916908160001a90535060049490941c93611dc681612790565b9050611d58565b508315610b055760405162461bcd60e51b815260206004820181905260248201527f537472696e67733a20686578206c656e67746820696e73756666696369656e7460448201526064016108f2565b6001600160a01b0383166000908152610193602052604090205460ff16611e4857611e48838383611fdd565b6001600160a01b0383166000908152610192602052604090205460ff1615611eb25760405162461bcd60e51b815260206004820152601b60248201527f416464726573732066726f6d20697320626c6f636b6c6973746564000000000060448201526064016108f2565b6001600160a01b0382166000908152610192602052604090205460ff1615610b325760405162461bcd60e51b815260206004820152601960248201527f4164647265737320746f20697320626c6f636b6c69737465640000000000000060448201526064016108f2565b6001600160a01b0381163b611f895760405162461bcd60e51b815260206004820152602d60248201527f455243313936373a206e657720696d706c656d656e746174696f6e206973206e60448201526c1bdd08184818dbdb9d1c9858dd609a1b60648201526084016108f2565b6000805160206127e483398151915280546001600160a01b0319166001600160a01b0392909216919091179055565b611fc183612043565b600082511180611fce5750805b15610b3257610a6d8383612083565b60655460ff1615610b325760405162461bcd60e51b815260206004820152602a60248201527f45524332305061757361626c653a20746f6b656e207472616e736665722077686044820152691a5b19481c185d5cd95960b21b60648201526084016108f2565b61204c81611f1c565b6040516001600160a01b038216907fbc7cd75a20ee27fd9adebab32041f755214dbc6bffa90cc0225b39da2e5c2d3b90600090a250565b60606001600160a01b0383163b6120eb5760405162461bcd60e51b815260206004820152602660248201527f416464726573733a2064656c65676174652063616c6c20746f206e6f6e2d636f6044820152651b9d1c9858dd60d21b60648201526084016108f2565b600080846001600160a01b03168460405161210691906127a7565b600060405180830381855af49150503d8060008114612141576040519150601f19603f3d011682016040523d82523d6000602084013e612146565b606091505b509150915061216e828260405180606001604052806027815260200161282460279139612177565b95945050505050565b60608315612186575081610b05565b8251156121965782518084602001fd5b8160405162461bcd60e51b81526004016108f2919061229f565b8280546121bc9061256a565b90600052602060002090601f0160209004810192826121de5760008555612224565b82601f106121f757805160ff1916838001178555612224565b82800160010185558215612224579182015b82811115612224578251825591602001919060010190612209565b50612230929150612234565b5090565b5b808211156122305760008155600101612235565b60006020828403121561225b57600080fd5b81356001600160e01b031981168114610b0557600080fd5b60005b8381101561228e578181015183820152602001612276565b83811115610a6d5750506000910152565b60208152600082518060208401526122be816040850160208701612273565b601f01601f19169190910160400192915050565b80356001600160a01b03811681146122e957600080fd5b919050565b6000806040838503121561230157600080fd5b61230a836122d2565b946020939093013593505050565b634e487b7160e01b600052604160045260246000fd5b600067ffffffffffffffff8084111561234957612349612318565b604051601f8501601f19908116603f0116810190828211818310171561237157612371612318565b8160405280935085815286868601111561238a57600080fd5b858560208301376000602087830101525050509392505050565b600082601f8301126123b557600080fd5b610b058383356020850161232e565b6000806000606084860312156123d957600080fd5b833567ffffffffffffffff808211156123f157600080fd5b6123fd878388016123a4565b9450602086013591508082111561241357600080fd5b50612420868287016123a4565b925050604084013560ff8116811461243757600080fd5b809150509250925092565b60006020828403121561245457600080fd5b610b05826122d2565b60008060006060848603121561247257600080fd5b61247b846122d2565b9250612489602085016122d2565b9150604084013590509250925092565b6000602082840312156124ab57600080fd5b5035919050565b600080604083850312156124c557600080fd5b823591506124d5602084016122d2565b90509250929050565b600080604083850312156124f157600080fd5b6124fa836122d2565b9150602083013567ffffffffffffffff81111561251657600080fd5b8301601f8101851361252757600080fd5b6125368582356020840161232e565b9150509250929050565b6000806040838503121561255357600080fd5b61255c836122d2565b91506124d5602084016122d2565b600181811c9082168061257e57607f821691505b6020821081141561259f57634e487b7160e01b600052602260045260246000fd5b50919050565b6020808252602c908201527f46756e6374696f6e206d7573742062652063616c6c6564207468726f7567682060408201526b19195b1959d85d1958d85b1b60a21b606082015260800190565b6020808252602c908201527f46756e6374696f6e206d7573742062652063616c6c6564207468726f7567682060408201526b6163746976652070726f787960a01b606082015260800190565b634e487b7160e01b600052601160045260246000fd5b600082198211156126665761266661263d565b500190565b6020808252602b908201527f496e697469616c697a61626c653a20636f6e7472616374206973206e6f74206960408201526a6e697469616c697a696e6760a81b606082015260800190565b7f416363657373436f6e74726f6c3a206163636f756e74200000000000000000008152600083516126ee816017850160208801612273565b7001034b99036b4b9b9b4b733903937b6329607d1b601791840191820152835161271f816028840160208801612273565b01602801949350505050565b60006020828403121561273d57600080fd5b5051919050565b6000828210156127565761275661263d565b500390565b60008160001904831182151516156127755761277561263d565b500290565b634e487b7160e01b600052603260045260246000fd5b60008161279f5761279f61263d565b506000190190565b600082516127b9818460208701612273565b919091019291505056fe189ab7a9244df0848122154315af71fe140f3db0fe014031783b0946b8c9d2e3360894a13ba1a3210667c828492db98dca3e2076cc3735a920a3ca505d382bbc65d7a28e3265b37a6474929f336521b332c1681b933f6cb9f3376673440d862a416464726573733a206c6f772d6c6576656c2064656c65676174652063616c6c206661696c6564a49807205ce4d355092ef5a8a18f56e8913cf4a201fbe287825b095693c21775a2646970667358221220ecd673e99b6a93e43a9aefcbcb287b6e2cf1761cd41e7582b83bf494e303eaeb64736f6c63430008090033",
  "linkReferences": {},
  "deployedLinkReferences": {}
}