{
  "_format": "hh-sol-artifact-1",
  "contractName": "WQCollateralAuction",
  "sourceName": "contracts/stablecoin/WQCollateralAuction.sol",
  "abi": [
    {
      "inputs": [],
      "stateMutability": "nonpayable",
      "type": "constructor"
    },
    {
      "anonymous": false,
      "inputs": [
        {
          "indexed": false,
          "internalType": "address",
          "name": "previousAdmin",
          "type": "address"
        },
        {
          "indexed": false,
          "internalType": "address",
          "name": "newAdmin",
          "type": "address"
        }
      ],
      "name": "AdminChanged",
      "type": "event"
    },
    {
      "anonymous": false,
      "inputs": [
        {
          "indexed": false,
          "internalType": "uint256",
          "name": "index",
          "type": "uint256"
        },
        {
          "indexed": false,
          "internalType": "uint256",
          "name": "amount",
          "type": "uint256"
        },
        {
          "indexed": false,
          "internalType": "uint256",
          "name": "endCost",
          "type": "uint256"
        }
      ],
      "name": "AuctionStarted",
      "type": "event"
    },
    {
      "anonymous": false,
      "inputs": [
        {
          "indexed": true,
          "internalType": "address",
          "name": "beacon",
          "type": "address"
        }
      ],
      "name": "BeaconUpgraded",
      "type": "event"
    },
    {
      "anonymous": false,
      "inputs": [
        {
          "indexed": false,
          "internalType": "uint256",
          "name": "index",
          "type": "uint256"
        },
        {
          "indexed": false,
          "internalType": "uint256",
          "name": "amount",
          "type": "uint256"
        },
        {
          "indexed": false,
          "internalType": "uint256",
          "name": "cost",
          "type": "uint256"
        }
      ],
      "name": "LotBuyed",
      "type": "event"
    },
    {
      "anonymous": false,
      "inputs": [
        {
          "indexed": false,
          "internalType": "uint256",
          "name": "index",
          "type": "uint256"
        },
        {
          "indexed": false,
          "internalType": "uint256",
          "name": "amount",
          "type": "uint256"
        },
        {
          "indexed": false,
          "internalType": "uint256",
          "name": "cost",
          "type": "uint256"
        }
      ],
      "name": "LotCanceled",
      "type": "event"
    },
    {
      "anonymous": false,
      "inputs": [
        {
          "indexed": true,
          "internalType": "bytes32",
          "name": "role",
          "type": "bytes32"
        },
        {
          "indexed": true,
          "internalType": "bytes32",
          "name": "previousAdminRole",
          "type": "bytes32"
        },
        {
          "indexed": true,
          "internalType": "bytes32",
          "name": "newAdminRole",
          "type": "bytes32"
        }
      ],
      "name": "RoleAdminChanged",
      "type": "event"
    },
    {
      "anonymous": false,
      "inputs": [
        {
          "indexed": true,
          "internalType": "bytes32",
          "name": "role",
          "type": "bytes32"
        },
        {
          "indexed": true,
          "internalType": "address",
          "name": "account",
          "type": "address"
        },
        {
          "indexed": true,
          "internalType": "address",
          "name": "sender",
          "type": "address"
        }
      ],
      "name": "RoleGranted",
      "type": "event"
    },
    {
      "anonymous": false,
      "inputs": [
        {
          "indexed": true,
          "internalType": "bytes32",
          "name": "role",
          "type": "bytes32"
        },
        {
          "indexed": true,
          "internalType": "address",
          "name": "account",
          "type": "address"
        },
        {
          "indexed": true,
          "internalType": "address",
          "name": "sender",
          "type": "address"
        }
      ],
      "name": "RoleRevoked",
      "type": "event"
    },
    {
      "anonymous": false,
      "inputs": [
        {
          "indexed": true,
          "internalType": "address",
          "name": "implementation",
          "type": "address"
        }
      ],
      "name": "Upgraded",
      "type": "event"
    },
    {
      "inputs": [],
      "name": "ADMIN_ROLE",
      "outputs": [
        {
          "internalType": "bytes32",
          "name": "",
          "type": "bytes32"
        }
      ],
      "stateMutability": "view",
      "type": "function"
    },
    {
      "inputs": [],
      "name": "DEFAULT_ADMIN_ROLE",
      "outputs": [
        {
          "internalType": "bytes32",
          "name": "",
          "type": "bytes32"
        }
      ],
      "stateMutability": "view",
      "type": "function"
    },
    {
      "inputs": [],
      "name": "SERVICE_ROLE",
      "outputs": [
        {
          "internalType": "bytes32",
          "name": "",
          "type": "bytes32"
        }
      ],
      "stateMutability": "view",
      "type": "function"
    },
    {
      "inputs": [],
      "name": "UPGRADER_ROLE",
      "outputs": [
        {
          "internalType": "bytes32",
          "name": "",
          "type": "bytes32"
        }
      ],
      "stateMutability": "view",
      "type": "function"
    },
    {
      "inputs": [
        {
          "internalType": "address",
          "name": "user",
          "type": "address"
        },
        {
          "internalType": "uint256",
          "name": "price",
          "type": "uint256"
        },
        {
          "internalType": "uint256",
          "name": "amount",
          "type": "uint256"
        },
        {
          "internalType": "uint256",
          "name": "ratio",
          "type": "uint256"
        }
      ],
      "name": "addLot",
      "outputs": [
        {
          "internalType": "uint256",
          "name": "",
          "type": "uint256"
        }
      ],
      "stateMutability": "nonpayable",
      "type": "function"
    },
    {
      "inputs": [],
      "name": "auctionDuration",
      "outputs": [
        {
          "internalType": "uint256",
          "name": "",
          "type": "uint256"
        }
      ],
      "stateMutability": "view",
      "type": "function"
    },
    {
      "inputs": [
        {
          "internalType": "uint256",
          "name": "index",
          "type": "uint256"
        }
      ],
      "name": "buyLot",
      "outputs": [],
      "stateMutability": "nonpayable",
      "type": "function"
    },
    {
      "inputs": [
        {
          "internalType": "uint256",
          "name": "index",
          "type": "uint256"
        }
      ],
      "name": "cancelAuction",
      "outputs": [],
      "stateMutability": "nonpayable",
      "type": "function"
    },
    {
      "inputs": [
        {
          "internalType": "uint256",
          "name": "index",
          "type": "uint256"
        },
        {
          "internalType": "uint256",
          "name": "collaterralPart",
          "type": "uint256"
        }
      ],
      "name": "decreaseLotAmount",
      "outputs": [
        {
          "internalType": "uint256",
          "name": "",
          "type": "uint256"
        }
      ],
      "stateMutability": "nonpayable",
      "type": "function"
    },
    {
      "inputs": [],
      "name": "disableReserves",
      "outputs": [],
      "stateMutability": "nonpayable",
      "type": "function"
    },
    {
      "inputs": [],
      "name": "enableReserves",
      "outputs": [],
      "stateMutability": "nonpayable",
      "type": "function"
    },
    {
      "inputs": [
        {
          "internalType": "uint256",
          "name": "index",
          "type": "uint256"
        }
      ],
      "name": "getComission",
      "outputs": [
        {
          "internalType": "uint256",
          "name": "",
          "type": "uint256"
        }
      ],
      "stateMutability": "view",
      "type": "function"
    },
    {
      "inputs": [
        {
          "internalType": "uint256",
          "name": "index",
          "type": "uint256"
        }
      ],
      "name": "getCurrentLotCost",
      "outputs": [
        {
          "internalType": "uint256",
          "name": "",
          "type": "uint256"
        }
      ],
      "stateMutability": "view",
      "type": "function"
    },
    {
      "inputs": [],
      "name": "getLiquidatedCollaterallAmount",
      "outputs": [
        {
          "internalType": "uint256",
          "name": "",
          "type": "uint256"
        }
      ],
      "stateMutability": "view",
      "type": "function"
    },
    {
      "inputs": [
        {
          "internalType": "uint256",
          "name": "index",
          "type": "uint256"
        }
      ],
      "name": "getLotInfo",
      "outputs": [
        {
          "internalType": "uint256",
          "name": "",
          "type": "uint256"
        },
        {
          "internalType": "uint256",
          "name": "",
          "type": "uint256"
        },
        {
          "internalType": "uint256",
          "name": "",
          "type": "uint256"
        },
        {
          "internalType": "uint256",
          "name": "",
          "type": "uint256"
        }
      ],
      "stateMutability": "view",
      "type": "function"
    },
    {
      "inputs": [
        {
          "internalType": "uint256",
          "name": "index",
          "type": "uint256"
        }
      ],
      "name": "getLotOwner",
      "outputs": [
        {
          "internalType": "address",
          "name": "",
          "type": "address"
        }
      ],
      "stateMutability": "view",
      "type": "function"
    },
    {
      "inputs": [
        {
          "internalType": "uint256",
          "name": "index",
          "type": "uint256"
        }
      ],
      "name": "getLotStatus",
      "outputs": [
        {
          "internalType": "uint8",
          "name": "",
          "type": "uint8"
        }
      ],
      "stateMutability": "view",
      "type": "function"
    },
    {
      "inputs": [
        {
          "internalType": "uint256",
          "name": "offset",
          "type": "uint256"
        },
        {
          "internalType": "uint256",
          "name": "limit",
          "type": "uint256"
        }
      ],
      "name": "getLots",
      "outputs": [
        {
          "components": [
            {
              "internalType": "address",
              "name": "user",
              "type": "address"
            },
            {
              "internalType": "uint256",
              "name": "price",
              "type": "uint256"
            },
            {
              "internalType": "uint256",
              "name": "amount",
              "type": "uint256"
            },
            {
              "internalType": "uint256",
              "name": "ratio",
              "type": "uint256"
            },
            {
              "internalType": "uint256",
              "name": "created",
              "type": "uint256"
            },
            {
              "internalType": "uint256",
              "name": "saleAmount",
              "type": "uint256"
            },
            {
              "internalType": "uint256",
              "name": "endPrice",
              "type": "uint256"
            },
            {
              "internalType": "uint256",
              "name": "endTime",
              "type": "uint256"
            },
            {
              "internalType": "enum WQCollateralAuction.LotStatus",
              "name": "status",
              "type": "uint8"
            }
          ],
          "internalType": "struct WQCollateralAuction.LotInfo[]",
          "name": "page",
          "type": "tuple[]"
        }
      ],
      "stateMutability": "view",
      "type": "function"
    },
    {
      "inputs": [
        {
          "internalType": "bytes32",
          "name": "role",
          "type": "bytes32"
        }
      ],
      "name": "getRoleAdmin",
      "outputs": [
        {
          "internalType": "bytes32",
          "name": "",
          "type": "bytes32"
        }
      ],
      "stateMutability": "view",
      "type": "function"
    },
    {
      "inputs": [
        {
          "internalType": "bytes32",
          "name": "role",
          "type": "bytes32"
        },
        {
          "internalType": "address",
          "name": "account",
          "type": "address"
        }
      ],
      "name": "grantRole",
      "outputs": [],
      "stateMutability": "nonpayable",
      "type": "function"
    },
    {
      "inputs": [
        {
          "internalType": "bytes32",
          "name": "role",
          "type": "bytes32"
        },
        {
          "internalType": "address",
          "name": "account",
          "type": "address"
        }
      ],
      "name": "hasRole",
      "outputs": [
        {
          "internalType": "bool",
          "name": "",
          "type": "bool"
        }
      ],
      "stateMutability": "view",
      "type": "function"
    },
    {
      "inputs": [
        {
          "internalType": "address",
          "name": "_token",
          "type": "address"
        },
        {
          "internalType": "address",
          "name": "_oracle",
          "type": "address"
        },
        {
          "internalType": "address",
          "name": "_router",
          "type": "address"
        },
        {
          "internalType": "uint256",
          "name": "_liquidateThreshold",
          "type": "uint256"
        },
        {
          "internalType": "uint256",
          "name": "_upperBoundCost",
          "type": "uint256"
        },
        {
          "internalType": "uint256",
          "name": "_lowerBoundCost",
          "type": "uint256"
        },
        {
          "internalType": "uint256",
          "name": "_auctionDuration",
          "type": "uint256"
        }
      ],
      "name": "initialize",
      "outputs": [],
      "stateMutability": "nonpayable",
      "type": "function"
    },
    {
      "inputs": [],
      "name": "liquidateThreshold",
      "outputs": [
        {
          "internalType": "uint256",
          "name": "",
          "type": "uint256"
        }
      ],
      "stateMutability": "view",
      "type": "function"
    },
    {
      "inputs": [
        {
          "internalType": "uint256",
          "name": "",
          "type": "uint256"
        }
      ],
      "name": "lots",
      "outputs": [
        {
          "internalType": "address",
          "name": "user",
          "type": "address"
        },
        {
          "internalType": "uint256",
          "name": "price",
          "type": "uint256"
        },
        {
          "internalType": "uint256",
          "name": "amount",
          "type": "uint256"
        },
        {
          "internalType": "uint256",
          "name": "ratio",
          "type": "uint256"
        },
        {
          "internalType": "uint256",
          "name": "created",
          "type": "uint256"
        },
        {
          "internalType": "uint256",
          "name": "saleAmount",
          "type": "uint256"
        },
        {
          "internalType": "uint256",
          "name": "endPrice",
          "type": "uint256"
        },
        {
          "internalType": "uint256",
          "name": "endTime",
          "type": "uint256"
        },
        {
          "internalType": "enum WQCollateralAuction.LotStatus",
          "name": "status",
          "type": "uint8"
        }
      ],
      "stateMutability": "view",
      "type": "function"
    },
    {
      "inputs": [],
      "name": "lowerBoundCost",
      "outputs": [
        {
          "internalType": "uint256",
          "name": "",
          "type": "uint256"
        }
      ],
      "stateMutability": "view",
      "type": "function"
    },
    {
      "inputs": [
        {
          "internalType": "uint256",
          "name": "index",
          "type": "uint256"
        },
        {
          "internalType": "uint256",
          "name": "newPrice",
          "type": "uint256"
        },
        {
          "internalType": "uint256",
          "name": "newAmount",
          "type": "uint256"
        }
      ],
      "name": "moveLot",
      "outputs": [
        {
          "internalType": "uint256",
          "name": "",
          "type": "uint256"
        }
      ],
      "stateMutability": "nonpayable",
      "type": "function"
    },
    {
      "inputs": [],
      "name": "oracle",
      "outputs": [
        {
          "internalType": "contract WQPriceOracleInterface",
          "name": "",
          "type": "address"
        }
      ],
      "stateMutability": "view",
      "type": "function"
    },
    {
      "inputs": [],
      "name": "proxiableUUID",
      "outputs": [
        {
          "internalType": "bytes32",
          "name": "",
          "type": "bytes32"
        }
      ],
      "stateMutability": "view",
      "type": "function"
    },
    {
      "inputs": [
        {
          "internalType": "bytes32",
          "name": "role",
          "type": "bytes32"
        },
        {
          "internalType": "address",
          "name": "account",
          "type": "address"
        }
      ],
      "name": "renounceRole",
      "outputs": [],
      "stateMutability": "nonpayable",
      "type": "function"
    },
    {
      "inputs": [],
      "name": "reservesEnabled",
      "outputs": [
        {
          "internalType": "bool",
          "name": "",
          "type": "bool"
        }
      ],
      "stateMutability": "view",
      "type": "function"
    },
    {
      "inputs": [
        {
          "internalType": "bytes32",
          "name": "role",
          "type": "bytes32"
        },
        {
          "internalType": "address",
          "name": "account",
          "type": "address"
        }
      ],
      "name": "revokeRole",
      "outputs": [],
      "stateMutability": "nonpayable",
      "type": "function"
    },
    {
      "inputs": [],
      "name": "router",
      "outputs": [
        {
          "internalType": "contract WQRouterInterface",
          "name": "",
          "type": "address"
        }
      ],
      "stateMutability": "view",
      "type": "function"
    },
    {
      "inputs": [
        {
          "internalType": "uint256",
          "name": "duration",
          "type": "uint256"
        }
      ],
      "name": "setAuctionDuration",
      "outputs": [],
      "stateMutability": "nonpayable",
      "type": "function"
    },
    {
      "inputs": [
        {
          "internalType": "uint256",
          "name": "percent",
          "type": "uint256"
        }
      ],
      "name": "setLiquidateTreshold",
      "outputs": [],
      "stateMutability": "nonpayable",
      "type": "function"
    },
    {
      "inputs": [
        {
          "internalType": "uint256",
          "name": "percent",
          "type": "uint256"
        }
      ],
      "name": "setLowerBoundCost",
      "outputs": [],
      "stateMutability": "nonpayable",
      "type": "function"
    },
    {
      "inputs": [
        {
          "internalType": "address",
          "name": "_oracle",
          "type": "address"
        }
      ],
      "name": "setOracle",
      "outputs": [],
      "stateMutability": "nonpayable",
      "type": "function"
    },
    {
      "inputs": [
        {
          "internalType": "address",
          "name": "_router",
          "type": "address"
        }
      ],
      "name": "setRouter",
      "outputs": [],
      "stateMutability": "nonpayable",
      "type": "function"
    },
    {
      "inputs": [
        {
          "internalType": "address",
          "name": "_token",
          "type": "address"
        }
      ],
      "name": "setToken",
      "outputs": [],
      "stateMutability": "nonpayable",
      "type": "function"
    },
    {
      "inputs": [
        {
          "internalType": "uint256",
          "name": "percent",
          "type": "uint256"
        }
      ],
      "name": "setUpperBoundCost",
      "outputs": [],
      "stateMutability": "nonpayable",
      "type": "function"
    },
    {
      "inputs": [
        {
          "internalType": "uint256",
          "name": "index",
          "type": "uint256"
        },
        {
          "internalType": "uint256",
          "name": "amount",
          "type": "uint256"
        }
      ],
      "name": "startAuction",
      "outputs": [],
      "stateMutability": "nonpayable",
      "type": "function"
    },
    {
      "inputs": [
        {
          "internalType": "bytes4",
          "name": "interfaceId",
          "type": "bytes4"
        }
      ],
      "name": "supportsInterface",
      "outputs": [
        {
          "internalType": "bool",
          "name": "",
          "type": "bool"
        }
      ],
      "stateMutability": "view",
      "type": "function"
    },
    {
      "inputs": [],
      "name": "token",
      "outputs": [
        {
          "internalType": "contract IERC20MetadataUpgradeable",
          "name": "",
          "type": "address"
        }
      ],
      "stateMutability": "view",
      "type": "function"
    },
    {
      "inputs": [],
      "name": "totalAuctioned",
      "outputs": [
        {
          "internalType": "uint256",
          "name": "",
          "type": "uint256"
        }
      ],
      "stateMutability": "view",
      "type": "function"
    },
    {
      "inputs": [
        {
          "internalType": "address",
          "name": "newImplementation",
          "type": "address"
        }
      ],
      "name": "upgradeTo",
      "outputs": [],
      "stateMutability": "nonpayable",
      "type": "function"
    },
    {
      "inputs": [
        {
          "internalType": "address",
          "name": "newImplementation",
          "type": "address"
        },
        {
          "internalType": "bytes",
          "name": "data",
          "type": "bytes"
        }
      ],
      "name": "upgradeToAndCall",
      "outputs": [],
      "stateMutability": "payable",
      "type": "function"
    },
    {
      "inputs": [],
      "name": "upperBoundCost",
      "outputs": [
        {
          "internalType": "uint256",
          "name": "",
          "type": "uint256"
        }
      ],
      "stateMutability": "view",
      "type": "function"
    }
  ],
  "bytecode": "0x60a0604052306080523480156200001557600080fd5b50600054610100900460ff16620000335760005460ff16156200003d565b6200003d620000e2565b620000a55760405162461bcd60e51b815260206004820152602e60248201527f496e697469616c697a61626c653a20636f6e747261637420697320616c72656160448201526d191e481a5b9a5d1a585b1a5e995960921b606482015260840160405180910390fd5b600054610100900460ff16158015620000c8576000805461ffff19166101011790555b8015620000db576000805461ff00191690555b506200010f565b6000620000fa306200010060201b620025481760201c565b15905090565b6001600160a01b03163b151590565b608051613ac96200014760003960008181610baa01528181610bea01528181610ebf01528181610eff01526113df0152613ac96000f3fe60806040526004361061027d5760003560e01c8063874f5cbb1161014f578063c41600fe116100c1578063f72c0d8b1161007a578063f72c0d8b146107cd578063f887ea40146107ef578063fc0c546a14610810578063fdcb648c14610831578063ff2ab22914610848578063ffb671861461085f57600080fd5b8063c41600fe146106f8578063cc6b3be314610718578063d0896c5514610738578063d547741f14610758578063e2a07a0714610778578063f1648e841461079857600080fd5b8063a20e7d4711610113578063a20e7d471461064c578063a217fddf1461066e578063a497e67414610683578063b0f78765146106a3578063b70a07ea146106b8578063c0d78655146106d857600080fd5b8063874f5cbb1461059257806391d14854146105bf57806396b5a755146105df578063997e7c36146105ff5780639ea687a71461063157600080fd5b8063403b74ed116101f357806364ad7ad7116101ac57806364ad7ad7146104da57806374e3e3dc146104fa57806375b238fc1461051a578063764460131461053c5780637adbf973146105515780637dc0d1d01461057157600080fd5b8063403b74ed1461043b5780634823bd55146104525780634f1ef286146104725780634fee13fc1461048557806352d1902d146104a5578063535bb867146104ba57600080fd5b80632f1b1303116102455780632f1b13031461034e5780632f2ff15d1461038e57806336568abe146103ae5780633659cfe6146103ce57806336c1d235146103ee5780633a1a73271461040357600080fd5b806301ffc9a7146102825780630cbf54c8146102b7578063144fa6d7146102dc578063248a9ca3146102fe5780632b4656c81461032e575b600080fd5b34801561028e57600080fd5b506102a261029d3660046130db565b610876565b60405190151581526020015b60405180910390f35b3480156102c357600080fd5b506102ce6101335481565b6040519081526020016102ae565b3480156102e857600080fd5b506102fc6102f7366004613121565b6108ad565b005b34801561030a57600080fd5b506102ce61031936600461313c565b60009081526065602052604090206001015490565b34801561033a57600080fd5b506102fc610349366004613155565b6108ea565b34801561035a57600080fd5b5061036e61036936600461313c565b610aa6565b6040805194855260208501939093529183015260608201526080016102ae565b34801561039a57600080fd5b506102fc6103a93660046131bd565b610af6565b3480156103ba57600080fd5b506102fc6103c93660046131bd565b610b21565b3480156103da57600080fd5b506102fc6103e9366004613121565b610b9f565b3480156103fa57600080fd5b506102fc610c7f565b34801561040f57600080fd5b5061042361041e36600461313c565b610cd7565b6040516001600160a01b0390911681526020016102ae565b34801561044757600080fd5b506102ce6101315481565b34801561045e57600080fd5b506102ce61046d36600461313c565b610d0d565b6102fc610480366004613258565b610eb4565b34801561049157600080fd5b506102fc6104a03660046132e9565b610f81565b3480156104b157600080fd5b506102ce6113d2565b3480156104c657600080fd5b506102ce6104d536600461313c565b611485565b3480156104e657600080fd5b506102fc6104f536600461313c565b6115fb565b34801561050657600080fd5b506102fc61051536600461313c565b61161b565b34801561052657600080fd5b506102ce600080516020613a7483398151915281565b34801561054857600080fd5b506102fc611a3b565b34801561055d57600080fd5b506102fc61056c366004613121565b611a8f565b34801561057d57600080fd5b5061012d54610423906001600160a01b031681565b34801561059e57600080fd5b506105b26105ad3660046132e9565b611acc565b6040516102ae9190613343565b3480156105cb57600080fd5b506102a26105da3660046131bd565b611c56565b3480156105eb57600080fd5b506102fc6105fa36600461313c565b611c81565b34801561060b57600080fd5b5061061f61061a36600461313c565b611dfc565b60405160ff90911681526020016102ae565b34801561063d57600080fd5b50610135546102a29060ff1681565b34801561065857600080fd5b506102ce6000805160206139ed83398151915281565b34801561067a57600080fd5b506102ce600081565b34801561068f57600080fd5b506102fc61069e36600461313c565b611e3a565b3480156106af57600080fd5b506102ce611e5a565b3480156106c457600080fd5b506102ce6106d33660046133f0565b6121b2565b3480156106e457600080fd5b506102fc6106f3366004613121565b61223b565b34801561070457600080fd5b506102fc61071336600461313c565b612278565b34801561072457600080fd5b506102ce61073336600461341c565b612298565b34801561074457600080fd5b506102ce6107533660046132e9565b6123f3565b34801561076457600080fd5b506102fc6107733660046131bd565b612499565b34801561078457600080fd5b506102fc61079336600461313c565b6124bf565b3480156107a457600080fd5b506107b86107b336600461313c565b6124df565b6040516102ae99989796959493929190613455565b3480156107d957600080fd5b506102ce600080516020613a0d83398151915281565b3480156107fb57600080fd5b5061012e54610423906001600160a01b031681565b34801561081c57600080fd5b5061012f54610423906001600160a01b031681565b34801561083d57600080fd5b506102ce6101305481565b34801561085457600080fd5b506102ce6101325481565b34801561086b57600080fd5b506102ce6101345481565b60006001600160e01b03198216637965db0b60e01b14806108a757506301ffc9a760e01b6001600160e01b03198316145b92915050565b600080516020613a748339815191526108c68133612557565b5061012f80546001600160a01b0319166001600160a01b0392909216919091179055565b600054610100900460ff166109055760005460ff1615610909565b303b155b6109715760405162461bcd60e51b815260206004820152602e60248201527f496e697469616c697a61626c653a20636f6e747261637420697320616c72656160448201526d191e481a5b9a5d1a585b1a5e995960921b60648201526084015b60405180910390fd5b600054610100900460ff16158015610993576000805461ffff19166101011790555b61099b6125bb565b6109a36125e4565b6109ab6125bb565b6109b6600033612613565b6109ce600080516020613a7483398151915233612613565b6109e6600080516020613a0d83398151915233612613565b610a0c6000805160206139ed833981519152600080516020613a7483398151915261261d565b610a32600080516020613a0d833981519152600080516020613a7483398151915261261d565b61012f80546001600160a01b03808b166001600160a01b03199283161790925561012d80548a841690831617905561012e8054928916929091169190911790556101308590556101318490556101328390556101338290558015610a9c576000805461ff00191690555b5050505050505050565b60008060008060006101368681548110610ac257610ac26134af565b9060005260206000209060090201905080600201548160010154826003015483600401549450945094509450509193509193565b600082815260656020526040902060010154610b128133612557565b610b1c8383612668565b505050565b6001600160a01b0381163314610b915760405162461bcd60e51b815260206004820152602f60248201527f416363657373436f6e74726f6c3a2063616e206f6e6c792072656e6f756e636560448201526e103937b632b9903337b91039b2b63360891b6064820152608401610968565b610b9b82826126ee565b5050565b306001600160a01b037f0000000000000000000000000000000000000000000000000000000000000000161415610be85760405162461bcd60e51b8152600401610968906134c5565b7f00000000000000000000000000000000000000000000000000000000000000006001600160a01b0316610c31600080516020613a2d833981519152546001600160a01b031690565b6001600160a01b031614610c575760405162461bcd60e51b815260040161096890613511565b610c6081612755565b60408051600080825260208201909252610c7c9183919061276e565b50565b60026097541415610ca25760405162461bcd60e51b81526004016109689061355d565b60026097556000805160206139ed833981519152610cc08133612557565b50610135805460ff19166001908117909155609755565b60006101368281548110610ced57610ced6134af565b60009182526020909120600990910201546001600160a01b031692915050565b6000670de0b6b3a76400006301e133806101368481548110610d3157610d316134af565b90600052602060002090600902016004015442610d4e91906135aa565b61012e60009054906101000a90046001600160a01b03166001600160a01b0316631a9703da6040518163ffffffff1660e01b815260040160206040518083038186803b158015610d9d57600080fd5b505afa158015610db1573d6000803e3d6000fd5b505050506040513d601f19601f82011682018060405250810190610dd591906135c1565b610ddf91906135da565b610de991906135f9565b61012e60009054906101000a90046001600160a01b03166001600160a01b031663802d14226040518163ffffffff1660e01b815260040160206040518083038186803b158015610e3857600080fd5b505afa158015610e4c573d6000803e3d6000fd5b505050506040513d601f19601f82011682018060405250810190610e7091906135c1565b610e7a919061361b565b6101368481548110610e8e57610e8e6134af565b906000526020600020906009020160050154610eaa91906135da565b6108a791906135f9565b306001600160a01b037f0000000000000000000000000000000000000000000000000000000000000000161415610efd5760405162461bcd60e51b8152600401610968906134c5565b7f00000000000000000000000000000000000000000000000000000000000000006001600160a01b0316610f46600080516020613a2d833981519152546001600160a01b031690565b6001600160a01b031614610f6c5760405162461bcd60e51b815260040161096890613511565b610f7582612755565b610b9b8282600161276e565b60026097541415610fa45760405162461bcd60e51b81526004016109689061355d565b600260975561012d5461012f54604080516395d89b4160e01b815290516000936001600160a01b0390811693630292e0fd939116916395d89b41916004808201928892909190829003018186803b158015610ffe57600080fd5b505afa158015611012573d6000803e3d6000fd5b505050506040513d6000823e601f3d908101601f1916820160405261103a919081019061365f565b6040518263ffffffff1660e01b815260040161105691906136f9565b60206040518083038186803b15801561106e57600080fd5b505afa158015611082573d6000803e3d6000fd5b505050506040513d601f19601f820116820180604052508101906110a691906135c1565b90508161013460008282546110bb919061361b565b909155506110c99050611e5a565b6101345411156111555760405162461bcd60e51b815260206004820152604b60248201527f575141756374696f6e3a20416d6f756e74206f6620746f6b656e73207075726360448201527f68617365642069732067726561746572207468616e2074686520616d6f756e7460648201526a081b1a5c5d5a59185d195960aa1b608482015260a401610968565b6000610136848154811061116b5761116b6134af565b6000918252602090912060099091020190506001600882015460ff1660038111156111985761119861330b565b146111e55760405162461bcd60e51b815260206004820152601c60248201527f575141756374696f6e3a20537461747573206973206e6f74204e6577000000006044820152606401610968565b600081600101548260030154846111fc91906135da565b61120691906135f9565b905061013054811080156112225750670de0b6b3a76400008110155b8061124257506101355460ff1680156112425750670de0b6b3a764000081105b6112a45760405162461bcd60e51b815260206004820152602d60248201527f575141756374696f6e3a2054686973206c6f74206973206e6f7420617661696c60448201526c61626c6520666f722073616c6560981b6064820152608401610968565b60058201849055600282015481906112c490670de0b6b3a76400006135da565b6112ce91906135f9565b6112d786610d0d565b6112e1908661361b565b10611356576040805162461bcd60e51b81526020600482015260248101919091527f575141756374696f6e3a20416d6f756e74206f6620746f6b656e73207075726360448201527f68617365642069732067726561746572207468616e206c6f7420616d6f756e746064820152608401610968565b600682018390556101335461136b904261361b565b600783015560088201805460ff1916600217905560068201546040805187815260208101879052908101919091527f44c53be110c6aa83aa83cd02e351ed172359268272ee1b5d31c0fe48db35c6c79060600160405180910390a150506001609755505050565b6000306001600160a01b037f000000000000000000000000000000000000000000000000000000000000000016146114725760405162461bcd60e51b815260206004820152603860248201527f555550535570677261646561626c653a206d757374206e6f742062652063616c60448201527f6c6564207468726f7567682064656c656761746563616c6c00000000000000006064820152608401610968565b50600080516020613a2d83398151915290565b600080610136838154811061149c5761149c6134af565b6000918252602090912060099091020190506002600882015460ff1660038111156114c9576114c961330b565b146115225760405162461bcd60e51b8152602060048201526024808201527f575141756374696f6e3a2054686973206c6f74206973206e6f742061756374696044820152631bdb995960e21b6064820152608401610968565b670de0b6b3a7640000611534826128e8565b61012f60009054906101000a90046001600160a01b03166001600160a01b031663313ce5676040518163ffffffff1660e01b815260040160206040518083038186803b15801561158357600080fd5b505afa158015611597573d6000803e3d6000fd5b505050506040513d601f19601f820116820180604052508101906115bb919061370c565b6115c690601261372f565b6115d190600a613836565b83600501546115e091906135da565b6115ea91906135da565b6115f491906135f9565b9392505050565b600080516020613a748339815191526116148133612557565b5061013155565b6002609754141561163e5760405162461bcd60e51b81526004016109689061355d565b60026097819055506000610136828154811061165c5761165c6134af565b6000918252602090912060099091020190506002600882015460ff1660038111156116895761168961330b565b146116d65760405162461bcd60e51b815260206004820152601f60248201527f575141756374696f6e3a204c6f74206973206e6f742061756374696f6e6564006044820152606401610968565b806007015442111561172a5760405162461bcd60e51b815260206004820152601f60248201527f575141756374696f6e3a2041756374696f6e2074696d65206973206f766572006044820152606401610968565b6000670de0b6b3a764000061173e836128e8565b61012f60009054906101000a90046001600160a01b03166001600160a01b031663313ce5676040518163ffffffff1660e01b815260040160206040518083038186803b15801561178d57600080fd5b505afa1580156117a1573d6000803e3d6000fd5b505050506040513d601f19601f820116820180604052508101906117c5919061370c565b6117d090601261372f565b6117db90600a613836565b84600501546117ea91906135da565b6117f491906135da565b6117fe91906135f9565b9050600061180b84610d0d565b9050600083600101548460030154856006015461182891906135da565b61183291906135f9565b90508360050154610134600082825461184b91906135aa565b9091555050600584015461186090839061361b565b84600201600082825461187391906135aa565b90915550506005840154600285015461188c91906135aa565b8460050154828660020154670de0b6b3a76400006118aa91906135da565b6118b491906135f9565b6118be91906135aa565b6118d090670de0b6b3a76400006135da565b6118da91906135f9565b6003850181905561012e54600586015461012f54604080516395d89b4160e01b815290516001600160a01b0394851695633e1bb03a9533958d958c9591948c9493909116916395d89b41916004808301926000929190829003018186803b15801561194457600080fd5b505afa158015611958573d6000803e3d6000fd5b505050506040513d6000823e601f3d908101601f19168201604052611980919081019061365f565b6040518863ffffffff1660e01b81526004016119a29796959493929190613845565b600060405180830381600087803b1580156119bc57600080fd5b505af11580156119d0573d6000803e3d6000fd5b505050600585015460408051888152602081019290925281018590527fdcbbffeefd7d789c21429b616a74a46f1b4768145c7bebdd7bc2de50230779b1915060600160405180910390a150506000600583015550600801805460ff1916600190811790915560975550565b60026097541415611a5e5760405162461bcd60e51b81526004016109689061355d565b60026097556000805160206139ed833981519152611a7c8133612557565b50610135805460ff191690556001609755565b600080516020613a74833981519152611aa88133612557565b5061012d80546001600160a01b0319166001600160a01b0392909216919091179055565b61013654606090611ade9084906135aa565b821115611af75761013654611af49084906135aa565b91505b8167ffffffffffffffff811115611b1057611b106131e9565b604051908082528060200260200182016040528015611b4957816020015b611b36613076565b815260200190600190039081611b2e5790505b50905060005b82811015611c4f57610136611b64828661361b565b81548110611b7457611b746134af565b60009182526020918290206040805161012081018252600990930290910180546001600160a01b03168352600181015493830193909352600283015490820152600380830154606083015260048301546080830152600583015460a0830152600683015460c0830152600783015460e0830152600883015491929161010084019160ff90911690811115611c0a57611c0a61330b565b6003811115611c1b57611c1b61330b565b81525050828281518110611c3157611c316134af565b60200260200101819052508080611c4790613891565b915050611b4f565b5092915050565b60009182526065602090815260408084206001600160a01b0393909316845291905290205460ff1690565b60006101368281548110611c9757611c976134af565b6000918252602090912060099091020190506002600882015460ff166003811115611cc457611cc461330b565b14611d115760405162461bcd60e51b815260206004820152601f60248201527f575141756374696f6e3a204c6f74206973206e6f742061756374696f6e6564006044820152606401610968565b80600701544211611d745760405162461bcd60e51b815260206004820152602760248201527f575141756374696f6e3a2041756374696f6e2074696d65206973206e6f74206f6044820152661d995c881e595d60ca1b6064820152608401610968565b80600501546101346000828254611d8b91906135aa565b9091555050600060058201819055600682018190556007820181905560088201805460ff191660011790556040805184815260208101839052908101919091527ff49dbfcc40079f59a911e2541cedaa7a9275ee6fdfb9349032eeb970ce60f57a9060600160405180910390a15050565b60006101368281548110611e1257611e126134af565b600091825260209091206008600990920201015460ff1660038111156108a7576108a761330b565b600080516020613a74833981519152611e538133612557565b5061013355565b60008061012f60009054906101000a90046001600160a01b03166001600160a01b03166395d89b416040518163ffffffff1660e01b815260040160006040518083038186803b158015611eac57600080fd5b505afa158015611ec0573d6000803e3d6000fd5b505050506040513d6000823e601f3d908101601f19168201604052611ee8919081019061365f565b9050600061012f60009054906101000a90046001600160a01b03166001600160a01b031663313ce5676040518163ffffffff1660e01b815260040160206040518083038186803b158015611f3b57600080fd5b505afa158015611f4f573d6000803e3d6000fd5b505050506040513d601f19601f82011682018060405250810190611f73919061370c565b611f7e90601261372f565b611f8990600a613836565b61012d54604051630292e0fd60e01b81529192506000916001600160a01b0390911690630292e0fd90611fc09086906004016136f9565b60206040518083038186803b158015611fd857600080fd5b505afa158015611fec573d6000803e3d6000fd5b505050506040513d601f19601f8201168201806040525081019061201091906135c1565b61012e54604051632ed4877d60e21b8152919250600091849184916001600160a01b039091169063bb521df49061204b9089906004016136f9565b60206040518083038186803b15801561206357600080fd5b505afa158015612077573d6000803e3d6000fd5b505050506040513d601f19601f8201168201806040525081019061209b91906135c1565b6120a591906135da565b6120af91906135da565b61012e54604051638c1e06f160e01b81529192506000916001600160a01b0390911690638c1e06f1906120e69088906004016136f9565b60206040518083038186803b1580156120fe57600080fd5b505afa158015612112573d6000803e3d6000fd5b505050506040513d601f19601f8201168201806040525081019061213691906135c1565b9050806101305461214791906135da565b82108015612165575061216281670de0b6b3a76400006135da565b82115b156121a657826121768360026135da565b612188836729a2241af62c00006135da565b61219291906135aa565b61219c91906135f9565b9550505050505090565b60009550505050505090565b61012e546000906001600160a01b031633146121e05760405162461bcd60e51b8152600401610968906138ac565b8261013685815481106121f5576121f56134af565b90600052602060002090600902016001018190555081610136858154811061221f5761221f6134af565b6000918252602090912060099091020160020155509192915050565b600080516020613a748339815191526122548133612557565b5061012e80546001600160a01b0319166001600160a01b0392909216919091179055565b600080516020613a748339815191526122918133612557565b5061013055565b61012e546000906001600160a01b031633146122c65760405162461bcd60e51b8152600401610968906138ac565b610136604051806101200160405280876001600160a01b03168152602001868152602001858152602001848152602001428152602001600081526020016000815260200160008152602001600160038111156123245761232461330b565b90528154600180820184556000938452602093849020835160099093020180546001600160a01b0319166001600160a01b0390931692909217825592820151818401556040820151600282015560608201516003808301919091556080830151600483015560a0830151600583015560c0830151600683015560e08301516007830155610100830151600883018054949593949193909260ff199092169184908111156123d3576123d361330b565b021790555050610136546123ea91506001906135aa565b95945050505050565b61012e546000906001600160a01b031633146124215760405162461bcd60e51b8152600401610968906138ac565b816101368481548110612436576124366134af565b9060005260206000209060090201600201600082825461245691906135aa565b9250508190555060006101368481548110612473576124736134af565b906000526020600020906009020160020154905080600014156115f4576115f484612976565b6000828152606560205260409020600101546124b58133612557565b610b1c83836126ee565b600080516020613a748339815191526124d88133612557565b5061013255565b61013681815481106124f057600080fd5b60009182526020909120600990910201805460018201546002830154600384015460048501546005860154600687015460078801546008909801546001600160a01b0390971698509496939592949193909260ff1689565b6001600160a01b03163b151590565b6125618282611c56565b610b9b57612579816001600160a01b03166014612c86565b612584836020612c86565b6040516020016125959291906138e3565b60408051601f198184030181529082905262461bcd60e51b8252610968916004016136f9565b600054610100900460ff166125e25760405162461bcd60e51b815260040161096890613958565b565b600054610100900460ff1661260b5760405162461bcd60e51b815260040161096890613958565b6125e2612e22565b610b9b8282612668565b600082815260656020526040808220600101805490849055905190918391839186917fbd79b86ffe0ab8e8776151514217cd7cacd52c909f66475c3af44e129f0b00ff9190a4505050565b6126728282611c56565b610b9b5760008281526065602090815260408083206001600160a01b03851684529091529020805460ff191660011790556126aa3390565b6001600160a01b0316816001600160a01b0316837f2f8788117e7eff1d82e926ec794901d17c78024a50270940304540a733656f0d60405160405180910390a45050565b6126f88282611c56565b15610b9b5760008281526065602090815260408083206001600160a01b0385168085529252808320805460ff1916905551339285917ff6391f5c32d9c69d2a47ea670b442974b53935d1edc7fd64eb21e047a839171b9190a45050565b600080516020613a0d833981519152610b9b8133612557565b7f4910fdfa16fed3260ed0e7147f7cc6da11a60208b5b9406d12a635614ffd91435460ff16156127a157610b1c83612e50565b826001600160a01b03166352d1902d6040518163ffffffff1660e01b815260040160206040518083038186803b1580156127da57600080fd5b505afa92505050801561280a575060408051601f3d908101601f19168201909252612807918101906135c1565b60015b61286d5760405162461bcd60e51b815260206004820152602e60248201527f45524331393637557067726164653a206e657720696d706c656d656e7461746960448201526d6f6e206973206e6f74205555505360901b6064820152608401610968565b600080516020613a2d83398151915281146128dc5760405162461bcd60e51b815260206004820152602960248201527f45524331393637557067726164653a20756e737570706f727465642070726f786044820152681a58589b195555525160ba1b6064820152608401610968565b50610b1c838383612eec565b6000670de0b6b3a7640000610133548360060154610132546101315461290e91906135aa565b42866007015461291e91906135aa565b61292891906135da565b61293291906135da565b61293c91906135f9565b61294691906135f9565b670de0b6b3a764000061013254846006015461296291906135da565b61296c91906135f9565b6108a7919061361b565b61013654600090612989906001906135aa565b9050818114612b305761012e5461013680546001600160a01b03909216916359880b959190849081106129be576129be6134af565b600091825260209091206009909102015461013680546001600160a01b0390921691859081106129f0576129f06134af565b9060005260206000209060090201600201546101368581548110612a1657612a166134af565b9060005260206000209060090201600101546101368681548110612a3c57612a3c6134af565b906000526020600020906009020160030154868861012f60009054906101000a90046001600160a01b03166001600160a01b03166395d89b416040518163ffffffff1660e01b815260040160006040518083038186803b158015612a9f57600080fd5b505afa158015612ab3573d6000803e3d6000fd5b505050506040513d6000823e601f3d908101601f19168201604052612adb919081019061365f565b6040518863ffffffff1660e01b8152600401612afd9796959493929190613845565b600060405180830381600087803b158015612b1757600080fd5b505af1158015612b2b573d6000803e3d6000fd5b505050505b6101368181548110612b4457612b446134af565b90600052602060002090600902016101368381548110612b6657612b666134af565b60009182526020909120825460099092020180546001600160a01b0319166001600160a01b0390921691909117815560018083015481830155600280840154908301556003808401548184015560048085015490840155600580850154908401556006808501549084015560078085015490840155600880850154908401805460ff90921693909260ff19909216918490811115612c0657612c0661330b565b0217905550905050610136805480612c2057612c206139a3565b60008281526020812060096000199093019283020180546001600160a01b03191681556001810182905560028101829055600381018290556004810182905560058101829055600681018290556007810191909155600801805460ff1916905590555050565b60606000612c958360026135da565b612ca090600261361b565b67ffffffffffffffff811115612cb857612cb86131e9565b6040519080825280601f01601f191660200182016040528015612ce2576020820181803683370190505b509050600360fc1b81600081518110612cfd57612cfd6134af565b60200101906001600160f81b031916908160001a905350600f60fb1b81600181518110612d2c57612d2c6134af565b60200101906001600160f81b031916908160001a9053506000612d508460026135da565b612d5b90600161361b565b90505b6001811115612dd3576f181899199a1a9b1b9c1cb0b131b232b360811b85600f1660108110612d8f57612d8f6134af565b1a60f81b828281518110612da557612da56134af565b60200101906001600160f81b031916908160001a90535060049490941c93612dcc816139b9565b9050612d5e565b5083156115f45760405162461bcd60e51b815260206004820181905260248201527f537472696e67733a20686578206c656e67746820696e73756666696369656e746044820152606401610968565b600054610100900460ff16612e495760405162461bcd60e51b815260040161096890613958565b6001609755565b6001600160a01b0381163b612ebd5760405162461bcd60e51b815260206004820152602d60248201527f455243313936373a206e657720696d706c656d656e746174696f6e206973206e60448201526c1bdd08184818dbdb9d1c9858dd609a1b6064820152608401610968565b600080516020613a2d83398151915280546001600160a01b0319166001600160a01b0392909216919091179055565b612ef583612f17565b600082511180612f025750805b15610b1c57612f118383612f57565b50505050565b612f2081612e50565b6040516001600160a01b038216907fbc7cd75a20ee27fd9adebab32041f755214dbc6bffa90cc0225b39da2e5c2d3b90600090a250565b60606001600160a01b0383163b612fbf5760405162461bcd60e51b815260206004820152602660248201527f416464726573733a2064656c65676174652063616c6c20746f206e6f6e2d636f6044820152651b9d1c9858dd60d21b6064820152608401610968565b600080846001600160a01b031684604051612fda91906139d0565b600060405180830381855af49150503d8060008114613015576040519150601f19603f3d011682016040523d82523d6000602084013e61301a565b606091505b50915091506123ea8282604051806060016040528060278152602001613a4d602791396060831561304c5750816115f4565b82511561305c5782518084602001fd5b8160405162461bcd60e51b815260040161096891906136f9565b60405180610120016040528060006001600160a01b0316815260200160008152602001600081526020016000815260200160008152602001600081526020016000815260200160008152602001600060038111156130d6576130d661330b565b905290565b6000602082840312156130ed57600080fd5b81356001600160e01b0319811681146115f457600080fd5b80356001600160a01b038116811461311c57600080fd5b919050565b60006020828403121561313357600080fd5b6115f482613105565b60006020828403121561314e57600080fd5b5035919050565b600080600080600080600060e0888a03121561317057600080fd5b61317988613105565b965061318760208901613105565b955061319560408901613105565b969995985095966060810135965060808101359560a0820135955060c0909101359350915050565b600080604083850312156131d057600080fd5b823591506131e060208401613105565b90509250929050565b634e487b7160e01b600052604160045260246000fd5b604051601f8201601f1916810167ffffffffffffffff81118282101715613228576132286131e9565b604052919050565b600067ffffffffffffffff82111561324a5761324a6131e9565b50601f01601f191660200190565b6000806040838503121561326b57600080fd5b61327483613105565b9150602083013567ffffffffffffffff81111561329057600080fd5b8301601f810185136132a157600080fd5b80356132b46132af82613230565b6131ff565b8181528660208385010111156132c957600080fd5b816020840160208301376000602083830101528093505050509250929050565b600080604083850312156132fc57600080fd5b50508035926020909101359150565b634e487b7160e01b600052602160045260246000fd5b6004811061333f57634e487b7160e01b600052602160045260246000fd5b9052565b602080825282518282018190526000919060409081850190868401855b828110156133e357815180516001600160a01b0316855286810151878601528581015186860152606080820151908601526080808201519086015260a0808201519086015260c0808201519086015260e0808201519086015261010090810151906133cd81870183613321565b5050610120939093019290850190600101613360565b5091979650505050505050565b60008060006060848603121561340557600080fd5b505081359360208301359350604090920135919050565b6000806000806080858703121561343257600080fd5b61343b85613105565b966020860135965060408601359560600135945092505050565b60006101208201905060018060a01b038b1682528960208301528860408301528760608301528660808301528560a08301528460c08301528360e08301526134a1610100830184613321565b9a9950505050505050505050565b634e487b7160e01b600052603260045260246000fd5b6020808252602c908201527f46756e6374696f6e206d7573742062652063616c6c6564207468726f7567682060408201526b19195b1959d85d1958d85b1b60a21b606082015260800190565b6020808252602c908201527f46756e6374696f6e206d7573742062652063616c6c6564207468726f7567682060408201526b6163746976652070726f787960a01b606082015260800190565b6020808252601f908201527f5265656e7472616e637947756172643a207265656e7472616e742063616c6c00604082015260600190565b634e487b7160e01b600052601160045260246000fd5b6000828210156135bc576135bc613594565b500390565b6000602082840312156135d357600080fd5b5051919050565b60008160001904831182151516156135f4576135f4613594565b500290565b60008261361657634e487b7160e01b600052601260045260246000fd5b500490565b6000821982111561362e5761362e613594565b500190565b60005b8381101561364e578181015183820152602001613636565b83811115612f115750506000910152565b60006020828403121561367157600080fd5b815167ffffffffffffffff81111561368857600080fd5b8201601f8101841361369957600080fd5b80516136a76132af82613230565b8181528560208385010111156136bc57600080fd5b6123ea826020830160208601613633565b600081518084526136e5816020860160208601613633565b601f01601f19169290920160200192915050565b6020815260006115f460208301846136cd565b60006020828403121561371e57600080fd5b815160ff811681146115f457600080fd5b600060ff821660ff84168082101561374957613749613594565b90039392505050565b600181815b8085111561378d57816000190482111561377357613773613594565b8085161561378057918102915b93841c9390800290613757565b509250929050565b6000826137a4575060016108a7565b816137b1575060006108a7565b81600181146137c757600281146137d1576137ed565b60019150506108a7565b60ff8411156137e2576137e2613594565b50506001821b6108a7565b5060208310610133831016604e8410600b8410161715613810575081810a6108a7565b61381a8383613752565b806000190482111561382e5761382e613594565b029392505050565b60006115f460ff841683613795565b60018060a01b03881681528660208201528560408201528460608201528360808201528260a082015260e060c0820152600061388460e08301846136cd565b9998505050505050505050565b60006000198214156138a5576138a5613594565b5060010190565b6020808252601f908201527f575141756374696f6e3a2053656e646572206973206e6f7420726f7574657200604082015260600190565b7f416363657373436f6e74726f6c3a206163636f756e742000000000000000000081526000835161391b816017850160208801613633565b7001034b99036b4b9b9b4b733903937b6329607d1b601791840191820152835161394c816028840160208801613633565b01602801949350505050565b6020808252602b908201527f496e697469616c697a61626c653a20636f6e7472616374206973206e6f74206960408201526a6e697469616c697a696e6760a81b606082015260800190565b634e487b7160e01b600052603160045260246000fd5b6000816139c8576139c8613594565b506000190190565b600082516139e2818460208701613633565b919091019291505056fed8a7a79547af723ee3e12b59a480111268d8969c634e1a34a144d2c8b91d635b189ab7a9244df0848122154315af71fe140f3db0fe014031783b0946b8c9d2e3360894a13ba1a3210667c828492db98dca3e2076cc3735a920a3ca505d382bbc416464726573733a206c6f772d6c6576656c2064656c65676174652063616c6c206661696c6564a49807205ce4d355092ef5a8a18f56e8913cf4a201fbe287825b095693c21775a2646970667358221220df3bbec5263df4237a715090bf9057b28d32fc051356146bb317d1192ec8a62b64736f6c63430008090033",
  "linkReferences": {},
  "deployedLinkReferences": {}
}