{
  "_format": "hh-sol-artifact-1",
  "contractName": "WQRouter",
  "sourceName": "contracts/stablecoin/WQRouter.sol",
  "abi": [
    {
      "inputs": [],
      "stateMutability": "nonpayable",
      "type": "constructor"
    },
    {
      "anonymous": false,
      "inputs": [
        {
          "indexed": false,
          "internalType": "address",
          "name": "previousAdmin",
          "type": "address"
        },
        {
          "indexed": false,
          "internalType": "address",
          "name": "newAdmin",
          "type": "address"
        }
      ],
      "name": "AdminChanged",
      "type": "event"
    },
    {
      "anonymous": false,
      "inputs": [
        {
          "indexed": true,
          "internalType": "address",
          "name": "beacon",
          "type": "address"
        }
      ],
      "name": "BeaconUpgraded",
      "type": "event"
    },
    {
      "anonymous": false,
      "inputs": [
        {
          "indexed": false,
          "internalType": "uint256",
          "name": "collateral",
          "type": "uint256"
        },
        {
          "indexed": false,
          "internalType": "uint256",
          "name": "debt",
          "type": "uint256"
        },
        {
          "indexed": false,
          "internalType": "uint256",
          "name": "price",
          "type": "uint256"
        },
        {
          "indexed": false,
          "internalType": "uint256",
          "name": "index",
          "type": "uint256"
        },
        {
          "indexed": false,
          "internalType": "uint256",
          "name": "newIndex",
          "type": "uint256"
        },
        {
          "indexed": false,
          "internalType": "uint8",
          "name": "status",
          "type": "uint8"
        },
        {
          "indexed": false,
          "internalType": "string",
          "name": "symbol",
          "type": "string"
        }
      ],
      "name": "Moved",
      "type": "event"
    },
    {
      "anonymous": false,
      "inputs": [
        {
          "indexed": false,
          "internalType": "address",
          "name": "user",
          "type": "address"
        },
        {
          "indexed": false,
          "internalType": "uint256",
          "name": "collateral",
          "type": "uint256"
        },
        {
          "indexed": false,
          "internalType": "uint256",
          "name": "ratio",
          "type": "uint256"
        },
        {
          "indexed": false,
          "internalType": "uint256",
          "name": "debt",
          "type": "uint256"
        },
        {
          "indexed": false,
          "internalType": "uint256",
          "name": "price",
          "type": "uint256"
        },
        {
          "indexed": false,
          "internalType": "uint256",
          "name": "index",
          "type": "uint256"
        },
        {
          "indexed": false,
          "internalType": "string",
          "name": "symbol",
          "type": "string"
        }
      ],
      "name": "Produced",
      "type": "event"
    },
    {
      "anonymous": false,
      "inputs": [
        {
          "indexed": false,
          "internalType": "uint256",
          "name": "amount",
          "type": "uint256"
        }
      ],
      "name": "Received",
      "type": "event"
    },
    {
      "anonymous": false,
      "inputs": [
        {
          "indexed": false,
          "internalType": "address",
          "name": "user",
          "type": "address"
        },
        {
          "indexed": false,
          "internalType": "uint256",
          "name": "collateral",
          "type": "uint256"
        },
        {
          "indexed": false,
          "internalType": "uint256",
          "name": "debt",
          "type": "uint256"
        },
        {
          "indexed": false,
          "internalType": "uint256",
          "name": "price",
          "type": "uint256"
        },
        {
          "indexed": false,
          "internalType": "uint256",
          "name": "ratio",
          "type": "uint256"
        },
        {
          "indexed": false,
          "internalType": "uint256",
          "name": "index",
          "type": "uint256"
        },
        {
          "indexed": false,
          "internalType": "string",
          "name": "symbol",
          "type": "string"
        }
      ],
      "name": "Removed",
      "type": "event"
    },
    {
      "anonymous": false,
      "inputs": [
        {
          "indexed": true,
          "internalType": "bytes32",
          "name": "role",
          "type": "bytes32"
        },
        {
          "indexed": true,
          "internalType": "bytes32",
          "name": "previousAdminRole",
          "type": "bytes32"
        },
        {
          "indexed": true,
          "internalType": "bytes32",
          "name": "newAdminRole",
          "type": "bytes32"
        }
      ],
      "name": "RoleAdminChanged",
      "type": "event"
    },
    {
      "anonymous": false,
      "inputs": [
        {
          "indexed": true,
          "internalType": "bytes32",
          "name": "role",
          "type": "bytes32"
        },
        {
          "indexed": true,
          "internalType": "address",
          "name": "account",
          "type": "address"
        },
        {
          "indexed": true,
          "internalType": "address",
          "name": "sender",
          "type": "address"
        }
      ],
      "name": "RoleGranted",
      "type": "event"
    },
    {
      "anonymous": false,
      "inputs": [
        {
          "indexed": true,
          "internalType": "bytes32",
          "name": "role",
          "type": "bytes32"
        },
        {
          "indexed": true,
          "internalType": "address",
          "name": "account",
          "type": "address"
        },
        {
          "indexed": true,
          "internalType": "address",
          "name": "sender",
          "type": "address"
        }
      ],
      "name": "RoleRevoked",
      "type": "event"
    },
    {
      "anonymous": false,
      "inputs": [
        {
          "indexed": true,
          "internalType": "address",
          "name": "implementation",
          "type": "address"
        }
      ],
      "name": "Upgraded",
      "type": "event"
    },
    {
      "inputs": [],
      "name": "ADMIN_ROLE",
      "outputs": [
        {
          "internalType": "bytes32",
          "name": "",
          "type": "bytes32"
        }
      ],
      "stateMutability": "view",
      "type": "function"
    },
    {
      "inputs": [],
      "name": "DEFAULT_ADMIN_ROLE",
      "outputs": [
        {
          "internalType": "bytes32",
          "name": "",
          "type": "bytes32"
        }
      ],
      "stateMutability": "view",
      "type": "function"
    },
    {
      "inputs": [],
      "name": "UPGRADER_ROLE",
      "outputs": [
        {
          "internalType": "bytes32",
          "name": "",
          "type": "bytes32"
        }
      ],
      "stateMutability": "view",
      "type": "function"
    },
    {
      "inputs": [
        {
          "internalType": "uint256",
          "name": "index",
          "type": "uint256"
        },
        {
          "internalType": "string",
          "name": "symbol",
          "type": "string"
        }
      ],
      "name": "addCollateral",
      "outputs": [],
      "stateMutability": "nonpayable",
      "type": "function"
    },
    {
      "inputs": [
        {
          "internalType": "address",
          "name": "buyer",
          "type": "address"
        },
        {
          "internalType": "uint256",
          "name": "index",
          "type": "uint256"
        },
        {
          "internalType": "uint256",
          "name": "debtAmount",
          "type": "uint256"
        },
        {
          "internalType": "uint256",
          "name": "collateralAmount",
          "type": "uint256"
        },
        {
          "internalType": "uint256",
          "name": "comission",
          "type": "uint256"
        },
        {
          "internalType": "string",
          "name": "symbol",
          "type": "string"
        }
      ],
      "name": "buyCollateral",
      "outputs": [],
      "stateMutability": "nonpayable",
      "type": "function"
    },
    {
      "inputs": [
        {
          "internalType": "uint256",
          "name": "index",
          "type": "uint256"
        },
        {
          "internalType": "string",
          "name": "symbol",
          "type": "string"
        }
      ],
      "name": "claimExtraDebt",
      "outputs": [],
      "stateMutability": "nonpayable",
      "type": "function"
    },
    {
      "inputs": [
        {
          "internalType": "uint256",
          "name": "index",
          "type": "uint256"
        },
        {
          "internalType": "string",
          "name": "symbol",
          "type": "string"
        }
      ],
      "name": "disposeDebt",
      "outputs": [],
      "stateMutability": "nonpayable",
      "type": "function"
    },
    {
      "inputs": [
        {
          "internalType": "string",
          "name": "symbol",
          "type": "string"
        }
      ],
      "name": "getCollateral",
      "outputs": [
        {
          "internalType": "uint256",
          "name": "amount",
          "type": "uint256"
        }
      ],
      "stateMutability": "view",
      "type": "function"
    },
    {
      "inputs": [
        {
          "internalType": "string",
          "name": "symbol",
          "type": "string"
        }
      ],
      "name": "getDebt",
      "outputs": [
        {
          "internalType": "uint256",
          "name": "amount",
          "type": "uint256"
        }
      ],
      "stateMutability": "view",
      "type": "function"
    },
    {
      "inputs": [],
      "name": "getParams",
      "outputs": [
        {
          "internalType": "contract WQPriceOracleInterface",
          "name": "",
          "type": "address"
        },
        {
          "internalType": "contract WQBridgeTokenInterface",
          "name": "",
          "type": "address"
        }
      ],
      "stateMutability": "view",
      "type": "function"
    },
    {
      "inputs": [
        {
          "internalType": "bytes32",
          "name": "role",
          "type": "bytes32"
        }
      ],
      "name": "getRoleAdmin",
      "outputs": [
        {
          "internalType": "bytes32",
          "name": "",
          "type": "bytes32"
        }
      ],
      "stateMutability": "view",
      "type": "function"
    },
    {
      "inputs": [
        {
          "internalType": "address",
          "name": "user",
          "type": "address"
        },
        {
          "internalType": "uint256",
          "name": "offset",
          "type": "uint256"
        },
        {
          "internalType": "uint256",
          "name": "limit",
          "type": "uint256"
        },
        {
          "internalType": "string",
          "name": "symbol",
          "type": "string"
        }
      ],
      "name": "getUserLots",
      "outputs": [
        {
          "internalType": "uint256[]",
          "name": "page",
          "type": "uint256[]"
        }
      ],
      "stateMutability": "view",
      "type": "function"
    },
    {
      "inputs": [
        {
          "internalType": "bytes32",
          "name": "role",
          "type": "bytes32"
        },
        {
          "internalType": "address",
          "name": "account",
          "type": "address"
        }
      ],
      "name": "grantRole",
      "outputs": [],
      "stateMutability": "nonpayable",
      "type": "function"
    },
    {
      "inputs": [
        {
          "internalType": "bytes32",
          "name": "role",
          "type": "bytes32"
        },
        {
          "internalType": "address",
          "name": "account",
          "type": "address"
        }
      ],
      "name": "hasRole",
      "outputs": [
        {
          "internalType": "bool",
          "name": "",
          "type": "bool"
        }
      ],
      "stateMutability": "view",
      "type": "function"
    },
    {
      "inputs": [
        {
          "internalType": "address",
          "name": "_oracle",
          "type": "address"
        },
        {
          "internalType": "address",
          "name": "_wusd",
          "type": "address"
        }
      ],
      "name": "initialize",
      "outputs": [],
      "stateMutability": "nonpayable",
      "type": "function"
    },
    {
      "inputs": [
        {
          "internalType": "address",
          "name": "user",
          "type": "address"
        },
        {
          "internalType": "uint256",
          "name": "collateral",
          "type": "uint256"
        },
        {
          "internalType": "uint256",
          "name": "price",
          "type": "uint256"
        },
        {
          "internalType": "uint256",
          "name": "collateralRatio",
          "type": "uint256"
        },
        {
          "internalType": "uint256",
          "name": "index",
          "type": "uint256"
        },
        {
          "internalType": "uint256",
          "name": "newIndex",
          "type": "uint256"
        },
        {
          "internalType": "string",
          "name": "symbol",
          "type": "string"
        }
      ],
      "name": "moveUserLot",
      "outputs": [],
      "stateMutability": "nonpayable",
      "type": "function"
    },
    {
      "inputs": [
        {
          "internalType": "uint256",
          "name": "collateralAmount",
          "type": "uint256"
        },
        {
          "internalType": "uint256",
          "name": "collateralRatio",
          "type": "uint256"
        },
        {
          "internalType": "string",
          "name": "symbol",
          "type": "string"
        }
      ],
      "name": "produceWUSD",
      "outputs": [],
      "stateMutability": "nonpayable",
      "type": "function"
    },
    {
      "inputs": [],
      "name": "proxiableUUID",
      "outputs": [
        {
          "internalType": "bytes32",
          "name": "",
          "type": "bytes32"
        }
      ],
      "stateMutability": "view",
      "type": "function"
    },
    {
      "inputs": [
        {
          "internalType": "uint256",
          "name": "index",
          "type": "uint256"
        },
        {
          "internalType": "uint256",
          "name": "debtPart",
          "type": "uint256"
        },
        {
          "internalType": "string",
          "name": "symbol",
          "type": "string"
        }
      ],
      "name": "removeCollateral",
      "outputs": [],
      "stateMutability": "nonpayable",
      "type": "function"
    },
    {
      "inputs": [
        {
          "internalType": "bytes32",
          "name": "role",
          "type": "bytes32"
        },
        {
          "internalType": "address",
          "name": "account",
          "type": "address"
        }
      ],
      "name": "renounceRole",
      "outputs": [],
      "stateMutability": "nonpayable",
      "type": "function"
    },
    {
      "inputs": [
        {
          "internalType": "bytes32",
          "name": "role",
          "type": "bytes32"
        },
        {
          "internalType": "address",
          "name": "account",
          "type": "address"
        }
      ],
      "name": "revokeRole",
      "outputs": [],
      "stateMutability": "nonpayable",
      "type": "function"
    },
    {
      "inputs": [
        {
          "internalType": "address",
          "name": "_oracle",
          "type": "address"
        },
        {
          "internalType": "address",
          "name": "_wusd",
          "type": "address"
        }
      ],
      "name": "setContracts",
      "outputs": [],
      "stateMutability": "nonpayable",
      "type": "function"
    },
    {
      "inputs": [
        {
          "internalType": "bool",
          "name": "enabled",
          "type": "bool"
        },
        {
          "internalType": "address",
          "name": "token",
          "type": "address"
        },
        {
          "internalType": "address",
          "name": "auction",
          "type": "address"
        },
        {
          "internalType": "uint256",
          "name": "minRatio",
          "type": "uint256"
        },
        {
          "internalType": "string",
          "name": "symbol",
          "type": "string"
        }
      ],
      "name": "setToken",
      "outputs": [],
      "stateMutability": "nonpayable",
      "type": "function"
    },
    {
      "inputs": [
        {
          "internalType": "bytes4",
          "name": "interfaceId",
          "type": "bytes4"
        }
      ],
      "name": "supportsInterface",
      "outputs": [
        {
          "internalType": "bool",
          "name": "",
          "type": "bool"
        }
      ],
      "stateMutability": "view",
      "type": "function"
    },
    {
      "inputs": [
        {
          "internalType": "address",
          "name": "user",
          "type": "address"
        },
        {
          "internalType": "uint256",
          "name": "index",
          "type": "uint256"
        },
        {
          "internalType": "string",
          "name": "symbol",
          "type": "string"
        }
      ],
      "name": "syncState",
      "outputs": [],
      "stateMutability": "nonpayable",
      "type": "function"
    },
    {
      "inputs": [
        {
          "internalType": "string",
          "name": "",
          "type": "string"
        }
      ],
      "name": "tokens",
      "outputs": [
        {
          "internalType": "uint256",
          "name": "totalCollateral",
          "type": "uint256"
        },
        {
          "internalType": "uint256",
          "name": "totalDebt",
          "type": "uint256"
        },
        {
          "internalType": "address",
          "name": "token",
          "type": "address"
        },
        {
          "internalType": "contract WQCollateralAuction",
          "name": "collateralAuction",
          "type": "address"
        },
        {
          "internalType": "uint256",
          "name": "minRatio",
          "type": "uint256"
        },
        {
          "internalType": "bool",
          "name": "enabled",
          "type": "bool"
        }
      ],
      "stateMutability": "view",
      "type": "function"
    },
    {
      "inputs": [
        {
          "internalType": "address",
          "name": "newImplementation",
          "type": "address"
        }
      ],
      "name": "upgradeTo",
      "outputs": [],
      "stateMutability": "nonpayable",
      "type": "function"
    },
    {
      "inputs": [
        {
          "internalType": "address",
          "name": "newImplementation",
          "type": "address"
        },
        {
          "internalType": "bytes",
          "name": "data",
          "type": "bytes"
        }
      ],
      "name": "upgradeToAndCall",
      "outputs": [],
      "stateMutability": "payable",
      "type": "function"
    },
    {
      "stateMutability": "payable",
      "type": "receive"
    }
  ],
  "bytecode": "0x60a0604052306080523480156200001557600080fd5b50600054610100900460ff16620000335760005460ff16156200003d565b6200003d620000e2565b620000a55760405162461bcd60e51b815260206004820152602e60248201527f496e697469616c697a61626c653a20636f6e747261637420697320616c72656160448201526d191e481a5b9a5d1a585b1a5e995960921b606482015260840160405180910390fd5b600054610100900460ff16158015620000c8576000805461ffff19166101011790555b8015620000db576000805461ff00191690555b506200010f565b6000620000fa306200010060201b620039bd1760201c565b15905090565b6001600160a01b03163b151590565b608051615bfb62000147600039600081816117a2015281816117e5015281816120a8015281816120eb01526121830152615bfb6000f3fe608060405260043610620001df5760003560e01c806375b238fc11620000ff578063a217fddf1162000095578063d8952a49116200006c578063d8952a49146200063e578063e19af8211462000663578063e1cc246a1462000688578063f72c0d8b14620006bc57600080fd5b8063a217fddf14620005dd578063bb521df414620005f4578063d547741f146200061957600080fd5b80638701c54211620000d65780638701c54214620005495780638c1e06f1146200056e57806391d14854146200059357806397bcbf4014620005b857600080fd5b806375b238fc14620004da5780637b59bd5514620004ff5780637d2bda96146200052457600080fd5b80633659cfe611620001755780634f1ef286116200014c5780634f1ef286146200044f57806352d1902d146200046657806359880b95146200047e5780635e615a6b14620004a357600080fd5b80633659cfe614620003e05780634493edd71462000405578063485cc955146200042a57600080fd5b8063248a9ca311620001b6578063248a9ca3146200032e5780632f2ff15d146200037157806331318511146200039657806336568abe14620003bb57600080fd5b806301ffc9a7146200021f57806304c2320b1462000259578063198a0ac0146200030757600080fd5b366200021a576040513481527fa8142743f8f70a4c26f3691cf4ed59718381fb2f18070ec52be1f1022d8555579060200160405180910390a1005b600080fd5b3480156200022c57600080fd5b50620002446200023e366004620046bd565b620006e1565b60405190151581526020015b60405180910390f35b3480156200026657600080fd5b50620002ca620002783660046200479e565b80518082016020908101805161012f82529282019190930120915280546001820154600283015460038401546004850154600590950154939492936001600160a01b0392831693919092169160ff1686565b6040805196875260208701959095526001600160a01b0393841694860194909452911660608401526080830152151560a082015260c00162000250565b3480156200031457600080fd5b506200032c6200032636600462004821565b62000719565b005b3480156200033b57600080fd5b50620003626200034d36600462004877565b60009081526065602052604090206001015490565b60405190815260200162000250565b3480156200037e57600080fd5b506200032c62000390366004620048a7565b62001129565b348015620003a357600080fd5b506200032c620003b5366004620048da565b62001158565b348015620003c857600080fd5b506200032c620003da366004620048a7565b62001715565b348015620003ed57600080fd5b506200032c620003ff36600462004929565b62001797565b3480156200041257600080fd5b506200032c6200042436600462004821565b62001883565b3480156200043757600080fd5b506200032c6200044936600462004949565b62001f20565b6200032c620004603660046200497c565b6200209d565b3480156200047357600080fd5b506200036262002176565b3480156200048b57600080fd5b506200032c6200049d366004620049e6565b6200222c565b348015620004b057600080fd5b5061012d5461012e54604080516001600160a01b0393841681529290911660208301520162000250565b348015620004e757600080fd5b506200036260008051602062005b8683398151915281565b3480156200050c57600080fd5b506200032c6200051e36600462004a6b565b62002426565b3480156200053157600080fd5b506200032c62000543366004620048da565b62002492565b3480156200055657600080fd5b506200032c6200056836600462004ab2565b62002a78565b3480156200057b57600080fd5b50620003626200058d36600462004b2c565b6200308e565b348015620005a057600080fd5b5062000244620005b2366004620048a7565b620030bf565b348015620005c557600080fd5b506200032c620005d7366004620048da565b620030ea565b348015620005ea57600080fd5b5062000362600081565b3480156200060157600080fd5b50620003626200061336600462004b2c565b620036d1565b3480156200062657600080fd5b506200032c62000638366004620048a7565b62003700565b3480156200064b57600080fd5b506200032c6200065d36600462004949565b6200372a565b3480156200067057600080fd5b506200032c6200068236600462004b80565b62003777565b3480156200069557600080fd5b50620006ad620006a736600462004c0e565b62003894565b60405162000250919062004c7d565b348015620006c957600080fd5b506200036260008051602062005b1f83398151915281565b60006001600160e01b03198216637965db0b60e01b14806200071357506301ffc9a760e01b6001600160e01b03198316145b92915050565b60026097541415620007485760405162461bcd60e51b81526004016200073f9062004cc3565b60405180910390fd5b6002609781905550818161012f82826040516200076792919062004cfa565b9081526040519081900360200190206005015460ff166200079c5760405162461bcd60e51b81526004016200073f9062004d0a565b620007a9868585620039cc565b600080600061012f8787604051620007c392919062004cfa565b90815260405190819003602001812060030154632f1b130360e01b82526001600160a01b031690632f1b13039062000803908c9060040190815260200190565b60606040518083038186803b1580156200081c57600080fd5b505afa15801562000831573d6000803e3d6000fd5b505050506040513d601f19601f8201168201806040525081019062000857919062004d41565b60405191955091935090915060019061012f9062000879908a908a9062004cfa565b90815260405190819003602001812060030154634cbf3e1b60e11b82526001600160a01b03169063997e7c3690620008b9908d9060040190815260200190565b60206040518083038186803b158015620008d257600080fd5b505afa158015620008e7573d6000803e3d6000fd5b505050506040513d601f19601f820116820180604052508101906200090d919062004d70565b60ff1614620009305760405162461bcd60e51b81526004016200073f9062004d95565b8061012f88886040516200094692919062004cfa565b90815260408051602092819003830181206002015463313ce56760e01b825291516001600160a01b039092169263313ce56792600480840193829003018186803b1580156200099457600080fd5b505afa158015620009a9573d6000803e3d6000fd5b505050506040513d601f19601f82011682018060405250810190620009cf919062004d70565b620009dc90601262004de2565b620009e990600a62004f05565b620009f5858562004f16565b62000a01919062004f16565b62000a0d919062004f38565b88111562000a7b5760405162461bcd60e51b815260206004820152603460248201527f5751526f757465723a2052656d6f7665642064656274207061727420697320676044820152731c99585d195c881d1a185b88185b1b081919589d60621b60648201526084016200073f565b600061012f888860405162000a9292919062004cfa565b90815260408051602092819003830181206002015463313ce56760e01b825291516001600160a01b039092169263313ce56792600480840193829003018186803b15801562000ae057600080fd5b505afa15801562000af5573d6000803e3d6000fd5b505050506040513d601f19601f8201168201806040525081019062000b1b919062004d70565b62000b2890601262004de2565b62000b3590600a62004f05565b8462000b42848c62004f16565b62000b4e919062004f38565b62000b5a919062004f38565b9050600061012f898960405162000b7392919062004cfa565b908152604051908190036020018120600301546390d070f360e01b82526001600160a01b0316906390d070f39062000bba908e908690600401918252602082015260400190565b60206040518083038186803b15801562000bd357600080fd5b505afa15801562000be8573d6000803e3d6000fd5b505050506040513d601f19601f8201168201806040525081019062000c0e919062004f5b565b90508961012f8a8a60405162000c2692919062004cfa565b9081526020016040518091039020600101600082825462000c48919062004f75565b925050819055508161012f8a8a60405162000c6592919062004cfa565b9081526020016040518091039020600001600082825462000c87919062004f75565b9250508190555060006101308a8a60405162000ca592919062004cfa565b90815260408051602092819003830190203360009081529252812080549092508491839162000cd690849062004f75565b92505081905550600061012f8b8b60405162000cf492919062004cfa565b9081526040519081900360200181206003015463d0896c5560e01b8252600482018f9052602482018690526001600160a01b03169063d0896c5590604401602060405180830381600087803b15801562000d4d57600080fd5b505af115801562000d62573d6000803e3d6000fd5b505050506040513d601f19601f8201168201806040525081019062000d88919062004f5b565b90508062000dd15762000dcf8d6101308d8d60405162000daa92919062004cfa565b9081526040805160209281900383019020336000908152925290206002019062003a59565b505b62000ddd848762004f75565b60018301549096506001600160a01b031663dbba0f013362000e00868862004f75565b61012f8f8f60405162000e1592919062004cfa565b908152604051908190036020018120600201546001600160e01b031960e086901b16825262000e559392916001600160a01b039091169060040162004f8f565b600060405180830381600087803b15801562000e7057600080fd5b505af115801562000e85573d6000803e3d6000fd5b50505060018301546040516001600160a01b03909116915063dbba0f019061012f9062000eb6908f908f9062004cfa565b908152602001604051809103902060030160009054906101000a90046001600160a01b03168561012f8f8f60405162000ef192919062004cfa565b908152604051908190036020018120600201546001600160e01b031960e086901b16825262000f319392916001600160a01b039091169060040162004f8f565b600060405180830381600087803b15801562000f4c57600080fd5b505af115801562000f61573d6000803e3d6000fd5b5050505061012e60009054906101000a90046001600160a01b03166001600160a01b0316639dc29fac338e6040518363ffffffff1660e01b815260040162000fbe9291906001600160a01b03929092168252602082015260400190565b600060405180830381600087803b15801562000fd957600080fd5b505af115801562000fee573d6000803e3d6000fd5b50505050505050507fcc3f3bf4ebb079856c31b44ccbec64a58ff9c3f04a8d8a846ee9e7c2e0e4c7e133838361012f8b8b6040516200102f92919062004cfa565b90815260408051602092819003830181206002015463313ce56760e01b825291516001600160a01b039092169263313ce56792600480840193829003018186803b1580156200107d57600080fd5b505afa15801562001092573d6000803e3d6000fd5b505050506040513d601f19601f82011682018060405250810190620010b8919062004d70565b620010c590601262004de2565b620010d290600a62004f05565b620010de888862004f16565b620010ea919062004f16565b620010f6919062004f38565b86858e8d8d6040516200111198979695949392919062004fdb565b60405180910390a15050600160975550505050505050565b60008281526065602052604090206001015462001147813362003a6e565b62001153838362003add565b505050565b600260975414156200117e5760405162461bcd60e51b81526004016200073f9062004cc3565b6002609781905550818161012f82826040516200119d92919062004cfa565b9081526040519081900360200190206005015460ff16620011d25760405162461bcd60e51b81526004016200073f9062004d0a565b620011df858585620039cc565b61012d54604051630292e0fd60e01b81526000916001600160a01b031690630292e0fd906200121590889088906004016200502b565b60206040518083038186803b1580156200122e57600080fd5b505afa15801562001243573d6000803e3d6000fd5b505050506040513d601f19601f8201168201806040525081019062001269919062004f5b565b9050600080600061012f88886040516200128592919062004cfa565b90815260405190819003602001812060030154632f1b130360e01b82526001600160a01b031690632f1b130390620012c5908c9060040190815260200190565b60606040518083038186803b158015620012de57600080fd5b505afa158015620012f3573d6000803e3d6000fd5b505050506040513d601f19601f8201168201806040525081019062001319919062004d41565b925092509250600160ff1661012f89896040516200133992919062004cfa565b90815260405190819003602001812060030154634cbf3e1b60e11b82526001600160a01b03169063997e7c369062001379908d9060040190815260200190565b60206040518083038186803b1580156200139257600080fd5b505afa158015620013a7573d6000803e3d6000fd5b505050506040513d601f19601f82011682018060405250810190620013cd919062004d70565b60ff1614620013f05760405162461bcd60e51b81526004016200073f9062004d95565b6000838562001400828662004f16565b6200140c919062004f38565b62001418919062004f75565b90508061012f8a8a6040516200143092919062004cfa565b9081526020016040518091039020600001600082825462001452919062005041565b92505081905550806101308a8a6040516200146f92919062004cfa565b90815260408051602092819003830190203360009081529252812080549091906200149c90849062005041565b909155505060405161012f90620014b7908b908b9062004cfa565b908152604051908190036020019020600301546001600160a01b031663b70a07ea8b87620014e6858962005041565b6040516001600160e01b031960e086901b168152600481019390935260248301919091526044820152606401602060405180830381600087803b1580156200152d57600080fd5b505af115801562001542573d6000803e3d6000fd5b505050506040513d601f19601f8201168201806040525081019062001568919062004f5b565b50620015e6336101308b8b6040516200158392919062004cfa565b908152604080519182900360209081018320336000908152915220600101546001600160a01b031690849061012f90620015c1908f908f9062004cfa565b908152604051908190036020019020600201546001600160a01b031692919062003b67565b60008051602062005ba683398151915262001602828662005041565b8361012f8c8c6040516200161892919062004cfa565b90815260408051602092819003830181206002015463313ce56760e01b825291516001600160a01b039092169263313ce56792600480840193829003018186803b1580156200166657600080fd5b505afa1580156200167b573d6000803e3d6000fd5b505050506040513d601f19601f82011682018060405250810190620016a1919062004d70565b620016ae90601262004de2565b620016bb90600a62004f05565b620016c7888862004f16565b620016d3919062004f16565b620016df919062004f38565b878d8e60028f8f604051620016fc9897969594939291906200505c565b60405180910390a1505060016097555050505050505050565b6001600160a01b0381163314620017875760405162461bcd60e51b815260206004820152602f60248201527f416363657373436f6e74726f6c3a2063616e206f6e6c792072656e6f756e636560448201526e103937b632b9903337b91039b2b63360891b60648201526084016200073f565b62001793828262003bc9565b5050565b306001600160a01b037f0000000000000000000000000000000000000000000000000000000000000000161415620017e35760405162461bcd60e51b81526004016200073f9062005099565b7f00000000000000000000000000000000000000000000000000000000000000006001600160a01b03166200182e60008051602062005b3f833981519152546001600160a01b031690565b6001600160a01b031614620018575760405162461bcd60e51b81526004016200073f90620050e5565b620018628162003c33565b60408051600080825260208201909252620018809183919062003c4f565b50565b60026097541415620018a95760405162461bcd60e51b81526004016200073f9062004cc3565b6002609781905550818161012f8282604051620018c892919062004cfa565b9081526040519081900360200190206005015460ff16620018fd5760405162461bcd60e51b81526004016200073f9062004d0a565b61012f84846040516200191292919062004cfa565b9081526020016040518091039020600401548510158015620019bc575061012d54604051630ac1066b60e11b81526001600160a01b03909116906315820cd6906200196490879087906004016200502b565b60206040518083038186803b1580156200197d57600080fd5b505afa15801562001992573d6000803e3d6000fd5b505050506040513d601f19601f82011682018060405250810190620019b8919062004f5b565b8511155b62001a155760405162461bcd60e51b815260206004820152602260248201527f5751526f757465723a20496e76616c696420636f6c6c61746572616c20726174604482015261696f60f01b60648201526084016200073f565b61012d54604051630292e0fd60e01b81526000916001600160a01b031690630292e0fd9062001a4b90889088906004016200502b565b60206040518083038186803b15801562001a6457600080fd5b505afa15801562001a79573d6000803e3d6000fd5b505050506040513d601f19601f8201168201806040525081019062001a9f919062004f5b565b905060006001600160a01b0316610130868660405162001ac192919062004cfa565b908152604080516020928190038301902033600090815292529020600101546001600160a01b0316141562001b7f573360405162001aff90620046af565b6001600160a01b039091168152602001604051809103906000f08015801562001b2c573d6000803e3d6000fd5b50610130868660405162001b4292919062004cfa565b90815260408051602092819003830190203360009081529252902060010180546001600160a01b0319166001600160a01b03929092169190911790555b86610130868660405162001b9592919062004cfa565b908152604080516020928190038301902033600090815292528120805490919062001bc290849062005041565b925050819055508661012f868660405162001bdf92919062004cfa565b9081526020016040518091039020600001600082825462001c01919062005041565b9250508190555060008661012f878760405162001c2092919062004cfa565b90815260408051602092819003830181206002015463313ce56760e01b825291516001600160a01b039092169263313ce56792600480840193829003018186803b15801562001c6e57600080fd5b505afa15801562001c83573d6000803e3d6000fd5b505050506040513d601f19601f8201168201806040525081019062001ca9919062004d70565b62001cb690601262004de2565b62001cc390600a62004f05565b62001ccf848b62004f16565b62001cdb919062004f16565b62001ce7919062004f38565b90508061012f878760405162001cff92919062004cfa565b9081526020016040518091039020600101600082825462001d21919062005041565b92505081905550600061012f878760405162001d3f92919062004cfa565b9081526040519081900360200181206003015463cc6b3be360e01b825233600483015260248201859052604482018b9052606482018a90526001600160a01b03169063cc6b3be390608401602060405180830381600087803b15801562001da557600080fd5b505af115801562001dba573d6000803e3d6000fd5b505050506040513d601f19601f8201168201806040525081019062001de0919062004f5b565b905062001e2181610130898960405162001dfc92919062004cfa565b9081526040805160209281900383019020336000908152925290206002019062003dd7565b5062001e7a33610130898960405162001e3c92919062004cfa565b908152604080519182900360209081018320336000908152915220600101546001600160a01b0316908c9061012f90620015c1908d908d9062004cfa565b61012e546040516340c10f1960e01b8152336004820152602481018490526001600160a01b03909116906340c10f1990604401600060405180830381600087803b15801562001ec857600080fd5b505af115801562001edd573d6000803e3d6000fd5b505050507f0cd37c976baaad20e50f369a7000baf6b6c37b632190cba4a51372e76c9476ad338a8a8587868d8d6040516200111198979695949392919062004fdb565b600054610100900460ff1662001f3d5760005460ff161562001f41565b303b155b62001fa65760405162461bcd60e51b815260206004820152602e60248201527f496e697469616c697a61626c653a20636f6e747261637420697320616c72656160448201526d191e481a5b9a5d1a585b1a5e995960921b60648201526084016200073f565b600054610100900460ff1615801562001fc9576000805461ffff19166101011790555b62001fd362003de5565b62001fdd62003e11565b62001fe762003de5565b62001ff460003362003e45565b6200200f60008051602062005b868339815191523362003e45565b6200202a60008051602062005b1f8339815191523362003e45565b6200205460008051602062005b1f83398151915260008051602062005b8683398151915262003e51565b61012d80546001600160a01b038086166001600160a01b03199283161790925561012e805492851692909116919091179055801562001153576000805461ff0019169055505050565b306001600160a01b037f0000000000000000000000000000000000000000000000000000000000000000161415620020e95760405162461bcd60e51b81526004016200073f9062005099565b7f00000000000000000000000000000000000000000000000000000000000000006001600160a01b03166200213460008051602062005b3f833981519152546001600160a01b031690565b6001600160a01b0316146200215d5760405162461bcd60e51b81526004016200073f90620050e5565b620021688262003c33565b620017938282600162003c4f565b6000306001600160a01b037f00000000000000000000000000000000000000000000000000000000000000001614620022185760405162461bcd60e51b815260206004820152603860248201527f555550535570677261646561626c653a206d757374206e6f742062652063616c60448201527f6c6564207468726f7567682064656c656761746563616c6c000000000000000060648201526084016200073f565b5060008051602062005b3f83398151915290565b8061012f8160405162002240919062005160565b90815260405190819003602001902060030154336001600160a01b03909116146200227f5760405162461bcd60e51b81526004016200073f906200517e565b620022c5846101308460405162002297919062005160565b90815260408051602092819003830190206001600160a01b038d166000908152925290206002019062003a59565b506200230c8361013084604051620022de919062005160565b90815260408051602092819003830190206001600160a01b038d166000908152925290206002019062003dd7565b5060008051602062005ba6833981519152878661012f8560405162002332919062005160565b90815260408051602092819003830181206002015463313ce56760e01b825291516001600160a01b039092169263313ce56792600480840193829003018186803b1580156200238057600080fd5b505afa15801562002395573d6000803e3d6000fd5b505050506040513d601f19601f82011682018060405250810190620023bb919062004d70565b620023c890601262004de2565b620023d590600a62004f05565b620023e18a8c62004f16565b620023ed919062004f16565b620023f9919062004f38565b888787600388604051620024149796959493929190620051ed565b60405180910390a15050505050505050565b60008051602062005b8683398151915262002442813362003a6e565b6200248a8461013085856040516200245c92919062004cfa565b90815260408051602092819003830190206001600160a01b038a166000908152925290206002019062003dd7565b505050505050565b60026097541415620024b85760405162461bcd60e51b81526004016200073f9062004cc3565b6002609781905550818161012f8282604051620024d792919062004cfa565b9081526040519081900360200190206005015460ff166200250c5760405162461bcd60e51b81526004016200073f9062004d0a565b62002519858585620039cc565b61012d54604051630292e0fd60e01b81526000916001600160a01b031690630292e0fd906200254f90889088906004016200502b565b60206040518083038186803b1580156200256857600080fd5b505afa1580156200257d573d6000803e3d6000fd5b505050506040513d601f19601f82011682018060405250810190620025a3919062004f5b565b9050600080600061012f8888604051620025bf92919062004cfa565b90815260405190819003602001812060030154632f1b130360e01b82526001600160a01b031690632f1b130390620025ff908c9060040190815260200190565b60606040518083038186803b1580156200261857600080fd5b505afa1580156200262d573d6000803e3d6000fd5b505050506040513d601f19601f8201168201806040525081019062002653919062004d41565b925092509250600160ff1661012f89896040516200267392919062004cfa565b90815260405190819003602001812060030154634cbf3e1b60e11b82526001600160a01b03169063997e7c3690620026b3908d9060040190815260200190565b60206040518083038186803b158015620026cc57600080fd5b505afa158015620026e1573d6000803e3d6000fd5b505050506040513d601f19601f8201168201806040525081019062002707919062004d70565b60ff16146200272a5760405162461bcd60e51b81526004016200073f9062004d95565b60008161012f8a8a6040516200274292919062004cfa565b90815260408051602092819003830181206002015463313ce56760e01b825291516001600160a01b039092169263313ce56792600480840193829003018186803b1580156200279057600080fd5b505afa158015620027a5573d6000803e3d6000fd5b505050506040513d601f19601f82011682018060405250810190620027cb919062004d70565b620027d890601262004de2565b620027e590600a62004f05565b85620027f2868962004f75565b620027fe919062004f16565b6200280a919062004f16565b62002816919062004f38565b90508061012f8a8a6040516200282e92919062004cfa565b9081526020016040518091039020600101600082825462002850919062005041565b909155505061012e546040516340c10f1960e01b8152336004820152602481018390526001600160a01b03909116906340c10f1990604401600060405180830381600087803b158015620028a357600080fd5b505af1158015620028b8573d6000803e3d6000fd5b5050505061012f8989604051620028d192919062004cfa565b90815260405190819003602001812060030154635b8503f560e11b8252600482018c905260248201879052604482018690526001600160a01b03169063b70a07ea90606401602060405180830381600087803b1580156200293157600080fd5b505af115801562002946573d6000803e3d6000fd5b505050506040513d601f19601f820116820180604052508101906200296c919062004f5b565b5060008051602062005ba6833981519152848361012f8c8c6040516200299492919062004cfa565b90815260408051602092819003830181206002015463313ce56760e01b825291516001600160a01b039092169263313ce56792600480840193829003018186803b158015620029e257600080fd5b505afa158015620029f7573d6000803e3d6000fd5b505050506040513d601f19601f8201168201806040525081019062002a1d919062004d70565b62002a2a90601262004de2565b62002a3790600a62004f05565b62002a43898962004f16565b62002a4f919062004f16565b62002a5b919062004f38565b878d8e60008f8f604051620016fc9897969594939291906200505c565b6002609754141562002a9e5760405162461bcd60e51b81526004016200073f9062004cc3565b6002609755604051819061012f9062002ab990839062005160565b90815260405190819003602001902060030154336001600160a01b039091161462002af85760405162461bcd60e51b81526004016200073f906200517e565b600061012f8360405162002b0d919062005160565b90815260405190819003602001812060030154633a1a732760e01b82526001600160a01b031690633a1a73279062002b4d908a9060040190815260200190565b60206040518083038186803b15801562002b6657600080fd5b505afa15801562002b7b573d6000803e3d6000fd5b505050506040513d601f19601f8201168201806040525081019062002ba1919062005236565b9050846101308460405162002bb7919062005160565b90815260408051602092819003830190206001600160a01b038516600090815292528120805490919062002bed90849062004f75565b925050819055508461012f8460405162002c08919062005160565b9081526020016040518091039020600001600082825462002c2a919062004f75565b925050819055508561012f8460405162002c45919062005160565b9081526020016040518091039020600101600082825462002c67919062004f75565b90915550506040516101309062002c8090859062005160565b90815260408051602092819003830190206001600160a01b0384811660009081529190935220600101541663dbba0f018962002cbd878962004f75565b61012f8760405162002cd0919062005160565b908152604051908190036020018120600201546001600160e01b031960e086901b16825262002d109392916001600160a01b039091169060040162004f8f565b600060405180830381600087803b15801562002d2b57600080fd5b505af115801562002d40573d6000803e3d6000fd5b505050506101308360405162002d57919062005160565b9081526040805191829003602090810183206001600160a01b038086166000908152919092529190912060010154169063dbba0f019061012f9062002d9e90879062005160565b908152604051908190036020018120600301546001600160a01b031690879061012f9062002dce90899062005160565b908152604051908190036020018120600201546001600160e01b031960e086901b16825262002e0e9392916001600160a01b039091169060040162004f8f565b600060405180830381600087803b15801562002e2957600080fd5b505af115801562002e3e573d6000803e3d6000fd5b505061012e54604051632770a7eb60e21b81526001600160a01b038c81166004830152602482018b90529091169250639dc29fac9150604401600060405180830381600087803b15801562002e9257600080fd5b505af115801562002ea7573d6000803e3d6000fd5b50505050600080600061012f8660405162002ec3919062005160565b90815260405190819003602001812060030154632f1b130360e01b82526001600160a01b031690632f1b13039062002f03908d9060040190815260200190565b60606040518083038186803b15801562002f1c57600080fd5b505afa15801562002f31573d6000803e3d6000fd5b505050506040513d601f19601f8201168201806040525081019062002f57919062004d41565b9250925092507fcc3f3bf4ebb079856c31b44ccbec64a58ff9c3f04a8d8a846ee9e7c2e0e4c7e184848361012f8a60405162002f94919062005160565b90815260408051602092819003830181206002015463313ce56760e01b825291516001600160a01b039092169263313ce56792600480840193829003018186803b15801562002fe257600080fd5b505afa15801562002ff7573d6000803e3d6000fd5b505050506040513d601f19601f820116820180604052508101906200301d919062004d70565b6200302a90601262004de2565b6200303790600a62004f05565b62003043878962004f16565b6200304f919062004f16565b6200305b919062004f38565b85858f8c60405162003074979695949392919062005256565b60405180910390a150506001609755505050505050505050565b600061012f8383604051620030a592919062004cfa565b908152602001604051809103902060010154905092915050565b60009182526065602090815260408084206001600160a01b0393909316845291905290205460ff1690565b60026097541415620031105760405162461bcd60e51b81526004016200073f9062004cc3565b6002609781905550818161012f82826040516200312f92919062004cfa565b9081526040519081900360200190206005015460ff16620031645760405162461bcd60e51b81526004016200073f9062004d0a565b62003171858585620039cc565b61012d54604051630292e0fd60e01b81526000916001600160a01b031690630292e0fd90620031a790889088906004016200502b565b60206040518083038186803b158015620031c057600080fd5b505afa158015620031d5573d6000803e3d6000fd5b505050506040513d601f19601f82011682018060405250810190620031fb919062004f5b565b9050600080600061012f88886040516200321792919062004cfa565b90815260405190819003602001812060030154632f1b130360e01b82526001600160a01b031690632f1b13039062003257908c9060040190815260200190565b60606040518083038186803b1580156200327057600080fd5b505afa15801562003285573d6000803e3d6000fd5b505050506040513d601f19601f82011682018060405250810190620032ab919062004d41565b925092509250600160ff1661012f8989604051620032cb92919062004cfa565b90815260405190819003602001812060030154634cbf3e1b60e11b82526001600160a01b03169063997e7c36906200330b908d9060040190815260200190565b60206040518083038186803b1580156200332457600080fd5b505afa15801562003339573d6000803e3d6000fd5b505050506040513d601f19601f820116820180604052508101906200335f919062004d70565b60ff1614620033825760405162461bcd60e51b81526004016200073f9062004d95565b60008161012f8a8a6040516200339a92919062004cfa565b90815260408051602092819003830181206002015463313ce56760e01b825291516001600160a01b039092169263313ce56792600480840193829003018186803b158015620033e857600080fd5b505afa158015620033fd573d6000803e3d6000fd5b505050506040513d601f19601f8201168201806040525081019062003423919062004d70565b6200343090601262004de2565b6200343d90600a62004f05565b856200344a888762004f75565b62003456919062004f16565b62003462919062004f16565b6200346e919062004f38565b90508061012f8a8a6040516200348692919062004cfa565b90815260200160405180910390206001016000828254620034a8919062004f75565b909155505060405161012f90620034c3908b908b9062004cfa565b90815260405190819003602001812060030154635b8503f560e11b8252600482018c905260248201879052604482018690526001600160a01b03169063b70a07ea90606401602060405180830381600087803b1580156200352357600080fd5b505af115801562003538573d6000803e3d6000fd5b505050506040513d601f19601f820116820180604052508101906200355e919062004f5b565b5061012e54604051632770a7eb60e21b8152336004820152602481018390526001600160a01b0390911690639dc29fac90604401600060405180830381600087803b158015620035ad57600080fd5b505af1158015620035c2573d6000803e3d6000fd5b5050505060008051602062005ba6833981519152848361012f8c8c604051620035ed92919062004cfa565b90815260408051602092819003830181206002015463313ce56760e01b825291516001600160a01b039092169263313ce56792600480840193829003018186803b1580156200363b57600080fd5b505afa15801562003650573d6000803e3d6000fd5b505050506040513d601f19601f8201168201806040525081019062003676919062004d70565b6200368390601262004de2565b6200369090600a62004f05565b6200369c898962004f16565b620036a8919062004f16565b620036b4919062004f38565b878d8e60018f8f604051620016fc9897969594939291906200505c565b600061012f8383604051620036e892919062004cfa565b90815260405190819003602001902054905092915050565b6000828152606560205260409020600101546200371e813362003a6e565b62001153838362003bc9565b60008051602062005b8683398151915262003746813362003a6e565b5061012d80546001600160a01b039384166001600160a01b03199182161790915561012e8054929093169116179055565b60008051602062005b8683398151915262003793813362003a6e565b8561012f8484604051620037a992919062004cfa565b908152602001604051809103902060020160006101000a8154816001600160a01b0302191690836001600160a01b031602179055508461012f8484604051620037f492919062004cfa565b908152602001604051809103902060030160006101000a8154816001600160a01b0302191690836001600160a01b031602179055508661012f84846040516200383f92919062004cfa565b908152604051908190036020018120600501805492151560ff1990931692909217909155849061012f9062003878908690869062004cfa565b9081526040519081900360200190206004015550505050505050565b606060006101308484604051620038ad92919062004cfa565b90815260408051602092819003830190206001600160a01b038a16600090815292529020600201905085620038e28262003e9c565b620038ee919062004f75565b851115620039115785620039028262003e9c565b6200390e919062004f75565b94505b846001600160401b038111156200392c576200392c620046e9565b60405190808252806020026020018201604052801562003956578160200160208202803683370190505b50915060005b85811015620039b2576200397d62003975828962005041565b839062003ea7565b83828151811062003992576200399262005297565b602090810291909101015280620039a981620052ad565b9150506200395c565b505095945050505050565b6001600160a01b03163b151590565b62003a0b836101308484604051620039e692919062004cfa565b9081526040805160209281900383019020336000908152925290206002019062003eb5565b620011535760405162461bcd60e51b815260206004820152601760248201527f5751526f757465723a204c6f74206e6f7420666f756e6400000000000000000060448201526064016200073f565b600062003a67838362003ece565b9392505050565b62003a7a8282620030bf565b620017935762003a95816001600160a01b0316601462003fd2565b62003aa283602062003fd2565b60405160200162003ab5929190620052cb565b60408051601f198184030181529082905262461bcd60e51b82526200073f9160040162005344565b62003ae98282620030bf565b620017935760008281526065602090815260408083206001600160a01b03851684529091529020805460ff1916600117905562003b233390565b6001600160a01b0316816001600160a01b0316837f2f8788117e7eff1d82e926ec794901d17c78024a50270940304540a733656f0d60405160405180910390a45050565b604080516001600160a01b0385811660248301528416604482015260648082018490528251808303909101815260849091019091526020810180516001600160e01b03166323b872dd60e01b17905262003bc39085906200418b565b50505050565b62003bd58282620030bf565b15620017935760008281526065602090815260408083206001600160a01b0385168085529252808320805460ff1916905551339285917ff6391f5c32d9c69d2a47ea670b442974b53935d1edc7fd64eb21e047a839171b9190a45050565b60008051602062005b1f83398151915262001793813362003a6e565b7f4910fdfa16fed3260ed0e7147f7cc6da11a60208b5b9406d12a635614ffd91435460ff161562003c8557620011538362004264565b826001600160a01b03166352d1902d6040518163ffffffff1660e01b815260040160206040518083038186803b15801562003cbf57600080fd5b505afa92505050801562003cf2575060408051601f3d908101601f1916820190925262003cef9181019062004f5b565b60015b62003d575760405162461bcd60e51b815260206004820152602e60248201527f45524331393637557067726164653a206e657720696d706c656d656e7461746960448201526d6f6e206973206e6f74205555505360901b60648201526084016200073f565b60008051602062005b3f833981519152811462003dc95760405162461bcd60e51b815260206004820152602960248201527f45524331393637557067726164653a20756e737570706f727465642070726f786044820152681a58589b195555525160ba1b60648201526084016200073f565b506200115383838362004303565b600062003a6783836200432e565b600054610100900460ff1662003e0f5760405162461bcd60e51b81526004016200073f9062005359565b565b600054610100900460ff1662003e3b5760405162461bcd60e51b81526004016200073f9062005359565b62003e0f62004380565b62001793828262003add565b600082815260656020526040808220600101805490849055905190918391839186917fbd79b86ffe0ab8e8776151514217cd7cacd52c909f66475c3af44e129f0b00ff9190a4505050565b600062000713825490565b600062003a678383620043b1565b6000818152600183016020526040812054151562003a67565b6000818152600183016020526040812054801562003fc757600062003ef560018362004f75565b855490915060009062003f0b9060019062004f75565b905081811462003f7757600086600001828154811062003f2f5762003f2f62005297565b906000526020600020015490508087600001848154811062003f555762003f5562005297565b6000918252602080832090910192909255918252600188019052604090208390555b855486908062003f8b5762003f8b620053a4565b60019003818190600052602060002001600090559055856001016000868152602001908152602001600020600090556001935050505062000713565b600091505062000713565b6060600062003fe383600262004f16565b62003ff090600262005041565b6001600160401b038111156200400a576200400a620046e9565b6040519080825280601f01601f19166020018201604052801562004035576020820181803683370190505b509050600360fc1b8160008151811062004053576200405362005297565b60200101906001600160f81b031916908160001a905350600f60fb1b8160018151811062004085576200408562005297565b60200101906001600160f81b031916908160001a9053506000620040ab84600262004f16565b620040b890600162005041565b90505b60018111156200413a576f181899199a1a9b1b9c1cb0b131b232b360811b85600f1660108110620040f057620040f062005297565b1a60f81b82828151811062004109576200410962005297565b60200101906001600160f81b031916908160001a90535060049490941c936200413281620053ba565b9050620040bb565b50831562003a675760405162461bcd60e51b815260206004820181905260248201527f537472696e67733a20686578206c656e67746820696e73756666696369656e7460448201526064016200073f565b6000620041e2826040518060400160405280602081526020017f5361666545524332303a206c6f772d6c6576656c2063616c6c206661696c6564815250856001600160a01b0316620043de9092919063ffffffff16565b805190915015620011535780806020019051810190620042039190620053d4565b620011535760405162461bcd60e51b815260206004820152602a60248201527f5361666545524332303a204552433230206f7065726174696f6e20646964206e6044820152691bdd081cdd58d8d9595960b21b60648201526084016200073f565b6001600160a01b0381163b620042d35760405162461bcd60e51b815260206004820152602d60248201527f455243313936373a206e657720696d706c656d656e746174696f6e206973206e60448201526c1bdd08184818dbdb9d1c9858dd609a1b60648201526084016200073f565b60008051602062005b3f83398151915280546001600160a01b0319166001600160a01b0392909216919091179055565b6200430e83620043f7565b6000825111806200431c5750805b15620011535762003bc3838362004439565b6000818152600183016020526040812054620043775750815460018181018455600084815260208082209093018490558454848252828601909352604090209190915562000713565b50600062000713565b600054610100900460ff16620043aa5760405162461bcd60e51b81526004016200073f9062005359565b6001609755565b6000826000018281548110620043cb57620043cb62005297565b9060005260206000200154905092915050565b6060620043ef848460008562004536565b949350505050565b620044028162004264565b6040516001600160a01b038216907fbc7cd75a20ee27fd9adebab32041f755214dbc6bffa90cc0225b39da2e5c2d3b90600090a250565b60606001600160a01b0383163b620044a35760405162461bcd60e51b815260206004820152602660248201527f416464726573733a2064656c65676174652063616c6c20746f206e6f6e2d636f6044820152651b9d1c9858dd60d21b60648201526084016200073f565b600080846001600160a01b031684604051620044c0919062005160565b600060405180830381855af49150503d8060008114620044fd576040519150601f19603f3d011682016040523d82523d6000602084013e62004502565b606091505b50915091506200452d828260405180606001604052806027815260200162005b5f6027913962004671565b95945050505050565b606082471015620045995760405162461bcd60e51b815260206004820152602660248201527f416464726573733a20696e73756666696369656e742062616c616e636520666f6044820152651c8818d85b1b60d21b60648201526084016200073f565b6001600160a01b0385163b620045f25760405162461bcd60e51b815260206004820152601d60248201527f416464726573733a2063616c6c20746f206e6f6e2d636f6e747261637400000060448201526064016200073f565b600080866001600160a01b0316858760405162004610919062005160565b60006040518083038185875af1925050503d80600081146200464f576040519150601f19603f3d011682016040523d82523d6000602084013e62004654565b606091505b50915091506200466682828662004671565b979650505050505050565b606083156200468257508162003a67565b825115620046935782518084602001fd5b8160405162461bcd60e51b81526004016200073f919062005344565b61072a80620053f583390190565b600060208284031215620046d057600080fd5b81356001600160e01b03198116811462003a6757600080fd5b634e487b7160e01b600052604160045260246000fd5b60006001600160401b03808411156200471c576200471c620046e9565b604051601f8501601f19908116603f01168101908282118183101715620047475762004747620046e9565b816040528093508581528686860111156200476157600080fd5b858560208301376000602087830101525050509392505050565b600082601f8301126200478d57600080fd5b62003a6783833560208501620046ff565b600060208284031215620047b157600080fd5b81356001600160401b03811115620047c857600080fd5b620043ef848285016200477b565b60008083601f840112620047e957600080fd5b5081356001600160401b038111156200480157600080fd5b6020830191508360208285010111156200481a57600080fd5b9250929050565b600080600080606085870312156200483857600080fd5b843593506020850135925060408501356001600160401b038111156200485d57600080fd5b6200486b87828801620047d6565b95989497509550505050565b6000602082840312156200488a57600080fd5b5035919050565b6001600160a01b03811681146200188057600080fd5b60008060408385031215620048bb57600080fd5b823591506020830135620048cf8162004891565b809150509250929050565b600080600060408486031215620048f057600080fd5b8335925060208401356001600160401b038111156200490e57600080fd5b6200491c86828701620047d6565b9497909650939450505050565b6000602082840312156200493c57600080fd5b813562003a678162004891565b600080604083850312156200495d57600080fd5b82356200496a8162004891565b91506020830135620048cf8162004891565b600080604083850312156200499057600080fd5b82356200499d8162004891565b915060208301356001600160401b03811115620049b957600080fd5b8301601f81018513620049cb57600080fd5b620049dc85823560208401620046ff565b9150509250929050565b600080600080600080600060e0888a03121562004a0257600080fd5b873562004a0f8162004891565b96506020880135955060408801359450606088013593506080880135925060a0880135915060c08801356001600160401b0381111562004a4e57600080fd5b62004a5c8a828b016200477b565b91505092959891949750929550565b6000806000806060858703121562004a8257600080fd5b843562004a8f8162004891565b93506020850135925060408501356001600160401b038111156200485d57600080fd5b60008060008060008060c0878903121562004acc57600080fd5b863562004ad98162004891565b95506020870135945060408701359350606087013592506080870135915060a08701356001600160401b0381111562004b1157600080fd5b62004b1f89828a016200477b565b9150509295509295509295565b6000806020838503121562004b4057600080fd5b82356001600160401b0381111562004b5757600080fd5b62004b6585828601620047d6565b90969095509350505050565b80151581146200188057600080fd5b60008060008060008060a0878903121562004b9a57600080fd5b863562004ba78162004b71565b9550602087013562004bb98162004891565b9450604087013562004bcb8162004891565b93506060870135925060808701356001600160401b0381111562004bee57600080fd5b62004bfc89828a01620047d6565b979a9699509497509295939492505050565b60008060008060006080868803121562004c2757600080fd5b853562004c348162004891565b9450602086013593506040860135925060608601356001600160401b0381111562004c5e57600080fd5b62004c6c88828901620047d6565b969995985093965092949392505050565b6020808252825182820181905260009190848201906040850190845b8181101562004cb75783518352928401929184019160010162004c99565b50909695505050505050565b6020808252601f908201527f5265656e7472616e637947756172643a207265656e7472616e742063616c6c00604082015260600190565b8183823760009101908152919050565b60208082526017908201527f5751526f757465723a20546f6b656e20646961626c6564000000000000000000604082015260600190565b60008060006060848603121562004d5757600080fd5b8351925060208401519150604084015190509250925092565b60006020828403121562004d8357600080fd5b815160ff8116811462003a6757600080fd5b60208082526018908201527f5751526f757465723a20537461747573206e6f74206e65770000000000000000604082015260600190565b634e487b7160e01b600052601160045260246000fd5b600060ff821660ff84168082101562004dff5762004dff62004dcc565b90039392505050565b600181815b8085111562004e4957816000190482111562004e2d5762004e2d62004dcc565b8085161562004e3b57918102915b93841c939080029062004e0d565b509250929050565b60008262004e625750600162000713565b8162004e715750600062000713565b816001811462004e8a576002811462004e955762004eb5565b600191505062000713565b60ff84111562004ea95762004ea962004dcc565b50506001821b62000713565b5060208310610133831016604e8410600b841016171562004eda575081810a62000713565b62004ee6838362004e08565b806000190482111562004efd5762004efd62004dcc565b029392505050565b600062003a6760ff84168362004e51565b600081600019048311821515161562004f335762004f3362004dcc565b500290565b60008262004f5657634e487b7160e01b600052601260045260246000fd5b500490565b60006020828403121562004f6e57600080fd5b5051919050565b60008282101562004f8a5762004f8a62004dcc565b500390565b6001600160a01b0393841681526020810192909252909116604082015260600190565b81835281816020850137506000828201602090810191909152601f909101601f19169091010190565b60018060a01b03891681528760208201528660408201528560608201528460808201528360a082015260e060c082015260006200501d60e08301848662004fb2565b9a9950505050505050505050565b602081526000620043ef60208301848662004fb2565b6000821982111562005057576200505762004dcc565b500190565b88815287602082015286604082015285606082015284608082015260ff841660a082015260e060c082015260006200501d60e08301848662004fb2565b6020808252602c908201527f46756e6374696f6e206d7573742062652063616c6c6564207468726f7567682060408201526b19195b1959d85d1958d85b1b60a21b606082015260800190565b6020808252602c908201527f46756e6374696f6e206d7573742062652063616c6c6564207468726f7567682060408201526b6163746976652070726f787960a01b606082015260800190565b60005b838110156200514e57818101518382015260200162005134565b8381111562003bc35750506000910152565b600082516200517481846020870162005131565b9190910192915050565b60208082526021908201527f5751526f757465723a204f6e6c7920636f6c6c61746572616c2061756374696f6040820152603760f91b606082015260800190565b60008151808452620051d981602086016020860162005131565b601f01601f19169290920160200192915050565b87815286602082015285604082015284606082015283608082015260ff831660a082015260e060c082015260006200522960e0830184620051bf565b9998505050505050505050565b6000602082840312156200524957600080fd5b815162003a678162004891565b60018060a01b03881681528660208201528560408201528460608201528360808201528260a082015260e060c082015260006200522960e0830184620051bf565b634e487b7160e01b600052603260045260246000fd5b6000600019821415620052c457620052c462004dcc565b5060010190565b7f416363657373436f6e74726f6c3a206163636f756e74200000000000000000008152600083516200530581601785016020880162005131565b7001034b99036b4b9b9b4b733903937b6329607d1b60179184019182015283516200533881602884016020880162005131565b01602801949350505050565b60208152600062003a676020830184620051bf565b6020808252602b908201527f496e697469616c697a61626c653a20636f6e7472616374206973206e6f74206960408201526a6e697469616c697a696e6760a81b606082015260800190565b634e487b7160e01b600052603160045260246000fd5b600081620053cc57620053cc62004dcc565b506000190190565b600060208284031215620053e757600080fd5b815162003a678162004b7156fe608060405234801561001057600080fd5b5060405161072a38038061072a83398101604081905261002f91610062565b60008054336001600160a01b031991821617909155600180549091166001600160a01b0392909216919091179055610092565b60006020828403121561007457600080fd5b81516001600160a01b038116811461008b57600080fd5b9392505050565b610689806100a16000396000f3fe608060405234801561001057600080fd5b50600436106100415760003560e01c80638da5cb5b14610046578063dbba0f0114610075578063f887ea401461008a575b600080fd5b600154610059906001600160a01b031681565b6040516001600160a01b03909116815260200160405180910390f35b610088610083366004610570565b61009d565b005b600054610059906001600160a01b031681565b6000546001600160a01b031633146101085760405162461bcd60e51b815260206004820152602360248201527f5751526f757465725661756c743a2053656e646572206973206e6f7420726f756044820152623a32b960e91b60648201526084015b60405180910390fd5b6001600160a01b038116156101305761012b6001600160a01b0382168484610193565b610143565b6101436001600160a01b038416836101ea565b604080516001600160a01b038084168252851660208201529081018390527fd1ba4ac2e2a11b5101f6cb4d978f514a155b421e8ec396d2d9abaf0bb02917ee9060600160405180910390a1505050565b604080516001600160a01b038416602482015260448082018490528251808303909101815260649091019091526020810180516001600160e01b031663a9059cbb60e01b1790526101e5908490610303565b505050565b8047101561023a5760405162461bcd60e51b815260206004820152601d60248201527f416464726573733a20696e73756666696369656e742062616c616e636500000060448201526064016100ff565b6000826001600160a01b03168260405160006040518083038185875af1925050503d8060008114610287576040519150601f19603f3d011682016040523d82523d6000602084013e61028c565b606091505b50509050806101e55760405162461bcd60e51b815260206004820152603a60248201527f416464726573733a20756e61626c6520746f2073656e642076616c75652c207260448201527f6563697069656e74206d6179206861766520726576657274656400000000000060648201526084016100ff565b6000610358826040518060400160405280602081526020017f5361666545524332303a206c6f772d6c6576656c2063616c6c206661696c6564815250856001600160a01b03166103d59092919063ffffffff16565b8051909150156101e5578080602001905181019061037691906105b2565b6101e55760405162461bcd60e51b815260206004820152602a60248201527f5361666545524332303a204552433230206f7065726174696f6e20646964206e6044820152691bdd081cdd58d8d9595960b21b60648201526084016100ff565b60606103e484846000856103ee565b90505b9392505050565b60608247101561044f5760405162461bcd60e51b815260206004820152602660248201527f416464726573733a20696e73756666696369656e742062616c616e636520666f6044820152651c8818d85b1b60d21b60648201526084016100ff565b6001600160a01b0385163b6104a65760405162461bcd60e51b815260206004820152601d60248201527f416464726573733a2063616c6c20746f206e6f6e2d636f6e747261637400000060448201526064016100ff565b600080866001600160a01b031685876040516104c29190610604565b60006040518083038185875af1925050503d80600081146104ff576040519150601f19603f3d011682016040523d82523d6000602084013e610504565b606091505b509150915061051482828661051f565b979650505050505050565b6060831561052e5750816103e7565b82511561053e5782518084602001fd5b8160405162461bcd60e51b81526004016100ff9190610620565b6001600160a01b038116811461056d57600080fd5b50565b60008060006060848603121561058557600080fd5b833561059081610558565b92506020840135915060408401356105a781610558565b809150509250925092565b6000602082840312156105c457600080fd5b815180151581146103e757600080fd5b60005b838110156105ef5781810151838201526020016105d7565b838111156105fe576000848401525b50505050565b600082516106168184602087016105d4565b9190910192915050565b602081526000825180602084015261063f8160408501602087016105d4565b601f01601f1916919091016040019291505056fea2646970667358221220f9599cb443d118d129a11e97dea91cb2df9e7c8ddbd8811c90f86e43dc8f329564736f6c63430008090033189ab7a9244df0848122154315af71fe140f3db0fe014031783b0946b8c9d2e3360894a13ba1a3210667c828492db98dca3e2076cc3735a920a3ca505d382bbc416464726573733a206c6f772d6c6576656c2064656c65676174652063616c6c206661696c6564a49807205ce4d355092ef5a8a18f56e8913cf4a201fbe287825b095693c2177528c0c2d50af0ab1c60ab623f2400a88f889940fe9a0f24f3ae0fe8e2ea9d5ca3a26469706673582212206b13e21537cdfecd78e64e1a1b7c9ac2001627d69ca1ac1ba90a67f1cc00a3d264736f6c63430008090033",
  "linkReferences": {},
  "deployedLinkReferences": {}
}