{
  "_format": "hh-sol-artifact-1",
  "contractName": "WQRouter",
  "sourceName": "contracts/stablecoin/WQRouter.sol",
  "abi": [
    {
      "inputs": [],
      "stateMutability": "nonpayable",
      "type": "constructor"
    },
    {
      "anonymous": false,
      "inputs": [
        {
          "indexed": false,
          "internalType": "address",
          "name": "previousAdmin",
          "type": "address"
        },
        {
          "indexed": false,
          "internalType": "address",
          "name": "newAdmin",
          "type": "address"
        }
      ],
      "name": "AdminChanged",
      "type": "event"
    },
    {
      "anonymous": false,
      "inputs": [
        {
          "indexed": true,
          "internalType": "address",
          "name": "beacon",
          "type": "address"
        }
      ],
      "name": "BeaconUpgraded",
      "type": "event"
    },
    {
      "anonymous": false,
      "inputs": [
        {
          "indexed": false,
          "internalType": "uint256",
          "name": "collateral",
          "type": "uint256"
        },
        {
          "indexed": false,
          "internalType": "uint256",
          "name": "price",
          "type": "uint256"
        },
        {
          "indexed": false,
          "internalType": "uint256",
          "name": "oldIndex",
          "type": "uint256"
        },
        {
          "indexed": false,
          "internalType": "uint256",
          "name": "newIndex",
          "type": "uint256"
        },
        {
          "indexed": false,
          "internalType": "string",
          "name": "symbol",
          "type": "string"
        }
      ],
      "name": "Moved",
      "type": "event"
    },
    {
      "anonymous": false,
      "inputs": [
        {
          "indexed": false,
          "internalType": "address",
          "name": "user",
          "type": "address"
        },
        {
          "indexed": false,
          "internalType": "uint256",
          "name": "collateral",
          "type": "uint256"
        },
        {
          "indexed": false,
          "internalType": "uint256",
          "name": "ratio",
          "type": "uint256"
        },
        {
          "indexed": false,
          "internalType": "uint256",
          "name": "debt",
          "type": "uint256"
        },
        {
          "indexed": false,
          "internalType": "uint256",
          "name": "price",
          "type": "uint256"
        },
        {
          "indexed": false,
          "internalType": "uint256",
          "name": "index",
          "type": "uint256"
        },
        {
          "indexed": false,
          "internalType": "string",
          "name": "symbol",
          "type": "string"
        }
      ],
      "name": "Produced",
      "type": "event"
    },
    {
      "anonymous": false,
      "inputs": [
        {
          "indexed": false,
          "internalType": "uint256",
          "name": "amount",
          "type": "uint256"
        }
      ],
      "name": "Received",
      "type": "event"
    },
    {
      "anonymous": false,
      "inputs": [
        {
          "indexed": false,
          "internalType": "address",
          "name": "user",
          "type": "address"
        },
        {
          "indexed": false,
          "internalType": "uint256",
          "name": "collateral",
          "type": "uint256"
        },
        {
          "indexed": false,
          "internalType": "uint256",
          "name": "debt",
          "type": "uint256"
        },
        {
          "indexed": false,
          "internalType": "uint256",
          "name": "price",
          "type": "uint256"
        },
        {
          "indexed": false,
          "internalType": "uint256",
          "name": "index",
          "type": "uint256"
        },
        {
          "indexed": false,
          "internalType": "string",
          "name": "symbol",
          "type": "string"
        }
      ],
      "name": "Removed",
      "type": "event"
    },
    {
      "anonymous": false,
      "inputs": [
        {
          "indexed": true,
          "internalType": "bytes32",
          "name": "role",
          "type": "bytes32"
        },
        {
          "indexed": true,
          "internalType": "bytes32",
          "name": "previousAdminRole",
          "type": "bytes32"
        },
        {
          "indexed": true,
          "internalType": "bytes32",
          "name": "newAdminRole",
          "type": "bytes32"
        }
      ],
      "name": "RoleAdminChanged",
      "type": "event"
    },
    {
      "anonymous": false,
      "inputs": [
        {
          "indexed": true,
          "internalType": "bytes32",
          "name": "role",
          "type": "bytes32"
        },
        {
          "indexed": true,
          "internalType": "address",
          "name": "account",
          "type": "address"
        },
        {
          "indexed": true,
          "internalType": "address",
          "name": "sender",
          "type": "address"
        }
      ],
      "name": "RoleGranted",
      "type": "event"
    },
    {
      "anonymous": false,
      "inputs": [
        {
          "indexed": true,
          "internalType": "bytes32",
          "name": "role",
          "type": "bytes32"
        },
        {
          "indexed": true,
          "internalType": "address",
          "name": "account",
          "type": "address"
        },
        {
          "indexed": true,
          "internalType": "address",
          "name": "sender",
          "type": "address"
        }
      ],
      "name": "RoleRevoked",
      "type": "event"
    },
    {
      "anonymous": false,
      "inputs": [
        {
          "indexed": true,
          "internalType": "address",
          "name": "implementation",
          "type": "address"
        }
      ],
      "name": "Upgraded",
      "type": "event"
    },
    {
      "inputs": [],
      "name": "ADMIN_ROLE",
      "outputs": [
        {
          "internalType": "bytes32",
          "name": "",
          "type": "bytes32"
        }
      ],
      "stateMutability": "view",
      "type": "function"
    },
    {
      "inputs": [],
      "name": "DEFAULT_ADMIN_ROLE",
      "outputs": [
        {
          "internalType": "bytes32",
          "name": "",
          "type": "bytes32"
        }
      ],
      "stateMutability": "view",
      "type": "function"
    },
    {
      "inputs": [],
      "name": "UPGRADER_ROLE",
      "outputs": [
        {
          "internalType": "bytes32",
          "name": "",
          "type": "bytes32"
        }
      ],
      "stateMutability": "view",
      "type": "function"
    },
    {
      "inputs": [
        {
          "internalType": "uint256",
          "name": "index",
          "type": "uint256"
        },
        {
          "internalType": "string",
          "name": "symbol",
          "type": "string"
        }
      ],
      "name": "addCollateral",
      "outputs": [],
      "stateMutability": "nonpayable",
      "type": "function"
    },
    {
      "inputs": [],
      "name": "annualInterestRate",
      "outputs": [
        {
          "internalType": "uint256",
          "name": "",
          "type": "uint256"
        }
      ],
      "stateMutability": "view",
      "type": "function"
    },
    {
      "inputs": [
        {
          "internalType": "address",
          "name": "buyer",
          "type": "address"
        },
        {
          "internalType": "uint256",
          "name": "index",
          "type": "uint256"
        },
        {
          "internalType": "uint256",
          "name": "amount",
          "type": "uint256"
        },
        {
          "internalType": "uint256",
          "name": "fee",
          "type": "uint256"
        },
        {
          "internalType": "string",
          "name": "symbol",
          "type": "string"
        }
      ],
      "name": "buyCollateral",
      "outputs": [],
      "stateMutability": "nonpayable",
      "type": "function"
    },
    {
      "inputs": [],
      "name": "buyerRewards",
      "outputs": [
        {
          "internalType": "uint256",
          "name": "",
          "type": "uint256"
        }
      ],
      "stateMutability": "view",
      "type": "function"
    },
    {
      "inputs": [
        {
          "internalType": "uint256",
          "name": "index",
          "type": "uint256"
        },
        {
          "internalType": "string",
          "name": "symbol",
          "type": "string"
        }
      ],
      "name": "claimExtraDebt",
      "outputs": [],
      "stateMutability": "nonpayable",
      "type": "function"
    },
    {
      "inputs": [
        {
          "internalType": "uint256",
          "name": "index",
          "type": "uint256"
        },
        {
          "internalType": "string",
          "name": "symbol",
          "type": "string"
        }
      ],
      "name": "disposeDebt",
      "outputs": [],
      "stateMutability": "nonpayable",
      "type": "function"
    },
    {
      "inputs": [],
      "name": "fixedRate",
      "outputs": [
        {
          "internalType": "uint256",
          "name": "",
          "type": "uint256"
        }
      ],
      "stateMutability": "view",
      "type": "function"
    },
    {
      "inputs": [
        {
          "internalType": "string",
          "name": "symbol",
          "type": "string"
        }
      ],
      "name": "getCollateral",
      "outputs": [
        {
          "internalType": "uint256",
          "name": "amount",
          "type": "uint256"
        }
      ],
      "stateMutability": "view",
      "type": "function"
    },
    {
      "inputs": [
        {
          "internalType": "string",
          "name": "symbol",
          "type": "string"
        }
      ],
      "name": "getDebt",
      "outputs": [
        {
          "internalType": "uint256",
          "name": "amount",
          "type": "uint256"
        }
      ],
      "stateMutability": "view",
      "type": "function"
    },
    {
      "inputs": [],
      "name": "getParams",
      "outputs": [
        {
          "internalType": "contract WQPriceOracleInterface",
          "name": "",
          "type": "address"
        },
        {
          "internalType": "contract WQBridgeTokenInterface",
          "name": "",
          "type": "address"
        },
        {
          "internalType": "contract WQSurplusAuction",
          "name": "",
          "type": "address"
        },
        {
          "internalType": "contract WQDebtAuction",
          "name": "",
          "type": "address"
        },
        {
          "internalType": "uint256",
          "name": "",
          "type": "uint256"
        },
        {
          "internalType": "uint256",
          "name": "",
          "type": "uint256"
        },
        {
          "internalType": "address",
          "name": "",
          "type": "address"
        }
      ],
      "stateMutability": "view",
      "type": "function"
    },
    {
      "inputs": [
        {
          "internalType": "bytes32",
          "name": "role",
          "type": "bytes32"
        }
      ],
      "name": "getRoleAdmin",
      "outputs": [
        {
          "internalType": "bytes32",
          "name": "",
          "type": "bytes32"
        }
      ],
      "stateMutability": "view",
      "type": "function"
    },
    {
      "inputs": [
        {
          "internalType": "address",
          "name": "user",
          "type": "address"
        },
        {
          "internalType": "uint256",
          "name": "offset",
          "type": "uint256"
        },
        {
          "internalType": "uint256",
          "name": "limit",
          "type": "uint256"
        },
        {
          "internalType": "string",
          "name": "symbol",
          "type": "string"
        }
      ],
      "name": "getUserLots",
      "outputs": [
        {
          "internalType": "uint256[]",
          "name": "page",
          "type": "uint256[]"
        }
      ],
      "stateMutability": "view",
      "type": "function"
    },
    {
      "inputs": [
        {
          "internalType": "bytes32",
          "name": "role",
          "type": "bytes32"
        },
        {
          "internalType": "address",
          "name": "account",
          "type": "address"
        }
      ],
      "name": "grantRole",
      "outputs": [],
      "stateMutability": "nonpayable",
      "type": "function"
    },
    {
      "inputs": [
        {
          "internalType": "bytes32",
          "name": "role",
          "type": "bytes32"
        },
        {
          "internalType": "address",
          "name": "account",
          "type": "address"
        }
      ],
      "name": "hasRole",
      "outputs": [
        {
          "internalType": "bool",
          "name": "",
          "type": "bool"
        }
      ],
      "stateMutability": "view",
      "type": "function"
    },
    {
      "inputs": [
        {
          "internalType": "address",
          "name": "_oracle",
          "type": "address"
        },
        {
          "internalType": "address",
          "name": "_wusd",
          "type": "address"
        },
        {
          "internalType": "uint256",
          "name": "_fixedRate",
          "type": "uint256"
        },
        {
          "internalType": "uint256",
          "name": "_annualInterestRate",
          "type": "uint256"
        },
        {
          "internalType": "address",
          "name": "_feeReceiver",
          "type": "address"
        }
      ],
      "name": "initialize",
      "outputs": [],
      "stateMutability": "nonpayable",
      "type": "function"
    },
    {
      "inputs": [
        {
          "internalType": "address",
          "name": "user",
          "type": "address"
        },
        {
          "internalType": "uint256",
          "name": "collateral",
          "type": "uint256"
        },
        {
          "internalType": "uint256",
          "name": "price",
          "type": "uint256"
        },
        {
          "internalType": "uint256",
          "name": "index",
          "type": "uint256"
        },
        {
          "internalType": "uint256",
          "name": "newIndex",
          "type": "uint256"
        },
        {
          "internalType": "string",
          "name": "symbol",
          "type": "string"
        }
      ],
      "name": "moveUserLot",
      "outputs": [],
      "stateMutability": "nonpayable",
      "type": "function"
    },
    {
      "inputs": [
        {
          "internalType": "uint256",
          "name": "collateralAmount",
          "type": "uint256"
        },
        {
          "internalType": "uint256",
          "name": "collateralRatio",
          "type": "uint256"
        },
        {
          "internalType": "string",
          "name": "symbol",
          "type": "string"
        }
      ],
      "name": "produceWUSD",
      "outputs": [],
      "stateMutability": "nonpayable",
      "type": "function"
    },
    {
      "inputs": [],
      "name": "proxiableUUID",
      "outputs": [
        {
          "internalType": "bytes32",
          "name": "",
          "type": "bytes32"
        }
      ],
      "stateMutability": "view",
      "type": "function"
    },
    {
      "inputs": [
        {
          "internalType": "uint256",
          "name": "index",
          "type": "uint256"
        },
        {
          "internalType": "uint256",
          "name": "debtPart",
          "type": "uint256"
        },
        {
          "internalType": "string",
          "name": "symbol",
          "type": "string"
        }
      ],
      "name": "removeCollateral",
      "outputs": [],
      "stateMutability": "nonpayable",
      "type": "function"
    },
    {
      "inputs": [
        {
          "internalType": "bytes32",
          "name": "role",
          "type": "bytes32"
        },
        {
          "internalType": "address",
          "name": "account",
          "type": "address"
        }
      ],
      "name": "renounceRole",
      "outputs": [],
      "stateMutability": "nonpayable",
      "type": "function"
    },
    {
      "inputs": [
        {
          "internalType": "bytes32",
          "name": "role",
          "type": "bytes32"
        },
        {
          "internalType": "address",
          "name": "account",
          "type": "address"
        }
      ],
      "name": "revokeRole",
      "outputs": [],
      "stateMutability": "nonpayable",
      "type": "function"
    },
    {
      "inputs": [
        {
          "internalType": "address",
          "name": "_oracle",
          "type": "address"
        },
        {
          "internalType": "address",
          "name": "debt_auction",
          "type": "address"
        },
        {
          "internalType": "address",
          "name": "surplus_auction",
          "type": "address"
        }
      ],
      "name": "setContracts",
      "outputs": [],
      "stateMutability": "nonpayable",
      "type": "function"
    },
    {
      "inputs": [
        {
          "internalType": "address",
          "name": "_feeReceiver",
          "type": "address"
        }
      ],
      "name": "setFeeReceiver",
      "outputs": [],
      "stateMutability": "nonpayable",
      "type": "function"
    },
    {
      "inputs": [
        {
          "internalType": "uint256",
          "name": "_fixedRate",
          "type": "uint256"
        },
        {
          "internalType": "uint256",
          "name": "_annualInterestRate",
          "type": "uint256"
        },
        {
          "internalType": "uint256",
          "name": "_buyerRewards",
          "type": "uint256"
        }
      ],
      "name": "setRate",
      "outputs": [],
      "stateMutability": "nonpayable",
      "type": "function"
    },
    {
      "inputs": [
        {
          "internalType": "bool",
          "name": "enabled",
          "type": "bool"
        },
        {
          "internalType": "address",
          "name": "token",
          "type": "address"
        },
        {
          "internalType": "address",
          "name": "auction",
          "type": "address"
        },
        {
          "internalType": "uint256",
          "name": "minRatio",
          "type": "uint256"
        },
        {
          "internalType": "string",
          "name": "symbol",
          "type": "string"
        }
      ],
      "name": "setToken",
      "outputs": [],
      "stateMutability": "nonpayable",
      "type": "function"
    },
    {
      "inputs": [
        {
          "internalType": "bytes4",
          "name": "interfaceId",
          "type": "bytes4"
        }
      ],
      "name": "supportsInterface",
      "outputs": [
        {
          "internalType": "bool",
          "name": "",
          "type": "bool"
        }
      ],
      "stateMutability": "view",
      "type": "function"
    },
    {
      "inputs": [
        {
          "internalType": "string",
          "name": "",
          "type": "string"
        }
      ],
      "name": "tokens",
      "outputs": [
        {
          "internalType": "uint256",
          "name": "totalCollateral",
          "type": "uint256"
        },
        {
          "internalType": "uint256",
          "name": "totalDebt",
          "type": "uint256"
        },
        {
          "internalType": "address",
          "name": "token",
          "type": "address"
        },
        {
          "internalType": "contract WQCollateralAuction",
          "name": "collateralAuction",
          "type": "address"
        },
        {
          "internalType": "uint256",
          "name": "minRatio",
          "type": "uint256"
        },
        {
          "internalType": "bool",
          "name": "enabled",
          "type": "bool"
        }
      ],
      "stateMutability": "view",
      "type": "function"
    },
    {
      "inputs": [
        {
          "internalType": "address",
          "name": "user",
          "type": "address"
        },
        {
          "internalType": "uint256",
          "name": "amount",
          "type": "uint256"
        },
        {
          "internalType": "uint256",
          "name": "cost",
          "type": "uint256"
        },
        {
          "internalType": "string",
          "name": "symbol",
          "type": "string"
        }
      ],
      "name": "transferDebt",
      "outputs": [],
      "stateMutability": "nonpayable",
      "type": "function"
    },
    {
      "inputs": [
        {
          "internalType": "address",
          "name": "user",
          "type": "address"
        },
        {
          "internalType": "uint256",
          "name": "amount",
          "type": "uint256"
        },
        {
          "internalType": "string",
          "name": "symbol",
          "type": "string"
        }
      ],
      "name": "transferSurplus",
      "outputs": [],
      "stateMutability": "payable",
      "type": "function"
    },
    {
      "inputs": [
        {
          "internalType": "address",
          "name": "newImplementation",
          "type": "address"
        }
      ],
      "name": "upgradeTo",
      "outputs": [],
      "stateMutability": "nonpayable",
      "type": "function"
    },
    {
      "inputs": [
        {
          "internalType": "address",
          "name": "newImplementation",
          "type": "address"
        },
        {
          "internalType": "bytes",
          "name": "data",
          "type": "bytes"
        }
      ],
      "name": "upgradeToAndCall",
      "outputs": [],
      "stateMutability": "payable",
      "type": "function"
    },
    {
      "stateMutability": "payable",
      "type": "receive"
    }
  ],
  "bytecode": "0x60a0604052306080523480156200001557600080fd5b50600054610100900460ff16620000335760005460ff16156200003d565b6200003d620000e2565b620000a55760405162461bcd60e51b815260206004820152602e60248201527f496e697469616c697a61626c653a20636f6e747261637420697320616c72656160448201526d191e481a5b9a5d1a585b1a5e995960921b606482015260840160405180910390fd5b600054610100900460ff16158015620000c8576000805461ffff19166101011790555b8015620000db576000805461ff00191690555b506200010f565b6000620000fa306200010060201b620036d81760201c565b15905090565b6001600160a01b03163b151590565b608051615a786200014760003960008181611699015281816116dc01528181611e2b01528181611e6e0152611f060152615a786000f3fe608060405260043610620002275760003560e01c80637d2bda961162000123578063aa87441f11620000ad578063d547741f1162000078578063d547741f1462000747578063e19af821146200076c578063e1cc246a1462000791578063efdcd97414620007c5578063f72c0d8b14620007ea57600080fd5b8063aa87441f14620006c1578063b3066d4914620006d8578063bb521df414620006fd578063bb537b50146200072257600080fd5b806391d1485411620000ee57806391d14854146200064757806397bcbf40146200066c5780639a0c992b1462000691578063a217fddf14620006aa57600080fd5b80637d2bda9614620005bf5780637fb95f6714620005e4578063802d142214620006095780638c1e06f1146200062257600080fd5b806336568abe11620001b15780634f1ef286116200017c5780634f1ef28614620004d557806352d1902d14620004ec57806357fb25cc14620005045780635e615a6b146200052957806375b238fc146200059a57600080fd5b806336568abe14620004415780633659cfe614620004665780633989c666146200048b5780634493edd714620004b057600080fd5b80631a9703da11620001f25780631a9703da146200039b578063248a9ca314620003c35780632f2ff15d14620003f757806331318511146200041c57600080fd5b806301ffc9a7146200026757806304c2320b14620002a1578063103624b1146200034f578063198a0ac0146200037657600080fd5b3662000262576040513481527fa8142743f8f70a4c26f3691cf4ed59718381fb2f18070ec52be1f1022d8555579060200160405180910390a1005b600080fd5b3480156200027457600080fd5b506200028c62000286366004620044fb565b6200080f565b60405190151581526020015b60405180910390f35b348015620002ae57600080fd5b5062000312620002c0366004620045b9565b80518082016020908101805161013582529282019190930120915280546001820154600283015460038401546004850154600590950154939492936001600160a01b0392831693919092169160ff1686565b6040805196875260208701959095526001600160a01b0393841694860194909452911660608401526080830152151560a082015260c00162000298565b3480156200035c57600080fd5b50620003746200036e36600462004667565b62000847565b005b3480156200038357600080fd5b506200037462000395366004620046e9565b62000975565b348015620003a857600080fd5b50620003b46101325481565b60405190815260200162000298565b348015620003d057600080fd5b50620003b4620003e23660046200473f565b60009081526065602052604090206001015490565b3480156200040457600080fd5b50620003746200041636600462004759565b620010a1565b3480156200042957600080fd5b50620003746200043b3660046200478c565b620010d0565b3480156200044e57600080fd5b50620003746200046036600462004759565b6200160c565b3480156200047357600080fd5b506200037462000485366004620047db565b6200168e565b3480156200049857600080fd5b5062000374620004aa366004620047fb565b6200177a565b348015620004bd57600080fd5b5062000374620004cf366004620046e9565b620017a8565b62000374620004e636600462004828565b62001e20565b348015620004f957600080fd5b50620003b462001ef9565b3480156200051157600080fd5b50620003746200052336600462004892565b62001faf565b3480156200053657600080fd5b5061012d5461012e5461012f5461013054610131546101325461013454604080516001600160a01b0398891681529688166020880152948716948601949094529185166060850152608084015260a08301529190911660c082015260e00162000298565b348015620005a757600080fd5b50620003b460008051602062005a2383398151915281565b348015620005cc57600080fd5b5062000374620005de3660046200478c565b6200214a565b348015620005f157600080fd5b506200037462000603366004620048f8565b6200268d565b3480156200061657600080fd5b50620003b46101315481565b3480156200062f57600080fd5b50620003b46200064136600462004967565b620027ad565b3480156200065457600080fd5b506200028c6200066636600462004759565b620027de565b3480156200067957600080fd5b50620003746200068b3660046200478c565b62002809565b3480156200069e57600080fd5b50620003b46101335481565b348015620006b757600080fd5b50620003b4600081565b62000374620006d2366004620049ac565b62002d50565b348015620006e557600080fd5b5062000374620006f7366004620049f3565b62002e59565b3480156200070a57600080fd5b50620003b46200071c36600462004967565b62002eb8565b3480156200072f57600080fd5b50620003746200074136600462004a45565b62002ee7565b3480156200075457600080fd5b50620003746200076636600462004759565b62003428565b3480156200077957600080fd5b50620003746200078b36600462004acc565b62003452565b3480156200079e57600080fd5b50620007b6620007b0366004620048f8565b6200356f565b60405162000298919062004b3a565b348015620007d257600080fd5b5062000374620007e4366004620047db565b62003698565b348015620007f757600080fd5b50620003b4600080516020620059bc83398151915281565b60006001600160e01b03198216637965db0b60e01b14806200084157506301ffc9a760e01b6001600160e01b03198316145b92915050565b818161013582826040516200085e92919062004b80565b90815260405190819003602001902060030154336001600160a01b0390911614620008a65760405162461bcd60e51b81526004016200089d9062004b90565b60405180910390fd5b620008ee866101368686604051620008c092919062004b80565b90815260408051602092819003830190206001600160a01b038e1660009081529252902060020190620036e7565b50620009378561013686866040516200090992919062004b80565b90815260408051602092819003830190206001600160a01b038e1660009081529252902060020190620036fc565b506000805160206200599c833981519152888888888888604051620009629695949392919062004bfa565b60405180910390a1505050505050505050565b600260975414156200099b5760405162461bcd60e51b81526004016200089d9062004c34565b600260978190555081816101358282604051620009ba92919062004b80565b9081526040519081900360200190206005015460ff16620009ef5760405162461bcd60e51b81526004016200089d9062004c6b565b620009fc8685856200370a565b600080600080610135888860405162000a1792919062004b80565b90815260405190819003602001812060030154632f1b130360e01b82526001600160a01b031690632f1b13039062000a57908d9060040190815260200190565b60a06040518083038186803b15801562000a7057600080fd5b505afa15801562000a85573d6000803e3d6000fd5b505050506040513d601f19601f8201168201806040525081019062000aab919062004ca2565b506040519296509094509250600191506101359062000ace908b908b9062004b80565b90815260405190819003602001812060030154634cbf3e1b60e11b82526001600160a01b03169063997e7c369062000b0e908e9060040190815260200190565b60206040518083038186803b15801562000b2757600080fd5b505afa15801562000b3c573d6000803e3d6000fd5b505050506040513d601f19601f8201168201806040525081019062000b62919062004ce3565b60ff161462000b855760405162461bcd60e51b81526004016200089d9062004d08565b610135888860405162000b9a92919062004b80565b90815260408051602092819003830181206002015463313ce56760e01b825291516001600160a01b039092169263313ce56792600480840193829003018186803b15801562000be857600080fd5b505afa15801562000bfd573d6000803e3d6000fd5b505050506040513d601f19601f8201168201806040525081019062000c23919062004ce3565b62000c3090601262004d55565b62000c3d90600a62004e78565b8362000c4a848c62004e89565b62000c56919062004eab565b62000c62919062004eab565b935088610135898960405162000c7a92919062004b80565b9081526020016040518091039020600101600082825462000c9c919062004ece565b9250508190555083610135898960405162000cb992919062004b80565b9081526020016040518091039020600001600082825462000cdb919062004ece565b925050819055506000610136898960405162000cf992919062004b80565b90815260408051602092819003830190203360009081529252812080549092508691839162000d2a90849062004ece565b9250508190555060006101358a8a60405162000d4892919062004b80565b9081526040519081900360200181206003015463d0896c5560e01b82526001600160a01b03169063d0896c559062000d8f908f908a90600401918252602082015260400190565b602060405180830381600087803b15801562000daa57600080fd5b505af115801562000dbf573d6000803e3d6000fd5b505050506040513d601f19601f8201168201806040525081019062000de5919062004ee8565b90508062000e2e5762000e2c8c6101368c8c60405162000e0792919062004b80565b90815260408051602092819003830190203360009081529252902060020190620036e7565b505b8160010160009054906101000a90046001600160a01b03166001600160a01b031663dbba0f0133886101358e8e60405162000e6b92919062004b80565b908152604051908190036020018120600201546001600160e01b031960e086901b16825262000eab9392916001600160a01b039091169060040162004f02565b600060405180830381600087803b15801562000ec657600080fd5b505af115801562000edb573d6000803e3d6000fd5b5050506001830154610134546001600160a01b03918216925063dbba0f019116670de0b6b3a76400006301e1338062000f15884262004ece565b6101325462000f25919062004e89565b62000f31919062004eab565b6101315462000f41919062004f25565b62000f4d908b62004e89565b62000f59919062004eab565b6101358e8e60405162000f6e92919062004b80565b908152604051908190036020018120600201546001600160e01b031960e086901b16825262000fae9392916001600160a01b039091169060040162004f02565b600060405180830381600087803b15801562000fc957600080fd5b505af115801562000fde573d6000803e3d6000fd5b505061012e54604051632770a7eb60e21b8152336004820152602481018f90526001600160a01b039091169250639dc29fac9150604401600060405180830381600087803b1580156200103057600080fd5b505af115801562001045573d6000803e3d6000fd5b50505050505050507f3b9f5aaaea5eb6df9a429d2bb3b035b934d8cd822d73aa2951ce0afeb6a0ed16338389848c8b8b6040516200108a979695949392919062004f40565b60405180910390a150506001609755505050505050565b600082815260656020526040902060010154620010bf8133620037a1565b620010cb838362003810565b505050565b60026097541415620010f65760405162461bcd60e51b81526004016200089d9062004c34565b6002609781905550818161013582826040516200111592919062004b80565b9081526040519081900360200190206005015460ff166200114a5760405162461bcd60e51b81526004016200089d9062004c6b565b620011578585856200370a565b61012d54604051630292e0fd60e01b815260009182916001600160a01b0390911690630292e0fd9062001191908990899060040162004f89565b60206040518083038186803b158015620011aa57600080fd5b505afa158015620011bf573d6000803e3d6000fd5b505050506040513d601f19601f82011682018060405250810190620011e5919062004ee8565b9050600080600061013589896040516200120192919062004b80565b90815260405190819003602001812060030154632f1b130360e01b82526001600160a01b031690632f1b13039062001241908d9060040190815260200190565b60a06040518083038186803b1580156200125a57600080fd5b505afa1580156200126f573d6000803e3d6000fd5b505050506040513d601f19601f8201168201806040525081019062001295919062004ca2565b50506040519295509092506001916101359150620012b7908c908c9062004b80565b90815260405190819003602001812060030154634cbf3e1b60e11b82526001600160a01b03169063997e7c3690620012f7908e9060040190815260200190565b60206040518083038186803b1580156200131057600080fd5b505afa15801562001325573d6000803e3d6000fd5b505050506040513d601f19601f820116820180604052508101906200134b919062004ce3565b60ff16146200136e5760405162461bcd60e51b81526004016200089d9062004d08565b82846200137c828462004e89565b62001388919062004eab565b62001394919062004ece565b9150816101358a8a604051620013ac92919062004b80565b90815260200160405180910390206000016000828254620013ce919062004f25565b92505081905550816101368a8a604051620013eb92919062004b80565b90815260408051602092819003830190203360009081529252812080549091906200141890849062004f25565b90915550506040516101359062001433908b908b9062004b80565b908152604051908190036020019020600301546001600160a01b031663b70a07ea8b8662001462868862004f25565b6040516001600160e01b031960e086901b168152600481019390935260248301919091526044820152606401602060405180830381600087803b158015620014a957600080fd5b505af1158015620014be573d6000803e3d6000fd5b505050506040513d601f19601f82011682018060405250810190620014e4919062004ee8565b9450620015008a6101368b8b60405162000e0792919062004b80565b5062001540856101368b8b6040516200151b92919062004b80565b90815260408051602092819003830190203360009081529252902060020190620036fc565b50620015be336101368b8b6040516200155b92919062004b80565b908152604080519182900360209081018320336000908152915220600101546001600160a01b03169085906101359062001599908f908f9062004b80565b908152604051908190036020019020600201546001600160a01b03169291906200389a565b506000805160206200599c833981519152620015db828462004f25565b848b878c8c604051620015f49695949392919062004bfa565b60405180910390a15050600160975550505050505050565b6001600160a01b03811633146200167e5760405162461bcd60e51b815260206004820152602f60248201527f416363657373436f6e74726f6c3a2063616e206f6e6c792072656e6f756e636560448201526e103937b632b9903337b91039b2b63360891b60648201526084016200089d565b6200168a8282620038f6565b5050565b306001600160a01b037f0000000000000000000000000000000000000000000000000000000000000000161415620016da5760405162461bcd60e51b81526004016200089d9062004f9f565b7f00000000000000000000000000000000000000000000000000000000000000006001600160a01b031662001725600080516020620059dc833981519152546001600160a01b031690565b6001600160a01b0316146200174e5760405162461bcd60e51b81526004016200089d9062004feb565b620017598162003960565b6040805160008082526020820190925262001777918391906200397c565b50565b60008051602062005a23833981519152620017968133620037a1565b50610131929092556101325561013355565b60026097541415620017ce5760405162461bcd60e51b81526004016200089d9062004c34565b600260978190555081816101358282604051620017ed92919062004b80565b9081526040519081900360200190206005015460ff16620018225760405162461bcd60e51b81526004016200089d9062004c6b565b61013584846040516200183792919062004b80565b9081526020016040518091039020600401548510158015620018e1575061012d54604051630ac1066b60e11b81526001600160a01b03909116906315820cd69062001889908790879060040162004f89565b60206040518083038186803b158015620018a257600080fd5b505afa158015620018b7573d6000803e3d6000fd5b505050506040513d601f19601f82011682018060405250810190620018dd919062004ee8565b8511155b6200193a5760405162461bcd60e51b815260206004820152602260248201527f5751526f757465723a20496e76616c696420636f6c6c61746572616c20726174604482015261696f60f01b60648201526084016200089d565b61012d54604051630292e0fd60e01b81526000916001600160a01b031690630292e0fd9062001970908890889060040162004f89565b60206040518083038186803b1580156200198957600080fd5b505afa1580156200199e573d6000803e3d6000fd5b505050506040513d601f19601f82011682018060405250810190620019c4919062004ee8565b905060006001600160a01b03166101368686604051620019e692919062004b80565b908152604080516020928190038301902033600090815292529020600101546001600160a01b0316141562001aa4573360405162001a2490620044ed565b6001600160a01b039091168152602001604051809103906000f08015801562001a51573d6000803e3d6000fd5b50610136868660405162001a6792919062004b80565b90815260408051602092819003830190203360009081529252902060010180546001600160a01b0319166001600160a01b03929092169190911790555b86610136868660405162001aba92919062004b80565b908152604080516020928190038301902033600090815292528120805490919062001ae790849062004f25565b9250508190555086610135868660405162001b0492919062004b80565b9081526020016040518091039020600001600082825462001b26919062004f25565b92505081905550600086610135878760405162001b4592919062004b80565b90815260408051602092819003830181206002015463313ce56760e01b825291516001600160a01b039092169263313ce56792600480840193829003018186803b15801562001b9357600080fd5b505afa15801562001ba8573d6000803e3d6000fd5b505050506040513d601f19601f8201168201806040525081019062001bce919062004ce3565b62001bdb90601262004d55565b62001be890600a62004e78565b62001bf4848b62004e89565b62001c00919062004e89565b62001c0c919062004eab565b905080610135878760405162001c2492919062004b80565b9081526020016040518091039020600101600082825462001c46919062004f25565b925050819055506000610135878760405162001c6492919062004b80565b9081526040519081900360200181206003015463cc6b3be360e01b825233600483015260248201859052604482018b9052606482018a90526001600160a01b03169063cc6b3be390608401602060405180830381600087803b15801562001cca57600080fd5b505af115801562001cdf573d6000803e3d6000fd5b505050506040513d601f19601f8201168201806040525081019062001d05919062004ee8565b905062001d218161013689896040516200151b92919062004b80565b5062001d7a33610136898960405162001d3c92919062004b80565b908152604080519182900360209081018320336000908152915220600101546001600160a01b0316908c906101359062001599908d908d9062004b80565b61012e546040516340c10f1960e01b8152336004820152602481018490526001600160a01b03909116906340c10f1990604401600060405180830381600087803b15801562001dc857600080fd5b505af115801562001ddd573d6000803e3d6000fd5b505050507f0cd37c976baaad20e50f369a7000baf6b6c37b632190cba4a51372e76c9476ad338a8a8587868d8d604051620015f498979695949392919062005037565b306001600160a01b037f000000000000000000000000000000000000000000000000000000000000000016141562001e6c5760405162461bcd60e51b81526004016200089d9062004f9f565b7f00000000000000000000000000000000000000000000000000000000000000006001600160a01b031662001eb7600080516020620059dc833981519152546001600160a01b031690565b6001600160a01b03161462001ee05760405162461bcd60e51b81526004016200089d9062004feb565b62001eeb8262003960565b6200168a828260016200397c565b6000306001600160a01b037f0000000000000000000000000000000000000000000000000000000000000000161462001f9b5760405162461bcd60e51b815260206004820152603860248201527f555550535570677261646561626c653a206d757374206e6f742062652063616c60448201527f6c6564207468726f7567682064656c656761746563616c6c000000000000000060648201526084016200089d565b50600080516020620059dc83398151915290565b600054610100900460ff1662001fcc5760005460ff161562001fd0565b303b155b620020355760405162461bcd60e51b815260206004820152602e60248201527f496e697469616c697a61626c653a20636f6e747261637420697320616c72656160448201526d191e481a5b9a5d1a585b1a5e995960921b60648201526084016200089d565b600054610100900460ff1615801562002058576000805461ffff19166101011790555b6200206262003b04565b6200206c62003b30565b6200207662003b04565b6200208360003362003b64565b6200209e60008051602062005a238339815191523362003b64565b620020b9600080516020620059bc8339815191523362003b64565b620020e3600080516020620059bc83398151915260008051602062005a2383398151915262003b70565b61012d80546001600160a01b038089166001600160a01b03199283161790925561012e8054888416908316179055610131869055610132859055610134805492851692909116919091179055801562002142576000805461ff00191690555b505050505050565b60026097541415620021705760405162461bcd60e51b81526004016200089d9062004c34565b6002609781905550818161013582826040516200218f92919062004b80565b9081526040519081900360200190206005015460ff16620021c45760405162461bcd60e51b81526004016200089d9062004c6b565b620021d18585856200370a565b61012d54604051630292e0fd60e01b81526000916001600160a01b031690630292e0fd9062002207908890889060040162004f89565b60206040518083038186803b1580156200222057600080fd5b505afa15801562002235573d6000803e3d6000fd5b505050506040513d601f19601f820116820180604052508101906200225b919062004ee8565b905060008060008061013589896040516200227892919062004b80565b90815260405190819003602001812060030154632f1b130360e01b82526001600160a01b031690632f1b130390620022b8908d9060040190815260200190565b60a06040518083038186803b158015620022d157600080fd5b505afa158015620022e6573d6000803e3d6000fd5b505050506040513d601f19601f820116820180604052508101906200230c919062004ca2565b50506040519295509093509150600190610135906200232f908c908c9062004b80565b90815260405190819003602001812060030154634cbf3e1b60e11b82526001600160a01b03169063997e7c36906200236f908e9060040190815260200190565b60206040518083038186803b1580156200238857600080fd5b505afa1580156200239d573d6000803e3d6000fd5b505050506040513d601f19601f82011682018060405250810190620023c3919062004ce3565b60ff1614620023e65760405162461bcd60e51b81526004016200089d9062004d08565b6000816101358b8b604051620023fe92919062004b80565b90815260408051602092819003830181206002015463313ce56760e01b825291516001600160a01b039092169263313ce56792600480840193829003018186803b1580156200244c57600080fd5b505afa15801562002461573d6000803e3d6000fd5b505050506040513d601f19601f8201168201806040525081019062002487919062004ce3565b6200249490601262004d55565b620024a190600a62004e78565b85620024ae868a62004ece565b620024ba919062004e89565b620024c6919062004e89565b620024d2919062004eab565b9050806101358b8b604051620024ea92919062004b80565b908152602001604051809103902060010160008282546200250c919062004f25565b909155505061012e546040516340c10f1960e01b8152336004820152602481018390526001600160a01b03909116906340c10f1990604401600060405180830381600087803b1580156200255f57600080fd5b505af115801562002574573d6000803e3d6000fd5b505050506101358a8a6040516200258d92919062004b80565b90815260405190819003602001812060030154635b8503f560e11b8252600482018d905260248201889052604482018690526001600160a01b03169063b70a07ea90606401602060405180830381600087803b158015620025ed57600080fd5b505af115801562002602573d6000803e3d6000fd5b505050506040513d601f19601f8201168201806040525081019062002628919062004ee8565b9450620026448b6101368c8c60405162000e0792919062004b80565b506200265f856101368c8c6040516200151b92919062004b80565b505050506000805160206200599c83398151915281848a858b8b6040516200108a9695949392919062004bfa565b610130546001600160a01b03163314620026ea5760405162461bcd60e51b815260206004820152601b60248201527f5751526f757465723a204f6e6c7920646562742061756374696f6e000000000060448201526064016200089d565b8261013583836040516200270092919062004b80565b9081526020016040518091039020600101600082825462002722919062004ece565b909155505061012e54604051632770a7eb60e21b81526001600160a01b0387811660048301526024820186905290911690639dc29fac90604401600060405180830381600087803b1580156200277757600080fd5b505af11580156200278c573d6000803e3d6000fd5b50620027a6925050506001600160a01b0386168562003bbb565b5050505050565b60006101358383604051620027c492919062004b80565b908152602001604051809103902060010154905092915050565b60009182526065602090815260408084206001600160a01b0393909316845291905290205460ff1690565b600260975414156200282f5760405162461bcd60e51b81526004016200089d9062004c34565b6002609781905550818161013582826040516200284e92919062004b80565b9081526040519081900360200190206005015460ff16620028835760405162461bcd60e51b81526004016200089d9062004c6b565b620028908585856200370a565b61012d54604051630292e0fd60e01b815260009182916001600160a01b0390911690630292e0fd90620028ca908990899060040162004f89565b60206040518083038186803b158015620028e357600080fd5b505afa158015620028f8573d6000803e3d6000fd5b505050506040513d601f19601f820116820180604052508101906200291e919062004ee8565b9050600080600061013589896040516200293a92919062004b80565b90815260405190819003602001812060030154632f1b130360e01b82526001600160a01b031690632f1b1303906200297a908d9060040190815260200190565b60a06040518083038186803b1580156200299357600080fd5b505afa158015620029a8573d6000803e3d6000fd5b505050506040513d601f19601f82011682018060405250810190620029ce919062004ca2565b5050604051929550909350915060019061013590620029f1908c908c9062004b80565b90815260405190819003602001812060030154634cbf3e1b60e11b82526001600160a01b03169063997e7c369062002a31908e9060040190815260200190565b60206040518083038186803b15801562002a4a57600080fd5b505afa15801562002a5f573d6000803e3d6000fd5b505050506040513d601f19601f8201168201806040525081019062002a85919062004ce3565b60ff161462002aa85760405162461bcd60e51b81526004016200089d9062004d08565b6000816101358b8b60405162002ac092919062004b80565b90815260408051602092819003830181206002015463313ce56760e01b825291516001600160a01b039092169263313ce56792600480840193829003018186803b15801562002b0e57600080fd5b505afa15801562002b23573d6000803e3d6000fd5b505050506040513d601f19601f8201168201806040525081019062002b49919062004ce3565b62002b5690601262004d55565b62002b6390600a62004e78565b8562002b70888762004ece565b62002b7c919062004e89565b62002b88919062004e89565b62002b94919062004eab565b9050806101358b8b60405162002bac92919062004b80565b9081526020016040518091039020600101600082825462002bce919062004ece565b90915550506040516101359062002be9908c908c9062004b80565b90815260405190819003602001812060030154635b8503f560e11b8252600482018d905260248201879052604482018690526001600160a01b03169063b70a07ea90606401602060405180830381600087803b15801562002c4957600080fd5b505af115801562002c5e573d6000803e3d6000fd5b505050506040513d601f19601f8201168201806040525081019062002c84919062004ee8565b955062002ca08b6101368c8c60405162000e0792919062004b80565b5062002cbb866101368c8c6040516200151b92919062004b80565b5061012e54604051632770a7eb60e21b8152336004820152602481018390526001600160a01b0390911690639dc29fac90604401600060405180830381600087803b15801562002d0a57600080fd5b505af115801562002d1f573d6000803e3d6000fd5b505050505050506000805160206200599c83398151915281838a868b8b6040516200108a9695949392919062004bfa565b61012f546001600160a01b0316331462002dad5760405162461bcd60e51b815260206004820152601e60248201527f5751526f757465723a204f6e6c7920737572706c75732061756374696f6e000060448201526064016200089d565b82610135838360405162002dc392919062004b80565b9081526020016040518091039020600101600082825462002de5919062004f25565b909155505061012e546040516340c10f1960e01b81526001600160a01b03868116600483015260248201869052909116906340c10f1990604401600060405180830381600087803b15801562002e3a57600080fd5b505af115801562002e4f573d6000803e3d6000fd5b5050505050505050565b60008051602062005a2383398151915262002e758133620037a1565b5061012d80546001600160a01b039485166001600160a01b03199182161790915561013080549385169382169390931790925561012f8054919093169116179055565b6000610135838360405162002ecf92919062004b80565b90815260405190819003602001902054905092915050565b6002609754141562002f0d5760405162461bcd60e51b81526004016200089d9062004c34565b60026097819055508181610135828260405162002f2c92919062004b80565b90815260405190819003602001902060030154336001600160a01b039091161462002f6b5760405162461bcd60e51b81526004016200089d9062004b90565b600080600080610135888860405162002f8692919062004b80565b90815260405190819003602001812060030154632f1b130360e01b82526001600160a01b031690632f1b13039062002fc6908e9060040190815260200190565b60a06040518083038186803b15801562002fdf57600080fd5b505afa15801562002ff4573d6000803e3d6000fd5b505050506040513d601f19601f820116820180604052508101906200301a919062004ca2565b60405190985092965090945061013592506200303b918b91508a9062004b80565b9081526040519081900360200181206003015463033b976b60e41b82526001600160a01b0316906333b976b0906200307b908e9060040190815260200190565b60206040518083038186803b1580156200309457600080fd5b505afa158015620030a9573d6000803e3d6000fd5b505050506040513d601f19601f82011682018060405250810190620030cf919062005087565b9050836101368989604051620030e792919062004b80565b90815260408051602092819003830190206001600160a01b03851660009081529252812080549091906200311d90849062004ece565b925050819055508361013589896040516200313a92919062004b80565b908152602001604051809103902060000160008282546200315c919062004ece565b925050819055508961013589896040516200317992919062004b80565b908152602001604051809103902060010160008282546200319b919062004ece565b909155505060405161013690620031b6908a908a9062004b80565b9081526040805191829003602090810183206001600160a01b038086166000908152919092529190912060010154169063dbba0f01908e9087906101359062003203908e908e9062004b80565b908152604051908190036020018120600201546001600160e01b031960e086901b168252620032439392916001600160a01b039091169060040162004f02565b600060405180830381600087803b1580156200325e57600080fd5b505af115801562003273573d6000803e3d6000fd5b5050505061013688886040516200328c92919062004b80565b90815260408051602092819003830181206001600160a01b038581166000908152919094529190912060010154610134549083169263dbba0f01929116908c9061013590620032df908e908e9062004b80565b908152604051908190036020018120600201546001600160e01b031960e086901b1682526200331f9392916001600160a01b039091169060040162004f02565b600060405180830381600087803b1580156200333a57600080fd5b505af11580156200334f573d6000803e3d6000fd5b505061012e54604051632770a7eb60e21b81526001600160a01b039091169250639dc29fac91506200339b908f908e906004016001600160a01b03929092168252602082015260400190565b600060405180830381600087803b158015620033b657600080fd5b505af1158015620033cb573d6000803e3d6000fd5b505050507f3b9f5aaaea5eb6df9a429d2bb3b035b934d8cd822d73aa2951ce0afeb6a0ed1681856000808f8d8d6040516200340d979695949392919062004f40565b60405180910390a15050600160975550505050505050505050565b600082815260656020526040902060010154620034468133620037a1565b620010cb8383620038f6565b60008051602062005a238339815191526200346e8133620037a1565b8561013584846040516200348492919062004b80565b908152602001604051809103902060020160006101000a8154816001600160a01b0302191690836001600160a01b03160217905550846101358484604051620034cf92919062004b80565b908152602001604051809103902060030160006101000a8154816001600160a01b0302191690836001600160a01b031602179055508661013584846040516200351a92919062004b80565b908152604051908190036020018120600501805492151560ff199093169290921790915584906101359062003553908690869062004b80565b9081526040519081900360200190206004015550505050505050565b6060600061013684846040516200358892919062004b80565b90815260408051602092819003830190206001600160a01b038a16600090815292529020600201905085620035bd8262003cda565b620035c9919062004ece565b851115620035ec5785620035dd8262003cda565b620035e9919062004ece565b94505b846001600160401b0381111562003607576200360762004527565b60405190808252806020026020018201604052801562003631578160200160208202803683370190505b50915060005b858110156200368d576200365862003650828962004f25565b839062003ce5565b8382815181106200366d576200366d620050a7565b6020908102919091010152806200368481620050bd565b91505062003637565b505095945050505050565b60008051602062005a23833981519152620036b48133620037a1565b5061013480546001600160a01b0319166001600160a01b0392909216919091179055565b6001600160a01b03163b151590565b6000620036f5838362003cf3565b9392505050565b6000620036f5838362003df7565b600061013683836040516200372192919062004b80565b90815260408051602092819003830190203360009081529252902090506200374d600282018562003e49565b6200379b5760405162461bcd60e51b815260206004820152601760248201527f5751526f757465723a204c6f74206e6f7420666f756e6400000000000000000060448201526064016200089d565b50505050565b620037ad8282620027de565b6200168a57620037c8816001600160a01b0316601462003e62565b620037d583602062003e62565b604051602001620037e89291906200510a565b60408051601f198184030181529082905262461bcd60e51b82526200089d9160040162005183565b6200381c8282620027de565b6200168a5760008281526065602090815260408083206001600160a01b03851684529091529020805460ff19166001179055620038563390565b6001600160a01b0316816001600160a01b0316837f2f8788117e7eff1d82e926ec794901d17c78024a50270940304540a733656f0d60405160405180910390a45050565b604080516001600160a01b0385811660248301528416604482015260648082018490528251808303909101815260849091019091526020810180516001600160e01b03166323b872dd60e01b1790526200379b9085906200401b565b620039028282620027de565b156200168a5760008281526065602090815260408083206001600160a01b0385168085529252808320805460ff1916905551339285917ff6391f5c32d9c69d2a47ea670b442974b53935d1edc7fd64eb21e047a839171b9190a45050565b600080516020620059bc8339815191526200168a8133620037a1565b7f4910fdfa16fed3260ed0e7147f7cc6da11a60208b5b9406d12a635614ffd91435460ff1615620039b257620010cb83620040f4565b826001600160a01b03166352d1902d6040518163ffffffff1660e01b815260040160206040518083038186803b158015620039ec57600080fd5b505afa92505050801562003a1f575060408051601f3d908101601f1916820190925262003a1c9181019062004ee8565b60015b62003a845760405162461bcd60e51b815260206004820152602e60248201527f45524331393637557067726164653a206e657720696d706c656d656e7461746960448201526d6f6e206973206e6f74205555505360901b60648201526084016200089d565b600080516020620059dc833981519152811462003af65760405162461bcd60e51b815260206004820152602960248201527f45524331393637557067726164653a20756e737570706f727465642070726f786044820152681a58589b195555525160ba1b60648201526084016200089d565b50620010cb83838362004193565b600054610100900460ff1662003b2e5760405162461bcd60e51b81526004016200089d90620051b8565b565b600054610100900460ff1662003b5a5760405162461bcd60e51b81526004016200089d90620051b8565b62003b2e620041be565b6200168a828262003810565b600082815260656020526040808220600101805490849055905190918391839186917fbd79b86ffe0ab8e8776151514217cd7cacd52c909f66475c3af44e129f0b00ff9190a4505050565b8047101562003c0d5760405162461bcd60e51b815260206004820152601d60248201527f416464726573733a20696e73756666696369656e742062616c616e636500000060448201526064016200089d565b6000826001600160a01b03168260405160006040518083038185875af1925050503d806000811462003c5c576040519150601f19603f3d011682016040523d82523d6000602084013e62003c61565b606091505b5050905080620010cb5760405162461bcd60e51b815260206004820152603a60248201527f416464726573733a20756e61626c6520746f2073656e642076616c75652c207260448201527f6563697069656e74206d6179206861766520726576657274656400000000000060648201526084016200089d565b600062000841825490565b6000620036f58383620041ef565b6000818152600183016020526040812054801562003dec57600062003d1a60018362004ece565b855490915060009062003d309060019062004ece565b905081811462003d9c57600086600001828154811062003d545762003d54620050a7565b906000526020600020015490508087600001848154811062003d7a5762003d7a620050a7565b6000918252602080832090910192909255918252600188019052604090208390555b855486908062003db05762003db062005203565b60019003818190600052602060002001600090559055856001016000868152602001908152602001600020600090556001935050505062000841565b600091505062000841565b600081815260018301602052604081205462003e405750815460018181018455600084815260208082209093018490558454848252828601909352604090209190915562000841565b50600062000841565b60008181526001830160205260408120541515620036f5565b6060600062003e7383600262004e89565b62003e8090600262004f25565b6001600160401b0381111562003e9a5762003e9a62004527565b6040519080825280601f01601f19166020018201604052801562003ec5576020820181803683370190505b509050600360fc1b8160008151811062003ee35762003ee3620050a7565b60200101906001600160f81b031916908160001a905350600f60fb1b8160018151811062003f155762003f15620050a7565b60200101906001600160f81b031916908160001a905350600062003f3b84600262004e89565b62003f4890600162004f25565b90505b600181111562003fca576f181899199a1a9b1b9c1cb0b131b232b360811b85600f166010811062003f805762003f80620050a7565b1a60f81b82828151811062003f995762003f99620050a7565b60200101906001600160f81b031916908160001a90535060049490941c9362003fc28162005219565b905062003f4b565b508315620036f55760405162461bcd60e51b815260206004820181905260248201527f537472696e67733a20686578206c656e67746820696e73756666696369656e7460448201526064016200089d565b600062004072826040518060400160405280602081526020017f5361666545524332303a206c6f772d6c6576656c2063616c6c206661696c6564815250856001600160a01b03166200421c9092919063ffffffff16565b805190915015620010cb578080602001905181019062004093919062005233565b620010cb5760405162461bcd60e51b815260206004820152602a60248201527f5361666545524332303a204552433230206f7065726174696f6e20646964206e6044820152691bdd081cdd58d8d9595960b21b60648201526084016200089d565b6001600160a01b0381163b620041635760405162461bcd60e51b815260206004820152602d60248201527f455243313936373a206e657720696d706c656d656e746174696f6e206973206e60448201526c1bdd08184818dbdb9d1c9858dd609a1b60648201526084016200089d565b600080516020620059dc83398151915280546001600160a01b0319166001600160a01b0392909216919091179055565b6200419e8362004235565b600082511180620041ac5750805b15620010cb576200379b838362004277565b600054610100900460ff16620041e85760405162461bcd60e51b81526004016200089d90620051b8565b6001609755565b6000826000018281548110620042095762004209620050a7565b9060005260206000200154905092915050565b60606200422d848460008562004374565b949350505050565b6200424081620040f4565b6040516001600160a01b038216907fbc7cd75a20ee27fd9adebab32041f755214dbc6bffa90cc0225b39da2e5c2d3b90600090a250565b60606001600160a01b0383163b620042e15760405162461bcd60e51b815260206004820152602660248201527f416464726573733a2064656c65676174652063616c6c20746f206e6f6e2d636f6044820152651b9d1c9858dd60d21b60648201526084016200089d565b600080846001600160a01b031684604051620042fe919062005253565b600060405180830381855af49150503d80600081146200433b576040519150601f19603f3d011682016040523d82523d6000602084013e62004340565b606091505b50915091506200436b8282604051806060016040528060278152602001620059fc60279139620044af565b95945050505050565b606082471015620043d75760405162461bcd60e51b815260206004820152602660248201527f416464726573733a20696e73756666696369656e742062616c616e636520666f6044820152651c8818d85b1b60d21b60648201526084016200089d565b6001600160a01b0385163b620044305760405162461bcd60e51b815260206004820152601d60248201527f416464726573733a2063616c6c20746f206e6f6e2d636f6e747261637400000060448201526064016200089d565b600080866001600160a01b031685876040516200444e919062005253565b60006040518083038185875af1925050503d80600081146200448d576040519150601f19603f3d011682016040523d82523d6000602084013e62004492565b606091505b5091509150620044a4828286620044af565b979650505050505050565b60608315620044c0575081620036f5565b825115620044d15782518084602001fd5b8160405162461bcd60e51b81526004016200089d919062005183565b61072a806200527283390190565b6000602082840312156200450e57600080fd5b81356001600160e01b031981168114620036f557600080fd5b634e487b7160e01b600052604160045260246000fd5b60006001600160401b03808411156200455a576200455a62004527565b604051601f8501601f19908116603f0116810190828211818310171562004585576200458562004527565b816040528093508581528686860111156200459f57600080fd5b858560208301376000602087830101525050509392505050565b600060208284031215620045cc57600080fd5b81356001600160401b03811115620045e357600080fd5b8201601f81018413620045f557600080fd5b6200422d848235602084016200453d565b6001600160a01b03811681146200177757600080fd5b60008083601f8401126200462f57600080fd5b5081356001600160401b038111156200464757600080fd5b6020830191508360208285010111156200466057600080fd5b9250929050565b600080600080600080600060c0888a0312156200468357600080fd5b8735620046908162004606565b96506020880135955060408801359450606088013593506080880135925060a08801356001600160401b03811115620046c857600080fd5b620046d68a828b016200461c565b989b979a50959850939692959293505050565b600080600080606085870312156200470057600080fd5b843593506020850135925060408501356001600160401b038111156200472557600080fd5b62004733878288016200461c565b95989497509550505050565b6000602082840312156200475257600080fd5b5035919050565b600080604083850312156200476d57600080fd5b823591506020830135620047818162004606565b809150509250929050565b600080600060408486031215620047a257600080fd5b8335925060208401356001600160401b03811115620047c057600080fd5b620047ce868287016200461c565b9497909650939450505050565b600060208284031215620047ee57600080fd5b8135620036f58162004606565b6000806000606084860312156200481157600080fd5b505081359360208301359350604090920135919050565b600080604083850312156200483c57600080fd5b8235620048498162004606565b915060208301356001600160401b038111156200486557600080fd5b8301601f810185136200487757600080fd5b62004888858235602084016200453d565b9150509250929050565b600080600080600060a08688031215620048ab57600080fd5b8535620048b88162004606565b94506020860135620048ca8162004606565b935060408601359250606086013591506080860135620048ea8162004606565b809150509295509295909350565b6000806000806000608086880312156200491157600080fd5b85356200491e8162004606565b9450602086013593506040860135925060608601356001600160401b038111156200494857600080fd5b62004956888289016200461c565b969995985093965092949392505050565b600080602083850312156200497b57600080fd5b82356001600160401b038111156200499257600080fd5b620049a0858286016200461c565b90969095509350505050565b60008060008060608587031215620049c357600080fd5b8435620049d08162004606565b93506020850135925060408501356001600160401b038111156200472557600080fd5b60008060006060848603121562004a0957600080fd5b833562004a168162004606565b9250602084013562004a288162004606565b9150604084013562004a3a8162004606565b809150509250925092565b60008060008060008060a0878903121562004a5f57600080fd5b863562004a6c8162004606565b955060208701359450604087013593506060870135925060808701356001600160401b0381111562004a9d57600080fd5b62004aab89828a016200461c565b979a9699509497509295939492505050565b80151581146200177757600080fd5b60008060008060008060a0878903121562004ae657600080fd5b863562004af38162004abd565b9550602087013562004b058162004606565b9450604087013562004b178162004606565b93506060870135925060808701356001600160401b0381111562004a9d57600080fd5b6020808252825182820181905260009190848201906040850190845b8181101562004b745783518352928401929184019160010162004b56565b50909695505050505050565b8183823760009101908152919050565b60208082526021908201527f5751526f757465723a204f6e6c7920636f6c6c61746572616c2061756374696f6040820152603760f91b606082015260800190565b81835281816020850137506000828201602090810191909152601f909101601f19169091010190565b86815285602082015284604082015283606082015260a06080820152600062004c2860a08301848662004bd1565b98975050505050505050565b6020808252601f908201527f5265656e7472616e637947756172643a207265656e7472616e742063616c6c00604082015260600190565b60208082526017908201527f5751526f757465723a20546f6b656e20646961626c6564000000000000000000604082015260600190565b600080600080600060a0868803121562004cbb57600080fd5b5050835160208501516040860151606087015160809097015192989197509594509092509050565b60006020828403121562004cf657600080fd5b815160ff81168114620036f557600080fd5b60208082526018908201527f5751526f757465723a20537461747573206e6f74206e65770000000000000000604082015260600190565b634e487b7160e01b600052601160045260246000fd5b600060ff821660ff84168082101562004d725762004d7262004d3f565b90039392505050565b600181815b8085111562004dbc57816000190482111562004da05762004da062004d3f565b8085161562004dae57918102915b93841c939080029062004d80565b509250929050565b60008262004dd55750600162000841565b8162004de45750600062000841565b816001811462004dfd576002811462004e085762004e28565b600191505062000841565b60ff84111562004e1c5762004e1c62004d3f565b50506001821b62000841565b5060208310610133831016604e8410600b841016171562004e4d575081810a62000841565b62004e59838362004d7b565b806000190482111562004e705762004e7062004d3f565b029392505050565b6000620036f560ff84168362004dc4565b600081600019048311821515161562004ea65762004ea662004d3f565b500290565b60008262004ec957634e487b7160e01b600052601260045260246000fd5b500490565b60008282101562004ee35762004ee362004d3f565b500390565b60006020828403121562004efb57600080fd5b5051919050565b6001600160a01b0393841681526020810192909252909116604082015260600190565b6000821982111562004f3b5762004f3b62004d3f565b500190565b60018060a01b038816815286602082015285604082015284606082015283608082015260c060a0820152600062004f7c60c08301848662004bd1565b9998505050505050505050565b6020815260006200422d60208301848662004bd1565b6020808252602c908201527f46756e6374696f6e206d7573742062652063616c6c6564207468726f7567682060408201526b19195b1959d85d1958d85b1b60a21b606082015260800190565b6020808252602c908201527f46756e6374696f6e206d7573742062652063616c6c6564207468726f7567682060408201526b6163746976652070726f787960a01b606082015260800190565b60018060a01b03891681528760208201528660408201528560608201528460808201528360a082015260e060c082015260006200507960e08301848662004bd1565b9a9950505050505050505050565b6000602082840312156200509a57600080fd5b8151620036f58162004606565b634e487b7160e01b600052603260045260246000fd5b6000600019821415620050d457620050d462004d3f565b5060010190565b60005b83811015620050f8578181015183820152602001620050de565b838111156200379b5750506000910152565b7f416363657373436f6e74726f6c3a206163636f756e742000000000000000000081526000835162005144816017850160208801620050db565b7001034b99036b4b9b9b4b733903937b6329607d1b601791840191820152835162005177816028840160208801620050db565b01602801949350505050565b6020815260008251806020840152620051a4816040850160208701620050db565b601f01601f19169190910160400192915050565b6020808252602b908201527f496e697469616c697a61626c653a20636f6e7472616374206973206e6f74206960408201526a6e697469616c697a696e6760a81b606082015260800190565b634e487b7160e01b600052603160045260246000fd5b6000816200522b576200522b62004d3f565b506000190190565b6000602082840312156200524657600080fd5b8151620036f58162004abd565b6000825162005267818460208701620050db565b919091019291505056fe608060405234801561001057600080fd5b5060405161072a38038061072a83398101604081905261002f91610062565b60008054336001600160a01b031991821617909155600180549091166001600160a01b0392909216919091179055610092565b60006020828403121561007457600080fd5b81516001600160a01b038116811461008b57600080fd5b9392505050565b610689806100a16000396000f3fe608060405234801561001057600080fd5b50600436106100415760003560e01c80638da5cb5b14610046578063dbba0f0114610075578063f887ea401461008a575b600080fd5b600154610059906001600160a01b031681565b6040516001600160a01b03909116815260200160405180910390f35b610088610083366004610570565b61009d565b005b600054610059906001600160a01b031681565b6000546001600160a01b031633146101085760405162461bcd60e51b815260206004820152602360248201527f5751526f757465725661756c743a2053656e646572206973206e6f7420726f756044820152623a32b960e91b60648201526084015b60405180910390fd5b6001600160a01b038116156101305761012b6001600160a01b0382168484610193565b610143565b6101436001600160a01b038416836101ea565b604080516001600160a01b038084168252851660208201529081018390527fd1ba4ac2e2a11b5101f6cb4d978f514a155b421e8ec396d2d9abaf0bb02917ee9060600160405180910390a1505050565b604080516001600160a01b038416602482015260448082018490528251808303909101815260649091019091526020810180516001600160e01b031663a9059cbb60e01b1790526101e5908490610303565b505050565b8047101561023a5760405162461bcd60e51b815260206004820152601d60248201527f416464726573733a20696e73756666696369656e742062616c616e636500000060448201526064016100ff565b6000826001600160a01b03168260405160006040518083038185875af1925050503d8060008114610287576040519150601f19603f3d011682016040523d82523d6000602084013e61028c565b606091505b50509050806101e55760405162461bcd60e51b815260206004820152603a60248201527f416464726573733a20756e61626c6520746f2073656e642076616c75652c207260448201527f6563697069656e74206d6179206861766520726576657274656400000000000060648201526084016100ff565b6000610358826040518060400160405280602081526020017f5361666545524332303a206c6f772d6c6576656c2063616c6c206661696c6564815250856001600160a01b03166103d59092919063ffffffff16565b8051909150156101e5578080602001905181019061037691906105b2565b6101e55760405162461bcd60e51b815260206004820152602a60248201527f5361666545524332303a204552433230206f7065726174696f6e20646964206e6044820152691bdd081cdd58d8d9595960b21b60648201526084016100ff565b60606103e484846000856103ee565b90505b9392505050565b60608247101561044f5760405162461bcd60e51b815260206004820152602660248201527f416464726573733a20696e73756666696369656e742062616c616e636520666f6044820152651c8818d85b1b60d21b60648201526084016100ff565b6001600160a01b0385163b6104a65760405162461bcd60e51b815260206004820152601d60248201527f416464726573733a2063616c6c20746f206e6f6e2d636f6e747261637400000060448201526064016100ff565b600080866001600160a01b031685876040516104c29190610604565b60006040518083038185875af1925050503d80600081146104ff576040519150601f19603f3d011682016040523d82523d6000602084013e610504565b606091505b509150915061051482828661051f565b979650505050505050565b6060831561052e5750816103e7565b82511561053e5782518084602001fd5b8160405162461bcd60e51b81526004016100ff9190610620565b6001600160a01b038116811461056d57600080fd5b50565b60008060006060848603121561058557600080fd5b833561059081610558565b92506020840135915060408401356105a781610558565b809150509250925092565b6000602082840312156105c457600080fd5b815180151581146103e757600080fd5b60005b838110156105ef5781810151838201526020016105d7565b838111156105fe576000848401525b50505050565b600082516106168184602087016105d4565b9190910192915050565b602081526000825180602084015261063f8160408501602087016105d4565b601f01601f1916919091016040019291505056fea2646970667358221220f9599cb443d118d129a11e97dea91cb2df9e7c8ddbd8811c90f86e43dc8f329564736f6c63430008090033cc339a55f6f7f4d533e43e3a4c6a266b6a4fa027e27f121c360b1e38e5990247189ab7a9244df0848122154315af71fe140f3db0fe014031783b0946b8c9d2e3360894a13ba1a3210667c828492db98dca3e2076cc3735a920a3ca505d382bbc416464726573733a206c6f772d6c6576656c2064656c65676174652063616c6c206661696c6564a49807205ce4d355092ef5a8a18f56e8913cf4a201fbe287825b095693c21775a26469706673582212209d31328573fd37c006363d57da1a5633c0504ffeed403b78cac1746f01e70a2864736f6c63430008090033",
  "linkReferences": {},
  "deployedLinkReferences": {}
}