{
  "_format": "hh-sol-artifact-1",
  "contractName": "WQRouter",
  "sourceName": "contracts/stablecoin/WQRouter.sol",
  "abi": [
    {
      "inputs": [],
      "stateMutability": "nonpayable",
      "type": "constructor"
    },
    {
      "anonymous": false,
      "inputs": [
        {
          "indexed": false,
          "internalType": "address",
          "name": "previousAdmin",
          "type": "address"
        },
        {
          "indexed": false,
          "internalType": "address",
          "name": "newAdmin",
          "type": "address"
        }
      ],
      "name": "AdminChanged",
      "type": "event"
    },
    {
      "anonymous": false,
      "inputs": [
        {
          "indexed": true,
          "internalType": "address",
          "name": "beacon",
          "type": "address"
        }
      ],
      "name": "BeaconUpgraded",
      "type": "event"
    },
    {
      "anonymous": false,
      "inputs": [
        {
          "indexed": false,
          "internalType": "uint256",
          "name": "collateral",
          "type": "uint256"
        },
        {
          "indexed": false,
          "internalType": "uint256",
          "name": "debt",
          "type": "uint256"
        },
        {
          "indexed": false,
          "internalType": "uint256",
          "name": "price",
          "type": "uint256"
        },
        {
          "indexed": false,
          "internalType": "uint256",
          "name": "index",
          "type": "uint256"
        },
        {
          "indexed": false,
          "internalType": "uint256",
          "name": "newIndex",
          "type": "uint256"
        },
        {
          "indexed": false,
          "internalType": "string",
          "name": "symbol",
          "type": "string"
        }
      ],
      "name": "Moved",
      "type": "event"
    },
    {
      "anonymous": false,
      "inputs": [
        {
          "indexed": false,
          "internalType": "address",
          "name": "user",
          "type": "address"
        },
        {
          "indexed": false,
          "internalType": "uint256",
          "name": "collateral",
          "type": "uint256"
        },
        {
          "indexed": false,
          "internalType": "uint256",
          "name": "ratio",
          "type": "uint256"
        },
        {
          "indexed": false,
          "internalType": "uint256",
          "name": "debt",
          "type": "uint256"
        },
        {
          "indexed": false,
          "internalType": "uint256",
          "name": "price",
          "type": "uint256"
        },
        {
          "indexed": false,
          "internalType": "uint256",
          "name": "index",
          "type": "uint256"
        },
        {
          "indexed": false,
          "internalType": "string",
          "name": "symbol",
          "type": "string"
        }
      ],
      "name": "Produced",
      "type": "event"
    },
    {
      "anonymous": false,
      "inputs": [
        {
          "indexed": false,
          "internalType": "uint256",
          "name": "amount",
          "type": "uint256"
        }
      ],
      "name": "Received",
      "type": "event"
    },
    {
      "anonymous": false,
      "inputs": [
        {
          "indexed": false,
          "internalType": "address",
          "name": "user",
          "type": "address"
        },
        {
          "indexed": false,
          "internalType": "uint256",
          "name": "collateral",
          "type": "uint256"
        },
        {
          "indexed": false,
          "internalType": "uint256",
          "name": "debt",
          "type": "uint256"
        },
        {
          "indexed": false,
          "internalType": "uint256",
          "name": "price",
          "type": "uint256"
        },
        {
          "indexed": false,
          "internalType": "uint256",
          "name": "ratio",
          "type": "uint256"
        },
        {
          "indexed": false,
          "internalType": "uint256",
          "name": "index",
          "type": "uint256"
        },
        {
          "indexed": false,
          "internalType": "string",
          "name": "symbol",
          "type": "string"
        }
      ],
      "name": "Removed",
      "type": "event"
    },
    {
      "anonymous": false,
      "inputs": [
        {
          "indexed": true,
          "internalType": "bytes32",
          "name": "role",
          "type": "bytes32"
        },
        {
          "indexed": true,
          "internalType": "bytes32",
          "name": "previousAdminRole",
          "type": "bytes32"
        },
        {
          "indexed": true,
          "internalType": "bytes32",
          "name": "newAdminRole",
          "type": "bytes32"
        }
      ],
      "name": "RoleAdminChanged",
      "type": "event"
    },
    {
      "anonymous": false,
      "inputs": [
        {
          "indexed": true,
          "internalType": "bytes32",
          "name": "role",
          "type": "bytes32"
        },
        {
          "indexed": true,
          "internalType": "address",
          "name": "account",
          "type": "address"
        },
        {
          "indexed": true,
          "internalType": "address",
          "name": "sender",
          "type": "address"
        }
      ],
      "name": "RoleGranted",
      "type": "event"
    },
    {
      "anonymous": false,
      "inputs": [
        {
          "indexed": true,
          "internalType": "bytes32",
          "name": "role",
          "type": "bytes32"
        },
        {
          "indexed": true,
          "internalType": "address",
          "name": "account",
          "type": "address"
        },
        {
          "indexed": true,
          "internalType": "address",
          "name": "sender",
          "type": "address"
        }
      ],
      "name": "RoleRevoked",
      "type": "event"
    },
    {
      "anonymous": false,
      "inputs": [
        {
          "indexed": true,
          "internalType": "address",
          "name": "implementation",
          "type": "address"
        }
      ],
      "name": "Upgraded",
      "type": "event"
    },
    {
      "inputs": [],
      "name": "ADMIN_ROLE",
      "outputs": [
        {
          "internalType": "bytes32",
          "name": "",
          "type": "bytes32"
        }
      ],
      "stateMutability": "view",
      "type": "function"
    },
    {
      "inputs": [],
      "name": "DEFAULT_ADMIN_ROLE",
      "outputs": [
        {
          "internalType": "bytes32",
          "name": "",
          "type": "bytes32"
        }
      ],
      "stateMutability": "view",
      "type": "function"
    },
    {
      "inputs": [],
      "name": "UPGRADER_ROLE",
      "outputs": [
        {
          "internalType": "bytes32",
          "name": "",
          "type": "bytes32"
        }
      ],
      "stateMutability": "view",
      "type": "function"
    },
    {
      "inputs": [
        {
          "internalType": "uint256",
          "name": "index",
          "type": "uint256"
        },
        {
          "internalType": "string",
          "name": "symbol",
          "type": "string"
        }
      ],
      "name": "addCollateral",
      "outputs": [],
      "stateMutability": "nonpayable",
      "type": "function"
    },
    {
      "inputs": [],
      "name": "annualInterestRate",
      "outputs": [
        {
          "internalType": "uint256",
          "name": "",
          "type": "uint256"
        }
      ],
      "stateMutability": "view",
      "type": "function"
    },
    {
      "inputs": [
        {
          "internalType": "address",
          "name": "buyer",
          "type": "address"
        },
        {
          "internalType": "uint256",
          "name": "index",
          "type": "uint256"
        },
        {
          "internalType": "uint256",
          "name": "debtAmount",
          "type": "uint256"
        },
        {
          "internalType": "uint256",
          "name": "collateralAmount",
          "type": "uint256"
        },
        {
          "internalType": "uint256",
          "name": "comission",
          "type": "uint256"
        },
        {
          "internalType": "string",
          "name": "symbol",
          "type": "string"
        }
      ],
      "name": "buyCollateral",
      "outputs": [],
      "stateMutability": "nonpayable",
      "type": "function"
    },
    {
      "inputs": [
        {
          "internalType": "uint256",
          "name": "index",
          "type": "uint256"
        },
        {
          "internalType": "string",
          "name": "symbol",
          "type": "string"
        }
      ],
      "name": "claimExtraDebt",
      "outputs": [],
      "stateMutability": "nonpayable",
      "type": "function"
    },
    {
      "inputs": [
        {
          "internalType": "uint256",
          "name": "index",
          "type": "uint256"
        },
        {
          "internalType": "string",
          "name": "symbol",
          "type": "string"
        }
      ],
      "name": "disposeDebt",
      "outputs": [],
      "stateMutability": "nonpayable",
      "type": "function"
    },
    {
      "inputs": [],
      "name": "fee",
      "outputs": [
        {
          "internalType": "uint256",
          "name": "",
          "type": "uint256"
        }
      ],
      "stateMutability": "view",
      "type": "function"
    },
    {
      "inputs": [],
      "name": "fixedRate",
      "outputs": [
        {
          "internalType": "uint256",
          "name": "",
          "type": "uint256"
        }
      ],
      "stateMutability": "view",
      "type": "function"
    },
    {
      "inputs": [
        {
          "internalType": "string",
          "name": "symbol",
          "type": "string"
        }
      ],
      "name": "getCollateral",
      "outputs": [
        {
          "internalType": "uint256",
          "name": "amount",
          "type": "uint256"
        }
      ],
      "stateMutability": "view",
      "type": "function"
    },
    {
      "inputs": [
        {
          "internalType": "string",
          "name": "symbol",
          "type": "string"
        }
      ],
      "name": "getDebt",
      "outputs": [
        {
          "internalType": "uint256",
          "name": "amount",
          "type": "uint256"
        }
      ],
      "stateMutability": "view",
      "type": "function"
    },
    {
      "inputs": [],
      "name": "getParams",
      "outputs": [
        {
          "internalType": "contract WQPriceOracleInterface",
          "name": "",
          "type": "address"
        },
        {
          "internalType": "contract WQBridgeTokenInterface",
          "name": "",
          "type": "address"
        },
        {
          "internalType": "contract WQSurplusAuction",
          "name": "",
          "type": "address"
        },
        {
          "internalType": "contract WQDebtAuction",
          "name": "",
          "type": "address"
        },
        {
          "internalType": "uint256",
          "name": "",
          "type": "uint256"
        },
        {
          "internalType": "uint256",
          "name": "",
          "type": "uint256"
        },
        {
          "internalType": "address",
          "name": "",
          "type": "address"
        }
      ],
      "stateMutability": "view",
      "type": "function"
    },
    {
      "inputs": [
        {
          "internalType": "bytes32",
          "name": "role",
          "type": "bytes32"
        }
      ],
      "name": "getRoleAdmin",
      "outputs": [
        {
          "internalType": "bytes32",
          "name": "",
          "type": "bytes32"
        }
      ],
      "stateMutability": "view",
      "type": "function"
    },
    {
      "inputs": [
        {
          "internalType": "address",
          "name": "user",
          "type": "address"
        },
        {
          "internalType": "uint256",
          "name": "offset",
          "type": "uint256"
        },
        {
          "internalType": "uint256",
          "name": "limit",
          "type": "uint256"
        },
        {
          "internalType": "string",
          "name": "symbol",
          "type": "string"
        }
      ],
      "name": "getUserLots",
      "outputs": [
        {
          "internalType": "uint256[]",
          "name": "page",
          "type": "uint256[]"
        }
      ],
      "stateMutability": "view",
      "type": "function"
    },
    {
      "inputs": [
        {
          "internalType": "bytes32",
          "name": "role",
          "type": "bytes32"
        },
        {
          "internalType": "address",
          "name": "account",
          "type": "address"
        }
      ],
      "name": "grantRole",
      "outputs": [],
      "stateMutability": "nonpayable",
      "type": "function"
    },
    {
      "inputs": [
        {
          "internalType": "bytes32",
          "name": "role",
          "type": "bytes32"
        },
        {
          "internalType": "address",
          "name": "account",
          "type": "address"
        }
      ],
      "name": "hasRole",
      "outputs": [
        {
          "internalType": "bool",
          "name": "",
          "type": "bool"
        }
      ],
      "stateMutability": "view",
      "type": "function"
    },
    {
      "inputs": [
        {
          "internalType": "address",
          "name": "_oracle",
          "type": "address"
        },
        {
          "internalType": "address",
          "name": "_wusd",
          "type": "address"
        },
        {
          "internalType": "uint256",
          "name": "_fixedRate",
          "type": "uint256"
        },
        {
          "internalType": "uint256",
          "name": "_annualInterestRate",
          "type": "uint256"
        },
        {
          "internalType": "address",
          "name": "_feeReceiver",
          "type": "address"
        }
      ],
      "name": "initialize",
      "outputs": [],
      "stateMutability": "nonpayable",
      "type": "function"
    },
    {
      "inputs": [
        {
          "internalType": "address",
          "name": "user",
          "type": "address"
        },
        {
          "internalType": "uint256",
          "name": "collateral",
          "type": "uint256"
        },
        {
          "internalType": "uint256",
          "name": "price",
          "type": "uint256"
        },
        {
          "internalType": "uint256",
          "name": "collateralRatio",
          "type": "uint256"
        },
        {
          "internalType": "uint256",
          "name": "index",
          "type": "uint256"
        },
        {
          "internalType": "uint256",
          "name": "newIndex",
          "type": "uint256"
        },
        {
          "internalType": "string",
          "name": "symbol",
          "type": "string"
        }
      ],
      "name": "moveUserLot",
      "outputs": [],
      "stateMutability": "nonpayable",
      "type": "function"
    },
    {
      "inputs": [
        {
          "internalType": "uint256",
          "name": "collateralAmount",
          "type": "uint256"
        },
        {
          "internalType": "uint256",
          "name": "collateralRatio",
          "type": "uint256"
        },
        {
          "internalType": "string",
          "name": "symbol",
          "type": "string"
        }
      ],
      "name": "produceWUSD",
      "outputs": [],
      "stateMutability": "nonpayable",
      "type": "function"
    },
    {
      "inputs": [],
      "name": "proxiableUUID",
      "outputs": [
        {
          "internalType": "bytes32",
          "name": "",
          "type": "bytes32"
        }
      ],
      "stateMutability": "view",
      "type": "function"
    },
    {
      "inputs": [
        {
          "internalType": "uint256",
          "name": "index",
          "type": "uint256"
        },
        {
          "internalType": "uint256",
          "name": "debtPart",
          "type": "uint256"
        },
        {
          "internalType": "string",
          "name": "symbol",
          "type": "string"
        }
      ],
      "name": "removeCollateral",
      "outputs": [],
      "stateMutability": "nonpayable",
      "type": "function"
    },
    {
      "inputs": [
        {
          "internalType": "bytes32",
          "name": "role",
          "type": "bytes32"
        },
        {
          "internalType": "address",
          "name": "account",
          "type": "address"
        }
      ],
      "name": "renounceRole",
      "outputs": [],
      "stateMutability": "nonpayable",
      "type": "function"
    },
    {
      "inputs": [
        {
          "internalType": "bytes32",
          "name": "role",
          "type": "bytes32"
        },
        {
          "internalType": "address",
          "name": "account",
          "type": "address"
        }
      ],
      "name": "revokeRole",
      "outputs": [],
      "stateMutability": "nonpayable",
      "type": "function"
    },
    {
      "inputs": [
        {
          "internalType": "address",
          "name": "_oracle",
          "type": "address"
        },
        {
          "internalType": "address",
          "name": "debt_auction",
          "type": "address"
        },
        {
          "internalType": "address",
          "name": "surplus_auction",
          "type": "address"
        }
      ],
      "name": "setContracts",
      "outputs": [],
      "stateMutability": "nonpayable",
      "type": "function"
    },
    {
      "inputs": [
        {
          "internalType": "address",
          "name": "_feeReceiver",
          "type": "address"
        }
      ],
      "name": "setFeeReceiver",
      "outputs": [],
      "stateMutability": "nonpayable",
      "type": "function"
    },
    {
      "inputs": [
        {
          "internalType": "uint256",
          "name": "_fixedRate",
          "type": "uint256"
        },
        {
          "internalType": "uint256",
          "name": "_annualInterestRate",
          "type": "uint256"
        },
        {
          "internalType": "uint256",
          "name": "_fee",
          "type": "uint256"
        }
      ],
      "name": "setRate",
      "outputs": [],
      "stateMutability": "nonpayable",
      "type": "function"
    },
    {
      "inputs": [
        {
          "internalType": "bool",
          "name": "enabled",
          "type": "bool"
        },
        {
          "internalType": "address",
          "name": "token",
          "type": "address"
        },
        {
          "internalType": "address",
          "name": "auction",
          "type": "address"
        },
        {
          "internalType": "uint256",
          "name": "minRatio",
          "type": "uint256"
        },
        {
          "internalType": "string",
          "name": "symbol",
          "type": "string"
        }
      ],
      "name": "setToken",
      "outputs": [],
      "stateMutability": "nonpayable",
      "type": "function"
    },
    {
      "inputs": [
        {
          "internalType": "bytes4",
          "name": "interfaceId",
          "type": "bytes4"
        }
      ],
      "name": "supportsInterface",
      "outputs": [
        {
          "internalType": "bool",
          "name": "",
          "type": "bool"
        }
      ],
      "stateMutability": "view",
      "type": "function"
    },
    {
      "inputs": [
        {
          "internalType": "string",
          "name": "",
          "type": "string"
        }
      ],
      "name": "tokens",
      "outputs": [
        {
          "internalType": "uint256",
          "name": "totalCollateral",
          "type": "uint256"
        },
        {
          "internalType": "uint256",
          "name": "totalDebt",
          "type": "uint256"
        },
        {
          "internalType": "address",
          "name": "token",
          "type": "address"
        },
        {
          "internalType": "contract WQCollateralAuction",
          "name": "collateralAuction",
          "type": "address"
        },
        {
          "internalType": "uint256",
          "name": "minRatio",
          "type": "uint256"
        },
        {
          "internalType": "bool",
          "name": "enabled",
          "type": "bool"
        }
      ],
      "stateMutability": "view",
      "type": "function"
    },
    {
      "inputs": [
        {
          "internalType": "address",
          "name": "user",
          "type": "address"
        },
        {
          "internalType": "uint256",
          "name": "amount",
          "type": "uint256"
        },
        {
          "internalType": "uint256",
          "name": "cost",
          "type": "uint256"
        },
        {
          "internalType": "string",
          "name": "symbol",
          "type": "string"
        }
      ],
      "name": "transferDebt",
      "outputs": [],
      "stateMutability": "nonpayable",
      "type": "function"
    },
    {
      "inputs": [
        {
          "internalType": "address",
          "name": "user",
          "type": "address"
        },
        {
          "internalType": "uint256",
          "name": "amount",
          "type": "uint256"
        },
        {
          "internalType": "string",
          "name": "symbol",
          "type": "string"
        }
      ],
      "name": "transferSurplus",
      "outputs": [],
      "stateMutability": "payable",
      "type": "function"
    },
    {
      "inputs": [
        {
          "internalType": "address",
          "name": "newImplementation",
          "type": "address"
        }
      ],
      "name": "upgradeTo",
      "outputs": [],
      "stateMutability": "nonpayable",
      "type": "function"
    },
    {
      "inputs": [
        {
          "internalType": "address",
          "name": "newImplementation",
          "type": "address"
        },
        {
          "internalType": "bytes",
          "name": "data",
          "type": "bytes"
        }
      ],
      "name": "upgradeToAndCall",
      "outputs": [],
      "stateMutability": "payable",
      "type": "function"
    },
    {
      "stateMutability": "payable",
      "type": "receive"
    }
  ],
  "bytecode": "0x60a0604052306080523480156200001557600080fd5b50600054610100900460ff16620000335760005460ff16156200003d565b6200003d620000e2565b620000a55760405162461bcd60e51b815260206004820152602e60248201527f496e697469616c697a61626c653a20636f6e747261637420697320616c72656160448201526d191e481a5b9a5d1a585b1a5e995960921b606482015260840160405180910390fd5b600054610100900460ff16158015620000c8576000805461ffff19166101011790555b8015620000db576000805461ff00191690555b506200010f565b6000620000fa306200010060201b6200391c1760201c565b15905090565b6001600160a01b03163b151590565b608051615d2562000147600039600081816116f50152818161173801528181611eac01528181611eef0152611f870152615d256000f3fe608060405260043610620002275760003560e01c80637d2bda961162000123578063aa87441f11620000ad578063ddca3f431162000078578063ddca3f431462000753578063e19af821146200076c578063e1cc246a1462000791578063efdcd97414620007c5578063f72c0d8b14620007ea57600080fd5b8063aa87441f14620006cd578063b3066d4914620006e4578063bb521df41462000709578063d547741f146200072e57600080fd5b80638c1e06f111620000ee5780638c1e06f1146200064757806391d14854146200066c57806397bcbf401462000691578063a217fddf14620006b657600080fd5b80637d2bda9614620005bf5780637fb95f6714620005e4578063802d142214620006095780638701c542146200062257600080fd5b80633659cfe611620001b157806352d1902d116200017c57806352d1902d14620004c757806357fb25cc14620004df57806359880b9514620005045780635e615a6b146200052957806375b238fc146200059a57600080fd5b80633659cfe614620004415780633989c66614620004665780634493edd7146200048b5780634f1ef28614620004b057600080fd5b8063248a9ca311620001f2578063248a9ca3146200039e5780632f2ff15d14620003d25780633131851114620003f757806336568abe146200041c57600080fd5b806301ffc9a7146200026757806304c2320b14620002a1578063198a0ac0146200034f5780631a9703da146200037657600080fd5b3662000262576040513481527fa8142743f8f70a4c26f3691cf4ed59718381fb2f18070ec52be1f1022d8555579060200160405180910390a1005b600080fd5b3480156200027457600080fd5b506200028c620002863660046200473b565b6200080f565b60405190151581526020015b60405180910390f35b348015620002ae57600080fd5b5062000312620002c03660046200481c565b80518082016020908101805161013582529282019190930120915280546001820154600283015460038401546004850154600590950154939492936001600160a01b0392831693919092169160ff1686565b6040805196875260208701959095526001600160a01b0393841694860194909452911660608401526080830152151560a082015260c00162000298565b3480156200035c57600080fd5b50620003746200036e3660046200489f565b62000847565b005b3480156200038357600080fd5b506200038f6101325481565b60405190815260200162000298565b348015620003ab57600080fd5b506200038f620003bd366004620048f5565b60009081526065602052604090206001015490565b348015620003df57600080fd5b5062000374620003f136600462004925565b62001143565b3480156200040457600080fd5b50620003746200041636600462004958565b62001172565b3480156200042957600080fd5b50620003746200043b36600462004925565b62001668565b3480156200044e57600080fd5b506200037462000460366004620049a7565b620016ea565b3480156200047357600080fd5b506200037462000485366004620049c7565b620017d6565b3480156200049857600080fd5b5062000374620004aa3660046200489f565b62001804565b62000374620004c1366004620049f4565b62001ea1565b348015620004d457600080fd5b506200038f62001f7a565b348015620004ec57600080fd5b5062000374620004fe36600462004a5e565b62002030565b3480156200051157600080fd5b50620003746200052336600462004ac4565b620021cb565b3480156200053657600080fd5b5061012d5461012e5461012f5461013054610131546101325461013454604080516001600160a01b0398891681529688166020880152948716948601949094529185166060850152608084015260a08301529190911660c082015260e00162000298565b348015620005a757600080fd5b506200038f60008051602062005cb083398151915281565b348015620005cc57600080fd5b5062000374620005de36600462004958565b62002300565b348015620005f157600080fd5b50620003746200060336600462004b49565b6200284b565b3480156200061657600080fd5b506200038f6101315481565b3480156200062f57600080fd5b50620003746200064136600462004bb8565b6200296b565b3480156200065457600080fd5b506200038f6200066636600462004c32565b62002f77565b3480156200067957600080fd5b506200028c6200068b36600462004925565b62002fa8565b3480156200069e57600080fd5b5062000374620006b036600462004958565b62002fd3565b348015620006c357600080fd5b506200038f600081565b62000374620006de36600462004c77565b620034d5565b348015620006f157600080fd5b50620003746200070336600462004cbe565b620035de565b3480156200071657600080fd5b506200038f6200072836600462004c32565b6200363d565b3480156200073b57600080fd5b50620003746200074d36600462004925565b6200366c565b3480156200076057600080fd5b506200038f6101335481565b3480156200077957600080fd5b50620003746200078b36600462004d1f565b62003696565b3480156200079e57600080fd5b50620007b6620007b036600462004b49565b620037b3565b60405162000298919062004dad565b348015620007d257600080fd5b5062000374620007e4366004620049a7565b620038dc565b348015620007f757600080fd5b506200038f60008051602062005c4983398151915281565b60006001600160e01b03198216637965db0b60e01b14806200084157506301ffc9a760e01b6001600160e01b03198316145b92915050565b60026097541415620008765760405162461bcd60e51b81526004016200086d9062004df3565b60405180910390fd5b6002609781905550818161013582826040516200089592919062004e2a565b9081526040519081900360200190206005015460ff16620008ca5760405162461bcd60e51b81526004016200086d9062004e3a565b620008d78685856200392b565b60008060006101358787604051620008f192919062004e2a565b90815260405190819003602001812060030154632f1b130360e01b82526001600160a01b031690632f1b13039062000931908c9060040190815260200190565b60606040518083038186803b1580156200094a57600080fd5b505afa1580156200095f573d6000803e3d6000fd5b505050506040513d601f19601f8201168201806040525081019062000985919062004e71565b60405191955091935090915060019061013590620009a7908a908a9062004e2a565b90815260405190819003602001812060030154634cbf3e1b60e11b82526001600160a01b03169063997e7c3690620009e7908d9060040190815260200190565b60206040518083038186803b15801562000a0057600080fd5b505afa15801562000a15573d6000803e3d6000fd5b505050506040513d601f19601f8201168201806040525081019062000a3b919062004ea0565b60ff161462000a5e5760405162461bcd60e51b81526004016200086d9062004ec5565b6000610135888860405162000a7592919062004e2a565b90815260405190819003602001812060030154634823bd5560e01b82526001600160a01b031690634823bd559062000ab5908d9060040190815260200190565b60206040518083038186803b15801562000ace57600080fd5b505afa15801562000ae3573d6000803e3d6000fd5b505050506040513d601f19601f8201168201806040525081019062000b09919062004efc565b90506000610135898960405162000b2292919062004e2a565b90815260408051602092819003830181206002015463313ce56760e01b825291516001600160a01b039092169263313ce56792600480840193829003018186803b15801562000b7057600080fd5b505afa15801562000b85573d6000803e3d6000fd5b505050506040513d601f19601f8201168201806040525081019062000bab919062004ea0565b62000bb890601262004f2c565b62000bc590600a6200504f565b8562000bd2858d62005060565b62000bde919062005082565b62000bea919062005082565b9050896101358a8a60405162000c0292919062004e2a565b9081526020016040518091039020600101600082825462000c249190620050a5565b9091555062000c3690508282620050bf565b6101358a8a60405162000c4b92919062004e2a565b9081526020016040518091039020600001600082825462000c6d9190620050a5565b9250508190555060006101368a8a60405162000c8b92919062004e2a565b908152604080516020928190038301902033600090815292529020905062000cb48383620050bf565b81600001600082825462000cc99190620050a5565b9250508190555060006101358b8b60405162000ce792919062004e2a565b908152604051908190036020019020600301546001600160a01b031663d0896c558e62000d158787620050bf565b6040516001600160e01b031960e085901b16815260048101929092526024820152604401602060405180830381600087803b15801562000d5457600080fd5b505af115801562000d69573d6000803e3d6000fd5b505050506040513d601f19601f8201168201806040525081019062000d8f919062004efc565b90508062000dd85762000dd68d6101368d8d60405162000db192919062004e2a565b90815260408051602092819003830190203360009081529252902060020190620039b8565b505b62000de48484620050bf565b62000df09087620050a5565b95508160010160009054906101000a90046001600160a01b03166001600160a01b031663dbba0f0133856101358f8f60405162000e2f92919062004e2a565b908152604051908190036020018120600201546001600160e01b031960e086901b16825262000e6f9392916001600160a01b0390911690600401620050da565b600060405180830381600087803b15801562000e8a57600080fd5b505af115801562000e9f573d6000803e3d6000fd5b50505060018301546040516001600160a01b03909116915063dbba0f01906101359062000ed0908f908f9062004e2a565b908152602001604051809103902060030160009054906101000a90046001600160a01b0316866101358f8f60405162000f0b92919062004e2a565b908152604051908190036020018120600201546001600160e01b031960e086901b16825262000f4b9392916001600160a01b0390911690600401620050da565b600060405180830381600087803b15801562000f6657600080fd5b505af115801562000f7b573d6000803e3d6000fd5b5050505061012e60009054906101000a90046001600160a01b03166001600160a01b0316639dc29fac338e6040518363ffffffff1660e01b815260040162000fd89291906001600160a01b03929092168252602082015260400190565b600060405180830381600087803b15801562000ff357600080fd5b505af115801562001008573d6000803e3d6000fd5b50505050505050507fcc3f3bf4ebb079856c31b44ccbec64a58ff9c3f04a8d8a846ee9e7c2e0e4c7e13383836101358b8b6040516200104992919062004e2a565b90815260408051602092819003830181206002015463313ce56760e01b825291516001600160a01b039092169263313ce56792600480840193829003018186803b1580156200109757600080fd5b505afa158015620010ac573d6000803e3d6000fd5b505050506040513d601f19601f82011682018060405250810190620010d2919062004ea0565b620010df90601262004f2c565b620010ec90600a6200504f565b620010f8888862005060565b62001104919062005060565b62001110919062005082565b86858e8d8d6040516200112b98979695949392919062005126565b60405180910390a15050600160975550505050505050565b600082815260656020526040902060010154620011618133620039cd565b6200116d838362003a3c565b505050565b60026097541415620011985760405162461bcd60e51b81526004016200086d9062004df3565b600260978190555081816101358282604051620011b792919062004e2a565b9081526040519081900360200190206005015460ff16620011ec5760405162461bcd60e51b81526004016200086d9062004e3a565b620011f98585856200392b565b61012d54604051630292e0fd60e01b81526000916001600160a01b031690630292e0fd906200122f908890889060040162005176565b60206040518083038186803b1580156200124857600080fd5b505afa1580156200125d573d6000803e3d6000fd5b505050506040513d601f19601f8201168201806040525081019062001283919062004efc565b9050600080600061013588886040516200129f92919062004e2a565b90815260405190819003602001812060030154632f1b130360e01b82526001600160a01b031690632f1b130390620012df908c9060040190815260200190565b60606040518083038186803b158015620012f857600080fd5b505afa1580156200130d573d6000803e3d6000fd5b505050506040513d601f19601f8201168201806040525081019062001333919062004e71565b925092509250600160ff1661013589896040516200135392919062004e2a565b90815260405190819003602001812060030154634cbf3e1b60e11b82526001600160a01b03169063997e7c369062001393908d9060040190815260200190565b60206040518083038186803b158015620013ac57600080fd5b505afa158015620013c1573d6000803e3d6000fd5b505050506040513d601f19601f82011682018060405250810190620013e7919062004ea0565b60ff16146200140a5760405162461bcd60e51b81526004016200086d9062004ec5565b600083856200141a828662005060565b62001426919062005082565b620014329190620050a5565b9050806101358a8a6040516200144a92919062004e2a565b908152602001604051809103902060000160008282546200146c9190620050bf565b92505081905550806101368a8a6040516200148992919062004e2a565b9081526040805160209281900383019020336000908152925281208054909190620014b6908490620050bf565b909155505060405161013590620014d1908b908b9062004e2a565b908152604051908190036020019020600301546001600160a01b031663b70a07ea8b87620015008589620050bf565b6040516001600160e01b031960e086901b168152600481019390935260248301919091526044820152606401602060405180830381600087803b1580156200154757600080fd5b505af11580156200155c573d6000803e3d6000fd5b505050506040513d601f19601f8201168201806040525081019062001582919062004efc565b5062001600336101368b8b6040516200159d92919062004e2a565b908152604080519182900360209081018320336000908152915220600101546001600160a01b031690849061013590620015db908f908f9062004e2a565b908152604051908190036020019020600201546001600160a01b031692919062003ac6565b60008051602062005cd08339815191526200161c8286620050bf565b8362001629878762005060565b62001635919062005082565b878d8e8e8e6040516200164f97969594939291906200518c565b60405180910390a1505060016097555050505050505050565b6001600160a01b0381163314620016da5760405162461bcd60e51b815260206004820152602f60248201527f416363657373436f6e74726f6c3a2063616e206f6e6c792072656e6f756e636560448201526e103937b632b9903337b91039b2b63360891b60648201526084016200086d565b620016e6828262003b28565b5050565b306001600160a01b037f0000000000000000000000000000000000000000000000000000000000000000161415620017365760405162461bcd60e51b81526004016200086d90620051cd565b7f00000000000000000000000000000000000000000000000000000000000000006001600160a01b03166200178160008051602062005c69833981519152546001600160a01b031690565b6001600160a01b031614620017aa5760405162461bcd60e51b81526004016200086d9062005219565b620017b58162003b92565b60408051600080825260208201909252620017d39183919062003bae565b50565b60008051602062005cb0833981519152620017f28133620039cd565b50610131929092556101325561013355565b600260975414156200182a5760405162461bcd60e51b81526004016200086d9062004df3565b6002609781905550818161013582826040516200184992919062004e2a565b9081526040519081900360200190206005015460ff166200187e5760405162461bcd60e51b81526004016200086d9062004e3a565b61013584846040516200189392919062004e2a565b90815260200160405180910390206004015485101580156200193d575061012d54604051630ac1066b60e11b81526001600160a01b03909116906315820cd690620018e5908790879060040162005176565b60206040518083038186803b158015620018fe57600080fd5b505afa15801562001913573d6000803e3d6000fd5b505050506040513d601f19601f8201168201806040525081019062001939919062004efc565b8511155b620019965760405162461bcd60e51b815260206004820152602260248201527f5751526f757465723a20496e76616c696420636f6c6c61746572616c20726174604482015261696f60f01b60648201526084016200086d565b61012d54604051630292e0fd60e01b81526000916001600160a01b031690630292e0fd90620019cc908890889060040162005176565b60206040518083038186803b158015620019e557600080fd5b505afa158015620019fa573d6000803e3d6000fd5b505050506040513d601f19601f8201168201806040525081019062001a20919062004efc565b905060006001600160a01b0316610136868660405162001a4292919062004e2a565b908152604080516020928190038301902033600090815292529020600101546001600160a01b0316141562001b00573360405162001a80906200472d565b6001600160a01b039091168152602001604051809103906000f08015801562001aad573d6000803e3d6000fd5b50610136868660405162001ac392919062004e2a565b90815260408051602092819003830190203360009081529252902060010180546001600160a01b0319166001600160a01b03929092169190911790555b86610136868660405162001b1692919062004e2a565b908152604080516020928190038301902033600090815292528120805490919062001b43908490620050bf565b9250508190555086610135868660405162001b6092919062004e2a565b9081526020016040518091039020600001600082825462001b829190620050bf565b92505081905550600086610135878760405162001ba192919062004e2a565b90815260408051602092819003830181206002015463313ce56760e01b825291516001600160a01b039092169263313ce56792600480840193829003018186803b15801562001bef57600080fd5b505afa15801562001c04573d6000803e3d6000fd5b505050506040513d601f19601f8201168201806040525081019062001c2a919062004ea0565b62001c3790601262004f2c565b62001c4490600a6200504f565b62001c50848b62005060565b62001c5c919062005060565b62001c68919062005082565b905080610135878760405162001c8092919062004e2a565b9081526020016040518091039020600101600082825462001ca29190620050bf565b925050819055506000610135878760405162001cc092919062004e2a565b9081526040519081900360200181206003015463cc6b3be360e01b825233600483015260248201859052604482018b9052606482018a90526001600160a01b03169063cc6b3be390608401602060405180830381600087803b15801562001d2657600080fd5b505af115801562001d3b573d6000803e3d6000fd5b505050506040513d601f19601f8201168201806040525081019062001d61919062004efc565b905062001da281610136898960405162001d7d92919062004e2a565b9081526040805160209281900383019020336000908152925290206002019062003d36565b5062001dfb33610136898960405162001dbd92919062004e2a565b908152604080519182900360209081018320336000908152915220600101546001600160a01b0316908c9061013590620015db908d908d9062004e2a565b61012e546040516340c10f1960e01b8152336004820152602481018490526001600160a01b03909116906340c10f1990604401600060405180830381600087803b15801562001e4957600080fd5b505af115801562001e5e573d6000803e3d6000fd5b505050507f0cd37c976baaad20e50f369a7000baf6b6c37b632190cba4a51372e76c9476ad338a8a8587868d8d6040516200112b98979695949392919062005126565b306001600160a01b037f000000000000000000000000000000000000000000000000000000000000000016141562001eed5760405162461bcd60e51b81526004016200086d90620051cd565b7f00000000000000000000000000000000000000000000000000000000000000006001600160a01b031662001f3860008051602062005c69833981519152546001600160a01b031690565b6001600160a01b03161462001f615760405162461bcd60e51b81526004016200086d9062005219565b62001f6c8262003b92565b620016e68282600162003bae565b6000306001600160a01b037f000000000000000000000000000000000000000000000000000000000000000016146200201c5760405162461bcd60e51b815260206004820152603860248201527f555550535570677261646561626c653a206d757374206e6f742062652063616c60448201527f6c6564207468726f7567682064656c656761746563616c6c000000000000000060648201526084016200086d565b5060008051602062005c6983398151915290565b600054610100900460ff166200204d5760005460ff161562002051565b303b155b620020b65760405162461bcd60e51b815260206004820152602e60248201527f496e697469616c697a61626c653a20636f6e747261637420697320616c72656160448201526d191e481a5b9a5d1a585b1a5e995960921b60648201526084016200086d565b600054610100900460ff16158015620020d9576000805461ffff19166101011790555b620020e362003d44565b620020ed62003d70565b620020f762003d44565b6200210460003362003da4565b6200211f60008051602062005cb08339815191523362003da4565b6200213a60008051602062005c498339815191523362003da4565b6200216460008051602062005c4983398151915260008051602062005cb083398151915262003db0565b61012d80546001600160a01b038089166001600160a01b03199283161790925561012e80548884169083161790556101318690556101328590556101348054928516929091169190911790558015620021c3576000805461ff00191690555b505050505050565b8061013581604051620021df919062005294565b90815260405190819003602001902060030154336001600160a01b03909116146200221e5760405162461bcd60e51b81526004016200086d90620052b2565b62002264846101368460405162002236919062005294565b90815260408051602092819003830190206001600160a01b038d1660009081529252902060020190620039b8565b50620022ab83610136846040516200227d919062005294565b90815260408051602092819003830190206001600160a01b038d166000908152925290206002019062003d36565b5060008051602062005cd08339815191528786620022ca898362005060565b620022d6919062005082565b88878787604051620022ee9695949392919062005321565b60405180910390a15050505050505050565b60026097541415620023265760405162461bcd60e51b81526004016200086d9062004df3565b6002609781905550818161013582826040516200234592919062004e2a565b9081526040519081900360200190206005015460ff166200237a5760405162461bcd60e51b81526004016200086d9062004e3a565b620023878585856200392b565b61012d54604051630292e0fd60e01b81526000916001600160a01b031690630292e0fd90620023bd908890889060040162005176565b60206040518083038186803b158015620023d657600080fd5b505afa158015620023eb573d6000803e3d6000fd5b505050506040513d601f19601f8201168201806040525081019062002411919062004efc565b9050600080600061013588886040516200242d92919062004e2a565b90815260405190819003602001812060030154632f1b130360e01b82526001600160a01b031690632f1b1303906200246d908c9060040190815260200190565b60606040518083038186803b1580156200248657600080fd5b505afa1580156200249b573d6000803e3d6000fd5b505050506040513d601f19601f82011682018060405250810190620024c1919062004e71565b925092509250600160ff166101358989604051620024e192919062004e2a565b90815260405190819003602001812060030154634cbf3e1b60e11b82526001600160a01b03169063997e7c369062002521908d9060040190815260200190565b60206040518083038186803b1580156200253a57600080fd5b505afa1580156200254f573d6000803e3d6000fd5b505050506040513d601f19601f8201168201806040525081019062002575919062004ea0565b60ff1614620025985760405162461bcd60e51b81526004016200086d9062004ec5565b60006101358989604051620025af92919062004e2a565b90815260408051602092819003830181206002015463313ce56760e01b825291516001600160a01b039092169263313ce56792600480840193829003018186803b158015620025fd57600080fd5b505afa15801562002612573d6000803e3d6000fd5b505050506040513d601f19601f8201168201806040525081019062002638919062004ea0565b6200264590601262004f2c565b6200265290600a6200504f565b9050600082828662002665878a620050a5565b62002671919062005060565b6200267d919062005060565b62002689919062005082565b9050806101358b8b604051620026a192919062004e2a565b90815260200160405180910390206001016000828254620026c39190620050bf565b909155505061012e546040516340c10f1960e01b8152336004820152602481018390526001600160a01b03909116906340c10f1990604401600060405180830381600087803b1580156200271657600080fd5b505af11580156200272b573d6000803e3d6000fd5b505050506101358a8a6040516200274492919062004e2a565b90815260405190819003602001812060030154635b8503f560e11b8252600482018d905260248201889052604482018790526001600160a01b03169063b70a07ea90606401602060405180830381600087803b158015620027a457600080fd5b505af1158015620027b9573d6000803e3d6000fd5b505050506040513d601f19601f82011682018060405250810190620027df919062004efc565b5060008051602062005cd0833981519152858484620027ff8a8462005060565b6200280b919062005060565b62002817919062005082565b888e8f8f8f6040516200283197969594939291906200518c565b60405180910390a150506001609755505050505050505050565b610130546001600160a01b03163314620028a85760405162461bcd60e51b815260206004820152601b60248201527f5751526f757465723a204f6e6c7920646562742061756374696f6e000000000060448201526064016200086d565b826101358383604051620028be92919062004e2a565b90815260200160405180910390206001016000828254620028e09190620050a5565b909155505061012e54604051632770a7eb60e21b81526001600160a01b0387811660048301526024820186905290911690639dc29fac90604401600060405180830381600087803b1580156200293557600080fd5b505af11580156200294a573d6000803e3d6000fd5b5062002964925050506001600160a01b0386168562003dfb565b5050505050565b60026097541415620029915760405162461bcd60e51b81526004016200086d9062004df3565b6002609755604051819061013590620029ac90839062005294565b90815260405190819003602001902060030154336001600160a01b0390911614620029eb5760405162461bcd60e51b81526004016200086d90620052b2565b60006101358360405162002a00919062005294565b90815260405190819003602001812060030154633a1a732760e01b82526001600160a01b031690633a1a73279062002a40908a9060040190815260200190565b60206040518083038186803b15801562002a5957600080fd5b505afa15801562002a6e573d6000803e3d6000fd5b505050506040513d601f19601f8201168201806040525081019062002a94919062005360565b905062002aa28486620050bf565b6101368460405162002ab5919062005294565b90815260408051602092819003830190206001600160a01b038516600090815292528120805490919062002aeb908490620050a5565b9091555062002afd90508486620050bf565b6101358460405162002b10919062005294565b9081526020016040518091039020600001600082825462002b329190620050a5565b92505081905550856101358460405162002b4d919062005294565b9081526020016040518091039020600101600082825462002b6f9190620050a5565b90915550506040516101369062002b8890859062005294565b9081526040805191829003602090810183206001600160a01b038086166000908152919092529190912060010154169063dbba0f01908a9088906101359062002bd390899062005294565b908152604051908190036020018120600201546001600160e01b031960e086901b16825262002c139392916001600160a01b0390911690600401620050da565b600060405180830381600087803b15801562002c2e57600080fd5b505af115801562002c43573d6000803e3d6000fd5b505050506101368360405162002c5a919062005294565b9081526040805191829003602090810183206001600160a01b038086166000908152919092529190912060010154169063dbba0f01906101359062002ca190879062005294565b908152604051908190036020018120600301546001600160a01b03169087906101359062002cd190899062005294565b908152604051908190036020018120600201546001600160e01b031960e086901b16825262002d119392916001600160a01b0390911690600401620050da565b600060405180830381600087803b15801562002d2c57600080fd5b505af115801562002d41573d6000803e3d6000fd5b505061012e54604051632770a7eb60e21b81526001600160a01b038c81166004830152602482018b90529091169250639dc29fac9150604401600060405180830381600087803b15801562002d9557600080fd5b505af115801562002daa573d6000803e3d6000fd5b5050505060008060006101358660405162002dc6919062005294565b90815260405190819003602001812060030154632f1b130360e01b82526001600160a01b031690632f1b13039062002e06908d9060040190815260200190565b60606040518083038186803b15801562002e1f57600080fd5b505afa15801562002e34573d6000803e3d6000fd5b505050506040513d601f19601f8201168201806040525081019062002e5a919062004e71565b9250925092507fcc3f3bf4ebb079856c31b44ccbec64a58ff9c3f04a8d8a846ee9e7c2e0e4c7e18484836101358a60405162002e97919062005294565b90815260408051602092819003830181206002015463313ce56760e01b825291516001600160a01b039092169263313ce56792600480840193829003018186803b15801562002ee557600080fd5b505afa15801562002efa573d6000803e3d6000fd5b505050506040513d601f19601f8201168201806040525081019062002f20919062004ea0565b62002f2d90601262004f2c565b62002f3a90600a6200504f565b62002f46878962005060565b62002f52919062005060565b62002f5e919062005082565b85858f8c60405162002831979695949392919062005380565b6000610135838360405162002f8e92919062004e2a565b908152602001604051809103902060010154905092915050565b60009182526065602090815260408084206001600160a01b0393909316845291905290205460ff1690565b6002609754141562002ff95760405162461bcd60e51b81526004016200086d9062004df3565b6002609781905550818161013582826040516200301892919062004e2a565b9081526040519081900360200190206005015460ff166200304d5760405162461bcd60e51b81526004016200086d9062004e3a565b6200305a8585856200392b565b61012d54604051630292e0fd60e01b81526000916001600160a01b031690630292e0fd9062003090908890889060040162005176565b60206040518083038186803b158015620030a957600080fd5b505afa158015620030be573d6000803e3d6000fd5b505050506040513d601f19601f82011682018060405250810190620030e4919062004efc565b9050600080600061013588886040516200310092919062004e2a565b90815260405190819003602001812060030154632f1b130360e01b82526001600160a01b031690632f1b13039062003140908c9060040190815260200190565b60606040518083038186803b1580156200315957600080fd5b505afa1580156200316e573d6000803e3d6000fd5b505050506040513d601f19601f8201168201806040525081019062003194919062004e71565b925092509250600160ff166101358989604051620031b492919062004e2a565b90815260405190819003602001812060030154634cbf3e1b60e11b82526001600160a01b03169063997e7c3690620031f4908d9060040190815260200190565b60206040518083038186803b1580156200320d57600080fd5b505afa15801562003222573d6000803e3d6000fd5b505050506040513d601f19601f8201168201806040525081019062003248919062004ea0565b60ff16146200326b5760405162461bcd60e51b81526004016200086d9062004ec5565b600061013589896040516200328292919062004e2a565b90815260408051602092819003830181206002015463313ce56760e01b825291516001600160a01b039092169263313ce56792600480840193829003018186803b158015620032d057600080fd5b505afa158015620032e5573d6000803e3d6000fd5b505050506040513d601f19601f820116820180604052508101906200330b919062004ea0565b6200331890601262004f2c565b6200332590600a6200504f565b90506000828286620033388988620050a5565b62003344919062005060565b62003350919062005060565b6200335c919062005082565b9050806101358b8b6040516200337492919062004e2a565b90815260200160405180910390206001016000828254620033969190620050a5565b909155505060405161013590620033b1908c908c9062004e2a565b90815260405190819003602001812060030154635b8503f560e11b8252600482018d905260248201889052604482018790526001600160a01b03169063b70a07ea90606401602060405180830381600087803b1580156200341157600080fd5b505af115801562003426573d6000803e3d6000fd5b505050506040513d601f19601f820116820180604052508101906200344c919062004efc565b5061012e54604051632770a7eb60e21b8152336004820152602481018390526001600160a01b0390911690639dc29fac90604401600060405180830381600087803b1580156200349b57600080fd5b505af1158015620034b0573d6000803e3d6000fd5b5050505060008051602062005cd08339815191528584848989620027ff919062005060565b61012f546001600160a01b03163314620035325760405162461bcd60e51b815260206004820152601e60248201527f5751526f757465723a204f6e6c7920737572706c75732061756374696f6e000060448201526064016200086d565b8261013583836040516200354892919062004e2a565b908152602001604051809103902060010160008282546200356a9190620050bf565b909155505061012e546040516340c10f1960e01b81526001600160a01b03868116600483015260248201869052909116906340c10f1990604401600060405180830381600087803b158015620035bf57600080fd5b505af1158015620035d4573d6000803e3d6000fd5b5050505050505050565b60008051602062005cb0833981519152620035fa8133620039cd565b5061012d80546001600160a01b039485166001600160a01b03199182161790915561013080549385169382169390931790925561012f8054919093169116179055565b600061013583836040516200365492919062004e2a565b90815260405190819003602001902054905092915050565b6000828152606560205260409020600101546200368a8133620039cd565b6200116d838362003b28565b60008051602062005cb0833981519152620036b28133620039cd565b856101358484604051620036c892919062004e2a565b908152602001604051809103902060020160006101000a8154816001600160a01b0302191690836001600160a01b031602179055508461013584846040516200371392919062004e2a565b908152602001604051809103902060030160006101000a8154816001600160a01b0302191690836001600160a01b031602179055508661013584846040516200375e92919062004e2a565b908152604051908190036020018120600501805492151560ff199093169290921790915584906101359062003797908690869062004e2a565b9081526040519081900360200190206004015550505050505050565b606060006101368484604051620037cc92919062004e2a565b90815260408051602092819003830190206001600160a01b038a16600090815292529020600201905085620038018262003f1a565b6200380d9190620050a5565b851115620038305785620038218262003f1a565b6200382d9190620050a5565b94505b846001600160401b038111156200384b576200384b62004767565b60405190808252806020026020018201604052801562003875578160200160208202803683370190505b50915060005b85811015620038d1576200389c620038948289620050bf565b839062003f25565b838281518110620038b157620038b1620053c1565b602090810291909101015280620038c881620053d7565b9150506200387b565b505095945050505050565b60008051602062005cb0833981519152620038f88133620039cd565b5061013480546001600160a01b0319166001600160a01b0392909216919091179055565b6001600160a01b03163b151590565b6200396a8361013684846040516200394592919062004e2a565b9081526040805160209281900383019020336000908152925290206002019062003f33565b6200116d5760405162461bcd60e51b815260206004820152601760248201527f5751526f757465723a204c6f74206e6f7420666f756e6400000000000000000060448201526064016200086d565b6000620039c6838362003f4c565b9392505050565b620039d9828262002fa8565b620016e657620039f4816001600160a01b0316601462004050565b62003a0183602062004050565b60405160200162003a14929190620053f5565b60408051601f198184030181529082905262461bcd60e51b82526200086d916004016200546e565b62003a48828262002fa8565b620016e65760008281526065602090815260408083206001600160a01b03851684529091529020805460ff1916600117905562003a823390565b6001600160a01b0316816001600160a01b0316837f2f8788117e7eff1d82e926ec794901d17c78024a50270940304540a733656f0d60405160405180910390a45050565b604080516001600160a01b0385811660248301528416604482015260648082018490528251808303909101815260849091019091526020810180516001600160e01b03166323b872dd60e01b17905262003b2290859062004209565b50505050565b62003b34828262002fa8565b15620016e65760008281526065602090815260408083206001600160a01b0385168085529252808320805460ff1916905551339285917ff6391f5c32d9c69d2a47ea670b442974b53935d1edc7fd64eb21e047a839171b9190a45050565b60008051602062005c49833981519152620016e68133620039cd565b7f4910fdfa16fed3260ed0e7147f7cc6da11a60208b5b9406d12a635614ffd91435460ff161562003be4576200116d83620042e2565b826001600160a01b03166352d1902d6040518163ffffffff1660e01b815260040160206040518083038186803b15801562003c1e57600080fd5b505afa92505050801562003c51575060408051601f3d908101601f1916820190925262003c4e9181019062004efc565b60015b62003cb65760405162461bcd60e51b815260206004820152602e60248201527f45524331393637557067726164653a206e657720696d706c656d656e7461746960448201526d6f6e206973206e6f74205555505360901b60648201526084016200086d565b60008051602062005c69833981519152811462003d285760405162461bcd60e51b815260206004820152602960248201527f45524331393637557067726164653a20756e737570706f727465642070726f786044820152681a58589b195555525160ba1b60648201526084016200086d565b506200116d83838362004381565b6000620039c68383620043ac565b600054610100900460ff1662003d6e5760405162461bcd60e51b81526004016200086d9062005483565b565b600054610100900460ff1662003d9a5760405162461bcd60e51b81526004016200086d9062005483565b62003d6e620043fe565b620016e6828262003a3c565b600082815260656020526040808220600101805490849055905190918391839186917fbd79b86ffe0ab8e8776151514217cd7cacd52c909f66475c3af44e129f0b00ff9190a4505050565b8047101562003e4d5760405162461bcd60e51b815260206004820152601d60248201527f416464726573733a20696e73756666696369656e742062616c616e636500000060448201526064016200086d565b6000826001600160a01b03168260405160006040518083038185875af1925050503d806000811462003e9c576040519150601f19603f3d011682016040523d82523d6000602084013e62003ea1565b606091505b50509050806200116d5760405162461bcd60e51b815260206004820152603a60248201527f416464726573733a20756e61626c6520746f2073656e642076616c75652c207260448201527f6563697069656e74206d6179206861766520726576657274656400000000000060648201526084016200086d565b600062000841825490565b6000620039c683836200442f565b60008181526001830160205260408120541515620039c6565b600081815260018301602052604081205480156200404557600062003f73600183620050a5565b855490915060009062003f8990600190620050a5565b905081811462003ff557600086600001828154811062003fad5762003fad620053c1565b906000526020600020015490508087600001848154811062003fd35762003fd3620053c1565b6000918252602080832090910192909255918252600188019052604090208390555b8554869080620040095762004009620054ce565b60019003818190600052602060002001600090559055856001016000868152602001908152602001600020600090556001935050505062000841565b600091505062000841565b606060006200406183600262005060565b6200406e906002620050bf565b6001600160401b0381111562004088576200408862004767565b6040519080825280601f01601f191660200182016040528015620040b3576020820181803683370190505b509050600360fc1b81600081518110620040d157620040d1620053c1565b60200101906001600160f81b031916908160001a905350600f60fb1b81600181518110620041035762004103620053c1565b60200101906001600160f81b031916908160001a90535060006200412984600262005060565b62004136906001620050bf565b90505b6001811115620041b8576f181899199a1a9b1b9c1cb0b131b232b360811b85600f16601081106200416e576200416e620053c1565b1a60f81b828281518110620041875762004187620053c1565b60200101906001600160f81b031916908160001a90535060049490941c93620041b081620054e4565b905062004139565b508315620039c65760405162461bcd60e51b815260206004820181905260248201527f537472696e67733a20686578206c656e67746820696e73756666696369656e7460448201526064016200086d565b600062004260826040518060400160405280602081526020017f5361666545524332303a206c6f772d6c6576656c2063616c6c206661696c6564815250856001600160a01b03166200445c9092919063ffffffff16565b8051909150156200116d5780806020019051810190620042819190620054fe565b6200116d5760405162461bcd60e51b815260206004820152602a60248201527f5361666545524332303a204552433230206f7065726174696f6e20646964206e6044820152691bdd081cdd58d8d9595960b21b60648201526084016200086d565b6001600160a01b0381163b620043515760405162461bcd60e51b815260206004820152602d60248201527f455243313936373a206e657720696d706c656d656e746174696f6e206973206e60448201526c1bdd08184818dbdb9d1c9858dd609a1b60648201526084016200086d565b60008051602062005c6983398151915280546001600160a01b0319166001600160a01b0392909216919091179055565b6200438c8362004475565b6000825111806200439a5750805b156200116d5762003b228383620044b7565b6000818152600183016020526040812054620043f55750815460018181018455600084815260208082209093018490558454848252828601909352604090209190915562000841565b50600062000841565b600054610100900460ff16620044285760405162461bcd60e51b81526004016200086d9062005483565b6001609755565b6000826000018281548110620044495762004449620053c1565b9060005260206000200154905092915050565b60606200446d8484600085620045b4565b949350505050565b6200448081620042e2565b6040516001600160a01b038216907fbc7cd75a20ee27fd9adebab32041f755214dbc6bffa90cc0225b39da2e5c2d3b90600090a250565b60606001600160a01b0383163b620045215760405162461bcd60e51b815260206004820152602660248201527f416464726573733a2064656c65676174652063616c6c20746f206e6f6e2d636f6044820152651b9d1c9858dd60d21b60648201526084016200086d565b600080846001600160a01b0316846040516200453e919062005294565b600060405180830381855af49150503d80600081146200457b576040519150601f19603f3d011682016040523d82523d6000602084013e62004580565b606091505b5091509150620045ab828260405180606001604052806027815260200162005c8960279139620046ef565b95945050505050565b606082471015620046175760405162461bcd60e51b815260206004820152602660248201527f416464726573733a20696e73756666696369656e742062616c616e636520666f6044820152651c8818d85b1b60d21b60648201526084016200086d565b6001600160a01b0385163b620046705760405162461bcd60e51b815260206004820152601d60248201527f416464726573733a2063616c6c20746f206e6f6e2d636f6e747261637400000060448201526064016200086d565b600080866001600160a01b031685876040516200468e919062005294565b60006040518083038185875af1925050503d8060008114620046cd576040519150601f19603f3d011682016040523d82523d6000602084013e620046d2565b606091505b5091509150620046e4828286620046ef565b979650505050505050565b6060831562004700575081620039c6565b825115620047115782518084602001fd5b8160405162461bcd60e51b81526004016200086d91906200546e565b61072a806200551f83390190565b6000602082840312156200474e57600080fd5b81356001600160e01b031981168114620039c657600080fd5b634e487b7160e01b600052604160045260246000fd5b60006001600160401b03808411156200479a576200479a62004767565b604051601f8501601f19908116603f01168101908282118183101715620047c557620047c562004767565b81604052809350858152868686011115620047df57600080fd5b858560208301376000602087830101525050509392505050565b600082601f8301126200480b57600080fd5b620039c6838335602085016200477d565b6000602082840312156200482f57600080fd5b81356001600160401b038111156200484657600080fd5b6200446d84828501620047f9565b60008083601f8401126200486757600080fd5b5081356001600160401b038111156200487f57600080fd5b6020830191508360208285010111156200489857600080fd5b9250929050565b60008060008060608587031215620048b657600080fd5b843593506020850135925060408501356001600160401b03811115620048db57600080fd5b620048e98782880162004854565b95989497509550505050565b6000602082840312156200490857600080fd5b5035919050565b6001600160a01b0381168114620017d357600080fd5b600080604083850312156200493957600080fd5b8235915060208301356200494d816200490f565b809150509250929050565b6000806000604084860312156200496e57600080fd5b8335925060208401356001600160401b038111156200498c57600080fd5b6200499a8682870162004854565b9497909650939450505050565b600060208284031215620049ba57600080fd5b8135620039c6816200490f565b600080600060608486031215620049dd57600080fd5b505081359360208301359350604090920135919050565b6000806040838503121562004a0857600080fd5b823562004a15816200490f565b915060208301356001600160401b0381111562004a3157600080fd5b8301601f8101851362004a4357600080fd5b62004a54858235602084016200477d565b9150509250929050565b600080600080600060a0868803121562004a7757600080fd5b853562004a84816200490f565b9450602086013562004a96816200490f565b93506040860135925060608601359150608086013562004ab6816200490f565b809150509295509295909350565b600080600080600080600060e0888a03121562004ae057600080fd5b873562004aed816200490f565b96506020880135955060408801359450606088013593506080880135925060a0880135915060c08801356001600160401b0381111562004b2c57600080fd5b62004b3a8a828b01620047f9565b91505092959891949750929550565b60008060008060006080868803121562004b6257600080fd5b853562004b6f816200490f565b9450602086013593506040860135925060608601356001600160401b0381111562004b9957600080fd5b62004ba78882890162004854565b969995985093965092949392505050565b60008060008060008060c0878903121562004bd257600080fd5b863562004bdf816200490f565b95506020870135945060408701359350606087013592506080870135915060a08701356001600160401b0381111562004c1757600080fd5b62004c2589828a01620047f9565b9150509295509295509295565b6000806020838503121562004c4657600080fd5b82356001600160401b0381111562004c5d57600080fd5b62004c6b8582860162004854565b90969095509350505050565b6000806000806060858703121562004c8e57600080fd5b843562004c9b816200490f565b93506020850135925060408501356001600160401b03811115620048db57600080fd5b60008060006060848603121562004cd457600080fd5b833562004ce1816200490f565b9250602084013562004cf3816200490f565b9150604084013562004d05816200490f565b809150509250925092565b8015158114620017d357600080fd5b60008060008060008060a0878903121562004d3957600080fd5b863562004d468162004d10565b9550602087013562004d58816200490f565b9450604087013562004d6a816200490f565b93506060870135925060808701356001600160401b0381111562004d8d57600080fd5b62004d9b89828a0162004854565b979a9699509497509295939492505050565b6020808252825182820181905260009190848201906040850190845b8181101562004de75783518352928401929184019160010162004dc9565b50909695505050505050565b6020808252601f908201527f5265656e7472616e637947756172643a207265656e7472616e742063616c6c00604082015260600190565b8183823760009101908152919050565b60208082526017908201527f5751526f757465723a20546f6b656e20646961626c6564000000000000000000604082015260600190565b60008060006060848603121562004e8757600080fd5b8351925060208401519150604084015190509250925092565b60006020828403121562004eb357600080fd5b815160ff81168114620039c657600080fd5b60208082526018908201527f5751526f757465723a20537461747573206e6f74206e65770000000000000000604082015260600190565b60006020828403121562004f0f57600080fd5b5051919050565b634e487b7160e01b600052601160045260246000fd5b600060ff821660ff84168082101562004f495762004f4962004f16565b90039392505050565b600181815b8085111562004f9357816000190482111562004f775762004f7762004f16565b8085161562004f8557918102915b93841c939080029062004f57565b509250929050565b60008262004fac5750600162000841565b8162004fbb5750600062000841565b816001811462004fd4576002811462004fdf5762004fff565b600191505062000841565b60ff84111562004ff35762004ff362004f16565b50506001821b62000841565b5060208310610133831016604e8410600b841016171562005024575081810a62000841565b62005030838362004f52565b806000190482111562005047576200504762004f16565b029392505050565b6000620039c660ff84168362004f9b565b60008160001904831182151516156200507d576200507d62004f16565b500290565b600082620050a057634e487b7160e01b600052601260045260246000fd5b500490565b600082821015620050ba57620050ba62004f16565b500390565b60008219821115620050d557620050d562004f16565b500190565b6001600160a01b0393841681526020810192909252909116604082015260600190565b81835281816020850137506000828201602090810191909152601f909101601f19169091010190565b60018060a01b03891681528760208201528660408201528560608201528460808201528360a082015260e060c082015260006200516860e083018486620050fd565b9a9950505050505050505050565b6020815260006200446d602083018486620050fd565b87815286602082015285604082015284606082015283608082015260c060a08201526000620051c060c083018486620050fd565b9998505050505050505050565b6020808252602c908201527f46756e6374696f6e206d7573742062652063616c6c6564207468726f7567682060408201526b19195b1959d85d1958d85b1b60a21b606082015260800190565b6020808252602c908201527f46756e6374696f6e206d7573742062652063616c6c6564207468726f7567682060408201526b6163746976652070726f787960a01b606082015260800190565b60005b838110156200528257818101518382015260200162005268565b8381111562003b225750506000910152565b60008251620052a881846020870162005265565b9190910192915050565b60208082526021908201527f5751526f757465723a204f6e6c7920636f6c6c61746572616c2061756374696f6040820152603760f91b606082015260800190565b600081518084526200530d81602086016020860162005265565b601f01601f19169290920160200192915050565b86815285602082015284604082015283606082015282608082015260c060a082015260006200535460c0830184620052f3565b98975050505050505050565b6000602082840312156200537357600080fd5b8151620039c6816200490f565b60018060a01b03881681528660208201528560408201528460608201528360808201528260a082015260e060c08201526000620051c060e0830184620052f3565b634e487b7160e01b600052603260045260246000fd5b6000600019821415620053ee57620053ee62004f16565b5060010190565b7f416363657373436f6e74726f6c3a206163636f756e74200000000000000000008152600083516200542f81601785016020880162005265565b7001034b99036b4b9b9b4b733903937b6329607d1b60179184019182015283516200546281602884016020880162005265565b01602801949350505050565b602081526000620039c66020830184620052f3565b6020808252602b908201527f496e697469616c697a61626c653a20636f6e7472616374206973206e6f74206960408201526a6e697469616c697a696e6760a81b606082015260800190565b634e487b7160e01b600052603160045260246000fd5b600081620054f657620054f662004f16565b506000190190565b6000602082840312156200551157600080fd5b8151620039c68162004d1056fe608060405234801561001057600080fd5b5060405161072a38038061072a83398101604081905261002f91610062565b60008054336001600160a01b031991821617909155600180549091166001600160a01b0392909216919091179055610092565b60006020828403121561007457600080fd5b81516001600160a01b038116811461008b57600080fd5b9392505050565b610689806100a16000396000f3fe608060405234801561001057600080fd5b50600436106100415760003560e01c80638da5cb5b14610046578063dbba0f0114610075578063f887ea401461008a575b600080fd5b600154610059906001600160a01b031681565b6040516001600160a01b03909116815260200160405180910390f35b610088610083366004610570565b61009d565b005b600054610059906001600160a01b031681565b6000546001600160a01b031633146101085760405162461bcd60e51b815260206004820152602360248201527f5751526f757465725661756c743a2053656e646572206973206e6f7420726f756044820152623a32b960e91b60648201526084015b60405180910390fd5b6001600160a01b038116156101305761012b6001600160a01b0382168484610193565b610143565b6101436001600160a01b038416836101ea565b604080516001600160a01b038084168252851660208201529081018390527fd1ba4ac2e2a11b5101f6cb4d978f514a155b421e8ec396d2d9abaf0bb02917ee9060600160405180910390a1505050565b604080516001600160a01b038416602482015260448082018490528251808303909101815260649091019091526020810180516001600160e01b031663a9059cbb60e01b1790526101e5908490610303565b505050565b8047101561023a5760405162461bcd60e51b815260206004820152601d60248201527f416464726573733a20696e73756666696369656e742062616c616e636500000060448201526064016100ff565b6000826001600160a01b03168260405160006040518083038185875af1925050503d8060008114610287576040519150601f19603f3d011682016040523d82523d6000602084013e61028c565b606091505b50509050806101e55760405162461bcd60e51b815260206004820152603a60248201527f416464726573733a20756e61626c6520746f2073656e642076616c75652c207260448201527f6563697069656e74206d6179206861766520726576657274656400000000000060648201526084016100ff565b6000610358826040518060400160405280602081526020017f5361666545524332303a206c6f772d6c6576656c2063616c6c206661696c6564815250856001600160a01b03166103d59092919063ffffffff16565b8051909150156101e5578080602001905181019061037691906105b2565b6101e55760405162461bcd60e51b815260206004820152602a60248201527f5361666545524332303a204552433230206f7065726174696f6e20646964206e6044820152691bdd081cdd58d8d9595960b21b60648201526084016100ff565b60606103e484846000856103ee565b90505b9392505050565b60608247101561044f5760405162461bcd60e51b815260206004820152602660248201527f416464726573733a20696e73756666696369656e742062616c616e636520666f6044820152651c8818d85b1b60d21b60648201526084016100ff565b6001600160a01b0385163b6104a65760405162461bcd60e51b815260206004820152601d60248201527f416464726573733a2063616c6c20746f206e6f6e2d636f6e747261637400000060448201526064016100ff565b600080866001600160a01b031685876040516104c29190610604565b60006040518083038185875af1925050503d80600081146104ff576040519150601f19603f3d011682016040523d82523d6000602084013e610504565b606091505b509150915061051482828661051f565b979650505050505050565b6060831561052e5750816103e7565b82511561053e5782518084602001fd5b8160405162461bcd60e51b81526004016100ff9190610620565b6001600160a01b038116811461056d57600080fd5b50565b60008060006060848603121561058557600080fd5b833561059081610558565b92506020840135915060408401356105a781610558565b809150509250925092565b6000602082840312156105c457600080fd5b815180151581146103e757600080fd5b60005b838110156105ef5781810151838201526020016105d7565b838111156105fe576000848401525b50505050565b600082516106168184602087016105d4565b9190910192915050565b602081526000825180602084015261063f8160408501602087016105d4565b601f01601f1916919091016040019291505056fea2646970667358221220f9599cb443d118d129a11e97dea91cb2df9e7c8ddbd8811c90f86e43dc8f329564736f6c63430008090033189ab7a9244df0848122154315af71fe140f3db0fe014031783b0946b8c9d2e3360894a13ba1a3210667c828492db98dca3e2076cc3735a920a3ca505d382bbc416464726573733a206c6f772d6c6576656c2064656c65676174652063616c6c206661696c6564a49807205ce4d355092ef5a8a18f56e8913cf4a201fbe287825b095693c2177517ee67e35d53080b5702707de634e3a8979d4454f3cce0ce860440bf4bd98b93a26469706673582212205f53f281f60ae8e0ee586ed624224afa4f83a2fbf57d30d34fcf375c8b77b4eb64736f6c63430008090033",
  "linkReferences": {},
  "deployedLinkReferences": {}
}