{
  "_format": "hh-sol-artifact-1",
  "contractName": "WQRouter",
  "sourceName": "contracts/stablecoin/WQRouter.sol",
  "abi": [
    {
      "inputs": [],
      "stateMutability": "nonpayable",
      "type": "constructor"
    },
    {
      "anonymous": false,
      "inputs": [
        {
          "indexed": false,
          "internalType": "address",
          "name": "previousAdmin",
          "type": "address"
        },
        {
          "indexed": false,
          "internalType": "address",
          "name": "newAdmin",
          "type": "address"
        }
      ],
      "name": "AdminChanged",
      "type": "event"
    },
    {
      "anonymous": false,
      "inputs": [
        {
          "indexed": true,
          "internalType": "address",
          "name": "beacon",
          "type": "address"
        }
      ],
      "name": "BeaconUpgraded",
      "type": "event"
    },
    {
      "anonymous": false,
      "inputs": [
        {
          "indexed": false,
          "internalType": "uint8",
          "name": "version",
          "type": "uint8"
        }
      ],
      "name": "Initialized",
      "type": "event"
    },
    {
      "anonymous": false,
      "inputs": [
        {
          "indexed": false,
          "internalType": "uint256",
          "name": "collateral",
          "type": "uint256"
        },
        {
          "indexed": false,
          "internalType": "uint256",
          "name": "debt",
          "type": "uint256"
        },
        {
          "indexed": false,
          "internalType": "uint256",
          "name": "price",
          "type": "uint256"
        },
        {
          "indexed": false,
          "internalType": "uint256",
          "name": "index",
          "type": "uint256"
        },
        {
          "indexed": false,
          "internalType": "uint256",
          "name": "newIndex",
          "type": "uint256"
        },
        {
          "indexed": false,
          "internalType": "uint8",
          "name": "status",
          "type": "uint8"
        },
        {
          "indexed": false,
          "internalType": "string",
          "name": "symbol",
          "type": "string"
        }
      ],
      "name": "Moved",
      "type": "event"
    },
    {
      "anonymous": false,
      "inputs": [
        {
          "indexed": false,
          "internalType": "address",
          "name": "user",
          "type": "address"
        },
        {
          "indexed": false,
          "internalType": "uint256",
          "name": "collateral",
          "type": "uint256"
        },
        {
          "indexed": false,
          "internalType": "uint256",
          "name": "ratio",
          "type": "uint256"
        },
        {
          "indexed": false,
          "internalType": "uint256",
          "name": "debt",
          "type": "uint256"
        },
        {
          "indexed": false,
          "internalType": "uint256",
          "name": "price",
          "type": "uint256"
        },
        {
          "indexed": false,
          "internalType": "uint256",
          "name": "index",
          "type": "uint256"
        },
        {
          "indexed": false,
          "internalType": "string",
          "name": "symbol",
          "type": "string"
        }
      ],
      "name": "Produced",
      "type": "event"
    },
    {
      "anonymous": false,
      "inputs": [
        {
          "indexed": false,
          "internalType": "uint256",
          "name": "amount",
          "type": "uint256"
        }
      ],
      "name": "Received",
      "type": "event"
    },
    {
      "anonymous": false,
      "inputs": [
        {
          "indexed": false,
          "internalType": "address",
          "name": "user",
          "type": "address"
        },
        {
          "indexed": false,
          "internalType": "uint256",
          "name": "collateral",
          "type": "uint256"
        },
        {
          "indexed": false,
          "internalType": "uint256",
          "name": "debt",
          "type": "uint256"
        },
        {
          "indexed": false,
          "internalType": "uint256",
          "name": "price",
          "type": "uint256"
        },
        {
          "indexed": false,
          "internalType": "uint256",
          "name": "ratio",
          "type": "uint256"
        },
        {
          "indexed": false,
          "internalType": "uint256",
          "name": "index",
          "type": "uint256"
        },
        {
          "indexed": false,
          "internalType": "string",
          "name": "symbol",
          "type": "string"
        }
      ],
      "name": "Removed",
      "type": "event"
    },
    {
      "anonymous": false,
      "inputs": [
        {
          "indexed": true,
          "internalType": "bytes32",
          "name": "role",
          "type": "bytes32"
        },
        {
          "indexed": true,
          "internalType": "bytes32",
          "name": "previousAdminRole",
          "type": "bytes32"
        },
        {
          "indexed": true,
          "internalType": "bytes32",
          "name": "newAdminRole",
          "type": "bytes32"
        }
      ],
      "name": "RoleAdminChanged",
      "type": "event"
    },
    {
      "anonymous": false,
      "inputs": [
        {
          "indexed": true,
          "internalType": "bytes32",
          "name": "role",
          "type": "bytes32"
        },
        {
          "indexed": true,
          "internalType": "address",
          "name": "account",
          "type": "address"
        },
        {
          "indexed": true,
          "internalType": "address",
          "name": "sender",
          "type": "address"
        }
      ],
      "name": "RoleGranted",
      "type": "event"
    },
    {
      "anonymous": false,
      "inputs": [
        {
          "indexed": true,
          "internalType": "bytes32",
          "name": "role",
          "type": "bytes32"
        },
        {
          "indexed": true,
          "internalType": "address",
          "name": "account",
          "type": "address"
        },
        {
          "indexed": true,
          "internalType": "address",
          "name": "sender",
          "type": "address"
        }
      ],
      "name": "RoleRevoked",
      "type": "event"
    },
    {
      "anonymous": false,
      "inputs": [
        {
          "indexed": true,
          "internalType": "address",
          "name": "implementation",
          "type": "address"
        }
      ],
      "name": "Upgraded",
      "type": "event"
    },
    {
      "inputs": [],
      "name": "ADMIN_ROLE",
      "outputs": [
        {
          "internalType": "bytes32",
          "name": "",
          "type": "bytes32"
        }
      ],
      "stateMutability": "view",
      "type": "function"
    },
    {
      "inputs": [],
      "name": "DEFAULT_ADMIN_ROLE",
      "outputs": [
        {
          "internalType": "bytes32",
          "name": "",
          "type": "bytes32"
        }
      ],
      "stateMutability": "view",
      "type": "function"
    },
    {
      "inputs": [],
      "name": "UPGRADER_ROLE",
      "outputs": [
        {
          "internalType": "bytes32",
          "name": "",
          "type": "bytes32"
        }
      ],
      "stateMutability": "view",
      "type": "function"
    },
    {
      "inputs": [
        {
          "internalType": "uint256",
          "name": "index",
          "type": "uint256"
        },
        {
          "internalType": "string",
          "name": "symbol",
          "type": "string"
        }
      ],
      "name": "addCollateral",
      "outputs": [],
      "stateMutability": "nonpayable",
      "type": "function"
    },
    {
      "inputs": [
        {
          "internalType": "address",
          "name": "buyer",
          "type": "address"
        },
        {
          "internalType": "uint256",
          "name": "index",
          "type": "uint256"
        },
        {
          "internalType": "uint256",
          "name": "debtAmount",
          "type": "uint256"
        },
        {
          "internalType": "uint256",
          "name": "collateralAmount",
          "type": "uint256"
        },
        {
          "internalType": "string",
          "name": "symbol",
          "type": "string"
        }
      ],
      "name": "buyCollateral",
      "outputs": [],
      "stateMutability": "nonpayable",
      "type": "function"
    },
    {
      "inputs": [
        {
          "internalType": "uint256",
          "name": "index",
          "type": "uint256"
        },
        {
          "internalType": "string",
          "name": "symbol",
          "type": "string"
        }
      ],
      "name": "claimExtraDebt",
      "outputs": [],
      "stateMutability": "nonpayable",
      "type": "function"
    },
    {
      "inputs": [
        {
          "internalType": "uint256",
          "name": "index",
          "type": "uint256"
        },
        {
          "internalType": "string",
          "name": "symbol",
          "type": "string"
        }
      ],
      "name": "disposeDebt",
      "outputs": [],
      "stateMutability": "nonpayable",
      "type": "function"
    },
    {
      "inputs": [],
      "name": "getParams",
      "outputs": [
        {
          "internalType": "contract WQPriceOracleInterface",
          "name": "",
          "type": "address"
        },
        {
          "internalType": "contract WQBridgeTokenInterface",
          "name": "",
          "type": "address"
        },
        {
          "internalType": "address payable",
          "name": "",
          "type": "address"
        }
      ],
      "stateMutability": "view",
      "type": "function"
    },
    {
      "inputs": [
        {
          "internalType": "bytes32",
          "name": "role",
          "type": "bytes32"
        }
      ],
      "name": "getRoleAdmin",
      "outputs": [
        {
          "internalType": "bytes32",
          "name": "",
          "type": "bytes32"
        }
      ],
      "stateMutability": "view",
      "type": "function"
    },
    {
      "inputs": [
        {
          "internalType": "address",
          "name": "user",
          "type": "address"
        },
        {
          "internalType": "uint256",
          "name": "offset",
          "type": "uint256"
        },
        {
          "internalType": "uint256",
          "name": "limit",
          "type": "uint256"
        },
        {
          "internalType": "string",
          "name": "symbol",
          "type": "string"
        }
      ],
      "name": "getUserLots",
      "outputs": [
        {
          "internalType": "uint256[]",
          "name": "page",
          "type": "uint256[]"
        }
      ],
      "stateMutability": "view",
      "type": "function"
    },
    {
      "inputs": [
        {
          "internalType": "bytes32",
          "name": "role",
          "type": "bytes32"
        },
        {
          "internalType": "address",
          "name": "account",
          "type": "address"
        }
      ],
      "name": "grantRole",
      "outputs": [],
      "stateMutability": "nonpayable",
      "type": "function"
    },
    {
      "inputs": [
        {
          "internalType": "bytes32",
          "name": "role",
          "type": "bytes32"
        },
        {
          "internalType": "address",
          "name": "account",
          "type": "address"
        }
      ],
      "name": "hasRole",
      "outputs": [
        {
          "internalType": "bool",
          "name": "",
          "type": "bool"
        }
      ],
      "stateMutability": "view",
      "type": "function"
    },
    {
      "inputs": [
        {
          "internalType": "address",
          "name": "_oracle",
          "type": "address"
        },
        {
          "internalType": "address",
          "name": "_wusd",
          "type": "address"
        },
        {
          "internalType": "address payable",
          "name": "_feeReceiver",
          "type": "address"
        }
      ],
      "name": "initialize",
      "outputs": [],
      "stateMutability": "nonpayable",
      "type": "function"
    },
    {
      "inputs": [
        {
          "internalType": "address",
          "name": "user",
          "type": "address"
        },
        {
          "internalType": "uint256",
          "name": "collateral",
          "type": "uint256"
        },
        {
          "internalType": "uint256",
          "name": "price",
          "type": "uint256"
        },
        {
          "internalType": "uint256",
          "name": "collateralRatio",
          "type": "uint256"
        },
        {
          "internalType": "uint256",
          "name": "index",
          "type": "uint256"
        },
        {
          "internalType": "uint256",
          "name": "newIndex",
          "type": "uint256"
        },
        {
          "internalType": "string",
          "name": "symbol",
          "type": "string"
        }
      ],
      "name": "moveUserLot",
      "outputs": [],
      "stateMutability": "nonpayable",
      "type": "function"
    },
    {
      "inputs": [
        {
          "internalType": "uint256",
          "name": "collateralAmount",
          "type": "uint256"
        },
        {
          "internalType": "uint256",
          "name": "collateralRatio",
          "type": "uint256"
        },
        {
          "internalType": "string",
          "name": "symbol",
          "type": "string"
        }
      ],
      "name": "produceWUSD",
      "outputs": [],
      "stateMutability": "nonpayable",
      "type": "function"
    },
    {
      "inputs": [],
      "name": "proxiableUUID",
      "outputs": [
        {
          "internalType": "bytes32",
          "name": "",
          "type": "bytes32"
        }
      ],
      "stateMutability": "view",
      "type": "function"
    },
    {
      "inputs": [
        {
          "internalType": "uint256",
          "name": "index",
          "type": "uint256"
        },
        {
          "internalType": "string",
          "name": "symbol",
          "type": "string"
        }
      ],
      "name": "removeCollateral",
      "outputs": [],
      "stateMutability": "nonpayable",
      "type": "function"
    },
    {
      "inputs": [
        {
          "internalType": "bytes32",
          "name": "role",
          "type": "bytes32"
        },
        {
          "internalType": "address",
          "name": "account",
          "type": "address"
        }
      ],
      "name": "renounceRole",
      "outputs": [],
      "stateMutability": "nonpayable",
      "type": "function"
    },
    {
      "inputs": [
        {
          "internalType": "bytes32",
          "name": "role",
          "type": "bytes32"
        },
        {
          "internalType": "address",
          "name": "account",
          "type": "address"
        }
      ],
      "name": "revokeRole",
      "outputs": [],
      "stateMutability": "nonpayable",
      "type": "function"
    },
    {
      "inputs": [
        {
          "internalType": "address",
          "name": "_oracle",
          "type": "address"
        },
        {
          "internalType": "address",
          "name": "_wusd",
          "type": "address"
        },
        {
          "internalType": "address payable",
          "name": "_feeReeiver",
          "type": "address"
        }
      ],
      "name": "setContracts",
      "outputs": [],
      "stateMutability": "nonpayable",
      "type": "function"
    },
    {
      "inputs": [
        {
          "internalType": "bool",
          "name": "enabled",
          "type": "bool"
        },
        {
          "internalType": "address",
          "name": "token",
          "type": "address"
        },
        {
          "internalType": "address",
          "name": "auction",
          "type": "address"
        },
        {
          "internalType": "uint256",
          "name": "minRatio",
          "type": "uint256"
        },
        {
          "internalType": "string",
          "name": "symbol",
          "type": "string"
        }
      ],
      "name": "setToken",
      "outputs": [],
      "stateMutability": "nonpayable",
      "type": "function"
    },
    {
      "inputs": [
        {
          "internalType": "bytes4",
          "name": "interfaceId",
          "type": "bytes4"
        }
      ],
      "name": "supportsInterface",
      "outputs": [
        {
          "internalType": "bool",
          "name": "",
          "type": "bool"
        }
      ],
      "stateMutability": "view",
      "type": "function"
    },
    {
      "inputs": [
        {
          "internalType": "string",
          "name": "",
          "type": "string"
        }
      ],
      "name": "tokens",
      "outputs": [
        {
          "internalType": "address",
          "name": "token",
          "type": "address"
        },
        {
          "internalType": "contract WQCollateralAuction",
          "name": "collateralAuction",
          "type": "address"
        },
        {
          "internalType": "uint256",
          "name": "minRatio",
          "type": "uint256"
        },
        {
          "internalType": "bool",
          "name": "enabled",
          "type": "bool"
        }
      ],
      "stateMutability": "view",
      "type": "function"
    },
    {
      "inputs": [
        {
          "internalType": "address",
          "name": "newImplementation",
          "type": "address"
        }
      ],
      "name": "upgradeTo",
      "outputs": [],
      "stateMutability": "nonpayable",
      "type": "function"
    },
    {
      "inputs": [
        {
          "internalType": "address",
          "name": "newImplementation",
          "type": "address"
        },
        {
          "internalType": "bytes",
          "name": "data",
          "type": "bytes"
        }
      ],
      "name": "upgradeToAndCall",
      "outputs": [],
      "stateMutability": "payable",
      "type": "function"
    },
    {
      "stateMutability": "payable",
      "type": "receive"
    }
  ],
  "bytecode": "0x60a0604052306080523480156200001557600080fd5b50600054610100900460ff1615808015620000375750600054600160ff909116105b8062000067575062000054306200014160201b620038d11760201c565b15801562000067575060005460ff166001145b620000cf5760405162461bcd60e51b815260206004820152602e60248201527f496e697469616c697a61626c653a20636f6e747261637420697320616c72656160448201526d191e481a5b9a5d1a585b1a5e995960921b606482015260840160405180910390fd5b6000805460ff191660011790558015620000f3576000805461ff0019166101001790555b80156200013a576000805461ff0019169055604051600181527f7f26b83ff96e1f2b6a682f133852f6798a09c465da95921460cefb38474024989060200160405180910390a15b5062000150565b6001600160a01b03163b151590565b608051615aaa6200018860003960008181610c3401528181610c77015281816113010152818161134401526113dc0152615aaa6000f3fe608060405260043610620001885760003560e01c806375b238fc11620000e2578063b4c408eb1162000095578063d547741f116200006c578063d547741f1462000569578063e19af821146200058e578063e1cc246a14620005b3578063f72c0d8b14620005e757600080fd5b8063b4c408eb14620004fa578063bb537b50146200051f578063c0c53b8b146200054457600080fd5b806375b238fc146200042a5780637d2bda96146200044f57806391d14854146200047457806397bcbf401462000499578063a217fddf14620004be578063b3066d4914620004d557600080fd5b80633659cfe6116200013b5780633659cfe614620003475780634493edd7146200036c5780634f1ef286146200039157806352d1902d14620003a857806359880b9514620003c05780635e615a6b14620003e557600080fd5b806301ffc9a714620001c857806304c2320b1462000202578063248a9ca314620002935780632f2ff15d14620002d65780633131851114620002fd57806336568abe146200032257600080fd5b36620001c3576040513481527fa8142743f8f70a4c26f3691cf4ed59718381fb2f18070ec52be1f1022d8555579060200160405180910390a1005b600080fd5b348015620001d557600080fd5b50620001ed620001e7366004620045d7565b6200060c565b60405190151581526020015b60405180910390f35b3480156200020f57600080fd5b506200026562000221366004620046b9565b8051808201602090810180516101308252928201919093012091528054600182015460028301546003909301546001600160a01b0392831693919092169160ff1684565b604080516001600160a01b0395861681529490931660208501529183015215156060820152608001620001f9565b348015620002a057600080fd5b50620002c7620002b2366004620046f2565b60009081526065602052604090206001015490565b604051908152602001620001f9565b348015620002e357600080fd5b50620002fb620002f536600462004722565b62000644565b005b3480156200030a57600080fd5b50620002fb6200031c366004620047a1565b62000672565b3480156200032f57600080fd5b50620002fb6200034136600462004722565b62000ba7565b3480156200035457600080fd5b50620002fb62000366366004620047f1565b62000c29565b3480156200037957600080fd5b50620002fb6200038b36600462004811565b62000d15565b620002fb620003a236600462004868565b620012f6565b348015620003b557600080fd5b50620002c7620013cf565b348015620003cd57600080fd5b50620002fb620003df366004620048d3565b62001485565b348015620003f257600080fd5b5061012d5461012e5461012f54604080516001600160a01b0394851681529284166020840152921691810191909152606001620001f9565b3480156200043757600080fd5b50620002c760008051602062005a3583398151915281565b3480156200045c57600080fd5b50620002fb6200046e366004620047a1565b6200167c565b3480156200048157600080fd5b50620001ed6200049336600462004722565b62001c1e565b348015620004a657600080fd5b50620002fb620004b8366004620047a1565b62001c49565b348015620004cb57600080fd5b50620002c7600081565b348015620004e257600080fd5b50620002fb620004f436600462004959565b620021ec565b3480156200050757600080fd5b50620002fb62000519366004620047a1565b6200224a565b3480156200052c57600080fd5b50620002fb6200053e366004620049ab565b62002c54565b3480156200055157600080fd5b50620002fb6200056336600462004959565b6200348a565b3480156200057657600080fd5b50620002fb6200058836600462004722565b62003668565b3480156200059b57600080fd5b50620002fb620005ad36600462004a2d565b62003691565b348015620005c057600080fd5b50620005d8620005d236600462004abc565b620037a7565b604051620001f9919062004b2c565b348015620005f457600080fd5b50620002c7600080516020620059ce83398151915281565b60006001600160e01b03198216637965db0b60e01b14806200063e57506301ffc9a760e01b6001600160e01b03198316145b92915050565b6000828152606560205260409020600101546200066181620038e0565b6200066d8383620038ec565b505050565b60026097541415620006a15760405162461bcd60e51b8152600401620006989062004b72565b60405180910390fd5b600260978190555081816101308282604051620006c092919062004ba9565b9081526040519081900360200190206003015460ff16620006f55760405162461bcd60e51b8152600401620006989062004bb9565b6200070285858562003976565b61012d54604051630292e0fd60e01b81526000916001600160a01b031690630292e0fd9062000738908890889060040162004c19565b60206040518083038186803b1580156200075157600080fd5b505afa15801562000766573d6000803e3d6000fd5b505050506040513d601f19601f820116820180604052508101906200078c919062004c2f565b905060008060006101308888604051620007a892919062004ba9565b90815260405190819003602001812060010154632f1b130360e01b82526001600160a01b031690632f1b130390620007e8908c9060040190815260200190565b60606040518083038186803b1580156200080157600080fd5b505afa15801562000816573d6000803e3d6000fd5b505050506040513d601f19601f820116820180604052508101906200083c919062004c49565b925092509250600160ff1661013089896040516200085c92919062004ba9565b90815260405190819003602001812060010154634cbf3e1b60e11b82526001600160a01b03169063997e7c36906200089c908d9060040190815260200190565b60206040518083038186803b158015620008b557600080fd5b505afa158015620008ca573d6000803e3d6000fd5b505050506040513d601f19601f82011682018060405250810190620008f0919062004c78565b60ff1614620009135760405162461bcd60e51b8152600401620006989062004c9d565b6000838562000923828662004cea565b6200092f919062004d0c565b6200093b919062004d2f565b905061013089896040516200095292919062004ba9565b908152604051908190036020019020600101546001600160a01b031663b70a07ea8b8762000981858962004d49565b6040516001600160e01b031960e086901b168152600481019390935260248301919091526044820152606401602060405180830381600087803b158015620009c857600080fd5b505af1158015620009dd573d6000803e3d6000fd5b505050506040513d601f19601f8201168201806040525081019062000a03919062004c2f565b5062000a7b336101318b8b60405162000a1e92919062004ba9565b908152604080519182900360209081018320336000908152915220546001600160a01b03169084906101309062000a59908f908f9062004ba9565b908152604051908190036020019020546001600160a01b031692919062003a03565b60008051602062005a5583398151915262000a97828662004d49565b836101308c8c60405162000aad92919062004ba9565b90815260408051602092819003830181205463313ce56760e01b825291516001600160a01b039092169263313ce56792600480840193829003018186803b15801562000af857600080fd5b505afa15801562000b0d573d6000803e3d6000fd5b505050506040513d601f19601f8201168201806040525081019062000b33919062004c78565b62000b4090601262004d64565b62000b4d90600a62004e87565b62000b59888862004cea565b62000b65919062004cea565b62000b71919062004d0c565b878d8e60028f8f60405162000b8e98979695949392919062004e98565b60405180910390a1505060016097555050505050505050565b6001600160a01b038116331462000c195760405162461bcd60e51b815260206004820152602f60248201527f416363657373436f6e74726f6c3a2063616e206f6e6c792072656e6f756e636560448201526e103937b632b9903337b91039b2b63360891b606482015260840162000698565b62000c25828262003a5f565b5050565b306001600160a01b037f000000000000000000000000000000000000000000000000000000000000000016141562000c755760405162461bcd60e51b8152600401620006989062004ee3565b7f00000000000000000000000000000000000000000000000000000000000000006001600160a01b031662000cc0600080516020620059ee833981519152546001600160a01b031690565b6001600160a01b03161462000ce95760405162461bcd60e51b8152600401620006989062004f2f565b62000cf48162003ac9565b6040805160008082526020820190925262000d129183919062003ae4565b50565b6002609754141562000d3b5760405162461bcd60e51b8152600401620006989062004b72565b60026097819055508181610130828260405162000d5a92919062004ba9565b9081526040519081900360200190206003015460ff1662000d8f5760405162461bcd60e51b8152600401620006989062004bb9565b610130848460405162000da492919062004ba9565b908152602001604051809103902060020154851015801562000e4e575061012d54604051630ac1066b60e11b81526001600160a01b03909116906315820cd69062000df6908790879060040162004c19565b60206040518083038186803b15801562000e0f57600080fd5b505afa15801562000e24573d6000803e3d6000fd5b505050506040513d601f19601f8201168201806040525081019062000e4a919062004c2f565b8511155b62000ea75760405162461bcd60e51b815260206004820152602260248201527f5751526f757465723a20496e76616c696420636f6c6c61746572616c20726174604482015261696f60f01b606482015260840162000698565b61012d54604051630292e0fd60e01b81526000916001600160a01b031690630292e0fd9062000edd908890889060040162004c19565b60206040518083038186803b15801562000ef657600080fd5b505afa15801562000f0b573d6000803e3d6000fd5b505050506040513d601f19601f8201168201806040525081019062000f31919062004c2f565b905060006001600160a01b0316610131868660405162000f5392919062004ba9565b908152604080516020928190038301902033600090815292529020546001600160a01b031614156200100b573360405162000f8e90620045c9565b6001600160a01b039091168152602001604051809103906000f08015801562000fbb573d6000803e3d6000fd5b50610131868660405162000fd192919062004ba9565b90815260408051602092819003830190203360009081529252902080546001600160a01b0319166001600160a01b03929092169190911790555b60008661013087876040516200102392919062004ba9565b90815260408051602092819003830181205463313ce56760e01b825291516001600160a01b039092169263313ce56792600480840193829003018186803b1580156200106e57600080fd5b505afa15801562001083573d6000803e3d6000fd5b505050506040513d601f19601f82011682018060405250810190620010a9919062004c78565b620010b690601262004d64565b620010c390600a62004e87565b620010cf848b62004cea565b620010db919062004cea565b620010e7919062004d0c565b9050600061013087876040516200110092919062004ba9565b9081526040519081900360200181206001015463cc6b3be360e01b825233600483015260248201859052604482018b9052606482018a90526001600160a01b03169063cc6b3be390608401602060405180830381600087803b1580156200116657600080fd5b505af11580156200117b573d6000803e3d6000fd5b505050506040513d601f19601f82011682018060405250810190620011a1919062004c2f565b9050620011e2816101318989604051620011bd92919062004ba9565b9081526040805160209281900383019020336000908152925290206001019062003c6c565b5062001238336101318989604051620011fd92919062004ba9565b908152604080519182900360209081018320336000908152915220546001600160a01b0316908c906101309062000a59908d908d9062004ba9565b61012e546040516340c10f1960e01b8152336004820152602481018490526001600160a01b03909116906340c10f1990604401600060405180830381600087803b1580156200128657600080fd5b505af11580156200129b573d6000803e3d6000fd5b505050507f0cd37c976baaad20e50f369a7000baf6b6c37b632190cba4a51372e76c9476ad338a8a8587868d8d604051620012de98979695949392919062004f7b565b60405180910390a15050600160975550505050505050565b306001600160a01b037f0000000000000000000000000000000000000000000000000000000000000000161415620013425760405162461bcd60e51b8152600401620006989062004ee3565b7f00000000000000000000000000000000000000000000000000000000000000006001600160a01b03166200138d600080516020620059ee833981519152546001600160a01b031690565b6001600160a01b031614620013b65760405162461bcd60e51b8152600401620006989062004f2f565b620013c18262003ac9565b62000c258282600162003ae4565b6000306001600160a01b037f00000000000000000000000000000000000000000000000000000000000000001614620014715760405162461bcd60e51b815260206004820152603860248201527f555550535570677261646561626c653a206d757374206e6f742062652063616c60448201527f6c6564207468726f7567682064656c656761746563616c6c0000000000000000606482015260840162000698565b50600080516020620059ee83398151915290565b806101308160405162001499919062004fec565b90815260405190819003602001902060010154336001600160a01b0390911614620014d85760405162461bcd60e51b815260040162000698906200500a565b6200151e8461013184604051620014f0919062004fec565b90815260408051602092819003830190206001600160a01b038d166000908152925290206001019062003c81565b5062001565836101318460405162001537919062004fec565b90815260408051602092819003830190206001600160a01b038d166000908152925290206001019062003c6c565b5060008051602062005a558339815191528786610130856040516200158b919062004fec565b90815260408051602092819003830181205463313ce56760e01b825291516001600160a01b039092169263313ce56792600480840193829003018186803b158015620015d657600080fd5b505afa158015620015eb573d6000803e3d6000fd5b505050506040513d601f19601f8201168201806040525081019062001611919062004c78565b6200161e90601262004d64565b6200162b90600a62004e87565b620016378a8c62004cea565b62001643919062004cea565b6200164f919062004d0c565b8887876003886040516200166a979695949392919062005079565b60405180910390a15050505050505050565b60026097541415620016a25760405162461bcd60e51b8152600401620006989062004b72565b600260978190555081816101308282604051620016c192919062004ba9565b9081526040519081900360200190206003015460ff16620016f65760405162461bcd60e51b8152600401620006989062004bb9565b6200170385858562003976565b61012d54604051630292e0fd60e01b81526000916001600160a01b031690630292e0fd9062001739908890889060040162004c19565b60206040518083038186803b1580156200175257600080fd5b505afa15801562001767573d6000803e3d6000fd5b505050506040513d601f19601f820116820180604052508101906200178d919062004c2f565b905060008060006101308888604051620017a992919062004ba9565b90815260405190819003602001812060010154632f1b130360e01b82526001600160a01b031690632f1b130390620017e9908c9060040190815260200190565b60606040518083038186803b1580156200180257600080fd5b505afa15801562001817573d6000803e3d6000fd5b505050506040513d601f19601f820116820180604052508101906200183d919062004c49565b925092509250600160ff1661013089896040516200185d92919062004ba9565b90815260405190819003602001812060010154634cbf3e1b60e11b82526001600160a01b03169063997e7c36906200189d908d9060040190815260200190565b60206040518083038186803b158015620018b657600080fd5b505afa158015620018cb573d6000803e3d6000fd5b505050506040513d601f19601f82011682018060405250810190620018f1919062004c78565b60ff1614620019145760405162461bcd60e51b8152600401620006989062004c9d565b6000816101308a8a6040516200192c92919062004ba9565b90815260408051602092819003830181205463313ce56760e01b825291516001600160a01b039092169263313ce56792600480840193829003018186803b1580156200197757600080fd5b505afa1580156200198c573d6000803e3d6000fd5b505050506040513d601f19601f82011682018060405250810190620019b2919062004c78565b620019bf90601262004d64565b620019cc90600a62004e87565b85620019d9868962004d2f565b620019e5919062004cea565b620019f1919062004cea565b620019fd919062004d0c565b61012e546040516340c10f1960e01b8152336004820152602481018390529192506001600160a01b0316906340c10f1990604401600060405180830381600087803b15801562001a4c57600080fd5b505af115801562001a61573d6000803e3d6000fd5b50505050610130898960405162001a7a92919062004ba9565b90815260405190819003602001812060010154635b8503f560e11b8252600482018c905260248201879052604482018690526001600160a01b03169063b70a07ea90606401602060405180830381600087803b15801562001ada57600080fd5b505af115801562001aef573d6000803e3d6000fd5b505050506040513d601f19601f8201168201806040525081019062001b15919062004c2f565b5060008051602062005a5583398151915284836101308c8c60405162001b3d92919062004ba9565b90815260408051602092819003830181205463313ce56760e01b825291516001600160a01b039092169263313ce56792600480840193829003018186803b15801562001b8857600080fd5b505afa15801562001b9d573d6000803e3d6000fd5b505050506040513d601f19601f8201168201806040525081019062001bc3919062004c78565b62001bd090601262004d64565b62001bdd90600a62004e87565b62001be9898962004cea565b62001bf5919062004cea565b62001c01919062004d0c565b878d8e60008f8f60405162000b8e98979695949392919062004e98565b60009182526065602090815260408084206001600160a01b0393909316845291905290205460ff1690565b6002609754141562001c6f5760405162461bcd60e51b8152600401620006989062004b72565b60026097819055508181610130828260405162001c8e92919062004ba9565b9081526040519081900360200190206003015460ff1662001cc35760405162461bcd60e51b8152600401620006989062004bb9565b62001cd085858562003976565b61012d54604051630292e0fd60e01b81526000916001600160a01b031690630292e0fd9062001d06908890889060040162004c19565b60206040518083038186803b15801562001d1f57600080fd5b505afa15801562001d34573d6000803e3d6000fd5b505050506040513d601f19601f8201168201806040525081019062001d5a919062004c2f565b90506000806000610130888860405162001d7692919062004ba9565b90815260405190819003602001812060010154632f1b130360e01b82526001600160a01b031690632f1b13039062001db6908c9060040190815260200190565b60606040518083038186803b15801562001dcf57600080fd5b505afa15801562001de4573d6000803e3d6000fd5b505050506040513d601f19601f8201168201806040525081019062001e0a919062004c49565b925092509250600160ff16610130898960405162001e2a92919062004ba9565b90815260405190819003602001812060010154634cbf3e1b60e11b82526001600160a01b03169063997e7c369062001e6a908d9060040190815260200190565b60206040518083038186803b15801562001e8357600080fd5b505afa15801562001e98573d6000803e3d6000fd5b505050506040513d601f19601f8201168201806040525081019062001ebe919062004c78565b60ff161462001ee15760405162461bcd60e51b8152600401620006989062004c9d565b6000816101308a8a60405162001ef992919062004ba9565b90815260408051602092819003830181205463313ce56760e01b825291516001600160a01b039092169263313ce56792600480840193829003018186803b15801562001f4457600080fd5b505afa15801562001f59573d6000803e3d6000fd5b505050506040513d601f19601f8201168201806040525081019062001f7f919062004c78565b62001f8c90601262004d64565b62001f9990600a62004e87565b8562001fa6888762004d2f565b62001fb2919062004cea565b62001fbe919062004cea565b62001fca919062004d0c565b9050610130898960405162001fe192919062004ba9565b90815260405190819003602001812060010154635b8503f560e11b8252600482018c905260248201879052604482018690526001600160a01b03169063b70a07ea90606401602060405180830381600087803b1580156200204157600080fd5b505af115801562002056573d6000803e3d6000fd5b505050506040513d601f19601f820116820180604052508101906200207c919062004c2f565b5061012e54604051632770a7eb60e21b8152336004820152602481018390526001600160a01b0390911690639dc29fac90604401600060405180830381600087803b158015620020cb57600080fd5b505af1158015620020e0573d6000803e3d6000fd5b5050505060008051602062005a5583398151915284836101308c8c6040516200210b92919062004ba9565b90815260408051602092819003830181205463313ce56760e01b825291516001600160a01b039092169263313ce56792600480840193829003018186803b1580156200215657600080fd5b505afa1580156200216b573d6000803e3d6000fd5b505050506040513d601f19601f8201168201806040525081019062002191919062004c78565b6200219e90601262004d64565b620021ab90600a62004e87565b620021b7898962004cea565b620021c3919062004cea565b620021cf919062004d0c565b878d8e60018f8f60405162000b8e98979695949392919062004e98565b60008051602062005a358339815191526200220781620038e0565b5061012d80546001600160a01b039485166001600160a01b03199182161790915561012e80549385169382169390931790925561012f8054919093169116179055565b60026097541415620022705760405162461bcd60e51b8152600401620006989062004b72565b6002609781905550818161013082826040516200228f92919062004ba9565b9081526040519081900360200190206003015460ff16620022c45760405162461bcd60e51b8152600401620006989062004bb9565b620022d185858562003976565b60008060006101308787604051620022eb92919062004ba9565b90815260408051602092819003830181205463313ce56760e01b825291516001600160a01b039092169263313ce56792600480840193829003018186803b1580156200233657600080fd5b505afa1580156200234b573d6000803e3d6000fd5b505050506040513d601f19601f8201168201806040525081019062002371919062004c78565b6200237e90601262004d64565b6200238b90600a62004e87565b905060006101308888604051620023a492919062004ba9565b90815260405190819003602001812060010154632f1b130360e01b82526001600160a01b031690632f1b130390620023e4908c9060040190815260200190565b60606040518083038186803b158015620023fd57600080fd5b505afa15801562002412573d6000803e3d6000fd5b505050506040513d601f19601f8201168201806040525081019062002438919062004c49565b60405191965094509091506001906101309062002459908b908b9062004ba9565b90815260405190819003602001812060010154634cbf3e1b60e11b82526001600160a01b03169063997e7c369062002499908d9060040190815260200190565b60206040518083038186803b158015620024b257600080fd5b505afa158015620024c7573d6000803e3d6000fd5b505050506040513d601f19601f82011682018060405250810190620024ed919062004c78565b60ff1614620025105760405162461bcd60e51b8152600401620006989062004c9d565b600061013189896040516200252792919062004ba9565b90815260408051918290036020908101832033600090815291522091506101309062002557908b908b9062004ba9565b9081526040519081900360200181206001015463d0896c5560e01b82526001600160a01b03169063d0896c55906200259e908d908690600401918252602082015260400190565b602060405180830381600087803b158015620025b957600080fd5b505af1158015620025ce573d6000803e3d6000fd5b505050506040513d601f19601f82011682018060405250810190620025f4919062004c2f565b50620026348a6101318b8b6040516200260f92919062004ba9565b9081526040805160209281900383019020336000908152925290206001019062003c81565b5080546040516001600160a01b039091169063dbba0f01903390670de0b6b3a764000090610130906200266b908f908f9062004ba9565b90815260408051602092819003830181206001015463049cf37160e21b825291516001600160a01b0390921692631273cdc492600480840193829003018186803b158015620026b957600080fd5b505afa158015620026ce573d6000803e3d6000fd5b505050506040513d601f19601f82011682018060405250810190620026f4919062004c2f565b6101308e8e6040516200270992919062004ba9565b90815260408051602092819003830181206001015463b188a84960e01b825291516001600160a01b039092169263b188a84992600480840193829003018186803b1580156200275757600080fd5b505afa1580156200276c573d6000803e3d6000fd5b505050506040513d601f19601f8201168201806040525081019062002792919062004c2f565b6200279e919062004d49565b620027aa908762004cea565b620027b6919062004d0c565b620027c2908662004d2f565b6101308d8d604051620027d792919062004ba9565b908152604051908190036020018120546001600160e01b031960e086901b168252620028149392916001600160a01b0390911690600401620050c2565b600060405180830381600087803b1580156200282f57600080fd5b505af115801562002844573d6000803e3d6000fd5b505082546040516001600160a01b03909116925063dbba0f0191506101309062002872908d908d9062004ba9565b908152602001604051809103902060010160009054906101000a90046001600160a01b0316670de0b6b3a7640000856101308e8e604051620028b692919062004ba9565b90815260408051602092819003830181206001015463b188a84960e01b825291516001600160a01b039092169263b188a84992600480840193829003018186803b1580156200290457600080fd5b505afa15801562002919573d6000803e3d6000fd5b505050506040513d601f19601f820116820180604052508101906200293f919062004c2f565b6200294b919062004cea565b62002957919062004d0c565b6101308d8d6040516200296c92919062004ba9565b908152604051908190036020018120546001600160e01b031960e086901b168252620029a99392916001600160a01b0390911690600401620050c2565b600060405180830381600087803b158015620029c457600080fd5b505af1158015620029d9573d6000803e3d6000fd5b505050508060000160009054906101000a90046001600160a01b03166001600160a01b031663dbba0f0161012f60009054906101000a90046001600160a01b0316670de0b6b3a7640000856101308e8e60405162002a3992919062004ba9565b90815260408051602092819003830181206001015463049cf37160e21b825291516001600160a01b0390921692631273cdc492600480840193829003018186803b15801562002a8757600080fd5b505afa15801562002a9c573d6000803e3d6000fd5b505050506040513d601f19601f8201168201806040525081019062002ac2919062004c2f565b62002ace919062004cea565b62002ada919062004d0c565b6101308d8d60405162002aef92919062004ba9565b908152604051908190036020018120546001600160e01b031960e086901b16825262002b2c9392916001600160a01b0390911690600401620050c2565b600060405180830381600087803b15801562002b4757600080fd5b505af115801562002b5c573d6000803e3d6000fd5b505061012e546001600160a01b03169150639dc29fac905033868662002b838a8862004cea565b62002b8f919062004cea565b62002b9b919062004d0c565b6040516001600160e01b031960e085901b1681526001600160a01b0390921660048301526024820152604401600060405180830381600087803b15801562002be257600080fd5b505af115801562002bf7573d6000803e3d6000fd5b5050505050507fcc3f3bf4ebb079856c31b44ccbec64a58ff9c3f04a8d8a846ee9e7c2e0e4c7e13360008086868d8d8d60405162002c3d98979695949392919062004f7b565b60405180910390a150506001609755505050505050565b6002609754141562002c7a5760405162461bcd60e51b8152600401620006989062004b72565b600260975560405181906101309062002c9590839062004fec565b90815260405190819003602001902060010154336001600160a01b039091161462002cd45760405162461bcd60e51b815260040162000698906200500a565b60006101308360405162002ce9919062004fec565b90815260405190819003602001812060010154633a1a732760e01b82526001600160a01b031690633a1a73279062002d2990899060040190815260200190565b60206040518083038186803b15801562002d4257600080fd5b505afa15801562002d57573d6000803e3d6000fd5b505050506040513d601f19601f8201168201806040525081019062002d7d9190620050e5565b90506101318360405162002d92919062004fec565b9081526040805191829003602090810183206001600160a01b038086166000908152919092529190912054169063dbba0f01908990670de0b6b3a76400009088906101309062002de4908a9062004fec565b90815260408051602092819003830181206001015463c375a48b60e01b825291516001600160a01b039092169263c375a48b92600480840193829003018186803b15801562002e3257600080fd5b505afa15801562002e47573d6000803e3d6000fd5b505050506040513d601f19601f8201168201806040525081019062002e6d919062004c2f565b62002e79919062004cea565b62002e85919062004d0c565b62002e91908862004d49565b6101308760405162002ea4919062004fec565b908152604051908190036020018120546001600160e01b031960e086901b16825262002ee19392916001600160a01b0390911690600401620050c2565b600060405180830381600087803b15801562002efc57600080fd5b505af115801562002f11573d6000803e3d6000fd5b505050506101318360405162002f28919062004fec565b9081526040805191829003602090810183206001600160a01b038086166000908152919092529190912054169063dbba0f01906101309062002f6c90879062004fec565b908152604051908190036020018120600101546001600160a01b031690670de0b6b3a76400009088906101309062002fa6908a9062004fec565b90815260408051602092819003830181206001015463b188a84960e01b825291516001600160a01b039092169263b188a84992600480840193829003018186803b15801562002ff457600080fd5b505afa15801562003009573d6000803e3d6000fd5b505050506040513d601f19601f820116820180604052508101906200302f919062004c2f565b6200303b919062004cea565b62003047919062004d0c565b610130876040516200305a919062004fec565b908152604051908190036020018120546001600160e01b031960e086901b168252620030979392916001600160a01b0390911690600401620050c2565b600060405180830381600087803b158015620030b257600080fd5b505af1158015620030c7573d6000803e3d6000fd5b5050505061013183604051620030de919062004fec565b90815260408051602092819003830181206001600160a01b03858116600090815291909452919091205461012f549083169263dbba0f0192911690670de0b6b3a76400009088906101309062003136908a9062004fec565b90815260408051602092819003830181206001015463049cf37160e21b825291516001600160a01b0390921692631273cdc492600480840193829003018186803b1580156200318457600080fd5b505afa15801562003199573d6000803e3d6000fd5b505050506040513d601f19601f82011682018060405250810190620031bf919062004c2f565b620031cb919062004cea565b620031d7919062004d0c565b61013087604051620031ea919062004fec565b908152604051908190036020018120546001600160e01b031960e086901b168252620032279392916001600160a01b0390911690600401620050c2565b600060405180830381600087803b1580156200324257600080fd5b505af115801562003257573d6000803e3d6000fd5b505061012e54604051632770a7eb60e21b81526001600160a01b038b81166004830152602482018a90529091169250639dc29fac9150604401600060405180830381600087803b158015620032ab57600080fd5b505af1158015620032c0573d6000803e3d6000fd5b50505050600080600061013086604051620032dc919062004fec565b90815260405190819003602001812060010154632f1b130360e01b82526001600160a01b031690632f1b1303906200331c908c9060040190815260200190565b60606040518083038186803b1580156200333557600080fd5b505afa1580156200334a573d6000803e3d6000fd5b505050506040513d601f19601f8201168201806040525081019062003370919062004c49565b9250925092507fcc3f3bf4ebb079856c31b44ccbec64a58ff9c3f04a8d8a846ee9e7c2e0e4c7e18484836101308a604051620033ad919062004fec565b90815260408051602092819003830181205463313ce56760e01b825291516001600160a01b039092169263313ce56792600480840193829003018186803b158015620033f857600080fd5b505afa1580156200340d573d6000803e3d6000fd5b505050506040513d601f19601f8201168201806040525081019062003433919062004c78565b6200344090601262004d64565b6200344d90600a62004e87565b62003459878962004cea565b62003465919062004cea565b62003471919062004d0c565b85858e8c60405162000b8e979695949392919062005105565b600054610100900460ff1615808015620034ab5750600054600160ff909116105b80620034c75750303b158015620034c7575060005460ff166001145b6200352c5760405162461bcd60e51b815260206004820152602e60248201527f496e697469616c697a61626c653a20636f6e747261637420697320616c72656160448201526d191e481a5b9a5d1a585b1a5e995960921b606482015260840162000698565b6000805460ff19166001179055801562003550576000805461ff0019166101001790555b6200355a62003c8f565b6200356462003cbb565b6200356e62003c8f565b6200357b60003362003cef565b6200359660008051602062005a358339815191523362003cef565b620035b1600080516020620059ce8339815191523362003cef565b620035db600080516020620059ce83398151915260008051602062005a3583398151915262003cfb565b61012d80546001600160a01b038087166001600160a01b03199283161790925561012e805486841690831617905561012f805492851692909116919091179055801562003662576000805461ff0019169055604051600181527f7f26b83ff96e1f2b6a682f133852f6798a09c465da95921460cefb38474024989060200160405180910390a15b50505050565b6000828152606560205260409020600101546200368581620038e0565b6200066d838362003a5f565b60008051602062005a35833981519152620036ac81620038e0565b856101308484604051620036c292919062004ba9565b90815260405190819003602001812080546001600160a01b03939093166001600160a01b03199093169290921790915585906101309062003707908690869062004ba9565b908152602001604051809103902060010160006101000a8154816001600160a01b0302191690836001600160a01b031602179055508661013084846040516200375292919062004ba9565b908152604051908190036020018120600301805492151560ff19909316929092179091558490610130906200378b908690869062004ba9565b9081526040519081900360200190206002015550505050505050565b606060006101318484604051620037c092919062004ba9565b90815260408051602092819003830190206001600160a01b038a16600090815292529020600101905085620037f58262003d46565b62003801919062004d2f565b851115620038245785620038158262003d46565b62003821919062004d2f565b94505b8467ffffffffffffffff81111562003840576200384062004603565b6040519080825280602002602001820160405280156200386a578160200160208202803683370190505b50915060005b85811015620038c6576200389162003889828962004d49565b839062003d51565b838281518110620038a657620038a662005146565b602090810291909101015280620038bd816200515c565b91505062003870565b505095945050505050565b6001600160a01b03163b151590565b62000d12813362003d5f565b620038f8828262001c1e565b62000c255760008281526065602090815260408083206001600160a01b03851684529091529020805460ff19166001179055620039323390565b6001600160a01b0316816001600160a01b0316837f2f8788117e7eff1d82e926ec794901d17c78024a50270940304540a733656f0d60405160405180910390a45050565b620039b58361013184846040516200399092919062004ba9565b9081526040805160209281900383019020336000908152925290206001019062003dce565b6200066d5760405162461bcd60e51b815260206004820152601760248201527f5751526f757465723a204c6f74206e6f7420666f756e64000000000000000000604482015260640162000698565b604080516001600160a01b0385811660248301528416604482015260648082018490528251808303909101815260849091019091526020810180516001600160e01b03166323b872dd60e01b1790526200366290859062003de7565b62003a6b828262001c1e565b1562000c255760008281526065602090815260408083206001600160a01b0385168085529252808320805460ff1916905551339285917ff6391f5c32d9c69d2a47ea670b442974b53935d1edc7fd64eb21e047a839171b9190a45050565b600080516020620059ce83398151915262000c2581620038e0565b7f4910fdfa16fed3260ed0e7147f7cc6da11a60208b5b9406d12a635614ffd91435460ff161562003b1a576200066d8362003ec0565b826001600160a01b03166352d1902d6040518163ffffffff1660e01b815260040160206040518083038186803b15801562003b5457600080fd5b505afa92505050801562003b87575060408051601f3d908101601f1916820190925262003b849181019062004c2f565b60015b62003bec5760405162461bcd60e51b815260206004820152602e60248201527f45524331393637557067726164653a206e657720696d706c656d656e7461746960448201526d6f6e206973206e6f74205555505360901b606482015260840162000698565b600080516020620059ee833981519152811462003c5e5760405162461bcd60e51b815260206004820152602960248201527f45524331393637557067726164653a20756e737570706f727465642070726f786044820152681a58589b195555525160ba1b606482015260840162000698565b506200066d83838362003f5f565b600062003c7a838362003f8a565b9392505050565b600062003c7a838362003fdc565b600054610100900460ff1662003cb95760405162461bcd60e51b815260040162000698906200517a565b565b600054610100900460ff1662003ce55760405162461bcd60e51b815260040162000698906200517a565b62003cb9620040e0565b62000c258282620038ec565b600082815260656020526040808220600101805490849055905190918391839186917fbd79b86ffe0ab8e8776151514217cd7cacd52c909f66475c3af44e129f0b00ff9190a4505050565b60006200063e825490565b600062003c7a838362004111565b62003d6b828262001c1e565b62000c255762003d86816001600160a01b031660146200413e565b62003d938360206200413e565b60405160200162003da6929190620051c5565b60408051601f198184030181529082905262461bcd60e51b825262000698916004016200523e565b6000818152600183016020526040812054151562003c7a565b600062003e3e826040518060400160405280602081526020017f5361666545524332303a206c6f772d6c6576656c2063616c6c206661696c6564815250856001600160a01b0316620042f89092919063ffffffff16565b8051909150156200066d578080602001905181019062003e5f919062005253565b6200066d5760405162461bcd60e51b815260206004820152602a60248201527f5361666545524332303a204552433230206f7065726174696f6e20646964206e6044820152691bdd081cdd58d8d9595960b21b606482015260840162000698565b6001600160a01b0381163b62003f2f5760405162461bcd60e51b815260206004820152602d60248201527f455243313936373a206e657720696d706c656d656e746174696f6e206973206e60448201526c1bdd08184818dbdb9d1c9858dd609a1b606482015260840162000698565b600080516020620059ee83398151915280546001600160a01b0319166001600160a01b0392909216919091179055565b62003f6a8362004311565b60008251118062003f785750805b156200066d5762003662838362004353565b600081815260018301602052604081205462003fd3575081546001818101845560008481526020808220909301849055845484825282860190935260409020919091556200063e565b5060006200063e565b60008181526001830160205260408120548015620040d55760006200400360018362004d2f565b8554909150600090620040199060019062004d2f565b9050818114620040855760008660000182815481106200403d576200403d62005146565b906000526020600020015490508087600001848154811062004063576200406362005146565b6000918252602080832090910192909255918252600188019052604090208390555b855486908062004099576200409962005273565b6001900381819060005260206000200160009055905585600101600086815260200190815260200160002060009055600193505050506200063e565b60009150506200063e565b600054610100900460ff166200410a5760405162461bcd60e51b815260040162000698906200517a565b6001609755565b60008260000182815481106200412b576200412b62005146565b9060005260206000200154905092915050565b606060006200414f83600262004cea565b6200415c90600262004d49565b67ffffffffffffffff81111562004177576200417762004603565b6040519080825280601f01601f191660200182016040528015620041a2576020820181803683370190505b509050600360fc1b81600081518110620041c057620041c062005146565b60200101906001600160f81b031916908160001a905350600f60fb1b81600181518110620041f257620041f262005146565b60200101906001600160f81b031916908160001a90535060006200421884600262004cea565b6200422590600162004d49565b90505b6001811115620042a7576f181899199a1a9b1b9c1cb0b131b232b360811b85600f16601081106200425d576200425d62005146565b1a60f81b82828151811062004276576200427662005146565b60200101906001600160f81b031916908160001a90535060049490941c936200429f8162005289565b905062004228565b50831562003c7a5760405162461bcd60e51b815260206004820181905260248201527f537472696e67733a20686578206c656e67746820696e73756666696369656e74604482015260640162000698565b606062004309848460008562004450565b949350505050565b6200431c8162003ec0565b6040516001600160a01b038216907fbc7cd75a20ee27fd9adebab32041f755214dbc6bffa90cc0225b39da2e5c2d3b90600090a250565b60606001600160a01b0383163b620043bd5760405162461bcd60e51b815260206004820152602660248201527f416464726573733a2064656c65676174652063616c6c20746f206e6f6e2d636f6044820152651b9d1c9858dd60d21b606482015260840162000698565b600080846001600160a01b031684604051620043da919062004fec565b600060405180830381855af49150503d806000811462004417576040519150601f19603f3d011682016040523d82523d6000602084013e6200441c565b606091505b509150915062004447828260405180606001604052806027815260200162005a0e602791396200458b565b95945050505050565b606082471015620044b35760405162461bcd60e51b815260206004820152602660248201527f416464726573733a20696e73756666696369656e742062616c616e636520666f6044820152651c8818d85b1b60d21b606482015260840162000698565b6001600160a01b0385163b6200450c5760405162461bcd60e51b815260206004820152601d60248201527f416464726573733a2063616c6c20746f206e6f6e2d636f6e7472616374000000604482015260640162000698565b600080866001600160a01b031685876040516200452a919062004fec565b60006040518083038185875af1925050503d806000811462004569576040519150601f19603f3d011682016040523d82523d6000602084013e6200456e565b606091505b5091509150620045808282866200458b565b979650505050505050565b606083156200459c57508162003c7a565b825115620045ad5782518084602001fd5b8160405162461bcd60e51b81526004016200069891906200523e565b61072a80620052a483390190565b600060208284031215620045ea57600080fd5b81356001600160e01b03198116811462003c7a57600080fd5b634e487b7160e01b600052604160045260246000fd5b600067ffffffffffffffff8084111562004637576200463762004603565b604051601f8501601f19908116603f0116810190828211818310171562004662576200466262004603565b816040528093508581528686860111156200467c57600080fd5b858560208301376000602087830101525050509392505050565b600082601f830112620046a857600080fd5b62003c7a8383356020850162004619565b600060208284031215620046cc57600080fd5b813567ffffffffffffffff811115620046e457600080fd5b620043098482850162004696565b6000602082840312156200470557600080fd5b5035919050565b6001600160a01b038116811462000d1257600080fd5b600080604083850312156200473657600080fd5b8235915060208301356200474a816200470c565b809150509250929050565b60008083601f8401126200476857600080fd5b50813567ffffffffffffffff8111156200478157600080fd5b6020830191508360208285010111156200479a57600080fd5b9250929050565b600080600060408486031215620047b757600080fd5b83359250602084013567ffffffffffffffff811115620047d657600080fd5b620047e48682870162004755565b9497909650939450505050565b6000602082840312156200480457600080fd5b813562003c7a816200470c565b600080600080606085870312156200482857600080fd5b8435935060208501359250604085013567ffffffffffffffff8111156200484e57600080fd5b6200485c8782880162004755565b95989497509550505050565b600080604083850312156200487c57600080fd5b823562004889816200470c565b9150602083013567ffffffffffffffff811115620048a657600080fd5b8301601f81018513620048b857600080fd5b620048c98582356020840162004619565b9150509250929050565b600080600080600080600060e0888a031215620048ef57600080fd5b8735620048fc816200470c565b96506020880135955060408801359450606088013593506080880135925060a0880135915060c088013567ffffffffffffffff8111156200493c57600080fd5b6200494a8a828b0162004696565b91505092959891949750929550565b6000806000606084860312156200496f57600080fd5b83356200497c816200470c565b925060208401356200498e816200470c565b91506040840135620049a0816200470c565b809150509250925092565b600080600080600060a08688031215620049c457600080fd5b8535620049d1816200470c565b9450602086013593506040860135925060608601359150608086013567ffffffffffffffff81111562004a0357600080fd5b62004a118882890162004696565b9150509295509295909350565b801515811462000d1257600080fd5b60008060008060008060a0878903121562004a4757600080fd5b863562004a548162004a1e565b9550602087013562004a66816200470c565b9450604087013562004a78816200470c565b935060608701359250608087013567ffffffffffffffff81111562004a9c57600080fd5b62004aaa89828a0162004755565b979a9699509497509295939492505050565b60008060008060006080868803121562004ad557600080fd5b853562004ae2816200470c565b94506020860135935060408601359250606086013567ffffffffffffffff81111562004b0d57600080fd5b62004b1b8882890162004755565b969995985093965092949392505050565b6020808252825182820181905260009190848201906040850190845b8181101562004b665783518352928401929184019160010162004b48565b50909695505050505050565b6020808252601f908201527f5265656e7472616e637947756172643a207265656e7472616e742063616c6c00604082015260600190565b8183823760009101908152919050565b60208082526017908201527f5751526f757465723a20546f6b656e20646961626c6564000000000000000000604082015260600190565b81835281816020850137506000828201602090810191909152601f909101601f19169091010190565b6020815260006200430960208301848662004bf0565b60006020828403121562004c4257600080fd5b5051919050565b60008060006060848603121562004c5f57600080fd5b8351925060208401519150604084015190509250925092565b60006020828403121562004c8b57600080fd5b815160ff8116811462003c7a57600080fd5b60208082526018908201527f5751526f757465723a20537461747573206e6f74206e65770000000000000000604082015260600190565b634e487b7160e01b600052601160045260246000fd5b600081600019048311821515161562004d075762004d0762004cd4565b500290565b60008262004d2a57634e487b7160e01b600052601260045260246000fd5b500490565b60008282101562004d445762004d4462004cd4565b500390565b6000821982111562004d5f5762004d5f62004cd4565b500190565b600060ff821660ff84168082101562004d815762004d8162004cd4565b90039392505050565b600181815b8085111562004dcb57816000190482111562004daf5762004daf62004cd4565b8085161562004dbd57918102915b93841c939080029062004d8f565b509250929050565b60008262004de4575060016200063e565b8162004df3575060006200063e565b816001811462004e0c576002811462004e175762004e37565b60019150506200063e565b60ff84111562004e2b5762004e2b62004cd4565b50506001821b6200063e565b5060208310610133831016604e8410600b841016171562004e5c575081810a6200063e565b62004e68838362004d8a565b806000190482111562004e7f5762004e7f62004cd4565b029392505050565b600062003c7a60ff84168362004dd3565b88815287602082015286604082015285606082015284608082015260ff841660a082015260e060c0820152600062004ed560e08301848662004bf0565b9a9950505050505050505050565b6020808252602c908201527f46756e6374696f6e206d7573742062652063616c6c6564207468726f7567682060408201526b19195b1959d85d1958d85b1b60a21b606082015260800190565b6020808252602c908201527f46756e6374696f6e206d7573742062652063616c6c6564207468726f7567682060408201526b6163746976652070726f787960a01b606082015260800190565b60018060a01b03891681528760208201528660408201528560608201528460808201528360a082015260e060c0820152600062004ed560e08301848662004bf0565b60005b8381101562004fda57818101518382015260200162004fc0565b83811115620036625750506000910152565b600082516200500081846020870162004fbd565b9190910192915050565b60208082526021908201527f5751526f757465723a204f6e6c7920636f6c6c61746572616c2061756374696f6040820152603760f91b606082015260800190565b600081518084526200506581602086016020860162004fbd565b601f01601f19169290920160200192915050565b87815286602082015285604082015284606082015283608082015260ff831660a082015260e060c08201526000620050b560e08301846200504b565b9998505050505050505050565b6001600160a01b0393841681526020810192909252909116604082015260600190565b600060208284031215620050f857600080fd5b815162003c7a816200470c565b60018060a01b03881681528660208201528560408201528460608201528360808201528260a082015260e060c08201526000620050b560e08301846200504b565b634e487b7160e01b600052603260045260246000fd5b600060001982141562005173576200517362004cd4565b5060010190565b6020808252602b908201527f496e697469616c697a61626c653a20636f6e7472616374206973206e6f74206960408201526a6e697469616c697a696e6760a81b606082015260800190565b7f416363657373436f6e74726f6c3a206163636f756e7420000000000000000000815260008351620051ff81601785016020880162004fbd565b7001034b99036b4b9b9b4b733903937b6329607d1b60179184019182015283516200523281602884016020880162004fbd565b01602801949350505050565b60208152600062003c7a60208301846200504b565b6000602082840312156200526657600080fd5b815162003c7a8162004a1e565b634e487b7160e01b600052603160045260246000fd5b6000816200529b576200529b62004cd4565b50600019019056fe608060405234801561001057600080fd5b5060405161072a38038061072a83398101604081905261002f91610062565b60008054336001600160a01b031991821617909155600180549091166001600160a01b0392909216919091179055610092565b60006020828403121561007457600080fd5b81516001600160a01b038116811461008b57600080fd5b9392505050565b610689806100a16000396000f3fe608060405234801561001057600080fd5b50600436106100415760003560e01c80638da5cb5b14610046578063dbba0f0114610075578063f887ea401461008a575b600080fd5b600154610059906001600160a01b031681565b6040516001600160a01b03909116815260200160405180910390f35b610088610083366004610570565b61009d565b005b600054610059906001600160a01b031681565b6000546001600160a01b031633146101085760405162461bcd60e51b815260206004820152602360248201527f5751526f757465725661756c743a2053656e646572206973206e6f7420726f756044820152623a32b960e91b60648201526084015b60405180910390fd5b6001600160a01b038116156101305761012b6001600160a01b0382168484610193565b610143565b6101436001600160a01b038416836101ea565b604080516001600160a01b038084168252851660208201529081018390527fd1ba4ac2e2a11b5101f6cb4d978f514a155b421e8ec396d2d9abaf0bb02917ee9060600160405180910390a1505050565b604080516001600160a01b038416602482015260448082018490528251808303909101815260649091019091526020810180516001600160e01b031663a9059cbb60e01b1790526101e5908490610303565b505050565b8047101561023a5760405162461bcd60e51b815260206004820152601d60248201527f416464726573733a20696e73756666696369656e742062616c616e636500000060448201526064016100ff565b6000826001600160a01b03168260405160006040518083038185875af1925050503d8060008114610287576040519150601f19603f3d011682016040523d82523d6000602084013e61028c565b606091505b50509050806101e55760405162461bcd60e51b815260206004820152603a60248201527f416464726573733a20756e61626c6520746f2073656e642076616c75652c207260448201527f6563697069656e74206d6179206861766520726576657274656400000000000060648201526084016100ff565b6000610358826040518060400160405280602081526020017f5361666545524332303a206c6f772d6c6576656c2063616c6c206661696c6564815250856001600160a01b03166103d59092919063ffffffff16565b8051909150156101e5578080602001905181019061037691906105b2565b6101e55760405162461bcd60e51b815260206004820152602a60248201527f5361666545524332303a204552433230206f7065726174696f6e20646964206e6044820152691bdd081cdd58d8d9595960b21b60648201526084016100ff565b60606103e484846000856103ee565b90505b9392505050565b60608247101561044f5760405162461bcd60e51b815260206004820152602660248201527f416464726573733a20696e73756666696369656e742062616c616e636520666f6044820152651c8818d85b1b60d21b60648201526084016100ff565b6001600160a01b0385163b6104a65760405162461bcd60e51b815260206004820152601d60248201527f416464726573733a2063616c6c20746f206e6f6e2d636f6e747261637400000060448201526064016100ff565b600080866001600160a01b031685876040516104c29190610604565b60006040518083038185875af1925050503d80600081146104ff576040519150601f19603f3d011682016040523d82523d6000602084013e610504565b606091505b509150915061051482828661051f565b979650505050505050565b6060831561052e5750816103e7565b82511561053e5782518084602001fd5b8160405162461bcd60e51b81526004016100ff9190610620565b6001600160a01b038116811461056d57600080fd5b50565b60008060006060848603121561058557600080fd5b833561059081610558565b92506020840135915060408401356105a781610558565b809150509250925092565b6000602082840312156105c457600080fd5b815180151581146103e757600080fd5b60005b838110156105ef5781810151838201526020016105d7565b838111156105fe576000848401525b50505050565b600082516106168184602087016105d4565b9190910192915050565b602081526000825180602084015261063f8160408501602087016105d4565b601f01601f1916919091016040019291505056fea26469706673582212207128a3515914db025adb6638348f6a379f2d840d5db223adda0154a6d60be71c64736f6c63430008090033189ab7a9244df0848122154315af71fe140f3db0fe014031783b0946b8c9d2e3360894a13ba1a3210667c828492db98dca3e2076cc3735a920a3ca505d382bbc416464726573733a206c6f772d6c6576656c2064656c65676174652063616c6c206661696c6564a49807205ce4d355092ef5a8a18f56e8913cf4a201fbe287825b095693c2177528c0c2d50af0ab1c60ab623f2400a88f889940fe9a0f24f3ae0fe8e2ea9d5ca3a26469706673582212203623b6f91a433c568b4f7bb02437d92b996f3021fad3d165b3a446658c94622864736f6c63430008090033",
  "linkReferences": {},
  "deployedLinkReferences": {}
}