{
  "_format": "hh-sol-artifact-1",
  "contractName": "WQRouter",
  "sourceName": "contracts/stablecoin/WQRouter.sol",
  "abi": [
    {
      "inputs": [],
      "stateMutability": "nonpayable",
      "type": "constructor"
    },
    {
      "anonymous": false,
      "inputs": [
        {
          "indexed": false,
          "internalType": "address",
          "name": "previousAdmin",
          "type": "address"
        },
        {
          "indexed": false,
          "internalType": "address",
          "name": "newAdmin",
          "type": "address"
        }
      ],
      "name": "AdminChanged",
      "type": "event"
    },
    {
      "anonymous": false,
      "inputs": [
        {
          "indexed": true,
          "internalType": "address",
          "name": "beacon",
          "type": "address"
        }
      ],
      "name": "BeaconUpgraded",
      "type": "event"
    },
    {
      "anonymous": false,
      "inputs": [
        {
          "indexed": false,
          "internalType": "uint256",
          "name": "collateral",
          "type": "uint256"
        },
        {
          "indexed": false,
          "internalType": "uint256",
          "name": "debt",
          "type": "uint256"
        },
        {
          "indexed": false,
          "internalType": "uint256",
          "name": "price",
          "type": "uint256"
        },
        {
          "indexed": false,
          "internalType": "uint256",
          "name": "index",
          "type": "uint256"
        },
        {
          "indexed": false,
          "internalType": "uint256",
          "name": "newIndex",
          "type": "uint256"
        },
        {
          "indexed": false,
          "internalType": "uint8",
          "name": "status",
          "type": "uint8"
        },
        {
          "indexed": false,
          "internalType": "string",
          "name": "symbol",
          "type": "string"
        }
      ],
      "name": "Moved",
      "type": "event"
    },
    {
      "anonymous": false,
      "inputs": [
        {
          "indexed": false,
          "internalType": "address",
          "name": "user",
          "type": "address"
        },
        {
          "indexed": false,
          "internalType": "uint256",
          "name": "collateral",
          "type": "uint256"
        },
        {
          "indexed": false,
          "internalType": "uint256",
          "name": "ratio",
          "type": "uint256"
        },
        {
          "indexed": false,
          "internalType": "uint256",
          "name": "debt",
          "type": "uint256"
        },
        {
          "indexed": false,
          "internalType": "uint256",
          "name": "price",
          "type": "uint256"
        },
        {
          "indexed": false,
          "internalType": "uint256",
          "name": "index",
          "type": "uint256"
        },
        {
          "indexed": false,
          "internalType": "string",
          "name": "symbol",
          "type": "string"
        }
      ],
      "name": "Produced",
      "type": "event"
    },
    {
      "anonymous": false,
      "inputs": [
        {
          "indexed": false,
          "internalType": "uint256",
          "name": "amount",
          "type": "uint256"
        }
      ],
      "name": "Received",
      "type": "event"
    },
    {
      "anonymous": false,
      "inputs": [
        {
          "indexed": false,
          "internalType": "address",
          "name": "user",
          "type": "address"
        },
        {
          "indexed": false,
          "internalType": "uint256",
          "name": "collateral",
          "type": "uint256"
        },
        {
          "indexed": false,
          "internalType": "uint256",
          "name": "debt",
          "type": "uint256"
        },
        {
          "indexed": false,
          "internalType": "uint256",
          "name": "price",
          "type": "uint256"
        },
        {
          "indexed": false,
          "internalType": "uint256",
          "name": "ratio",
          "type": "uint256"
        },
        {
          "indexed": false,
          "internalType": "uint256",
          "name": "index",
          "type": "uint256"
        },
        {
          "indexed": false,
          "internalType": "string",
          "name": "symbol",
          "type": "string"
        }
      ],
      "name": "Removed",
      "type": "event"
    },
    {
      "anonymous": false,
      "inputs": [
        {
          "indexed": true,
          "internalType": "bytes32",
          "name": "role",
          "type": "bytes32"
        },
        {
          "indexed": true,
          "internalType": "bytes32",
          "name": "previousAdminRole",
          "type": "bytes32"
        },
        {
          "indexed": true,
          "internalType": "bytes32",
          "name": "newAdminRole",
          "type": "bytes32"
        }
      ],
      "name": "RoleAdminChanged",
      "type": "event"
    },
    {
      "anonymous": false,
      "inputs": [
        {
          "indexed": true,
          "internalType": "bytes32",
          "name": "role",
          "type": "bytes32"
        },
        {
          "indexed": true,
          "internalType": "address",
          "name": "account",
          "type": "address"
        },
        {
          "indexed": true,
          "internalType": "address",
          "name": "sender",
          "type": "address"
        }
      ],
      "name": "RoleGranted",
      "type": "event"
    },
    {
      "anonymous": false,
      "inputs": [
        {
          "indexed": true,
          "internalType": "bytes32",
          "name": "role",
          "type": "bytes32"
        },
        {
          "indexed": true,
          "internalType": "address",
          "name": "account",
          "type": "address"
        },
        {
          "indexed": true,
          "internalType": "address",
          "name": "sender",
          "type": "address"
        }
      ],
      "name": "RoleRevoked",
      "type": "event"
    },
    {
      "anonymous": false,
      "inputs": [
        {
          "indexed": true,
          "internalType": "address",
          "name": "implementation",
          "type": "address"
        }
      ],
      "name": "Upgraded",
      "type": "event"
    },
    {
      "inputs": [],
      "name": "ADMIN_ROLE",
      "outputs": [
        {
          "internalType": "bytes32",
          "name": "",
          "type": "bytes32"
        }
      ],
      "stateMutability": "view",
      "type": "function"
    },
    {
      "inputs": [],
      "name": "DEFAULT_ADMIN_ROLE",
      "outputs": [
        {
          "internalType": "bytes32",
          "name": "",
          "type": "bytes32"
        }
      ],
      "stateMutability": "view",
      "type": "function"
    },
    {
      "inputs": [],
      "name": "UPGRADER_ROLE",
      "outputs": [
        {
          "internalType": "bytes32",
          "name": "",
          "type": "bytes32"
        }
      ],
      "stateMutability": "view",
      "type": "function"
    },
    {
      "inputs": [
        {
          "internalType": "uint256",
          "name": "index",
          "type": "uint256"
        },
        {
          "internalType": "string",
          "name": "symbol",
          "type": "string"
        }
      ],
      "name": "addCollateral",
      "outputs": [],
      "stateMutability": "nonpayable",
      "type": "function"
    },
    {
      "inputs": [
        {
          "internalType": "address",
          "name": "buyer",
          "type": "address"
        },
        {
          "internalType": "uint256",
          "name": "index",
          "type": "uint256"
        },
        {
          "internalType": "uint256",
          "name": "debtAmount",
          "type": "uint256"
        },
        {
          "internalType": "uint256",
          "name": "collateralAmount",
          "type": "uint256"
        },
        {
          "internalType": "string",
          "name": "symbol",
          "type": "string"
        }
      ],
      "name": "buyCollateral",
      "outputs": [],
      "stateMutability": "nonpayable",
      "type": "function"
    },
    {
      "inputs": [
        {
          "internalType": "uint256",
          "name": "index",
          "type": "uint256"
        },
        {
          "internalType": "string",
          "name": "symbol",
          "type": "string"
        }
      ],
      "name": "claimExtraDebt",
      "outputs": [],
      "stateMutability": "nonpayable",
      "type": "function"
    },
    {
      "inputs": [
        {
          "internalType": "uint256",
          "name": "index",
          "type": "uint256"
        },
        {
          "internalType": "string",
          "name": "symbol",
          "type": "string"
        }
      ],
      "name": "disposeDebt",
      "outputs": [],
      "stateMutability": "nonpayable",
      "type": "function"
    },
    {
      "inputs": [],
      "name": "getParams",
      "outputs": [
        {
          "internalType": "contract WQPriceOracleInterface",
          "name": "",
          "type": "address"
        },
        {
          "internalType": "contract WQBridgeTokenInterface",
          "name": "",
          "type": "address"
        },
        {
          "internalType": "address payable",
          "name": "",
          "type": "address"
        }
      ],
      "stateMutability": "view",
      "type": "function"
    },
    {
      "inputs": [
        {
          "internalType": "bytes32",
          "name": "role",
          "type": "bytes32"
        }
      ],
      "name": "getRoleAdmin",
      "outputs": [
        {
          "internalType": "bytes32",
          "name": "",
          "type": "bytes32"
        }
      ],
      "stateMutability": "view",
      "type": "function"
    },
    {
      "inputs": [
        {
          "internalType": "address",
          "name": "user",
          "type": "address"
        },
        {
          "internalType": "uint256",
          "name": "offset",
          "type": "uint256"
        },
        {
          "internalType": "uint256",
          "name": "limit",
          "type": "uint256"
        },
        {
          "internalType": "string",
          "name": "symbol",
          "type": "string"
        }
      ],
      "name": "getUserLots",
      "outputs": [
        {
          "internalType": "uint256[]",
          "name": "page",
          "type": "uint256[]"
        }
      ],
      "stateMutability": "view",
      "type": "function"
    },
    {
      "inputs": [
        {
          "internalType": "bytes32",
          "name": "role",
          "type": "bytes32"
        },
        {
          "internalType": "address",
          "name": "account",
          "type": "address"
        }
      ],
      "name": "grantRole",
      "outputs": [],
      "stateMutability": "nonpayable",
      "type": "function"
    },
    {
      "inputs": [
        {
          "internalType": "bytes32",
          "name": "role",
          "type": "bytes32"
        },
        {
          "internalType": "address",
          "name": "account",
          "type": "address"
        }
      ],
      "name": "hasRole",
      "outputs": [
        {
          "internalType": "bool",
          "name": "",
          "type": "bool"
        }
      ],
      "stateMutability": "view",
      "type": "function"
    },
    {
      "inputs": [
        {
          "internalType": "address",
          "name": "_oracle",
          "type": "address"
        },
        {
          "internalType": "address",
          "name": "_wusd",
          "type": "address"
        },
        {
          "internalType": "address payable",
          "name": "_feeReceiver",
          "type": "address"
        }
      ],
      "name": "initialize",
      "outputs": [],
      "stateMutability": "nonpayable",
      "type": "function"
    },
    {
      "inputs": [
        {
          "internalType": "address",
          "name": "user",
          "type": "address"
        },
        {
          "internalType": "uint256",
          "name": "collateral",
          "type": "uint256"
        },
        {
          "internalType": "uint256",
          "name": "price",
          "type": "uint256"
        },
        {
          "internalType": "uint256",
          "name": "collateralRatio",
          "type": "uint256"
        },
        {
          "internalType": "uint256",
          "name": "index",
          "type": "uint256"
        },
        {
          "internalType": "uint256",
          "name": "newIndex",
          "type": "uint256"
        },
        {
          "internalType": "string",
          "name": "symbol",
          "type": "string"
        }
      ],
      "name": "moveUserLot",
      "outputs": [],
      "stateMutability": "nonpayable",
      "type": "function"
    },
    {
      "inputs": [
        {
          "internalType": "uint256",
          "name": "collateralAmount",
          "type": "uint256"
        },
        {
          "internalType": "uint256",
          "name": "collateralRatio",
          "type": "uint256"
        },
        {
          "internalType": "string",
          "name": "symbol",
          "type": "string"
        }
      ],
      "name": "produceWUSD",
      "outputs": [],
      "stateMutability": "nonpayable",
      "type": "function"
    },
    {
      "inputs": [],
      "name": "proxiableUUID",
      "outputs": [
        {
          "internalType": "bytes32",
          "name": "",
          "type": "bytes32"
        }
      ],
      "stateMutability": "view",
      "type": "function"
    },
    {
      "inputs": [
        {
          "internalType": "uint256",
          "name": "index",
          "type": "uint256"
        },
        {
          "internalType": "uint256",
          "name": "debtPart",
          "type": "uint256"
        },
        {
          "internalType": "string",
          "name": "symbol",
          "type": "string"
        }
      ],
      "name": "removeCollateral",
      "outputs": [],
      "stateMutability": "nonpayable",
      "type": "function"
    },
    {
      "inputs": [
        {
          "internalType": "bytes32",
          "name": "role",
          "type": "bytes32"
        },
        {
          "internalType": "address",
          "name": "account",
          "type": "address"
        }
      ],
      "name": "renounceRole",
      "outputs": [],
      "stateMutability": "nonpayable",
      "type": "function"
    },
    {
      "inputs": [
        {
          "internalType": "bytes32",
          "name": "role",
          "type": "bytes32"
        },
        {
          "internalType": "address",
          "name": "account",
          "type": "address"
        }
      ],
      "name": "revokeRole",
      "outputs": [],
      "stateMutability": "nonpayable",
      "type": "function"
    },
    {
      "inputs": [
        {
          "internalType": "address",
          "name": "_oracle",
          "type": "address"
        },
        {
          "internalType": "address",
          "name": "_wusd",
          "type": "address"
        },
        {
          "internalType": "address payable",
          "name": "_feeReeiver",
          "type": "address"
        }
      ],
      "name": "setContracts",
      "outputs": [],
      "stateMutability": "nonpayable",
      "type": "function"
    },
    {
      "inputs": [
        {
          "internalType": "bool",
          "name": "enabled",
          "type": "bool"
        },
        {
          "internalType": "address",
          "name": "token",
          "type": "address"
        },
        {
          "internalType": "address",
          "name": "auction",
          "type": "address"
        },
        {
          "internalType": "uint256",
          "name": "minRatio",
          "type": "uint256"
        },
        {
          "internalType": "string",
          "name": "symbol",
          "type": "string"
        }
      ],
      "name": "setToken",
      "outputs": [],
      "stateMutability": "nonpayable",
      "type": "function"
    },
    {
      "inputs": [
        {
          "internalType": "bytes4",
          "name": "interfaceId",
          "type": "bytes4"
        }
      ],
      "name": "supportsInterface",
      "outputs": [
        {
          "internalType": "bool",
          "name": "",
          "type": "bool"
        }
      ],
      "stateMutability": "view",
      "type": "function"
    },
    {
      "inputs": [
        {
          "internalType": "string",
          "name": "",
          "type": "string"
        }
      ],
      "name": "tokens",
      "outputs": [
        {
          "internalType": "address",
          "name": "token",
          "type": "address"
        },
        {
          "internalType": "contract WQCollateralAuction",
          "name": "collateralAuction",
          "type": "address"
        },
        {
          "internalType": "uint256",
          "name": "minRatio",
          "type": "uint256"
        },
        {
          "internalType": "bool",
          "name": "enabled",
          "type": "bool"
        }
      ],
      "stateMutability": "view",
      "type": "function"
    },
    {
      "inputs": [
        {
          "internalType": "address",
          "name": "newImplementation",
          "type": "address"
        }
      ],
      "name": "upgradeTo",
      "outputs": [],
      "stateMutability": "nonpayable",
      "type": "function"
    },
    {
      "inputs": [
        {
          "internalType": "address",
          "name": "newImplementation",
          "type": "address"
        },
        {
          "internalType": "bytes",
          "name": "data",
          "type": "bytes"
        }
      ],
      "name": "upgradeToAndCall",
      "outputs": [],
      "stateMutability": "payable",
      "type": "function"
    },
    {
      "stateMutability": "payable",
      "type": "receive"
    }
  ],
  "bytecode": "0x60a0604052306080523480156200001557600080fd5b50600054610100900460ff16620000335760005460ff16156200003d565b6200003d620000e2565b620000a55760405162461bcd60e51b815260206004820152602e60248201527f496e697469616c697a61626c653a20636f6e747261637420697320616c72656160448201526d191e481a5b9a5d1a585b1a5e995960921b606482015260840160405180910390fd5b600054610100900460ff16158015620000c8576000805461ffff19166101011790555b8015620000db576000805461ff00191690555b506200010f565b6000620000fa306200010060201b6200393f1760201c565b15905090565b6001600160a01b03163b151590565b608051615b0d62000147600039600081816116fa0152818161173d01528181611dc701528181611e0a0152611ea20152615b0d6000f3fe608060405260043610620001885760003560e01c80635e615a6b11620000e2578063b3066d491162000095578063d547741f116200006c578063d547741f1462000569578063e19af821146200058e578063e1cc246a14620005b3578063f72c0d8b14620005e757600080fd5b8063b3066d4914620004fa578063bb537b50146200051f578063c0c53b8b146200054457600080fd5b80635e615a6b146200040a57806375b238fc146200044f5780637d2bda96146200047457806391d14854146200049957806397bcbf4014620004be578063a217fddf14620004e357600080fd5b806336568abe116200013b57806336568abe14620003475780633659cfe6146200036c5780634493edd714620003915780634f1ef28614620003b657806352d1902d14620003cd57806359880b9514620003e557600080fd5b806301ffc9a714620001c857806304c2320b1462000202578063198a0ac01462000293578063248a9ca314620002ba5780632f2ff15d14620002fd57806331318511146200032257600080fd5b36620001c3576040513481527fa8142743f8f70a4c26f3691cf4ed59718381fb2f18070ec52be1f1022d8555579060200160405180910390a1005b600080fd5b348015620001d557600080fd5b50620001ed620001e73660046200463a565b6200060c565b60405190151581526020015b60405180910390f35b3480156200020f57600080fd5b5062000265620002213660046200471c565b8051808201602090810180516101308252928201919093012091528054600182015460028301546003909301546001600160a01b0392831693919092169160ff1684565b604080516001600160a01b0395861681529490931660208501529183015215156060820152608001620001f9565b348015620002a057600080fd5b50620002b8620002b2366004620047a1565b62000644565b005b348015620002c757600080fd5b50620002ee620002d9366004620047f8565b60009081526065602052604090206001015490565b604051908152602001620001f9565b3480156200030a57600080fd5b50620002b86200031c36600462004828565b6200112b565b3480156200032f57600080fd5b50620002b8620003413660046200485b565b6200115a565b3480156200035457600080fd5b50620002b86200036636600462004828565b6200166d565b3480156200037957600080fd5b50620002b86200038b366004620048ab565b620016ef565b3480156200039e57600080fd5b50620002b8620003b0366004620047a1565b620017db565b620002b8620003c7366004620048cb565b62001dbc565b348015620003da57600080fd5b50620002ee62001e95565b348015620003f257600080fd5b50620002b86200040436600462004936565b62001f4b565b3480156200041757600080fd5b5061012d5461012e5461012f54604080516001600160a01b0394851681529284166020840152921691810191909152606001620001f9565b3480156200045c57600080fd5b50620002ee60008051602062005a9883398151915281565b3480156200048157600080fd5b50620002b8620004933660046200485b565b62002142565b348015620004a657600080fd5b50620001ed620004b836600462004828565b620026e4565b348015620004cb57600080fd5b50620002b8620004dd3660046200485b565b6200270f565b348015620004f057600080fd5b50620002ee600081565b3480156200050757600080fd5b50620002b862000519366004620049bc565b62002cb2565b3480156200052c57600080fd5b50620002b86200053e36600462004a0e565b62002d11565b3480156200055157600080fd5b50620002b862000563366004620049bc565b62003547565b3480156200057657600080fd5b50620002b86200058836600462004828565b620036d4565b3480156200059b57600080fd5b50620002b8620005ad36600462004a90565b620036fe565b348015620005c057600080fd5b50620005d8620005d236600462004b1f565b62003815565b604051620001f9919062004b8f565b348015620005f457600080fd5b50620002ee60008051602062005a3183398151915281565b60006001600160e01b03198216637965db0b60e01b14806200063e57506301ffc9a760e01b6001600160e01b03198316145b92915050565b60026097541415620006735760405162461bcd60e51b81526004016200066a9062004bd5565b60405180910390fd5b6002609781905550818161013082826040516200069292919062004c0c565b9081526040519081900360200190206003015460ff16620006c75760405162461bcd60e51b81526004016200066a9062004c1c565b620006d48685856200394e565b6000806000806101308888604051620006ef92919062004c0c565b90815260408051602092819003830181205463313ce56760e01b825291516001600160a01b039092169263313ce56792600480840193829003018186803b1580156200073a57600080fd5b505afa1580156200074f573d6000803e3d6000fd5b505050506040513d601f19601f8201168201806040525081019062000775919062004c53565b6200078290601262004c8e565b6200078f90600a62004db1565b90506101308888604051620007a692919062004c0c565b90815260405190819003602001812060010154632f1b130360e01b82526001600160a01b031690632f1b130390620007e6908d9060040190815260200190565b60606040518083038186803b158015620007ff57600080fd5b505afa15801562000814573d6000803e3d6000fd5b505050506040513d601f19601f820116820180604052508101906200083a919062004dc2565b604051919650919450909250600190610130906200085c908b908b9062004c0c565b90815260405190819003602001812060010154634cbf3e1b60e11b82526001600160a01b03169063997e7c36906200089c908e9060040190815260200190565b60206040518083038186803b158015620008b557600080fd5b505afa158015620008ca573d6000803e3d6000fd5b505050506040513d601f19601f82011682018060405250810190620008f0919062004c53565b60ff1614620009135760405162461bcd60e51b81526004016200066a9062004df1565b818162000921868662004e28565b6200092d919062004e28565b62000939919062004e4a565b891115620009a75760405162461bcd60e51b815260206004820152603460248201527f5751526f757465723a2052656d6f7665642064656274207061727420697320676044820152731c99585d195c881d1a185b88185b1b081919589d60621b60648201526084016200066a565b60008185620009b7858d62004e28565b620009c3919062004e4a565b620009cf919062004e4a565b905060006101318a8a604051620009e892919062004c0c565b90815260408051918290036020908101832033600090815291522091506101309062000a18908c908c9062004c0c565b9081526040519081900360200181206001015463d0896c5560e01b82526001600160a01b03169063d0896c559062000a5f908f908690600401918252602082015260400190565b602060405180830381600087803b15801562000a7a57600080fd5b505af115801562000a8f573d6000803e3d6000fd5b505050506040513d601f19601f8201168201806040525081019062000ab5919062004e6d565b62000afb5762000af98c6101318c8c60405162000ad492919062004c0c565b90815260408051602092819003830190203360009081529252902060010190620039db565b505b62000b07828662004e87565b94508060000160009054906101000a90046001600160a01b03166001600160a01b031663dbba0f0133670de0b6b3a76400006101308e8e60405162000b4e92919062004c0c565b90815260408051602092819003830181206001015463049cf37160e21b825291516001600160a01b0390921692631273cdc492600480840193829003018186803b15801562000b9c57600080fd5b505afa15801562000bb1573d6000803e3d6000fd5b505050506040513d601f19601f8201168201806040525081019062000bd7919062004e6d565b6101308f8f60405162000bec92919062004c0c565b90815260408051602092819003830181206001015463b188a84960e01b825291516001600160a01b039092169263b188a84992600480840193829003018186803b15801562000c3a57600080fd5b505afa15801562000c4f573d6000803e3d6000fd5b505050506040513d601f19601f8201168201806040525081019062000c75919062004e6d565b62000c81919062004ea1565b62000c8d908762004e28565b62000c99919062004e4a565b62000ca5908662004e87565b6101308e8e60405162000cba92919062004c0c565b908152604051908190036020018120546001600160e01b031960e086901b16825262000cf79392916001600160a01b039091169060040162004ebc565b600060405180830381600087803b15801562000d1257600080fd5b505af115801562000d27573d6000803e3d6000fd5b505082546040516001600160a01b03909116925063dbba0f0191506101309062000d55908e908e9062004c0c565b908152602001604051809103902060010160009054906101000a90046001600160a01b0316670de0b6b3a7640000856101308f8f60405162000d9992919062004c0c565b90815260408051602092819003830181206001015463b188a84960e01b825291516001600160a01b039092169263b188a84992600480840193829003018186803b15801562000de757600080fd5b505afa15801562000dfc573d6000803e3d6000fd5b505050506040513d601f19601f8201168201806040525081019062000e22919062004e6d565b62000e2e919062004e28565b62000e3a919062004e4a565b6101308e8e60405162000e4f92919062004c0c565b908152604051908190036020018120546001600160e01b031960e086901b16825262000e8c9392916001600160a01b039091169060040162004ebc565b600060405180830381600087803b15801562000ea757600080fd5b505af115801562000ebc573d6000803e3d6000fd5b505050508060000160009054906101000a90046001600160a01b03166001600160a01b031663dbba0f0161012f60009054906101000a90046001600160a01b0316670de0b6b3a7640000856101308f8f60405162000f1c92919062004c0c565b90815260408051602092819003830181206001015463049cf37160e21b825291516001600160a01b0390921692631273cdc492600480840193829003018186803b15801562000f6a57600080fd5b505afa15801562000f7f573d6000803e3d6000fd5b505050506040513d601f19601f8201168201806040525081019062000fa5919062004e6d565b62000fb1919062004e28565b62000fbd919062004e4a565b6101308e8e60405162000fd292919062004c0c565b908152604051908190036020018120546001600160e01b031960e086901b1682526200100f9392916001600160a01b039091169060040162004ebc565b600060405180830381600087803b1580156200102a57600080fd5b505af11580156200103f573d6000803e3d6000fd5b505061012e54604051632770a7eb60e21b8152336004820152602481018f90526001600160a01b039091169250639dc29fac9150604401600060405180830381600087803b1580156200109157600080fd5b505af1158015620010a6573d6000803e3d6000fd5b5050505050507fcc3f3bf4ebb079856c31b44ccbec64a58ff9c3f04a8d8a846ee9e7c2e0e4c7e1338484848888620010df919062004e28565b620010eb919062004e28565b620010f7919062004e4a565b87868f8e8e6040516200111298979695949392919062004f08565b60405180910390a1505060016097555050505050505050565b600082815260656020526040902060010154620011498133620039f0565b62001155838362003a5f565b505050565b60026097541415620011805760405162461bcd60e51b81526004016200066a9062004bd5565b6002609781905550818161013082826040516200119f92919062004c0c565b9081526040519081900360200190206003015460ff16620011d45760405162461bcd60e51b81526004016200066a9062004c1c565b620011e18585856200394e565b61012d54604051630292e0fd60e01b81526000916001600160a01b031690630292e0fd9062001217908890889060040162004f58565b60206040518083038186803b1580156200123057600080fd5b505afa15801562001245573d6000803e3d6000fd5b505050506040513d601f19601f820116820180604052508101906200126b919062004e6d565b9050600080600061013088886040516200128792919062004c0c565b90815260405190819003602001812060010154632f1b130360e01b82526001600160a01b031690632f1b130390620012c7908c9060040190815260200190565b60606040518083038186803b158015620012e057600080fd5b505afa158015620012f5573d6000803e3d6000fd5b505050506040513d601f19601f820116820180604052508101906200131b919062004dc2565b925092509250600160ff1661013089896040516200133b92919062004c0c565b90815260405190819003602001812060010154634cbf3e1b60e11b82526001600160a01b03169063997e7c36906200137b908d9060040190815260200190565b60206040518083038186803b1580156200139457600080fd5b505afa158015620013a9573d6000803e3d6000fd5b505050506040513d601f19601f82011682018060405250810190620013cf919062004c53565b60ff1614620013f25760405162461bcd60e51b81526004016200066a9062004df1565b6000838562001402828662004e28565b6200140e919062004e4a565b6200141a919062004e87565b905061013089896040516200143192919062004c0c565b908152604051908190036020019020600101546001600160a01b031663b70a07ea8b8762001460858962004ea1565b6040516001600160e01b031960e086901b168152600481019390935260248301919091526044820152606401602060405180830381600087803b158015620014a757600080fd5b505af1158015620014bc573d6000803e3d6000fd5b505050506040513d601f19601f82011682018060405250810190620014e2919062004e6d565b506200155a336101318b8b604051620014fd92919062004c0c565b908152604080519182900360209081018320336000908152915220546001600160a01b03169084906101309062001538908f908f9062004c0c565b908152604051908190036020019020546001600160a01b031692919062003ae9565b60008051602062005ab883398151915262001576828662004ea1565b836101308c8c6040516200158c92919062004c0c565b90815260408051602092819003830181205463313ce56760e01b825291516001600160a01b039092169263313ce56792600480840193829003018186803b158015620015d757600080fd5b505afa158015620015ec573d6000803e3d6000fd5b505050506040513d601f19601f8201168201806040525081019062001612919062004c53565b6200161f90601262004c8e565b6200162c90600a62004db1565b62001638888862004e28565b62001644919062004e28565b62001650919062004e4a565b878d8e60028f8f6040516200111298979695949392919062004f6e565b6001600160a01b0381163314620016df5760405162461bcd60e51b815260206004820152602f60248201527f416363657373436f6e74726f6c3a2063616e206f6e6c792072656e6f756e636560448201526e103937b632b9903337b91039b2b63360891b60648201526084016200066a565b620016eb828262003b45565b5050565b306001600160a01b037f00000000000000000000000000000000000000000000000000000000000000001614156200173b5760405162461bcd60e51b81526004016200066a9062004fab565b7f00000000000000000000000000000000000000000000000000000000000000006001600160a01b03166200178660008051602062005a51833981519152546001600160a01b031690565b6001600160a01b031614620017af5760405162461bcd60e51b81526004016200066a9062004ff7565b620017ba8162003baf565b60408051600080825260208201909252620017d89183919062003bcb565b50565b60026097541415620018015760405162461bcd60e51b81526004016200066a9062004bd5565b6002609781905550818161013082826040516200182092919062004c0c565b9081526040519081900360200190206003015460ff16620018555760405162461bcd60e51b81526004016200066a9062004c1c565b61013084846040516200186a92919062004c0c565b908152602001604051809103902060020154851015801562001914575061012d54604051630ac1066b60e11b81526001600160a01b03909116906315820cd690620018bc908790879060040162004f58565b60206040518083038186803b158015620018d557600080fd5b505afa158015620018ea573d6000803e3d6000fd5b505050506040513d601f19601f8201168201806040525081019062001910919062004e6d565b8511155b6200196d5760405162461bcd60e51b815260206004820152602260248201527f5751526f757465723a20496e76616c696420636f6c6c61746572616c20726174604482015261696f60f01b60648201526084016200066a565b61012d54604051630292e0fd60e01b81526000916001600160a01b031690630292e0fd90620019a3908890889060040162004f58565b60206040518083038186803b158015620019bc57600080fd5b505afa158015620019d1573d6000803e3d6000fd5b505050506040513d601f19601f82011682018060405250810190620019f7919062004e6d565b905060006001600160a01b0316610131868660405162001a1992919062004c0c565b908152604080516020928190038301902033600090815292529020546001600160a01b0316141562001ad1573360405162001a54906200462c565b6001600160a01b039091168152602001604051809103906000f08015801562001a81573d6000803e3d6000fd5b50610131868660405162001a9792919062004c0c565b90815260408051602092819003830190203360009081529252902080546001600160a01b0319166001600160a01b03929092169190911790555b600086610130878760405162001ae992919062004c0c565b90815260408051602092819003830181205463313ce56760e01b825291516001600160a01b039092169263313ce56792600480840193829003018186803b15801562001b3457600080fd5b505afa15801562001b49573d6000803e3d6000fd5b505050506040513d601f19601f8201168201806040525081019062001b6f919062004c53565b62001b7c90601262004c8e565b62001b8990600a62004db1565b62001b95848b62004e28565b62001ba1919062004e28565b62001bad919062004e4a565b90506000610130878760405162001bc692919062004c0c565b9081526040519081900360200181206001015463cc6b3be360e01b825233600483015260248201859052604482018b9052606482018a90526001600160a01b03169063cc6b3be390608401602060405180830381600087803b15801562001c2c57600080fd5b505af115801562001c41573d6000803e3d6000fd5b505050506040513d601f19601f8201168201806040525081019062001c67919062004e6d565b905062001ca881610131898960405162001c8392919062004c0c565b9081526040805160209281900383019020336000908152925290206001019062003d53565b5062001cfe33610131898960405162001cc392919062004c0c565b908152604080519182900360209081018320336000908152915220546001600160a01b0316908c906101309062001538908d908d9062004c0c565b61012e546040516340c10f1960e01b8152336004820152602481018490526001600160a01b03909116906340c10f1990604401600060405180830381600087803b15801562001d4c57600080fd5b505af115801562001d61573d6000803e3d6000fd5b505050507f0cd37c976baaad20e50f369a7000baf6b6c37b632190cba4a51372e76c9476ad338a8a8587868d8d60405162001da498979695949392919062004f08565b60405180910390a15050600160975550505050505050565b306001600160a01b037f000000000000000000000000000000000000000000000000000000000000000016141562001e085760405162461bcd60e51b81526004016200066a9062004fab565b7f00000000000000000000000000000000000000000000000000000000000000006001600160a01b031662001e5360008051602062005a51833981519152546001600160a01b031690565b6001600160a01b03161462001e7c5760405162461bcd60e51b81526004016200066a9062004ff7565b62001e878262003baf565b620016eb8282600162003bcb565b6000306001600160a01b037f0000000000000000000000000000000000000000000000000000000000000000161462001f375760405162461bcd60e51b815260206004820152603860248201527f555550535570677261646561626c653a206d757374206e6f742062652063616c60448201527f6c6564207468726f7567682064656c656761746563616c6c000000000000000060648201526084016200066a565b5060008051602062005a5183398151915290565b806101308160405162001f5f919062005072565b90815260405190819003602001902060010154336001600160a01b039091161462001f9e5760405162461bcd60e51b81526004016200066a9062005090565b62001fe4846101318460405162001fb6919062005072565b90815260408051602092819003830190206001600160a01b038d1660009081529252902060010190620039db565b506200202b836101318460405162001ffd919062005072565b90815260408051602092819003830190206001600160a01b038d166000908152925290206001019062003d53565b5060008051602062005ab883398151915287866101308560405162002051919062005072565b90815260408051602092819003830181205463313ce56760e01b825291516001600160a01b039092169263313ce56792600480840193829003018186803b1580156200209c57600080fd5b505afa158015620020b1573d6000803e3d6000fd5b505050506040513d601f19601f82011682018060405250810190620020d7919062004c53565b620020e490601262004c8e565b620020f190600a62004db1565b620020fd8a8c62004e28565b62002109919062004e28565b62002115919062004e4a565b888787600388604051620021309796959493929190620050ff565b60405180910390a15050505050505050565b60026097541415620021685760405162461bcd60e51b81526004016200066a9062004bd5565b6002609781905550818161013082826040516200218792919062004c0c565b9081526040519081900360200190206003015460ff16620021bc5760405162461bcd60e51b81526004016200066a9062004c1c565b620021c98585856200394e565b61012d54604051630292e0fd60e01b81526000916001600160a01b031690630292e0fd90620021ff908890889060040162004f58565b60206040518083038186803b1580156200221857600080fd5b505afa1580156200222d573d6000803e3d6000fd5b505050506040513d601f19601f8201168201806040525081019062002253919062004e6d565b9050600080600061013088886040516200226f92919062004c0c565b90815260405190819003602001812060010154632f1b130360e01b82526001600160a01b031690632f1b130390620022af908c9060040190815260200190565b60606040518083038186803b158015620022c857600080fd5b505afa158015620022dd573d6000803e3d6000fd5b505050506040513d601f19601f8201168201806040525081019062002303919062004dc2565b925092509250600160ff1661013089896040516200232392919062004c0c565b90815260405190819003602001812060010154634cbf3e1b60e11b82526001600160a01b03169063997e7c369062002363908d9060040190815260200190565b60206040518083038186803b1580156200237c57600080fd5b505afa15801562002391573d6000803e3d6000fd5b505050506040513d601f19601f82011682018060405250810190620023b7919062004c53565b60ff1614620023da5760405162461bcd60e51b81526004016200066a9062004df1565b6000816101308a8a604051620023f292919062004c0c565b90815260408051602092819003830181205463313ce56760e01b825291516001600160a01b039092169263313ce56792600480840193829003018186803b1580156200243d57600080fd5b505afa15801562002452573d6000803e3d6000fd5b505050506040513d601f19601f8201168201806040525081019062002478919062004c53565b6200248590601262004c8e565b6200249290600a62004db1565b856200249f868962004e87565b620024ab919062004e28565b620024b7919062004e28565b620024c3919062004e4a565b61012e546040516340c10f1960e01b8152336004820152602481018390529192506001600160a01b0316906340c10f1990604401600060405180830381600087803b1580156200251257600080fd5b505af115801562002527573d6000803e3d6000fd5b5050505061013089896040516200254092919062004c0c565b90815260405190819003602001812060010154635b8503f560e11b8252600482018c905260248201879052604482018690526001600160a01b03169063b70a07ea90606401602060405180830381600087803b158015620025a057600080fd5b505af1158015620025b5573d6000803e3d6000fd5b505050506040513d601f19601f82011682018060405250810190620025db919062004e6d565b5060008051602062005ab883398151915284836101308c8c6040516200260392919062004c0c565b90815260408051602092819003830181205463313ce56760e01b825291516001600160a01b039092169263313ce56792600480840193829003018186803b1580156200264e57600080fd5b505afa15801562002663573d6000803e3d6000fd5b505050506040513d601f19601f8201168201806040525081019062002689919062004c53565b6200269690601262004c8e565b620026a390600a62004db1565b620026af898962004e28565b620026bb919062004e28565b620026c7919062004e4a565b878d8e60008f8f6040516200111298979695949392919062004f6e565b60009182526065602090815260408084206001600160a01b0393909316845291905290205460ff1690565b60026097541415620027355760405162461bcd60e51b81526004016200066a9062004bd5565b6002609781905550818161013082826040516200275492919062004c0c565b9081526040519081900360200190206003015460ff16620027895760405162461bcd60e51b81526004016200066a9062004c1c565b620027968585856200394e565b61012d54604051630292e0fd60e01b81526000916001600160a01b031690630292e0fd90620027cc908890889060040162004f58565b60206040518083038186803b158015620027e557600080fd5b505afa158015620027fa573d6000803e3d6000fd5b505050506040513d601f19601f8201168201806040525081019062002820919062004e6d565b9050600080600061013088886040516200283c92919062004c0c565b90815260405190819003602001812060010154632f1b130360e01b82526001600160a01b031690632f1b1303906200287c908c9060040190815260200190565b60606040518083038186803b1580156200289557600080fd5b505afa158015620028aa573d6000803e3d6000fd5b505050506040513d601f19601f82011682018060405250810190620028d0919062004dc2565b925092509250600160ff166101308989604051620028f092919062004c0c565b90815260405190819003602001812060010154634cbf3e1b60e11b82526001600160a01b03169063997e7c369062002930908d9060040190815260200190565b60206040518083038186803b1580156200294957600080fd5b505afa1580156200295e573d6000803e3d6000fd5b505050506040513d601f19601f8201168201806040525081019062002984919062004c53565b60ff1614620029a75760405162461bcd60e51b81526004016200066a9062004df1565b6000816101308a8a604051620029bf92919062004c0c565b90815260408051602092819003830181205463313ce56760e01b825291516001600160a01b039092169263313ce56792600480840193829003018186803b15801562002a0a57600080fd5b505afa15801562002a1f573d6000803e3d6000fd5b505050506040513d601f19601f8201168201806040525081019062002a45919062004c53565b62002a5290601262004c8e565b62002a5f90600a62004db1565b8562002a6c888762004e87565b62002a78919062004e28565b62002a84919062004e28565b62002a90919062004e4a565b9050610130898960405162002aa792919062004c0c565b90815260405190819003602001812060010154635b8503f560e11b8252600482018c905260248201879052604482018690526001600160a01b03169063b70a07ea90606401602060405180830381600087803b15801562002b0757600080fd5b505af115801562002b1c573d6000803e3d6000fd5b505050506040513d601f19601f8201168201806040525081019062002b42919062004e6d565b5061012e54604051632770a7eb60e21b8152336004820152602481018390526001600160a01b0390911690639dc29fac90604401600060405180830381600087803b15801562002b9157600080fd5b505af115801562002ba6573d6000803e3d6000fd5b5050505060008051602062005ab883398151915284836101308c8c60405162002bd192919062004c0c565b90815260408051602092819003830181205463313ce56760e01b825291516001600160a01b039092169263313ce56792600480840193829003018186803b15801562002c1c57600080fd5b505afa15801562002c31573d6000803e3d6000fd5b505050506040513d601f19601f8201168201806040525081019062002c57919062004c53565b62002c6490601262004c8e565b62002c7190600a62004db1565b62002c7d898962004e28565b62002c89919062004e28565b62002c95919062004e4a565b878d8e60018f8f6040516200111298979695949392919062004f6e565b60008051602062005a9883398151915262002cce8133620039f0565b5061012d80546001600160a01b039485166001600160a01b03199182161790915561012e80549385169382169390931790925561012f8054919093169116179055565b6002609754141562002d375760405162461bcd60e51b81526004016200066a9062004bd5565b600260975560405181906101309062002d5290839062005072565b90815260405190819003602001902060010154336001600160a01b039091161462002d915760405162461bcd60e51b81526004016200066a9062005090565b60006101308360405162002da6919062005072565b90815260405190819003602001812060010154633a1a732760e01b82526001600160a01b031690633a1a73279062002de690899060040190815260200190565b60206040518083038186803b15801562002dff57600080fd5b505afa15801562002e14573d6000803e3d6000fd5b505050506040513d601f19601f8201168201806040525081019062002e3a919062005148565b90506101318360405162002e4f919062005072565b9081526040805191829003602090810183206001600160a01b038086166000908152919092529190912054169063dbba0f01908990670de0b6b3a76400009088906101309062002ea1908a9062005072565b90815260408051602092819003830181206001015463c375a48b60e01b825291516001600160a01b039092169263c375a48b92600480840193829003018186803b15801562002eef57600080fd5b505afa15801562002f04573d6000803e3d6000fd5b505050506040513d601f19601f8201168201806040525081019062002f2a919062004e6d565b62002f36919062004e28565b62002f42919062004e4a565b62002f4e908862004ea1565b6101308760405162002f61919062005072565b908152604051908190036020018120546001600160e01b031960e086901b16825262002f9e9392916001600160a01b039091169060040162004ebc565b600060405180830381600087803b15801562002fb957600080fd5b505af115801562002fce573d6000803e3d6000fd5b505050506101318360405162002fe5919062005072565b9081526040805191829003602090810183206001600160a01b038086166000908152919092529190912054169063dbba0f0190610130906200302990879062005072565b908152604051908190036020018120600101546001600160a01b031690670de0b6b3a76400009088906101309062003063908a9062005072565b90815260408051602092819003830181206001015463b188a84960e01b825291516001600160a01b039092169263b188a84992600480840193829003018186803b158015620030b157600080fd5b505afa158015620030c6573d6000803e3d6000fd5b505050506040513d601f19601f82011682018060405250810190620030ec919062004e6d565b620030f8919062004e28565b62003104919062004e4a565b6101308760405162003117919062005072565b908152604051908190036020018120546001600160e01b031960e086901b168252620031549392916001600160a01b039091169060040162004ebc565b600060405180830381600087803b1580156200316f57600080fd5b505af115801562003184573d6000803e3d6000fd5b50505050610131836040516200319b919062005072565b90815260408051602092819003830181206001600160a01b03858116600090815291909452919091205461012f549083169263dbba0f0192911690670de0b6b3a764000090889061013090620031f3908a9062005072565b90815260408051602092819003830181206001015463049cf37160e21b825291516001600160a01b0390921692631273cdc492600480840193829003018186803b1580156200324157600080fd5b505afa15801562003256573d6000803e3d6000fd5b505050506040513d601f19601f820116820180604052508101906200327c919062004e6d565b62003288919062004e28565b62003294919062004e4a565b61013087604051620032a7919062005072565b908152604051908190036020018120546001600160e01b031960e086901b168252620032e49392916001600160a01b039091169060040162004ebc565b600060405180830381600087803b158015620032ff57600080fd5b505af115801562003314573d6000803e3d6000fd5b505061012e54604051632770a7eb60e21b81526001600160a01b038b81166004830152602482018a90529091169250639dc29fac9150604401600060405180830381600087803b1580156200336857600080fd5b505af11580156200337d573d6000803e3d6000fd5b5050505060008060006101308660405162003399919062005072565b90815260405190819003602001812060010154632f1b130360e01b82526001600160a01b031690632f1b130390620033d9908c9060040190815260200190565b60606040518083038186803b158015620033f257600080fd5b505afa15801562003407573d6000803e3d6000fd5b505050506040513d601f19601f820116820180604052508101906200342d919062004dc2565b9250925092507fcc3f3bf4ebb079856c31b44ccbec64a58ff9c3f04a8d8a846ee9e7c2e0e4c7e18484836101308a6040516200346a919062005072565b90815260408051602092819003830181205463313ce56760e01b825291516001600160a01b039092169263313ce56792600480840193829003018186803b158015620034b557600080fd5b505afa158015620034ca573d6000803e3d6000fd5b505050506040513d601f19601f82011682018060405250810190620034f0919062004c53565b620034fd90601262004c8e565b6200350a90600a62004db1565b62003516878962004e28565b62003522919062004e28565b6200352e919062004e4a565b85858e8c60405162001112979695949392919062005168565b600054610100900460ff16620035645760005460ff161562003568565b303b155b620035cd5760405162461bcd60e51b815260206004820152602e60248201527f496e697469616c697a61626c653a20636f6e747261637420697320616c72656160448201526d191e481a5b9a5d1a585b1a5e995960921b60648201526084016200066a565b600054610100900460ff16158015620035f0576000805461ffff19166101011790555b620035fa62003d61565b6200360462003d8d565b6200360e62003d61565b6200361b60003362003dc1565b6200363660008051602062005a988339815191523362003dc1565b6200365160008051602062005a318339815191523362003dc1565b6200367b60008051602062005a3183398151915260008051602062005a9883398151915262003dcd565b61012d80546001600160a01b038087166001600160a01b03199283161790925561012e805486841690831617905561012f8054928516929091169190911790558015620036ce576000805461ff00191690555b50505050565b600082815260656020526040902060010154620036f28133620039f0565b62001155838362003b45565b60008051602062005a988339815191526200371a8133620039f0565b8561013084846040516200373092919062004c0c565b90815260405190819003602001812080546001600160a01b03939093166001600160a01b03199093169290921790915585906101309062003775908690869062004c0c565b908152602001604051809103902060010160006101000a8154816001600160a01b0302191690836001600160a01b03160217905550866101308484604051620037c092919062004c0c565b908152604051908190036020018120600301805492151560ff1990931692909217909155849061013090620037f9908690869062004c0c565b9081526040519081900360200190206002015550505050505050565b6060600061013184846040516200382e92919062004c0c565b90815260408051602092819003830190206001600160a01b038a16600090815292529020600101905085620038638262003e18565b6200386f919062004e87565b851115620038925785620038838262003e18565b6200388f919062004e87565b94505b8467ffffffffffffffff811115620038ae57620038ae62004666565b604051908082528060200260200182016040528015620038d8578160200160208202803683370190505b50915060005b858110156200393457620038ff620038f7828962004ea1565b839062003e23565b838281518110620039145762003914620051a9565b6020908102919091010152806200392b81620051bf565b915050620038de565b505095945050505050565b6001600160a01b03163b151590565b6200398d8361013184846040516200396892919062004c0c565b9081526040805160209281900383019020336000908152925290206001019062003e31565b620011555760405162461bcd60e51b815260206004820152601760248201527f5751526f757465723a204c6f74206e6f7420666f756e6400000000000000000060448201526064016200066a565b6000620039e9838362003e4a565b9392505050565b620039fc8282620026e4565b620016eb5762003a17816001600160a01b0316601462003f4e565b62003a2483602062003f4e565b60405160200162003a37929190620051dd565b60408051601f198184030181529082905262461bcd60e51b82526200066a9160040162005256565b62003a6b8282620026e4565b620016eb5760008281526065602090815260408083206001600160a01b03851684529091529020805460ff1916600117905562003aa53390565b6001600160a01b0316816001600160a01b0316837f2f8788117e7eff1d82e926ec794901d17c78024a50270940304540a733656f0d60405160405180910390a45050565b604080516001600160a01b0385811660248301528416604482015260648082018490528251808303909101815260849091019091526020810180516001600160e01b03166323b872dd60e01b179052620036ce90859062004108565b62003b518282620026e4565b15620016eb5760008281526065602090815260408083206001600160a01b0385168085529252808320805460ff1916905551339285917ff6391f5c32d9c69d2a47ea670b442974b53935d1edc7fd64eb21e047a839171b9190a45050565b60008051602062005a31833981519152620016eb8133620039f0565b7f4910fdfa16fed3260ed0e7147f7cc6da11a60208b5b9406d12a635614ffd91435460ff161562003c01576200115583620041e1565b826001600160a01b03166352d1902d6040518163ffffffff1660e01b815260040160206040518083038186803b15801562003c3b57600080fd5b505afa92505050801562003c6e575060408051601f3d908101601f1916820190925262003c6b9181019062004e6d565b60015b62003cd35760405162461bcd60e51b815260206004820152602e60248201527f45524331393637557067726164653a206e657720696d706c656d656e7461746960448201526d6f6e206973206e6f74205555505360901b60648201526084016200066a565b60008051602062005a51833981519152811462003d455760405162461bcd60e51b815260206004820152602960248201527f45524331393637557067726164653a20756e737570706f727465642070726f786044820152681a58589b195555525160ba1b60648201526084016200066a565b506200115583838362004280565b6000620039e98383620042ab565b600054610100900460ff1662003d8b5760405162461bcd60e51b81526004016200066a906200526b565b565b600054610100900460ff1662003db75760405162461bcd60e51b81526004016200066a906200526b565b62003d8b620042fd565b620016eb828262003a5f565b600082815260656020526040808220600101805490849055905190918391839186917fbd79b86ffe0ab8e8776151514217cd7cacd52c909f66475c3af44e129f0b00ff9190a4505050565b60006200063e825490565b6000620039e983836200432e565b60008181526001830160205260408120541515620039e9565b6000818152600183016020526040812054801562003f4357600062003e7160018362004e87565b855490915060009062003e879060019062004e87565b905081811462003ef357600086600001828154811062003eab5762003eab620051a9565b906000526020600020015490508087600001848154811062003ed15762003ed1620051a9565b6000918252602080832090910192909255918252600188019052604090208390555b855486908062003f075762003f07620052b6565b6001900381819060005260206000200160009055905585600101600086815260200190815260200160002060009055600193505050506200063e565b60009150506200063e565b6060600062003f5f83600262004e28565b62003f6c90600262004ea1565b67ffffffffffffffff81111562003f875762003f8762004666565b6040519080825280601f01601f19166020018201604052801562003fb2576020820181803683370190505b509050600360fc1b8160008151811062003fd05762003fd0620051a9565b60200101906001600160f81b031916908160001a905350600f60fb1b81600181518110620040025762004002620051a9565b60200101906001600160f81b031916908160001a90535060006200402884600262004e28565b6200403590600162004ea1565b90505b6001811115620040b7576f181899199a1a9b1b9c1cb0b131b232b360811b85600f16601081106200406d576200406d620051a9565b1a60f81b828281518110620040865762004086620051a9565b60200101906001600160f81b031916908160001a90535060049490941c93620040af81620052cc565b905062004038565b508315620039e95760405162461bcd60e51b815260206004820181905260248201527f537472696e67733a20686578206c656e67746820696e73756666696369656e7460448201526064016200066a565b60006200415f826040518060400160405280602081526020017f5361666545524332303a206c6f772d6c6576656c2063616c6c206661696c6564815250856001600160a01b03166200435b9092919063ffffffff16565b805190915015620011555780806020019051810190620041809190620052e6565b620011555760405162461bcd60e51b815260206004820152602a60248201527f5361666545524332303a204552433230206f7065726174696f6e20646964206e6044820152691bdd081cdd58d8d9595960b21b60648201526084016200066a565b6001600160a01b0381163b620042505760405162461bcd60e51b815260206004820152602d60248201527f455243313936373a206e657720696d706c656d656e746174696f6e206973206e60448201526c1bdd08184818dbdb9d1c9858dd609a1b60648201526084016200066a565b60008051602062005a5183398151915280546001600160a01b0319166001600160a01b0392909216919091179055565b6200428b8362004374565b600082511180620042995750805b156200115557620036ce8383620043b6565b6000818152600183016020526040812054620042f4575081546001818101845560008481526020808220909301849055845484825282860190935260409020919091556200063e565b5060006200063e565b600054610100900460ff16620043275760405162461bcd60e51b81526004016200066a906200526b565b6001609755565b6000826000018281548110620043485762004348620051a9565b9060005260206000200154905092915050565b60606200436c8484600085620044b3565b949350505050565b6200437f81620041e1565b6040516001600160a01b038216907fbc7cd75a20ee27fd9adebab32041f755214dbc6bffa90cc0225b39da2e5c2d3b90600090a250565b60606001600160a01b0383163b620044205760405162461bcd60e51b815260206004820152602660248201527f416464726573733a2064656c65676174652063616c6c20746f206e6f6e2d636f6044820152651b9d1c9858dd60d21b60648201526084016200066a565b600080846001600160a01b0316846040516200443d919062005072565b600060405180830381855af49150503d80600081146200447a576040519150601f19603f3d011682016040523d82523d6000602084013e6200447f565b606091505b5091509150620044aa828260405180606001604052806027815260200162005a7160279139620045ee565b95945050505050565b606082471015620045165760405162461bcd60e51b815260206004820152602660248201527f416464726573733a20696e73756666696369656e742062616c616e636520666f6044820152651c8818d85b1b60d21b60648201526084016200066a565b6001600160a01b0385163b6200456f5760405162461bcd60e51b815260206004820152601d60248201527f416464726573733a2063616c6c20746f206e6f6e2d636f6e747261637400000060448201526064016200066a565b600080866001600160a01b031685876040516200458d919062005072565b60006040518083038185875af1925050503d8060008114620045cc576040519150601f19603f3d011682016040523d82523d6000602084013e620045d1565b606091505b5091509150620045e3828286620045ee565b979650505050505050565b60608315620045ff575081620039e9565b825115620046105782518084602001fd5b8160405162461bcd60e51b81526004016200066a919062005256565b61072a806200530783390190565b6000602082840312156200464d57600080fd5b81356001600160e01b031981168114620039e957600080fd5b634e487b7160e01b600052604160045260246000fd5b600067ffffffffffffffff808411156200469a576200469a62004666565b604051601f8501601f19908116603f01168101908282118183101715620046c557620046c562004666565b81604052809350858152868686011115620046df57600080fd5b858560208301376000602087830101525050509392505050565b600082601f8301126200470b57600080fd5b620039e9838335602085016200467c565b6000602082840312156200472f57600080fd5b813567ffffffffffffffff8111156200474757600080fd5b6200436c84828501620046f9565b60008083601f8401126200476857600080fd5b50813567ffffffffffffffff8111156200478157600080fd5b6020830191508360208285010111156200479a57600080fd5b9250929050565b60008060008060608587031215620047b857600080fd5b8435935060208501359250604085013567ffffffffffffffff811115620047de57600080fd5b620047ec8782880162004755565b95989497509550505050565b6000602082840312156200480b57600080fd5b5035919050565b6001600160a01b0381168114620017d857600080fd5b600080604083850312156200483c57600080fd5b823591506020830135620048508162004812565b809150509250929050565b6000806000604084860312156200487157600080fd5b83359250602084013567ffffffffffffffff8111156200489057600080fd5b6200489e8682870162004755565b9497909650939450505050565b600060208284031215620048be57600080fd5b8135620039e98162004812565b60008060408385031215620048df57600080fd5b8235620048ec8162004812565b9150602083013567ffffffffffffffff8111156200490957600080fd5b8301601f810185136200491b57600080fd5b6200492c858235602084016200467c565b9150509250929050565b600080600080600080600060e0888a0312156200495257600080fd5b87356200495f8162004812565b96506020880135955060408801359450606088013593506080880135925060a0880135915060c088013567ffffffffffffffff8111156200499f57600080fd5b620049ad8a828b01620046f9565b91505092959891949750929550565b600080600060608486031215620049d257600080fd5b8335620049df8162004812565b92506020840135620049f18162004812565b9150604084013562004a038162004812565b809150509250925092565b600080600080600060a0868803121562004a2757600080fd5b853562004a348162004812565b9450602086013593506040860135925060608601359150608086013567ffffffffffffffff81111562004a6657600080fd5b62004a7488828901620046f9565b9150509295509295909350565b8015158114620017d857600080fd5b60008060008060008060a0878903121562004aaa57600080fd5b863562004ab78162004a81565b9550602087013562004ac98162004812565b9450604087013562004adb8162004812565b935060608701359250608087013567ffffffffffffffff81111562004aff57600080fd5b62004b0d89828a0162004755565b979a9699509497509295939492505050565b60008060008060006080868803121562004b3857600080fd5b853562004b458162004812565b94506020860135935060408601359250606086013567ffffffffffffffff81111562004b7057600080fd5b62004b7e8882890162004755565b969995985093965092949392505050565b6020808252825182820181905260009190848201906040850190845b8181101562004bc95783518352928401929184019160010162004bab565b50909695505050505050565b6020808252601f908201527f5265656e7472616e637947756172643a207265656e7472616e742063616c6c00604082015260600190565b8183823760009101908152919050565b60208082526017908201527f5751526f757465723a20546f6b656e20646961626c6564000000000000000000604082015260600190565b60006020828403121562004c6657600080fd5b815160ff81168114620039e957600080fd5b634e487b7160e01b600052601160045260246000fd5b600060ff821660ff84168082101562004cab5762004cab62004c78565b90039392505050565b600181815b8085111562004cf557816000190482111562004cd95762004cd962004c78565b8085161562004ce757918102915b93841c939080029062004cb9565b509250929050565b60008262004d0e575060016200063e565b8162004d1d575060006200063e565b816001811462004d36576002811462004d415762004d61565b60019150506200063e565b60ff84111562004d555762004d5562004c78565b50506001821b6200063e565b5060208310610133831016604e8410600b841016171562004d86575081810a6200063e565b62004d92838362004cb4565b806000190482111562004da95762004da962004c78565b029392505050565b6000620039e960ff84168362004cfd565b60008060006060848603121562004dd857600080fd5b8351925060208401519150604084015190509250925092565b60208082526018908201527f5751526f757465723a20537461747573206e6f74206e65770000000000000000604082015260600190565b600081600019048311821515161562004e455762004e4562004c78565b500290565b60008262004e6857634e487b7160e01b600052601260045260246000fd5b500490565b60006020828403121562004e8057600080fd5b5051919050565b60008282101562004e9c5762004e9c62004c78565b500390565b6000821982111562004eb75762004eb762004c78565b500190565b6001600160a01b0393841681526020810192909252909116604082015260600190565b81835281816020850137506000828201602090810191909152601f909101601f19169091010190565b60018060a01b03891681528760208201528660408201528560608201528460808201528360a082015260e060c0820152600062004f4a60e08301848662004edf565b9a9950505050505050505050565b6020815260006200436c60208301848662004edf565b88815287602082015286604082015285606082015284608082015260ff841660a082015260e060c0820152600062004f4a60e08301848662004edf565b6020808252602c908201527f46756e6374696f6e206d7573742062652063616c6c6564207468726f7567682060408201526b19195b1959d85d1958d85b1b60a21b606082015260800190565b6020808252602c908201527f46756e6374696f6e206d7573742062652063616c6c6564207468726f7567682060408201526b6163746976652070726f787960a01b606082015260800190565b60005b838110156200506057818101518382015260200162005046565b83811115620036ce5750506000910152565b600082516200508681846020870162005043565b9190910192915050565b60208082526021908201527f5751526f757465723a204f6e6c7920636f6c6c61746572616c2061756374696f6040820152603760f91b606082015260800190565b60008151808452620050eb81602086016020860162005043565b601f01601f19169290920160200192915050565b87815286602082015285604082015284606082015283608082015260ff831660a082015260e060c082015260006200513b60e0830184620050d1565b9998505050505050505050565b6000602082840312156200515b57600080fd5b8151620039e98162004812565b60018060a01b03881681528660208201528560408201528460608201528360808201528260a082015260e060c082015260006200513b60e0830184620050d1565b634e487b7160e01b600052603260045260246000fd5b6000600019821415620051d657620051d662004c78565b5060010190565b7f416363657373436f6e74726f6c3a206163636f756e74200000000000000000008152600083516200521781601785016020880162005043565b7001034b99036b4b9b9b4b733903937b6329607d1b60179184019182015283516200524a81602884016020880162005043565b01602801949350505050565b602081526000620039e96020830184620050d1565b6020808252602b908201527f496e697469616c697a61626c653a20636f6e7472616374206973206e6f74206960408201526a6e697469616c697a696e6760a81b606082015260800190565b634e487b7160e01b600052603160045260246000fd5b600081620052de57620052de62004c78565b506000190190565b600060208284031215620052f957600080fd5b8151620039e98162004a8156fe608060405234801561001057600080fd5b5060405161072a38038061072a83398101604081905261002f91610062565b60008054336001600160a01b031991821617909155600180549091166001600160a01b0392909216919091179055610092565b60006020828403121561007457600080fd5b81516001600160a01b038116811461008b57600080fd5b9392505050565b610689806100a16000396000f3fe608060405234801561001057600080fd5b50600436106100415760003560e01c80638da5cb5b14610046578063dbba0f0114610075578063f887ea401461008a575b600080fd5b600154610059906001600160a01b031681565b6040516001600160a01b03909116815260200160405180910390f35b610088610083366004610570565b61009d565b005b600054610059906001600160a01b031681565b6000546001600160a01b031633146101085760405162461bcd60e51b815260206004820152602360248201527f5751526f757465725661756c743a2053656e646572206973206e6f7420726f756044820152623a32b960e91b60648201526084015b60405180910390fd5b6001600160a01b038116156101305761012b6001600160a01b0382168484610193565b610143565b6101436001600160a01b038416836101ea565b604080516001600160a01b038084168252851660208201529081018390527fd1ba4ac2e2a11b5101f6cb4d978f514a155b421e8ec396d2d9abaf0bb02917ee9060600160405180910390a1505050565b604080516001600160a01b038416602482015260448082018490528251808303909101815260649091019091526020810180516001600160e01b031663a9059cbb60e01b1790526101e5908490610303565b505050565b8047101561023a5760405162461bcd60e51b815260206004820152601d60248201527f416464726573733a20696e73756666696369656e742062616c616e636500000060448201526064016100ff565b6000826001600160a01b03168260405160006040518083038185875af1925050503d8060008114610287576040519150601f19603f3d011682016040523d82523d6000602084013e61028c565b606091505b50509050806101e55760405162461bcd60e51b815260206004820152603a60248201527f416464726573733a20756e61626c6520746f2073656e642076616c75652c207260448201527f6563697069656e74206d6179206861766520726576657274656400000000000060648201526084016100ff565b6000610358826040518060400160405280602081526020017f5361666545524332303a206c6f772d6c6576656c2063616c6c206661696c6564815250856001600160a01b03166103d59092919063ffffffff16565b8051909150156101e5578080602001905181019061037691906105b2565b6101e55760405162461bcd60e51b815260206004820152602a60248201527f5361666545524332303a204552433230206f7065726174696f6e20646964206e6044820152691bdd081cdd58d8d9595960b21b60648201526084016100ff565b60606103e484846000856103ee565b90505b9392505050565b60608247101561044f5760405162461bcd60e51b815260206004820152602660248201527f416464726573733a20696e73756666696369656e742062616c616e636520666f6044820152651c8818d85b1b60d21b60648201526084016100ff565b6001600160a01b0385163b6104a65760405162461bcd60e51b815260206004820152601d60248201527f416464726573733a2063616c6c20746f206e6f6e2d636f6e747261637400000060448201526064016100ff565b600080866001600160a01b031685876040516104c29190610604565b60006040518083038185875af1925050503d80600081146104ff576040519150601f19603f3d011682016040523d82523d6000602084013e610504565b606091505b509150915061051482828661051f565b979650505050505050565b6060831561052e5750816103e7565b82511561053e5782518084602001fd5b8160405162461bcd60e51b81526004016100ff9190610620565b6001600160a01b038116811461056d57600080fd5b50565b60008060006060848603121561058557600080fd5b833561059081610558565b92506020840135915060408401356105a781610558565b809150509250925092565b6000602082840312156105c457600080fd5b815180151581146103e757600080fd5b60005b838110156105ef5781810151838201526020016105d7565b838111156105fe576000848401525b50505050565b600082516106168184602087016105d4565b9190910192915050565b602081526000825180602084015261063f8160408501602087016105d4565b601f01601f1916919091016040019291505056fea2646970667358221220f9599cb443d118d129a11e97dea91cb2df9e7c8ddbd8811c90f86e43dc8f329564736f6c63430008090033189ab7a9244df0848122154315af71fe140f3db0fe014031783b0946b8c9d2e3360894a13ba1a3210667c828492db98dca3e2076cc3735a920a3ca505d382bbc416464726573733a206c6f772d6c6576656c2064656c65676174652063616c6c206661696c6564a49807205ce4d355092ef5a8a18f56e8913cf4a201fbe287825b095693c2177528c0c2d50af0ab1c60ab623f2400a88f889940fe9a0f24f3ae0fe8e2ea9d5ca3a2646970667358221220436a7c6e4fb2e9b6253aa92a1d7fe5f9e5c81f72e7b8f46e5f7348328c2b4bed64736f6c63430008090033",
  "linkReferences": {},
  "deployedLinkReferences": {}
}