{
  "_format": "hh-sol-artifact-1",
  "contractName": "WQRouter",
  "sourceName": "contracts/stablecoin/WQRouter.sol",
  "abi": [
    {
      "inputs": [],
      "stateMutability": "nonpayable",
      "type": "constructor"
    },
    {
      "anonymous": false,
      "inputs": [
        {
          "indexed": false,
          "internalType": "address",
          "name": "previousAdmin",
          "type": "address"
        },
        {
          "indexed": false,
          "internalType": "address",
          "name": "newAdmin",
          "type": "address"
        }
      ],
      "name": "AdminChanged",
      "type": "event"
    },
    {
      "anonymous": false,
      "inputs": [
        {
          "indexed": true,
          "internalType": "address",
          "name": "beacon",
          "type": "address"
        }
      ],
      "name": "BeaconUpgraded",
      "type": "event"
    },
    {
      "anonymous": false,
      "inputs": [
        {
          "indexed": false,
          "internalType": "uint256",
          "name": "collateral",
          "type": "uint256"
        },
        {
          "indexed": false,
          "internalType": "uint256",
          "name": "debt",
          "type": "uint256"
        },
        {
          "indexed": false,
          "internalType": "uint256",
          "name": "price",
          "type": "uint256"
        },
        {
          "indexed": false,
          "internalType": "uint256",
          "name": "index",
          "type": "uint256"
        },
        {
          "indexed": false,
          "internalType": "uint256",
          "name": "newIndex",
          "type": "uint256"
        },
        {
          "indexed": false,
          "internalType": "uint8",
          "name": "status",
          "type": "uint8"
        },
        {
          "indexed": false,
          "internalType": "string",
          "name": "symbol",
          "type": "string"
        }
      ],
      "name": "Moved",
      "type": "event"
    },
    {
      "anonymous": false,
      "inputs": [
        {
          "indexed": false,
          "internalType": "address",
          "name": "user",
          "type": "address"
        },
        {
          "indexed": false,
          "internalType": "uint256",
          "name": "collateral",
          "type": "uint256"
        },
        {
          "indexed": false,
          "internalType": "uint256",
          "name": "ratio",
          "type": "uint256"
        },
        {
          "indexed": false,
          "internalType": "uint256",
          "name": "debt",
          "type": "uint256"
        },
        {
          "indexed": false,
          "internalType": "uint256",
          "name": "price",
          "type": "uint256"
        },
        {
          "indexed": false,
          "internalType": "uint256",
          "name": "index",
          "type": "uint256"
        },
        {
          "indexed": false,
          "internalType": "string",
          "name": "symbol",
          "type": "string"
        }
      ],
      "name": "Produced",
      "type": "event"
    },
    {
      "anonymous": false,
      "inputs": [
        {
          "indexed": false,
          "internalType": "uint256",
          "name": "amount",
          "type": "uint256"
        }
      ],
      "name": "Received",
      "type": "event"
    },
    {
      "anonymous": false,
      "inputs": [
        {
          "indexed": false,
          "internalType": "address",
          "name": "user",
          "type": "address"
        },
        {
          "indexed": false,
          "internalType": "uint256",
          "name": "collateral",
          "type": "uint256"
        },
        {
          "indexed": false,
          "internalType": "uint256",
          "name": "debt",
          "type": "uint256"
        },
        {
          "indexed": false,
          "internalType": "uint256",
          "name": "price",
          "type": "uint256"
        },
        {
          "indexed": false,
          "internalType": "uint256",
          "name": "ratio",
          "type": "uint256"
        },
        {
          "indexed": false,
          "internalType": "uint256",
          "name": "index",
          "type": "uint256"
        },
        {
          "indexed": false,
          "internalType": "string",
          "name": "symbol",
          "type": "string"
        }
      ],
      "name": "Removed",
      "type": "event"
    },
    {
      "anonymous": false,
      "inputs": [
        {
          "indexed": true,
          "internalType": "bytes32",
          "name": "role",
          "type": "bytes32"
        },
        {
          "indexed": true,
          "internalType": "bytes32",
          "name": "previousAdminRole",
          "type": "bytes32"
        },
        {
          "indexed": true,
          "internalType": "bytes32",
          "name": "newAdminRole",
          "type": "bytes32"
        }
      ],
      "name": "RoleAdminChanged",
      "type": "event"
    },
    {
      "anonymous": false,
      "inputs": [
        {
          "indexed": true,
          "internalType": "bytes32",
          "name": "role",
          "type": "bytes32"
        },
        {
          "indexed": true,
          "internalType": "address",
          "name": "account",
          "type": "address"
        },
        {
          "indexed": true,
          "internalType": "address",
          "name": "sender",
          "type": "address"
        }
      ],
      "name": "RoleGranted",
      "type": "event"
    },
    {
      "anonymous": false,
      "inputs": [
        {
          "indexed": true,
          "internalType": "bytes32",
          "name": "role",
          "type": "bytes32"
        },
        {
          "indexed": true,
          "internalType": "address",
          "name": "account",
          "type": "address"
        },
        {
          "indexed": true,
          "internalType": "address",
          "name": "sender",
          "type": "address"
        }
      ],
      "name": "RoleRevoked",
      "type": "event"
    },
    {
      "anonymous": false,
      "inputs": [
        {
          "indexed": true,
          "internalType": "address",
          "name": "implementation",
          "type": "address"
        }
      ],
      "name": "Upgraded",
      "type": "event"
    },
    {
      "inputs": [],
      "name": "ADMIN_ROLE",
      "outputs": [
        {
          "internalType": "bytes32",
          "name": "",
          "type": "bytes32"
        }
      ],
      "stateMutability": "view",
      "type": "function"
    },
    {
      "inputs": [],
      "name": "DEFAULT_ADMIN_ROLE",
      "outputs": [
        {
          "internalType": "bytes32",
          "name": "",
          "type": "bytes32"
        }
      ],
      "stateMutability": "view",
      "type": "function"
    },
    {
      "inputs": [],
      "name": "UPGRADER_ROLE",
      "outputs": [
        {
          "internalType": "bytes32",
          "name": "",
          "type": "bytes32"
        }
      ],
      "stateMutability": "view",
      "type": "function"
    },
    {
      "inputs": [
        {
          "internalType": "uint256",
          "name": "index",
          "type": "uint256"
        },
        {
          "internalType": "string",
          "name": "symbol",
          "type": "string"
        }
      ],
      "name": "addCollateral",
      "outputs": [],
      "stateMutability": "nonpayable",
      "type": "function"
    },
    {
      "inputs": [],
      "name": "annualInterestRate",
      "outputs": [
        {
          "internalType": "uint256",
          "name": "",
          "type": "uint256"
        }
      ],
      "stateMutability": "view",
      "type": "function"
    },
    {
      "inputs": [
        {
          "internalType": "address",
          "name": "buyer",
          "type": "address"
        },
        {
          "internalType": "uint256",
          "name": "index",
          "type": "uint256"
        },
        {
          "internalType": "uint256",
          "name": "debtAmount",
          "type": "uint256"
        },
        {
          "internalType": "uint256",
          "name": "collateralAmount",
          "type": "uint256"
        },
        {
          "internalType": "uint256",
          "name": "comission",
          "type": "uint256"
        },
        {
          "internalType": "string",
          "name": "symbol",
          "type": "string"
        }
      ],
      "name": "buyCollateral",
      "outputs": [],
      "stateMutability": "nonpayable",
      "type": "function"
    },
    {
      "inputs": [
        {
          "internalType": "uint256",
          "name": "index",
          "type": "uint256"
        },
        {
          "internalType": "string",
          "name": "symbol",
          "type": "string"
        }
      ],
      "name": "claimExtraDebt",
      "outputs": [],
      "stateMutability": "nonpayable",
      "type": "function"
    },
    {
      "inputs": [
        {
          "internalType": "uint256",
          "name": "index",
          "type": "uint256"
        },
        {
          "internalType": "string",
          "name": "symbol",
          "type": "string"
        }
      ],
      "name": "disposeDebt",
      "outputs": [],
      "stateMutability": "nonpayable",
      "type": "function"
    },
    {
      "inputs": [],
      "name": "fixedRate",
      "outputs": [
        {
          "internalType": "uint256",
          "name": "",
          "type": "uint256"
        }
      ],
      "stateMutability": "view",
      "type": "function"
    },
    {
      "inputs": [
        {
          "internalType": "string",
          "name": "symbol",
          "type": "string"
        }
      ],
      "name": "getCollateral",
      "outputs": [
        {
          "internalType": "uint256",
          "name": "amount",
          "type": "uint256"
        }
      ],
      "stateMutability": "view",
      "type": "function"
    },
    {
      "inputs": [
        {
          "internalType": "string",
          "name": "symbol",
          "type": "string"
        }
      ],
      "name": "getDebt",
      "outputs": [
        {
          "internalType": "uint256",
          "name": "amount",
          "type": "uint256"
        }
      ],
      "stateMutability": "view",
      "type": "function"
    },
    {
      "inputs": [],
      "name": "getParams",
      "outputs": [
        {
          "internalType": "contract WQPriceOracleInterface",
          "name": "",
          "type": "address"
        },
        {
          "internalType": "contract WQBridgeTokenInterface",
          "name": "",
          "type": "address"
        },
        {
          "internalType": "contract WQSurplusAuction",
          "name": "",
          "type": "address"
        },
        {
          "internalType": "contract WQDebtAuction",
          "name": "",
          "type": "address"
        },
        {
          "internalType": "uint256",
          "name": "",
          "type": "uint256"
        },
        {
          "internalType": "uint256",
          "name": "",
          "type": "uint256"
        }
      ],
      "stateMutability": "view",
      "type": "function"
    },
    {
      "inputs": [
        {
          "internalType": "bytes32",
          "name": "role",
          "type": "bytes32"
        }
      ],
      "name": "getRoleAdmin",
      "outputs": [
        {
          "internalType": "bytes32",
          "name": "",
          "type": "bytes32"
        }
      ],
      "stateMutability": "view",
      "type": "function"
    },
    {
      "inputs": [
        {
          "internalType": "address",
          "name": "user",
          "type": "address"
        },
        {
          "internalType": "uint256",
          "name": "offset",
          "type": "uint256"
        },
        {
          "internalType": "uint256",
          "name": "limit",
          "type": "uint256"
        },
        {
          "internalType": "string",
          "name": "symbol",
          "type": "string"
        }
      ],
      "name": "getUserLots",
      "outputs": [
        {
          "internalType": "uint256[]",
          "name": "page",
          "type": "uint256[]"
        }
      ],
      "stateMutability": "view",
      "type": "function"
    },
    {
      "inputs": [
        {
          "internalType": "bytes32",
          "name": "role",
          "type": "bytes32"
        },
        {
          "internalType": "address",
          "name": "account",
          "type": "address"
        }
      ],
      "name": "grantRole",
      "outputs": [],
      "stateMutability": "nonpayable",
      "type": "function"
    },
    {
      "inputs": [
        {
          "internalType": "bytes32",
          "name": "role",
          "type": "bytes32"
        },
        {
          "internalType": "address",
          "name": "account",
          "type": "address"
        }
      ],
      "name": "hasRole",
      "outputs": [
        {
          "internalType": "bool",
          "name": "",
          "type": "bool"
        }
      ],
      "stateMutability": "view",
      "type": "function"
    },
    {
      "inputs": [
        {
          "internalType": "address",
          "name": "_oracle",
          "type": "address"
        },
        {
          "internalType": "address",
          "name": "_wusd",
          "type": "address"
        },
        {
          "internalType": "uint256",
          "name": "_fixedRate",
          "type": "uint256"
        },
        {
          "internalType": "uint256",
          "name": "_annualInterestRate",
          "type": "uint256"
        }
      ],
      "name": "initialize",
      "outputs": [],
      "stateMutability": "nonpayable",
      "type": "function"
    },
    {
      "inputs": [
        {
          "internalType": "address",
          "name": "user",
          "type": "address"
        },
        {
          "internalType": "uint256",
          "name": "collateral",
          "type": "uint256"
        },
        {
          "internalType": "uint256",
          "name": "price",
          "type": "uint256"
        },
        {
          "internalType": "uint256",
          "name": "collateralRatio",
          "type": "uint256"
        },
        {
          "internalType": "uint256",
          "name": "index",
          "type": "uint256"
        },
        {
          "internalType": "uint256",
          "name": "newIndex",
          "type": "uint256"
        },
        {
          "internalType": "string",
          "name": "symbol",
          "type": "string"
        }
      ],
      "name": "moveUserLot",
      "outputs": [],
      "stateMutability": "nonpayable",
      "type": "function"
    },
    {
      "inputs": [
        {
          "internalType": "uint256",
          "name": "collateralAmount",
          "type": "uint256"
        },
        {
          "internalType": "uint256",
          "name": "collateralRatio",
          "type": "uint256"
        },
        {
          "internalType": "string",
          "name": "symbol",
          "type": "string"
        }
      ],
      "name": "produceWUSD",
      "outputs": [],
      "stateMutability": "nonpayable",
      "type": "function"
    },
    {
      "inputs": [],
      "name": "proxiableUUID",
      "outputs": [
        {
          "internalType": "bytes32",
          "name": "",
          "type": "bytes32"
        }
      ],
      "stateMutability": "view",
      "type": "function"
    },
    {
      "inputs": [
        {
          "internalType": "uint256",
          "name": "index",
          "type": "uint256"
        },
        {
          "internalType": "uint256",
          "name": "debtPart",
          "type": "uint256"
        },
        {
          "internalType": "string",
          "name": "symbol",
          "type": "string"
        }
      ],
      "name": "removeCollateral",
      "outputs": [],
      "stateMutability": "nonpayable",
      "type": "function"
    },
    {
      "inputs": [
        {
          "internalType": "bytes32",
          "name": "role",
          "type": "bytes32"
        },
        {
          "internalType": "address",
          "name": "account",
          "type": "address"
        }
      ],
      "name": "renounceRole",
      "outputs": [],
      "stateMutability": "nonpayable",
      "type": "function"
    },
    {
      "inputs": [
        {
          "internalType": "bytes32",
          "name": "role",
          "type": "bytes32"
        },
        {
          "internalType": "address",
          "name": "account",
          "type": "address"
        }
      ],
      "name": "revokeRole",
      "outputs": [],
      "stateMutability": "nonpayable",
      "type": "function"
    },
    {
      "inputs": [
        {
          "internalType": "address",
          "name": "_oracle",
          "type": "address"
        },
        {
          "internalType": "address",
          "name": "_debtAuction",
          "type": "address"
        },
        {
          "internalType": "address",
          "name": "_surplusAuction",
          "type": "address"
        }
      ],
      "name": "setContracts",
      "outputs": [],
      "stateMutability": "nonpayable",
      "type": "function"
    },
    {
      "inputs": [
        {
          "internalType": "uint256",
          "name": "_fixedRate",
          "type": "uint256"
        },
        {
          "internalType": "uint256",
          "name": "_annualInterestRate",
          "type": "uint256"
        }
      ],
      "name": "setRate",
      "outputs": [],
      "stateMutability": "nonpayable",
      "type": "function"
    },
    {
      "inputs": [
        {
          "internalType": "bool",
          "name": "enabled",
          "type": "bool"
        },
        {
          "internalType": "address",
          "name": "token",
          "type": "address"
        },
        {
          "internalType": "address",
          "name": "auction",
          "type": "address"
        },
        {
          "internalType": "uint256",
          "name": "minRatio",
          "type": "uint256"
        },
        {
          "internalType": "string",
          "name": "symbol",
          "type": "string"
        }
      ],
      "name": "setToken",
      "outputs": [],
      "stateMutability": "nonpayable",
      "type": "function"
    },
    {
      "inputs": [
        {
          "internalType": "bytes4",
          "name": "interfaceId",
          "type": "bytes4"
        }
      ],
      "name": "supportsInterface",
      "outputs": [
        {
          "internalType": "bool",
          "name": "",
          "type": "bool"
        }
      ],
      "stateMutability": "view",
      "type": "function"
    },
    {
      "inputs": [
        {
          "internalType": "address",
          "name": "user",
          "type": "address"
        },
        {
          "internalType": "uint256",
          "name": "index",
          "type": "uint256"
        },
        {
          "internalType": "string",
          "name": "symbol",
          "type": "string"
        }
      ],
      "name": "syncState",
      "outputs": [],
      "stateMutability": "nonpayable",
      "type": "function"
    },
    {
      "inputs": [
        {
          "internalType": "string",
          "name": "",
          "type": "string"
        }
      ],
      "name": "tokens",
      "outputs": [
        {
          "internalType": "uint256",
          "name": "totalCollateral",
          "type": "uint256"
        },
        {
          "internalType": "uint256",
          "name": "totalDebt",
          "type": "uint256"
        },
        {
          "internalType": "address",
          "name": "token",
          "type": "address"
        },
        {
          "internalType": "contract WQCollateralAuction",
          "name": "collateralAuction",
          "type": "address"
        },
        {
          "internalType": "uint256",
          "name": "minRatio",
          "type": "uint256"
        },
        {
          "internalType": "bool",
          "name": "enabled",
          "type": "bool"
        }
      ],
      "stateMutability": "view",
      "type": "function"
    },
    {
      "inputs": [
        {
          "internalType": "address",
          "name": "user",
          "type": "address"
        },
        {
          "internalType": "uint256",
          "name": "amount",
          "type": "uint256"
        },
        {
          "internalType": "uint256",
          "name": "cost",
          "type": "uint256"
        },
        {
          "internalType": "string",
          "name": "symbol",
          "type": "string"
        }
      ],
      "name": "transferDebt",
      "outputs": [],
      "stateMutability": "nonpayable",
      "type": "function"
    },
    {
      "inputs": [
        {
          "internalType": "address",
          "name": "user",
          "type": "address"
        },
        {
          "internalType": "uint256",
          "name": "amount",
          "type": "uint256"
        },
        {
          "internalType": "string",
          "name": "symbol",
          "type": "string"
        }
      ],
      "name": "transferSurplus",
      "outputs": [],
      "stateMutability": "payable",
      "type": "function"
    },
    {
      "inputs": [
        {
          "internalType": "address",
          "name": "newImplementation",
          "type": "address"
        }
      ],
      "name": "upgradeTo",
      "outputs": [],
      "stateMutability": "nonpayable",
      "type": "function"
    },
    {
      "inputs": [
        {
          "internalType": "address",
          "name": "newImplementation",
          "type": "address"
        },
        {
          "internalType": "bytes",
          "name": "data",
          "type": "bytes"
        }
      ],
      "name": "upgradeToAndCall",
      "outputs": [],
      "stateMutability": "payable",
      "type": "function"
    },
    {
      "stateMutability": "payable",
      "type": "receive"
    }
  ],
  "bytecode": "0x60a0604052306080523480156200001557600080fd5b50600054610100900460ff16620000335760005460ff16156200003d565b6200003d620000e2565b620000a55760405162461bcd60e51b815260206004820152602e60248201527f496e697469616c697a61626c653a20636f6e747261637420697320616c72656160448201526d191e481a5b9a5d1a585b1a5e995960921b606482015260840160405180910390fd5b600054610100900460ff16158015620000c8576000805461ffff19166101011790555b8015620000db576000805461ff00191690555b506200010f565b6000620000fa306200010060201b62003bab1760201c565b15905090565b6001600160a01b03163b151590565b608051615f9562000147600039600081816117df0152818161182201528181611f9201528181611fd5015261206d0152615f956000f3fe6080604052600436106200021b5760003560e01c80637b59bd551162000123578063a217fddf11620000ad578063d547741f1162000078578063d547741f146200071a578063e19af821146200073f578063e1cc246a1462000764578063eb990c591462000798578063f72c0d8b14620007bd57600080fd5b8063a217fddf14620006a2578063aa87441f14620006b9578063b3066d4914620006d0578063bb521df414620006f557600080fd5b80638701c54211620000ee5780638701c542146200060e5780638c1e06f1146200063357806391d14854146200065857806397bcbf40146200067d57600080fd5b80637b59bd5514620005865780637d2bda9614620005ab5780637fb95f6714620005d0578063802d142214620005f557600080fd5b80633659cfe611620001a557806352d1902d116200017057806352d1902d14620004bb57806359880b9514620004d35780635e615a6b14620004f857806375b238fc146200056157600080fd5b80633659cfe614620004355780634493edd7146200045a57806346df2ccb146200047f5780634f1ef28614620004a457600080fd5b8063248a9ca311620001e6578063248a9ca314620003925780632f2ff15d14620003c65780633131851114620003eb57806336568abe146200041057600080fd5b806301ffc9a7146200025b57806304c2320b1462000295578063198a0ac014620003435780631a9703da146200036a57600080fd5b3662000256576040513481527fa8142743f8f70a4c26f3691cf4ed59718381fb2f18070ec52be1f1022d8555579060200160405180910390a1005b600080fd5b3480156200026857600080fd5b50620002806200027a366004620049ca565b620007e2565b60405190151581526020015b60405180910390f35b348015620002a257600080fd5b5062000306620002b436600462004aab565b80518082016020908101805161013382529282019190930120915280546001820154600283015460038401546004850154600590950154939492936001600160a01b0392831693919092169160ff1686565b6040805196875260208701959095526001600160a01b0393841694860194909452911660608401526080830152151560a082015260c0016200028c565b3480156200035057600080fd5b50620003686200036236600462004b2e565b6200081a565b005b3480156200037757600080fd5b50620003836101325481565b6040519081526020016200028c565b3480156200039f57600080fd5b5062000383620003b136600462004b84565b60009081526065602052604090206001015490565b348015620003d357600080fd5b5062000368620003e536600462004bb4565b6200122a565b348015620003f857600080fd5b50620003686200040a36600462004be7565b62001259565b3480156200041d57600080fd5b50620003686200042f36600462004bb4565b62001752565b3480156200044257600080fd5b50620003686200045436600462004c36565b620017d4565b3480156200046757600080fd5b50620003686200047936600462004b2e565b620018c0565b3480156200048c57600080fd5b50620003686200049e36600462004c56565b62001f5d565b62000368620004b536600462004c79565b62001f87565b348015620004c857600080fd5b506200038362002060565b348015620004e057600080fd5b5062000368620004f236600462004ce3565b62002116565b3480156200050557600080fd5b5061012d5461012e5461012f54610130546101315461013254604080516001600160a01b03978816815295871660208701529386169385019390935293166060830152608082019290925260a081019190915260c0016200028c565b3480156200056e57600080fd5b506200038360008051602062005f2083398151915281565b3480156200059357600080fd5b5062000368620005a536600462004d68565b6200224e565b348015620005b857600080fd5b5062000368620005ca36600462004be7565b620022ba565b348015620005dd57600080fd5b5062000368620005ef36600462004daf565b620028a0565b3480156200060257600080fd5b50620003836101315481565b3480156200061b57600080fd5b50620003686200062d36600462004e1e565b620029c0565b3480156200064057600080fd5b50620003836200065236600462004e98565b62002fd6565b3480156200066557600080fd5b50620002806200067736600462004bb4565b62003007565b3480156200068a57600080fd5b50620003686200069c36600462004be7565b62003032565b348015620006af57600080fd5b5062000383600081565b62000368620006ca36600462004d68565b62003619565b348015620006dd57600080fd5b5062000368620006ef36600462004edd565b62003722565b3480156200070257600080fd5b50620003836200071436600462004e98565b62003781565b3480156200072757600080fd5b50620003686200073936600462004bb4565b620037b0565b3480156200074c57600080fd5b50620003686200075e36600462004f3e565b620037da565b3480156200077157600080fd5b50620007896200078336600462004daf565b620038f7565b6040516200028c919062004fcc565b348015620007a557600080fd5b5062000368620007b736600462005012565b62003a20565b348015620007ca57600080fd5b506200038360008051602062005eb983398151915281565b60006001600160e01b03198216637965db0b60e01b14806200081457506301ffc9a760e01b6001600160e01b03198316145b92915050565b60026097541415620008495760405162461bcd60e51b815260040162000840906200505d565b60405180910390fd5b6002609781905550818161013382826040516200086892919062005094565b9081526040519081900360200190206005015460ff166200089d5760405162461bcd60e51b81526004016200084090620050a4565b620008aa86858562003bba565b60008060006101338787604051620008c492919062005094565b90815260405190819003602001812060030154632f1b130360e01b82526001600160a01b031690632f1b13039062000904908c9060040190815260200190565b60606040518083038186803b1580156200091d57600080fd5b505afa15801562000932573d6000803e3d6000fd5b505050506040513d601f19601f82011682018060405250810190620009589190620050db565b604051919550919350909150600190610133906200097a908a908a9062005094565b90815260405190819003602001812060030154634cbf3e1b60e11b82526001600160a01b03169063997e7c3690620009ba908d9060040190815260200190565b60206040518083038186803b158015620009d357600080fd5b505afa158015620009e8573d6000803e3d6000fd5b505050506040513d601f19601f8201168201806040525081019062000a0e91906200510a565b60ff161462000a315760405162461bcd60e51b815260040162000840906200512f565b80610133888860405162000a4792919062005094565b90815260408051602092819003830181206002015463313ce56760e01b825291516001600160a01b039092169263313ce56792600480840193829003018186803b15801562000a9557600080fd5b505afa15801562000aaa573d6000803e3d6000fd5b505050506040513d601f19601f8201168201806040525081019062000ad091906200510a565b62000add9060126200517c565b62000aea90600a6200529f565b62000af68585620052b0565b62000b029190620052b0565b62000b0e9190620052d2565b88111562000b7c5760405162461bcd60e51b815260206004820152603460248201527f5751526f757465723a2052656d6f7665642064656274207061727420697320676044820152731c99585d195c881d1a185b88185b1b081919589d60621b606482015260840162000840565b6000610133888860405162000b9392919062005094565b90815260408051602092819003830181206002015463313ce56760e01b825291516001600160a01b039092169263313ce56792600480840193829003018186803b15801562000be157600080fd5b505afa15801562000bf6573d6000803e3d6000fd5b505050506040513d601f19601f8201168201806040525081019062000c1c91906200510a565b62000c299060126200517c565b62000c3690600a6200529f565b8462000c43848c620052b0565b62000c4f9190620052d2565b62000c5b9190620052d2565b90506000610133898960405162000c7492919062005094565b908152604051908190036020018120600301546390d070f360e01b82526001600160a01b0316906390d070f39062000cbb908e908690600401918252602082015260400190565b60206040518083038186803b15801562000cd457600080fd5b505afa15801562000ce9573d6000803e3d6000fd5b505050506040513d601f19601f8201168201806040525081019062000d0f9190620052f5565b9050896101338a8a60405162000d2792919062005094565b9081526020016040518091039020600101600082825462000d4991906200530f565b92505081905550816101338a8a60405162000d6692919062005094565b9081526020016040518091039020600001600082825462000d8891906200530f565b9250508190555060006101348a8a60405162000da692919062005094565b90815260408051602092819003830190203360009081529252812080549092508491839162000dd79084906200530f565b9250508190555060006101338b8b60405162000df592919062005094565b9081526040519081900360200181206003015463d0896c5560e01b8252600482018f9052602482018690526001600160a01b03169063d0896c5590604401602060405180830381600087803b15801562000e4e57600080fd5b505af115801562000e63573d6000803e3d6000fd5b505050506040513d601f19601f8201168201806040525081019062000e899190620052f5565b90508062000ed25762000ed08d6101348d8d60405162000eab92919062005094565b9081526040805160209281900383019020336000908152925290206002019062003c47565b505b62000ede84876200530f565b60018301549096506001600160a01b031663dbba0f013362000f0186886200530f565b6101338f8f60405162000f1692919062005094565b908152604051908190036020018120600201546001600160e01b031960e086901b16825262000f569392916001600160a01b039091169060040162005329565b600060405180830381600087803b15801562000f7157600080fd5b505af115801562000f86573d6000803e3d6000fd5b50505060018301546040516001600160a01b03909116915063dbba0f01906101339062000fb7908f908f9062005094565b908152602001604051809103902060030160009054906101000a90046001600160a01b0316856101338f8f60405162000ff292919062005094565b908152604051908190036020018120600201546001600160e01b031960e086901b168252620010329392916001600160a01b039091169060040162005329565b600060405180830381600087803b1580156200104d57600080fd5b505af115801562001062573d6000803e3d6000fd5b5050505061012e60009054906101000a90046001600160a01b03166001600160a01b0316639dc29fac338e6040518363ffffffff1660e01b8152600401620010bf9291906001600160a01b03929092168252602082015260400190565b600060405180830381600087803b158015620010da57600080fd5b505af1158015620010ef573d6000803e3d6000fd5b50505050505050507fcc3f3bf4ebb079856c31b44ccbec64a58ff9c3f04a8d8a846ee9e7c2e0e4c7e13383836101338b8b6040516200113092919062005094565b90815260408051602092819003830181206002015463313ce56760e01b825291516001600160a01b039092169263313ce56792600480840193829003018186803b1580156200117e57600080fd5b505afa15801562001193573d6000803e3d6000fd5b505050506040513d601f19601f82011682018060405250810190620011b991906200510a565b620011c69060126200517c565b620011d390600a6200529f565b620011df8888620052b0565b620011eb9190620052b0565b620011f79190620052d2565b86858e8d8d6040516200121298979695949392919062005375565b60405180910390a15050600160975550505050505050565b60008281526065602052604090206001015462001248813362003c5c565b62001254838362003ccb565b505050565b600260975414156200127f5760405162461bcd60e51b815260040162000840906200505d565b6002609781905550818161013382826040516200129e92919062005094565b9081526040519081900360200190206005015460ff16620012d35760405162461bcd60e51b81526004016200084090620050a4565b620012e085858562003bba565b61012d54604051630292e0fd60e01b81526000916001600160a01b031690630292e0fd90620013169088908890600401620053c5565b60206040518083038186803b1580156200132f57600080fd5b505afa15801562001344573d6000803e3d6000fd5b505050506040513d601f19601f820116820180604052508101906200136a9190620052f5565b9050600080600061013388886040516200138692919062005094565b90815260405190819003602001812060030154632f1b130360e01b82526001600160a01b031690632f1b130390620013c6908c9060040190815260200190565b60606040518083038186803b158015620013df57600080fd5b505afa158015620013f4573d6000803e3d6000fd5b505050506040513d601f19601f820116820180604052508101906200141a9190620050db565b925092509250600160ff1661013389896040516200143a92919062005094565b90815260405190819003602001812060030154634cbf3e1b60e11b82526001600160a01b03169063997e7c36906200147a908d9060040190815260200190565b60206040518083038186803b1580156200149357600080fd5b505afa158015620014a8573d6000803e3d6000fd5b505050506040513d601f19601f82011682018060405250810190620014ce91906200510a565b60ff1614620014f15760405162461bcd60e51b815260040162000840906200512f565b60008385620015018286620052b0565b6200150d9190620052d2565b6200151991906200530f565b9050806101338a8a6040516200153192919062005094565b90815260200160405180910390206000016000828254620015539190620053db565b92505081905550806101348a8a6040516200157092919062005094565b90815260408051602092819003830190203360009081529252812080549091906200159d908490620053db565b909155505060405161013390620015b8908b908b9062005094565b908152604051908190036020019020600301546001600160a01b031663b70a07ea8b87620015e78589620053db565b6040516001600160e01b031960e086901b168152600481019390935260248301919091526044820152606401602060405180830381600087803b1580156200162e57600080fd5b505af115801562001643573d6000803e3d6000fd5b505050506040513d601f19601f82011682018060405250810190620016699190620052f5565b50620016e7336101348b8b6040516200168492919062005094565b908152604080519182900360209081018320336000908152915220600101546001600160a01b031690849061013390620016c2908f908f9062005094565b908152604051908190036020019020600201546001600160a01b031692919062003d55565b60008051602062005f40833981519152620017038286620053db565b83620017108787620052b0565b6200171c9190620052d2565b878d8e60028f8f60405162001739989796959493929190620053f6565b60405180910390a1505060016097555050505050505050565b6001600160a01b0381163314620017c45760405162461bcd60e51b815260206004820152602f60248201527f416363657373436f6e74726f6c3a2063616e206f6e6c792072656e6f756e636560448201526e103937b632b9903337b91039b2b63360891b606482015260840162000840565b620017d0828262003db7565b5050565b306001600160a01b037f0000000000000000000000000000000000000000000000000000000000000000161415620018205760405162461bcd60e51b8152600401620008409062005433565b7f00000000000000000000000000000000000000000000000000000000000000006001600160a01b03166200186b60008051602062005ed9833981519152546001600160a01b031690565b6001600160a01b031614620018945760405162461bcd60e51b815260040162000840906200547f565b6200189f8162003e21565b60408051600080825260208201909252620018bd9183919062003e3d565b50565b60026097541415620018e65760405162461bcd60e51b815260040162000840906200505d565b6002609781905550818161013382826040516200190592919062005094565b9081526040519081900360200190206005015460ff166200193a5760405162461bcd60e51b81526004016200084090620050a4565b61013384846040516200194f92919062005094565b9081526020016040518091039020600401548510158015620019f9575061012d54604051630ac1066b60e11b81526001600160a01b03909116906315820cd690620019a19087908790600401620053c5565b60206040518083038186803b158015620019ba57600080fd5b505afa158015620019cf573d6000803e3d6000fd5b505050506040513d601f19601f82011682018060405250810190620019f59190620052f5565b8511155b62001a525760405162461bcd60e51b815260206004820152602260248201527f5751526f757465723a20496e76616c696420636f6c6c61746572616c20726174604482015261696f60f01b606482015260840162000840565b61012d54604051630292e0fd60e01b81526000916001600160a01b031690630292e0fd9062001a889088908890600401620053c5565b60206040518083038186803b15801562001aa157600080fd5b505afa15801562001ab6573d6000803e3d6000fd5b505050506040513d601f19601f8201168201806040525081019062001adc9190620052f5565b905060006001600160a01b0316610134868660405162001afe92919062005094565b908152604080516020928190038301902033600090815292529020600101546001600160a01b0316141562001bbc573360405162001b3c90620049bc565b6001600160a01b039091168152602001604051809103906000f08015801562001b69573d6000803e3d6000fd5b50610134868660405162001b7f92919062005094565b90815260408051602092819003830190203360009081529252902060010180546001600160a01b0319166001600160a01b03929092169190911790555b86610134868660405162001bd292919062005094565b908152604080516020928190038301902033600090815292528120805490919062001bff908490620053db565b9250508190555086610133868660405162001c1c92919062005094565b9081526020016040518091039020600001600082825462001c3e9190620053db565b92505081905550600086610133878760405162001c5d92919062005094565b90815260408051602092819003830181206002015463313ce56760e01b825291516001600160a01b039092169263313ce56792600480840193829003018186803b15801562001cab57600080fd5b505afa15801562001cc0573d6000803e3d6000fd5b505050506040513d601f19601f8201168201806040525081019062001ce691906200510a565b62001cf39060126200517c565b62001d0090600a6200529f565b62001d0c848b620052b0565b62001d189190620052b0565b62001d249190620052d2565b905080610133878760405162001d3c92919062005094565b9081526020016040518091039020600101600082825462001d5e9190620053db565b925050819055506000610133878760405162001d7c92919062005094565b9081526040519081900360200181206003015463cc6b3be360e01b825233600483015260248201859052604482018b9052606482018a90526001600160a01b03169063cc6b3be390608401602060405180830381600087803b15801562001de257600080fd5b505af115801562001df7573d6000803e3d6000fd5b505050506040513d601f19601f8201168201806040525081019062001e1d9190620052f5565b905062001e5e81610134898960405162001e3992919062005094565b9081526040805160209281900383019020336000908152925290206002019062003fc5565b5062001eb733610134898960405162001e7992919062005094565b908152604080519182900360209081018320336000908152915220600101546001600160a01b0316908c9061013390620016c2908d908d9062005094565b61012e546040516340c10f1960e01b8152336004820152602481018490526001600160a01b03909116906340c10f1990604401600060405180830381600087803b15801562001f0557600080fd5b505af115801562001f1a573d6000803e3d6000fd5b505050507f0cd37c976baaad20e50f369a7000baf6b6c37b632190cba4a51372e76c9476ad338a8a8587868d8d6040516200121298979695949392919062005375565b60008051602062005f2083398151915262001f79813362003c5c565b506101319190915561013255565b306001600160a01b037f000000000000000000000000000000000000000000000000000000000000000016141562001fd35760405162461bcd60e51b8152600401620008409062005433565b7f00000000000000000000000000000000000000000000000000000000000000006001600160a01b03166200201e60008051602062005ed9833981519152546001600160a01b031690565b6001600160a01b031614620020475760405162461bcd60e51b815260040162000840906200547f565b620020528262003e21565b620017d08282600162003e3d565b6000306001600160a01b037f00000000000000000000000000000000000000000000000000000000000000001614620021025760405162461bcd60e51b815260206004820152603860248201527f555550535570677261646561626c653a206d757374206e6f742062652063616c60448201527f6c6564207468726f7567682064656c656761746563616c6c0000000000000000606482015260840162000840565b5060008051602062005ed983398151915290565b80610133816040516200212a9190620054fa565b90815260405190819003602001902060030154336001600160a01b0390911614620021695760405162461bcd60e51b8152600401620008409062005518565b620021af8461013484604051620021819190620054fa565b90815260408051602092819003830190206001600160a01b038d166000908152925290206002019062003c47565b50620021f68361013484604051620021c89190620054fa565b90815260408051602092819003830190206001600160a01b038d166000908152925290206002019062003fc5565b5060008051602062005f408339815191528786620022158983620052b0565b620022219190620052d2565b8887876003886040516200223c979695949392919062005587565b60405180910390a15050505050505050565b60008051602062005f208339815191526200226a813362003c5c565b620022b28461013485856040516200228492919062005094565b90815260408051602092819003830190206001600160a01b038a166000908152925290206002019062003fc5565b505050505050565b60026097541415620022e05760405162461bcd60e51b815260040162000840906200505d565b600260978190555081816101338282604051620022ff92919062005094565b9081526040519081900360200190206005015460ff16620023345760405162461bcd60e51b81526004016200084090620050a4565b6200234185858562003bba565b61012d54604051630292e0fd60e01b81526000916001600160a01b031690630292e0fd90620023779088908890600401620053c5565b60206040518083038186803b1580156200239057600080fd5b505afa158015620023a5573d6000803e3d6000fd5b505050506040513d601f19601f82011682018060405250810190620023cb9190620052f5565b905060008060006101338888604051620023e792919062005094565b90815260405190819003602001812060030154632f1b130360e01b82526001600160a01b031690632f1b13039062002427908c9060040190815260200190565b60606040518083038186803b1580156200244057600080fd5b505afa15801562002455573d6000803e3d6000fd5b505050506040513d601f19601f820116820180604052508101906200247b9190620050db565b925092509250600160ff1661013389896040516200249b92919062005094565b90815260405190819003602001812060030154634cbf3e1b60e11b82526001600160a01b03169063997e7c3690620024db908d9060040190815260200190565b60206040518083038186803b158015620024f457600080fd5b505afa15801562002509573d6000803e3d6000fd5b505050506040513d601f19601f820116820180604052508101906200252f91906200510a565b60ff1614620025525760405162461bcd60e51b815260040162000840906200512f565b6000816101338a8a6040516200256a92919062005094565b90815260408051602092819003830181206002015463313ce56760e01b825291516001600160a01b039092169263313ce56792600480840193829003018186803b158015620025b857600080fd5b505afa158015620025cd573d6000803e3d6000fd5b505050506040513d601f19601f82011682018060405250810190620025f391906200510a565b620026009060126200517c565b6200260d90600a6200529f565b856200261a86896200530f565b620026269190620052b0565b620026329190620052b0565b6200263e9190620052d2565b9050806101338a8a6040516200265692919062005094565b90815260200160405180910390206001016000828254620026789190620053db565b909155505061012e546040516340c10f1960e01b8152336004820152602481018390526001600160a01b03909116906340c10f1990604401600060405180830381600087803b158015620026cb57600080fd5b505af1158015620026e0573d6000803e3d6000fd5b505050506101338989604051620026f992919062005094565b90815260405190819003602001812060030154635b8503f560e11b8252600482018c905260248201879052604482018690526001600160a01b03169063b70a07ea90606401602060405180830381600087803b1580156200275957600080fd5b505af11580156200276e573d6000803e3d6000fd5b505050506040513d601f19601f82011682018060405250810190620027949190620052f5565b5060008051602062005f4083398151915284836101338c8c604051620027bc92919062005094565b90815260408051602092819003830181206002015463313ce56760e01b825291516001600160a01b039092169263313ce56792600480840193829003018186803b1580156200280a57600080fd5b505afa1580156200281f573d6000803e3d6000fd5b505050506040513d601f19601f820116820180604052508101906200284591906200510a565b620028529060126200517c565b6200285f90600a6200529f565b6200286b8989620052b0565b620028779190620052b0565b620028839190620052d2565b878d8e60008f8f60405162001739989796959493929190620053f6565b610130546001600160a01b03163314620028fd5760405162461bcd60e51b815260206004820152601b60248201527f5751526f757465723a204f6e6c7920646562742061756374696f6e0000000000604482015260640162000840565b8261013383836040516200291392919062005094565b908152602001604051809103902060010160008282546200293591906200530f565b909155505061012e54604051632770a7eb60e21b81526001600160a01b0387811660048301526024820186905290911690639dc29fac90604401600060405180830381600087803b1580156200298a57600080fd5b505af11580156200299f573d6000803e3d6000fd5b50620029b9925050506001600160a01b0386168562003fd3565b5050505050565b60026097541415620029e65760405162461bcd60e51b815260040162000840906200505d565b600260975560405181906101339062002a01908390620054fa565b90815260405190819003602001902060030154336001600160a01b039091161462002a405760405162461bcd60e51b8152600401620008409062005518565b60006101338360405162002a559190620054fa565b90815260405190819003602001812060030154633a1a732760e01b82526001600160a01b031690633a1a73279062002a95908a9060040190815260200190565b60206040518083038186803b15801562002aae57600080fd5b505afa15801562002ac3573d6000803e3d6000fd5b505050506040513d601f19601f8201168201806040525081019062002ae99190620055d0565b9050846101348460405162002aff9190620054fa565b90815260408051602092819003830190206001600160a01b038516600090815292528120805490919062002b359084906200530f565b92505081905550846101338460405162002b509190620054fa565b9081526020016040518091039020600001600082825462002b7291906200530f565b92505081905550856101338460405162002b8d9190620054fa565b9081526020016040518091039020600101600082825462002baf91906200530f565b90915550506040516101349062002bc8908590620054fa565b90815260408051602092819003830190206001600160a01b0384811660009081529190935220600101541663dbba0f018962002c0587896200530f565b6101338760405162002c189190620054fa565b908152604051908190036020018120600201546001600160e01b031960e086901b16825262002c589392916001600160a01b039091169060040162005329565b600060405180830381600087803b15801562002c7357600080fd5b505af115801562002c88573d6000803e3d6000fd5b505050506101348360405162002c9f9190620054fa565b9081526040805191829003602090810183206001600160a01b038086166000908152919092529190912060010154169063dbba0f01906101339062002ce6908790620054fa565b908152604051908190036020018120600301546001600160a01b03169087906101339062002d16908990620054fa565b908152604051908190036020018120600201546001600160e01b031960e086901b16825262002d569392916001600160a01b039091169060040162005329565b600060405180830381600087803b15801562002d7157600080fd5b505af115801562002d86573d6000803e3d6000fd5b505061012e54604051632770a7eb60e21b81526001600160a01b038c81166004830152602482018b90529091169250639dc29fac9150604401600060405180830381600087803b15801562002dda57600080fd5b505af115801562002def573d6000803e3d6000fd5b5050505060008060006101338660405162002e0b9190620054fa565b90815260405190819003602001812060030154632f1b130360e01b82526001600160a01b031690632f1b13039062002e4b908d9060040190815260200190565b60606040518083038186803b15801562002e6457600080fd5b505afa15801562002e79573d6000803e3d6000fd5b505050506040513d601f19601f8201168201806040525081019062002e9f9190620050db565b9250925092507fcc3f3bf4ebb079856c31b44ccbec64a58ff9c3f04a8d8a846ee9e7c2e0e4c7e18484836101338a60405162002edc9190620054fa565b90815260408051602092819003830181206002015463313ce56760e01b825291516001600160a01b039092169263313ce56792600480840193829003018186803b15801562002f2a57600080fd5b505afa15801562002f3f573d6000803e3d6000fd5b505050506040513d601f19601f8201168201806040525081019062002f6591906200510a565b62002f729060126200517c565b62002f7f90600a6200529f565b62002f8b8789620052b0565b62002f979190620052b0565b62002fa39190620052d2565b85858f8c60405162002fbc9796959493929190620055f0565b60405180910390a150506001609755505050505050505050565b6000610133838360405162002fed92919062005094565b908152602001604051809103902060010154905092915050565b60009182526065602090815260408084206001600160a01b0393909316845291905290205460ff1690565b60026097541415620030585760405162461bcd60e51b815260040162000840906200505d565b6002609781905550818161013382826040516200307792919062005094565b9081526040519081900360200190206005015460ff16620030ac5760405162461bcd60e51b81526004016200084090620050a4565b620030b985858562003bba565b61012d54604051630292e0fd60e01b81526000916001600160a01b031690630292e0fd90620030ef9088908890600401620053c5565b60206040518083038186803b1580156200310857600080fd5b505afa1580156200311d573d6000803e3d6000fd5b505050506040513d601f19601f82011682018060405250810190620031439190620052f5565b9050600080600061013388886040516200315f92919062005094565b90815260405190819003602001812060030154632f1b130360e01b82526001600160a01b031690632f1b1303906200319f908c9060040190815260200190565b60606040518083038186803b158015620031b857600080fd5b505afa158015620031cd573d6000803e3d6000fd5b505050506040513d601f19601f82011682018060405250810190620031f39190620050db565b925092509250600160ff1661013389896040516200321392919062005094565b90815260405190819003602001812060030154634cbf3e1b60e11b82526001600160a01b03169063997e7c369062003253908d9060040190815260200190565b60206040518083038186803b1580156200326c57600080fd5b505afa15801562003281573d6000803e3d6000fd5b505050506040513d601f19601f82011682018060405250810190620032a791906200510a565b60ff1614620032ca5760405162461bcd60e51b815260040162000840906200512f565b6000816101338a8a604051620032e292919062005094565b90815260408051602092819003830181206002015463313ce56760e01b825291516001600160a01b039092169263313ce56792600480840193829003018186803b1580156200333057600080fd5b505afa15801562003345573d6000803e3d6000fd5b505050506040513d601f19601f820116820180604052508101906200336b91906200510a565b620033789060126200517c565b6200338590600a6200529f565b856200339288876200530f565b6200339e9190620052b0565b620033aa9190620052b0565b620033b69190620052d2565b9050806101338a8a604051620033ce92919062005094565b90815260200160405180910390206001016000828254620033f091906200530f565b9091555050604051610133906200340b908b908b9062005094565b90815260405190819003602001812060030154635b8503f560e11b8252600482018c905260248201879052604482018690526001600160a01b03169063b70a07ea90606401602060405180830381600087803b1580156200346b57600080fd5b505af115801562003480573d6000803e3d6000fd5b505050506040513d601f19601f82011682018060405250810190620034a69190620052f5565b5061012e54604051632770a7eb60e21b8152336004820152602481018390526001600160a01b0390911690639dc29fac90604401600060405180830381600087803b158015620034f557600080fd5b505af11580156200350a573d6000803e3d6000fd5b5050505060008051602062005f4083398151915284836101338c8c6040516200353592919062005094565b90815260408051602092819003830181206002015463313ce56760e01b825291516001600160a01b039092169263313ce56792600480840193829003018186803b1580156200358357600080fd5b505afa15801562003598573d6000803e3d6000fd5b505050506040513d601f19601f82011682018060405250810190620035be91906200510a565b620035cb9060126200517c565b620035d890600a6200529f565b620035e48989620052b0565b620035f09190620052b0565b620035fc9190620052d2565b878d8e60018f8f60405162001739989796959493929190620053f6565b61012f546001600160a01b03163314620036765760405162461bcd60e51b815260206004820152601e60248201527f5751526f757465723a204f6e6c7920737572706c75732061756374696f6e0000604482015260640162000840565b8261013383836040516200368c92919062005094565b90815260200160405180910390206001016000828254620036ae9190620053db565b909155505061012e546040516340c10f1960e01b81526001600160a01b03868116600483015260248201869052909116906340c10f1990604401600060405180830381600087803b1580156200370357600080fd5b505af115801562003718573d6000803e3d6000fd5b5050505050505050565b60008051602062005f208339815191526200373e813362003c5c565b5061012d80546001600160a01b039485166001600160a01b03199182161790915561013080549385169382169390931790925561012f8054919093169116179055565b600061013383836040516200379892919062005094565b90815260405190819003602001902054905092915050565b600082815260656020526040902060010154620037ce813362003c5c565b62001254838362003db7565b60008051602062005f20833981519152620037f6813362003c5c565b8561013384846040516200380c92919062005094565b908152602001604051809103902060020160006101000a8154816001600160a01b0302191690836001600160a01b031602179055508461013384846040516200385792919062005094565b908152602001604051809103902060030160006101000a8154816001600160a01b0302191690836001600160a01b03160217905550866101338484604051620038a292919062005094565b908152604051908190036020018120600501805492151560ff1990931692909217909155849061013390620038db908690869062005094565b9081526040519081900360200190206004015550505050505050565b6060600061013484846040516200391092919062005094565b90815260408051602092819003830190206001600160a01b038a166000908152925290206002019050856200394582620040f2565b6200395191906200530f565b8511156200397457856200396582620040f2565b6200397191906200530f565b94505b846001600160401b038111156200398f576200398f620049f6565b604051908082528060200260200182016040528015620039b9578160200160208202803683370190505b50915060005b8581101562003a1557620039e0620039d88289620053db565b8390620040fd565b838281518110620039f557620039f562005631565b60209081029190910101528062003a0c8162005647565b915050620039bf565b505095945050505050565b600054610100900460ff1662003a3d5760005460ff161562003a41565b303b155b62003aa65760405162461bcd60e51b815260206004820152602e60248201527f496e697469616c697a61626c653a20636f6e747261637420697320616c72656160448201526d191e481a5b9a5d1a585b1a5e995960921b606482015260840162000840565b600054610100900460ff1615801562003ac9576000805461ffff19166101011790555b62003ad36200410b565b62003add62004137565b62003ae76200410b565b62003af46000336200416b565b62003b0f60008051602062005f20833981519152336200416b565b62003b2a60008051602062005eb9833981519152336200416b565b62003b5460008051602062005eb983398151915260008051602062005f2083398151915262004177565b61012d80546001600160a01b038088166001600160a01b03199283161790925561012e8054928716929091169190911790556101318390556101328290558015620029b9576000805461ff00191690555050505050565b6001600160a01b03163b151590565b62003bf983610134848460405162003bd492919062005094565b90815260408051602092819003830190203360009081529252902060020190620041c2565b620012545760405162461bcd60e51b815260206004820152601760248201527f5751526f757465723a204c6f74206e6f7420666f756e64000000000000000000604482015260640162000840565b600062003c558383620041db565b9392505050565b62003c68828262003007565b620017d05762003c83816001600160a01b03166014620042df565b62003c90836020620042df565b60405160200162003ca392919062005665565b60408051601f198184030181529082905262461bcd60e51b82526200084091600401620056de565b62003cd7828262003007565b620017d05760008281526065602090815260408083206001600160a01b03851684529091529020805460ff1916600117905562003d113390565b6001600160a01b0316816001600160a01b0316837f2f8788117e7eff1d82e926ec794901d17c78024a50270940304540a733656f0d60405160405180910390a45050565b604080516001600160a01b0385811660248301528416604482015260648082018490528251808303909101815260849091019091526020810180516001600160e01b03166323b872dd60e01b17905262003db190859062004498565b50505050565b62003dc3828262003007565b15620017d05760008281526065602090815260408083206001600160a01b0385168085529252808320805460ff1916905551339285917ff6391f5c32d9c69d2a47ea670b442974b53935d1edc7fd64eb21e047a839171b9190a45050565b60008051602062005eb9833981519152620017d0813362003c5c565b7f4910fdfa16fed3260ed0e7147f7cc6da11a60208b5b9406d12a635614ffd91435460ff161562003e7357620012548362004571565b826001600160a01b03166352d1902d6040518163ffffffff1660e01b815260040160206040518083038186803b15801562003ead57600080fd5b505afa92505050801562003ee0575060408051601f3d908101601f1916820190925262003edd91810190620052f5565b60015b62003f455760405162461bcd60e51b815260206004820152602e60248201527f45524331393637557067726164653a206e657720696d706c656d656e7461746960448201526d6f6e206973206e6f74205555505360901b606482015260840162000840565b60008051602062005ed9833981519152811462003fb75760405162461bcd60e51b815260206004820152602960248201527f45524331393637557067726164653a20756e737570706f727465642070726f786044820152681a58589b195555525160ba1b606482015260840162000840565b506200125483838362004610565b600062003c5583836200463b565b80471015620040255760405162461bcd60e51b815260206004820152601d60248201527f416464726573733a20696e73756666696369656e742062616c616e6365000000604482015260640162000840565b6000826001600160a01b03168260405160006040518083038185875af1925050503d806000811462004074576040519150601f19603f3d011682016040523d82523d6000602084013e62004079565b606091505b5050905080620012545760405162461bcd60e51b815260206004820152603a60248201527f416464726573733a20756e61626c6520746f2073656e642076616c75652c207260448201527f6563697069656e74206d61792068617665207265766572746564000000000000606482015260840162000840565b600062000814825490565b600062003c5583836200468d565b600054610100900460ff16620041355760405162461bcd60e51b81526004016200084090620056f3565b565b600054610100900460ff16620041615760405162461bcd60e51b81526004016200084090620056f3565b62004135620046ba565b620017d0828262003ccb565b600082815260656020526040808220600101805490849055905190918391839186917fbd79b86ffe0ab8e8776151514217cd7cacd52c909f66475c3af44e129f0b00ff9190a4505050565b6000818152600183016020526040812054151562003c55565b60008181526001830160205260408120548015620042d4576000620042026001836200530f565b855490915060009062004218906001906200530f565b9050818114620042845760008660000182815481106200423c576200423c62005631565b906000526020600020015490508087600001848154811062004262576200426262005631565b6000918252602080832090910192909255918252600188019052604090208390555b85548690806200429857620042986200573e565b60019003818190600052602060002001600090559055856001016000868152602001908152602001600020600090556001935050505062000814565b600091505062000814565b60606000620042f0836002620052b0565b620042fd906002620053db565b6001600160401b03811115620043175762004317620049f6565b6040519080825280601f01601f19166020018201604052801562004342576020820181803683370190505b509050600360fc1b8160008151811062004360576200436062005631565b60200101906001600160f81b031916908160001a905350600f60fb1b8160018151811062004392576200439262005631565b60200101906001600160f81b031916908160001a9053506000620043b8846002620052b0565b620043c5906001620053db565b90505b600181111562004447576f181899199a1a9b1b9c1cb0b131b232b360811b85600f1660108110620043fd57620043fd62005631565b1a60f81b82828151811062004416576200441662005631565b60200101906001600160f81b031916908160001a90535060049490941c936200443f8162005754565b9050620043c8565b50831562003c555760405162461bcd60e51b815260206004820181905260248201527f537472696e67733a20686578206c656e67746820696e73756666696369656e74604482015260640162000840565b6000620044ef826040518060400160405280602081526020017f5361666545524332303a206c6f772d6c6576656c2063616c6c206661696c6564815250856001600160a01b0316620046eb9092919063ffffffff16565b8051909150156200125457808060200190518101906200451091906200576e565b620012545760405162461bcd60e51b815260206004820152602a60248201527f5361666545524332303a204552433230206f7065726174696f6e20646964206e6044820152691bdd081cdd58d8d9595960b21b606482015260840162000840565b6001600160a01b0381163b620045e05760405162461bcd60e51b815260206004820152602d60248201527f455243313936373a206e657720696d706c656d656e746174696f6e206973206e60448201526c1bdd08184818dbdb9d1c9858dd609a1b606482015260840162000840565b60008051602062005ed983398151915280546001600160a01b0319166001600160a01b0392909216919091179055565b6200461b8362004704565b600082511180620046295750805b15620012545762003db1838362004746565b6000818152600183016020526040812054620046845750815460018181018455600084815260208082209093018490558454848252828601909352604090209190915562000814565b50600062000814565b6000826000018281548110620046a757620046a762005631565b9060005260206000200154905092915050565b600054610100900460ff16620046e45760405162461bcd60e51b81526004016200084090620056f3565b6001609755565b6060620046fc848460008562004843565b949350505050565b6200470f8162004571565b6040516001600160a01b038216907fbc7cd75a20ee27fd9adebab32041f755214dbc6bffa90cc0225b39da2e5c2d3b90600090a250565b60606001600160a01b0383163b620047b05760405162461bcd60e51b815260206004820152602660248201527f416464726573733a2064656c65676174652063616c6c20746f206e6f6e2d636f6044820152651b9d1c9858dd60d21b606482015260840162000840565b600080846001600160a01b031684604051620047cd9190620054fa565b600060405180830381855af49150503d80600081146200480a576040519150601f19603f3d011682016040523d82523d6000602084013e6200480f565b606091505b50915091506200483a828260405180606001604052806027815260200162005ef9602791396200497e565b95945050505050565b606082471015620048a65760405162461bcd60e51b815260206004820152602660248201527f416464726573733a20696e73756666696369656e742062616c616e636520666f6044820152651c8818d85b1b60d21b606482015260840162000840565b6001600160a01b0385163b620048ff5760405162461bcd60e51b815260206004820152601d60248201527f416464726573733a2063616c6c20746f206e6f6e2d636f6e7472616374000000604482015260640162000840565b600080866001600160a01b031685876040516200491d9190620054fa565b60006040518083038185875af1925050503d80600081146200495c576040519150601f19603f3d011682016040523d82523d6000602084013e62004961565b606091505b5091509150620049738282866200497e565b979650505050505050565b606083156200498f57508162003c55565b825115620049a05782518084602001fd5b8160405162461bcd60e51b8152600401620008409190620056de565b61072a806200578f83390190565b600060208284031215620049dd57600080fd5b81356001600160e01b03198116811462003c5557600080fd5b634e487b7160e01b600052604160045260246000fd5b60006001600160401b038084111562004a295762004a29620049f6565b604051601f8501601f19908116603f0116810190828211818310171562004a545762004a54620049f6565b8160405280935085815286868601111562004a6e57600080fd5b858560208301376000602087830101525050509392505050565b600082601f83011262004a9a57600080fd5b62003c558383356020850162004a0c565b60006020828403121562004abe57600080fd5b81356001600160401b0381111562004ad557600080fd5b620046fc8482850162004a88565b60008083601f84011262004af657600080fd5b5081356001600160401b0381111562004b0e57600080fd5b60208301915083602082850101111562004b2757600080fd5b9250929050565b6000806000806060858703121562004b4557600080fd5b843593506020850135925060408501356001600160401b0381111562004b6a57600080fd5b62004b788782880162004ae3565b95989497509550505050565b60006020828403121562004b9757600080fd5b5035919050565b6001600160a01b0381168114620018bd57600080fd5b6000806040838503121562004bc857600080fd5b82359150602083013562004bdc8162004b9e565b809150509250929050565b60008060006040848603121562004bfd57600080fd5b8335925060208401356001600160401b0381111562004c1b57600080fd5b62004c298682870162004ae3565b9497909650939450505050565b60006020828403121562004c4957600080fd5b813562003c558162004b9e565b6000806040838503121562004c6a57600080fd5b50508035926020909101359150565b6000806040838503121562004c8d57600080fd5b823562004c9a8162004b9e565b915060208301356001600160401b0381111562004cb657600080fd5b8301601f8101851362004cc857600080fd5b62004cd98582356020840162004a0c565b9150509250929050565b600080600080600080600060e0888a03121562004cff57600080fd5b873562004d0c8162004b9e565b96506020880135955060408801359450606088013593506080880135925060a0880135915060c08801356001600160401b0381111562004d4b57600080fd5b62004d598a828b0162004a88565b91505092959891949750929550565b6000806000806060858703121562004d7f57600080fd5b843562004d8c8162004b9e565b93506020850135925060408501356001600160401b0381111562004b6a57600080fd5b60008060008060006080868803121562004dc857600080fd5b853562004dd58162004b9e565b9450602086013593506040860135925060608601356001600160401b0381111562004dff57600080fd5b62004e0d8882890162004ae3565b969995985093965092949392505050565b60008060008060008060c0878903121562004e3857600080fd5b863562004e458162004b9e565b95506020870135945060408701359350606087013592506080870135915060a08701356001600160401b0381111562004e7d57600080fd5b62004e8b89828a0162004a88565b9150509295509295509295565b6000806020838503121562004eac57600080fd5b82356001600160401b0381111562004ec357600080fd5b62004ed18582860162004ae3565b90969095509350505050565b60008060006060848603121562004ef357600080fd5b833562004f008162004b9e565b9250602084013562004f128162004b9e565b9150604084013562004f248162004b9e565b809150509250925092565b8015158114620018bd57600080fd5b60008060008060008060a0878903121562004f5857600080fd5b863562004f658162004f2f565b9550602087013562004f778162004b9e565b9450604087013562004f898162004b9e565b93506060870135925060808701356001600160401b0381111562004fac57600080fd5b62004fba89828a0162004ae3565b979a9699509497509295939492505050565b6020808252825182820181905260009190848201906040850190845b81811015620050065783518352928401929184019160010162004fe8565b50909695505050505050565b600080600080608085870312156200502957600080fd5b8435620050368162004b9e565b93506020850135620050488162004b9e565b93969395505050506040820135916060013590565b6020808252601f908201527f5265656e7472616e637947756172643a207265656e7472616e742063616c6c00604082015260600190565b8183823760009101908152919050565b60208082526017908201527f5751526f757465723a20546f6b656e20646961626c6564000000000000000000604082015260600190565b600080600060608486031215620050f157600080fd5b8351925060208401519150604084015190509250925092565b6000602082840312156200511d57600080fd5b815160ff8116811462003c5557600080fd5b60208082526018908201527f5751526f757465723a20537461747573206e6f74206e65770000000000000000604082015260600190565b634e487b7160e01b600052601160045260246000fd5b600060ff821660ff84168082101562005199576200519962005166565b90039392505050565b600181815b80851115620051e3578160001904821115620051c757620051c762005166565b80851615620051d557918102915b93841c9390800290620051a7565b509250929050565b600082620051fc5750600162000814565b816200520b5750600062000814565b81600181146200522457600281146200522f576200524f565b600191505062000814565b60ff84111562005243576200524362005166565b50506001821b62000814565b5060208310610133831016604e8410600b841016171562005274575081810a62000814565b620052808383620051a2565b806000190482111562005297576200529762005166565b029392505050565b600062003c5560ff841683620051eb565b6000816000190483118215151615620052cd57620052cd62005166565b500290565b600082620052f057634e487b7160e01b600052601260045260246000fd5b500490565b6000602082840312156200530857600080fd5b5051919050565b60008282101562005324576200532462005166565b500390565b6001600160a01b0393841681526020810192909252909116604082015260600190565b81835281816020850137506000828201602090810191909152601f909101601f19169091010190565b60018060a01b03891681528760208201528660408201528560608201528460808201528360a082015260e060c08201526000620053b760e0830184866200534c565b9a9950505050505050505050565b602081526000620046fc6020830184866200534c565b60008219821115620053f157620053f162005166565b500190565b88815287602082015286604082015285606082015284608082015260ff841660a082015260e060c08201526000620053b760e0830184866200534c565b6020808252602c908201527f46756e6374696f6e206d7573742062652063616c6c6564207468726f7567682060408201526b19195b1959d85d1958d85b1b60a21b606082015260800190565b6020808252602c908201527f46756e6374696f6e206d7573742062652063616c6c6564207468726f7567682060408201526b6163746976652070726f787960a01b606082015260800190565b60005b83811015620054e8578181015183820152602001620054ce565b8381111562003db15750506000910152565b600082516200550e818460208701620054cb565b9190910192915050565b60208082526021908201527f5751526f757465723a204f6e6c7920636f6c6c61746572616c2061756374696f6040820152603760f91b606082015260800190565b6000815180845262005573816020860160208601620054cb565b601f01601f19169290920160200192915050565b87815286602082015285604082015284606082015283608082015260ff831660a082015260e060c08201526000620055c360e083018462005559565b9998505050505050505050565b600060208284031215620055e357600080fd5b815162003c558162004b9e565b60018060a01b03881681528660208201528560408201528460608201528360808201528260a082015260e060c08201526000620055c360e083018462005559565b634e487b7160e01b600052603260045260246000fd5b60006000198214156200565e576200565e62005166565b5060010190565b7f416363657373436f6e74726f6c3a206163636f756e74200000000000000000008152600083516200569f816017850160208801620054cb565b7001034b99036b4b9b9b4b733903937b6329607d1b6017918401918201528351620056d2816028840160208801620054cb565b01602801949350505050565b60208152600062003c55602083018462005559565b6020808252602b908201527f496e697469616c697a61626c653a20636f6e7472616374206973206e6f74206960408201526a6e697469616c697a696e6760a81b606082015260800190565b634e487b7160e01b600052603160045260246000fd5b60008162005766576200576662005166565b506000190190565b6000602082840312156200578157600080fd5b815162003c558162004f2f56fe608060405234801561001057600080fd5b5060405161072a38038061072a83398101604081905261002f91610062565b60008054336001600160a01b031991821617909155600180549091166001600160a01b0392909216919091179055610092565b60006020828403121561007457600080fd5b81516001600160a01b038116811461008b57600080fd5b9392505050565b610689806100a16000396000f3fe608060405234801561001057600080fd5b50600436106100415760003560e01c80638da5cb5b14610046578063dbba0f0114610075578063f887ea401461008a575b600080fd5b600154610059906001600160a01b031681565b6040516001600160a01b03909116815260200160405180910390f35b610088610083366004610570565b61009d565b005b600054610059906001600160a01b031681565b6000546001600160a01b031633146101085760405162461bcd60e51b815260206004820152602360248201527f5751526f757465725661756c743a2053656e646572206973206e6f7420726f756044820152623a32b960e91b60648201526084015b60405180910390fd5b6001600160a01b038116156101305761012b6001600160a01b0382168484610193565b610143565b6101436001600160a01b038416836101ea565b604080516001600160a01b038084168252851660208201529081018390527fd1ba4ac2e2a11b5101f6cb4d978f514a155b421e8ec396d2d9abaf0bb02917ee9060600160405180910390a1505050565b604080516001600160a01b038416602482015260448082018490528251808303909101815260649091019091526020810180516001600160e01b031663a9059cbb60e01b1790526101e5908490610303565b505050565b8047101561023a5760405162461bcd60e51b815260206004820152601d60248201527f416464726573733a20696e73756666696369656e742062616c616e636500000060448201526064016100ff565b6000826001600160a01b03168260405160006040518083038185875af1925050503d8060008114610287576040519150601f19603f3d011682016040523d82523d6000602084013e61028c565b606091505b50509050806101e55760405162461bcd60e51b815260206004820152603a60248201527f416464726573733a20756e61626c6520746f2073656e642076616c75652c207260448201527f6563697069656e74206d6179206861766520726576657274656400000000000060648201526084016100ff565b6000610358826040518060400160405280602081526020017f5361666545524332303a206c6f772d6c6576656c2063616c6c206661696c6564815250856001600160a01b03166103d59092919063ffffffff16565b8051909150156101e5578080602001905181019061037691906105b2565b6101e55760405162461bcd60e51b815260206004820152602a60248201527f5361666545524332303a204552433230206f7065726174696f6e20646964206e6044820152691bdd081cdd58d8d9595960b21b60648201526084016100ff565b60606103e484846000856103ee565b90505b9392505050565b60608247101561044f5760405162461bcd60e51b815260206004820152602660248201527f416464726573733a20696e73756666696369656e742062616c616e636520666f6044820152651c8818d85b1b60d21b60648201526084016100ff565b6001600160a01b0385163b6104a65760405162461bcd60e51b815260206004820152601d60248201527f416464726573733a2063616c6c20746f206e6f6e2d636f6e747261637400000060448201526064016100ff565b600080866001600160a01b031685876040516104c29190610604565b60006040518083038185875af1925050503d80600081146104ff576040519150601f19603f3d011682016040523d82523d6000602084013e610504565b606091505b509150915061051482828661051f565b979650505050505050565b6060831561052e5750816103e7565b82511561053e5782518084602001fd5b8160405162461bcd60e51b81526004016100ff9190610620565b6001600160a01b038116811461056d57600080fd5b50565b60008060006060848603121561058557600080fd5b833561059081610558565b92506020840135915060408401356105a781610558565b809150509250925092565b6000602082840312156105c457600080fd5b815180151581146103e757600080fd5b60005b838110156105ef5781810151838201526020016105d7565b838111156105fe576000848401525b50505050565b600082516106168184602087016105d4565b9190910192915050565b602081526000825180602084015261063f8160408501602087016105d4565b601f01601f1916919091016040019291505056fea2646970667358221220f9599cb443d118d129a11e97dea91cb2df9e7c8ddbd8811c90f86e43dc8f329564736f6c63430008090033189ab7a9244df0848122154315af71fe140f3db0fe014031783b0946b8c9d2e3360894a13ba1a3210667c828492db98dca3e2076cc3735a920a3ca505d382bbc416464726573733a206c6f772d6c6576656c2064656c65676174652063616c6c206661696c6564a49807205ce4d355092ef5a8a18f56e8913cf4a201fbe287825b095693c2177528c0c2d50af0ab1c60ab623f2400a88f889940fe9a0f24f3ae0fe8e2ea9d5ca3a264697066735822122007ca5827034a942b4b51f3dc142dce5bef7e691797a902a77b3c764d0228baeb64736f6c63430008090033",
  "linkReferences": {},
  "deployedLinkReferences": {}
}