{
  "_format": "hh-sol-artifact-1",
  "contractName": "WQRouter",
  "sourceName": "contracts/stablecoin/WQRouter.sol",
  "abi": [
    {
      "inputs": [],
      "stateMutability": "nonpayable",
      "type": "constructor"
    },
    {
      "anonymous": false,
      "inputs": [
        {
          "indexed": false,
          "internalType": "address",
          "name": "previousAdmin",
          "type": "address"
        },
        {
          "indexed": false,
          "internalType": "address",
          "name": "newAdmin",
          "type": "address"
        }
      ],
      "name": "AdminChanged",
      "type": "event"
    },
    {
      "anonymous": false,
      "inputs": [
        {
          "indexed": true,
          "internalType": "address",
          "name": "beacon",
          "type": "address"
        }
      ],
      "name": "BeaconUpgraded",
      "type": "event"
    },
    {
      "anonymous": false,
      "inputs": [
        {
          "indexed": false,
          "internalType": "uint256",
          "name": "collateral",
          "type": "uint256"
        },
        {
          "indexed": false,
          "internalType": "uint256",
          "name": "price",
          "type": "uint256"
        },
        {
          "indexed": false,
          "internalType": "uint256",
          "name": "index",
          "type": "uint256"
        },
        {
          "indexed": false,
          "internalType": "string",
          "name": "symbol",
          "type": "string"
        }
      ],
      "name": "Moved",
      "type": "event"
    },
    {
      "anonymous": false,
      "inputs": [
        {
          "indexed": false,
          "internalType": "address",
          "name": "user",
          "type": "address"
        },
        {
          "indexed": false,
          "internalType": "uint256",
          "name": "collateral",
          "type": "uint256"
        },
        {
          "indexed": false,
          "internalType": "uint256",
          "name": "ratio",
          "type": "uint256"
        },
        {
          "indexed": false,
          "internalType": "uint256",
          "name": "debt",
          "type": "uint256"
        },
        {
          "indexed": false,
          "internalType": "uint256",
          "name": "price",
          "type": "uint256"
        },
        {
          "indexed": false,
          "internalType": "uint256",
          "name": "index",
          "type": "uint256"
        },
        {
          "indexed": false,
          "internalType": "string",
          "name": "symbol",
          "type": "string"
        }
      ],
      "name": "Produced",
      "type": "event"
    },
    {
      "anonymous": false,
      "inputs": [
        {
          "indexed": false,
          "internalType": "uint256",
          "name": "amount",
          "type": "uint256"
        }
      ],
      "name": "Received",
      "type": "event"
    },
    {
      "anonymous": false,
      "inputs": [
        {
          "indexed": false,
          "internalType": "address",
          "name": "user",
          "type": "address"
        },
        {
          "indexed": false,
          "internalType": "uint256",
          "name": "collateral",
          "type": "uint256"
        },
        {
          "indexed": false,
          "internalType": "uint256",
          "name": "debt",
          "type": "uint256"
        },
        {
          "indexed": false,
          "internalType": "uint256",
          "name": "price",
          "type": "uint256"
        },
        {
          "indexed": false,
          "internalType": "uint256",
          "name": "index",
          "type": "uint256"
        },
        {
          "indexed": false,
          "internalType": "string",
          "name": "symbol",
          "type": "string"
        }
      ],
      "name": "Removed",
      "type": "event"
    },
    {
      "anonymous": false,
      "inputs": [
        {
          "indexed": true,
          "internalType": "bytes32",
          "name": "role",
          "type": "bytes32"
        },
        {
          "indexed": true,
          "internalType": "bytes32",
          "name": "previousAdminRole",
          "type": "bytes32"
        },
        {
          "indexed": true,
          "internalType": "bytes32",
          "name": "newAdminRole",
          "type": "bytes32"
        }
      ],
      "name": "RoleAdminChanged",
      "type": "event"
    },
    {
      "anonymous": false,
      "inputs": [
        {
          "indexed": true,
          "internalType": "bytes32",
          "name": "role",
          "type": "bytes32"
        },
        {
          "indexed": true,
          "internalType": "address",
          "name": "account",
          "type": "address"
        },
        {
          "indexed": true,
          "internalType": "address",
          "name": "sender",
          "type": "address"
        }
      ],
      "name": "RoleGranted",
      "type": "event"
    },
    {
      "anonymous": false,
      "inputs": [
        {
          "indexed": true,
          "internalType": "bytes32",
          "name": "role",
          "type": "bytes32"
        },
        {
          "indexed": true,
          "internalType": "address",
          "name": "account",
          "type": "address"
        },
        {
          "indexed": true,
          "internalType": "address",
          "name": "sender",
          "type": "address"
        }
      ],
      "name": "RoleRevoked",
      "type": "event"
    },
    {
      "anonymous": false,
      "inputs": [
        {
          "indexed": true,
          "internalType": "address",
          "name": "implementation",
          "type": "address"
        }
      ],
      "name": "Upgraded",
      "type": "event"
    },
    {
      "inputs": [],
      "name": "ADMIN_ROLE",
      "outputs": [
        {
          "internalType": "bytes32",
          "name": "",
          "type": "bytes32"
        }
      ],
      "stateMutability": "view",
      "type": "function"
    },
    {
      "inputs": [],
      "name": "DEFAULT_ADMIN_ROLE",
      "outputs": [
        {
          "internalType": "bytes32",
          "name": "",
          "type": "bytes32"
        }
      ],
      "stateMutability": "view",
      "type": "function"
    },
    {
      "inputs": [],
      "name": "UPGRADER_ROLE",
      "outputs": [
        {
          "internalType": "bytes32",
          "name": "",
          "type": "bytes32"
        }
      ],
      "stateMutability": "view",
      "type": "function"
    },
    {
      "inputs": [
        {
          "internalType": "uint256",
          "name": "index",
          "type": "uint256"
        },
        {
          "internalType": "string",
          "name": "symbol",
          "type": "string"
        }
      ],
      "name": "addCollateral",
      "outputs": [],
      "stateMutability": "nonpayable",
      "type": "function"
    },
    {
      "inputs": [],
      "name": "annualInterestRate",
      "outputs": [
        {
          "internalType": "uint256",
          "name": "",
          "type": "uint256"
        }
      ],
      "stateMutability": "view",
      "type": "function"
    },
    {
      "inputs": [
        {
          "internalType": "address",
          "name": "buyer",
          "type": "address"
        },
        {
          "internalType": "uint256",
          "name": "index",
          "type": "uint256"
        },
        {
          "internalType": "uint256",
          "name": "debtAmount",
          "type": "uint256"
        },
        {
          "internalType": "uint256",
          "name": "collateralAmount",
          "type": "uint256"
        },
        {
          "internalType": "uint256",
          "name": "comission",
          "type": "uint256"
        },
        {
          "internalType": "string",
          "name": "symbol",
          "type": "string"
        }
      ],
      "name": "buyCollateral",
      "outputs": [],
      "stateMutability": "nonpayable",
      "type": "function"
    },
    {
      "inputs": [
        {
          "internalType": "uint256",
          "name": "index",
          "type": "uint256"
        },
        {
          "internalType": "string",
          "name": "symbol",
          "type": "string"
        }
      ],
      "name": "claimExtraDebt",
      "outputs": [],
      "stateMutability": "nonpayable",
      "type": "function"
    },
    {
      "inputs": [
        {
          "internalType": "uint256",
          "name": "index",
          "type": "uint256"
        },
        {
          "internalType": "string",
          "name": "symbol",
          "type": "string"
        }
      ],
      "name": "disposeDebt",
      "outputs": [],
      "stateMutability": "nonpayable",
      "type": "function"
    },
    {
      "inputs": [],
      "name": "fee",
      "outputs": [
        {
          "internalType": "uint256",
          "name": "",
          "type": "uint256"
        }
      ],
      "stateMutability": "view",
      "type": "function"
    },
    {
      "inputs": [],
      "name": "fixedRate",
      "outputs": [
        {
          "internalType": "uint256",
          "name": "",
          "type": "uint256"
        }
      ],
      "stateMutability": "view",
      "type": "function"
    },
    {
      "inputs": [
        {
          "internalType": "string",
          "name": "symbol",
          "type": "string"
        }
      ],
      "name": "getCollateral",
      "outputs": [
        {
          "internalType": "uint256",
          "name": "amount",
          "type": "uint256"
        }
      ],
      "stateMutability": "view",
      "type": "function"
    },
    {
      "inputs": [
        {
          "internalType": "string",
          "name": "symbol",
          "type": "string"
        }
      ],
      "name": "getDebt",
      "outputs": [
        {
          "internalType": "uint256",
          "name": "amount",
          "type": "uint256"
        }
      ],
      "stateMutability": "view",
      "type": "function"
    },
    {
      "inputs": [],
      "name": "getParams",
      "outputs": [
        {
          "internalType": "contract WQPriceOracleInterface",
          "name": "",
          "type": "address"
        },
        {
          "internalType": "contract WQBridgeTokenInterface",
          "name": "",
          "type": "address"
        },
        {
          "internalType": "contract WQSurplusAuction",
          "name": "",
          "type": "address"
        },
        {
          "internalType": "contract WQDebtAuction",
          "name": "",
          "type": "address"
        },
        {
          "internalType": "uint256",
          "name": "",
          "type": "uint256"
        },
        {
          "internalType": "uint256",
          "name": "",
          "type": "uint256"
        },
        {
          "internalType": "address",
          "name": "",
          "type": "address"
        }
      ],
      "stateMutability": "view",
      "type": "function"
    },
    {
      "inputs": [
        {
          "internalType": "bytes32",
          "name": "role",
          "type": "bytes32"
        }
      ],
      "name": "getRoleAdmin",
      "outputs": [
        {
          "internalType": "bytes32",
          "name": "",
          "type": "bytes32"
        }
      ],
      "stateMutability": "view",
      "type": "function"
    },
    {
      "inputs": [
        {
          "internalType": "address",
          "name": "user",
          "type": "address"
        },
        {
          "internalType": "uint256",
          "name": "offset",
          "type": "uint256"
        },
        {
          "internalType": "uint256",
          "name": "limit",
          "type": "uint256"
        },
        {
          "internalType": "string",
          "name": "symbol",
          "type": "string"
        }
      ],
      "name": "getUserLots",
      "outputs": [
        {
          "internalType": "uint256[]",
          "name": "page",
          "type": "uint256[]"
        }
      ],
      "stateMutability": "view",
      "type": "function"
    },
    {
      "inputs": [
        {
          "internalType": "bytes32",
          "name": "role",
          "type": "bytes32"
        },
        {
          "internalType": "address",
          "name": "account",
          "type": "address"
        }
      ],
      "name": "grantRole",
      "outputs": [],
      "stateMutability": "nonpayable",
      "type": "function"
    },
    {
      "inputs": [
        {
          "internalType": "bytes32",
          "name": "role",
          "type": "bytes32"
        },
        {
          "internalType": "address",
          "name": "account",
          "type": "address"
        }
      ],
      "name": "hasRole",
      "outputs": [
        {
          "internalType": "bool",
          "name": "",
          "type": "bool"
        }
      ],
      "stateMutability": "view",
      "type": "function"
    },
    {
      "inputs": [
        {
          "internalType": "address",
          "name": "_oracle",
          "type": "address"
        },
        {
          "internalType": "address",
          "name": "_wusd",
          "type": "address"
        },
        {
          "internalType": "uint256",
          "name": "_fixedRate",
          "type": "uint256"
        },
        {
          "internalType": "uint256",
          "name": "_annualInterestRate",
          "type": "uint256"
        },
        {
          "internalType": "address",
          "name": "_feeReceiver",
          "type": "address"
        }
      ],
      "name": "initialize",
      "outputs": [],
      "stateMutability": "nonpayable",
      "type": "function"
    },
    {
      "inputs": [
        {
          "internalType": "address",
          "name": "user",
          "type": "address"
        },
        {
          "internalType": "uint256",
          "name": "collateral",
          "type": "uint256"
        },
        {
          "internalType": "uint256",
          "name": "price",
          "type": "uint256"
        },
        {
          "internalType": "uint256",
          "name": "index",
          "type": "uint256"
        },
        {
          "internalType": "uint256",
          "name": "newIndex",
          "type": "uint256"
        },
        {
          "internalType": "string",
          "name": "symbol",
          "type": "string"
        }
      ],
      "name": "moveUserLot",
      "outputs": [],
      "stateMutability": "nonpayable",
      "type": "function"
    },
    {
      "inputs": [
        {
          "internalType": "uint256",
          "name": "collateralAmount",
          "type": "uint256"
        },
        {
          "internalType": "uint256",
          "name": "collateralRatio",
          "type": "uint256"
        },
        {
          "internalType": "string",
          "name": "symbol",
          "type": "string"
        }
      ],
      "name": "produceWUSD",
      "outputs": [],
      "stateMutability": "nonpayable",
      "type": "function"
    },
    {
      "inputs": [],
      "name": "proxiableUUID",
      "outputs": [
        {
          "internalType": "bytes32",
          "name": "",
          "type": "bytes32"
        }
      ],
      "stateMutability": "view",
      "type": "function"
    },
    {
      "inputs": [
        {
          "internalType": "uint256",
          "name": "index",
          "type": "uint256"
        },
        {
          "internalType": "uint256",
          "name": "debtPart",
          "type": "uint256"
        },
        {
          "internalType": "string",
          "name": "symbol",
          "type": "string"
        }
      ],
      "name": "removeCollateral",
      "outputs": [],
      "stateMutability": "nonpayable",
      "type": "function"
    },
    {
      "inputs": [
        {
          "internalType": "bytes32",
          "name": "role",
          "type": "bytes32"
        },
        {
          "internalType": "address",
          "name": "account",
          "type": "address"
        }
      ],
      "name": "renounceRole",
      "outputs": [],
      "stateMutability": "nonpayable",
      "type": "function"
    },
    {
      "inputs": [
        {
          "internalType": "bytes32",
          "name": "role",
          "type": "bytes32"
        },
        {
          "internalType": "address",
          "name": "account",
          "type": "address"
        }
      ],
      "name": "revokeRole",
      "outputs": [],
      "stateMutability": "nonpayable",
      "type": "function"
    },
    {
      "inputs": [
        {
          "internalType": "address",
          "name": "_oracle",
          "type": "address"
        },
        {
          "internalType": "address",
          "name": "debt_auction",
          "type": "address"
        },
        {
          "internalType": "address",
          "name": "surplus_auction",
          "type": "address"
        }
      ],
      "name": "setContracts",
      "outputs": [],
      "stateMutability": "nonpayable",
      "type": "function"
    },
    {
      "inputs": [
        {
          "internalType": "address",
          "name": "_feeReceiver",
          "type": "address"
        }
      ],
      "name": "setFeeReceiver",
      "outputs": [],
      "stateMutability": "nonpayable",
      "type": "function"
    },
    {
      "inputs": [
        {
          "internalType": "uint256",
          "name": "_fixedRate",
          "type": "uint256"
        },
        {
          "internalType": "uint256",
          "name": "_annualInterestRate",
          "type": "uint256"
        },
        {
          "internalType": "uint256",
          "name": "_fee",
          "type": "uint256"
        }
      ],
      "name": "setRate",
      "outputs": [],
      "stateMutability": "nonpayable",
      "type": "function"
    },
    {
      "inputs": [
        {
          "internalType": "bool",
          "name": "enabled",
          "type": "bool"
        },
        {
          "internalType": "address",
          "name": "token",
          "type": "address"
        },
        {
          "internalType": "address",
          "name": "auction",
          "type": "address"
        },
        {
          "internalType": "uint256",
          "name": "minRatio",
          "type": "uint256"
        },
        {
          "internalType": "string",
          "name": "symbol",
          "type": "string"
        }
      ],
      "name": "setToken",
      "outputs": [],
      "stateMutability": "nonpayable",
      "type": "function"
    },
    {
      "inputs": [
        {
          "internalType": "bytes4",
          "name": "interfaceId",
          "type": "bytes4"
        }
      ],
      "name": "supportsInterface",
      "outputs": [
        {
          "internalType": "bool",
          "name": "",
          "type": "bool"
        }
      ],
      "stateMutability": "view",
      "type": "function"
    },
    {
      "inputs": [
        {
          "internalType": "string",
          "name": "",
          "type": "string"
        }
      ],
      "name": "tokens",
      "outputs": [
        {
          "internalType": "uint256",
          "name": "totalCollateral",
          "type": "uint256"
        },
        {
          "internalType": "uint256",
          "name": "totalDebt",
          "type": "uint256"
        },
        {
          "internalType": "address",
          "name": "token",
          "type": "address"
        },
        {
          "internalType": "contract WQCollateralAuction",
          "name": "collateralAuction",
          "type": "address"
        },
        {
          "internalType": "uint256",
          "name": "minRatio",
          "type": "uint256"
        },
        {
          "internalType": "bool",
          "name": "enabled",
          "type": "bool"
        }
      ],
      "stateMutability": "view",
      "type": "function"
    },
    {
      "inputs": [
        {
          "internalType": "address",
          "name": "user",
          "type": "address"
        },
        {
          "internalType": "uint256",
          "name": "amount",
          "type": "uint256"
        },
        {
          "internalType": "uint256",
          "name": "cost",
          "type": "uint256"
        },
        {
          "internalType": "string",
          "name": "symbol",
          "type": "string"
        }
      ],
      "name": "transferDebt",
      "outputs": [],
      "stateMutability": "nonpayable",
      "type": "function"
    },
    {
      "inputs": [
        {
          "internalType": "address",
          "name": "user",
          "type": "address"
        },
        {
          "internalType": "uint256",
          "name": "amount",
          "type": "uint256"
        },
        {
          "internalType": "string",
          "name": "symbol",
          "type": "string"
        }
      ],
      "name": "transferSurplus",
      "outputs": [],
      "stateMutability": "payable",
      "type": "function"
    },
    {
      "inputs": [
        {
          "internalType": "address",
          "name": "newImplementation",
          "type": "address"
        }
      ],
      "name": "upgradeTo",
      "outputs": [],
      "stateMutability": "nonpayable",
      "type": "function"
    },
    {
      "inputs": [
        {
          "internalType": "address",
          "name": "newImplementation",
          "type": "address"
        },
        {
          "internalType": "bytes",
          "name": "data",
          "type": "bytes"
        }
      ],
      "name": "upgradeToAndCall",
      "outputs": [],
      "stateMutability": "payable",
      "type": "function"
    },
    {
      "stateMutability": "payable",
      "type": "receive"
    }
  ],
  "bytecode": "0x60a0604052306080523480156200001557600080fd5b50600054610100900460ff16620000335760005460ff16156200003d565b6200003d620000e2565b620000a55760405162461bcd60e51b815260206004820152602e60248201527f496e697469616c697a61626c653a20636f6e747261637420697320616c72656160448201526d191e481a5b9a5d1a585b1a5e995960921b606482015260840160405180910390fd5b600054610100900460ff16158015620000c8576000805461ffff19166101011790555b8015620000db576000805461ff00191690555b506200010f565b6000620000fa306200010060201b6200367e1760201c565b15905090565b6001600160a01b03163b151590565b6080516159aa62000147600039600081816117000152818161174301528181611eb701528181611efa0152611f9201526159aa6000f3fe608060405260043610620002275760003560e01c80637d2bda961162000123578063aa87441f11620000ad578063ddca3f431162000078578063ddca3f431462000753578063e19af821146200076c578063e1cc246a1462000791578063efdcd97414620007c5578063f72c0d8b14620007ea57600080fd5b8063aa87441f14620006cd578063b3066d4914620006e4578063bb521df41462000709578063d547741f146200072e57600080fd5b80638c1e06f111620000ee5780638c1e06f1146200064757806391d14854146200066c57806397bcbf401462000691578063a217fddf14620006b657600080fd5b80637d2bda9614620005bf5780637fb95f6714620005e4578063802d142214620006095780638701c542146200062257600080fd5b806336568abe11620001b15780634f1ef286116200017c5780634f1ef28614620004d557806352d1902d14620004ec57806357fb25cc14620005045780635e615a6b146200052957806375b238fc146200059a57600080fd5b806336568abe14620004415780633659cfe614620004665780633989c666146200048b5780634493edd714620004b057600080fd5b80631a9703da11620001f25780631a9703da146200039b578063248a9ca314620003c35780632f2ff15d14620003f757806331318511146200041c57600080fd5b806301ffc9a7146200026757806304c2320b14620002a1578063103624b1146200034f578063198a0ac0146200037657600080fd5b3662000262576040513481527fa8142743f8f70a4c26f3691cf4ed59718381fb2f18070ec52be1f1022d8555579060200160405180910390a1005b600080fd5b3480156200027457600080fd5b506200028c62000286366004620044a1565b6200080f565b60405190151581526020015b60405180910390f35b348015620002ae57600080fd5b5062000312620002c03660046200455f565b80518082016020908101805161013582529282019190930120915280546001820154600283015460038401546004850154600590950154939492936001600160a01b0392831693919092169160ff1686565b6040805196875260208701959095526001600160a01b0393841694860194909452911660608401526080830152151560a082015260c00162000298565b3480156200035c57600080fd5b50620003746200036e3660046200460d565b62000847565b005b3480156200038357600080fd5b5062000374620003953660046200468f565b62000973565b348015620003a857600080fd5b50620003b46101325481565b60405190815260200162000298565b348015620003d057600080fd5b50620003b4620003e2366004620046e5565b60009081526065602052604090206001015490565b3480156200040457600080fd5b506200037462000416366004620046ff565b6200116d565b3480156200042957600080fd5b50620003746200043b36600462004732565b6200119c565b3480156200044e57600080fd5b506200037462000460366004620046ff565b62001673565b3480156200047357600080fd5b50620003746200048536600462004781565b620016f5565b3480156200049857600080fd5b5062000374620004aa366004620047a1565b620017e1565b348015620004bd57600080fd5b5062000374620004cf3660046200468f565b6200180f565b62000374620004e6366004620047ce565b62001eac565b348015620004f957600080fd5b50620003b462001f85565b3480156200051157600080fd5b50620003746200052336600462004838565b6200203b565b3480156200053657600080fd5b5061012d5461012e5461012f5461013054610131546101325461013454604080516001600160a01b0398891681529688166020880152948716948601949094529185166060850152608084015260a08301529190911660c082015260e00162000298565b348015620005a757600080fd5b50620003b46000805160206200595583398151915281565b348015620005cc57600080fd5b5062000374620005de36600462004732565b620021d6565b348015620005f157600080fd5b5062000374620006033660046200489e565b620026f3565b3480156200061657600080fd5b50620003b46101315481565b3480156200062f57600080fd5b5062000374620006413660046200460d565b62002813565b3480156200065457600080fd5b50620003b4620006663660046200490d565b62002cd6565b3480156200067957600080fd5b506200028c6200068b366004620046ff565b62002d07565b3480156200069e57600080fd5b5062000374620006b036600462004732565b62002d32565b348015620006c357600080fd5b50620003b4600081565b62000374620006de36600462004952565b62003237565b348015620006f157600080fd5b50620003746200070336600462004999565b62003340565b3480156200071657600080fd5b50620003b4620007283660046200490d565b6200339f565b3480156200073b57600080fd5b50620003746200074d366004620046ff565b620033ce565b3480156200076057600080fd5b50620003b46101335481565b3480156200077957600080fd5b50620003746200078b366004620049fa565b620033f8565b3480156200079e57600080fd5b50620007b6620007b03660046200489e565b62003515565b60405162000298919062004a88565b348015620007d257600080fd5b5062000374620007e436600462004781565b6200363e565b348015620007f757600080fd5b50620003b4600080516020620058ce83398151915281565b60006001600160e01b03198216637965db0b60e01b14806200084157506301ffc9a760e01b6001600160e01b03198316145b92915050565b818161013582826040516200085e92919062004ace565b90815260405190819003602001902060030154336001600160a01b0390911614620008a65760405162461bcd60e51b81526004016200089d9062004ade565b60405180910390fd5b620008ee866101368686604051620008c092919062004ace565b90815260408051602092819003830190206001600160a01b038e16600090815292529020600201906200368d565b50620009378561013686866040516200090992919062004ace565b90815260408051602092819003830190206001600160a01b038e1660009081529252902060020190620036a2565b506000805160206200590e83398151915288888887876040516200096095949392919062004b48565b60405180910390a1505050505050505050565b60026097541415620009995760405162461bcd60e51b81526004016200089d9062004b70565b600260978190555081816101358282604051620009b892919062004ace565b9081526040519081900360200190206005015460ff16620009ed5760405162461bcd60e51b81526004016200089d9062004ba7565b620009fa868585620036b0565b600080600080610135888860405162000a1592919062004ace565b90815260405190819003602001812060030154632f1b130360e01b82526001600160a01b031690632f1b13039062000a55908d9060040190815260200190565b60806040518083038186803b15801562000a6e57600080fd5b505afa15801562000a83573d6000803e3d6000fd5b505050506040513d601f19601f8201168201806040525081019062000aa9919062004bde565b6040519297509094509250600191506101359062000acb908b908b9062004ace565b90815260405190819003602001812060030154634cbf3e1b60e11b82526001600160a01b03169063997e7c369062000b0b908e9060040190815260200190565b60206040518083038186803b15801562000b2457600080fd5b505afa15801562000b39573d6000803e3d6000fd5b505050506040513d601f19601f8201168201806040525081019062000b5f919062004c15565b60ff161462000b825760405162461bcd60e51b81526004016200089d9062004c3a565b6000610135898960405162000b9992919062004ace565b90815260405190819003602001812060030154634823bd5560e01b82526001600160a01b031690634823bd559062000bd9908e9060040190815260200190565b60206040518083038186803b15801562000bf257600080fd5b505afa15801562000c07573d6000803e3d6000fd5b505050506040513d601f19601f8201168201806040525081019062000c2d919062004c71565b9050610135898960405162000c4492919062004ace565b90815260408051602092819003830181206002015463313ce56760e01b825291516001600160a01b039092169263313ce56792600480840193829003018186803b15801562000c9257600080fd5b505afa15801562000ca7573d6000803e3d6000fd5b505050506040513d601f19601f8201168201806040525081019062000ccd919062004c15565b62000cda90601262004ca1565b62000ce790600a62004dc4565b8562000cf4858d62004dd5565b62000d00919062004df7565b62000d0c919062004df7565b9350896101358a8a60405162000d2492919062004ace565b9081526020016040518091039020600101600082825462000d46919062004e1a565b9091555062000d589050818562004e34565b6101358a8a60405162000d6d92919062004ace565b9081526020016040518091039020600001600082825462000d8f919062004e1a565b9250508190555060006101368a8a60405162000dad92919062004ace565b908152604080516020928190038301902033600090815292529020905062000dd6828662004e34565b81600001600082825462000deb919062004e1a565b9250508190555060006101358b8b60405162000e0992919062004ace565b908152604051908190036020019020600301546001600160a01b031663d0896c558e62000e37868a62004e34565b6040516001600160e01b031960e085901b16815260048101929092526024820152604401602060405180830381600087803b15801562000e7657600080fd5b505af115801562000e8b573d6000803e3d6000fd5b505050506040513d601f19601f8201168201806040525081019062000eb1919062004c71565b90508062000efa5762000ef88d6101368d8d60405162000ed392919062004ace565b908152604080516020928190038301902033600090815292529020600201906200368d565b505b8160010160009054906101000a90046001600160a01b03166001600160a01b031663dbba0f0133886101358f8f60405162000f3792919062004ace565b908152604051908190036020018120600201546001600160e01b031960e086901b16825262000f779392916001600160a01b039091169060040162004e4f565b600060405180830381600087803b15801562000f9257600080fd5b505af115801562000fa7573d6000803e3d6000fd5b50505060018301546040516001600160a01b03909116915063dbba0f01906101359062000fd8908f908f9062004ace565b908152602001604051809103902060030160009054906101000a90046001600160a01b0316856101358f8f6040516200101392919062004ace565b908152604051908190036020018120600201546001600160e01b031960e086901b168252620010539392916001600160a01b039091169060040162004e4f565b600060405180830381600087803b1580156200106e57600080fd5b505af115801562001083573d6000803e3d6000fd5b5050505061012e60009054906101000a90046001600160a01b03166001600160a01b0316639dc29fac338e6040518363ffffffff1660e01b8152600401620010e09291906001600160a01b03929092168252602082015260400190565b600060405180830381600087803b158015620010fb57600080fd5b505af115801562001110573d6000803e3d6000fd5b5050505050505050507f3b9f5aaaea5eb6df9a429d2bb3b035b934d8cd822d73aa2951ce0afeb6a0ed16338289858c8b8b60405162001156979695949392919062004e72565b60405180910390a150506001609755505050505050565b6000828152606560205260409020600101546200118b813362003747565b620011978383620037b6565b505050565b60026097541415620011c25760405162461bcd60e51b81526004016200089d9062004b70565b600260978190555081816101358282604051620011e192919062004ace565b9081526040519081900360200190206005015460ff16620012165760405162461bcd60e51b81526004016200089d9062004ba7565b62001223858585620036b0565b61012d54604051630292e0fd60e01b81526000916001600160a01b031690630292e0fd9062001259908890889060040162004ebb565b60206040518083038186803b1580156200127257600080fd5b505afa15801562001287573d6000803e3d6000fd5b505050506040513d601f19601f82011682018060405250810190620012ad919062004c71565b90506000806101358787604051620012c792919062004ace565b90815260405190819003602001812060030154632f1b130360e01b82526001600160a01b031690632f1b13039062001307908b9060040190815260200190565b60806040518083038186803b1580156200132057600080fd5b505afa15801562001335573d6000803e3d6000fd5b505050506040513d601f19601f820116820180604052508101906200135b919062004bde565b505091509150600160ff1661013588886040516200137b92919062004ace565b90815260405190819003602001812060030154634cbf3e1b60e11b82526001600160a01b03169063997e7c3690620013bb908c9060040190815260200190565b60206040518083038186803b158015620013d457600080fd5b505afa158015620013e9573d6000803e3d6000fd5b505050506040513d601f19601f820116820180604052508101906200140f919062004c15565b60ff1614620014325760405162461bcd60e51b81526004016200089d9062004c3a565b6000828462001442828562004dd5565b6200144e919062004df7565b6200145a919062004e1a565b90508061013589896040516200147292919062004ace565b9081526020016040518091039020600001600082825462001494919062004e34565b92505081905550806101368989604051620014b192919062004ace565b9081526040805160209281900383019020336000908152925281208054909190620014de90849062004e34565b909155505060405161013590620014f9908a908a9062004ace565b908152604051908190036020019020600301546001600160a01b031663b70a07ea8a8662001528858862004e34565b6040516001600160e01b031960e086901b168152600481019390935260248301919091526044820152606401602060405180830381600087803b1580156200156f57600080fd5b505af115801562001584573d6000803e3d6000fd5b505050506040513d601f19601f82011682018060405250810190620015aa919062004c71565b5062001628336101368a8a604051620015c592919062004ace565b908152604080519182900360209081018320336000908152915220600101546001600160a01b03169084906101359062001603908e908e9062004ace565b908152604051908190036020019020600201546001600160a01b031692919062003840565b6000805160206200590e83398151915262001644828562004e34565b858b8b8b6040516200165b95949392919062004b48565b60405180910390a15050600160975550505050505050565b6001600160a01b0381163314620016e55760405162461bcd60e51b815260206004820152602f60248201527f416363657373436f6e74726f6c3a2063616e206f6e6c792072656e6f756e636560448201526e103937b632b9903337b91039b2b63360891b60648201526084016200089d565b620016f182826200389c565b5050565b306001600160a01b037f0000000000000000000000000000000000000000000000000000000000000000161415620017415760405162461bcd60e51b81526004016200089d9062004ed1565b7f00000000000000000000000000000000000000000000000000000000000000006001600160a01b03166200178c600080516020620058ee833981519152546001600160a01b031690565b6001600160a01b031614620017b55760405162461bcd60e51b81526004016200089d9062004f1d565b620017c08162003906565b60408051600080825260208201909252620017de9183919062003922565b50565b60008051602062005955833981519152620017fd813362003747565b50610131929092556101325561013355565b60026097541415620018355760405162461bcd60e51b81526004016200089d9062004b70565b6002609781905550818161013582826040516200185492919062004ace565b9081526040519081900360200190206005015460ff16620018895760405162461bcd60e51b81526004016200089d9062004ba7565b61013584846040516200189e92919062004ace565b908152602001604051809103902060040154851015801562001948575061012d54604051630ac1066b60e11b81526001600160a01b03909116906315820cd690620018f0908790879060040162004ebb565b60206040518083038186803b1580156200190957600080fd5b505afa1580156200191e573d6000803e3d6000fd5b505050506040513d601f19601f8201168201806040525081019062001944919062004c71565b8511155b620019a15760405162461bcd60e51b815260206004820152602260248201527f5751526f757465723a20496e76616c696420636f6c6c61746572616c20726174604482015261696f60f01b60648201526084016200089d565b61012d54604051630292e0fd60e01b81526000916001600160a01b031690630292e0fd90620019d7908890889060040162004ebb565b60206040518083038186803b158015620019f057600080fd5b505afa15801562001a05573d6000803e3d6000fd5b505050506040513d601f19601f8201168201806040525081019062001a2b919062004c71565b905060006001600160a01b0316610136868660405162001a4d92919062004ace565b908152604080516020928190038301902033600090815292529020600101546001600160a01b0316141562001b0b573360405162001a8b9062004493565b6001600160a01b039091168152602001604051809103906000f08015801562001ab8573d6000803e3d6000fd5b50610136868660405162001ace92919062004ace565b90815260408051602092819003830190203360009081529252902060010180546001600160a01b0319166001600160a01b03929092169190911790555b86610136868660405162001b2192919062004ace565b908152604080516020928190038301902033600090815292528120805490919062001b4e90849062004e34565b9250508190555086610135868660405162001b6b92919062004ace565b9081526020016040518091039020600001600082825462001b8d919062004e34565b92505081905550600086610135878760405162001bac92919062004ace565b90815260408051602092819003830181206002015463313ce56760e01b825291516001600160a01b039092169263313ce56792600480840193829003018186803b15801562001bfa57600080fd5b505afa15801562001c0f573d6000803e3d6000fd5b505050506040513d601f19601f8201168201806040525081019062001c35919062004c15565b62001c4290601262004ca1565b62001c4f90600a62004dc4565b62001c5b848b62004dd5565b62001c67919062004dd5565b62001c73919062004df7565b905080610135878760405162001c8b92919062004ace565b9081526020016040518091039020600101600082825462001cad919062004e34565b925050819055506000610135878760405162001ccb92919062004ace565b9081526040519081900360200181206003015463cc6b3be360e01b825233600483015260248201859052604482018b9052606482018a90526001600160a01b03169063cc6b3be390608401602060405180830381600087803b15801562001d3157600080fd5b505af115801562001d46573d6000803e3d6000fd5b505050506040513d601f19601f8201168201806040525081019062001d6c919062004c71565b905062001dad81610136898960405162001d8892919062004ace565b90815260408051602092819003830190203360009081529252902060020190620036a2565b5062001e0633610136898960405162001dc892919062004ace565b908152604080519182900360209081018320336000908152915220600101546001600160a01b0316908c906101359062001603908d908d9062004ace565b61012e546040516340c10f1960e01b8152336004820152602481018490526001600160a01b03909116906340c10f1990604401600060405180830381600087803b15801562001e5457600080fd5b505af115801562001e69573d6000803e3d6000fd5b505050507f0cd37c976baaad20e50f369a7000baf6b6c37b632190cba4a51372e76c9476ad338a8a8587868d8d6040516200165b98979695949392919062004f69565b306001600160a01b037f000000000000000000000000000000000000000000000000000000000000000016141562001ef85760405162461bcd60e51b81526004016200089d9062004ed1565b7f00000000000000000000000000000000000000000000000000000000000000006001600160a01b031662001f43600080516020620058ee833981519152546001600160a01b031690565b6001600160a01b03161462001f6c5760405162461bcd60e51b81526004016200089d9062004f1d565b62001f778262003906565b620016f18282600162003922565b6000306001600160a01b037f00000000000000000000000000000000000000000000000000000000000000001614620020275760405162461bcd60e51b815260206004820152603860248201527f555550535570677261646561626c653a206d757374206e6f742062652063616c60448201527f6c6564207468726f7567682064656c656761746563616c6c000000000000000060648201526084016200089d565b50600080516020620058ee83398151915290565b600054610100900460ff16620020585760005460ff16156200205c565b303b155b620020c15760405162461bcd60e51b815260206004820152602e60248201527f496e697469616c697a61626c653a20636f6e747261637420697320616c72656160448201526d191e481a5b9a5d1a585b1a5e995960921b60648201526084016200089d565b600054610100900460ff16158015620020e4576000805461ffff19166101011790555b620020ee62003aaa565b620020f862003ad6565b6200210262003aaa565b6200210f60003362003b0a565b6200212a600080516020620059558339815191523362003b0a565b62002145600080516020620058ce8339815191523362003b0a565b6200216f600080516020620058ce8339815191526000805160206200595583398151915262003b16565b61012d80546001600160a01b038089166001600160a01b03199283161790925561012e80548884169083161790556101318690556101328590556101348054928516929091169190911790558015620021ce576000805461ff00191690555b505050505050565b60026097541415620021fc5760405162461bcd60e51b81526004016200089d9062004b70565b6002609781905550818161013582826040516200221b92919062004ace565b9081526040519081900360200190206005015460ff16620022505760405162461bcd60e51b81526004016200089d9062004ba7565b6200225d858585620036b0565b61012d54604051630292e0fd60e01b81526000916001600160a01b031690630292e0fd9062002293908890889060040162004ebb565b60206040518083038186803b158015620022ac57600080fd5b505afa158015620022c1573d6000803e3d6000fd5b505050506040513d601f19601f82011682018060405250810190620022e7919062004c71565b9050600080600061013588886040516200230392919062004ace565b90815260405190819003602001812060030154632f1b130360e01b82526001600160a01b031690632f1b13039062002343908c9060040190815260200190565b60806040518083038186803b1580156200235c57600080fd5b505afa15801562002371573d6000803e3d6000fd5b505050506040513d601f19601f8201168201806040525081019062002397919062004bde565b50925092509250600160ff166101358989604051620023b892919062004ace565b90815260405190819003602001812060030154634cbf3e1b60e11b82526001600160a01b03169063997e7c3690620023f8908d9060040190815260200190565b60206040518083038186803b1580156200241157600080fd5b505afa15801562002426573d6000803e3d6000fd5b505050506040513d601f19601f820116820180604052508101906200244c919062004c15565b60ff16146200246f5760405162461bcd60e51b81526004016200089d9062004c3a565b6000816101358a8a6040516200248792919062004ace565b90815260408051602092819003830181206002015463313ce56760e01b825291516001600160a01b039092169263313ce56792600480840193829003018186803b158015620024d557600080fd5b505afa158015620024ea573d6000803e3d6000fd5b505050506040513d601f19601f8201168201806040525081019062002510919062004c15565b6200251d90601262004ca1565b6200252a90600a62004dc4565b8562002537868962004e1a565b62002543919062004dd5565b6200254f919062004dd5565b6200255b919062004df7565b9050806101358a8a6040516200257392919062004ace565b9081526020016040518091039020600101600082825462002595919062004e34565b909155505061012e546040516340c10f1960e01b8152336004820152602481018390526001600160a01b03909116906340c10f1990604401600060405180830381600087803b158015620025e857600080fd5b505af1158015620025fd573d6000803e3d6000fd5b5050505061013589896040516200261692919062004ace565b90815260405190819003602001812060030154635b8503f560e11b8252600482018c905260248201879052604482018690526001600160a01b03169063b70a07ea90606401602060405180830381600087803b1580156200267657600080fd5b505af11580156200268b573d6000803e3d6000fd5b505050506040513d601f19601f82011682018060405250810190620026b1919062004c71565b506000805160206200590e83398151915284868c8c8c604051620026da95949392919062004b48565b60405180910390a1505060016097555050505050505050565b610130546001600160a01b03163314620027505760405162461bcd60e51b815260206004820152601b60248201527f5751526f757465723a204f6e6c7920646562742061756374696f6e000000000060448201526064016200089d565b8261013583836040516200276692919062004ace565b9081526020016040518091039020600101600082825462002788919062004e1a565b909155505061012e54604051632770a7eb60e21b81526001600160a01b0387811660048301526024820186905290911690639dc29fac90604401600060405180830381600087803b158015620027dd57600080fd5b505af1158015620027f2573d6000803e3d6000fd5b506200280c925050506001600160a01b0386168562003b61565b5050505050565b60026097541415620028395760405162461bcd60e51b81526004016200089d9062004b70565b6002609781905550818161013582826040516200285892919062004ace565b90815260405190819003602001902060030154336001600160a01b0390911614620028975760405162461bcd60e51b81526004016200089d9062004ade565b60006101358585604051620028ae92919062004ace565b90815260405190819003602001812060030154633a1a732760e01b82526001600160a01b031690633a1a732790620028ee908c9060040190815260200190565b60206040518083038186803b1580156200290757600080fd5b505afa1580156200291c573d6000803e3d6000fd5b505050506040513d601f19601f8201168201806040525081019062002942919062004fb9565b905062002950868862004e34565b61013686866040516200296592919062004ace565b90815260408051602092819003830190206001600160a01b03851660009081529252812080549091906200299b90849062004e1a565b90915550620029ad9050868862004e34565b6101358686604051620029c292919062004ace565b90815260200160405180910390206000016000828254620029e4919062004e1a565b9250508190555087610135868660405162002a0192919062004ace565b9081526020016040518091039020600101600082825462002a23919062004e1a565b90915550506040516101369062002a3e908790879062004ace565b9081526040805191829003602090810183206001600160a01b038086166000908152919092529190912060010154169063dbba0f01908c908a906101359062002a8b908b908b9062004ace565b908152604051908190036020018120600201546001600160e01b031960e086901b16825262002acb9392916001600160a01b039091169060040162004e4f565b600060405180830381600087803b15801562002ae657600080fd5b505af115801562002afb573d6000803e3d6000fd5b50505050610136858560405162002b1492919062004ace565b9081526040805191829003602090810183206001600160a01b038086166000908152919092529190912060010154169063dbba0f01906101359062002b5d908990899062004ace565b908152604051908190036020018120600301546001600160a01b03169089906101359062002b8f908b908b9062004ace565b908152604051908190036020018120600201546001600160e01b031960e086901b16825262002bcf9392916001600160a01b039091169060040162004e4f565b600060405180830381600087803b15801562002bea57600080fd5b505af115801562002bff573d6000803e3d6000fd5b505061012e54604051632770a7eb60e21b81526001600160a01b038e81166004830152602482018d90529091169250639dc29fac9150604401600060405180830381600087803b15801562002c5357600080fd5b505af115801562002c68573d6000803e3d6000fd5b505050507f3b9f5aaaea5eb6df9a429d2bb3b035b934d8cd822d73aa2951ce0afeb6a0ed1681878962002c9c919062004e34565b8a8a62002cb282670de0b6b3a764000062004dd5565b62002cbe919062004df7565b8d8a8a604051620026da979695949392919062004e72565b6000610135838360405162002ced92919062004ace565b908152602001604051809103902060010154905092915050565b60009182526065602090815260408084206001600160a01b0393909316845291905290205460ff1690565b6002609754141562002d585760405162461bcd60e51b81526004016200089d9062004b70565b60026097819055508181610135828260405162002d7792919062004ace565b9081526040519081900360200190206005015460ff1662002dac5760405162461bcd60e51b81526004016200089d9062004ba7565b62002db9858585620036b0565b61012d54604051630292e0fd60e01b81526000916001600160a01b031690630292e0fd9062002def908890889060040162004ebb565b60206040518083038186803b15801562002e0857600080fd5b505afa15801562002e1d573d6000803e3d6000fd5b505050506040513d601f19601f8201168201806040525081019062002e43919062004c71565b90506000806000610135888860405162002e5f92919062004ace565b90815260405190819003602001812060030154632f1b130360e01b82526001600160a01b031690632f1b13039062002e9f908c9060040190815260200190565b60806040518083038186803b15801562002eb857600080fd5b505afa15801562002ecd573d6000803e3d6000fd5b505050506040513d601f19601f8201168201806040525081019062002ef3919062004bde565b50925092509250600160ff16610135898960405162002f1492919062004ace565b90815260405190819003602001812060030154634cbf3e1b60e11b82526001600160a01b03169063997e7c369062002f54908d9060040190815260200190565b60206040518083038186803b15801562002f6d57600080fd5b505afa15801562002f82573d6000803e3d6000fd5b505050506040513d601f19601f8201168201806040525081019062002fa8919062004c15565b60ff161462002fcb5760405162461bcd60e51b81526004016200089d9062004c3a565b6000816101358a8a60405162002fe392919062004ace565b90815260408051602092819003830181206002015463313ce56760e01b825291516001600160a01b039092169263313ce56792600480840193829003018186803b1580156200303157600080fd5b505afa15801562003046573d6000803e3d6000fd5b505050506040513d601f19601f820116820180604052508101906200306c919062004c15565b6200307990601262004ca1565b6200308690600a62004dc4565b8562003093888762004e1a565b6200309f919062004dd5565b620030ab919062004dd5565b620030b7919062004df7565b9050806101358a8a604051620030cf92919062004ace565b90815260200160405180910390206001016000828254620030f1919062004e1a565b9091555050604051610135906200310c908b908b9062004ace565b90815260405190819003602001812060030154635b8503f560e11b8252600482018c905260248201879052604482018690526001600160a01b03169063b70a07ea90606401602060405180830381600087803b1580156200316c57600080fd5b505af115801562003181573d6000803e3d6000fd5b505050506040513d601f19601f82011682018060405250810190620031a7919062004c71565b5061012e54604051632770a7eb60e21b8152336004820152602481018390526001600160a01b0390911690639dc29fac90604401600060405180830381600087803b158015620031f657600080fd5b505af11580156200320b573d6000803e3d6000fd5b505050506000805160206200590e83398151915284868c8c8c604051620026da95949392919062004b48565b61012f546001600160a01b03163314620032945760405162461bcd60e51b815260206004820152601e60248201527f5751526f757465723a204f6e6c7920737572706c75732061756374696f6e000060448201526064016200089d565b826101358383604051620032aa92919062004ace565b90815260200160405180910390206001016000828254620032cc919062004e34565b909155505061012e546040516340c10f1960e01b81526001600160a01b03868116600483015260248201869052909116906340c10f1990604401600060405180830381600087803b1580156200332157600080fd5b505af115801562003336573d6000803e3d6000fd5b5050505050505050565b600080516020620059558339815191526200335c813362003747565b5061012d80546001600160a01b039485166001600160a01b03199182161790915561013080549385169382169390931790925561012f8054919093169116179055565b60006101358383604051620033b692919062004ace565b90815260405190819003602001902054905092915050565b600082815260656020526040902060010154620033ec813362003747565b6200119783836200389c565b6000805160206200595583398151915262003414813362003747565b8561013584846040516200342a92919062004ace565b908152602001604051809103902060020160006101000a8154816001600160a01b0302191690836001600160a01b031602179055508461013584846040516200347592919062004ace565b908152602001604051809103902060030160006101000a8154816001600160a01b0302191690836001600160a01b03160217905550866101358484604051620034c092919062004ace565b908152604051908190036020018120600501805492151560ff1990931692909217909155849061013590620034f9908690869062004ace565b9081526040519081900360200190206004015550505050505050565b6060600061013684846040516200352e92919062004ace565b90815260408051602092819003830190206001600160a01b038a16600090815292529020600201905085620035638262003c80565b6200356f919062004e1a565b851115620035925785620035838262003c80565b6200358f919062004e1a565b94505b846001600160401b03811115620035ad57620035ad620044cd565b604051908082528060200260200182016040528015620035d7578160200160208202803683370190505b50915060005b858110156200363357620035fe620035f6828962004e34565b839062003c8b565b83828151811062003613576200361362004fd9565b6020908102919091010152806200362a8162004fef565b915050620035dd565b505095945050505050565b600080516020620059558339815191526200365a813362003747565b5061013480546001600160a01b0319166001600160a01b0392909216919091179055565b6001600160a01b03163b151590565b60006200369b838362003c99565b9392505050565b60006200369b838362003d9d565b60006101368383604051620036c792919062004ace565b9081526040805160209281900383019020336000908152925290209050620036f3600282018562003def565b620037415760405162461bcd60e51b815260206004820152601760248201527f5751526f757465723a204c6f74206e6f7420666f756e6400000000000000000060448201526064016200089d565b50505050565b62003753828262002d07565b620016f1576200376e816001600160a01b0316601462003e08565b6200377b83602062003e08565b6040516020016200378e9291906200503c565b60408051601f198184030181529082905262461bcd60e51b82526200089d91600401620050b5565b620037c2828262002d07565b620016f15760008281526065602090815260408083206001600160a01b03851684529091529020805460ff19166001179055620037fc3390565b6001600160a01b0316816001600160a01b0316837f2f8788117e7eff1d82e926ec794901d17c78024a50270940304540a733656f0d60405160405180910390a45050565b604080516001600160a01b0385811660248301528416604482015260648082018490528251808303909101815260849091019091526020810180516001600160e01b03166323b872dd60e01b1790526200374190859062003fc1565b620038a8828262002d07565b15620016f15760008281526065602090815260408083206001600160a01b0385168085529252808320805460ff1916905551339285917ff6391f5c32d9c69d2a47ea670b442974b53935d1edc7fd64eb21e047a839171b9190a45050565b600080516020620058ce833981519152620016f1813362003747565b7f4910fdfa16fed3260ed0e7147f7cc6da11a60208b5b9406d12a635614ffd91435460ff1615620039585762001197836200409a565b826001600160a01b03166352d1902d6040518163ffffffff1660e01b815260040160206040518083038186803b1580156200399257600080fd5b505afa925050508015620039c5575060408051601f3d908101601f19168201909252620039c29181019062004c71565b60015b62003a2a5760405162461bcd60e51b815260206004820152602e60248201527f45524331393637557067726164653a206e657720696d706c656d656e7461746960448201526d6f6e206973206e6f74205555505360901b60648201526084016200089d565b600080516020620058ee833981519152811462003a9c5760405162461bcd60e51b815260206004820152602960248201527f45524331393637557067726164653a20756e737570706f727465642070726f786044820152681a58589b195555525160ba1b60648201526084016200089d565b506200119783838362004139565b600054610100900460ff1662003ad45760405162461bcd60e51b81526004016200089d90620050ea565b565b600054610100900460ff1662003b005760405162461bcd60e51b81526004016200089d90620050ea565b62003ad462004164565b620016f18282620037b6565b600082815260656020526040808220600101805490849055905190918391839186917fbd79b86ffe0ab8e8776151514217cd7cacd52c909f66475c3af44e129f0b00ff9190a4505050565b8047101562003bb35760405162461bcd60e51b815260206004820152601d60248201527f416464726573733a20696e73756666696369656e742062616c616e636500000060448201526064016200089d565b6000826001600160a01b03168260405160006040518083038185875af1925050503d806000811462003c02576040519150601f19603f3d011682016040523d82523d6000602084013e62003c07565b606091505b5050905080620011975760405162461bcd60e51b815260206004820152603a60248201527f416464726573733a20756e61626c6520746f2073656e642076616c75652c207260448201527f6563697069656e74206d6179206861766520726576657274656400000000000060648201526084016200089d565b600062000841825490565b60006200369b838362004195565b6000818152600183016020526040812054801562003d9257600062003cc060018362004e1a565b855490915060009062003cd69060019062004e1a565b905081811462003d4257600086600001828154811062003cfa5762003cfa62004fd9565b906000526020600020015490508087600001848154811062003d205762003d2062004fd9565b6000918252602080832090910192909255918252600188019052604090208390555b855486908062003d565762003d5662005135565b60019003818190600052602060002001600090559055856001016000868152602001908152602001600020600090556001935050505062000841565b600091505062000841565b600081815260018301602052604081205462003de65750815460018181018455600084815260208082209093018490558454848252828601909352604090209190915562000841565b50600062000841565b600081815260018301602052604081205415156200369b565b6060600062003e1983600262004dd5565b62003e2690600262004e34565b6001600160401b0381111562003e405762003e40620044cd565b6040519080825280601f01601f19166020018201604052801562003e6b576020820181803683370190505b509050600360fc1b8160008151811062003e895762003e8962004fd9565b60200101906001600160f81b031916908160001a905350600f60fb1b8160018151811062003ebb5762003ebb62004fd9565b60200101906001600160f81b031916908160001a905350600062003ee184600262004dd5565b62003eee90600162004e34565b90505b600181111562003f70576f181899199a1a9b1b9c1cb0b131b232b360811b85600f166010811062003f265762003f2662004fd9565b1a60f81b82828151811062003f3f5762003f3f62004fd9565b60200101906001600160f81b031916908160001a90535060049490941c9362003f68816200514b565b905062003ef1565b5083156200369b5760405162461bcd60e51b815260206004820181905260248201527f537472696e67733a20686578206c656e67746820696e73756666696369656e7460448201526064016200089d565b600062004018826040518060400160405280602081526020017f5361666545524332303a206c6f772d6c6576656c2063616c6c206661696c6564815250856001600160a01b0316620041c29092919063ffffffff16565b80519091501562001197578080602001905181019062004039919062005165565b620011975760405162461bcd60e51b815260206004820152602a60248201527f5361666545524332303a204552433230206f7065726174696f6e20646964206e6044820152691bdd081cdd58d8d9595960b21b60648201526084016200089d565b6001600160a01b0381163b620041095760405162461bcd60e51b815260206004820152602d60248201527f455243313936373a206e657720696d706c656d656e746174696f6e206973206e60448201526c1bdd08184818dbdb9d1c9858dd609a1b60648201526084016200089d565b600080516020620058ee83398151915280546001600160a01b0319166001600160a01b0392909216919091179055565b6200414483620041db565b600082511180620041525750805b1562001197576200374183836200421d565b600054610100900460ff166200418e5760405162461bcd60e51b81526004016200089d90620050ea565b6001609755565b6000826000018281548110620041af57620041af62004fd9565b9060005260206000200154905092915050565b6060620041d384846000856200431a565b949350505050565b620041e6816200409a565b6040516001600160a01b038216907fbc7cd75a20ee27fd9adebab32041f755214dbc6bffa90cc0225b39da2e5c2d3b90600090a250565b60606001600160a01b0383163b620042875760405162461bcd60e51b815260206004820152602660248201527f416464726573733a2064656c65676174652063616c6c20746f206e6f6e2d636f6044820152651b9d1c9858dd60d21b60648201526084016200089d565b600080846001600160a01b031684604051620042a4919062005185565b600060405180830381855af49150503d8060008114620042e1576040519150601f19603f3d011682016040523d82523d6000602084013e620042e6565b606091505b50915091506200431182826040518060600160405280602781526020016200592e6027913962004455565b95945050505050565b6060824710156200437d5760405162461bcd60e51b815260206004820152602660248201527f416464726573733a20696e73756666696369656e742062616c616e636520666f6044820152651c8818d85b1b60d21b60648201526084016200089d565b6001600160a01b0385163b620043d65760405162461bcd60e51b815260206004820152601d60248201527f416464726573733a2063616c6c20746f206e6f6e2d636f6e747261637400000060448201526064016200089d565b600080866001600160a01b03168587604051620043f4919062005185565b60006040518083038185875af1925050503d806000811462004433576040519150601f19603f3d011682016040523d82523d6000602084013e62004438565b606091505b50915091506200444a82828662004455565b979650505050505050565b60608315620044665750816200369b565b825115620044775782518084602001fd5b8160405162461bcd60e51b81526004016200089d9190620050b5565b61072a80620051a483390190565b600060208284031215620044b457600080fd5b81356001600160e01b0319811681146200369b57600080fd5b634e487b7160e01b600052604160045260246000fd5b60006001600160401b0380841115620045005762004500620044cd565b604051601f8501601f19908116603f011681019082821181831017156200452b576200452b620044cd565b816040528093508581528686860111156200454557600080fd5b858560208301376000602087830101525050509392505050565b6000602082840312156200457257600080fd5b81356001600160401b038111156200458957600080fd5b8201601f810184136200459b57600080fd5b620041d384823560208401620044e3565b6001600160a01b0381168114620017de57600080fd5b60008083601f840112620045d557600080fd5b5081356001600160401b03811115620045ed57600080fd5b6020830191508360208285010111156200460657600080fd5b9250929050565b600080600080600080600060c0888a0312156200462957600080fd5b87356200463681620045ac565b96506020880135955060408801359450606088013593506080880135925060a08801356001600160401b038111156200466e57600080fd5b6200467c8a828b01620045c2565b989b979a50959850939692959293505050565b60008060008060608587031215620046a657600080fd5b843593506020850135925060408501356001600160401b03811115620046cb57600080fd5b620046d987828801620045c2565b95989497509550505050565b600060208284031215620046f857600080fd5b5035919050565b600080604083850312156200471357600080fd5b8235915060208301356200472781620045ac565b809150509250929050565b6000806000604084860312156200474857600080fd5b8335925060208401356001600160401b038111156200476657600080fd5b6200477486828701620045c2565b9497909650939450505050565b6000602082840312156200479457600080fd5b81356200369b81620045ac565b600080600060608486031215620047b757600080fd5b505081359360208301359350604090920135919050565b60008060408385031215620047e257600080fd5b8235620047ef81620045ac565b915060208301356001600160401b038111156200480b57600080fd5b8301601f810185136200481d57600080fd5b6200482e85823560208401620044e3565b9150509250929050565b600080600080600060a086880312156200485157600080fd5b85356200485e81620045ac565b945060208601356200487081620045ac565b9350604086013592506060860135915060808601356200489081620045ac565b809150509295509295909350565b600080600080600060808688031215620048b757600080fd5b8535620048c481620045ac565b9450602086013593506040860135925060608601356001600160401b03811115620048ee57600080fd5b620048fc88828901620045c2565b969995985093965092949392505050565b600080602083850312156200492157600080fd5b82356001600160401b038111156200493857600080fd5b6200494685828601620045c2565b90969095509350505050565b600080600080606085870312156200496957600080fd5b84356200497681620045ac565b93506020850135925060408501356001600160401b03811115620046cb57600080fd5b600080600060608486031215620049af57600080fd5b8335620049bc81620045ac565b92506020840135620049ce81620045ac565b91506040840135620049e081620045ac565b809150509250925092565b8015158114620017de57600080fd5b60008060008060008060a0878903121562004a1457600080fd5b863562004a2181620049eb565b9550602087013562004a3381620045ac565b9450604087013562004a4581620045ac565b93506060870135925060808701356001600160401b0381111562004a6857600080fd5b62004a7689828a01620045c2565b979a9699509497509295939492505050565b6020808252825182820181905260009190848201906040850190845b8181101562004ac25783518352928401929184019160010162004aa4565b50909695505050505050565b8183823760009101908152919050565b60208082526021908201527f5751526f757465723a204f6e6c7920636f6c6c61746572616c2061756374696f6040820152603760f91b606082015260800190565b81835281816020850137506000828201602090810191909152601f909101601f19169091010190565b8581528460208201528360408201526080606082015260006200444a60808301848662004b1f565b6020808252601f908201527f5265656e7472616e637947756172643a207265656e7472616e742063616c6c00604082015260600190565b60208082526017908201527f5751526f757465723a20546f6b656e20646961626c6564000000000000000000604082015260600190565b6000806000806080858703121562004bf557600080fd5b505082516020840151604085015160609095015191969095509092509050565b60006020828403121562004c2857600080fd5b815160ff811681146200369b57600080fd5b60208082526018908201527f5751526f757465723a20537461747573206e6f74206e65770000000000000000604082015260600190565b60006020828403121562004c8457600080fd5b5051919050565b634e487b7160e01b600052601160045260246000fd5b600060ff821660ff84168082101562004cbe5762004cbe62004c8b565b90039392505050565b600181815b8085111562004d0857816000190482111562004cec5762004cec62004c8b565b8085161562004cfa57918102915b93841c939080029062004ccc565b509250929050565b60008262004d215750600162000841565b8162004d305750600062000841565b816001811462004d49576002811462004d545762004d74565b600191505062000841565b60ff84111562004d685762004d6862004c8b565b50506001821b62000841565b5060208310610133831016604e8410600b841016171562004d99575081810a62000841565b62004da5838362004cc7565b806000190482111562004dbc5762004dbc62004c8b565b029392505050565b60006200369b60ff84168362004d10565b600081600019048311821515161562004df25762004df262004c8b565b500290565b60008262004e1557634e487b7160e01b600052601260045260246000fd5b500490565b60008282101562004e2f5762004e2f62004c8b565b500390565b6000821982111562004e4a5762004e4a62004c8b565b500190565b6001600160a01b0393841681526020810192909252909116604082015260600190565b60018060a01b038816815286602082015285604082015284606082015283608082015260c060a0820152600062004eae60c08301848662004b1f565b9998505050505050505050565b602081526000620041d360208301848662004b1f565b6020808252602c908201527f46756e6374696f6e206d7573742062652063616c6c6564207468726f7567682060408201526b19195b1959d85d1958d85b1b60a21b606082015260800190565b6020808252602c908201527f46756e6374696f6e206d7573742062652063616c6c6564207468726f7567682060408201526b6163746976652070726f787960a01b606082015260800190565b60018060a01b03891681528760208201528660408201528560608201528460808201528360a082015260e060c0820152600062004fab60e08301848662004b1f565b9a9950505050505050505050565b60006020828403121562004fcc57600080fd5b81516200369b81620045ac565b634e487b7160e01b600052603260045260246000fd5b600060001982141562005006576200500662004c8b565b5060010190565b60005b838110156200502a57818101518382015260200162005010565b83811115620037415750506000910152565b7f416363657373436f6e74726f6c3a206163636f756e7420000000000000000000815260008351620050768160178501602088016200500d565b7001034b99036b4b9b9b4b733903937b6329607d1b6017918401918201528351620050a98160288401602088016200500d565b01602801949350505050565b6020815260008251806020840152620050d68160408501602087016200500d565b601f01601f19169190910160400192915050565b6020808252602b908201527f496e697469616c697a61626c653a20636f6e7472616374206973206e6f74206960408201526a6e697469616c697a696e6760a81b606082015260800190565b634e487b7160e01b600052603160045260246000fd5b6000816200515d576200515d62004c8b565b506000190190565b6000602082840312156200517857600080fd5b81516200369b81620049eb565b60008251620051998184602087016200500d565b919091019291505056fe608060405234801561001057600080fd5b5060405161072a38038061072a83398101604081905261002f91610062565b60008054336001600160a01b031991821617909155600180549091166001600160a01b0392909216919091179055610092565b60006020828403121561007457600080fd5b81516001600160a01b038116811461008b57600080fd5b9392505050565b610689806100a16000396000f3fe608060405234801561001057600080fd5b50600436106100415760003560e01c80638da5cb5b14610046578063dbba0f0114610075578063f887ea401461008a575b600080fd5b600154610059906001600160a01b031681565b6040516001600160a01b03909116815260200160405180910390f35b610088610083366004610570565b61009d565b005b600054610059906001600160a01b031681565b6000546001600160a01b031633146101085760405162461bcd60e51b815260206004820152602360248201527f5751526f757465725661756c743a2053656e646572206973206e6f7420726f756044820152623a32b960e91b60648201526084015b60405180910390fd5b6001600160a01b038116156101305761012b6001600160a01b0382168484610193565b610143565b6101436001600160a01b038416836101ea565b604080516001600160a01b038084168252851660208201529081018390527fd1ba4ac2e2a11b5101f6cb4d978f514a155b421e8ec396d2d9abaf0bb02917ee9060600160405180910390a1505050565b604080516001600160a01b038416602482015260448082018490528251808303909101815260649091019091526020810180516001600160e01b031663a9059cbb60e01b1790526101e5908490610303565b505050565b8047101561023a5760405162461bcd60e51b815260206004820152601d60248201527f416464726573733a20696e73756666696369656e742062616c616e636500000060448201526064016100ff565b6000826001600160a01b03168260405160006040518083038185875af1925050503d8060008114610287576040519150601f19603f3d011682016040523d82523d6000602084013e61028c565b606091505b50509050806101e55760405162461bcd60e51b815260206004820152603a60248201527f416464726573733a20756e61626c6520746f2073656e642076616c75652c207260448201527f6563697069656e74206d6179206861766520726576657274656400000000000060648201526084016100ff565b6000610358826040518060400160405280602081526020017f5361666545524332303a206c6f772d6c6576656c2063616c6c206661696c6564815250856001600160a01b03166103d59092919063ffffffff16565b8051909150156101e5578080602001905181019061037691906105b2565b6101e55760405162461bcd60e51b815260206004820152602a60248201527f5361666545524332303a204552433230206f7065726174696f6e20646964206e6044820152691bdd081cdd58d8d9595960b21b60648201526084016100ff565b60606103e484846000856103ee565b90505b9392505050565b60608247101561044f5760405162461bcd60e51b815260206004820152602660248201527f416464726573733a20696e73756666696369656e742062616c616e636520666f6044820152651c8818d85b1b60d21b60648201526084016100ff565b6001600160a01b0385163b6104a65760405162461bcd60e51b815260206004820152601d60248201527f416464726573733a2063616c6c20746f206e6f6e2d636f6e747261637400000060448201526064016100ff565b600080866001600160a01b031685876040516104c29190610604565b60006040518083038185875af1925050503d80600081146104ff576040519150601f19603f3d011682016040523d82523d6000602084013e610504565b606091505b509150915061051482828661051f565b979650505050505050565b6060831561052e5750816103e7565b82511561053e5782518084602001fd5b8160405162461bcd60e51b81526004016100ff9190610620565b6001600160a01b038116811461056d57600080fd5b50565b60008060006060848603121561058557600080fd5b833561059081610558565b92506020840135915060408401356105a781610558565b809150509250925092565b6000602082840312156105c457600080fd5b815180151581146103e757600080fd5b60005b838110156105ef5781810151838201526020016105d7565b838111156105fe576000848401525b50505050565b600082516106168184602087016105d4565b9190910192915050565b602081526000825180602084015261063f8160408501602087016105d4565b601f01601f1916919091016040019291505056fea2646970667358221220f9599cb443d118d129a11e97dea91cb2df9e7c8ddbd8811c90f86e43dc8f329564736f6c63430008090033189ab7a9244df0848122154315af71fe140f3db0fe014031783b0946b8c9d2e3360894a13ba1a3210667c828492db98dca3e2076cc3735a920a3ca505d382bbc5ea8e551d95a3ff26f000b92fd450f3b6d3435fc32efcd011e28d25238fc734e416464726573733a206c6f772d6c6576656c2064656c65676174652063616c6c206661696c6564a49807205ce4d355092ef5a8a18f56e8913cf4a201fbe287825b095693c21775a26469706673582212208b27a96cc9835877bf893d63f22c1d503e3ed0e9a9d0fbd6fdc0a97ea53a9d6264736f6c63430008090033",
  "linkReferences": {},
  "deployedLinkReferences": {}
}