{
  "_format": "hh-sol-artifact-1",
  "contractName": "WQRouter",
  "sourceName": "contracts/stablecoin/WQRouter.sol",
  "abi": [
    {
      "inputs": [],
      "stateMutability": "nonpayable",
      "type": "constructor"
    },
    {
      "anonymous": false,
      "inputs": [
        {
          "indexed": false,
          "internalType": "address",
          "name": "previousAdmin",
          "type": "address"
        },
        {
          "indexed": false,
          "internalType": "address",
          "name": "newAdmin",
          "type": "address"
        }
      ],
      "name": "AdminChanged",
      "type": "event"
    },
    {
      "anonymous": false,
      "inputs": [
        {
          "indexed": true,
          "internalType": "address",
          "name": "beacon",
          "type": "address"
        }
      ],
      "name": "BeaconUpgraded",
      "type": "event"
    },
    {
      "anonymous": false,
      "inputs": [
        {
          "indexed": false,
          "internalType": "uint256",
          "name": "collateral",
          "type": "uint256"
        },
        {
          "indexed": false,
          "internalType": "uint256",
          "name": "debt",
          "type": "uint256"
        },
        {
          "indexed": false,
          "internalType": "uint256",
          "name": "price",
          "type": "uint256"
        },
        {
          "indexed": false,
          "internalType": "uint256",
          "name": "index",
          "type": "uint256"
        },
        {
          "indexed": false,
          "internalType": "uint256",
          "name": "newIndex",
          "type": "uint256"
        },
        {
          "indexed": false,
          "internalType": "uint8",
          "name": "status",
          "type": "uint8"
        },
        {
          "indexed": false,
          "internalType": "string",
          "name": "symbol",
          "type": "string"
        }
      ],
      "name": "Moved",
      "type": "event"
    },
    {
      "anonymous": false,
      "inputs": [
        {
          "indexed": false,
          "internalType": "address",
          "name": "user",
          "type": "address"
        },
        {
          "indexed": false,
          "internalType": "uint256",
          "name": "collateral",
          "type": "uint256"
        },
        {
          "indexed": false,
          "internalType": "uint256",
          "name": "ratio",
          "type": "uint256"
        },
        {
          "indexed": false,
          "internalType": "uint256",
          "name": "debt",
          "type": "uint256"
        },
        {
          "indexed": false,
          "internalType": "uint256",
          "name": "price",
          "type": "uint256"
        },
        {
          "indexed": false,
          "internalType": "uint256",
          "name": "index",
          "type": "uint256"
        },
        {
          "indexed": false,
          "internalType": "string",
          "name": "symbol",
          "type": "string"
        }
      ],
      "name": "Produced",
      "type": "event"
    },
    {
      "anonymous": false,
      "inputs": [
        {
          "indexed": false,
          "internalType": "uint256",
          "name": "amount",
          "type": "uint256"
        }
      ],
      "name": "Received",
      "type": "event"
    },
    {
      "anonymous": false,
      "inputs": [
        {
          "indexed": false,
          "internalType": "address",
          "name": "user",
          "type": "address"
        },
        {
          "indexed": false,
          "internalType": "uint256",
          "name": "collateral",
          "type": "uint256"
        },
        {
          "indexed": false,
          "internalType": "uint256",
          "name": "debt",
          "type": "uint256"
        },
        {
          "indexed": false,
          "internalType": "uint256",
          "name": "price",
          "type": "uint256"
        },
        {
          "indexed": false,
          "internalType": "uint256",
          "name": "ratio",
          "type": "uint256"
        },
        {
          "indexed": false,
          "internalType": "uint256",
          "name": "index",
          "type": "uint256"
        },
        {
          "indexed": false,
          "internalType": "string",
          "name": "symbol",
          "type": "string"
        }
      ],
      "name": "Removed",
      "type": "event"
    },
    {
      "anonymous": false,
      "inputs": [
        {
          "indexed": true,
          "internalType": "bytes32",
          "name": "role",
          "type": "bytes32"
        },
        {
          "indexed": true,
          "internalType": "bytes32",
          "name": "previousAdminRole",
          "type": "bytes32"
        },
        {
          "indexed": true,
          "internalType": "bytes32",
          "name": "newAdminRole",
          "type": "bytes32"
        }
      ],
      "name": "RoleAdminChanged",
      "type": "event"
    },
    {
      "anonymous": false,
      "inputs": [
        {
          "indexed": true,
          "internalType": "bytes32",
          "name": "role",
          "type": "bytes32"
        },
        {
          "indexed": true,
          "internalType": "address",
          "name": "account",
          "type": "address"
        },
        {
          "indexed": true,
          "internalType": "address",
          "name": "sender",
          "type": "address"
        }
      ],
      "name": "RoleGranted",
      "type": "event"
    },
    {
      "anonymous": false,
      "inputs": [
        {
          "indexed": true,
          "internalType": "bytes32",
          "name": "role",
          "type": "bytes32"
        },
        {
          "indexed": true,
          "internalType": "address",
          "name": "account",
          "type": "address"
        },
        {
          "indexed": true,
          "internalType": "address",
          "name": "sender",
          "type": "address"
        }
      ],
      "name": "RoleRevoked",
      "type": "event"
    },
    {
      "anonymous": false,
      "inputs": [
        {
          "indexed": true,
          "internalType": "address",
          "name": "implementation",
          "type": "address"
        }
      ],
      "name": "Upgraded",
      "type": "event"
    },
    {
      "inputs": [],
      "name": "ADMIN_ROLE",
      "outputs": [
        {
          "internalType": "bytes32",
          "name": "",
          "type": "bytes32"
        }
      ],
      "stateMutability": "view",
      "type": "function"
    },
    {
      "inputs": [],
      "name": "DEFAULT_ADMIN_ROLE",
      "outputs": [
        {
          "internalType": "bytes32",
          "name": "",
          "type": "bytes32"
        }
      ],
      "stateMutability": "view",
      "type": "function"
    },
    {
      "inputs": [],
      "name": "UPGRADER_ROLE",
      "outputs": [
        {
          "internalType": "bytes32",
          "name": "",
          "type": "bytes32"
        }
      ],
      "stateMutability": "view",
      "type": "function"
    },
    {
      "inputs": [
        {
          "internalType": "uint256",
          "name": "index",
          "type": "uint256"
        },
        {
          "internalType": "string",
          "name": "symbol",
          "type": "string"
        }
      ],
      "name": "addCollateral",
      "outputs": [],
      "stateMutability": "nonpayable",
      "type": "function"
    },
    {
      "inputs": [
        {
          "internalType": "address",
          "name": "buyer",
          "type": "address"
        },
        {
          "internalType": "uint256",
          "name": "index",
          "type": "uint256"
        },
        {
          "internalType": "uint256",
          "name": "debtAmount",
          "type": "uint256"
        },
        {
          "internalType": "uint256",
          "name": "collateralAmount",
          "type": "uint256"
        },
        {
          "internalType": "string",
          "name": "symbol",
          "type": "string"
        }
      ],
      "name": "buyCollateral",
      "outputs": [],
      "stateMutability": "nonpayable",
      "type": "function"
    },
    {
      "inputs": [
        {
          "internalType": "uint256",
          "name": "index",
          "type": "uint256"
        },
        {
          "internalType": "string",
          "name": "symbol",
          "type": "string"
        }
      ],
      "name": "claimExtraDebt",
      "outputs": [],
      "stateMutability": "nonpayable",
      "type": "function"
    },
    {
      "inputs": [
        {
          "internalType": "uint256",
          "name": "index",
          "type": "uint256"
        },
        {
          "internalType": "string",
          "name": "symbol",
          "type": "string"
        }
      ],
      "name": "disposeDebt",
      "outputs": [],
      "stateMutability": "nonpayable",
      "type": "function"
    },
    {
      "inputs": [],
      "name": "getParams",
      "outputs": [
        {
          "internalType": "contract WQPriceOracleInterface",
          "name": "",
          "type": "address"
        },
        {
          "internalType": "contract WQBridgeTokenInterface",
          "name": "",
          "type": "address"
        },
        {
          "internalType": "address payable",
          "name": "",
          "type": "address"
        }
      ],
      "stateMutability": "view",
      "type": "function"
    },
    {
      "inputs": [
        {
          "internalType": "bytes32",
          "name": "role",
          "type": "bytes32"
        }
      ],
      "name": "getRoleAdmin",
      "outputs": [
        {
          "internalType": "bytes32",
          "name": "",
          "type": "bytes32"
        }
      ],
      "stateMutability": "view",
      "type": "function"
    },
    {
      "inputs": [
        {
          "internalType": "address",
          "name": "user",
          "type": "address"
        },
        {
          "internalType": "uint256",
          "name": "offset",
          "type": "uint256"
        },
        {
          "internalType": "uint256",
          "name": "limit",
          "type": "uint256"
        },
        {
          "internalType": "string",
          "name": "symbol",
          "type": "string"
        }
      ],
      "name": "getUserLots",
      "outputs": [
        {
          "internalType": "uint256[]",
          "name": "page",
          "type": "uint256[]"
        }
      ],
      "stateMutability": "view",
      "type": "function"
    },
    {
      "inputs": [
        {
          "internalType": "bytes32",
          "name": "role",
          "type": "bytes32"
        },
        {
          "internalType": "address",
          "name": "account",
          "type": "address"
        }
      ],
      "name": "grantRole",
      "outputs": [],
      "stateMutability": "nonpayable",
      "type": "function"
    },
    {
      "inputs": [
        {
          "internalType": "bytes32",
          "name": "role",
          "type": "bytes32"
        },
        {
          "internalType": "address",
          "name": "account",
          "type": "address"
        }
      ],
      "name": "hasRole",
      "outputs": [
        {
          "internalType": "bool",
          "name": "",
          "type": "bool"
        }
      ],
      "stateMutability": "view",
      "type": "function"
    },
    {
      "inputs": [
        {
          "internalType": "address",
          "name": "_oracle",
          "type": "address"
        },
        {
          "internalType": "address",
          "name": "_wusd",
          "type": "address"
        },
        {
          "internalType": "address payable",
          "name": "_feeReceiver",
          "type": "address"
        }
      ],
      "name": "initialize",
      "outputs": [],
      "stateMutability": "nonpayable",
      "type": "function"
    },
    {
      "inputs": [
        {
          "internalType": "address",
          "name": "user",
          "type": "address"
        },
        {
          "internalType": "uint256",
          "name": "collateral",
          "type": "uint256"
        },
        {
          "internalType": "uint256",
          "name": "price",
          "type": "uint256"
        },
        {
          "internalType": "uint256",
          "name": "collateralRatio",
          "type": "uint256"
        },
        {
          "internalType": "uint256",
          "name": "index",
          "type": "uint256"
        },
        {
          "internalType": "uint256",
          "name": "newIndex",
          "type": "uint256"
        },
        {
          "internalType": "string",
          "name": "symbol",
          "type": "string"
        }
      ],
      "name": "moveUserLot",
      "outputs": [],
      "stateMutability": "nonpayable",
      "type": "function"
    },
    {
      "inputs": [
        {
          "internalType": "uint256",
          "name": "collateralAmount",
          "type": "uint256"
        },
        {
          "internalType": "uint256",
          "name": "collateralRatio",
          "type": "uint256"
        },
        {
          "internalType": "string",
          "name": "symbol",
          "type": "string"
        }
      ],
      "name": "produceWUSD",
      "outputs": [],
      "stateMutability": "nonpayable",
      "type": "function"
    },
    {
      "inputs": [],
      "name": "proxiableUUID",
      "outputs": [
        {
          "internalType": "bytes32",
          "name": "",
          "type": "bytes32"
        }
      ],
      "stateMutability": "view",
      "type": "function"
    },
    {
      "inputs": [
        {
          "internalType": "uint256",
          "name": "index",
          "type": "uint256"
        },
        {
          "internalType": "uint256",
          "name": "debtPart",
          "type": "uint256"
        },
        {
          "internalType": "string",
          "name": "symbol",
          "type": "string"
        }
      ],
      "name": "removeCollateral",
      "outputs": [],
      "stateMutability": "nonpayable",
      "type": "function"
    },
    {
      "inputs": [
        {
          "internalType": "bytes32",
          "name": "role",
          "type": "bytes32"
        },
        {
          "internalType": "address",
          "name": "account",
          "type": "address"
        }
      ],
      "name": "renounceRole",
      "outputs": [],
      "stateMutability": "nonpayable",
      "type": "function"
    },
    {
      "inputs": [
        {
          "internalType": "bytes32",
          "name": "role",
          "type": "bytes32"
        },
        {
          "internalType": "address",
          "name": "account",
          "type": "address"
        }
      ],
      "name": "revokeRole",
      "outputs": [],
      "stateMutability": "nonpayable",
      "type": "function"
    },
    {
      "inputs": [
        {
          "internalType": "address",
          "name": "_oracle",
          "type": "address"
        },
        {
          "internalType": "address",
          "name": "_wusd",
          "type": "address"
        },
        {
          "internalType": "address payable",
          "name": "_feeReeiver",
          "type": "address"
        }
      ],
      "name": "setContracts",
      "outputs": [],
      "stateMutability": "nonpayable",
      "type": "function"
    },
    {
      "inputs": [
        {
          "internalType": "bool",
          "name": "enabled",
          "type": "bool"
        },
        {
          "internalType": "address",
          "name": "token",
          "type": "address"
        },
        {
          "internalType": "address",
          "name": "auction",
          "type": "address"
        },
        {
          "internalType": "uint256",
          "name": "minRatio",
          "type": "uint256"
        },
        {
          "internalType": "string",
          "name": "symbol",
          "type": "string"
        }
      ],
      "name": "setToken",
      "outputs": [],
      "stateMutability": "nonpayable",
      "type": "function"
    },
    {
      "inputs": [
        {
          "internalType": "bytes4",
          "name": "interfaceId",
          "type": "bytes4"
        }
      ],
      "name": "supportsInterface",
      "outputs": [
        {
          "internalType": "bool",
          "name": "",
          "type": "bool"
        }
      ],
      "stateMutability": "view",
      "type": "function"
    },
    {
      "inputs": [
        {
          "internalType": "string",
          "name": "",
          "type": "string"
        }
      ],
      "name": "tokens",
      "outputs": [
        {
          "internalType": "address",
          "name": "token",
          "type": "address"
        },
        {
          "internalType": "contract WQCollateralAuction",
          "name": "collateralAuction",
          "type": "address"
        },
        {
          "internalType": "uint256",
          "name": "minRatio",
          "type": "uint256"
        },
        {
          "internalType": "bool",
          "name": "enabled",
          "type": "bool"
        }
      ],
      "stateMutability": "view",
      "type": "function"
    },
    {
      "inputs": [
        {
          "internalType": "address",
          "name": "newImplementation",
          "type": "address"
        }
      ],
      "name": "upgradeTo",
      "outputs": [],
      "stateMutability": "nonpayable",
      "type": "function"
    },
    {
      "inputs": [
        {
          "internalType": "address",
          "name": "newImplementation",
          "type": "address"
        },
        {
          "internalType": "bytes",
          "name": "data",
          "type": "bytes"
        }
      ],
      "name": "upgradeToAndCall",
      "outputs": [],
      "stateMutability": "payable",
      "type": "function"
    },
    {
      "stateMutability": "payable",
      "type": "receive"
    }
  ],
  "bytecode": "0x60a0604052306080523480156200001557600080fd5b50600054610100900460ff16620000335760005460ff16156200003d565b6200003d620000e2565b620000a55760405162461bcd60e51b815260206004820152602e60248201527f496e697469616c697a61626c653a20636f6e747261637420697320616c72656160448201526d191e481a5b9a5d1a585b1a5e995960921b606482015260840160405180910390fd5b600054610100900460ff16158015620000c8576000805461ffff19166101011790555b8015620000db576000805461ff00191690555b506200010f565b6000620000fa306200010060201b620039381760201c565b15905090565b6001600160a01b03163b151590565b608051615b0662000147600039600081816116f30152818161173601528181611dc001528181611e030152611e9b0152615b066000f3fe608060405260043610620001885760003560e01c80635e615a6b11620000e2578063b3066d491162000095578063d547741f116200006c578063d547741f1462000569578063e19af821146200058e578063e1cc246a14620005b3578063f72c0d8b14620005e757600080fd5b8063b3066d4914620004fa578063bb537b50146200051f578063c0c53b8b146200054457600080fd5b80635e615a6b146200040a57806375b238fc146200044f5780637d2bda96146200047457806391d14854146200049957806397bcbf4014620004be578063a217fddf14620004e357600080fd5b806336568abe116200013b57806336568abe14620003475780633659cfe6146200036c5780634493edd714620003915780634f1ef28614620003b657806352d1902d14620003cd57806359880b9514620003e557600080fd5b806301ffc9a714620001c857806304c2320b1462000202578063198a0ac01462000293578063248a9ca314620002ba5780632f2ff15d14620002fd57806331318511146200032257600080fd5b36620001c3576040513481527fa8142743f8f70a4c26f3691cf4ed59718381fb2f18070ec52be1f1022d8555579060200160405180910390a1005b600080fd5b348015620001d557600080fd5b50620001ed620001e736600462004633565b6200060c565b60405190151581526020015b60405180910390f35b3480156200020f57600080fd5b50620002656200022136600462004715565b8051808201602090810180516101308252928201919093012091528054600182015460028301546003909301546001600160a01b0392831693919092169160ff1684565b604080516001600160a01b0395861681529490931660208501529183015215156060820152608001620001f9565b348015620002a057600080fd5b50620002b8620002b23660046200479a565b62000644565b005b348015620002c757600080fd5b50620002ee620002d9366004620047f1565b60009081526065602052604090206001015490565b604051908152602001620001f9565b3480156200030a57600080fd5b50620002b86200031c36600462004821565b62001124565b3480156200032f57600080fd5b50620002b86200034136600462004854565b62001153565b3480156200035457600080fd5b50620002b86200036636600462004821565b62001666565b3480156200037957600080fd5b50620002b86200038b366004620048a4565b620016e8565b3480156200039e57600080fd5b50620002b8620003b03660046200479a565b620017d4565b620002b8620003c7366004620048c4565b62001db5565b348015620003da57600080fd5b50620002ee62001e8e565b348015620003f257600080fd5b50620002b8620004043660046200492f565b62001f44565b3480156200041757600080fd5b5061012d5461012e5461012f54604080516001600160a01b0394851681529284166020840152921691810191909152606001620001f9565b3480156200045c57600080fd5b50620002ee60008051602062005a9183398151915281565b3480156200048157600080fd5b50620002b86200049336600462004854565b6200213b565b348015620004a657600080fd5b50620001ed620004b836600462004821565b620026dd565b348015620004cb57600080fd5b50620002b8620004dd36600462004854565b62002708565b348015620004f057600080fd5b50620002ee600081565b3480156200050757600080fd5b50620002b862000519366004620049b5565b62002cab565b3480156200052c57600080fd5b50620002b86200053e36600462004a07565b62002d0a565b3480156200055157600080fd5b50620002b862000563366004620049b5565b62003540565b3480156200057657600080fd5b50620002b86200058836600462004821565b620036cd565b3480156200059b57600080fd5b50620002b8620005ad36600462004a89565b620036f7565b348015620005c057600080fd5b50620005d8620005d236600462004b18565b6200380e565b604051620001f9919062004b88565b348015620005f457600080fd5b50620002ee60008051602062005a2a83398151915281565b60006001600160e01b03198216637965db0b60e01b14806200063e57506301ffc9a760e01b6001600160e01b03198316145b92915050565b60026097541415620006735760405162461bcd60e51b81526004016200066a9062004bce565b60405180910390fd5b6002609781905550818161013082826040516200069292919062004c05565b9081526040519081900360200190206003015460ff16620006c75760405162461bcd60e51b81526004016200066a9062004c15565b620006d486858562003947565b6000806000806101308888604051620006ef92919062004c05565b90815260408051602092819003830181205463313ce56760e01b825291516001600160a01b039092169263313ce56792600480840193829003018186803b1580156200073a57600080fd5b505afa1580156200074f573d6000803e3d6000fd5b505050506040513d601f19601f8201168201806040525081019062000775919062004c4c565b6200078290601262004c87565b6200078f90600a62004daa565b90506101308888604051620007a692919062004c05565b90815260405190819003602001812060010154632f1b130360e01b82526001600160a01b031690632f1b130390620007e6908d9060040190815260200190565b60606040518083038186803b158015620007ff57600080fd5b505afa15801562000814573d6000803e3d6000fd5b505050506040513d601f19601f820116820180604052508101906200083a919062004dbb565b604051919650919450909250600190610130906200085c908b908b9062004c05565b90815260405190819003602001812060010154634cbf3e1b60e11b82526001600160a01b03169063997e7c36906200089c908e9060040190815260200190565b60206040518083038186803b158015620008b557600080fd5b505afa158015620008ca573d6000803e3d6000fd5b505050506040513d601f19601f82011682018060405250810190620008f0919062004c4c565b60ff1614620009135760405162461bcd60e51b81526004016200066a9062004dea565b8181856101308b8b6040516200092b92919062004c05565b90815260405190819003602001812060010154634823bd5560e01b82526001600160a01b031690634823bd55906200096b90899060040190815260200190565b60206040518083038186803b1580156200098457600080fd5b505afa15801562000999573d6000803e3d6000fd5b505050506040513d601f19601f82011682018060405250810190620009bf919062004e21565b620009cb908762004e3b565b620009d7919062004e55565b620009e3919062004e55565b620009ef919062004e77565b89111562000a5d5760405162461bcd60e51b815260206004820152603460248201527f5751526f757465723a2052656d6f7665642064656274207061727420697320676044820152731c99585d195c881d1a185b88185b1b081919589d60621b60648201526084016200066a565b6000818562000a6d858d62004e55565b62000a79919062004e77565b62000a85919062004e77565b9050610130898960405162000a9c92919062004c05565b90815260405190819003602001812060010154634823bd5560e01b82526001600160a01b031690634823bd559062000adc90849060040190815260200190565b60206040518083038186803b15801562000af557600080fd5b505afa15801562000b0a573d6000803e3d6000fd5b505050506040513d601f19601f8201168201806040525081019062000b30919062004e21565b62000b3c908262004e9a565b905060006101318a8a60405162000b5592919062004c05565b90815260408051918290036020908101832033600090815291522091506101309062000b85908c908c9062004c05565b9081526040519081900360200181206001015463d0896c5560e01b82526001600160a01b03169063d0896c559062000bcc908f908690600401918252602082015260400190565b602060405180830381600087803b15801562000be757600080fd5b505af115801562000bfc573d6000803e3d6000fd5b505050506040513d601f19601f8201168201806040525081019062000c22919062004e21565b62000c685762000c668c6101318c8c60405162000c4192919062004c05565b90815260408051602092819003830190203360009081529252902060010190620039d4565b505b62000c74828662004e3b565b94508060000160009054906101000a90046001600160a01b03166001600160a01b031663dbba0f0133846101308e8e60405162000cb392919062004c05565b908152604051908190036020018120546001600160e01b031960e086901b16825262000cf09392916001600160a01b039091169060040162004eb5565b600060405180830381600087803b15801562000d0b57600080fd5b505af115801562000d20573d6000803e3d6000fd5b505082546040516001600160a01b03909116925063dbba0f0191506101309062000d4e908e908e9062004c05565b908152602001604051809103902060010160009054906101000a90046001600160a01b0316670de0b6b3a7640000856101308f8f60405162000d9292919062004c05565b90815260408051602092819003830181206001015463b188a84960e01b825291516001600160a01b039092169263b188a84992600480840193829003018186803b15801562000de057600080fd5b505afa15801562000df5573d6000803e3d6000fd5b505050506040513d601f19601f8201168201806040525081019062000e1b919062004e21565b62000e27919062004e55565b62000e33919062004e77565b6101308e8e60405162000e4892919062004c05565b908152604051908190036020018120546001600160e01b031960e086901b16825262000e859392916001600160a01b039091169060040162004eb5565b600060405180830381600087803b15801562000ea057600080fd5b505af115801562000eb5573d6000803e3d6000fd5b505050508060000160009054906101000a90046001600160a01b03166001600160a01b031663dbba0f0161012f60009054906101000a90046001600160a01b0316670de0b6b3a7640000856101308f8f60405162000f1592919062004c05565b90815260408051602092819003830181206001015463049cf37160e21b825291516001600160a01b0390921692631273cdc492600480840193829003018186803b15801562000f6357600080fd5b505afa15801562000f78573d6000803e3d6000fd5b505050506040513d601f19601f8201168201806040525081019062000f9e919062004e21565b62000faa919062004e55565b62000fb6919062004e77565b6101308e8e60405162000fcb92919062004c05565b908152604051908190036020018120546001600160e01b031960e086901b168252620010089392916001600160a01b039091169060040162004eb5565b600060405180830381600087803b1580156200102357600080fd5b505af115801562001038573d6000803e3d6000fd5b505061012e54604051632770a7eb60e21b8152336004820152602481018f90526001600160a01b039091169250639dc29fac9150604401600060405180830381600087803b1580156200108a57600080fd5b505af11580156200109f573d6000803e3d6000fd5b5050505050507fcc3f3bf4ebb079856c31b44ccbec64a58ff9c3f04a8d8a846ee9e7c2e0e4c7e1338484848888620010d8919062004e55565b620010e4919062004e55565b620010f0919062004e77565b87868f8e8e6040516200110b98979695949392919062004f01565b60405180910390a1505060016097555050505050505050565b600082815260656020526040902060010154620011428133620039e9565b6200114e838362003a58565b505050565b60026097541415620011795760405162461bcd60e51b81526004016200066a9062004bce565b6002609781905550818161013082826040516200119892919062004c05565b9081526040519081900360200190206003015460ff16620011cd5760405162461bcd60e51b81526004016200066a9062004c15565b620011da85858562003947565b61012d54604051630292e0fd60e01b81526000916001600160a01b031690630292e0fd9062001210908890889060040162004f51565b60206040518083038186803b1580156200122957600080fd5b505afa1580156200123e573d6000803e3d6000fd5b505050506040513d601f19601f8201168201806040525081019062001264919062004e21565b9050600080600061013088886040516200128092919062004c05565b90815260405190819003602001812060010154632f1b130360e01b82526001600160a01b031690632f1b130390620012c0908c9060040190815260200190565b60606040518083038186803b158015620012d957600080fd5b505afa158015620012ee573d6000803e3d6000fd5b505050506040513d601f19601f8201168201806040525081019062001314919062004dbb565b925092509250600160ff1661013089896040516200133492919062004c05565b90815260405190819003602001812060010154634cbf3e1b60e11b82526001600160a01b03169063997e7c369062001374908d9060040190815260200190565b60206040518083038186803b1580156200138d57600080fd5b505afa158015620013a2573d6000803e3d6000fd5b505050506040513d601f19601f82011682018060405250810190620013c8919062004c4c565b60ff1614620013eb5760405162461bcd60e51b81526004016200066a9062004dea565b60008385620013fb828662004e55565b62001407919062004e77565b62001413919062004e3b565b905061013089896040516200142a92919062004c05565b908152604051908190036020019020600101546001600160a01b031663b70a07ea8b8762001459858962004e9a565b6040516001600160e01b031960e086901b168152600481019390935260248301919091526044820152606401602060405180830381600087803b158015620014a057600080fd5b505af1158015620014b5573d6000803e3d6000fd5b505050506040513d601f19601f82011682018060405250810190620014db919062004e21565b5062001553336101318b8b604051620014f692919062004c05565b908152604080519182900360209081018320336000908152915220546001600160a01b03169084906101309062001531908f908f9062004c05565b908152604051908190036020019020546001600160a01b031692919062003ae2565b60008051602062005ab18339815191526200156f828662004e9a565b836101308c8c6040516200158592919062004c05565b90815260408051602092819003830181205463313ce56760e01b825291516001600160a01b039092169263313ce56792600480840193829003018186803b158015620015d057600080fd5b505afa158015620015e5573d6000803e3d6000fd5b505050506040513d601f19601f820116820180604052508101906200160b919062004c4c565b6200161890601262004c87565b6200162590600a62004daa565b62001631888862004e55565b6200163d919062004e55565b62001649919062004e77565b878d8e60028f8f6040516200110b98979695949392919062004f67565b6001600160a01b0381163314620016d85760405162461bcd60e51b815260206004820152602f60248201527f416363657373436f6e74726f6c3a2063616e206f6e6c792072656e6f756e636560448201526e103937b632b9903337b91039b2b63360891b60648201526084016200066a565b620016e4828262003b3e565b5050565b306001600160a01b037f0000000000000000000000000000000000000000000000000000000000000000161415620017345760405162461bcd60e51b81526004016200066a9062004fa4565b7f00000000000000000000000000000000000000000000000000000000000000006001600160a01b03166200177f60008051602062005a4a833981519152546001600160a01b031690565b6001600160a01b031614620017a85760405162461bcd60e51b81526004016200066a9062004ff0565b620017b38162003ba8565b60408051600080825260208201909252620017d19183919062003bc4565b50565b60026097541415620017fa5760405162461bcd60e51b81526004016200066a9062004bce565b6002609781905550818161013082826040516200181992919062004c05565b9081526040519081900360200190206003015460ff166200184e5760405162461bcd60e51b81526004016200066a9062004c15565b61013084846040516200186392919062004c05565b90815260200160405180910390206002015485101580156200190d575061012d54604051630ac1066b60e11b81526001600160a01b03909116906315820cd690620018b5908790879060040162004f51565b60206040518083038186803b158015620018ce57600080fd5b505afa158015620018e3573d6000803e3d6000fd5b505050506040513d601f19601f8201168201806040525081019062001909919062004e21565b8511155b620019665760405162461bcd60e51b815260206004820152602260248201527f5751526f757465723a20496e76616c696420636f6c6c61746572616c20726174604482015261696f60f01b60648201526084016200066a565b61012d54604051630292e0fd60e01b81526000916001600160a01b031690630292e0fd906200199c908890889060040162004f51565b60206040518083038186803b158015620019b557600080fd5b505afa158015620019ca573d6000803e3d6000fd5b505050506040513d601f19601f82011682018060405250810190620019f0919062004e21565b905060006001600160a01b0316610131868660405162001a1292919062004c05565b908152604080516020928190038301902033600090815292529020546001600160a01b0316141562001aca573360405162001a4d9062004625565b6001600160a01b039091168152602001604051809103906000f08015801562001a7a573d6000803e3d6000fd5b50610131868660405162001a9092919062004c05565b90815260408051602092819003830190203360009081529252902080546001600160a01b0319166001600160a01b03929092169190911790555b600086610130878760405162001ae292919062004c05565b90815260408051602092819003830181205463313ce56760e01b825291516001600160a01b039092169263313ce56792600480840193829003018186803b15801562001b2d57600080fd5b505afa15801562001b42573d6000803e3d6000fd5b505050506040513d601f19601f8201168201806040525081019062001b68919062004c4c565b62001b7590601262004c87565b62001b8290600a62004daa565b62001b8e848b62004e55565b62001b9a919062004e55565b62001ba6919062004e77565b90506000610130878760405162001bbf92919062004c05565b9081526040519081900360200181206001015463cc6b3be360e01b825233600483015260248201859052604482018b9052606482018a90526001600160a01b03169063cc6b3be390608401602060405180830381600087803b15801562001c2557600080fd5b505af115801562001c3a573d6000803e3d6000fd5b505050506040513d601f19601f8201168201806040525081019062001c60919062004e21565b905062001ca181610131898960405162001c7c92919062004c05565b9081526040805160209281900383019020336000908152925290206001019062003d4c565b5062001cf733610131898960405162001cbc92919062004c05565b908152604080519182900360209081018320336000908152915220546001600160a01b0316908c906101309062001531908d908d9062004c05565b61012e546040516340c10f1960e01b8152336004820152602481018490526001600160a01b03909116906340c10f1990604401600060405180830381600087803b15801562001d4557600080fd5b505af115801562001d5a573d6000803e3d6000fd5b505050507f0cd37c976baaad20e50f369a7000baf6b6c37b632190cba4a51372e76c9476ad338a8a8587868d8d60405162001d9d98979695949392919062004f01565b60405180910390a15050600160975550505050505050565b306001600160a01b037f000000000000000000000000000000000000000000000000000000000000000016141562001e015760405162461bcd60e51b81526004016200066a9062004fa4565b7f00000000000000000000000000000000000000000000000000000000000000006001600160a01b031662001e4c60008051602062005a4a833981519152546001600160a01b031690565b6001600160a01b03161462001e755760405162461bcd60e51b81526004016200066a9062004ff0565b62001e808262003ba8565b620016e48282600162003bc4565b6000306001600160a01b037f0000000000000000000000000000000000000000000000000000000000000000161462001f305760405162461bcd60e51b815260206004820152603860248201527f555550535570677261646561626c653a206d757374206e6f742062652063616c60448201527f6c6564207468726f7567682064656c656761746563616c6c000000000000000060648201526084016200066a565b5060008051602062005a4a83398151915290565b806101308160405162001f5891906200506b565b90815260405190819003602001902060010154336001600160a01b039091161462001f975760405162461bcd60e51b81526004016200066a9062005089565b62001fdd846101318460405162001faf91906200506b565b90815260408051602092819003830190206001600160a01b038d1660009081529252902060010190620039d4565b5062002024836101318460405162001ff691906200506b565b90815260408051602092819003830190206001600160a01b038d166000908152925290206001019062003d4c565b5060008051602062005ab18339815191528786610130856040516200204a91906200506b565b90815260408051602092819003830181205463313ce56760e01b825291516001600160a01b039092169263313ce56792600480840193829003018186803b1580156200209557600080fd5b505afa158015620020aa573d6000803e3d6000fd5b505050506040513d601f19601f82011682018060405250810190620020d0919062004c4c565b620020dd90601262004c87565b620020ea90600a62004daa565b620020f68a8c62004e55565b62002102919062004e55565b6200210e919062004e77565b888787600388604051620021299796959493929190620050f8565b60405180910390a15050505050505050565b60026097541415620021615760405162461bcd60e51b81526004016200066a9062004bce565b6002609781905550818161013082826040516200218092919062004c05565b9081526040519081900360200190206003015460ff16620021b55760405162461bcd60e51b81526004016200066a9062004c15565b620021c285858562003947565b61012d54604051630292e0fd60e01b81526000916001600160a01b031690630292e0fd90620021f8908890889060040162004f51565b60206040518083038186803b1580156200221157600080fd5b505afa15801562002226573d6000803e3d6000fd5b505050506040513d601f19601f820116820180604052508101906200224c919062004e21565b9050600080600061013088886040516200226892919062004c05565b90815260405190819003602001812060010154632f1b130360e01b82526001600160a01b031690632f1b130390620022a8908c9060040190815260200190565b60606040518083038186803b158015620022c157600080fd5b505afa158015620022d6573d6000803e3d6000fd5b505050506040513d601f19601f82011682018060405250810190620022fc919062004dbb565b925092509250600160ff1661013089896040516200231c92919062004c05565b90815260405190819003602001812060010154634cbf3e1b60e11b82526001600160a01b03169063997e7c36906200235c908d9060040190815260200190565b60206040518083038186803b1580156200237557600080fd5b505afa1580156200238a573d6000803e3d6000fd5b505050506040513d601f19601f82011682018060405250810190620023b0919062004c4c565b60ff1614620023d35760405162461bcd60e51b81526004016200066a9062004dea565b6000816101308a8a604051620023eb92919062004c05565b90815260408051602092819003830181205463313ce56760e01b825291516001600160a01b039092169263313ce56792600480840193829003018186803b1580156200243657600080fd5b505afa1580156200244b573d6000803e3d6000fd5b505050506040513d601f19601f8201168201806040525081019062002471919062004c4c565b6200247e90601262004c87565b6200248b90600a62004daa565b8562002498868962004e3b565b620024a4919062004e55565b620024b0919062004e55565b620024bc919062004e77565b61012e546040516340c10f1960e01b8152336004820152602481018390529192506001600160a01b0316906340c10f1990604401600060405180830381600087803b1580156200250b57600080fd5b505af115801562002520573d6000803e3d6000fd5b5050505061013089896040516200253992919062004c05565b90815260405190819003602001812060010154635b8503f560e11b8252600482018c905260248201879052604482018690526001600160a01b03169063b70a07ea90606401602060405180830381600087803b1580156200259957600080fd5b505af1158015620025ae573d6000803e3d6000fd5b505050506040513d601f19601f82011682018060405250810190620025d4919062004e21565b5060008051602062005ab183398151915284836101308c8c604051620025fc92919062004c05565b90815260408051602092819003830181205463313ce56760e01b825291516001600160a01b039092169263313ce56792600480840193829003018186803b1580156200264757600080fd5b505afa1580156200265c573d6000803e3d6000fd5b505050506040513d601f19601f8201168201806040525081019062002682919062004c4c565b6200268f90601262004c87565b6200269c90600a62004daa565b620026a8898962004e55565b620026b4919062004e55565b620026c0919062004e77565b878d8e60008f8f6040516200110b98979695949392919062004f67565b60009182526065602090815260408084206001600160a01b0393909316845291905290205460ff1690565b600260975414156200272e5760405162461bcd60e51b81526004016200066a9062004bce565b6002609781905550818161013082826040516200274d92919062004c05565b9081526040519081900360200190206003015460ff16620027825760405162461bcd60e51b81526004016200066a9062004c15565b6200278f85858562003947565b61012d54604051630292e0fd60e01b81526000916001600160a01b031690630292e0fd90620027c5908890889060040162004f51565b60206040518083038186803b158015620027de57600080fd5b505afa158015620027f3573d6000803e3d6000fd5b505050506040513d601f19601f8201168201806040525081019062002819919062004e21565b9050600080600061013088886040516200283592919062004c05565b90815260405190819003602001812060010154632f1b130360e01b82526001600160a01b031690632f1b13039062002875908c9060040190815260200190565b60606040518083038186803b1580156200288e57600080fd5b505afa158015620028a3573d6000803e3d6000fd5b505050506040513d601f19601f82011682018060405250810190620028c9919062004dbb565b925092509250600160ff166101308989604051620028e992919062004c05565b90815260405190819003602001812060010154634cbf3e1b60e11b82526001600160a01b03169063997e7c369062002929908d9060040190815260200190565b60206040518083038186803b1580156200294257600080fd5b505afa15801562002957573d6000803e3d6000fd5b505050506040513d601f19601f820116820180604052508101906200297d919062004c4c565b60ff1614620029a05760405162461bcd60e51b81526004016200066a9062004dea565b6000816101308a8a604051620029b892919062004c05565b90815260408051602092819003830181205463313ce56760e01b825291516001600160a01b039092169263313ce56792600480840193829003018186803b15801562002a0357600080fd5b505afa15801562002a18573d6000803e3d6000fd5b505050506040513d601f19601f8201168201806040525081019062002a3e919062004c4c565b62002a4b90601262004c87565b62002a5890600a62004daa565b8562002a65888762004e3b565b62002a71919062004e55565b62002a7d919062004e55565b62002a89919062004e77565b9050610130898960405162002aa092919062004c05565b90815260405190819003602001812060010154635b8503f560e11b8252600482018c905260248201879052604482018690526001600160a01b03169063b70a07ea90606401602060405180830381600087803b15801562002b0057600080fd5b505af115801562002b15573d6000803e3d6000fd5b505050506040513d601f19601f8201168201806040525081019062002b3b919062004e21565b5061012e54604051632770a7eb60e21b8152336004820152602481018390526001600160a01b0390911690639dc29fac90604401600060405180830381600087803b15801562002b8a57600080fd5b505af115801562002b9f573d6000803e3d6000fd5b5050505060008051602062005ab183398151915284836101308c8c60405162002bca92919062004c05565b90815260408051602092819003830181205463313ce56760e01b825291516001600160a01b039092169263313ce56792600480840193829003018186803b15801562002c1557600080fd5b505afa15801562002c2a573d6000803e3d6000fd5b505050506040513d601f19601f8201168201806040525081019062002c50919062004c4c565b62002c5d90601262004c87565b62002c6a90600a62004daa565b62002c76898962004e55565b62002c82919062004e55565b62002c8e919062004e77565b878d8e60018f8f6040516200110b98979695949392919062004f67565b60008051602062005a9183398151915262002cc78133620039e9565b5061012d80546001600160a01b039485166001600160a01b03199182161790915561012e80549385169382169390931790925561012f8054919093169116179055565b6002609754141562002d305760405162461bcd60e51b81526004016200066a9062004bce565b600260975560405181906101309062002d4b9083906200506b565b90815260405190819003602001902060010154336001600160a01b039091161462002d8a5760405162461bcd60e51b81526004016200066a9062005089565b60006101308360405162002d9f91906200506b565b90815260405190819003602001812060010154633a1a732760e01b82526001600160a01b031690633a1a73279062002ddf90899060040190815260200190565b60206040518083038186803b15801562002df857600080fd5b505afa15801562002e0d573d6000803e3d6000fd5b505050506040513d601f19601f8201168201806040525081019062002e33919062005141565b90506101318360405162002e4891906200506b565b9081526040805191829003602090810183206001600160a01b038086166000908152919092529190912054169063dbba0f01908990670de0b6b3a76400009088906101309062002e9a908a906200506b565b90815260408051602092819003830181206001015463c375a48b60e01b825291516001600160a01b039092169263c375a48b92600480840193829003018186803b15801562002ee857600080fd5b505afa15801562002efd573d6000803e3d6000fd5b505050506040513d601f19601f8201168201806040525081019062002f23919062004e21565b62002f2f919062004e55565b62002f3b919062004e77565b62002f47908862004e9a565b6101308760405162002f5a91906200506b565b908152604051908190036020018120546001600160e01b031960e086901b16825262002f979392916001600160a01b039091169060040162004eb5565b600060405180830381600087803b15801562002fb257600080fd5b505af115801562002fc7573d6000803e3d6000fd5b505050506101318360405162002fde91906200506b565b9081526040805191829003602090810183206001600160a01b038086166000908152919092529190912054169063dbba0f019061013090620030229087906200506b565b908152604051908190036020018120600101546001600160a01b031690670de0b6b3a7640000908890610130906200305c908a906200506b565b90815260408051602092819003830181206001015463b188a84960e01b825291516001600160a01b039092169263b188a84992600480840193829003018186803b158015620030aa57600080fd5b505afa158015620030bf573d6000803e3d6000fd5b505050506040513d601f19601f82011682018060405250810190620030e5919062004e21565b620030f1919062004e55565b620030fd919062004e77565b610130876040516200311091906200506b565b908152604051908190036020018120546001600160e01b031960e086901b1682526200314d9392916001600160a01b039091169060040162004eb5565b600060405180830381600087803b1580156200316857600080fd5b505af11580156200317d573d6000803e3d6000fd5b50505050610131836040516200319491906200506b565b90815260408051602092819003830181206001600160a01b03858116600090815291909452919091205461012f549083169263dbba0f0192911690670de0b6b3a764000090889061013090620031ec908a906200506b565b90815260408051602092819003830181206001015463049cf37160e21b825291516001600160a01b0390921692631273cdc492600480840193829003018186803b1580156200323a57600080fd5b505afa1580156200324f573d6000803e3d6000fd5b505050506040513d601f19601f8201168201806040525081019062003275919062004e21565b62003281919062004e55565b6200328d919062004e77565b61013087604051620032a091906200506b565b908152604051908190036020018120546001600160e01b031960e086901b168252620032dd9392916001600160a01b039091169060040162004eb5565b600060405180830381600087803b158015620032f857600080fd5b505af11580156200330d573d6000803e3d6000fd5b505061012e54604051632770a7eb60e21b81526001600160a01b038b81166004830152602482018a90529091169250639dc29fac9150604401600060405180830381600087803b1580156200336157600080fd5b505af115801562003376573d6000803e3d6000fd5b505050506000806000610130866040516200339291906200506b565b90815260405190819003602001812060010154632f1b130360e01b82526001600160a01b031690632f1b130390620033d2908c9060040190815260200190565b60606040518083038186803b158015620033eb57600080fd5b505afa15801562003400573d6000803e3d6000fd5b505050506040513d601f19601f8201168201806040525081019062003426919062004dbb565b9250925092507fcc3f3bf4ebb079856c31b44ccbec64a58ff9c3f04a8d8a846ee9e7c2e0e4c7e18484836101308a6040516200346391906200506b565b90815260408051602092819003830181205463313ce56760e01b825291516001600160a01b039092169263313ce56792600480840193829003018186803b158015620034ae57600080fd5b505afa158015620034c3573d6000803e3d6000fd5b505050506040513d601f19601f82011682018060405250810190620034e9919062004c4c565b620034f690601262004c87565b6200350390600a62004daa565b6200350f878962004e55565b6200351b919062004e55565b62003527919062004e77565b85858e8c6040516200110b979695949392919062005161565b600054610100900460ff166200355d5760005460ff161562003561565b303b155b620035c65760405162461bcd60e51b815260206004820152602e60248201527f496e697469616c697a61626c653a20636f6e747261637420697320616c72656160448201526d191e481a5b9a5d1a585b1a5e995960921b60648201526084016200066a565b600054610100900460ff16158015620035e9576000805461ffff19166101011790555b620035f362003d5a565b620035fd62003d86565b6200360762003d5a565b6200361460003362003dba565b6200362f60008051602062005a918339815191523362003dba565b6200364a60008051602062005a2a8339815191523362003dba565b6200367460008051602062005a2a83398151915260008051602062005a9183398151915262003dc6565b61012d80546001600160a01b038087166001600160a01b03199283161790925561012e805486841690831617905561012f8054928516929091169190911790558015620036c7576000805461ff00191690555b50505050565b600082815260656020526040902060010154620036eb8133620039e9565b6200114e838362003b3e565b60008051602062005a91833981519152620037138133620039e9565b8561013084846040516200372992919062004c05565b90815260405190819003602001812080546001600160a01b03939093166001600160a01b0319909316929092179091558590610130906200376e908690869062004c05565b908152602001604051809103902060010160006101000a8154816001600160a01b0302191690836001600160a01b03160217905550866101308484604051620037b992919062004c05565b908152604051908190036020018120600301805492151560ff1990931692909217909155849061013090620037f2908690869062004c05565b9081526040519081900360200190206002015550505050505050565b6060600061013184846040516200382792919062004c05565b90815260408051602092819003830190206001600160a01b038a166000908152925290206001019050856200385c8262003e11565b62003868919062004e3b565b8511156200388b57856200387c8262003e11565b62003888919062004e3b565b94505b8467ffffffffffffffff811115620038a757620038a76200465f565b604051908082528060200260200182016040528015620038d1578160200160208202803683370190505b50915060005b858110156200392d57620038f8620038f0828962004e9a565b839062003e1c565b8382815181106200390d576200390d620051a2565b6020908102919091010152806200392481620051b8565b915050620038d7565b505095945050505050565b6001600160a01b03163b151590565b620039868361013184846040516200396192919062004c05565b9081526040805160209281900383019020336000908152925290206001019062003e2a565b6200114e5760405162461bcd60e51b815260206004820152601760248201527f5751526f757465723a204c6f74206e6f7420666f756e6400000000000000000060448201526064016200066a565b6000620039e2838362003e43565b9392505050565b620039f58282620026dd565b620016e45762003a10816001600160a01b0316601462003f47565b62003a1d83602062003f47565b60405160200162003a30929190620051d6565b60408051601f198184030181529082905262461bcd60e51b82526200066a916004016200524f565b62003a648282620026dd565b620016e45760008281526065602090815260408083206001600160a01b03851684529091529020805460ff1916600117905562003a9e3390565b6001600160a01b0316816001600160a01b0316837f2f8788117e7eff1d82e926ec794901d17c78024a50270940304540a733656f0d60405160405180910390a45050565b604080516001600160a01b0385811660248301528416604482015260648082018490528251808303909101815260849091019091526020810180516001600160e01b03166323b872dd60e01b179052620036c790859062004101565b62003b4a8282620026dd565b15620016e45760008281526065602090815260408083206001600160a01b0385168085529252808320805460ff1916905551339285917ff6391f5c32d9c69d2a47ea670b442974b53935d1edc7fd64eb21e047a839171b9190a45050565b60008051602062005a2a833981519152620016e48133620039e9565b7f4910fdfa16fed3260ed0e7147f7cc6da11a60208b5b9406d12a635614ffd91435460ff161562003bfa576200114e83620041da565b826001600160a01b03166352d1902d6040518163ffffffff1660e01b815260040160206040518083038186803b15801562003c3457600080fd5b505afa92505050801562003c67575060408051601f3d908101601f1916820190925262003c649181019062004e21565b60015b62003ccc5760405162461bcd60e51b815260206004820152602e60248201527f45524331393637557067726164653a206e657720696d706c656d656e7461746960448201526d6f6e206973206e6f74205555505360901b60648201526084016200066a565b60008051602062005a4a833981519152811462003d3e5760405162461bcd60e51b815260206004820152602960248201527f45524331393637557067726164653a20756e737570706f727465642070726f786044820152681a58589b195555525160ba1b60648201526084016200066a565b506200114e83838362004279565b6000620039e28383620042a4565b600054610100900460ff1662003d845760405162461bcd60e51b81526004016200066a9062005264565b565b600054610100900460ff1662003db05760405162461bcd60e51b81526004016200066a9062005264565b62003d84620042f6565b620016e4828262003a58565b600082815260656020526040808220600101805490849055905190918391839186917fbd79b86ffe0ab8e8776151514217cd7cacd52c909f66475c3af44e129f0b00ff9190a4505050565b60006200063e825490565b6000620039e2838362004327565b60008181526001830160205260408120541515620039e2565b6000818152600183016020526040812054801562003f3c57600062003e6a60018362004e3b565b855490915060009062003e809060019062004e3b565b905081811462003eec57600086600001828154811062003ea45762003ea4620051a2565b906000526020600020015490508087600001848154811062003eca5762003eca620051a2565b6000918252602080832090910192909255918252600188019052604090208390555b855486908062003f005762003f00620052af565b6001900381819060005260206000200160009055905585600101600086815260200190815260200160002060009055600193505050506200063e565b60009150506200063e565b6060600062003f5883600262004e55565b62003f6590600262004e9a565b67ffffffffffffffff81111562003f805762003f806200465f565b6040519080825280601f01601f19166020018201604052801562003fab576020820181803683370190505b509050600360fc1b8160008151811062003fc95762003fc9620051a2565b60200101906001600160f81b031916908160001a905350600f60fb1b8160018151811062003ffb5762003ffb620051a2565b60200101906001600160f81b031916908160001a90535060006200402184600262004e55565b6200402e90600162004e9a565b90505b6001811115620040b0576f181899199a1a9b1b9c1cb0b131b232b360811b85600f1660108110620040665762004066620051a2565b1a60f81b8282815181106200407f576200407f620051a2565b60200101906001600160f81b031916908160001a90535060049490941c93620040a881620052c5565b905062004031565b508315620039e25760405162461bcd60e51b815260206004820181905260248201527f537472696e67733a20686578206c656e67746820696e73756666696369656e7460448201526064016200066a565b600062004158826040518060400160405280602081526020017f5361666545524332303a206c6f772d6c6576656c2063616c6c206661696c6564815250856001600160a01b0316620043549092919063ffffffff16565b8051909150156200114e5780806020019051810190620041799190620052df565b6200114e5760405162461bcd60e51b815260206004820152602a60248201527f5361666545524332303a204552433230206f7065726174696f6e20646964206e6044820152691bdd081cdd58d8d9595960b21b60648201526084016200066a565b6001600160a01b0381163b620042495760405162461bcd60e51b815260206004820152602d60248201527f455243313936373a206e657720696d706c656d656e746174696f6e206973206e60448201526c1bdd08184818dbdb9d1c9858dd609a1b60648201526084016200066a565b60008051602062005a4a83398151915280546001600160a01b0319166001600160a01b0392909216919091179055565b62004284836200436d565b600082511180620042925750805b156200114e57620036c78383620043af565b6000818152600183016020526040812054620042ed575081546001818101845560008481526020808220909301849055845484825282860190935260409020919091556200063e565b5060006200063e565b600054610100900460ff16620043205760405162461bcd60e51b81526004016200066a9062005264565b6001609755565b6000826000018281548110620043415762004341620051a2565b9060005260206000200154905092915050565b6060620043658484600085620044ac565b949350505050565b6200437881620041da565b6040516001600160a01b038216907fbc7cd75a20ee27fd9adebab32041f755214dbc6bffa90cc0225b39da2e5c2d3b90600090a250565b60606001600160a01b0383163b620044195760405162461bcd60e51b815260206004820152602660248201527f416464726573733a2064656c65676174652063616c6c20746f206e6f6e2d636f6044820152651b9d1c9858dd60d21b60648201526084016200066a565b600080846001600160a01b0316846040516200443691906200506b565b600060405180830381855af49150503d806000811462004473576040519150601f19603f3d011682016040523d82523d6000602084013e62004478565b606091505b5091509150620044a3828260405180606001604052806027815260200162005a6a60279139620045e7565b95945050505050565b6060824710156200450f5760405162461bcd60e51b815260206004820152602660248201527f416464726573733a20696e73756666696369656e742062616c616e636520666f6044820152651c8818d85b1b60d21b60648201526084016200066a565b6001600160a01b0385163b620045685760405162461bcd60e51b815260206004820152601d60248201527f416464726573733a2063616c6c20746f206e6f6e2d636f6e747261637400000060448201526064016200066a565b600080866001600160a01b031685876040516200458691906200506b565b60006040518083038185875af1925050503d8060008114620045c5576040519150601f19603f3d011682016040523d82523d6000602084013e620045ca565b606091505b5091509150620045dc828286620045e7565b979650505050505050565b60608315620045f8575081620039e2565b825115620046095782518084602001fd5b8160405162461bcd60e51b81526004016200066a91906200524f565b61072a806200530083390190565b6000602082840312156200464657600080fd5b81356001600160e01b031981168114620039e257600080fd5b634e487b7160e01b600052604160045260246000fd5b600067ffffffffffffffff808411156200469357620046936200465f565b604051601f8501601f19908116603f01168101908282118183101715620046be57620046be6200465f565b81604052809350858152868686011115620046d857600080fd5b858560208301376000602087830101525050509392505050565b600082601f8301126200470457600080fd5b620039e28383356020850162004675565b6000602082840312156200472857600080fd5b813567ffffffffffffffff8111156200474057600080fd5b6200436584828501620046f2565b60008083601f8401126200476157600080fd5b50813567ffffffffffffffff8111156200477a57600080fd5b6020830191508360208285010111156200479357600080fd5b9250929050565b60008060008060608587031215620047b157600080fd5b8435935060208501359250604085013567ffffffffffffffff811115620047d757600080fd5b620047e5878288016200474e565b95989497509550505050565b6000602082840312156200480457600080fd5b5035919050565b6001600160a01b0381168114620017d157600080fd5b600080604083850312156200483557600080fd5b82359150602083013562004849816200480b565b809150509250929050565b6000806000604084860312156200486a57600080fd5b83359250602084013567ffffffffffffffff8111156200488957600080fd5b62004897868287016200474e565b9497909650939450505050565b600060208284031215620048b757600080fd5b8135620039e2816200480b565b60008060408385031215620048d857600080fd5b8235620048e5816200480b565b9150602083013567ffffffffffffffff8111156200490257600080fd5b8301601f810185136200491457600080fd5b620049258582356020840162004675565b9150509250929050565b600080600080600080600060e0888a0312156200494b57600080fd5b873562004958816200480b565b96506020880135955060408801359450606088013593506080880135925060a0880135915060c088013567ffffffffffffffff8111156200499857600080fd5b620049a68a828b01620046f2565b91505092959891949750929550565b600080600060608486031215620049cb57600080fd5b8335620049d8816200480b565b92506020840135620049ea816200480b565b91506040840135620049fc816200480b565b809150509250925092565b600080600080600060a0868803121562004a2057600080fd5b853562004a2d816200480b565b9450602086013593506040860135925060608601359150608086013567ffffffffffffffff81111562004a5f57600080fd5b62004a6d88828901620046f2565b9150509295509295909350565b8015158114620017d157600080fd5b60008060008060008060a0878903121562004aa357600080fd5b863562004ab08162004a7a565b9550602087013562004ac2816200480b565b9450604087013562004ad4816200480b565b935060608701359250608087013567ffffffffffffffff81111562004af857600080fd5b62004b0689828a016200474e565b979a9699509497509295939492505050565b60008060008060006080868803121562004b3157600080fd5b853562004b3e816200480b565b94506020860135935060408601359250606086013567ffffffffffffffff81111562004b6957600080fd5b62004b77888289016200474e565b969995985093965092949392505050565b6020808252825182820181905260009190848201906040850190845b8181101562004bc25783518352928401929184019160010162004ba4565b50909695505050505050565b6020808252601f908201527f5265656e7472616e637947756172643a207265656e7472616e742063616c6c00604082015260600190565b8183823760009101908152919050565b60208082526017908201527f5751526f757465723a20546f6b656e20646961626c6564000000000000000000604082015260600190565b60006020828403121562004c5f57600080fd5b815160ff81168114620039e257600080fd5b634e487b7160e01b600052601160045260246000fd5b600060ff821660ff84168082101562004ca45762004ca462004c71565b90039392505050565b600181815b8085111562004cee57816000190482111562004cd25762004cd262004c71565b8085161562004ce057918102915b93841c939080029062004cb2565b509250929050565b60008262004d07575060016200063e565b8162004d16575060006200063e565b816001811462004d2f576002811462004d3a5762004d5a565b60019150506200063e565b60ff84111562004d4e5762004d4e62004c71565b50506001821b6200063e565b5060208310610133831016604e8410600b841016171562004d7f575081810a6200063e565b62004d8b838362004cad565b806000190482111562004da25762004da262004c71565b029392505050565b6000620039e260ff84168362004cf6565b60008060006060848603121562004dd157600080fd5b8351925060208401519150604084015190509250925092565b60208082526018908201527f5751526f757465723a20537461747573206e6f74206e65770000000000000000604082015260600190565b60006020828403121562004e3457600080fd5b5051919050565b60008282101562004e505762004e5062004c71565b500390565b600081600019048311821515161562004e725762004e7262004c71565b500290565b60008262004e9557634e487b7160e01b600052601260045260246000fd5b500490565b6000821982111562004eb05762004eb062004c71565b500190565b6001600160a01b0393841681526020810192909252909116604082015260600190565b81835281816020850137506000828201602090810191909152601f909101601f19169091010190565b60018060a01b03891681528760208201528660408201528560608201528460808201528360a082015260e060c0820152600062004f4360e08301848662004ed8565b9a9950505050505050505050565b6020815260006200436560208301848662004ed8565b88815287602082015286604082015285606082015284608082015260ff841660a082015260e060c0820152600062004f4360e08301848662004ed8565b6020808252602c908201527f46756e6374696f6e206d7573742062652063616c6c6564207468726f7567682060408201526b19195b1959d85d1958d85b1b60a21b606082015260800190565b6020808252602c908201527f46756e6374696f6e206d7573742062652063616c6c6564207468726f7567682060408201526b6163746976652070726f787960a01b606082015260800190565b60005b83811015620050595781810151838201526020016200503f565b83811115620036c75750506000910152565b600082516200507f8184602087016200503c565b9190910192915050565b60208082526021908201527f5751526f757465723a204f6e6c7920636f6c6c61746572616c2061756374696f6040820152603760f91b606082015260800190565b60008151808452620050e48160208601602086016200503c565b601f01601f19169290920160200192915050565b87815286602082015285604082015284606082015283608082015260ff831660a082015260e060c082015260006200513460e0830184620050ca565b9998505050505050505050565b6000602082840312156200515457600080fd5b8151620039e2816200480b565b60018060a01b03881681528660208201528560408201528460608201528360808201528260a082015260e060c082015260006200513460e0830184620050ca565b634e487b7160e01b600052603260045260246000fd5b6000600019821415620051cf57620051cf62004c71565b5060010190565b7f416363657373436f6e74726f6c3a206163636f756e7420000000000000000000815260008351620052108160178501602088016200503c565b7001034b99036b4b9b9b4b733903937b6329607d1b6017918401918201528351620052438160288401602088016200503c565b01602801949350505050565b602081526000620039e26020830184620050ca565b6020808252602b908201527f496e697469616c697a61626c653a20636f6e7472616374206973206e6f74206960408201526a6e697469616c697a696e6760a81b606082015260800190565b634e487b7160e01b600052603160045260246000fd5b600081620052d757620052d762004c71565b506000190190565b600060208284031215620052f257600080fd5b8151620039e28162004a7a56fe608060405234801561001057600080fd5b5060405161072a38038061072a83398101604081905261002f91610062565b60008054336001600160a01b031991821617909155600180549091166001600160a01b0392909216919091179055610092565b60006020828403121561007457600080fd5b81516001600160a01b038116811461008b57600080fd5b9392505050565b610689806100a16000396000f3fe608060405234801561001057600080fd5b50600436106100415760003560e01c80638da5cb5b14610046578063dbba0f0114610075578063f887ea401461008a575b600080fd5b600154610059906001600160a01b031681565b6040516001600160a01b03909116815260200160405180910390f35b610088610083366004610570565b61009d565b005b600054610059906001600160a01b031681565b6000546001600160a01b031633146101085760405162461bcd60e51b815260206004820152602360248201527f5751526f757465725661756c743a2053656e646572206973206e6f7420726f756044820152623a32b960e91b60648201526084015b60405180910390fd5b6001600160a01b038116156101305761012b6001600160a01b0382168484610193565b610143565b6101436001600160a01b038416836101ea565b604080516001600160a01b038084168252851660208201529081018390527fd1ba4ac2e2a11b5101f6cb4d978f514a155b421e8ec396d2d9abaf0bb02917ee9060600160405180910390a1505050565b604080516001600160a01b038416602482015260448082018490528251808303909101815260649091019091526020810180516001600160e01b031663a9059cbb60e01b1790526101e5908490610303565b505050565b8047101561023a5760405162461bcd60e51b815260206004820152601d60248201527f416464726573733a20696e73756666696369656e742062616c616e636500000060448201526064016100ff565b6000826001600160a01b03168260405160006040518083038185875af1925050503d8060008114610287576040519150601f19603f3d011682016040523d82523d6000602084013e61028c565b606091505b50509050806101e55760405162461bcd60e51b815260206004820152603a60248201527f416464726573733a20756e61626c6520746f2073656e642076616c75652c207260448201527f6563697069656e74206d6179206861766520726576657274656400000000000060648201526084016100ff565b6000610358826040518060400160405280602081526020017f5361666545524332303a206c6f772d6c6576656c2063616c6c206661696c6564815250856001600160a01b03166103d59092919063ffffffff16565b8051909150156101e5578080602001905181019061037691906105b2565b6101e55760405162461bcd60e51b815260206004820152602a60248201527f5361666545524332303a204552433230206f7065726174696f6e20646964206e6044820152691bdd081cdd58d8d9595960b21b60648201526084016100ff565b60606103e484846000856103ee565b90505b9392505050565b60608247101561044f5760405162461bcd60e51b815260206004820152602660248201527f416464726573733a20696e73756666696369656e742062616c616e636520666f6044820152651c8818d85b1b60d21b60648201526084016100ff565b6001600160a01b0385163b6104a65760405162461bcd60e51b815260206004820152601d60248201527f416464726573733a2063616c6c20746f206e6f6e2d636f6e747261637400000060448201526064016100ff565b600080866001600160a01b031685876040516104c29190610604565b60006040518083038185875af1925050503d80600081146104ff576040519150601f19603f3d011682016040523d82523d6000602084013e610504565b606091505b509150915061051482828661051f565b979650505050505050565b6060831561052e5750816103e7565b82511561053e5782518084602001fd5b8160405162461bcd60e51b81526004016100ff9190610620565b6001600160a01b038116811461056d57600080fd5b50565b60008060006060848603121561058557600080fd5b833561059081610558565b92506020840135915060408401356105a781610558565b809150509250925092565b6000602082840312156105c457600080fd5b815180151581146103e757600080fd5b60005b838110156105ef5781810151838201526020016105d7565b838111156105fe576000848401525b50505050565b600082516106168184602087016105d4565b9190910192915050565b602081526000825180602084015261063f8160408501602087016105d4565b601f01601f1916919091016040019291505056fea2646970667358221220f9599cb443d118d129a11e97dea91cb2df9e7c8ddbd8811c90f86e43dc8f329564736f6c63430008090033189ab7a9244df0848122154315af71fe140f3db0fe014031783b0946b8c9d2e3360894a13ba1a3210667c828492db98dca3e2076cc3735a920a3ca505d382bbc416464726573733a206c6f772d6c6576656c2064656c65676174652063616c6c206661696c6564a49807205ce4d355092ef5a8a18f56e8913cf4a201fbe287825b095693c2177528c0c2d50af0ab1c60ab623f2400a88f889940fe9a0f24f3ae0fe8e2ea9d5ca3a2646970667358221220709974f9bce724e8289524b77b817a0265b7bd78f475293fd28f2c8aff1d3a2564736f6c63430008090033",
  "linkReferences": {},
  "deployedLinkReferences": {}
}