{
  "_format": "hh-sol-artifact-1",
  "contractName": "WQRouter",
  "sourceName": "contracts/stablecoin/WQRouter.sol",
  "abi": [
    {
      "inputs": [],
      "stateMutability": "nonpayable",
      "type": "constructor"
    },
    {
      "anonymous": false,
      "inputs": [
        {
          "indexed": false,
          "internalType": "address",
          "name": "previousAdmin",
          "type": "address"
        },
        {
          "indexed": false,
          "internalType": "address",
          "name": "newAdmin",
          "type": "address"
        }
      ],
      "name": "AdminChanged",
      "type": "event"
    },
    {
      "anonymous": false,
      "inputs": [
        {
          "indexed": true,
          "internalType": "address",
          "name": "beacon",
          "type": "address"
        }
      ],
      "name": "BeaconUpgraded",
      "type": "event"
    },
    {
      "anonymous": false,
      "inputs": [
        {
          "indexed": false,
          "internalType": "uint256",
          "name": "collateral",
          "type": "uint256"
        },
        {
          "indexed": false,
          "internalType": "uint256",
          "name": "price",
          "type": "uint256"
        },
        {
          "indexed": false,
          "internalType": "uint256",
          "name": "oldPriceIndex",
          "type": "uint256"
        },
        {
          "indexed": false,
          "internalType": "uint256",
          "name": "oldIndex",
          "type": "uint256"
        },
        {
          "indexed": false,
          "internalType": "uint256",
          "name": "newPriceIndex",
          "type": "uint256"
        },
        {
          "indexed": false,
          "internalType": "uint256",
          "name": "newIndex",
          "type": "uint256"
        },
        {
          "indexed": false,
          "internalType": "string",
          "name": "symbol",
          "type": "string"
        }
      ],
      "name": "Moved",
      "type": "event"
    },
    {
      "anonymous": false,
      "inputs": [
        {
          "indexed": false,
          "internalType": "address",
          "name": "user",
          "type": "address"
        },
        {
          "indexed": false,
          "internalType": "uint256",
          "name": "collateral",
          "type": "uint256"
        },
        {
          "indexed": false,
          "internalType": "uint256",
          "name": "debt",
          "type": "uint256"
        },
        {
          "indexed": false,
          "internalType": "uint256",
          "name": "price",
          "type": "uint256"
        },
        {
          "indexed": false,
          "internalType": "uint256",
          "name": "priceIndex",
          "type": "uint256"
        },
        {
          "indexed": false,
          "internalType": "uint256",
          "name": "index",
          "type": "uint256"
        },
        {
          "indexed": false,
          "internalType": "string",
          "name": "symbol",
          "type": "string"
        }
      ],
      "name": "Produced",
      "type": "event"
    },
    {
      "anonymous": false,
      "inputs": [
        {
          "indexed": false,
          "internalType": "uint256",
          "name": "amount",
          "type": "uint256"
        }
      ],
      "name": "Received",
      "type": "event"
    },
    {
      "anonymous": false,
      "inputs": [
        {
          "indexed": false,
          "internalType": "address",
          "name": "user",
          "type": "address"
        },
        {
          "indexed": false,
          "internalType": "uint256",
          "name": "collateral",
          "type": "uint256"
        },
        {
          "indexed": false,
          "internalType": "uint256",
          "name": "debt",
          "type": "uint256"
        },
        {
          "indexed": false,
          "internalType": "uint256",
          "name": "priceIndex",
          "type": "uint256"
        },
        {
          "indexed": false,
          "internalType": "uint256",
          "name": "index",
          "type": "uint256"
        },
        {
          "indexed": false,
          "internalType": "string",
          "name": "symbol",
          "type": "string"
        }
      ],
      "name": "Removed",
      "type": "event"
    },
    {
      "anonymous": false,
      "inputs": [
        {
          "indexed": true,
          "internalType": "bytes32",
          "name": "role",
          "type": "bytes32"
        },
        {
          "indexed": true,
          "internalType": "bytes32",
          "name": "previousAdminRole",
          "type": "bytes32"
        },
        {
          "indexed": true,
          "internalType": "bytes32",
          "name": "newAdminRole",
          "type": "bytes32"
        }
      ],
      "name": "RoleAdminChanged",
      "type": "event"
    },
    {
      "anonymous": false,
      "inputs": [
        {
          "indexed": true,
          "internalType": "bytes32",
          "name": "role",
          "type": "bytes32"
        },
        {
          "indexed": true,
          "internalType": "address",
          "name": "account",
          "type": "address"
        },
        {
          "indexed": true,
          "internalType": "address",
          "name": "sender",
          "type": "address"
        }
      ],
      "name": "RoleGranted",
      "type": "event"
    },
    {
      "anonymous": false,
      "inputs": [
        {
          "indexed": true,
          "internalType": "bytes32",
          "name": "role",
          "type": "bytes32"
        },
        {
          "indexed": true,
          "internalType": "address",
          "name": "account",
          "type": "address"
        },
        {
          "indexed": true,
          "internalType": "address",
          "name": "sender",
          "type": "address"
        }
      ],
      "name": "RoleRevoked",
      "type": "event"
    },
    {
      "anonymous": false,
      "inputs": [
        {
          "indexed": true,
          "internalType": "address",
          "name": "implementation",
          "type": "address"
        }
      ],
      "name": "Upgraded",
      "type": "event"
    },
    {
      "inputs": [],
      "name": "ADMIN_ROLE",
      "outputs": [
        {
          "internalType": "bytes32",
          "name": "",
          "type": "bytes32"
        }
      ],
      "stateMutability": "view",
      "type": "function"
    },
    {
      "inputs": [],
      "name": "DEFAULT_ADMIN_ROLE",
      "outputs": [
        {
          "internalType": "bytes32",
          "name": "",
          "type": "bytes32"
        }
      ],
      "stateMutability": "view",
      "type": "function"
    },
    {
      "inputs": [],
      "name": "UPGRADER_ROLE",
      "outputs": [
        {
          "internalType": "bytes32",
          "name": "",
          "type": "bytes32"
        }
      ],
      "stateMutability": "view",
      "type": "function"
    },
    {
      "inputs": [
        {
          "internalType": "uint256",
          "name": "priceIndex",
          "type": "uint256"
        },
        {
          "internalType": "uint256",
          "name": "index",
          "type": "uint256"
        },
        {
          "internalType": "string",
          "name": "symbol",
          "type": "string"
        }
      ],
      "name": "addCollateral",
      "outputs": [],
      "stateMutability": "nonpayable",
      "type": "function"
    },
    {
      "inputs": [],
      "name": "annualInterestRate",
      "outputs": [
        {
          "internalType": "uint256",
          "name": "",
          "type": "uint256"
        }
      ],
      "stateMutability": "view",
      "type": "function"
    },
    {
      "inputs": [
        {
          "internalType": "uint256",
          "name": "priceIndex",
          "type": "uint256"
        },
        {
          "internalType": "uint256",
          "name": "index",
          "type": "uint256"
        },
        {
          "internalType": "uint256",
          "name": "amount",
          "type": "uint256"
        },
        {
          "internalType": "uint256",
          "name": "fee",
          "type": "uint256"
        },
        {
          "internalType": "string",
          "name": "symbol",
          "type": "string"
        }
      ],
      "name": "buyCollateral",
      "outputs": [],
      "stateMutability": "nonpayable",
      "type": "function"
    },
    {
      "inputs": [
        {
          "internalType": "uint256",
          "name": "priceIndex",
          "type": "uint256"
        },
        {
          "internalType": "uint256",
          "name": "index",
          "type": "uint256"
        },
        {
          "internalType": "string",
          "name": "symbol",
          "type": "string"
        }
      ],
      "name": "claimExtraDebt",
      "outputs": [],
      "stateMutability": "nonpayable",
      "type": "function"
    },
    {
      "inputs": [
        {
          "internalType": "string",
          "name": "",
          "type": "string"
        },
        {
          "internalType": "address",
          "name": "",
          "type": "address"
        }
      ],
      "name": "collaterals",
      "outputs": [
        {
          "internalType": "uint256",
          "name": "collateralAmount",
          "type": "uint256"
        },
        {
          "internalType": "uint256",
          "name": "debtAmount",
          "type": "uint256"
        },
        {
          "internalType": "contract WQRouterVault",
          "name": "vault",
          "type": "address"
        }
      ],
      "stateMutability": "view",
      "type": "function"
    },
    {
      "inputs": [
        {
          "internalType": "uint256",
          "name": "priceIndex",
          "type": "uint256"
        },
        {
          "internalType": "uint256",
          "name": "index",
          "type": "uint256"
        },
        {
          "internalType": "string",
          "name": "symbol",
          "type": "string"
        }
      ],
      "name": "disposeDebt",
      "outputs": [],
      "stateMutability": "nonpayable",
      "type": "function"
    },
    {
      "inputs": [],
      "name": "fixedRate",
      "outputs": [
        {
          "internalType": "uint256",
          "name": "",
          "type": "uint256"
        }
      ],
      "stateMutability": "view",
      "type": "function"
    },
    {
      "inputs": [
        {
          "internalType": "string",
          "name": "symbol",
          "type": "string"
        }
      ],
      "name": "getCollateral",
      "outputs": [
        {
          "internalType": "uint256",
          "name": "amount",
          "type": "uint256"
        }
      ],
      "stateMutability": "view",
      "type": "function"
    },
    {
      "inputs": [
        {
          "internalType": "string",
          "name": "symbol",
          "type": "string"
        }
      ],
      "name": "getDebt",
      "outputs": [
        {
          "internalType": "uint256",
          "name": "amount",
          "type": "uint256"
        }
      ],
      "stateMutability": "view",
      "type": "function"
    },
    {
      "inputs": [],
      "name": "getParams",
      "outputs": [
        {
          "internalType": "contract WQPriceOracle",
          "name": "",
          "type": "address"
        },
        {
          "internalType": "contract WQBridgeTokenInterface",
          "name": "",
          "type": "address"
        },
        {
          "internalType": "contract WQSurplusAuction",
          "name": "",
          "type": "address"
        },
        {
          "internalType": "contract WQDebtAuction",
          "name": "",
          "type": "address"
        },
        {
          "internalType": "uint256",
          "name": "",
          "type": "uint256"
        },
        {
          "internalType": "uint256",
          "name": "",
          "type": "uint256"
        },
        {
          "internalType": "address",
          "name": "",
          "type": "address"
        }
      ],
      "stateMutability": "view",
      "type": "function"
    },
    {
      "inputs": [
        {
          "internalType": "bytes32",
          "name": "role",
          "type": "bytes32"
        }
      ],
      "name": "getRoleAdmin",
      "outputs": [
        {
          "internalType": "bytes32",
          "name": "",
          "type": "bytes32"
        }
      ],
      "stateMutability": "view",
      "type": "function"
    },
    {
      "inputs": [
        {
          "internalType": "address",
          "name": "user",
          "type": "address"
        },
        {
          "internalType": "uint256",
          "name": "offset",
          "type": "uint256"
        },
        {
          "internalType": "uint256",
          "name": "limit",
          "type": "uint256"
        },
        {
          "internalType": "string",
          "name": "symbol",
          "type": "string"
        }
      ],
      "name": "getUserLots",
      "outputs": [
        {
          "components": [
            {
              "internalType": "uint256",
              "name": "priceIndex",
              "type": "uint256"
            },
            {
              "internalType": "uint256",
              "name": "index",
              "type": "uint256"
            }
          ],
          "internalType": "struct WQRouter.UserLot[]",
          "name": "page",
          "type": "tuple[]"
        }
      ],
      "stateMutability": "view",
      "type": "function"
    },
    {
      "inputs": [
        {
          "internalType": "bytes32",
          "name": "role",
          "type": "bytes32"
        },
        {
          "internalType": "address",
          "name": "account",
          "type": "address"
        }
      ],
      "name": "grantRole",
      "outputs": [],
      "stateMutability": "nonpayable",
      "type": "function"
    },
    {
      "inputs": [
        {
          "internalType": "bytes32",
          "name": "role",
          "type": "bytes32"
        },
        {
          "internalType": "address",
          "name": "account",
          "type": "address"
        }
      ],
      "name": "hasRole",
      "outputs": [
        {
          "internalType": "bool",
          "name": "",
          "type": "bool"
        }
      ],
      "stateMutability": "view",
      "type": "function"
    },
    {
      "inputs": [
        {
          "internalType": "address",
          "name": "_oracle",
          "type": "address"
        },
        {
          "internalType": "address",
          "name": "_wusd",
          "type": "address"
        },
        {
          "internalType": "uint256",
          "name": "_fixedRate",
          "type": "uint256"
        },
        {
          "internalType": "uint256",
          "name": "_annualInterestRate",
          "type": "uint256"
        },
        {
          "internalType": "address",
          "name": "_feeReceiver",
          "type": "address"
        }
      ],
      "name": "initialize",
      "outputs": [],
      "stateMutability": "nonpayable",
      "type": "function"
    },
    {
      "inputs": [
        {
          "internalType": "address",
          "name": "user",
          "type": "address"
        },
        {
          "internalType": "uint256",
          "name": "collateral",
          "type": "uint256"
        },
        {
          "internalType": "uint256",
          "name": "price",
          "type": "uint256"
        },
        {
          "internalType": "uint256",
          "name": "priceIndex",
          "type": "uint256"
        },
        {
          "internalType": "uint256",
          "name": "index",
          "type": "uint256"
        },
        {
          "internalType": "uint256",
          "name": "newPriceIndex",
          "type": "uint256"
        },
        {
          "internalType": "uint256",
          "name": "newIndex",
          "type": "uint256"
        },
        {
          "internalType": "string",
          "name": "symbol",
          "type": "string"
        }
      ],
      "name": "moveUserLot",
      "outputs": [],
      "stateMutability": "nonpayable",
      "type": "function"
    },
    {
      "inputs": [
        {
          "internalType": "uint256",
          "name": "collateralAmount",
          "type": "uint256"
        },
        {
          "internalType": "uint256",
          "name": "collateralRatio",
          "type": "uint256"
        },
        {
          "internalType": "string",
          "name": "symbol",
          "type": "string"
        }
      ],
      "name": "produceWUSD",
      "outputs": [],
      "stateMutability": "nonpayable",
      "type": "function"
    },
    {
      "inputs": [],
      "name": "proxiableUUID",
      "outputs": [
        {
          "internalType": "bytes32",
          "name": "",
          "type": "bytes32"
        }
      ],
      "stateMutability": "view",
      "type": "function"
    },
    {
      "inputs": [
        {
          "internalType": "uint256",
          "name": "priceIndex",
          "type": "uint256"
        },
        {
          "internalType": "uint256",
          "name": "index",
          "type": "uint256"
        },
        {
          "internalType": "uint256",
          "name": "debtPart",
          "type": "uint256"
        },
        {
          "internalType": "string",
          "name": "symbol",
          "type": "string"
        }
      ],
      "name": "removeCollateral",
      "outputs": [],
      "stateMutability": "nonpayable",
      "type": "function"
    },
    {
      "inputs": [
        {
          "internalType": "bytes32",
          "name": "role",
          "type": "bytes32"
        },
        {
          "internalType": "address",
          "name": "account",
          "type": "address"
        }
      ],
      "name": "renounceRole",
      "outputs": [],
      "stateMutability": "nonpayable",
      "type": "function"
    },
    {
      "inputs": [
        {
          "internalType": "bytes32",
          "name": "role",
          "type": "bytes32"
        },
        {
          "internalType": "address",
          "name": "account",
          "type": "address"
        }
      ],
      "name": "revokeRole",
      "outputs": [],
      "stateMutability": "nonpayable",
      "type": "function"
    },
    {
      "inputs": [
        {
          "internalType": "uint256",
          "name": "_annualInterestRate",
          "type": "uint256"
        }
      ],
      "name": "setAnnualInterestRate",
      "outputs": [],
      "stateMutability": "nonpayable",
      "type": "function"
    },
    {
      "inputs": [
        {
          "internalType": "address",
          "name": "auction",
          "type": "address"
        }
      ],
      "name": "setDebtAuction",
      "outputs": [],
      "stateMutability": "nonpayable",
      "type": "function"
    },
    {
      "inputs": [
        {
          "internalType": "address",
          "name": "_feeReceiver",
          "type": "address"
        }
      ],
      "name": "setFeeReceiver",
      "outputs": [],
      "stateMutability": "nonpayable",
      "type": "function"
    },
    {
      "inputs": [
        {
          "internalType": "uint256",
          "name": "_fixedRate",
          "type": "uint256"
        }
      ],
      "name": "setFixedRate",
      "outputs": [],
      "stateMutability": "nonpayable",
      "type": "function"
    },
    {
      "inputs": [
        {
          "internalType": "address",
          "name": "_oracle",
          "type": "address"
        }
      ],
      "name": "setOracle",
      "outputs": [],
      "stateMutability": "nonpayable",
      "type": "function"
    },
    {
      "inputs": [
        {
          "internalType": "address",
          "name": "auction",
          "type": "address"
        }
      ],
      "name": "setSurplusAuction",
      "outputs": [],
      "stateMutability": "nonpayable",
      "type": "function"
    },
    {
      "inputs": [
        {
          "internalType": "bool",
          "name": "enabled",
          "type": "bool"
        },
        {
          "internalType": "address",
          "name": "token",
          "type": "address"
        },
        {
          "internalType": "address",
          "name": "auction",
          "type": "address"
        },
        {
          "internalType": "uint256",
          "name": "minRatio",
          "type": "uint256"
        },
        {
          "internalType": "string",
          "name": "symbol",
          "type": "string"
        }
      ],
      "name": "setToken",
      "outputs": [],
      "stateMutability": "nonpayable",
      "type": "function"
    },
    {
      "inputs": [
        {
          "internalType": "bytes4",
          "name": "interfaceId",
          "type": "bytes4"
        }
      ],
      "name": "supportsInterface",
      "outputs": [
        {
          "internalType": "bool",
          "name": "",
          "type": "bool"
        }
      ],
      "stateMutability": "view",
      "type": "function"
    },
    {
      "inputs": [
        {
          "internalType": "string",
          "name": "",
          "type": "string"
        }
      ],
      "name": "tokens",
      "outputs": [
        {
          "internalType": "uint256",
          "name": "totalCollateral",
          "type": "uint256"
        },
        {
          "internalType": "uint256",
          "name": "totalDebt",
          "type": "uint256"
        },
        {
          "internalType": "address",
          "name": "token",
          "type": "address"
        },
        {
          "internalType": "contract WQCollateralAuction",
          "name": "collateralAuction",
          "type": "address"
        },
        {
          "internalType": "uint256",
          "name": "minRatio",
          "type": "uint256"
        },
        {
          "internalType": "bool",
          "name": "enabled",
          "type": "bool"
        }
      ],
      "stateMutability": "view",
      "type": "function"
    },
    {
      "inputs": [
        {
          "internalType": "address",
          "name": "user",
          "type": "address"
        },
        {
          "internalType": "uint256",
          "name": "amount",
          "type": "uint256"
        },
        {
          "internalType": "uint256",
          "name": "cost",
          "type": "uint256"
        },
        {
          "internalType": "string",
          "name": "symbol",
          "type": "string"
        }
      ],
      "name": "transferDebt",
      "outputs": [],
      "stateMutability": "nonpayable",
      "type": "function"
    },
    {
      "inputs": [
        {
          "internalType": "address",
          "name": "user",
          "type": "address"
        },
        {
          "internalType": "uint256",
          "name": "amount",
          "type": "uint256"
        },
        {
          "internalType": "string",
          "name": "symbol",
          "type": "string"
        }
      ],
      "name": "transferSurplus",
      "outputs": [],
      "stateMutability": "payable",
      "type": "function"
    },
    {
      "inputs": [
        {
          "internalType": "address",
          "name": "newImplementation",
          "type": "address"
        }
      ],
      "name": "upgradeTo",
      "outputs": [],
      "stateMutability": "nonpayable",
      "type": "function"
    },
    {
      "inputs": [
        {
          "internalType": "address",
          "name": "newImplementation",
          "type": "address"
        },
        {
          "internalType": "bytes",
          "name": "data",
          "type": "bytes"
        }
      ],
      "name": "upgradeToAndCall",
      "outputs": [],
      "stateMutability": "payable",
      "type": "function"
    },
    {
      "stateMutability": "payable",
      "type": "receive"
    }
  ],
  "bytecode": "0x60a0604052306080523480156200001557600080fd5b50600054610100900460ff16620000335760005460ff16156200003d565b6200003d620000e2565b620000a55760405162461bcd60e51b815260206004820152602e60248201527f496e697469616c697a61626c653a20636f6e747261637420697320616c72656160448201526d191e481a5b9a5d1a585b1a5e995960921b606482015260840160405180910390fd5b600054610100900460ff16158015620000c8576000805461ffff19166101011790555b8015620000db576000805461ff00191690555b506200010f565b6000620000fa306200010060201b62003a431760201c565b15905090565b6001600160a01b03163b151590565b608051615faa6200014760003960008181610fa601528181610fe9015281816115fe0152818161164101526116d90152615faa6000f3fe6080604052600436106200024b5760003560e01c806375b238fc116200013b578063bb521df411620000b9578063e19af8211162000078578063e19af821146200084b578063e1cc246a1462000870578063e9302e0914620008a4578063efdcd97414620008c9578063f72c0d8b14620008ee57600080fd5b8063bb521df41462000792578063c3bd96a214620007b7578063c5b3742514620007dc578063d547741f1462000801578063d7b4be23146200082657600080fd5b80638c1e06f111620001065780638c1e06f114620006f5578063911ea019146200071a57806391d14854146200073f578063a217fddf1462000764578063aa87441f146200077b57600080fd5b806375b238fc146200066d5780637adbf97314620006925780637fb95f6714620006b7578063802d142214620006dc57600080fd5b806336568abe11620001c957806352d1902d116200019457806352d1902d146200057557806357e2f620146200058d57806357fb25cc14620005b25780635e615a6b14620005d7578063733214c6146200064857600080fd5b806336568abe14620004ef5780633659cfe614620005145780634493edd714620005395780634f1ef286146200055e57600080fd5b80631311005511620002165780631311005514620004245780631a9703da1462000449578063248a9ca314620004715780632f2ff15d14620004a55780633582c4c814620004ca57600080fd5b806301ffc9a7146200028b57806304c2320b14620002c55780630bba3beb146200037357806311cd019b14620003fd57600080fd5b3662000286576040513481527fa8142743f8f70a4c26f3691cf4ed59718381fb2f18070ec52be1f1022d8555579060200160405180910390a1005b600080fd5b3480156200029857600080fd5b50620002b0620002aa36600462004a30565b62000913565b60405190151581526020015b60405180910390f35b348015620002d257600080fd5b5062000336620002e436600462004b11565b80518082016020908101805161013482529282019190930120915280546001820154600283015460038401546004850154600590950154939492936001600160a01b0392831693919092169160ff1686565b6040805196875260208701959095526001600160a01b0393841694860194909452911660608401526080830152151560a082015260c001620002bc565b3480156200038057600080fd5b50620003d86200039236600462004b5f565b815160208184018101805161013582529282019482019490942091909352909152600090815260409020805460018201546002909201549091906001600160a01b031683565b6040805193845260208401929092526001600160a01b031690820152606001620002bc565b3480156200040a57600080fd5b50620004226200041c36600462004bb6565b6200094b565b005b3480156200043157600080fd5b50620004226200044336600462004c21565b6200098b565b3480156200045657600080fd5b50620004626101325481565b604051908152602001620002bc565b3480156200047e57600080fd5b50620004626200049036600462004c77565b60009081526065602052604090206001015490565b348015620004b257600080fd5b5062000422620004c436600462004c91565b62000ec7565b348015620004d757600080fd5b5062000422620004e936600462004c77565b62000ef6565b348015620004fc57600080fd5b50620004226200050e36600462004c91565b62000f19565b3480156200052157600080fd5b50620004226200053336600462004bb6565b62000f9b565b3480156200054657600080fd5b50620004226200055836600462004c21565b62001087565b620004226200056f36600462004cb9565b620015f3565b3480156200058257600080fd5b5062000462620016cc565b3480156200059a57600080fd5b5062000422620005ac36600462004c21565b62001782565b348015620005bf57600080fd5b5062000422620005d136600462004d23565b62001d45565b348015620005e457600080fd5b5061012d5461012e5461012f5461013054610131546101325461013354604080516001600160a01b0398891681529688166020880152948716948601949094529185166060850152608084015260a08301529190911660c082015260e001620002bc565b3480156200065557600080fd5b50620004226200066736600462004d89565b62001ee0565b3480156200067a57600080fd5b506200046260008051602062005f5583398151915281565b3480156200069f57600080fd5b5062000422620006b136600462004bb6565b620025ea565b348015620006c457600080fd5b5062000422620006d636600462004ded565b6200262a565b348015620006e957600080fd5b50620004626101315481565b3480156200070257600080fd5b50620004626200071436600462004e3d565b6200274a565b3480156200072757600080fd5b50620004226200073936600462004e82565b6200277b565b3480156200074c57600080fd5b50620002b06200075e36600462004c91565b62002832565b3480156200077157600080fd5b5062000462600081565b620004226200078c36600462004f1a565b6200285d565b3480156200079f57600080fd5b5062000462620007b136600462004e3d565b62002966565b348015620007c457600080fd5b5062000422620007d636600462004bb6565b62002995565b348015620007e957600080fd5b5062000422620007fb36600462004c21565b620029d5565b3480156200080e57600080fd5b50620004226200082036600462004c91565b62002fb5565b3480156200083357600080fd5b50620004226200084536600462004f61565b62002fdf565b3480156200085857600080fd5b50620004226200086a36600462004fdd565b62003758565b3480156200087d57600080fd5b50620008956200088f36600462004ded565b62003875565b604051620002bc91906200504b565b348015620008b157600080fd5b5062000422620008c336600462004c77565b620039e0565b348015620008d657600080fd5b5062000422620008e836600462004bb6565b62003a03565b348015620008fb57600080fd5b506200046260008051602062005ece83398151915281565b60006001600160e01b03198216637965db0b60e01b14806200094557506301ffc9a760e01b6001600160e01b03198316145b92915050565b60008051602062005f5583398151915262000967813362003a52565b5061012f80546001600160a01b0319166001600160a01b0392909216919091179055565b60026097541415620009ba5760405162461bcd60e51b8152600401620009b1906200509c565b60405180910390fd5b600260978190555081816101348282604051620009d9929190620050d3565b9081526040519081900360200190206005015460ff1662000a0e5760405162461bcd60e51b8152600401620009b190620050e3565b62000a1c8686868662003ac1565b61012d54604051630292e0fd60e01b8152600091829182916001600160a01b031690630292e0fd9062000a56908a908a9060040162005143565b60206040518083038186803b15801562000a6f57600080fd5b505afa15801562000a84573d6000803e3d6000fd5b505050506040513d601f19601f8201168201806040525081019062000aaa919062005159565b905060008060006101348a8a60405162000ac6929190620050d3565b90815260405190819003602001812060030154633757017d60e21b82526001600160a01b03169063dd5c05f49062000b0d908f908f90600401918252602082015260400190565b60a06040518083038186803b15801562000b2657600080fd5b505afa15801562000b3b573d6000803e3d6000fd5b505050506040513d601f19601f8201168201806040525081019062000b61919062005173565b5050604051929550909250600191610134915062000b83908d908d90620050d3565b90815260405190819003602001812060030154635b2ccefd60e01b8252600482018f9052602482018e90526001600160a01b031690635b2ccefd9060440160206040518083038186803b15801562000bda57600080fd5b505afa15801562000bef573d6000803e3d6000fd5b505050506040513d601f19601f8201168201806040525081019062000c159190620051b4565b60ff161462000c385760405162461bcd60e51b8152600401620009b190620051d9565b828462000c46828462005226565b62000c52919062005248565b62000c5e91906200526b565b9150816101348b8b60405162000c76929190620050d3565b9081526020016040518091039020600001600082825462000c98919062005285565b92505081905550816101358b8b60405162000cb5929190620050d3565b908152604080516020928190038301902033600090815292528120805490919062000ce290849062005285565b90915550506040516101349062000cfd908c908c90620050d3565b908152604051908190036020019020600301546001600160a01b031663bfdc45bf8d8d8762000d2d878962005285565b6040516001600160e01b031960e087901b16815260048101949094526024840192909252604483015260648201526084016040805180830381600087803b15801562000d7857600080fd5b505af115801562000d8d573d6000803e3d6000fd5b505050506040513d601f19601f8201168201806040525081019062000db39190620052a0565b909650945062000dc7338d8d8d8d62003bdd565b62000dd63387878d8d62003e18565b62000e73336101358c8c60405162000df0929190620050d3565b90815260200160405180910390206000336001600160a01b03166001600160a01b0316815260200190815260200160002060020160009054906101000a90046001600160a01b0316846101348e8e60405162000e4e929190620050d3565b908152604051908190036020019020600201546001600160a01b031692919062003eed565b5060008051602062005f0e83398151915262000e90828462005285565b848d8d89898f8f60405162000ead989796959493929190620052c5565b60405180910390a150506001609755505050505050505050565b60008281526065602052604090206001015462000ee5813362003a52565b62000ef1838362003f4f565b505050565b60008051602062005f5583398151915262000f12813362003a52565b5061013255565b6001600160a01b038116331462000f8b5760405162461bcd60e51b815260206004820152602f60248201527f416363657373436f6e74726f6c3a2063616e206f6e6c792072656e6f756e636560448201526e103937b632b9903337b91039b2b63360891b6064820152608401620009b1565b62000f97828262003fd9565b5050565b306001600160a01b037f000000000000000000000000000000000000000000000000000000000000000016141562000fe75760405162461bcd60e51b8152600401620009b1906200530d565b7f00000000000000000000000000000000000000000000000000000000000000006001600160a01b03166200103260008051602062005eee833981519152546001600160a01b031690565b6001600160a01b0316146200105b5760405162461bcd60e51b8152600401620009b19062005359565b620010668162004043565b6040805160008082526020820190925262001084918391906200405f565b50565b60026097541415620010ad5760405162461bcd60e51b8152600401620009b1906200509c565b600260978190555081816101348282604051620010cc929190620050d3565b9081526040519081900360200190206005015460ff16620011015760405162461bcd60e51b8152600401620009b190620050e3565b610134848460405162001116929190620050d3565b908152602001604051809103902060040154851015620011845760405162461bcd60e51b815260206004820152602260248201527f5751526f757465723a20496e76616c696420636f6c6c61746572616c20726174604482015261696f60f01b6064820152608401620009b1565b600061013585856040516200119b929190620050d3565b90815260408051602092819003830190203360009081529252902060028101549091506001600160a01b03166200122c5733604051620011db9062004a22565b6001600160a01b039091168152602001604051809103906000f08015801562001208573d6000803e3d6000fd5b506002820180546001600160a01b0319166001600160a01b03929092169190911790555b8681600001600082825462001242919062005285565b925050819055508661013486866040516200125f929190620050d3565b9081526020016040518091039020600001600082825462001281919062005285565b909155505061012d54604051630292e0fd60e01b81526000916001600160a01b031690630292e0fd90620012bc908990899060040162005143565b60206040518083038186803b158015620012d557600080fd5b505afa158015620012ea573d6000803e3d6000fd5b505050506040513d601f19601f8201168201806040525081019062001310919062005159565b905060008761013488886040516200132a929190620050d3565b90815260408051602092819003830181206002015463313ce56760e01b825291516001600160a01b039092169263313ce56792600480840193829003018186803b1580156200137857600080fd5b505afa1580156200138d573d6000803e3d6000fd5b505050506040513d601f19601f82011682018060405250810190620013b39190620051b4565b620013c0906012620053a5565b620013cd90600a620054c8565b620013d9848c62005226565b620013e5919062005226565b620013f1919062005248565b90508083600101600082825462001409919062005285565b9250508190555080610134888860405162001426929190620050d3565b9081526020016040518091039020600101600082825462001448919062005285565b92505081905550600080610134898960405162001467929190620050d3565b9081526040519081900360200181206003015463cc6b3be360e01b825233600483015260248201869052604482018d9052606482018c90526001600160a01b03169063cc6b3be3906084016040805180830381600087803b158015620014cc57600080fd5b505af1158015620014e1573d6000803e3d6000fd5b505050506040513d601f19601f82011682018060405250810190620015079190620052a0565b915091506200151a3383838c8c62003e18565b6200154d338660020160009054906101000a90046001600160a01b03168d6101348d8d60405162000e4e929190620050d3565b61012e546040516340c10f1960e01b8152336004820152602481018590526001600160a01b03909116906340c10f1990604401600060405180830381600087803b1580156200159b57600080fd5b505af1158015620015b0573d6000803e3d6000fd5b505050507f0cd37c976baaad20e50f369a7000baf6b6c37b632190cba4a51372e76c9476ad338c858786868f8f60405162000ead989796959493929190620054d9565b306001600160a01b037f00000000000000000000000000000000000000000000000000000000000000001614156200163f5760405162461bcd60e51b8152600401620009b1906200530d565b7f00000000000000000000000000000000000000000000000000000000000000006001600160a01b03166200168a60008051602062005eee833981519152546001600160a01b031690565b6001600160a01b031614620016b35760405162461bcd60e51b8152600401620009b19062005359565b620016be8262004043565b62000f97828260016200405f565b6000306001600160a01b037f000000000000000000000000000000000000000000000000000000000000000016146200176e5760405162461bcd60e51b815260206004820152603860248201527f555550535570677261646561626c653a206d757374206e6f742062652063616c60448201527f6c6564207468726f7567682064656c656761746563616c6c00000000000000006064820152608401620009b1565b5060008051602062005eee83398151915290565b60026097541415620017a85760405162461bcd60e51b8152600401620009b1906200509c565b600260978190555081816101348282604051620017c7929190620050d3565b9081526040519081900360200190206005015460ff16620017fc5760405162461bcd60e51b8152600401620009b190620050e3565b6200180a8686868662003ac1565b6000610135858560405162001821929190620050d3565b9081526040805160209281900383018120336000908152935290822061012d54630292e0fd60e01b83529093506001600160a01b031690630292e0fd9062001870908990899060040162005143565b60206040518083038186803b1580156200188957600080fd5b505afa1580156200189e573d6000803e3d6000fd5b505050506040513d601f19601f82011682018060405250810190620018c4919062005159565b905060008060008060006101348b8b604051620018e3929190620050d3565b90815260405190819003602001812060030154633757017d60e21b8252600482018f9052602482018e90526001600160a01b03169063dd5c05f49060440160a06040518083038186803b1580156200193a57600080fd5b505afa1580156200194f573d6000803e3d6000fd5b505050506040513d601f19601f8201168201806040525081019062001975919062005173565b505060405192955090935091506001906101349062001998908e908e90620050d3565b908152602001604051809103902060030160009054906101000a90046001600160a01b03166001600160a01b0316635b2ccefd8f8f6040518363ffffffff1660e01b8152600401620019f4929190918252602082015260400190565b60206040518083038186803b15801562001a0d57600080fd5b505afa15801562001a22573d6000803e3d6000fd5b505050506040513d601f19601f8201168201806040525081019062001a489190620051b4565b60ff161462001a6b5760405162461bcd60e51b8152600401620009b190620051d9565b6000816101348d8d60405162001a83929190620050d3565b90815260408051602092819003830181206002015463313ce56760e01b825291516001600160a01b039092169263313ce56792600480840193829003018186803b15801562001ad157600080fd5b505afa15801562001ae6573d6000803e3d6000fd5b505050506040513d601f19601f8201168201806040525081019062001b0c9190620051b4565b62001b19906012620053a5565b62001b2690600a620054c8565b8562001b33868b6200526b565b62001b3f919062005226565b62001b4b919062005226565b62001b57919062005248565b9050806101348d8d60405162001b6f929190620050d3565b9081526020016040518091039020600101600082825462001b91919062005285565b925050819055508088600101600082825462001bae919062005285565b909155505061012e546040516340c10f1960e01b8152336004820152602481018390526001600160a01b03909116906340c10f1990604401600060405180830381600087803b15801562001c0157600080fd5b505af115801562001c16573d6000803e3d6000fd5b505050506101348c8c60405162001c2f929190620050d3565b908152602001604051809103902060030160009054906101000a90046001600160a01b03166001600160a01b031663bfdc45bf8f8f8a886040518563ffffffff1660e01b815260040162001c9c949392919093845260208401929092526040830152606082015260800190565b6040805180830381600087803b15801562001cb657600080fd5b505af115801562001ccb573d6000803e3d6000fd5b505050506040513d601f19601f8201168201806040525081019062001cf19190620052a0565b909650945062001d05338f8f8f8f62003bdd565b62001d143387878f8f62003e18565b50505060008051602062005f0e83398151915281858d8d87878f8f60405162000ead989796959493929190620052c5565b600054610100900460ff1662001d625760005460ff161562001d66565b303b155b62001dcb5760405162461bcd60e51b815260206004820152602e60248201527f496e697469616c697a61626c653a20636f6e747261637420697320616c72656160448201526d191e481a5b9a5d1a585b1a5e995960921b6064820152608401620009b1565b600054610100900460ff1615801562001dee576000805461ffff19166101011790555b62001df8620041e7565b62001e0262004213565b62001e0c620041e7565b62001e1960003362004247565b62001e3460008051602062005f558339815191523362004247565b62001e4f60008051602062005ece8339815191523362004247565b62001e7960008051602062005ece83398151915260008051602062005f5583398151915262004253565b61012d80546001600160a01b038089166001600160a01b03199283161790925561012e8054888416908316179055610131869055610132859055610133805492851692909116919091179055801562001ed8576000805461ff00191690555b505050505050565b6002609754141562001f065760405162461bcd60e51b8152600401620009b1906200509c565b60026097819055508181610134828260405162001f25929190620050d3565b9081526040519081900360200190206005015460ff1662001f5a5760405162461bcd60e51b8152600401620009b190620050e3565b62001f688787868662003ac1565b600080600080610134888860405162001f83929190620050d3565b90815260405190819003602001812060030154633757017d60e21b82526001600160a01b03169063dd5c05f49062001fca908e908e90600401918252602082015260400190565b60a06040518083038186803b15801562001fe357600080fd5b505afa15801562001ff8573d6000803e3d6000fd5b505050506040513d601f19601f820116820180604052508101906200201e919062005173565b5093509350935050600160ff16610134898960405162002040929190620050d3565b90815260405190819003602001812060030154635b2ccefd60e01b82526001600160a01b031690635b2ccefd9062002087908f908f90600401918252602082015260400190565b60206040518083038186803b158015620020a057600080fd5b505afa158015620020b5573d6000803e3d6000fd5b505050506040513d601f19601f82011682018060405250810190620020db9190620051b4565b60ff1614620020fe5760405162461bcd60e51b8152600401620009b190620051d9565b6000670de0b6b3a76400006301e133806200211a84426200526b565b610132546200212a919062005226565b62002136919062005248565b6101315462002146919062005285565b62002152908c62005226565b6200215e919062005248565b9050610134898960405162002175929190620050d3565b90815260408051602092819003830181206002015463313ce56760e01b825291516001600160a01b039092169263313ce56792600480840193829003018186803b158015620021c357600080fd5b505afa158015620021d8573d6000803e3d6000fd5b505050506040513d601f19601f82011682018060405250810190620021fe9190620051b4565b6200220b906012620053a5565b6200221890600a620054c8565b8462002225858d62005226565b62002231919062005248565b6200223d919062005248565b9450896101348a8a60405162002255929190620050d3565b908152602001604051809103902060010160008282546200227791906200526b565b92505081905550846101348a8a60405162002294929190620050d3565b90815260200160405180910390206000016000828254620022b691906200526b565b9250508190555060006101358a8a604051620022d4929190620050d3565b90815260200160405180910390206000336001600160a01b03166001600160a01b0316815260200190815260200160002090508a8160010160008282546200231d91906200526b565b9091555050805486908290600090620023389084906200526b565b9250508190555060006101348b8b60405162002356929190620050d3565b908152602001604051809103902060030160009054906101000a90046001600160a01b03166001600160a01b031663663fbde58f8f8a6040518463ffffffff1660e01b8152600401620023bc939291909283526020830191909152604082015260600190565b602060405180830381600087803b158015620023d757600080fd5b505af1158015620023ec573d6000803e3d6000fd5b505050506040513d601f19601f8201168201806040525081019062002412919062005159565b905080620024295762002429338f8f8e8e62003bdd565b8160020160009054906101000a90046001600160a01b03166001600160a01b031663dbba0f0133896101348f8f60405162002466929190620050d3565b908152604051908190036020018120600201546001600160e01b031960e086901b1682526001600160a01b039384166004830152602482019290925291166044820152606401600060405180830381600087803b158015620024c757600080fd5b505af1158015620024dc573d6000803e3d6000fd5b5050505061012e60009054906101000a90046001600160a01b03166001600160a01b0316639dc29fac338e6040518363ffffffff1660e01b8152600401620025399291906001600160a01b03929092168252602082015260400190565b600060405180830381600087803b1580156200255457600080fd5b505af115801562002569573d6000803e3d6000fd5b50506101335461012e546200259093506001600160a01b0390811692503391168662003eed565b5050505050507f3b9f5aaaea5eb6df9a429d2bb3b035b934d8cd822d73aa2951ce0afeb6a0ed163382888b8b8a8a604051620025d397969594939291906200551b565b60405180910390a150506001609755505050505050565b60008051602062005f5583398151915262002606813362003a52565b5061012d80546001600160a01b0319166001600160a01b0392909216919091179055565b610130546001600160a01b03163314620026875760405162461bcd60e51b815260206004820152601b60248201527f5751526f757465723a204f6e6c7920646562742061756374696f6e00000000006044820152606401620009b1565b8261013483836040516200269d929190620050d3565b90815260200160405180910390206001016000828254620026bf91906200526b565b909155505061012e54604051632770a7eb60e21b81526001600160a01b0387811660048301526024820186905290911690639dc29fac90604401600060405180830381600087803b1580156200271457600080fd5b505af115801562002729573d6000803e3d6000fd5b5062002743925050506001600160a01b038616856200429e565b5050505050565b6000610134838360405162002761929190620050d3565b908152602001604051809103902060010154905092915050565b8181610134828260405162002792929190620050d3565b90815260405190819003602001902060030154336001600160a01b0390911614620027d15760405162461bcd60e51b8152600401620009b19062005564565b620027e08b8989878762003bdd565b620027ef8b8787878762003e18565b60008051602062005f0e8339815191528a8a8a8a8a8a8a8a6040516200281d989796959493929190620052c5565b60405180910390a15050505050505050505050565b60009182526065602090815260408084206001600160a01b0393909316845291905290205460ff1690565b61012f546001600160a01b03163314620028ba5760405162461bcd60e51b815260206004820152601e60248201527f5751526f757465723a204f6e6c7920737572706c75732061756374696f6e00006044820152606401620009b1565b826101348383604051620028d0929190620050d3565b90815260200160405180910390206001016000828254620028f2919062005285565b909155505061012e546040516340c10f1960e01b81526001600160a01b03868116600483015260248201869052909116906340c10f1990604401600060405180830381600087803b1580156200294757600080fd5b505af11580156200295c573d6000803e3d6000fd5b5050505050505050565b600061013483836040516200297d929190620050d3565b90815260405190819003602001902054905092915050565b60008051602062005f55833981519152620029b1813362003a52565b5061013080546001600160a01b0319166001600160a01b0392909216919091179055565b60026097541415620029fb5760405162461bcd60e51b8152600401620009b1906200509c565b60026097819055508181610134828260405162002a1a929190620050d3565b9081526040519081900360200190206005015460ff1662002a4f5760405162461bcd60e51b8152600401620009b190620050e3565b62002a5d8686868662003ac1565b61012d54604051630292e0fd60e01b8152600091829182916001600160a01b031690630292e0fd9062002a97908a908a9060040162005143565b60206040518083038186803b15801562002ab057600080fd5b505afa15801562002ac5573d6000803e3d6000fd5b505050506040513d601f19601f8201168201806040525081019062002aeb919062005159565b9050600080610135898960405162002b05929190620050d3565b90815260408051602092819003830181203360009081529352908220925081906101349062002b38908d908d90620050d3565b90815260405190819003602001812060030154633757017d60e21b8252600482018f9052602482018e90526001600160a01b03169063dd5c05f49060440160a06040518083038186803b15801562002b8f57600080fd5b505afa15801562002ba4573d6000803e3d6000fd5b505050506040513d601f19601f8201168201806040525081019062002bca919062005173565b505060405192965090935091506001906101349062002bed908e908e90620050d3565b908152602001604051809103902060030160009054906101000a90046001600160a01b03166001600160a01b0316635b2ccefd8f8f6040518363ffffffff1660e01b815260040162002c49929190918252602082015260400190565b60206040518083038186803b15801562002c6257600080fd5b505afa15801562002c77573d6000803e3d6000fd5b505050506040513d601f19601f8201168201806040525081019062002c9d9190620051b4565b60ff161462002cc05760405162461bcd60e51b8152600401620009b190620051d9565b6000816101348d8d60405162002cd8929190620050d3565b90815260408051602092819003830181206002015463313ce56760e01b825291516001600160a01b039092169263313ce56792600480840193829003018186803b15801562002d2657600080fd5b505afa15801562002d3b573d6000803e3d6000fd5b505050506040513d601f19601f8201168201806040525081019062002d619190620051b4565b62002d6e906012620053a5565b62002d7b90600a620054c8565b8662002d8889876200526b565b62002d94919062005226565b62002da0919062005226565b62002dac919062005248565b9050806101348d8d60405162002dc4929190620050d3565b9081526020016040518091039020600101600082825462002de691906200526b565b925050819055508084600101600082825462002e0391906200526b565b90915550506040516101349062002e1e908e908e90620050d3565b908152602001604051809103902060030160009054906101000a90046001600160a01b03166001600160a01b031663bfdc45bf8f8f89896040518563ffffffff1660e01b815260040162002e8b949392919093845260208401929092526040830152606082015260800190565b6040805180830381600087803b15801562002ea557600080fd5b505af115801562002eba573d6000803e3d6000fd5b505050506040513d601f19601f8201168201806040525081019062002ee09190620052a0565b909850965062002ef4338f8f8f8f62003bdd565b62002f033389898f8f62003e18565b61012e54604051632770a7eb60e21b8152336004820152602481018390526001600160a01b0390911690639dc29fac90604401600060405180830381600087803b15801562002f5157600080fd5b505af115801562002f66573d6000803e3d6000fd5b505050505050505060008051602062005f0e83398151915281838c8c88888e8e60405162002f9c989796959493929190620052c5565b60405180910390a1505060016097555050505050505050565b60008281526065602052604090206001015462002fd3813362003a52565b62000ef1838362003fd9565b60026097541415620030055760405162461bcd60e51b8152600401620009b1906200509c565b60026097819055508181610134828260405162003024929190620050d3565b90815260405190819003602001902060030154336001600160a01b0390911614620030635760405162461bcd60e51b8152600401620009b19062005564565b600080600061013487876040516200307d929190620050d3565b90815260405190819003602001812060030154633757017d60e21b82526001600160a01b03169063dd5c05f490620030c4908e908e90600401918252602082015260400190565b60a06040518083038186803b158015620030dd57600080fd5b505afa158015620030f2573d6000803e3d6000fd5b505050506040513d601f19601f8201168201806040525081019062003118919062005173565b60405190975092955090935060009250829161013491506200313e908b908b90620050d3565b9081526040519081900360200181206003015463c6270ef560e01b8252600482018f9052602482018e90526001600160a01b03169063c6270ef590604401604080518083038186803b1580156200319457600080fd5b505afa158015620031a9573d6000803e3d6000fd5b505050506040513d601f19601f82011682018060405250810190620031cf9190620055a5565b91509150846101358a8a604051620031e9929190620050d3565b90815260408051602092819003830190206001600160a01b03861660009081529252812080549091906200321f9084906200526b565b92505081905550846101348a8a6040516200323c929190620050d3565b908152602001604051809103902060000160008282546200325e91906200526b565b92505081905550826101348a8a6040516200327b929190620050d3565b90815260408051602092819003830181206002015463313ce56760e01b825291516001600160a01b039092169263313ce56792600480840193829003018186803b158015620032c957600080fd5b505afa158015620032de573d6000803e3d6000fd5b505050506040513d601f19601f82011682018060405250810190620033049190620051b4565b62003311906012620053a5565b6200331e90600a620054c8565b6200332a868862005226565b62003336919062005226565b62003342919062005248565b6101358a8a60405162003357929190620050d3565b90815260200160405180910390206000846001600160a01b03166001600160a01b0316815260200190815260200160002060010160008282546200339c91906200526b565b925050819055508a6101348a8a604051620033b9929190620050d3565b90815260200160405180910390206001016000828254620033db91906200526b565b909155505060405160049061013490620033f9908c908c90620050d3565b908152602001604051809103902060030160009054906101000a90046001600160a01b03166001600160a01b0316635b2ccefd8f8f6040518363ffffffff1660e01b815260040162003455929190918252602082015260400190565b60206040518083038186803b1580156200346e57600080fd5b505afa15801562003483573d6000803e3d6000fd5b505050506040513d601f19601f82011682018060405250810190620034a99190620051b4565b60ff161415620034c257620034c2828e8e8c8c62003bdd565b6101358989604051620034d7929190620050d3565b9081526040805191829003602090810183206001600160a01b038087166000908152919092529190912060020154169063dbba0f0190839088906101349062003524908f908f90620050d3565b908152604051908190036020018120600201546001600160e01b031960e086901b1682526001600160a01b039384166004830152602482019290925291166044820152606401600060405180830381600087803b1580156200358557600080fd5b505af11580156200359a573d6000803e3d6000fd5b505061012e54604051632770a7eb60e21b81526001600160a01b039091169250639dc29fac9150620035e69084908f906004016001600160a01b03929092168252602082015260400190565b600060405180830381600087803b1580156200360157600080fd5b505af115801562003616573d6000803e3d6000fd5b50506101335461012e546200363d93506001600160a01b0390811692508491168d62003eed565b50507f3b9f5aaaea5eb6df9a429d2bb3b035b934d8cd822d73aa2951ce0afeb6a0ed163384836101348b8b60405162003678929190620050d3565b90815260408051602092819003830181206002015463313ce56760e01b825291516001600160a01b039092169263313ce56792600480840193829003018186803b158015620036c657600080fd5b505afa158015620036db573d6000803e3d6000fd5b505050506040513d601f19601f82011682018060405250810190620037019190620051b4565b6200370e906012620053a5565b6200371b90600a620054c8565b62003727878962005226565b62003733919062005226565b6200373f919062005248565b8e8e8c8c60405162000ead97969594939291906200551b565b60008051602062005f5583398151915262003774813362003a52565b8561013484846040516200378a929190620050d3565b908152602001604051809103902060020160006101000a8154816001600160a01b0302191690836001600160a01b03160217905550846101348484604051620037d5929190620050d3565b908152602001604051809103902060030160006101000a8154816001600160a01b0302191690836001600160a01b0316021790555086610134848460405162003820929190620050d3565b908152604051908190036020018120600501805492151560ff1990931692909217909155849061013490620038599086908690620050d3565b9081526040519081900360200190206004015550505050505050565b6060600061013584846040516200388e929190620050d3565b90815260408051602092819003830190206001600160a01b038a166000908152925290206004018054909150620038c79087906200526b565b851115620038e1578054620038de9087906200526b565b94505b846001600160401b03811115620038fc57620038fc62004a5c565b6040519080825280602002602001820160405280156200394357816020015b60408051808201909152600080825260208201528152602001906001900390816200391b5790505b50915060005b85811015620039d557816200395f828962005285565b81548110620039725762003972620055d9565b906000526020600020906002020160405180604001604052908160008201548152602001600182015481525050838281518110620039b457620039b4620055d9565b60200260200101819052508080620039cc90620055ef565b91505062003949565b505095945050505050565b60008051602062005f55833981519152620039fc813362003a52565b5061013155565b60008051602062005f5583398151915262003a1f813362003a52565b5061013380546001600160a01b0319166001600160a01b0392909216919091179055565b6001600160a01b03163b151590565b62003a5e828262002832565b62000f975762003a79816001600160a01b03166014620043bd565b62003a86836020620043bd565b60405160200162003a999291906200563c565b60408051601f198184030181529082905262461bcd60e51b8252620009b191600401620056b5565b6000610135838360405162003ad8929190620050d3565b9081526040805191829003602090810183203360009081529082528281208285018a905284840189905283518086038501815260609095018452845194830194909420815260038401909152205460048201805492935090918791908390811062003b475762003b47620055d9565b90600052602060002090600202016000015414801562003b8f57508482600401828154811062003b7b5762003b7b620055d9565b906000526020600020906002020160010154145b62001ed85760405162461bcd60e51b815260206004820152601760248201527f5751526f757465723a204c6f74206e6f7420666f756e640000000000000000006044820152606401620009b1565b6000610135838360405162003bf4929190620050d3565b90815260408051602092819003830181206001600160a01b038a1660009081529084528281209382018990529181018790529192509060600160408051601f198184030181529181528151602092830120600081815260038601909352908220546004850154919350919062003c6d906001906200526b565b9050600084600401828154811062003c895762003c89620055d9565b90600052602060002090600202016000015485600401838154811062003cb35762003cb3620055d9565b90600052602060002090600202016001015460405160200162003ce0929190918252602082015260400190565b6040516020818303038152906040528051906020012090508885600401848154811062003d115762003d11620055d9565b90600052602060002090600202016000015414801562003d5957508785600401848154811062003d455762003d45620055d9565b906000526020600020906002020160010154145b1562003e0c5784600401828154811062003d775762003d77620055d9565b906000526020600020906002020185600401848154811062003d9d5762003d9d620055d9565b6000918252602090912082546002909202019081556001918201549101556004850180548062003dd15762003dd1620056ea565b600082815260208082206002600019909401938402018281556001018290559190925582825260038701905260408082208590558582528120555b50505050505050505050565b6000610135838360405162003e2f929190620050d3565b90815260408051602092819003830181206001600160a01b038a16600090815290845282812082840190935288825283820188815260048401805460018082018355828552969093209351600290930290930191825551908401555490925062003e9a91906200526b565b816003016000878760405160200162003ebd929190918252602082015260400190565b60405160208183030381529060405280519060200120815260200190815260200160002081905550505050505050565b604080516001600160a01b0385811660248301528416604482015260648082018490528251808303909101815260849091019091526020810180516001600160e01b03166323b872dd60e01b17905262003f499085906200457d565b50505050565b62003f5b828262002832565b62000f975760008281526065602090815260408083206001600160a01b03851684529091529020805460ff1916600117905562003f953390565b6001600160a01b0316816001600160a01b0316837f2f8788117e7eff1d82e926ec794901d17c78024a50270940304540a733656f0d60405160405180910390a45050565b62003fe5828262002832565b1562000f975760008281526065602090815260408083206001600160a01b0385168085529252808320805460ff1916905551339285917ff6391f5c32d9c69d2a47ea670b442974b53935d1edc7fd64eb21e047a839171b9190a45050565b60008051602062005ece83398151915262000f97813362003a52565b7f4910fdfa16fed3260ed0e7147f7cc6da11a60208b5b9406d12a635614ffd91435460ff1615620040955762000ef18362004656565b826001600160a01b03166352d1902d6040518163ffffffff1660e01b815260040160206040518083038186803b158015620040cf57600080fd5b505afa92505050801562004102575060408051601f3d908101601f19168201909252620040ff9181019062005159565b60015b620041675760405162461bcd60e51b815260206004820152602e60248201527f45524331393637557067726164653a206e657720696d706c656d656e7461746960448201526d6f6e206973206e6f74205555505360901b6064820152608401620009b1565b60008051602062005eee8339815191528114620041d95760405162461bcd60e51b815260206004820152602960248201527f45524331393637557067726164653a20756e737570706f727465642070726f786044820152681a58589b195555525160ba1b6064820152608401620009b1565b5062000ef1838383620046f5565b600054610100900460ff16620042115760405162461bcd60e51b8152600401620009b19062005700565b565b600054610100900460ff166200423d5760405162461bcd60e51b8152600401620009b19062005700565b6200421162004720565b62000f97828262003f4f565b600082815260656020526040808220600101805490849055905190918391839186917fbd79b86ffe0ab8e8776151514217cd7cacd52c909f66475c3af44e129f0b00ff9190a4505050565b80471015620042f05760405162461bcd60e51b815260206004820152601d60248201527f416464726573733a20696e73756666696369656e742062616c616e63650000006044820152606401620009b1565b6000826001600160a01b03168260405160006040518083038185875af1925050503d80600081146200433f576040519150601f19603f3d011682016040523d82523d6000602084013e62004344565b606091505b505090508062000ef15760405162461bcd60e51b815260206004820152603a60248201527f416464726573733a20756e61626c6520746f2073656e642076616c75652c207260448201527f6563697069656e74206d617920686176652072657665727465640000000000006064820152608401620009b1565b60606000620043ce83600262005226565b620043db90600262005285565b6001600160401b03811115620043f557620043f562004a5c565b6040519080825280601f01601f19166020018201604052801562004420576020820181803683370190505b509050600360fc1b816000815181106200443e576200443e620055d9565b60200101906001600160f81b031916908160001a905350600f60fb1b81600181518110620044705762004470620055d9565b60200101906001600160f81b031916908160001a90535060006200449684600262005226565b620044a390600162005285565b90505b600181111562004525576f181899199a1a9b1b9c1cb0b131b232b360811b85600f1660108110620044db57620044db620055d9565b1a60f81b828281518110620044f457620044f4620055d9565b60200101906001600160f81b031916908160001a90535060049490941c936200451d816200574b565b9050620044a6565b508315620045765760405162461bcd60e51b815260206004820181905260248201527f537472696e67733a20686578206c656e67746820696e73756666696369656e746044820152606401620009b1565b9392505050565b6000620045d4826040518060400160405280602081526020017f5361666545524332303a206c6f772d6c6576656c2063616c6c206661696c6564815250856001600160a01b0316620047519092919063ffffffff16565b80519091501562000ef15780806020019051810190620045f5919062005765565b62000ef15760405162461bcd60e51b815260206004820152602a60248201527f5361666545524332303a204552433230206f7065726174696f6e20646964206e6044820152691bdd081cdd58d8d9595960b21b6064820152608401620009b1565b6001600160a01b0381163b620046c55760405162461bcd60e51b815260206004820152602d60248201527f455243313936373a206e657720696d706c656d656e746174696f6e206973206e60448201526c1bdd08184818dbdb9d1c9858dd609a1b6064820152608401620009b1565b60008051602062005eee83398151915280546001600160a01b0319166001600160a01b0392909216919091179055565b62004700836200476a565b6000825111806200470e5750805b1562000ef15762003f498383620047ac565b600054610100900460ff166200474a5760405162461bcd60e51b8152600401620009b19062005700565b6001609755565b6060620047628484600085620048a9565b949350505050565b620047758162004656565b6040516001600160a01b038216907fbc7cd75a20ee27fd9adebab32041f755214dbc6bffa90cc0225b39da2e5c2d3b90600090a250565b60606001600160a01b0383163b620048165760405162461bcd60e51b815260206004820152602660248201527f416464726573733a2064656c65676174652063616c6c20746f206e6f6e2d636f6044820152651b9d1c9858dd60d21b6064820152608401620009b1565b600080846001600160a01b03168460405162004833919062005785565b600060405180830381855af49150503d806000811462004870576040519150601f19603f3d011682016040523d82523d6000602084013e62004875565b606091505b5091509150620048a0828260405180606001604052806027815260200162005f2e60279139620049e4565b95945050505050565b6060824710156200490c5760405162461bcd60e51b815260206004820152602660248201527f416464726573733a20696e73756666696369656e742062616c616e636520666f6044820152651c8818d85b1b60d21b6064820152608401620009b1565b6001600160a01b0385163b620049655760405162461bcd60e51b815260206004820152601d60248201527f416464726573733a2063616c6c20746f206e6f6e2d636f6e74726163740000006044820152606401620009b1565b600080866001600160a01b0316858760405162004983919062005785565b60006040518083038185875af1925050503d8060008114620049c2576040519150601f19603f3d011682016040523d82523d6000602084013e620049c7565b606091505b5091509150620049d9828286620049e4565b979650505050505050565b60608315620049f557508162004576565b82511562004a065782518084602001fd5b8160405162461bcd60e51b8152600401620009b19190620056b5565b61072a80620057a483390190565b60006020828403121562004a4357600080fd5b81356001600160e01b0319811681146200457657600080fd5b634e487b7160e01b600052604160045260246000fd5b60006001600160401b038084111562004a8f5762004a8f62004a5c565b604051601f8501601f19908116603f0116810190828211818310171562004aba5762004aba62004a5c565b8160405280935085815286868601111562004ad457600080fd5b858560208301376000602087830101525050509392505050565b600082601f83011262004b0057600080fd5b620045768383356020850162004a72565b60006020828403121562004b2457600080fd5b81356001600160401b0381111562004b3b57600080fd5b620047628482850162004aee565b6001600160a01b03811681146200108457600080fd5b6000806040838503121562004b7357600080fd5b82356001600160401b0381111562004b8a57600080fd5b62004b988582860162004aee565b925050602083013562004bab8162004b49565b809150509250929050565b60006020828403121562004bc957600080fd5b8135620045768162004b49565b60008083601f84011262004be957600080fd5b5081356001600160401b0381111562004c0157600080fd5b60208301915083602082850101111562004c1a57600080fd5b9250929050565b6000806000806060858703121562004c3857600080fd5b843593506020850135925060408501356001600160401b0381111562004c5d57600080fd5b62004c6b8782880162004bd6565b95989497509550505050565b60006020828403121562004c8a57600080fd5b5035919050565b6000806040838503121562004ca557600080fd5b82359150602083013562004bab8162004b49565b6000806040838503121562004ccd57600080fd5b823562004cda8162004b49565b915060208301356001600160401b0381111562004cf657600080fd5b8301601f8101851362004d0857600080fd5b62004d198582356020840162004a72565b9150509250929050565b600080600080600060a0868803121562004d3c57600080fd5b853562004d498162004b49565b9450602086013562004d5b8162004b49565b93506040860135925060608601359150608086013562004d7b8162004b49565b809150509295509295909350565b60008060008060006080868803121562004da257600080fd5b85359450602086013593506040860135925060608601356001600160401b0381111562004dce57600080fd5b62004ddc8882890162004bd6565b969995985093965092949392505050565b60008060008060006080868803121562004e0657600080fd5b853562004e138162004b49565b9450602086013593506040860135925060608601356001600160401b0381111562004dce57600080fd5b6000806020838503121562004e5157600080fd5b82356001600160401b0381111562004e6857600080fd5b62004e768582860162004bd6565b90969095509350505050565b60008060008060008060008060006101008a8c03121562004ea257600080fd5b893562004eaf8162004b49565b985060208a0135975060408a0135965060608a0135955060808a0135945060a08a0135935060c08a0135925060e08a01356001600160401b0381111562004ef557600080fd5b62004f038c828d0162004bd6565b915080935050809150509295985092959850929598565b6000806000806060858703121562004f3157600080fd5b843562004f3e8162004b49565b93506020850135925060408501356001600160401b0381111562004c5d57600080fd5b60008060008060008060a0878903121562004f7b57600080fd5b8635955060208701359450604087013593506060870135925060808701356001600160401b0381111562004fae57600080fd5b62004fbc89828a0162004bd6565b979a9699509497509295939492505050565b80151581146200108457600080fd5b60008060008060008060a0878903121562004ff757600080fd5b8635620050048162004fce565b95506020870135620050168162004b49565b94506040870135620050288162004b49565b93506060870135925060808701356001600160401b0381111562004fae57600080fd5b602080825282518282018190526000919060409081850190868401855b828110156200508f5781518051855286015186850152928401929085019060010162005068565b5091979650505050505050565b6020808252601f908201527f5265656e7472616e637947756172643a207265656e7472616e742063616c6c00604082015260600190565b8183823760009101908152919050565b60208082526017908201527f5751526f757465723a20546f6b656e20646961626c6564000000000000000000604082015260600190565b81835281816020850137506000828201602090810191909152601f909101601f19169091010190565b602081526000620047626020830184866200511a565b6000602082840312156200516c57600080fd5b5051919050565b600080600080600060a086880312156200518c57600080fd5b5050835160208501516040860151606087015160809097015192989197509594509092509050565b600060208284031215620051c757600080fd5b815160ff811681146200457657600080fd5b60208082526018908201527f5751526f757465723a20537461747573206e6f74206e65770000000000000000604082015260600190565b634e487b7160e01b600052601160045260246000fd5b600081600019048311821515161562005243576200524362005210565b500290565b6000826200526657634e487b7160e01b600052601260045260246000fd5b500490565b60008282101562005280576200528062005210565b500390565b600082198211156200529b576200529b62005210565b500190565b60008060408385031215620052b457600080fd5b505080516020909101519092909150565b8881528760208201528660408201528560608201528460808201528360a082015260e060c08201526000620052ff60e0830184866200511a565b9a9950505050505050505050565b6020808252602c908201527f46756e6374696f6e206d7573742062652063616c6c6564207468726f7567682060408201526b19195b1959d85d1958d85b1b60a21b606082015260800190565b6020808252602c908201527f46756e6374696f6e206d7573742062652063616c6c6564207468726f7567682060408201526b6163746976652070726f787960a01b606082015260800190565b600060ff821660ff841680821015620053c257620053c262005210565b90039392505050565b600181815b808511156200540c578160001904821115620053f057620053f062005210565b80851615620053fe57918102915b93841c9390800290620053d0565b509250929050565b600082620054255750600162000945565b81620054345750600062000945565b81600181146200544d5760028114620054585762005478565b600191505062000945565b60ff8411156200546c576200546c62005210565b50506001821b62000945565b5060208310610133831016604e8410600b84101617156200549d575081810a62000945565b620054a98383620053cb565b8060001904821115620054c057620054c062005210565b029392505050565b60006200457660ff84168362005414565b60018060a01b03891681528760208201528660408201528560608201528460808201528360a082015260e060c08201526000620052ff60e0830184866200511a565b60018060a01b038816815286602082015285604082015284606082015283608082015260c060a082015260006200555760c0830184866200511a565b9998505050505050505050565b60208082526021908201527f5751526f757465723a204f6e6c7920636f6c6c61746572616c2061756374696f6040820152603760f91b606082015260800190565b60008060408385031215620055b957600080fd5b8251620055c68162004b49565b602084015190925062004bab8162004b49565b634e487b7160e01b600052603260045260246000fd5b600060001982141562005606576200560662005210565b5060010190565b60005b838110156200562a57818101518382015260200162005610565b8381111562003f495750506000910152565b7f416363657373436f6e74726f6c3a206163636f756e7420000000000000000000815260008351620056768160178501602088016200560d565b7001034b99036b4b9b9b4b733903937b6329607d1b6017918401918201528351620056a98160288401602088016200560d565b01602801949350505050565b6020815260008251806020840152620056d68160408501602087016200560d565b601f01601f19169190910160400192915050565b634e487b7160e01b600052603160045260246000fd5b6020808252602b908201527f496e697469616c697a61626c653a20636f6e7472616374206973206e6f74206960408201526a6e697469616c697a696e6760a81b606082015260800190565b6000816200575d576200575d62005210565b506000190190565b6000602082840312156200577857600080fd5b8151620045768162004fce565b60008251620057998184602087016200560d565b919091019291505056fe608060405234801561001057600080fd5b5060405161072a38038061072a83398101604081905261002f91610062565b60008054336001600160a01b031991821617909155600180549091166001600160a01b0392909216919091179055610092565b60006020828403121561007457600080fd5b81516001600160a01b038116811461008b57600080fd5b9392505050565b610689806100a16000396000f3fe608060405234801561001057600080fd5b50600436106100415760003560e01c80638da5cb5b14610046578063dbba0f0114610075578063f887ea401461008a575b600080fd5b600154610059906001600160a01b031681565b6040516001600160a01b03909116815260200160405180910390f35b610088610083366004610570565b61009d565b005b600054610059906001600160a01b031681565b6000546001600160a01b031633146101085760405162461bcd60e51b815260206004820152602360248201527f5751526f757465725661756c743a2053656e646572206973206e6f7420726f756044820152623a32b960e91b60648201526084015b60405180910390fd5b6001600160a01b038116156101305761012b6001600160a01b0382168484610193565b610143565b6101436001600160a01b038416836101ea565b604080516001600160a01b038084168252851660208201529081018390527fd1ba4ac2e2a11b5101f6cb4d978f514a155b421e8ec396d2d9abaf0bb02917ee9060600160405180910390a1505050565b604080516001600160a01b038416602482015260448082018490528251808303909101815260649091019091526020810180516001600160e01b031663a9059cbb60e01b1790526101e5908490610303565b505050565b8047101561023a5760405162461bcd60e51b815260206004820152601d60248201527f416464726573733a20696e73756666696369656e742062616c616e636500000060448201526064016100ff565b6000826001600160a01b03168260405160006040518083038185875af1925050503d8060008114610287576040519150601f19603f3d011682016040523d82523d6000602084013e61028c565b606091505b50509050806101e55760405162461bcd60e51b815260206004820152603a60248201527f416464726573733a20756e61626c6520746f2073656e642076616c75652c207260448201527f6563697069656e74206d6179206861766520726576657274656400000000000060648201526084016100ff565b6000610358826040518060400160405280602081526020017f5361666545524332303a206c6f772d6c6576656c2063616c6c206661696c6564815250856001600160a01b03166103d59092919063ffffffff16565b8051909150156101e5578080602001905181019061037691906105b2565b6101e55760405162461bcd60e51b815260206004820152602a60248201527f5361666545524332303a204552433230206f7065726174696f6e20646964206e6044820152691bdd081cdd58d8d9595960b21b60648201526084016100ff565b60606103e484846000856103ee565b90505b9392505050565b60608247101561044f5760405162461bcd60e51b815260206004820152602660248201527f416464726573733a20696e73756666696369656e742062616c616e636520666f6044820152651c8818d85b1b60d21b60648201526084016100ff565b6001600160a01b0385163b6104a65760405162461bcd60e51b815260206004820152601d60248201527f416464726573733a2063616c6c20746f206e6f6e2d636f6e747261637400000060448201526064016100ff565b600080866001600160a01b031685876040516104c29190610604565b60006040518083038185875af1925050503d80600081146104ff576040519150601f19603f3d011682016040523d82523d6000602084013e610504565b606091505b509150915061051482828661051f565b979650505050505050565b6060831561052e5750816103e7565b82511561053e5782518084602001fd5b8160405162461bcd60e51b81526004016100ff9190610620565b6001600160a01b038116811461056d57600080fd5b50565b60008060006060848603121561058557600080fd5b833561059081610558565b92506020840135915060408401356105a781610558565b809150509250925092565b6000602082840312156105c457600080fd5b815180151581146103e757600080fd5b60005b838110156105ef5781810151838201526020016105d7565b838111156105fe576000848401525b50505050565b600082516106168184602087016105d4565b9190910192915050565b602081526000825180602084015261063f8160408501602087016105d4565b601f01601f1916919091016040019291505056fea2646970667358221220f9599cb443d118d129a11e97dea91cb2df9e7c8ddbd8811c90f86e43dc8f329564736f6c63430008090033189ab7a9244df0848122154315af71fe140f3db0fe014031783b0946b8c9d2e3360894a13ba1a3210667c828492db98dca3e2076cc3735a920a3ca505d382bbc42d9f6d150b570563fb401da0d6fcc70742de612eb02978d8fb2a2c00efc7034416464726573733a206c6f772d6c6576656c2064656c65676174652063616c6c206661696c6564a49807205ce4d355092ef5a8a18f56e8913cf4a201fbe287825b095693c21775a264697066735822122045db903a048de588fd4c9d9d66722a73b300d27eca091edb3444545694e4076164736f6c63430008090033",
  "linkReferences": {},
  "deployedLinkReferences": {}
}