{
  "_format": "hh-sol-artifact-1",
  "contractName": "WQRouter",
  "sourceName": "contracts/stablecoin/WQRouter.sol",
  "abi": [
    {
      "inputs": [],
      "stateMutability": "nonpayable",
      "type": "constructor"
    },
    {
      "anonymous": false,
      "inputs": [
        {
          "indexed": false,
          "internalType": "address",
          "name": "previousAdmin",
          "type": "address"
        },
        {
          "indexed": false,
          "internalType": "address",
          "name": "newAdmin",
          "type": "address"
        }
      ],
      "name": "AdminChanged",
      "type": "event"
    },
    {
      "anonymous": false,
      "inputs": [
        {
          "indexed": true,
          "internalType": "address",
          "name": "beacon",
          "type": "address"
        }
      ],
      "name": "BeaconUpgraded",
      "type": "event"
    },
    {
      "anonymous": false,
      "inputs": [
        {
          "indexed": false,
          "internalType": "uint256",
          "name": "collateral",
          "type": "uint256"
        },
        {
          "indexed": false,
          "internalType": "uint256",
          "name": "debt",
          "type": "uint256"
        },
        {
          "indexed": false,
          "internalType": "uint256",
          "name": "price",
          "type": "uint256"
        },
        {
          "indexed": false,
          "internalType": "uint256",
          "name": "index",
          "type": "uint256"
        },
        {
          "indexed": false,
          "internalType": "uint256",
          "name": "newIndex",
          "type": "uint256"
        },
        {
          "indexed": false,
          "internalType": "uint8",
          "name": "status",
          "type": "uint8"
        },
        {
          "indexed": false,
          "internalType": "string",
          "name": "symbol",
          "type": "string"
        }
      ],
      "name": "Moved",
      "type": "event"
    },
    {
      "anonymous": false,
      "inputs": [
        {
          "indexed": false,
          "internalType": "address",
          "name": "user",
          "type": "address"
        },
        {
          "indexed": false,
          "internalType": "uint256",
          "name": "collateral",
          "type": "uint256"
        },
        {
          "indexed": false,
          "internalType": "uint256",
          "name": "ratio",
          "type": "uint256"
        },
        {
          "indexed": false,
          "internalType": "uint256",
          "name": "debt",
          "type": "uint256"
        },
        {
          "indexed": false,
          "internalType": "uint256",
          "name": "price",
          "type": "uint256"
        },
        {
          "indexed": false,
          "internalType": "uint256",
          "name": "index",
          "type": "uint256"
        },
        {
          "indexed": false,
          "internalType": "string",
          "name": "symbol",
          "type": "string"
        }
      ],
      "name": "Produced",
      "type": "event"
    },
    {
      "anonymous": false,
      "inputs": [
        {
          "indexed": false,
          "internalType": "uint256",
          "name": "amount",
          "type": "uint256"
        }
      ],
      "name": "Received",
      "type": "event"
    },
    {
      "anonymous": false,
      "inputs": [
        {
          "indexed": false,
          "internalType": "address",
          "name": "user",
          "type": "address"
        },
        {
          "indexed": false,
          "internalType": "uint256",
          "name": "collateral",
          "type": "uint256"
        },
        {
          "indexed": false,
          "internalType": "uint256",
          "name": "debt",
          "type": "uint256"
        },
        {
          "indexed": false,
          "internalType": "uint256",
          "name": "price",
          "type": "uint256"
        },
        {
          "indexed": false,
          "internalType": "uint256",
          "name": "ratio",
          "type": "uint256"
        },
        {
          "indexed": false,
          "internalType": "uint256",
          "name": "index",
          "type": "uint256"
        },
        {
          "indexed": false,
          "internalType": "string",
          "name": "symbol",
          "type": "string"
        }
      ],
      "name": "Removed",
      "type": "event"
    },
    {
      "anonymous": false,
      "inputs": [
        {
          "indexed": true,
          "internalType": "bytes32",
          "name": "role",
          "type": "bytes32"
        },
        {
          "indexed": true,
          "internalType": "bytes32",
          "name": "previousAdminRole",
          "type": "bytes32"
        },
        {
          "indexed": true,
          "internalType": "bytes32",
          "name": "newAdminRole",
          "type": "bytes32"
        }
      ],
      "name": "RoleAdminChanged",
      "type": "event"
    },
    {
      "anonymous": false,
      "inputs": [
        {
          "indexed": true,
          "internalType": "bytes32",
          "name": "role",
          "type": "bytes32"
        },
        {
          "indexed": true,
          "internalType": "address",
          "name": "account",
          "type": "address"
        },
        {
          "indexed": true,
          "internalType": "address",
          "name": "sender",
          "type": "address"
        }
      ],
      "name": "RoleGranted",
      "type": "event"
    },
    {
      "anonymous": false,
      "inputs": [
        {
          "indexed": true,
          "internalType": "bytes32",
          "name": "role",
          "type": "bytes32"
        },
        {
          "indexed": true,
          "internalType": "address",
          "name": "account",
          "type": "address"
        },
        {
          "indexed": true,
          "internalType": "address",
          "name": "sender",
          "type": "address"
        }
      ],
      "name": "RoleRevoked",
      "type": "event"
    },
    {
      "anonymous": false,
      "inputs": [
        {
          "indexed": true,
          "internalType": "address",
          "name": "implementation",
          "type": "address"
        }
      ],
      "name": "Upgraded",
      "type": "event"
    },
    {
      "inputs": [],
      "name": "ADMIN_ROLE",
      "outputs": [
        {
          "internalType": "bytes32",
          "name": "",
          "type": "bytes32"
        }
      ],
      "stateMutability": "view",
      "type": "function"
    },
    {
      "inputs": [],
      "name": "DEFAULT_ADMIN_ROLE",
      "outputs": [
        {
          "internalType": "bytes32",
          "name": "",
          "type": "bytes32"
        }
      ],
      "stateMutability": "view",
      "type": "function"
    },
    {
      "inputs": [],
      "name": "UPGRADER_ROLE",
      "outputs": [
        {
          "internalType": "bytes32",
          "name": "",
          "type": "bytes32"
        }
      ],
      "stateMutability": "view",
      "type": "function"
    },
    {
      "inputs": [
        {
          "internalType": "uint256",
          "name": "index",
          "type": "uint256"
        },
        {
          "internalType": "string",
          "name": "symbol",
          "type": "string"
        }
      ],
      "name": "addCollateral",
      "outputs": [],
      "stateMutability": "nonpayable",
      "type": "function"
    },
    {
      "inputs": [
        {
          "internalType": "address",
          "name": "buyer",
          "type": "address"
        },
        {
          "internalType": "uint256",
          "name": "index",
          "type": "uint256"
        },
        {
          "internalType": "uint256",
          "name": "debtAmount",
          "type": "uint256"
        },
        {
          "internalType": "uint256",
          "name": "collateralAmount",
          "type": "uint256"
        },
        {
          "internalType": "string",
          "name": "symbol",
          "type": "string"
        }
      ],
      "name": "buyCollateral",
      "outputs": [],
      "stateMutability": "nonpayable",
      "type": "function"
    },
    {
      "inputs": [
        {
          "internalType": "uint256",
          "name": "index",
          "type": "uint256"
        },
        {
          "internalType": "string",
          "name": "symbol",
          "type": "string"
        }
      ],
      "name": "claimExtraDebt",
      "outputs": [],
      "stateMutability": "nonpayable",
      "type": "function"
    },
    {
      "inputs": [
        {
          "internalType": "uint256",
          "name": "index",
          "type": "uint256"
        },
        {
          "internalType": "string",
          "name": "symbol",
          "type": "string"
        }
      ],
      "name": "disposeDebt",
      "outputs": [],
      "stateMutability": "nonpayable",
      "type": "function"
    },
    {
      "inputs": [
        {
          "internalType": "string",
          "name": "symbol",
          "type": "string"
        }
      ],
      "name": "getCollateral",
      "outputs": [
        {
          "internalType": "uint256",
          "name": "amount",
          "type": "uint256"
        }
      ],
      "stateMutability": "view",
      "type": "function"
    },
    {
      "inputs": [
        {
          "internalType": "string",
          "name": "symbol",
          "type": "string"
        }
      ],
      "name": "getDebt",
      "outputs": [
        {
          "internalType": "uint256",
          "name": "amount",
          "type": "uint256"
        }
      ],
      "stateMutability": "view",
      "type": "function"
    },
    {
      "inputs": [],
      "name": "getParams",
      "outputs": [
        {
          "internalType": "contract WQPriceOracleInterface",
          "name": "",
          "type": "address"
        },
        {
          "internalType": "contract WQBridgeTokenInterface",
          "name": "",
          "type": "address"
        }
      ],
      "stateMutability": "view",
      "type": "function"
    },
    {
      "inputs": [
        {
          "internalType": "bytes32",
          "name": "role",
          "type": "bytes32"
        }
      ],
      "name": "getRoleAdmin",
      "outputs": [
        {
          "internalType": "bytes32",
          "name": "",
          "type": "bytes32"
        }
      ],
      "stateMutability": "view",
      "type": "function"
    },
    {
      "inputs": [
        {
          "internalType": "address",
          "name": "user",
          "type": "address"
        },
        {
          "internalType": "uint256",
          "name": "offset",
          "type": "uint256"
        },
        {
          "internalType": "uint256",
          "name": "limit",
          "type": "uint256"
        },
        {
          "internalType": "string",
          "name": "symbol",
          "type": "string"
        }
      ],
      "name": "getUserLots",
      "outputs": [
        {
          "internalType": "uint256[]",
          "name": "page",
          "type": "uint256[]"
        }
      ],
      "stateMutability": "view",
      "type": "function"
    },
    {
      "inputs": [
        {
          "internalType": "bytes32",
          "name": "role",
          "type": "bytes32"
        },
        {
          "internalType": "address",
          "name": "account",
          "type": "address"
        }
      ],
      "name": "grantRole",
      "outputs": [],
      "stateMutability": "nonpayable",
      "type": "function"
    },
    {
      "inputs": [
        {
          "internalType": "bytes32",
          "name": "role",
          "type": "bytes32"
        },
        {
          "internalType": "address",
          "name": "account",
          "type": "address"
        }
      ],
      "name": "hasRole",
      "outputs": [
        {
          "internalType": "bool",
          "name": "",
          "type": "bool"
        }
      ],
      "stateMutability": "view",
      "type": "function"
    },
    {
      "inputs": [
        {
          "internalType": "address",
          "name": "_oracle",
          "type": "address"
        },
        {
          "internalType": "address",
          "name": "_wusd",
          "type": "address"
        }
      ],
      "name": "initialize",
      "outputs": [],
      "stateMutability": "nonpayable",
      "type": "function"
    },
    {
      "inputs": [
        {
          "internalType": "address",
          "name": "user",
          "type": "address"
        },
        {
          "internalType": "uint256",
          "name": "collateral",
          "type": "uint256"
        },
        {
          "internalType": "uint256",
          "name": "price",
          "type": "uint256"
        },
        {
          "internalType": "uint256",
          "name": "collateralRatio",
          "type": "uint256"
        },
        {
          "internalType": "uint256",
          "name": "index",
          "type": "uint256"
        },
        {
          "internalType": "uint256",
          "name": "newIndex",
          "type": "uint256"
        },
        {
          "internalType": "string",
          "name": "symbol",
          "type": "string"
        }
      ],
      "name": "moveUserLot",
      "outputs": [],
      "stateMutability": "nonpayable",
      "type": "function"
    },
    {
      "inputs": [
        {
          "internalType": "uint256",
          "name": "collateralAmount",
          "type": "uint256"
        },
        {
          "internalType": "uint256",
          "name": "collateralRatio",
          "type": "uint256"
        },
        {
          "internalType": "string",
          "name": "symbol",
          "type": "string"
        }
      ],
      "name": "produceWUSD",
      "outputs": [],
      "stateMutability": "nonpayable",
      "type": "function"
    },
    {
      "inputs": [],
      "name": "proxiableUUID",
      "outputs": [
        {
          "internalType": "bytes32",
          "name": "",
          "type": "bytes32"
        }
      ],
      "stateMutability": "view",
      "type": "function"
    },
    {
      "inputs": [
        {
          "internalType": "uint256",
          "name": "index",
          "type": "uint256"
        },
        {
          "internalType": "uint256",
          "name": "debtPart",
          "type": "uint256"
        },
        {
          "internalType": "string",
          "name": "symbol",
          "type": "string"
        }
      ],
      "name": "removeCollateral",
      "outputs": [],
      "stateMutability": "nonpayable",
      "type": "function"
    },
    {
      "inputs": [
        {
          "internalType": "bytes32",
          "name": "role",
          "type": "bytes32"
        },
        {
          "internalType": "address",
          "name": "account",
          "type": "address"
        }
      ],
      "name": "renounceRole",
      "outputs": [],
      "stateMutability": "nonpayable",
      "type": "function"
    },
    {
      "inputs": [
        {
          "internalType": "bytes32",
          "name": "role",
          "type": "bytes32"
        },
        {
          "internalType": "address",
          "name": "account",
          "type": "address"
        }
      ],
      "name": "revokeRole",
      "outputs": [],
      "stateMutability": "nonpayable",
      "type": "function"
    },
    {
      "inputs": [
        {
          "internalType": "address",
          "name": "_oracle",
          "type": "address"
        },
        {
          "internalType": "address",
          "name": "_wusd",
          "type": "address"
        }
      ],
      "name": "setContracts",
      "outputs": [],
      "stateMutability": "nonpayable",
      "type": "function"
    },
    {
      "inputs": [
        {
          "internalType": "bool",
          "name": "enabled",
          "type": "bool"
        },
        {
          "internalType": "address",
          "name": "token",
          "type": "address"
        },
        {
          "internalType": "address",
          "name": "auction",
          "type": "address"
        },
        {
          "internalType": "uint256",
          "name": "minRatio",
          "type": "uint256"
        },
        {
          "internalType": "string",
          "name": "symbol",
          "type": "string"
        }
      ],
      "name": "setToken",
      "outputs": [],
      "stateMutability": "nonpayable",
      "type": "function"
    },
    {
      "inputs": [
        {
          "internalType": "bytes4",
          "name": "interfaceId",
          "type": "bytes4"
        }
      ],
      "name": "supportsInterface",
      "outputs": [
        {
          "internalType": "bool",
          "name": "",
          "type": "bool"
        }
      ],
      "stateMutability": "view",
      "type": "function"
    },
    {
      "inputs": [
        {
          "internalType": "address",
          "name": "user",
          "type": "address"
        },
        {
          "internalType": "uint256",
          "name": "index",
          "type": "uint256"
        },
        {
          "internalType": "string",
          "name": "symbol",
          "type": "string"
        }
      ],
      "name": "syncState",
      "outputs": [],
      "stateMutability": "nonpayable",
      "type": "function"
    },
    {
      "inputs": [
        {
          "internalType": "string",
          "name": "",
          "type": "string"
        }
      ],
      "name": "tokens",
      "outputs": [
        {
          "internalType": "uint256",
          "name": "totalCollateral",
          "type": "uint256"
        },
        {
          "internalType": "uint256",
          "name": "totalDebt",
          "type": "uint256"
        },
        {
          "internalType": "address",
          "name": "token",
          "type": "address"
        },
        {
          "internalType": "contract WQCollateralAuction",
          "name": "collateralAuction",
          "type": "address"
        },
        {
          "internalType": "uint256",
          "name": "minRatio",
          "type": "uint256"
        },
        {
          "internalType": "bool",
          "name": "enabled",
          "type": "bool"
        }
      ],
      "stateMutability": "view",
      "type": "function"
    },
    {
      "inputs": [
        {
          "internalType": "address",
          "name": "newImplementation",
          "type": "address"
        }
      ],
      "name": "upgradeTo",
      "outputs": [],
      "stateMutability": "nonpayable",
      "type": "function"
    },
    {
      "inputs": [
        {
          "internalType": "address",
          "name": "newImplementation",
          "type": "address"
        },
        {
          "internalType": "bytes",
          "name": "data",
          "type": "bytes"
        }
      ],
      "name": "upgradeToAndCall",
      "outputs": [],
      "stateMutability": "payable",
      "type": "function"
    },
    {
      "stateMutability": "payable",
      "type": "receive"
    }
  ],
  "bytecode": "0x60a0604052306080523480156200001557600080fd5b50600054610100900460ff16620000335760005460ff16156200003d565b6200003d620000e2565b620000a55760405162461bcd60e51b815260206004820152602e60248201527f496e697469616c697a61626c653a20636f6e747261637420697320616c72656160448201526d191e481a5b9a5d1a585b1a5e995960921b606482015260840160405180910390fd5b600054610100900460ff16158015620000c8576000805461ffff19166101011790555b8015620000db576000805461ff00191690555b506200010f565b6000620000fa306200010060201b620037051760201c565b15905090565b6001600160a01b03163b151590565b60805161591862000147600039600081816116010152818161164401528181611f0701528181611f4a0152611fe201526159186000f3fe608060405260043610620001df5760003560e01c806375b238fc11620000ff578063bb521df41162000095578063d8952a49116200006c578063d8952a49146200063e578063e19af8211462000663578063e1cc246a1462000688578063f72c0d8b14620006bc57600080fd5b8063bb521df414620005cf578063bb537b5014620005f4578063d547741f146200061957600080fd5b80638c1e06f111620000d65780638c1e06f1146200054957806391d14854146200056e57806397bcbf401462000593578063a217fddf14620005b857600080fd5b806375b238fc14620004da5780637b59bd5514620004ff5780637d2bda96146200052457600080fd5b80633659cfe611620001755780634f1ef286116200014c5780634f1ef286146200044f57806352d1902d146200046657806359880b95146200047e5780635e615a6b14620004a357600080fd5b80633659cfe614620003e05780634493edd71462000405578063485cc955146200042a57600080fd5b8063248a9ca311620001b6578063248a9ca3146200032e5780632f2ff15d146200037157806331318511146200039657806336568abe14620003bb57600080fd5b806301ffc9a7146200021f57806304c2320b1462000259578063198a0ac0146200030757600080fd5b366200021a576040513481527fa8142743f8f70a4c26f3691cf4ed59718381fb2f18070ec52be1f1022d8555579060200160405180910390a1005b600080fd5b3480156200022c57600080fd5b50620002446200023e36600462004405565b620006e1565b60405190151581526020015b60405180910390f35b3480156200026657600080fd5b50620002ca62000278366004620044e6565b80518082016020908101805161012f82529282019190930120915280546001820154600283015460038401546004850154600590950154939492936001600160a01b0392831693919092169160ff1686565b6040805196875260208701959095526001600160a01b0393841694860194909452911660608401526080830152151560a082015260c00162000250565b3480156200031457600080fd5b506200032c6200032636600462004569565b62000719565b005b3480156200033b57600080fd5b50620003626200034d366004620045bf565b60009081526065602052604090206001015490565b60405190815260200162000250565b3480156200037e57600080fd5b506200032c62000390366004620045ef565b62000f88565b348015620003a357600080fd5b506200032c620003b536600462004622565b62000fb7565b348015620003c857600080fd5b506200032c620003da366004620045ef565b62001574565b348015620003ed57600080fd5b506200032c620003ff36600462004671565b620015f6565b3480156200041257600080fd5b506200032c6200042436600462004569565b620016e2565b3480156200043757600080fd5b506200032c6200044936600462004691565b62001d7f565b6200032c62000460366004620046c4565b62001efc565b3480156200047357600080fd5b506200036262001fd5565b3480156200048b57600080fd5b506200032c6200049d3660046200472e565b6200208b565b348015620004b057600080fd5b5061012d5461012e54604080516001600160a01b0393841681529290911660208301520162000250565b348015620004e757600080fd5b5062000362600080516020620058a383398151915281565b3480156200050c57600080fd5b506200032c6200051e366004620047b3565b62002285565b3480156200053157600080fd5b506200032c6200054336600462004622565b620022f1565b3480156200055657600080fd5b506200036262000568366004620047fa565b620028d7565b3480156200057b57600080fd5b50620002446200058d366004620045ef565b62002908565b348015620005a057600080fd5b506200032c620005b236600462004622565b62002933565b348015620005c557600080fd5b5062000362600081565b348015620005dc57600080fd5b5062000362620005ee366004620047fa565b62002f1a565b3480156200060157600080fd5b506200032c620006133660046200483f565b62002f49565b3480156200062657600080fd5b506200032c62000638366004620045ef565b62003448565b3480156200064b57600080fd5b506200032c6200065d36600462004691565b62003472565b3480156200067057600080fd5b506200032c62000682366004620048c0565b620034bf565b3480156200069557600080fd5b50620006ad620006a73660046200494e565b620035dc565b604051620002509190620049bd565b348015620006c957600080fd5b50620003626000805160206200583c83398151915281565b60006001600160e01b03198216637965db0b60e01b14806200071357506301ffc9a760e01b6001600160e01b03198316145b92915050565b60026097541415620007485760405162461bcd60e51b81526004016200073f9062004a03565b60405180910390fd5b6002609781905550818161012f82826040516200076792919062004a3a565b9081526040519081900360200190206005015460ff166200079c5760405162461bcd60e51b81526004016200073f9062004a4a565b620007a986858562003714565b600080600061012f8787604051620007c392919062004a3a565b90815260405190819003602001812060030154632f1b130360e01b82526001600160a01b031690632f1b13039062000803908c9060040190815260200190565b60606040518083038186803b1580156200081c57600080fd5b505afa15801562000831573d6000803e3d6000fd5b505050506040513d601f19601f8201168201806040525081019062000857919062004a81565b60405191955091935090915060019061012f9062000879908a908a9062004a3a565b90815260405190819003602001812060030154634cbf3e1b60e11b82526001600160a01b03169063997e7c3690620008b9908d9060040190815260200190565b60206040518083038186803b158015620008d257600080fd5b505afa158015620008e7573d6000803e3d6000fd5b505050506040513d601f19601f820116820180604052508101906200090d919062004ab0565b60ff1614620009305760405162461bcd60e51b81526004016200073f9062004ad5565b8061012f88886040516200094692919062004a3a565b90815260408051602092819003830181206002015463313ce56760e01b825291516001600160a01b039092169263313ce56792600480840193829003018186803b1580156200099457600080fd5b505afa158015620009a9573d6000803e3d6000fd5b505050506040513d601f19601f82011682018060405250810190620009cf919062004ab0565b620009dc90601262004b22565b620009e990600a62004c45565b620009f5858562004c56565b62000a01919062004c56565b62000a0d919062004c78565b88111562000a7b5760405162461bcd60e51b815260206004820152603460248201527f5751526f757465723a2052656d6f7665642064656274207061727420697320676044820152731c99585d195c881d1a185b88185b1b081919589d60621b60648201526084016200073f565b600061012f888860405162000a9292919062004a3a565b90815260408051602092819003830181206002015463313ce56760e01b825291516001600160a01b039092169263313ce56792600480840193829003018186803b15801562000ae057600080fd5b505afa15801562000af5573d6000803e3d6000fd5b505050506040513d601f19601f8201168201806040525081019062000b1b919062004ab0565b62000b2890601262004b22565b62000b3590600a62004c45565b8462000b42848c62004c56565b62000b4e919062004c78565b62000b5a919062004c78565b90508861012f898960405162000b7292919062004a3a565b9081526020016040518091039020600101600082825462000b94919062004c9b565b925050819055508061012f898960405162000bb192919062004a3a565b9081526020016040518091039020600001600082825462000bd3919062004c9b565b925050819055506000610130898960405162000bf192919062004a3a565b90815260408051602092819003830190203360009081529252812080549092508391839162000c2290849062004c9b565b92505081905550600061012f8a8a60405162000c4092919062004a3a565b9081526040519081900360200181206003015463d0896c5560e01b82526001600160a01b03169063d0896c559062000c87908f908790600401918252602082015260400190565b602060405180830381600087803b15801562000ca257600080fd5b505af115801562000cb7573d6000803e3d6000fd5b505050506040513d601f19601f8201168201806040525081019062000cdd919062004cb5565b90508062000d265762000d248c6101308c8c60405162000cff92919062004a3a565b90815260408051602092819003830190203360009081529252902060020190620037a1565b505b62000d32838662004c9b565b94508160010160009054906101000a90046001600160a01b03166001600160a01b031663dbba0f01338561012f8e8e60405162000d7192919062004a3a565b908152604051908190036020018120600201546001600160e01b031960e086901b1682526001600160a01b039384166004830152602482019290925291166044820152606401600060405180830381600087803b15801562000dd257600080fd5b505af115801562000de7573d6000803e3d6000fd5b505061012e54604051632770a7eb60e21b8152336004820152602481018f90526001600160a01b039091169250639dc29fac9150604401600060405180830381600087803b15801562000e3957600080fd5b505af115801562000e4e573d6000803e3d6000fd5b505050505050507fcc3f3bf4ebb079856c31b44ccbec64a58ff9c3f04a8d8a846ee9e7c2e0e4c7e133838361012f8b8b60405162000e8e92919062004a3a565b90815260408051602092819003830181206002015463313ce56760e01b825291516001600160a01b039092169263313ce56792600480840193829003018186803b15801562000edc57600080fd5b505afa15801562000ef1573d6000803e3d6000fd5b505050506040513d601f19601f8201168201806040525081019062000f17919062004ab0565b62000f2490601262004b22565b62000f3190600a62004c45565b62000f3d888862004c56565b62000f49919062004c56565b62000f55919062004c78565b86858e8d8d60405162000f7098979695949392919062004cf8565b60405180910390a15050600160975550505050505050565b60008281526065602052604090206001015462000fa68133620037b6565b62000fb2838362003825565b505050565b6002609754141562000fdd5760405162461bcd60e51b81526004016200073f9062004a03565b6002609781905550818161012f828260405162000ffc92919062004a3a565b9081526040519081900360200190206005015460ff16620010315760405162461bcd60e51b81526004016200073f9062004a4a565b6200103e85858562003714565b61012d54604051630292e0fd60e01b81526000916001600160a01b031690630292e0fd9062001074908890889060040162004d48565b60206040518083038186803b1580156200108d57600080fd5b505afa158015620010a2573d6000803e3d6000fd5b505050506040513d601f19601f82011682018060405250810190620010c8919062004cb5565b9050600080600061012f8888604051620010e492919062004a3a565b90815260405190819003602001812060030154632f1b130360e01b82526001600160a01b031690632f1b13039062001124908c9060040190815260200190565b60606040518083038186803b1580156200113d57600080fd5b505afa15801562001152573d6000803e3d6000fd5b505050506040513d601f19601f8201168201806040525081019062001178919062004a81565b925092509250600160ff1661012f89896040516200119892919062004a3a565b90815260405190819003602001812060030154634cbf3e1b60e11b82526001600160a01b03169063997e7c3690620011d8908d9060040190815260200190565b60206040518083038186803b158015620011f157600080fd5b505afa15801562001206573d6000803e3d6000fd5b505050506040513d601f19601f820116820180604052508101906200122c919062004ab0565b60ff16146200124f5760405162461bcd60e51b81526004016200073f9062004ad5565b600083856200125f828662004c56565b6200126b919062004c78565b62001277919062004c9b565b90508061012f8a8a6040516200128f92919062004a3a565b90815260200160405180910390206000016000828254620012b1919062004d5e565b92505081905550806101308a8a604051620012ce92919062004a3a565b9081526040805160209281900383019020336000908152925281208054909190620012fb90849062004d5e565b909155505060405161012f9062001316908b908b9062004a3a565b908152604051908190036020019020600301546001600160a01b031663b70a07ea8b8762001345858962004d5e565b6040516001600160e01b031960e086901b168152600481019390935260248301919091526044820152606401602060405180830381600087803b1580156200138c57600080fd5b505af1158015620013a1573d6000803e3d6000fd5b505050506040513d601f19601f82011682018060405250810190620013c7919062004cb5565b5062001445336101308b8b604051620013e292919062004a3a565b908152604080519182900360209081018320336000908152915220600101546001600160a01b031690849061012f9062001420908f908f9062004a3a565b908152604051908190036020019020600201546001600160a01b0316929190620038af565b600080516020620058c383398151915262001461828662004d5e565b8361012f8c8c6040516200147792919062004a3a565b90815260408051602092819003830181206002015463313ce56760e01b825291516001600160a01b039092169263313ce56792600480840193829003018186803b158015620014c557600080fd5b505afa158015620014da573d6000803e3d6000fd5b505050506040513d601f19601f8201168201806040525081019062001500919062004ab0565b6200150d90601262004b22565b6200151a90600a62004c45565b62001526888862004c56565b62001532919062004c56565b6200153e919062004c78565b878d8e60028f8f6040516200155b98979695949392919062004d79565b60405180910390a1505060016097555050505050505050565b6001600160a01b0381163314620015e65760405162461bcd60e51b815260206004820152602f60248201527f416363657373436f6e74726f6c3a2063616e206f6e6c792072656e6f756e636560448201526e103937b632b9903337b91039b2b63360891b60648201526084016200073f565b620015f2828262003911565b5050565b306001600160a01b037f0000000000000000000000000000000000000000000000000000000000000000161415620016425760405162461bcd60e51b81526004016200073f9062004db6565b7f00000000000000000000000000000000000000000000000000000000000000006001600160a01b03166200168d6000805160206200585c833981519152546001600160a01b031690565b6001600160a01b031614620016b65760405162461bcd60e51b81526004016200073f9062004e02565b620016c1816200397b565b60408051600080825260208201909252620016df9183919062003997565b50565b60026097541415620017085760405162461bcd60e51b81526004016200073f9062004a03565b6002609781905550818161012f82826040516200172792919062004a3a565b9081526040519081900360200190206005015460ff166200175c5760405162461bcd60e51b81526004016200073f9062004a4a565b61012f84846040516200177192919062004a3a565b90815260200160405180910390206004015485101580156200181b575061012d54604051630ac1066b60e11b81526001600160a01b03909116906315820cd690620017c3908790879060040162004d48565b60206040518083038186803b158015620017dc57600080fd5b505afa158015620017f1573d6000803e3d6000fd5b505050506040513d601f19601f8201168201806040525081019062001817919062004cb5565b8511155b620018745760405162461bcd60e51b815260206004820152602260248201527f5751526f757465723a20496e76616c696420636f6c6c61746572616c20726174604482015261696f60f01b60648201526084016200073f565b61012d54604051630292e0fd60e01b81526000916001600160a01b031690630292e0fd90620018aa908890889060040162004d48565b60206040518083038186803b158015620018c357600080fd5b505afa158015620018d8573d6000803e3d6000fd5b505050506040513d601f19601f82011682018060405250810190620018fe919062004cb5565b905060006001600160a01b031661013086866040516200192092919062004a3a565b908152604080516020928190038301902033600090815292529020600101546001600160a01b03161415620019de57336040516200195e90620043f7565b6001600160a01b039091168152602001604051809103906000f0801580156200198b573d6000803e3d6000fd5b506101308686604051620019a192919062004a3a565b90815260408051602092819003830190203360009081529252902060010180546001600160a01b0319166001600160a01b03929092169190911790555b866101308686604051620019f492919062004a3a565b908152604080516020928190038301902033600090815292528120805490919062001a2190849062004d5e565b925050819055508661012f868660405162001a3e92919062004a3a565b9081526020016040518091039020600001600082825462001a60919062004d5e565b9250508190555060008661012f878760405162001a7f92919062004a3a565b90815260408051602092819003830181206002015463313ce56760e01b825291516001600160a01b039092169263313ce56792600480840193829003018186803b15801562001acd57600080fd5b505afa15801562001ae2573d6000803e3d6000fd5b505050506040513d601f19601f8201168201806040525081019062001b08919062004ab0565b62001b1590601262004b22565b62001b2290600a62004c45565b62001b2e848b62004c56565b62001b3a919062004c56565b62001b46919062004c78565b90508061012f878760405162001b5e92919062004a3a565b9081526020016040518091039020600101600082825462001b80919062004d5e565b92505081905550600061012f878760405162001b9e92919062004a3a565b9081526040519081900360200181206003015463cc6b3be360e01b825233600483015260248201859052604482018b9052606482018a90526001600160a01b03169063cc6b3be390608401602060405180830381600087803b15801562001c0457600080fd5b505af115801562001c19573d6000803e3d6000fd5b505050506040513d601f19601f8201168201806040525081019062001c3f919062004cb5565b905062001c8081610130898960405162001c5b92919062004a3a565b9081526040805160209281900383019020336000908152925290206002019062003b1f565b5062001cd933610130898960405162001c9b92919062004a3a565b908152604080519182900360209081018320336000908152915220600101546001600160a01b0316908c9061012f9062001420908d908d9062004a3a565b61012e546040516340c10f1960e01b8152336004820152602481018490526001600160a01b03909116906340c10f1990604401600060405180830381600087803b15801562001d2757600080fd5b505af115801562001d3c573d6000803e3d6000fd5b505050507f0cd37c976baaad20e50f369a7000baf6b6c37b632190cba4a51372e76c9476ad338a8a8587868d8d60405162000f7098979695949392919062004cf8565b600054610100900460ff1662001d9c5760005460ff161562001da0565b303b155b62001e055760405162461bcd60e51b815260206004820152602e60248201527f496e697469616c697a61626c653a20636f6e747261637420697320616c72656160448201526d191e481a5b9a5d1a585b1a5e995960921b60648201526084016200073f565b600054610100900460ff1615801562001e28576000805461ffff19166101011790555b62001e3262003b2d565b62001e3c62003b59565b62001e4662003b2d565b62001e5360003362003b8d565b62001e6e600080516020620058a38339815191523362003b8d565b62001e896000805160206200583c8339815191523362003b8d565b62001eb36000805160206200583c833981519152600080516020620058a383398151915262003b99565b61012d80546001600160a01b038086166001600160a01b03199283161790925561012e805492851692909116919091179055801562000fb2576000805461ff0019169055505050565b306001600160a01b037f000000000000000000000000000000000000000000000000000000000000000016141562001f485760405162461bcd60e51b81526004016200073f9062004db6565b7f00000000000000000000000000000000000000000000000000000000000000006001600160a01b031662001f936000805160206200585c833981519152546001600160a01b031690565b6001600160a01b03161462001fbc5760405162461bcd60e51b81526004016200073f9062004e02565b62001fc7826200397b565b620015f28282600162003997565b6000306001600160a01b037f00000000000000000000000000000000000000000000000000000000000000001614620020775760405162461bcd60e51b815260206004820152603860248201527f555550535570677261646561626c653a206d757374206e6f742062652063616c60448201527f6c6564207468726f7567682064656c656761746563616c6c000000000000000060648201526084016200073f565b506000805160206200585c83398151915290565b8061012f816040516200209f919062004e7d565b90815260405190819003602001902060030154336001600160a01b0390911614620020de5760405162461bcd60e51b81526004016200073f9062004e9b565b620021248461013084604051620020f6919062004e7d565b90815260408051602092819003830190206001600160a01b038d1660009081529252902060020190620037a1565b506200216b83610130846040516200213d919062004e7d565b90815260408051602092819003830190206001600160a01b038d166000908152925290206002019062003b1f565b50600080516020620058c3833981519152878661012f8560405162002191919062004e7d565b90815260408051602092819003830181206002015463313ce56760e01b825291516001600160a01b039092169263313ce56792600480840193829003018186803b158015620021df57600080fd5b505afa158015620021f4573d6000803e3d6000fd5b505050506040513d601f19601f820116820180604052508101906200221a919062004ab0565b6200222790601262004b22565b6200223490600a62004c45565b620022408a8c62004c56565b6200224c919062004c56565b62002258919062004c78565b88878760038860405162002273979695949392919062004f0a565b60405180910390a15050505050505050565b600080516020620058a3833981519152620022a18133620037b6565b620022e9846101308585604051620022bb92919062004a3a565b90815260408051602092819003830190206001600160a01b038a166000908152925290206002019062003b1f565b505050505050565b60026097541415620023175760405162461bcd60e51b81526004016200073f9062004a03565b6002609781905550818161012f82826040516200233692919062004a3a565b9081526040519081900360200190206005015460ff166200236b5760405162461bcd60e51b81526004016200073f9062004a4a565b6200237885858562003714565b61012d54604051630292e0fd60e01b81526000916001600160a01b031690630292e0fd90620023ae908890889060040162004d48565b60206040518083038186803b158015620023c757600080fd5b505afa158015620023dc573d6000803e3d6000fd5b505050506040513d601f19601f8201168201806040525081019062002402919062004cb5565b9050600080600061012f88886040516200241e92919062004a3a565b90815260405190819003602001812060030154632f1b130360e01b82526001600160a01b031690632f1b1303906200245e908c9060040190815260200190565b60606040518083038186803b1580156200247757600080fd5b505afa1580156200248c573d6000803e3d6000fd5b505050506040513d601f19601f82011682018060405250810190620024b2919062004a81565b925092509250600160ff1661012f8989604051620024d292919062004a3a565b90815260405190819003602001812060030154634cbf3e1b60e11b82526001600160a01b03169063997e7c369062002512908d9060040190815260200190565b60206040518083038186803b1580156200252b57600080fd5b505afa15801562002540573d6000803e3d6000fd5b505050506040513d601f19601f8201168201806040525081019062002566919062004ab0565b60ff1614620025895760405162461bcd60e51b81526004016200073f9062004ad5565b60008161012f8a8a604051620025a192919062004a3a565b90815260408051602092819003830181206002015463313ce56760e01b825291516001600160a01b039092169263313ce56792600480840193829003018186803b158015620025ef57600080fd5b505afa15801562002604573d6000803e3d6000fd5b505050506040513d601f19601f820116820180604052508101906200262a919062004ab0565b6200263790601262004b22565b6200264490600a62004c45565b8562002651868962004c9b565b6200265d919062004c56565b62002669919062004c56565b62002675919062004c78565b90508061012f8a8a6040516200268d92919062004a3a565b90815260200160405180910390206001016000828254620026af919062004d5e565b909155505061012e546040516340c10f1960e01b8152336004820152602481018390526001600160a01b03909116906340c10f1990604401600060405180830381600087803b1580156200270257600080fd5b505af115801562002717573d6000803e3d6000fd5b5050505061012f89896040516200273092919062004a3a565b90815260405190819003602001812060030154635b8503f560e11b8252600482018c905260248201879052604482018690526001600160a01b03169063b70a07ea90606401602060405180830381600087803b1580156200279057600080fd5b505af1158015620027a5573d6000803e3d6000fd5b505050506040513d601f19601f82011682018060405250810190620027cb919062004cb5565b50600080516020620058c3833981519152848361012f8c8c604051620027f392919062004a3a565b90815260408051602092819003830181206002015463313ce56760e01b825291516001600160a01b039092169263313ce56792600480840193829003018186803b1580156200284157600080fd5b505afa15801562002856573d6000803e3d6000fd5b505050506040513d601f19601f820116820180604052508101906200287c919062004ab0565b6200288990601262004b22565b6200289690600a62004c45565b620028a2898962004c56565b620028ae919062004c56565b620028ba919062004c78565b878d8e60008f8f6040516200155b98979695949392919062004d79565b600061012f8383604051620028ee92919062004a3a565b908152602001604051809103902060010154905092915050565b60009182526065602090815260408084206001600160a01b0393909316845291905290205460ff1690565b60026097541415620029595760405162461bcd60e51b81526004016200073f9062004a03565b6002609781905550818161012f82826040516200297892919062004a3a565b9081526040519081900360200190206005015460ff16620029ad5760405162461bcd60e51b81526004016200073f9062004a4a565b620029ba85858562003714565b61012d54604051630292e0fd60e01b81526000916001600160a01b031690630292e0fd90620029f0908890889060040162004d48565b60206040518083038186803b15801562002a0957600080fd5b505afa15801562002a1e573d6000803e3d6000fd5b505050506040513d601f19601f8201168201806040525081019062002a44919062004cb5565b9050600080600061012f888860405162002a6092919062004a3a565b90815260405190819003602001812060030154632f1b130360e01b82526001600160a01b031690632f1b13039062002aa0908c9060040190815260200190565b60606040518083038186803b15801562002ab957600080fd5b505afa15801562002ace573d6000803e3d6000fd5b505050506040513d601f19601f8201168201806040525081019062002af4919062004a81565b925092509250600160ff1661012f898960405162002b1492919062004a3a565b90815260405190819003602001812060030154634cbf3e1b60e11b82526001600160a01b03169063997e7c369062002b54908d9060040190815260200190565b60206040518083038186803b15801562002b6d57600080fd5b505afa15801562002b82573d6000803e3d6000fd5b505050506040513d601f19601f8201168201806040525081019062002ba8919062004ab0565b60ff161462002bcb5760405162461bcd60e51b81526004016200073f9062004ad5565b60008161012f8a8a60405162002be392919062004a3a565b90815260408051602092819003830181206002015463313ce56760e01b825291516001600160a01b039092169263313ce56792600480840193829003018186803b15801562002c3157600080fd5b505afa15801562002c46573d6000803e3d6000fd5b505050506040513d601f19601f8201168201806040525081019062002c6c919062004ab0565b62002c7990601262004b22565b62002c8690600a62004c45565b8562002c93888762004c9b565b62002c9f919062004c56565b62002cab919062004c56565b62002cb7919062004c78565b90508061012f8a8a60405162002ccf92919062004a3a565b9081526020016040518091039020600101600082825462002cf1919062004c9b565b909155505060405161012f9062002d0c908b908b9062004a3a565b90815260405190819003602001812060030154635b8503f560e11b8252600482018c905260248201879052604482018690526001600160a01b03169063b70a07ea90606401602060405180830381600087803b15801562002d6c57600080fd5b505af115801562002d81573d6000803e3d6000fd5b505050506040513d601f19601f8201168201806040525081019062002da7919062004cb5565b5061012e54604051632770a7eb60e21b8152336004820152602481018390526001600160a01b0390911690639dc29fac90604401600060405180830381600087803b15801562002df657600080fd5b505af115801562002e0b573d6000803e3d6000fd5b50505050600080516020620058c3833981519152848361012f8c8c60405162002e3692919062004a3a565b90815260408051602092819003830181206002015463313ce56760e01b825291516001600160a01b039092169263313ce56792600480840193829003018186803b15801562002e8457600080fd5b505afa15801562002e99573d6000803e3d6000fd5b505050506040513d601f19601f8201168201806040525081019062002ebf919062004ab0565b62002ecc90601262004b22565b62002ed990600a62004c45565b62002ee5898962004c56565b62002ef1919062004c56565b62002efd919062004c78565b878d8e60018f8f6040516200155b98979695949392919062004d79565b600061012f838360405162002f3192919062004a3a565b90815260405190819003602001902054905092915050565b6002609754141562002f6f5760405162461bcd60e51b81526004016200073f9062004a03565b6002609755604051819061012f9062002f8a90839062004e7d565b90815260405190819003602001902060030154336001600160a01b039091161462002fc95760405162461bcd60e51b81526004016200073f9062004e9b565b600061012f8360405162002fde919062004e7d565b90815260405190819003602001812060030154633a1a732760e01b82526001600160a01b031690633a1a7327906200301e90899060040190815260200190565b60206040518083038186803b1580156200303757600080fd5b505afa1580156200304c573d6000803e3d6000fd5b505050506040513d601f19601f8201168201806040525081019062003072919062004f53565b9050836101308460405162003088919062004e7d565b90815260408051602092819003830190206001600160a01b0385166000908152925281208054909190620030be90849062004c9b565b925050819055508361012f84604051620030d9919062004e7d565b90815260200160405180910390206000016000828254620030fb919062004c9b565b925050819055508461012f8460405162003116919062004e7d565b9081526020016040518091039020600101600082825462003138919062004c9b565b9091555050604051610130906200315190859062004e7d565b9081526040805191829003602090810183206001600160a01b038086166000908152919092529190912060010154169063dbba0f01908990879061012f906200319c90899062004e7d565b908152604051908190036020018120600201546001600160e01b031960e086901b1682526001600160a01b039384166004830152602482019290925291166044820152606401600060405180830381600087803b158015620031fd57600080fd5b505af115801562003212573d6000803e3d6000fd5b505061012e54604051632770a7eb60e21b81526001600160a01b038b81166004830152602482018a90529091169250639dc29fac9150604401600060405180830381600087803b1580156200326657600080fd5b505af11580156200327b573d6000803e3d6000fd5b50505050600080600061012f8660405162003297919062004e7d565b90815260405190819003602001812060030154632f1b130360e01b82526001600160a01b031690632f1b130390620032d7908c9060040190815260200190565b60606040518083038186803b158015620032f057600080fd5b505afa15801562003305573d6000803e3d6000fd5b505050506040513d601f19601f820116820180604052508101906200332b919062004a81565b9250925092507fcc3f3bf4ebb079856c31b44ccbec64a58ff9c3f04a8d8a846ee9e7c2e0e4c7e184848361012f8a60405162003368919062004e7d565b90815260408051602092819003830181206002015463313ce56760e01b825291516001600160a01b039092169263313ce56792600480840193829003018186803b158015620033b657600080fd5b505afa158015620033cb573d6000803e3d6000fd5b505050506040513d601f19601f82011682018060405250810190620033f1919062004ab0565b620033fe90601262004b22565b6200340b90600a62004c45565b62003417878962004c56565b62003423919062004c56565b6200342f919062004c78565b85858e8c6040516200155b979695949392919062004f73565b600082815260656020526040902060010154620034668133620037b6565b62000fb2838362003911565b600080516020620058a38339815191526200348e8133620037b6565b5061012d80546001600160a01b039384166001600160a01b03199182161790915561012e8054929093169116179055565b600080516020620058a3833981519152620034db8133620037b6565b8561012f8484604051620034f192919062004a3a565b908152602001604051809103902060020160006101000a8154816001600160a01b0302191690836001600160a01b031602179055508461012f84846040516200353c92919062004a3a565b908152602001604051809103902060030160006101000a8154816001600160a01b0302191690836001600160a01b031602179055508661012f84846040516200358792919062004a3a565b908152604051908190036020018120600501805492151560ff1990931692909217909155849061012f90620035c0908690869062004a3a565b9081526040519081900360200190206004015550505050505050565b606060006101308484604051620035f592919062004a3a565b90815260408051602092819003830190206001600160a01b038a166000908152925290206002019050856200362a8262003be4565b62003636919062004c9b565b8511156200365957856200364a8262003be4565b62003656919062004c9b565b94505b846001600160401b0381111562003674576200367462004431565b6040519080825280602002602001820160405280156200369e578160200160208202803683370190505b50915060005b85811015620036fa57620036c5620036bd828962004d5e565b839062003bef565b838281518110620036da57620036da62004fb4565b602090810291909101015280620036f18162004fca565b915050620036a4565b505095945050505050565b6001600160a01b03163b151590565b620037538361013084846040516200372e92919062004a3a565b9081526040805160209281900383019020336000908152925290206002019062003bfd565b62000fb25760405162461bcd60e51b815260206004820152601760248201527f5751526f757465723a204c6f74206e6f7420666f756e6400000000000000000060448201526064016200073f565b6000620037af838362003c16565b9392505050565b620037c2828262002908565b620015f257620037dd816001600160a01b0316601462003d1a565b620037ea83602062003d1a565b604051602001620037fd92919062004fe8565b60408051601f198184030181529082905262461bcd60e51b82526200073f9160040162005061565b62003831828262002908565b620015f25760008281526065602090815260408083206001600160a01b03851684529091529020805460ff191660011790556200386b3390565b6001600160a01b0316816001600160a01b0316837f2f8788117e7eff1d82e926ec794901d17c78024a50270940304540a733656f0d60405160405180910390a45050565b604080516001600160a01b0385811660248301528416604482015260648082018490528251808303909101815260849091019091526020810180516001600160e01b03166323b872dd60e01b1790526200390b90859062003ed3565b50505050565b6200391d828262002908565b15620015f25760008281526065602090815260408083206001600160a01b0385168085529252808320805460ff1916905551339285917ff6391f5c32d9c69d2a47ea670b442974b53935d1edc7fd64eb21e047a839171b9190a45050565b6000805160206200583c833981519152620015f28133620037b6565b7f4910fdfa16fed3260ed0e7147f7cc6da11a60208b5b9406d12a635614ffd91435460ff1615620039cd5762000fb28362003fac565b826001600160a01b03166352d1902d6040518163ffffffff1660e01b815260040160206040518083038186803b15801562003a0757600080fd5b505afa92505050801562003a3a575060408051601f3d908101601f1916820190925262003a379181019062004cb5565b60015b62003a9f5760405162461bcd60e51b815260206004820152602e60248201527f45524331393637557067726164653a206e657720696d706c656d656e7461746960448201526d6f6e206973206e6f74205555505360901b60648201526084016200073f565b6000805160206200585c833981519152811462003b115760405162461bcd60e51b815260206004820152602960248201527f45524331393637557067726164653a20756e737570706f727465642070726f786044820152681a58589b195555525160ba1b60648201526084016200073f565b5062000fb28383836200404b565b6000620037af838362004076565b600054610100900460ff1662003b575760405162461bcd60e51b81526004016200073f9062005076565b565b600054610100900460ff1662003b835760405162461bcd60e51b81526004016200073f9062005076565b62003b57620040c8565b620015f2828262003825565b600082815260656020526040808220600101805490849055905190918391839186917fbd79b86ffe0ab8e8776151514217cd7cacd52c909f66475c3af44e129f0b00ff9190a4505050565b600062000713825490565b6000620037af8383620040f9565b60008181526001830160205260408120541515620037af565b6000818152600183016020526040812054801562003d0f57600062003c3d60018362004c9b565b855490915060009062003c539060019062004c9b565b905081811462003cbf57600086600001828154811062003c775762003c7762004fb4565b906000526020600020015490508087600001848154811062003c9d5762003c9d62004fb4565b6000918252602080832090910192909255918252600188019052604090208390555b855486908062003cd35762003cd3620050c1565b60019003818190600052602060002001600090559055856001016000868152602001908152602001600020600090556001935050505062000713565b600091505062000713565b6060600062003d2b83600262004c56565b62003d3890600262004d5e565b6001600160401b0381111562003d525762003d5262004431565b6040519080825280601f01601f19166020018201604052801562003d7d576020820181803683370190505b509050600360fc1b8160008151811062003d9b5762003d9b62004fb4565b60200101906001600160f81b031916908160001a905350600f60fb1b8160018151811062003dcd5762003dcd62004fb4565b60200101906001600160f81b031916908160001a905350600062003df384600262004c56565b62003e0090600162004d5e565b90505b600181111562003e82576f181899199a1a9b1b9c1cb0b131b232b360811b85600f166010811062003e385762003e3862004fb4565b1a60f81b82828151811062003e515762003e5162004fb4565b60200101906001600160f81b031916908160001a90535060049490941c9362003e7a81620050d7565b905062003e03565b508315620037af5760405162461bcd60e51b815260206004820181905260248201527f537472696e67733a20686578206c656e67746820696e73756666696369656e7460448201526064016200073f565b600062003f2a826040518060400160405280602081526020017f5361666545524332303a206c6f772d6c6576656c2063616c6c206661696c6564815250856001600160a01b0316620041269092919063ffffffff16565b80519091501562000fb2578080602001905181019062003f4b9190620050f1565b62000fb25760405162461bcd60e51b815260206004820152602a60248201527f5361666545524332303a204552433230206f7065726174696f6e20646964206e6044820152691bdd081cdd58d8d9595960b21b60648201526084016200073f565b6001600160a01b0381163b6200401b5760405162461bcd60e51b815260206004820152602d60248201527f455243313936373a206e657720696d706c656d656e746174696f6e206973206e60448201526c1bdd08184818dbdb9d1c9858dd609a1b60648201526084016200073f565b6000805160206200585c83398151915280546001600160a01b0319166001600160a01b0392909216919091179055565b62004056836200413f565b600082511180620040645750805b1562000fb2576200390b838362004181565b6000818152600183016020526040812054620040bf5750815460018181018455600084815260208082209093018490558454848252828601909352604090209190915562000713565b50600062000713565b600054610100900460ff16620040f25760405162461bcd60e51b81526004016200073f9062005076565b6001609755565b600082600001828154811062004113576200411362004fb4565b9060005260206000200154905092915050565b60606200413784846000856200427e565b949350505050565b6200414a8162003fac565b6040516001600160a01b038216907fbc7cd75a20ee27fd9adebab32041f755214dbc6bffa90cc0225b39da2e5c2d3b90600090a250565b60606001600160a01b0383163b620041eb5760405162461bcd60e51b815260206004820152602660248201527f416464726573733a2064656c65676174652063616c6c20746f206e6f6e2d636f6044820152651b9d1c9858dd60d21b60648201526084016200073f565b600080846001600160a01b03168460405162004208919062004e7d565b600060405180830381855af49150503d806000811462004245576040519150601f19603f3d011682016040523d82523d6000602084013e6200424a565b606091505b50915091506200427582826040518060600160405280602781526020016200587c60279139620043b9565b95945050505050565b606082471015620042e15760405162461bcd60e51b815260206004820152602660248201527f416464726573733a20696e73756666696369656e742062616c616e636520666f6044820152651c8818d85b1b60d21b60648201526084016200073f565b6001600160a01b0385163b6200433a5760405162461bcd60e51b815260206004820152601d60248201527f416464726573733a2063616c6c20746f206e6f6e2d636f6e747261637400000060448201526064016200073f565b600080866001600160a01b0316858760405162004358919062004e7d565b60006040518083038185875af1925050503d806000811462004397576040519150601f19603f3d011682016040523d82523d6000602084013e6200439c565b606091505b5091509150620043ae828286620043b9565b979650505050505050565b60608315620043ca575081620037af565b825115620043db5782518084602001fd5b8160405162461bcd60e51b81526004016200073f919062005061565b61072a806200511283390190565b6000602082840312156200441857600080fd5b81356001600160e01b031981168114620037af57600080fd5b634e487b7160e01b600052604160045260246000fd5b60006001600160401b038084111562004464576200446462004431565b604051601f8501601f19908116603f011681019082821181831017156200448f576200448f62004431565b81604052809350858152868686011115620044a957600080fd5b858560208301376000602087830101525050509392505050565b600082601f830112620044d557600080fd5b620037af8383356020850162004447565b600060208284031215620044f957600080fd5b81356001600160401b038111156200451057600080fd5b6200413784828501620044c3565b60008083601f8401126200453157600080fd5b5081356001600160401b038111156200454957600080fd5b6020830191508360208285010111156200456257600080fd5b9250929050565b600080600080606085870312156200458057600080fd5b843593506020850135925060408501356001600160401b03811115620045a557600080fd5b620045b3878288016200451e565b95989497509550505050565b600060208284031215620045d257600080fd5b5035919050565b6001600160a01b0381168114620016df57600080fd5b600080604083850312156200460357600080fd5b8235915060208301356200461781620045d9565b809150509250929050565b6000806000604084860312156200463857600080fd5b8335925060208401356001600160401b038111156200465657600080fd5b62004664868287016200451e565b9497909650939450505050565b6000602082840312156200468457600080fd5b8135620037af81620045d9565b60008060408385031215620046a557600080fd5b8235620046b281620045d9565b915060208301356200461781620045d9565b60008060408385031215620046d857600080fd5b8235620046e581620045d9565b915060208301356001600160401b038111156200470157600080fd5b8301601f810185136200471357600080fd5b620047248582356020840162004447565b9150509250929050565b600080600080600080600060e0888a0312156200474a57600080fd5b87356200475781620045d9565b96506020880135955060408801359450606088013593506080880135925060a0880135915060c08801356001600160401b038111156200479657600080fd5b620047a48a828b01620044c3565b91505092959891949750929550565b60008060008060608587031215620047ca57600080fd5b8435620047d781620045d9565b93506020850135925060408501356001600160401b03811115620045a557600080fd5b600080602083850312156200480e57600080fd5b82356001600160401b038111156200482557600080fd5b62004833858286016200451e565b90969095509350505050565b600080600080600060a086880312156200485857600080fd5b85356200486581620045d9565b945060208601359350604086013592506060860135915060808601356001600160401b038111156200489657600080fd5b620048a488828901620044c3565b9150509295509295909350565b8015158114620016df57600080fd5b60008060008060008060a08789031215620048da57600080fd5b8635620048e781620048b1565b95506020870135620048f981620045d9565b945060408701356200490b81620045d9565b93506060870135925060808701356001600160401b038111156200492e57600080fd5b6200493c89828a016200451e565b979a9699509497509295939492505050565b6000806000806000608086880312156200496757600080fd5b85356200497481620045d9565b9450602086013593506040860135925060608601356001600160401b038111156200499e57600080fd5b620049ac888289016200451e565b969995985093965092949392505050565b6020808252825182820181905260009190848201906040850190845b81811015620049f757835183529284019291840191600101620049d9565b50909695505050505050565b6020808252601f908201527f5265656e7472616e637947756172643a207265656e7472616e742063616c6c00604082015260600190565b8183823760009101908152919050565b60208082526017908201527f5751526f757465723a20546f6b656e20646961626c6564000000000000000000604082015260600190565b60008060006060848603121562004a9757600080fd5b8351925060208401519150604084015190509250925092565b60006020828403121562004ac357600080fd5b815160ff81168114620037af57600080fd5b60208082526018908201527f5751526f757465723a20537461747573206e6f74206e65770000000000000000604082015260600190565b634e487b7160e01b600052601160045260246000fd5b600060ff821660ff84168082101562004b3f5762004b3f62004b0c565b90039392505050565b600181815b8085111562004b8957816000190482111562004b6d5762004b6d62004b0c565b8085161562004b7b57918102915b93841c939080029062004b4d565b509250929050565b60008262004ba25750600162000713565b8162004bb15750600062000713565b816001811462004bca576002811462004bd55762004bf5565b600191505062000713565b60ff84111562004be95762004be962004b0c565b50506001821b62000713565b5060208310610133831016604e8410600b841016171562004c1a575081810a62000713565b62004c26838362004b48565b806000190482111562004c3d5762004c3d62004b0c565b029392505050565b6000620037af60ff84168362004b91565b600081600019048311821515161562004c735762004c7362004b0c565b500290565b60008262004c9657634e487b7160e01b600052601260045260246000fd5b500490565b60008282101562004cb05762004cb062004b0c565b500390565b60006020828403121562004cc857600080fd5b5051919050565b81835281816020850137506000828201602090810191909152601f909101601f19169091010190565b60018060a01b03891681528760208201528660408201528560608201528460808201528360a082015260e060c0820152600062004d3a60e08301848662004ccf565b9a9950505050505050505050565b6020815260006200413760208301848662004ccf565b6000821982111562004d745762004d7462004b0c565b500190565b88815287602082015286604082015285606082015284608082015260ff841660a082015260e060c0820152600062004d3a60e08301848662004ccf565b6020808252602c908201527f46756e6374696f6e206d7573742062652063616c6c6564207468726f7567682060408201526b19195b1959d85d1958d85b1b60a21b606082015260800190565b6020808252602c908201527f46756e6374696f6e206d7573742062652063616c6c6564207468726f7567682060408201526b6163746976652070726f787960a01b606082015260800190565b60005b8381101562004e6b57818101518382015260200162004e51565b838111156200390b5750506000910152565b6000825162004e9181846020870162004e4e565b9190910192915050565b60208082526021908201527f5751526f757465723a204f6e6c7920636f6c6c61746572616c2061756374696f6040820152603760f91b606082015260800190565b6000815180845262004ef681602086016020860162004e4e565b601f01601f19169290920160200192915050565b87815286602082015285604082015284606082015283608082015260ff831660a082015260e060c0820152600062004f4660e083018462004edc565b9998505050505050505050565b60006020828403121562004f6657600080fd5b8151620037af81620045d9565b60018060a01b03881681528660208201528560408201528460608201528360808201528260a082015260e060c0820152600062004f4660e083018462004edc565b634e487b7160e01b600052603260045260246000fd5b600060001982141562004fe15762004fe162004b0c565b5060010190565b7f416363657373436f6e74726f6c3a206163636f756e74200000000000000000008152600083516200502281601785016020880162004e4e565b7001034b99036b4b9b9b4b733903937b6329607d1b60179184019182015283516200505581602884016020880162004e4e565b01602801949350505050565b602081526000620037af602083018462004edc565b6020808252602b908201527f496e697469616c697a61626c653a20636f6e7472616374206973206e6f74206960408201526a6e697469616c697a696e6760a81b606082015260800190565b634e487b7160e01b600052603160045260246000fd5b600081620050e957620050e962004b0c565b506000190190565b6000602082840312156200510457600080fd5b8151620037af81620048b156fe608060405234801561001057600080fd5b5060405161072a38038061072a83398101604081905261002f91610062565b60008054336001600160a01b031991821617909155600180549091166001600160a01b0392909216919091179055610092565b60006020828403121561007457600080fd5b81516001600160a01b038116811461008b57600080fd5b9392505050565b610689806100a16000396000f3fe608060405234801561001057600080fd5b50600436106100415760003560e01c80638da5cb5b14610046578063dbba0f0114610075578063f887ea401461008a575b600080fd5b600154610059906001600160a01b031681565b6040516001600160a01b03909116815260200160405180910390f35b610088610083366004610570565b61009d565b005b600054610059906001600160a01b031681565b6000546001600160a01b031633146101085760405162461bcd60e51b815260206004820152602360248201527f5751526f757465725661756c743a2053656e646572206973206e6f7420726f756044820152623a32b960e91b60648201526084015b60405180910390fd5b6001600160a01b038116156101305761012b6001600160a01b0382168484610193565b610143565b6101436001600160a01b038416836101ea565b604080516001600160a01b038084168252851660208201529081018390527fd1ba4ac2e2a11b5101f6cb4d978f514a155b421e8ec396d2d9abaf0bb02917ee9060600160405180910390a1505050565b604080516001600160a01b038416602482015260448082018490528251808303909101815260649091019091526020810180516001600160e01b031663a9059cbb60e01b1790526101e5908490610303565b505050565b8047101561023a5760405162461bcd60e51b815260206004820152601d60248201527f416464726573733a20696e73756666696369656e742062616c616e636500000060448201526064016100ff565b6000826001600160a01b03168260405160006040518083038185875af1925050503d8060008114610287576040519150601f19603f3d011682016040523d82523d6000602084013e61028c565b606091505b50509050806101e55760405162461bcd60e51b815260206004820152603a60248201527f416464726573733a20756e61626c6520746f2073656e642076616c75652c207260448201527f6563697069656e74206d6179206861766520726576657274656400000000000060648201526084016100ff565b6000610358826040518060400160405280602081526020017f5361666545524332303a206c6f772d6c6576656c2063616c6c206661696c6564815250856001600160a01b03166103d59092919063ffffffff16565b8051909150156101e5578080602001905181019061037691906105b2565b6101e55760405162461bcd60e51b815260206004820152602a60248201527f5361666545524332303a204552433230206f7065726174696f6e20646964206e6044820152691bdd081cdd58d8d9595960b21b60648201526084016100ff565b60606103e484846000856103ee565b90505b9392505050565b60608247101561044f5760405162461bcd60e51b815260206004820152602660248201527f416464726573733a20696e73756666696369656e742062616c616e636520666f6044820152651c8818d85b1b60d21b60648201526084016100ff565b6001600160a01b0385163b6104a65760405162461bcd60e51b815260206004820152601d60248201527f416464726573733a2063616c6c20746f206e6f6e2d636f6e747261637400000060448201526064016100ff565b600080866001600160a01b031685876040516104c29190610604565b60006040518083038185875af1925050503d80600081146104ff576040519150601f19603f3d011682016040523d82523d6000602084013e610504565b606091505b509150915061051482828661051f565b979650505050505050565b6060831561052e5750816103e7565b82511561053e5782518084602001fd5b8160405162461bcd60e51b81526004016100ff9190610620565b6001600160a01b038116811461056d57600080fd5b50565b60008060006060848603121561058557600080fd5b833561059081610558565b92506020840135915060408401356105a781610558565b809150509250925092565b6000602082840312156105c457600080fd5b815180151581146103e757600080fd5b60005b838110156105ef5781810151838201526020016105d7565b838111156105fe576000848401525b50505050565b600082516106168184602087016105d4565b9190910192915050565b602081526000825180602084015261063f8160408501602087016105d4565b601f01601f1916919091016040019291505056fea2646970667358221220f9599cb443d118d129a11e97dea91cb2df9e7c8ddbd8811c90f86e43dc8f329564736f6c63430008090033189ab7a9244df0848122154315af71fe140f3db0fe014031783b0946b8c9d2e3360894a13ba1a3210667c828492db98dca3e2076cc3735a920a3ca505d382bbc416464726573733a206c6f772d6c6576656c2064656c65676174652063616c6c206661696c6564a49807205ce4d355092ef5a8a18f56e8913cf4a201fbe287825b095693c2177528c0c2d50af0ab1c60ab623f2400a88f889940fe9a0f24f3ae0fe8e2ea9d5ca3a26469706673582212207cd9525b5d8327f3f477ec01e014fdf2e3fb169e8cc8858e7a66a7d9486cee2764736f6c63430008090033",
  "linkReferences": {},
  "deployedLinkReferences": {}
}