{
  "_format": "hh-sol-artifact-1",
  "contractName": "WQPensionFund",
  "sourceName": "contracts/WQPensionFund.sol",
  "abi": [
    {
      "inputs": [],
      "stateMutability": "nonpayable",
      "type": "constructor"
    },
    {
      "anonymous": false,
      "inputs": [
        {
          "indexed": false,
          "internalType": "address",
          "name": "previousAdmin",
          "type": "address"
        },
        {
          "indexed": false,
          "internalType": "address",
          "name": "newAdmin",
          "type": "address"
        }
      ],
      "name": "AdminChanged",
      "type": "event"
    },
    {
      "anonymous": false,
      "inputs": [
        {
          "indexed": true,
          "internalType": "address",
          "name": "beacon",
          "type": "address"
        }
      ],
      "name": "BeaconUpgraded",
      "type": "event"
    },
    {
      "anonymous": false,
      "inputs": [
        {
          "indexed": true,
          "internalType": "address",
          "name": "user",
          "type": "address"
        },
        {
          "indexed": true,
          "internalType": "uint256",
          "name": "amount",
          "type": "uint256"
        },
        {
          "indexed": false,
          "internalType": "uint256",
          "name": "timestamp",
          "type": "uint256"
        }
      ],
      "name": "Borrowed",
      "type": "event"
    },
    {
      "anonymous": false,
      "inputs": [
        {
          "indexed": true,
          "internalType": "address",
          "name": "user",
          "type": "address"
        },
        {
          "indexed": true,
          "internalType": "uint256",
          "name": "amount",
          "type": "uint256"
        },
        {
          "indexed": false,
          "internalType": "uint256",
          "name": "timestamp",
          "type": "uint256"
        }
      ],
      "name": "Claimed",
      "type": "event"
    },
    {
      "anonymous": false,
      "inputs": [
        {
          "indexed": true,
          "internalType": "address",
          "name": "user",
          "type": "address"
        },
        {
          "indexed": true,
          "internalType": "uint256",
          "name": "amount",
          "type": "uint256"
        },
        {
          "indexed": false,
          "internalType": "uint256",
          "name": "timestamp",
          "type": "uint256"
        }
      ],
      "name": "Received",
      "type": "event"
    },
    {
      "anonymous": false,
      "inputs": [
        {
          "indexed": true,
          "internalType": "address",
          "name": "user",
          "type": "address"
        },
        {
          "indexed": true,
          "internalType": "uint256",
          "name": "amount",
          "type": "uint256"
        },
        {
          "indexed": false,
          "internalType": "uint256",
          "name": "timestamp",
          "type": "uint256"
        }
      ],
      "name": "Refunded",
      "type": "event"
    },
    {
      "anonymous": false,
      "inputs": [
        {
          "indexed": true,
          "internalType": "bytes32",
          "name": "role",
          "type": "bytes32"
        },
        {
          "indexed": true,
          "internalType": "bytes32",
          "name": "previousAdminRole",
          "type": "bytes32"
        },
        {
          "indexed": true,
          "internalType": "bytes32",
          "name": "newAdminRole",
          "type": "bytes32"
        }
      ],
      "name": "RoleAdminChanged",
      "type": "event"
    },
    {
      "anonymous": false,
      "inputs": [
        {
          "indexed": true,
          "internalType": "bytes32",
          "name": "role",
          "type": "bytes32"
        },
        {
          "indexed": true,
          "internalType": "address",
          "name": "account",
          "type": "address"
        },
        {
          "indexed": true,
          "internalType": "address",
          "name": "sender",
          "type": "address"
        }
      ],
      "name": "RoleGranted",
      "type": "event"
    },
    {
      "anonymous": false,
      "inputs": [
        {
          "indexed": true,
          "internalType": "bytes32",
          "name": "role",
          "type": "bytes32"
        },
        {
          "indexed": true,
          "internalType": "address",
          "name": "account",
          "type": "address"
        },
        {
          "indexed": true,
          "internalType": "address",
          "name": "sender",
          "type": "address"
        }
      ],
      "name": "RoleRevoked",
      "type": "event"
    },
    {
      "anonymous": false,
      "inputs": [
        {
          "indexed": true,
          "internalType": "address",
          "name": "implementation",
          "type": "address"
        }
      ],
      "name": "Upgraded",
      "type": "event"
    },
    {
      "anonymous": false,
      "inputs": [
        {
          "indexed": true,
          "internalType": "address",
          "name": "user",
          "type": "address"
        },
        {
          "indexed": true,
          "internalType": "uint256",
          "name": "newFee",
          "type": "uint256"
        },
        {
          "indexed": false,
          "internalType": "uint256",
          "name": "unlockDate",
          "type": "uint256"
        }
      ],
      "name": "WalletUpdated",
      "type": "event"
    },
    {
      "anonymous": false,
      "inputs": [
        {
          "indexed": true,
          "internalType": "address",
          "name": "user",
          "type": "address"
        },
        {
          "indexed": true,
          "internalType": "uint256",
          "name": "amount",
          "type": "uint256"
        },
        {
          "indexed": false,
          "internalType": "uint256",
          "name": "timestamp",
          "type": "uint256"
        }
      ],
      "name": "Withdrew",
      "type": "event"
    },
    {
      "inputs": [],
      "name": "ADMIN_ROLE",
      "outputs": [
        {
          "internalType": "bytes32",
          "name": "",
          "type": "bytes32"
        }
      ],
      "stateMutability": "view",
      "type": "function"
    },
    {
      "inputs": [],
      "name": "BORROWER_ROLE",
      "outputs": [
        {
          "internalType": "bytes32",
          "name": "",
          "type": "bytes32"
        }
      ],
      "stateMutability": "view",
      "type": "function"
    },
    {
      "inputs": [],
      "name": "DEFAULT_ADMIN_ROLE",
      "outputs": [
        {
          "internalType": "bytes32",
          "name": "",
          "type": "bytes32"
        }
      ],
      "stateMutability": "view",
      "type": "function"
    },
    {
      "inputs": [],
      "name": "MONTH",
      "outputs": [
        {
          "internalType": "uint256",
          "name": "",
          "type": "uint256"
        }
      ],
      "stateMutability": "view",
      "type": "function"
    },
    {
      "inputs": [],
      "name": "UPGRADER_ROLE",
      "outputs": [
        {
          "internalType": "bytes32",
          "name": "",
          "type": "bytes32"
        }
      ],
      "stateMutability": "view",
      "type": "function"
    },
    {
      "inputs": [],
      "name": "YEAR",
      "outputs": [
        {
          "internalType": "uint256",
          "name": "",
          "type": "uint256"
        }
      ],
      "stateMutability": "view",
      "type": "function"
    },
    {
      "inputs": [
        {
          "internalType": "uint256",
          "name": "",
          "type": "uint256"
        }
      ],
      "name": "apys",
      "outputs": [
        {
          "internalType": "uint256",
          "name": "",
          "type": "uint256"
        }
      ],
      "stateMutability": "view",
      "type": "function"
    },
    {
      "inputs": [
        {
          "internalType": "address",
          "name": "depositor",
          "type": "address"
        }
      ],
      "name": "balanceOf",
      "outputs": [
        {
          "internalType": "uint256",
          "name": "",
          "type": "uint256"
        }
      ],
      "stateMutability": "view",
      "type": "function"
    },
    {
      "inputs": [
        {
          "internalType": "address",
          "name": "depositor",
          "type": "address"
        },
        {
          "internalType": "uint256",
          "name": "amount",
          "type": "uint256"
        },
        {
          "internalType": "uint256",
          "name": "duration",
          "type": "uint256"
        }
      ],
      "name": "borrow",
      "outputs": [],
      "stateMutability": "nonpayable",
      "type": "function"
    },
    {
      "inputs": [
        {
          "internalType": "address",
          "name": "worker",
          "type": "address"
        },
        {
          "internalType": "uint256",
          "name": "amount",
          "type": "uint256"
        }
      ],
      "name": "contribute",
      "outputs": [],
      "stateMutability": "nonpayable",
      "type": "function"
    },
    {
      "inputs": [],
      "name": "defaultFee",
      "outputs": [
        {
          "internalType": "uint256",
          "name": "",
          "type": "uint256"
        }
      ],
      "stateMutability": "view",
      "type": "function"
    },
    {
      "inputs": [],
      "name": "extendLockTime",
      "outputs": [],
      "stateMutability": "nonpayable",
      "type": "function"
    },
    {
      "inputs": [],
      "name": "feePerMonth",
      "outputs": [
        {
          "internalType": "uint256",
          "name": "",
          "type": "uint256"
        }
      ],
      "stateMutability": "view",
      "type": "function"
    },
    {
      "inputs": [],
      "name": "feeReceiver",
      "outputs": [
        {
          "internalType": "address",
          "name": "",
          "type": "address"
        }
      ],
      "stateMutability": "view",
      "type": "function"
    },
    {
      "inputs": [],
      "name": "feeWithdraw",
      "outputs": [
        {
          "internalType": "uint256",
          "name": "",
          "type": "uint256"
        }
      ],
      "stateMutability": "view",
      "type": "function"
    },
    {
      "inputs": [
        {
          "internalType": "address",
          "name": "depositor",
          "type": "address"
        }
      ],
      "name": "getFee",
      "outputs": [
        {
          "internalType": "uint256",
          "name": "",
          "type": "uint256"
        }
      ],
      "stateMutability": "view",
      "type": "function"
    },
    {
      "inputs": [
        {
          "internalType": "address",
          "name": "depositor",
          "type": "address"
        }
      ],
      "name": "getRewards",
      "outputs": [
        {
          "internalType": "uint256",
          "name": "",
          "type": "uint256"
        }
      ],
      "stateMutability": "view",
      "type": "function"
    },
    {
      "inputs": [
        {
          "internalType": "bytes32",
          "name": "role",
          "type": "bytes32"
        }
      ],
      "name": "getRoleAdmin",
      "outputs": [
        {
          "internalType": "bytes32",
          "name": "",
          "type": "bytes32"
        }
      ],
      "stateMutability": "view",
      "type": "function"
    },
    {
      "inputs": [
        {
          "internalType": "bytes32",
          "name": "role",
          "type": "bytes32"
        },
        {
          "internalType": "address",
          "name": "account",
          "type": "address"
        }
      ],
      "name": "grantRole",
      "outputs": [],
      "stateMutability": "nonpayable",
      "type": "function"
    },
    {
      "inputs": [
        {
          "internalType": "bytes32",
          "name": "role",
          "type": "bytes32"
        },
        {
          "internalType": "address",
          "name": "account",
          "type": "address"
        }
      ],
      "name": "hasRole",
      "outputs": [
        {
          "internalType": "bool",
          "name": "",
          "type": "bool"
        }
      ],
      "stateMutability": "view",
      "type": "function"
    },
    {
      "inputs": [
        {
          "internalType": "uint256",
          "name": "_lockTime",
          "type": "uint256"
        },
        {
          "internalType": "uint256",
          "name": "_defaultFee",
          "type": "uint256"
        },
        {
          "internalType": "address",
          "name": "_wusd",
          "type": "address"
        },
        {
          "internalType": "address",
          "name": "_feeReceiver",
          "type": "address"
        },
        {
          "internalType": "uint256",
          "name": "_feePerMonth",
          "type": "uint256"
        },
        {
          "internalType": "uint256",
          "name": "_feeWithdraw",
          "type": "uint256"
        }
      ],
      "name": "initialize",
      "outputs": [],
      "stateMutability": "nonpayable",
      "type": "function"
    },
    {
      "inputs": [],
      "name": "lockTime",
      "outputs": [
        {
          "internalType": "uint256",
          "name": "",
          "type": "uint256"
        }
      ],
      "stateMutability": "view",
      "type": "function"
    },
    {
      "inputs": [],
      "name": "proxiableUUID",
      "outputs": [
        {
          "internalType": "bytes32",
          "name": "",
          "type": "bytes32"
        }
      ],
      "stateMutability": "view",
      "type": "function"
    },
    {
      "inputs": [
        {
          "internalType": "address",
          "name": "depositor",
          "type": "address"
        },
        {
          "internalType": "uint256",
          "name": "amount",
          "type": "uint256"
        },
        {
          "internalType": "uint256",
          "name": "elapsedTime",
          "type": "uint256"
        },
        {
          "internalType": "uint256",
          "name": "duration",
          "type": "uint256"
        }
      ],
      "name": "refund",
      "outputs": [],
      "stateMutability": "nonpayable",
      "type": "function"
    },
    {
      "inputs": [
        {
          "internalType": "bytes32",
          "name": "role",
          "type": "bytes32"
        },
        {
          "internalType": "address",
          "name": "account",
          "type": "address"
        }
      ],
      "name": "renounceRole",
      "outputs": [],
      "stateMutability": "nonpayable",
      "type": "function"
    },
    {
      "inputs": [
        {
          "internalType": "bytes32",
          "name": "role",
          "type": "bytes32"
        },
        {
          "internalType": "address",
          "name": "account",
          "type": "address"
        }
      ],
      "name": "revokeRole",
      "outputs": [],
      "stateMutability": "nonpayable",
      "type": "function"
    },
    {
      "inputs": [
        {
          "internalType": "uint256",
          "name": "duration",
          "type": "uint256"
        },
        {
          "internalType": "uint256",
          "name": "apy",
          "type": "uint256"
        }
      ],
      "name": "setApy",
      "outputs": [],
      "stateMutability": "nonpayable",
      "type": "function"
    },
    {
      "inputs": [
        {
          "internalType": "uint256",
          "name": "_feeWithdraw",
          "type": "uint256"
        },
        {
          "internalType": "uint256",
          "name": "_feePerMonth",
          "type": "uint256"
        }
      ],
      "name": "setFee",
      "outputs": [],
      "stateMutability": "nonpayable",
      "type": "function"
    },
    {
      "inputs": [
        {
          "internalType": "address",
          "name": "_feeReceiver",
          "type": "address"
        }
      ],
      "name": "setFeeReceiver",
      "outputs": [],
      "stateMutability": "nonpayable",
      "type": "function"
    },
    {
      "inputs": [
        {
          "internalType": "bytes4",
          "name": "interfaceId",
          "type": "bytes4"
        }
      ],
      "name": "supportsInterface",
      "outputs": [
        {
          "internalType": "bool",
          "name": "",
          "type": "bool"
        }
      ],
      "stateMutability": "view",
      "type": "function"
    },
    {
      "inputs": [
        {
          "internalType": "uint256",
          "name": "_defaultFee",
          "type": "uint256"
        }
      ],
      "name": "updateDefaultFee",
      "outputs": [],
      "stateMutability": "nonpayable",
      "type": "function"
    },
    {
      "inputs": [
        {
          "internalType": "uint256",
          "name": "fee",
          "type": "uint256"
        }
      ],
      "name": "updateFee",
      "outputs": [],
      "stateMutability": "nonpayable",
      "type": "function"
    },
    {
      "inputs": [
        {
          "internalType": "uint256",
          "name": "_lockTime",
          "type": "uint256"
        }
      ],
      "name": "updateLockTime",
      "outputs": [],
      "stateMutability": "nonpayable",
      "type": "function"
    },
    {
      "inputs": [
        {
          "internalType": "address",
          "name": "depositor",
          "type": "address"
        },
        {
          "internalType": "uint256",
          "name": "amount",
          "type": "uint256"
        },
        {
          "internalType": "uint256",
          "name": "unlockDate",
          "type": "uint256"
        },
        {
          "internalType": "uint256",
          "name": "createdAt",
          "type": "uint256"
        }
      ],
      "name": "updateWallet",
      "outputs": [],
      "stateMutability": "nonpayable",
      "type": "function"
    },
    {
      "inputs": [
        {
          "internalType": "address",
          "name": "newImplementation",
          "type": "address"
        }
      ],
      "name": "upgradeTo",
      "outputs": [],
      "stateMutability": "nonpayable",
      "type": "function"
    },
    {
      "inputs": [
        {
          "internalType": "address",
          "name": "newImplementation",
          "type": "address"
        },
        {
          "internalType": "bytes",
          "name": "data",
          "type": "bytes"
        }
      ],
      "name": "upgradeToAndCall",
      "outputs": [],
      "stateMutability": "payable",
      "type": "function"
    },
    {
      "inputs": [
        {
          "internalType": "address",
          "name": "",
          "type": "address"
        }
      ],
      "name": "wallets",
      "outputs": [
        {
          "internalType": "uint256",
          "name": "amount",
          "type": "uint256"
        },
        {
          "internalType": "uint256",
          "name": "borrowed",
          "type": "uint256"
        },
        {
          "internalType": "uint256",
          "name": "fee",
          "type": "uint256"
        },
        {
          "internalType": "uint256",
          "name": "unlockDate",
          "type": "uint256"
        },
        {
          "internalType": "uint256",
          "name": "createdAt",
          "type": "uint256"
        },
        {
          "internalType": "uint256",
          "name": "rewardAllowed",
          "type": "uint256"
        },
        {
          "internalType": "uint256",
          "name": "rewardDistributed",
          "type": "uint256"
        },
        {
          "internalType": "uint256",
          "name": "serviceComission",
          "type": "uint256"
        }
      ],
      "stateMutability": "view",
      "type": "function"
    },
    {
      "inputs": [
        {
          "internalType": "uint256",
          "name": "amount",
          "type": "uint256"
        }
      ],
      "name": "withdraw",
      "outputs": [],
      "stateMutability": "nonpayable",
      "type": "function"
    },
    {
      "inputs": [],
      "name": "wusd",
      "outputs": [
        {
          "internalType": "contract IERC20Upgradeable",
          "name": "",
          "type": "address"
        }
      ],
      "stateMutability": "view",
      "type": "function"
    }
  ],
  "bytecode": "0x60a0604052306080523480156200001557600080fd5b50600054610100900460ff16620000335760005460ff16156200003d565b6200003d620000e2565b620000a55760405162461bcd60e51b815260206004820152602e60248201527f496e697469616c697a61626c653a20636f6e747261637420697320616c72656160448201526d191e481a5b9a5d1a585b1a5e995960921b606482015260840160405180910390fd5b600054610100900460ff16158015620000c8576000805461ffff19166101011790555b8015620000db576000805461ff00191690555b506200010f565b6000620000fa306200010060201b620016bd1760201c565b15905090565b6001600160a01b03163b151590565b6080516127b76200014760003960008181610c8101528181610cc101528181610d6101528181610da10152610e3001526127b76000f3fe6080604052600436106102305760003560e01c80637b7da6bf1161012e578063c1bce0b7116100ab578063dbf2cb331161006f578063dbf2cb3314610710578063efdcd97414610727578063f72c0d8b14610747578063f73ce7e414610769578063fbfa4e111461078957600080fd5b8063c1bce0b714610679578063c212f79114610699578063d547741f146106b9578063d5999a5c146106d9578063daf8bc10146106f057600080fd5b80639012c4a8116100f25780639012c4a8146105c957806391d14854146105e9578063a217fddf14610609578063b3f006741461061e578063b88c91481461063f57600080fd5b80637b7da6bf146104a957806381ce1c23146104c957806383914540146104f75780638418cd991461050f57806389b08f111461052f57600080fd5b806336568abe116101bc5780635a6c72d0116101805780635a6c72d0146104195780636561e6ba1461043057806370a082311461044757806375b238fc1461046757806379ee54f71461048957600080fd5b806336568abe146103915780633659cfe6146103b15780634f1ef286146103d157806352d1902d146103e457806352f7c988146103f957600080fd5b806315c40eb01161020357806315c40eb0146102c8578063248a9ca314610301578063268ebd59146103315780632e1a7d4d146103515780632f2ff15d1461037157600080fd5b806301ffc9a7146102355780630d6680871461026a5780630e7b949e1461028f57806311b0ba9f146102b1575b600080fd5b34801561024157600080fd5b50610255610250366004612110565b6107a9565b60405190151581526020015b60405180910390f35b34801561027657600080fd5b5061028161012d5481565b604051908152602001610261565b34801561029b57600080fd5b506102816000805160206126db83398151915281565b3480156102bd57600080fd5b506102c66107e0565b005b3480156102d457600080fd5b50610130546102e9906001600160a01b031681565b6040516001600160a01b039091168152602001610261565b34801561030d57600080fd5b5061028161031c36600461213a565b60009081526065602052604090206001015490565b34801561033d57600080fd5b506102c661034c36600461216f565b610833565b34801561035d57600080fd5b506102c661036c36600461213a565b61098d565b34801561037d57600080fd5b506102c661038c3660046121a8565b610bcd565b34801561039d57600080fd5b506102c66103ac3660046121a8565b610bf8565b3480156103bd57600080fd5b506102c66103cc3660046121d4565b610c76565b6102c66103df366004612205565b610d56565b3480156103f057600080fd5b50610281610e23565b34801561040557600080fd5b506102c66104143660046122c7565b610ed6565b34801561042557600080fd5b5061028161012e5481565b34801561043c57600080fd5b506102816101335481565b34801561045357600080fd5b506102816104623660046121d4565b610efd565b34801561047357600080fd5b5061028160008051602061276283398151915281565b34801561049557600080fd5b506102816104a43660046121d4565b610f27565b3480156104b557600080fd5b506102c66104c43660046122e9565b610f5b565b3480156104d557600080fd5b506102816104e436600461213a565b61012f6020526000908152604090205481565b34801561050357600080fd5b506102816301e1338081565b34801561051b57600080fd5b506102c661052a366004612341565b611103565b34801561053b57600080fd5b5061058e61054a3660046121d4565b610134602052600090815260409020805460018201546002830154600384015460048501546005860154600687015460079097015495969495939492939192909188565b604080519889526020890197909752958701949094526060860192909252608085015260a084015260c083015260e082015261010001610261565b3480156105d557600080fd5b506102c66105e436600461213a565b61129e565b3480156105f557600080fd5b506102556106043660046121a8565b6113c9565b34801561061557600080fd5b50610281600081565b34801561062a57600080fd5b50610131546102e9906001600160a01b031681565b34801561064b57600080fd5b5061028161065a3660046121d4565b6001600160a01b03166000908152610134602052604090206002015490565b34801561068557600080fd5b506102c661069436600461236b565b6113f4565b3480156106a557600080fd5b506102c66106b436600461213a565b6115ab565b3480156106c557600080fd5b506102c66106d43660046121a8565b6115cb565b3480156106e557600080fd5b5061028162278d0081565b3480156106fc57600080fd5b506102c661070b3660046122c7565b6115f1565b34801561071c57600080fd5b506102816101325481565b34801561073357600080fd5b506102c66107423660046121d4565b61161e565b34801561075357600080fd5b506102816000805160206126fb83398151915281565b34801561077557600080fd5b506102c661078436600461216f565b61165b565b34801561079557600080fd5b506102c66107a436600461213a565b61169d565b60006001600160e01b03198216637965db0b60e01b14806107da57506301ffc9a760e01b6001600160e01b03198316145b92915050565b33600090815261013460205260409020600381015442101561081d5760405162461bcd60e51b81526004016108149061239e565b60405180910390fd5b61082b6301e13380426123f8565b600390910155565b600260975414156108565760405162461bcd60e51b815260040161081490612410565b60026097556000805160206126db83398151915261087481336116cc565b600082815261012f6020526040812054670de0b6b3a7640000906301e133809061089f908790612447565b6108a99088612447565b6108b39190612466565b6108bd9190612466565b6001600160a01b038716600090815261013460205260408120600101805492935087929091906108ee908490612488565b90915550506001600160a01b038616600090815261013460205260408120600501805483929061091f9084906123f8565b909155506109499050333061093484896123f8565b610130546001600160a01b0316929190611730565b604051428152859033907f2dc8e290002f06fc0085bbca9dfb8b415cf4d1178950c72ff9ee8f4d8878ee669060200160405180910390a35050600160975550505050565b600260975414156109b05760405162461bcd60e51b815260040161081490612410565b60026097553360009081526101346020526040902060038101544210156109e95760405162461bcd60e51b81526004016108149061239e565b8054821115610a3a5760405162461bcd60e51b815260206004820152601c60248201527f575150656e73696f6e3a20416d6f756e7420697320696e76616c6964000000006044820152606401610814565b8054600090610a4833610f27565b610a529085612447565b610a5c9190612466565b905080826006016000828254610a7291906123f8565b909155505061013354600090670de0b6b3a764000090610a929086612447565b610a9c9190612466565b83546007850154919250600091610ab39087612447565b610abd9190612466565b905084846000016000828254610ad39190612488565b90915550508354610ae657600060038501555b80846007016000828254610afa9190612488565b90915550610b389050338284610b10878a6123f8565b610b1a9190612488565b610b249190612488565b610130546001600160a01b031691906117a1565b61013154610b53906001600160a01b0316610b2483856123f8565b604051428152859033907fadec52fcd1408589179b85e44b434374db078b4eaf793e7d1a1bb0ae4ecfeee59060200160405180910390a3604051428152839033907f987d620f307ff6b94d58743cb7a7509f24071586a77759b77c2d4e29f75a2f9a9060200160405180910390a350506001609755505050565b600082815260656020526040902060010154610be981336116cc565b610bf383836117d1565b505050565b6001600160a01b0381163314610c685760405162461bcd60e51b815260206004820152602f60248201527f416363657373436f6e74726f6c3a2063616e206f6e6c792072656e6f756e636560448201526e103937b632b9903337b91039b2b63360891b6064820152608401610814565b610c728282611857565b5050565b306001600160a01b037f0000000000000000000000000000000000000000000000000000000000000000161415610cbf5760405162461bcd60e51b81526004016108149061249f565b7f00000000000000000000000000000000000000000000000000000000000000006001600160a01b0316610d0860008051602061271b833981519152546001600160a01b031690565b6001600160a01b031614610d2e5760405162461bcd60e51b8152600401610814906124eb565b610d37816118be565b60408051600080825260208201909252610d53918391906118d7565b50565b306001600160a01b037f0000000000000000000000000000000000000000000000000000000000000000161415610d9f5760405162461bcd60e51b81526004016108149061249f565b7f00000000000000000000000000000000000000000000000000000000000000006001600160a01b0316610de860008051602061271b833981519152546001600160a01b031690565b6001600160a01b031614610e0e5760405162461bcd60e51b8152600401610814906124eb565b610e17826118be565b610c72828260016118d7565b6000306001600160a01b037f00000000000000000000000000000000000000000000000000000000000000001614610ec35760405162461bcd60e51b815260206004820152603860248201527f555550535570677261646561626c653a206d757374206e6f742062652063616c60448201527f6c6564207468726f7567682064656c656761746563616c6c00000000000000006064820152608401610814565b5060008051602061271b83398151915290565b600080516020612762833981519152610eef81336116cc565b506101339190915561013255565b6001600160a01b038116600090815261013460205260408120600181015490546107da9190612488565b6001600160a01b03811660009081526101346020526040812060068101546005820154610f549190612488565b9392505050565b600054610100900460ff16610f765760005460ff1615610f7a565b303b155b610fdd5760405162461bcd60e51b815260206004820152602e60248201527f496e697469616c697a61626c653a20636f6e747261637420697320616c72656160448201526d191e481a5b9a5d1a585b1a5e995960921b6064820152608401610814565b600054610100900460ff16158015610fff576000805461ffff19166101011790555b611007611a51565b61100f611a7a565b611017611a51565b611022600033611aa9565b61103a60008051602061276283398151915233611aa9565b6110526000805160206126fb83398151915233611aa9565b6110786000805160206126db833981519152600080516020612762833981519152611ab3565b61109e6000805160206126fb833981519152600080516020612762833981519152611ab3565b61012d87905561012e86905561013080546001600160a01b038088166001600160a01b03199283161790925561013180549287169290911691909117905561013283905561013382905580156110fa576000805461ff00191690555b50505050505050565b600260975414156111265760405162461bcd60e51b815260040161081490612410565b60026097556001600160a01b03821660009081526101346020526040902060048101546111bb57426004820181905561012d54611162916123f8565b6003820181905561012e546002830181905560006007840155604051918252906001600160a01b038516907fdf8570df385b2879e23de768d9f15a45925c9efdd5698f03f57ab6cab69cda8f9060200160405180910390a35b818160000160008282546111cf91906123f8565b92505081905550670de0b6b3a764000062278d004283600301546111f39190612488565b610132546112019086612447565b61120b9190612447565b6112159190612466565b61121f9190612466565b81600701600082825461123291906123f8565b909155505061013054611250906001600160a01b0316333085611730565b81836001600160a01b03167f74cf3d18d0ddca79038197ad0dd2c7fa5005ef61a5d1ed190e8a8a437e2fcf104260405161128c91815260200190565b60405180910390a35050600160975550565b670de0b6b3a76400008111156112f65760405162461bcd60e51b815260206004820181905260248201527f575150656e73696f6e46756e643a20696e76616c6964206665652076616c75656044820152606401610814565b33600090815261013460205260409020600481015461132a57426004820181905561012d54611324916123f8565b60038201555b670de0b6b3a76400008211156113825760405162461bcd60e51b815260206004820152601c60248201527f575150656e73696f6e3a20496e76616c6964206665652076616c7565000000006044820152606401610814565b600281018290556003810154604051908152829033907fdf8570df385b2879e23de768d9f15a45925c9efdd5698f03f57ab6cab69cda8f9060200160405180910390a35050565b60009182526065602090815260408084206001600160a01b0393909316845291905290205460ff1690565b600260975414156114175760405162461bcd60e51b815260040161081490612410565b60026097556000805160206126db83398151915261143581336116cc565b61143e84610efd565b83111561149e5760405162461bcd60e51b815260206004820152602860248201527f575150656e73696f6e3a20496e73756666696369656e7420616d6f756e7420696044820152671b881dd85b1b195d60c21b6064820152608401610814565b6001600160a01b038416600090815261013460205260409020600301546114c88362015180612447565b6114d290426123f8565b11156115205760405162461bcd60e51b815260206004820152601b60248201527f575150656e73696f6e3a20496e76616c6964206475726174696f6e00000000006044820152606401610814565b6001600160a01b038416600090815261013460205260408120600101805485929061154c9084906123f8565b909155505061013054611569906001600160a01b031633856117a1565b604051428152839033907feae9cfbc77fdd40ca899f36b608256063b2bc9d8178b0220f7ad513e178d67309060200160405180910390a3505060016097555050565b6000805160206127628339815191526115c481336116cc565b5061012e55565b6000828152606560205260409020600101546115e781336116cc565b610bf38383611857565b60008051602061276283398151915261160a81336116cc565b50600091825261012f602052604090912055565b60008051602061276283398151915261163781336116cc565b5061013180546001600160a01b0319166001600160a01b0392909216919091179055565b60008051602061276283398151915261167481336116cc565b506001600160a01b03909316600090815261013460205260409020918255600382015560040155565b6000805160206127628339815191526116b681336116cc565b5061012d55565b6001600160a01b03163b151590565b6116d682826113c9565b610c72576116ee816001600160a01b03166014611afe565b6116f9836020611afe565b60405160200161170a929190612563565b60408051601f198184030181529082905262461bcd60e51b8252610814916004016125d8565b6040516001600160a01b038085166024830152831660448201526064810182905261179b9085906323b872dd60e01b906084015b60408051601f198184030181529190526020810180516001600160e01b03166001600160e01b031990931692909217909152611c9a565b50505050565b6040516001600160a01b038316602482015260448101829052610bf390849063a9059cbb60e01b90606401611764565b6117db82826113c9565b610c725760008281526065602090815260408083206001600160a01b03851684529091529020805460ff191660011790556118133390565b6001600160a01b0316816001600160a01b0316837f2f8788117e7eff1d82e926ec794901d17c78024a50270940304540a733656f0d60405160405180910390a45050565b61186182826113c9565b15610c725760008281526065602090815260408083206001600160a01b0385168085529252808320805460ff1916905551339285917ff6391f5c32d9c69d2a47ea670b442974b53935d1edc7fd64eb21e047a839171b9190a45050565b6000805160206126fb833981519152610c7281336116cc565b7f4910fdfa16fed3260ed0e7147f7cc6da11a60208b5b9406d12a635614ffd91435460ff161561190a57610bf383611d6c565b826001600160a01b03166352d1902d6040518163ffffffff1660e01b815260040160206040518083038186803b15801561194357600080fd5b505afa925050508015611973575060408051601f3d908101601f191682019092526119709181019061260b565b60015b6119d65760405162461bcd60e51b815260206004820152602e60248201527f45524331393637557067726164653a206e657720696d706c656d656e7461746960448201526d6f6e206973206e6f74205555505360901b6064820152608401610814565b60008051602061271b8339815191528114611a455760405162461bcd60e51b815260206004820152602960248201527f45524331393637557067726164653a20756e737570706f727465642070726f786044820152681a58589b195555525160ba1b6064820152608401610814565b50610bf3838383611e08565b600054610100900460ff16611a785760405162461bcd60e51b815260040161081490612624565b565b600054610100900460ff16611aa15760405162461bcd60e51b815260040161081490612624565b611a78611e2d565b610c7282826117d1565b600082815260656020526040808220600101805490849055905190918391839186917fbd79b86ffe0ab8e8776151514217cd7cacd52c909f66475c3af44e129f0b00ff9190a4505050565b60606000611b0d836002612447565b611b189060026123f8565b67ffffffffffffffff811115611b3057611b306121ef565b6040519080825280601f01601f191660200182016040528015611b5a576020820181803683370190505b509050600360fc1b81600081518110611b7557611b7561266f565b60200101906001600160f81b031916908160001a905350600f60fb1b81600181518110611ba457611ba461266f565b60200101906001600160f81b031916908160001a9053506000611bc8846002612447565b611bd39060016123f8565b90505b6001811115611c4b576f181899199a1a9b1b9c1cb0b131b232b360811b85600f1660108110611c0757611c0761266f565b1a60f81b828281518110611c1d57611c1d61266f565b60200101906001600160f81b031916908160001a90535060049490941c93611c4481612685565b9050611bd6565b508315610f545760405162461bcd60e51b815260206004820181905260248201527f537472696e67733a20686578206c656e67746820696e73756666696369656e746044820152606401610814565b6000611cef826040518060400160405280602081526020017f5361666545524332303a206c6f772d6c6576656c2063616c6c206661696c6564815250856001600160a01b0316611e5b9092919063ffffffff16565b805190915015610bf35780806020019051810190611d0d919061269c565b610bf35760405162461bcd60e51b815260206004820152602a60248201527f5361666545524332303a204552433230206f7065726174696f6e20646964206e6044820152691bdd081cdd58d8d9595960b21b6064820152608401610814565b6001600160a01b0381163b611dd95760405162461bcd60e51b815260206004820152602d60248201527f455243313936373a206e657720696d706c656d656e746174696f6e206973206e60448201526c1bdd08184818dbdb9d1c9858dd609a1b6064820152608401610814565b60008051602061271b83398151915280546001600160a01b0319166001600160a01b0392909216919091179055565b611e1183611e72565b600082511180611e1e5750805b15610bf35761179b8383611eb2565b600054610100900460ff16611e545760405162461bcd60e51b815260040161081490612624565b6001609755565b6060611e6a8484600085611fa6565b949350505050565b611e7b81611d6c565b6040516001600160a01b038216907fbc7cd75a20ee27fd9adebab32041f755214dbc6bffa90cc0225b39da2e5c2d3b90600090a250565b60606001600160a01b0383163b611f1a5760405162461bcd60e51b815260206004820152602660248201527f416464726573733a2064656c65676174652063616c6c20746f206e6f6e2d636f6044820152651b9d1c9858dd60d21b6064820152608401610814565b600080846001600160a01b031684604051611f3591906126be565b600060405180830381855af49150503d8060008114611f70576040519150601f19603f3d011682016040523d82523d6000602084013e611f75565b606091505b5091509150611f9d828260405180606001604052806027815260200161273b602791396120d7565b95945050505050565b6060824710156120075760405162461bcd60e51b815260206004820152602660248201527f416464726573733a20696e73756666696369656e742062616c616e636520666f6044820152651c8818d85b1b60d21b6064820152608401610814565b6001600160a01b0385163b61205e5760405162461bcd60e51b815260206004820152601d60248201527f416464726573733a2063616c6c20746f206e6f6e2d636f6e74726163740000006044820152606401610814565b600080866001600160a01b0316858760405161207a91906126be565b60006040518083038185875af1925050503d80600081146120b7576040519150601f19603f3d011682016040523d82523d6000602084013e6120bc565b606091505b50915091506120cc8282866120d7565b979650505050505050565b606083156120e6575081610f54565b8251156120f65782518084602001fd5b8160405162461bcd60e51b815260040161081491906125d8565b60006020828403121561212257600080fd5b81356001600160e01b031981168114610f5457600080fd5b60006020828403121561214c57600080fd5b5035919050565b80356001600160a01b038116811461216a57600080fd5b919050565b6000806000806080858703121561218557600080fd5b61218e85612153565b966020860135965060408601359560600135945092505050565b600080604083850312156121bb57600080fd5b823591506121cb60208401612153565b90509250929050565b6000602082840312156121e657600080fd5b610f5482612153565b634e487b7160e01b600052604160045260246000fd5b6000806040838503121561221857600080fd5b61222183612153565b9150602083013567ffffffffffffffff8082111561223e57600080fd5b818501915085601f83011261225257600080fd5b813581811115612264576122646121ef565b604051601f8201601f19908116603f0116810190838211818310171561228c5761228c6121ef565b816040528281528860208487010111156122a557600080fd5b8260208601602083013760006020848301015280955050505050509250929050565b600080604083850312156122da57600080fd5b50508035926020909101359150565b60008060008060008060c0878903121561230257600080fd5b863595506020870135945061231960408801612153565b935061232760608801612153565b92506080870135915060a087013590509295509295509295565b6000806040838503121561235457600080fd5b61235d83612153565b946020939093013593505050565b60008060006060848603121561238057600080fd5b61238984612153565b95602085013595506040909401359392505050565b60208082526024908201527f575150656e73696f6e3a204c6f636b2074696d65206973206e6f74206f766572604082015263081e595d60e21b606082015260800190565b634e487b7160e01b600052601160045260246000fd5b6000821982111561240b5761240b6123e2565b500190565b6020808252601f908201527f5265656e7472616e637947756172643a207265656e7472616e742063616c6c00604082015260600190565b6000816000190483118215151615612461576124616123e2565b500290565b60008261248357634e487b7160e01b600052601260045260246000fd5b500490565b60008282101561249a5761249a6123e2565b500390565b6020808252602c908201527f46756e6374696f6e206d7573742062652063616c6c6564207468726f7567682060408201526b19195b1959d85d1958d85b1b60a21b606082015260800190565b6020808252602c908201527f46756e6374696f6e206d7573742062652063616c6c6564207468726f7567682060408201526b6163746976652070726f787960a01b606082015260800190565b60005b8381101561255257818101518382015260200161253a565b8381111561179b5750506000910152565b7f416363657373436f6e74726f6c3a206163636f756e742000000000000000000081526000835161259b816017850160208801612537565b7001034b99036b4b9b9b4b733903937b6329607d1b60179184019182015283516125cc816028840160208801612537565b01602801949350505050565b60208152600082518060208401526125f7816040850160208701612537565b601f01601f19169190910160400192915050565b60006020828403121561261d57600080fd5b5051919050565b6020808252602b908201527f496e697469616c697a61626c653a20636f6e7472616374206973206e6f74206960408201526a6e697469616c697a696e6760a81b606082015260800190565b634e487b7160e01b600052603260045260246000fd5b600081612694576126946123e2565b506000190190565b6000602082840312156126ae57600080fd5b81518015158114610f5457600080fd5b600082516126d0818460208701612537565b919091019291505056fe2344277e405079ec07749d374ba0b5862a4e45a6a05ac889dbb4a991c6f9354d189ab7a9244df0848122154315af71fe140f3db0fe014031783b0946b8c9d2e3360894a13ba1a3210667c828492db98dca3e2076cc3735a920a3ca505d382bbc416464726573733a206c6f772d6c6576656c2064656c65676174652063616c6c206661696c6564a49807205ce4d355092ef5a8a18f56e8913cf4a201fbe287825b095693c21775a26469706673582212204534e9db19cdd8ad8906bdbd8cf323b94ab9757c5b76a119f0fd09ea86ad29e064736f6c63430008090033",
  "linkReferences": {},
  "deployedLinkReferences": {}
}