{
  "_format": "hh-sol-artifact-1",
  "contractName": "WQPensionFund",
  "sourceName": "contracts/WQPensionFund.sol",
  "abi": [
    {
      "inputs": [],
      "stateMutability": "nonpayable",
      "type": "constructor"
    },
    {
      "anonymous": false,
      "inputs": [
        {
          "indexed": false,
          "internalType": "address",
          "name": "previousAdmin",
          "type": "address"
        },
        {
          "indexed": false,
          "internalType": "address",
          "name": "newAdmin",
          "type": "address"
        }
      ],
      "name": "AdminChanged",
      "type": "event"
    },
    {
      "anonymous": false,
      "inputs": [
        {
          "indexed": true,
          "internalType": "address",
          "name": "beacon",
          "type": "address"
        }
      ],
      "name": "BeaconUpgraded",
      "type": "event"
    },
    {
      "anonymous": false,
      "inputs": [
        {
          "indexed": true,
          "internalType": "address",
          "name": "user",
          "type": "address"
        },
        {
          "indexed": true,
          "internalType": "uint256",
          "name": "amount",
          "type": "uint256"
        },
        {
          "indexed": false,
          "internalType": "uint256",
          "name": "timestamp",
          "type": "uint256"
        }
      ],
      "name": "Borrowed",
      "type": "event"
    },
    {
      "anonymous": false,
      "inputs": [
        {
          "indexed": true,
          "internalType": "address",
          "name": "user",
          "type": "address"
        },
        {
          "indexed": true,
          "internalType": "uint256",
          "name": "amount",
          "type": "uint256"
        },
        {
          "indexed": false,
          "internalType": "uint256",
          "name": "timestamp",
          "type": "uint256"
        }
      ],
      "name": "Claimed",
      "type": "event"
    },
    {
      "anonymous": false,
      "inputs": [
        {
          "indexed": false,
          "internalType": "uint8",
          "name": "version",
          "type": "uint8"
        }
      ],
      "name": "Initialized",
      "type": "event"
    },
    {
      "anonymous": false,
      "inputs": [
        {
          "indexed": true,
          "internalType": "address",
          "name": "user",
          "type": "address"
        },
        {
          "indexed": true,
          "internalType": "uint256",
          "name": "amount",
          "type": "uint256"
        },
        {
          "indexed": false,
          "internalType": "uint256",
          "name": "timestamp",
          "type": "uint256"
        }
      ],
      "name": "Received",
      "type": "event"
    },
    {
      "anonymous": false,
      "inputs": [
        {
          "indexed": true,
          "internalType": "address",
          "name": "user",
          "type": "address"
        },
        {
          "indexed": true,
          "internalType": "uint256",
          "name": "amount",
          "type": "uint256"
        },
        {
          "indexed": false,
          "internalType": "uint256",
          "name": "timestamp",
          "type": "uint256"
        }
      ],
      "name": "Refunded",
      "type": "event"
    },
    {
      "anonymous": false,
      "inputs": [
        {
          "indexed": true,
          "internalType": "bytes32",
          "name": "role",
          "type": "bytes32"
        },
        {
          "indexed": true,
          "internalType": "bytes32",
          "name": "previousAdminRole",
          "type": "bytes32"
        },
        {
          "indexed": true,
          "internalType": "bytes32",
          "name": "newAdminRole",
          "type": "bytes32"
        }
      ],
      "name": "RoleAdminChanged",
      "type": "event"
    },
    {
      "anonymous": false,
      "inputs": [
        {
          "indexed": true,
          "internalType": "bytes32",
          "name": "role",
          "type": "bytes32"
        },
        {
          "indexed": true,
          "internalType": "address",
          "name": "account",
          "type": "address"
        },
        {
          "indexed": true,
          "internalType": "address",
          "name": "sender",
          "type": "address"
        }
      ],
      "name": "RoleGranted",
      "type": "event"
    },
    {
      "anonymous": false,
      "inputs": [
        {
          "indexed": true,
          "internalType": "bytes32",
          "name": "role",
          "type": "bytes32"
        },
        {
          "indexed": true,
          "internalType": "address",
          "name": "account",
          "type": "address"
        },
        {
          "indexed": true,
          "internalType": "address",
          "name": "sender",
          "type": "address"
        }
      ],
      "name": "RoleRevoked",
      "type": "event"
    },
    {
      "anonymous": false,
      "inputs": [
        {
          "indexed": true,
          "internalType": "address",
          "name": "implementation",
          "type": "address"
        }
      ],
      "name": "Upgraded",
      "type": "event"
    },
    {
      "anonymous": false,
      "inputs": [
        {
          "indexed": true,
          "internalType": "address",
          "name": "user",
          "type": "address"
        },
        {
          "indexed": true,
          "internalType": "uint256",
          "name": "newFee",
          "type": "uint256"
        },
        {
          "indexed": false,
          "internalType": "uint256",
          "name": "unlockDate",
          "type": "uint256"
        }
      ],
      "name": "WalletUpdated",
      "type": "event"
    },
    {
      "anonymous": false,
      "inputs": [
        {
          "indexed": true,
          "internalType": "address",
          "name": "user",
          "type": "address"
        },
        {
          "indexed": true,
          "internalType": "uint256",
          "name": "amount",
          "type": "uint256"
        },
        {
          "indexed": false,
          "internalType": "uint256",
          "name": "timestamp",
          "type": "uint256"
        }
      ],
      "name": "Withdrew",
      "type": "event"
    },
    {
      "inputs": [],
      "name": "ADMIN_ROLE",
      "outputs": [
        {
          "internalType": "bytes32",
          "name": "",
          "type": "bytes32"
        }
      ],
      "stateMutability": "view",
      "type": "function"
    },
    {
      "inputs": [],
      "name": "BORROWER_ROLE",
      "outputs": [
        {
          "internalType": "bytes32",
          "name": "",
          "type": "bytes32"
        }
      ],
      "stateMutability": "view",
      "type": "function"
    },
    {
      "inputs": [],
      "name": "DEFAULT_ADMIN_ROLE",
      "outputs": [
        {
          "internalType": "bytes32",
          "name": "",
          "type": "bytes32"
        }
      ],
      "stateMutability": "view",
      "type": "function"
    },
    {
      "inputs": [],
      "name": "MONTH",
      "outputs": [
        {
          "internalType": "uint256",
          "name": "",
          "type": "uint256"
        }
      ],
      "stateMutability": "view",
      "type": "function"
    },
    {
      "inputs": [],
      "name": "UPGRADER_ROLE",
      "outputs": [
        {
          "internalType": "bytes32",
          "name": "",
          "type": "bytes32"
        }
      ],
      "stateMutability": "view",
      "type": "function"
    },
    {
      "inputs": [],
      "name": "YEAR",
      "outputs": [
        {
          "internalType": "uint256",
          "name": "",
          "type": "uint256"
        }
      ],
      "stateMutability": "view",
      "type": "function"
    },
    {
      "inputs": [
        {
          "internalType": "uint256",
          "name": "",
          "type": "uint256"
        }
      ],
      "name": "apys",
      "outputs": [
        {
          "internalType": "uint256",
          "name": "",
          "type": "uint256"
        }
      ],
      "stateMutability": "view",
      "type": "function"
    },
    {
      "inputs": [
        {
          "internalType": "address",
          "name": "depositor",
          "type": "address"
        }
      ],
      "name": "balanceOf",
      "outputs": [
        {
          "internalType": "uint256",
          "name": "",
          "type": "uint256"
        }
      ],
      "stateMutability": "view",
      "type": "function"
    },
    {
      "inputs": [
        {
          "internalType": "address",
          "name": "depositor",
          "type": "address"
        },
        {
          "internalType": "uint256",
          "name": "amount",
          "type": "uint256"
        },
        {
          "internalType": "uint256",
          "name": "duration",
          "type": "uint256"
        }
      ],
      "name": "borrow",
      "outputs": [
        {
          "internalType": "uint256",
          "name": "",
          "type": "uint256"
        }
      ],
      "stateMutability": "nonpayable",
      "type": "function"
    },
    {
      "inputs": [
        {
          "internalType": "address",
          "name": "worker",
          "type": "address"
        },
        {
          "internalType": "uint256",
          "name": "amount",
          "type": "uint256"
        }
      ],
      "name": "contribute",
      "outputs": [],
      "stateMutability": "nonpayable",
      "type": "function"
    },
    {
      "inputs": [],
      "name": "defaultFee",
      "outputs": [
        {
          "internalType": "uint256",
          "name": "",
          "type": "uint256"
        }
      ],
      "stateMutability": "view",
      "type": "function"
    },
    {
      "inputs": [],
      "name": "extendLockTime",
      "outputs": [],
      "stateMutability": "nonpayable",
      "type": "function"
    },
    {
      "inputs": [],
      "name": "feePerMonth",
      "outputs": [
        {
          "internalType": "uint256",
          "name": "",
          "type": "uint256"
        }
      ],
      "stateMutability": "view",
      "type": "function"
    },
    {
      "inputs": [],
      "name": "feeReceiver",
      "outputs": [
        {
          "internalType": "address",
          "name": "",
          "type": "address"
        }
      ],
      "stateMutability": "view",
      "type": "function"
    },
    {
      "inputs": [],
      "name": "feeWithdraw",
      "outputs": [
        {
          "internalType": "uint256",
          "name": "",
          "type": "uint256"
        }
      ],
      "stateMutability": "view",
      "type": "function"
    },
    {
      "inputs": [
        {
          "internalType": "address",
          "name": "depositor",
          "type": "address"
        }
      ],
      "name": "getFee",
      "outputs": [
        {
          "internalType": "uint256",
          "name": "",
          "type": "uint256"
        }
      ],
      "stateMutability": "view",
      "type": "function"
    },
    {
      "inputs": [
        {
          "internalType": "address",
          "name": "depositor",
          "type": "address"
        }
      ],
      "name": "getRewards",
      "outputs": [
        {
          "internalType": "uint256",
          "name": "",
          "type": "uint256"
        }
      ],
      "stateMutability": "view",
      "type": "function"
    },
    {
      "inputs": [
        {
          "internalType": "bytes32",
          "name": "role",
          "type": "bytes32"
        }
      ],
      "name": "getRoleAdmin",
      "outputs": [
        {
          "internalType": "bytes32",
          "name": "",
          "type": "bytes32"
        }
      ],
      "stateMutability": "view",
      "type": "function"
    },
    {
      "inputs": [
        {
          "internalType": "bytes32",
          "name": "role",
          "type": "bytes32"
        },
        {
          "internalType": "address",
          "name": "account",
          "type": "address"
        }
      ],
      "name": "grantRole",
      "outputs": [],
      "stateMutability": "nonpayable",
      "type": "function"
    },
    {
      "inputs": [
        {
          "internalType": "bytes32",
          "name": "role",
          "type": "bytes32"
        },
        {
          "internalType": "address",
          "name": "account",
          "type": "address"
        }
      ],
      "name": "hasRole",
      "outputs": [
        {
          "internalType": "bool",
          "name": "",
          "type": "bool"
        }
      ],
      "stateMutability": "view",
      "type": "function"
    },
    {
      "inputs": [
        {
          "internalType": "uint256",
          "name": "_lockTime",
          "type": "uint256"
        },
        {
          "internalType": "uint256",
          "name": "_defaultFee",
          "type": "uint256"
        },
        {
          "internalType": "address",
          "name": "_wusd",
          "type": "address"
        },
        {
          "internalType": "address",
          "name": "_feeReceiver",
          "type": "address"
        },
        {
          "internalType": "uint256",
          "name": "_feePerMonth",
          "type": "uint256"
        },
        {
          "internalType": "uint256",
          "name": "_feeWithdraw",
          "type": "uint256"
        }
      ],
      "name": "initialize",
      "outputs": [],
      "stateMutability": "nonpayable",
      "type": "function"
    },
    {
      "inputs": [],
      "name": "lockTime",
      "outputs": [
        {
          "internalType": "uint256",
          "name": "",
          "type": "uint256"
        }
      ],
      "stateMutability": "view",
      "type": "function"
    },
    {
      "inputs": [],
      "name": "proxiableUUID",
      "outputs": [
        {
          "internalType": "bytes32",
          "name": "",
          "type": "bytes32"
        }
      ],
      "stateMutability": "view",
      "type": "function"
    },
    {
      "inputs": [
        {
          "internalType": "address",
          "name": "depositor",
          "type": "address"
        },
        {
          "internalType": "uint256",
          "name": "amount",
          "type": "uint256"
        },
        {
          "internalType": "uint256",
          "name": "elapsedTime",
          "type": "uint256"
        },
        {
          "internalType": "uint256",
          "name": "duration",
          "type": "uint256"
        }
      ],
      "name": "refund",
      "outputs": [],
      "stateMutability": "nonpayable",
      "type": "function"
    },
    {
      "inputs": [
        {
          "internalType": "bytes32",
          "name": "role",
          "type": "bytes32"
        },
        {
          "internalType": "address",
          "name": "account",
          "type": "address"
        }
      ],
      "name": "renounceRole",
      "outputs": [],
      "stateMutability": "nonpayable",
      "type": "function"
    },
    {
      "inputs": [
        {
          "internalType": "bytes32",
          "name": "role",
          "type": "bytes32"
        },
        {
          "internalType": "address",
          "name": "account",
          "type": "address"
        }
      ],
      "name": "revokeRole",
      "outputs": [],
      "stateMutability": "nonpayable",
      "type": "function"
    },
    {
      "inputs": [
        {
          "internalType": "uint256",
          "name": "duration",
          "type": "uint256"
        },
        {
          "internalType": "uint256",
          "name": "apy",
          "type": "uint256"
        }
      ],
      "name": "setApy",
      "outputs": [],
      "stateMutability": "nonpayable",
      "type": "function"
    },
    {
      "inputs": [
        {
          "internalType": "uint256",
          "name": "_feeWithdraw",
          "type": "uint256"
        },
        {
          "internalType": "uint256",
          "name": "_feePerMonth",
          "type": "uint256"
        }
      ],
      "name": "setFee",
      "outputs": [],
      "stateMutability": "nonpayable",
      "type": "function"
    },
    {
      "inputs": [
        {
          "internalType": "address",
          "name": "_feeReceiver",
          "type": "address"
        }
      ],
      "name": "setFeeReceiver",
      "outputs": [],
      "stateMutability": "nonpayable",
      "type": "function"
    },
    {
      "inputs": [
        {
          "internalType": "bytes4",
          "name": "interfaceId",
          "type": "bytes4"
        }
      ],
      "name": "supportsInterface",
      "outputs": [
        {
          "internalType": "bool",
          "name": "",
          "type": "bool"
        }
      ],
      "stateMutability": "view",
      "type": "function"
    },
    {
      "inputs": [
        {
          "internalType": "uint256",
          "name": "_defaultFee",
          "type": "uint256"
        }
      ],
      "name": "updateDefaultFee",
      "outputs": [],
      "stateMutability": "nonpayable",
      "type": "function"
    },
    {
      "inputs": [
        {
          "internalType": "uint256",
          "name": "fee",
          "type": "uint256"
        }
      ],
      "name": "updateFee",
      "outputs": [],
      "stateMutability": "nonpayable",
      "type": "function"
    },
    {
      "inputs": [
        {
          "internalType": "uint256",
          "name": "_lockTime",
          "type": "uint256"
        }
      ],
      "name": "updateLockTime",
      "outputs": [],
      "stateMutability": "nonpayable",
      "type": "function"
    },
    {
      "inputs": [
        {
          "internalType": "address",
          "name": "depositor",
          "type": "address"
        },
        {
          "internalType": "uint256",
          "name": "amount",
          "type": "uint256"
        },
        {
          "internalType": "uint256",
          "name": "unlockDate",
          "type": "uint256"
        },
        {
          "internalType": "uint256",
          "name": "createdAt",
          "type": "uint256"
        }
      ],
      "name": "updateWallet",
      "outputs": [],
      "stateMutability": "nonpayable",
      "type": "function"
    },
    {
      "inputs": [
        {
          "internalType": "address",
          "name": "newImplementation",
          "type": "address"
        }
      ],
      "name": "upgradeTo",
      "outputs": [],
      "stateMutability": "nonpayable",
      "type": "function"
    },
    {
      "inputs": [
        {
          "internalType": "address",
          "name": "newImplementation",
          "type": "address"
        },
        {
          "internalType": "bytes",
          "name": "data",
          "type": "bytes"
        }
      ],
      "name": "upgradeToAndCall",
      "outputs": [],
      "stateMutability": "payable",
      "type": "function"
    },
    {
      "inputs": [
        {
          "internalType": "address",
          "name": "",
          "type": "address"
        }
      ],
      "name": "wallets",
      "outputs": [
        {
          "internalType": "uint256",
          "name": "amount",
          "type": "uint256"
        },
        {
          "internalType": "uint256",
          "name": "borrowed",
          "type": "uint256"
        },
        {
          "internalType": "uint256",
          "name": "fee",
          "type": "uint256"
        },
        {
          "internalType": "uint256",
          "name": "unlockDate",
          "type": "uint256"
        },
        {
          "internalType": "uint256",
          "name": "createdAt",
          "type": "uint256"
        },
        {
          "internalType": "uint256",
          "name": "rewardAllowed",
          "type": "uint256"
        },
        {
          "internalType": "uint256",
          "name": "rewardDistributed",
          "type": "uint256"
        },
        {
          "internalType": "uint256",
          "name": "serviceComission",
          "type": "uint256"
        }
      ],
      "stateMutability": "view",
      "type": "function"
    },
    {
      "inputs": [
        {
          "internalType": "uint256",
          "name": "amount",
          "type": "uint256"
        }
      ],
      "name": "withdraw",
      "outputs": [],
      "stateMutability": "nonpayable",
      "type": "function"
    },
    {
      "inputs": [],
      "name": "wusd",
      "outputs": [
        {
          "internalType": "contract IERC20Upgradeable",
          "name": "",
          "type": "address"
        }
      ],
      "stateMutability": "view",
      "type": "function"
    }
  ],
  "bytecode": "0x60a0604052306080523480156200001557600080fd5b50600054610100900460ff1615808015620000375750600054600160ff909116105b8062000067575062000054306200014160201b620016ec1760201c565b15801562000067575060005460ff166001145b620000cf5760405162461bcd60e51b815260206004820152602e60248201527f496e697469616c697a61626c653a20636f6e747261637420697320616c72656160448201526d191e481a5b9a5d1a585b1a5e995960921b606482015260840160405180910390fd5b6000805460ff191660011790558015620000f3576000805461ff0019166101001790555b80156200013a576000805461ff0019169055604051600181527f7f26b83ff96e1f2b6a682f133852f6798a09c465da95921460cefb38474024989060200160405180910390a15b5062000150565b6001600160a01b03163b151590565b6080516127ef6200018860003960008181610c7f01528181610cbf01528181610d5f01528181610d9f0152610e2e01526127ef6000f3fe6080604052600436106102305760003560e01c80637b7da6bf1161012e578063c1bce0b7116100ab578063dbf2cb331161006f578063dbf2cb3314610710578063efdcd97414610727578063f72c0d8b14610747578063f73ce7e414610769578063fbfa4e111461078957600080fd5b8063c1bce0b714610679578063c212f79114610699578063d547741f146106b9578063d5999a5c146106d9578063daf8bc10146106f057600080fd5b80639012c4a8116100f25780639012c4a8146105c957806391d14854146105e9578063a217fddf14610609578063b3f006741461061e578063b88c91481461063f57600080fd5b80637b7da6bf146104a957806381ce1c23146104c957806383914540146104f75780638418cd991461050f57806389b08f111461052f57600080fd5b806336568abe116101bc5780635a6c72d0116101805780635a6c72d0146104195780636561e6ba1461043057806370a082311461044757806375b238fc1461046757806379ee54f71461048957600080fd5b806336568abe146103915780633659cfe6146103b15780634f1ef286146103d157806352d1902d146103e457806352f7c988146103f957600080fd5b806315c40eb01161020357806315c40eb0146102c8578063248a9ca314610301578063268ebd59146103315780632e1a7d4d146103515780632f2ff15d1461037157600080fd5b806301ffc9a7146102355780630d6680871461026a5780630e7b949e1461028f57806311b0ba9f146102b1575b600080fd5b34801561024157600080fd5b50610255610250366004612148565b6107a9565b60405190151581526020015b60405180910390f35b34801561027657600080fd5b5061028161012d5481565b604051908152602001610261565b34801561029b57600080fd5b5061028160008051602061271383398151915281565b3480156102bd57600080fd5b506102c66107e0565b005b3480156102d457600080fd5b50610130546102e9906001600160a01b031681565b6040516001600160a01b039091168152602001610261565b34801561030d57600080fd5b5061028161031c366004612172565b60009081526065602052604090206001015490565b34801561033d57600080fd5b506102c661034c3660046121a7565b610833565b34801561035d57600080fd5b506102c661036c366004612172565b61098c565b34801561037d57600080fd5b506102c661038c3660046121e0565b610bcc565b34801561039d57600080fd5b506102c66103ac3660046121e0565b610bf6565b3480156103bd57600080fd5b506102c66103cc36600461220c565b610c74565b6102c66103df36600461223d565b610d54565b3480156103f057600080fd5b50610281610e21565b34801561040557600080fd5b506102c66104143660046122ff565b610ed4565b34801561042557600080fd5b5061028161012e5481565b34801561043c57600080fd5b506102816101335481565b34801561045357600080fd5b5061028161046236600461220c565b610efa565b34801561047357600080fd5b5061028160008051602061279a83398151915281565b34801561049557600080fd5b506102816104a436600461220c565b610f24565b3480156104b557600080fd5b506102c66104c4366004612321565b610f58565b3480156104d557600080fd5b506102816104e4366004612172565b61012f6020526000908152604090205481565b34801561050357600080fd5b506102816301e1338081565b34801561051b57600080fd5b506102c661052a366004612379565b611150565b34801561053b57600080fd5b5061058e61054a36600461220c565b610134602052600090815260409020805460018201546002830154600384015460048501546005860154600687015460079097015495969495939492939192909188565b604080519889526020890197909752958701949094526060860192909252608085015260a084015260c083015260e082015261010001610261565b3480156105d557600080fd5b506102c66105e4366004612172565b6112eb565b3480156105f557600080fd5b506102556106043660046121e0565b611416565b34801561061557600080fd5b50610281600081565b34801561062a57600080fd5b50610131546102e9906001600160a01b031681565b34801561064b57600080fd5b5061028161065a36600461220c565b6001600160a01b03166000908152610134602052604090206002015490565b34801561068557600080fd5b506102816106943660046123a3565b611441565b3480156106a557600080fd5b506102c66106b4366004612172565b6115e0565b3480156106c557600080fd5b506102c66106d43660046121e0565b6115ff565b3480156106e557600080fd5b5061028162278d0081565b3480156106fc57600080fd5b506102c661070b3660046122ff565b611624565b34801561071c57600080fd5b506102816101325481565b34801561073357600080fd5b506102c661074236600461220c565b611650565b34801561075357600080fd5b5061028160008051602061273383398151915281565b34801561077557600080fd5b506102c66107843660046121a7565b61168c565b34801561079557600080fd5b506102c66107a4366004612172565b6116cd565b60006001600160e01b03198216637965db0b60e01b14806107da57506301ffc9a760e01b6001600160e01b03198316145b92915050565b33600090815261013460205260409020600381015442101561081d5760405162461bcd60e51b8152600401610814906123d6565b60405180910390fd5b61082b6301e1338042612430565b600390910155565b600260975414156108565760405162461bcd60e51b815260040161081490612448565b6002609755600080516020612713833981519152610873816116fb565b600082815261012f6020526040812054670de0b6b3a7640000906301e133809061089e90879061247f565b6108a8908861247f565b6108b2919061249e565b6108bc919061249e565b6001600160a01b038716600090815261013460205260408120600101805492935087929091906108ed9084906124c0565b90915550506001600160a01b038616600090815261013460205260408120600501805483929061091e908490612430565b90915550610948905033306109338489612430565b610130546001600160a01b0316929190611705565b604051428152859033907f2dc8e290002f06fc0085bbca9dfb8b415cf4d1178950c72ff9ee8f4d8878ee669060200160405180910390a35050600160975550505050565b600260975414156109af5760405162461bcd60e51b815260040161081490612448565b60026097553360009081526101346020526040902060038101544210156109e85760405162461bcd60e51b8152600401610814906123d6565b8054821115610a395760405162461bcd60e51b815260206004820152601c60248201527f575150656e73696f6e3a20416d6f756e7420697320696e76616c6964000000006044820152606401610814565b8054600090610a4733610f24565b610a51908561247f565b610a5b919061249e565b905080826006016000828254610a719190612430565b909155505061013354600090670de0b6b3a764000090610a91908661247f565b610a9b919061249e565b83546007850154919250600091610ab2908761247f565b610abc919061249e565b905084846000016000828254610ad291906124c0565b90915550508354610ae557600060038501555b80846007016000828254610af991906124c0565b90915550610b379050338284610b0f878a612430565b610b1991906124c0565b610b2391906124c0565b610130546001600160a01b03169190611776565b61013154610b52906001600160a01b0316610b238385612430565b604051428152859033907fadec52fcd1408589179b85e44b434374db078b4eaf793e7d1a1bb0ae4ecfeee59060200160405180910390a3604051428152839033907f987d620f307ff6b94d58743cb7a7509f24071586a77759b77c2d4e29f75a2f9a9060200160405180910390a350506001609755505050565b600082815260656020526040902060010154610be7816116fb565b610bf183836117a6565b505050565b6001600160a01b0381163314610c665760405162461bcd60e51b815260206004820152602f60248201527f416363657373436f6e74726f6c3a2063616e206f6e6c792072656e6f756e636560448201526e103937b632b9903337b91039b2b63360891b6064820152608401610814565b610c70828261182c565b5050565b306001600160a01b037f0000000000000000000000000000000000000000000000000000000000000000161415610cbd5760405162461bcd60e51b8152600401610814906124d7565b7f00000000000000000000000000000000000000000000000000000000000000006001600160a01b0316610d06600080516020612753833981519152546001600160a01b031690565b6001600160a01b031614610d2c5760405162461bcd60e51b815260040161081490612523565b610d3581611893565b60408051600080825260208201909252610d51918391906118ab565b50565b306001600160a01b037f0000000000000000000000000000000000000000000000000000000000000000161415610d9d5760405162461bcd60e51b8152600401610814906124d7565b7f00000000000000000000000000000000000000000000000000000000000000006001600160a01b0316610de6600080516020612753833981519152546001600160a01b031690565b6001600160a01b031614610e0c5760405162461bcd60e51b815260040161081490612523565b610e1582611893565b610c70828260016118ab565b6000306001600160a01b037f00000000000000000000000000000000000000000000000000000000000000001614610ec15760405162461bcd60e51b815260206004820152603860248201527f555550535570677261646561626c653a206d757374206e6f742062652063616c60448201527f6c6564207468726f7567682064656c656761746563616c6c00000000000000006064820152608401610814565b5060008051602061275383398151915290565b60008051602061279a833981519152610eec816116fb565b506101339190915561013255565b6001600160a01b038116600090815261013460205260408120600181015490546107da91906124c0565b6001600160a01b03811660009081526101346020526040812060068101546005820154610f5191906124c0565b9392505050565b600054610100900460ff1615808015610f785750600054600160ff909116105b80610f925750303b158015610f92575060005460ff166001145b610ff55760405162461bcd60e51b815260206004820152602e60248201527f496e697469616c697a61626c653a20636f6e747261637420697320616c72656160448201526d191e481a5b9a5d1a585b1a5e995960921b6064820152608401610814565b6000805460ff191660011790558015611018576000805461ff0019166101001790555b611020611a25565b611028611a4e565b611030611a25565b61103b600033611a7d565b61105360008051602061279a83398151915233611a7d565b61106b60008051602061273383398151915233611a7d565b61109160008051602061271383398151915260008051602061279a833981519152611a87565b6110b760008051602061273383398151915260008051602061279a833981519152611a87565b61012d87905561012e86905561013080546001600160a01b038088166001600160a01b0319928316179092556101318054928716929091169190911790556101328390556101338290558015611147576000805461ff0019169055604051600181527f7f26b83ff96e1f2b6a682f133852f6798a09c465da95921460cefb38474024989060200160405180910390a15b50505050505050565b600260975414156111735760405162461bcd60e51b815260040161081490612448565b60026097556001600160a01b038216600090815261013460205260409020600481015461120857426004820181905561012d546111af91612430565b6003820181905561012e546002830181905560006007840155604051918252906001600160a01b038516907fdf8570df385b2879e23de768d9f15a45925c9efdd5698f03f57ab6cab69cda8f9060200160405180910390a35b8181600001600082825461121c9190612430565b92505081905550670de0b6b3a764000062278d0042836003015461124091906124c0565b6101325461124e908661247f565b611258919061247f565b611262919061249e565b61126c919061249e565b81600701600082825461127f9190612430565b90915550506101305461129d906001600160a01b0316333085611705565b81836001600160a01b03167f74cf3d18d0ddca79038197ad0dd2c7fa5005ef61a5d1ed190e8a8a437e2fcf10426040516112d991815260200190565b60405180910390a35050600160975550565b670de0b6b3a76400008111156113435760405162461bcd60e51b815260206004820181905260248201527f575150656e73696f6e46756e643a20696e76616c6964206665652076616c75656044820152606401610814565b33600090815261013460205260409020600481015461137757426004820181905561012d5461137191612430565b60038201555b670de0b6b3a76400008211156113cf5760405162461bcd60e51b815260206004820152601c60248201527f575150656e73696f6e3a20496e76616c6964206665652076616c7565000000006044820152606401610814565b600281018290556003810154604051908152829033907fdf8570df385b2879e23de768d9f15a45925c9efdd5698f03f57ab6cab69cda8f9060200160405180910390a35050565b60009182526065602090815260408084206001600160a01b0393909316845291905290205460ff1690565b6000600260975414156114665760405162461bcd60e51b815260040161081490612448565b6002609755600080516020612713833981519152611483816116fb565b6001600160a01b0385166000908152610134602052604090206003015442106114ee5760405162461bcd60e51b815260206004820152601d60248201527f575150656e73696f6e3a2043726564697420756e617661696c61626c650000006044820152606401610814565b6001600160a01b038516600090815261013460205260408120600101805486929061151a908490612430565b909155505061013054611537906001600160a01b03163386611776565b604051428152849033907feae9cfbc77fdd40ca899f36b608256063b2bc9d8178b0220f7ad513e178d67309060200160405180910390a3600061157d846201518061247f565b6115879042612430565b6001600160a01b0387166000908152610134602052604090206003015490915081106115cf576001600160a01b038616600090815261013460205260409020600301546115d1565b805b60016097559695505050505050565b60008051602061279a8339815191526115f8816116fb565b5061012e55565b60008281526065602052604090206001015461161a816116fb565b610bf1838361182c565b60008051602061279a83398151915261163c816116fb565b50600091825261012f602052604090912055565b60008051602061279a833981519152611668816116fb565b5061013180546001600160a01b0319166001600160a01b0392909216919091179055565b60008051602061279a8339815191526116a4816116fb565b506001600160a01b03909316600090815261013460205260409020918255600382015560040155565b60008051602061279a8339815191526116e5816116fb565b5061012d55565b6001600160a01b03163b151590565b610d518133611ad2565b6040516001600160a01b03808516602483015283166044820152606481018290526117709085906323b872dd60e01b906084015b60408051601f198184030181529190526020810180516001600160e01b03166001600160e01b031990931692909217909152611b36565b50505050565b6040516001600160a01b038316602482015260448101829052610bf190849063a9059cbb60e01b90606401611739565b6117b08282611416565b610c705760008281526065602090815260408083206001600160a01b03851684529091529020805460ff191660011790556117e83390565b6001600160a01b0316816001600160a01b0316837f2f8788117e7eff1d82e926ec794901d17c78024a50270940304540a733656f0d60405160405180910390a45050565b6118368282611416565b15610c705760008281526065602090815260408083206001600160a01b0385168085529252808320805460ff1916905551339285917ff6391f5c32d9c69d2a47ea670b442974b53935d1edc7fd64eb21e047a839171b9190a45050565b600080516020612733833981519152610c70816116fb565b7f4910fdfa16fed3260ed0e7147f7cc6da11a60208b5b9406d12a635614ffd91435460ff16156118de57610bf183611c08565b826001600160a01b03166352d1902d6040518163ffffffff1660e01b815260040160206040518083038186803b15801561191757600080fd5b505afa925050508015611947575060408051601f3d908101601f191682019092526119449181019061256f565b60015b6119aa5760405162461bcd60e51b815260206004820152602e60248201527f45524331393637557067726164653a206e657720696d706c656d656e7461746960448201526d6f6e206973206e6f74205555505360901b6064820152608401610814565b6000805160206127538339815191528114611a195760405162461bcd60e51b815260206004820152602960248201527f45524331393637557067726164653a20756e737570706f727465642070726f786044820152681a58589b195555525160ba1b6064820152608401610814565b50610bf1838383611ca4565b600054610100900460ff16611a4c5760405162461bcd60e51b815260040161081490612588565b565b600054610100900460ff16611a755760405162461bcd60e51b815260040161081490612588565b611a4c611cc9565b610c7082826117a6565b600082815260656020526040808220600101805490849055905190918391839186917fbd79b86ffe0ab8e8776151514217cd7cacd52c909f66475c3af44e129f0b00ff9190a4505050565b611adc8282611416565b610c7057611af4816001600160a01b03166014611cf7565b611aff836020611cf7565b604051602001611b109291906125ff565b60408051601f198184030181529082905262461bcd60e51b825261081491600401612674565b6000611b8b826040518060400160405280602081526020017f5361666545524332303a206c6f772d6c6576656c2063616c6c206661696c6564815250856001600160a01b0316611e939092919063ffffffff16565b805190915015610bf15780806020019051810190611ba991906126a7565b610bf15760405162461bcd60e51b815260206004820152602a60248201527f5361666545524332303a204552433230206f7065726174696f6e20646964206e6044820152691bdd081cdd58d8d9595960b21b6064820152608401610814565b6001600160a01b0381163b611c755760405162461bcd60e51b815260206004820152602d60248201527f455243313936373a206e657720696d706c656d656e746174696f6e206973206e60448201526c1bdd08184818dbdb9d1c9858dd609a1b6064820152608401610814565b60008051602061275383398151915280546001600160a01b0319166001600160a01b0392909216919091179055565b611cad83611eaa565b600082511180611cba5750805b15610bf1576117708383611eea565b600054610100900460ff16611cf05760405162461bcd60e51b815260040161081490612588565b6001609755565b60606000611d0683600261247f565b611d11906002612430565b67ffffffffffffffff811115611d2957611d29612227565b6040519080825280601f01601f191660200182016040528015611d53576020820181803683370190505b509050600360fc1b81600081518110611d6e57611d6e6126c9565b60200101906001600160f81b031916908160001a905350600f60fb1b81600181518110611d9d57611d9d6126c9565b60200101906001600160f81b031916908160001a9053506000611dc184600261247f565b611dcc906001612430565b90505b6001811115611e44576f181899199a1a9b1b9c1cb0b131b232b360811b85600f1660108110611e0057611e006126c9565b1a60f81b828281518110611e1657611e166126c9565b60200101906001600160f81b031916908160001a90535060049490941c93611e3d816126df565b9050611dcf565b508315610f515760405162461bcd60e51b815260206004820181905260248201527f537472696e67733a20686578206c656e67746820696e73756666696369656e746044820152606401610814565b6060611ea28484600085611fde565b949350505050565b611eb381611c08565b6040516001600160a01b038216907fbc7cd75a20ee27fd9adebab32041f755214dbc6bffa90cc0225b39da2e5c2d3b90600090a250565b60606001600160a01b0383163b611f525760405162461bcd60e51b815260206004820152602660248201527f416464726573733a2064656c65676174652063616c6c20746f206e6f6e2d636f6044820152651b9d1c9858dd60d21b6064820152608401610814565b600080846001600160a01b031684604051611f6d91906126f6565b600060405180830381855af49150503d8060008114611fa8576040519150601f19603f3d011682016040523d82523d6000602084013e611fad565b606091505b5091509150611fd582826040518060600160405280602781526020016127736027913961210f565b95945050505050565b60608247101561203f5760405162461bcd60e51b815260206004820152602660248201527f416464726573733a20696e73756666696369656e742062616c616e636520666f6044820152651c8818d85b1b60d21b6064820152608401610814565b6001600160a01b0385163b6120965760405162461bcd60e51b815260206004820152601d60248201527f416464726573733a2063616c6c20746f206e6f6e2d636f6e74726163740000006044820152606401610814565b600080866001600160a01b031685876040516120b291906126f6565b60006040518083038185875af1925050503d80600081146120ef576040519150601f19603f3d011682016040523d82523d6000602084013e6120f4565b606091505b509150915061210482828661210f565b979650505050505050565b6060831561211e575081610f51565b82511561212e5782518084602001fd5b8160405162461bcd60e51b81526004016108149190612674565b60006020828403121561215a57600080fd5b81356001600160e01b031981168114610f5157600080fd5b60006020828403121561218457600080fd5b5035919050565b80356001600160a01b03811681146121a257600080fd5b919050565b600080600080608085870312156121bd57600080fd5b6121c68561218b565b966020860135965060408601359560600135945092505050565b600080604083850312156121f357600080fd5b823591506122036020840161218b565b90509250929050565b60006020828403121561221e57600080fd5b610f518261218b565b634e487b7160e01b600052604160045260246000fd5b6000806040838503121561225057600080fd5b6122598361218b565b9150602083013567ffffffffffffffff8082111561227657600080fd5b818501915085601f83011261228a57600080fd5b81358181111561229c5761229c612227565b604051601f8201601f19908116603f011681019083821181831017156122c4576122c4612227565b816040528281528860208487010111156122dd57600080fd5b8260208601602083013760006020848301015280955050505050509250929050565b6000806040838503121561231257600080fd5b50508035926020909101359150565b60008060008060008060c0878903121561233a57600080fd5b86359550602087013594506123516040880161218b565b935061235f6060880161218b565b92506080870135915060a087013590509295509295509295565b6000806040838503121561238c57600080fd5b6123958361218b565b946020939093013593505050565b6000806000606084860312156123b857600080fd5b6123c18461218b565b95602085013595506040909401359392505050565b60208082526024908201527f575150656e73696f6e3a204c6f636b2074696d65206973206e6f74206f766572604082015263081e595d60e21b606082015260800190565b634e487b7160e01b600052601160045260246000fd5b600082198211156124435761244361241a565b500190565b6020808252601f908201527f5265656e7472616e637947756172643a207265656e7472616e742063616c6c00604082015260600190565b60008160001904831182151516156124995761249961241a565b500290565b6000826124bb57634e487b7160e01b600052601260045260246000fd5b500490565b6000828210156124d2576124d261241a565b500390565b6020808252602c908201527f46756e6374696f6e206d7573742062652063616c6c6564207468726f7567682060408201526b19195b1959d85d1958d85b1b60a21b606082015260800190565b6020808252602c908201527f46756e6374696f6e206d7573742062652063616c6c6564207468726f7567682060408201526b6163746976652070726f787960a01b606082015260800190565b60006020828403121561258157600080fd5b5051919050565b6020808252602b908201527f496e697469616c697a61626c653a20636f6e7472616374206973206e6f74206960408201526a6e697469616c697a696e6760a81b606082015260800190565b60005b838110156125ee5781810151838201526020016125d6565b838111156117705750506000910152565b7f416363657373436f6e74726f6c3a206163636f756e74200000000000000000008152600083516126378160178501602088016125d3565b7001034b99036b4b9b9b4b733903937b6329607d1b60179184019182015283516126688160288401602088016125d3565b01602801949350505050565b60208152600082518060208401526126938160408501602087016125d3565b601f01601f19169190910160400192915050565b6000602082840312156126b957600080fd5b81518015158114610f5157600080fd5b634e487b7160e01b600052603260045260246000fd5b6000816126ee576126ee61241a565b506000190190565b600082516127088184602087016125d3565b919091019291505056fe2344277e405079ec07749d374ba0b5862a4e45a6a05ac889dbb4a991c6f9354d189ab7a9244df0848122154315af71fe140f3db0fe014031783b0946b8c9d2e3360894a13ba1a3210667c828492db98dca3e2076cc3735a920a3ca505d382bbc416464726573733a206c6f772d6c6576656c2064656c65676174652063616c6c206661696c6564a49807205ce4d355092ef5a8a18f56e8913cf4a201fbe287825b095693c21775a2646970667358221220bb17de89660e0ba16422cd3733f7d6b40a42b23d6338ffbb441354a87eafeb7064736f6c63430008090033",
  "linkReferences": {},
  "deployedLinkReferences": {}
}