{
  "_format": "hh-sol-artifact-1",
  "contractName": "WQBridge",
  "sourceName": "contracts/WQBridge.sol",
  "abi": [
    {
      "inputs": [],
      "stateMutability": "nonpayable",
      "type": "constructor"
    },
    {
      "anonymous": false,
      "inputs": [
        {
          "indexed": false,
          "internalType": "address",
          "name": "previousAdmin",
          "type": "address"
        },
        {
          "indexed": false,
          "internalType": "address",
          "name": "newAdmin",
          "type": "address"
        }
      ],
      "name": "AdminChanged",
      "type": "event"
    },
    {
      "anonymous": false,
      "inputs": [
        {
          "indexed": true,
          "internalType": "address",
          "name": "beacon",
          "type": "address"
        }
      ],
      "name": "BeaconUpgraded",
      "type": "event"
    },
    {
      "anonymous": false,
      "inputs": [
        {
          "indexed": false,
          "internalType": "address",
          "name": "account",
          "type": "address"
        }
      ],
      "name": "Paused",
      "type": "event"
    },
    {
      "anonymous": false,
      "inputs": [
        {
          "indexed": true,
          "internalType": "bytes32",
          "name": "role",
          "type": "bytes32"
        },
        {
          "indexed": true,
          "internalType": "bytes32",
          "name": "previousAdminRole",
          "type": "bytes32"
        },
        {
          "indexed": true,
          "internalType": "bytes32",
          "name": "newAdminRole",
          "type": "bytes32"
        }
      ],
      "name": "RoleAdminChanged",
      "type": "event"
    },
    {
      "anonymous": false,
      "inputs": [
        {
          "indexed": true,
          "internalType": "bytes32",
          "name": "role",
          "type": "bytes32"
        },
        {
          "indexed": true,
          "internalType": "address",
          "name": "account",
          "type": "address"
        },
        {
          "indexed": true,
          "internalType": "address",
          "name": "sender",
          "type": "address"
        }
      ],
      "name": "RoleGranted",
      "type": "event"
    },
    {
      "anonymous": false,
      "inputs": [
        {
          "indexed": true,
          "internalType": "bytes32",
          "name": "role",
          "type": "bytes32"
        },
        {
          "indexed": true,
          "internalType": "address",
          "name": "account",
          "type": "address"
        },
        {
          "indexed": true,
          "internalType": "address",
          "name": "sender",
          "type": "address"
        }
      ],
      "name": "RoleRevoked",
      "type": "event"
    },
    {
      "anonymous": false,
      "inputs": [
        {
          "indexed": false,
          "internalType": "uint256",
          "name": "timestamp",
          "type": "uint256"
        },
        {
          "indexed": true,
          "internalType": "address",
          "name": "sender",
          "type": "address"
        },
        {
          "indexed": false,
          "internalType": "address",
          "name": "recipient",
          "type": "address"
        },
        {
          "indexed": false,
          "internalType": "uint256",
          "name": "amount",
          "type": "uint256"
        },
        {
          "indexed": false,
          "internalType": "uint256",
          "name": "chainFrom",
          "type": "uint256"
        },
        {
          "indexed": false,
          "internalType": "uint256",
          "name": "chainTo",
          "type": "uint256"
        },
        {
          "indexed": false,
          "internalType": "uint256",
          "name": "nonce",
          "type": "uint256"
        },
        {
          "indexed": false,
          "internalType": "string",
          "name": "symbol",
          "type": "string"
        }
      ],
      "name": "SwapInitialized",
      "type": "event"
    },
    {
      "anonymous": false,
      "inputs": [
        {
          "indexed": false,
          "internalType": "uint256",
          "name": "timestamp",
          "type": "uint256"
        },
        {
          "indexed": true,
          "internalType": "address",
          "name": "sender",
          "type": "address"
        },
        {
          "indexed": false,
          "internalType": "address",
          "name": "recipient",
          "type": "address"
        },
        {
          "indexed": false,
          "internalType": "uint256",
          "name": "amount",
          "type": "uint256"
        },
        {
          "indexed": false,
          "internalType": "uint256",
          "name": "chainFrom",
          "type": "uint256"
        },
        {
          "indexed": false,
          "internalType": "uint256",
          "name": "chainTo",
          "type": "uint256"
        },
        {
          "indexed": false,
          "internalType": "uint256",
          "name": "nonce",
          "type": "uint256"
        },
        {
          "indexed": false,
          "internalType": "string",
          "name": "symbol",
          "type": "string"
        }
      ],
      "name": "SwapRedeemed",
      "type": "event"
    },
    {
      "anonymous": false,
      "inputs": [
        {
          "indexed": false,
          "internalType": "address",
          "name": "token",
          "type": "address"
        },
        {
          "indexed": false,
          "internalType": "address",
          "name": "recipient",
          "type": "address"
        },
        {
          "indexed": false,
          "internalType": "uint256",
          "name": "amount",
          "type": "uint256"
        }
      ],
      "name": "Transferred",
      "type": "event"
    },
    {
      "anonymous": false,
      "inputs": [
        {
          "indexed": false,
          "internalType": "address",
          "name": "account",
          "type": "address"
        }
      ],
      "name": "Unpaused",
      "type": "event"
    },
    {
      "anonymous": false,
      "inputs": [
        {
          "indexed": true,
          "internalType": "address",
          "name": "implementation",
          "type": "address"
        }
      ],
      "name": "Upgraded",
      "type": "event"
    },
    {
      "inputs": [],
      "name": "ADMIN_ROLE",
      "outputs": [
        {
          "internalType": "bytes32",
          "name": "",
          "type": "bytes32"
        }
      ],
      "stateMutability": "view",
      "type": "function"
    },
    {
      "inputs": [],
      "name": "DEFAULT_ADMIN_ROLE",
      "outputs": [
        {
          "internalType": "bytes32",
          "name": "",
          "type": "bytes32"
        }
      ],
      "stateMutability": "view",
      "type": "function"
    },
    {
      "inputs": [],
      "name": "UPGRADER_ROLE",
      "outputs": [
        {
          "internalType": "bytes32",
          "name": "",
          "type": "bytes32"
        }
      ],
      "stateMutability": "view",
      "type": "function"
    },
    {
      "inputs": [],
      "name": "VALIDATOR_ROLE",
      "outputs": [
        {
          "internalType": "bytes32",
          "name": "",
          "type": "bytes32"
        }
      ],
      "stateMutability": "view",
      "type": "function"
    },
    {
      "inputs": [],
      "name": "chainId",
      "outputs": [
        {
          "internalType": "uint256",
          "name": "",
          "type": "uint256"
        }
      ],
      "stateMutability": "view",
      "type": "function"
    },
    {
      "inputs": [
        {
          "internalType": "uint256",
          "name": "",
          "type": "uint256"
        }
      ],
      "name": "chains",
      "outputs": [
        {
          "internalType": "bool",
          "name": "",
          "type": "bool"
        }
      ],
      "stateMutability": "view",
      "type": "function"
    },
    {
      "inputs": [
        {
          "internalType": "bytes32",
          "name": "role",
          "type": "bytes32"
        }
      ],
      "name": "getRoleAdmin",
      "outputs": [
        {
          "internalType": "bytes32",
          "name": "",
          "type": "bytes32"
        }
      ],
      "stateMutability": "view",
      "type": "function"
    },
    {
      "inputs": [
        {
          "internalType": "bytes32",
          "name": "message",
          "type": "bytes32"
        }
      ],
      "name": "getSwapState",
      "outputs": [
        {
          "internalType": "enum WQBridge.State",
          "name": "state",
          "type": "uint8"
        }
      ],
      "stateMutability": "view",
      "type": "function"
    },
    {
      "inputs": [
        {
          "internalType": "bytes32",
          "name": "role",
          "type": "bytes32"
        },
        {
          "internalType": "address",
          "name": "account",
          "type": "address"
        }
      ],
      "name": "grantRole",
      "outputs": [],
      "stateMutability": "nonpayable",
      "type": "function"
    },
    {
      "inputs": [
        {
          "internalType": "bytes32",
          "name": "role",
          "type": "bytes32"
        },
        {
          "internalType": "address",
          "name": "account",
          "type": "address"
        }
      ],
      "name": "hasRole",
      "outputs": [
        {
          "internalType": "bool",
          "name": "",
          "type": "bool"
        }
      ],
      "stateMutability": "view",
      "type": "function"
    },
    {
      "inputs": [
        {
          "internalType": "uint256",
          "name": "_chainId",
          "type": "uint256"
        },
        {
          "internalType": "address payable",
          "name": "_pool",
          "type": "address"
        },
        {
          "internalType": "address",
          "name": "validator",
          "type": "address"
        }
      ],
      "name": "initialize",
      "outputs": [],
      "stateMutability": "nonpayable",
      "type": "function"
    },
    {
      "inputs": [],
      "name": "pause",
      "outputs": [],
      "stateMutability": "nonpayable",
      "type": "function"
    },
    {
      "inputs": [],
      "name": "paused",
      "outputs": [
        {
          "internalType": "bool",
          "name": "",
          "type": "bool"
        }
      ],
      "stateMutability": "view",
      "type": "function"
    },
    {
      "inputs": [],
      "name": "pool",
      "outputs": [
        {
          "internalType": "address payable",
          "name": "",
          "type": "address"
        }
      ],
      "stateMutability": "view",
      "type": "function"
    },
    {
      "inputs": [],
      "name": "proxiableUUID",
      "outputs": [
        {
          "internalType": "bytes32",
          "name": "",
          "type": "bytes32"
        }
      ],
      "stateMutability": "view",
      "type": "function"
    },
    {
      "inputs": [
        {
          "internalType": "uint256",
          "name": "nonce",
          "type": "uint256"
        },
        {
          "internalType": "uint256",
          "name": "chainFrom",
          "type": "uint256"
        },
        {
          "internalType": "uint256",
          "name": "amount",
          "type": "uint256"
        },
        {
          "internalType": "address payable",
          "name": "recipient",
          "type": "address"
        },
        {
          "internalType": "uint8",
          "name": "v",
          "type": "uint8"
        },
        {
          "internalType": "bytes32",
          "name": "r",
          "type": "bytes32"
        },
        {
          "internalType": "bytes32",
          "name": "s",
          "type": "bytes32"
        },
        {
          "internalType": "string",
          "name": "symbol",
          "type": "string"
        }
      ],
      "name": "redeem",
      "outputs": [],
      "stateMutability": "nonpayable",
      "type": "function"
    },
    {
      "inputs": [
        {
          "internalType": "address payable",
          "name": "recipient",
          "type": "address"
        },
        {
          "internalType": "uint256",
          "name": "amount",
          "type": "uint256"
        },
        {
          "internalType": "address",
          "name": "token",
          "type": "address"
        }
      ],
      "name": "removeLiquidity",
      "outputs": [],
      "stateMutability": "nonpayable",
      "type": "function"
    },
    {
      "inputs": [
        {
          "internalType": "bytes32",
          "name": "role",
          "type": "bytes32"
        },
        {
          "internalType": "address",
          "name": "account",
          "type": "address"
        }
      ],
      "name": "renounceRole",
      "outputs": [],
      "stateMutability": "nonpayable",
      "type": "function"
    },
    {
      "inputs": [
        {
          "internalType": "bytes32",
          "name": "role",
          "type": "bytes32"
        },
        {
          "internalType": "address",
          "name": "account",
          "type": "address"
        }
      ],
      "name": "revokeRole",
      "outputs": [],
      "stateMutability": "nonpayable",
      "type": "function"
    },
    {
      "inputs": [
        {
          "internalType": "bytes4",
          "name": "interfaceId",
          "type": "bytes4"
        }
      ],
      "name": "supportsInterface",
      "outputs": [
        {
          "internalType": "bool",
          "name": "",
          "type": "bool"
        }
      ],
      "stateMutability": "view",
      "type": "function"
    },
    {
      "inputs": [
        {
          "internalType": "uint256",
          "name": "nonce",
          "type": "uint256"
        },
        {
          "internalType": "uint256",
          "name": "chainTo",
          "type": "uint256"
        },
        {
          "internalType": "uint256",
          "name": "amount",
          "type": "uint256"
        },
        {
          "internalType": "address",
          "name": "recipient",
          "type": "address"
        },
        {
          "internalType": "string",
          "name": "symbol",
          "type": "string"
        }
      ],
      "name": "swap",
      "outputs": [],
      "stateMutability": "payable",
      "type": "function"
    },
    {
      "inputs": [
        {
          "internalType": "bytes32",
          "name": "",
          "type": "bytes32"
        }
      ],
      "name": "swaps",
      "outputs": [
        {
          "internalType": "uint256",
          "name": "nonce",
          "type": "uint256"
        },
        {
          "internalType": "enum WQBridge.State",
          "name": "state",
          "type": "uint8"
        }
      ],
      "stateMutability": "view",
      "type": "function"
    },
    {
      "inputs": [
        {
          "internalType": "string",
          "name": "",
          "type": "string"
        }
      ],
      "name": "tokens",
      "outputs": [
        {
          "internalType": "address",
          "name": "token",
          "type": "address"
        },
        {
          "internalType": "bool",
          "name": "enabled",
          "type": "bool"
        },
        {
          "internalType": "bool",
          "name": "native",
          "type": "bool"
        },
        {
          "internalType": "bool",
          "name": "lockable",
          "type": "bool"
        }
      ],
      "stateMutability": "view",
      "type": "function"
    },
    {
      "inputs": [],
      "name": "unpause",
      "outputs": [],
      "stateMutability": "nonpayable",
      "type": "function"
    },
    {
      "inputs": [
        {
          "internalType": "uint256",
          "name": "_chainId",
          "type": "uint256"
        },
        {
          "internalType": "bool",
          "name": "enabled",
          "type": "bool"
        }
      ],
      "name": "updateChain",
      "outputs": [],
      "stateMutability": "nonpayable",
      "type": "function"
    },
    {
      "inputs": [
        {
          "internalType": "address payable",
          "name": "_pool",
          "type": "address"
        }
      ],
      "name": "updatePool",
      "outputs": [],
      "stateMutability": "nonpayable",
      "type": "function"
    },
    {
      "inputs": [
        {
          "internalType": "address",
          "name": "token",
          "type": "address"
        },
        {
          "internalType": "bool",
          "name": "enabled",
          "type": "bool"
        },
        {
          "internalType": "bool",
          "name": "native",
          "type": "bool"
        },
        {
          "internalType": "bool",
          "name": "lockable",
          "type": "bool"
        },
        {
          "internalType": "string",
          "name": "symbol",
          "type": "string"
        }
      ],
      "name": "updateToken",
      "outputs": [],
      "stateMutability": "nonpayable",
      "type": "function"
    },
    {
      "inputs": [
        {
          "internalType": "address",
          "name": "newImplementation",
          "type": "address"
        }
      ],
      "name": "upgradeTo",
      "outputs": [],
      "stateMutability": "nonpayable",
      "type": "function"
    },
    {
      "inputs": [
        {
          "internalType": "address",
          "name": "newImplementation",
          "type": "address"
        },
        {
          "internalType": "bytes",
          "name": "data",
          "type": "bytes"
        }
      ],
      "name": "upgradeToAndCall",
      "outputs": [],
      "stateMutability": "payable",
      "type": "function"
    }
  ],
  "bytecode": "0x60a0604052306080523480156200001557600080fd5b50600054610100900460ff16620000335760005460ff16156200003d565b6200003d620000e2565b620000a55760405162461bcd60e51b815260206004820152602e60248201527f496e697469616c697a61626c653a20636f6e747261637420697320616c72656160448201526d191e481a5b9a5d1a585b1a5e995960921b606482015260840160405180910390fd5b600054610100900460ff16158015620000c8576000805461ffff19166101011790555b8015620000db576000805461ff00191690555b506200010f565b6000620000fa306200010060201b6200178e1760201c565b15905090565b6001600160a01b03163b151590565b608051612fff6200014760003960008181610722015281816107620152818161092a0152818161096a01526109f90152612fff6000f3fe6080604052600436106101c25760003560e01c806375b238fc116100f7578063b4988fd011610095578063dbe77e5411610064578063dbe77e541461058a578063e370fc7f146105aa578063eb84e7f2146105ca578063f72c0d8b1461061057600080fd5b8063b4988fd0146104e7578063c49baebe14610507578063d547741f14610529578063db9b6d061461054957600080fd5b806391d14854116100d157806391d148541461047b5780639a8a05921461049b5780639e1dcc78146104b2578063a217fddf146104d257600080fd5b806375b238fc146104245780637b46c54f146104465780638456cb591461046657600080fd5b80633f4ba83a1161016457806352d1902d1161013e57806352d1902d146103b3578063550325b5146103c85780635c975abb146103f957806368ea06961461041157600080fd5b80633f4ba83a1461036b57806347fdbc8e146103805780634f1ef286146103a057600080fd5b8063248a9ca3116101a0578063248a9ca3146102cb5780632f2ff15d1461030957806336568abe1461032b5780633659cfe61461034b57600080fd5b806301ffc9a7146101c757806304c2320b146101fc57806316f0115b14610292575b600080fd5b3480156101d357600080fd5b506101e76101e23660046126bb565b610632565b60405190151581526020015b60405180910390f35b34801561020857600080fd5b50610260610217366004612791565b805180820160209081018051610130825292820191909301209152546001600160a01b0381169060ff600160a01b8204811691600160a81b8104821691600160b01b9091041684565b604080516001600160a01b039095168552921515602085015290151591830191909152151560608201526080016101f3565b34801561029e57600080fd5b5061012e546102b3906001600160a01b031681565b6040516001600160a01b0390911681526020016101f3565b3480156102d757600080fd5b506102fb6102e63660046127c6565b60009081526065602052604090206001015490565b6040519081526020016101f3565b34801561031557600080fd5b506103296103243660046127f4565b610669565b005b34801561033757600080fd5b506103296103463660046127f4565b610694565b34801561035757600080fd5b50610329610366366004612824565b610717565b34801561037757600080fd5b506103296107f7565b34801561038c57600080fd5b5061032961039b366004612841565b610818565b6103296103ae366004612883565b61091f565b3480156103bf57600080fd5b506102fb6109ec565b3480156103d457600080fd5b506101e76103e33660046127c6565b61012f6020526000908152604090205460ff1681565b34801561040557600080fd5b5060975460ff166101e7565b61032961041f3660046128e7565b610a9f565b34801561043057600080fd5b506102fb600080516020612faa83398151915281565b34801561045257600080fd5b50610329610461366004612824565b610e3d565b34801561047257600080fd5b50610329610ed0565b34801561048757600080fd5b506101e76104963660046127f4565b610ef1565b3480156104a757600080fd5b506102fb61012d5481565b3480156104be57600080fd5b506103296104cd366004612962565b610f1c565b3480156104de57600080fd5b506102fb600081565b3480156104f357600080fd5b506103296105023660046129b5565b61106a565b34801561051357600080fd5b506102fb600080516020612f2383398151915281565b34801561053557600080fd5b506103296105443660046127f4565b6111f7565b34801561055557600080fd5b5061057d6105643660046127c6565b6000908152610131602052604090206001015460ff1690565b6040516101f39190612a24565b34801561059657600080fd5b506103296105a5366004612a32565b61121d565b3480156105b657600080fd5b506103296105c5366004612a57565b611258565b3480156105d657600080fd5b506106026105e53660046127c6565b610131602052600090815260409020805460019091015460ff1682565b6040516101f3929190612af0565b34801561061c57600080fd5b506102fb600080516020612f4383398151915281565b60006001600160e01b03198216637965db0b60e01b148061066357506301ffc9a760e01b6001600160e01b03198316145b92915050565b600082815260656020526040902060010154610685813361179d565b61068f8383611801565b505050565b6001600160a01b03811633146107095760405162461bcd60e51b815260206004820152602f60248201527f416363657373436f6e74726f6c3a2063616e206f6e6c792072656e6f756e636560448201526e103937b632b9903337b91039b2b63360891b60648201526084015b60405180910390fd5b6107138282611887565b5050565b306001600160a01b037f00000000000000000000000000000000000000000000000000000000000000001614156107605760405162461bcd60e51b815260040161070090612b04565b7f00000000000000000000000000000000000000000000000000000000000000006001600160a01b03166107a9600080516020612f63833981519152546001600160a01b031690565b6001600160a01b0316146107cf5760405162461bcd60e51b815260040161070090612b50565b6107d8816118ee565b604080516000808252602082019092526107f491839190611907565b50565b600080516020612faa833981519152610810813361179d565b6107f4611a81565b600080516020612faa833981519152610831813361179d565b6001600160a01b0384166108935760405162461bcd60e51b815260206004820152602360248201527f57514272696467653a20696e76616c696420726563697069656e74206164647260448201526265737360e81b6064820152608401610700565b6001600160a01b038216156108bb576108b66001600160a01b0383168585611b14565b6108ce565b6108ce6001600160a01b03851684611b77565b604080516001600160a01b038085168252861660208201529081018490527fd1ba4ac2e2a11b5101f6cb4d978f514a155b421e8ec396d2d9abaf0bb02917ee9060600160405180910390a150505050565b306001600160a01b037f00000000000000000000000000000000000000000000000000000000000000001614156109685760405162461bcd60e51b815260040161070090612b04565b7f00000000000000000000000000000000000000000000000000000000000000006001600160a01b03166109b1600080516020612f63833981519152546001600160a01b031690565b6001600160a01b0316146109d75760405162461bcd60e51b815260040161070090612b50565b6109e0826118ee565b61071382826001611907565b6000306001600160a01b037f00000000000000000000000000000000000000000000000000000000000000001614610a8c5760405162461bcd60e51b815260206004820152603860248201527f555550535570677261646561626c653a206d757374206e6f742062652063616c60448201527f6c6564207468726f7567682064656c656761746563616c6c00000000000000006064820152608401610700565b50600080516020612f6383398151915290565b60975460ff1615610ac25760405162461bcd60e51b815260040161070090612b9c565b61012d54841415610b215760405162461bcd60e51b8152602060048201526024808201527f576f726b5175657374204272696467653a20496e76616c696420636861696e546044820152631bc81a5960e21b6064820152608401610700565b600084815261012f602052604090205460ff16610b945760405162461bcd60e51b815260206004820152602b60248201527f576f726b5175657374204272696467653a20436861696e546f2049442069732060448201526a1b9bdd08185b1b1bddd95960aa1b6064820152608401610700565b600061013082604051610ba79190612bf2565b908152604051908190036020019020805490915060ff600160a01b90910416610be25760405162461bcd60e51b815260040161070090612c0e565b600086858561012d548987604051602001610c0296959493929190612c6b565b60408051601f1981840301815291905280516020909101209050600080828152610131602052604090206001015460ff166002811115610c4457610c446129ec565b14610c615760405162461bcd60e51b815260040161070090612cbf565b60408051808201825288815260016020808301828152600086815261013190925293902082518155925183820180549394939192909160ff191690836002811115610cae57610cae6129ec565b0217905550508254600160b01b900460ff16159050610ceb5761012e548254610ce6916001600160a01b039182169133911688611c90565b610dec565b8154600160a81b900460ff1615610d8857843414610d715760405162461bcd60e51b815260206004820152603f60248201527f576f726b5175657374204272696467653a20416d6f756e742076616c7565206960448201527f73206e6f7420657175616c20746f207472616e7366657265642066756e6473006064820152608401610700565b61012e54610ce6906001600160a01b031686611b77565b8154604051632770a7eb60e21b8152336004820152602481018790526001600160a01b0390911690639dc29fac90604401600060405180830381600087803b158015610dd357600080fd5b505af1158015610de7573d6000803e3d6000fd5b505050505b61012d5460405133917fea842d70934a7ab216e045502125aefb31c2d7f0b93118ede85eef7b9d643fd891610e2c91429189918b918d908f908c90612d53565b60405180910390a250505050505050565b600080516020612faa833981519152610e56813361179d565b6001600160a01b038216610eac5760405162461bcd60e51b815260206004820152601e60248201527f57514272696467653a20696e76616c696420706f6f6c206164647265737300006044820152606401610700565b5061012e80546001600160a01b0319166001600160a01b0392909216919091179055565b600080516020612faa833981519152610ee9813361179d565b6107f4611cc8565b60009182526065602090815260408084206001600160a01b0393909316845291905290205460ff1690565b600080516020612faa833981519152610f35813361179d565b6000825111610fa55760405162461bcd60e51b815260206004820152603660248201527f576f726b5175657374204272696467653a2053796d626f6c206c656e6774682060448201527506d7573742062652067726561746572207468616e20360541b6064820152608401610700565b6040518060800160405280876001600160a01b031681526020018615158152602001851515815260200184151581525061013083604051610fe69190612bf2565b90815260408051602092819003830190208351815493850151928501516060909501516001600160a01b039091166001600160a81b031990941693909317600160a01b921515929092029190911761ffff60a81b1916600160a81b9315159390930260ff60b01b191692909217600160b01b91151591909102179055505050505050565b600054610100900460ff166110855760005460ff1615611089565b303b155b6110ec5760405162461bcd60e51b815260206004820152602e60248201527f496e697469616c697a61626c653a20636f6e747261637420697320616c72656160448201526d191e481a5b9a5d1a585b1a5e995960921b6064820152608401610700565b600054610100900460ff1615801561110e576000805461ffff19166101011790555b611116611d20565b61111e611d49565b611129600033611d78565b611141600080516020612faa83398151915233611d78565b611159600080516020612f4383398151915233611d78565b61117f600080516020612f43833981519152600080516020612faa833981519152611d82565b6111a5600080516020612f23833981519152600080516020612faa833981519152611d82565b6111bd600080516020612f2383398151915283611d78565b61012d84905561012e80546001600160a01b0319166001600160a01b03851617905580156111f1576000805461ff00191690555b50505050565b600082815260656020526040902060010154611213813361179d565b61068f8383611887565b600080516020612faa833981519152611236813361179d565b50600091825261012f6020526040909120805460ff1916911515919091179055565b60975460ff161561127b5760405162461bcd60e51b815260040161070090612b9c565b61012d548714156112dd5760405162461bcd60e51b815260206004820152602660248201527f576f726b5175657374204272696467653a20496e76616c696420636861696e466044820152651c9bdb48125160d21b6064820152608401610700565b600087815261012f602052604090205460ff166113525760405162461bcd60e51b815260206004820152602d60248201527f576f726b5175657374204272696467653a20636861696e46726f6d204944206960448201526c1cc81b9bdd08185b1b1bddd959609a1b6064820152608401610700565b610130816040516113639190612bf2565b9081526040519081900360200190205460ff600160a01b9091041661139a5760405162461bcd60e51b815260040161070090612c0e565b60008887878a61012d54866040516020016113ba96959493929190612c6b565b60408051601f1981840301815291905280516020909101209050600080828152610131602052604090206001015460ff1660028111156113fc576113fc6129ec565b146114195760405162461bcd60e51b815260040161070090612cbf565b611490600080516020612f23833981519152610496878787611488876040517f19457468657265756d205369676e6564204d6573736167653a0a3332000000006020820152603c8101829052600090605c01604051602081830303815290604052805190602001209050919050565b929190611dcd565b6115105760405162461bcd60e51b8152602060048201526044602482018190527f576f726b5175657374204272696467653a2056616c696461746f722061646472908201527f65737320697320696e76616c6964206f72207369676e61747572652069732066606482015263185ad95960e21b608482015260a401610700565b604080518082019091528981526020810160029052600082815261013160209081526040909120825181559082015160018083018054909160ff1990911690836002811115611561576115616129ec565b02179055509050506101308260405161157a9190612bf2565b9081526040519081900360200190205460ff600160b01b90910416156116415761012e546040516001600160a01b039091169063dbba0f019088908a90610130906115c6908890612bf2565b908152604051908190036020018120546001600160e01b031960e086901b1682526001600160a01b0393841660048301526024820192909252911660448201526064015b600060405180830381600087803b15801561162457600080fd5b505af1158015611638573d6000803e3d6000fd5b50505050611733565b610130826040516116529190612bf2565b9081526040519081900360200190205460ff600160a81b90910416156116b35761012e5460405163dbba0f0160e01b81526001600160a01b038881166004830152602482018a9052600060448301529091169063dbba0f019060640161160a565b610130826040516116c49190612bf2565b908152604051908190036020018120546340c10f1960e01b82526001600160a01b038881166004840152602483018a905216906340c10f1990604401600060405180830381600087803b15801561171a57600080fd5b505af115801561172e573d6000803e3d6000fd5b505050505b336001600160a01b03167fb447227a69ee34b11b81842cb6c883a574cacec7fde4c8e0817d35802c5df21a42888a8c61012d548f8960405161177b9796959493929190612d53565b60405180910390a2505050505050505050565b6001600160a01b03163b151590565b6117a78282610ef1565b610713576117bf816001600160a01b03166014611df5565b6117ca836020611df5565b6040516020016117db929190612d9f565b60408051601f198184030181529082905262461bcd60e51b825261070091600401612e14565b61180b8282610ef1565b6107135760008281526065602090815260408083206001600160a01b03851684529091529020805460ff191660011790556118433390565b6001600160a01b0316816001600160a01b0316837f2f8788117e7eff1d82e926ec794901d17c78024a50270940304540a733656f0d60405160405180910390a45050565b6118918282610ef1565b156107135760008281526065602090815260408083206001600160a01b0385168085529252808320805460ff1916905551339285917ff6391f5c32d9c69d2a47ea670b442974b53935d1edc7fd64eb21e047a839171b9190a45050565b600080516020612f43833981519152610713813361179d565b7f4910fdfa16fed3260ed0e7147f7cc6da11a60208b5b9406d12a635614ffd91435460ff161561193a5761068f83611f98565b826001600160a01b03166352d1902d6040518163ffffffff1660e01b815260040160206040518083038186803b15801561197357600080fd5b505afa9250505080156119a3575060408051601f3d908101601f191682019092526119a091810190612e27565b60015b611a065760405162461bcd60e51b815260206004820152602e60248201527f45524331393637557067726164653a206e657720696d706c656d656e7461746960448201526d6f6e206973206e6f74205555505360901b6064820152608401610700565b600080516020612f638339815191528114611a755760405162461bcd60e51b815260206004820152602960248201527f45524331393637557067726164653a20756e737570706f727465642070726f786044820152681a58589b195555525160ba1b6064820152608401610700565b5061068f838383612034565b60975460ff16611aca5760405162461bcd60e51b815260206004820152601460248201527314185d5cd8589b194e881b9bdd081c185d5cd95960621b6044820152606401610700565b6097805460ff191690557f5db9ee0a495bf2e6ff9c91a7834c1ba4fdd244a5e8aa4e537bd38aeae4b073aa335b6040516001600160a01b03909116815260200160405180910390a1565b6040516001600160a01b03831660248201526044810182905261068f90849063a9059cbb60e01b906064015b60408051601f198184030181529190526020810180516001600160e01b03166001600160e01b031990931692909217909152612059565b80471015611bc75760405162461bcd60e51b815260206004820152601d60248201527f416464726573733a20696e73756666696369656e742062616c616e63650000006044820152606401610700565b6000826001600160a01b03168260405160006040518083038185875af1925050503d8060008114611c14576040519150601f19603f3d011682016040523d82523d6000602084013e611c19565b606091505b505090508061068f5760405162461bcd60e51b815260206004820152603a60248201527f416464726573733a20756e61626c6520746f2073656e642076616c75652c207260448201527f6563697069656e74206d617920686176652072657665727465640000000000006064820152608401610700565b6040516001600160a01b03808516602483015283166044820152606481018290526111f19085906323b872dd60e01b90608401611b40565b60975460ff1615611ceb5760405162461bcd60e51b815260040161070090612b9c565b6097805460ff191660011790557f62e78cea01bee320cd4e420270b5ea74000d11b0c9f74754ebdbfc544b05a258611af73390565b600054610100900460ff16611d475760405162461bcd60e51b815260040161070090612e40565b565b600054610100900460ff16611d705760405162461bcd60e51b815260040161070090612e40565b611d4761212b565b6107138282611801565b600082815260656020526040808220600101805490849055905190918391839186917fbd79b86ffe0ab8e8776151514217cd7cacd52c909f66475c3af44e129f0b00ff9190a4505050565b6000806000611dde8787878761215e565b91509150611deb8161224b565b5095945050505050565b60606000611e04836002612ea1565b611e0f906002612ec0565b67ffffffffffffffff811115611e2757611e276126e5565b6040519080825280601f01601f191660200182016040528015611e51576020820181803683370190505b509050600360fc1b81600081518110611e6c57611e6c612ed8565b60200101906001600160f81b031916908160001a905350600f60fb1b81600181518110611e9b57611e9b612ed8565b60200101906001600160f81b031916908160001a9053506000611ebf846002612ea1565b611eca906001612ec0565b90505b6001811115611f42576f181899199a1a9b1b9c1cb0b131b232b360811b85600f1660108110611efe57611efe612ed8565b1a60f81b828281518110611f1457611f14612ed8565b60200101906001600160f81b031916908160001a90535060049490941c93611f3b81612eee565b9050611ecd565b508315611f915760405162461bcd60e51b815260206004820181905260248201527f537472696e67733a20686578206c656e67746820696e73756666696369656e746044820152606401610700565b9392505050565b6001600160a01b0381163b6120055760405162461bcd60e51b815260206004820152602d60248201527f455243313936373a206e657720696d706c656d656e746174696f6e206973206e60448201526c1bdd08184818dbdb9d1c9858dd609a1b6064820152608401610700565b600080516020612f6383398151915280546001600160a01b0319166001600160a01b0392909216919091179055565b61203d83612406565b60008251118061204a5750805b1561068f576111f18383612446565b60006120ae826040518060400160405280602081526020017f5361666545524332303a206c6f772d6c6576656c2063616c6c206661696c6564815250856001600160a01b031661253a9092919063ffffffff16565b80519091501561068f57808060200190518101906120cc9190612f05565b61068f5760405162461bcd60e51b815260206004820152602a60248201527f5361666545524332303a204552433230206f7065726174696f6e20646964206e6044820152691bdd081cdd58d8d9595960b21b6064820152608401610700565b600054610100900460ff166121525760405162461bcd60e51b815260040161070090612e40565b6097805460ff19169055565b6000807f7fffffffffffffffffffffffffffffff5d576e7357a4501ddfe92f46681b20a08311156121955750600090506003612242565b8460ff16601b141580156121ad57508460ff16601c14155b156121be5750600090506004612242565b6040805160008082526020820180845289905260ff881692820192909252606081018690526080810185905260019060a0016020604051602081039080840390855afa158015612212573d6000803e3d6000fd5b5050604051601f1901519150506001600160a01b03811661223b57600060019250925050612242565b9150600090505b94509492505050565b600081600481111561225f5761225f6129ec565b14156122685750565b600181600481111561227c5761227c6129ec565b14156122ca5760405162461bcd60e51b815260206004820152601860248201527f45434453413a20696e76616c6964207369676e617475726500000000000000006044820152606401610700565b60028160048111156122de576122de6129ec565b141561232c5760405162461bcd60e51b815260206004820152601f60248201527f45434453413a20696e76616c6964207369676e6174757265206c656e677468006044820152606401610700565b6003816004811115612340576123406129ec565b14156123995760405162461bcd60e51b815260206004820152602260248201527f45434453413a20696e76616c6964207369676e6174757265202773272076616c604482015261756560f01b6064820152608401610700565b60048160048111156123ad576123ad6129ec565b14156107f45760405162461bcd60e51b815260206004820152602260248201527f45434453413a20696e76616c6964207369676e6174757265202776272076616c604482015261756560f01b6064820152608401610700565b61240f81611f98565b6040516001600160a01b038216907fbc7cd75a20ee27fd9adebab32041f755214dbc6bffa90cc0225b39da2e5c2d3b90600090a250565b60606001600160a01b0383163b6124ae5760405162461bcd60e51b815260206004820152602660248201527f416464726573733a2064656c65676174652063616c6c20746f206e6f6e2d636f6044820152651b9d1c9858dd60d21b6064820152608401610700565b600080846001600160a01b0316846040516124c99190612bf2565b600060405180830381855af49150503d8060008114612504576040519150601f19603f3d011682016040523d82523d6000602084013e612509565b606091505b50915091506125318282604051806060016040528060278152602001612f8360279139612551565b95945050505050565b6060612549848460008561258a565b949350505050565b60608315612560575081611f91565b8251156125705782518084602001fd5b8160405162461bcd60e51b81526004016107009190612e14565b6060824710156125eb5760405162461bcd60e51b815260206004820152602660248201527f416464726573733a20696e73756666696369656e742062616c616e636520666f6044820152651c8818d85b1b60d21b6064820152608401610700565b6001600160a01b0385163b6126425760405162461bcd60e51b815260206004820152601d60248201527f416464726573733a2063616c6c20746f206e6f6e2d636f6e74726163740000006044820152606401610700565b600080866001600160a01b0316858760405161265e9190612bf2565b60006040518083038185875af1925050503d806000811461269b576040519150601f19603f3d011682016040523d82523d6000602084013e6126a0565b606091505b50915091506126b0828286612551565b979650505050505050565b6000602082840312156126cd57600080fd5b81356001600160e01b031981168114611f9157600080fd5b634e487b7160e01b600052604160045260246000fd5b600067ffffffffffffffff80841115612716576127166126e5565b604051601f8501601f19908116603f0116810190828211818310171561273e5761273e6126e5565b8160405280935085815286868601111561275757600080fd5b858560208301376000602087830101525050509392505050565b600082601f83011261278257600080fd5b611f91838335602085016126fb565b6000602082840312156127a357600080fd5b813567ffffffffffffffff8111156127ba57600080fd5b61254984828501612771565b6000602082840312156127d857600080fd5b5035919050565b6001600160a01b03811681146107f457600080fd5b6000806040838503121561280757600080fd5b823591506020830135612819816127df565b809150509250929050565b60006020828403121561283657600080fd5b8135611f91816127df565b60008060006060848603121561285657600080fd5b8335612861816127df565b9250602084013591506040840135612878816127df565b809150509250925092565b6000806040838503121561289657600080fd5b82356128a1816127df565b9150602083013567ffffffffffffffff8111156128bd57600080fd5b8301601f810185136128ce57600080fd5b6128dd858235602084016126fb565b9150509250929050565b600080600080600060a086880312156128ff57600080fd5b853594506020860135935060408601359250606086013561291f816127df565b9150608086013567ffffffffffffffff81111561293b57600080fd5b61294788828901612771565b9150509295509295909350565b80151581146107f457600080fd5b600080600080600060a0868803121561297a57600080fd5b8535612985816127df565b9450602086013561299581612954565b935060408601356129a581612954565b9250606086013561291f81612954565b6000806000606084860312156129ca57600080fd5b8335925060208401356129dc816127df565b91506040840135612878816127df565b634e487b7160e01b600052602160045260246000fd5b60038110612a2057634e487b7160e01b600052602160045260246000fd5b9052565b602081016106638284612a02565b60008060408385031215612a4557600080fd5b82359150602083013561281981612954565b600080600080600080600080610100898b031215612a7457600080fd5b8835975060208901359650604089013595506060890135612a94816127df565b9450608089013560ff81168114612aaa57600080fd5b935060a0890135925060c0890135915060e089013567ffffffffffffffff811115612ad457600080fd5b612ae08b828c01612771565b9150509295985092959890939650565b82815260408101611f916020830184612a02565b6020808252602c908201527f46756e6374696f6e206d7573742062652063616c6c6564207468726f7567682060408201526b19195b1959d85d1958d85b1b60a21b606082015260800190565b6020808252602c908201527f46756e6374696f6e206d7573742062652063616c6c6564207468726f7567682060408201526b6163746976652070726f787960a01b606082015260800190565b60208082526010908201526f14185d5cd8589b194e881c185d5cd95960821b604082015260600190565b60005b83811015612be1578181015183820152602001612bc9565b838111156111f15750506000910152565b60008251612c04818460208701612bc6565b9190910192915050565b60208082526037908201527f576f726b5175657374204272696467653a205468697320746f6b656e206e6f7460408201527f2072656769737465726564206f722064697361626c6564000000000000000000606082015260800190565b8681528560208201526bffffffffffffffffffffffff198560601b16604082015283605482015282607482015260008251612cad816094850160208701612bc6565b91909101609401979650505050505050565b60208082526042908201527f576f726b5175657374204272696467653a2053776170206973206e6f7420656d60408201527f707479207374617465206f72206475706c6963617465207472616e736163746960608201526137b760f11b608082015260a00190565b60008151808452612d3f816020860160208601612bc6565b601f01601f19169290920160200192915050565b87815260018060a01b03871660208201528560408201528460608201528360808201528260a082015260e060c08201526000612d9260e0830184612d27565b9998505050505050505050565b7f416363657373436f6e74726f6c3a206163636f756e7420000000000000000000815260008351612dd7816017850160208801612bc6565b7001034b99036b4b9b9b4b733903937b6329607d1b6017918401918201528351612e08816028840160208801612bc6565b01602801949350505050565b602081526000611f916020830184612d27565b600060208284031215612e3957600080fd5b5051919050565b6020808252602b908201527f496e697469616c697a61626c653a20636f6e7472616374206973206e6f74206960408201526a6e697469616c697a696e6760a81b606082015260800190565b634e487b7160e01b600052601160045260246000fd5b6000816000190483118215151615612ebb57612ebb612e8b565b500290565b60008219821115612ed357612ed3612e8b565b500190565b634e487b7160e01b600052603260045260246000fd5b600081612efd57612efd612e8b565b506000190190565b600060208284031215612f1757600080fd5b8151611f918161295456fe21702c8af46127c7fa207f89d0b0a8441bb32959a0ac7df790e9ab1a25c98926189ab7a9244df0848122154315af71fe140f3db0fe014031783b0946b8c9d2e3360894a13ba1a3210667c828492db98dca3e2076cc3735a920a3ca505d382bbc416464726573733a206c6f772d6c6576656c2064656c65676174652063616c6c206661696c6564a49807205ce4d355092ef5a8a18f56e8913cf4a201fbe287825b095693c21775a2646970667358221220fec377bc9bce6caa5cc7c8dadc53d71e4b8bdc001687536a06c14296415e08e964736f6c63430008090033",
  "linkReferences": {},
  "deployedLinkReferences": {}
}