{
  "_format": "hh-sol-artifact-1",
  "contractName": "WQSurplusAuction",
  "sourceName": "contracts/stablecoin/WQSurplusAuction.sol",
  "abi": [
    {
      "inputs": [],
      "stateMutability": "nonpayable",
      "type": "constructor"
    },
    {
      "anonymous": false,
      "inputs": [
        {
          "indexed": false,
          "internalType": "address",
          "name": "previousAdmin",
          "type": "address"
        },
        {
          "indexed": false,
          "internalType": "address",
          "name": "newAdmin",
          "type": "address"
        }
      ],
      "name": "AdminChanged",
      "type": "event"
    },
    {
      "anonymous": false,
      "inputs": [
        {
          "indexed": false,
          "internalType": "uint256",
          "name": "index",
          "type": "uint256"
        },
        {
          "indexed": false,
          "internalType": "uint256",
          "name": "amount",
          "type": "uint256"
        }
      ],
      "name": "AuctionStarted",
      "type": "event"
    },
    {
      "anonymous": false,
      "inputs": [
        {
          "indexed": true,
          "internalType": "address",
          "name": "beacon",
          "type": "address"
        }
      ],
      "name": "BeaconUpgraded",
      "type": "event"
    },
    {
      "anonymous": false,
      "inputs": [
        {
          "indexed": false,
          "internalType": "uint256",
          "name": "index",
          "type": "uint256"
        },
        {
          "indexed": false,
          "internalType": "uint256",
          "name": "amount",
          "type": "uint256"
        }
      ],
      "name": "LotBuyed",
      "type": "event"
    },
    {
      "anonymous": false,
      "inputs": [
        {
          "indexed": false,
          "internalType": "uint256",
          "name": "index",
          "type": "uint256"
        },
        {
          "indexed": false,
          "internalType": "uint256",
          "name": "amount",
          "type": "uint256"
        }
      ],
      "name": "LotCanceled",
      "type": "event"
    },
    {
      "anonymous": false,
      "inputs": [
        {
          "indexed": true,
          "internalType": "bytes32",
          "name": "role",
          "type": "bytes32"
        },
        {
          "indexed": true,
          "internalType": "bytes32",
          "name": "previousAdminRole",
          "type": "bytes32"
        },
        {
          "indexed": true,
          "internalType": "bytes32",
          "name": "newAdminRole",
          "type": "bytes32"
        }
      ],
      "name": "RoleAdminChanged",
      "type": "event"
    },
    {
      "anonymous": false,
      "inputs": [
        {
          "indexed": true,
          "internalType": "bytes32",
          "name": "role",
          "type": "bytes32"
        },
        {
          "indexed": true,
          "internalType": "address",
          "name": "account",
          "type": "address"
        },
        {
          "indexed": true,
          "internalType": "address",
          "name": "sender",
          "type": "address"
        }
      ],
      "name": "RoleGranted",
      "type": "event"
    },
    {
      "anonymous": false,
      "inputs": [
        {
          "indexed": true,
          "internalType": "bytes32",
          "name": "role",
          "type": "bytes32"
        },
        {
          "indexed": true,
          "internalType": "address",
          "name": "account",
          "type": "address"
        },
        {
          "indexed": true,
          "internalType": "address",
          "name": "sender",
          "type": "address"
        }
      ],
      "name": "RoleRevoked",
      "type": "event"
    },
    {
      "anonymous": false,
      "inputs": [
        {
          "indexed": true,
          "internalType": "address",
          "name": "implementation",
          "type": "address"
        }
      ],
      "name": "Upgraded",
      "type": "event"
    },
    {
      "inputs": [],
      "name": "ADMIN_ROLE",
      "outputs": [
        {
          "internalType": "bytes32",
          "name": "",
          "type": "bytes32"
        }
      ],
      "stateMutability": "view",
      "type": "function"
    },
    {
      "inputs": [],
      "name": "DEFAULT_ADMIN_ROLE",
      "outputs": [
        {
          "internalType": "bytes32",
          "name": "",
          "type": "bytes32"
        }
      ],
      "stateMutability": "view",
      "type": "function"
    },
    {
      "inputs": [],
      "name": "UPGRADER_ROLE",
      "outputs": [
        {
          "internalType": "bytes32",
          "name": "",
          "type": "bytes32"
        }
      ],
      "stateMutability": "view",
      "type": "function"
    },
    {
      "inputs": [
        {
          "internalType": "uint256",
          "name": "",
          "type": "uint256"
        }
      ],
      "name": "amounts",
      "outputs": [
        {
          "internalType": "uint256",
          "name": "",
          "type": "uint256"
        }
      ],
      "stateMutability": "view",
      "type": "function"
    },
    {
      "inputs": [],
      "name": "auctionDuration",
      "outputs": [
        {
          "internalType": "uint256",
          "name": "",
          "type": "uint256"
        }
      ],
      "stateMutability": "view",
      "type": "function"
    },
    {
      "inputs": [
        {
          "internalType": "uint256",
          "name": "index",
          "type": "uint256"
        },
        {
          "internalType": "uint256",
          "name": "maxCost",
          "type": "uint256"
        }
      ],
      "name": "buyLot",
      "outputs": [],
      "stateMutability": "payable",
      "type": "function"
    },
    {
      "inputs": [
        {
          "internalType": "uint256",
          "name": "index",
          "type": "uint256"
        }
      ],
      "name": "cancelLot",
      "outputs": [],
      "stateMutability": "nonpayable",
      "type": "function"
    },
    {
      "inputs": [
        {
          "internalType": "uint256",
          "name": "index",
          "type": "uint256"
        }
      ],
      "name": "getCurrentLotCost",
      "outputs": [
        {
          "internalType": "uint256",
          "name": "",
          "type": "uint256"
        }
      ],
      "stateMutability": "view",
      "type": "function"
    },
    {
      "inputs": [
        {
          "internalType": "bytes32",
          "name": "role",
          "type": "bytes32"
        }
      ],
      "name": "getRoleAdmin",
      "outputs": [
        {
          "internalType": "bytes32",
          "name": "",
          "type": "bytes32"
        }
      ],
      "stateMutability": "view",
      "type": "function"
    },
    {
      "inputs": [
        {
          "internalType": "string",
          "name": "symbol",
          "type": "string"
        }
      ],
      "name": "getSurplusAmount",
      "outputs": [
        {
          "internalType": "uint256",
          "name": "",
          "type": "uint256"
        }
      ],
      "stateMutability": "view",
      "type": "function"
    },
    {
      "inputs": [
        {
          "internalType": "bytes32",
          "name": "role",
          "type": "bytes32"
        },
        {
          "internalType": "address",
          "name": "account",
          "type": "address"
        }
      ],
      "name": "grantRole",
      "outputs": [],
      "stateMutability": "nonpayable",
      "type": "function"
    },
    {
      "inputs": [
        {
          "internalType": "bytes32",
          "name": "role",
          "type": "bytes32"
        },
        {
          "internalType": "address",
          "name": "account",
          "type": "address"
        }
      ],
      "name": "hasRole",
      "outputs": [
        {
          "internalType": "bool",
          "name": "",
          "type": "bool"
        }
      ],
      "stateMutability": "view",
      "type": "function"
    },
    {
      "inputs": [
        {
          "internalType": "address",
          "name": "_oracle",
          "type": "address"
        },
        {
          "internalType": "address",
          "name": "_router",
          "type": "address"
        },
        {
          "internalType": "uint256",
          "name": "_auctionDuration",
          "type": "uint256"
        },
        {
          "internalType": "uint256",
          "name": "_upperBoundCost",
          "type": "uint256"
        },
        {
          "internalType": "uint256",
          "name": "_lowerBoundCost",
          "type": "uint256"
        },
        {
          "internalType": "uint256",
          "name": "_maxLotAmountFactor",
          "type": "uint256"
        }
      ],
      "name": "initialize",
      "outputs": [],
      "stateMutability": "nonpayable",
      "type": "function"
    },
    {
      "inputs": [
        {
          "internalType": "uint256",
          "name": "",
          "type": "uint256"
        }
      ],
      "name": "lots",
      "outputs": [
        {
          "internalType": "uint256",
          "name": "index",
          "type": "uint256"
        },
        {
          "internalType": "uint256",
          "name": "amount",
          "type": "uint256"
        },
        {
          "internalType": "uint256",
          "name": "endTime",
          "type": "uint256"
        },
        {
          "internalType": "address",
          "name": "buyer",
          "type": "address"
        },
        {
          "internalType": "enum WQSurplusAuction.LotStatus",
          "name": "status",
          "type": "uint8"
        },
        {
          "internalType": "string",
          "name": "symbol",
          "type": "string"
        }
      ],
      "stateMutability": "view",
      "type": "function"
    },
    {
      "inputs": [],
      "name": "lowerBoundCost",
      "outputs": [
        {
          "internalType": "uint256",
          "name": "",
          "type": "uint256"
        }
      ],
      "stateMutability": "view",
      "type": "function"
    },
    {
      "inputs": [],
      "name": "maxLotAmountFactor",
      "outputs": [
        {
          "internalType": "uint256",
          "name": "",
          "type": "uint256"
        }
      ],
      "stateMutability": "view",
      "type": "function"
    },
    {
      "inputs": [],
      "name": "oracle",
      "outputs": [
        {
          "internalType": "contract WQPriceOracle",
          "name": "",
          "type": "address"
        }
      ],
      "stateMutability": "view",
      "type": "function"
    },
    {
      "inputs": [],
      "name": "proxiableUUID",
      "outputs": [
        {
          "internalType": "bytes32",
          "name": "",
          "type": "bytes32"
        }
      ],
      "stateMutability": "view",
      "type": "function"
    },
    {
      "inputs": [
        {
          "internalType": "bytes32",
          "name": "role",
          "type": "bytes32"
        },
        {
          "internalType": "address",
          "name": "account",
          "type": "address"
        }
      ],
      "name": "renounceRole",
      "outputs": [],
      "stateMutability": "nonpayable",
      "type": "function"
    },
    {
      "inputs": [
        {
          "internalType": "bytes32",
          "name": "role",
          "type": "bytes32"
        },
        {
          "internalType": "address",
          "name": "account",
          "type": "address"
        }
      ],
      "name": "revokeRole",
      "outputs": [],
      "stateMutability": "nonpayable",
      "type": "function"
    },
    {
      "inputs": [],
      "name": "router",
      "outputs": [
        {
          "internalType": "contract WQRouterInterface",
          "name": "",
          "type": "address"
        }
      ],
      "stateMutability": "view",
      "type": "function"
    },
    {
      "inputs": [
        {
          "internalType": "uint256",
          "name": "duration",
          "type": "uint256"
        }
      ],
      "name": "setAuctionDuration",
      "outputs": [],
      "stateMutability": "nonpayable",
      "type": "function"
    },
    {
      "inputs": [
        {
          "internalType": "uint256",
          "name": "percent",
          "type": "uint256"
        }
      ],
      "name": "setLowerBoundCost",
      "outputs": [],
      "stateMutability": "nonpayable",
      "type": "function"
    },
    {
      "inputs": [
        {
          "internalType": "uint256",
          "name": "percent",
          "type": "uint256"
        }
      ],
      "name": "setMaxLotAmountFactor",
      "outputs": [],
      "stateMutability": "nonpayable",
      "type": "function"
    },
    {
      "inputs": [
        {
          "internalType": "address",
          "name": "_oracle",
          "type": "address"
        }
      ],
      "name": "setOracle",
      "outputs": [],
      "stateMutability": "nonpayable",
      "type": "function"
    },
    {
      "inputs": [
        {
          "internalType": "address",
          "name": "_router",
          "type": "address"
        }
      ],
      "name": "setRouter",
      "outputs": [],
      "stateMutability": "nonpayable",
      "type": "function"
    },
    {
      "inputs": [
        {
          "internalType": "address",
          "name": "token",
          "type": "address"
        },
        {
          "internalType": "string",
          "name": "symbol",
          "type": "string"
        }
      ],
      "name": "setToken",
      "outputs": [],
      "stateMutability": "nonpayable",
      "type": "function"
    },
    {
      "inputs": [
        {
          "internalType": "uint256",
          "name": "percent",
          "type": "uint256"
        }
      ],
      "name": "setUpperBoundCost",
      "outputs": [],
      "stateMutability": "nonpayable",
      "type": "function"
    },
    {
      "inputs": [
        {
          "internalType": "uint256",
          "name": "amount",
          "type": "uint256"
        },
        {
          "internalType": "string",
          "name": "symbol",
          "type": "string"
        }
      ],
      "name": "startAuction",
      "outputs": [],
      "stateMutability": "nonpayable",
      "type": "function"
    },
    {
      "inputs": [
        {
          "internalType": "bytes4",
          "name": "interfaceId",
          "type": "bytes4"
        }
      ],
      "name": "supportsInterface",
      "outputs": [
        {
          "internalType": "bool",
          "name": "",
          "type": "bool"
        }
      ],
      "stateMutability": "view",
      "type": "function"
    },
    {
      "inputs": [
        {
          "internalType": "string",
          "name": "",
          "type": "string"
        }
      ],
      "name": "tokens",
      "outputs": [
        {
          "internalType": "contract IERC20MetadataUpgradeable",
          "name": "",
          "type": "address"
        }
      ],
      "stateMutability": "view",
      "type": "function"
    },
    {
      "inputs": [],
      "name": "totalAuctioned",
      "outputs": [
        {
          "internalType": "uint256",
          "name": "",
          "type": "uint256"
        }
      ],
      "stateMutability": "view",
      "type": "function"
    },
    {
      "inputs": [
        {
          "internalType": "address",
          "name": "newImplementation",
          "type": "address"
        }
      ],
      "name": "upgradeTo",
      "outputs": [],
      "stateMutability": "nonpayable",
      "type": "function"
    },
    {
      "inputs": [
        {
          "internalType": "address",
          "name": "newImplementation",
          "type": "address"
        },
        {
          "internalType": "bytes",
          "name": "data",
          "type": "bytes"
        }
      ],
      "name": "upgradeToAndCall",
      "outputs": [],
      "stateMutability": "payable",
      "type": "function"
    },
    {
      "inputs": [],
      "name": "upperBoundCost",
      "outputs": [
        {
          "internalType": "uint256",
          "name": "",
          "type": "uint256"
        }
      ],
      "stateMutability": "view",
      "type": "function"
    }
  ],
  "bytecode": "0x60a0604052306080523480156200001557600080fd5b50600054610100900460ff16620000335760005460ff16156200003d565b6200003d620000e2565b620000a55760405162461bcd60e51b815260206004820152602e60248201527f496e697469616c697a61626c653a20636f6e747261637420697320616c72656160448201526d191e481a5b9a5d1a585b1a5e995960921b606482015260840160405180910390fd5b600054610100900460ff16158015620000c8576000805461ffff19166101011790555b8015620000db576000805461ff00191690555b506200010f565b6000620000fa306200010060201b62001bdd1760201c565b15905090565b6001600160a01b03163b151590565b608051612f3f6200014760003960008181610a2a01528181610a6a01528181610b2c01528181610b6c0152610bfb0152612f3f6000f3fe6080604052600436106102045760003560e01c806375f4442e11610118578063c0d78655116100a0578063f72c0d8b1161006f578063f72c0d8b14610602578063f887ea4014610624578063fdad53db14610645578063ff2ab22914610665578063ffb671861461067c57600080fd5b8063c0d7865514610570578063d547741f14610590578063e2a07a07146105b0578063f1648e84146105d057600080fd5b806386489ba9116100e757806386489ba9146104e857806391d1485414610508578063a217fddf14610528578063a497e6741461053d578063b32fdcea1461055d57600080fd5b806375f4442e146104675780637adbf973146104875780637bb8e8bc146104a75780637dc0d1d0146104c757600080fd5b80633659cfe61161019b57806352d1902d1161016a57806352d1902d146103d0578063535bb867146103e5578063541556cc1461040557806364ad7ad71461042557806375b238fc1461044557600080fd5b80633659cfe614610366578063403b74ed1461038657806345f0a44f1461039d5780634f1ef286146103bd57600080fd5b806323469c4e116101d757806323469c4e146102df578063248a9ca3146102f65780632f2ff15d1461032657806336568abe1461034657600080fd5b806301ffc9a71461020957806304c2320b1461023e5780630a180f27146102985780630cbf54c8146102ba575b600080fd5b34801561021557600080fd5b50610229610224366004612540565b610693565b60405190151581526020015b60405180910390f35b34801561024a57600080fd5b506102806102593660046125f6565b8051602081830181018051610134825292820191909301209152546001600160a01b031681565b6040516001600160a01b039091168152602001610235565b3480156102a457600080fd5b506102b86102b336600461263f565b6106ca565b005b3480156102c657600080fd5b506102d161012f5481565b604051908152602001610235565b3480156102eb57600080fd5b506102d16101325481565b34801561030257600080fd5b506102d161031136600461263f565b60009081526065602052604090206001015490565b34801561033257600080fd5b506102b8610341366004612674565b610976565b34801561035257600080fd5b506102b8610361366004612674565b6109a1565b34801561037257600080fd5b506102b86103813660046126a0565b610a1f565b34801561039257600080fd5b506102d16101305481565b3480156103a957600080fd5b506102d16103b836600461263f565b610aff565b6102b86103cb3660046126bb565b610b21565b3480156103dc57600080fd5b506102d1610bee565b3480156103f157600080fd5b506102d161040036600461263f565b610ca1565b34801561041157600080fd5b506102d16104203660046125f6565b610d3b565b34801561043157600080fd5b506102b861044036600461263f565b610fe6565b34801561045157600080fd5b506102d1600080516020612eea83398151915281565b34801561047357600080fd5b506102b861048236600461263f565b611006565b34801561049357600080fd5b506102b86104a23660046126a0565b611026565b3480156104b357600080fd5b506102b86104c2366004612766565b611063565b3480156104d357600080fd5b5061012d54610280906001600160a01b031681565b3480156104f457600080fd5b506102b86105033660046127b2565b61150c565b34801561051457600080fd5b50610229610523366004612674565b61168e565b34801561053457600080fd5b506102d1600081565b34801561054957600080fd5b506102b861055836600461263f565b6116b9565b6102b861056b366004612807565b6116d9565b34801561057c57600080fd5b506102b861058b3660046126a0565b611a26565b34801561059c57600080fd5b506102b86105ab366004612674565b611a63565b3480156105bc57600080fd5b506102b86105cb36600461263f565b611a89565b3480156105dc57600080fd5b506105f06105eb36600461263f565b611aa9565b60405161023596959493929190612897565b34801561060e57600080fd5b506102d1600080516020612e8383398151915281565b34801561063057600080fd5b5061012e54610280906001600160a01b031681565b34801561065157600080fd5b506102b86106603660046128fd565b611b7b565b34801561067157600080fd5b506102d16101315481565b34801561068857600080fd5b506102d16101335481565b60006001600160e01b03198216637965db0b60e01b14806106c457506301ffc9a760e01b6001600160e01b03198316145b92915050565b600260975414156106f65760405162461bcd60e51b81526004016106ed90612937565b60405180910390fd5b600260975560008181526101356020526040902060016003820154600160a01b900460ff16600281111561072c5761072c612829565b146107795760405162461bcd60e51b815260206004820152601f60248201527f575141756374696f6e3a204c6f74206973206e6f742061756374696f6e65640060448201526064016106ed565b806002015442116107dc5760405162461bcd60e51b815260206004820152602760248201527f575141756374696f6e3a2041756374696f6e2074696d65206973206e6f74206f6044820152661d995c881e595d60ca1b60648201526084016106ed565b80600101546101368260000154815481106107f9576107f961296e565b9060005260206000200154141561096d5780600101546101336000828254610821919061299a565b9091555050805460018201546040517f2f5d6db7bddb2094476f65b2865180ce1888601bc9e022cab86d994a487af9a09261086492908252602082015260400190565b60405180910390a1610136805461087d9060019061299a565b8154811061088d5761088d61296e565b90600052602060002001546101368260000154815481106108b0576108b061296e565b9060005260206000200181905550806000015461013560006101368460000154815481106108e0576108e061296e565b9060005260206000200154815260200190815260200160002060000181905550610136805480610912576109126129b1565b60008281526020808220830160001990810183905590920190925583825261013590526040812081815560018101829055600281018290556003810180546001600160a81b03191690559061096a600483018261246d565b50505b50506001609755565b6000828152606560205260409020600101546109928133611bec565b61099c8383611c50565b505050565b6001600160a01b0381163314610a115760405162461bcd60e51b815260206004820152602f60248201527f416363657373436f6e74726f6c3a2063616e206f6e6c792072656e6f756e636560448201526e103937b632b9903337b91039b2b63360891b60648201526084016106ed565b610a1b8282611cd6565b5050565b306001600160a01b037f0000000000000000000000000000000000000000000000000000000000000000161415610a685760405162461bcd60e51b81526004016106ed906129c7565b7f00000000000000000000000000000000000000000000000000000000000000006001600160a01b0316610ab1600080516020612ea3833981519152546001600160a01b031690565b6001600160a01b031614610ad75760405162461bcd60e51b81526004016106ed90612a13565b610ae081611d3d565b60408051600080825260208201909252610afc91839190611d56565b50565b6101368181548110610b1057600080fd5b600091825260209091200154905081565b306001600160a01b037f0000000000000000000000000000000000000000000000000000000000000000161415610b6a5760405162461bcd60e51b81526004016106ed906129c7565b7f00000000000000000000000000000000000000000000000000000000000000006001600160a01b0316610bb3600080516020612ea3833981519152546001600160a01b031690565b6001600160a01b031614610bd95760405162461bcd60e51b81526004016106ed90612a13565b610be282611d3d565b610a1b82826001611d56565b6000306001600160a01b037f00000000000000000000000000000000000000000000000000000000000000001614610c8e5760405162461bcd60e51b815260206004820152603860248201527f555550535570677261646561626c653a206d757374206e6f742062652063616c60448201527f6c6564207468726f7567682064656c656761746563616c6c000000000000000060648201526084016106ed565b50600080516020612ea383398151915290565b60008181526101356020526040812060016003820154600160a01b900460ff166002811115610cd257610cd2612829565b14610d2b5760405162461bcd60e51b8152602060048201526024808201527f575141756374696f6e3a2054686973206c6f74206973206e6f742061756374696044820152631bdb995960e21b60648201526084016106ed565b610d3481611ed0565b9392505050565b60008061013483604051610d4f9190612a5f565b90815260408051602092819003830181205463313ce56760e01b825291516001600160a01b039092169263313ce56792600480840193829003018186803b158015610d9957600080fd5b505afa158015610dad573d6000803e3d6000fd5b505050506040513d601f19601f82011682018060405250810190610dd19190612a7b565b610ddc906012612a9e565b610de790600a612ba5565b61012d54604051630292e0fd60e01b81526001600160a01b0390911690630292e0fd90610e18908790600401612bb4565b60206040518083038186803b158015610e3057600080fd5b505afa158015610e44573d6000803e3d6000fd5b505050506040513d601f19601f82011682018060405250810190610e689190612bc7565b61012e54604051632ed4877d60e21b81526001600160a01b039091169063bb521df490610e99908890600401612bb4565b60206040518083038186803b158015610eb157600080fd5b505afa158015610ec5573d6000803e3d6000fd5b505050506040513d601f19601f82011682018060405250810190610ee99190612bc7565b610ef39190612be0565b610efd9190612be0565b61012e54604051638c1e06f160e01b81529192506000916001600160a01b0390911690638c1e06f190610f34908790600401612bb4565b60206040518083038186803b158015610f4c57600080fd5b505afa158015610f60573d6000803e3d6000fd5b505050506040513d601f19601f82011682018060405250810190610f849190612bc7565b9050806729a2241af62c0000610f9b846002612be0565b610fa59190612bff565b1115610fdc57806729a2241af62c0000610fc0846002612be0565b610fca9190612bff565b610fd4919061299a565b949350505050565b5060009392505050565b600080516020612eea833981519152610fff8133611bec565b5061013055565b600080516020612eea83398151915261101f8133611bec565b5061013255565b600080516020612eea83398151915261103f8133611bec565b5061012d80546001600160a01b0319166001600160a01b0392909216919091179055565b600260975414156110865760405162461bcd60e51b81526004016106ed90612937565b6002609755604051600090610134906110a29085908590612c21565b908152604051908190036020019020546001600160a01b031614156111135760405162461bcd60e51b815260206004820152602160248201527f575141756374696f6e3a205468697320746f6b656e2069732064697361626c656044820152601960fa1b60648201526084016106ed565b6000831161116d5760405162461bcd60e51b815260206004820152602160248201527f575141756374696f6e3a20496e636f727265637420616d6f756e742076616c756044820152606560f81b60648201526084016106ed565b600160008481526101356020526040902060030154600160a01b900460ff16600281111561119d5761119d612829565b1415611209576000838152610135602052604090206002015442116112045760405162461bcd60e51b815260206004820152601f60248201527f575141756374696f6e3a204c6f742069732061756374696f6e6564207965740060448201526064016106ed565b611222565b82610133600082825461121c9190612c31565b90915550505b600061126383838080601f016020809104026020016040519081016040528093929190818152602001838380828437600092019190915250610d3b92505050565b9050806101335411156112d75760405162461bcd60e51b815260206004820152603660248201527f575141756374696f6e3a20416d6f756e74206f66206269642069732067726561604482015275746572207468616e20746f74616c20737572706c757360501b60648201526084016106ed565b61013254816112ee86670de0b6b3a7640000612be0565b6112f89190612bff565b11156113165760405162461bcd60e51b81526004016106ed90612c49565b600084815261013560205260409020546101365481101580611367575060008581526101356020526040902054610136805487929081106113595761135961296e565b906000526020600020015414155b156113b35761013680546001818101835560008390527f39da2db355130acf428d669fbf1c14faa9d51399a25b793fc254bbbde66f02e290910187905590546113b0919061299a565b90505b6040518060c0016040528082815260200186815260200161012f54426113d99190612c31565b8152600060208201526040016001815260200185858080601f01602080910402602001604051908101604052809392919081815260200183838082843760009201829052509390945250508781526101356020908152604091829020845181559084015160018201559083015160028083019190915560608401516003830180546001600160a01b039092166001600160a01b0319831681178255608087015194955090926001600160a81b03199092161790600160a01b9084908111156114a3576114a3612829565b021790555060a082015180516114c39160048401916020909101906124a7565b505060408051838152602081018890527ff8910119ddbef5440c54532457dfe8250a10ed39e583292818f44724b9e1344c9250015b60405180910390a150506001609755505050565b600054610100900460ff166115275760005460ff161561152b565b303b155b61158e5760405162461bcd60e51b815260206004820152602e60248201527f496e697469616c697a61626c653a20636f6e747261637420697320616c72656160448201526d191e481a5b9a5d1a585b1a5e995960921b60648201526084016106ed565b600054610100900460ff161580156115b0576000805461ffff19166101011790555b6115b8611fc2565b6115c0611feb565b6115c8611fc2565b6115d360003361201a565b6115eb600080516020612eea8339815191523361201a565b611603600080516020612e838339815191523361201a565b611629600080516020612e83833981519152600080516020612eea833981519152612024565b61012d80546001600160a01b03808a166001600160a01b03199283161790925561012e80549289169290911691909117905561012f8590556101308490556101318390556101328290558015611685576000805461ff00191690555b50505050505050565b60009182526065602090815260408084206001600160a01b0393909316845291905290205460ff1690565b600080516020612eea8339815191526116d28133611bec565b5061012f55565b600260975414156116fc5760405162461bcd60e51b81526004016106ed90612937565b600260975560008281526101356020526040902060016003820154600160a01b900460ff16600281111561173257611732612829565b1461177f5760405162461bcd60e51b815260206004820152601f60248201527f575141756374696f6e3a204c6f74206973206e6f742061756374696f6e65640060448201526064016106ed565b80600201544211156117d35760405162461bcd60e51b815260206004820152601f60248201527f575141756374696f6e3a2041756374696f6e2074696d65206973206f7665720060448201526064016106ed565b600061186a8260040180546117e790612ca6565b80601f016020809104026020016040519081016040528092919081815260200182805461181390612ca6565b80156118605780601f1061183557610100808354040283529160200191611860565b820191906000526020600020905b81548152906001019060200180831161184357829003601f168201915b5050505050610d3b565b90506000811180156118a1575061013254818360010154670de0b6b3a76400006118949190612be0565b61189e9190612bff565b11155b6118bd5760405162461bcd60e51b81526004016106ed90612c49565b60006118c883611ed0565b9050831561193357838111156119335760405162461bcd60e51b815260206004820152602a60248201527f575141756374696f6e3a2043757272656e7420636f73742069732067726561746044820152696572206d6178696d756d60b01b60648201526084016106ed565b8260010154610133600082825461194a919061299a565b90915550506003830180546001600160a81b0319163360ff60a01b19811691909117600160a11b1790915561012e5460018501546040516388076d7b60e01b81526001600160a01b03909216926388076d7b9234926119b2929187906004808c019101612ce1565b6000604051808303818588803b1580156119cb57600080fd5b505af11580156119df573d6000803e3d6000fd5b50505050507fd6e7678fa971a6655c284a5ed1b69b1419aecc0c105b8ddecf55a73ef0076c79836000015484600101546040516114f8929190918252602082015260400190565b600080516020612eea833981519152611a3f8133611bec565b5061012e80546001600160a01b0319166001600160a01b0392909216919091179055565b600082815260656020526040902060010154611a7f8133611bec565b61099c8383611cd6565b600080516020612eea833981519152611aa28133611bec565b5061013155565b61013560205260009081526040902080546001820154600283015460038401546004850180549495939492936001600160a01b03831693600160a01b90930460ff1692909190611af890612ca6565b80601f0160208091040260200160405190810160405280929190818152602001828054611b2490612ca6565b8015611b715780601f10611b4657610100808354040283529160200191611b71565b820191906000526020600020905b815481529060010190602001808311611b5457829003601f168201915b5050505050905086565b600080516020612eea833981519152611b948133611bec565b836101348484604051611ba8929190612c21565b90815260405190819003602001902080546001600160a01b03929092166001600160a01b031990921691909117905550505050565b6001600160a01b03163b151590565b611bf6828261168e565b610a1b57611c0e816001600160a01b0316601461206f565b611c1983602061206f565b604051602001611c2a929190612dab565b60408051601f198184030181529082905262461bcd60e51b82526106ed91600401612bb4565b611c5a828261168e565b610a1b5760008281526065602090815260408083206001600160a01b03851684529091529020805460ff19166001179055611c923390565b6001600160a01b0316816001600160a01b0316837f2f8788117e7eff1d82e926ec794901d17c78024a50270940304540a733656f0d60405160405180910390a45050565b611ce0828261168e565b15610a1b5760008281526065602090815260408083206001600160a01b0385168085529252808320805460ff1916905551339285917ff6391f5c32d9c69d2a47ea670b442974b53935d1edc7fd64eb21e047a839171b9190a45050565b600080516020612e83833981519152610a1b8133611bec565b7f4910fdfa16fed3260ed0e7147f7cc6da11a60208b5b9406d12a635614ffd91435460ff1615611d895761099c8361220b565b826001600160a01b03166352d1902d6040518163ffffffff1660e01b815260040160206040518083038186803b158015611dc257600080fd5b505afa925050508015611df2575060408051601f3d908101601f19168201909252611def91810190612bc7565b60015b611e555760405162461bcd60e51b815260206004820152602e60248201527f45524331393637557067726164653a206e657720696d706c656d656e7461746960448201526d6f6e206973206e6f74205555505360901b60648201526084016106ed565b600080516020612ea38339815191528114611ec45760405162461bcd60e51b815260206004820152602960248201527f45524331393637557067726164653a20756e737570706f727465642070726f786044820152681a58589b195555525160ba1b60648201526084016106ed565b5061099c8383836122a7565b61012d54604051630292e0fd60e01b815260206004820152600360248201526215d45560ea1b60448201526000916001600160a01b031690630292e0fd9060640160206040518083038186803b158015611f2957600080fd5b505afa158015611f3d573d6000803e3d6000fd5b505050506040513d601f19601f82011682018060405250810190611f619190612bc7565b826001015461012f54428560020154611f7a919061299a565b6101315461013054611f8c919061299a565b611f969190612be0565b611fa09190612bff565b61013154611fae9190612c31565b611fb89190612be0565b6106c49190612bff565b600054610100900460ff16611fe95760405162461bcd60e51b81526004016106ed90612e20565b565b600054610100900460ff166120125760405162461bcd60e51b81526004016106ed90612e20565b611fe96122d2565b610a1b8282611c50565b600082815260656020526040808220600101805490849055905190918391839186917fbd79b86ffe0ab8e8776151514217cd7cacd52c909f66475c3af44e129f0b00ff9190a4505050565b6060600061207e836002612be0565b612089906002612c31565b67ffffffffffffffff8111156120a1576120a161256a565b6040519080825280601f01601f1916602001820160405280156120cb576020820181803683370190505b509050600360fc1b816000815181106120e6576120e661296e565b60200101906001600160f81b031916908160001a905350600f60fb1b816001815181106121155761211561296e565b60200101906001600160f81b031916908160001a9053506000612139846002612be0565b612144906001612c31565b90505b60018111156121bc576f181899199a1a9b1b9c1cb0b131b232b360811b85600f16601081106121785761217861296e565b1a60f81b82828151811061218e5761218e61296e565b60200101906001600160f81b031916908160001a90535060049490941c936121b581612e6b565b9050612147565b508315610d345760405162461bcd60e51b815260206004820181905260248201527f537472696e67733a20686578206c656e67746820696e73756666696369656e7460448201526064016106ed565b6001600160a01b0381163b6122785760405162461bcd60e51b815260206004820152602d60248201527f455243313936373a206e657720696d706c656d656e746174696f6e206973206e60448201526c1bdd08184818dbdb9d1c9858dd609a1b60648201526084016106ed565b600080516020612ea383398151915280546001600160a01b0319166001600160a01b0392909216919091179055565b6122b083612300565b6000825111806122bd5750805b1561099c576122cc8383612340565b50505050565b600054610100900460ff166122f95760405162461bcd60e51b81526004016106ed90612e20565b6001609755565b6123098161220b565b6040516001600160a01b038216907fbc7cd75a20ee27fd9adebab32041f755214dbc6bffa90cc0225b39da2e5c2d3b90600090a250565b60606001600160a01b0383163b6123a85760405162461bcd60e51b815260206004820152602660248201527f416464726573733a2064656c65676174652063616c6c20746f206e6f6e2d636f6044820152651b9d1c9858dd60d21b60648201526084016106ed565b600080846001600160a01b0316846040516123c39190612a5f565b600060405180830381855af49150503d80600081146123fe576040519150601f19603f3d011682016040523d82523d6000602084013e612403565b606091505b509150915061242b8282604051806060016040528060278152602001612ec360279139612434565b95945050505050565b60608315612443575081610d34565b8251156124535782518084602001fd5b8160405162461bcd60e51b81526004016106ed9190612bb4565b50805461247990612ca6565b6000825580601f10612489575050565b601f016020900490600052602060002090810190610afc919061252b565b8280546124b390612ca6565b90600052602060002090601f0160209004810192826124d5576000855561251b565b82601f106124ee57805160ff191683800117855561251b565b8280016001018555821561251b579182015b8281111561251b578251825591602001919060010190612500565b5061252792915061252b565b5090565b5b80821115612527576000815560010161252c565b60006020828403121561255257600080fd5b81356001600160e01b031981168114610d3457600080fd5b634e487b7160e01b600052604160045260246000fd5b600067ffffffffffffffff8084111561259b5761259b61256a565b604051601f8501601f19908116603f011681019082821181831017156125c3576125c361256a565b816040528093508581528686860111156125dc57600080fd5b858560208301376000602087830101525050509392505050565b60006020828403121561260857600080fd5b813567ffffffffffffffff81111561261f57600080fd5b8201601f8101841361263057600080fd5b610fd484823560208401612580565b60006020828403121561265157600080fd5b5035919050565b80356001600160a01b038116811461266f57600080fd5b919050565b6000806040838503121561268757600080fd5b8235915061269760208401612658565b90509250929050565b6000602082840312156126b257600080fd5b610d3482612658565b600080604083850312156126ce57600080fd5b6126d783612658565b9150602083013567ffffffffffffffff8111156126f357600080fd5b8301601f8101851361270457600080fd5b61271385823560208401612580565b9150509250929050565b60008083601f84011261272f57600080fd5b50813567ffffffffffffffff81111561274757600080fd5b60208301915083602082850101111561275f57600080fd5b9250929050565b60008060006040848603121561277b57600080fd5b83359250602084013567ffffffffffffffff81111561279957600080fd5b6127a58682870161271d565b9497909650939450505050565b60008060008060008060c087890312156127cb57600080fd5b6127d487612658565b95506127e260208801612658565b95989597505050506040840135936060810135936080820135935060a0909101359150565b6000806040838503121561281a57600080fd5b50508035926020909101359150565b634e487b7160e01b600052602160045260246000fd5b60005b8381101561285a578181015183820152602001612842565b838111156122cc5750506000910152565b6000815180845261288381602086016020860161283f565b601f01601f19169290920160200192915050565b86815260208101869052604081018590526001600160a01b03841660608201526000600384106128d757634e487b7160e01b600052602160045260246000fd5b83608083015260c060a08301526128f160c083018461286b565b98975050505050505050565b60008060006040848603121561291257600080fd5b61291b84612658565b9250602084013567ffffffffffffffff81111561279957600080fd5b6020808252601f908201527f5265656e7472616e637947756172643a207265656e7472616e742063616c6c00604082015260600190565b634e487b7160e01b600052603260045260246000fd5b634e487b7160e01b600052601160045260246000fd5b6000828210156129ac576129ac612984565b500390565b634e487b7160e01b600052603160045260246000fd5b6020808252602c908201527f46756e6374696f6e206d7573742062652063616c6c6564207468726f7567682060408201526b19195b1959d85d1958d85b1b60a21b606082015260800190565b6020808252602c908201527f46756e6374696f6e206d7573742062652063616c6c6564207468726f7567682060408201526b6163746976652070726f787960a01b606082015260800190565b60008251612a7181846020870161283f565b9190910192915050565b600060208284031215612a8d57600080fd5b815160ff81168114610d3457600080fd5b600060ff821660ff841680821015612ab857612ab8612984565b90039392505050565b600181815b80851115612afc578160001904821115612ae257612ae2612984565b80851615612aef57918102915b93841c9390800290612ac6565b509250929050565b600082612b13575060016106c4565b81612b20575060006106c4565b8160018114612b365760028114612b4057612b5c565b60019150506106c4565b60ff841115612b5157612b51612984565b50506001821b6106c4565b5060208310610133831016604e8410600b8410161715612b7f575081810a6106c4565b612b898383612ac1565b8060001904821115612b9d57612b9d612984565b029392505050565b6000610d3460ff841683612b04565b602081526000610d34602083018461286b565b600060208284031215612bd957600080fd5b5051919050565b6000816000190483118215151615612bfa57612bfa612984565b500290565b600082612c1c57634e487b7160e01b600052601260045260246000fd5b500490565b8183823760009101908152919050565b60008219821115612c4457612c44612984565b500190565b60208082526037908201527f575141756374696f6e3a2041756374696f6e206f662074686973206c6f74206960408201527f732074656d706f726172696c792073757370656e646564000000000000000000606082015260800190565b600181811c90821680612cba57607f821691505b60208210811415612cdb57634e487b7160e01b600052602260045260246000fd5b50919050565b6001600160a01b0385168152602080820185905260408201849052608060608301528254600091908290600181811c9082811680612d2057607f831692505b858310811415612d3e57634e487b7160e01b85526022600452602485fd5b6080880183905260a08801818015612d5d5760018114612d6e57612d99565b60ff19861682528782019650612d99565b60008b81526020902060005b86811015612d9357815484820152908501908901612d7a565b83019750505b50949c9b505050505050505050505050565b7f416363657373436f6e74726f6c3a206163636f756e7420000000000000000000815260008351612de381601785016020880161283f565b7001034b99036b4b9b9b4b733903937b6329607d1b6017918401918201528351612e1481602884016020880161283f565b01602801949350505050565b6020808252602b908201527f496e697469616c697a61626c653a20636f6e7472616374206973206e6f74206960408201526a6e697469616c697a696e6760a81b606082015260800190565b600081612e7a57612e7a612984565b50600019019056fe189ab7a9244df0848122154315af71fe140f3db0fe014031783b0946b8c9d2e3360894a13ba1a3210667c828492db98dca3e2076cc3735a920a3ca505d382bbc416464726573733a206c6f772d6c6576656c2064656c65676174652063616c6c206661696c6564a49807205ce4d355092ef5a8a18f56e8913cf4a201fbe287825b095693c21775a2646970667358221220879689a98fe42a850f8d6de057fbd53bfb0ca3a25cbb8acc0b2e5adccd4c86e364736f6c63430008090033",
  "linkReferences": {},
  "deployedLinkReferences": {}
}