{
  "_format": "hh-sol-artifact-1",
  "contractName": "WQSurplusAuction",
  "sourceName": "contracts/stablecoin/WQSurplusAuction.sol",
  "abi": [
    {
      "inputs": [],
      "stateMutability": "nonpayable",
      "type": "constructor"
    },
    {
      "anonymous": false,
      "inputs": [
        {
          "indexed": false,
          "internalType": "address",
          "name": "previousAdmin",
          "type": "address"
        },
        {
          "indexed": false,
          "internalType": "address",
          "name": "newAdmin",
          "type": "address"
        }
      ],
      "name": "AdminChanged",
      "type": "event"
    },
    {
      "anonymous": false,
      "inputs": [
        {
          "indexed": false,
          "internalType": "uint256",
          "name": "index",
          "type": "uint256"
        },
        {
          "indexed": false,
          "internalType": "uint256",
          "name": "amount",
          "type": "uint256"
        }
      ],
      "name": "AuctionStarted",
      "type": "event"
    },
    {
      "anonymous": false,
      "inputs": [
        {
          "indexed": true,
          "internalType": "address",
          "name": "beacon",
          "type": "address"
        }
      ],
      "name": "BeaconUpgraded",
      "type": "event"
    },
    {
      "anonymous": false,
      "inputs": [
        {
          "indexed": false,
          "internalType": "uint256",
          "name": "index",
          "type": "uint256"
        },
        {
          "indexed": false,
          "internalType": "uint256",
          "name": "amount",
          "type": "uint256"
        }
      ],
      "name": "LotBuyed",
      "type": "event"
    },
    {
      "anonymous": false,
      "inputs": [
        {
          "indexed": false,
          "internalType": "uint256",
          "name": "index",
          "type": "uint256"
        },
        {
          "indexed": false,
          "internalType": "uint256",
          "name": "amount",
          "type": "uint256"
        }
      ],
      "name": "LotCanceled",
      "type": "event"
    },
    {
      "anonymous": false,
      "inputs": [
        {
          "indexed": false,
          "internalType": "address",
          "name": "account",
          "type": "address"
        }
      ],
      "name": "Paused",
      "type": "event"
    },
    {
      "anonymous": false,
      "inputs": [
        {
          "indexed": true,
          "internalType": "bytes32",
          "name": "role",
          "type": "bytes32"
        },
        {
          "indexed": true,
          "internalType": "bytes32",
          "name": "previousAdminRole",
          "type": "bytes32"
        },
        {
          "indexed": true,
          "internalType": "bytes32",
          "name": "newAdminRole",
          "type": "bytes32"
        }
      ],
      "name": "RoleAdminChanged",
      "type": "event"
    },
    {
      "anonymous": false,
      "inputs": [
        {
          "indexed": true,
          "internalType": "bytes32",
          "name": "role",
          "type": "bytes32"
        },
        {
          "indexed": true,
          "internalType": "address",
          "name": "account",
          "type": "address"
        },
        {
          "indexed": true,
          "internalType": "address",
          "name": "sender",
          "type": "address"
        }
      ],
      "name": "RoleGranted",
      "type": "event"
    },
    {
      "anonymous": false,
      "inputs": [
        {
          "indexed": true,
          "internalType": "bytes32",
          "name": "role",
          "type": "bytes32"
        },
        {
          "indexed": true,
          "internalType": "address",
          "name": "account",
          "type": "address"
        },
        {
          "indexed": true,
          "internalType": "address",
          "name": "sender",
          "type": "address"
        }
      ],
      "name": "RoleRevoked",
      "type": "event"
    },
    {
      "anonymous": false,
      "inputs": [
        {
          "indexed": false,
          "internalType": "address",
          "name": "account",
          "type": "address"
        }
      ],
      "name": "Unpaused",
      "type": "event"
    },
    {
      "anonymous": false,
      "inputs": [
        {
          "indexed": true,
          "internalType": "address",
          "name": "implementation",
          "type": "address"
        }
      ],
      "name": "Upgraded",
      "type": "event"
    },
    {
      "inputs": [],
      "name": "ADMIN_ROLE",
      "outputs": [
        {
          "internalType": "bytes32",
          "name": "",
          "type": "bytes32"
        }
      ],
      "stateMutability": "view",
      "type": "function"
    },
    {
      "inputs": [],
      "name": "DEFAULT_ADMIN_ROLE",
      "outputs": [
        {
          "internalType": "bytes32",
          "name": "",
          "type": "bytes32"
        }
      ],
      "stateMutability": "view",
      "type": "function"
    },
    {
      "inputs": [],
      "name": "UPGRADER_ROLE",
      "outputs": [
        {
          "internalType": "bytes32",
          "name": "",
          "type": "bytes32"
        }
      ],
      "stateMutability": "view",
      "type": "function"
    },
    {
      "inputs": [
        {
          "internalType": "uint256",
          "name": "",
          "type": "uint256"
        }
      ],
      "name": "amounts",
      "outputs": [
        {
          "internalType": "uint256",
          "name": "",
          "type": "uint256"
        }
      ],
      "stateMutability": "view",
      "type": "function"
    },
    {
      "inputs": [],
      "name": "auctionDuration",
      "outputs": [
        {
          "internalType": "uint256",
          "name": "",
          "type": "uint256"
        }
      ],
      "stateMutability": "view",
      "type": "function"
    },
    {
      "inputs": [
        {
          "internalType": "uint256",
          "name": "index",
          "type": "uint256"
        },
        {
          "internalType": "uint256",
          "name": "maxCost",
          "type": "uint256"
        }
      ],
      "name": "buyLot",
      "outputs": [],
      "stateMutability": "payable",
      "type": "function"
    },
    {
      "inputs": [
        {
          "internalType": "uint256",
          "name": "index",
          "type": "uint256"
        }
      ],
      "name": "cancelLot",
      "outputs": [],
      "stateMutability": "nonpayable",
      "type": "function"
    },
    {
      "inputs": [
        {
          "internalType": "uint256",
          "name": "index",
          "type": "uint256"
        }
      ],
      "name": "getCurrentLotCost",
      "outputs": [
        {
          "internalType": "uint256",
          "name": "",
          "type": "uint256"
        }
      ],
      "stateMutability": "view",
      "type": "function"
    },
    {
      "inputs": [
        {
          "internalType": "bytes32",
          "name": "role",
          "type": "bytes32"
        }
      ],
      "name": "getRoleAdmin",
      "outputs": [
        {
          "internalType": "bytes32",
          "name": "",
          "type": "bytes32"
        }
      ],
      "stateMutability": "view",
      "type": "function"
    },
    {
      "inputs": [
        {
          "internalType": "string",
          "name": "symbol",
          "type": "string"
        }
      ],
      "name": "getSurplusAmount",
      "outputs": [
        {
          "internalType": "uint256",
          "name": "",
          "type": "uint256"
        }
      ],
      "stateMutability": "view",
      "type": "function"
    },
    {
      "inputs": [
        {
          "internalType": "bytes32",
          "name": "role",
          "type": "bytes32"
        },
        {
          "internalType": "address",
          "name": "account",
          "type": "address"
        }
      ],
      "name": "grantRole",
      "outputs": [],
      "stateMutability": "nonpayable",
      "type": "function"
    },
    {
      "inputs": [
        {
          "internalType": "bytes32",
          "name": "role",
          "type": "bytes32"
        },
        {
          "internalType": "address",
          "name": "account",
          "type": "address"
        }
      ],
      "name": "hasRole",
      "outputs": [
        {
          "internalType": "bool",
          "name": "",
          "type": "bool"
        }
      ],
      "stateMutability": "view",
      "type": "function"
    },
    {
      "inputs": [
        {
          "internalType": "address",
          "name": "_oracle",
          "type": "address"
        },
        {
          "internalType": "address",
          "name": "_router",
          "type": "address"
        },
        {
          "internalType": "uint256",
          "name": "_auctionDuration",
          "type": "uint256"
        },
        {
          "internalType": "uint256",
          "name": "_upperBoundCost",
          "type": "uint256"
        },
        {
          "internalType": "uint256",
          "name": "_lowerBoundCost",
          "type": "uint256"
        },
        {
          "internalType": "uint256",
          "name": "_maxLotAmountFactor",
          "type": "uint256"
        }
      ],
      "name": "initialize",
      "outputs": [],
      "stateMutability": "nonpayable",
      "type": "function"
    },
    {
      "inputs": [
        {
          "internalType": "uint256",
          "name": "",
          "type": "uint256"
        }
      ],
      "name": "lots",
      "outputs": [
        {
          "internalType": "uint256",
          "name": "index",
          "type": "uint256"
        },
        {
          "internalType": "uint256",
          "name": "amount",
          "type": "uint256"
        },
        {
          "internalType": "uint256",
          "name": "endTime",
          "type": "uint256"
        },
        {
          "internalType": "uint256",
          "name": "price",
          "type": "uint256"
        },
        {
          "internalType": "enum WQSurplusAuction.LotStatus",
          "name": "status",
          "type": "uint8"
        },
        {
          "internalType": "string",
          "name": "symbol",
          "type": "string"
        }
      ],
      "stateMutability": "view",
      "type": "function"
    },
    {
      "inputs": [],
      "name": "lowerBoundCost",
      "outputs": [
        {
          "internalType": "uint256",
          "name": "",
          "type": "uint256"
        }
      ],
      "stateMutability": "view",
      "type": "function"
    },
    {
      "inputs": [],
      "name": "maxLotAmountFactor",
      "outputs": [
        {
          "internalType": "uint256",
          "name": "",
          "type": "uint256"
        }
      ],
      "stateMutability": "view",
      "type": "function"
    },
    {
      "inputs": [],
      "name": "oracle",
      "outputs": [
        {
          "internalType": "contract WQPriceOracleInterface",
          "name": "",
          "type": "address"
        }
      ],
      "stateMutability": "view",
      "type": "function"
    },
    {
      "inputs": [],
      "name": "pause",
      "outputs": [],
      "stateMutability": "nonpayable",
      "type": "function"
    },
    {
      "inputs": [],
      "name": "paused",
      "outputs": [
        {
          "internalType": "bool",
          "name": "",
          "type": "bool"
        }
      ],
      "stateMutability": "view",
      "type": "function"
    },
    {
      "inputs": [],
      "name": "proxiableUUID",
      "outputs": [
        {
          "internalType": "bytes32",
          "name": "",
          "type": "bytes32"
        }
      ],
      "stateMutability": "view",
      "type": "function"
    },
    {
      "inputs": [
        {
          "internalType": "bytes32",
          "name": "role",
          "type": "bytes32"
        },
        {
          "internalType": "address",
          "name": "account",
          "type": "address"
        }
      ],
      "name": "renounceRole",
      "outputs": [],
      "stateMutability": "nonpayable",
      "type": "function"
    },
    {
      "inputs": [
        {
          "internalType": "bytes32",
          "name": "role",
          "type": "bytes32"
        },
        {
          "internalType": "address",
          "name": "account",
          "type": "address"
        }
      ],
      "name": "revokeRole",
      "outputs": [],
      "stateMutability": "nonpayable",
      "type": "function"
    },
    {
      "inputs": [],
      "name": "router",
      "outputs": [
        {
          "internalType": "contract WQRouterInterface",
          "name": "",
          "type": "address"
        }
      ],
      "stateMutability": "view",
      "type": "function"
    },
    {
      "inputs": [
        {
          "internalType": "uint256",
          "name": "duration",
          "type": "uint256"
        }
      ],
      "name": "setAuctionDuration",
      "outputs": [],
      "stateMutability": "nonpayable",
      "type": "function"
    },
    {
      "inputs": [
        {
          "internalType": "uint256",
          "name": "percent",
          "type": "uint256"
        }
      ],
      "name": "setLowerBoundCost",
      "outputs": [],
      "stateMutability": "nonpayable",
      "type": "function"
    },
    {
      "inputs": [
        {
          "internalType": "uint256",
          "name": "percent",
          "type": "uint256"
        }
      ],
      "name": "setMaxLotAmountFactor",
      "outputs": [],
      "stateMutability": "nonpayable",
      "type": "function"
    },
    {
      "inputs": [
        {
          "internalType": "address",
          "name": "_oracle",
          "type": "address"
        }
      ],
      "name": "setOracle",
      "outputs": [],
      "stateMutability": "nonpayable",
      "type": "function"
    },
    {
      "inputs": [
        {
          "internalType": "address",
          "name": "_router",
          "type": "address"
        }
      ],
      "name": "setRouter",
      "outputs": [],
      "stateMutability": "nonpayable",
      "type": "function"
    },
    {
      "inputs": [
        {
          "internalType": "address",
          "name": "token",
          "type": "address"
        },
        {
          "internalType": "string",
          "name": "symbol",
          "type": "string"
        }
      ],
      "name": "setToken",
      "outputs": [],
      "stateMutability": "nonpayable",
      "type": "function"
    },
    {
      "inputs": [
        {
          "internalType": "uint256",
          "name": "percent",
          "type": "uint256"
        }
      ],
      "name": "setUpperBoundCost",
      "outputs": [],
      "stateMutability": "nonpayable",
      "type": "function"
    },
    {
      "inputs": [
        {
          "internalType": "uint256",
          "name": "amount",
          "type": "uint256"
        },
        {
          "internalType": "string",
          "name": "symbol",
          "type": "string"
        }
      ],
      "name": "startAuction",
      "outputs": [],
      "stateMutability": "nonpayable",
      "type": "function"
    },
    {
      "inputs": [
        {
          "internalType": "bytes4",
          "name": "interfaceId",
          "type": "bytes4"
        }
      ],
      "name": "supportsInterface",
      "outputs": [
        {
          "internalType": "bool",
          "name": "",
          "type": "bool"
        }
      ],
      "stateMutability": "view",
      "type": "function"
    },
    {
      "inputs": [
        {
          "internalType": "string",
          "name": "",
          "type": "string"
        }
      ],
      "name": "tokens",
      "outputs": [
        {
          "internalType": "contract IERC20MetadataUpgradeable",
          "name": "",
          "type": "address"
        }
      ],
      "stateMutability": "view",
      "type": "function"
    },
    {
      "inputs": [],
      "name": "totalAuctioned",
      "outputs": [
        {
          "internalType": "uint256",
          "name": "",
          "type": "uint256"
        }
      ],
      "stateMutability": "view",
      "type": "function"
    },
    {
      "inputs": [],
      "name": "unpause",
      "outputs": [],
      "stateMutability": "nonpayable",
      "type": "function"
    },
    {
      "inputs": [
        {
          "internalType": "address",
          "name": "newImplementation",
          "type": "address"
        }
      ],
      "name": "upgradeTo",
      "outputs": [],
      "stateMutability": "nonpayable",
      "type": "function"
    },
    {
      "inputs": [
        {
          "internalType": "address",
          "name": "newImplementation",
          "type": "address"
        },
        {
          "internalType": "bytes",
          "name": "data",
          "type": "bytes"
        }
      ],
      "name": "upgradeToAndCall",
      "outputs": [],
      "stateMutability": "payable",
      "type": "function"
    },
    {
      "inputs": [],
      "name": "upperBoundCost",
      "outputs": [
        {
          "internalType": "uint256",
          "name": "",
          "type": "uint256"
        }
      ],
      "stateMutability": "view",
      "type": "function"
    }
  ],
  "bytecode": "0x60a0604052306080523480156200001557600080fd5b50600054610100900460ff16620000335760005460ff16156200003d565b6200003d620000e2565b620000a55760405162461bcd60e51b815260206004820152602e60248201527f496e697469616c697a61626c653a20636f6e747261637420697320616c72656160448201526d191e481a5b9a5d1a585b1a5e995960921b606482015260840160405180910390fd5b600054610100900460ff16158015620000c8576000805461ffff19166101011790555b8015620000db576000805461ff00191690555b506200010f565b6000620000fa306200010060201b62001d961760201c565b15905090565b6001600160a01b03163b151590565b6080516132eb6200014760003960008181610aaa01528181610aea01528181610bcd01528181610c0d0152610c9c01526132eb6000f3fe6080604052600436106102255760003560e01c806375f4442e11610123578063b32fdcea116100ab578063f72c0d8b1161006f578063f72c0d8b14610665578063f887ea4014610687578063fdad53db146106a8578063ff2ab229146106c8578063ffb67186146106df57600080fd5b8063b32fdcea146105c0578063c0d78655146105d3578063d547741f146105f3578063e2a07a0714610613578063f1648e841461063357600080fd5b80638456cb59116100f25780638456cb591461053657806386489ba91461054b57806391d148541461056b578063a217fddf1461058b578063a497e674146105a057600080fd5b806375f4442e146104b55780637adbf973146104d55780637bb8e8bc146104f55780637dc0d1d01461051557600080fd5b80633f4ba83a116101b1578063535bb86711610175578063535bb8671461041b578063541556cc1461043b5780635c975abb1461045b57806364ad7ad71461047357806375b238fc1461049357600080fd5b80633f4ba83a146103a7578063403b74ed146103bc57806345f0a44f146103d35780634f1ef286146103f357806352d1902d1461040657600080fd5b806323469c4e116101f857806323469c4e14610300578063248a9ca3146103175780632f2ff15d1461034757806336568abe146103675780633659cfe61461038757600080fd5b806301ffc9a71461022a57806304c2320b1461025f5780630a180f27146102b95780630cbf54c8146102db575b600080fd5b34801561023657600080fd5b5061024a6102453660046128d5565b6106f6565b60405190151581526020015b60405180910390f35b34801561026b57600080fd5b506102a161027a36600461298b565b8051602081830181018051610166825292820191909301209152546001600160a01b031681565b6040516001600160a01b039091168152602001610256565b3480156102c557600080fd5b506102d96102d43660046129d4565b61072d565b005b3480156102e757600080fd5b506102f26101615481565b604051908152602001610256565b34801561030c57600080fd5b506102f26101645481565b34801561032357600080fd5b506102f26103323660046129d4565b60009081526065602052604090206001015490565b34801561035357600080fd5b506102d9610362366004612a09565b6109f6565b34801561037357600080fd5b506102d9610382366004612a09565b610a21565b34801561039357600080fd5b506102d96103a2366004612a35565b610a9f565b3480156103b357600080fd5b506102d9610b7f565b3480156103c857600080fd5b506102f26101625481565b3480156103df57600080fd5b506102f26103ee3660046129d4565b610ba0565b6102d9610401366004612a50565b610bc2565b34801561041257600080fd5b506102f2610c8f565b34801561042757600080fd5b506102f26104363660046129d4565b610d42565b34801561044757600080fd5b506102f261045636600461298b565b610dd5565b34801561046757600080fd5b5060975460ff1661024a565b34801561047f57600080fd5b506102d961048e3660046129d4565b611080565b34801561049f57600080fd5b506102f260008051602061329683398151915281565b3480156104c157600080fd5b506102d96104d03660046129d4565b6110a0565b3480156104e157600080fd5b506102d96104f0366004612a35565b6110c0565b34801561050157600080fd5b506102d9610510366004612afb565b6110fd565b34801561052157600080fd5b5061015f546102a1906001600160a01b031681565b34801561054257600080fd5b506102d961163c565b34801561055757600080fd5b506102d9610566366004612b47565b61165d565b34801561057757600080fd5b5061024a610586366004612a09565b6117e7565b34801561059757600080fd5b506102f2600081565b3480156105ac57600080fd5b506102d96105bb3660046129d4565b611812565b6102d96105ce366004612b9c565b611832565b3480156105df57600080fd5b506102d96105ee366004612a35565b611beb565b3480156105ff57600080fd5b506102d961060e366004612a09565b611c28565b34801561061f57600080fd5b506102d961062e3660046129d4565b611c4e565b34801561063f57600080fd5b5061065361064e3660046129d4565b611c6e565b60405161025696959493929190612c2c565b34801561067157600080fd5b506102f260008051602061322f83398151915281565b34801561069357600080fd5b50610160546102a1906001600160a01b031681565b3480156106b457600080fd5b506102d96106c3366004612c87565b611d34565b3480156106d457600080fd5b506102f26101635481565b3480156106eb57600080fd5b506102f26101655481565b60006001600160e01b03198216637965db0b60e01b148061072757506301ffc9a760e01b6001600160e01b03198316145b92915050565b600260c95414156107595760405162461bcd60e51b815260040161075090612cc1565b60405180910390fd5b600260c95560975460ff16156107815760405162461bcd60e51b815260040161075090612cf8565b6000818152610167602052604090206001600482015460ff1660028111156107ab576107ab612bbe565b146107f85760405162461bcd60e51b815260206004820152601f60248201527f575141756374696f6e3a204c6f74206973206e6f742061756374696f6e6564006044820152606401610750565b8060020154421161085b5760405162461bcd60e51b815260206004820152602760248201527f575141756374696f6e3a2041756374696f6e2074696d65206973206e6f74206f6044820152661d995c881e595d60ca1b6064820152608401610750565b806001015461016882600001548154811061087857610878612d22565b906000526020600020015414156109ed57806001015461016560008282546108a09190612d4e565b9091555050805460018201546040517f2f5d6db7bddb2094476f65b2865180ce1888601bc9e022cab86d994a487af9a0926108e392908252602082015260400190565b60405180910390a161016880546108fc90600190612d4e565b8154811061090c5761090c612d22565b906000526020600020015461016882600001548154811061092f5761092f612d22565b90600052602060002001819055508060000154610167600061016884600001548154811061095f5761095f612d22565b906000526020600020015481526020019081526020016000206000018190555061016880548061099157610991612d65565b60008281526020808220830160001990810183905590920190925583825261016790526040812081815560018101829055600281018290556003810182905560048101805460ff19169055906109ea6005830182612802565b50505b5050600160c955565b600082815260656020526040902060010154610a128133611da5565b610a1c8383611e09565b505050565b6001600160a01b0381163314610a915760405162461bcd60e51b815260206004820152602f60248201527f416363657373436f6e74726f6c3a2063616e206f6e6c792072656e6f756e636560448201526e103937b632b9903337b91039b2b63360891b6064820152608401610750565b610a9b8282611e8f565b5050565b306001600160a01b037f0000000000000000000000000000000000000000000000000000000000000000161415610ae85760405162461bcd60e51b815260040161075090612d7b565b7f00000000000000000000000000000000000000000000000000000000000000006001600160a01b0316610b3160008051602061324f833981519152546001600160a01b031690565b6001600160a01b031614610b575760405162461bcd60e51b815260040161075090612dc7565b610b6081611ef6565b60408051600080825260208201909252610b7c91839190611f0f565b50565b600080516020613296833981519152610b988133611da5565b610b7c612089565b6101688181548110610bb157600080fd5b600091825260209091200154905081565b306001600160a01b037f0000000000000000000000000000000000000000000000000000000000000000161415610c0b5760405162461bcd60e51b815260040161075090612d7b565b7f00000000000000000000000000000000000000000000000000000000000000006001600160a01b0316610c5460008051602061324f833981519152546001600160a01b031690565b6001600160a01b031614610c7a5760405162461bcd60e51b815260040161075090612dc7565b610c8382611ef6565b610a9b82826001611f0f565b6000306001600160a01b037f00000000000000000000000000000000000000000000000000000000000000001614610d2f5760405162461bcd60e51b815260206004820152603860248201527f555550535570677261646561626c653a206d757374206e6f742062652063616c60448201527f6c6564207468726f7567682064656c656761746563616c6c00000000000000006064820152608401610750565b5060008051602061324f83398151915290565b6000818152610167602052604081206001600482015460ff166002811115610d6c57610d6c612bbe565b14610dc55760405162461bcd60e51b8152602060048201526024808201527f575141756374696f6e3a2054686973206c6f74206973206e6f742061756374696044820152631bdb995960e21b6064820152608401610750565b610dce8161211c565b9392505050565b60008061016683604051610de99190612e13565b90815260408051602092819003830181205463313ce56760e01b825291516001600160a01b039092169263313ce56792600480840193829003018186803b158015610e3357600080fd5b505afa158015610e47573d6000803e3d6000fd5b505050506040513d601f19601f82011682018060405250810190610e6b9190612e2f565b610e76906012612e52565b610e8190600a612f59565b61015f54604051630292e0fd60e01b81526001600160a01b0390911690630292e0fd90610eb2908790600401612f68565b60206040518083038186803b158015610eca57600080fd5b505afa158015610ede573d6000803e3d6000fd5b505050506040513d601f19601f82011682018060405250810190610f029190612f7b565b61016054604051632ed4877d60e21b81526001600160a01b039091169063bb521df490610f33908890600401612f68565b60206040518083038186803b158015610f4b57600080fd5b505afa158015610f5f573d6000803e3d6000fd5b505050506040513d601f19601f82011682018060405250810190610f839190612f7b565b610f8d9190612f94565b610f979190612f94565b61016054604051638c1e06f160e01b81529192506000916001600160a01b0390911690638c1e06f190610fce908790600401612f68565b60206040518083038186803b158015610fe657600080fd5b505afa158015610ffa573d6000803e3d6000fd5b505050506040513d601f19601f8201168201806040525081019061101e9190612f7b565b9050806729a2241af62c0000611035846002612f94565b61103f9190612fb3565b111561107657806729a2241af62c000061105a846002612f94565b6110649190612fb3565b61106e9190612d4e565b949350505050565b5060009392505050565b6000805160206132968339815191526110998133611da5565b5061016255565b6000805160206132968339815191526110b98133611da5565b5061016455565b6000805160206132968339815191526110d98133611da5565b5061015f80546001600160a01b0319166001600160a01b0392909216919091179055565b600260c95414156111205760405162461bcd60e51b815260040161075090612cc1565b600260c95560975460ff16156111485760405162461bcd60e51b815260040161075090612cf8565b60006001600160a01b03166101668383604051611166929190612fd5565b908152604051908190036020019020546001600160a01b031614156111d75760405162461bcd60e51b815260206004820152602160248201527f575141756374696f6e3a205468697320746f6b656e2069732064697361626c656044820152601960fa1b6064820152608401610750565b600083116112315760405162461bcd60e51b815260206004820152602160248201527f575141756374696f6e3a20496e636f727265637420616d6f756e742076616c756044820152606560f81b6064820152608401610750565b60016000848152610167602052604090206004015460ff16600281111561125a5761125a612bbe565b14156112c6576000838152610167602052604090206002015442116112c15760405162461bcd60e51b815260206004820152601f60248201527f575141756374696f6e3a204c6f742069732061756374696f6e656420796574006044820152606401610750565b6112df565b8261016560008282546112d99190612fe5565b90915550505b600061132083838080601f016020809104026020016040519081016040528093929190818152602001838380828437600092019190915250610dd592505050565b9050806101655411156113945760405162461bcd60e51b815260206004820152603660248201527f575141756374696f6e3a20416d6f756e74206f66206269642069732067726561604482015275746572207468616e20746f74616c20737572706c757360501b6064820152608401610750565b61016454816113ab86670de0b6b3a7640000612f94565b6113b59190612fb3565b11156113d35760405162461bcd60e51b815260040161075090612ffd565b6000848152610167602052604090205461016854811015806114245750600085815261016760205260409020546101688054879290811061141657611416612d22565b906000526020600020015414155b156114705761016880546001818101835560008390527f8077777ae4769de06cbfd1c0b8b1f653b51ec156d91a9aca16a4102f19e03d9e909101879055905461146d9190612d4e565b90505b6040518060c0016040528082815260200186815260200161016154426114969190612fe5565b815261015f54604051630292e0fd60e01b8152602060048201819052600360248301526215d45560ea1b6044830152909201916001600160a01b0390911690630292e0fd9060640160206040518083038186803b1580156114f657600080fd5b505afa15801561150a573d6000803e3d6000fd5b505050506040513d601f19601f8201168201806040525081019061152e9190612f7b565b81526020016001815260200185858080601f016020809104026020016040519081016040528093929190818152602001838380828437600092018290525093909452505087815261016760209081526040918290208451815590840151600180830191909155918401516002808301919091556060850151600383015560808501516004830180549395509093909260ff19169184908111156115d3576115d3612bbe565b021790555060a082015180516115f391600584019160209091019061283c565b505060408051838152602081018890527ff8910119ddbef5440c54532457dfe8250a10ed39e583292818f44724b9e1344c9250015b60405180910390a15050600160c955505050565b6000805160206132968339815191526116558133611da5565b610b7c612184565b600054610100900460ff166116785760005460ff161561167c565b303b155b6116df5760405162461bcd60e51b815260206004820152602e60248201527f496e697469616c697a61626c653a20636f6e747261637420697320616c72656160448201526d191e481a5b9a5d1a585b1a5e995960921b6064820152608401610750565b600054610100900460ff16158015611701576000805461ffff19166101011790555b6117096121dc565b611711612205565b611719612234565b6117216121dc565b61172c600033612263565b61174460008051602061329683398151915233612263565b61175c60008051602061322f83398151915233612263565b61178260008051602061322f83398151915260008051602061329683398151915261226d565b61015f80546001600160a01b03808a166001600160a01b03199283161790925561016080549289169290911691909117905561016185905561016284905561016383905561016482905580156117de576000805461ff00191690555b50505050505050565b60009182526065602090815260408084206001600160a01b0393909316845291905290205460ff1690565b60008051602061329683398151915261182b8133611da5565b5061016155565b600260c95414156118555760405162461bcd60e51b815260040161075090612cc1565b600260c95560975460ff161561187d5760405162461bcd60e51b815260040161075090612cf8565b6000828152610167602052604090206001600482015460ff1660028111156118a7576118a7612bbe565b146118f45760405162461bcd60e51b815260206004820152601f60248201527f575141756374696f6e3a204c6f74206973206e6f742061756374696f6e6564006044820152606401610750565b80600201544211156119485760405162461bcd60e51b815260206004820152601f60248201527f575141756374696f6e3a2041756374696f6e2074696d65206973206f766572006044820152606401610750565b60006119df82600501805461195c9061305a565b80601f01602080910402602001604051908101604052809291908181526020018280546119889061305a565b80156119d55780601f106119aa576101008083540402835291602001916119d5565b820191906000526020600020905b8154815290600101906020018083116119b857829003601f168201915b5050505050610dd5565b9050600081118015611a16575061016454818360010154670de0b6b3a7640000611a099190612f94565b611a139190612fb3565b11155b611a325760405162461bcd60e51b815260040161075090612ffd565b6000611a3d8361211c565b90508315611aa85783811115611aa85760405162461bcd60e51b815260206004820152602a60248201527f575141756374696f6e3a2043757272656e7420636f73742069732067726561746044820152696572206d6178696d756d60b01b6064820152608401610750565b80341015611af85760405162461bcd60e51b815260206004820152601c60248201527f575141756374696f6e3a20496e737566696369656e742076616c7565000000006044820152606401610750565b82600101546101656000828254611b0f9190612d4e565b90915550506004838101805460ff1916600217905561016054600185015460405163aa87441f60e01b81526001600160a01b039092169263aa87441f928592611b5f92339260058b019101613095565b6000604051808303818588803b158015611b7857600080fd5b505af1158015611b8c573d6000803e3d6000fd5b505050505080341115611bad57611bad611ba68234612d4e565b33906122b8565b825460018401546040517fd6e7678fa971a6655c284a5ed1b69b1419aecc0c105b8ddecf55a73ef0076c799261162892908252602082015260400190565b600080516020613296833981519152611c048133611da5565b5061016080546001600160a01b0319166001600160a01b0392909216919091179055565b600082815260656020526040902060010154611c448133611da5565b610a1c8383611e8f565b600080516020613296833981519152611c678133611da5565b5061016355565b61016760205260009081526040902080546001820154600283015460038401546004850154600586018054959694959394929360ff9092169291611cb19061305a565b80601f0160208091040260200160405190810160405280929190818152602001828054611cdd9061305a565b8015611d2a5780601f10611cff57610100808354040283529160200191611d2a565b820191906000526020600020905b815481529060010190602001808311611d0d57829003601f168201915b5050505050905086565b600080516020613296833981519152611d4d8133611da5565b836101668484604051611d61929190612fd5565b90815260405190819003602001902080546001600160a01b03929092166001600160a01b031990921691909117905550505050565b6001600160a01b03163b151590565b611daf82826117e7565b610a9b57611dc7816001600160a01b031660146123d1565b611dd28360206123d1565b604051602001611de3929190613157565b60408051601f198184030181529082905262461bcd60e51b825261075091600401612f68565b611e1382826117e7565b610a9b5760008281526065602090815260408083206001600160a01b03851684529091529020805460ff19166001179055611e4b3390565b6001600160a01b0316816001600160a01b0316837f2f8788117e7eff1d82e926ec794901d17c78024a50270940304540a733656f0d60405160405180910390a45050565b611e9982826117e7565b15610a9b5760008281526065602090815260408083206001600160a01b0385168085529252808320805460ff1916905551339285917ff6391f5c32d9c69d2a47ea670b442974b53935d1edc7fd64eb21e047a839171b9190a45050565b60008051602061322f833981519152610a9b8133611da5565b7f4910fdfa16fed3260ed0e7147f7cc6da11a60208b5b9406d12a635614ffd91435460ff1615611f4257610a1c8361256d565b826001600160a01b03166352d1902d6040518163ffffffff1660e01b815260040160206040518083038186803b158015611f7b57600080fd5b505afa925050508015611fab575060408051601f3d908101601f19168201909252611fa891810190612f7b565b60015b61200e5760405162461bcd60e51b815260206004820152602e60248201527f45524331393637557067726164653a206e657720696d706c656d656e7461746960448201526d6f6e206973206e6f74205555505360901b6064820152608401610750565b60008051602061324f833981519152811461207d5760405162461bcd60e51b815260206004820152602960248201527f45524331393637557067726164653a20756e737570706f727465642070726f786044820152681a58589b195555525160ba1b6064820152608401610750565b50610a1c838383612609565b60975460ff166120d25760405162461bcd60e51b815260206004820152601460248201527314185d5cd8589b194e881b9bdd081c185d5cd95960621b6044820152606401610750565b6097805460ff191690557f5db9ee0a495bf2e6ff9c91a7834c1ba4fdd244a5e8aa4e537bd38aeae4b073aa335b6040516001600160a01b03909116815260200160405180910390a1565b6000816003015482600101546101615442856002015461213c9190612d4e565b610163546101625461214e9190612d4e565b6121589190612f94565b6121629190612fb3565b610163546121709190612fe5565b61217a9190612f94565b6107279190612fb3565b60975460ff16156121a75760405162461bcd60e51b815260040161075090612cf8565b6097805460ff191660011790557f62e78cea01bee320cd4e420270b5ea74000d11b0c9f74754ebdbfc544b05a2586120ff3390565b600054610100900460ff166122035760405162461bcd60e51b8152600401610750906131cc565b565b600054610100900460ff1661222c5760405162461bcd60e51b8152600401610750906131cc565b612203612634565b600054610100900460ff1661225b5760405162461bcd60e51b8152600401610750906131cc565b612203612667565b610a9b8282611e09565b600082815260656020526040808220600101805490849055905190918391839186917fbd79b86ffe0ab8e8776151514217cd7cacd52c909f66475c3af44e129f0b00ff9190a4505050565b804710156123085760405162461bcd60e51b815260206004820152601d60248201527f416464726573733a20696e73756666696369656e742062616c616e63650000006044820152606401610750565b6000826001600160a01b03168260405160006040518083038185875af1925050503d8060008114612355576040519150601f19603f3d011682016040523d82523d6000602084013e61235a565b606091505b5050905080610a1c5760405162461bcd60e51b815260206004820152603a60248201527f416464726573733a20756e61626c6520746f2073656e642076616c75652c207260448201527f6563697069656e74206d617920686176652072657665727465640000000000006064820152608401610750565b606060006123e0836002612f94565b6123eb906002612fe5565b67ffffffffffffffff811115612403576124036128ff565b6040519080825280601f01601f19166020018201604052801561242d576020820181803683370190505b509050600360fc1b8160008151811061244857612448612d22565b60200101906001600160f81b031916908160001a905350600f60fb1b8160018151811061247757612477612d22565b60200101906001600160f81b031916908160001a905350600061249b846002612f94565b6124a6906001612fe5565b90505b600181111561251e576f181899199a1a9b1b9c1cb0b131b232b360811b85600f16601081106124da576124da612d22565b1a60f81b8282815181106124f0576124f0612d22565b60200101906001600160f81b031916908160001a90535060049490941c9361251781613217565b90506124a9565b508315610dce5760405162461bcd60e51b815260206004820181905260248201527f537472696e67733a20686578206c656e67746820696e73756666696369656e746044820152606401610750565b6001600160a01b0381163b6125da5760405162461bcd60e51b815260206004820152602d60248201527f455243313936373a206e657720696d706c656d656e746174696f6e206973206e60448201526c1bdd08184818dbdb9d1c9858dd609a1b6064820152608401610750565b60008051602061324f83398151915280546001600160a01b0319166001600160a01b0392909216919091179055565b61261283612695565b60008251118061261f5750805b15610a1c5761262e83836126d5565b50505050565b600054610100900460ff1661265b5760405162461bcd60e51b8152600401610750906131cc565b6097805460ff19169055565b600054610100900460ff1661268e5760405162461bcd60e51b8152600401610750906131cc565b600160c955565b61269e8161256d565b6040516001600160a01b038216907fbc7cd75a20ee27fd9adebab32041f755214dbc6bffa90cc0225b39da2e5c2d3b90600090a250565b60606001600160a01b0383163b61273d5760405162461bcd60e51b815260206004820152602660248201527f416464726573733a2064656c65676174652063616c6c20746f206e6f6e2d636f6044820152651b9d1c9858dd60d21b6064820152608401610750565b600080846001600160a01b0316846040516127589190612e13565b600060405180830381855af49150503d8060008114612793576040519150601f19603f3d011682016040523d82523d6000602084013e612798565b606091505b50915091506127c0828260405180606001604052806027815260200161326f602791396127c9565b95945050505050565b606083156127d8575081610dce565b8251156127e85782518084602001fd5b8160405162461bcd60e51b81526004016107509190612f68565b50805461280e9061305a565b6000825580601f1061281e575050565b601f016020900490600052602060002090810190610b7c91906128c0565b8280546128489061305a565b90600052602060002090601f01602090048101928261286a57600085556128b0565b82601f1061288357805160ff19168380011785556128b0565b828001600101855582156128b0579182015b828111156128b0578251825591602001919060010190612895565b506128bc9291506128c0565b5090565b5b808211156128bc57600081556001016128c1565b6000602082840312156128e757600080fd5b81356001600160e01b031981168114610dce57600080fd5b634e487b7160e01b600052604160045260246000fd5b600067ffffffffffffffff80841115612930576129306128ff565b604051601f8501601f19908116603f01168101908282118183101715612958576129586128ff565b8160405280935085815286868601111561297157600080fd5b858560208301376000602087830101525050509392505050565b60006020828403121561299d57600080fd5b813567ffffffffffffffff8111156129b457600080fd5b8201601f810184136129c557600080fd5b61106e84823560208401612915565b6000602082840312156129e657600080fd5b5035919050565b80356001600160a01b0381168114612a0457600080fd5b919050565b60008060408385031215612a1c57600080fd5b82359150612a2c602084016129ed565b90509250929050565b600060208284031215612a4757600080fd5b610dce826129ed565b60008060408385031215612a6357600080fd5b612a6c836129ed565b9150602083013567ffffffffffffffff811115612a8857600080fd5b8301601f81018513612a9957600080fd5b612aa885823560208401612915565b9150509250929050565b60008083601f840112612ac457600080fd5b50813567ffffffffffffffff811115612adc57600080fd5b602083019150836020828501011115612af457600080fd5b9250929050565b600080600060408486031215612b1057600080fd5b83359250602084013567ffffffffffffffff811115612b2e57600080fd5b612b3a86828701612ab2565b9497909650939450505050565b60008060008060008060c08789031215612b6057600080fd5b612b69876129ed565b9550612b77602088016129ed565b95989597505050506040840135936060810135936080820135935060a0909101359150565b60008060408385031215612baf57600080fd5b50508035926020909101359150565b634e487b7160e01b600052602160045260246000fd5b60005b83811015612bef578181015183820152602001612bd7565b8381111561262e5750506000910152565b60008151808452612c18816020860160208601612bd4565b601f01601f19169290920160200192915050565b868152856020820152846040820152836060820152600060038410612c6157634e487b7160e01b600052602160045260246000fd5b83608083015260c060a0830152612c7b60c0830184612c00565b98975050505050505050565b600080600060408486031215612c9c57600080fd5b612ca5846129ed565b9250602084013567ffffffffffffffff811115612b2e57600080fd5b6020808252601f908201527f5265656e7472616e637947756172643a207265656e7472616e742063616c6c00604082015260600190565b60208082526010908201526f14185d5cd8589b194e881c185d5cd95960821b604082015260600190565b634e487b7160e01b600052603260045260246000fd5b634e487b7160e01b600052601160045260246000fd5b600082821015612d6057612d60612d38565b500390565b634e487b7160e01b600052603160045260246000fd5b6020808252602c908201527f46756e6374696f6e206d7573742062652063616c6c6564207468726f7567682060408201526b19195b1959d85d1958d85b1b60a21b606082015260800190565b6020808252602c908201527f46756e6374696f6e206d7573742062652063616c6c6564207468726f7567682060408201526b6163746976652070726f787960a01b606082015260800190565b60008251612e25818460208701612bd4565b9190910192915050565b600060208284031215612e4157600080fd5b815160ff81168114610dce57600080fd5b600060ff821660ff841680821015612e6c57612e6c612d38565b90039392505050565b600181815b80851115612eb0578160001904821115612e9657612e96612d38565b80851615612ea357918102915b93841c9390800290612e7a565b509250929050565b600082612ec757506001610727565b81612ed457506000610727565b8160018114612eea5760028114612ef457612f10565b6001915050610727565b60ff841115612f0557612f05612d38565b50506001821b610727565b5060208310610133831016604e8410600b8410161715612f33575081810a610727565b612f3d8383612e75565b8060001904821115612f5157612f51612d38565b029392505050565b6000610dce60ff841683612eb8565b602081526000610dce6020830184612c00565b600060208284031215612f8d57600080fd5b5051919050565b6000816000190483118215151615612fae57612fae612d38565b500290565b600082612fd057634e487b7160e01b600052601260045260246000fd5b500490565b8183823760009101908152919050565b60008219821115612ff857612ff8612d38565b500190565b60208082526037908201527f575141756374696f6e3a2041756374696f6e206f662074686973206c6f74206960408201527f732074656d706f726172696c792073757370656e646564000000000000000000606082015260800190565b600181811c9082168061306e57607f821691505b6020821081141561308f57634e487b7160e01b600052602260045260246000fd5b50919050565b6001600160a01b03841681526020808201849052606060408301528254600091908290600181811c90828116806130cd57607f831692505b8583108114156130eb57634e487b7160e01b85526022600452602485fd5b606088018390526080880181801561310a576001811461311b57613146565b60ff19861682528782019650613146565b60008b81526020902060005b8681101561314057815484820152908501908901613127565b83019750505b50949b9a5050505050505050505050565b7f416363657373436f6e74726f6c3a206163636f756e742000000000000000000081526000835161318f816017850160208801612bd4565b7001034b99036b4b9b9b4b733903937b6329607d1b60179184019182015283516131c0816028840160208801612bd4565b01602801949350505050565b6020808252602b908201527f496e697469616c697a61626c653a20636f6e7472616374206973206e6f74206960408201526a6e697469616c697a696e6760a81b606082015260800190565b60008161322657613226612d38565b50600019019056fe189ab7a9244df0848122154315af71fe140f3db0fe014031783b0946b8c9d2e3360894a13ba1a3210667c828492db98dca3e2076cc3735a920a3ca505d382bbc416464726573733a206c6f772d6c6576656c2064656c65676174652063616c6c206661696c6564a49807205ce4d355092ef5a8a18f56e8913cf4a201fbe287825b095693c21775a264697066735822122060b3906f5c07fa35ca281343ba3576dc5214b6f94ee10842c445a0281799fa1764736f6c63430008090033",
  "linkReferences": {},
  "deployedLinkReferences": {}
}